{
	"contracts/TPTPreSale_flattened.sol": {
		"TPTPreSale": {
			"abi": [
				{
					"inputs": [
						{
							"internalType": "address payable",
							"name": "_priceContract",
							"type": "address"
						}
					],
					"stateMutability": "nonpayable",
					"type": "constructor"
				},
				{
					"stateMutability": "payable",
					"type": "fallback"
				},
				{
					"inputs": [
						{
							"internalType": "bool",
							"name": "_useOffer",
							"type": "bool"
						},
						{
							"internalType": "uint256",
							"name": "bnbValue",
							"type": "uint256"
						}
					],
					"name": "calcAmount",
					"outputs": [
						{
							"internalType": "uint256",
							"name": "",
							"type": "uint256"
						}
					],
					"stateMutability": "view",
					"type": "function"
				},
				{
					"inputs": [
						{
							"internalType": "address payable",
							"name": "_owner",
							"type": "address"
						}
					],
					"name": "chaneOwner",
					"outputs": [],
					"stateMutability": "nonpayable",
					"type": "function"
				},
				{
					"inputs": [],
					"name": "getPriceMode",
					"outputs": [
						{
							"internalType": "string",
							"name": "",
							"type": "string"
						}
					],
					"stateMutability": "view",
					"type": "function"
				},
				{
					"inputs": [
						{
							"internalType": "address",
							"name": "_userAddress",
							"type": "address"
						},
						{
							"internalType": "uint256",
							"name": "index",
							"type": "uint256"
						}
					],
					"name": "getPurchase",
					"outputs": [
						{
							"components": [
								{
									"internalType": "uint256",
									"name": "timestamp",
									"type": "uint256"
								},
								{
									"internalType": "uint256",
									"name": "bnbAmount",
									"type": "uint256"
								},
								{
									"internalType": "uint256",
									"name": "tptAmount",
									"type": "uint256"
								},
								{
									"internalType": "uint8",
									"name": "step",
									"type": "uint8"
								}
							],
							"internalType": "struct TPTPreSale.Purchase",
							"name": "",
							"type": "tuple"
						}
					],
					"stateMutability": "view",
					"type": "function"
				},
				{
					"inputs": [
						{
							"internalType": "address",
							"name": "_userAddress",
							"type": "address"
						}
					],
					"name": "getPurchaseCount",
					"outputs": [
						{
							"internalType": "uint256",
							"name": "",
							"type": "uint256"
						}
					],
					"stateMutability": "view",
					"type": "function"
				},
				{
					"inputs": [],
					"name": "getThisStepPrice",
					"outputs": [
						{
							"internalType": "uint256",
							"name": "",
							"type": "uint256"
						}
					],
					"stateMutability": "view",
					"type": "function"
				},
				{
					"inputs": [
						{
							"internalType": "uint256",
							"name": "id",
							"type": "uint256"
						}
					],
					"name": "getUserById",
					"outputs": [
						{
							"components": [
								{
									"internalType": "address",
									"name": "walletAddress",
									"type": "address"
								},
								{
									"internalType": "uint256",
									"name": "tptBalance",
									"type": "uint256"
								},
								{
									"internalType": "bool",
									"name": "hasOffer",
									"type": "bool"
								},
								{
									"components": [
										{
											"internalType": "uint256",
											"name": "timestamp",
											"type": "uint256"
										},
										{
											"internalType": "uint256",
											"name": "bnbAmount",
											"type": "uint256"
										},
										{
											"internalType": "uint256",
											"name": "tptAmount",
											"type": "uint256"
										},
										{
											"internalType": "uint8",
											"name": "step",
											"type": "uint8"
										}
									],
									"internalType": "struct TPTPreSale.Purchase[]",
									"name": "purchaseList",
									"type": "tuple[]"
								}
							],
							"internalType": "struct TPTPreSale.UserInfo",
							"name": "",
							"type": "tuple"
						}
					],
					"stateMutability": "view",
					"type": "function"
				},
				{
					"inputs": [
						{
							"internalType": "address",
							"name": "user",
							"type": "address"
						}
					],
					"name": "getUserId",
					"outputs": [
						{
							"internalType": "uint256",
							"name": "",
							"type": "uint256"
						}
					],
					"stateMutability": "view",
					"type": "function"
				},
				{
					"inputs": [
						{
							"internalType": "address",
							"name": "_userAddress",
							"type": "address"
						}
					],
					"name": "getUserTPTBalance",
					"outputs": [
						{
							"internalType": "uint256",
							"name": "",
							"type": "uint256"
						}
					],
					"stateMutability": "view",
					"type": "function"
				},
				{
					"inputs": [],
					"name": "owner",
					"outputs": [
						{
							"internalType": "address payable",
							"name": "",
							"type": "address"
						}
					],
					"stateMutability": "view",
					"type": "function"
				},
				{
					"inputs": [
						{
							"internalType": "address payable",
							"name": "_priceContract",
							"type": "address"
						}
					],
					"name": "setBNBPriceAddress",
					"outputs": [],
					"stateMutability": "nonpayable",
					"type": "function"
				},
				{
					"inputs": [
						{
							"internalType": "uint256",
							"name": "_min",
							"type": "uint256"
						}
					],
					"name": "setMinRequire",
					"outputs": [],
					"stateMutability": "nonpayable",
					"type": "function"
				},
				{
					"inputs": [],
					"name": "setPriceMode",
					"outputs": [],
					"stateMutability": "nonpayable",
					"type": "function"
				},
				{
					"inputs": [
						{
							"internalType": "uint8",
							"name": "_step",
							"type": "uint8"
						},
						{
							"internalType": "uint256",
							"name": "_price",
							"type": "uint256"
						}
					],
					"name": "setTPTPrice",
					"outputs": [],
					"stateMutability": "nonpayable",
					"type": "function"
				},
				{
					"inputs": [
						{
							"internalType": "uint8",
							"name": "_step",
							"type": "uint8"
						}
					],
					"name": "setThisStep",
					"outputs": [],
					"stateMutability": "nonpayable",
					"type": "function"
				},
				{
					"inputs": [],
					"name": "thisStep",
					"outputs": [
						{
							"internalType": "uint8",
							"name": "",
							"type": "uint8"
						}
					],
					"stateMutability": "view",
					"type": "function"
				},
				{
					"inputs": [],
					"name": "totalPurchase",
					"outputs": [
						{
							"internalType": "uint256",
							"name": "",
							"type": "uint256"
						}
					],
					"stateMutability": "view",
					"type": "function"
				},
				{
					"inputs": [],
					"name": "totalUsers",
					"outputs": [
						{
							"internalType": "uint256",
							"name": "",
							"type": "uint256"
						}
					],
					"stateMutability": "view",
					"type": "function"
				},
				{
					"inputs": [
						{
							"internalType": "uint8",
							"name": "",
							"type": "uint8"
						}
					],
					"name": "tptStepPrice",
					"outputs": [
						{
							"internalType": "uint256",
							"name": "",
							"type": "uint256"
						}
					],
					"stateMutability": "view",
					"type": "function"
				},
				{
					"inputs": [
						{
							"internalType": "address payable",
							"name": "_to",
							"type": "address"
						}
					],
					"name": "withdrawAll",
					"outputs": [],
					"stateMutability": "nonpayable",
					"type": "function"
				},
				{
					"stateMutability": "payable",
					"type": "receive"
				}
			],
			"devdoc": {
				"kind": "dev",
				"methods": {},
				"version": 1
			},
			"evm": {
				"assembly": "    /* \"contracts/TPTPreSale_flattened.sol\":606:6236  contract TPTPreSale {... */\n  mstore(0x40, 0x80)\n    /* \"contracts/TPTPreSale_flattened.sol\":1662:1908  constructor(address payable _priceContract) {... */\n  callvalue\n  dup1\n  iszero\n  tag_1\n  jumpi\n  0x00\n  dup1\n  revert\ntag_1:\n  pop\n  mload(0x40)\n  sub(codesize, bytecodeSize)\n  dup1\n  bytecodeSize\n  dup4\n  codecopy\n  dup2\n  dup2\n  add\n  0x40\n  mstore\n  dup2\n  add\n  swap1\n  tag_2\n  swap2\n  swap1\n  tag_3\n  jump\t// in\ntag_2:\n    /* \"contracts/TPTPreSale_flattened.sol\":1733:1743  msg.sender */\n  caller\n    /* \"contracts/TPTPreSale_flattened.sol\":1716:1721  owner */\n  0x01\n  0x00\n    /* \"contracts/TPTPreSale_flattened.sol\":1716:1744  owner = payable (msg.sender) */\n  0x0100\n  exp\n  dup2\n  sload\n  dup2\n  0xffffffffffffffffffffffffffffffffffffffff\n  mul\n  not\n  and\n  swap1\n  dup4\n  0xffffffffffffffffffffffffffffffffffffffff\n  and\n  mul\n  or\n  swap1\n  sstore\n  pop\n    /* \"contracts/TPTPreSale_flattened.sol\":1765:1766  1 */\n  0x01\n    /* \"contracts/TPTPreSale_flattened.sol\":1754:1762  thisStep */\n  dup1\n  0x15\n    /* \"contracts/TPTPreSale_flattened.sol\":1754:1766  thisStep = 1 */\n  0x0100\n  exp\n  dup2\n  sload\n  dup2\n  0xff\n  mul\n  not\n  and\n  swap1\n  dup4\n  0xff\n  and\n  mul\n  or\n  swap1\n  sstore\n  pop\n    /* \"contracts/TPTPreSale_flattened.sol\":1792:1806  _priceContract */\n  dup1\n    /* \"contracts/TPTPreSale_flattened.sol\":1776:1789  priceContract */\n  0x00\n  dup1\n    /* \"contracts/TPTPreSale_flattened.sol\":1776:1806  priceContract = _priceContract */\n  0x0100\n  exp\n  dup2\n  sload\n  dup2\n  0xffffffffffffffffffffffffffffffffffffffff\n  mul\n  not\n  and\n  swap1\n  dup4\n  0xffffffffffffffffffffffffffffffffffffffff\n  and\n  mul\n  or\n  swap1\n  sstore\n  pop\n    /* \"contracts/TPTPreSale_flattened.sol\":1830:1835  65e12 */\n  0x3b1dfde91000\n    /* \"contracts/TPTPreSale_flattened.sol\":1816:1827  getPriceTax */\n  0x03\n    /* \"contracts/TPTPreSale_flattened.sol\":1816:1835  getPriceTax = 65e12 */\n  dup2\n  swap1\n  sstore\n  pop\n    /* \"contracts/TPTPreSale_flattened.sol\":1858:1862  1e16 */\n  0x2386f26fc10000\n    /* \"contracts/TPTPreSale_flattened.sol\":1845:1855  minRequire */\n  0x04\n    /* \"contracts/TPTPreSale_flattened.sol\":1845:1862  minRequire = 1e16 */\n  dup2\n  swap1\n  sstore\n  pop\n    /* \"contracts/TPTPreSale_flattened.sol\":1900:1901  0 */\n  0x00\n    /* \"contracts/TPTPreSale_flattened.sol\":1887:1897  totalUsers */\n  0x05\n    /* \"contracts/TPTPreSale_flattened.sol\":1887:1901  totalUsers = 0 */\n  dup2\n  swap1\n  sstore\n  pop\n    /* \"contracts/TPTPreSale_flattened.sol\":1662:1908  constructor(address payable _priceContract) {... */\n  pop\n    /* \"contracts/TPTPreSale_flattened.sol\":606:6236  contract TPTPreSale {... */\n  jump(tag_6)\n    /* \"#utility.yul\":88:205   */\ntag_8:\n    /* \"#utility.yul\":197:198   */\n  0x00\n    /* \"#utility.yul\":194:195   */\n  dup1\n    /* \"#utility.yul\":187:199   */\n  revert\n    /* \"#utility.yul\":334:460   */\ntag_10:\n    /* \"#utility.yul\":371:378   */\n  0x00\n    /* \"#utility.yul\":411:453   */\n  0xffffffffffffffffffffffffffffffffffffffff\n    /* \"#utility.yul\":404:409   */\n  dup3\n    /* \"#utility.yul\":400:454   */\n  and\n    /* \"#utility.yul\":389:454   */\n  swap1\n  pop\n    /* \"#utility.yul\":334:460   */\n  swap2\n  swap1\n  pop\n  jump\t// out\n    /* \"#utility.yul\":466:570   */\ntag_11:\n    /* \"#utility.yul\":511:518   */\n  0x00\n    /* \"#utility.yul\":540:564   */\n  tag_20\n    /* \"#utility.yul\":558:563   */\n  dup3\n    /* \"#utility.yul\":540:564   */\n  tag_10\n  jump\t// in\ntag_20:\n    /* \"#utility.yul\":529:564   */\n  swap1\n  pop\n    /* \"#utility.yul\":466:570   */\n  swap2\n  swap1\n  pop\n  jump\t// out\n    /* \"#utility.yul\":576:714   */\ntag_12:\n    /* \"#utility.yul\":657:689   */\n  tag_22\n    /* \"#utility.yul\":683:688   */\n  dup2\n    /* \"#utility.yul\":657:689   */\n  tag_11\n  jump\t// in\ntag_22:\n    /* \"#utility.yul\":650:655   */\n  dup2\n    /* \"#utility.yul\":647:690   */\n  eq\n    /* \"#utility.yul\":637:708   */\n  tag_23\n  jumpi\n    /* \"#utility.yul\":704:705   */\n  0x00\n    /* \"#utility.yul\":701:702   */\n  dup1\n    /* \"#utility.yul\":694:706   */\n  revert\n    /* \"#utility.yul\":637:708   */\ntag_23:\n    /* \"#utility.yul\":576:714   */\n  pop\n  jump\t// out\n    /* \"#utility.yul\":720:879   */\ntag_13:\n    /* \"#utility.yul\":785:790   */\n  0x00\n    /* \"#utility.yul\":816:822   */\n  dup2\n    /* \"#utility.yul\":810:823   */\n  mload\n    /* \"#utility.yul\":801:823   */\n  swap1\n  pop\n    /* \"#utility.yul\":832:873   */\n  tag_25\n    /* \"#utility.yul\":867:872   */\n  dup2\n    /* \"#utility.yul\":832:873   */\n  tag_12\n  jump\t// in\ntag_25:\n    /* \"#utility.yul\":720:879   */\n  swap3\n  swap2\n  pop\n  pop\n  jump\t// out\n    /* \"#utility.yul\":885:1252   */\ntag_3:\n    /* \"#utility.yul\":963:969   */\n  0x00\n    /* \"#utility.yul\":1012:1014   */\n  0x20\n    /* \"#utility.yul\":1000:1009   */\n  dup3\n    /* \"#utility.yul\":991:998   */\n  dup5\n    /* \"#utility.yul\":987:1010   */\n  sub\n    /* \"#utility.yul\":983:1015   */\n  slt\n    /* \"#utility.yul\":980:1099   */\n  iszero\n  tag_27\n  jumpi\n    /* \"#utility.yul\":1018:1097   */\n  tag_28\n  tag_8\n  jump\t// in\ntag_28:\n    /* \"#utility.yul\":980:1099   */\ntag_27:\n    /* \"#utility.yul\":1138:1139   */\n  0x00\n    /* \"#utility.yul\":1163:1235   */\n  tag_29\n    /* \"#utility.yul\":1227:1234   */\n  dup5\n    /* \"#utility.yul\":1218:1224   */\n  dup3\n    /* \"#utility.yul\":1207:1216   */\n  dup6\n    /* \"#utility.yul\":1203:1225   */\n  add\n    /* \"#utility.yul\":1163:1235   */\n  tag_13\n  jump\t// in\ntag_29:\n    /* \"#utility.yul\":1153:1235   */\n  swap2\n  pop\n    /* \"#utility.yul\":1109:1245   */\n  pop\n    /* \"#utility.yul\":885:1252   */\n  swap3\n  swap2\n  pop\n  pop\n  jump\t// out\n    /* \"contracts/TPTPreSale_flattened.sol\":606:6236  contract TPTPreSale {... */\ntag_6:\n  dataSize(sub_0)\n  dup1\n  dataOffset(sub_0)\n  0x00\n  codecopy\n  0x00\n  return\nstop\n\nsub_0: assembly {\n        /* \"contracts/TPTPreSale_flattened.sol\":606:6236  contract TPTPreSale {... */\n      mstore(0x40, 0x80)\n      jumpi(tag_1, lt(calldatasize, 0x04))\n      shr(0xe0, calldataload(0x00))\n      dup1\n      0x8da5cb5b\n      gt\n      tag_23\n      jumpi\n      dup1\n      0xbff1f9e1\n      gt\n      tag_24\n      jumpi\n      dup1\n      0xbff1f9e1\n      eq\n      tag_18\n      jumpi\n      dup1\n      0xcb722d11\n      eq\n      tag_19\n      jumpi\n      dup1\n      0xfa09e630\n      eq\n      tag_20\n      jumpi\n      dup1\n      0xfdbb6696\n      eq\n      tag_21\n      jumpi\n      dup1\n      0xffbe653d\n      eq\n      tag_22\n      jumpi\n      jump(tag_2)\n    tag_24:\n      dup1\n      0x8da5cb5b\n      eq\n      tag_13\n      jumpi\n      dup1\n      0xa2f5546e\n      eq\n      tag_14\n      jumpi\n      dup1\n      0xae243031\n      eq\n      tag_15\n      jumpi\n      dup1\n      0xaf6b5558\n      eq\n      tag_16\n      jumpi\n      dup1\n      0xb76bdf06\n      eq\n      tag_17\n      jumpi\n      jump(tag_2)\n    tag_23:\n      dup1\n      0x5f1276a7\n      gt\n      tag_25\n      jumpi\n      dup1\n      0x5f1276a7\n      eq\n      tag_8\n      jumpi\n      dup1\n      0x672cbe1a\n      eq\n      tag_9\n      jumpi\n      dup1\n      0x6ed6da9e\n      eq\n      tag_10\n      jumpi\n      dup1\n      0x7b2581c2\n      eq\n      tag_11\n      jumpi\n      dup1\n      0x7ce8a08e\n      eq\n      tag_12\n      jumpi\n      jump(tag_2)\n    tag_25:\n      dup1\n      0x2a2a92cc\n      eq\n      tag_3\n      jumpi\n      dup1\n      0x2b956ff7\n      eq\n      tag_4\n      jumpi\n      dup1\n      0x31bbf555\n      eq\n      tag_5\n      jumpi\n      dup1\n      0x487cb6b0\n      eq\n      tag_6\n      jumpi\n      dup1\n      0x54eb7ebe\n      eq\n      tag_7\n      jumpi\n      jump(tag_2)\n    tag_1:\n      jumpi(tag_2, calldatasize)\n        /* \"contracts/TPTPreSale_flattened.sol\":2424:2434  minRequire */\n      sload(0x04)\n        /* \"contracts/TPTPreSale_flattened.sol\":2411:2420  msg.value */\n      callvalue\n        /* \"contracts/TPTPreSale_flattened.sol\":2411:2434  msg.value >= minRequire */\n      lt\n      iszero\n        /* \"contracts/TPTPreSale_flattened.sol\":2403:2463  require(msg.value >= minRequire, \"Send more BNB to buy TPT\") */\n      tag_28\n      jumpi\n      mload(0x40)\n      0x08c379a000000000000000000000000000000000000000000000000000000000\n      dup2\n      mstore\n      0x04\n      add\n      tag_29\n      swap1\n      tag_30\n      jump\t// in\n    tag_29:\n      mload(0x40)\n      dup1\n      swap2\n      sub\n      swap1\n      revert\n    tag_28:\n        /* \"contracts/TPTPreSale_flattened.sol\":2474:2483  bool sent */\n      0x00\n        /* \"contracts/TPTPreSale_flattened.sol\":2489:2502  priceContract */\n      dup1\n      0x00\n      swap1\n      sload\n      swap1\n      0x0100\n      exp\n      swap1\n      div\n      0xffffffffffffffffffffffffffffffffffffffff\n      and\n        /* \"contracts/TPTPreSale_flattened.sol\":2489:2507  priceContract.call */\n      0xffffffffffffffffffffffffffffffffffffffff\n      and\n        /* \"contracts/TPTPreSale_flattened.sol\":2515:2526  getPriceTax */\n      sload(0x03)\n        /* \"contracts/TPTPreSale_flattened.sol\":2489:2531  priceContract.call{value: getPriceTax}(\"\") */\n      mload(0x40)\n      tag_31\n      swap1\n      tag_32\n      jump\t// in\n    tag_31:\n      0x00\n      mload(0x40)\n      dup1\n      dup4\n      sub\n      dup2\n      dup6\n      dup8\n      gas\n      call\n      swap3\n      pop\n      pop\n      pop\n      returndatasize\n      dup1\n      0x00\n      dup2\n      eq\n      tag_35\n      jumpi\n      mload(0x40)\n      swap2\n      pop\n      and(add(returndatasize, 0x3f), not(0x1f))\n      dup3\n      add\n      0x40\n      mstore\n      returndatasize\n      dup3\n      mstore\n      returndatasize\n      0x00\n      0x20\n      dup5\n      add\n      returndatacopy\n      jump(tag_34)\n    tag_35:\n      0x60\n      swap2\n      pop\n    tag_34:\n      pop\n        /* \"contracts/TPTPreSale_flattened.sol\":2473:2531  (bool sent, ) = priceContract.call{value: getPriceTax}(\"\") */\n      pop\n      swap1\n      pop\n        /* \"contracts/TPTPreSale_flattened.sol\":2549:2553  sent */\n      dup1\n        /* \"contracts/TPTPreSale_flattened.sol\":2541:2573  require(sent, \"Transfer failed\") */\n      tag_36\n      jumpi\n      mload(0x40)\n      0x08c379a000000000000000000000000000000000000000000000000000000000\n      dup2\n      mstore\n      0x04\n      add\n      tag_37\n      swap1\n      tag_38\n      jump\t// in\n    tag_37:\n      mload(0x40)\n      dup1\n      swap2\n      sub\n      swap1\n      revert\n    tag_36:\n        /* \"contracts/TPTPreSale_flattened.sol\":2584:2597  buyTPT(false) */\n      tag_39\n        /* \"contracts/TPTPreSale_flattened.sol\":2591:2596  false */\n      0x00\n        /* \"contracts/TPTPreSale_flattened.sol\":2584:2590  buyTPT */\n      tag_40\n        /* \"contracts/TPTPreSale_flattened.sol\":2584:2597  buyTPT(false) */\n      jump\t// in\n    tag_39:\n        /* \"contracts/TPTPreSale_flattened.sol\":2393:2604  {... */\n      stop\n        /* \"contracts/TPTPreSale_flattened.sol\":606:6236  contract TPTPreSale {... */\n    tag_2:\n        /* \"contracts/TPTPreSale_flattened.sol\":1973:1983  minRequire */\n      sload(0x04)\n        /* \"contracts/TPTPreSale_flattened.sol\":1960:1969  msg.value */\n      callvalue\n        /* \"contracts/TPTPreSale_flattened.sol\":1960:1983  msg.value >= minRequire */\n      lt\n      iszero\n        /* \"contracts/TPTPreSale_flattened.sol\":1952:2012  require(msg.value >= minRequire, \"Send more BNB to buy TPT\") */\n      tag_43\n      jumpi\n      mload(0x40)\n      0x08c379a000000000000000000000000000000000000000000000000000000000\n      dup2\n      mstore\n      0x04\n      add\n      tag_44\n      swap1\n      tag_30\n      jump\t// in\n    tag_44:\n      mload(0x40)\n      dup1\n      swap2\n      sub\n      swap1\n      revert\n    tag_43:\n        /* \"contracts/TPTPreSale_flattened.sol\":2049:2051  32 */\n      0x20\n        /* \"contracts/TPTPreSale_flattened.sol\":2030:2038  msg.data */\n      0x00\n      calldatasize\n        /* \"contracts/TPTPreSale_flattened.sol\":2030:2045  msg.data.length */\n      swap1\n      pop\n        /* \"contracts/TPTPreSale_flattened.sol\":2030:2051  msg.data.length >= 32 */\n      lt\n      iszero\n        /* \"contracts/TPTPreSale_flattened.sol\":2022:2075  require(msg.data.length >= 32, \"Invalid data length\") */\n      tag_45\n      jumpi\n      mload(0x40)\n      0x08c379a000000000000000000000000000000000000000000000000000000000\n      dup2\n      mstore\n      0x04\n      add\n      tag_46\n      swap1\n      tag_47\n      jump\t// in\n    tag_46:\n      mload(0x40)\n      dup1\n      swap2\n      sub\n      swap1\n      revert\n    tag_45:\n        /* \"contracts/TPTPreSale_flattened.sol\":2100:2108  msg.data */\n      0x00\n      calldatasize\n        /* \"contracts/TPTPreSale_flattened.sol\":2089:2117  abi.decode(msg.data, (bool)) */\n      dup2\n      add\n      swap1\n      tag_48\n      swap2\n      swap1\n      tag_49\n      jump\t// in\n    tag_48:\n        /* \"contracts/TPTPreSale_flattened.sol\":2085:2198  if (abi.decode(msg.data, (bool))) {... */\n      iszero\n      tag_50\n      jumpi\n        /* \"contracts/TPTPreSale_flattened.sol\":2154:2158  5e16 */\n      0xb1a2bc2ec50000\n        /* \"contracts/TPTPreSale_flattened.sol\":2141:2150  msg.value */\n      callvalue\n        /* \"contracts/TPTPreSale_flattened.sol\":2141:2158  msg.value == 5e16 */\n      eq\n        /* \"contracts/TPTPreSale_flattened.sol\":2133:2187  require(msg.value == 5e16, \"send just equal 0.05 bnb\") */\n      tag_51\n      jumpi\n      mload(0x40)\n      0x08c379a000000000000000000000000000000000000000000000000000000000\n      dup2\n      mstore\n      0x04\n      add\n      tag_52\n      swap1\n      tag_53\n      jump\t// in\n    tag_52:\n      mload(0x40)\n      dup1\n      swap2\n      sub\n      swap1\n      revert\n    tag_51:\n        /* \"contracts/TPTPreSale_flattened.sol\":2085:2198  if (abi.decode(msg.data, (bool))) {... */\n    tag_50:\n        /* \"contracts/TPTPreSale_flattened.sol\":2208:2217  bool sent */\n      0x00\n        /* \"contracts/TPTPreSale_flattened.sol\":2223:2236  priceContract */\n      dup1\n      0x00\n      swap1\n      sload\n      swap1\n      0x0100\n      exp\n      swap1\n      div\n      0xffffffffffffffffffffffffffffffffffffffff\n      and\n        /* \"contracts/TPTPreSale_flattened.sol\":2223:2241  priceContract.call */\n      0xffffffffffffffffffffffffffffffffffffffff\n      and\n        /* \"contracts/TPTPreSale_flattened.sol\":2249:2260  getPriceTax */\n      sload(0x03)\n        /* \"contracts/TPTPreSale_flattened.sol\":2223:2265  priceContract.call{value: getPriceTax}(\"\") */\n      mload(0x40)\n      tag_54\n      swap1\n      tag_32\n      jump\t// in\n    tag_54:\n      0x00\n      mload(0x40)\n      dup1\n      dup4\n      sub\n      dup2\n      dup6\n      dup8\n      gas\n      call\n      swap3\n      pop\n      pop\n      pop\n      returndatasize\n      dup1\n      0x00\n      dup2\n      eq\n      tag_57\n      jumpi\n      mload(0x40)\n      swap2\n      pop\n      and(add(returndatasize, 0x3f), not(0x1f))\n      dup3\n      add\n      0x40\n      mstore\n      returndatasize\n      dup3\n      mstore\n      returndatasize\n      0x00\n      0x20\n      dup5\n      add\n      returndatacopy\n      jump(tag_56)\n    tag_57:\n      0x60\n      swap2\n      pop\n    tag_56:\n      pop\n        /* \"contracts/TPTPreSale_flattened.sol\":2207:2265  (bool sent, ) = priceContract.call{value: getPriceTax}(\"\") */\n      pop\n      swap1\n      pop\n        /* \"contracts/TPTPreSale_flattened.sol\":2283:2287  sent */\n      dup1\n        /* \"contracts/TPTPreSale_flattened.sol\":2275:2307  require(sent, \"Transfer failed\") */\n      tag_58\n      jumpi\n      mload(0x40)\n      0x08c379a000000000000000000000000000000000000000000000000000000000\n      dup2\n      mstore\n      0x04\n      add\n      tag_59\n      swap1\n      tag_38\n      jump\t// in\n    tag_59:\n      mload(0x40)\n      dup1\n      swap2\n      sub\n      swap1\n      revert\n    tag_58:\n        /* \"contracts/TPTPreSale_flattened.sol\":2317:2353  buyTPT(abi.decode(msg.data, (bool))) */\n      tag_60\n        /* \"contracts/TPTPreSale_flattened.sol\":2335:2343  msg.data */\n      0x00\n      calldatasize\n        /* \"contracts/TPTPreSale_flattened.sol\":2324:2352  abi.decode(msg.data, (bool)) */\n      dup2\n      add\n      swap1\n      tag_61\n      swap2\n      swap1\n      tag_49\n      jump\t// in\n    tag_61:\n        /* \"contracts/TPTPreSale_flattened.sol\":2317:2323  buyTPT */\n      tag_40\n        /* \"contracts/TPTPreSale_flattened.sol\":2317:2353  buyTPT(abi.decode(msg.data, (bool))) */\n      jump\t// in\n    tag_60:\n        /* \"contracts/TPTPreSale_flattened.sol\":1942:2360  {... */\n      stop\n        /* \"contracts/TPTPreSale_flattened.sol\":5221:5427  function getPurchase(address _userAddress, uint256 index)... */\n    tag_3:\n      callvalue\n      dup1\n      iszero\n      tag_62\n      jumpi\n      0x00\n      dup1\n      revert\n    tag_62:\n      pop\n      tag_63\n      0x04\n      dup1\n      calldatasize\n      sub\n      dup2\n      add\n      swap1\n      tag_64\n      swap2\n      swap1\n      tag_65\n      jump\t// in\n    tag_64:\n      tag_66\n      jump\t// in\n    tag_63:\n      mload(0x40)\n      tag_67\n      swap2\n      swap1\n      tag_68\n      jump\t// in\n    tag_67:\n      mload(0x40)\n      dup1\n      swap2\n      sub\n      swap1\n      return\n        /* \"contracts/TPTPreSale_flattened.sol\":5433:5534  function getUserId(address user) external view returns (uint256) {... */\n    tag_4:\n      callvalue\n      dup1\n      iszero\n      tag_69\n      jumpi\n      0x00\n      dup1\n      revert\n    tag_69:\n      pop\n      tag_70\n      0x04\n      dup1\n      calldatasize\n      sub\n      dup2\n      add\n      swap1\n      tag_71\n      swap2\n      swap1\n      tag_72\n      jump\t// in\n    tag_71:\n      tag_73\n      jump\t// in\n    tag_70:\n      mload(0x40)\n      tag_74\n      swap2\n      swap1\n      tag_75\n      jump\t// in\n    tag_74:\n      mload(0x40)\n      dup1\n      swap2\n      sub\n      swap1\n      return\n        /* \"contracts/TPTPreSale_flattened.sol\":5036:5215  function getPurchaseCount(address _userAddress)... */\n    tag_5:\n      callvalue\n      dup1\n      iszero\n      tag_76\n      jumpi\n      0x00\n      dup1\n      revert\n    tag_76:\n      pop\n      tag_77\n      0x04\n      dup1\n      calldatasize\n      sub\n      dup2\n      add\n      swap1\n      tag_78\n      swap2\n      swap1\n      tag_72\n      jump\t// in\n    tag_78:\n      tag_79\n      jump\t// in\n    tag_77:\n      mload(0x40)\n      tag_80\n      swap2\n      swap1\n      tag_75\n      jump\t// in\n    tag_80:\n      mload(0x40)\n      dup1\n      swap2\n      sub\n      swap1\n      return\n        /* \"contracts/TPTPreSale_flattened.sol\":2610:2704  function setPriceMode() public onlyOwner {... */\n    tag_6:\n      callvalue\n      dup1\n      iszero\n      tag_81\n      jumpi\n      0x00\n      dup1\n      revert\n    tag_81:\n      pop\n      tag_82\n      tag_83\n      jump\t// in\n    tag_82:\n      stop\n        /* \"contracts/TPTPreSale_flattened.sol\":2710:2846  function getPriceMode() public view onlyOwner returns (string memory) {... */\n    tag_7:\n      callvalue\n      dup1\n      iszero\n      tag_84\n      jumpi\n      0x00\n      dup1\n      revert\n    tag_84:\n      pop\n      tag_85\n      tag_86\n      jump\t// in\n    tag_85:\n      mload(0x40)\n      tag_87\n      swap2\n      swap1\n      tag_88\n      jump\t// in\n    tag_87:\n      mload(0x40)\n      dup1\n      swap2\n      sub\n      swap1\n      return\n        /* \"contracts/TPTPreSale_flattened.sol\":5980:6073  function chaneOwner(address payable  _owner) public onlyOwner{... */\n    tag_8:\n      callvalue\n      dup1\n      iszero\n      tag_89\n      jumpi\n      0x00\n      dup1\n      revert\n    tag_89:\n      pop\n      tag_90\n      0x04\n      dup1\n      calldatasize\n      sub\n      dup2\n      add\n      swap1\n      tag_91\n      swap2\n      swap1\n      tag_92\n      jump\t// in\n    tag_91:\n      tag_93\n      jump\t// in\n    tag_90:\n      stop\n        /* \"contracts/TPTPreSale_flattened.sol\":4752:4856  function getThisStepPrice() public view returns (uint256) {... */\n    tag_9:\n      callvalue\n      dup1\n      iszero\n      tag_94\n      jumpi\n      0x00\n      dup1\n      revert\n    tag_94:\n      pop\n      tag_95\n      tag_96\n      jump\t// in\n    tag_95:\n      mload(0x40)\n      tag_97\n      swap2\n      swap1\n      tag_75\n      jump\t// in\n    tag_97:\n      mload(0x40)\n      dup1\n      swap2\n      sub\n      swap1\n      return\n        /* \"contracts/TPTPreSale_flattened.sol\":5540:5646  function getUserById(uint256 id) external view returns (UserInfo memory) {... */\n    tag_10:\n      callvalue\n      dup1\n      iszero\n      tag_98\n      jumpi\n      0x00\n      dup1\n      revert\n    tag_98:\n      pop\n      tag_99\n      0x04\n      dup1\n      calldatasize\n      sub\n      dup2\n      add\n      swap1\n      tag_100\n      swap2\n      swap1\n      tag_101\n      jump\t// in\n    tag_100:\n      tag_102\n      jump\t// in\n    tag_99:\n      mload(0x40)\n      tag_103\n      swap2\n      swap1\n      tag_104\n      jump\t// in\n    tag_103:\n      mload(0x40)\n      dup1\n      swap2\n      sub\n      swap1\n      return\n        /* \"contracts/TPTPreSale_flattened.sol\":912:937  uint public totalPurchase */\n    tag_11:\n      callvalue\n      dup1\n      iszero\n      tag_105\n      jumpi\n      0x00\n      dup1\n      revert\n    tag_105:\n      pop\n      tag_106\n      tag_107\n      jump\t// in\n    tag_106:\n      mload(0x40)\n      tag_108\n      swap2\n      swap1\n      tag_75\n      jump\t// in\n    tag_108:\n      mload(0x40)\n      dup1\n      swap2\n      sub\n      swap1\n      return\n        /* \"contracts/TPTPreSale_flattened.sol\":4544:4628  function setThisStep(uint8 _step) public onlyOwner {... */\n    tag_12:\n      callvalue\n      dup1\n      iszero\n      tag_109\n      jumpi\n      0x00\n      dup1\n      revert\n    tag_109:\n      pop\n      tag_110\n      0x04\n      dup1\n      calldatasize\n      sub\n      dup2\n      add\n      swap1\n      tag_111\n      swap2\n      swap1\n      tag_112\n      jump\t// in\n    tag_111:\n      tag_113\n      jump\t// in\n    tag_110:\n      stop\n        /* \"contracts/TPTPreSale_flattened.sol\":676:704  address payable public owner */\n    tag_13:\n      callvalue\n      dup1\n      iszero\n      tag_114\n      jumpi\n      0x00\n      dup1\n      revert\n    tag_114:\n      pop\n      tag_115\n      tag_116\n      jump\t// in\n    tag_115:\n      mload(0x40)\n      tag_117\n      swap2\n      swap1\n      tag_118\n      jump\t// in\n    tag_117:\n      mload(0x40)\n      dup1\n      swap2\n      sub\n      swap1\n      return\n        /* \"contracts/TPTPreSale_flattened.sol\":4634:4746  function setTPTPrice(uint8 _step, uint256 _price) public onlyOwner {... */\n    tag_14:\n      callvalue\n      dup1\n      iszero\n      tag_119\n      jumpi\n      0x00\n      dup1\n      revert\n    tag_119:\n      pop\n      tag_120\n      0x04\n      dup1\n      calldatasize\n      sub\n      dup2\n      add\n      swap1\n      tag_121\n      swap2\n      swap1\n      tag_122\n      jump\t// in\n    tag_121:\n      tag_123\n      jump\t// in\n    tag_120:\n      stop\n        /* \"contracts/TPTPreSale_flattened.sol\":736:757  uint8 public thisStep */\n    tag_15:\n      callvalue\n      dup1\n      iszero\n      tag_124\n      jumpi\n      0x00\n      dup1\n      revert\n    tag_124:\n      pop\n      tag_125\n      tag_126\n      jump\t// in\n    tag_125:\n      mload(0x40)\n      tag_127\n      swap2\n      swap1\n      tag_128\n      jump\t// in\n    tag_127:\n      mload(0x40)\n      dup1\n      swap2\n      sub\n      swap1\n      return\n        /* \"contracts/TPTPreSale_flattened.sol\":5830:5974  function setBNBPriceAddress(address payable _priceContract)... */\n    tag_16:\n      callvalue\n      dup1\n      iszero\n      tag_129\n      jumpi\n      0x00\n      dup1\n      revert\n    tag_129:\n      pop\n      tag_130\n      0x04\n      dup1\n      calldatasize\n      sub\n      dup2\n      add\n      swap1\n      tag_131\n      swap2\n      swap1\n      tag_92\n      jump\t// in\n    tag_131:\n      tag_132\n      jump\t// in\n    tag_130:\n      stop\n        /* \"contracts/TPTPreSale_flattened.sol\":6080:6234  function setMinRequire(uint _min) public onlyOwner{... */\n    tag_17:\n      callvalue\n      dup1\n      iszero\n      tag_133\n      jumpi\n      0x00\n      dup1\n      revert\n    tag_133:\n      pop\n      tag_134\n      0x04\n      dup1\n      calldatasize\n      sub\n      dup2\n      add\n      swap1\n      tag_135\n      swap2\n      swap1\n      tag_101\n      jump\t// in\n    tag_135:\n      tag_136\n      jump\t// in\n    tag_134:\n      stop\n        /* \"contracts/TPTPreSale_flattened.sol\":881:906  uint256 public totalUsers */\n    tag_18:\n      callvalue\n      dup1\n      iszero\n      tag_137\n      jumpi\n      0x00\n      dup1\n      revert\n    tag_137:\n      pop\n      tag_138\n      tag_139\n      jump\t// in\n    tag_138:\n      mload(0x40)\n      tag_140\n      swap2\n      swap1\n      tag_75\n      jump\t// in\n    tag_140:\n      mload(0x40)\n      dup1\n      swap2\n      sub\n      swap1\n      return\n        /* \"contracts/TPTPreSale_flattened.sol\":4079:4538  function calcAmount(bool _useOffer, uint256 bnbValue) public view returns (uint256){... */\n    tag_19:\n      callvalue\n      dup1\n      iszero\n      tag_141\n      jumpi\n      0x00\n      dup1\n      revert\n    tag_141:\n      pop\n      tag_142\n      0x04\n      dup1\n      calldatasize\n      sub\n      dup2\n      add\n      swap1\n      tag_143\n      swap2\n      swap1\n      tag_144\n      jump\t// in\n    tag_143:\n      tag_145\n      jump\t// in\n    tag_142:\n      mload(0x40)\n      tag_146\n      swap2\n      swap1\n      tag_75\n      jump\t// in\n    tag_146:\n      mload(0x40)\n      dup1\n      swap2\n      sub\n      swap1\n      return\n        /* \"contracts/TPTPreSale_flattened.sol\":4862:5030  function withdrawAll(address payable _to) external onlyOwner {... */\n    tag_20:\n      callvalue\n      dup1\n      iszero\n      tag_147\n      jumpi\n      0x00\n      dup1\n      revert\n    tag_147:\n      pop\n      tag_148\n      0x04\n      dup1\n      calldatasize\n      sub\n      dup2\n      add\n      swap1\n      tag_149\n      swap2\n      swap1\n      tag_92\n      jump\t// in\n    tag_149:\n      tag_150\n      jump\t// in\n    tag_148:\n      stop\n        /* \"contracts/TPTPreSale_flattened.sol\":5652:5823  function getUserTPTBalance(address _userAddress)... */\n    tag_21:\n      callvalue\n      dup1\n      iszero\n      tag_151\n      jumpi\n      0x00\n      dup1\n      revert\n    tag_151:\n      pop\n      tag_152\n      0x04\n      dup1\n      calldatasize\n      sub\n      dup2\n      add\n      swap1\n      tag_153\n      swap2\n      swap1\n      tag_72\n      jump\t// in\n    tag_153:\n      tag_154\n      jump\t// in\n    tag_152:\n      mload(0x40)\n      tag_155\n      swap2\n      swap1\n      tag_75\n      jump\t// in\n    tag_155:\n      mload(0x40)\n      dup1\n      swap2\n      sub\n      swap1\n      return\n        /* \"contracts/TPTPreSale_flattened.sol\":763:808  mapping(uint8 => uint256) public tptStepPrice */\n    tag_22:\n      callvalue\n      dup1\n      iszero\n      tag_156\n      jumpi\n      0x00\n      dup1\n      revert\n    tag_156:\n      pop\n      tag_157\n      0x04\n      dup1\n      calldatasize\n      sub\n      dup2\n      add\n      swap1\n      tag_158\n      swap2\n      swap1\n      tag_112\n      jump\t// in\n    tag_158:\n      tag_159\n      jump\t// in\n    tag_157:\n      mload(0x40)\n      tag_160\n      swap2\n      swap1\n      tag_75\n      jump\t// in\n    tag_160:\n      mload(0x40)\n      dup1\n      swap2\n      sub\n      swap1\n      return\n        /* \"contracts/TPTPreSale_flattened.sol\":3097:4073  function buyTPT(bool _useOffer) internal pauseable reentrancy {... */\n    tag_40:\n        /* \"contracts/TPTPreSale_flattened.sol\":1465:1466  0 */\n      0x00\n        /* \"contracts/TPTPreSale_flattened.sol\":1453:1461  thisStep */\n      0x01\n      0x15\n      swap1\n      sload\n      swap1\n      0x0100\n      exp\n      swap1\n      div\n      0xff\n      and\n        /* \"contracts/TPTPreSale_flattened.sol\":1453:1466  thisStep != 0 */\n      0xff\n      and\n      sub\n        /* \"contracts/TPTPreSale_flattened.sol\":1445:1486  require(thisStep != 0, \"Contract Paused\") */\n      tag_162\n      jumpi\n      mload(0x40)\n      0x08c379a000000000000000000000000000000000000000000000000000000000\n      dup2\n      mstore\n      0x04\n      add\n      tag_163\n      swap1\n      tag_164\n      jump\t// in\n    tag_163:\n      mload(0x40)\n      dup1\n      swap2\n      sub\n      swap1\n      revert\n    tag_162:\n        /* \"contracts/TPTPreSale_flattened.sol\":1560:1564  true */\n      0x01\n        /* \"contracts/TPTPreSale_flattened.sol\":1550:1564  locked != true */\n      iszero\n      iszero\n        /* \"contracts/TPTPreSale_flattened.sol\":1550:1556  locked */\n      0x01\n      0x14\n      swap1\n      sload\n      swap1\n      0x0100\n      exp\n      swap1\n      div\n      0xff\n      and\n        /* \"contracts/TPTPreSale_flattened.sol\":1550:1564  locked != true */\n      iszero\n      iszero\n      sub\n        /* \"contracts/TPTPreSale_flattened.sol\":1542:1591  require(locked != true, \"No Reentrancy,pls wait\") */\n      tag_166\n      jumpi\n      mload(0x40)\n      0x08c379a000000000000000000000000000000000000000000000000000000000\n      dup2\n      mstore\n      0x04\n      add\n      tag_167\n      swap1\n      tag_168\n      jump\t// in\n    tag_167:\n      mload(0x40)\n      dup1\n      swap2\n      sub\n      swap1\n      revert\n    tag_166:\n        /* \"contracts/TPTPreSale_flattened.sol\":1610:1614  true */\n      0x01\n        /* \"contracts/TPTPreSale_flattened.sol\":1601:1607  locked */\n      dup1\n      0x14\n        /* \"contracts/TPTPreSale_flattened.sol\":1601:1614  locked = true */\n      0x0100\n      exp\n      dup2\n      sload\n      dup2\n      0xff\n      mul\n      not\n      and\n      swap1\n      dup4\n      iszero\n      iszero\n      mul\n      or\n      swap1\n      sstore\n      pop\n        /* \"contracts/TPTPreSale_flattened.sol\":3195:3196  0 */\n      0x00\n        /* \"contracts/TPTPreSale_flattened.sol\":3173:3179  userId */\n      0x07\n        /* \"contracts/TPTPreSale_flattened.sol\":3173:3191  userId[msg.sender] */\n      0x00\n        /* \"contracts/TPTPreSale_flattened.sol\":3180:3190  msg.sender */\n      caller\n        /* \"contracts/TPTPreSale_flattened.sol\":3173:3191  userId[msg.sender] */\n      0xffffffffffffffffffffffffffffffffffffffff\n      and\n      0xffffffffffffffffffffffffffffffffffffffff\n      and\n      dup2\n      mstore\n      0x20\n      add\n      swap1\n      dup2\n      mstore\n      0x20\n      add\n      0x00\n      keccak256\n      sload\n        /* \"contracts/TPTPreSale_flattened.sol\":3173:3196  userId[msg.sender] == 0 */\n      sub\n        /* \"contracts/TPTPreSale_flattened.sol\":3169:3522  if (userId[msg.sender] == 0) {... */\n      tag_170\n      jumpi\n        /* \"contracts/TPTPreSale_flattened.sol\":3212:3222  totalUsers */\n      0x05\n      0x00\n        /* \"contracts/TPTPreSale_flattened.sol\":3212:3224  totalUsers++ */\n      dup2\n      sload\n      dup1\n      swap3\n      swap2\n      swap1\n      tag_171\n      swap1\n      tag_172\n      jump\t// in\n    tag_171:\n      swap2\n      swap1\n      pop\n      sstore\n      pop\n        /* \"contracts/TPTPreSale_flattened.sol\":3259:3269  totalUsers */\n      sload(0x05)\n        /* \"contracts/TPTPreSale_flattened.sol\":3238:3244  userId */\n      0x07\n        /* \"contracts/TPTPreSale_flattened.sol\":3238:3256  userId[msg.sender] */\n      0x00\n        /* \"contracts/TPTPreSale_flattened.sol\":3245:3255  msg.sender */\n      caller\n        /* \"contracts/TPTPreSale_flattened.sol\":3238:3256  userId[msg.sender] */\n      0xffffffffffffffffffffffffffffffffffffffff\n      and\n      0xffffffffffffffffffffffffffffffffffffffff\n      and\n      dup2\n      mstore\n      0x20\n      add\n      swap1\n      dup2\n      mstore\n      0x20\n      add\n      0x00\n      keccak256\n        /* \"contracts/TPTPreSale_flattened.sol\":3238:3269  userId[msg.sender] = totalUsers */\n      dup2\n      swap1\n      sstore\n      pop\n        /* \"contracts/TPTPreSale_flattened.sol\":3284:3309  UserInfo storage userInfo */\n      0x00\n        /* \"contracts/TPTPreSale_flattened.sol\":3312:3317  users */\n      0x08\n        /* \"contracts/TPTPreSale_flattened.sol\":3312:3337  users[userId[msg.sender]] */\n      0x00\n        /* \"contracts/TPTPreSale_flattened.sol\":3318:3324  userId */\n      0x07\n        /* \"contracts/TPTPreSale_flattened.sol\":3318:3336  userId[msg.sender] */\n      0x00\n        /* \"contracts/TPTPreSale_flattened.sol\":3325:3335  msg.sender */\n      caller\n        /* \"contracts/TPTPreSale_flattened.sol\":3318:3336  userId[msg.sender] */\n      0xffffffffffffffffffffffffffffffffffffffff\n      and\n      0xffffffffffffffffffffffffffffffffffffffff\n      and\n      dup2\n      mstore\n      0x20\n      add\n      swap1\n      dup2\n      mstore\n      0x20\n      add\n      0x00\n      keccak256\n      sload\n        /* \"contracts/TPTPreSale_flattened.sol\":3312:3337  users[userId[msg.sender]] */\n      dup2\n      mstore\n      0x20\n      add\n      swap1\n      dup2\n      mstore\n      0x20\n      add\n      0x00\n      keccak256\n        /* \"contracts/TPTPreSale_flattened.sol\":3284:3337  UserInfo storage userInfo = users[userId[msg.sender]] */\n      swap1\n      pop\n        /* \"contracts/TPTPreSale_flattened.sol\":3376:3386  msg.sender */\n      caller\n        /* \"contracts/TPTPreSale_flattened.sol\":3351:3359  userInfo */\n      dup2\n        /* \"contracts/TPTPreSale_flattened.sol\":3351:3373  userInfo.walletAddress */\n      0x00\n      add\n      0x00\n        /* \"contracts/TPTPreSale_flattened.sol\":3351:3386  userInfo.walletAddress = msg.sender */\n      0x0100\n      exp\n      dup2\n      sload\n      dup2\n      0xffffffffffffffffffffffffffffffffffffffff\n      mul\n      not\n      and\n      swap1\n      dup4\n      0xffffffffffffffffffffffffffffffffffffffff\n      and\n      mul\n      or\n      swap1\n      sstore\n      pop\n        /* \"contracts/TPTPreSale_flattened.sol\":3422:3423  0 */\n      0x00\n        /* \"contracts/TPTPreSale_flattened.sol\":3400:3408  userInfo */\n      dup2\n        /* \"contracts/TPTPreSale_flattened.sol\":3400:3419  userInfo.tptBalance */\n      0x01\n      add\n        /* \"contracts/TPTPreSale_flattened.sol\":3400:3423  userInfo.tptBalance = 0 */\n      dup2\n      swap1\n      sstore\n      pop\n        /* \"contracts/TPTPreSale_flattened.sol\":3457:3461  true */\n      0x01\n        /* \"contracts/TPTPreSale_flattened.sol\":3437:3445  userInfo */\n      dup2\n        /* \"contracts/TPTPreSale_flattened.sol\":3437:3454  userInfo.hasOffer */\n      0x02\n      add\n      0x00\n        /* \"contracts/TPTPreSale_flattened.sol\":3437:3461  userInfo.hasOffer = true */\n      0x0100\n      exp\n      dup2\n      sload\n      dup2\n      0xff\n      mul\n      not\n      and\n      swap1\n      dup4\n      iszero\n      iszero\n      mul\n      or\n      swap1\n      sstore\n      pop\n        /* \"contracts/TPTPreSale_flattened.sol\":3503:3511  userInfo */\n      dup1\n        /* \"contracts/TPTPreSale_flattened.sol\":3475:3480  users */\n      0x08\n        /* \"contracts/TPTPreSale_flattened.sol\":3475:3500  users[userId[msg.sender]] */\n      0x00\n        /* \"contracts/TPTPreSale_flattened.sol\":3481:3487  userId */\n      0x07\n        /* \"contracts/TPTPreSale_flattened.sol\":3481:3499  userId[msg.sender] */\n      0x00\n        /* \"contracts/TPTPreSale_flattened.sol\":3488:3498  msg.sender */\n      caller\n        /* \"contracts/TPTPreSale_flattened.sol\":3481:3499  userId[msg.sender] */\n      0xffffffffffffffffffffffffffffffffffffffff\n      and\n      0xffffffffffffffffffffffffffffffffffffffff\n      and\n      dup2\n      mstore\n      0x20\n      add\n      swap1\n      dup2\n      mstore\n      0x20\n      add\n      0x00\n      keccak256\n      sload\n        /* \"contracts/TPTPreSale_flattened.sol\":3475:3500  users[userId[msg.sender]] */\n      dup2\n      mstore\n      0x20\n      add\n      swap1\n      dup2\n      mstore\n      0x20\n      add\n      0x00\n      keccak256\n        /* \"contracts/TPTPreSale_flattened.sol\":3475:3511  users[userId[msg.sender]] = userInfo */\n      0x00\n      dup3\n      add\n      0x00\n      swap1\n      sload\n      swap1\n      0x0100\n      exp\n      swap1\n      div\n      0xffffffffffffffffffffffffffffffffffffffff\n      and\n      dup2\n      0x00\n      add\n      exp(0x0100, 0x00)\n      dup2\n      sload\n      dup2\n      0xffffffffffffffffffffffffffffffffffffffff\n      mul\n      not\n      and\n      swap1\n      dup4\n      0xffffffffffffffffffffffffffffffffffffffff\n      and\n      mul\n      or\n      swap1\n      sstore\n      pop\n      0x01\n      dup3\n      add\n      sload\n      dup2\n      0x01\n      add\n      sstore\n      0x02\n      dup3\n      add\n      0x00\n      swap1\n      sload\n      swap1\n      0x0100\n      exp\n      swap1\n      div\n      0xff\n      and\n      dup2\n      0x02\n      add\n      exp(0x0100, 0x00)\n      dup2\n      sload\n      dup2\n      0xff\n      mul\n      not\n      and\n      swap1\n      dup4\n      iszero\n      iszero\n      mul\n      or\n      swap1\n      sstore\n      pop\n      0x03\n      dup3\n      add\n      dup2\n      0x03\n      add\n      swap1\n      dup1\n      sload\n      tag_173\n      swap3\n      swap2\n      swap1\n      tag_174\n      jump\t// in\n    tag_173:\n      pop\n      swap1\n      pop\n      pop\n        /* \"contracts/TPTPreSale_flattened.sol\":3198:3522  {... */\n      pop\n        /* \"contracts/TPTPreSale_flattened.sol\":3169:3522  if (userId[msg.sender] == 0) {... */\n    tag_170:\n        /* \"contracts/TPTPreSale_flattened.sol\":3539:3553  uint256 amount */\n      0x00\n        /* \"contracts/TPTPreSale_flattened.sol\":3567:3576  _useOffer */\n      dup2\n        /* \"contracts/TPTPreSale_flattened.sol\":3563:3847  if (_useOffer) {... */\n      iszero\n      tag_175\n      jumpi\n        /* \"contracts/TPTPreSale_flattened.sol\":3600:3605  users */\n      0x08\n        /* \"contracts/TPTPreSale_flattened.sol\":3600:3625  users[userId[msg.sender]] */\n      0x00\n        /* \"contracts/TPTPreSale_flattened.sol\":3606:3612  userId */\n      0x07\n        /* \"contracts/TPTPreSale_flattened.sol\":3606:3624  userId[msg.sender] */\n      0x00\n        /* \"contracts/TPTPreSale_flattened.sol\":3613:3623  msg.sender */\n      caller\n        /* \"contracts/TPTPreSale_flattened.sol\":3606:3624  userId[msg.sender] */\n      0xffffffffffffffffffffffffffffffffffffffff\n      and\n      0xffffffffffffffffffffffffffffffffffffffff\n      and\n      dup2\n      mstore\n      0x20\n      add\n      swap1\n      dup2\n      mstore\n      0x20\n      add\n      0x00\n      keccak256\n      sload\n        /* \"contracts/TPTPreSale_flattened.sol\":3600:3625  users[userId[msg.sender]] */\n      dup2\n      mstore\n      0x20\n      add\n      swap1\n      dup2\n      mstore\n      0x20\n      add\n      0x00\n      keccak256\n        /* \"contracts/TPTPreSale_flattened.sol\":3600:3634  users[userId[msg.sender]].hasOffer */\n      0x02\n      add\n      0x00\n      swap1\n      sload\n      swap1\n      0x0100\n      exp\n      swap1\n      div\n      0xff\n      and\n        /* \"contracts/TPTPreSale_flattened.sol\":3592:3652  require(users[userId[msg.sender]].hasOffer, \"no offer more\") */\n      tag_176\n      jumpi\n      mload(0x40)\n      0x08c379a000000000000000000000000000000000000000000000000000000000\n      dup2\n      mstore\n      0x04\n      add\n      tag_177\n      swap1\n      tag_178\n      jump\t// in\n    tag_177:\n      mload(0x40)\n      dup1\n      swap2\n      sub\n      swap1\n      revert\n    tag_176:\n        /* \"contracts/TPTPreSale_flattened.sol\":3675:3707  calcAmount(_useOffer, msg.value) */\n      tag_179\n        /* \"contracts/TPTPreSale_flattened.sol\":3686:3695  _useOffer */\n      dup3\n        /* \"contracts/TPTPreSale_flattened.sol\":3697:3706  msg.value */\n      callvalue\n        /* \"contracts/TPTPreSale_flattened.sol\":3675:3685  calcAmount */\n      tag_145\n        /* \"contracts/TPTPreSale_flattened.sol\":3675:3707  calcAmount(_useOffer, msg.value) */\n      jump\t// in\n    tag_179:\n        /* \"contracts/TPTPreSale_flattened.sol\":3666:3707  amount = calcAmount(_useOffer, msg.value) */\n      swap1\n      pop\n        /* \"contracts/TPTPreSale_flattened.sol\":3758:3763  false */\n      0x00\n        /* \"contracts/TPTPreSale_flattened.sol\":3721:3726  users */\n      0x08\n        /* \"contracts/TPTPreSale_flattened.sol\":3721:3746  users[userId[msg.sender]] */\n      0x00\n        /* \"contracts/TPTPreSale_flattened.sol\":3727:3733  userId */\n      0x07\n        /* \"contracts/TPTPreSale_flattened.sol\":3727:3745  userId[msg.sender] */\n      0x00\n        /* \"contracts/TPTPreSale_flattened.sol\":3734:3744  msg.sender */\n      caller\n        /* \"contracts/TPTPreSale_flattened.sol\":3727:3745  userId[msg.sender] */\n      0xffffffffffffffffffffffffffffffffffffffff\n      and\n      0xffffffffffffffffffffffffffffffffffffffff\n      and\n      dup2\n      mstore\n      0x20\n      add\n      swap1\n      dup2\n      mstore\n      0x20\n      add\n      0x00\n      keccak256\n      sload\n        /* \"contracts/TPTPreSale_flattened.sol\":3721:3746  users[userId[msg.sender]] */\n      dup2\n      mstore\n      0x20\n      add\n      swap1\n      dup2\n      mstore\n      0x20\n      add\n      0x00\n      keccak256\n        /* \"contracts/TPTPreSale_flattened.sol\":3721:3755  users[userId[msg.sender]].hasOffer */\n      0x02\n      add\n      0x00\n        /* \"contracts/TPTPreSale_flattened.sol\":3721:3763  users[userId[msg.sender]].hasOffer = false */\n      0x0100\n      exp\n      dup2\n      sload\n      dup2\n      0xff\n      mul\n      not\n      and\n      swap1\n      dup4\n      iszero\n      iszero\n      mul\n      or\n      swap1\n      sstore\n      pop\n        /* \"contracts/TPTPreSale_flattened.sol\":3563:3847  if (_useOffer) {... */\n      jump(tag_180)\n    tag_175:\n        /* \"contracts/TPTPreSale_flattened.sol\":3804:3836  calcAmount(_useOffer, msg.value) */\n      tag_181\n        /* \"contracts/TPTPreSale_flattened.sol\":3815:3824  _useOffer */\n      dup3\n        /* \"contracts/TPTPreSale_flattened.sol\":3826:3835  msg.value */\n      callvalue\n        /* \"contracts/TPTPreSale_flattened.sol\":3804:3814  calcAmount */\n      tag_145\n        /* \"contracts/TPTPreSale_flattened.sol\":3804:3836  calcAmount(_useOffer, msg.value) */\n      jump\t// in\n    tag_181:\n        /* \"contracts/TPTPreSale_flattened.sol\":3794:3836  amount  = calcAmount(_useOffer, msg.value) */\n      swap1\n      pop\n        /* \"contracts/TPTPreSale_flattened.sol\":3563:3847  if (_useOffer) {... */\n    tag_180:\n        /* \"contracts/TPTPreSale_flattened.sol\":3896:3902  amount */\n      dup1\n        /* \"contracts/TPTPreSale_flattened.sol\":3856:3861  users */\n      0x08\n        /* \"contracts/TPTPreSale_flattened.sol\":3856:3881  users[userId[msg.sender]] */\n      0x00\n        /* \"contracts/TPTPreSale_flattened.sol\":3862:3868  userId */\n      0x07\n        /* \"contracts/TPTPreSale_flattened.sol\":3862:3880  userId[msg.sender] */\n      0x00\n        /* \"contracts/TPTPreSale_flattened.sol\":3869:3879  msg.sender */\n      caller\n        /* \"contracts/TPTPreSale_flattened.sol\":3862:3880  userId[msg.sender] */\n      0xffffffffffffffffffffffffffffffffffffffff\n      and\n      0xffffffffffffffffffffffffffffffffffffffff\n      and\n      dup2\n      mstore\n      0x20\n      add\n      swap1\n      dup2\n      mstore\n      0x20\n      add\n      0x00\n      keccak256\n      sload\n        /* \"contracts/TPTPreSale_flattened.sol\":3856:3881  users[userId[msg.sender]] */\n      dup2\n      mstore\n      0x20\n      add\n      swap1\n      dup2\n      mstore\n      0x20\n      add\n      0x00\n      keccak256\n        /* \"contracts/TPTPreSale_flattened.sol\":3856:3892  users[userId[msg.sender]].tptBalance */\n      0x01\n      add\n      0x00\n        /* \"contracts/TPTPreSale_flattened.sol\":3856:3902  users[userId[msg.sender]].tptBalance += amount */\n      dup3\n      dup3\n      sload\n      tag_182\n      swap2\n      swap1\n      tag_183\n      jump\t// in\n    tag_182:\n      swap3\n      pop\n      pop\n      dup2\n      swap1\n      sstore\n      pop\n        /* \"contracts/TPTPreSale_flattened.sol\":3912:3917  users */\n      0x08\n        /* \"contracts/TPTPreSale_flattened.sol\":3912:3937  users[userId[msg.sender]] */\n      0x00\n        /* \"contracts/TPTPreSale_flattened.sol\":3918:3924  userId */\n      0x07\n        /* \"contracts/TPTPreSale_flattened.sol\":3918:3936  userId[msg.sender] */\n      0x00\n        /* \"contracts/TPTPreSale_flattened.sol\":3925:3935  msg.sender */\n      caller\n        /* \"contracts/TPTPreSale_flattened.sol\":3918:3936  userId[msg.sender] */\n      0xffffffffffffffffffffffffffffffffffffffff\n      and\n      0xffffffffffffffffffffffffffffffffffffffff\n      and\n      dup2\n      mstore\n      0x20\n      add\n      swap1\n      dup2\n      mstore\n      0x20\n      add\n      0x00\n      keccak256\n      sload\n        /* \"contracts/TPTPreSale_flattened.sol\":3912:3937  users[userId[msg.sender]] */\n      dup2\n      mstore\n      0x20\n      add\n      swap1\n      dup2\n      mstore\n      0x20\n      add\n      0x00\n      keccak256\n        /* \"contracts/TPTPreSale_flattened.sol\":3912:3950  users[userId[msg.sender]].purchaseList */\n      0x03\n      add\n        /* \"contracts/TPTPreSale_flattened.sol\":3969:4023  Purchase(block.timestamp, msg.value, amount, thisStep) */\n      mload(0x40)\n      dup1\n      0x80\n      add\n      0x40\n      mstore\n      dup1\n        /* \"contracts/TPTPreSale_flattened.sol\":3978:3993  block.timestamp */\n      timestamp\n        /* \"contracts/TPTPreSale_flattened.sol\":3969:4023  Purchase(block.timestamp, msg.value, amount, thisStep) */\n      dup2\n      mstore\n      0x20\n      add\n        /* \"contracts/TPTPreSale_flattened.sol\":3995:4004  msg.value */\n      callvalue\n        /* \"contracts/TPTPreSale_flattened.sol\":3969:4023  Purchase(block.timestamp, msg.value, amount, thisStep) */\n      dup2\n      mstore\n      0x20\n      add\n        /* \"contracts/TPTPreSale_flattened.sol\":4006:4012  amount */\n      dup4\n        /* \"contracts/TPTPreSale_flattened.sol\":3969:4023  Purchase(block.timestamp, msg.value, amount, thisStep) */\n      dup2\n      mstore\n      0x20\n      add\n        /* \"contracts/TPTPreSale_flattened.sol\":4014:4022  thisStep */\n      0x01\n      0x15\n      swap1\n      sload\n      swap1\n      0x0100\n      exp\n      swap1\n      div\n      0xff\n      and\n        /* \"contracts/TPTPreSale_flattened.sol\":3969:4023  Purchase(block.timestamp, msg.value, amount, thisStep) */\n      0xff\n      and\n      dup2\n      mstore\n      pop\n        /* \"contracts/TPTPreSale_flattened.sol\":3912:4033  users[userId[msg.sender]].purchaseList.push(... */\n      swap1\n      dup1\n      0x01\n      dup2\n      sload\n      add\n      dup1\n      dup3\n      sstore\n      dup1\n      swap2\n      pop\n      pop\n      0x01\n      swap1\n      sub\n      swap1\n      0x00\n      mstore\n      keccak256(0x00, 0x20)\n      swap1\n      0x04\n      mul\n      add\n      0x00\n      swap1\n      swap2\n      swap1\n      swap2\n      swap1\n      swap2\n      pop\n      0x00\n      dup3\n      add\n      mload\n      dup2\n      0x00\n      add\n      sstore\n      0x20\n      dup3\n      add\n      mload\n      dup2\n      0x01\n      add\n      sstore\n      0x40\n      dup3\n      add\n      mload\n      dup2\n      0x02\n      add\n      sstore\n      0x60\n      dup3\n      add\n      mload\n      dup2\n      0x03\n      add\n      exp(0x0100, 0x00)\n      dup2\n      sload\n      dup2\n      0xff\n      mul\n      not\n      and\n      swap1\n      dup4\n      0xff\n      and\n      mul\n      or\n      swap1\n      sstore\n      pop\n      pop\n      pop\n        /* \"contracts/TPTPreSale_flattened.sol\":4060:4066  amount */\n      dup1\n        /* \"contracts/TPTPreSale_flattened.sol\":4043:4056  totalPurchase */\n      0x06\n      0x00\n        /* \"contracts/TPTPreSale_flattened.sol\":4043:4066  totalPurchase += amount */\n      dup3\n      dup3\n      sload\n      tag_185\n      swap2\n      swap1\n      tag_183\n      jump\t// in\n    tag_185:\n      swap3\n      pop\n      pop\n      dup2\n      swap1\n      sstore\n      pop\n        /* \"contracts/TPTPreSale_flattened.sol\":3159:4073  {... */\n      pop\n        /* \"contracts/TPTPreSale_flattened.sol\":1644:1649  false */\n      0x00\n        /* \"contracts/TPTPreSale_flattened.sol\":1635:1641  locked */\n      0x01\n      0x14\n        /* \"contracts/TPTPreSale_flattened.sol\":1635:1649  locked = false */\n      0x0100\n      exp\n      dup2\n      sload\n      dup2\n      0xff\n      mul\n      not\n      and\n      swap1\n      dup4\n      iszero\n      iszero\n      mul\n      or\n      swap1\n      sstore\n      pop\n        /* \"contracts/TPTPreSale_flattened.sol\":3097:4073  function buyTPT(bool _useOffer) internal pauseable reentrancy {... */\n      pop\n      jump\t// out\n        /* \"contracts/TPTPreSale_flattened.sol\":5221:5427  function getPurchase(address _userAddress, uint256 index)... */\n    tag_66:\n        /* \"contracts/TPTPreSale_flattened.sol\":5326:5341  Purchase memory */\n      tag_186\n      tag_187\n      jump\t// in\n    tag_186:\n        /* \"contracts/TPTPreSale_flattened.sol\":5373:5378  users */\n      0x08\n        /* \"contracts/TPTPreSale_flattened.sol\":5373:5400  users[userId[_userAddress]] */\n      0x00\n        /* \"contracts/TPTPreSale_flattened.sol\":5379:5385  userId */\n      0x07\n        /* \"contracts/TPTPreSale_flattened.sol\":5379:5399  userId[_userAddress] */\n      0x00\n        /* \"contracts/TPTPreSale_flattened.sol\":5386:5398  _userAddress */\n      dup7\n        /* \"contracts/TPTPreSale_flattened.sol\":5379:5399  userId[_userAddress] */\n      0xffffffffffffffffffffffffffffffffffffffff\n      and\n      0xffffffffffffffffffffffffffffffffffffffff\n      and\n      dup2\n      mstore\n      0x20\n      add\n      swap1\n      dup2\n      mstore\n      0x20\n      add\n      0x00\n      keccak256\n      sload\n        /* \"contracts/TPTPreSale_flattened.sol\":5373:5400  users[userId[_userAddress]] */\n      dup2\n      mstore\n      0x20\n      add\n      swap1\n      dup2\n      mstore\n      0x20\n      add\n      0x00\n      keccak256\n        /* \"contracts/TPTPreSale_flattened.sol\":5373:5413  users[userId[_userAddress]].purchaseList */\n      0x03\n      add\n        /* \"contracts/TPTPreSale_flattened.sol\":5414:5419  index */\n      dup3\n        /* \"contracts/TPTPreSale_flattened.sol\":5373:5420  users[userId[_userAddress]].purchaseList[index] */\n      dup2\n      sload\n      dup2\n      lt\n      tag_189\n      jumpi\n      tag_190\n      tag_191\n      jump\t// in\n    tag_190:\n    tag_189:\n      swap1\n      0x00\n      mstore\n      keccak256(0x00, 0x20)\n      swap1\n      0x04\n      mul\n      add\n        /* \"contracts/TPTPreSale_flattened.sol\":5366:5420  return users[userId[_userAddress]].purchaseList[index] */\n      mload(0x40)\n      dup1\n      0x80\n      add\n      0x40\n      mstore\n      swap1\n      dup2\n      0x00\n      dup3\n      add\n      sload\n      dup2\n      mstore\n      0x20\n      add\n      0x01\n      dup3\n      add\n      sload\n      dup2\n      mstore\n      0x20\n      add\n      0x02\n      dup3\n      add\n      sload\n      dup2\n      mstore\n      0x20\n      add\n      0x03\n      dup3\n      add\n      0x00\n      swap1\n      sload\n      swap1\n      0x0100\n      exp\n      swap1\n      div\n      0xff\n      and\n      0xff\n      and\n      0xff\n      and\n      dup2\n      mstore\n      pop\n      pop\n      swap1\n      pop\n        /* \"contracts/TPTPreSale_flattened.sol\":5221:5427  function getPurchase(address _userAddress, uint256 index)... */\n      swap3\n      swap2\n      pop\n      pop\n      jump\t// out\n        /* \"contracts/TPTPreSale_flattened.sol\":5433:5534  function getUserId(address user) external view returns (uint256) {... */\n    tag_73:\n        /* \"contracts/TPTPreSale_flattened.sol\":5489:5496  uint256 */\n      0x00\n        /* \"contracts/TPTPreSale_flattened.sol\":5515:5521  userId */\n      0x07\n        /* \"contracts/TPTPreSale_flattened.sol\":5515:5527  userId[user] */\n      0x00\n        /* \"contracts/TPTPreSale_flattened.sol\":5522:5526  user */\n      dup4\n        /* \"contracts/TPTPreSale_flattened.sol\":5515:5527  userId[user] */\n      0xffffffffffffffffffffffffffffffffffffffff\n      and\n      0xffffffffffffffffffffffffffffffffffffffff\n      and\n      dup2\n      mstore\n      0x20\n      add\n      swap1\n      dup2\n      mstore\n      0x20\n      add\n      0x00\n      keccak256\n      sload\n        /* \"contracts/TPTPreSale_flattened.sol\":5508:5527  return userId[user] */\n      swap1\n      pop\n        /* \"contracts/TPTPreSale_flattened.sol\":5433:5534  function getUserId(address user) external view returns (uint256) {... */\n      swap2\n      swap1\n      pop\n      jump\t// out\n        /* \"contracts/TPTPreSale_flattened.sol\":5036:5215  function getPurchaseCount(address _userAddress)... */\n    tag_79:\n        /* \"contracts/TPTPreSale_flattened.sol\":5131:5138  uint256 */\n      0x00\n        /* \"contracts/TPTPreSale_flattened.sol\":5161:5166  users */\n      0x08\n        /* \"contracts/TPTPreSale_flattened.sol\":5161:5188  users[userId[_userAddress]] */\n      0x00\n        /* \"contracts/TPTPreSale_flattened.sol\":5167:5173  userId */\n      0x07\n        /* \"contracts/TPTPreSale_flattened.sol\":5167:5187  userId[_userAddress] */\n      0x00\n        /* \"contracts/TPTPreSale_flattened.sol\":5174:5186  _userAddress */\n      dup6\n        /* \"contracts/TPTPreSale_flattened.sol\":5167:5187  userId[_userAddress] */\n      0xffffffffffffffffffffffffffffffffffffffff\n      and\n      0xffffffffffffffffffffffffffffffffffffffff\n      and\n      dup2\n      mstore\n      0x20\n      add\n      swap1\n      dup2\n      mstore\n      0x20\n      add\n      0x00\n      keccak256\n      sload\n        /* \"contracts/TPTPreSale_flattened.sol\":5161:5188  users[userId[_userAddress]] */\n      dup2\n      mstore\n      0x20\n      add\n      swap1\n      dup2\n      mstore\n      0x20\n      add\n      0x00\n      keccak256\n        /* \"contracts/TPTPreSale_flattened.sol\":5161:5201  users[userId[_userAddress]].purchaseList */\n      0x03\n      add\n        /* \"contracts/TPTPreSale_flattened.sol\":5161:5208  users[userId[_userAddress]].purchaseList.length */\n      dup1\n      sload\n      swap1\n      pop\n        /* \"contracts/TPTPreSale_flattened.sol\":5154:5208  return users[userId[_userAddress]].purchaseList.length */\n      swap1\n      pop\n        /* \"contracts/TPTPreSale_flattened.sol\":5036:5215  function getPurchaseCount(address _userAddress)... */\n      swap2\n      swap1\n      pop\n      jump\t// out\n        /* \"contracts/TPTPreSale_flattened.sol\":2610:2704  function setPriceMode() public onlyOwner {... */\n    tag_83:\n        /* \"contracts/TPTPreSale_flattened.sol\":1370:1375  owner */\n      0x01\n      0x00\n      swap1\n      sload\n      swap1\n      0x0100\n      exp\n      swap1\n      div\n      0xffffffffffffffffffffffffffffffffffffffff\n      and\n        /* \"contracts/TPTPreSale_flattened.sol\":1356:1375  msg.sender == owner */\n      0xffffffffffffffffffffffffffffffffffffffff\n      and\n        /* \"contracts/TPTPreSale_flattened.sol\":1356:1366  msg.sender */\n      caller\n        /* \"contracts/TPTPreSale_flattened.sol\":1356:1375  msg.sender == owner */\n      0xffffffffffffffffffffffffffffffffffffffff\n      and\n      eq\n        /* \"contracts/TPTPreSale_flattened.sol\":1348:1390  require(msg.sender == owner, \"Only owner\") */\n      tag_196\n      jumpi\n      mload(0x40)\n      0x08c379a000000000000000000000000000000000000000000000000000000000\n      dup2\n      mstore\n      0x04\n      add\n      tag_197\n      swap1\n      tag_198\n      jump\t// in\n    tag_197:\n      mload(0x40)\n      dup1\n      swap2\n      sub\n      swap1\n      revert\n    tag_196:\n        /* \"contracts/TPTPreSale_flattened.sol\":2671:2684  priceContract */\n      0x00\n      dup1\n      sload\n      swap1\n      0x0100\n      exp\n      swap1\n      div\n      0xffffffffffffffffffffffffffffffffffffffff\n      and\n        /* \"contracts/TPTPreSale_flattened.sol\":2661:2695  IBNBPrice(priceContract).setEqMode */\n      0xffffffffffffffffffffffffffffffffffffffff\n      and\n      0x65a6cc2e\n        /* \"contracts/TPTPreSale_flattened.sol\":2661:2697  IBNBPrice(priceContract).setEqMode() */\n      mload(0x40)\n      dup2\n      0xffffffff\n      and\n      0xe0\n      shl\n      dup2\n      mstore\n      0x04\n      add\n      0x00\n      mload(0x40)\n      dup1\n      dup4\n      sub\n      dup2\n      0x00\n      dup8\n      dup1\n      extcodesize\n      iszero\n      dup1\n      iszero\n      tag_200\n      jumpi\n      0x00\n      dup1\n      revert\n    tag_200:\n      pop\n      gas\n      call\n      iszero\n      dup1\n      iszero\n      tag_202\n      jumpi\n      returndatasize\n      0x00\n      dup1\n      returndatacopy\n      revert(0x00, returndatasize)\n    tag_202:\n      pop\n      pop\n      pop\n      pop\n        /* \"contracts/TPTPreSale_flattened.sol\":2610:2704  function setPriceMode() public onlyOwner {... */\n      jump\t// out\n        /* \"contracts/TPTPreSale_flattened.sol\":2710:2846  function getPriceMode() public view onlyOwner returns (string memory) {... */\n    tag_86:\n        /* \"contracts/TPTPreSale_flattened.sol\":2765:2778  string memory */\n      0x60\n        /* \"contracts/TPTPreSale_flattened.sol\":1370:1375  owner */\n      0x01\n      0x00\n      swap1\n      sload\n      swap1\n      0x0100\n      exp\n      swap1\n      div\n      0xffffffffffffffffffffffffffffffffffffffff\n      and\n        /* \"contracts/TPTPreSale_flattened.sol\":1356:1375  msg.sender == owner */\n      0xffffffffffffffffffffffffffffffffffffffff\n      and\n        /* \"contracts/TPTPreSale_flattened.sol\":1356:1366  msg.sender */\n      caller\n        /* \"contracts/TPTPreSale_flattened.sol\":1356:1375  msg.sender == owner */\n      0xffffffffffffffffffffffffffffffffffffffff\n      and\n      eq\n        /* \"contracts/TPTPreSale_flattened.sol\":1348:1390  require(msg.sender == owner, \"Only owner\") */\n      tag_204\n      jumpi\n      mload(0x40)\n      0x08c379a000000000000000000000000000000000000000000000000000000000\n      dup2\n      mstore\n      0x04\n      add\n      tag_205\n      swap1\n      tag_198\n      jump\t// in\n    tag_205:\n      mload(0x40)\n      dup1\n      swap2\n      sub\n      swap1\n      revert\n    tag_204:\n        /* \"contracts/TPTPreSale_flattened.sol\":2807:2820  priceContract */\n      0x00\n      dup1\n      sload\n      swap1\n      0x0100\n      exp\n      swap1\n      div\n      0xffffffffffffffffffffffffffffffffffffffff\n      and\n        /* \"contracts/TPTPreSale_flattened.sol\":2797:2837  IBNBPrice(priceContract).getEqModeString */\n      0xffffffffffffffffffffffffffffffffffffffff\n      and\n      0xa1c6a405\n        /* \"contracts/TPTPreSale_flattened.sol\":2797:2839  IBNBPrice(priceContract).getEqModeString() */\n      mload(0x40)\n      dup2\n      0xffffffff\n      and\n      0xe0\n      shl\n      dup2\n      mstore\n      0x04\n      add\n      0x00\n      mload(0x40)\n      dup1\n      dup4\n      sub\n      dup2\n      dup7\n      gas\n      staticcall\n      iszero\n      dup1\n      iszero\n      tag_208\n      jumpi\n      returndatasize\n      0x00\n      dup1\n      returndatacopy\n      revert(0x00, returndatasize)\n    tag_208:\n      pop\n      pop\n      pop\n      pop\n      mload(0x40)\n      returndatasize\n      0x00\n      dup3\n      returndatacopy\n      returndatasize\n      not(0x1f)\n      0x1f\n      dup3\n      add\n      and\n      dup3\n      add\n      dup1\n      0x40\n      mstore\n      pop\n      dup2\n      add\n      swap1\n      tag_209\n      swap2\n      swap1\n      tag_210\n      jump\t// in\n    tag_209:\n        /* \"contracts/TPTPreSale_flattened.sol\":2790:2839  return IBNBPrice(priceContract).getEqModeString() */\n      swap1\n      pop\n        /* \"contracts/TPTPreSale_flattened.sol\":2710:2846  function getPriceMode() public view onlyOwner returns (string memory) {... */\n      swap1\n      jump\t// out\n        /* \"contracts/TPTPreSale_flattened.sol\":5980:6073  function chaneOwner(address payable  _owner) public onlyOwner{... */\n    tag_93:\n        /* \"contracts/TPTPreSale_flattened.sol\":1370:1375  owner */\n      0x01\n      0x00\n      swap1\n      sload\n      swap1\n      0x0100\n      exp\n      swap1\n      div\n      0xffffffffffffffffffffffffffffffffffffffff\n      and\n        /* \"contracts/TPTPreSale_flattened.sol\":1356:1375  msg.sender == owner */\n      0xffffffffffffffffffffffffffffffffffffffff\n      and\n        /* \"contracts/TPTPreSale_flattened.sol\":1356:1366  msg.sender */\n      caller\n        /* \"contracts/TPTPreSale_flattened.sol\":1356:1375  msg.sender == owner */\n      0xffffffffffffffffffffffffffffffffffffffff\n      and\n      eq\n        /* \"contracts/TPTPreSale_flattened.sol\":1348:1390  require(msg.sender == owner, \"Only owner\") */\n      tag_212\n      jumpi\n      mload(0x40)\n      0x08c379a000000000000000000000000000000000000000000000000000000000\n      dup2\n      mstore\n      0x04\n      add\n      tag_213\n      swap1\n      tag_198\n      jump\t// in\n    tag_213:\n      mload(0x40)\n      dup1\n      swap2\n      sub\n      swap1\n      revert\n    tag_212:\n        /* \"contracts/TPTPreSale_flattened.sol\":6059:6065  _owner */\n      dup1\n        /* \"contracts/TPTPreSale_flattened.sol\":6051:6056  owner */\n      0x01\n      0x00\n        /* \"contracts/TPTPreSale_flattened.sol\":6051:6065  owner = _owner */\n      0x0100\n      exp\n      dup2\n      sload\n      dup2\n      0xffffffffffffffffffffffffffffffffffffffff\n      mul\n      not\n      and\n      swap1\n      dup4\n      0xffffffffffffffffffffffffffffffffffffffff\n      and\n      mul\n      or\n      swap1\n      sstore\n      pop\n        /* \"contracts/TPTPreSale_flattened.sol\":5980:6073  function chaneOwner(address payable  _owner) public onlyOwner{... */\n      pop\n      jump\t// out\n        /* \"contracts/TPTPreSale_flattened.sol\":4752:4856  function getThisStepPrice() public view returns (uint256) {... */\n    tag_96:\n        /* \"contracts/TPTPreSale_flattened.sol\":4801:4808  uint256 */\n      0x00\n        /* \"contracts/TPTPreSale_flattened.sol\":4827:4839  tptStepPrice */\n      0x02\n        /* \"contracts/TPTPreSale_flattened.sol\":4827:4849  tptStepPrice[thisStep] */\n      0x00\n        /* \"contracts/TPTPreSale_flattened.sol\":4840:4848  thisStep */\n      0x01\n      0x15\n      swap1\n      sload\n      swap1\n      0x0100\n      exp\n      swap1\n      div\n      0xff\n      and\n        /* \"contracts/TPTPreSale_flattened.sol\":4827:4849  tptStepPrice[thisStep] */\n      0xff\n      and\n      0xff\n      and\n      dup2\n      mstore\n      0x20\n      add\n      swap1\n      dup2\n      mstore\n      0x20\n      add\n      0x00\n      keccak256\n      sload\n        /* \"contracts/TPTPreSale_flattened.sol\":4820:4849  return tptStepPrice[thisStep] */\n      swap1\n      pop\n        /* \"contracts/TPTPreSale_flattened.sol\":4752:4856  function getThisStepPrice() public view returns (uint256) {... */\n      swap1\n      jump\t// out\n        /* \"contracts/TPTPreSale_flattened.sol\":5540:5646  function getUserById(uint256 id) external view returns (UserInfo memory) {... */\n    tag_102:\n        /* \"contracts/TPTPreSale_flattened.sol\":5596:5611  UserInfo memory */\n      tag_216\n      tag_217\n      jump\t// in\n    tag_216:\n        /* \"contracts/TPTPreSale_flattened.sol\":5630:5635  users */\n      0x08\n        /* \"contracts/TPTPreSale_flattened.sol\":5630:5639  users[id] */\n      0x00\n        /* \"contracts/TPTPreSale_flattened.sol\":5636:5638  id */\n      dup4\n        /* \"contracts/TPTPreSale_flattened.sol\":5630:5639  users[id] */\n      dup2\n      mstore\n      0x20\n      add\n      swap1\n      dup2\n      mstore\n      0x20\n      add\n      0x00\n      keccak256\n        /* \"contracts/TPTPreSale_flattened.sol\":5623:5639  return users[id] */\n      mload(0x40)\n      dup1\n      0x80\n      add\n      0x40\n      mstore\n      swap1\n      dup2\n      0x00\n      dup3\n      add\n      0x00\n      swap1\n      sload\n      swap1\n      0x0100\n      exp\n      swap1\n      div\n      0xffffffffffffffffffffffffffffffffffffffff\n      and\n      0xffffffffffffffffffffffffffffffffffffffff\n      and\n      0xffffffffffffffffffffffffffffffffffffffff\n      and\n      dup2\n      mstore\n      0x20\n      add\n      0x01\n      dup3\n      add\n      sload\n      dup2\n      mstore\n      0x20\n      add\n      0x02\n      dup3\n      add\n      0x00\n      swap1\n      sload\n      swap1\n      0x0100\n      exp\n      swap1\n      div\n      0xff\n      and\n      iszero\n      iszero\n      iszero\n      iszero\n      dup2\n      mstore\n      0x20\n      add\n      0x03\n      dup3\n      add\n      dup1\n      sload\n      dup1\n      0x20\n      mul\n      0x20\n      add\n      mload(0x40)\n      swap1\n      dup2\n      add\n      0x40\n      mstore\n      dup1\n      swap3\n      swap2\n      swap1\n      dup2\n      dup2\n      mstore\n      0x20\n      add\n      0x00\n      swap1\n    tag_219:\n      dup3\n      dup3\n      lt\n      iszero\n      tag_220\n      jumpi\n      dup4\n      dup3\n      swap1\n      0x00\n      mstore\n      keccak256(0x00, 0x20)\n      swap1\n      0x04\n      mul\n      add\n      mload(0x40)\n      dup1\n      0x80\n      add\n      0x40\n      mstore\n      swap1\n      dup2\n      0x00\n      dup3\n      add\n      sload\n      dup2\n      mstore\n      0x20\n      add\n      0x01\n      dup3\n      add\n      sload\n      dup2\n      mstore\n      0x20\n      add\n      0x02\n      dup3\n      add\n      sload\n      dup2\n      mstore\n      0x20\n      add\n      0x03\n      dup3\n      add\n      0x00\n      swap1\n      sload\n      swap1\n      0x0100\n      exp\n      swap1\n      div\n      0xff\n      and\n      0xff\n      and\n      0xff\n      and\n      dup2\n      mstore\n      pop\n      pop\n      dup2\n      mstore\n      0x20\n      add\n      swap1\n      0x01\n      add\n      swap1\n      jump(tag_219)\n    tag_220:\n      pop\n      pop\n      pop\n      pop\n      dup2\n      mstore\n      pop\n      pop\n      swap1\n      pop\n        /* \"contracts/TPTPreSale_flattened.sol\":5540:5646  function getUserById(uint256 id) external view returns (UserInfo memory) {... */\n      swap2\n      swap1\n      pop\n      jump\t// out\n        /* \"contracts/TPTPreSale_flattened.sol\":912:937  uint public totalPurchase */\n    tag_107:\n      sload(0x06)\n      dup2\n      jump\t// out\n        /* \"contracts/TPTPreSale_flattened.sol\":4544:4628  function setThisStep(uint8 _step) public onlyOwner {... */\n    tag_113:\n        /* \"contracts/TPTPreSale_flattened.sol\":1370:1375  owner */\n      0x01\n      0x00\n      swap1\n      sload\n      swap1\n      0x0100\n      exp\n      swap1\n      div\n      0xffffffffffffffffffffffffffffffffffffffff\n      and\n        /* \"contracts/TPTPreSale_flattened.sol\":1356:1375  msg.sender == owner */\n      0xffffffffffffffffffffffffffffffffffffffff\n      and\n        /* \"contracts/TPTPreSale_flattened.sol\":1356:1366  msg.sender */\n      caller\n        /* \"contracts/TPTPreSale_flattened.sol\":1356:1375  msg.sender == owner */\n      0xffffffffffffffffffffffffffffffffffffffff\n      and\n      eq\n        /* \"contracts/TPTPreSale_flattened.sol\":1348:1390  require(msg.sender == owner, \"Only owner\") */\n      tag_223\n      jumpi\n      mload(0x40)\n      0x08c379a000000000000000000000000000000000000000000000000000000000\n      dup2\n      mstore\n      0x04\n      add\n      tag_224\n      swap1\n      tag_198\n      jump\t// in\n    tag_224:\n      mload(0x40)\n      dup1\n      swap2\n      sub\n      swap1\n      revert\n    tag_223:\n        /* \"contracts/TPTPreSale_flattened.sol\":4616:4621  _step */\n      dup1\n        /* \"contracts/TPTPreSale_flattened.sol\":4605:4613  thisStep */\n      0x01\n      0x15\n        /* \"contracts/TPTPreSale_flattened.sol\":4605:4621  thisStep = _step */\n      0x0100\n      exp\n      dup2\n      sload\n      dup2\n      0xff\n      mul\n      not\n      and\n      swap1\n      dup4\n      0xff\n      and\n      mul\n      or\n      swap1\n      sstore\n      pop\n        /* \"contracts/TPTPreSale_flattened.sol\":4544:4628  function setThisStep(uint8 _step) public onlyOwner {... */\n      pop\n      jump\t// out\n        /* \"contracts/TPTPreSale_flattened.sol\":676:704  address payable public owner */\n    tag_116:\n      0x01\n      0x00\n      swap1\n      sload\n      swap1\n      0x0100\n      exp\n      swap1\n      div\n      0xffffffffffffffffffffffffffffffffffffffff\n      and\n      dup2\n      jump\t// out\n        /* \"contracts/TPTPreSale_flattened.sol\":4634:4746  function setTPTPrice(uint8 _step, uint256 _price) public onlyOwner {... */\n    tag_123:\n        /* \"contracts/TPTPreSale_flattened.sol\":1370:1375  owner */\n      0x01\n      0x00\n      swap1\n      sload\n      swap1\n      0x0100\n      exp\n      swap1\n      div\n      0xffffffffffffffffffffffffffffffffffffffff\n      and\n        /* \"contracts/TPTPreSale_flattened.sol\":1356:1375  msg.sender == owner */\n      0xffffffffffffffffffffffffffffffffffffffff\n      and\n        /* \"contracts/TPTPreSale_flattened.sol\":1356:1366  msg.sender */\n      caller\n        /* \"contracts/TPTPreSale_flattened.sol\":1356:1375  msg.sender == owner */\n      0xffffffffffffffffffffffffffffffffffffffff\n      and\n      eq\n        /* \"contracts/TPTPreSale_flattened.sol\":1348:1390  require(msg.sender == owner, \"Only owner\") */\n      tag_227\n      jumpi\n      mload(0x40)\n      0x08c379a000000000000000000000000000000000000000000000000000000000\n      dup2\n      mstore\n      0x04\n      add\n      tag_228\n      swap1\n      tag_198\n      jump\t// in\n    tag_228:\n      mload(0x40)\n      dup1\n      swap2\n      sub\n      swap1\n      revert\n    tag_227:\n        /* \"contracts/TPTPreSale_flattened.sol\":4733:4739  _price */\n      dup1\n        /* \"contracts/TPTPreSale_flattened.sol\":4711:4723  tptStepPrice */\n      0x02\n        /* \"contracts/TPTPreSale_flattened.sol\":4711:4730  tptStepPrice[_step] */\n      0x00\n        /* \"contracts/TPTPreSale_flattened.sol\":4724:4729  _step */\n      dup5\n        /* \"contracts/TPTPreSale_flattened.sol\":4711:4730  tptStepPrice[_step] */\n      0xff\n      and\n      0xff\n      and\n      dup2\n      mstore\n      0x20\n      add\n      swap1\n      dup2\n      mstore\n      0x20\n      add\n      0x00\n      keccak256\n        /* \"contracts/TPTPreSale_flattened.sol\":4711:4739  tptStepPrice[_step] = _price */\n      dup2\n      swap1\n      sstore\n      pop\n        /* \"contracts/TPTPreSale_flattened.sol\":4634:4746  function setTPTPrice(uint8 _step, uint256 _price) public onlyOwner {... */\n      pop\n      pop\n      jump\t// out\n        /* \"contracts/TPTPreSale_flattened.sol\":736:757  uint8 public thisStep */\n    tag_126:\n      0x01\n      0x15\n      swap1\n      sload\n      swap1\n      0x0100\n      exp\n      swap1\n      div\n      0xff\n      and\n      dup2\n      jump\t// out\n        /* \"contracts/TPTPreSale_flattened.sol\":5830:5974  function setBNBPriceAddress(address payable _priceContract)... */\n    tag_132:\n        /* \"contracts/TPTPreSale_flattened.sol\":1370:1375  owner */\n      0x01\n      0x00\n      swap1\n      sload\n      swap1\n      0x0100\n      exp\n      swap1\n      div\n      0xffffffffffffffffffffffffffffffffffffffff\n      and\n        /* \"contracts/TPTPreSale_flattened.sol\":1356:1375  msg.sender == owner */\n      0xffffffffffffffffffffffffffffffffffffffff\n      and\n        /* \"contracts/TPTPreSale_flattened.sol\":1356:1366  msg.sender */\n      caller\n        /* \"contracts/TPTPreSale_flattened.sol\":1356:1375  msg.sender == owner */\n      0xffffffffffffffffffffffffffffffffffffffff\n      and\n      eq\n        /* \"contracts/TPTPreSale_flattened.sol\":1348:1390  require(msg.sender == owner, \"Only owner\") */\n      tag_231\n      jumpi\n      mload(0x40)\n      0x08c379a000000000000000000000000000000000000000000000000000000000\n      dup2\n      mstore\n      0x04\n      add\n      tag_232\n      swap1\n      tag_198\n      jump\t// in\n    tag_232:\n      mload(0x40)\n      dup1\n      swap2\n      sub\n      swap1\n      revert\n    tag_231:\n        /* \"contracts/TPTPreSale_flattened.sol\":5953:5967  _priceContract */\n      dup1\n        /* \"contracts/TPTPreSale_flattened.sol\":5937:5950  priceContract */\n      0x00\n      dup1\n        /* \"contracts/TPTPreSale_flattened.sol\":5937:5967  priceContract = _priceContract */\n      0x0100\n      exp\n      dup2\n      sload\n      dup2\n      0xffffffffffffffffffffffffffffffffffffffff\n      mul\n      not\n      and\n      swap1\n      dup4\n      0xffffffffffffffffffffffffffffffffffffffff\n      and\n      mul\n      or\n      swap1\n      sstore\n      pop\n        /* \"contracts/TPTPreSale_flattened.sol\":5830:5974  function setBNBPriceAddress(address payable _priceContract)... */\n      pop\n      jump\t// out\n        /* \"contracts/TPTPreSale_flattened.sol\":6080:6234  function setMinRequire(uint _min) public onlyOwner{... */\n    tag_136:\n        /* \"contracts/TPTPreSale_flattened.sol\":1370:1375  owner */\n      0x01\n      0x00\n      swap1\n      sload\n      swap1\n      0x0100\n      exp\n      swap1\n      div\n      0xffffffffffffffffffffffffffffffffffffffff\n      and\n        /* \"contracts/TPTPreSale_flattened.sol\":1356:1375  msg.sender == owner */\n      0xffffffffffffffffffffffffffffffffffffffff\n      and\n        /* \"contracts/TPTPreSale_flattened.sol\":1356:1366  msg.sender */\n      caller\n        /* \"contracts/TPTPreSale_flattened.sol\":1356:1375  msg.sender == owner */\n      0xffffffffffffffffffffffffffffffffffffffff\n      and\n      eq\n        /* \"contracts/TPTPreSale_flattened.sol\":1348:1390  require(msg.sender == owner, \"Only owner\") */\n      tag_235\n      jumpi\n      mload(0x40)\n      0x08c379a000000000000000000000000000000000000000000000000000000000\n      dup2\n      mstore\n      0x04\n      add\n      tag_236\n      swap1\n      tag_198\n      jump\t// in\n    tag_236:\n      mload(0x40)\n      dup1\n      swap2\n      sub\n      swap1\n      revert\n    tag_235:\n        /* \"contracts/TPTPreSale_flattened.sol\":6156:6167  getPriceTax */\n      sload(0x03)\n        /* \"contracts/TPTPreSale_flattened.sol\":6148:6152  _min */\n      dup2\n        /* \"contracts/TPTPreSale_flattened.sol\":6148:6167  _min >= getPriceTax */\n      lt\n      iszero\n        /* \"contracts/TPTPreSale_flattened.sol\":6140:6200  require(_min >= getPriceTax , \"min should be more than tax\") */\n      tag_238\n      jumpi\n      mload(0x40)\n      0x08c379a000000000000000000000000000000000000000000000000000000000\n      dup2\n      mstore\n      0x04\n      add\n      tag_239\n      swap1\n      tag_240\n      jump\t// in\n    tag_239:\n      mload(0x40)\n      dup1\n      swap2\n      sub\n      swap1\n      revert\n    tag_238:\n        /* \"contracts/TPTPreSale_flattened.sol\":6223:6227  _min */\n      dup1\n        /* \"contracts/TPTPreSale_flattened.sol\":6210:6220  minRequire */\n      0x04\n        /* \"contracts/TPTPreSale_flattened.sol\":6210:6227  minRequire = _min */\n      dup2\n      swap1\n      sstore\n      pop\n        /* \"contracts/TPTPreSale_flattened.sol\":6080:6234  function setMinRequire(uint _min) public onlyOwner{... */\n      pop\n      jump\t// out\n        /* \"contracts/TPTPreSale_flattened.sol\":881:906  uint256 public totalUsers */\n    tag_139:\n      sload(0x05)\n      dup2\n      jump\t// out\n        /* \"contracts/TPTPreSale_flattened.sol\":4079:4538  function calcAmount(bool _useOffer, uint256 bnbValue) public view returns (uint256){... */\n    tag_145:\n        /* \"contracts/TPTPreSale_flattened.sol\":4154:4161  uint256 */\n      0x00\n        /* \"contracts/TPTPreSale_flattened.sol\":4172:4191  uint256 usdBnbPrice */\n      dup1\n        /* \"contracts/TPTPreSale_flattened.sol\":4204:4217  priceContract */\n      0x00\n      dup1\n      sload\n      swap1\n      0x0100\n      exp\n      swap1\n      div\n      0xffffffffffffffffffffffffffffffffffffffff\n      and\n        /* \"contracts/TPTPreSale_flattened.sol\":4194:4230  IBNBPrice(priceContract).viewAverage */\n      0xffffffffffffffffffffffffffffffffffffffff\n      and\n      0xe03d1632\n        /* \"contracts/TPTPreSale_flattened.sol\":4194:4232  IBNBPrice(priceContract).viewAverage() */\n      mload(0x40)\n      dup2\n      0xffffffff\n      and\n      0xe0\n      shl\n      dup2\n      mstore\n      0x04\n      add\n      0x20\n      mload(0x40)\n      dup1\n      dup4\n      sub\n      dup2\n      dup7\n      gas\n      staticcall\n      iszero\n      dup1\n      iszero\n      tag_243\n      jumpi\n      returndatasize\n      0x00\n      dup1\n      returndatacopy\n      revert(0x00, returndatasize)\n    tag_243:\n      pop\n      pop\n      pop\n      pop\n      mload(0x40)\n      returndatasize\n      not(0x1f)\n      0x1f\n      dup3\n      add\n      and\n      dup3\n      add\n      dup1\n      0x40\n      mstore\n      pop\n      dup2\n      add\n      swap1\n      tag_244\n      swap2\n      swap1\n      tag_245\n      jump\t// in\n    tag_244:\n        /* \"contracts/TPTPreSale_flattened.sol\":4172:4232  uint256 usdBnbPrice = IBNBPrice(priceContract).viewAverage() */\n      swap1\n      pop\n        /* \"contracts/TPTPreSale_flattened.sol\":4242:4256  uint256 amount */\n      0x00\n        /* \"contracts/TPTPreSale_flattened.sol\":4270:4279  _useOffer */\n      dup5\n        /* \"contracts/TPTPreSale_flattened.sol\":4266:4509  if (_useOffer) {... */\n      iszero\n      tag_246\n      jumpi\n        /* \"contracts/TPTPreSale_flattened.sol\":4399:4400  2 */\n      0x02\n        /* \"contracts/TPTPreSale_flattened.sol\":4357:4369  tptStepPrice */\n      dup1\n        /* \"contracts/TPTPreSale_flattened.sol\":4357:4379  tptStepPrice[thisStep] */\n      0x00\n        /* \"contracts/TPTPreSale_flattened.sol\":4370:4378  thisStep */\n      0x01\n      0x15\n      swap1\n      sload\n      swap1\n      0x0100\n      exp\n      swap1\n      div\n      0xff\n      and\n        /* \"contracts/TPTPreSale_flattened.sol\":4357:4379  tptStepPrice[thisStep] */\n      0xff\n      and\n      0xff\n      and\n      dup2\n      mstore\n      0x20\n      add\n      swap1\n      dup2\n      mstore\n      0x20\n      add\n      0x00\n      keccak256\n      sload\n        /* \"contracts/TPTPreSale_flattened.sol\":4342:4353  usdBnbPrice */\n      dup4\n        /* \"contracts/TPTPreSale_flattened.sol\":4334:4338  1e18 */\n      0x0de0b6b3a7640000\n        /* \"contracts/TPTPreSale_flattened.sol\":4323:4331  bnbValue */\n      dup8\n        /* \"contracts/TPTPreSale_flattened.sol\":4323:4338  bnbValue * 1e18 */\n      tag_247\n      swap2\n      swap1\n      tag_248\n      jump\t// in\n    tag_247:\n        /* \"contracts/TPTPreSale_flattened.sol\":4322:4353  (bnbValue * 1e18) / usdBnbPrice */\n      tag_249\n      swap2\n      swap1\n      tag_250\n      jump\t// in\n    tag_249:\n        /* \"contracts/TPTPreSale_flattened.sol\":4321:4379  ((bnbValue * 1e18) / usdBnbPrice) / tptStepPrice[thisStep] */\n      tag_251\n      swap2\n      swap1\n      tag_250\n      jump\t// in\n    tag_251:\n        /* \"contracts/TPTPreSale_flattened.sol\":4320:4400  (((bnbValue * 1e18) / usdBnbPrice) / tptStepPrice[thisStep]) *... */\n      tag_252\n      swap2\n      swap1\n      tag_248\n      jump\t// in\n    tag_252:\n        /* \"contracts/TPTPreSale_flattened.sol\":4295:4400  amount =... */\n      swap1\n      pop\n        /* \"contracts/TPTPreSale_flattened.sol\":4266:4509  if (_useOffer) {... */\n      jump(tag_253)\n    tag_246:\n        /* \"contracts/TPTPreSale_flattened.sol\":4476:4488  tptStepPrice */\n      0x02\n        /* \"contracts/TPTPreSale_flattened.sol\":4476:4498  tptStepPrice[thisStep] */\n      0x00\n        /* \"contracts/TPTPreSale_flattened.sol\":4489:4497  thisStep */\n      0x01\n      0x15\n      swap1\n      sload\n      swap1\n      0x0100\n      exp\n      swap1\n      div\n      0xff\n      and\n        /* \"contracts/TPTPreSale_flattened.sol\":4476:4498  tptStepPrice[thisStep] */\n      0xff\n      and\n      0xff\n      and\n      dup2\n      mstore\n      0x20\n      add\n      swap1\n      dup2\n      mstore\n      0x20\n      add\n      0x00\n      keccak256\n      sload\n        /* \"contracts/TPTPreSale_flattened.sol\":4461:4472  usdBnbPrice */\n      dup3\n        /* \"contracts/TPTPreSale_flattened.sol\":4453:4457  1e18 */\n      0x0de0b6b3a7640000\n        /* \"contracts/TPTPreSale_flattened.sol\":4442:4450  bnbValue */\n      dup7\n        /* \"contracts/TPTPreSale_flattened.sol\":4442:4457  bnbValue * 1e18 */\n      tag_254\n      swap2\n      swap1\n      tag_248\n      jump\t// in\n    tag_254:\n        /* \"contracts/TPTPreSale_flattened.sol\":4441:4472  (bnbValue * 1e18) / usdBnbPrice */\n      tag_255\n      swap2\n      swap1\n      tag_250\n      jump\t// in\n    tag_255:\n        /* \"contracts/TPTPreSale_flattened.sol\":4440:4498  ((bnbValue * 1e18) / usdBnbPrice) / tptStepPrice[thisStep] */\n      tag_256\n      swap2\n      swap1\n      tag_250\n      jump\t// in\n    tag_256:\n        /* \"contracts/TPTPreSale_flattened.sol\":4431:4498  amount = ((bnbValue * 1e18) / usdBnbPrice) / tptStepPrice[thisStep] */\n      swap1\n      pop\n        /* \"contracts/TPTPreSale_flattened.sol\":4266:4509  if (_useOffer) {... */\n    tag_253:\n        /* \"contracts/TPTPreSale_flattened.sol\":4525:4531  amount */\n      dup1\n        /* \"contracts/TPTPreSale_flattened.sol\":4518:4531  return amount */\n      swap3\n      pop\n      pop\n      pop\n        /* \"contracts/TPTPreSale_flattened.sol\":4079:4538  function calcAmount(bool _useOffer, uint256 bnbValue) public view returns (uint256){... */\n      swap3\n      swap2\n      pop\n      pop\n      jump\t// out\n        /* \"contracts/TPTPreSale_flattened.sol\":4862:5030  function withdrawAll(address payable _to) external onlyOwner {... */\n    tag_150:\n        /* \"contracts/TPTPreSale_flattened.sol\":1370:1375  owner */\n      0x01\n      0x00\n      swap1\n      sload\n      swap1\n      0x0100\n      exp\n      swap1\n      div\n      0xffffffffffffffffffffffffffffffffffffffff\n      and\n        /* \"contracts/TPTPreSale_flattened.sol\":1356:1375  msg.sender == owner */\n      0xffffffffffffffffffffffffffffffffffffffff\n      and\n        /* \"contracts/TPTPreSale_flattened.sol\":1356:1366  msg.sender */\n      caller\n        /* \"contracts/TPTPreSale_flattened.sol\":1356:1375  msg.sender == owner */\n      0xffffffffffffffffffffffffffffffffffffffff\n      and\n      eq\n        /* \"contracts/TPTPreSale_flattened.sol\":1348:1390  require(msg.sender == owner, \"Only owner\") */\n      tag_258\n      jumpi\n      mload(0x40)\n      0x08c379a000000000000000000000000000000000000000000000000000000000\n      dup2\n      mstore\n      0x04\n      add\n      tag_259\n      swap1\n      tag_198\n      jump\t// in\n    tag_259:\n      mload(0x40)\n      dup1\n      swap2\n      sub\n      swap1\n      revert\n    tag_258:\n        /* \"contracts/TPTPreSale_flattened.sol\":4956:4957  0 */\n      0x00\n        /* \"contracts/TPTPreSale_flattened.sol\":4941:4958  _to != address(0) */\n      0xffffffffffffffffffffffffffffffffffffffff\n      and\n        /* \"contracts/TPTPreSale_flattened.sol\":4941:4944  _to */\n      dup2\n        /* \"contracts/TPTPreSale_flattened.sol\":4941:4958  _to != address(0) */\n      0xffffffffffffffffffffffffffffffffffffffff\n      and\n      sub\n        /* \"contracts/TPTPreSale_flattened.sol\":4933:4978  require(_to != address(0), \"Invalid address\") */\n      tag_261\n      jumpi\n      mload(0x40)\n      0x08c379a000000000000000000000000000000000000000000000000000000000\n      dup2\n      mstore\n      0x04\n      add\n      tag_262\n      swap1\n      tag_263\n      jump\t// in\n    tag_262:\n      mload(0x40)\n      dup1\n      swap2\n      sub\n      swap1\n      revert\n    tag_261:\n        /* \"contracts/TPTPreSale_flattened.sol\":4988:4991  _to */\n      dup1\n        /* \"contracts/TPTPreSale_flattened.sol\":4988:5000  _to.transfer */\n      0xffffffffffffffffffffffffffffffffffffffff\n      and\n        /* \"contracts/TPTPreSale_flattened.sol\":4988:5023  _to.transfer(address(this).balance) */\n      0x08fc\n        /* \"contracts/TPTPreSale_flattened.sol\":5001:5022  address(this).balance */\n      selfbalance\n        /* \"contracts/TPTPreSale_flattened.sol\":4988:5023  _to.transfer(address(this).balance) */\n      swap1\n      dup2\n      iszero\n      mul\n      swap1\n      mload(0x40)\n      0x00\n      mload(0x40)\n      dup1\n      dup4\n      sub\n      dup2\n      dup6\n      dup9\n      dup9\n      call\n      swap4\n      pop\n      pop\n      pop\n      pop\n      iszero\n      dup1\n      iszero\n      tag_265\n      jumpi\n      returndatasize\n      0x00\n      dup1\n      returndatacopy\n      revert(0x00, returndatasize)\n    tag_265:\n      pop\n        /* \"contracts/TPTPreSale_flattened.sol\":4862:5030  function withdrawAll(address payable _to) external onlyOwner {... */\n      pop\n      jump\t// out\n        /* \"contracts/TPTPreSale_flattened.sol\":5652:5823  function getUserTPTBalance(address _userAddress)... */\n    tag_154:\n        /* \"contracts/TPTPreSale_flattened.sol\":5748:5755  uint256 */\n      0x00\n        /* \"contracts/TPTPreSale_flattened.sol\":5778:5783  users */\n      0x08\n        /* \"contracts/TPTPreSale_flattened.sol\":5778:5805  users[userId[_userAddress]] */\n      0x00\n        /* \"contracts/TPTPreSale_flattened.sol\":5784:5790  userId */\n      0x07\n        /* \"contracts/TPTPreSale_flattened.sol\":5784:5804  userId[_userAddress] */\n      0x00\n        /* \"contracts/TPTPreSale_flattened.sol\":5791:5803  _userAddress */\n      dup6\n        /* \"contracts/TPTPreSale_flattened.sol\":5784:5804  userId[_userAddress] */\n      0xffffffffffffffffffffffffffffffffffffffff\n      and\n      0xffffffffffffffffffffffffffffffffffffffff\n      and\n      dup2\n      mstore\n      0x20\n      add\n      swap1\n      dup2\n      mstore\n      0x20\n      add\n      0x00\n      keccak256\n      sload\n        /* \"contracts/TPTPreSale_flattened.sol\":5778:5805  users[userId[_userAddress]] */\n      dup2\n      mstore\n      0x20\n      add\n      swap1\n      dup2\n      mstore\n      0x20\n      add\n      0x00\n      keccak256\n        /* \"contracts/TPTPreSale_flattened.sol\":5778:5816  users[userId[_userAddress]].tptBalance */\n      0x01\n      add\n      sload\n        /* \"contracts/TPTPreSale_flattened.sol\":5771:5816  return users[userId[_userAddress]].tptBalance */\n      swap1\n      pop\n        /* \"contracts/TPTPreSale_flattened.sol\":5652:5823  function getUserTPTBalance(address _userAddress)... */\n      swap2\n      swap1\n      pop\n      jump\t// out\n        /* \"contracts/TPTPreSale_flattened.sol\":763:808  mapping(uint8 => uint256) public tptStepPrice */\n    tag_159:\n      mstore(0x20, 0x02)\n      dup1\n      0x00\n      mstore\n      keccak256(0x00, 0x40)\n      0x00\n      swap2\n      pop\n      swap1\n      pop\n      sload\n      dup2\n      jump\t// out\n    tag_174:\n      dup3\n      dup1\n      sload\n      dup3\n      dup3\n      sstore\n      swap1\n      0x00\n      mstore\n      keccak256(0x00, 0x20)\n      swap1\n      0x04\n      mul\n      dup2\n      add\n      swap3\n      dup3\n      iszero\n      tag_267\n      jumpi\n      0x00\n      mstore\n      keccak256(0x00, 0x20)\n      swap2\n      0x04\n      mul\n      dup3\n      add\n    tag_268:\n      dup3\n      dup2\n      gt\n      iszero\n      tag_269\n      jumpi\n      dup3\n      dup3\n      0x00\n      dup3\n      add\n      sload\n      dup2\n      0x00\n      add\n      sstore\n      0x01\n      dup3\n      add\n      sload\n      dup2\n      0x01\n      add\n      sstore\n      0x02\n      dup3\n      add\n      sload\n      dup2\n      0x02\n      add\n      sstore\n      0x03\n      dup3\n      add\n      0x00\n      swap1\n      sload\n      swap1\n      0x0100\n      exp\n      swap1\n      div\n      0xff\n      and\n      dup2\n      0x03\n      add\n      exp(0x0100, 0x00)\n      dup2\n      sload\n      dup2\n      0xff\n      mul\n      not\n      and\n      swap1\n      dup4\n      0xff\n      and\n      mul\n      or\n      swap1\n      sstore\n      pop\n      pop\n      pop\n      swap2\n      0x04\n      add\n      swap2\n      swap1\n      0x04\n      add\n      swap1\n      jump(tag_268)\n    tag_269:\n    tag_267:\n      pop\n      swap1\n      pop\n      tag_270\n      swap2\n      swap1\n      tag_271\n      jump\t// in\n    tag_270:\n      pop\n      swap1\n      jump\t// out\n    tag_187:\n      mload(0x40)\n      dup1\n      0x80\n      add\n      0x40\n      mstore\n      dup1\n      0x00\n      dup2\n      mstore\n      0x20\n      add\n      0x00\n      dup2\n      mstore\n      0x20\n      add\n      0x00\n      dup2\n      mstore\n      0x20\n      add\n      and(0xff, 0x00)\n      dup2\n      mstore\n      pop\n      swap1\n      jump\t// out\n    tag_217:\n      mload(0x40)\n      dup1\n      0x80\n      add\n      0x40\n      mstore\n      dup1\n      and(0xffffffffffffffffffffffffffffffffffffffff, 0x00)\n      dup2\n      mstore\n      0x20\n      add\n      0x00\n      dup2\n      mstore\n      0x20\n      add\n      iszero(iszero(0x00))\n      dup2\n      mstore\n      0x20\n      add\n      0x60\n      dup2\n      mstore\n      pop\n      swap1\n      jump\t// out\n    tag_271:\n    tag_272:\n      dup1\n      dup3\n      gt\n      iszero\n      tag_273\n      jumpi\n      0x00\n      dup1\n      dup3\n      add\n      0x00\n      swap1\n      sstore\n      0x01\n      dup3\n      add\n      0x00\n      swap1\n      sstore\n      0x02\n      dup3\n      add\n      0x00\n      swap1\n      sstore\n      0x03\n      dup3\n      add\n      exp(0x0100, 0x00)\n      dup2\n      sload\n      swap1\n      0xff\n      mul\n      not\n      and\n      swap1\n      sstore\n      pop\n      0x04\n      add\n      jump(tag_272)\n    tag_273:\n      pop\n      swap1\n      jump\t// out\n        /* \"#utility.yul\":7:176   */\n    tag_274:\n        /* \"#utility.yul\":91:102   */\n      0x00\n        /* \"#utility.yul\":125:131   */\n      dup3\n        /* \"#utility.yul\":120:123   */\n      dup3\n        /* \"#utility.yul\":113:132   */\n      mstore\n        /* \"#utility.yul\":165:169   */\n      0x20\n        /* \"#utility.yul\":160:163   */\n      dup3\n        /* \"#utility.yul\":156:170   */\n      add\n        /* \"#utility.yul\":141:170   */\n      swap1\n      pop\n        /* \"#utility.yul\":7:176   */\n      swap3\n      swap2\n      pop\n      pop\n      jump\t// out\n        /* \"#utility.yul\":182:356   */\n    tag_275:\n        /* \"#utility.yul\":322:348   */\n      0x53656e64206d6f726520424e4220746f20627579205450540000000000000000\n        /* \"#utility.yul\":318:319   */\n      0x00\n        /* \"#utility.yul\":310:316   */\n      dup3\n        /* \"#utility.yul\":306:320   */\n      add\n        /* \"#utility.yul\":299:349   */\n      mstore\n        /* \"#utility.yul\":182:356   */\n      pop\n      jump\t// out\n        /* \"#utility.yul\":362:728   */\n    tag_276:\n        /* \"#utility.yul\":504:507   */\n      0x00\n        /* \"#utility.yul\":525:592   */\n      tag_352\n        /* \"#utility.yul\":589:591   */\n      0x18\n        /* \"#utility.yul\":584:587   */\n      dup4\n        /* \"#utility.yul\":525:592   */\n      tag_274\n      jump\t// in\n    tag_352:\n        /* \"#utility.yul\":518:592   */\n      swap2\n      pop\n        /* \"#utility.yul\":601:694   */\n      tag_353\n        /* \"#utility.yul\":690:693   */\n      dup3\n        /* \"#utility.yul\":601:694   */\n      tag_275\n      jump\t// in\n    tag_353:\n        /* \"#utility.yul\":719:721   */\n      0x20\n        /* \"#utility.yul\":714:717   */\n      dup3\n        /* \"#utility.yul\":710:722   */\n      add\n        /* \"#utility.yul\":703:722   */\n      swap1\n      pop\n        /* \"#utility.yul\":362:728   */\n      swap2\n      swap1\n      pop\n      jump\t// out\n        /* \"#utility.yul\":734:1153   */\n    tag_30:\n        /* \"#utility.yul\":900:904   */\n      0x00\n        /* \"#utility.yul\":938:940   */\n      0x20\n        /* \"#utility.yul\":927:936   */\n      dup3\n        /* \"#utility.yul\":923:941   */\n      add\n        /* \"#utility.yul\":915:941   */\n      swap1\n      pop\n        /* \"#utility.yul\":987:996   */\n      dup2\n        /* \"#utility.yul\":981:985   */\n      dup2\n        /* \"#utility.yul\":977:997   */\n      sub\n        /* \"#utility.yul\":973:974   */\n      0x00\n        /* \"#utility.yul\":962:971   */\n      dup4\n        /* \"#utility.yul\":958:975   */\n      add\n        /* \"#utility.yul\":951:998   */\n      mstore\n        /* \"#utility.yul\":1015:1146   */\n      tag_355\n        /* \"#utility.yul\":1141:1145   */\n      dup2\n        /* \"#utility.yul\":1015:1146   */\n      tag_276\n      jump\t// in\n    tag_355:\n        /* \"#utility.yul\":1007:1146   */\n      swap1\n      pop\n        /* \"#utility.yul\":734:1153   */\n      swap2\n      swap1\n      pop\n      jump\t// out\n        /* \"#utility.yul\":1159:1306   */\n    tag_277:\n        /* \"#utility.yul\":1260:1271   */\n      0x00\n        /* \"#utility.yul\":1297:1300   */\n      dup2\n        /* \"#utility.yul\":1282:1300   */\n      swap1\n      pop\n        /* \"#utility.yul\":1159:1306   */\n      swap3\n      swap2\n      pop\n      pop\n      jump\t// out\n        /* \"#utility.yul\":1312:1426   */\n    tag_278:\n      pop\n      jump\t// out\n        /* \"#utility.yul\":1432:1830   */\n    tag_279:\n        /* \"#utility.yul\":1591:1594   */\n      0x00\n        /* \"#utility.yul\":1612:1695   */\n      tag_359\n        /* \"#utility.yul\":1693:1694   */\n      0x00\n        /* \"#utility.yul\":1688:1691   */\n      dup4\n        /* \"#utility.yul\":1612:1695   */\n      tag_277\n      jump\t// in\n    tag_359:\n        /* \"#utility.yul\":1605:1695   */\n      swap2\n      pop\n        /* \"#utility.yul\":1704:1797   */\n      tag_360\n        /* \"#utility.yul\":1793:1796   */\n      dup3\n        /* \"#utility.yul\":1704:1797   */\n      tag_278\n      jump\t// in\n    tag_360:\n        /* \"#utility.yul\":1822:1823   */\n      0x00\n        /* \"#utility.yul\":1817:1820   */\n      dup3\n        /* \"#utility.yul\":1813:1824   */\n      add\n        /* \"#utility.yul\":1806:1824   */\n      swap1\n      pop\n        /* \"#utility.yul\":1432:1830   */\n      swap2\n      swap1\n      pop\n      jump\t// out\n        /* \"#utility.yul\":1836:2215   */\n    tag_32:\n        /* \"#utility.yul\":2020:2023   */\n      0x00\n        /* \"#utility.yul\":2042:2189   */\n      tag_362\n        /* \"#utility.yul\":2185:2188   */\n      dup3\n        /* \"#utility.yul\":2042:2189   */\n      tag_279\n      jump\t// in\n    tag_362:\n        /* \"#utility.yul\":2035:2189   */\n      swap2\n      pop\n        /* \"#utility.yul\":2206:2209   */\n      dup2\n        /* \"#utility.yul\":2199:2209   */\n      swap1\n      pop\n        /* \"#utility.yul\":1836:2215   */\n      swap2\n      swap1\n      pop\n      jump\t// out\n        /* \"#utility.yul\":2221:2386   */\n    tag_280:\n        /* \"#utility.yul\":2361:2378   */\n      0x5472616e73666572206661696c65640000000000000000000000000000000000\n        /* \"#utility.yul\":2357:2358   */\n      0x00\n        /* \"#utility.yul\":2349:2355   */\n      dup3\n        /* \"#utility.yul\":2345:2359   */\n      add\n        /* \"#utility.yul\":2338:2379   */\n      mstore\n        /* \"#utility.yul\":2221:2386   */\n      pop\n      jump\t// out\n        /* \"#utility.yul\":2392:2758   */\n    tag_281:\n        /* \"#utility.yul\":2534:2537   */\n      0x00\n        /* \"#utility.yul\":2555:2622   */\n      tag_365\n        /* \"#utility.yul\":2619:2621   */\n      0x0f\n        /* \"#utility.yul\":2614:2617   */\n      dup4\n        /* \"#utility.yul\":2555:2622   */\n      tag_274\n      jump\t// in\n    tag_365:\n        /* \"#utility.yul\":2548:2622   */\n      swap2\n      pop\n        /* \"#utility.yul\":2631:2724   */\n      tag_366\n        /* \"#utility.yul\":2720:2723   */\n      dup3\n        /* \"#utility.yul\":2631:2724   */\n      tag_280\n      jump\t// in\n    tag_366:\n        /* \"#utility.yul\":2749:2751   */\n      0x20\n        /* \"#utility.yul\":2744:2747   */\n      dup3\n        /* \"#utility.yul\":2740:2752   */\n      add\n        /* \"#utility.yul\":2733:2752   */\n      swap1\n      pop\n        /* \"#utility.yul\":2392:2758   */\n      swap2\n      swap1\n      pop\n      jump\t// out\n        /* \"#utility.yul\":2764:3183   */\n    tag_38:\n        /* \"#utility.yul\":2930:2934   */\n      0x00\n        /* \"#utility.yul\":2968:2970   */\n      0x20\n        /* \"#utility.yul\":2957:2966   */\n      dup3\n        /* \"#utility.yul\":2953:2971   */\n      add\n        /* \"#utility.yul\":2945:2971   */\n      swap1\n      pop\n        /* \"#utility.yul\":3017:3026   */\n      dup2\n        /* \"#utility.yul\":3011:3015   */\n      dup2\n        /* \"#utility.yul\":3007:3027   */\n      sub\n        /* \"#utility.yul\":3003:3004   */\n      0x00\n        /* \"#utility.yul\":2992:3001   */\n      dup4\n        /* \"#utility.yul\":2988:3005   */\n      add\n        /* \"#utility.yul\":2981:3028   */\n      mstore\n        /* \"#utility.yul\":3045:3176   */\n      tag_368\n        /* \"#utility.yul\":3171:3175   */\n      dup2\n        /* \"#utility.yul\":3045:3176   */\n      tag_281\n      jump\t// in\n    tag_368:\n        /* \"#utility.yul\":3037:3176   */\n      swap1\n      pop\n        /* \"#utility.yul\":2764:3183   */\n      swap2\n      swap1\n      pop\n      jump\t// out\n        /* \"#utility.yul\":3189:3358   */\n    tag_282:\n        /* \"#utility.yul\":3329:3350   */\n      0x496e76616c69642064617461206c656e67746800000000000000000000000000\n        /* \"#utility.yul\":3325:3326   */\n      0x00\n        /* \"#utility.yul\":3317:3323   */\n      dup3\n        /* \"#utility.yul\":3313:3327   */\n      add\n        /* \"#utility.yul\":3306:3351   */\n      mstore\n        /* \"#utility.yul\":3189:3358   */\n      pop\n      jump\t// out\n        /* \"#utility.yul\":3364:3730   */\n    tag_283:\n        /* \"#utility.yul\":3506:3509   */\n      0x00\n        /* \"#utility.yul\":3527:3594   */\n      tag_371\n        /* \"#utility.yul\":3591:3593   */\n      0x13\n        /* \"#utility.yul\":3586:3589   */\n      dup4\n        /* \"#utility.yul\":3527:3594   */\n      tag_274\n      jump\t// in\n    tag_371:\n        /* \"#utility.yul\":3520:3594   */\n      swap2\n      pop\n        /* \"#utility.yul\":3603:3696   */\n      tag_372\n        /* \"#utility.yul\":3692:3695   */\n      dup3\n        /* \"#utility.yul\":3603:3696   */\n      tag_282\n      jump\t// in\n    tag_372:\n        /* \"#utility.yul\":3721:3723   */\n      0x20\n        /* \"#utility.yul\":3716:3719   */\n      dup3\n        /* \"#utility.yul\":3712:3724   */\n      add\n        /* \"#utility.yul\":3705:3724   */\n      swap1\n      pop\n        /* \"#utility.yul\":3364:3730   */\n      swap2\n      swap1\n      pop\n      jump\t// out\n        /* \"#utility.yul\":3736:4155   */\n    tag_47:\n        /* \"#utility.yul\":3902:3906   */\n      0x00\n        /* \"#utility.yul\":3940:3942   */\n      0x20\n        /* \"#utility.yul\":3929:3938   */\n      dup3\n        /* \"#utility.yul\":3925:3943   */\n      add\n        /* \"#utility.yul\":3917:3943   */\n      swap1\n      pop\n        /* \"#utility.yul\":3989:3998   */\n      dup2\n        /* \"#utility.yul\":3983:3987   */\n      dup2\n        /* \"#utility.yul\":3979:3999   */\n      sub\n        /* \"#utility.yul\":3975:3976   */\n      0x00\n        /* \"#utility.yul\":3964:3973   */\n      dup4\n        /* \"#utility.yul\":3960:3977   */\n      add\n        /* \"#utility.yul\":3953:4000   */\n      mstore\n        /* \"#utility.yul\":4017:4148   */\n      tag_374\n        /* \"#utility.yul\":4143:4147   */\n      dup2\n        /* \"#utility.yul\":4017:4148   */\n      tag_283\n      jump\t// in\n    tag_374:\n        /* \"#utility.yul\":4009:4148   */\n      swap1\n      pop\n        /* \"#utility.yul\":3736:4155   */\n      swap2\n      swap1\n      pop\n      jump\t// out\n        /* \"#utility.yul\":4161:4236   */\n    tag_284:\n        /* \"#utility.yul\":4194:4200   */\n      0x00\n        /* \"#utility.yul\":4227:4229   */\n      0x40\n        /* \"#utility.yul\":4221:4230   */\n      mload\n        /* \"#utility.yul\":4211:4230   */\n      swap1\n      pop\n        /* \"#utility.yul\":4161:4236   */\n      swap1\n      jump\t// out\n        /* \"#utility.yul\":4242:4359   */\n    tag_285:\n        /* \"#utility.yul\":4351:4352   */\n      0x00\n        /* \"#utility.yul\":4348:4349   */\n      dup1\n        /* \"#utility.yul\":4341:4353   */\n      revert\n        /* \"#utility.yul\":4365:4482   */\n    tag_286:\n        /* \"#utility.yul\":4474:4475   */\n      0x00\n        /* \"#utility.yul\":4471:4472   */\n      dup1\n        /* \"#utility.yul\":4464:4476   */\n      revert\n        /* \"#utility.yul\":4488:4578   */\n    tag_287:\n        /* \"#utility.yul\":4522:4529   */\n      0x00\n        /* \"#utility.yul\":4565:4570   */\n      dup2\n        /* \"#utility.yul\":4558:4571   */\n      iszero\n        /* \"#utility.yul\":4551:4572   */\n      iszero\n        /* \"#utility.yul\":4540:4572   */\n      swap1\n      pop\n        /* \"#utility.yul\":4488:4578   */\n      swap2\n      swap1\n      pop\n      jump\t// out\n        /* \"#utility.yul\":4584:4700   */\n    tag_288:\n        /* \"#utility.yul\":4654:4675   */\n      tag_380\n        /* \"#utility.yul\":4669:4674   */\n      dup2\n        /* \"#utility.yul\":4654:4675   */\n      tag_287\n      jump\t// in\n    tag_380:\n        /* \"#utility.yul\":4647:4652   */\n      dup2\n        /* \"#utility.yul\":4644:4676   */\n      eq\n        /* \"#utility.yul\":4634:4694   */\n      tag_381\n      jumpi\n        /* \"#utility.yul\":4690:4691   */\n      0x00\n        /* \"#utility.yul\":4687:4688   */\n      dup1\n        /* \"#utility.yul\":4680:4692   */\n      revert\n        /* \"#utility.yul\":4634:4694   */\n    tag_381:\n        /* \"#utility.yul\":4584:4700   */\n      pop\n      jump\t// out\n        /* \"#utility.yul\":4706:4839   */\n    tag_289:\n        /* \"#utility.yul\":4749:4754   */\n      0x00\n        /* \"#utility.yul\":4787:4793   */\n      dup2\n        /* \"#utility.yul\":4774:4794   */\n      calldataload\n        /* \"#utility.yul\":4765:4794   */\n      swap1\n      pop\n        /* \"#utility.yul\":4803:4833   */\n      tag_383\n        /* \"#utility.yul\":4827:4832   */\n      dup2\n        /* \"#utility.yul\":4803:4833   */\n      tag_288\n      jump\t// in\n    tag_383:\n        /* \"#utility.yul\":4706:4839   */\n      swap3\n      swap2\n      pop\n      pop\n      jump\t// out\n        /* \"#utility.yul\":4845:5168   */\n    tag_49:\n        /* \"#utility.yul\":4901:4907   */\n      0x00\n        /* \"#utility.yul\":4950:4952   */\n      0x20\n        /* \"#utility.yul\":4938:4947   */\n      dup3\n        /* \"#utility.yul\":4929:4936   */\n      dup5\n        /* \"#utility.yul\":4925:4948   */\n      sub\n        /* \"#utility.yul\":4921:4953   */\n      slt\n        /* \"#utility.yul\":4918:5037   */\n      iszero\n      tag_385\n      jumpi\n        /* \"#utility.yul\":4956:5035   */\n      tag_386\n      tag_285\n      jump\t// in\n    tag_386:\n        /* \"#utility.yul\":4918:5037   */\n    tag_385:\n        /* \"#utility.yul\":5076:5077   */\n      0x00\n        /* \"#utility.yul\":5101:5151   */\n      tag_387\n        /* \"#utility.yul\":5143:5150   */\n      dup5\n        /* \"#utility.yul\":5134:5140   */\n      dup3\n        /* \"#utility.yul\":5123:5132   */\n      dup6\n        /* \"#utility.yul\":5119:5141   */\n      add\n        /* \"#utility.yul\":5101:5151   */\n      tag_289\n      jump\t// in\n    tag_387:\n        /* \"#utility.yul\":5091:5151   */\n      swap2\n      pop\n        /* \"#utility.yul\":5047:5161   */\n      pop\n        /* \"#utility.yul\":4845:5168   */\n      swap3\n      swap2\n      pop\n      pop\n      jump\t// out\n        /* \"#utility.yul\":5174:5348   */\n    tag_290:\n        /* \"#utility.yul\":5314:5340   */\n      0x73656e64206a75737420657175616c20302e303520626e620000000000000000\n        /* \"#utility.yul\":5310:5311   */\n      0x00\n        /* \"#utility.yul\":5302:5308   */\n      dup3\n        /* \"#utility.yul\":5298:5312   */\n      add\n        /* \"#utility.yul\":5291:5341   */\n      mstore\n        /* \"#utility.yul\":5174:5348   */\n      pop\n      jump\t// out\n        /* \"#utility.yul\":5354:5720   */\n    tag_291:\n        /* \"#utility.yul\":5496:5499   */\n      0x00\n        /* \"#utility.yul\":5517:5584   */\n      tag_390\n        /* \"#utility.yul\":5581:5583   */\n      0x18\n        /* \"#utility.yul\":5576:5579   */\n      dup4\n        /* \"#utility.yul\":5517:5584   */\n      tag_274\n      jump\t// in\n    tag_390:\n        /* \"#utility.yul\":5510:5584   */\n      swap2\n      pop\n        /* \"#utility.yul\":5593:5686   */\n      tag_391\n        /* \"#utility.yul\":5682:5685   */\n      dup3\n        /* \"#utility.yul\":5593:5686   */\n      tag_290\n      jump\t// in\n    tag_391:\n        /* \"#utility.yul\":5711:5713   */\n      0x20\n        /* \"#utility.yul\":5706:5709   */\n      dup3\n        /* \"#utility.yul\":5702:5714   */\n      add\n        /* \"#utility.yul\":5695:5714   */\n      swap1\n      pop\n        /* \"#utility.yul\":5354:5720   */\n      swap2\n      swap1\n      pop\n      jump\t// out\n        /* \"#utility.yul\":5726:6145   */\n    tag_53:\n        /* \"#utility.yul\":5892:5896   */\n      0x00\n        /* \"#utility.yul\":5930:5932   */\n      0x20\n        /* \"#utility.yul\":5919:5928   */\n      dup3\n        /* \"#utility.yul\":5915:5933   */\n      add\n        /* \"#utility.yul\":5907:5933   */\n      swap1\n      pop\n        /* \"#utility.yul\":5979:5988   */\n      dup2\n        /* \"#utility.yul\":5973:5977   */\n      dup2\n        /* \"#utility.yul\":5969:5989   */\n      sub\n        /* \"#utility.yul\":5965:5966   */\n      0x00\n        /* \"#utility.yul\":5954:5963   */\n      dup4\n        /* \"#utility.yul\":5950:5967   */\n      add\n        /* \"#utility.yul\":5943:5990   */\n      mstore\n        /* \"#utility.yul\":6007:6138   */\n      tag_393\n        /* \"#utility.yul\":6133:6137   */\n      dup2\n        /* \"#utility.yul\":6007:6138   */\n      tag_291\n      jump\t// in\n    tag_393:\n        /* \"#utility.yul\":5999:6138   */\n      swap1\n      pop\n        /* \"#utility.yul\":5726:6145   */\n      swap2\n      swap1\n      pop\n      jump\t// out\n        /* \"#utility.yul\":6151:6277   */\n    tag_292:\n        /* \"#utility.yul\":6188:6195   */\n      0x00\n        /* \"#utility.yul\":6228:6270   */\n      0xffffffffffffffffffffffffffffffffffffffff\n        /* \"#utility.yul\":6221:6226   */\n      dup3\n        /* \"#utility.yul\":6217:6271   */\n      and\n        /* \"#utility.yul\":6206:6271   */\n      swap1\n      pop\n        /* \"#utility.yul\":6151:6277   */\n      swap2\n      swap1\n      pop\n      jump\t// out\n        /* \"#utility.yul\":6283:6379   */\n    tag_293:\n        /* \"#utility.yul\":6320:6327   */\n      0x00\n        /* \"#utility.yul\":6349:6373   */\n      tag_396\n        /* \"#utility.yul\":6367:6372   */\n      dup3\n        /* \"#utility.yul\":6349:6373   */\n      tag_292\n      jump\t// in\n    tag_396:\n        /* \"#utility.yul\":6338:6373   */\n      swap1\n      pop\n        /* \"#utility.yul\":6283:6379   */\n      swap2\n      swap1\n      pop\n      jump\t// out\n        /* \"#utility.yul\":6385:6507   */\n    tag_294:\n        /* \"#utility.yul\":6458:6482   */\n      tag_398\n        /* \"#utility.yul\":6476:6481   */\n      dup2\n        /* \"#utility.yul\":6458:6482   */\n      tag_293\n      jump\t// in\n    tag_398:\n        /* \"#utility.yul\":6451:6456   */\n      dup2\n        /* \"#utility.yul\":6448:6483   */\n      eq\n        /* \"#utility.yul\":6438:6501   */\n      tag_399\n      jumpi\n        /* \"#utility.yul\":6497:6498   */\n      0x00\n        /* \"#utility.yul\":6494:6495   */\n      dup1\n        /* \"#utility.yul\":6487:6499   */\n      revert\n        /* \"#utility.yul\":6438:6501   */\n    tag_399:\n        /* \"#utility.yul\":6385:6507   */\n      pop\n      jump\t// out\n        /* \"#utility.yul\":6513:6652   */\n    tag_295:\n        /* \"#utility.yul\":6559:6564   */\n      0x00\n        /* \"#utility.yul\":6597:6603   */\n      dup2\n        /* \"#utility.yul\":6584:6604   */\n      calldataload\n        /* \"#utility.yul\":6575:6604   */\n      swap1\n      pop\n        /* \"#utility.yul\":6613:6646   */\n      tag_401\n        /* \"#utility.yul\":6640:6645   */\n      dup2\n        /* \"#utility.yul\":6613:6646   */\n      tag_294\n      jump\t// in\n    tag_401:\n        /* \"#utility.yul\":6513:6652   */\n      swap3\n      swap2\n      pop\n      pop\n      jump\t// out\n        /* \"#utility.yul\":6658:6735   */\n    tag_296:\n        /* \"#utility.yul\":6695:6702   */\n      0x00\n        /* \"#utility.yul\":6724:6729   */\n      dup2\n        /* \"#utility.yul\":6713:6729   */\n      swap1\n      pop\n        /* \"#utility.yul\":6658:6735   */\n      swap2\n      swap1\n      pop\n      jump\t// out\n        /* \"#utility.yul\":6741:6863   */\n    tag_297:\n        /* \"#utility.yul\":6814:6838   */\n      tag_404\n        /* \"#utility.yul\":6832:6837   */\n      dup2\n        /* \"#utility.yul\":6814:6838   */\n      tag_296\n      jump\t// in\n    tag_404:\n        /* \"#utility.yul\":6807:6812   */\n      dup2\n        /* \"#utility.yul\":6804:6839   */\n      eq\n        /* \"#utility.yul\":6794:6857   */\n      tag_405\n      jumpi\n        /* \"#utility.yul\":6853:6854   */\n      0x00\n        /* \"#utility.yul\":6850:6851   */\n      dup1\n        /* \"#utility.yul\":6843:6855   */\n      revert\n        /* \"#utility.yul\":6794:6857   */\n    tag_405:\n        /* \"#utility.yul\":6741:6863   */\n      pop\n      jump\t// out\n        /* \"#utility.yul\":6869:7008   */\n    tag_298:\n        /* \"#utility.yul\":6915:6920   */\n      0x00\n        /* \"#utility.yul\":6953:6959   */\n      dup2\n        /* \"#utility.yul\":6940:6960   */\n      calldataload\n        /* \"#utility.yul\":6931:6960   */\n      swap1\n      pop\n        /* \"#utility.yul\":6969:7002   */\n      tag_407\n        /* \"#utility.yul\":6996:7001   */\n      dup2\n        /* \"#utility.yul\":6969:7002   */\n      tag_297\n      jump\t// in\n    tag_407:\n        /* \"#utility.yul\":6869:7008   */\n      swap3\n      swap2\n      pop\n      pop\n      jump\t// out\n        /* \"#utility.yul\":7014:7488   */\n    tag_65:\n        /* \"#utility.yul\":7082:7088   */\n      0x00\n        /* \"#utility.yul\":7090:7096   */\n      dup1\n        /* \"#utility.yul\":7139:7141   */\n      0x40\n        /* \"#utility.yul\":7127:7136   */\n      dup4\n        /* \"#utility.yul\":7118:7125   */\n      dup6\n        /* \"#utility.yul\":7114:7137   */\n      sub\n        /* \"#utility.yul\":7110:7142   */\n      slt\n        /* \"#utility.yul\":7107:7226   */\n      iszero\n      tag_409\n      jumpi\n        /* \"#utility.yul\":7145:7224   */\n      tag_410\n      tag_285\n      jump\t// in\n    tag_410:\n        /* \"#utility.yul\":7107:7226   */\n    tag_409:\n        /* \"#utility.yul\":7265:7266   */\n      0x00\n        /* \"#utility.yul\":7290:7343   */\n      tag_411\n        /* \"#utility.yul\":7335:7342   */\n      dup6\n        /* \"#utility.yul\":7326:7332   */\n      dup3\n        /* \"#utility.yul\":7315:7324   */\n      dup7\n        /* \"#utility.yul\":7311:7333   */\n      add\n        /* \"#utility.yul\":7290:7343   */\n      tag_295\n      jump\t// in\n    tag_411:\n        /* \"#utility.yul\":7280:7343   */\n      swap3\n      pop\n        /* \"#utility.yul\":7236:7353   */\n      pop\n        /* \"#utility.yul\":7392:7394   */\n      0x20\n        /* \"#utility.yul\":7418:7471   */\n      tag_412\n        /* \"#utility.yul\":7463:7470   */\n      dup6\n        /* \"#utility.yul\":7454:7460   */\n      dup3\n        /* \"#utility.yul\":7443:7452   */\n      dup7\n        /* \"#utility.yul\":7439:7461   */\n      add\n        /* \"#utility.yul\":7418:7471   */\n      tag_298\n      jump\t// in\n    tag_412:\n        /* \"#utility.yul\":7408:7471   */\n      swap2\n      pop\n        /* \"#utility.yul\":7363:7481   */\n      pop\n        /* \"#utility.yul\":7014:7488   */\n      swap3\n      pop\n      swap3\n      swap1\n      pop\n      jump\t// out\n        /* \"#utility.yul\":7494:7602   */\n    tag_299:\n        /* \"#utility.yul\":7571:7595   */\n      tag_414\n        /* \"#utility.yul\":7589:7594   */\n      dup2\n        /* \"#utility.yul\":7571:7595   */\n      tag_296\n      jump\t// in\n    tag_414:\n        /* \"#utility.yul\":7566:7569   */\n      dup3\n        /* \"#utility.yul\":7559:7596   */\n      mstore\n        /* \"#utility.yul\":7494:7602   */\n      pop\n      pop\n      jump\t// out\n        /* \"#utility.yul\":7608:7694   */\n    tag_300:\n        /* \"#utility.yul\":7643:7650   */\n      0x00\n        /* \"#utility.yul\":7683:7687   */\n      0xff\n        /* \"#utility.yul\":7676:7681   */\n      dup3\n        /* \"#utility.yul\":7672:7688   */\n      and\n        /* \"#utility.yul\":7661:7688   */\n      swap1\n      pop\n        /* \"#utility.yul\":7608:7694   */\n      swap2\n      swap1\n      pop\n      jump\t// out\n        /* \"#utility.yul\":7700:7802   */\n    tag_301:\n        /* \"#utility.yul\":7773:7795   */\n      tag_417\n        /* \"#utility.yul\":7789:7794   */\n      dup2\n        /* \"#utility.yul\":7773:7795   */\n      tag_300\n      jump\t// in\n    tag_417:\n        /* \"#utility.yul\":7768:7771   */\n      dup3\n        /* \"#utility.yul\":7761:7796   */\n      mstore\n        /* \"#utility.yul\":7700:7802   */\n      pop\n      pop\n      jump\t// out\n        /* \"#utility.yul\":7872:8736   */\n    tag_302:\n        /* \"#utility.yul\":8017:8021   */\n      0x80\n        /* \"#utility.yul\":8012:8015   */\n      dup3\n        /* \"#utility.yul\":8008:8022   */\n      add\n        /* \"#utility.yul\":8109:8113   */\n      0x00\n        /* \"#utility.yul\":8102:8107   */\n      dup3\n        /* \"#utility.yul\":8098:8114   */\n      add\n        /* \"#utility.yul\":8092:8115   */\n      mload\n        /* \"#utility.yul\":8128:8191   */\n      tag_419\n        /* \"#utility.yul\":8185:8189   */\n      0x00\n        /* \"#utility.yul\":8180:8183   */\n      dup6\n        /* \"#utility.yul\":8176:8190   */\n      add\n        /* \"#utility.yul\":8162:8174   */\n      dup3\n        /* \"#utility.yul\":8128:8191   */\n      tag_299\n      jump\t// in\n    tag_419:\n        /* \"#utility.yul\":8032:8201   */\n      pop\n        /* \"#utility.yul\":8288:8292   */\n      0x20\n        /* \"#utility.yul\":8281:8286   */\n      dup3\n        /* \"#utility.yul\":8277:8293   */\n      add\n        /* \"#utility.yul\":8271:8294   */\n      mload\n        /* \"#utility.yul\":8307:8370   */\n      tag_420\n        /* \"#utility.yul\":8364:8368   */\n      0x20\n        /* \"#utility.yul\":8359:8362   */\n      dup6\n        /* \"#utility.yul\":8355:8369   */\n      add\n        /* \"#utility.yul\":8341:8353   */\n      dup3\n        /* \"#utility.yul\":8307:8370   */\n      tag_299\n      jump\t// in\n    tag_420:\n        /* \"#utility.yul\":8211:8380   */\n      pop\n        /* \"#utility.yul\":8467:8471   */\n      0x40\n        /* \"#utility.yul\":8460:8465   */\n      dup3\n        /* \"#utility.yul\":8456:8472   */\n      add\n        /* \"#utility.yul\":8450:8473   */\n      mload\n        /* \"#utility.yul\":8486:8549   */\n      tag_421\n        /* \"#utility.yul\":8543:8547   */\n      0x40\n        /* \"#utility.yul\":8538:8541   */\n      dup6\n        /* \"#utility.yul\":8534:8548   */\n      add\n        /* \"#utility.yul\":8520:8532   */\n      dup3\n        /* \"#utility.yul\":8486:8549   */\n      tag_299\n      jump\t// in\n    tag_421:\n        /* \"#utility.yul\":8390:8559   */\n      pop\n        /* \"#utility.yul\":8641:8645   */\n      0x60\n        /* \"#utility.yul\":8634:8639   */\n      dup3\n        /* \"#utility.yul\":8630:8646   */\n      add\n        /* \"#utility.yul\":8624:8647   */\n      mload\n        /* \"#utility.yul\":8660:8719   */\n      tag_422\n        /* \"#utility.yul\":8713:8717   */\n      0x60\n        /* \"#utility.yul\":8708:8711   */\n      dup6\n        /* \"#utility.yul\":8704:8718   */\n      add\n        /* \"#utility.yul\":8690:8702   */\n      dup3\n        /* \"#utility.yul\":8660:8719   */\n      tag_301\n      jump\t// in\n    tag_422:\n        /* \"#utility.yul\":8569:8729   */\n      pop\n        /* \"#utility.yul\":7986:8736   */\n      pop\n        /* \"#utility.yul\":7872:8736   */\n      pop\n      pop\n      jump\t// out\n        /* \"#utility.yul\":8742:9061   */\n    tag_68:\n        /* \"#utility.yul\":8883:8887   */\n      0x00\n        /* \"#utility.yul\":8921:8924   */\n      0x80\n        /* \"#utility.yul\":8910:8919   */\n      dup3\n        /* \"#utility.yul\":8906:8925   */\n      add\n        /* \"#utility.yul\":8898:8925   */\n      swap1\n      pop\n        /* \"#utility.yul\":8935:9054   */\n      tag_424\n        /* \"#utility.yul\":9051:9052   */\n      0x00\n        /* \"#utility.yul\":9040:9049   */\n      dup4\n        /* \"#utility.yul\":9036:9053   */\n      add\n        /* \"#utility.yul\":9027:9033   */\n      dup5\n        /* \"#utility.yul\":8935:9054   */\n      tag_302\n      jump\t// in\n    tag_424:\n        /* \"#utility.yul\":8742:9061   */\n      swap3\n      swap2\n      pop\n      pop\n      jump\t// out\n        /* \"#utility.yul\":9067:9396   */\n    tag_72:\n        /* \"#utility.yul\":9126:9132   */\n      0x00\n        /* \"#utility.yul\":9175:9177   */\n      0x20\n        /* \"#utility.yul\":9163:9172   */\n      dup3\n        /* \"#utility.yul\":9154:9161   */\n      dup5\n        /* \"#utility.yul\":9150:9173   */\n      sub\n        /* \"#utility.yul\":9146:9178   */\n      slt\n        /* \"#utility.yul\":9143:9262   */\n      iszero\n      tag_426\n      jumpi\n        /* \"#utility.yul\":9181:9260   */\n      tag_427\n      tag_285\n      jump\t// in\n    tag_427:\n        /* \"#utility.yul\":9143:9262   */\n    tag_426:\n        /* \"#utility.yul\":9301:9302   */\n      0x00\n        /* \"#utility.yul\":9326:9379   */\n      tag_428\n        /* \"#utility.yul\":9371:9378   */\n      dup5\n        /* \"#utility.yul\":9362:9368   */\n      dup3\n        /* \"#utility.yul\":9351:9360   */\n      dup6\n        /* \"#utility.yul\":9347:9369   */\n      add\n        /* \"#utility.yul\":9326:9379   */\n      tag_295\n      jump\t// in\n    tag_428:\n        /* \"#utility.yul\":9316:9379   */\n      swap2\n      pop\n        /* \"#utility.yul\":9272:9389   */\n      pop\n        /* \"#utility.yul\":9067:9396   */\n      swap3\n      swap2\n      pop\n      pop\n      jump\t// out\n        /* \"#utility.yul\":9402:9520   */\n    tag_303:\n        /* \"#utility.yul\":9489:9513   */\n      tag_430\n        /* \"#utility.yul\":9507:9512   */\n      dup2\n        /* \"#utility.yul\":9489:9513   */\n      tag_296\n      jump\t// in\n    tag_430:\n        /* \"#utility.yul\":9484:9487   */\n      dup3\n        /* \"#utility.yul\":9477:9514   */\n      mstore\n        /* \"#utility.yul\":9402:9520   */\n      pop\n      pop\n      jump\t// out\n        /* \"#utility.yul\":9526:9748   */\n    tag_75:\n        /* \"#utility.yul\":9619:9623   */\n      0x00\n        /* \"#utility.yul\":9657:9659   */\n      0x20\n        /* \"#utility.yul\":9646:9655   */\n      dup3\n        /* \"#utility.yul\":9642:9660   */\n      add\n        /* \"#utility.yul\":9634:9660   */\n      swap1\n      pop\n        /* \"#utility.yul\":9670:9741   */\n      tag_432\n        /* \"#utility.yul\":9738:9739   */\n      0x00\n        /* \"#utility.yul\":9727:9736   */\n      dup4\n        /* \"#utility.yul\":9723:9740   */\n      add\n        /* \"#utility.yul\":9714:9720   */\n      dup5\n        /* \"#utility.yul\":9670:9741   */\n      tag_303\n      jump\t// in\n    tag_432:\n        /* \"#utility.yul\":9526:9748   */\n      swap3\n      swap2\n      pop\n      pop\n      jump\t// out\n        /* \"#utility.yul\":9754:9853   */\n    tag_304:\n        /* \"#utility.yul\":9806:9812   */\n      0x00\n        /* \"#utility.yul\":9840:9845   */\n      dup2\n        /* \"#utility.yul\":9834:9846   */\n      mload\n        /* \"#utility.yul\":9824:9846   */\n      swap1\n      pop\n        /* \"#utility.yul\":9754:9853   */\n      swap2\n      swap1\n      pop\n      jump\t// out\n        /* \"#utility.yul\":9859:10105   */\n    tag_305:\n        /* \"#utility.yul\":9940:9941   */\n      0x00\n        /* \"#utility.yul\":9950:10063   */\n    tag_435:\n        /* \"#utility.yul\":9964:9970   */\n      dup4\n        /* \"#utility.yul\":9961:9962   */\n      dup2\n        /* \"#utility.yul\":9958:9971   */\n      lt\n        /* \"#utility.yul\":9950:10063   */\n      iszero\n      tag_437\n      jumpi\n        /* \"#utility.yul\":10049:10050   */\n      dup1\n        /* \"#utility.yul\":10044:10047   */\n      dup3\n        /* \"#utility.yul\":10040:10051   */\n      add\n        /* \"#utility.yul\":10034:10052   */\n      mload\n        /* \"#utility.yul\":10030:10031   */\n      dup2\n        /* \"#utility.yul\":10025:10028   */\n      dup5\n        /* \"#utility.yul\":10021:10032   */\n      add\n        /* \"#utility.yul\":10014:10053   */\n      mstore\n        /* \"#utility.yul\":9986:9988   */\n      0x20\n        /* \"#utility.yul\":9983:9984   */\n      dup2\n        /* \"#utility.yul\":9979:9989   */\n      add\n        /* \"#utility.yul\":9974:9989   */\n      swap1\n      pop\n        /* \"#utility.yul\":9950:10063   */\n      jump(tag_435)\n    tag_437:\n        /* \"#utility.yul\":10097:10098   */\n      0x00\n        /* \"#utility.yul\":10088:10094   */\n      dup5\n        /* \"#utility.yul\":10083:10086   */\n      dup5\n        /* \"#utility.yul\":10079:10095   */\n      add\n        /* \"#utility.yul\":10072:10099   */\n      mstore\n        /* \"#utility.yul\":9921:10105   */\n      pop\n        /* \"#utility.yul\":9859:10105   */\n      pop\n      pop\n      pop\n      jump\t// out\n        /* \"#utility.yul\":10111:10213   */\n    tag_306:\n        /* \"#utility.yul\":10152:10158   */\n      0x00\n        /* \"#utility.yul\":10203:10205   */\n      0x1f\n        /* \"#utility.yul\":10199:10206   */\n      not\n        /* \"#utility.yul\":10194:10196   */\n      0x1f\n        /* \"#utility.yul\":10187:10192   */\n      dup4\n        /* \"#utility.yul\":10183:10197   */\n      add\n        /* \"#utility.yul\":10179:10207   */\n      and\n        /* \"#utility.yul\":10169:10207   */\n      swap1\n      pop\n        /* \"#utility.yul\":10111:10213   */\n      swap2\n      swap1\n      pop\n      jump\t// out\n        /* \"#utility.yul\":10219:10596   */\n    tag_307:\n        /* \"#utility.yul\":10307:10310   */\n      0x00\n        /* \"#utility.yul\":10335:10374   */\n      tag_440\n        /* \"#utility.yul\":10368:10373   */\n      dup3\n        /* \"#utility.yul\":10335:10374   */\n      tag_304\n      jump\t// in\n    tag_440:\n        /* \"#utility.yul\":10390:10461   */\n      tag_441\n        /* \"#utility.yul\":10454:10460   */\n      dup2\n        /* \"#utility.yul\":10449:10452   */\n      dup6\n        /* \"#utility.yul\":10390:10461   */\n      tag_274\n      jump\t// in\n    tag_441:\n        /* \"#utility.yul\":10383:10461   */\n      swap4\n      pop\n        /* \"#utility.yul\":10470:10535   */\n      tag_442\n        /* \"#utility.yul\":10528:10534   */\n      dup2\n        /* \"#utility.yul\":10523:10526   */\n      dup6\n        /* \"#utility.yul\":10516:10520   */\n      0x20\n        /* \"#utility.yul\":10509:10514   */\n      dup7\n        /* \"#utility.yul\":10505:10521   */\n      add\n        /* \"#utility.yul\":10470:10535   */\n      tag_305\n      jump\t// in\n    tag_442:\n        /* \"#utility.yul\":10560:10589   */\n      tag_443\n        /* \"#utility.yul\":10582:10588   */\n      dup2\n        /* \"#utility.yul\":10560:10589   */\n      tag_306\n      jump\t// in\n    tag_443:\n        /* \"#utility.yul\":10555:10558   */\n      dup5\n        /* \"#utility.yul\":10551:10590   */\n      add\n        /* \"#utility.yul\":10544:10590   */\n      swap2\n      pop\n        /* \"#utility.yul\":10311:10596   */\n      pop\n        /* \"#utility.yul\":10219:10596   */\n      swap3\n      swap2\n      pop\n      pop\n      jump\t// out\n        /* \"#utility.yul\":10602:10915   */\n    tag_88:\n        /* \"#utility.yul\":10715:10719   */\n      0x00\n        /* \"#utility.yul\":10753:10755   */\n      0x20\n        /* \"#utility.yul\":10742:10751   */\n      dup3\n        /* \"#utility.yul\":10738:10756   */\n      add\n        /* \"#utility.yul\":10730:10756   */\n      swap1\n      pop\n        /* \"#utility.yul\":10802:10811   */\n      dup2\n        /* \"#utility.yul\":10796:10800   */\n      dup2\n        /* \"#utility.yul\":10792:10812   */\n      sub\n        /* \"#utility.yul\":10788:10789   */\n      0x00\n        /* \"#utility.yul\":10777:10786   */\n      dup4\n        /* \"#utility.yul\":10773:10790   */\n      add\n        /* \"#utility.yul\":10766:10813   */\n      mstore\n        /* \"#utility.yul\":10830:10908   */\n      tag_445\n        /* \"#utility.yul\":10903:10907   */\n      dup2\n        /* \"#utility.yul\":10894:10900   */\n      dup5\n        /* \"#utility.yul\":10830:10908   */\n      tag_307\n      jump\t// in\n    tag_445:\n        /* \"#utility.yul\":10822:10908   */\n      swap1\n      pop\n        /* \"#utility.yul\":10602:10915   */\n      swap3\n      swap2\n      pop\n      pop\n      jump\t// out\n        /* \"#utility.yul\":10921:11025   */\n    tag_308:\n        /* \"#utility.yul\":10966:10973   */\n      0x00\n        /* \"#utility.yul\":10995:11019   */\n      tag_447\n        /* \"#utility.yul\":11013:11018   */\n      dup3\n        /* \"#utility.yul\":10995:11019   */\n      tag_292\n      jump\t// in\n    tag_447:\n        /* \"#utility.yul\":10984:11019   */\n      swap1\n      pop\n        /* \"#utility.yul\":10921:11025   */\n      swap2\n      swap1\n      pop\n      jump\t// out\n        /* \"#utility.yul\":11031:11169   */\n    tag_309:\n        /* \"#utility.yul\":11112:11144   */\n      tag_449\n        /* \"#utility.yul\":11138:11143   */\n      dup2\n        /* \"#utility.yul\":11112:11144   */\n      tag_308\n      jump\t// in\n    tag_449:\n        /* \"#utility.yul\":11105:11110   */\n      dup2\n        /* \"#utility.yul\":11102:11145   */\n      eq\n        /* \"#utility.yul\":11092:11163   */\n      tag_450\n      jumpi\n        /* \"#utility.yul\":11159:11160   */\n      0x00\n        /* \"#utility.yul\":11156:11157   */\n      dup1\n        /* \"#utility.yul\":11149:11161   */\n      revert\n        /* \"#utility.yul\":11092:11163   */\n    tag_450:\n        /* \"#utility.yul\":11031:11169   */\n      pop\n      jump\t// out\n        /* \"#utility.yul\":11175:11330   */\n    tag_310:\n        /* \"#utility.yul\":11229:11234   */\n      0x00\n        /* \"#utility.yul\":11267:11273   */\n      dup2\n        /* \"#utility.yul\":11254:11274   */\n      calldataload\n        /* \"#utility.yul\":11245:11274   */\n      swap1\n      pop\n        /* \"#utility.yul\":11283:11324   */\n      tag_452\n        /* \"#utility.yul\":11318:11323   */\n      dup2\n        /* \"#utility.yul\":11283:11324   */\n      tag_309\n      jump\t// in\n    tag_452:\n        /* \"#utility.yul\":11175:11330   */\n      swap3\n      swap2\n      pop\n      pop\n      jump\t// out\n        /* \"#utility.yul\":11336:11681   */\n    tag_92:\n        /* \"#utility.yul\":11403:11409   */\n      0x00\n        /* \"#utility.yul\":11452:11454   */\n      0x20\n        /* \"#utility.yul\":11440:11449   */\n      dup3\n        /* \"#utility.yul\":11431:11438   */\n      dup5\n        /* \"#utility.yul\":11427:11450   */\n      sub\n        /* \"#utility.yul\":11423:11455   */\n      slt\n        /* \"#utility.yul\":11420:11539   */\n      iszero\n      tag_454\n      jumpi\n        /* \"#utility.yul\":11458:11537   */\n      tag_455\n      tag_285\n      jump\t// in\n    tag_455:\n        /* \"#utility.yul\":11420:11539   */\n    tag_454:\n        /* \"#utility.yul\":11578:11579   */\n      0x00\n        /* \"#utility.yul\":11603:11664   */\n      tag_456\n        /* \"#utility.yul\":11656:11663   */\n      dup5\n        /* \"#utility.yul\":11647:11653   */\n      dup3\n        /* \"#utility.yul\":11636:11645   */\n      dup6\n        /* \"#utility.yul\":11632:11654   */\n      add\n        /* \"#utility.yul\":11603:11664   */\n      tag_310\n      jump\t// in\n    tag_456:\n        /* \"#utility.yul\":11593:11664   */\n      swap2\n      pop\n        /* \"#utility.yul\":11549:11674   */\n      pop\n        /* \"#utility.yul\":11336:11681   */\n      swap3\n      swap2\n      pop\n      pop\n      jump\t// out\n        /* \"#utility.yul\":11687:12016   */\n    tag_101:\n        /* \"#utility.yul\":11746:11752   */\n      0x00\n        /* \"#utility.yul\":11795:11797   */\n      0x20\n        /* \"#utility.yul\":11783:11792   */\n      dup3\n        /* \"#utility.yul\":11774:11781   */\n      dup5\n        /* \"#utility.yul\":11770:11793   */\n      sub\n        /* \"#utility.yul\":11766:11798   */\n      slt\n        /* \"#utility.yul\":11763:11882   */\n      iszero\n      tag_458\n      jumpi\n        /* \"#utility.yul\":11801:11880   */\n      tag_459\n      tag_285\n      jump\t// in\n    tag_459:\n        /* \"#utility.yul\":11763:11882   */\n    tag_458:\n        /* \"#utility.yul\":11921:11922   */\n      0x00\n        /* \"#utility.yul\":11946:11999   */\n      tag_460\n        /* \"#utility.yul\":11991:11998   */\n      dup5\n        /* \"#utility.yul\":11982:11988   */\n      dup3\n        /* \"#utility.yul\":11971:11980   */\n      dup6\n        /* \"#utility.yul\":11967:11989   */\n      add\n        /* \"#utility.yul\":11946:11999   */\n      tag_298\n      jump\t// in\n    tag_460:\n        /* \"#utility.yul\":11936:11999   */\n      swap2\n      pop\n        /* \"#utility.yul\":11892:12009   */\n      pop\n        /* \"#utility.yul\":11687:12016   */\n      swap3\n      swap2\n      pop\n      pop\n      jump\t// out\n        /* \"#utility.yul\":12022:12130   */\n    tag_311:\n        /* \"#utility.yul\":12099:12123   */\n      tag_462\n        /* \"#utility.yul\":12117:12122   */\n      dup2\n        /* \"#utility.yul\":12099:12123   */\n      tag_293\n      jump\t// in\n    tag_462:\n        /* \"#utility.yul\":12094:12097   */\n      dup3\n        /* \"#utility.yul\":12087:12124   */\n      mstore\n        /* \"#utility.yul\":12022:12130   */\n      pop\n      pop\n      jump\t// out\n        /* \"#utility.yul\":12136:12235   */\n    tag_312:\n        /* \"#utility.yul\":12207:12228   */\n      tag_464\n        /* \"#utility.yul\":12222:12227   */\n      dup2\n        /* \"#utility.yul\":12207:12228   */\n      tag_287\n      jump\t// in\n    tag_464:\n        /* \"#utility.yul\":12202:12205   */\n      dup3\n        /* \"#utility.yul\":12195:12229   */\n      mstore\n        /* \"#utility.yul\":12136:12235   */\n      pop\n      pop\n      jump\t// out\n        /* \"#utility.yul\":12241:12379   */\n    tag_313:\n        /* \"#utility.yul\":12332:12338   */\n      0x00\n        /* \"#utility.yul\":12366:12371   */\n      dup2\n        /* \"#utility.yul\":12360:12372   */\n      mload\n        /* \"#utility.yul\":12350:12372   */\n      swap1\n      pop\n        /* \"#utility.yul\":12241:12379   */\n      swap2\n      swap1\n      pop\n      jump\t// out\n        /* \"#utility.yul\":12385:12583   */\n    tag_314:\n        /* \"#utility.yul\":12498:12509   */\n      0x00\n        /* \"#utility.yul\":12532:12538   */\n      dup3\n        /* \"#utility.yul\":12527:12530   */\n      dup3\n        /* \"#utility.yul\":12520:12539   */\n      mstore\n        /* \"#utility.yul\":12572:12576   */\n      0x20\n        /* \"#utility.yul\":12567:12570   */\n      dup3\n        /* \"#utility.yul\":12563:12577   */\n      add\n        /* \"#utility.yul\":12548:12577   */\n      swap1\n      pop\n        /* \"#utility.yul\":12385:12583   */\n      swap3\n      swap2\n      pop\n      pop\n      jump\t// out\n        /* \"#utility.yul\":12589:12745   */\n    tag_315:\n        /* \"#utility.yul\":12680:12684   */\n      0x00\n        /* \"#utility.yul\":12703:12706   */\n      dup2\n        /* \"#utility.yul\":12695:12706   */\n      swap1\n      pop\n        /* \"#utility.yul\":12733:12737   */\n      0x20\n        /* \"#utility.yul\":12728:12731   */\n      dup3\n        /* \"#utility.yul\":12724:12738   */\n      add\n        /* \"#utility.yul\":12716:12738   */\n      swap1\n      pop\n        /* \"#utility.yul\":12589:12745   */\n      swap2\n      swap1\n      pop\n      jump\t// out\n        /* \"#utility.yul\":12815:13669   */\n    tag_316:\n        /* \"#utility.yul\":12950:12954   */\n      0x80\n        /* \"#utility.yul\":12945:12948   */\n      dup3\n        /* \"#utility.yul\":12941:12955   */\n      add\n        /* \"#utility.yul\":13042:13046   */\n      0x00\n        /* \"#utility.yul\":13035:13040   */\n      dup3\n        /* \"#utility.yul\":13031:13047   */\n      add\n        /* \"#utility.yul\":13025:13048   */\n      mload\n        /* \"#utility.yul\":13061:13124   */\n      tag_469\n        /* \"#utility.yul\":13118:13122   */\n      0x00\n        /* \"#utility.yul\":13113:13116   */\n      dup6\n        /* \"#utility.yul\":13109:13123   */\n      add\n        /* \"#utility.yul\":13095:13107   */\n      dup3\n        /* \"#utility.yul\":13061:13124   */\n      tag_299\n      jump\t// in\n    tag_469:\n        /* \"#utility.yul\":12965:13134   */\n      pop\n        /* \"#utility.yul\":13221:13225   */\n      0x20\n        /* \"#utility.yul\":13214:13219   */\n      dup3\n        /* \"#utility.yul\":13210:13226   */\n      add\n        /* \"#utility.yul\":13204:13227   */\n      mload\n        /* \"#utility.yul\":13240:13303   */\n      tag_470\n        /* \"#utility.yul\":13297:13301   */\n      0x20\n        /* \"#utility.yul\":13292:13295   */\n      dup6\n        /* \"#utility.yul\":13288:13302   */\n      add\n        /* \"#utility.yul\":13274:13286   */\n      dup3\n        /* \"#utility.yul\":13240:13303   */\n      tag_299\n      jump\t// in\n    tag_470:\n        /* \"#utility.yul\":13144:13313   */\n      pop\n        /* \"#utility.yul\":13400:13404   */\n      0x40\n        /* \"#utility.yul\":13393:13398   */\n      dup3\n        /* \"#utility.yul\":13389:13405   */\n      add\n        /* \"#utility.yul\":13383:13406   */\n      mload\n        /* \"#utility.yul\":13419:13482   */\n      tag_471\n        /* \"#utility.yul\":13476:13480   */\n      0x40\n        /* \"#utility.yul\":13471:13474   */\n      dup6\n        /* \"#utility.yul\":13467:13481   */\n      add\n        /* \"#utility.yul\":13453:13465   */\n      dup3\n        /* \"#utility.yul\":13419:13482   */\n      tag_299\n      jump\t// in\n    tag_471:\n        /* \"#utility.yul\":13323:13492   */\n      pop\n        /* \"#utility.yul\":13574:13578   */\n      0x60\n        /* \"#utility.yul\":13567:13572   */\n      dup3\n        /* \"#utility.yul\":13563:13579   */\n      add\n        /* \"#utility.yul\":13557:13580   */\n      mload\n        /* \"#utility.yul\":13593:13652   */\n      tag_472\n        /* \"#utility.yul\":13646:13650   */\n      0x60\n        /* \"#utility.yul\":13641:13644   */\n      dup6\n        /* \"#utility.yul\":13637:13651   */\n      add\n        /* \"#utility.yul\":13623:13635   */\n      dup3\n        /* \"#utility.yul\":13593:13652   */\n      tag_301\n      jump\t// in\n    tag_472:\n        /* \"#utility.yul\":13502:13662   */\n      pop\n        /* \"#utility.yul\":12919:13669   */\n      pop\n        /* \"#utility.yul\":12815:13669   */\n      pop\n      pop\n      jump\t// out\n        /* \"#utility.yul\":13675:13950   */\n    tag_317:\n        /* \"#utility.yul\":13792:13802   */\n      0x00\n        /* \"#utility.yul\":13813:13907   */\n      tag_474\n        /* \"#utility.yul\":13903:13906   */\n      dup4\n        /* \"#utility.yul\":13895:13901   */\n      dup4\n        /* \"#utility.yul\":13813:13907   */\n      tag_316\n      jump\t// in\n    tag_474:\n        /* \"#utility.yul\":13939:13943   */\n      0x80\n        /* \"#utility.yul\":13934:13937   */\n      dup4\n        /* \"#utility.yul\":13930:13944   */\n      add\n        /* \"#utility.yul\":13916:13944   */\n      swap1\n      pop\n        /* \"#utility.yul\":13675:13950   */\n      swap3\n      swap2\n      pop\n      pop\n      jump\t// out\n        /* \"#utility.yul\":13956:14093   */\n    tag_318:\n        /* \"#utility.yul\":14050:14054   */\n      0x00\n        /* \"#utility.yul\":14082:14086   */\n      0x20\n        /* \"#utility.yul\":14077:14080   */\n      dup3\n        /* \"#utility.yul\":14073:14087   */\n      add\n        /* \"#utility.yul\":14065:14087   */\n      swap1\n      pop\n        /* \"#utility.yul\":13956:14093   */\n      swap2\n      swap1\n      pop\n      jump\t// out\n        /* \"#utility.yul\":14167:15071   */\n    tag_319:\n        /* \"#utility.yul\":14324:14327   */\n      0x00\n        /* \"#utility.yul\":14353:14431   */\n      tag_477\n        /* \"#utility.yul\":14425:14430   */\n      dup3\n        /* \"#utility.yul\":14353:14431   */\n      tag_313\n      jump\t// in\n    tag_477:\n        /* \"#utility.yul\":14447:14547   */\n      tag_478\n        /* \"#utility.yul\":14540:14546   */\n      dup2\n        /* \"#utility.yul\":14535:14538   */\n      dup6\n        /* \"#utility.yul\":14447:14547   */\n      tag_314\n      jump\t// in\n    tag_478:\n        /* \"#utility.yul\":14440:14547   */\n      swap4\n      pop\n        /* \"#utility.yul\":14571:14651   */\n      tag_479\n        /* \"#utility.yul\":14645:14650   */\n      dup4\n        /* \"#utility.yul\":14571:14651   */\n      tag_315\n      jump\t// in\n    tag_479:\n        /* \"#utility.yul\":14674:14681   */\n      dup1\n        /* \"#utility.yul\":14705:14706   */\n      0x00\n        /* \"#utility.yul\":14690:15046   */\n    tag_480:\n        /* \"#utility.yul\":14715:14721   */\n      dup4\n        /* \"#utility.yul\":14712:14713   */\n      dup2\n        /* \"#utility.yul\":14709:14722   */\n      lt\n        /* \"#utility.yul\":14690:15046   */\n      iszero\n      tag_482\n      jumpi\n        /* \"#utility.yul\":14791:14797   */\n      dup2\n        /* \"#utility.yul\":14785:14798   */\n      mload\n        /* \"#utility.yul\":14818:14929   */\n      tag_483\n        /* \"#utility.yul\":14925:14928   */\n      dup9\n        /* \"#utility.yul\":14910:14923   */\n      dup3\n        /* \"#utility.yul\":14818:14929   */\n      tag_317\n      jump\t// in\n    tag_483:\n        /* \"#utility.yul\":14811:14929   */\n      swap8\n      pop\n        /* \"#utility.yul\":14952:15036   */\n      tag_484\n        /* \"#utility.yul\":15029:15035   */\n      dup4\n        /* \"#utility.yul\":14952:15036   */\n      tag_318\n      jump\t// in\n    tag_484:\n        /* \"#utility.yul\":14942:15036   */\n      swap3\n      pop\n        /* \"#utility.yul\":14750:15046   */\n      pop\n        /* \"#utility.yul\":14737:14738   */\n      0x01\n        /* \"#utility.yul\":14734:14735   */\n      dup2\n        /* \"#utility.yul\":14730:14739   */\n      add\n        /* \"#utility.yul\":14725:14739   */\n      swap1\n      pop\n        /* \"#utility.yul\":14690:15046   */\n      jump(tag_480)\n    tag_482:\n        /* \"#utility.yul\":14694:14708   */\n      pop\n        /* \"#utility.yul\":15062:15065   */\n      dup6\n        /* \"#utility.yul\":15055:15065   */\n      swap4\n      pop\n        /* \"#utility.yul\":14329:15071   */\n      pop\n      pop\n      pop\n        /* \"#utility.yul\":14167:15071   */\n      swap3\n      swap2\n      pop\n      pop\n      jump\t// out\n        /* \"#utility.yul\":15141:16192   */\n    tag_320:\n        /* \"#utility.yul\":15258:15261   */\n      0x00\n        /* \"#utility.yul\":15294:15298   */\n      0x80\n        /* \"#utility.yul\":15289:15292   */\n      dup4\n        /* \"#utility.yul\":15285:15299   */\n      add\n        /* \"#utility.yul\":15390:15394   */\n      0x00\n        /* \"#utility.yul\":15383:15388   */\n      dup4\n        /* \"#utility.yul\":15379:15395   */\n      add\n        /* \"#utility.yul\":15373:15396   */\n      mload\n        /* \"#utility.yul\":15409:15472   */\n      tag_486\n        /* \"#utility.yul\":15466:15470   */\n      0x00\n        /* \"#utility.yul\":15461:15464   */\n      dup7\n        /* \"#utility.yul\":15457:15471   */\n      add\n        /* \"#utility.yul\":15443:15455   */\n      dup3\n        /* \"#utility.yul\":15409:15472   */\n      tag_311\n      jump\t// in\n    tag_486:\n        /* \"#utility.yul\":15309:15482   */\n      pop\n        /* \"#utility.yul\":15570:15574   */\n      0x20\n        /* \"#utility.yul\":15563:15568   */\n      dup4\n        /* \"#utility.yul\":15559:15575   */\n      add\n        /* \"#utility.yul\":15553:15576   */\n      mload\n        /* \"#utility.yul\":15589:15652   */\n      tag_487\n        /* \"#utility.yul\":15646:15650   */\n      0x20\n        /* \"#utility.yul\":15641:15644   */\n      dup7\n        /* \"#utility.yul\":15637:15651   */\n      add\n        /* \"#utility.yul\":15623:15635   */\n      dup3\n        /* \"#utility.yul\":15589:15652   */\n      tag_299\n      jump\t// in\n    tag_487:\n        /* \"#utility.yul\":15492:15662   */\n      pop\n        /* \"#utility.yul\":15748:15752   */\n      0x40\n        /* \"#utility.yul\":15741:15746   */\n      dup4\n        /* \"#utility.yul\":15737:15753   */\n      add\n        /* \"#utility.yul\":15731:15754   */\n      mload\n        /* \"#utility.yul\":15767:15824   */\n      tag_488\n        /* \"#utility.yul\":15818:15822   */\n      0x40\n        /* \"#utility.yul\":15813:15816   */\n      dup7\n        /* \"#utility.yul\":15809:15823   */\n      add\n        /* \"#utility.yul\":15795:15807   */\n      dup3\n        /* \"#utility.yul\":15767:15824   */\n      tag_312\n      jump\t// in\n    tag_488:\n        /* \"#utility.yul\":15672:15834   */\n      pop\n        /* \"#utility.yul\":15924:15928   */\n      0x60\n        /* \"#utility.yul\":15917:15922   */\n      dup4\n        /* \"#utility.yul\":15913:15929   */\n      add\n        /* \"#utility.yul\":15907:15930   */\n      mload\n        /* \"#utility.yul\":15977:15980   */\n      dup5\n        /* \"#utility.yul\":15971:15975   */\n      dup3\n        /* \"#utility.yul\":15967:15981   */\n      sub\n        /* \"#utility.yul\":15960:15964   */\n      0x60\n        /* \"#utility.yul\":15955:15958   */\n      dup7\n        /* \"#utility.yul\":15951:15965   */\n      add\n        /* \"#utility.yul\":15944:15982   */\n      mstore\n        /* \"#utility.yul\":16003:16154   */\n      tag_489\n        /* \"#utility.yul\":16149:16153   */\n      dup3\n        /* \"#utility.yul\":16135:16147   */\n      dup3\n        /* \"#utility.yul\":16003:16154   */\n      tag_319\n      jump\t// in\n    tag_489:\n        /* \"#utility.yul\":15995:16154   */\n      swap2\n      pop\n        /* \"#utility.yul\":15844:16165   */\n      pop\n        /* \"#utility.yul\":16182:16186   */\n      dup1\n        /* \"#utility.yul\":16175:16186   */\n      swap2\n      pop\n        /* \"#utility.yul\":15263:16192   */\n      pop\n        /* \"#utility.yul\":15141:16192   */\n      swap3\n      swap2\n      pop\n      pop\n      jump\t// out\n        /* \"#utility.yul\":16198:16567   */\n    tag_104:\n        /* \"#utility.yul\":16339:16343   */\n      0x00\n        /* \"#utility.yul\":16377:16379   */\n      0x20\n        /* \"#utility.yul\":16366:16375   */\n      dup3\n        /* \"#utility.yul\":16362:16380   */\n      add\n        /* \"#utility.yul\":16354:16380   */\n      swap1\n      pop\n        /* \"#utility.yul\":16426:16435   */\n      dup2\n        /* \"#utility.yul\":16420:16424   */\n      dup2\n        /* \"#utility.yul\":16416:16436   */\n      sub\n        /* \"#utility.yul\":16412:16413   */\n      0x00\n        /* \"#utility.yul\":16401:16410   */\n      dup4\n        /* \"#utility.yul\":16397:16414   */\n      add\n        /* \"#utility.yul\":16390:16437   */\n      mstore\n        /* \"#utility.yul\":16454:16560   */\n      tag_491\n        /* \"#utility.yul\":16555:16559   */\n      dup2\n        /* \"#utility.yul\":16546:16552   */\n      dup5\n        /* \"#utility.yul\":16454:16560   */\n      tag_320\n      jump\t// in\n    tag_491:\n        /* \"#utility.yul\":16446:16560   */\n      swap1\n      pop\n        /* \"#utility.yul\":16198:16567   */\n      swap3\n      swap2\n      pop\n      pop\n      jump\t// out\n        /* \"#utility.yul\":16573:16691   */\n    tag_321:\n        /* \"#utility.yul\":16644:16666   */\n      tag_493\n        /* \"#utility.yul\":16660:16665   */\n      dup2\n        /* \"#utility.yul\":16644:16666   */\n      tag_300\n      jump\t// in\n    tag_493:\n        /* \"#utility.yul\":16637:16642   */\n      dup2\n        /* \"#utility.yul\":16634:16667   */\n      eq\n        /* \"#utility.yul\":16624:16685   */\n      tag_494\n      jumpi\n        /* \"#utility.yul\":16681:16682   */\n      0x00\n        /* \"#utility.yul\":16678:16679   */\n      dup1\n        /* \"#utility.yul\":16671:16683   */\n      revert\n        /* \"#utility.yul\":16624:16685   */\n    tag_494:\n        /* \"#utility.yul\":16573:16691   */\n      pop\n      jump\t// out\n        /* \"#utility.yul\":16697:16832   */\n    tag_322:\n        /* \"#utility.yul\":16741:16746   */\n      0x00\n        /* \"#utility.yul\":16779:16785   */\n      dup2\n        /* \"#utility.yul\":16766:16786   */\n      calldataload\n        /* \"#utility.yul\":16757:16786   */\n      swap1\n      pop\n        /* \"#utility.yul\":16795:16826   */\n      tag_496\n        /* \"#utility.yul\":16820:16825   */\n      dup2\n        /* \"#utility.yul\":16795:16826   */\n      tag_321\n      jump\t// in\n    tag_496:\n        /* \"#utility.yul\":16697:16832   */\n      swap3\n      swap2\n      pop\n      pop\n      jump\t// out\n        /* \"#utility.yul\":16838:17163   */\n    tag_112:\n        /* \"#utility.yul\":16895:16901   */\n      0x00\n        /* \"#utility.yul\":16944:16946   */\n      0x20\n        /* \"#utility.yul\":16932:16941   */\n      dup3\n        /* \"#utility.yul\":16923:16930   */\n      dup5\n        /* \"#utility.yul\":16919:16942   */\n      sub\n        /* \"#utility.yul\":16915:16947   */\n      slt\n        /* \"#utility.yul\":16912:17031   */\n      iszero\n      tag_498\n      jumpi\n        /* \"#utility.yul\":16950:17029   */\n      tag_499\n      tag_285\n      jump\t// in\n    tag_499:\n        /* \"#utility.yul\":16912:17031   */\n    tag_498:\n        /* \"#utility.yul\":17070:17071   */\n      0x00\n        /* \"#utility.yul\":17095:17146   */\n      tag_500\n        /* \"#utility.yul\":17138:17145   */\n      dup5\n        /* \"#utility.yul\":17129:17135   */\n      dup3\n        /* \"#utility.yul\":17118:17127   */\n      dup6\n        /* \"#utility.yul\":17114:17136   */\n      add\n        /* \"#utility.yul\":17095:17146   */\n      tag_322\n      jump\t// in\n    tag_500:\n        /* \"#utility.yul\":17085:17146   */\n      swap2\n      pop\n        /* \"#utility.yul\":17041:17156   */\n      pop\n        /* \"#utility.yul\":16838:17163   */\n      swap3\n      swap2\n      pop\n      pop\n      jump\t// out\n        /* \"#utility.yul\":17169:17311   */\n    tag_323:\n        /* \"#utility.yul\":17272:17304   */\n      tag_502\n        /* \"#utility.yul\":17298:17303   */\n      dup2\n        /* \"#utility.yul\":17272:17304   */\n      tag_308\n      jump\t// in\n    tag_502:\n        /* \"#utility.yul\":17267:17270   */\n      dup3\n        /* \"#utility.yul\":17260:17305   */\n      mstore\n        /* \"#utility.yul\":17169:17311   */\n      pop\n      pop\n      jump\t// out\n        /* \"#utility.yul\":17317:17571   */\n    tag_118:\n        /* \"#utility.yul\":17426:17430   */\n      0x00\n        /* \"#utility.yul\":17464:17466   */\n      0x20\n        /* \"#utility.yul\":17453:17462   */\n      dup3\n        /* \"#utility.yul\":17449:17467   */\n      add\n        /* \"#utility.yul\":17441:17467   */\n      swap1\n      pop\n        /* \"#utility.yul\":17477:17564   */\n      tag_504\n        /* \"#utility.yul\":17561:17562   */\n      0x00\n        /* \"#utility.yul\":17550:17559   */\n      dup4\n        /* \"#utility.yul\":17546:17563   */\n      add\n        /* \"#utility.yul\":17537:17543   */\n      dup5\n        /* \"#utility.yul\":17477:17564   */\n      tag_323\n      jump\t// in\n    tag_504:\n        /* \"#utility.yul\":17317:17571   */\n      swap3\n      swap2\n      pop\n      pop\n      jump\t// out\n        /* \"#utility.yul\":17577:18047   */\n    tag_122:\n        /* \"#utility.yul\":17643:17649   */\n      0x00\n        /* \"#utility.yul\":17651:17657   */\n      dup1\n        /* \"#utility.yul\":17700:17702   */\n      0x40\n        /* \"#utility.yul\":17688:17697   */\n      dup4\n        /* \"#utility.yul\":17679:17686   */\n      dup6\n        /* \"#utility.yul\":17675:17698   */\n      sub\n        /* \"#utility.yul\":17671:17703   */\n      slt\n        /* \"#utility.yul\":17668:17787   */\n      iszero\n      tag_506\n      jumpi\n        /* \"#utility.yul\":17706:17785   */\n      tag_507\n      tag_285\n      jump\t// in\n    tag_507:\n        /* \"#utility.yul\":17668:17787   */\n    tag_506:\n        /* \"#utility.yul\":17826:17827   */\n      0x00\n        /* \"#utility.yul\":17851:17902   */\n      tag_508\n        /* \"#utility.yul\":17894:17901   */\n      dup6\n        /* \"#utility.yul\":17885:17891   */\n      dup3\n        /* \"#utility.yul\":17874:17883   */\n      dup7\n        /* \"#utility.yul\":17870:17892   */\n      add\n        /* \"#utility.yul\":17851:17902   */\n      tag_322\n      jump\t// in\n    tag_508:\n        /* \"#utility.yul\":17841:17902   */\n      swap3\n      pop\n        /* \"#utility.yul\":17797:17912   */\n      pop\n        /* \"#utility.yul\":17951:17953   */\n      0x20\n        /* \"#utility.yul\":17977:18030   */\n      tag_509\n        /* \"#utility.yul\":18022:18029   */\n      dup6\n        /* \"#utility.yul\":18013:18019   */\n      dup3\n        /* \"#utility.yul\":18002:18011   */\n      dup7\n        /* \"#utility.yul\":17998:18020   */\n      add\n        /* \"#utility.yul\":17977:18030   */\n      tag_298\n      jump\t// in\n    tag_509:\n        /* \"#utility.yul\":17967:18030   */\n      swap2\n      pop\n        /* \"#utility.yul\":17922:18040   */\n      pop\n        /* \"#utility.yul\":17577:18047   */\n      swap3\n      pop\n      swap3\n      swap1\n      pop\n      jump\t// out\n        /* \"#utility.yul\":18053:18165   */\n    tag_324:\n        /* \"#utility.yul\":18136:18158   */\n      tag_511\n        /* \"#utility.yul\":18152:18157   */\n      dup2\n        /* \"#utility.yul\":18136:18158   */\n      tag_300\n      jump\t// in\n    tag_511:\n        /* \"#utility.yul\":18131:18134   */\n      dup3\n        /* \"#utility.yul\":18124:18159   */\n      mstore\n        /* \"#utility.yul\":18053:18165   */\n      pop\n      pop\n      jump\t// out\n        /* \"#utility.yul\":18171:18385   */\n    tag_128:\n        /* \"#utility.yul\":18260:18264   */\n      0x00\n        /* \"#utility.yul\":18298:18300   */\n      0x20\n        /* \"#utility.yul\":18287:18296   */\n      dup3\n        /* \"#utility.yul\":18283:18301   */\n      add\n        /* \"#utility.yul\":18275:18301   */\n      swap1\n      pop\n        /* \"#utility.yul\":18311:18378   */\n      tag_513\n        /* \"#utility.yul\":18375:18376   */\n      0x00\n        /* \"#utility.yul\":18364:18373   */\n      dup4\n        /* \"#utility.yul\":18360:18377   */\n      add\n        /* \"#utility.yul\":18351:18357   */\n      dup5\n        /* \"#utility.yul\":18311:18378   */\n      tag_324\n      jump\t// in\n    tag_513:\n        /* \"#utility.yul\":18171:18385   */\n      swap3\n      swap2\n      pop\n      pop\n      jump\t// out\n        /* \"#utility.yul\":18391:18859   */\n    tag_144:\n        /* \"#utility.yul\":18456:18462   */\n      0x00\n        /* \"#utility.yul\":18464:18470   */\n      dup1\n        /* \"#utility.yul\":18513:18515   */\n      0x40\n        /* \"#utility.yul\":18501:18510   */\n      dup4\n        /* \"#utility.yul\":18492:18499   */\n      dup6\n        /* \"#utility.yul\":18488:18511   */\n      sub\n        /* \"#utility.yul\":18484:18516   */\n      slt\n        /* \"#utility.yul\":18481:18600   */\n      iszero\n      tag_515\n      jumpi\n        /* \"#utility.yul\":18519:18598   */\n      tag_516\n      tag_285\n      jump\t// in\n    tag_516:\n        /* \"#utility.yul\":18481:18600   */\n    tag_515:\n        /* \"#utility.yul\":18639:18640   */\n      0x00\n        /* \"#utility.yul\":18664:18714   */\n      tag_517\n        /* \"#utility.yul\":18706:18713   */\n      dup6\n        /* \"#utility.yul\":18697:18703   */\n      dup3\n        /* \"#utility.yul\":18686:18695   */\n      dup7\n        /* \"#utility.yul\":18682:18704   */\n      add\n        /* \"#utility.yul\":18664:18714   */\n      tag_289\n      jump\t// in\n    tag_517:\n        /* \"#utility.yul\":18654:18714   */\n      swap3\n      pop\n        /* \"#utility.yul\":18610:18724   */\n      pop\n        /* \"#utility.yul\":18763:18765   */\n      0x20\n        /* \"#utility.yul\":18789:18842   */\n      tag_518\n        /* \"#utility.yul\":18834:18841   */\n      dup6\n        /* \"#utility.yul\":18825:18831   */\n      dup3\n        /* \"#utility.yul\":18814:18823   */\n      dup7\n        /* \"#utility.yul\":18810:18832   */\n      add\n        /* \"#utility.yul\":18789:18842   */\n      tag_298\n      jump\t// in\n    tag_518:\n        /* \"#utility.yul\":18779:18842   */\n      swap2\n      pop\n        /* \"#utility.yul\":18734:18852   */\n      pop\n        /* \"#utility.yul\":18391:18859   */\n      swap3\n      pop\n      swap3\n      swap1\n      pop\n      jump\t// out\n        /* \"#utility.yul\":18865:19030   */\n    tag_325:\n        /* \"#utility.yul\":19005:19022   */\n      0x436f6e7472616374205061757365640000000000000000000000000000000000\n        /* \"#utility.yul\":19001:19002   */\n      0x00\n        /* \"#utility.yul\":18993:18999   */\n      dup3\n        /* \"#utility.yul\":18989:19003   */\n      add\n        /* \"#utility.yul\":18982:19023   */\n      mstore\n        /* \"#utility.yul\":18865:19030   */\n      pop\n      jump\t// out\n        /* \"#utility.yul\":19036:19402   */\n    tag_326:\n        /* \"#utility.yul\":19178:19181   */\n      0x00\n        /* \"#utility.yul\":19199:19266   */\n      tag_521\n        /* \"#utility.yul\":19263:19265   */\n      0x0f\n        /* \"#utility.yul\":19258:19261   */\n      dup4\n        /* \"#utility.yul\":19199:19266   */\n      tag_274\n      jump\t// in\n    tag_521:\n        /* \"#utility.yul\":19192:19266   */\n      swap2\n      pop\n        /* \"#utility.yul\":19275:19368   */\n      tag_522\n        /* \"#utility.yul\":19364:19367   */\n      dup3\n        /* \"#utility.yul\":19275:19368   */\n      tag_325\n      jump\t// in\n    tag_522:\n        /* \"#utility.yul\":19393:19395   */\n      0x20\n        /* \"#utility.yul\":19388:19391   */\n      dup3\n        /* \"#utility.yul\":19384:19396   */\n      add\n        /* \"#utility.yul\":19377:19396   */\n      swap1\n      pop\n        /* \"#utility.yul\":19036:19402   */\n      swap2\n      swap1\n      pop\n      jump\t// out\n        /* \"#utility.yul\":19408:19827   */\n    tag_164:\n        /* \"#utility.yul\":19574:19578   */\n      0x00\n        /* \"#utility.yul\":19612:19614   */\n      0x20\n        /* \"#utility.yul\":19601:19610   */\n      dup3\n        /* \"#utility.yul\":19597:19615   */\n      add\n        /* \"#utility.yul\":19589:19615   */\n      swap1\n      pop\n        /* \"#utility.yul\":19661:19670   */\n      dup2\n        /* \"#utility.yul\":19655:19659   */\n      dup2\n        /* \"#utility.yul\":19651:19671   */\n      sub\n        /* \"#utility.yul\":19647:19648   */\n      0x00\n        /* \"#utility.yul\":19636:19645   */\n      dup4\n        /* \"#utility.yul\":19632:19649   */\n      add\n        /* \"#utility.yul\":19625:19672   */\n      mstore\n        /* \"#utility.yul\":19689:19820   */\n      tag_524\n        /* \"#utility.yul\":19815:19819   */\n      dup2\n        /* \"#utility.yul\":19689:19820   */\n      tag_326\n      jump\t// in\n    tag_524:\n        /* \"#utility.yul\":19681:19820   */\n      swap1\n      pop\n        /* \"#utility.yul\":19408:19827   */\n      swap2\n      swap1\n      pop\n      jump\t// out\n        /* \"#utility.yul\":19833:20005   */\n    tag_327:\n        /* \"#utility.yul\":19973:19997   */\n      0x4e6f205265656e7472616e63792c706c73207761697400000000000000000000\n        /* \"#utility.yul\":19969:19970   */\n      0x00\n        /* \"#utility.yul\":19961:19967   */\n      dup3\n        /* \"#utility.yul\":19957:19971   */\n      add\n        /* \"#utility.yul\":19950:19998   */\n      mstore\n        /* \"#utility.yul\":19833:20005   */\n      pop\n      jump\t// out\n        /* \"#utility.yul\":20011:20377   */\n    tag_328:\n        /* \"#utility.yul\":20153:20156   */\n      0x00\n        /* \"#utility.yul\":20174:20241   */\n      tag_527\n        /* \"#utility.yul\":20238:20240   */\n      0x16\n        /* \"#utility.yul\":20233:20236   */\n      dup4\n        /* \"#utility.yul\":20174:20241   */\n      tag_274\n      jump\t// in\n    tag_527:\n        /* \"#utility.yul\":20167:20241   */\n      swap2\n      pop\n        /* \"#utility.yul\":20250:20343   */\n      tag_528\n        /* \"#utility.yul\":20339:20342   */\n      dup3\n        /* \"#utility.yul\":20250:20343   */\n      tag_327\n      jump\t// in\n    tag_528:\n        /* \"#utility.yul\":20368:20370   */\n      0x20\n        /* \"#utility.yul\":20363:20366   */\n      dup3\n        /* \"#utility.yul\":20359:20371   */\n      add\n        /* \"#utility.yul\":20352:20371   */\n      swap1\n      pop\n        /* \"#utility.yul\":20011:20377   */\n      swap2\n      swap1\n      pop\n      jump\t// out\n        /* \"#utility.yul\":20383:20802   */\n    tag_168:\n        /* \"#utility.yul\":20549:20553   */\n      0x00\n        /* \"#utility.yul\":20587:20589   */\n      0x20\n        /* \"#utility.yul\":20576:20585   */\n      dup3\n        /* \"#utility.yul\":20572:20590   */\n      add\n        /* \"#utility.yul\":20564:20590   */\n      swap1\n      pop\n        /* \"#utility.yul\":20636:20645   */\n      dup2\n        /* \"#utility.yul\":20630:20634   */\n      dup2\n        /* \"#utility.yul\":20626:20646   */\n      sub\n        /* \"#utility.yul\":20622:20623   */\n      0x00\n        /* \"#utility.yul\":20611:20620   */\n      dup4\n        /* \"#utility.yul\":20607:20624   */\n      add\n        /* \"#utility.yul\":20600:20647   */\n      mstore\n        /* \"#utility.yul\":20664:20795   */\n      tag_530\n        /* \"#utility.yul\":20790:20794   */\n      dup2\n        /* \"#utility.yul\":20664:20795   */\n      tag_328\n      jump\t// in\n    tag_530:\n        /* \"#utility.yul\":20656:20795   */\n      swap1\n      pop\n        /* \"#utility.yul\":20383:20802   */\n      swap2\n      swap1\n      pop\n      jump\t// out\n        /* \"#utility.yul\":20808:20988   */\n    tag_329:\n        /* \"#utility.yul\":20856:20933   */\n      0x4e487b7100000000000000000000000000000000000000000000000000000000\n        /* \"#utility.yul\":20853:20854   */\n      0x00\n        /* \"#utility.yul\":20846:20934   */\n      mstore\n        /* \"#utility.yul\":20953:20957   */\n      0x11\n        /* \"#utility.yul\":20950:20951   */\n      0x04\n        /* \"#utility.yul\":20943:20958   */\n      mstore\n        /* \"#utility.yul\":20977:20981   */\n      0x24\n        /* \"#utility.yul\":20974:20975   */\n      0x00\n        /* \"#utility.yul\":20967:20982   */\n      revert\n        /* \"#utility.yul\":20994:21227   */\n    tag_172:\n        /* \"#utility.yul\":21033:21036   */\n      0x00\n        /* \"#utility.yul\":21056:21080   */\n      tag_533\n        /* \"#utility.yul\":21074:21079   */\n      dup3\n        /* \"#utility.yul\":21056:21080   */\n      tag_296\n      jump\t// in\n    tag_533:\n        /* \"#utility.yul\":21047:21080   */\n      swap2\n      pop\n        /* \"#utility.yul\":21102:21168   */\n      0xffffffffffffffffffffffffffffffffffffffffffffffffffffffffffffffff\n        /* \"#utility.yul\":21095:21100   */\n      dup3\n        /* \"#utility.yul\":21092:21169   */\n      sub\n        /* \"#utility.yul\":21089:21192   */\n      tag_534\n      jumpi\n        /* \"#utility.yul\":21172:21190   */\n      tag_535\n      tag_329\n      jump\t// in\n    tag_535:\n        /* \"#utility.yul\":21089:21192   */\n    tag_534:\n        /* \"#utility.yul\":21219:21220   */\n      0x01\n        /* \"#utility.yul\":21212:21217   */\n      dup3\n        /* \"#utility.yul\":21208:21221   */\n      add\n        /* \"#utility.yul\":21201:21221   */\n      swap1\n      pop\n        /* \"#utility.yul\":20994:21227   */\n      swap2\n      swap1\n      pop\n      jump\t// out\n        /* \"#utility.yul\":21233:21396   */\n    tag_330:\n        /* \"#utility.yul\":21373:21388   */\n      0x6e6f206f66666572206d6f726500000000000000000000000000000000000000\n        /* \"#utility.yul\":21369:21370   */\n      0x00\n        /* \"#utility.yul\":21361:21367   */\n      dup3\n        /* \"#utility.yul\":21357:21371   */\n      add\n        /* \"#utility.yul\":21350:21389   */\n      mstore\n        /* \"#utility.yul\":21233:21396   */\n      pop\n      jump\t// out\n        /* \"#utility.yul\":21402:21768   */\n    tag_331:\n        /* \"#utility.yul\":21544:21547   */\n      0x00\n        /* \"#utility.yul\":21565:21632   */\n      tag_538\n        /* \"#utility.yul\":21629:21631   */\n      0x0d\n        /* \"#utility.yul\":21624:21627   */\n      dup4\n        /* \"#utility.yul\":21565:21632   */\n      tag_274\n      jump\t// in\n    tag_538:\n        /* \"#utility.yul\":21558:21632   */\n      swap2\n      pop\n        /* \"#utility.yul\":21641:21734   */\n      tag_539\n        /* \"#utility.yul\":21730:21733   */\n      dup3\n        /* \"#utility.yul\":21641:21734   */\n      tag_330\n      jump\t// in\n    tag_539:\n        /* \"#utility.yul\":21759:21761   */\n      0x20\n        /* \"#utility.yul\":21754:21757   */\n      dup3\n        /* \"#utility.yul\":21750:21762   */\n      add\n        /* \"#utility.yul\":21743:21762   */\n      swap1\n      pop\n        /* \"#utility.yul\":21402:21768   */\n      swap2\n      swap1\n      pop\n      jump\t// out\n        /* \"#utility.yul\":21774:22193   */\n    tag_178:\n        /* \"#utility.yul\":21940:21944   */\n      0x00\n        /* \"#utility.yul\":21978:21980   */\n      0x20\n        /* \"#utility.yul\":21967:21976   */\n      dup3\n        /* \"#utility.yul\":21963:21981   */\n      add\n        /* \"#utility.yul\":21955:21981   */\n      swap1\n      pop\n        /* \"#utility.yul\":22027:22036   */\n      dup2\n        /* \"#utility.yul\":22021:22025   */\n      dup2\n        /* \"#utility.yul\":22017:22037   */\n      sub\n        /* \"#utility.yul\":22013:22014   */\n      0x00\n        /* \"#utility.yul\":22002:22011   */\n      dup4\n        /* \"#utility.yul\":21998:22015   */\n      add\n        /* \"#utility.yul\":21991:22038   */\n      mstore\n        /* \"#utility.yul\":22055:22186   */\n      tag_541\n        /* \"#utility.yul\":22181:22185   */\n      dup2\n        /* \"#utility.yul\":22055:22186   */\n      tag_331\n      jump\t// in\n    tag_541:\n        /* \"#utility.yul\":22047:22186   */\n      swap1\n      pop\n        /* \"#utility.yul\":21774:22193   */\n      swap2\n      swap1\n      pop\n      jump\t// out\n        /* \"#utility.yul\":22199:22390   */\n    tag_183:\n        /* \"#utility.yul\":22239:22242   */\n      0x00\n        /* \"#utility.yul\":22258:22278   */\n      tag_543\n        /* \"#utility.yul\":22276:22277   */\n      dup3\n        /* \"#utility.yul\":22258:22278   */\n      tag_296\n      jump\t// in\n    tag_543:\n        /* \"#utility.yul\":22253:22278   */\n      swap2\n      pop\n        /* \"#utility.yul\":22292:22312   */\n      tag_544\n        /* \"#utility.yul\":22310:22311   */\n      dup4\n        /* \"#utility.yul\":22292:22312   */\n      tag_296\n      jump\t// in\n    tag_544:\n        /* \"#utility.yul\":22287:22312   */\n      swap3\n      pop\n        /* \"#utility.yul\":22335:22336   */\n      dup3\n        /* \"#utility.yul\":22332:22333   */\n      dup3\n        /* \"#utility.yul\":22328:22337   */\n      add\n        /* \"#utility.yul\":22321:22337   */\n      swap1\n      pop\n        /* \"#utility.yul\":22356:22359   */\n      dup1\n        /* \"#utility.yul\":22353:22354   */\n      dup3\n        /* \"#utility.yul\":22350:22360   */\n      gt\n        /* \"#utility.yul\":22347:22383   */\n      iszero\n      tag_545\n      jumpi\n        /* \"#utility.yul\":22363:22381   */\n      tag_546\n      tag_329\n      jump\t// in\n    tag_546:\n        /* \"#utility.yul\":22347:22383   */\n    tag_545:\n        /* \"#utility.yul\":22199:22390   */\n      swap3\n      swap2\n      pop\n      pop\n      jump\t// out\n        /* \"#utility.yul\":22396:22576   */\n    tag_191:\n        /* \"#utility.yul\":22444:22521   */\n      0x4e487b7100000000000000000000000000000000000000000000000000000000\n        /* \"#utility.yul\":22441:22442   */\n      0x00\n        /* \"#utility.yul\":22434:22522   */\n      mstore\n        /* \"#utility.yul\":22541:22545   */\n      0x32\n        /* \"#utility.yul\":22538:22539   */\n      0x04\n        /* \"#utility.yul\":22531:22546   */\n      mstore\n        /* \"#utility.yul\":22565:22569   */\n      0x24\n        /* \"#utility.yul\":22562:22563   */\n      0x00\n        /* \"#utility.yul\":22555:22570   */\n      revert\n        /* \"#utility.yul\":22582:22742   */\n    tag_332:\n        /* \"#utility.yul\":22722:22734   */\n      0x4f6e6c79206f776e657200000000000000000000000000000000000000000000\n        /* \"#utility.yul\":22718:22719   */\n      0x00\n        /* \"#utility.yul\":22710:22716   */\n      dup3\n        /* \"#utility.yul\":22706:22720   */\n      add\n        /* \"#utility.yul\":22699:22735   */\n      mstore\n        /* \"#utility.yul\":22582:22742   */\n      pop\n      jump\t// out\n        /* \"#utility.yul\":22748:23114   */\n    tag_333:\n        /* \"#utility.yul\":22890:22893   */\n      0x00\n        /* \"#utility.yul\":22911:22978   */\n      tag_550\n        /* \"#utility.yul\":22975:22977   */\n      0x0a\n        /* \"#utility.yul\":22970:22973   */\n      dup4\n        /* \"#utility.yul\":22911:22978   */\n      tag_274\n      jump\t// in\n    tag_550:\n        /* \"#utility.yul\":22904:22978   */\n      swap2\n      pop\n        /* \"#utility.yul\":22987:23080   */\n      tag_551\n        /* \"#utility.yul\":23076:23079   */\n      dup3\n        /* \"#utility.yul\":22987:23080   */\n      tag_332\n      jump\t// in\n    tag_551:\n        /* \"#utility.yul\":23105:23107   */\n      0x20\n        /* \"#utility.yul\":23100:23103   */\n      dup3\n        /* \"#utility.yul\":23096:23108   */\n      add\n        /* \"#utility.yul\":23089:23108   */\n      swap1\n      pop\n        /* \"#utility.yul\":22748:23114   */\n      swap2\n      swap1\n      pop\n      jump\t// out\n        /* \"#utility.yul\":23120:23539   */\n    tag_198:\n        /* \"#utility.yul\":23286:23290   */\n      0x00\n        /* \"#utility.yul\":23324:23326   */\n      0x20\n        /* \"#utility.yul\":23313:23322   */\n      dup3\n        /* \"#utility.yul\":23309:23327   */\n      add\n        /* \"#utility.yul\":23301:23327   */\n      swap1\n      pop\n        /* \"#utility.yul\":23373:23382   */\n      dup2\n        /* \"#utility.yul\":23367:23371   */\n      dup2\n        /* \"#utility.yul\":23363:23383   */\n      sub\n        /* \"#utility.yul\":23359:23360   */\n      0x00\n        /* \"#utility.yul\":23348:23357   */\n      dup4\n        /* \"#utility.yul\":23344:23361   */\n      add\n        /* \"#utility.yul\":23337:23384   */\n      mstore\n        /* \"#utility.yul\":23401:23532   */\n      tag_553\n        /* \"#utility.yul\":23527:23531   */\n      dup2\n        /* \"#utility.yul\":23401:23532   */\n      tag_333\n      jump\t// in\n    tag_553:\n        /* \"#utility.yul\":23393:23532   */\n      swap1\n      pop\n        /* \"#utility.yul\":23120:23539   */\n      swap2\n      swap1\n      pop\n      jump\t// out\n        /* \"#utility.yul\":23545:23662   */\n    tag_334:\n        /* \"#utility.yul\":23654:23655   */\n      0x00\n        /* \"#utility.yul\":23651:23652   */\n      dup1\n        /* \"#utility.yul\":23644:23656   */\n      revert\n        /* \"#utility.yul\":23668:23785   */\n    tag_335:\n        /* \"#utility.yul\":23777:23778   */\n      0x00\n        /* \"#utility.yul\":23774:23775   */\n      dup1\n        /* \"#utility.yul\":23767:23779   */\n      revert\n        /* \"#utility.yul\":23791:23971   */\n    tag_336:\n        /* \"#utility.yul\":23839:23916   */\n      0x4e487b7100000000000000000000000000000000000000000000000000000000\n        /* \"#utility.yul\":23836:23837   */\n      0x00\n        /* \"#utility.yul\":23829:23917   */\n      mstore\n        /* \"#utility.yul\":23936:23940   */\n      0x41\n        /* \"#utility.yul\":23933:23934   */\n      0x04\n        /* \"#utility.yul\":23926:23941   */\n      mstore\n        /* \"#utility.yul\":23960:23964   */\n      0x24\n        /* \"#utility.yul\":23957:23958   */\n      0x00\n        /* \"#utility.yul\":23950:23965   */\n      revert\n        /* \"#utility.yul\":23977:24258   */\n    tag_337:\n        /* \"#utility.yul\":24060:24087   */\n      tag_558\n        /* \"#utility.yul\":24082:24086   */\n      dup3\n        /* \"#utility.yul\":24060:24087   */\n      tag_306\n      jump\t// in\n    tag_558:\n        /* \"#utility.yul\":24052:24058   */\n      dup2\n        /* \"#utility.yul\":24048:24088   */\n      add\n        /* \"#utility.yul\":24190:24196   */\n      dup2\n        /* \"#utility.yul\":24178:24188   */\n      dup2\n        /* \"#utility.yul\":24175:24197   */\n      lt\n        /* \"#utility.yul\":24154:24172   */\n      0xffffffffffffffff\n        /* \"#utility.yul\":24142:24152   */\n      dup3\n        /* \"#utility.yul\":24139:24173   */\n      gt\n        /* \"#utility.yul\":24136:24198   */\n      or\n        /* \"#utility.yul\":24133:24221   */\n      iszero\n      tag_559\n      jumpi\n        /* \"#utility.yul\":24201:24219   */\n      tag_560\n      tag_336\n      jump\t// in\n    tag_560:\n        /* \"#utility.yul\":24133:24221   */\n    tag_559:\n        /* \"#utility.yul\":24241:24251   */\n      dup1\n        /* \"#utility.yul\":24237:24239   */\n      0x40\n        /* \"#utility.yul\":24230:24252   */\n      mstore\n        /* \"#utility.yul\":24020:24258   */\n      pop\n        /* \"#utility.yul\":23977:24258   */\n      pop\n      pop\n      jump\t// out\n        /* \"#utility.yul\":24264:24393   */\n    tag_338:\n        /* \"#utility.yul\":24298:24304   */\n      0x00\n        /* \"#utility.yul\":24325:24345   */\n      tag_562\n      tag_284\n      jump\t// in\n    tag_562:\n        /* \"#utility.yul\":24315:24345   */\n      swap1\n      pop\n        /* \"#utility.yul\":24354:24387   */\n      tag_563\n        /* \"#utility.yul\":24382:24386   */\n      dup3\n        /* \"#utility.yul\":24374:24380   */\n      dup3\n        /* \"#utility.yul\":24354:24387   */\n      tag_337\n      jump\t// in\n    tag_563:\n        /* \"#utility.yul\":24264:24393   */\n      swap2\n      swap1\n      pop\n      jump\t// out\n        /* \"#utility.yul\":24399:24707   */\n    tag_339:\n        /* \"#utility.yul\":24461:24465   */\n      0x00\n        /* \"#utility.yul\":24551:24569   */\n      0xffffffffffffffff\n        /* \"#utility.yul\":24543:24549   */\n      dup3\n        /* \"#utility.yul\":24540:24570   */\n      gt\n        /* \"#utility.yul\":24537:24593   */\n      iszero\n      tag_565\n      jumpi\n        /* \"#utility.yul\":24573:24591   */\n      tag_566\n      tag_336\n      jump\t// in\n    tag_566:\n        /* \"#utility.yul\":24537:24593   */\n    tag_565:\n        /* \"#utility.yul\":24611:24640   */\n      tag_567\n        /* \"#utility.yul\":24633:24639   */\n      dup3\n        /* \"#utility.yul\":24611:24640   */\n      tag_306\n      jump\t// in\n    tag_567:\n        /* \"#utility.yul\":24603:24640   */\n      swap1\n      pop\n        /* \"#utility.yul\":24695:24699   */\n      0x20\n        /* \"#utility.yul\":24689:24693   */\n      dup2\n        /* \"#utility.yul\":24685:24700   */\n      add\n        /* \"#utility.yul\":24677:24700   */\n      swap1\n      pop\n        /* \"#utility.yul\":24399:24707   */\n      swap2\n      swap1\n      pop\n      jump\t// out\n        /* \"#utility.yul\":24713:25147   */\n    tag_340:\n        /* \"#utility.yul\":24802:24807   */\n      0x00\n        /* \"#utility.yul\":24827:24893   */\n      tag_569\n        /* \"#utility.yul\":24843:24892   */\n      tag_570\n        /* \"#utility.yul\":24885:24891   */\n      dup5\n        /* \"#utility.yul\":24843:24892   */\n      tag_339\n      jump\t// in\n    tag_570:\n        /* \"#utility.yul\":24827:24893   */\n      tag_338\n      jump\t// in\n    tag_569:\n        /* \"#utility.yul\":24818:24893   */\n      swap1\n      pop\n        /* \"#utility.yul\":24916:24922   */\n      dup3\n        /* \"#utility.yul\":24909:24914   */\n      dup2\n        /* \"#utility.yul\":24902:24923   */\n      mstore\n        /* \"#utility.yul\":24954:24958   */\n      0x20\n        /* \"#utility.yul\":24947:24952   */\n      dup2\n        /* \"#utility.yul\":24943:24959   */\n      add\n        /* \"#utility.yul\":24992:24995   */\n      dup5\n        /* \"#utility.yul\":24983:24989   */\n      dup5\n        /* \"#utility.yul\":24978:24981   */\n      dup5\n        /* \"#utility.yul\":24974:24990   */\n      add\n        /* \"#utility.yul\":24971:24996   */\n      gt\n        /* \"#utility.yul\":24968:25080   */\n      iszero\n      tag_571\n      jumpi\n        /* \"#utility.yul\":24999:25078   */\n      tag_572\n      tag_335\n      jump\t// in\n    tag_572:\n        /* \"#utility.yul\":24968:25080   */\n    tag_571:\n        /* \"#utility.yul\":25089:25141   */\n      tag_573\n        /* \"#utility.yul\":25134:25140   */\n      dup5\n        /* \"#utility.yul\":25129:25132   */\n      dup3\n        /* \"#utility.yul\":25124:25127   */\n      dup6\n        /* \"#utility.yul\":25089:25141   */\n      tag_305\n      jump\t// in\n    tag_573:\n        /* \"#utility.yul\":24808:25147   */\n      pop\n        /* \"#utility.yul\":24713:25147   */\n      swap4\n      swap3\n      pop\n      pop\n      pop\n      jump\t// out\n        /* \"#utility.yul\":25167:25522   */\n    tag_341:\n        /* \"#utility.yul\":25234:25239   */\n      0x00\n        /* \"#utility.yul\":25283:25286   */\n      dup3\n        /* \"#utility.yul\":25276:25280   */\n      0x1f\n        /* \"#utility.yul\":25268:25274   */\n      dup4\n        /* \"#utility.yul\":25264:25281   */\n      add\n        /* \"#utility.yul\":25260:25287   */\n      slt\n        /* \"#utility.yul\":25250:25372   */\n      tag_575\n      jumpi\n        /* \"#utility.yul\":25291:25370   */\n      tag_576\n      tag_334\n      jump\t// in\n    tag_576:\n        /* \"#utility.yul\":25250:25372   */\n    tag_575:\n        /* \"#utility.yul\":25401:25407   */\n      dup2\n        /* \"#utility.yul\":25395:25408   */\n      mload\n        /* \"#utility.yul\":25426:25516   */\n      tag_577\n        /* \"#utility.yul\":25512:25515   */\n      dup5\n        /* \"#utility.yul\":25504:25510   */\n      dup3\n        /* \"#utility.yul\":25497:25501   */\n      0x20\n        /* \"#utility.yul\":25489:25495   */\n      dup7\n        /* \"#utility.yul\":25485:25502   */\n      add\n        /* \"#utility.yul\":25426:25516   */\n      tag_340\n      jump\t// in\n    tag_577:\n        /* \"#utility.yul\":25417:25516   */\n      swap2\n      pop\n        /* \"#utility.yul\":25240:25522   */\n      pop\n        /* \"#utility.yul\":25167:25522   */\n      swap3\n      swap2\n      pop\n      pop\n      jump\t// out\n        /* \"#utility.yul\":25528:26052   */\n    tag_210:\n        /* \"#utility.yul\":25608:25614   */\n      0x00\n        /* \"#utility.yul\":25657:25659   */\n      0x20\n        /* \"#utility.yul\":25645:25654   */\n      dup3\n        /* \"#utility.yul\":25636:25643   */\n      dup5\n        /* \"#utility.yul\":25632:25655   */\n      sub\n        /* \"#utility.yul\":25628:25660   */\n      slt\n        /* \"#utility.yul\":25625:25744   */\n      iszero\n      tag_579\n      jumpi\n        /* \"#utility.yul\":25663:25742   */\n      tag_580\n      tag_285\n      jump\t// in\n    tag_580:\n        /* \"#utility.yul\":25625:25744   */\n    tag_579:\n        /* \"#utility.yul\":25804:25805   */\n      0x00\n        /* \"#utility.yul\":25793:25802   */\n      dup3\n        /* \"#utility.yul\":25789:25806   */\n      add\n        /* \"#utility.yul\":25783:25807   */\n      mload\n        /* \"#utility.yul\":25834:25852   */\n      0xffffffffffffffff\n        /* \"#utility.yul\":25826:25832   */\n      dup2\n        /* \"#utility.yul\":25823:25853   */\n      gt\n        /* \"#utility.yul\":25820:25937   */\n      iszero\n      tag_581\n      jumpi\n        /* \"#utility.yul\":25856:25935   */\n      tag_582\n      tag_286\n      jump\t// in\n    tag_582:\n        /* \"#utility.yul\":25820:25937   */\n    tag_581:\n        /* \"#utility.yul\":25961:26035   */\n      tag_583\n        /* \"#utility.yul\":26027:26034   */\n      dup5\n        /* \"#utility.yul\":26018:26024   */\n      dup3\n        /* \"#utility.yul\":26007:26016   */\n      dup6\n        /* \"#utility.yul\":26003:26025   */\n      add\n        /* \"#utility.yul\":25961:26035   */\n      tag_341\n      jump\t// in\n    tag_583:\n        /* \"#utility.yul\":25951:26035   */\n      swap2\n      pop\n        /* \"#utility.yul\":25754:26045   */\n      pop\n        /* \"#utility.yul\":25528:26052   */\n      swap3\n      swap2\n      pop\n      pop\n      jump\t// out\n        /* \"#utility.yul\":26058:26235   */\n    tag_342:\n        /* \"#utility.yul\":26198:26227   */\n      0x6d696e2073686f756c64206265206d6f7265207468616e207461780000000000\n        /* \"#utility.yul\":26194:26195   */\n      0x00\n        /* \"#utility.yul\":26186:26192   */\n      dup3\n        /* \"#utility.yul\":26182:26196   */\n      add\n        /* \"#utility.yul\":26175:26228   */\n      mstore\n        /* \"#utility.yul\":26058:26235   */\n      pop\n      jump\t// out\n        /* \"#utility.yul\":26241:26607   */\n    tag_343:\n        /* \"#utility.yul\":26383:26386   */\n      0x00\n        /* \"#utility.yul\":26404:26471   */\n      tag_586\n        /* \"#utility.yul\":26468:26470   */\n      0x1b\n        /* \"#utility.yul\":26463:26466   */\n      dup4\n        /* \"#utility.yul\":26404:26471   */\n      tag_274\n      jump\t// in\n    tag_586:\n        /* \"#utility.yul\":26397:26471   */\n      swap2\n      pop\n        /* \"#utility.yul\":26480:26573   */\n      tag_587\n        /* \"#utility.yul\":26569:26572   */\n      dup3\n        /* \"#utility.yul\":26480:26573   */\n      tag_342\n      jump\t// in\n    tag_587:\n        /* \"#utility.yul\":26598:26600   */\n      0x20\n        /* \"#utility.yul\":26593:26596   */\n      dup3\n        /* \"#utility.yul\":26589:26601   */\n      add\n        /* \"#utility.yul\":26582:26601   */\n      swap1\n      pop\n        /* \"#utility.yul\":26241:26607   */\n      swap2\n      swap1\n      pop\n      jump\t// out\n        /* \"#utility.yul\":26613:27032   */\n    tag_240:\n        /* \"#utility.yul\":26779:26783   */\n      0x00\n        /* \"#utility.yul\":26817:26819   */\n      0x20\n        /* \"#utility.yul\":26806:26815   */\n      dup3\n        /* \"#utility.yul\":26802:26820   */\n      add\n        /* \"#utility.yul\":26794:26820   */\n      swap1\n      pop\n        /* \"#utility.yul\":26866:26875   */\n      dup2\n        /* \"#utility.yul\":26860:26864   */\n      dup2\n        /* \"#utility.yul\":26856:26876   */\n      sub\n        /* \"#utility.yul\":26852:26853   */\n      0x00\n        /* \"#utility.yul\":26841:26850   */\n      dup4\n        /* \"#utility.yul\":26837:26854   */\n      add\n        /* \"#utility.yul\":26830:26877   */\n      mstore\n        /* \"#utility.yul\":26894:27025   */\n      tag_589\n        /* \"#utility.yul\":27020:27024   */\n      dup2\n        /* \"#utility.yul\":26894:27025   */\n      tag_343\n      jump\t// in\n    tag_589:\n        /* \"#utility.yul\":26886:27025   */\n      swap1\n      pop\n        /* \"#utility.yul\":26613:27032   */\n      swap2\n      swap1\n      pop\n      jump\t// out\n        /* \"#utility.yul\":27038:27181   */\n    tag_344:\n        /* \"#utility.yul\":27095:27100   */\n      0x00\n        /* \"#utility.yul\":27126:27132   */\n      dup2\n        /* \"#utility.yul\":27120:27133   */\n      mload\n        /* \"#utility.yul\":27111:27133   */\n      swap1\n      pop\n        /* \"#utility.yul\":27142:27175   */\n      tag_591\n        /* \"#utility.yul\":27169:27174   */\n      dup2\n        /* \"#utility.yul\":27142:27175   */\n      tag_297\n      jump\t// in\n    tag_591:\n        /* \"#utility.yul\":27038:27181   */\n      swap3\n      swap2\n      pop\n      pop\n      jump\t// out\n        /* \"#utility.yul\":27187:27538   */\n    tag_245:\n        /* \"#utility.yul\":27257:27263   */\n      0x00\n        /* \"#utility.yul\":27306:27308   */\n      0x20\n        /* \"#utility.yul\":27294:27303   */\n      dup3\n        /* \"#utility.yul\":27285:27292   */\n      dup5\n        /* \"#utility.yul\":27281:27304   */\n      sub\n        /* \"#utility.yul\":27277:27309   */\n      slt\n        /* \"#utility.yul\":27274:27393   */\n      iszero\n      tag_593\n      jumpi\n        /* \"#utility.yul\":27312:27391   */\n      tag_594\n      tag_285\n      jump\t// in\n    tag_594:\n        /* \"#utility.yul\":27274:27393   */\n    tag_593:\n        /* \"#utility.yul\":27432:27433   */\n      0x00\n        /* \"#utility.yul\":27457:27521   */\n      tag_595\n        /* \"#utility.yul\":27513:27520   */\n      dup5\n        /* \"#utility.yul\":27504:27510   */\n      dup3\n        /* \"#utility.yul\":27493:27502   */\n      dup6\n        /* \"#utility.yul\":27489:27511   */\n      add\n        /* \"#utility.yul\":27457:27521   */\n      tag_344\n      jump\t// in\n    tag_595:\n        /* \"#utility.yul\":27447:27521   */\n      swap2\n      pop\n        /* \"#utility.yul\":27403:27531   */\n      pop\n        /* \"#utility.yul\":27187:27538   */\n      swap3\n      swap2\n      pop\n      pop\n      jump\t// out\n        /* \"#utility.yul\":27544:27954   */\n    tag_248:\n        /* \"#utility.yul\":27584:27591   */\n      0x00\n        /* \"#utility.yul\":27607:27627   */\n      tag_597\n        /* \"#utility.yul\":27625:27626   */\n      dup3\n        /* \"#utility.yul\":27607:27627   */\n      tag_296\n      jump\t// in\n    tag_597:\n        /* \"#utility.yul\":27602:27627   */\n      swap2\n      pop\n        /* \"#utility.yul\":27641:27661   */\n      tag_598\n        /* \"#utility.yul\":27659:27660   */\n      dup4\n        /* \"#utility.yul\":27641:27661   */\n      tag_296\n      jump\t// in\n    tag_598:\n        /* \"#utility.yul\":27636:27661   */\n      swap3\n      pop\n        /* \"#utility.yul\":27696:27697   */\n      dup3\n        /* \"#utility.yul\":27693:27694   */\n      dup3\n        /* \"#utility.yul\":27689:27698   */\n      mul\n        /* \"#utility.yul\":27718:27748   */\n      tag_599\n        /* \"#utility.yul\":27736:27747   */\n      dup2\n        /* \"#utility.yul\":27718:27748   */\n      tag_296\n      jump\t// in\n    tag_599:\n        /* \"#utility.yul\":27707:27748   */\n      swap2\n      pop\n        /* \"#utility.yul\":27897:27898   */\n      dup3\n        /* \"#utility.yul\":27888:27895   */\n      dup3\n        /* \"#utility.yul\":27884:27899   */\n      div\n        /* \"#utility.yul\":27881:27882   */\n      dup5\n        /* \"#utility.yul\":27878:27900   */\n      eq\n        /* \"#utility.yul\":27858:27859   */\n      dup4\n        /* \"#utility.yul\":27851:27860   */\n      iszero\n        /* \"#utility.yul\":27831:27914   */\n      or\n        /* \"#utility.yul\":27808:27947   */\n      tag_600\n      jumpi\n        /* \"#utility.yul\":27927:27945   */\n      tag_601\n      tag_329\n      jump\t// in\n    tag_601:\n        /* \"#utility.yul\":27808:27947   */\n    tag_600:\n        /* \"#utility.yul\":27592:27954   */\n      pop\n        /* \"#utility.yul\":27544:27954   */\n      swap3\n      swap2\n      pop\n      pop\n      jump\t// out\n        /* \"#utility.yul\":27960:28140   */\n    tag_345:\n        /* \"#utility.yul\":28008:28085   */\n      0x4e487b7100000000000000000000000000000000000000000000000000000000\n        /* \"#utility.yul\":28005:28006   */\n      0x00\n        /* \"#utility.yul\":27998:28086   */\n      mstore\n        /* \"#utility.yul\":28105:28109   */\n      0x12\n        /* \"#utility.yul\":28102:28103   */\n      0x04\n        /* \"#utility.yul\":28095:28110   */\n      mstore\n        /* \"#utility.yul\":28129:28133   */\n      0x24\n        /* \"#utility.yul\":28126:28127   */\n      0x00\n        /* \"#utility.yul\":28119:28134   */\n      revert\n        /* \"#utility.yul\":28146:28331   */\n    tag_250:\n        /* \"#utility.yul\":28186:28187   */\n      0x00\n        /* \"#utility.yul\":28203:28223   */\n      tag_604\n        /* \"#utility.yul\":28221:28222   */\n      dup3\n        /* \"#utility.yul\":28203:28223   */\n      tag_296\n      jump\t// in\n    tag_604:\n        /* \"#utility.yul\":28198:28223   */\n      swap2\n      pop\n        /* \"#utility.yul\":28237:28257   */\n      tag_605\n        /* \"#utility.yul\":28255:28256   */\n      dup4\n        /* \"#utility.yul\":28237:28257   */\n      tag_296\n      jump\t// in\n    tag_605:\n        /* \"#utility.yul\":28232:28257   */\n      swap3\n      pop\n        /* \"#utility.yul\":28276:28277   */\n      dup3\n        /* \"#utility.yul\":28266:28301   */\n      tag_606\n      jumpi\n        /* \"#utility.yul\":28281:28299   */\n      tag_607\n      tag_345\n      jump\t// in\n    tag_607:\n        /* \"#utility.yul\":28266:28301   */\n    tag_606:\n        /* \"#utility.yul\":28323:28324   */\n      dup3\n        /* \"#utility.yul\":28320:28321   */\n      dup3\n        /* \"#utility.yul\":28316:28325   */\n      div\n        /* \"#utility.yul\":28311:28325   */\n      swap1\n      pop\n        /* \"#utility.yul\":28146:28331   */\n      swap3\n      swap2\n      pop\n      pop\n      jump\t// out\n        /* \"#utility.yul\":28337:28502   */\n    tag_346:\n        /* \"#utility.yul\":28477:28494   */\n      0x496e76616c696420616464726573730000000000000000000000000000000000\n        /* \"#utility.yul\":28473:28474   */\n      0x00\n        /* \"#utility.yul\":28465:28471   */\n      dup3\n        /* \"#utility.yul\":28461:28475   */\n      add\n        /* \"#utility.yul\":28454:28495   */\n      mstore\n        /* \"#utility.yul\":28337:28502   */\n      pop\n      jump\t// out\n        /* \"#utility.yul\":28508:28874   */\n    tag_347:\n        /* \"#utility.yul\":28650:28653   */\n      0x00\n        /* \"#utility.yul\":28671:28738   */\n      tag_610\n        /* \"#utility.yul\":28735:28737   */\n      0x0f\n        /* \"#utility.yul\":28730:28733   */\n      dup4\n        /* \"#utility.yul\":28671:28738   */\n      tag_274\n      jump\t// in\n    tag_610:\n        /* \"#utility.yul\":28664:28738   */\n      swap2\n      pop\n        /* \"#utility.yul\":28747:28840   */\n      tag_611\n        /* \"#utility.yul\":28836:28839   */\n      dup3\n        /* \"#utility.yul\":28747:28840   */\n      tag_346\n      jump\t// in\n    tag_611:\n        /* \"#utility.yul\":28865:28867   */\n      0x20\n        /* \"#utility.yul\":28860:28863   */\n      dup3\n        /* \"#utility.yul\":28856:28868   */\n      add\n        /* \"#utility.yul\":28849:28868   */\n      swap1\n      pop\n        /* \"#utility.yul\":28508:28874   */\n      swap2\n      swap1\n      pop\n      jump\t// out\n        /* \"#utility.yul\":28880:29299   */\n    tag_263:\n        /* \"#utility.yul\":29046:29050   */\n      0x00\n        /* \"#utility.yul\":29084:29086   */\n      0x20\n        /* \"#utility.yul\":29073:29082   */\n      dup3\n        /* \"#utility.yul\":29069:29087   */\n      add\n        /* \"#utility.yul\":29061:29087   */\n      swap1\n      pop\n        /* \"#utility.yul\":29133:29142   */\n      dup2\n        /* \"#utility.yul\":29127:29131   */\n      dup2\n        /* \"#utility.yul\":29123:29143   */\n      sub\n        /* \"#utility.yul\":29119:29120   */\n      0x00\n        /* \"#utility.yul\":29108:29117   */\n      dup4\n        /* \"#utility.yul\":29104:29121   */\n      add\n        /* \"#utility.yul\":29097:29144   */\n      mstore\n        /* \"#utility.yul\":29161:29292   */\n      tag_613\n        /* \"#utility.yul\":29287:29291   */\n      dup2\n        /* \"#utility.yul\":29161:29292   */\n      tag_347\n      jump\t// in\n    tag_613:\n        /* \"#utility.yul\":29153:29292   */\n      swap1\n      pop\n        /* \"#utility.yul\":28880:29299   */\n      swap2\n      swap1\n      pop\n      jump\t// out\n\n    auxdata: 0xa26469706673582212206f70228fbab3d3e96e5f834c09567f343d7ebc72d579f860f2e30582ee08de7064736f6c63430008180033\n}\n",
				"bytecode": {
					"linkReferences": {},
					"object": "608060405234801562000010575f80fd5b5060405162002a3738038062002a3783398181016040528101906200003691906200015e565b3360015f6101000a81548173ffffffffffffffffffffffffffffffffffffffff021916908373ffffffffffffffffffffffffffffffffffffffff16021790555060018060156101000a81548160ff021916908360ff160217905550805f806101000a81548173ffffffffffffffffffffffffffffffffffffffff021916908373ffffffffffffffffffffffffffffffffffffffff160217905550653b1dfde91000600381905550662386f26fc100006004819055505f600581905550506200018e565b5f80fd5b5f73ffffffffffffffffffffffffffffffffffffffff82169050919050565b5f6200012882620000fd565b9050919050565b6200013a816200011c565b811462000145575f80fd5b50565b5f8151905062000158816200012f565b92915050565b5f60208284031215620001765762000175620000f9565b5b5f620001858482850162000148565b91505092915050565b61289b806200019c5f395ff3fe608060405260043610610122575f3560e01c80638da5cb5b1161009f578063bff1f9e111610063578063bff1f9e1146106ae578063cb722d11146106d8578063fa09e63014610714578063fdbb66961461073c578063ffbe653d1461077857610241565b80638da5cb5b146105e2578063a2f5546e1461060c578063ae24303114610634578063af6b55581461065e578063b76bdf061461068657610241565b80635f1276a7116100e65780635f1276a714610502578063672cbe1a1461052a5780636ed6da9e146105545780637b2581c2146105905780637ce8a08e146105ba57610241565b80632a2a92cc1461040e5780632b956ff71461044a57806331bbf55514610486578063487cb6b0146104c257806354eb7ebe146104d857610241565b366102415760045434101561016c576040517f08c379a000000000000000000000000000000000000000000000000000000000815260040161016390611b3e565b60405180910390fd5b5f805f9054906101000a900473ffffffffffffffffffffffffffffffffffffffff1673ffffffffffffffffffffffffffffffffffffffff166003546040516101b390611b89565b5f6040518083038185875af1925050503d805f81146101ed576040519150601f19603f3d011682016040523d82523d5f602084013e6101f2565b606091505b5050905080610236576040517f08c379a000000000000000000000000000000000000000000000000000000000815260040161022d90611be7565b60405180910390fd5b61023f5f6107b4565b005b600454341015610286576040517f08c379a000000000000000000000000000000000000000000000000000000000815260040161027d90611b3e565b60405180910390fd5b60205f36905010156102cd576040517f08c379a00000000000000000000000000000000000000000000000000000000081526004016102c490611c4f565b60405180910390fd5b5f368101906102dc9190611cb3565b1561032b5766b1a2bc2ec50000341461032a576040517f08c379a000000000000000000000000000000000000000000000000000000000815260040161032190611d28565b60405180910390fd5b5b5f805f9054906101000a900473ffffffffffffffffffffffffffffffffffffffff1673ffffffffffffffffffffffffffffffffffffffff1660035460405161037290611b89565b5f6040518083038185875af1925050503d805f81146103ac576040519150601f19603f3d011682016040523d82523d5f602084013e6103b1565b606091505b50509050806103f5576040517f08c379a00000000000000000000000000000000000000000000000000000000081526004016103ec90611be7565b60405180910390fd5b61040c5f368101906104079190611cb3565b6107b4565b005b348015610419575f80fd5b50610434600480360381019061042f9190611dd3565b610d80565b6040516104419190611e8e565b60405180910390f35b348015610455575f80fd5b50610470600480360381019061046b9190611ea7565b610e43565b60405161047d9190611ee1565b60405180910390f35b348015610491575f80fd5b506104ac60048036038101906104a79190611ea7565b610e89565b6040516104b99190611ee1565b60405180910390f35b3480156104cd575f80fd5b506104d6610ee6565b005b3480156104e3575f80fd5b506104ec610ff1565b6040516104f99190611f74565b60405180910390f35b34801561050d575f80fd5b5061052860048036038101906105239190611fcf565b611116565b005b348015610535575f80fd5b5061053e6111e8565b60405161054b9190611ee1565b60405180910390f35b34801561055f575f80fd5b5061057a60048036038101906105759190611ffa565b611215565b604051610587919061219e565b60405180910390f35b34801561059b575f80fd5b506105a461134d565b6040516105b19190611ee1565b60405180910390f35b3480156105c5575f80fd5b506105e060048036038101906105db91906121e8565b611353565b005b3480156105ed575f80fd5b506105f6611400565b6040516106039190612222565b60405180910390f35b348015610617575f80fd5b50610632600480360381019061062d919061223b565b611425565b005b34801561063f575f80fd5b506106486114d4565b6040516106559190612288565b60405180910390f35b348015610669575f80fd5b50610684600480360381019061067f9190611fcf565b6114e7565b005b348015610691575f80fd5b506106ac60048036038101906106a79190611ffa565b6115b8565b005b3480156106b9575f80fd5b506106c2611696565b6040516106cf9190611ee1565b60405180910390f35b3480156106e3575f80fd5b506106fe60048036038101906106f991906122a1565b61169c565b60405161070b9190611ee1565b60405180910390f35b34801561071f575f80fd5b5061073a60048036038101906107359190611fcf565b6117f3565b005b348015610747575f80fd5b50610762600480360381019061075d9190611ea7565b611937565b60405161076f9190611ee1565b60405180910390f35b348015610783575f80fd5b5061079e600480360381019061079991906121e8565b611991565b6040516107ab9190611ee1565b60405180910390f35b5f600160159054906101000a900460ff1660ff1603610808576040517f08c379a00000000000000000000000000000000000000000000000000000000081526004016107ff90612329565b60405180910390fd5b60011515600160149054906101000a900460ff1615150361085e576040517f08c379a000000000000000000000000000000000000000000000000000000000815260040161085590612391565b60405180910390fd5b60018060146101000a81548160ff0219169083151502179055505f60075f3373ffffffffffffffffffffffffffffffffffffffff1673ffffffffffffffffffffffffffffffffffffffff1681526020019081526020015f205403610ad15760055f8154809291906108ce906123dc565b919050555060055460075f3373ffffffffffffffffffffffffffffffffffffffff1673ffffffffffffffffffffffffffffffffffffffff1681526020019081526020015f20819055505f60085f60075f3373ffffffffffffffffffffffffffffffffffffffff1673ffffffffffffffffffffffffffffffffffffffff1681526020019081526020015f205481526020019081526020015f20905033815f015f6101000a81548173ffffffffffffffffffffffffffffffffffffffff021916908373ffffffffffffffffffffffffffffffffffffffff1602179055505f81600101819055506001816002015f6101000a81548160ff0219169083151502179055508060085f60075f3373ffffffffffffffffffffffffffffffffffffffff1673ffffffffffffffffffffffffffffffffffffffff1681526020019081526020015f205481526020019081526020015f205f82015f9054906101000a900473ffffffffffffffffffffffffffffffffffffffff16815f015f6101000a81548173ffffffffffffffffffffffffffffffffffffffff021916908373ffffffffffffffffffffffffffffffffffffffff16021790555060018201548160010155600282015f9054906101000a900460ff16816002015f6101000a81548160ff0219169083151502179055506003820181600301908054610acb9291906119a6565b50905050505b5f8115610bee5760085f60075f3373ffffffffffffffffffffffffffffffffffffffff1673ffffffffffffffffffffffffffffffffffffffff1681526020019081526020015f205481526020019081526020015f206002015f9054906101000a900460ff16610b75576040517f08c379a0000000000000000000000000000000000000000000000000000000008152600401610b6c9061246d565b60405180910390fd5b610b7f823461169c565b90505f60085f60075f3373ffffffffffffffffffffffffffffffffffffffff1673ffffffffffffffffffffffffffffffffffffffff1681526020019081526020015f205481526020019081526020015f206002015f6101000a81548160ff021916908315150217905550610bfb565b610bf8823461169c565b90505b8060085f60075f3373ffffffffffffffffffffffffffffffffffffffff1673ffffffffffffffffffffffffffffffffffffffff1681526020019081526020015f205481526020019081526020015f206001015f828254610c5b919061248b565b9250508190555060085f60075f3373ffffffffffffffffffffffffffffffffffffffff1673ffffffffffffffffffffffffffffffffffffffff1681526020019081526020015f205481526020019081526020015f206003016040518060800160405280428152602001348152602001838152602001600160159054906101000a900460ff1660ff16815250908060018154018082558091505060019003905f5260205f2090600402015f909190919091505f820151815f015560208201518160010155604082015181600201556060820151816003015f6101000a81548160ff021916908360ff16021790555050508060065f828254610d5b919061248b565b92505081905550505f600160146101000a81548160ff02191690831515021790555050565b610d88611a42565b60085f60075f8673ffffffffffffffffffffffffffffffffffffffff1673ffffffffffffffffffffffffffffffffffffffff1681526020019081526020015f205481526020019081526020015f206003018281548110610deb57610dea6124be565b5b905f5260205f2090600402016040518060800160405290815f82015481526020016001820154815260200160028201548152602001600382015f9054906101000a900460ff1660ff1660ff1681525050905092915050565b5f60075f8373ffffffffffffffffffffffffffffffffffffffff1673ffffffffffffffffffffffffffffffffffffffff1681526020019081526020015f20549050919050565b5f60085f60075f8573ffffffffffffffffffffffffffffffffffffffff1673ffffffffffffffffffffffffffffffffffffffff1681526020019081526020015f205481526020019081526020015f20600301805490509050919050565b60015f9054906101000a900473ffffffffffffffffffffffffffffffffffffffff1673ffffffffffffffffffffffffffffffffffffffff163373ffffffffffffffffffffffffffffffffffffffff1614610f75576040517f08c379a0000000000000000000000000000000000000000000000000000000008152600401610f6c90612535565b60405180910390fd5b5f8054906101000a900473ffffffffffffffffffffffffffffffffffffffff1673ffffffffffffffffffffffffffffffffffffffff166365a6cc2e6040518163ffffffff1660e01b81526004015f604051808303815f87803b158015610fd9575f80fd5b505af1158015610feb573d5f803e3d5ffd5b50505050565b606060015f9054906101000a900473ffffffffffffffffffffffffffffffffffffffff1673ffffffffffffffffffffffffffffffffffffffff163373ffffffffffffffffffffffffffffffffffffffff1614611082576040517f08c379a000000000000000000000000000000000000000000000000000000000815260040161107990612535565b60405180910390fd5b5f8054906101000a900473ffffffffffffffffffffffffffffffffffffffff1673ffffffffffffffffffffffffffffffffffffffff1663a1c6a4056040518163ffffffff1660e01b81526004015f60405180830381865afa1580156110e9573d5f803e3d5ffd5b505050506040513d5f823e3d601f19601f820116820180604052508101906111119190612671565b905090565b60015f9054906101000a900473ffffffffffffffffffffffffffffffffffffffff1673ffffffffffffffffffffffffffffffffffffffff163373ffffffffffffffffffffffffffffffffffffffff16146111a5576040517f08c379a000000000000000000000000000000000000000000000000000000000815260040161119c90612535565b60405180910390fd5b8060015f6101000a81548173ffffffffffffffffffffffffffffffffffffffff021916908373ffffffffffffffffffffffffffffffffffffffff16021790555050565b5f60025f600160159054906101000a900460ff1660ff1660ff1681526020019081526020015f2054905090565b61121d611a69565b60085f8381526020019081526020015f206040518060800160405290815f82015f9054906101000a900473ffffffffffffffffffffffffffffffffffffffff1673ffffffffffffffffffffffffffffffffffffffff1673ffffffffffffffffffffffffffffffffffffffff16815260200160018201548152602001600282015f9054906101000a900460ff1615151515815260200160038201805480602002602001604051908101604052809291908181526020015f905b8282101561133e578382905f5260205f2090600402016040518060800160405290815f82015481526020016001820154815260200160028201548152602001600382015f9054906101000a900460ff1660ff1660ff1681525050815260200190600101906112d5565b50505050815250509050919050565b60065481565b60015f9054906101000a900473ffffffffffffffffffffffffffffffffffffffff1673ffffffffffffffffffffffffffffffffffffffff163373ffffffffffffffffffffffffffffffffffffffff16146113e2576040517f08c379a00000000000000000000000000000000000000000000000000000000081526004016113d990612535565b60405180910390fd5b80600160156101000a81548160ff021916908360ff16021790555050565b60015f9054906101000a900473ffffffffffffffffffffffffffffffffffffffff1681565b60015f9054906101000a900473ffffffffffffffffffffffffffffffffffffffff1673ffffffffffffffffffffffffffffffffffffffff163373ffffffffffffffffffffffffffffffffffffffff16146114b4576040517f08c379a00000000000000000000000000000000000000000000000000000000081526004016114ab90612535565b60405180910390fd5b8060025f8460ff1660ff1681526020019081526020015f20819055505050565b600160159054906101000a900460ff1681565b60015f9054906101000a900473ffffffffffffffffffffffffffffffffffffffff1673ffffffffffffffffffffffffffffffffffffffff163373ffffffffffffffffffffffffffffffffffffffff1614611576576040517f08c379a000000000000000000000000000000000000000000000000000000000815260040161156d90612535565b60405180910390fd5b805f806101000a81548173ffffffffffffffffffffffffffffffffffffffff021916908373ffffffffffffffffffffffffffffffffffffffff16021790555050565b60015f9054906101000a900473ffffffffffffffffffffffffffffffffffffffff1673ffffffffffffffffffffffffffffffffffffffff163373ffffffffffffffffffffffffffffffffffffffff1614611647576040517f08c379a000000000000000000000000000000000000000000000000000000000815260040161163e90612535565b60405180910390fd5b60035481101561168c576040517f08c379a000000000000000000000000000000000000000000000000000000000815260040161168390612702565b60405180910390fd5b8060048190555050565b60055481565b5f805f8054906101000a900473ffffffffffffffffffffffffffffffffffffffff1673ffffffffffffffffffffffffffffffffffffffff1663e03d16326040518163ffffffff1660e01b8152600401602060405180830381865afa158015611706573d5f803e3d5ffd5b505050506040513d601f19601f8201168201806040525081019061172a9190612734565b90505f8415611795576002805f600160159054906101000a900460ff1660ff1660ff1681526020019081526020015f205483670de0b6b3a764000087611770919061275f565b61177a91906127cd565b61178491906127cd565b61178e919061275f565b90506117e8565b60025f600160159054906101000a900460ff1660ff1660ff1681526020019081526020015f205482670de0b6b3a7640000866117d1919061275f565b6117db91906127cd565b6117e591906127cd565b90505b809250505092915050565b60015f9054906101000a900473ffffffffffffffffffffffffffffffffffffffff1673ffffffffffffffffffffffffffffffffffffffff163373ffffffffffffffffffffffffffffffffffffffff1614611882576040517f08c379a000000000000000000000000000000000000000000000000000000000815260040161187990612535565b60405180910390fd5b5f73ffffffffffffffffffffffffffffffffffffffff168173ffffffffffffffffffffffffffffffffffffffff16036118f0576040517f08c379a00000000000000000000000000000000000000000000000000000000081526004016118e790612847565b60405180910390fd5b8073ffffffffffffffffffffffffffffffffffffffff166108fc4790811502906040515f60405180830381858888f19350505050158015611933573d5f803e3d5ffd5b5050565b5f60085f60075f8573ffffffffffffffffffffffffffffffffffffffff1673ffffffffffffffffffffffffffffffffffffffff1681526020019081526020015f205481526020019081526020015f20600101549050919050565b6002602052805f5260405f205f915090505481565b828054828255905f5260205f20906004028101928215611a31575f5260205f209160040282015b82811115611a305782825f820154815f01556001820154816001015560028201548160020155600382015f9054906101000a900460ff16816003015f6101000a81548160ff021916908360ff1602179055505050916004019190600401906119cd565b5b509050611a3e9190611aa6565b5090565b60405180608001604052805f81526020015f81526020015f81526020015f60ff1681525090565b60405180608001604052805f73ffffffffffffffffffffffffffffffffffffffff1681526020015f81526020015f15158152602001606081525090565b5b80821115611ae0575f8082015f9055600182015f9055600282015f9055600382015f6101000a81549060ff021916905550600401611aa7565b5090565b5f82825260208201905092915050565b7f53656e64206d6f726520424e4220746f206275792054505400000000000000005f82015250565b5f611b28601883611ae4565b9150611b3382611af4565b602082019050919050565b5f6020820190508181035f830152611b5581611b1c565b9050919050565b5f81905092915050565b50565b5f611b745f83611b5c565b9150611b7f82611b66565b5f82019050919050565b5f611b9382611b69565b9150819050919050565b7f5472616e73666572206661696c656400000000000000000000000000000000005f82015250565b5f611bd1600f83611ae4565b9150611bdc82611b9d565b602082019050919050565b5f6020820190508181035f830152611bfe81611bc5565b9050919050565b7f496e76616c69642064617461206c656e677468000000000000000000000000005f82015250565b5f611c39601383611ae4565b9150611c4482611c05565b602082019050919050565b5f6020820190508181035f830152611c6681611c2d565b9050919050565b5f604051905090565b5f80fd5b5f80fd5b5f8115159050919050565b611c9281611c7e565b8114611c9c575f80fd5b50565b5f81359050611cad81611c89565b92915050565b5f60208284031215611cc857611cc7611c76565b5b5f611cd584828501611c9f565b91505092915050565b7f73656e64206a75737420657175616c20302e303520626e6200000000000000005f82015250565b5f611d12601883611ae4565b9150611d1d82611cde565b602082019050919050565b5f6020820190508181035f830152611d3f81611d06565b9050919050565b5f73ffffffffffffffffffffffffffffffffffffffff82169050919050565b5f611d6f82611d46565b9050919050565b611d7f81611d65565b8114611d89575f80fd5b50565b5f81359050611d9a81611d76565b92915050565b5f819050919050565b611db281611da0565b8114611dbc575f80fd5b50565b5f81359050611dcd81611da9565b92915050565b5f8060408385031215611de957611de8611c76565b5b5f611df685828601611d8c565b9250506020611e0785828601611dbf565b9150509250929050565b611e1a81611da0565b82525050565b5f60ff82169050919050565b611e3581611e20565b82525050565b608082015f820151611e4f5f850182611e11565b506020820151611e626020850182611e11565b506040820151611e756040850182611e11565b506060820151611e886060850182611e2c565b50505050565b5f608082019050611ea15f830184611e3b565b92915050565b5f60208284031215611ebc57611ebb611c76565b5b5f611ec984828501611d8c565b91505092915050565b611edb81611da0565b82525050565b5f602082019050611ef45f830184611ed2565b92915050565b5f81519050919050565b5f5b83811015611f21578082015181840152602081019050611f06565b5f8484015250505050565b5f601f19601f8301169050919050565b5f611f4682611efa565b611f508185611ae4565b9350611f60818560208601611f04565b611f6981611f2c565b840191505092915050565b5f6020820190508181035f830152611f8c8184611f3c565b905092915050565b5f611f9e82611d46565b9050919050565b611fae81611f94565b8114611fb8575f80fd5b50565b5f81359050611fc981611fa5565b92915050565b5f60208284031215611fe457611fe3611c76565b5b5f611ff184828501611fbb565b91505092915050565b5f6020828403121561200f5761200e611c76565b5b5f61201c84828501611dbf565b91505092915050565b61202e81611d65565b82525050565b61203d81611c7e565b82525050565b5f81519050919050565b5f82825260208201905092915050565b5f819050602082019050919050565b608082015f8201516120805f850182611e11565b5060208201516120936020850182611e11565b5060408201516120a66040850182611e11565b5060608201516120b96060850182611e2c565b50505050565b5f6120ca838361206c565b60808301905092915050565b5f602082019050919050565b5f6120ec82612043565b6120f6818561204d565b93506121018361205d565b805f5b8381101561213157815161211888826120bf565b9750612123836120d6565b925050600181019050612104565b5085935050505092915050565b5f608083015f8301516121535f860182612025565b5060208301516121666020860182611e11565b5060408301516121796040860182612034565b506060830151848203606086015261219182826120e2565b9150508091505092915050565b5f6020820190508181035f8301526121b6818461213e565b905092915050565b6121c781611e20565b81146121d1575f80fd5b50565b5f813590506121e2816121be565b92915050565b5f602082840312156121fd576121fc611c76565b5b5f61220a848285016121d4565b91505092915050565b61221c81611f94565b82525050565b5f6020820190506122355f830184612213565b92915050565b5f806040838503121561225157612250611c76565b5b5f61225e858286016121d4565b925050602061226f85828601611dbf565b9150509250929050565b61228281611e20565b82525050565b5f60208201905061229b5f830184612279565b92915050565b5f80604083850312156122b7576122b6611c76565b5b5f6122c485828601611c9f565b92505060206122d585828601611dbf565b9150509250929050565b7f436f6e74726163742050617573656400000000000000000000000000000000005f82015250565b5f612313600f83611ae4565b915061231e826122df565b602082019050919050565b5f6020820190508181035f83015261234081612307565b9050919050565b7f4e6f205265656e7472616e63792c706c732077616974000000000000000000005f82015250565b5f61237b601683611ae4565b915061238682612347565b602082019050919050565b5f6020820190508181035f8301526123a88161236f565b9050919050565b7f4e487b71000000000000000000000000000000000000000000000000000000005f52601160045260245ffd5b5f6123e682611da0565b91507fffffffffffffffffffffffffffffffffffffffffffffffffffffffffffffffff8203612418576124176123af565b5b600182019050919050565b7f6e6f206f66666572206d6f7265000000000000000000000000000000000000005f82015250565b5f612457600d83611ae4565b915061246282612423565b602082019050919050565b5f6020820190508181035f8301526124848161244b565b9050919050565b5f61249582611da0565b91506124a083611da0565b92508282019050808211156124b8576124b76123af565b5b92915050565b7f4e487b71000000000000000000000000000000000000000000000000000000005f52603260045260245ffd5b7f4f6e6c79206f776e6572000000000000000000000000000000000000000000005f82015250565b5f61251f600a83611ae4565b915061252a826124eb565b602082019050919050565b5f6020820190508181035f83015261254c81612513565b9050919050565b5f80fd5b5f80fd5b7f4e487b71000000000000000000000000000000000000000000000000000000005f52604160045260245ffd5b61259182611f2c565b810181811067ffffffffffffffff821117156125b0576125af61255b565b5b80604052505050565b5f6125c2611c6d565b90506125ce8282612588565b919050565b5f67ffffffffffffffff8211156125ed576125ec61255b565b5b6125f682611f2c565b9050602081019050919050565b5f612615612610846125d3565b6125b9565b90508281526020810184848401111561263157612630612557565b5b61263c848285611f04565b509392505050565b5f82601f83011261265857612657612553565b5b8151612668848260208601612603565b91505092915050565b5f6020828403121561268657612685611c76565b5b5f82015167ffffffffffffffff8111156126a3576126a2611c7a565b5b6126af84828501612644565b91505092915050565b7f6d696e2073686f756c64206265206d6f7265207468616e2074617800000000005f82015250565b5f6126ec601b83611ae4565b91506126f7826126b8565b602082019050919050565b5f6020820190508181035f830152612719816126e0565b9050919050565b5f8151905061272e81611da9565b92915050565b5f6020828403121561274957612748611c76565b5b5f61275684828501612720565b91505092915050565b5f61276982611da0565b915061277483611da0565b925082820261278281611da0565b91508282048414831517612799576127986123af565b5b5092915050565b7f4e487b71000000000000000000000000000000000000000000000000000000005f52601260045260245ffd5b5f6127d782611da0565b91506127e283611da0565b9250826127f2576127f16127a0565b5b828204905092915050565b7f496e76616c6964206164647265737300000000000000000000000000000000005f82015250565b5f612831600f83611ae4565b915061283c826127fd565b602082019050919050565b5f6020820190508181035f83015261285e81612825565b905091905056fea26469706673582212206f70228fbab3d3e96e5f834c09567f343d7ebc72d579f860f2e30582ee08de7064736f6c63430008180033",
					"opcodes": "PUSH1 0x80 PUSH1 0x40 MSTORE CALLVALUE DUP1 ISZERO PUSH3 0x10 JUMPI PUSH0 DUP1 REVERT JUMPDEST POP PUSH1 0x40 MLOAD PUSH3 0x2A37 CODESIZE SUB DUP1 PUSH3 0x2A37 DUP4 CODECOPY DUP2 DUP2 ADD PUSH1 0x40 MSTORE DUP2 ADD SWAP1 PUSH3 0x36 SWAP2 SWAP1 PUSH3 0x15E JUMP JUMPDEST CALLER PUSH1 0x1 PUSH0 PUSH2 0x100 EXP DUP2 SLOAD DUP2 PUSH20 0xFFFFFFFFFFFFFFFFFFFFFFFFFFFFFFFFFFFFFFFF MUL NOT AND SWAP1 DUP4 PUSH20 0xFFFFFFFFFFFFFFFFFFFFFFFFFFFFFFFFFFFFFFFF AND MUL OR SWAP1 SSTORE POP PUSH1 0x1 DUP1 PUSH1 0x15 PUSH2 0x100 EXP DUP2 SLOAD DUP2 PUSH1 0xFF MUL NOT AND SWAP1 DUP4 PUSH1 0xFF AND MUL OR SWAP1 SSTORE POP DUP1 PUSH0 DUP1 PUSH2 0x100 EXP DUP2 SLOAD DUP2 PUSH20 0xFFFFFFFFFFFFFFFFFFFFFFFFFFFFFFFFFFFFFFFF MUL NOT AND SWAP1 DUP4 PUSH20 0xFFFFFFFFFFFFFFFFFFFFFFFFFFFFFFFFFFFFFFFF AND MUL OR SWAP1 SSTORE POP PUSH6 0x3B1DFDE91000 PUSH1 0x3 DUP2 SWAP1 SSTORE POP PUSH7 0x2386F26FC10000 PUSH1 0x4 DUP2 SWAP1 SSTORE POP PUSH0 PUSH1 0x5 DUP2 SWAP1 SSTORE POP POP PUSH3 0x18E JUMP JUMPDEST PUSH0 DUP1 REVERT JUMPDEST PUSH0 PUSH20 0xFFFFFFFFFFFFFFFFFFFFFFFFFFFFFFFFFFFFFFFF DUP3 AND SWAP1 POP SWAP2 SWAP1 POP JUMP JUMPDEST PUSH0 PUSH3 0x128 DUP3 PUSH3 0xFD JUMP JUMPDEST SWAP1 POP SWAP2 SWAP1 POP JUMP JUMPDEST PUSH3 0x13A DUP2 PUSH3 0x11C JUMP JUMPDEST DUP2 EQ PUSH3 0x145 JUMPI PUSH0 DUP1 REVERT JUMPDEST POP JUMP JUMPDEST PUSH0 DUP2 MLOAD SWAP1 POP PUSH3 0x158 DUP2 PUSH3 0x12F JUMP JUMPDEST SWAP3 SWAP2 POP POP JUMP JUMPDEST PUSH0 PUSH1 0x20 DUP3 DUP5 SUB SLT ISZERO PUSH3 0x176 JUMPI PUSH3 0x175 PUSH3 0xF9 JUMP JUMPDEST JUMPDEST PUSH0 PUSH3 0x185 DUP5 DUP3 DUP6 ADD PUSH3 0x148 JUMP JUMPDEST SWAP2 POP POP SWAP3 SWAP2 POP POP JUMP JUMPDEST PUSH2 0x289B DUP1 PUSH3 0x19C PUSH0 CODECOPY PUSH0 RETURN INVALID PUSH1 0x80 PUSH1 0x40 MSTORE PUSH1 0x4 CALLDATASIZE LT PUSH2 0x122 JUMPI PUSH0 CALLDATALOAD PUSH1 0xE0 SHR DUP1 PUSH4 0x8DA5CB5B GT PUSH2 0x9F JUMPI DUP1 PUSH4 0xBFF1F9E1 GT PUSH2 0x63 JUMPI DUP1 PUSH4 0xBFF1F9E1 EQ PUSH2 0x6AE JUMPI DUP1 PUSH4 0xCB722D11 EQ PUSH2 0x6D8 JUMPI DUP1 PUSH4 0xFA09E630 EQ PUSH2 0x714 JUMPI DUP1 PUSH4 0xFDBB6696 EQ PUSH2 0x73C JUMPI DUP1 PUSH4 0xFFBE653D EQ PUSH2 0x778 JUMPI PUSH2 0x241 JUMP JUMPDEST DUP1 PUSH4 0x8DA5CB5B EQ PUSH2 0x5E2 JUMPI DUP1 PUSH4 0xA2F5546E EQ PUSH2 0x60C JUMPI DUP1 PUSH4 0xAE243031 EQ PUSH2 0x634 JUMPI DUP1 PUSH4 0xAF6B5558 EQ PUSH2 0x65E JUMPI DUP1 PUSH4 0xB76BDF06 EQ PUSH2 0x686 JUMPI PUSH2 0x241 JUMP JUMPDEST DUP1 PUSH4 0x5F1276A7 GT PUSH2 0xE6 JUMPI DUP1 PUSH4 0x5F1276A7 EQ PUSH2 0x502 JUMPI DUP1 PUSH4 0x672CBE1A EQ PUSH2 0x52A JUMPI DUP1 PUSH4 0x6ED6DA9E EQ PUSH2 0x554 JUMPI DUP1 PUSH4 0x7B2581C2 EQ PUSH2 0x590 JUMPI DUP1 PUSH4 0x7CE8A08E EQ PUSH2 0x5BA JUMPI PUSH2 0x241 JUMP JUMPDEST DUP1 PUSH4 0x2A2A92CC EQ PUSH2 0x40E JUMPI DUP1 PUSH4 0x2B956FF7 EQ PUSH2 0x44A JUMPI DUP1 PUSH4 0x31BBF555 EQ PUSH2 0x486 JUMPI DUP1 PUSH4 0x487CB6B0 EQ PUSH2 0x4C2 JUMPI DUP1 PUSH4 0x54EB7EBE EQ PUSH2 0x4D8 JUMPI PUSH2 0x241 JUMP JUMPDEST CALLDATASIZE PUSH2 0x241 JUMPI PUSH1 0x4 SLOAD CALLVALUE LT ISZERO PUSH2 0x16C JUMPI PUSH1 0x40 MLOAD PUSH32 0x8C379A000000000000000000000000000000000000000000000000000000000 DUP2 MSTORE PUSH1 0x4 ADD PUSH2 0x163 SWAP1 PUSH2 0x1B3E JUMP JUMPDEST PUSH1 0x40 MLOAD DUP1 SWAP2 SUB SWAP1 REVERT JUMPDEST PUSH0 DUP1 PUSH0 SWAP1 SLOAD SWAP1 PUSH2 0x100 EXP SWAP1 DIV PUSH20 0xFFFFFFFFFFFFFFFFFFFFFFFFFFFFFFFFFFFFFFFF AND PUSH20 0xFFFFFFFFFFFFFFFFFFFFFFFFFFFFFFFFFFFFFFFF AND PUSH1 0x3 SLOAD PUSH1 0x40 MLOAD PUSH2 0x1B3 SWAP1 PUSH2 0x1B89 JUMP JUMPDEST PUSH0 PUSH1 0x40 MLOAD DUP1 DUP4 SUB DUP2 DUP6 DUP8 GAS CALL SWAP3 POP POP POP RETURNDATASIZE DUP1 PUSH0 DUP2 EQ PUSH2 0x1ED JUMPI PUSH1 0x40 MLOAD SWAP2 POP PUSH1 0x1F NOT PUSH1 0x3F RETURNDATASIZE ADD AND DUP3 ADD PUSH1 0x40 MSTORE RETURNDATASIZE DUP3 MSTORE RETURNDATASIZE PUSH0 PUSH1 0x20 DUP5 ADD RETURNDATACOPY PUSH2 0x1F2 JUMP JUMPDEST PUSH1 0x60 SWAP2 POP JUMPDEST POP POP SWAP1 POP DUP1 PUSH2 0x236 JUMPI PUSH1 0x40 MLOAD PUSH32 0x8C379A000000000000000000000000000000000000000000000000000000000 DUP2 MSTORE PUSH1 0x4 ADD PUSH2 0x22D SWAP1 PUSH2 0x1BE7 JUMP JUMPDEST PUSH1 0x40 MLOAD DUP1 SWAP2 SUB SWAP1 REVERT JUMPDEST PUSH2 0x23F PUSH0 PUSH2 0x7B4 JUMP JUMPDEST STOP JUMPDEST PUSH1 0x4 SLOAD CALLVALUE LT ISZERO PUSH2 0x286 JUMPI PUSH1 0x40 MLOAD PUSH32 0x8C379A000000000000000000000000000000000000000000000000000000000 DUP2 MSTORE PUSH1 0x4 ADD PUSH2 0x27D SWAP1 PUSH2 0x1B3E JUMP JUMPDEST PUSH1 0x40 MLOAD DUP1 SWAP2 SUB SWAP1 REVERT JUMPDEST PUSH1 0x20 PUSH0 CALLDATASIZE SWAP1 POP LT ISZERO PUSH2 0x2CD JUMPI PUSH1 0x40 MLOAD PUSH32 0x8C379A000000000000000000000000000000000000000000000000000000000 DUP2 MSTORE PUSH1 0x4 ADD PUSH2 0x2C4 SWAP1 PUSH2 0x1C4F JUMP JUMPDEST PUSH1 0x40 MLOAD DUP1 SWAP2 SUB SWAP1 REVERT JUMPDEST PUSH0 CALLDATASIZE DUP2 ADD SWAP1 PUSH2 0x2DC SWAP2 SWAP1 PUSH2 0x1CB3 JUMP JUMPDEST ISZERO PUSH2 0x32B JUMPI PUSH7 0xB1A2BC2EC50000 CALLVALUE EQ PUSH2 0x32A JUMPI PUSH1 0x40 MLOAD PUSH32 0x8C379A000000000000000000000000000000000000000000000000000000000 DUP2 MSTORE PUSH1 0x4 ADD PUSH2 0x321 SWAP1 PUSH2 0x1D28 JUMP JUMPDEST PUSH1 0x40 MLOAD DUP1 SWAP2 SUB SWAP1 REVERT JUMPDEST JUMPDEST PUSH0 DUP1 PUSH0 SWAP1 SLOAD SWAP1 PUSH2 0x100 EXP SWAP1 DIV PUSH20 0xFFFFFFFFFFFFFFFFFFFFFFFFFFFFFFFFFFFFFFFF AND PUSH20 0xFFFFFFFFFFFFFFFFFFFFFFFFFFFFFFFFFFFFFFFF AND PUSH1 0x3 SLOAD PUSH1 0x40 MLOAD PUSH2 0x372 SWAP1 PUSH2 0x1B89 JUMP JUMPDEST PUSH0 PUSH1 0x40 MLOAD DUP1 DUP4 SUB DUP2 DUP6 DUP8 GAS CALL SWAP3 POP POP POP RETURNDATASIZE DUP1 PUSH0 DUP2 EQ PUSH2 0x3AC JUMPI PUSH1 0x40 MLOAD SWAP2 POP PUSH1 0x1F NOT PUSH1 0x3F RETURNDATASIZE ADD AND DUP3 ADD PUSH1 0x40 MSTORE RETURNDATASIZE DUP3 MSTORE RETURNDATASIZE PUSH0 PUSH1 0x20 DUP5 ADD RETURNDATACOPY PUSH2 0x3B1 JUMP JUMPDEST PUSH1 0x60 SWAP2 POP JUMPDEST POP POP SWAP1 POP DUP1 PUSH2 0x3F5 JUMPI PUSH1 0x40 MLOAD PUSH32 0x8C379A000000000000000000000000000000000000000000000000000000000 DUP2 MSTORE PUSH1 0x4 ADD PUSH2 0x3EC SWAP1 PUSH2 0x1BE7 JUMP JUMPDEST PUSH1 0x40 MLOAD DUP1 SWAP2 SUB SWAP1 REVERT JUMPDEST PUSH2 0x40C PUSH0 CALLDATASIZE DUP2 ADD SWAP1 PUSH2 0x407 SWAP2 SWAP1 PUSH2 0x1CB3 JUMP JUMPDEST PUSH2 0x7B4 JUMP JUMPDEST STOP JUMPDEST CALLVALUE DUP1 ISZERO PUSH2 0x419 JUMPI PUSH0 DUP1 REVERT JUMPDEST POP PUSH2 0x434 PUSH1 0x4 DUP1 CALLDATASIZE SUB DUP2 ADD SWAP1 PUSH2 0x42F SWAP2 SWAP1 PUSH2 0x1DD3 JUMP JUMPDEST PUSH2 0xD80 JUMP JUMPDEST PUSH1 0x40 MLOAD PUSH2 0x441 SWAP2 SWAP1 PUSH2 0x1E8E JUMP JUMPDEST PUSH1 0x40 MLOAD DUP1 SWAP2 SUB SWAP1 RETURN JUMPDEST CALLVALUE DUP1 ISZERO PUSH2 0x455 JUMPI PUSH0 DUP1 REVERT JUMPDEST POP PUSH2 0x470 PUSH1 0x4 DUP1 CALLDATASIZE SUB DUP2 ADD SWAP1 PUSH2 0x46B SWAP2 SWAP1 PUSH2 0x1EA7 JUMP JUMPDEST PUSH2 0xE43 JUMP JUMPDEST PUSH1 0x40 MLOAD PUSH2 0x47D SWAP2 SWAP1 PUSH2 0x1EE1 JUMP JUMPDEST PUSH1 0x40 MLOAD DUP1 SWAP2 SUB SWAP1 RETURN JUMPDEST CALLVALUE DUP1 ISZERO PUSH2 0x491 JUMPI PUSH0 DUP1 REVERT JUMPDEST POP PUSH2 0x4AC PUSH1 0x4 DUP1 CALLDATASIZE SUB DUP2 ADD SWAP1 PUSH2 0x4A7 SWAP2 SWAP1 PUSH2 0x1EA7 JUMP JUMPDEST PUSH2 0xE89 JUMP JUMPDEST PUSH1 0x40 MLOAD PUSH2 0x4B9 SWAP2 SWAP1 PUSH2 0x1EE1 JUMP JUMPDEST PUSH1 0x40 MLOAD DUP1 SWAP2 SUB SWAP1 RETURN JUMPDEST CALLVALUE DUP1 ISZERO PUSH2 0x4CD JUMPI PUSH0 DUP1 REVERT JUMPDEST POP PUSH2 0x4D6 PUSH2 0xEE6 JUMP JUMPDEST STOP JUMPDEST CALLVALUE DUP1 ISZERO PUSH2 0x4E3 JUMPI PUSH0 DUP1 REVERT JUMPDEST POP PUSH2 0x4EC PUSH2 0xFF1 JUMP JUMPDEST PUSH1 0x40 MLOAD PUSH2 0x4F9 SWAP2 SWAP1 PUSH2 0x1F74 JUMP JUMPDEST PUSH1 0x40 MLOAD DUP1 SWAP2 SUB SWAP1 RETURN JUMPDEST CALLVALUE DUP1 ISZERO PUSH2 0x50D JUMPI PUSH0 DUP1 REVERT JUMPDEST POP PUSH2 0x528 PUSH1 0x4 DUP1 CALLDATASIZE SUB DUP2 ADD SWAP1 PUSH2 0x523 SWAP2 SWAP1 PUSH2 0x1FCF JUMP JUMPDEST PUSH2 0x1116 JUMP JUMPDEST STOP JUMPDEST CALLVALUE DUP1 ISZERO PUSH2 0x535 JUMPI PUSH0 DUP1 REVERT JUMPDEST POP PUSH2 0x53E PUSH2 0x11E8 JUMP JUMPDEST PUSH1 0x40 MLOAD PUSH2 0x54B SWAP2 SWAP1 PUSH2 0x1EE1 JUMP JUMPDEST PUSH1 0x40 MLOAD DUP1 SWAP2 SUB SWAP1 RETURN JUMPDEST CALLVALUE DUP1 ISZERO PUSH2 0x55F JUMPI PUSH0 DUP1 REVERT JUMPDEST POP PUSH2 0x57A PUSH1 0x4 DUP1 CALLDATASIZE SUB DUP2 ADD SWAP1 PUSH2 0x575 SWAP2 SWAP1 PUSH2 0x1FFA JUMP JUMPDEST PUSH2 0x1215 JUMP JUMPDEST PUSH1 0x40 MLOAD PUSH2 0x587 SWAP2 SWAP1 PUSH2 0x219E JUMP JUMPDEST PUSH1 0x40 MLOAD DUP1 SWAP2 SUB SWAP1 RETURN JUMPDEST CALLVALUE DUP1 ISZERO PUSH2 0x59B JUMPI PUSH0 DUP1 REVERT JUMPDEST POP PUSH2 0x5A4 PUSH2 0x134D JUMP JUMPDEST PUSH1 0x40 MLOAD PUSH2 0x5B1 SWAP2 SWAP1 PUSH2 0x1EE1 JUMP JUMPDEST PUSH1 0x40 MLOAD DUP1 SWAP2 SUB SWAP1 RETURN JUMPDEST CALLVALUE DUP1 ISZERO PUSH2 0x5C5 JUMPI PUSH0 DUP1 REVERT JUMPDEST POP PUSH2 0x5E0 PUSH1 0x4 DUP1 CALLDATASIZE SUB DUP2 ADD SWAP1 PUSH2 0x5DB SWAP2 SWAP1 PUSH2 0x21E8 JUMP JUMPDEST PUSH2 0x1353 JUMP JUMPDEST STOP JUMPDEST CALLVALUE DUP1 ISZERO PUSH2 0x5ED JUMPI PUSH0 DUP1 REVERT JUMPDEST POP PUSH2 0x5F6 PUSH2 0x1400 JUMP JUMPDEST PUSH1 0x40 MLOAD PUSH2 0x603 SWAP2 SWAP1 PUSH2 0x2222 JUMP JUMPDEST PUSH1 0x40 MLOAD DUP1 SWAP2 SUB SWAP1 RETURN JUMPDEST CALLVALUE DUP1 ISZERO PUSH2 0x617 JUMPI PUSH0 DUP1 REVERT JUMPDEST POP PUSH2 0x632 PUSH1 0x4 DUP1 CALLDATASIZE SUB DUP2 ADD SWAP1 PUSH2 0x62D SWAP2 SWAP1 PUSH2 0x223B JUMP JUMPDEST PUSH2 0x1425 JUMP JUMPDEST STOP JUMPDEST CALLVALUE DUP1 ISZERO PUSH2 0x63F JUMPI PUSH0 DUP1 REVERT JUMPDEST POP PUSH2 0x648 PUSH2 0x14D4 JUMP JUMPDEST PUSH1 0x40 MLOAD PUSH2 0x655 SWAP2 SWAP1 PUSH2 0x2288 JUMP JUMPDEST PUSH1 0x40 MLOAD DUP1 SWAP2 SUB SWAP1 RETURN JUMPDEST CALLVALUE DUP1 ISZERO PUSH2 0x669 JUMPI PUSH0 DUP1 REVERT JUMPDEST POP PUSH2 0x684 PUSH1 0x4 DUP1 CALLDATASIZE SUB DUP2 ADD SWAP1 PUSH2 0x67F SWAP2 SWAP1 PUSH2 0x1FCF JUMP JUMPDEST PUSH2 0x14E7 JUMP JUMPDEST STOP JUMPDEST CALLVALUE DUP1 ISZERO PUSH2 0x691 JUMPI PUSH0 DUP1 REVERT JUMPDEST POP PUSH2 0x6AC PUSH1 0x4 DUP1 CALLDATASIZE SUB DUP2 ADD SWAP1 PUSH2 0x6A7 SWAP2 SWAP1 PUSH2 0x1FFA JUMP JUMPDEST PUSH2 0x15B8 JUMP JUMPDEST STOP JUMPDEST CALLVALUE DUP1 ISZERO PUSH2 0x6B9 JUMPI PUSH0 DUP1 REVERT JUMPDEST POP PUSH2 0x6C2 PUSH2 0x1696 JUMP JUMPDEST PUSH1 0x40 MLOAD PUSH2 0x6CF SWAP2 SWAP1 PUSH2 0x1EE1 JUMP JUMPDEST PUSH1 0x40 MLOAD DUP1 SWAP2 SUB SWAP1 RETURN JUMPDEST CALLVALUE DUP1 ISZERO PUSH2 0x6E3 JUMPI PUSH0 DUP1 REVERT JUMPDEST POP PUSH2 0x6FE PUSH1 0x4 DUP1 CALLDATASIZE SUB DUP2 ADD SWAP1 PUSH2 0x6F9 SWAP2 SWAP1 PUSH2 0x22A1 JUMP JUMPDEST PUSH2 0x169C JUMP JUMPDEST PUSH1 0x40 MLOAD PUSH2 0x70B SWAP2 SWAP1 PUSH2 0x1EE1 JUMP JUMPDEST PUSH1 0x40 MLOAD DUP1 SWAP2 SUB SWAP1 RETURN JUMPDEST CALLVALUE DUP1 ISZERO PUSH2 0x71F JUMPI PUSH0 DUP1 REVERT JUMPDEST POP PUSH2 0x73A PUSH1 0x4 DUP1 CALLDATASIZE SUB DUP2 ADD SWAP1 PUSH2 0x735 SWAP2 SWAP1 PUSH2 0x1FCF JUMP JUMPDEST PUSH2 0x17F3 JUMP JUMPDEST STOP JUMPDEST CALLVALUE DUP1 ISZERO PUSH2 0x747 JUMPI PUSH0 DUP1 REVERT JUMPDEST POP PUSH2 0x762 PUSH1 0x4 DUP1 CALLDATASIZE SUB DUP2 ADD SWAP1 PUSH2 0x75D SWAP2 SWAP1 PUSH2 0x1EA7 JUMP JUMPDEST PUSH2 0x1937 JUMP JUMPDEST PUSH1 0x40 MLOAD PUSH2 0x76F SWAP2 SWAP1 PUSH2 0x1EE1 JUMP JUMPDEST PUSH1 0x40 MLOAD DUP1 SWAP2 SUB SWAP1 RETURN JUMPDEST CALLVALUE DUP1 ISZERO PUSH2 0x783 JUMPI PUSH0 DUP1 REVERT JUMPDEST POP PUSH2 0x79E PUSH1 0x4 DUP1 CALLDATASIZE SUB DUP2 ADD SWAP1 PUSH2 0x799 SWAP2 SWAP1 PUSH2 0x21E8 JUMP JUMPDEST PUSH2 0x1991 JUMP JUMPDEST PUSH1 0x40 MLOAD PUSH2 0x7AB SWAP2 SWAP1 PUSH2 0x1EE1 JUMP JUMPDEST PUSH1 0x40 MLOAD DUP1 SWAP2 SUB SWAP1 RETURN JUMPDEST PUSH0 PUSH1 0x1 PUSH1 0x15 SWAP1 SLOAD SWAP1 PUSH2 0x100 EXP SWAP1 DIV PUSH1 0xFF AND PUSH1 0xFF AND SUB PUSH2 0x808 JUMPI PUSH1 0x40 MLOAD PUSH32 0x8C379A000000000000000000000000000000000000000000000000000000000 DUP2 MSTORE PUSH1 0x4 ADD PUSH2 0x7FF SWAP1 PUSH2 0x2329 JUMP JUMPDEST PUSH1 0x40 MLOAD DUP1 SWAP2 SUB SWAP1 REVERT JUMPDEST PUSH1 0x1 ISZERO ISZERO PUSH1 0x1 PUSH1 0x14 SWAP1 SLOAD SWAP1 PUSH2 0x100 EXP SWAP1 DIV PUSH1 0xFF AND ISZERO ISZERO SUB PUSH2 0x85E JUMPI PUSH1 0x40 MLOAD PUSH32 0x8C379A000000000000000000000000000000000000000000000000000000000 DUP2 MSTORE PUSH1 0x4 ADD PUSH2 0x855 SWAP1 PUSH2 0x2391 JUMP JUMPDEST PUSH1 0x40 MLOAD DUP1 SWAP2 SUB SWAP1 REVERT JUMPDEST PUSH1 0x1 DUP1 PUSH1 0x14 PUSH2 0x100 EXP DUP2 SLOAD DUP2 PUSH1 0xFF MUL NOT AND SWAP1 DUP4 ISZERO ISZERO MUL OR SWAP1 SSTORE POP PUSH0 PUSH1 0x7 PUSH0 CALLER PUSH20 0xFFFFFFFFFFFFFFFFFFFFFFFFFFFFFFFFFFFFFFFF AND PUSH20 0xFFFFFFFFFFFFFFFFFFFFFFFFFFFFFFFFFFFFFFFF AND DUP2 MSTORE PUSH1 0x20 ADD SWAP1 DUP2 MSTORE PUSH1 0x20 ADD PUSH0 KECCAK256 SLOAD SUB PUSH2 0xAD1 JUMPI PUSH1 0x5 PUSH0 DUP2 SLOAD DUP1 SWAP3 SWAP2 SWAP1 PUSH2 0x8CE SWAP1 PUSH2 0x23DC JUMP JUMPDEST SWAP2 SWAP1 POP SSTORE POP PUSH1 0x5 SLOAD PUSH1 0x7 PUSH0 CALLER PUSH20 0xFFFFFFFFFFFFFFFFFFFFFFFFFFFFFFFFFFFFFFFF AND PUSH20 0xFFFFFFFFFFFFFFFFFFFFFFFFFFFFFFFFFFFFFFFF AND DUP2 MSTORE PUSH1 0x20 ADD SWAP1 DUP2 MSTORE PUSH1 0x20 ADD PUSH0 KECCAK256 DUP2 SWAP1 SSTORE POP PUSH0 PUSH1 0x8 PUSH0 PUSH1 0x7 PUSH0 CALLER PUSH20 0xFFFFFFFFFFFFFFFFFFFFFFFFFFFFFFFFFFFFFFFF AND PUSH20 0xFFFFFFFFFFFFFFFFFFFFFFFFFFFFFFFFFFFFFFFF AND DUP2 MSTORE PUSH1 0x20 ADD SWAP1 DUP2 MSTORE PUSH1 0x20 ADD PUSH0 KECCAK256 SLOAD DUP2 MSTORE PUSH1 0x20 ADD SWAP1 DUP2 MSTORE PUSH1 0x20 ADD PUSH0 KECCAK256 SWAP1 POP CALLER DUP2 PUSH0 ADD PUSH0 PUSH2 0x100 EXP DUP2 SLOAD DUP2 PUSH20 0xFFFFFFFFFFFFFFFFFFFFFFFFFFFFFFFFFFFFFFFF MUL NOT AND SWAP1 DUP4 PUSH20 0xFFFFFFFFFFFFFFFFFFFFFFFFFFFFFFFFFFFFFFFF AND MUL OR SWAP1 SSTORE POP PUSH0 DUP2 PUSH1 0x1 ADD DUP2 SWAP1 SSTORE POP PUSH1 0x1 DUP2 PUSH1 0x2 ADD PUSH0 PUSH2 0x100 EXP DUP2 SLOAD DUP2 PUSH1 0xFF MUL NOT AND SWAP1 DUP4 ISZERO ISZERO MUL OR SWAP1 SSTORE POP DUP1 PUSH1 0x8 PUSH0 PUSH1 0x7 PUSH0 CALLER PUSH20 0xFFFFFFFFFFFFFFFFFFFFFFFFFFFFFFFFFFFFFFFF AND PUSH20 0xFFFFFFFFFFFFFFFFFFFFFFFFFFFFFFFFFFFFFFFF AND DUP2 MSTORE PUSH1 0x20 ADD SWAP1 DUP2 MSTORE PUSH1 0x20 ADD PUSH0 KECCAK256 SLOAD DUP2 MSTORE PUSH1 0x20 ADD SWAP1 DUP2 MSTORE PUSH1 0x20 ADD PUSH0 KECCAK256 PUSH0 DUP3 ADD PUSH0 SWAP1 SLOAD SWAP1 PUSH2 0x100 EXP SWAP1 DIV PUSH20 0xFFFFFFFFFFFFFFFFFFFFFFFFFFFFFFFFFFFFFFFF AND DUP2 PUSH0 ADD PUSH0 PUSH2 0x100 EXP DUP2 SLOAD DUP2 PUSH20 0xFFFFFFFFFFFFFFFFFFFFFFFFFFFFFFFFFFFFFFFF MUL NOT AND SWAP1 DUP4 PUSH20 0xFFFFFFFFFFFFFFFFFFFFFFFFFFFFFFFFFFFFFFFF AND MUL OR SWAP1 SSTORE POP PUSH1 0x1 DUP3 ADD SLOAD DUP2 PUSH1 0x1 ADD SSTORE PUSH1 0x2 DUP3 ADD PUSH0 SWAP1 SLOAD SWAP1 PUSH2 0x100 EXP SWAP1 DIV PUSH1 0xFF AND DUP2 PUSH1 0x2 ADD PUSH0 PUSH2 0x100 EXP DUP2 SLOAD DUP2 PUSH1 0xFF MUL NOT AND SWAP1 DUP4 ISZERO ISZERO MUL OR SWAP1 SSTORE POP PUSH1 0x3 DUP3 ADD DUP2 PUSH1 0x3 ADD SWAP1 DUP1 SLOAD PUSH2 0xACB SWAP3 SWAP2 SWAP1 PUSH2 0x19A6 JUMP JUMPDEST POP SWAP1 POP POP POP JUMPDEST PUSH0 DUP2 ISZERO PUSH2 0xBEE JUMPI PUSH1 0x8 PUSH0 PUSH1 0x7 PUSH0 CALLER PUSH20 0xFFFFFFFFFFFFFFFFFFFFFFFFFFFFFFFFFFFFFFFF AND PUSH20 0xFFFFFFFFFFFFFFFFFFFFFFFFFFFFFFFFFFFFFFFF AND DUP2 MSTORE PUSH1 0x20 ADD SWAP1 DUP2 MSTORE PUSH1 0x20 ADD PUSH0 KECCAK256 SLOAD DUP2 MSTORE PUSH1 0x20 ADD SWAP1 DUP2 MSTORE PUSH1 0x20 ADD PUSH0 KECCAK256 PUSH1 0x2 ADD PUSH0 SWAP1 SLOAD SWAP1 PUSH2 0x100 EXP SWAP1 DIV PUSH1 0xFF AND PUSH2 0xB75 JUMPI PUSH1 0x40 MLOAD PUSH32 0x8C379A000000000000000000000000000000000000000000000000000000000 DUP2 MSTORE PUSH1 0x4 ADD PUSH2 0xB6C SWAP1 PUSH2 0x246D JUMP JUMPDEST PUSH1 0x40 MLOAD DUP1 SWAP2 SUB SWAP1 REVERT JUMPDEST PUSH2 0xB7F DUP3 CALLVALUE PUSH2 0x169C JUMP JUMPDEST SWAP1 POP PUSH0 PUSH1 0x8 PUSH0 PUSH1 0x7 PUSH0 CALLER PUSH20 0xFFFFFFFFFFFFFFFFFFFFFFFFFFFFFFFFFFFFFFFF AND PUSH20 0xFFFFFFFFFFFFFFFFFFFFFFFFFFFFFFFFFFFFFFFF AND DUP2 MSTORE PUSH1 0x20 ADD SWAP1 DUP2 MSTORE PUSH1 0x20 ADD PUSH0 KECCAK256 SLOAD DUP2 MSTORE PUSH1 0x20 ADD SWAP1 DUP2 MSTORE PUSH1 0x20 ADD PUSH0 KECCAK256 PUSH1 0x2 ADD PUSH0 PUSH2 0x100 EXP DUP2 SLOAD DUP2 PUSH1 0xFF MUL NOT AND SWAP1 DUP4 ISZERO ISZERO MUL OR SWAP1 SSTORE POP PUSH2 0xBFB JUMP JUMPDEST PUSH2 0xBF8 DUP3 CALLVALUE PUSH2 0x169C JUMP JUMPDEST SWAP1 POP JUMPDEST DUP1 PUSH1 0x8 PUSH0 PUSH1 0x7 PUSH0 CALLER PUSH20 0xFFFFFFFFFFFFFFFFFFFFFFFFFFFFFFFFFFFFFFFF AND PUSH20 0xFFFFFFFFFFFFFFFFFFFFFFFFFFFFFFFFFFFFFFFF AND DUP2 MSTORE PUSH1 0x20 ADD SWAP1 DUP2 MSTORE PUSH1 0x20 ADD PUSH0 KECCAK256 SLOAD DUP2 MSTORE PUSH1 0x20 ADD SWAP1 DUP2 MSTORE PUSH1 0x20 ADD PUSH0 KECCAK256 PUSH1 0x1 ADD PUSH0 DUP3 DUP3 SLOAD PUSH2 0xC5B SWAP2 SWAP1 PUSH2 0x248B JUMP JUMPDEST SWAP3 POP POP DUP2 SWAP1 SSTORE POP PUSH1 0x8 PUSH0 PUSH1 0x7 PUSH0 CALLER PUSH20 0xFFFFFFFFFFFFFFFFFFFFFFFFFFFFFFFFFFFFFFFF AND PUSH20 0xFFFFFFFFFFFFFFFFFFFFFFFFFFFFFFFFFFFFFFFF AND DUP2 MSTORE PUSH1 0x20 ADD SWAP1 DUP2 MSTORE PUSH1 0x20 ADD PUSH0 KECCAK256 SLOAD DUP2 MSTORE PUSH1 0x20 ADD SWAP1 DUP2 MSTORE PUSH1 0x20 ADD PUSH0 KECCAK256 PUSH1 0x3 ADD PUSH1 0x40 MLOAD DUP1 PUSH1 0x80 ADD PUSH1 0x40 MSTORE DUP1 TIMESTAMP DUP2 MSTORE PUSH1 0x20 ADD CALLVALUE DUP2 MSTORE PUSH1 0x20 ADD DUP4 DUP2 MSTORE PUSH1 0x20 ADD PUSH1 0x1 PUSH1 0x15 SWAP1 SLOAD SWAP1 PUSH2 0x100 EXP SWAP1 DIV PUSH1 0xFF AND PUSH1 0xFF AND DUP2 MSTORE POP SWAP1 DUP1 PUSH1 0x1 DUP2 SLOAD ADD DUP1 DUP3 SSTORE DUP1 SWAP2 POP POP PUSH1 0x1 SWAP1 SUB SWAP1 PUSH0 MSTORE PUSH1 0x20 PUSH0 KECCAK256 SWAP1 PUSH1 0x4 MUL ADD PUSH0 SWAP1 SWAP2 SWAP1 SWAP2 SWAP1 SWAP2 POP PUSH0 DUP3 ADD MLOAD DUP2 PUSH0 ADD SSTORE PUSH1 0x20 DUP3 ADD MLOAD DUP2 PUSH1 0x1 ADD SSTORE PUSH1 0x40 DUP3 ADD MLOAD DUP2 PUSH1 0x2 ADD SSTORE PUSH1 0x60 DUP3 ADD MLOAD DUP2 PUSH1 0x3 ADD PUSH0 PUSH2 0x100 EXP DUP2 SLOAD DUP2 PUSH1 0xFF MUL NOT AND SWAP1 DUP4 PUSH1 0xFF AND MUL OR SWAP1 SSTORE POP POP POP DUP1 PUSH1 0x6 PUSH0 DUP3 DUP3 SLOAD PUSH2 0xD5B SWAP2 SWAP1 PUSH2 0x248B JUMP JUMPDEST SWAP3 POP POP DUP2 SWAP1 SSTORE POP POP PUSH0 PUSH1 0x1 PUSH1 0x14 PUSH2 0x100 EXP DUP2 SLOAD DUP2 PUSH1 0xFF MUL NOT AND SWAP1 DUP4 ISZERO ISZERO MUL OR SWAP1 SSTORE POP POP JUMP JUMPDEST PUSH2 0xD88 PUSH2 0x1A42 JUMP JUMPDEST PUSH1 0x8 PUSH0 PUSH1 0x7 PUSH0 DUP7 PUSH20 0xFFFFFFFFFFFFFFFFFFFFFFFFFFFFFFFFFFFFFFFF AND PUSH20 0xFFFFFFFFFFFFFFFFFFFFFFFFFFFFFFFFFFFFFFFF AND DUP2 MSTORE PUSH1 0x20 ADD SWAP1 DUP2 MSTORE PUSH1 0x20 ADD PUSH0 KECCAK256 SLOAD DUP2 MSTORE PUSH1 0x20 ADD SWAP1 DUP2 MSTORE PUSH1 0x20 ADD PUSH0 KECCAK256 PUSH1 0x3 ADD DUP3 DUP2 SLOAD DUP2 LT PUSH2 0xDEB JUMPI PUSH2 0xDEA PUSH2 0x24BE JUMP JUMPDEST JUMPDEST SWAP1 PUSH0 MSTORE PUSH1 0x20 PUSH0 KECCAK256 SWAP1 PUSH1 0x4 MUL ADD PUSH1 0x40 MLOAD DUP1 PUSH1 0x80 ADD PUSH1 0x40 MSTORE SWAP1 DUP2 PUSH0 DUP3 ADD SLOAD DUP2 MSTORE PUSH1 0x20 ADD PUSH1 0x1 DUP3 ADD SLOAD DUP2 MSTORE PUSH1 0x20 ADD PUSH1 0x2 DUP3 ADD SLOAD DUP2 MSTORE PUSH1 0x20 ADD PUSH1 0x3 DUP3 ADD PUSH0 SWAP1 SLOAD SWAP1 PUSH2 0x100 EXP SWAP1 DIV PUSH1 0xFF AND PUSH1 0xFF AND PUSH1 0xFF AND DUP2 MSTORE POP POP SWAP1 POP SWAP3 SWAP2 POP POP JUMP JUMPDEST PUSH0 PUSH1 0x7 PUSH0 DUP4 PUSH20 0xFFFFFFFFFFFFFFFFFFFFFFFFFFFFFFFFFFFFFFFF AND PUSH20 0xFFFFFFFFFFFFFFFFFFFFFFFFFFFFFFFFFFFFFFFF AND DUP2 MSTORE PUSH1 0x20 ADD SWAP1 DUP2 MSTORE PUSH1 0x20 ADD PUSH0 KECCAK256 SLOAD SWAP1 POP SWAP2 SWAP1 POP JUMP JUMPDEST PUSH0 PUSH1 0x8 PUSH0 PUSH1 0x7 PUSH0 DUP6 PUSH20 0xFFFFFFFFFFFFFFFFFFFFFFFFFFFFFFFFFFFFFFFF AND PUSH20 0xFFFFFFFFFFFFFFFFFFFFFFFFFFFFFFFFFFFFFFFF AND DUP2 MSTORE PUSH1 0x20 ADD SWAP1 DUP2 MSTORE PUSH1 0x20 ADD PUSH0 KECCAK256 SLOAD DUP2 MSTORE PUSH1 0x20 ADD SWAP1 DUP2 MSTORE PUSH1 0x20 ADD PUSH0 KECCAK256 PUSH1 0x3 ADD DUP1 SLOAD SWAP1 POP SWAP1 POP SWAP2 SWAP1 POP JUMP JUMPDEST PUSH1 0x1 PUSH0 SWAP1 SLOAD SWAP1 PUSH2 0x100 EXP SWAP1 DIV PUSH20 0xFFFFFFFFFFFFFFFFFFFFFFFFFFFFFFFFFFFFFFFF AND PUSH20 0xFFFFFFFFFFFFFFFFFFFFFFFFFFFFFFFFFFFFFFFF AND CALLER PUSH20 0xFFFFFFFFFFFFFFFFFFFFFFFFFFFFFFFFFFFFFFFF AND EQ PUSH2 0xF75 JUMPI PUSH1 0x40 MLOAD PUSH32 0x8C379A000000000000000000000000000000000000000000000000000000000 DUP2 MSTORE PUSH1 0x4 ADD PUSH2 0xF6C SWAP1 PUSH2 0x2535 JUMP JUMPDEST PUSH1 0x40 MLOAD DUP1 SWAP2 SUB SWAP1 REVERT JUMPDEST PUSH0 DUP1 SLOAD SWAP1 PUSH2 0x100 EXP SWAP1 DIV PUSH20 0xFFFFFFFFFFFFFFFFFFFFFFFFFFFFFFFFFFFFFFFF AND PUSH20 0xFFFFFFFFFFFFFFFFFFFFFFFFFFFFFFFFFFFFFFFF AND PUSH4 0x65A6CC2E PUSH1 0x40 MLOAD DUP2 PUSH4 0xFFFFFFFF AND PUSH1 0xE0 SHL DUP2 MSTORE PUSH1 0x4 ADD PUSH0 PUSH1 0x40 MLOAD DUP1 DUP4 SUB DUP2 PUSH0 DUP8 DUP1 EXTCODESIZE ISZERO DUP1 ISZERO PUSH2 0xFD9 JUMPI PUSH0 DUP1 REVERT JUMPDEST POP GAS CALL ISZERO DUP1 ISZERO PUSH2 0xFEB JUMPI RETURNDATASIZE PUSH0 DUP1 RETURNDATACOPY RETURNDATASIZE PUSH0 REVERT JUMPDEST POP POP POP POP JUMP JUMPDEST PUSH1 0x60 PUSH1 0x1 PUSH0 SWAP1 SLOAD SWAP1 PUSH2 0x100 EXP SWAP1 DIV PUSH20 0xFFFFFFFFFFFFFFFFFFFFFFFFFFFFFFFFFFFFFFFF AND PUSH20 0xFFFFFFFFFFFFFFFFFFFFFFFFFFFFFFFFFFFFFFFF AND CALLER PUSH20 0xFFFFFFFFFFFFFFFFFFFFFFFFFFFFFFFFFFFFFFFF AND EQ PUSH2 0x1082 JUMPI PUSH1 0x40 MLOAD PUSH32 0x8C379A000000000000000000000000000000000000000000000000000000000 DUP2 MSTORE PUSH1 0x4 ADD PUSH2 0x1079 SWAP1 PUSH2 0x2535 JUMP JUMPDEST PUSH1 0x40 MLOAD DUP1 SWAP2 SUB SWAP1 REVERT JUMPDEST PUSH0 DUP1 SLOAD SWAP1 PUSH2 0x100 EXP SWAP1 DIV PUSH20 0xFFFFFFFFFFFFFFFFFFFFFFFFFFFFFFFFFFFFFFFF AND PUSH20 0xFFFFFFFFFFFFFFFFFFFFFFFFFFFFFFFFFFFFFFFF AND PUSH4 0xA1C6A405 PUSH1 0x40 MLOAD DUP2 PUSH4 0xFFFFFFFF AND PUSH1 0xE0 SHL DUP2 MSTORE PUSH1 0x4 ADD PUSH0 PUSH1 0x40 MLOAD DUP1 DUP4 SUB DUP2 DUP7 GAS STATICCALL ISZERO DUP1 ISZERO PUSH2 0x10E9 JUMPI RETURNDATASIZE PUSH0 DUP1 RETURNDATACOPY RETURNDATASIZE PUSH0 REVERT JUMPDEST POP POP POP POP PUSH1 0x40 MLOAD RETURNDATASIZE PUSH0 DUP3 RETURNDATACOPY RETURNDATASIZE PUSH1 0x1F NOT PUSH1 0x1F DUP3 ADD AND DUP3 ADD DUP1 PUSH1 0x40 MSTORE POP DUP2 ADD SWAP1 PUSH2 0x1111 SWAP2 SWAP1 PUSH2 0x2671 JUMP JUMPDEST SWAP1 POP SWAP1 JUMP JUMPDEST PUSH1 0x1 PUSH0 SWAP1 SLOAD SWAP1 PUSH2 0x100 EXP SWAP1 DIV PUSH20 0xFFFFFFFFFFFFFFFFFFFFFFFFFFFFFFFFFFFFFFFF AND PUSH20 0xFFFFFFFFFFFFFFFFFFFFFFFFFFFFFFFFFFFFFFFF AND CALLER PUSH20 0xFFFFFFFFFFFFFFFFFFFFFFFFFFFFFFFFFFFFFFFF AND EQ PUSH2 0x11A5 JUMPI PUSH1 0x40 MLOAD PUSH32 0x8C379A000000000000000000000000000000000000000000000000000000000 DUP2 MSTORE PUSH1 0x4 ADD PUSH2 0x119C SWAP1 PUSH2 0x2535 JUMP JUMPDEST PUSH1 0x40 MLOAD DUP1 SWAP2 SUB SWAP1 REVERT JUMPDEST DUP1 PUSH1 0x1 PUSH0 PUSH2 0x100 EXP DUP2 SLOAD DUP2 PUSH20 0xFFFFFFFFFFFFFFFFFFFFFFFFFFFFFFFFFFFFFFFF MUL NOT AND SWAP1 DUP4 PUSH20 0xFFFFFFFFFFFFFFFFFFFFFFFFFFFFFFFFFFFFFFFF AND MUL OR SWAP1 SSTORE POP POP JUMP JUMPDEST PUSH0 PUSH1 0x2 PUSH0 PUSH1 0x1 PUSH1 0x15 SWAP1 SLOAD SWAP1 PUSH2 0x100 EXP SWAP1 DIV PUSH1 0xFF AND PUSH1 0xFF AND PUSH1 0xFF AND DUP2 MSTORE PUSH1 0x20 ADD SWAP1 DUP2 MSTORE PUSH1 0x20 ADD PUSH0 KECCAK256 SLOAD SWAP1 POP SWAP1 JUMP JUMPDEST PUSH2 0x121D PUSH2 0x1A69 JUMP JUMPDEST PUSH1 0x8 PUSH0 DUP4 DUP2 MSTORE PUSH1 0x20 ADD SWAP1 DUP2 MSTORE PUSH1 0x20 ADD PUSH0 KECCAK256 PUSH1 0x40 MLOAD DUP1 PUSH1 0x80 ADD PUSH1 0x40 MSTORE SWAP1 DUP2 PUSH0 DUP3 ADD PUSH0 SWAP1 SLOAD SWAP1 PUSH2 0x100 EXP SWAP1 DIV PUSH20 0xFFFFFFFFFFFFFFFFFFFFFFFFFFFFFFFFFFFFFFFF AND PUSH20 0xFFFFFFFFFFFFFFFFFFFFFFFFFFFFFFFFFFFFFFFF AND PUSH20 0xFFFFFFFFFFFFFFFFFFFFFFFFFFFFFFFFFFFFFFFF AND DUP2 MSTORE PUSH1 0x20 ADD PUSH1 0x1 DUP3 ADD SLOAD DUP2 MSTORE PUSH1 0x20 ADD PUSH1 0x2 DUP3 ADD PUSH0 SWAP1 SLOAD SWAP1 PUSH2 0x100 EXP SWAP1 DIV PUSH1 0xFF AND ISZERO ISZERO ISZERO ISZERO DUP2 MSTORE PUSH1 0x20 ADD PUSH1 0x3 DUP3 ADD DUP1 SLOAD DUP1 PUSH1 0x20 MUL PUSH1 0x20 ADD PUSH1 0x40 MLOAD SWAP1 DUP2 ADD PUSH1 0x40 MSTORE DUP1 SWAP3 SWAP2 SWAP1 DUP2 DUP2 MSTORE PUSH1 0x20 ADD PUSH0 SWAP1 JUMPDEST DUP3 DUP3 LT ISZERO PUSH2 0x133E JUMPI DUP4 DUP3 SWAP1 PUSH0 MSTORE PUSH1 0x20 PUSH0 KECCAK256 SWAP1 PUSH1 0x4 MUL ADD PUSH1 0x40 MLOAD DUP1 PUSH1 0x80 ADD PUSH1 0x40 MSTORE SWAP1 DUP2 PUSH0 DUP3 ADD SLOAD DUP2 MSTORE PUSH1 0x20 ADD PUSH1 0x1 DUP3 ADD SLOAD DUP2 MSTORE PUSH1 0x20 ADD PUSH1 0x2 DUP3 ADD SLOAD DUP2 MSTORE PUSH1 0x20 ADD PUSH1 0x3 DUP3 ADD PUSH0 SWAP1 SLOAD SWAP1 PUSH2 0x100 EXP SWAP1 DIV PUSH1 0xFF AND PUSH1 0xFF AND PUSH1 0xFF AND DUP2 MSTORE POP POP DUP2 MSTORE PUSH1 0x20 ADD SWAP1 PUSH1 0x1 ADD SWAP1 PUSH2 0x12D5 JUMP JUMPDEST POP POP POP POP DUP2 MSTORE POP POP SWAP1 POP SWAP2 SWAP1 POP JUMP JUMPDEST PUSH1 0x6 SLOAD DUP2 JUMP JUMPDEST PUSH1 0x1 PUSH0 SWAP1 SLOAD SWAP1 PUSH2 0x100 EXP SWAP1 DIV PUSH20 0xFFFFFFFFFFFFFFFFFFFFFFFFFFFFFFFFFFFFFFFF AND PUSH20 0xFFFFFFFFFFFFFFFFFFFFFFFFFFFFFFFFFFFFFFFF AND CALLER PUSH20 0xFFFFFFFFFFFFFFFFFFFFFFFFFFFFFFFFFFFFFFFF AND EQ PUSH2 0x13E2 JUMPI PUSH1 0x40 MLOAD PUSH32 0x8C379A000000000000000000000000000000000000000000000000000000000 DUP2 MSTORE PUSH1 0x4 ADD PUSH2 0x13D9 SWAP1 PUSH2 0x2535 JUMP JUMPDEST PUSH1 0x40 MLOAD DUP1 SWAP2 SUB SWAP1 REVERT JUMPDEST DUP1 PUSH1 0x1 PUSH1 0x15 PUSH2 0x100 EXP DUP2 SLOAD DUP2 PUSH1 0xFF MUL NOT AND SWAP1 DUP4 PUSH1 0xFF AND MUL OR SWAP1 SSTORE POP POP JUMP JUMPDEST PUSH1 0x1 PUSH0 SWAP1 SLOAD SWAP1 PUSH2 0x100 EXP SWAP1 DIV PUSH20 0xFFFFFFFFFFFFFFFFFFFFFFFFFFFFFFFFFFFFFFFF AND DUP2 JUMP JUMPDEST PUSH1 0x1 PUSH0 SWAP1 SLOAD SWAP1 PUSH2 0x100 EXP SWAP1 DIV PUSH20 0xFFFFFFFFFFFFFFFFFFFFFFFFFFFFFFFFFFFFFFFF AND PUSH20 0xFFFFFFFFFFFFFFFFFFFFFFFFFFFFFFFFFFFFFFFF AND CALLER PUSH20 0xFFFFFFFFFFFFFFFFFFFFFFFFFFFFFFFFFFFFFFFF AND EQ PUSH2 0x14B4 JUMPI PUSH1 0x40 MLOAD PUSH32 0x8C379A000000000000000000000000000000000000000000000000000000000 DUP2 MSTORE PUSH1 0x4 ADD PUSH2 0x14AB SWAP1 PUSH2 0x2535 JUMP JUMPDEST PUSH1 0x40 MLOAD DUP1 SWAP2 SUB SWAP1 REVERT JUMPDEST DUP1 PUSH1 0x2 PUSH0 DUP5 PUSH1 0xFF AND PUSH1 0xFF AND DUP2 MSTORE PUSH1 0x20 ADD SWAP1 DUP2 MSTORE PUSH1 0x20 ADD PUSH0 KECCAK256 DUP2 SWAP1 SSTORE POP POP POP JUMP JUMPDEST PUSH1 0x1 PUSH1 0x15 SWAP1 SLOAD SWAP1 PUSH2 0x100 EXP SWAP1 DIV PUSH1 0xFF AND DUP2 JUMP JUMPDEST PUSH1 0x1 PUSH0 SWAP1 SLOAD SWAP1 PUSH2 0x100 EXP SWAP1 DIV PUSH20 0xFFFFFFFFFFFFFFFFFFFFFFFFFFFFFFFFFFFFFFFF AND PUSH20 0xFFFFFFFFFFFFFFFFFFFFFFFFFFFFFFFFFFFFFFFF AND CALLER PUSH20 0xFFFFFFFFFFFFFFFFFFFFFFFFFFFFFFFFFFFFFFFF AND EQ PUSH2 0x1576 JUMPI PUSH1 0x40 MLOAD PUSH32 0x8C379A000000000000000000000000000000000000000000000000000000000 DUP2 MSTORE PUSH1 0x4 ADD PUSH2 0x156D SWAP1 PUSH2 0x2535 JUMP JUMPDEST PUSH1 0x40 MLOAD DUP1 SWAP2 SUB SWAP1 REVERT JUMPDEST DUP1 PUSH0 DUP1 PUSH2 0x100 EXP DUP2 SLOAD DUP2 PUSH20 0xFFFFFFFFFFFFFFFFFFFFFFFFFFFFFFFFFFFFFFFF MUL NOT AND SWAP1 DUP4 PUSH20 0xFFFFFFFFFFFFFFFFFFFFFFFFFFFFFFFFFFFFFFFF AND MUL OR SWAP1 SSTORE POP POP JUMP JUMPDEST PUSH1 0x1 PUSH0 SWAP1 SLOAD SWAP1 PUSH2 0x100 EXP SWAP1 DIV PUSH20 0xFFFFFFFFFFFFFFFFFFFFFFFFFFFFFFFFFFFFFFFF AND PUSH20 0xFFFFFFFFFFFFFFFFFFFFFFFFFFFFFFFFFFFFFFFF AND CALLER PUSH20 0xFFFFFFFFFFFFFFFFFFFFFFFFFFFFFFFFFFFFFFFF AND EQ PUSH2 0x1647 JUMPI PUSH1 0x40 MLOAD PUSH32 0x8C379A000000000000000000000000000000000000000000000000000000000 DUP2 MSTORE PUSH1 0x4 ADD PUSH2 0x163E SWAP1 PUSH2 0x2535 JUMP JUMPDEST PUSH1 0x40 MLOAD DUP1 SWAP2 SUB SWAP1 REVERT JUMPDEST PUSH1 0x3 SLOAD DUP2 LT ISZERO PUSH2 0x168C JUMPI PUSH1 0x40 MLOAD PUSH32 0x8C379A000000000000000000000000000000000000000000000000000000000 DUP2 MSTORE PUSH1 0x4 ADD PUSH2 0x1683 SWAP1 PUSH2 0x2702 JUMP JUMPDEST PUSH1 0x40 MLOAD DUP1 SWAP2 SUB SWAP1 REVERT JUMPDEST DUP1 PUSH1 0x4 DUP2 SWAP1 SSTORE POP POP JUMP JUMPDEST PUSH1 0x5 SLOAD DUP2 JUMP JUMPDEST PUSH0 DUP1 PUSH0 DUP1 SLOAD SWAP1 PUSH2 0x100 EXP SWAP1 DIV PUSH20 0xFFFFFFFFFFFFFFFFFFFFFFFFFFFFFFFFFFFFFFFF AND PUSH20 0xFFFFFFFFFFFFFFFFFFFFFFFFFFFFFFFFFFFFFFFF AND PUSH4 0xE03D1632 PUSH1 0x40 MLOAD DUP2 PUSH4 0xFFFFFFFF AND PUSH1 0xE0 SHL DUP2 MSTORE PUSH1 0x4 ADD PUSH1 0x20 PUSH1 0x40 MLOAD DUP1 DUP4 SUB DUP2 DUP7 GAS STATICCALL ISZERO DUP1 ISZERO PUSH2 0x1706 JUMPI RETURNDATASIZE PUSH0 DUP1 RETURNDATACOPY RETURNDATASIZE PUSH0 REVERT JUMPDEST POP POP POP POP PUSH1 0x40 MLOAD RETURNDATASIZE PUSH1 0x1F NOT PUSH1 0x1F DUP3 ADD AND DUP3 ADD DUP1 PUSH1 0x40 MSTORE POP DUP2 ADD SWAP1 PUSH2 0x172A SWAP2 SWAP1 PUSH2 0x2734 JUMP JUMPDEST SWAP1 POP PUSH0 DUP5 ISZERO PUSH2 0x1795 JUMPI PUSH1 0x2 DUP1 PUSH0 PUSH1 0x1 PUSH1 0x15 SWAP1 SLOAD SWAP1 PUSH2 0x100 EXP SWAP1 DIV PUSH1 0xFF AND PUSH1 0xFF AND PUSH1 0xFF AND DUP2 MSTORE PUSH1 0x20 ADD SWAP1 DUP2 MSTORE PUSH1 0x20 ADD PUSH0 KECCAK256 SLOAD DUP4 PUSH8 0xDE0B6B3A7640000 DUP8 PUSH2 0x1770 SWAP2 SWAP1 PUSH2 0x275F JUMP JUMPDEST PUSH2 0x177A SWAP2 SWAP1 PUSH2 0x27CD JUMP JUMPDEST PUSH2 0x1784 SWAP2 SWAP1 PUSH2 0x27CD JUMP JUMPDEST PUSH2 0x178E SWAP2 SWAP1 PUSH2 0x275F JUMP JUMPDEST SWAP1 POP PUSH2 0x17E8 JUMP JUMPDEST PUSH1 0x2 PUSH0 PUSH1 0x1 PUSH1 0x15 SWAP1 SLOAD SWAP1 PUSH2 0x100 EXP SWAP1 DIV PUSH1 0xFF AND PUSH1 0xFF AND PUSH1 0xFF AND DUP2 MSTORE PUSH1 0x20 ADD SWAP1 DUP2 MSTORE PUSH1 0x20 ADD PUSH0 KECCAK256 SLOAD DUP3 PUSH8 0xDE0B6B3A7640000 DUP7 PUSH2 0x17D1 SWAP2 SWAP1 PUSH2 0x275F JUMP JUMPDEST PUSH2 0x17DB SWAP2 SWAP1 PUSH2 0x27CD JUMP JUMPDEST PUSH2 0x17E5 SWAP2 SWAP1 PUSH2 0x27CD JUMP JUMPDEST SWAP1 POP JUMPDEST DUP1 SWAP3 POP POP POP SWAP3 SWAP2 POP POP JUMP JUMPDEST PUSH1 0x1 PUSH0 SWAP1 SLOAD SWAP1 PUSH2 0x100 EXP SWAP1 DIV PUSH20 0xFFFFFFFFFFFFFFFFFFFFFFFFFFFFFFFFFFFFFFFF AND PUSH20 0xFFFFFFFFFFFFFFFFFFFFFFFFFFFFFFFFFFFFFFFF AND CALLER PUSH20 0xFFFFFFFFFFFFFFFFFFFFFFFFFFFFFFFFFFFFFFFF AND EQ PUSH2 0x1882 JUMPI PUSH1 0x40 MLOAD PUSH32 0x8C379A000000000000000000000000000000000000000000000000000000000 DUP2 MSTORE PUSH1 0x4 ADD PUSH2 0x1879 SWAP1 PUSH2 0x2535 JUMP JUMPDEST PUSH1 0x40 MLOAD DUP1 SWAP2 SUB SWAP1 REVERT JUMPDEST PUSH0 PUSH20 0xFFFFFFFFFFFFFFFFFFFFFFFFFFFFFFFFFFFFFFFF AND DUP2 PUSH20 0xFFFFFFFFFFFFFFFFFFFFFFFFFFFFFFFFFFFFFFFF AND SUB PUSH2 0x18F0 JUMPI PUSH1 0x40 MLOAD PUSH32 0x8C379A000000000000000000000000000000000000000000000000000000000 DUP2 MSTORE PUSH1 0x4 ADD PUSH2 0x18E7 SWAP1 PUSH2 0x2847 JUMP JUMPDEST PUSH1 0x40 MLOAD DUP1 SWAP2 SUB SWAP1 REVERT JUMPDEST DUP1 PUSH20 0xFFFFFFFFFFFFFFFFFFFFFFFFFFFFFFFFFFFFFFFF AND PUSH2 0x8FC SELFBALANCE SWAP1 DUP2 ISZERO MUL SWAP1 PUSH1 0x40 MLOAD PUSH0 PUSH1 0x40 MLOAD DUP1 DUP4 SUB DUP2 DUP6 DUP9 DUP9 CALL SWAP4 POP POP POP POP ISZERO DUP1 ISZERO PUSH2 0x1933 JUMPI RETURNDATASIZE PUSH0 DUP1 RETURNDATACOPY RETURNDATASIZE PUSH0 REVERT JUMPDEST POP POP JUMP JUMPDEST PUSH0 PUSH1 0x8 PUSH0 PUSH1 0x7 PUSH0 DUP6 PUSH20 0xFFFFFFFFFFFFFFFFFFFFFFFFFFFFFFFFFFFFFFFF AND PUSH20 0xFFFFFFFFFFFFFFFFFFFFFFFFFFFFFFFFFFFFFFFF AND DUP2 MSTORE PUSH1 0x20 ADD SWAP1 DUP2 MSTORE PUSH1 0x20 ADD PUSH0 KECCAK256 SLOAD DUP2 MSTORE PUSH1 0x20 ADD SWAP1 DUP2 MSTORE PUSH1 0x20 ADD PUSH0 KECCAK256 PUSH1 0x1 ADD SLOAD SWAP1 POP SWAP2 SWAP1 POP JUMP JUMPDEST PUSH1 0x2 PUSH1 0x20 MSTORE DUP1 PUSH0 MSTORE PUSH1 0x40 PUSH0 KECCAK256 PUSH0 SWAP2 POP SWAP1 POP SLOAD DUP2 JUMP JUMPDEST DUP3 DUP1 SLOAD DUP3 DUP3 SSTORE SWAP1 PUSH0 MSTORE PUSH1 0x20 PUSH0 KECCAK256 SWAP1 PUSH1 0x4 MUL DUP2 ADD SWAP3 DUP3 ISZERO PUSH2 0x1A31 JUMPI PUSH0 MSTORE PUSH1 0x20 PUSH0 KECCAK256 SWAP2 PUSH1 0x4 MUL DUP3 ADD JUMPDEST DUP3 DUP2 GT ISZERO PUSH2 0x1A30 JUMPI DUP3 DUP3 PUSH0 DUP3 ADD SLOAD DUP2 PUSH0 ADD SSTORE PUSH1 0x1 DUP3 ADD SLOAD DUP2 PUSH1 0x1 ADD SSTORE PUSH1 0x2 DUP3 ADD SLOAD DUP2 PUSH1 0x2 ADD SSTORE PUSH1 0x3 DUP3 ADD PUSH0 SWAP1 SLOAD SWAP1 PUSH2 0x100 EXP SWAP1 DIV PUSH1 0xFF AND DUP2 PUSH1 0x3 ADD PUSH0 PUSH2 0x100 EXP DUP2 SLOAD DUP2 PUSH1 0xFF MUL NOT AND SWAP1 DUP4 PUSH1 0xFF AND MUL OR SWAP1 SSTORE POP POP POP SWAP2 PUSH1 0x4 ADD SWAP2 SWAP1 PUSH1 0x4 ADD SWAP1 PUSH2 0x19CD JUMP JUMPDEST JUMPDEST POP SWAP1 POP PUSH2 0x1A3E SWAP2 SWAP1 PUSH2 0x1AA6 JUMP JUMPDEST POP SWAP1 JUMP JUMPDEST PUSH1 0x40 MLOAD DUP1 PUSH1 0x80 ADD PUSH1 0x40 MSTORE DUP1 PUSH0 DUP2 MSTORE PUSH1 0x20 ADD PUSH0 DUP2 MSTORE PUSH1 0x20 ADD PUSH0 DUP2 MSTORE PUSH1 0x20 ADD PUSH0 PUSH1 0xFF AND DUP2 MSTORE POP SWAP1 JUMP JUMPDEST PUSH1 0x40 MLOAD DUP1 PUSH1 0x80 ADD PUSH1 0x40 MSTORE DUP1 PUSH0 PUSH20 0xFFFFFFFFFFFFFFFFFFFFFFFFFFFFFFFFFFFFFFFF AND DUP2 MSTORE PUSH1 0x20 ADD PUSH0 DUP2 MSTORE PUSH1 0x20 ADD PUSH0 ISZERO ISZERO DUP2 MSTORE PUSH1 0x20 ADD PUSH1 0x60 DUP2 MSTORE POP SWAP1 JUMP JUMPDEST JUMPDEST DUP1 DUP3 GT ISZERO PUSH2 0x1AE0 JUMPI PUSH0 DUP1 DUP3 ADD PUSH0 SWAP1 SSTORE PUSH1 0x1 DUP3 ADD PUSH0 SWAP1 SSTORE PUSH1 0x2 DUP3 ADD PUSH0 SWAP1 SSTORE PUSH1 0x3 DUP3 ADD PUSH0 PUSH2 0x100 EXP DUP2 SLOAD SWAP1 PUSH1 0xFF MUL NOT AND SWAP1 SSTORE POP PUSH1 0x4 ADD PUSH2 0x1AA7 JUMP JUMPDEST POP SWAP1 JUMP JUMPDEST PUSH0 DUP3 DUP3 MSTORE PUSH1 0x20 DUP3 ADD SWAP1 POP SWAP3 SWAP2 POP POP JUMP JUMPDEST PUSH32 0x53656E64206D6F726520424E4220746F20627579205450540000000000000000 PUSH0 DUP3 ADD MSTORE POP JUMP JUMPDEST PUSH0 PUSH2 0x1B28 PUSH1 0x18 DUP4 PUSH2 0x1AE4 JUMP JUMPDEST SWAP2 POP PUSH2 0x1B33 DUP3 PUSH2 0x1AF4 JUMP JUMPDEST PUSH1 0x20 DUP3 ADD SWAP1 POP SWAP2 SWAP1 POP JUMP JUMPDEST PUSH0 PUSH1 0x20 DUP3 ADD SWAP1 POP DUP2 DUP2 SUB PUSH0 DUP4 ADD MSTORE PUSH2 0x1B55 DUP2 PUSH2 0x1B1C JUMP JUMPDEST SWAP1 POP SWAP2 SWAP1 POP JUMP JUMPDEST PUSH0 DUP2 SWAP1 POP SWAP3 SWAP2 POP POP JUMP JUMPDEST POP JUMP JUMPDEST PUSH0 PUSH2 0x1B74 PUSH0 DUP4 PUSH2 0x1B5C JUMP JUMPDEST SWAP2 POP PUSH2 0x1B7F DUP3 PUSH2 0x1B66 JUMP JUMPDEST PUSH0 DUP3 ADD SWAP1 POP SWAP2 SWAP1 POP JUMP JUMPDEST PUSH0 PUSH2 0x1B93 DUP3 PUSH2 0x1B69 JUMP JUMPDEST SWAP2 POP DUP2 SWAP1 POP SWAP2 SWAP1 POP JUMP JUMPDEST PUSH32 0x5472616E73666572206661696C65640000000000000000000000000000000000 PUSH0 DUP3 ADD MSTORE POP JUMP JUMPDEST PUSH0 PUSH2 0x1BD1 PUSH1 0xF DUP4 PUSH2 0x1AE4 JUMP JUMPDEST SWAP2 POP PUSH2 0x1BDC DUP3 PUSH2 0x1B9D JUMP JUMPDEST PUSH1 0x20 DUP3 ADD SWAP1 POP SWAP2 SWAP1 POP JUMP JUMPDEST PUSH0 PUSH1 0x20 DUP3 ADD SWAP1 POP DUP2 DUP2 SUB PUSH0 DUP4 ADD MSTORE PUSH2 0x1BFE DUP2 PUSH2 0x1BC5 JUMP JUMPDEST SWAP1 POP SWAP2 SWAP1 POP JUMP JUMPDEST PUSH32 0x496E76616C69642064617461206C656E67746800000000000000000000000000 PUSH0 DUP3 ADD MSTORE POP JUMP JUMPDEST PUSH0 PUSH2 0x1C39 PUSH1 0x13 DUP4 PUSH2 0x1AE4 JUMP JUMPDEST SWAP2 POP PUSH2 0x1C44 DUP3 PUSH2 0x1C05 JUMP JUMPDEST PUSH1 0x20 DUP3 ADD SWAP1 POP SWAP2 SWAP1 POP JUMP JUMPDEST PUSH0 PUSH1 0x20 DUP3 ADD SWAP1 POP DUP2 DUP2 SUB PUSH0 DUP4 ADD MSTORE PUSH2 0x1C66 DUP2 PUSH2 0x1C2D JUMP JUMPDEST SWAP1 POP SWAP2 SWAP1 POP JUMP JUMPDEST PUSH0 PUSH1 0x40 MLOAD SWAP1 POP SWAP1 JUMP JUMPDEST PUSH0 DUP1 REVERT JUMPDEST PUSH0 DUP1 REVERT JUMPDEST PUSH0 DUP2 ISZERO ISZERO SWAP1 POP SWAP2 SWAP1 POP JUMP JUMPDEST PUSH2 0x1C92 DUP2 PUSH2 0x1C7E JUMP JUMPDEST DUP2 EQ PUSH2 0x1C9C JUMPI PUSH0 DUP1 REVERT JUMPDEST POP JUMP JUMPDEST PUSH0 DUP2 CALLDATALOAD SWAP1 POP PUSH2 0x1CAD DUP2 PUSH2 0x1C89 JUMP JUMPDEST SWAP3 SWAP2 POP POP JUMP JUMPDEST PUSH0 PUSH1 0x20 DUP3 DUP5 SUB SLT ISZERO PUSH2 0x1CC8 JUMPI PUSH2 0x1CC7 PUSH2 0x1C76 JUMP JUMPDEST JUMPDEST PUSH0 PUSH2 0x1CD5 DUP5 DUP3 DUP6 ADD PUSH2 0x1C9F JUMP JUMPDEST SWAP2 POP POP SWAP3 SWAP2 POP POP JUMP JUMPDEST PUSH32 0x73656E64206A75737420657175616C20302E303520626E620000000000000000 PUSH0 DUP3 ADD MSTORE POP JUMP JUMPDEST PUSH0 PUSH2 0x1D12 PUSH1 0x18 DUP4 PUSH2 0x1AE4 JUMP JUMPDEST SWAP2 POP PUSH2 0x1D1D DUP3 PUSH2 0x1CDE JUMP JUMPDEST PUSH1 0x20 DUP3 ADD SWAP1 POP SWAP2 SWAP1 POP JUMP JUMPDEST PUSH0 PUSH1 0x20 DUP3 ADD SWAP1 POP DUP2 DUP2 SUB PUSH0 DUP4 ADD MSTORE PUSH2 0x1D3F DUP2 PUSH2 0x1D06 JUMP JUMPDEST SWAP1 POP SWAP2 SWAP1 POP JUMP JUMPDEST PUSH0 PUSH20 0xFFFFFFFFFFFFFFFFFFFFFFFFFFFFFFFFFFFFFFFF DUP3 AND SWAP1 POP SWAP2 SWAP1 POP JUMP JUMPDEST PUSH0 PUSH2 0x1D6F DUP3 PUSH2 0x1D46 JUMP JUMPDEST SWAP1 POP SWAP2 SWAP1 POP JUMP JUMPDEST PUSH2 0x1D7F DUP2 PUSH2 0x1D65 JUMP JUMPDEST DUP2 EQ PUSH2 0x1D89 JUMPI PUSH0 DUP1 REVERT JUMPDEST POP JUMP JUMPDEST PUSH0 DUP2 CALLDATALOAD SWAP1 POP PUSH2 0x1D9A DUP2 PUSH2 0x1D76 JUMP JUMPDEST SWAP3 SWAP2 POP POP JUMP JUMPDEST PUSH0 DUP2 SWAP1 POP SWAP2 SWAP1 POP JUMP JUMPDEST PUSH2 0x1DB2 DUP2 PUSH2 0x1DA0 JUMP JUMPDEST DUP2 EQ PUSH2 0x1DBC JUMPI PUSH0 DUP1 REVERT JUMPDEST POP JUMP JUMPDEST PUSH0 DUP2 CALLDATALOAD SWAP1 POP PUSH2 0x1DCD DUP2 PUSH2 0x1DA9 JUMP JUMPDEST SWAP3 SWAP2 POP POP JUMP JUMPDEST PUSH0 DUP1 PUSH1 0x40 DUP4 DUP6 SUB SLT ISZERO PUSH2 0x1DE9 JUMPI PUSH2 0x1DE8 PUSH2 0x1C76 JUMP JUMPDEST JUMPDEST PUSH0 PUSH2 0x1DF6 DUP6 DUP3 DUP7 ADD PUSH2 0x1D8C JUMP JUMPDEST SWAP3 POP POP PUSH1 0x20 PUSH2 0x1E07 DUP6 DUP3 DUP7 ADD PUSH2 0x1DBF JUMP JUMPDEST SWAP2 POP POP SWAP3 POP SWAP3 SWAP1 POP JUMP JUMPDEST PUSH2 0x1E1A DUP2 PUSH2 0x1DA0 JUMP JUMPDEST DUP3 MSTORE POP POP JUMP JUMPDEST PUSH0 PUSH1 0xFF DUP3 AND SWAP1 POP SWAP2 SWAP1 POP JUMP JUMPDEST PUSH2 0x1E35 DUP2 PUSH2 0x1E20 JUMP JUMPDEST DUP3 MSTORE POP POP JUMP JUMPDEST PUSH1 0x80 DUP3 ADD PUSH0 DUP3 ADD MLOAD PUSH2 0x1E4F PUSH0 DUP6 ADD DUP3 PUSH2 0x1E11 JUMP JUMPDEST POP PUSH1 0x20 DUP3 ADD MLOAD PUSH2 0x1E62 PUSH1 0x20 DUP6 ADD DUP3 PUSH2 0x1E11 JUMP JUMPDEST POP PUSH1 0x40 DUP3 ADD MLOAD PUSH2 0x1E75 PUSH1 0x40 DUP6 ADD DUP3 PUSH2 0x1E11 JUMP JUMPDEST POP PUSH1 0x60 DUP3 ADD MLOAD PUSH2 0x1E88 PUSH1 0x60 DUP6 ADD DUP3 PUSH2 0x1E2C JUMP JUMPDEST POP POP POP POP JUMP JUMPDEST PUSH0 PUSH1 0x80 DUP3 ADD SWAP1 POP PUSH2 0x1EA1 PUSH0 DUP4 ADD DUP5 PUSH2 0x1E3B JUMP JUMPDEST SWAP3 SWAP2 POP POP JUMP JUMPDEST PUSH0 PUSH1 0x20 DUP3 DUP5 SUB SLT ISZERO PUSH2 0x1EBC JUMPI PUSH2 0x1EBB PUSH2 0x1C76 JUMP JUMPDEST JUMPDEST PUSH0 PUSH2 0x1EC9 DUP5 DUP3 DUP6 ADD PUSH2 0x1D8C JUMP JUMPDEST SWAP2 POP POP SWAP3 SWAP2 POP POP JUMP JUMPDEST PUSH2 0x1EDB DUP2 PUSH2 0x1DA0 JUMP JUMPDEST DUP3 MSTORE POP POP JUMP JUMPDEST PUSH0 PUSH1 0x20 DUP3 ADD SWAP1 POP PUSH2 0x1EF4 PUSH0 DUP4 ADD DUP5 PUSH2 0x1ED2 JUMP JUMPDEST SWAP3 SWAP2 POP POP JUMP JUMPDEST PUSH0 DUP2 MLOAD SWAP1 POP SWAP2 SWAP1 POP JUMP JUMPDEST PUSH0 JUMPDEST DUP4 DUP2 LT ISZERO PUSH2 0x1F21 JUMPI DUP1 DUP3 ADD MLOAD DUP2 DUP5 ADD MSTORE PUSH1 0x20 DUP2 ADD SWAP1 POP PUSH2 0x1F06 JUMP JUMPDEST PUSH0 DUP5 DUP5 ADD MSTORE POP POP POP POP JUMP JUMPDEST PUSH0 PUSH1 0x1F NOT PUSH1 0x1F DUP4 ADD AND SWAP1 POP SWAP2 SWAP1 POP JUMP JUMPDEST PUSH0 PUSH2 0x1F46 DUP3 PUSH2 0x1EFA JUMP JUMPDEST PUSH2 0x1F50 DUP2 DUP6 PUSH2 0x1AE4 JUMP JUMPDEST SWAP4 POP PUSH2 0x1F60 DUP2 DUP6 PUSH1 0x20 DUP7 ADD PUSH2 0x1F04 JUMP JUMPDEST PUSH2 0x1F69 DUP2 PUSH2 0x1F2C JUMP JUMPDEST DUP5 ADD SWAP2 POP POP SWAP3 SWAP2 POP POP JUMP JUMPDEST PUSH0 PUSH1 0x20 DUP3 ADD SWAP1 POP DUP2 DUP2 SUB PUSH0 DUP4 ADD MSTORE PUSH2 0x1F8C DUP2 DUP5 PUSH2 0x1F3C JUMP JUMPDEST SWAP1 POP SWAP3 SWAP2 POP POP JUMP JUMPDEST PUSH0 PUSH2 0x1F9E DUP3 PUSH2 0x1D46 JUMP JUMPDEST SWAP1 POP SWAP2 SWAP1 POP JUMP JUMPDEST PUSH2 0x1FAE DUP2 PUSH2 0x1F94 JUMP JUMPDEST DUP2 EQ PUSH2 0x1FB8 JUMPI PUSH0 DUP1 REVERT JUMPDEST POP JUMP JUMPDEST PUSH0 DUP2 CALLDATALOAD SWAP1 POP PUSH2 0x1FC9 DUP2 PUSH2 0x1FA5 JUMP JUMPDEST SWAP3 SWAP2 POP POP JUMP JUMPDEST PUSH0 PUSH1 0x20 DUP3 DUP5 SUB SLT ISZERO PUSH2 0x1FE4 JUMPI PUSH2 0x1FE3 PUSH2 0x1C76 JUMP JUMPDEST JUMPDEST PUSH0 PUSH2 0x1FF1 DUP5 DUP3 DUP6 ADD PUSH2 0x1FBB JUMP JUMPDEST SWAP2 POP POP SWAP3 SWAP2 POP POP JUMP JUMPDEST PUSH0 PUSH1 0x20 DUP3 DUP5 SUB SLT ISZERO PUSH2 0x200F JUMPI PUSH2 0x200E PUSH2 0x1C76 JUMP JUMPDEST JUMPDEST PUSH0 PUSH2 0x201C DUP5 DUP3 DUP6 ADD PUSH2 0x1DBF JUMP JUMPDEST SWAP2 POP POP SWAP3 SWAP2 POP POP JUMP JUMPDEST PUSH2 0x202E DUP2 PUSH2 0x1D65 JUMP JUMPDEST DUP3 MSTORE POP POP JUMP JUMPDEST PUSH2 0x203D DUP2 PUSH2 0x1C7E JUMP JUMPDEST DUP3 MSTORE POP POP JUMP JUMPDEST PUSH0 DUP2 MLOAD SWAP1 POP SWAP2 SWAP1 POP JUMP JUMPDEST PUSH0 DUP3 DUP3 MSTORE PUSH1 0x20 DUP3 ADD SWAP1 POP SWAP3 SWAP2 POP POP JUMP JUMPDEST PUSH0 DUP2 SWAP1 POP PUSH1 0x20 DUP3 ADD SWAP1 POP SWAP2 SWAP1 POP JUMP JUMPDEST PUSH1 0x80 DUP3 ADD PUSH0 DUP3 ADD MLOAD PUSH2 0x2080 PUSH0 DUP6 ADD DUP3 PUSH2 0x1E11 JUMP JUMPDEST POP PUSH1 0x20 DUP3 ADD MLOAD PUSH2 0x2093 PUSH1 0x20 DUP6 ADD DUP3 PUSH2 0x1E11 JUMP JUMPDEST POP PUSH1 0x40 DUP3 ADD MLOAD PUSH2 0x20A6 PUSH1 0x40 DUP6 ADD DUP3 PUSH2 0x1E11 JUMP JUMPDEST POP PUSH1 0x60 DUP3 ADD MLOAD PUSH2 0x20B9 PUSH1 0x60 DUP6 ADD DUP3 PUSH2 0x1E2C JUMP JUMPDEST POP POP POP POP JUMP JUMPDEST PUSH0 PUSH2 0x20CA DUP4 DUP4 PUSH2 0x206C JUMP JUMPDEST PUSH1 0x80 DUP4 ADD SWAP1 POP SWAP3 SWAP2 POP POP JUMP JUMPDEST PUSH0 PUSH1 0x20 DUP3 ADD SWAP1 POP SWAP2 SWAP1 POP JUMP JUMPDEST PUSH0 PUSH2 0x20EC DUP3 PUSH2 0x2043 JUMP JUMPDEST PUSH2 0x20F6 DUP2 DUP6 PUSH2 0x204D JUMP JUMPDEST SWAP4 POP PUSH2 0x2101 DUP4 PUSH2 0x205D JUMP JUMPDEST DUP1 PUSH0 JUMPDEST DUP4 DUP2 LT ISZERO PUSH2 0x2131 JUMPI DUP2 MLOAD PUSH2 0x2118 DUP9 DUP3 PUSH2 0x20BF JUMP JUMPDEST SWAP8 POP PUSH2 0x2123 DUP4 PUSH2 0x20D6 JUMP JUMPDEST SWAP3 POP POP PUSH1 0x1 DUP2 ADD SWAP1 POP PUSH2 0x2104 JUMP JUMPDEST POP DUP6 SWAP4 POP POP POP POP SWAP3 SWAP2 POP POP JUMP JUMPDEST PUSH0 PUSH1 0x80 DUP4 ADD PUSH0 DUP4 ADD MLOAD PUSH2 0x2153 PUSH0 DUP7 ADD DUP3 PUSH2 0x2025 JUMP JUMPDEST POP PUSH1 0x20 DUP4 ADD MLOAD PUSH2 0x2166 PUSH1 0x20 DUP7 ADD DUP3 PUSH2 0x1E11 JUMP JUMPDEST POP PUSH1 0x40 DUP4 ADD MLOAD PUSH2 0x2179 PUSH1 0x40 DUP7 ADD DUP3 PUSH2 0x2034 JUMP JUMPDEST POP PUSH1 0x60 DUP4 ADD MLOAD DUP5 DUP3 SUB PUSH1 0x60 DUP7 ADD MSTORE PUSH2 0x2191 DUP3 DUP3 PUSH2 0x20E2 JUMP JUMPDEST SWAP2 POP POP DUP1 SWAP2 POP POP SWAP3 SWAP2 POP POP JUMP JUMPDEST PUSH0 PUSH1 0x20 DUP3 ADD SWAP1 POP DUP2 DUP2 SUB PUSH0 DUP4 ADD MSTORE PUSH2 0x21B6 DUP2 DUP5 PUSH2 0x213E JUMP JUMPDEST SWAP1 POP SWAP3 SWAP2 POP POP JUMP JUMPDEST PUSH2 0x21C7 DUP2 PUSH2 0x1E20 JUMP JUMPDEST DUP2 EQ PUSH2 0x21D1 JUMPI PUSH0 DUP1 REVERT JUMPDEST POP JUMP JUMPDEST PUSH0 DUP2 CALLDATALOAD SWAP1 POP PUSH2 0x21E2 DUP2 PUSH2 0x21BE JUMP JUMPDEST SWAP3 SWAP2 POP POP JUMP JUMPDEST PUSH0 PUSH1 0x20 DUP3 DUP5 SUB SLT ISZERO PUSH2 0x21FD JUMPI PUSH2 0x21FC PUSH2 0x1C76 JUMP JUMPDEST JUMPDEST PUSH0 PUSH2 0x220A DUP5 DUP3 DUP6 ADD PUSH2 0x21D4 JUMP JUMPDEST SWAP2 POP POP SWAP3 SWAP2 POP POP JUMP JUMPDEST PUSH2 0x221C DUP2 PUSH2 0x1F94 JUMP JUMPDEST DUP3 MSTORE POP POP JUMP JUMPDEST PUSH0 PUSH1 0x20 DUP3 ADD SWAP1 POP PUSH2 0x2235 PUSH0 DUP4 ADD DUP5 PUSH2 0x2213 JUMP JUMPDEST SWAP3 SWAP2 POP POP JUMP JUMPDEST PUSH0 DUP1 PUSH1 0x40 DUP4 DUP6 SUB SLT ISZERO PUSH2 0x2251 JUMPI PUSH2 0x2250 PUSH2 0x1C76 JUMP JUMPDEST JUMPDEST PUSH0 PUSH2 0x225E DUP6 DUP3 DUP7 ADD PUSH2 0x21D4 JUMP JUMPDEST SWAP3 POP POP PUSH1 0x20 PUSH2 0x226F DUP6 DUP3 DUP7 ADD PUSH2 0x1DBF JUMP JUMPDEST SWAP2 POP POP SWAP3 POP SWAP3 SWAP1 POP JUMP JUMPDEST PUSH2 0x2282 DUP2 PUSH2 0x1E20 JUMP JUMPDEST DUP3 MSTORE POP POP JUMP JUMPDEST PUSH0 PUSH1 0x20 DUP3 ADD SWAP1 POP PUSH2 0x229B PUSH0 DUP4 ADD DUP5 PUSH2 0x2279 JUMP JUMPDEST SWAP3 SWAP2 POP POP JUMP JUMPDEST PUSH0 DUP1 PUSH1 0x40 DUP4 DUP6 SUB SLT ISZERO PUSH2 0x22B7 JUMPI PUSH2 0x22B6 PUSH2 0x1C76 JUMP JUMPDEST JUMPDEST PUSH0 PUSH2 0x22C4 DUP6 DUP3 DUP7 ADD PUSH2 0x1C9F JUMP JUMPDEST SWAP3 POP POP PUSH1 0x20 PUSH2 0x22D5 DUP6 DUP3 DUP7 ADD PUSH2 0x1DBF JUMP JUMPDEST SWAP2 POP POP SWAP3 POP SWAP3 SWAP1 POP JUMP JUMPDEST PUSH32 0x436F6E7472616374205061757365640000000000000000000000000000000000 PUSH0 DUP3 ADD MSTORE POP JUMP JUMPDEST PUSH0 PUSH2 0x2313 PUSH1 0xF DUP4 PUSH2 0x1AE4 JUMP JUMPDEST SWAP2 POP PUSH2 0x231E DUP3 PUSH2 0x22DF JUMP JUMPDEST PUSH1 0x20 DUP3 ADD SWAP1 POP SWAP2 SWAP1 POP JUMP JUMPDEST PUSH0 PUSH1 0x20 DUP3 ADD SWAP1 POP DUP2 DUP2 SUB PUSH0 DUP4 ADD MSTORE PUSH2 0x2340 DUP2 PUSH2 0x2307 JUMP JUMPDEST SWAP1 POP SWAP2 SWAP1 POP JUMP JUMPDEST PUSH32 0x4E6F205265656E7472616E63792C706C73207761697400000000000000000000 PUSH0 DUP3 ADD MSTORE POP JUMP JUMPDEST PUSH0 PUSH2 0x237B PUSH1 0x16 DUP4 PUSH2 0x1AE4 JUMP JUMPDEST SWAP2 POP PUSH2 0x2386 DUP3 PUSH2 0x2347 JUMP JUMPDEST PUSH1 0x20 DUP3 ADD SWAP1 POP SWAP2 SWAP1 POP JUMP JUMPDEST PUSH0 PUSH1 0x20 DUP3 ADD SWAP1 POP DUP2 DUP2 SUB PUSH0 DUP4 ADD MSTORE PUSH2 0x23A8 DUP2 PUSH2 0x236F JUMP JUMPDEST SWAP1 POP SWAP2 SWAP1 POP JUMP JUMPDEST PUSH32 0x4E487B7100000000000000000000000000000000000000000000000000000000 PUSH0 MSTORE PUSH1 0x11 PUSH1 0x4 MSTORE PUSH1 0x24 PUSH0 REVERT JUMPDEST PUSH0 PUSH2 0x23E6 DUP3 PUSH2 0x1DA0 JUMP JUMPDEST SWAP2 POP PUSH32 0xFFFFFFFFFFFFFFFFFFFFFFFFFFFFFFFFFFFFFFFFFFFFFFFFFFFFFFFFFFFFFFFF DUP3 SUB PUSH2 0x2418 JUMPI PUSH2 0x2417 PUSH2 0x23AF JUMP JUMPDEST JUMPDEST PUSH1 0x1 DUP3 ADD SWAP1 POP SWAP2 SWAP1 POP JUMP JUMPDEST PUSH32 0x6E6F206F66666572206D6F726500000000000000000000000000000000000000 PUSH0 DUP3 ADD MSTORE POP JUMP JUMPDEST PUSH0 PUSH2 0x2457 PUSH1 0xD DUP4 PUSH2 0x1AE4 JUMP JUMPDEST SWAP2 POP PUSH2 0x2462 DUP3 PUSH2 0x2423 JUMP JUMPDEST PUSH1 0x20 DUP3 ADD SWAP1 POP SWAP2 SWAP1 POP JUMP JUMPDEST PUSH0 PUSH1 0x20 DUP3 ADD SWAP1 POP DUP2 DUP2 SUB PUSH0 DUP4 ADD MSTORE PUSH2 0x2484 DUP2 PUSH2 0x244B JUMP JUMPDEST SWAP1 POP SWAP2 SWAP1 POP JUMP JUMPDEST PUSH0 PUSH2 0x2495 DUP3 PUSH2 0x1DA0 JUMP JUMPDEST SWAP2 POP PUSH2 0x24A0 DUP4 PUSH2 0x1DA0 JUMP JUMPDEST SWAP3 POP DUP3 DUP3 ADD SWAP1 POP DUP1 DUP3 GT ISZERO PUSH2 0x24B8 JUMPI PUSH2 0x24B7 PUSH2 0x23AF JUMP JUMPDEST JUMPDEST SWAP3 SWAP2 POP POP JUMP JUMPDEST PUSH32 0x4E487B7100000000000000000000000000000000000000000000000000000000 PUSH0 MSTORE PUSH1 0x32 PUSH1 0x4 MSTORE PUSH1 0x24 PUSH0 REVERT JUMPDEST PUSH32 0x4F6E6C79206F776E657200000000000000000000000000000000000000000000 PUSH0 DUP3 ADD MSTORE POP JUMP JUMPDEST PUSH0 PUSH2 0x251F PUSH1 0xA DUP4 PUSH2 0x1AE4 JUMP JUMPDEST SWAP2 POP PUSH2 0x252A DUP3 PUSH2 0x24EB JUMP JUMPDEST PUSH1 0x20 DUP3 ADD SWAP1 POP SWAP2 SWAP1 POP JUMP JUMPDEST PUSH0 PUSH1 0x20 DUP3 ADD SWAP1 POP DUP2 DUP2 SUB PUSH0 DUP4 ADD MSTORE PUSH2 0x254C DUP2 PUSH2 0x2513 JUMP JUMPDEST SWAP1 POP SWAP2 SWAP1 POP JUMP JUMPDEST PUSH0 DUP1 REVERT JUMPDEST PUSH0 DUP1 REVERT JUMPDEST PUSH32 0x4E487B7100000000000000000000000000000000000000000000000000000000 PUSH0 MSTORE PUSH1 0x41 PUSH1 0x4 MSTORE PUSH1 0x24 PUSH0 REVERT JUMPDEST PUSH2 0x2591 DUP3 PUSH2 0x1F2C JUMP JUMPDEST DUP2 ADD DUP2 DUP2 LT PUSH8 0xFFFFFFFFFFFFFFFF DUP3 GT OR ISZERO PUSH2 0x25B0 JUMPI PUSH2 0x25AF PUSH2 0x255B JUMP JUMPDEST JUMPDEST DUP1 PUSH1 0x40 MSTORE POP POP POP JUMP JUMPDEST PUSH0 PUSH2 0x25C2 PUSH2 0x1C6D JUMP JUMPDEST SWAP1 POP PUSH2 0x25CE DUP3 DUP3 PUSH2 0x2588 JUMP JUMPDEST SWAP2 SWAP1 POP JUMP JUMPDEST PUSH0 PUSH8 0xFFFFFFFFFFFFFFFF DUP3 GT ISZERO PUSH2 0x25ED JUMPI PUSH2 0x25EC PUSH2 0x255B JUMP JUMPDEST JUMPDEST PUSH2 0x25F6 DUP3 PUSH2 0x1F2C JUMP JUMPDEST SWAP1 POP PUSH1 0x20 DUP2 ADD SWAP1 POP SWAP2 SWAP1 POP JUMP JUMPDEST PUSH0 PUSH2 0x2615 PUSH2 0x2610 DUP5 PUSH2 0x25D3 JUMP JUMPDEST PUSH2 0x25B9 JUMP JUMPDEST SWAP1 POP DUP3 DUP2 MSTORE PUSH1 0x20 DUP2 ADD DUP5 DUP5 DUP5 ADD GT ISZERO PUSH2 0x2631 JUMPI PUSH2 0x2630 PUSH2 0x2557 JUMP JUMPDEST JUMPDEST PUSH2 0x263C DUP5 DUP3 DUP6 PUSH2 0x1F04 JUMP JUMPDEST POP SWAP4 SWAP3 POP POP POP JUMP JUMPDEST PUSH0 DUP3 PUSH1 0x1F DUP4 ADD SLT PUSH2 0x2658 JUMPI PUSH2 0x2657 PUSH2 0x2553 JUMP JUMPDEST JUMPDEST DUP2 MLOAD PUSH2 0x2668 DUP5 DUP3 PUSH1 0x20 DUP7 ADD PUSH2 0x2603 JUMP JUMPDEST SWAP2 POP POP SWAP3 SWAP2 POP POP JUMP JUMPDEST PUSH0 PUSH1 0x20 DUP3 DUP5 SUB SLT ISZERO PUSH2 0x2686 JUMPI PUSH2 0x2685 PUSH2 0x1C76 JUMP JUMPDEST JUMPDEST PUSH0 DUP3 ADD MLOAD PUSH8 0xFFFFFFFFFFFFFFFF DUP2 GT ISZERO PUSH2 0x26A3 JUMPI PUSH2 0x26A2 PUSH2 0x1C7A JUMP JUMPDEST JUMPDEST PUSH2 0x26AF DUP5 DUP3 DUP6 ADD PUSH2 0x2644 JUMP JUMPDEST SWAP2 POP POP SWAP3 SWAP2 POP POP JUMP JUMPDEST PUSH32 0x6D696E2073686F756C64206265206D6F7265207468616E207461780000000000 PUSH0 DUP3 ADD MSTORE POP JUMP JUMPDEST PUSH0 PUSH2 0x26EC PUSH1 0x1B DUP4 PUSH2 0x1AE4 JUMP JUMPDEST SWAP2 POP PUSH2 0x26F7 DUP3 PUSH2 0x26B8 JUMP JUMPDEST PUSH1 0x20 DUP3 ADD SWAP1 POP SWAP2 SWAP1 POP JUMP JUMPDEST PUSH0 PUSH1 0x20 DUP3 ADD SWAP1 POP DUP2 DUP2 SUB PUSH0 DUP4 ADD MSTORE PUSH2 0x2719 DUP2 PUSH2 0x26E0 JUMP JUMPDEST SWAP1 POP SWAP2 SWAP1 POP JUMP JUMPDEST PUSH0 DUP2 MLOAD SWAP1 POP PUSH2 0x272E DUP2 PUSH2 0x1DA9 JUMP JUMPDEST SWAP3 SWAP2 POP POP JUMP JUMPDEST PUSH0 PUSH1 0x20 DUP3 DUP5 SUB SLT ISZERO PUSH2 0x2749 JUMPI PUSH2 0x2748 PUSH2 0x1C76 JUMP JUMPDEST JUMPDEST PUSH0 PUSH2 0x2756 DUP5 DUP3 DUP6 ADD PUSH2 0x2720 JUMP JUMPDEST SWAP2 POP POP SWAP3 SWAP2 POP POP JUMP JUMPDEST PUSH0 PUSH2 0x2769 DUP3 PUSH2 0x1DA0 JUMP JUMPDEST SWAP2 POP PUSH2 0x2774 DUP4 PUSH2 0x1DA0 JUMP JUMPDEST SWAP3 POP DUP3 DUP3 MUL PUSH2 0x2782 DUP2 PUSH2 0x1DA0 JUMP JUMPDEST SWAP2 POP DUP3 DUP3 DIV DUP5 EQ DUP4 ISZERO OR PUSH2 0x2799 JUMPI PUSH2 0x2798 PUSH2 0x23AF JUMP JUMPDEST JUMPDEST POP SWAP3 SWAP2 POP POP JUMP JUMPDEST PUSH32 0x4E487B7100000000000000000000000000000000000000000000000000000000 PUSH0 MSTORE PUSH1 0x12 PUSH1 0x4 MSTORE PUSH1 0x24 PUSH0 REVERT JUMPDEST PUSH0 PUSH2 0x27D7 DUP3 PUSH2 0x1DA0 JUMP JUMPDEST SWAP2 POP PUSH2 0x27E2 DUP4 PUSH2 0x1DA0 JUMP JUMPDEST SWAP3 POP DUP3 PUSH2 0x27F2 JUMPI PUSH2 0x27F1 PUSH2 0x27A0 JUMP JUMPDEST JUMPDEST DUP3 DUP3 DIV SWAP1 POP SWAP3 SWAP2 POP POP JUMP JUMPDEST PUSH32 0x496E76616C696420616464726573730000000000000000000000000000000000 PUSH0 DUP3 ADD MSTORE POP JUMP JUMPDEST PUSH0 PUSH2 0x2831 PUSH1 0xF DUP4 PUSH2 0x1AE4 JUMP JUMPDEST SWAP2 POP PUSH2 0x283C DUP3 PUSH2 0x27FD JUMP JUMPDEST PUSH1 0x20 DUP3 ADD SWAP1 POP SWAP2 SWAP1 POP JUMP JUMPDEST PUSH0 PUSH1 0x20 DUP3 ADD SWAP1 POP DUP2 DUP2 SUB PUSH0 DUP4 ADD MSTORE PUSH2 0x285E DUP2 PUSH2 0x2825 JUMP JUMPDEST SWAP1 POP SWAP2 SWAP1 POP JUMP INVALID LOG2 PUSH5 0x6970667358 0x22 SLT KECCAK256 PUSH16 0x70228FBAB3D3E96E5F834C09567F343D PUSH31 0xBC72D579F860F2E30582EE08DE7064736F6C63430008180033000000000000 "
				},
				"gasEstimates": {
					"creation": {
						"codeDepositCost": "2079000",
						"executionCost": "infinite",
						"totalCost": "infinite"
					},
					"external": {
						"": "infinite",
						"calcAmount(bool,uint256)": "infinite",
						"chaneOwner(address)": "26907",
						"getPriceMode()": "infinite",
						"getPurchase(address,uint256)": "infinite",
						"getPurchaseCount(address)": "5087",
						"getThisStepPrice()": "4751",
						"getUserById(uint256)": "infinite",
						"getUserId(address)": "2875",
						"getUserTPTBalance(address)": "5099",
						"owner()": "2531",
						"setBNBPriceAddress(address)": "26973",
						"setMinRequire(uint256)": "26921",
						"setPriceMode()": "infinite",
						"setTPTPrice(uint8,uint256)": "24994",
						"setThisStep(uint8)": "27004",
						"thisStep()": "2584",
						"totalPurchase()": "2514",
						"totalUsers()": "2447",
						"tptStepPrice(uint8)": "2870",
						"withdrawAll(address)": "infinite"
					},
					"internal": {
						"buyTPT(bool)": "infinite"
					}
				},
				"methodIdentifiers": {
					"calcAmount(bool,uint256)": "cb722d11",
					"chaneOwner(address)": "5f1276a7",
					"getPriceMode()": "54eb7ebe",
					"getPurchase(address,uint256)": "2a2a92cc",
					"getPurchaseCount(address)": "31bbf555",
					"getThisStepPrice()": "672cbe1a",
					"getUserById(uint256)": "6ed6da9e",
					"getUserId(address)": "2b956ff7",
					"getUserTPTBalance(address)": "fdbb6696",
					"owner()": "8da5cb5b",
					"setBNBPriceAddress(address)": "af6b5558",
					"setMinRequire(uint256)": "b76bdf06",
					"setPriceMode()": "487cb6b0",
					"setTPTPrice(uint8,uint256)": "a2f5546e",
					"setThisStep(uint8)": "7ce8a08e",
					"thisStep()": "ae243031",
					"totalPurchase()": "7b2581c2",
					"totalUsers()": "bff1f9e1",
					"tptStepPrice(uint8)": "ffbe653d",
					"withdrawAll(address)": "fa09e630"
				}
			},
			"storageLayout": {
				"storage": [
					{
						"astId": 42,
						"contract": "contracts/TPTPreSale_flattened.sol:TPTPreSale",
						"label": "priceContract",
						"offset": 0,
						"slot": "0",
						"type": "t_address_payable"
					},
					{
						"astId": 44,
						"contract": "contracts/TPTPreSale_flattened.sol:TPTPreSale",
						"label": "owner",
						"offset": 0,
						"slot": "1",
						"type": "t_address_payable"
					},
					{
						"astId": 46,
						"contract": "contracts/TPTPreSale_flattened.sol:TPTPreSale",
						"label": "locked",
						"offset": 20,
						"slot": "1",
						"type": "t_bool"
					},
					{
						"astId": 48,
						"contract": "contracts/TPTPreSale_flattened.sol:TPTPreSale",
						"label": "thisStep",
						"offset": 21,
						"slot": "1",
						"type": "t_uint8"
					},
					{
						"astId": 52,
						"contract": "contracts/TPTPreSale_flattened.sol:TPTPreSale",
						"label": "tptStepPrice",
						"offset": 0,
						"slot": "2",
						"type": "t_mapping(t_uint8,t_uint256)"
					},
					{
						"astId": 54,
						"contract": "contracts/TPTPreSale_flattened.sol:TPTPreSale",
						"label": "getPriceTax",
						"offset": 0,
						"slot": "3",
						"type": "t_uint256"
					},
					{
						"astId": 56,
						"contract": "contracts/TPTPreSale_flattened.sol:TPTPreSale",
						"label": "minRequire",
						"offset": 0,
						"slot": "4",
						"type": "t_uint256"
					},
					{
						"astId": 58,
						"contract": "contracts/TPTPreSale_flattened.sol:TPTPreSale",
						"label": "totalUsers",
						"offset": 0,
						"slot": "5",
						"type": "t_uint256"
					},
					{
						"astId": 60,
						"contract": "contracts/TPTPreSale_flattened.sol:TPTPreSale",
						"label": "totalPurchase",
						"offset": 0,
						"slot": "6",
						"type": "t_uint256"
					},
					{
						"astId": 84,
						"contract": "contracts/TPTPreSale_flattened.sol:TPTPreSale",
						"label": "userId",
						"offset": 0,
						"slot": "7",
						"type": "t_mapping(t_address,t_uint256)"
					},
					{
						"astId": 89,
						"contract": "contracts/TPTPreSale_flattened.sol:TPTPreSale",
						"label": "users",
						"offset": 0,
						"slot": "8",
						"type": "t_mapping(t_uint256,t_struct(UserInfo)80_storage)"
					}
				],
				"types": {
					"t_address": {
						"encoding": "inplace",
						"label": "address",
						"numberOfBytes": "20"
					},
					"t_address_payable": {
						"encoding": "inplace",
						"label": "address payable",
						"numberOfBytes": "20"
					},
					"t_array(t_struct(Purchase)69_storage)dyn_storage": {
						"base": "t_struct(Purchase)69_storage",
						"encoding": "dynamic_array",
						"label": "struct TPTPreSale.Purchase[]",
						"numberOfBytes": "32"
					},
					"t_bool": {
						"encoding": "inplace",
						"label": "bool",
						"numberOfBytes": "1"
					},
					"t_mapping(t_address,t_uint256)": {
						"encoding": "mapping",
						"key": "t_address",
						"label": "mapping(address => uint256)",
						"numberOfBytes": "32",
						"value": "t_uint256"
					},
					"t_mapping(t_uint256,t_struct(UserInfo)80_storage)": {
						"encoding": "mapping",
						"key": "t_uint256",
						"label": "mapping(uint256 => struct TPTPreSale.UserInfo)",
						"numberOfBytes": "32",
						"value": "t_struct(UserInfo)80_storage"
					},
					"t_mapping(t_uint8,t_uint256)": {
						"encoding": "mapping",
						"key": "t_uint8",
						"label": "mapping(uint8 => uint256)",
						"numberOfBytes": "32",
						"value": "t_uint256"
					},
					"t_struct(Purchase)69_storage": {
						"encoding": "inplace",
						"label": "struct TPTPreSale.Purchase",
						"members": [
							{
								"astId": 62,
								"contract": "contracts/TPTPreSale_flattened.sol:TPTPreSale",
								"label": "timestamp",
								"offset": 0,
								"slot": "0",
								"type": "t_uint256"
							},
							{
								"astId": 64,
								"contract": "contracts/TPTPreSale_flattened.sol:TPTPreSale",
								"label": "bnbAmount",
								"offset": 0,
								"slot": "1",
								"type": "t_uint256"
							},
							{
								"astId": 66,
								"contract": "contracts/TPTPreSale_flattened.sol:TPTPreSale",
								"label": "tptAmount",
								"offset": 0,
								"slot": "2",
								"type": "t_uint256"
							},
							{
								"astId": 68,
								"contract": "contracts/TPTPreSale_flattened.sol:TPTPreSale",
								"label": "step",
								"offset": 0,
								"slot": "3",
								"type": "t_uint8"
							}
						],
						"numberOfBytes": "128"
					},
					"t_struct(UserInfo)80_storage": {
						"encoding": "inplace",
						"label": "struct TPTPreSale.UserInfo",
						"members": [
							{
								"astId": 71,
								"contract": "contracts/TPTPreSale_flattened.sol:TPTPreSale",
								"label": "walletAddress",
								"offset": 0,
								"slot": "0",
								"type": "t_address"
							},
							{
								"astId": 73,
								"contract": "contracts/TPTPreSale_flattened.sol:TPTPreSale",
								"label": "tptBalance",
								"offset": 0,
								"slot": "1",
								"type": "t_uint256"
							},
							{
								"astId": 75,
								"contract": "contracts/TPTPreSale_flattened.sol:TPTPreSale",
								"label": "hasOffer",
								"offset": 0,
								"slot": "2",
								"type": "t_bool"
							},
							{
								"astId": 79,
								"contract": "contracts/TPTPreSale_flattened.sol:TPTPreSale",
								"label": "purchaseList",
								"offset": 0,
								"slot": "3",
								"type": "t_array(t_struct(Purchase)69_storage)dyn_storage"
							}
						],
						"numberOfBytes": "128"
					},
					"t_uint256": {
						"encoding": "inplace",
						"label": "uint256",
						"numberOfBytes": "32"
					},
					"t_uint8": {
						"encoding": "inplace",
						"label": "uint8",
						"numberOfBytes": "1"
					}
				}
			},
			"userdoc": {
				"kind": "user",
				"methods": {},
				"version": 1
			}
		}
	}
}