{
	"contracts/TPTPreSale.sol": {
		"TPTPreSale": {
			"abi": [
				{
					"inputs": [
						{
							"internalType": "address payable",
							"name": "_priceContract",
							"type": "address"
						}
					],
					"stateMutability": "nonpayable",
					"type": "constructor"
				},
				{
					"stateMutability": "payable",
					"type": "fallback"
				},
				{
					"inputs": [
						{
							"internalType": "address payable",
							"name": "_owner",
							"type": "address"
						}
					],
					"name": "chaneOwner",
					"outputs": [],
					"stateMutability": "nonpayable",
					"type": "function"
				},
				{
					"inputs": [],
					"name": "getPriceMode",
					"outputs": [
						{
							"internalType": "string",
							"name": "",
							"type": "string"
						}
					],
					"stateMutability": "view",
					"type": "function"
				},
				{
					"inputs": [
						{
							"internalType": "address",
							"name": "_userAddress",
							"type": "address"
						},
						{
							"internalType": "uint256",
							"name": "index",
							"type": "uint256"
						}
					],
					"name": "getPurchase",
					"outputs": [
						{
							"components": [
								{
									"internalType": "uint256",
									"name": "timestamp",
									"type": "uint256"
								},
								{
									"internalType": "uint256",
									"name": "bnbAmount",
									"type": "uint256"
								},
								{
									"internalType": "uint256",
									"name": "tptAmount",
									"type": "uint256"
								},
								{
									"internalType": "uint8",
									"name": "step",
									"type": "uint8"
								}
							],
							"internalType": "struct TPTPreSale.Purchase",
							"name": "",
							"type": "tuple"
						}
					],
					"stateMutability": "view",
					"type": "function"
				},
				{
					"inputs": [
						{
							"internalType": "address",
							"name": "_userAddress",
							"type": "address"
						}
					],
					"name": "getPurchaseCount",
					"outputs": [
						{
							"internalType": "uint256",
							"name": "",
							"type": "uint256"
						}
					],
					"stateMutability": "view",
					"type": "function"
				},
				{
					"inputs": [],
					"name": "getThisStepPrice",
					"outputs": [
						{
							"internalType": "uint256",
							"name": "",
							"type": "uint256"
						}
					],
					"stateMutability": "view",
					"type": "function"
				},
				{
					"inputs": [
						{
							"internalType": "uint256",
							"name": "id",
							"type": "uint256"
						}
					],
					"name": "getUserById",
					"outputs": [
						{
							"components": [
								{
									"internalType": "address",
									"name": "walletAddress",
									"type": "address"
								},
								{
									"internalType": "uint256",
									"name": "tptBalance",
									"type": "uint256"
								},
								{
									"internalType": "bool",
									"name": "hasOffer",
									"type": "bool"
								},
								{
									"components": [
										{
											"internalType": "uint256",
											"name": "timestamp",
											"type": "uint256"
										},
										{
											"internalType": "uint256",
											"name": "bnbAmount",
											"type": "uint256"
										},
										{
											"internalType": "uint256",
											"name": "tptAmount",
											"type": "uint256"
										},
										{
											"internalType": "uint8",
											"name": "step",
											"type": "uint8"
										}
									],
									"internalType": "struct TPTPreSale.Purchase[]",
									"name": "purchaseList",
									"type": "tuple[]"
								}
							],
							"internalType": "struct TPTPreSale.UserInfo",
							"name": "",
							"type": "tuple"
						}
					],
					"stateMutability": "view",
					"type": "function"
				},
				{
					"inputs": [
						{
							"internalType": "address",
							"name": "user",
							"type": "address"
						}
					],
					"name": "getUserId",
					"outputs": [
						{
							"internalType": "uint256",
							"name": "",
							"type": "uint256"
						}
					],
					"stateMutability": "view",
					"type": "function"
				},
				{
					"inputs": [
						{
							"internalType": "address",
							"name": "_userAddress",
							"type": "address"
						}
					],
					"name": "getUserTPTBalance",
					"outputs": [
						{
							"internalType": "uint256",
							"name": "",
							"type": "uint256"
						}
					],
					"stateMutability": "view",
					"type": "function"
				},
				{
					"inputs": [],
					"name": "owner",
					"outputs": [
						{
							"internalType": "address payable",
							"name": "",
							"type": "address"
						}
					],
					"stateMutability": "view",
					"type": "function"
				},
				{
					"inputs": [
						{
							"internalType": "address payable",
							"name": "_priceContract",
							"type": "address"
						}
					],
					"name": "setBNBPriceAddress",
					"outputs": [],
					"stateMutability": "nonpayable",
					"type": "function"
				},
				{
					"inputs": [
						{
							"internalType": "uint256",
							"name": "_min",
							"type": "uint256"
						}
					],
					"name": "setMinRequire",
					"outputs": [],
					"stateMutability": "nonpayable",
					"type": "function"
				},
				{
					"inputs": [],
					"name": "setPriceMode",
					"outputs": [],
					"stateMutability": "nonpayable",
					"type": "function"
				},
				{
					"inputs": [
						{
							"internalType": "uint8",
							"name": "_step",
							"type": "uint8"
						},
						{
							"internalType": "uint256",
							"name": "_price",
							"type": "uint256"
						}
					],
					"name": "setTPTPrice",
					"outputs": [],
					"stateMutability": "nonpayable",
					"type": "function"
				},
				{
					"inputs": [
						{
							"internalType": "uint8",
							"name": "_step",
							"type": "uint8"
						}
					],
					"name": "setThisStep",
					"outputs": [],
					"stateMutability": "nonpayable",
					"type": "function"
				},
				{
					"inputs": [],
					"name": "thisStep",
					"outputs": [
						{
							"internalType": "uint8",
							"name": "",
							"type": "uint8"
						}
					],
					"stateMutability": "view",
					"type": "function"
				},
				{
					"inputs": [],
					"name": "totalUsers",
					"outputs": [
						{
							"internalType": "uint256",
							"name": "",
							"type": "uint256"
						}
					],
					"stateMutability": "view",
					"type": "function"
				},
				{
					"inputs": [
						{
							"internalType": "uint8",
							"name": "",
							"type": "uint8"
						}
					],
					"name": "tptStepPrice",
					"outputs": [
						{
							"internalType": "uint256",
							"name": "",
							"type": "uint256"
						}
					],
					"stateMutability": "view",
					"type": "function"
				},
				{
					"inputs": [
						{
							"internalType": "address payable",
							"name": "_to",
							"type": "address"
						}
					],
					"name": "withdrawAll",
					"outputs": [],
					"stateMutability": "nonpayable",
					"type": "function"
				},
				{
					"stateMutability": "payable",
					"type": "receive"
				}
			],
			"devdoc": {
				"kind": "dev",
				"methods": {},
				"version": 1
			},
			"evm": {
				"assembly": "    /* \"contracts/TPTPreSale.sol\":85:5482  contract TPTPreSale {... */\n  mstore(0x40, 0x80)\n    /* \"contracts/TPTPreSale.sol\":1130:1376  constructor(address payable _priceContract) {... */\n  callvalue\n  dup1\n  iszero\n  tag_1\n  jumpi\n  revert(0x00, 0x00)\ntag_1:\n  pop\n  mload(0x40)\n  sub(codesize, bytecodeSize)\n  dup1\n  bytecodeSize\n  dup4\n  codecopy\n  dup2\n  dup2\n  add\n  0x40\n  mstore\n  dup2\n  add\n  swap1\n  tag_2\n  swap2\n  swap1\n  tag_3\n  jump\t// in\ntag_2:\n    /* \"contracts/TPTPreSale.sol\":1201:1211  msg.sender */\n  caller\n    /* \"contracts/TPTPreSale.sol\":1184:1189  owner */\n  0x01\n  0x00\n    /* \"contracts/TPTPreSale.sol\":1184:1212  owner = payable (msg.sender) */\n  0x0100\n  exp\n  dup2\n  sload\n  dup2\n  0xffffffffffffffffffffffffffffffffffffffff\n  mul\n  not\n  and\n  swap1\n  dup4\n  0xffffffffffffffffffffffffffffffffffffffff\n  and\n  mul\n  or\n  swap1\n  sstore\n  pop\n    /* \"contracts/TPTPreSale.sol\":1233:1234  1 */\n  0x01\n    /* \"contracts/TPTPreSale.sol\":1222:1230  thisStep */\n  dup1\n  0x15\n    /* \"contracts/TPTPreSale.sol\":1222:1234  thisStep = 1 */\n  0x0100\n  exp\n  dup2\n  sload\n  dup2\n  0xff\n  mul\n  not\n  and\n  swap1\n  dup4\n  0xff\n  and\n  mul\n  or\n  swap1\n  sstore\n  pop\n    /* \"contracts/TPTPreSale.sol\":1260:1274  _priceContract */\n  dup1\n    /* \"contracts/TPTPreSale.sol\":1244:1257  priceContract */\n  0x00\n  0x00\n    /* \"contracts/TPTPreSale.sol\":1244:1274  priceContract = _priceContract */\n  0x0100\n  exp\n  dup2\n  sload\n  dup2\n  0xffffffffffffffffffffffffffffffffffffffff\n  mul\n  not\n  and\n  swap1\n  dup4\n  0xffffffffffffffffffffffffffffffffffffffff\n  and\n  mul\n  or\n  swap1\n  sstore\n  pop\n    /* \"contracts/TPTPreSale.sol\":1298:1303  65e12 */\n  0x3b1dfde91000\n    /* \"contracts/TPTPreSale.sol\":1284:1295  getPriceTax */\n  0x03\n    /* \"contracts/TPTPreSale.sol\":1284:1303  getPriceTax = 65e12 */\n  dup2\n  swap1\n  sstore\n  pop\n    /* \"contracts/TPTPreSale.sol\":1326:1330  1e16 */\n  0x2386f26fc10000\n    /* \"contracts/TPTPreSale.sol\":1313:1323  minRequire */\n  0x04\n    /* \"contracts/TPTPreSale.sol\":1313:1330  minRequire = 1e16 */\n  dup2\n  swap1\n  sstore\n  pop\n    /* \"contracts/TPTPreSale.sol\":1368:1369  0 */\n  0x00\n    /* \"contracts/TPTPreSale.sol\":1355:1365  totalUsers */\n  0x05\n    /* \"contracts/TPTPreSale.sol\":1355:1369  totalUsers = 0 */\n  dup2\n  swap1\n  sstore\n  pop\n    /* \"contracts/TPTPreSale.sol\":1130:1376  constructor(address payable _priceContract) {... */\n  pop\n    /* \"contracts/TPTPreSale.sol\":85:5482  contract TPTPreSale {... */\n  jump(tag_6)\n    /* \"#utility.yul\":88:205   */\ntag_8:\n    /* \"#utility.yul\":197:198   */\n  0x00\n    /* \"#utility.yul\":194:195   */\n  0x00\n    /* \"#utility.yul\":187:199   */\n  revert\n    /* \"#utility.yul\":334:460   */\ntag_10:\n    /* \"#utility.yul\":371:378   */\n  0x00\n    /* \"#utility.yul\":411:453   */\n  0xffffffffffffffffffffffffffffffffffffffff\n    /* \"#utility.yul\":404:409   */\n  dup3\n    /* \"#utility.yul\":400:454   */\n  and\n    /* \"#utility.yul\":389:454   */\n  swap1\n  pop\n    /* \"#utility.yul\":334:460   */\n  swap2\n  swap1\n  pop\n  jump\t// out\n    /* \"#utility.yul\":466:570   */\ntag_11:\n    /* \"#utility.yul\":511:518   */\n  0x00\n    /* \"#utility.yul\":540:564   */\n  tag_20\n    /* \"#utility.yul\":558:563   */\n  dup3\n    /* \"#utility.yul\":540:564   */\n  tag_10\n  jump\t// in\ntag_20:\n    /* \"#utility.yul\":529:564   */\n  swap1\n  pop\n    /* \"#utility.yul\":466:570   */\n  swap2\n  swap1\n  pop\n  jump\t// out\n    /* \"#utility.yul\":576:714   */\ntag_12:\n    /* \"#utility.yul\":657:689   */\n  tag_22\n    /* \"#utility.yul\":683:688   */\n  dup2\n    /* \"#utility.yul\":657:689   */\n  tag_11\n  jump\t// in\ntag_22:\n    /* \"#utility.yul\":650:655   */\n  dup2\n    /* \"#utility.yul\":647:690   */\n  eq\n    /* \"#utility.yul\":637:708   */\n  tag_23\n  jumpi\n    /* \"#utility.yul\":704:705   */\n  0x00\n    /* \"#utility.yul\":701:702   */\n  0x00\n    /* \"#utility.yul\":694:706   */\n  revert\n    /* \"#utility.yul\":637:708   */\ntag_23:\n    /* \"#utility.yul\":576:714   */\n  pop\n  jump\t// out\n    /* \"#utility.yul\":720:879   */\ntag_13:\n    /* \"#utility.yul\":785:790   */\n  0x00\n    /* \"#utility.yul\":816:822   */\n  dup2\n    /* \"#utility.yul\":810:823   */\n  mload\n    /* \"#utility.yul\":801:823   */\n  swap1\n  pop\n    /* \"#utility.yul\":832:873   */\n  tag_25\n    /* \"#utility.yul\":867:872   */\n  dup2\n    /* \"#utility.yul\":832:873   */\n  tag_12\n  jump\t// in\ntag_25:\n    /* \"#utility.yul\":720:879   */\n  swap3\n  swap2\n  pop\n  pop\n  jump\t// out\n    /* \"#utility.yul\":885:1252   */\ntag_3:\n    /* \"#utility.yul\":963:969   */\n  0x00\n    /* \"#utility.yul\":1012:1014   */\n  0x20\n    /* \"#utility.yul\":1000:1009   */\n  dup3\n    /* \"#utility.yul\":991:998   */\n  dup5\n    /* \"#utility.yul\":987:1010   */\n  sub\n    /* \"#utility.yul\":983:1015   */\n  slt\n    /* \"#utility.yul\":980:1099   */\n  iszero\n  tag_27\n  jumpi\n    /* \"#utility.yul\":1018:1097   */\n  tag_28\n  tag_8\n  jump\t// in\ntag_28:\n    /* \"#utility.yul\":980:1099   */\ntag_27:\n    /* \"#utility.yul\":1138:1139   */\n  0x00\n    /* \"#utility.yul\":1163:1235   */\n  tag_29\n    /* \"#utility.yul\":1227:1234   */\n  dup5\n    /* \"#utility.yul\":1218:1224   */\n  dup3\n    /* \"#utility.yul\":1207:1216   */\n  dup6\n    /* \"#utility.yul\":1203:1225   */\n  add\n    /* \"#utility.yul\":1163:1235   */\n  tag_13\n  jump\t// in\ntag_29:\n    /* \"#utility.yul\":1153:1235   */\n  swap2\n  pop\n    /* \"#utility.yul\":1109:1245   */\n  pop\n    /* \"#utility.yul\":885:1252   */\n  swap3\n  swap2\n  pop\n  pop\n  jump\t// out\n    /* \"contracts/TPTPreSale.sol\":85:5482  contract TPTPreSale {... */\ntag_6:\n  dataSize(sub_0)\n  dup1\n  dataOffset(sub_0)\n  0x00\n  codecopy\n  0x00\n  return\nstop\n\nsub_0: assembly {\n        /* \"contracts/TPTPreSale.sol\":85:5482  contract TPTPreSale {... */\n      mstore(0x40, 0x80)\n      jumpi(tag_1, lt(calldatasize, 0x04))\n      shr(0xe0, calldataload(0x00))\n      dup1\n      0x8da5cb5b\n      gt\n      tag_21\n      jumpi\n      dup1\n      0xb76bdf06\n      gt\n      tag_22\n      jumpi\n      dup1\n      0xb76bdf06\n      eq\n      tag_16\n      jumpi\n      dup1\n      0xbff1f9e1\n      eq\n      tag_17\n      jumpi\n      dup1\n      0xfa09e630\n      eq\n      tag_18\n      jumpi\n      dup1\n      0xfdbb6696\n      eq\n      tag_19\n      jumpi\n      dup1\n      0xffbe653d\n      eq\n      tag_20\n      jumpi\n      jump(tag_2)\n    tag_22:\n      dup1\n      0x8da5cb5b\n      eq\n      tag_12\n      jumpi\n      dup1\n      0xa2f5546e\n      eq\n      tag_13\n      jumpi\n      dup1\n      0xae243031\n      eq\n      tag_14\n      jumpi\n      dup1\n      0xaf6b5558\n      eq\n      tag_15\n      jumpi\n      jump(tag_2)\n    tag_21:\n      dup1\n      0x54eb7ebe\n      gt\n      tag_23\n      jumpi\n      dup1\n      0x54eb7ebe\n      eq\n      tag_7\n      jumpi\n      dup1\n      0x5f1276a7\n      eq\n      tag_8\n      jumpi\n      dup1\n      0x672cbe1a\n      eq\n      tag_9\n      jumpi\n      dup1\n      0x6ed6da9e\n      eq\n      tag_10\n      jumpi\n      dup1\n      0x7ce8a08e\n      eq\n      tag_11\n      jumpi\n      jump(tag_2)\n    tag_23:\n      dup1\n      0x2a2a92cc\n      eq\n      tag_3\n      jumpi\n      dup1\n      0x2b956ff7\n      eq\n      tag_4\n      jumpi\n      dup1\n      0x31bbf555\n      eq\n      tag_5\n      jumpi\n      dup1\n      0x487cb6b0\n      eq\n      tag_6\n      jumpi\n      jump(tag_2)\n    tag_1:\n      jumpi(tag_2, calldatasize)\n        /* \"contracts/TPTPreSale.sol\":1886:1896  minRequire */\n      sload(0x04)\n        /* \"contracts/TPTPreSale.sol\":1873:1882  msg.value */\n      callvalue\n        /* \"contracts/TPTPreSale.sol\":1873:1896  msg.value >= minRequire */\n      lt\n      iszero\n        /* \"contracts/TPTPreSale.sol\":1865:1925  require(msg.value >= minRequire, \"Send more BNB to buy TPT\") */\n      tag_26\n      jumpi\n      mload(0x40)\n      0x08c379a000000000000000000000000000000000000000000000000000000000\n      dup2\n      mstore\n      0x04\n      add\n      tag_27\n      swap1\n      tag_28\n      jump\t// in\n    tag_27:\n      mload(0x40)\n      dup1\n      swap2\n      sub\n      swap1\n      revert\n    tag_26:\n        /* \"contracts/TPTPreSale.sol\":1936:1945  bool sent */\n      0x00\n        /* \"contracts/TPTPreSale.sol\":1951:1964  priceContract */\n      0x00\n      0x00\n      swap1\n      sload\n      swap1\n      0x0100\n      exp\n      swap1\n      div\n      0xffffffffffffffffffffffffffffffffffffffff\n      and\n        /* \"contracts/TPTPreSale.sol\":1951:1969  priceContract.call */\n      0xffffffffffffffffffffffffffffffffffffffff\n      and\n        /* \"contracts/TPTPreSale.sol\":1977:1988  getPriceTax */\n      sload(0x03)\n        /* \"contracts/TPTPreSale.sol\":1951:1993  priceContract.call{value: getPriceTax}(\"\") */\n      mload(0x40)\n      tag_29\n      swap1\n      tag_30\n      jump\t// in\n    tag_29:\n      0x00\n      mload(0x40)\n      dup1\n      dup4\n      sub\n      dup2\n      dup6\n      dup8\n      gas\n      call\n      swap3\n      pop\n      pop\n      pop\n      returndatasize\n      dup1\n      0x00\n      dup2\n      eq\n      tag_33\n      jumpi\n      mload(0x40)\n      swap2\n      pop\n      and(add(returndatasize, 0x3f), not(0x1f))\n      dup3\n      add\n      0x40\n      mstore\n      returndatasize\n      dup3\n      mstore\n      returndatasize\n      0x00\n      0x20\n      dup5\n      add\n      returndatacopy\n      jump(tag_32)\n    tag_33:\n      0x60\n      swap2\n      pop\n    tag_32:\n      pop\n        /* \"contracts/TPTPreSale.sol\":1935:1993  (bool sent, ) = priceContract.call{value: getPriceTax}(\"\") */\n      pop\n      swap1\n      pop\n        /* \"contracts/TPTPreSale.sol\":2011:2015  sent */\n      dup1\n        /* \"contracts/TPTPreSale.sol\":2003:2035  require(sent, \"Transfer failed\") */\n      tag_34\n      jumpi\n      mload(0x40)\n      0x08c379a000000000000000000000000000000000000000000000000000000000\n      dup2\n      mstore\n      0x04\n      add\n      tag_35\n      swap1\n      tag_36\n      jump\t// in\n    tag_35:\n      mload(0x40)\n      dup1\n      swap2\n      sub\n      swap1\n      revert\n    tag_34:\n        /* \"contracts/TPTPreSale.sol\":2046:2059  buyTPT(false) */\n      tag_37\n        /* \"contracts/TPTPreSale.sol\":2053:2058  false */\n      0x00\n        /* \"contracts/TPTPreSale.sol\":2046:2052  buyTPT */\n      tag_38\n        /* \"contracts/TPTPreSale.sol\":2046:2059  buyTPT(false) */\n      jump\t// in\n    tag_37:\n        /* \"contracts/TPTPreSale.sol\":1855:2066  {... */\n      stop\n        /* \"contracts/TPTPreSale.sol\":85:5482  contract TPTPreSale {... */\n    tag_2:\n        /* \"contracts/TPTPreSale.sol\":1441:1451  minRequire */\n      sload(0x04)\n        /* \"contracts/TPTPreSale.sol\":1428:1437  msg.value */\n      callvalue\n        /* \"contracts/TPTPreSale.sol\":1428:1451  msg.value >= minRequire */\n      lt\n      iszero\n        /* \"contracts/TPTPreSale.sol\":1420:1480  require(msg.value >= minRequire, \"Send more BNB to buy TPT\") */\n      tag_41\n      jumpi\n      mload(0x40)\n      0x08c379a000000000000000000000000000000000000000000000000000000000\n      dup2\n      mstore\n      0x04\n      add\n      tag_42\n      swap1\n      tag_28\n      jump\t// in\n    tag_42:\n      mload(0x40)\n      dup1\n      swap2\n      sub\n      swap1\n      revert\n    tag_41:\n        /* \"contracts/TPTPreSale.sol\":1517:1519  32 */\n      0x20\n        /* \"contracts/TPTPreSale.sol\":1498:1506  msg.data */\n      0x00\n      calldatasize\n        /* \"contracts/TPTPreSale.sol\":1498:1513  msg.data.length */\n      swap1\n      pop\n        /* \"contracts/TPTPreSale.sol\":1498:1519  msg.data.length >= 32 */\n      lt\n      iszero\n        /* \"contracts/TPTPreSale.sol\":1490:1543  require(msg.data.length >= 32, \"Invalid data length\") */\n      tag_43\n      jumpi\n      mload(0x40)\n      0x08c379a000000000000000000000000000000000000000000000000000000000\n      dup2\n      mstore\n      0x04\n      add\n      tag_44\n      swap1\n      tag_45\n      jump\t// in\n    tag_44:\n      mload(0x40)\n      dup1\n      swap2\n      sub\n      swap1\n      revert\n    tag_43:\n        /* \"contracts/TPTPreSale.sol\":1568:1576  msg.data */\n      0x00\n      calldatasize\n        /* \"contracts/TPTPreSale.sol\":1557:1585  abi.decode(msg.data, (bool)) */\n      dup2\n      add\n      swap1\n      tag_46\n      swap2\n      swap1\n      tag_47\n      jump\t// in\n    tag_46:\n        /* \"contracts/TPTPreSale.sol\":1553:1660  if (abi.decode(msg.data, (bool))) {... */\n      iszero\n      tag_48\n      jumpi\n        /* \"contracts/TPTPreSale.sol\":1622:1626  5e16 */\n      0xb1a2bc2ec50000\n        /* \"contracts/TPTPreSale.sol\":1609:1618  msg.value */\n      callvalue\n        /* \"contracts/TPTPreSale.sol\":1609:1626  msg.value == 5e16 */\n      eq\n        /* \"contracts/TPTPreSale.sol\":1601:1649  require(msg.value == 5e16, \"send just 0.05 bnb\") */\n      tag_49\n      jumpi\n      mload(0x40)\n      0x08c379a000000000000000000000000000000000000000000000000000000000\n      dup2\n      mstore\n      0x04\n      add\n      tag_50\n      swap1\n      tag_51\n      jump\t// in\n    tag_50:\n      mload(0x40)\n      dup1\n      swap2\n      sub\n      swap1\n      revert\n    tag_49:\n        /* \"contracts/TPTPreSale.sol\":1553:1660  if (abi.decode(msg.data, (bool))) {... */\n    tag_48:\n        /* \"contracts/TPTPreSale.sol\":1670:1679  bool sent */\n      0x00\n        /* \"contracts/TPTPreSale.sol\":1685:1698  priceContract */\n      0x00\n      0x00\n      swap1\n      sload\n      swap1\n      0x0100\n      exp\n      swap1\n      div\n      0xffffffffffffffffffffffffffffffffffffffff\n      and\n        /* \"contracts/TPTPreSale.sol\":1685:1703  priceContract.call */\n      0xffffffffffffffffffffffffffffffffffffffff\n      and\n        /* \"contracts/TPTPreSale.sol\":1711:1722  getPriceTax */\n      sload(0x03)\n        /* \"contracts/TPTPreSale.sol\":1685:1727  priceContract.call{value: getPriceTax}(\"\") */\n      mload(0x40)\n      tag_52\n      swap1\n      tag_30\n      jump\t// in\n    tag_52:\n      0x00\n      mload(0x40)\n      dup1\n      dup4\n      sub\n      dup2\n      dup6\n      dup8\n      gas\n      call\n      swap3\n      pop\n      pop\n      pop\n      returndatasize\n      dup1\n      0x00\n      dup2\n      eq\n      tag_55\n      jumpi\n      mload(0x40)\n      swap2\n      pop\n      and(add(returndatasize, 0x3f), not(0x1f))\n      dup3\n      add\n      0x40\n      mstore\n      returndatasize\n      dup3\n      mstore\n      returndatasize\n      0x00\n      0x20\n      dup5\n      add\n      returndatacopy\n      jump(tag_54)\n    tag_55:\n      0x60\n      swap2\n      pop\n    tag_54:\n      pop\n        /* \"contracts/TPTPreSale.sol\":1669:1727  (bool sent, ) = priceContract.call{value: getPriceTax}(\"\") */\n      pop\n      swap1\n      pop\n        /* \"contracts/TPTPreSale.sol\":1745:1749  sent */\n      dup1\n        /* \"contracts/TPTPreSale.sol\":1737:1769  require(sent, \"Transfer failed\") */\n      tag_56\n      jumpi\n      mload(0x40)\n      0x08c379a000000000000000000000000000000000000000000000000000000000\n      dup2\n      mstore\n      0x04\n      add\n      tag_57\n      swap1\n      tag_36\n      jump\t// in\n    tag_57:\n      mload(0x40)\n      dup1\n      swap2\n      sub\n      swap1\n      revert\n    tag_56:\n        /* \"contracts/TPTPreSale.sol\":1779:1815  buyTPT(abi.decode(msg.data, (bool))) */\n      tag_58\n        /* \"contracts/TPTPreSale.sol\":1797:1805  msg.data */\n      0x00\n      calldatasize\n        /* \"contracts/TPTPreSale.sol\":1786:1814  abi.decode(msg.data, (bool)) */\n      dup2\n      add\n      swap1\n      tag_59\n      swap2\n      swap1\n      tag_47\n      jump\t// in\n    tag_59:\n        /* \"contracts/TPTPreSale.sol\":1779:1785  buyTPT */\n      tag_38\n        /* \"contracts/TPTPreSale.sol\":1779:1815  buyTPT(abi.decode(msg.data, (bool))) */\n      jump\t// in\n    tag_58:\n        /* \"contracts/TPTPreSale.sol\":1410:1822  {... */\n      stop\n        /* \"contracts/TPTPreSale.sol\":4467:4673  function getPurchase(address _userAddress, uint256 index)... */\n    tag_3:\n      callvalue\n      dup1\n      iszero\n      tag_60\n      jumpi\n      revert(0x00, 0x00)\n    tag_60:\n      pop\n      tag_61\n      0x04\n      dup1\n      calldatasize\n      sub\n      dup2\n      add\n      swap1\n      tag_62\n      swap2\n      swap1\n      tag_63\n      jump\t// in\n    tag_62:\n      tag_64\n      jump\t// in\n    tag_61:\n      mload(0x40)\n      tag_65\n      swap2\n      swap1\n      tag_66\n      jump\t// in\n    tag_65:\n      mload(0x40)\n      dup1\n      swap2\n      sub\n      swap1\n      return\n        /* \"contracts/TPTPreSale.sol\":4679:4780  function getUserId(address user) external view returns (uint256) {... */\n    tag_4:\n      callvalue\n      dup1\n      iszero\n      tag_67\n      jumpi\n      revert(0x00, 0x00)\n    tag_67:\n      pop\n      tag_68\n      0x04\n      dup1\n      calldatasize\n      sub\n      dup2\n      add\n      swap1\n      tag_69\n      swap2\n      swap1\n      tag_70\n      jump\t// in\n    tag_69:\n      tag_71\n      jump\t// in\n    tag_68:\n      mload(0x40)\n      tag_72\n      swap2\n      swap1\n      tag_73\n      jump\t// in\n    tag_72:\n      mload(0x40)\n      dup1\n      swap2\n      sub\n      swap1\n      return\n        /* \"contracts/TPTPreSale.sol\":4282:4461  function getPurchaseCount(address _userAddress)... */\n    tag_5:\n      callvalue\n      dup1\n      iszero\n      tag_74\n      jumpi\n      revert(0x00, 0x00)\n    tag_74:\n      pop\n      tag_75\n      0x04\n      dup1\n      calldatasize\n      sub\n      dup2\n      add\n      swap1\n      tag_76\n      swap2\n      swap1\n      tag_70\n      jump\t// in\n    tag_76:\n      tag_77\n      jump\t// in\n    tag_75:\n      mload(0x40)\n      tag_78\n      swap2\n      swap1\n      tag_73\n      jump\t// in\n    tag_78:\n      mload(0x40)\n      dup1\n      swap2\n      sub\n      swap1\n      return\n        /* \"contracts/TPTPreSale.sol\":2072:2166  function setPriceMode() public onlyOwner {... */\n    tag_6:\n      callvalue\n      dup1\n      iszero\n      tag_79\n      jumpi\n      revert(0x00, 0x00)\n    tag_79:\n      pop\n      tag_80\n      tag_81\n      jump\t// in\n    tag_80:\n      stop\n        /* \"contracts/TPTPreSale.sol\":2172:2308  function getPriceMode() public view onlyOwner returns (string memory) {... */\n    tag_7:\n      callvalue\n      dup1\n      iszero\n      tag_82\n      jumpi\n      revert(0x00, 0x00)\n    tag_82:\n      pop\n      tag_83\n      tag_84\n      jump\t// in\n    tag_83:\n      mload(0x40)\n      tag_85\n      swap2\n      swap1\n      tag_86\n      jump\t// in\n    tag_85:\n      mload(0x40)\n      dup1\n      swap2\n      sub\n      swap1\n      return\n        /* \"contracts/TPTPreSale.sol\":5226:5319  function chaneOwner(address payable  _owner) public onlyOwner{... */\n    tag_8:\n      callvalue\n      dup1\n      iszero\n      tag_87\n      jumpi\n      revert(0x00, 0x00)\n    tag_87:\n      pop\n      tag_88\n      0x04\n      dup1\n      calldatasize\n      sub\n      dup2\n      add\n      swap1\n      tag_89\n      swap2\n      swap1\n      tag_90\n      jump\t// in\n    tag_89:\n      tag_91\n      jump\t// in\n    tag_88:\n      stop\n        /* \"contracts/TPTPreSale.sol\":3998:4102  function getThisStepPrice() public view returns (uint256) {... */\n    tag_9:\n      callvalue\n      dup1\n      iszero\n      tag_92\n      jumpi\n      revert(0x00, 0x00)\n    tag_92:\n      pop\n      tag_93\n      tag_94\n      jump\t// in\n    tag_93:\n      mload(0x40)\n      tag_95\n      swap2\n      swap1\n      tag_73\n      jump\t// in\n    tag_95:\n      mload(0x40)\n      dup1\n      swap2\n      sub\n      swap1\n      return\n        /* \"contracts/TPTPreSale.sol\":4786:4892  function getUserById(uint256 id) external view returns (UserInfo memory) {... */\n    tag_10:\n      callvalue\n      dup1\n      iszero\n      tag_96\n      jumpi\n      revert(0x00, 0x00)\n    tag_96:\n      pop\n      tag_97\n      0x04\n      dup1\n      calldatasize\n      sub\n      dup2\n      add\n      swap1\n      tag_98\n      swap2\n      swap1\n      tag_99\n      jump\t// in\n    tag_98:\n      tag_100\n      jump\t// in\n    tag_97:\n      mload(0x40)\n      tag_101\n      swap2\n      swap1\n      tag_102\n      jump\t// in\n    tag_101:\n      mload(0x40)\n      dup1\n      swap2\n      sub\n      swap1\n      return\n        /* \"contracts/TPTPreSale.sol\":3790:3874  function setThisStep(uint8 _step) public onlyOwner {... */\n    tag_11:\n      callvalue\n      dup1\n      iszero\n      tag_103\n      jumpi\n      revert(0x00, 0x00)\n    tag_103:\n      pop\n      tag_104\n      0x04\n      dup1\n      calldatasize\n      sub\n      dup2\n      add\n      swap1\n      tag_105\n      swap2\n      swap1\n      tag_106\n      jump\t// in\n    tag_105:\n      tag_107\n      jump\t// in\n    tag_104:\n      stop\n        /* \"contracts/TPTPreSale.sol\":155:183  address payable public owner */\n    tag_12:\n      callvalue\n      dup1\n      iszero\n      tag_108\n      jumpi\n      revert(0x00, 0x00)\n    tag_108:\n      pop\n      tag_109\n      tag_110\n      jump\t// in\n    tag_109:\n      mload(0x40)\n      tag_111\n      swap2\n      swap1\n      tag_112\n      jump\t// in\n    tag_111:\n      mload(0x40)\n      dup1\n      swap2\n      sub\n      swap1\n      return\n        /* \"contracts/TPTPreSale.sol\":3880:3992  function setTPTPrice(uint8 _step, uint256 _price) public onlyOwner {... */\n    tag_13:\n      callvalue\n      dup1\n      iszero\n      tag_113\n      jumpi\n      revert(0x00, 0x00)\n    tag_113:\n      pop\n      tag_114\n      0x04\n      dup1\n      calldatasize\n      sub\n      dup2\n      add\n      swap1\n      tag_115\n      swap2\n      swap1\n      tag_116\n      jump\t// in\n    tag_115:\n      tag_117\n      jump\t// in\n    tag_114:\n      stop\n        /* \"contracts/TPTPreSale.sol\":215:236  uint8 public thisStep */\n    tag_14:\n      callvalue\n      dup1\n      iszero\n      tag_118\n      jumpi\n      revert(0x00, 0x00)\n    tag_118:\n      pop\n      tag_119\n      tag_120\n      jump\t// in\n    tag_119:\n      mload(0x40)\n      tag_121\n      swap2\n      swap1\n      tag_122\n      jump\t// in\n    tag_121:\n      mload(0x40)\n      dup1\n      swap2\n      sub\n      swap1\n      return\n        /* \"contracts/TPTPreSale.sol\":5076:5220  function setBNBPriceAddress(address payable _priceContract)... */\n    tag_15:\n      callvalue\n      dup1\n      iszero\n      tag_123\n      jumpi\n      revert(0x00, 0x00)\n    tag_123:\n      pop\n      tag_124\n      0x04\n      dup1\n      calldatasize\n      sub\n      dup2\n      add\n      swap1\n      tag_125\n      swap2\n      swap1\n      tag_90\n      jump\t// in\n    tag_125:\n      tag_126\n      jump\t// in\n    tag_124:\n      stop\n        /* \"contracts/TPTPreSale.sol\":5326:5480  function setMinRequire(uint _min) public onlyOwner{... */\n    tag_16:\n      callvalue\n      dup1\n      iszero\n      tag_127\n      jumpi\n      revert(0x00, 0x00)\n    tag_127:\n      pop\n      tag_128\n      0x04\n      dup1\n      calldatasize\n      sub\n      dup2\n      add\n      swap1\n      tag_129\n      swap2\n      swap1\n      tag_99\n      jump\t// in\n    tag_129:\n      tag_130\n      jump\t// in\n    tag_128:\n      stop\n        /* \"contracts/TPTPreSale.sol\":380:405  uint256 public totalUsers */\n    tag_17:\n      callvalue\n      dup1\n      iszero\n      tag_131\n      jumpi\n      revert(0x00, 0x00)\n    tag_131:\n      pop\n      tag_132\n      tag_133\n      jump\t// in\n    tag_132:\n      mload(0x40)\n      tag_134\n      swap2\n      swap1\n      tag_73\n      jump\t// in\n    tag_134:\n      mload(0x40)\n      dup1\n      swap2\n      sub\n      swap1\n      return\n        /* \"contracts/TPTPreSale.sol\":4108:4276  function withdrawAll(address payable _to) external onlyOwner {... */\n    tag_18:\n      callvalue\n      dup1\n      iszero\n      tag_135\n      jumpi\n      revert(0x00, 0x00)\n    tag_135:\n      pop\n      tag_136\n      0x04\n      dup1\n      calldatasize\n      sub\n      dup2\n      add\n      swap1\n      tag_137\n      swap2\n      swap1\n      tag_90\n      jump\t// in\n    tag_137:\n      tag_138\n      jump\t// in\n    tag_136:\n      stop\n        /* \"contracts/TPTPreSale.sol\":4898:5069  function getUserTPTBalance(address _userAddress)... */\n    tag_19:\n      callvalue\n      dup1\n      iszero\n      tag_139\n      jumpi\n      revert(0x00, 0x00)\n    tag_139:\n      pop\n      tag_140\n      0x04\n      dup1\n      calldatasize\n      sub\n      dup2\n      add\n      swap1\n      tag_141\n      swap2\n      swap1\n      tag_70\n      jump\t// in\n    tag_141:\n      tag_142\n      jump\t// in\n    tag_140:\n      mload(0x40)\n      tag_143\n      swap2\n      swap1\n      tag_73\n      jump\t// in\n    tag_143:\n      mload(0x40)\n      dup1\n      swap2\n      sub\n      swap1\n      return\n        /* \"contracts/TPTPreSale.sol\":242:287  mapping(uint8 => uint256) public tptStepPrice */\n    tag_20:\n      callvalue\n      dup1\n      iszero\n      tag_144\n      jumpi\n      revert(0x00, 0x00)\n    tag_144:\n      pop\n      tag_145\n      0x04\n      dup1\n      calldatasize\n      sub\n      dup2\n      add\n      swap1\n      tag_146\n      swap2\n      swap1\n      tag_106\n      jump\t// in\n    tag_146:\n      tag_147\n      jump\t// in\n    tag_145:\n      mload(0x40)\n      tag_148\n      swap2\n      swap1\n      tag_73\n      jump\t// in\n    tag_148:\n      mload(0x40)\n      dup1\n      swap2\n      sub\n      swap1\n      return\n        /* \"contracts/TPTPreSale.sol\":2662:3784  function buyTPT(bool _useOffer) internal pauseable reentrancy {... */\n    tag_38:\n        /* \"contracts/TPTPreSale.sol\":933:934  0 */\n      0x00\n        /* \"contracts/TPTPreSale.sol\":921:929  thisStep */\n      0x01\n      0x15\n      swap1\n      sload\n      swap1\n      0x0100\n      exp\n      swap1\n      div\n      0xff\n      and\n        /* \"contracts/TPTPreSale.sol\":921:934  thisStep != 0 */\n      0xff\n      and\n      sub\n        /* \"contracts/TPTPreSale.sol\":913:954  require(thisStep != 0, \"Contract Paused\") */\n      tag_150\n      jumpi\n      mload(0x40)\n      0x08c379a000000000000000000000000000000000000000000000000000000000\n      dup2\n      mstore\n      0x04\n      add\n      tag_151\n      swap1\n      tag_152\n      jump\t// in\n    tag_151:\n      mload(0x40)\n      dup1\n      swap2\n      sub\n      swap1\n      revert\n    tag_150:\n        /* \"contracts/TPTPreSale.sol\":1028:1032  true */\n      0x01\n        /* \"contracts/TPTPreSale.sol\":1018:1032  locked != true */\n      iszero\n      iszero\n        /* \"contracts/TPTPreSale.sol\":1018:1024  locked */\n      0x01\n      0x14\n      swap1\n      sload\n      swap1\n      0x0100\n      exp\n      swap1\n      div\n      0xff\n      and\n        /* \"contracts/TPTPreSale.sol\":1018:1032  locked != true */\n      iszero\n      iszero\n      sub\n        /* \"contracts/TPTPreSale.sol\":1010:1059  require(locked != true, \"No Reentrancy,pls wait\") */\n      tag_154\n      jumpi\n      mload(0x40)\n      0x08c379a000000000000000000000000000000000000000000000000000000000\n      dup2\n      mstore\n      0x04\n      add\n      tag_155\n      swap1\n      tag_156\n      jump\t// in\n    tag_155:\n      mload(0x40)\n      dup1\n      swap2\n      sub\n      swap1\n      revert\n    tag_154:\n        /* \"contracts/TPTPreSale.sol\":1078:1082  true */\n      0x01\n        /* \"contracts/TPTPreSale.sol\":1069:1075  locked */\n      dup1\n      0x14\n        /* \"contracts/TPTPreSale.sol\":1069:1082  locked = true */\n      0x0100\n      exp\n      dup2\n      sload\n      dup2\n      0xff\n      mul\n      not\n      and\n      swap1\n      dup4\n      iszero\n      iszero\n      mul\n      or\n      swap1\n      sstore\n      pop\n        /* \"contracts/TPTPreSale.sol\":2760:2761  0 */\n      0x00\n        /* \"contracts/TPTPreSale.sol\":2738:2744  userId */\n      0x06\n        /* \"contracts/TPTPreSale.sol\":2738:2756  userId[msg.sender] */\n      0x00\n        /* \"contracts/TPTPreSale.sol\":2745:2755  msg.sender */\n      caller\n        /* \"contracts/TPTPreSale.sol\":2738:2756  userId[msg.sender] */\n      0xffffffffffffffffffffffffffffffffffffffff\n      and\n      0xffffffffffffffffffffffffffffffffffffffff\n      and\n      dup2\n      mstore\n      0x20\n      add\n      swap1\n      dup2\n      mstore\n      0x20\n      add\n      0x00\n      keccak256\n      sload\n        /* \"contracts/TPTPreSale.sol\":2738:2761  userId[msg.sender] == 0 */\n      sub\n        /* \"contracts/TPTPreSale.sol\":2734:3113  if (userId[msg.sender] == 0) {... */\n      tag_158\n      jumpi\n        /* \"contracts/TPTPreSale.sol\":2777:2787  totalUsers */\n      0x05\n      0x00\n        /* \"contracts/TPTPreSale.sol\":2777:2789  totalUsers++ */\n      dup2\n      sload\n      dup1\n      swap3\n      swap2\n      swap1\n      tag_159\n      swap1\n      tag_160\n      jump\t// in\n    tag_159:\n      swap2\n      swap1\n      pop\n      sstore\n      pop\n        /* \"contracts/TPTPreSale.sol\":2824:2834  totalUsers */\n      sload(0x05)\n        /* \"contracts/TPTPreSale.sol\":2803:2809  userId */\n      0x06\n        /* \"contracts/TPTPreSale.sol\":2803:2821  userId[msg.sender] */\n      0x00\n        /* \"contracts/TPTPreSale.sol\":2810:2820  msg.sender */\n      caller\n        /* \"contracts/TPTPreSale.sol\":2803:2821  userId[msg.sender] */\n      0xffffffffffffffffffffffffffffffffffffffff\n      and\n      0xffffffffffffffffffffffffffffffffffffffff\n      and\n      dup2\n      mstore\n      0x20\n      add\n      swap1\n      dup2\n      mstore\n      0x20\n      add\n      0x00\n      keccak256\n        /* \"contracts/TPTPreSale.sol\":2803:2834  userId[msg.sender] = totalUsers */\n      dup2\n      swap1\n      sstore\n      pop\n        /* \"contracts/TPTPreSale.sol\":2849:2874  UserInfo storage userInfo */\n      0x00\n        /* \"contracts/TPTPreSale.sol\":2877:2882  users */\n      0x07\n        /* \"contracts/TPTPreSale.sol\":2877:2902  users[userId[msg.sender]] */\n      0x00\n        /* \"contracts/TPTPreSale.sol\":2883:2889  userId */\n      0x06\n        /* \"contracts/TPTPreSale.sol\":2883:2901  userId[msg.sender] */\n      0x00\n        /* \"contracts/TPTPreSale.sol\":2890:2900  msg.sender */\n      caller\n        /* \"contracts/TPTPreSale.sol\":2883:2901  userId[msg.sender] */\n      0xffffffffffffffffffffffffffffffffffffffff\n      and\n      0xffffffffffffffffffffffffffffffffffffffff\n      and\n      dup2\n      mstore\n      0x20\n      add\n      swap1\n      dup2\n      mstore\n      0x20\n      add\n      0x00\n      keccak256\n      sload\n        /* \"contracts/TPTPreSale.sol\":2877:2902  users[userId[msg.sender]] */\n      dup2\n      mstore\n      0x20\n      add\n      swap1\n      dup2\n      mstore\n      0x20\n      add\n      0x00\n      keccak256\n        /* \"contracts/TPTPreSale.sol\":2849:2902  UserInfo storage userInfo = users[userId[msg.sender]] */\n      swap1\n      pop\n        /* \"contracts/TPTPreSale.sol\":2941:2951  msg.sender */\n      caller\n        /* \"contracts/TPTPreSale.sol\":2916:2924  userInfo */\n      dup2\n        /* \"contracts/TPTPreSale.sol\":2916:2938  userInfo.walletAddress */\n      0x00\n      add\n      0x00\n        /* \"contracts/TPTPreSale.sol\":2916:2951  userInfo.walletAddress = msg.sender */\n      0x0100\n      exp\n      dup2\n      sload\n      dup2\n      0xffffffffffffffffffffffffffffffffffffffff\n      mul\n      not\n      and\n      swap1\n      dup4\n      0xffffffffffffffffffffffffffffffffffffffff\n      and\n      mul\n      or\n      swap1\n      sstore\n      pop\n        /* \"contracts/TPTPreSale.sol\":2987:2988  0 */\n      0x00\n        /* \"contracts/TPTPreSale.sol\":2965:2973  userInfo */\n      dup2\n        /* \"contracts/TPTPreSale.sol\":2965:2984  userInfo.tptBalance */\n      0x01\n      add\n        /* \"contracts/TPTPreSale.sol\":2965:2988  userInfo.tptBalance = 0 */\n      dup2\n      swap1\n      sstore\n      pop\n        /* \"contracts/TPTPreSale.sol\":3022:3026  true */\n      0x01\n        /* \"contracts/TPTPreSale.sol\":3002:3010  userInfo */\n      dup2\n        /* \"contracts/TPTPreSale.sol\":3002:3019  userInfo.hasOffer */\n      0x02\n      add\n      0x00\n        /* \"contracts/TPTPreSale.sol\":3002:3026  userInfo.hasOffer = true */\n      0x0100\n      exp\n      dup2\n      sload\n      dup2\n      0xff\n      mul\n      not\n      and\n      swap1\n      dup4\n      iszero\n      iszero\n      mul\n      or\n      swap1\n      sstore\n      pop\n        /* \"contracts/TPTPreSale.sol\":3094:3102  userInfo */\n      dup1\n        /* \"contracts/TPTPreSale.sol\":3066:3071  users */\n      0x07\n        /* \"contracts/TPTPreSale.sol\":3066:3091  users[userId[msg.sender]] */\n      0x00\n        /* \"contracts/TPTPreSale.sol\":3072:3078  userId */\n      0x06\n        /* \"contracts/TPTPreSale.sol\":3072:3090  userId[msg.sender] */\n      0x00\n        /* \"contracts/TPTPreSale.sol\":3079:3089  msg.sender */\n      caller\n        /* \"contracts/TPTPreSale.sol\":3072:3090  userId[msg.sender] */\n      0xffffffffffffffffffffffffffffffffffffffff\n      and\n      0xffffffffffffffffffffffffffffffffffffffff\n      and\n      dup2\n      mstore\n      0x20\n      add\n      swap1\n      dup2\n      mstore\n      0x20\n      add\n      0x00\n      keccak256\n      sload\n        /* \"contracts/TPTPreSale.sol\":3066:3091  users[userId[msg.sender]] */\n      dup2\n      mstore\n      0x20\n      add\n      swap1\n      dup2\n      mstore\n      0x20\n      add\n      0x00\n      keccak256\n        /* \"contracts/TPTPreSale.sol\":3066:3102  users[userId[msg.sender]] = userInfo */\n      0x00\n      dup3\n      add\n      0x00\n      swap1\n      sload\n      swap1\n      0x0100\n      exp\n      swap1\n      div\n      0xffffffffffffffffffffffffffffffffffffffff\n      and\n      dup2\n      0x00\n      add\n      exp(0x0100, 0x00)\n      dup2\n      sload\n      dup2\n      0xffffffffffffffffffffffffffffffffffffffff\n      mul\n      not\n      and\n      swap1\n      dup4\n      0xffffffffffffffffffffffffffffffffffffffff\n      and\n      mul\n      or\n      swap1\n      sstore\n      pop\n      0x01\n      dup3\n      add\n      sload\n      dup2\n      0x01\n      add\n      sstore\n      0x02\n      dup3\n      add\n      0x00\n      swap1\n      sload\n      swap1\n      0x0100\n      exp\n      swap1\n      div\n      0xff\n      and\n      dup2\n      0x02\n      add\n      exp(0x0100, 0x00)\n      dup2\n      sload\n      dup2\n      0xff\n      mul\n      not\n      and\n      swap1\n      dup4\n      iszero\n      iszero\n      mul\n      or\n      swap1\n      sstore\n      pop\n      0x03\n      dup3\n      add\n      dup2\n      0x03\n      add\n      swap1\n      dup1\n      sload\n      tag_161\n      swap3\n      swap2\n      swap1\n      tag_162\n      jump\t// in\n    tag_161:\n      pop\n      swap1\n      pop\n      pop\n        /* \"contracts/TPTPreSale.sol\":2763:3113  {... */\n      pop\n        /* \"contracts/TPTPreSale.sol\":2734:3113  if (userId[msg.sender] == 0) {... */\n    tag_158:\n        /* \"contracts/TPTPreSale.sol\":3122:3141  uint256 usdBnbPrice */\n      0x00\n        /* \"contracts/TPTPreSale.sol\":3154:3167  priceContract */\n      0x00\n      0x00\n      swap1\n      sload\n      swap1\n      0x0100\n      exp\n      swap1\n      div\n      0xffffffffffffffffffffffffffffffffffffffff\n      and\n        /* \"contracts/TPTPreSale.sol\":3144:3180  IBNBPrice(priceContract).viewAverage */\n      0xffffffffffffffffffffffffffffffffffffffff\n      and\n      0xe03d1632\n        /* \"contracts/TPTPreSale.sol\":3144:3182  IBNBPrice(priceContract).viewAverage() */\n      mload(0x40)\n      dup2\n      0xffffffff\n      and\n      0xe0\n      shl\n      dup2\n      mstore\n      0x04\n      add\n      0x20\n      mload(0x40)\n      dup1\n      dup4\n      sub\n      dup2\n      dup7\n      gas\n      staticcall\n      iszero\n      dup1\n      iszero\n      tag_164\n      jumpi\n      returndatacopy(0x00, 0x00, returndatasize)\n      revert(0x00, returndatasize)\n    tag_164:\n      pop\n      pop\n      pop\n      pop\n      mload(0x40)\n      returndatasize\n      not(0x1f)\n      0x1f\n      dup3\n      add\n      and\n      dup3\n      add\n      dup1\n      0x40\n      mstore\n      pop\n      dup2\n      add\n      swap1\n      tag_165\n      swap2\n      swap1\n      tag_166\n      jump\t// in\n    tag_165:\n        /* \"contracts/TPTPreSale.sol\":3122:3182  uint256 usdBnbPrice = IBNBPrice(priceContract).viewAverage() */\n      swap1\n      pop\n        /* \"contracts/TPTPreSale.sol\":3192:3206  uint256 amount */\n      0x00\n        /* \"contracts/TPTPreSale.sol\":3220:3229  _useOffer */\n      dup3\n        /* \"contracts/TPTPreSale.sol\":3216:3591  if (_useOffer) {... */\n      iszero\n      tag_167\n      jumpi\n        /* \"contracts/TPTPreSale.sol\":3253:3258  users */\n      0x07\n        /* \"contracts/TPTPreSale.sol\":3253:3278  users[userId[msg.sender]] */\n      0x00\n        /* \"contracts/TPTPreSale.sol\":3259:3265  userId */\n      0x06\n        /* \"contracts/TPTPreSale.sol\":3259:3277  userId[msg.sender] */\n      0x00\n        /* \"contracts/TPTPreSale.sol\":3266:3276  msg.sender */\n      caller\n        /* \"contracts/TPTPreSale.sol\":3259:3277  userId[msg.sender] */\n      0xffffffffffffffffffffffffffffffffffffffff\n      and\n      0xffffffffffffffffffffffffffffffffffffffff\n      and\n      dup2\n      mstore\n      0x20\n      add\n      swap1\n      dup2\n      mstore\n      0x20\n      add\n      0x00\n      keccak256\n      sload\n        /* \"contracts/TPTPreSale.sol\":3253:3278  users[userId[msg.sender]] */\n      dup2\n      mstore\n      0x20\n      add\n      swap1\n      dup2\n      mstore\n      0x20\n      add\n      0x00\n      keccak256\n        /* \"contracts/TPTPreSale.sol\":3253:3287  users[userId[msg.sender]].hasOffer */\n      0x02\n      add\n      0x00\n      swap1\n      sload\n      swap1\n      0x0100\n      exp\n      swap1\n      div\n      0xff\n      and\n        /* \"contracts/TPTPreSale.sol\":3245:3305  require(users[userId[msg.sender]].hasOffer, \"no offer more\") */\n      tag_168\n      jumpi\n      mload(0x40)\n      0x08c379a000000000000000000000000000000000000000000000000000000000\n      dup2\n      mstore\n      0x04\n      add\n      tag_169\n      swap1\n      tag_170\n      jump\t// in\n    tag_169:\n      mload(0x40)\n      dup1\n      swap2\n      sub\n      swap1\n      revert\n    tag_168:\n        /* \"contracts/TPTPreSale.sol\":3424:3425  2 */\n      0x02\n        /* \"contracts/TPTPreSale.sol\":3382:3394  tptStepPrice */\n      dup1\n        /* \"contracts/TPTPreSale.sol\":3382:3404  tptStepPrice[thisStep] */\n      0x00\n        /* \"contracts/TPTPreSale.sol\":3395:3403  thisStep */\n      0x01\n      0x15\n      swap1\n      sload\n      swap1\n      0x0100\n      exp\n      swap1\n      div\n      0xff\n      and\n        /* \"contracts/TPTPreSale.sol\":3382:3404  tptStepPrice[thisStep] */\n      0xff\n      and\n      0xff\n      and\n      dup2\n      mstore\n      0x20\n      add\n      swap1\n      dup2\n      mstore\n      0x20\n      add\n      0x00\n      keccak256\n      sload\n        /* \"contracts/TPTPreSale.sol\":3367:3378  usdBnbPrice */\n      dup4\n        /* \"contracts/TPTPreSale.sol\":3359:3363  1e18 */\n      0x0de0b6b3a7640000\n        /* \"contracts/TPTPreSale.sol\":3347:3356  msg.value */\n      callvalue\n        /* \"contracts/TPTPreSale.sol\":3347:3363  msg.value * 1e18 */\n      tag_171\n      swap2\n      swap1\n      tag_172\n      jump\t// in\n    tag_171:\n        /* \"contracts/TPTPreSale.sol\":3346:3378  (msg.value * 1e18) / usdBnbPrice */\n      tag_173\n      swap2\n      swap1\n      tag_174\n      jump\t// in\n    tag_173:\n        /* \"contracts/TPTPreSale.sol\":3345:3404  ((msg.value * 1e18) / usdBnbPrice) / tptStepPrice[thisStep] */\n      tag_175\n      swap2\n      swap1\n      tag_174\n      jump\t// in\n    tag_175:\n        /* \"contracts/TPTPreSale.sol\":3344:3425  (((msg.value * 1e18) / usdBnbPrice) / tptStepPrice[thisStep]) *... */\n      tag_176\n      swap2\n      swap1\n      tag_172\n      jump\t// in\n    tag_176:\n        /* \"contracts/TPTPreSale.sol\":3319:3425  amount =... */\n      swap1\n      pop\n        /* \"contracts/TPTPreSale.sol\":3476:3481  false */\n      0x00\n        /* \"contracts/TPTPreSale.sol\":3439:3444  users */\n      0x07\n        /* \"contracts/TPTPreSale.sol\":3439:3464  users[userId[msg.sender]] */\n      0x00\n        /* \"contracts/TPTPreSale.sol\":3445:3451  userId */\n      0x06\n        /* \"contracts/TPTPreSale.sol\":3445:3463  userId[msg.sender] */\n      0x00\n        /* \"contracts/TPTPreSale.sol\":3452:3462  msg.sender */\n      caller\n        /* \"contracts/TPTPreSale.sol\":3445:3463  userId[msg.sender] */\n      0xffffffffffffffffffffffffffffffffffffffff\n      and\n      0xffffffffffffffffffffffffffffffffffffffff\n      and\n      dup2\n      mstore\n      0x20\n      add\n      swap1\n      dup2\n      mstore\n      0x20\n      add\n      0x00\n      keccak256\n      sload\n        /* \"contracts/TPTPreSale.sol\":3439:3464  users[userId[msg.sender]] */\n      dup2\n      mstore\n      0x20\n      add\n      swap1\n      dup2\n      mstore\n      0x20\n      add\n      0x00\n      keccak256\n        /* \"contracts/TPTPreSale.sol\":3439:3473  users[userId[msg.sender]].hasOffer */\n      0x02\n      add\n      0x00\n        /* \"contracts/TPTPreSale.sol\":3439:3481  users[userId[msg.sender]].hasOffer = false */\n      0x0100\n      exp\n      dup2\n      sload\n      dup2\n      0xff\n      mul\n      not\n      and\n      swap1\n      dup4\n      iszero\n      iszero\n      mul\n      or\n      swap1\n      sstore\n      pop\n        /* \"contracts/TPTPreSale.sol\":3216:3591  if (_useOffer) {... */\n      jump(tag_177)\n    tag_167:\n        /* \"contracts/TPTPreSale.sol\":3558:3570  tptStepPrice */\n      0x02\n        /* \"contracts/TPTPreSale.sol\":3558:3580  tptStepPrice[thisStep] */\n      0x00\n        /* \"contracts/TPTPreSale.sol\":3571:3579  thisStep */\n      0x01\n      0x15\n      swap1\n      sload\n      swap1\n      0x0100\n      exp\n      swap1\n      div\n      0xff\n      and\n        /* \"contracts/TPTPreSale.sol\":3558:3580  tptStepPrice[thisStep] */\n      0xff\n      and\n      0xff\n      and\n      dup2\n      mstore\n      0x20\n      add\n      swap1\n      dup2\n      mstore\n      0x20\n      add\n      0x00\n      keccak256\n      sload\n        /* \"contracts/TPTPreSale.sol\":3543:3554  usdBnbPrice */\n      dup3\n        /* \"contracts/TPTPreSale.sol\":3535:3539  1e18 */\n      0x0de0b6b3a7640000\n        /* \"contracts/TPTPreSale.sol\":3523:3532  msg.value */\n      callvalue\n        /* \"contracts/TPTPreSale.sol\":3523:3539  msg.value * 1e18 */\n      tag_178\n      swap2\n      swap1\n      tag_172\n      jump\t// in\n    tag_178:\n        /* \"contracts/TPTPreSale.sol\":3522:3554  (msg.value * 1e18) / usdBnbPrice */\n      tag_179\n      swap2\n      swap1\n      tag_174\n      jump\t// in\n    tag_179:\n        /* \"contracts/TPTPreSale.sol\":3521:3580  ((msg.value * 1e18) / usdBnbPrice) / tptStepPrice[thisStep] */\n      tag_180\n      swap2\n      swap1\n      tag_174\n      jump\t// in\n    tag_180:\n        /* \"contracts/TPTPreSale.sol\":3512:3580  amount = ((msg.value * 1e18) / usdBnbPrice) / tptStepPrice[thisStep] */\n      swap1\n      pop\n        /* \"contracts/TPTPreSale.sol\":3216:3591  if (_useOffer) {... */\n    tag_177:\n        /* \"contracts/TPTPreSale.sol\":3640:3646  amount */\n      dup1\n        /* \"contracts/TPTPreSale.sol\":3600:3605  users */\n      0x07\n        /* \"contracts/TPTPreSale.sol\":3600:3625  users[userId[msg.sender]] */\n      0x00\n        /* \"contracts/TPTPreSale.sol\":3606:3612  userId */\n      0x06\n        /* \"contracts/TPTPreSale.sol\":3606:3624  userId[msg.sender] */\n      0x00\n        /* \"contracts/TPTPreSale.sol\":3613:3623  msg.sender */\n      caller\n        /* \"contracts/TPTPreSale.sol\":3606:3624  userId[msg.sender] */\n      0xffffffffffffffffffffffffffffffffffffffff\n      and\n      0xffffffffffffffffffffffffffffffffffffffff\n      and\n      dup2\n      mstore\n      0x20\n      add\n      swap1\n      dup2\n      mstore\n      0x20\n      add\n      0x00\n      keccak256\n      sload\n        /* \"contracts/TPTPreSale.sol\":3600:3625  users[userId[msg.sender]] */\n      dup2\n      mstore\n      0x20\n      add\n      swap1\n      dup2\n      mstore\n      0x20\n      add\n      0x00\n      keccak256\n        /* \"contracts/TPTPreSale.sol\":3600:3636  users[userId[msg.sender]].tptBalance */\n      0x01\n      add\n      0x00\n        /* \"contracts/TPTPreSale.sol\":3600:3646  users[userId[msg.sender]].tptBalance += amount */\n      dup3\n      dup3\n      sload\n      tag_181\n      swap2\n      swap1\n      tag_182\n      jump\t// in\n    tag_181:\n      swap3\n      pop\n      pop\n      dup2\n      swap1\n      sstore\n      pop\n        /* \"contracts/TPTPreSale.sol\":3656:3661  users */\n      0x07\n        /* \"contracts/TPTPreSale.sol\":3656:3681  users[userId[msg.sender]] */\n      0x00\n        /* \"contracts/TPTPreSale.sol\":3662:3668  userId */\n      0x06\n        /* \"contracts/TPTPreSale.sol\":3662:3680  userId[msg.sender] */\n      0x00\n        /* \"contracts/TPTPreSale.sol\":3669:3679  msg.sender */\n      caller\n        /* \"contracts/TPTPreSale.sol\":3662:3680  userId[msg.sender] */\n      0xffffffffffffffffffffffffffffffffffffffff\n      and\n      0xffffffffffffffffffffffffffffffffffffffff\n      and\n      dup2\n      mstore\n      0x20\n      add\n      swap1\n      dup2\n      mstore\n      0x20\n      add\n      0x00\n      keccak256\n      sload\n        /* \"contracts/TPTPreSale.sol\":3656:3681  users[userId[msg.sender]] */\n      dup2\n      mstore\n      0x20\n      add\n      swap1\n      dup2\n      mstore\n      0x20\n      add\n      0x00\n      keccak256\n        /* \"contracts/TPTPreSale.sol\":3656:3694  users[userId[msg.sender]].purchaseList */\n      0x03\n      add\n        /* \"contracts/TPTPreSale.sol\":3713:3767  Purchase(block.timestamp, msg.value, amount, thisStep) */\n      mload(0x40)\n      dup1\n      0x80\n      add\n      0x40\n      mstore\n      dup1\n        /* \"contracts/TPTPreSale.sol\":3722:3737  block.timestamp */\n      timestamp\n        /* \"contracts/TPTPreSale.sol\":3713:3767  Purchase(block.timestamp, msg.value, amount, thisStep) */\n      dup2\n      mstore\n      0x20\n      add\n        /* \"contracts/TPTPreSale.sol\":3739:3748  msg.value */\n      callvalue\n        /* \"contracts/TPTPreSale.sol\":3713:3767  Purchase(block.timestamp, msg.value, amount, thisStep) */\n      dup2\n      mstore\n      0x20\n      add\n        /* \"contracts/TPTPreSale.sol\":3750:3756  amount */\n      dup4\n        /* \"contracts/TPTPreSale.sol\":3713:3767  Purchase(block.timestamp, msg.value, amount, thisStep) */\n      dup2\n      mstore\n      0x20\n      add\n        /* \"contracts/TPTPreSale.sol\":3758:3766  thisStep */\n      0x01\n      0x15\n      swap1\n      sload\n      swap1\n      0x0100\n      exp\n      swap1\n      div\n      0xff\n      and\n        /* \"contracts/TPTPreSale.sol\":3713:3767  Purchase(block.timestamp, msg.value, amount, thisStep) */\n      0xff\n      and\n      dup2\n      mstore\n      pop\n        /* \"contracts/TPTPreSale.sol\":3656:3777  users[userId[msg.sender]].purchaseList.push(... */\n      swap1\n      dup1\n      0x01\n      dup2\n      sload\n      add\n      dup1\n      dup3\n      sstore\n      dup1\n      swap2\n      pop\n      pop\n      0x01\n      swap1\n      sub\n      swap1\n      0x00\n      mstore\n      keccak256(0x00, 0x20)\n      swap1\n      0x04\n      mul\n      add\n      0x00\n      swap1\n      swap2\n      swap1\n      swap2\n      swap1\n      swap2\n      pop\n      0x00\n      dup3\n      add\n      mload\n      dup2\n      0x00\n      add\n      sstore\n      0x20\n      dup3\n      add\n      mload\n      dup2\n      0x01\n      add\n      sstore\n      0x40\n      dup3\n      add\n      mload\n      dup2\n      0x02\n      add\n      sstore\n      0x60\n      dup3\n      add\n      mload\n      dup2\n      0x03\n      add\n      exp(0x0100, 0x00)\n      dup2\n      sload\n      dup2\n      0xff\n      mul\n      not\n      and\n      swap1\n      dup4\n      0xff\n      and\n      mul\n      or\n      swap1\n      sstore\n      pop\n      pop\n      pop\n        /* \"contracts/TPTPreSale.sol\":2724:3784  {... */\n      pop\n      pop\n        /* \"contracts/TPTPreSale.sol\":1112:1117  false */\n      0x00\n        /* \"contracts/TPTPreSale.sol\":1103:1109  locked */\n      0x01\n      0x14\n        /* \"contracts/TPTPreSale.sol\":1103:1117  locked = false */\n      0x0100\n      exp\n      dup2\n      sload\n      dup2\n      0xff\n      mul\n      not\n      and\n      swap1\n      dup4\n      iszero\n      iszero\n      mul\n      or\n      swap1\n      sstore\n      pop\n        /* \"contracts/TPTPreSale.sol\":2662:3784  function buyTPT(bool _useOffer) internal pauseable reentrancy {... */\n      pop\n      jump\t// out\n        /* \"contracts/TPTPreSale.sol\":4467:4673  function getPurchase(address _userAddress, uint256 index)... */\n    tag_64:\n        /* \"contracts/TPTPreSale.sol\":4572:4587  Purchase memory */\n      tag_184\n      tag_185\n      jump\t// in\n    tag_184:\n        /* \"contracts/TPTPreSale.sol\":4619:4624  users */\n      0x07\n        /* \"contracts/TPTPreSale.sol\":4619:4646  users[userId[_userAddress]] */\n      0x00\n        /* \"contracts/TPTPreSale.sol\":4625:4631  userId */\n      0x06\n        /* \"contracts/TPTPreSale.sol\":4625:4645  userId[_userAddress] */\n      0x00\n        /* \"contracts/TPTPreSale.sol\":4632:4644  _userAddress */\n      dup7\n        /* \"contracts/TPTPreSale.sol\":4625:4645  userId[_userAddress] */\n      0xffffffffffffffffffffffffffffffffffffffff\n      and\n      0xffffffffffffffffffffffffffffffffffffffff\n      and\n      dup2\n      mstore\n      0x20\n      add\n      swap1\n      dup2\n      mstore\n      0x20\n      add\n      0x00\n      keccak256\n      sload\n        /* \"contracts/TPTPreSale.sol\":4619:4646  users[userId[_userAddress]] */\n      dup2\n      mstore\n      0x20\n      add\n      swap1\n      dup2\n      mstore\n      0x20\n      add\n      0x00\n      keccak256\n        /* \"contracts/TPTPreSale.sol\":4619:4659  users[userId[_userAddress]].purchaseList */\n      0x03\n      add\n        /* \"contracts/TPTPreSale.sol\":4660:4665  index */\n      dup3\n        /* \"contracts/TPTPreSale.sol\":4619:4666  users[userId[_userAddress]].purchaseList[index] */\n      dup2\n      sload\n      dup2\n      lt\n      tag_187\n      jumpi\n      tag_188\n      tag_189\n      jump\t// in\n    tag_188:\n    tag_187:\n      swap1\n      0x00\n      mstore\n      keccak256(0x00, 0x20)\n      swap1\n      0x04\n      mul\n      add\n        /* \"contracts/TPTPreSale.sol\":4612:4666  return users[userId[_userAddress]].purchaseList[index] */\n      mload(0x40)\n      dup1\n      0x80\n      add\n      0x40\n      mstore\n      swap1\n      dup2\n      0x00\n      dup3\n      add\n      sload\n      dup2\n      mstore\n      0x20\n      add\n      0x01\n      dup3\n      add\n      sload\n      dup2\n      mstore\n      0x20\n      add\n      0x02\n      dup3\n      add\n      sload\n      dup2\n      mstore\n      0x20\n      add\n      0x03\n      dup3\n      add\n      0x00\n      swap1\n      sload\n      swap1\n      0x0100\n      exp\n      swap1\n      div\n      0xff\n      and\n      0xff\n      and\n      0xff\n      and\n      dup2\n      mstore\n      pop\n      pop\n      swap1\n      pop\n        /* \"contracts/TPTPreSale.sol\":4467:4673  function getPurchase(address _userAddress, uint256 index)... */\n      swap3\n      swap2\n      pop\n      pop\n      jump\t// out\n        /* \"contracts/TPTPreSale.sol\":4679:4780  function getUserId(address user) external view returns (uint256) {... */\n    tag_71:\n        /* \"contracts/TPTPreSale.sol\":4735:4742  uint256 */\n      0x00\n        /* \"contracts/TPTPreSale.sol\":4761:4767  userId */\n      0x06\n        /* \"contracts/TPTPreSale.sol\":4761:4773  userId[user] */\n      0x00\n        /* \"contracts/TPTPreSale.sol\":4768:4772  user */\n      dup4\n        /* \"contracts/TPTPreSale.sol\":4761:4773  userId[user] */\n      0xffffffffffffffffffffffffffffffffffffffff\n      and\n      0xffffffffffffffffffffffffffffffffffffffff\n      and\n      dup2\n      mstore\n      0x20\n      add\n      swap1\n      dup2\n      mstore\n      0x20\n      add\n      0x00\n      keccak256\n      sload\n        /* \"contracts/TPTPreSale.sol\":4754:4773  return userId[user] */\n      swap1\n      pop\n        /* \"contracts/TPTPreSale.sol\":4679:4780  function getUserId(address user) external view returns (uint256) {... */\n      swap2\n      swap1\n      pop\n      jump\t// out\n        /* \"contracts/TPTPreSale.sol\":4282:4461  function getPurchaseCount(address _userAddress)... */\n    tag_77:\n        /* \"contracts/TPTPreSale.sol\":4377:4384  uint256 */\n      0x00\n        /* \"contracts/TPTPreSale.sol\":4407:4412  users */\n      0x07\n        /* \"contracts/TPTPreSale.sol\":4407:4434  users[userId[_userAddress]] */\n      0x00\n        /* \"contracts/TPTPreSale.sol\":4413:4419  userId */\n      0x06\n        /* \"contracts/TPTPreSale.sol\":4413:4433  userId[_userAddress] */\n      0x00\n        /* \"contracts/TPTPreSale.sol\":4420:4432  _userAddress */\n      dup6\n        /* \"contracts/TPTPreSale.sol\":4413:4433  userId[_userAddress] */\n      0xffffffffffffffffffffffffffffffffffffffff\n      and\n      0xffffffffffffffffffffffffffffffffffffffff\n      and\n      dup2\n      mstore\n      0x20\n      add\n      swap1\n      dup2\n      mstore\n      0x20\n      add\n      0x00\n      keccak256\n      sload\n        /* \"contracts/TPTPreSale.sol\":4407:4434  users[userId[_userAddress]] */\n      dup2\n      mstore\n      0x20\n      add\n      swap1\n      dup2\n      mstore\n      0x20\n      add\n      0x00\n      keccak256\n        /* \"contracts/TPTPreSale.sol\":4407:4447  users[userId[_userAddress]].purchaseList */\n      0x03\n      add\n        /* \"contracts/TPTPreSale.sol\":4407:4454  users[userId[_userAddress]].purchaseList.length */\n      dup1\n      sload\n      swap1\n      pop\n        /* \"contracts/TPTPreSale.sol\":4400:4454  return users[userId[_userAddress]].purchaseList.length */\n      swap1\n      pop\n        /* \"contracts/TPTPreSale.sol\":4282:4461  function getPurchaseCount(address _userAddress)... */\n      swap2\n      swap1\n      pop\n      jump\t// out\n        /* \"contracts/TPTPreSale.sol\":2072:2166  function setPriceMode() public onlyOwner {... */\n    tag_81:\n        /* \"contracts/TPTPreSale.sol\":838:843  owner */\n      0x01\n      0x00\n      swap1\n      sload\n      swap1\n      0x0100\n      exp\n      swap1\n      div\n      0xffffffffffffffffffffffffffffffffffffffff\n      and\n        /* \"contracts/TPTPreSale.sol\":824:843  msg.sender == owner */\n      0xffffffffffffffffffffffffffffffffffffffff\n      and\n        /* \"contracts/TPTPreSale.sol\":824:834  msg.sender */\n      caller\n        /* \"contracts/TPTPreSale.sol\":824:843  msg.sender == owner */\n      0xffffffffffffffffffffffffffffffffffffffff\n      and\n      eq\n        /* \"contracts/TPTPreSale.sol\":816:858  require(msg.sender == owner, \"Only owner\") */\n      tag_194\n      jumpi\n      mload(0x40)\n      0x08c379a000000000000000000000000000000000000000000000000000000000\n      dup2\n      mstore\n      0x04\n      add\n      tag_195\n      swap1\n      tag_196\n      jump\t// in\n    tag_195:\n      mload(0x40)\n      dup1\n      swap2\n      sub\n      swap1\n      revert\n    tag_194:\n        /* \"contracts/TPTPreSale.sol\":2133:2146  priceContract */\n      0x00\n      0x00\n      swap1\n      sload\n      swap1\n      0x0100\n      exp\n      swap1\n      div\n      0xffffffffffffffffffffffffffffffffffffffff\n      and\n        /* \"contracts/TPTPreSale.sol\":2123:2157  IBNBPrice(priceContract).setEqMode */\n      0xffffffffffffffffffffffffffffffffffffffff\n      and\n      0x65a6cc2e\n        /* \"contracts/TPTPreSale.sol\":2123:2159  IBNBPrice(priceContract).setEqMode() */\n      mload(0x40)\n      dup2\n      0xffffffff\n      and\n      0xe0\n      shl\n      dup2\n      mstore\n      0x04\n      add\n      0x00\n      mload(0x40)\n      dup1\n      dup4\n      sub\n      dup2\n      0x00\n      dup8\n      dup1\n      extcodesize\n      iszero\n      dup1\n      iszero\n      tag_198\n      jumpi\n      revert(0x00, 0x00)\n    tag_198:\n      pop\n      gas\n      call\n      iszero\n      dup1\n      iszero\n      tag_200\n      jumpi\n      returndatacopy(0x00, 0x00, returndatasize)\n      revert(0x00, returndatasize)\n    tag_200:\n      pop\n      pop\n      pop\n      pop\n        /* \"contracts/TPTPreSale.sol\":2072:2166  function setPriceMode() public onlyOwner {... */\n      jump\t// out\n        /* \"contracts/TPTPreSale.sol\":2172:2308  function getPriceMode() public view onlyOwner returns (string memory) {... */\n    tag_84:\n        /* \"contracts/TPTPreSale.sol\":2227:2240  string memory */\n      0x60\n        /* \"contracts/TPTPreSale.sol\":838:843  owner */\n      0x01\n      0x00\n      swap1\n      sload\n      swap1\n      0x0100\n      exp\n      swap1\n      div\n      0xffffffffffffffffffffffffffffffffffffffff\n      and\n        /* \"contracts/TPTPreSale.sol\":824:843  msg.sender == owner */\n      0xffffffffffffffffffffffffffffffffffffffff\n      and\n        /* \"contracts/TPTPreSale.sol\":824:834  msg.sender */\n      caller\n        /* \"contracts/TPTPreSale.sol\":824:843  msg.sender == owner */\n      0xffffffffffffffffffffffffffffffffffffffff\n      and\n      eq\n        /* \"contracts/TPTPreSale.sol\":816:858  require(msg.sender == owner, \"Only owner\") */\n      tag_202\n      jumpi\n      mload(0x40)\n      0x08c379a000000000000000000000000000000000000000000000000000000000\n      dup2\n      mstore\n      0x04\n      add\n      tag_203\n      swap1\n      tag_196\n      jump\t// in\n    tag_203:\n      mload(0x40)\n      dup1\n      swap2\n      sub\n      swap1\n      revert\n    tag_202:\n        /* \"contracts/TPTPreSale.sol\":2269:2282  priceContract */\n      0x00\n      0x00\n      swap1\n      sload\n      swap1\n      0x0100\n      exp\n      swap1\n      div\n      0xffffffffffffffffffffffffffffffffffffffff\n      and\n        /* \"contracts/TPTPreSale.sol\":2259:2299  IBNBPrice(priceContract).getEqModeString */\n      0xffffffffffffffffffffffffffffffffffffffff\n      and\n      0xa1c6a405\n        /* \"contracts/TPTPreSale.sol\":2259:2301  IBNBPrice(priceContract).getEqModeString() */\n      mload(0x40)\n      dup2\n      0xffffffff\n      and\n      0xe0\n      shl\n      dup2\n      mstore\n      0x04\n      add\n      0x00\n      mload(0x40)\n      dup1\n      dup4\n      sub\n      dup2\n      dup7\n      gas\n      staticcall\n      iszero\n      dup1\n      iszero\n      tag_206\n      jumpi\n      returndatacopy(0x00, 0x00, returndatasize)\n      revert(0x00, returndatasize)\n    tag_206:\n      pop\n      pop\n      pop\n      pop\n      mload(0x40)\n      returndatasize\n      0x00\n      dup3\n      returndatacopy\n      returndatasize\n      not(0x1f)\n      0x1f\n      dup3\n      add\n      and\n      dup3\n      add\n      dup1\n      0x40\n      mstore\n      pop\n      dup2\n      add\n      swap1\n      tag_207\n      swap2\n      swap1\n      tag_208\n      jump\t// in\n    tag_207:\n        /* \"contracts/TPTPreSale.sol\":2252:2301  return IBNBPrice(priceContract).getEqModeString() */\n      swap1\n      pop\n        /* \"contracts/TPTPreSale.sol\":2172:2308  function getPriceMode() public view onlyOwner returns (string memory) {... */\n      swap1\n      jump\t// out\n        /* \"contracts/TPTPreSale.sol\":5226:5319  function chaneOwner(address payable  _owner) public onlyOwner{... */\n    tag_91:\n        /* \"contracts/TPTPreSale.sol\":838:843  owner */\n      0x01\n      0x00\n      swap1\n      sload\n      swap1\n      0x0100\n      exp\n      swap1\n      div\n      0xffffffffffffffffffffffffffffffffffffffff\n      and\n        /* \"contracts/TPTPreSale.sol\":824:843  msg.sender == owner */\n      0xffffffffffffffffffffffffffffffffffffffff\n      and\n        /* \"contracts/TPTPreSale.sol\":824:834  msg.sender */\n      caller\n        /* \"contracts/TPTPreSale.sol\":824:843  msg.sender == owner */\n      0xffffffffffffffffffffffffffffffffffffffff\n      and\n      eq\n        /* \"contracts/TPTPreSale.sol\":816:858  require(msg.sender == owner, \"Only owner\") */\n      tag_210\n      jumpi\n      mload(0x40)\n      0x08c379a000000000000000000000000000000000000000000000000000000000\n      dup2\n      mstore\n      0x04\n      add\n      tag_211\n      swap1\n      tag_196\n      jump\t// in\n    tag_211:\n      mload(0x40)\n      dup1\n      swap2\n      sub\n      swap1\n      revert\n    tag_210:\n        /* \"contracts/TPTPreSale.sol\":5305:5311  _owner */\n      dup1\n        /* \"contracts/TPTPreSale.sol\":5297:5302  owner */\n      0x01\n      0x00\n        /* \"contracts/TPTPreSale.sol\":5297:5311  owner = _owner */\n      0x0100\n      exp\n      dup2\n      sload\n      dup2\n      0xffffffffffffffffffffffffffffffffffffffff\n      mul\n      not\n      and\n      swap1\n      dup4\n      0xffffffffffffffffffffffffffffffffffffffff\n      and\n      mul\n      or\n      swap1\n      sstore\n      pop\n        /* \"contracts/TPTPreSale.sol\":5226:5319  function chaneOwner(address payable  _owner) public onlyOwner{... */\n      pop\n      jump\t// out\n        /* \"contracts/TPTPreSale.sol\":3998:4102  function getThisStepPrice() public view returns (uint256) {... */\n    tag_94:\n        /* \"contracts/TPTPreSale.sol\":4047:4054  uint256 */\n      0x00\n        /* \"contracts/TPTPreSale.sol\":4073:4085  tptStepPrice */\n      0x02\n        /* \"contracts/TPTPreSale.sol\":4073:4095  tptStepPrice[thisStep] */\n      0x00\n        /* \"contracts/TPTPreSale.sol\":4086:4094  thisStep */\n      0x01\n      0x15\n      swap1\n      sload\n      swap1\n      0x0100\n      exp\n      swap1\n      div\n      0xff\n      and\n        /* \"contracts/TPTPreSale.sol\":4073:4095  tptStepPrice[thisStep] */\n      0xff\n      and\n      0xff\n      and\n      dup2\n      mstore\n      0x20\n      add\n      swap1\n      dup2\n      mstore\n      0x20\n      add\n      0x00\n      keccak256\n      sload\n        /* \"contracts/TPTPreSale.sol\":4066:4095  return tptStepPrice[thisStep] */\n      swap1\n      pop\n        /* \"contracts/TPTPreSale.sol\":3998:4102  function getThisStepPrice() public view returns (uint256) {... */\n      swap1\n      jump\t// out\n        /* \"contracts/TPTPreSale.sol\":4786:4892  function getUserById(uint256 id) external view returns (UserInfo memory) {... */\n    tag_100:\n        /* \"contracts/TPTPreSale.sol\":4842:4857  UserInfo memory */\n      tag_214\n      tag_215\n      jump\t// in\n    tag_214:\n        /* \"contracts/TPTPreSale.sol\":4876:4881  users */\n      0x07\n        /* \"contracts/TPTPreSale.sol\":4876:4885  users[id] */\n      0x00\n        /* \"contracts/TPTPreSale.sol\":4882:4884  id */\n      dup4\n        /* \"contracts/TPTPreSale.sol\":4876:4885  users[id] */\n      dup2\n      mstore\n      0x20\n      add\n      swap1\n      dup2\n      mstore\n      0x20\n      add\n      0x00\n      keccak256\n        /* \"contracts/TPTPreSale.sol\":4869:4885  return users[id] */\n      mload(0x40)\n      dup1\n      0x80\n      add\n      0x40\n      mstore\n      swap1\n      dup2\n      0x00\n      dup3\n      add\n      0x00\n      swap1\n      sload\n      swap1\n      0x0100\n      exp\n      swap1\n      div\n      0xffffffffffffffffffffffffffffffffffffffff\n      and\n      0xffffffffffffffffffffffffffffffffffffffff\n      and\n      0xffffffffffffffffffffffffffffffffffffffff\n      and\n      dup2\n      mstore\n      0x20\n      add\n      0x01\n      dup3\n      add\n      sload\n      dup2\n      mstore\n      0x20\n      add\n      0x02\n      dup3\n      add\n      0x00\n      swap1\n      sload\n      swap1\n      0x0100\n      exp\n      swap1\n      div\n      0xff\n      and\n      iszero\n      iszero\n      iszero\n      iszero\n      dup2\n      mstore\n      0x20\n      add\n      0x03\n      dup3\n      add\n      dup1\n      sload\n      dup1\n      0x20\n      mul\n      0x20\n      add\n      mload(0x40)\n      swap1\n      dup2\n      add\n      0x40\n      mstore\n      dup1\n      swap3\n      swap2\n      swap1\n      dup2\n      dup2\n      mstore\n      0x20\n      add\n      0x00\n      swap1\n    tag_217:\n      dup3\n      dup3\n      lt\n      iszero\n      tag_218\n      jumpi\n      dup4\n      dup3\n      swap1\n      0x00\n      mstore\n      keccak256(0x00, 0x20)\n      swap1\n      0x04\n      mul\n      add\n      mload(0x40)\n      dup1\n      0x80\n      add\n      0x40\n      mstore\n      swap1\n      dup2\n      0x00\n      dup3\n      add\n      sload\n      dup2\n      mstore\n      0x20\n      add\n      0x01\n      dup3\n      add\n      sload\n      dup2\n      mstore\n      0x20\n      add\n      0x02\n      dup3\n      add\n      sload\n      dup2\n      mstore\n      0x20\n      add\n      0x03\n      dup3\n      add\n      0x00\n      swap1\n      sload\n      swap1\n      0x0100\n      exp\n      swap1\n      div\n      0xff\n      and\n      0xff\n      and\n      0xff\n      and\n      dup2\n      mstore\n      pop\n      pop\n      dup2\n      mstore\n      0x20\n      add\n      swap1\n      0x01\n      add\n      swap1\n      jump(tag_217)\n    tag_218:\n      pop\n      pop\n      pop\n      pop\n      dup2\n      mstore\n      pop\n      pop\n      swap1\n      pop\n        /* \"contracts/TPTPreSale.sol\":4786:4892  function getUserById(uint256 id) external view returns (UserInfo memory) {... */\n      swap2\n      swap1\n      pop\n      jump\t// out\n        /* \"contracts/TPTPreSale.sol\":3790:3874  function setThisStep(uint8 _step) public onlyOwner {... */\n    tag_107:\n        /* \"contracts/TPTPreSale.sol\":838:843  owner */\n      0x01\n      0x00\n      swap1\n      sload\n      swap1\n      0x0100\n      exp\n      swap1\n      div\n      0xffffffffffffffffffffffffffffffffffffffff\n      and\n        /* \"contracts/TPTPreSale.sol\":824:843  msg.sender == owner */\n      0xffffffffffffffffffffffffffffffffffffffff\n      and\n        /* \"contracts/TPTPreSale.sol\":824:834  msg.sender */\n      caller\n        /* \"contracts/TPTPreSale.sol\":824:843  msg.sender == owner */\n      0xffffffffffffffffffffffffffffffffffffffff\n      and\n      eq\n        /* \"contracts/TPTPreSale.sol\":816:858  require(msg.sender == owner, \"Only owner\") */\n      tag_221\n      jumpi\n      mload(0x40)\n      0x08c379a000000000000000000000000000000000000000000000000000000000\n      dup2\n      mstore\n      0x04\n      add\n      tag_222\n      swap1\n      tag_196\n      jump\t// in\n    tag_222:\n      mload(0x40)\n      dup1\n      swap2\n      sub\n      swap1\n      revert\n    tag_221:\n        /* \"contracts/TPTPreSale.sol\":3862:3867  _step */\n      dup1\n        /* \"contracts/TPTPreSale.sol\":3851:3859  thisStep */\n      0x01\n      0x15\n        /* \"contracts/TPTPreSale.sol\":3851:3867  thisStep = _step */\n      0x0100\n      exp\n      dup2\n      sload\n      dup2\n      0xff\n      mul\n      not\n      and\n      swap1\n      dup4\n      0xff\n      and\n      mul\n      or\n      swap1\n      sstore\n      pop\n        /* \"contracts/TPTPreSale.sol\":3790:3874  function setThisStep(uint8 _step) public onlyOwner {... */\n      pop\n      jump\t// out\n        /* \"contracts/TPTPreSale.sol\":155:183  address payable public owner */\n    tag_110:\n      0x01\n      0x00\n      swap1\n      sload\n      swap1\n      0x0100\n      exp\n      swap1\n      div\n      0xffffffffffffffffffffffffffffffffffffffff\n      and\n      dup2\n      jump\t// out\n        /* \"contracts/TPTPreSale.sol\":3880:3992  function setTPTPrice(uint8 _step, uint256 _price) public onlyOwner {... */\n    tag_117:\n        /* \"contracts/TPTPreSale.sol\":838:843  owner */\n      0x01\n      0x00\n      swap1\n      sload\n      swap1\n      0x0100\n      exp\n      swap1\n      div\n      0xffffffffffffffffffffffffffffffffffffffff\n      and\n        /* \"contracts/TPTPreSale.sol\":824:843  msg.sender == owner */\n      0xffffffffffffffffffffffffffffffffffffffff\n      and\n        /* \"contracts/TPTPreSale.sol\":824:834  msg.sender */\n      caller\n        /* \"contracts/TPTPreSale.sol\":824:843  msg.sender == owner */\n      0xffffffffffffffffffffffffffffffffffffffff\n      and\n      eq\n        /* \"contracts/TPTPreSale.sol\":816:858  require(msg.sender == owner, \"Only owner\") */\n      tag_225\n      jumpi\n      mload(0x40)\n      0x08c379a000000000000000000000000000000000000000000000000000000000\n      dup2\n      mstore\n      0x04\n      add\n      tag_226\n      swap1\n      tag_196\n      jump\t// in\n    tag_226:\n      mload(0x40)\n      dup1\n      swap2\n      sub\n      swap1\n      revert\n    tag_225:\n        /* \"contracts/TPTPreSale.sol\":3979:3985  _price */\n      dup1\n        /* \"contracts/TPTPreSale.sol\":3957:3969  tptStepPrice */\n      0x02\n        /* \"contracts/TPTPreSale.sol\":3957:3976  tptStepPrice[_step] */\n      0x00\n        /* \"contracts/TPTPreSale.sol\":3970:3975  _step */\n      dup5\n        /* \"contracts/TPTPreSale.sol\":3957:3976  tptStepPrice[_step] */\n      0xff\n      and\n      0xff\n      and\n      dup2\n      mstore\n      0x20\n      add\n      swap1\n      dup2\n      mstore\n      0x20\n      add\n      0x00\n      keccak256\n        /* \"contracts/TPTPreSale.sol\":3957:3985  tptStepPrice[_step] = _price */\n      dup2\n      swap1\n      sstore\n      pop\n        /* \"contracts/TPTPreSale.sol\":3880:3992  function setTPTPrice(uint8 _step, uint256 _price) public onlyOwner {... */\n      pop\n      pop\n      jump\t// out\n        /* \"contracts/TPTPreSale.sol\":215:236  uint8 public thisStep */\n    tag_120:\n      0x01\n      0x15\n      swap1\n      sload\n      swap1\n      0x0100\n      exp\n      swap1\n      div\n      0xff\n      and\n      dup2\n      jump\t// out\n        /* \"contracts/TPTPreSale.sol\":5076:5220  function setBNBPriceAddress(address payable _priceContract)... */\n    tag_126:\n        /* \"contracts/TPTPreSale.sol\":838:843  owner */\n      0x01\n      0x00\n      swap1\n      sload\n      swap1\n      0x0100\n      exp\n      swap1\n      div\n      0xffffffffffffffffffffffffffffffffffffffff\n      and\n        /* \"contracts/TPTPreSale.sol\":824:843  msg.sender == owner */\n      0xffffffffffffffffffffffffffffffffffffffff\n      and\n        /* \"contracts/TPTPreSale.sol\":824:834  msg.sender */\n      caller\n        /* \"contracts/TPTPreSale.sol\":824:843  msg.sender == owner */\n      0xffffffffffffffffffffffffffffffffffffffff\n      and\n      eq\n        /* \"contracts/TPTPreSale.sol\":816:858  require(msg.sender == owner, \"Only owner\") */\n      tag_229\n      jumpi\n      mload(0x40)\n      0x08c379a000000000000000000000000000000000000000000000000000000000\n      dup2\n      mstore\n      0x04\n      add\n      tag_230\n      swap1\n      tag_196\n      jump\t// in\n    tag_230:\n      mload(0x40)\n      dup1\n      swap2\n      sub\n      swap1\n      revert\n    tag_229:\n        /* \"contracts/TPTPreSale.sol\":5199:5213  _priceContract */\n      dup1\n        /* \"contracts/TPTPreSale.sol\":5183:5196  priceContract */\n      0x00\n      0x00\n        /* \"contracts/TPTPreSale.sol\":5183:5213  priceContract = _priceContract */\n      0x0100\n      exp\n      dup2\n      sload\n      dup2\n      0xffffffffffffffffffffffffffffffffffffffff\n      mul\n      not\n      and\n      swap1\n      dup4\n      0xffffffffffffffffffffffffffffffffffffffff\n      and\n      mul\n      or\n      swap1\n      sstore\n      pop\n        /* \"contracts/TPTPreSale.sol\":5076:5220  function setBNBPriceAddress(address payable _priceContract)... */\n      pop\n      jump\t// out\n        /* \"contracts/TPTPreSale.sol\":5326:5480  function setMinRequire(uint _min) public onlyOwner{... */\n    tag_130:\n        /* \"contracts/TPTPreSale.sol\":838:843  owner */\n      0x01\n      0x00\n      swap1\n      sload\n      swap1\n      0x0100\n      exp\n      swap1\n      div\n      0xffffffffffffffffffffffffffffffffffffffff\n      and\n        /* \"contracts/TPTPreSale.sol\":824:843  msg.sender == owner */\n      0xffffffffffffffffffffffffffffffffffffffff\n      and\n        /* \"contracts/TPTPreSale.sol\":824:834  msg.sender */\n      caller\n        /* \"contracts/TPTPreSale.sol\":824:843  msg.sender == owner */\n      0xffffffffffffffffffffffffffffffffffffffff\n      and\n      eq\n        /* \"contracts/TPTPreSale.sol\":816:858  require(msg.sender == owner, \"Only owner\") */\n      tag_233\n      jumpi\n      mload(0x40)\n      0x08c379a000000000000000000000000000000000000000000000000000000000\n      dup2\n      mstore\n      0x04\n      add\n      tag_234\n      swap1\n      tag_196\n      jump\t// in\n    tag_234:\n      mload(0x40)\n      dup1\n      swap2\n      sub\n      swap1\n      revert\n    tag_233:\n        /* \"contracts/TPTPreSale.sol\":5402:5413  getPriceTax */\n      sload(0x03)\n        /* \"contracts/TPTPreSale.sol\":5394:5398  _min */\n      dup2\n        /* \"contracts/TPTPreSale.sol\":5394:5413  _min >= getPriceTax */\n      lt\n      iszero\n        /* \"contracts/TPTPreSale.sol\":5386:5446  require(_min >= getPriceTax , \"min should be more than tax\") */\n      tag_236\n      jumpi\n      mload(0x40)\n      0x08c379a000000000000000000000000000000000000000000000000000000000\n      dup2\n      mstore\n      0x04\n      add\n      tag_237\n      swap1\n      tag_238\n      jump\t// in\n    tag_237:\n      mload(0x40)\n      dup1\n      swap2\n      sub\n      swap1\n      revert\n    tag_236:\n        /* \"contracts/TPTPreSale.sol\":5469:5473  _min */\n      dup1\n        /* \"contracts/TPTPreSale.sol\":5456:5466  minRequire */\n      0x04\n        /* \"contracts/TPTPreSale.sol\":5456:5473  minRequire = _min */\n      dup2\n      swap1\n      sstore\n      pop\n        /* \"contracts/TPTPreSale.sol\":5326:5480  function setMinRequire(uint _min) public onlyOwner{... */\n      pop\n      jump\t// out\n        /* \"contracts/TPTPreSale.sol\":380:405  uint256 public totalUsers */\n    tag_133:\n      sload(0x05)\n      dup2\n      jump\t// out\n        /* \"contracts/TPTPreSale.sol\":4108:4276  function withdrawAll(address payable _to) external onlyOwner {... */\n    tag_138:\n        /* \"contracts/TPTPreSale.sol\":838:843  owner */\n      0x01\n      0x00\n      swap1\n      sload\n      swap1\n      0x0100\n      exp\n      swap1\n      div\n      0xffffffffffffffffffffffffffffffffffffffff\n      and\n        /* \"contracts/TPTPreSale.sol\":824:843  msg.sender == owner */\n      0xffffffffffffffffffffffffffffffffffffffff\n      and\n        /* \"contracts/TPTPreSale.sol\":824:834  msg.sender */\n      caller\n        /* \"contracts/TPTPreSale.sol\":824:843  msg.sender == owner */\n      0xffffffffffffffffffffffffffffffffffffffff\n      and\n      eq\n        /* \"contracts/TPTPreSale.sol\":816:858  require(msg.sender == owner, \"Only owner\") */\n      tag_240\n      jumpi\n      mload(0x40)\n      0x08c379a000000000000000000000000000000000000000000000000000000000\n      dup2\n      mstore\n      0x04\n      add\n      tag_241\n      swap1\n      tag_196\n      jump\t// in\n    tag_241:\n      mload(0x40)\n      dup1\n      swap2\n      sub\n      swap1\n      revert\n    tag_240:\n        /* \"contracts/TPTPreSale.sol\":4202:4203  0 */\n      0x00\n        /* \"contracts/TPTPreSale.sol\":4187:4204  _to != address(0) */\n      0xffffffffffffffffffffffffffffffffffffffff\n      and\n        /* \"contracts/TPTPreSale.sol\":4187:4190  _to */\n      dup2\n        /* \"contracts/TPTPreSale.sol\":4187:4204  _to != address(0) */\n      0xffffffffffffffffffffffffffffffffffffffff\n      and\n      sub\n        /* \"contracts/TPTPreSale.sol\":4179:4224  require(_to != address(0), \"Invalid address\") */\n      tag_243\n      jumpi\n      mload(0x40)\n      0x08c379a000000000000000000000000000000000000000000000000000000000\n      dup2\n      mstore\n      0x04\n      add\n      tag_244\n      swap1\n      tag_245\n      jump\t// in\n    tag_244:\n      mload(0x40)\n      dup1\n      swap2\n      sub\n      swap1\n      revert\n    tag_243:\n        /* \"contracts/TPTPreSale.sol\":4234:4237  _to */\n      dup1\n        /* \"contracts/TPTPreSale.sol\":4234:4246  _to.transfer */\n      0xffffffffffffffffffffffffffffffffffffffff\n      and\n        /* \"contracts/TPTPreSale.sol\":4234:4269  _to.transfer(address(this).balance) */\n      0x08fc\n        /* \"contracts/TPTPreSale.sol\":4247:4268  address(this).balance */\n      selfbalance\n        /* \"contracts/TPTPreSale.sol\":4234:4269  _to.transfer(address(this).balance) */\n      swap1\n      dup2\n      iszero\n      mul\n      swap1\n      mload(0x40)\n      0x00\n      mload(0x40)\n      dup1\n      dup4\n      sub\n      dup2\n      dup6\n      dup9\n      dup9\n      call\n      swap4\n      pop\n      pop\n      pop\n      pop\n      iszero\n      dup1\n      iszero\n      tag_247\n      jumpi\n      returndatacopy(0x00, 0x00, returndatasize)\n      revert(0x00, returndatasize)\n    tag_247:\n      pop\n        /* \"contracts/TPTPreSale.sol\":4108:4276  function withdrawAll(address payable _to) external onlyOwner {... */\n      pop\n      jump\t// out\n        /* \"contracts/TPTPreSale.sol\":4898:5069  function getUserTPTBalance(address _userAddress)... */\n    tag_142:\n        /* \"contracts/TPTPreSale.sol\":4994:5001  uint256 */\n      0x00\n        /* \"contracts/TPTPreSale.sol\":5024:5029  users */\n      0x07\n        /* \"contracts/TPTPreSale.sol\":5024:5051  users[userId[_userAddress]] */\n      0x00\n        /* \"contracts/TPTPreSale.sol\":5030:5036  userId */\n      0x06\n        /* \"contracts/TPTPreSale.sol\":5030:5050  userId[_userAddress] */\n      0x00\n        /* \"contracts/TPTPreSale.sol\":5037:5049  _userAddress */\n      dup6\n        /* \"contracts/TPTPreSale.sol\":5030:5050  userId[_userAddress] */\n      0xffffffffffffffffffffffffffffffffffffffff\n      and\n      0xffffffffffffffffffffffffffffffffffffffff\n      and\n      dup2\n      mstore\n      0x20\n      add\n      swap1\n      dup2\n      mstore\n      0x20\n      add\n      0x00\n      keccak256\n      sload\n        /* \"contracts/TPTPreSale.sol\":5024:5051  users[userId[_userAddress]] */\n      dup2\n      mstore\n      0x20\n      add\n      swap1\n      dup2\n      mstore\n      0x20\n      add\n      0x00\n      keccak256\n        /* \"contracts/TPTPreSale.sol\":5024:5062  users[userId[_userAddress]].tptBalance */\n      0x01\n      add\n      sload\n        /* \"contracts/TPTPreSale.sol\":5017:5062  return users[userId[_userAddress]].tptBalance */\n      swap1\n      pop\n        /* \"contracts/TPTPreSale.sol\":4898:5069  function getUserTPTBalance(address _userAddress)... */\n      swap2\n      swap1\n      pop\n      jump\t// out\n        /* \"contracts/TPTPreSale.sol\":242:287  mapping(uint8 => uint256) public tptStepPrice */\n    tag_147:\n      mstore(0x20, 0x02)\n      dup1\n      0x00\n      mstore\n      keccak256(0x00, 0x40)\n      0x00\n      swap2\n      pop\n      swap1\n      pop\n      sload\n      dup2\n      jump\t// out\n    tag_162:\n      dup3\n      dup1\n      sload\n      dup3\n      dup3\n      sstore\n      swap1\n      0x00\n      mstore\n      keccak256(0x00, 0x20)\n      swap1\n      0x04\n      mul\n      dup2\n      add\n      swap3\n      dup3\n      iszero\n      tag_249\n      jumpi\n      0x00\n      mstore\n      keccak256(0x00, 0x20)\n      swap2\n      0x04\n      mul\n      dup3\n      add\n    tag_250:\n      dup3\n      dup2\n      gt\n      iszero\n      tag_251\n      jumpi\n      dup3\n      dup3\n      0x00\n      dup3\n      add\n      sload\n      dup2\n      0x00\n      add\n      sstore\n      0x01\n      dup3\n      add\n      sload\n      dup2\n      0x01\n      add\n      sstore\n      0x02\n      dup3\n      add\n      sload\n      dup2\n      0x02\n      add\n      sstore\n      0x03\n      dup3\n      add\n      0x00\n      swap1\n      sload\n      swap1\n      0x0100\n      exp\n      swap1\n      div\n      0xff\n      and\n      dup2\n      0x03\n      add\n      exp(0x0100, 0x00)\n      dup2\n      sload\n      dup2\n      0xff\n      mul\n      not\n      and\n      swap1\n      dup4\n      0xff\n      and\n      mul\n      or\n      swap1\n      sstore\n      pop\n      pop\n      pop\n      swap2\n      0x04\n      add\n      swap2\n      swap1\n      0x04\n      add\n      swap1\n      jump(tag_250)\n    tag_251:\n    tag_249:\n      pop\n      swap1\n      pop\n      tag_252\n      swap2\n      swap1\n      tag_253\n      jump\t// in\n    tag_252:\n      pop\n      swap1\n      jump\t// out\n    tag_185:\n      mload(0x40)\n      dup1\n      0x80\n      add\n      0x40\n      mstore\n      dup1\n      0x00\n      dup2\n      mstore\n      0x20\n      add\n      0x00\n      dup2\n      mstore\n      0x20\n      add\n      0x00\n      dup2\n      mstore\n      0x20\n      add\n      and(0xff, 0x00)\n      dup2\n      mstore\n      pop\n      swap1\n      jump\t// out\n    tag_215:\n      mload(0x40)\n      dup1\n      0x80\n      add\n      0x40\n      mstore\n      dup1\n      and(0xffffffffffffffffffffffffffffffffffffffff, 0x00)\n      dup2\n      mstore\n      0x20\n      add\n      0x00\n      dup2\n      mstore\n      0x20\n      add\n      iszero(iszero(0x00))\n      dup2\n      mstore\n      0x20\n      add\n      0x60\n      dup2\n      mstore\n      pop\n      swap1\n      jump\t// out\n    tag_253:\n    tag_254:\n      dup1\n      dup3\n      gt\n      iszero\n      tag_255\n      jumpi\n      0x00\n      0x00\n      dup3\n      add\n      0x00\n      swap1\n      sstore\n      0x01\n      dup3\n      add\n      0x00\n      swap1\n      sstore\n      0x02\n      dup3\n      add\n      0x00\n      swap1\n      sstore\n      0x03\n      dup3\n      add\n      exp(0x0100, 0x00)\n      dup2\n      sload\n      swap1\n      0xff\n      mul\n      not\n      and\n      swap1\n      sstore\n      pop\n      0x04\n      add\n      jump(tag_254)\n    tag_255:\n      pop\n      swap1\n      jump\t// out\n        /* \"#utility.yul\":7:176   */\n    tag_256:\n        /* \"#utility.yul\":91:102   */\n      0x00\n        /* \"#utility.yul\":125:131   */\n      dup3\n        /* \"#utility.yul\":120:123   */\n      dup3\n        /* \"#utility.yul\":113:132   */\n      mstore\n        /* \"#utility.yul\":165:169   */\n      0x20\n        /* \"#utility.yul\":160:163   */\n      dup3\n        /* \"#utility.yul\":156:170   */\n      add\n        /* \"#utility.yul\":141:170   */\n      swap1\n      pop\n        /* \"#utility.yul\":7:176   */\n      swap3\n      swap2\n      pop\n      pop\n      jump\t// out\n        /* \"#utility.yul\":182:356   */\n    tag_257:\n        /* \"#utility.yul\":322:348   */\n      0x53656e64206d6f726520424e4220746f20627579205450540000000000000000\n        /* \"#utility.yul\":318:319   */\n      0x00\n        /* \"#utility.yul\":310:316   */\n      dup3\n        /* \"#utility.yul\":306:320   */\n      add\n        /* \"#utility.yul\":299:349   */\n      mstore\n        /* \"#utility.yul\":182:356   */\n      pop\n      jump\t// out\n        /* \"#utility.yul\":362:728   */\n    tag_258:\n        /* \"#utility.yul\":504:507   */\n      0x00\n        /* \"#utility.yul\":525:592   */\n      tag_334\n        /* \"#utility.yul\":589:591   */\n      0x18\n        /* \"#utility.yul\":584:587   */\n      dup4\n        /* \"#utility.yul\":525:592   */\n      tag_256\n      jump\t// in\n    tag_334:\n        /* \"#utility.yul\":518:592   */\n      swap2\n      pop\n        /* \"#utility.yul\":601:694   */\n      tag_335\n        /* \"#utility.yul\":690:693   */\n      dup3\n        /* \"#utility.yul\":601:694   */\n      tag_257\n      jump\t// in\n    tag_335:\n        /* \"#utility.yul\":719:721   */\n      0x20\n        /* \"#utility.yul\":714:717   */\n      dup3\n        /* \"#utility.yul\":710:722   */\n      add\n        /* \"#utility.yul\":703:722   */\n      swap1\n      pop\n        /* \"#utility.yul\":362:728   */\n      swap2\n      swap1\n      pop\n      jump\t// out\n        /* \"#utility.yul\":734:1153   */\n    tag_28:\n        /* \"#utility.yul\":900:904   */\n      0x00\n        /* \"#utility.yul\":938:940   */\n      0x20\n        /* \"#utility.yul\":927:936   */\n      dup3\n        /* \"#utility.yul\":923:941   */\n      add\n        /* \"#utility.yul\":915:941   */\n      swap1\n      pop\n        /* \"#utility.yul\":987:996   */\n      dup2\n        /* \"#utility.yul\":981:985   */\n      dup2\n        /* \"#utility.yul\":977:997   */\n      sub\n        /* \"#utility.yul\":973:974   */\n      0x00\n        /* \"#utility.yul\":962:971   */\n      dup4\n        /* \"#utility.yul\":958:975   */\n      add\n        /* \"#utility.yul\":951:998   */\n      mstore\n        /* \"#utility.yul\":1015:1146   */\n      tag_337\n        /* \"#utility.yul\":1141:1145   */\n      dup2\n        /* \"#utility.yul\":1015:1146   */\n      tag_258\n      jump\t// in\n    tag_337:\n        /* \"#utility.yul\":1007:1146   */\n      swap1\n      pop\n        /* \"#utility.yul\":734:1153   */\n      swap2\n      swap1\n      pop\n      jump\t// out\n        /* \"#utility.yul\":1159:1306   */\n    tag_259:\n        /* \"#utility.yul\":1260:1271   */\n      0x00\n        /* \"#utility.yul\":1297:1300   */\n      dup2\n        /* \"#utility.yul\":1282:1300   */\n      swap1\n      pop\n        /* \"#utility.yul\":1159:1306   */\n      swap3\n      swap2\n      pop\n      pop\n      jump\t// out\n        /* \"#utility.yul\":1312:1426   */\n    tag_260:\n      pop\n      jump\t// out\n        /* \"#utility.yul\":1432:1830   */\n    tag_261:\n        /* \"#utility.yul\":1591:1594   */\n      0x00\n        /* \"#utility.yul\":1612:1695   */\n      tag_341\n        /* \"#utility.yul\":1693:1694   */\n      0x00\n        /* \"#utility.yul\":1688:1691   */\n      dup4\n        /* \"#utility.yul\":1612:1695   */\n      tag_259\n      jump\t// in\n    tag_341:\n        /* \"#utility.yul\":1605:1695   */\n      swap2\n      pop\n        /* \"#utility.yul\":1704:1797   */\n      tag_342\n        /* \"#utility.yul\":1793:1796   */\n      dup3\n        /* \"#utility.yul\":1704:1797   */\n      tag_260\n      jump\t// in\n    tag_342:\n        /* \"#utility.yul\":1822:1823   */\n      0x00\n        /* \"#utility.yul\":1817:1820   */\n      dup3\n        /* \"#utility.yul\":1813:1824   */\n      add\n        /* \"#utility.yul\":1806:1824   */\n      swap1\n      pop\n        /* \"#utility.yul\":1432:1830   */\n      swap2\n      swap1\n      pop\n      jump\t// out\n        /* \"#utility.yul\":1836:2215   */\n    tag_30:\n        /* \"#utility.yul\":2020:2023   */\n      0x00\n        /* \"#utility.yul\":2042:2189   */\n      tag_344\n        /* \"#utility.yul\":2185:2188   */\n      dup3\n        /* \"#utility.yul\":2042:2189   */\n      tag_261\n      jump\t// in\n    tag_344:\n        /* \"#utility.yul\":2035:2189   */\n      swap2\n      pop\n        /* \"#utility.yul\":2206:2209   */\n      dup2\n        /* \"#utility.yul\":2199:2209   */\n      swap1\n      pop\n        /* \"#utility.yul\":1836:2215   */\n      swap2\n      swap1\n      pop\n      jump\t// out\n        /* \"#utility.yul\":2221:2386   */\n    tag_262:\n        /* \"#utility.yul\":2361:2378   */\n      0x5472616e73666572206661696c65640000000000000000000000000000000000\n        /* \"#utility.yul\":2357:2358   */\n      0x00\n        /* \"#utility.yul\":2349:2355   */\n      dup3\n        /* \"#utility.yul\":2345:2359   */\n      add\n        /* \"#utility.yul\":2338:2379   */\n      mstore\n        /* \"#utility.yul\":2221:2386   */\n      pop\n      jump\t// out\n        /* \"#utility.yul\":2392:2758   */\n    tag_263:\n        /* \"#utility.yul\":2534:2537   */\n      0x00\n        /* \"#utility.yul\":2555:2622   */\n      tag_347\n        /* \"#utility.yul\":2619:2621   */\n      0x0f\n        /* \"#utility.yul\":2614:2617   */\n      dup4\n        /* \"#utility.yul\":2555:2622   */\n      tag_256\n      jump\t// in\n    tag_347:\n        /* \"#utility.yul\":2548:2622   */\n      swap2\n      pop\n        /* \"#utility.yul\":2631:2724   */\n      tag_348\n        /* \"#utility.yul\":2720:2723   */\n      dup3\n        /* \"#utility.yul\":2631:2724   */\n      tag_262\n      jump\t// in\n    tag_348:\n        /* \"#utility.yul\":2749:2751   */\n      0x20\n        /* \"#utility.yul\":2744:2747   */\n      dup3\n        /* \"#utility.yul\":2740:2752   */\n      add\n        /* \"#utility.yul\":2733:2752   */\n      swap1\n      pop\n        /* \"#utility.yul\":2392:2758   */\n      swap2\n      swap1\n      pop\n      jump\t// out\n        /* \"#utility.yul\":2764:3183   */\n    tag_36:\n        /* \"#utility.yul\":2930:2934   */\n      0x00\n        /* \"#utility.yul\":2968:2970   */\n      0x20\n        /* \"#utility.yul\":2957:2966   */\n      dup3\n        /* \"#utility.yul\":2953:2971   */\n      add\n        /* \"#utility.yul\":2945:2971   */\n      swap1\n      pop\n        /* \"#utility.yul\":3017:3026   */\n      dup2\n        /* \"#utility.yul\":3011:3015   */\n      dup2\n        /* \"#utility.yul\":3007:3027   */\n      sub\n        /* \"#utility.yul\":3003:3004   */\n      0x00\n        /* \"#utility.yul\":2992:3001   */\n      dup4\n        /* \"#utility.yul\":2988:3005   */\n      add\n        /* \"#utility.yul\":2981:3028   */\n      mstore\n        /* \"#utility.yul\":3045:3176   */\n      tag_350\n        /* \"#utility.yul\":3171:3175   */\n      dup2\n        /* \"#utility.yul\":3045:3176   */\n      tag_263\n      jump\t// in\n    tag_350:\n        /* \"#utility.yul\":3037:3176   */\n      swap1\n      pop\n        /* \"#utility.yul\":2764:3183   */\n      swap2\n      swap1\n      pop\n      jump\t// out\n        /* \"#utility.yul\":3189:3358   */\n    tag_264:\n        /* \"#utility.yul\":3329:3350   */\n      0x496e76616c69642064617461206c656e67746800000000000000000000000000\n        /* \"#utility.yul\":3325:3326   */\n      0x00\n        /* \"#utility.yul\":3317:3323   */\n      dup3\n        /* \"#utility.yul\":3313:3327   */\n      add\n        /* \"#utility.yul\":3306:3351   */\n      mstore\n        /* \"#utility.yul\":3189:3358   */\n      pop\n      jump\t// out\n        /* \"#utility.yul\":3364:3730   */\n    tag_265:\n        /* \"#utility.yul\":3506:3509   */\n      0x00\n        /* \"#utility.yul\":3527:3594   */\n      tag_353\n        /* \"#utility.yul\":3591:3593   */\n      0x13\n        /* \"#utility.yul\":3586:3589   */\n      dup4\n        /* \"#utility.yul\":3527:3594   */\n      tag_256\n      jump\t// in\n    tag_353:\n        /* \"#utility.yul\":3520:3594   */\n      swap2\n      pop\n        /* \"#utility.yul\":3603:3696   */\n      tag_354\n        /* \"#utility.yul\":3692:3695   */\n      dup3\n        /* \"#utility.yul\":3603:3696   */\n      tag_264\n      jump\t// in\n    tag_354:\n        /* \"#utility.yul\":3721:3723   */\n      0x20\n        /* \"#utility.yul\":3716:3719   */\n      dup3\n        /* \"#utility.yul\":3712:3724   */\n      add\n        /* \"#utility.yul\":3705:3724   */\n      swap1\n      pop\n        /* \"#utility.yul\":3364:3730   */\n      swap2\n      swap1\n      pop\n      jump\t// out\n        /* \"#utility.yul\":3736:4155   */\n    tag_45:\n        /* \"#utility.yul\":3902:3906   */\n      0x00\n        /* \"#utility.yul\":3940:3942   */\n      0x20\n        /* \"#utility.yul\":3929:3938   */\n      dup3\n        /* \"#utility.yul\":3925:3943   */\n      add\n        /* \"#utility.yul\":3917:3943   */\n      swap1\n      pop\n        /* \"#utility.yul\":3989:3998   */\n      dup2\n        /* \"#utility.yul\":3983:3987   */\n      dup2\n        /* \"#utility.yul\":3979:3999   */\n      sub\n        /* \"#utility.yul\":3975:3976   */\n      0x00\n        /* \"#utility.yul\":3964:3973   */\n      dup4\n        /* \"#utility.yul\":3960:3977   */\n      add\n        /* \"#utility.yul\":3953:4000   */\n      mstore\n        /* \"#utility.yul\":4017:4148   */\n      tag_356\n        /* \"#utility.yul\":4143:4147   */\n      dup2\n        /* \"#utility.yul\":4017:4148   */\n      tag_265\n      jump\t// in\n    tag_356:\n        /* \"#utility.yul\":4009:4148   */\n      swap1\n      pop\n        /* \"#utility.yul\":3736:4155   */\n      swap2\n      swap1\n      pop\n      jump\t// out\n        /* \"#utility.yul\":4161:4236   */\n    tag_266:\n        /* \"#utility.yul\":4194:4200   */\n      0x00\n        /* \"#utility.yul\":4227:4229   */\n      0x40\n        /* \"#utility.yul\":4221:4230   */\n      mload\n        /* \"#utility.yul\":4211:4230   */\n      swap1\n      pop\n        /* \"#utility.yul\":4161:4236   */\n      swap1\n      jump\t// out\n        /* \"#utility.yul\":4242:4359   */\n    tag_267:\n        /* \"#utility.yul\":4351:4352   */\n      0x00\n        /* \"#utility.yul\":4348:4349   */\n      0x00\n        /* \"#utility.yul\":4341:4353   */\n      revert\n        /* \"#utility.yul\":4365:4482   */\n    tag_268:\n        /* \"#utility.yul\":4474:4475   */\n      0x00\n        /* \"#utility.yul\":4471:4472   */\n      0x00\n        /* \"#utility.yul\":4464:4476   */\n      revert\n        /* \"#utility.yul\":4488:4578   */\n    tag_269:\n        /* \"#utility.yul\":4522:4529   */\n      0x00\n        /* \"#utility.yul\":4565:4570   */\n      dup2\n        /* \"#utility.yul\":4558:4571   */\n      iszero\n        /* \"#utility.yul\":4551:4572   */\n      iszero\n        /* \"#utility.yul\":4540:4572   */\n      swap1\n      pop\n        /* \"#utility.yul\":4488:4578   */\n      swap2\n      swap1\n      pop\n      jump\t// out\n        /* \"#utility.yul\":4584:4700   */\n    tag_270:\n        /* \"#utility.yul\":4654:4675   */\n      tag_362\n        /* \"#utility.yul\":4669:4674   */\n      dup2\n        /* \"#utility.yul\":4654:4675   */\n      tag_269\n      jump\t// in\n    tag_362:\n        /* \"#utility.yul\":4647:4652   */\n      dup2\n        /* \"#utility.yul\":4644:4676   */\n      eq\n        /* \"#utility.yul\":4634:4694   */\n      tag_363\n      jumpi\n        /* \"#utility.yul\":4690:4691   */\n      0x00\n        /* \"#utility.yul\":4687:4688   */\n      0x00\n        /* \"#utility.yul\":4680:4692   */\n      revert\n        /* \"#utility.yul\":4634:4694   */\n    tag_363:\n        /* \"#utility.yul\":4584:4700   */\n      pop\n      jump\t// out\n        /* \"#utility.yul\":4706:4839   */\n    tag_271:\n        /* \"#utility.yul\":4749:4754   */\n      0x00\n        /* \"#utility.yul\":4787:4793   */\n      dup2\n        /* \"#utility.yul\":4774:4794   */\n      calldataload\n        /* \"#utility.yul\":4765:4794   */\n      swap1\n      pop\n        /* \"#utility.yul\":4803:4833   */\n      tag_365\n        /* \"#utility.yul\":4827:4832   */\n      dup2\n        /* \"#utility.yul\":4803:4833   */\n      tag_270\n      jump\t// in\n    tag_365:\n        /* \"#utility.yul\":4706:4839   */\n      swap3\n      swap2\n      pop\n      pop\n      jump\t// out\n        /* \"#utility.yul\":4845:5168   */\n    tag_47:\n        /* \"#utility.yul\":4901:4907   */\n      0x00\n        /* \"#utility.yul\":4950:4952   */\n      0x20\n        /* \"#utility.yul\":4938:4947   */\n      dup3\n        /* \"#utility.yul\":4929:4936   */\n      dup5\n        /* \"#utility.yul\":4925:4948   */\n      sub\n        /* \"#utility.yul\":4921:4953   */\n      slt\n        /* \"#utility.yul\":4918:5037   */\n      iszero\n      tag_367\n      jumpi\n        /* \"#utility.yul\":4956:5035   */\n      tag_368\n      tag_267\n      jump\t// in\n    tag_368:\n        /* \"#utility.yul\":4918:5037   */\n    tag_367:\n        /* \"#utility.yul\":5076:5077   */\n      0x00\n        /* \"#utility.yul\":5101:5151   */\n      tag_369\n        /* \"#utility.yul\":5143:5150   */\n      dup5\n        /* \"#utility.yul\":5134:5140   */\n      dup3\n        /* \"#utility.yul\":5123:5132   */\n      dup6\n        /* \"#utility.yul\":5119:5141   */\n      add\n        /* \"#utility.yul\":5101:5151   */\n      tag_271\n      jump\t// in\n    tag_369:\n        /* \"#utility.yul\":5091:5151   */\n      swap2\n      pop\n        /* \"#utility.yul\":5047:5161   */\n      pop\n        /* \"#utility.yul\":4845:5168   */\n      swap3\n      swap2\n      pop\n      pop\n      jump\t// out\n        /* \"#utility.yul\":5174:5342   */\n    tag_272:\n        /* \"#utility.yul\":5314:5334   */\n      0x73656e64206a75737420302e303520626e620000000000000000000000000000\n        /* \"#utility.yul\":5310:5311   */\n      0x00\n        /* \"#utility.yul\":5302:5308   */\n      dup3\n        /* \"#utility.yul\":5298:5312   */\n      add\n        /* \"#utility.yul\":5291:5335   */\n      mstore\n        /* \"#utility.yul\":5174:5342   */\n      pop\n      jump\t// out\n        /* \"#utility.yul\":5348:5714   */\n    tag_273:\n        /* \"#utility.yul\":5490:5493   */\n      0x00\n        /* \"#utility.yul\":5511:5578   */\n      tag_372\n        /* \"#utility.yul\":5575:5577   */\n      0x12\n        /* \"#utility.yul\":5570:5573   */\n      dup4\n        /* \"#utility.yul\":5511:5578   */\n      tag_256\n      jump\t// in\n    tag_372:\n        /* \"#utility.yul\":5504:5578   */\n      swap2\n      pop\n        /* \"#utility.yul\":5587:5680   */\n      tag_373\n        /* \"#utility.yul\":5676:5679   */\n      dup3\n        /* \"#utility.yul\":5587:5680   */\n      tag_272\n      jump\t// in\n    tag_373:\n        /* \"#utility.yul\":5705:5707   */\n      0x20\n        /* \"#utility.yul\":5700:5703   */\n      dup3\n        /* \"#utility.yul\":5696:5708   */\n      add\n        /* \"#utility.yul\":5689:5708   */\n      swap1\n      pop\n        /* \"#utility.yul\":5348:5714   */\n      swap2\n      swap1\n      pop\n      jump\t// out\n        /* \"#utility.yul\":5720:6139   */\n    tag_51:\n        /* \"#utility.yul\":5886:5890   */\n      0x00\n        /* \"#utility.yul\":5924:5926   */\n      0x20\n        /* \"#utility.yul\":5913:5922   */\n      dup3\n        /* \"#utility.yul\":5909:5927   */\n      add\n        /* \"#utility.yul\":5901:5927   */\n      swap1\n      pop\n        /* \"#utility.yul\":5973:5982   */\n      dup2\n        /* \"#utility.yul\":5967:5971   */\n      dup2\n        /* \"#utility.yul\":5963:5983   */\n      sub\n        /* \"#utility.yul\":5959:5960   */\n      0x00\n        /* \"#utility.yul\":5948:5957   */\n      dup4\n        /* \"#utility.yul\":5944:5961   */\n      add\n        /* \"#utility.yul\":5937:5984   */\n      mstore\n        /* \"#utility.yul\":6001:6132   */\n      tag_375\n        /* \"#utility.yul\":6127:6131   */\n      dup2\n        /* \"#utility.yul\":6001:6132   */\n      tag_273\n      jump\t// in\n    tag_375:\n        /* \"#utility.yul\":5993:6132   */\n      swap1\n      pop\n        /* \"#utility.yul\":5720:6139   */\n      swap2\n      swap1\n      pop\n      jump\t// out\n        /* \"#utility.yul\":6145:6271   */\n    tag_274:\n        /* \"#utility.yul\":6182:6189   */\n      0x00\n        /* \"#utility.yul\":6222:6264   */\n      0xffffffffffffffffffffffffffffffffffffffff\n        /* \"#utility.yul\":6215:6220   */\n      dup3\n        /* \"#utility.yul\":6211:6265   */\n      and\n        /* \"#utility.yul\":6200:6265   */\n      swap1\n      pop\n        /* \"#utility.yul\":6145:6271   */\n      swap2\n      swap1\n      pop\n      jump\t// out\n        /* \"#utility.yul\":6277:6373   */\n    tag_275:\n        /* \"#utility.yul\":6314:6321   */\n      0x00\n        /* \"#utility.yul\":6343:6367   */\n      tag_378\n        /* \"#utility.yul\":6361:6366   */\n      dup3\n        /* \"#utility.yul\":6343:6367   */\n      tag_274\n      jump\t// in\n    tag_378:\n        /* \"#utility.yul\":6332:6367   */\n      swap1\n      pop\n        /* \"#utility.yul\":6277:6373   */\n      swap2\n      swap1\n      pop\n      jump\t// out\n        /* \"#utility.yul\":6379:6501   */\n    tag_276:\n        /* \"#utility.yul\":6452:6476   */\n      tag_380\n        /* \"#utility.yul\":6470:6475   */\n      dup2\n        /* \"#utility.yul\":6452:6476   */\n      tag_275\n      jump\t// in\n    tag_380:\n        /* \"#utility.yul\":6445:6450   */\n      dup2\n        /* \"#utility.yul\":6442:6477   */\n      eq\n        /* \"#utility.yul\":6432:6495   */\n      tag_381\n      jumpi\n        /* \"#utility.yul\":6491:6492   */\n      0x00\n        /* \"#utility.yul\":6488:6489   */\n      0x00\n        /* \"#utility.yul\":6481:6493   */\n      revert\n        /* \"#utility.yul\":6432:6495   */\n    tag_381:\n        /* \"#utility.yul\":6379:6501   */\n      pop\n      jump\t// out\n        /* \"#utility.yul\":6507:6646   */\n    tag_277:\n        /* \"#utility.yul\":6553:6558   */\n      0x00\n        /* \"#utility.yul\":6591:6597   */\n      dup2\n        /* \"#utility.yul\":6578:6598   */\n      calldataload\n        /* \"#utility.yul\":6569:6598   */\n      swap1\n      pop\n        /* \"#utility.yul\":6607:6640   */\n      tag_383\n        /* \"#utility.yul\":6634:6639   */\n      dup2\n        /* \"#utility.yul\":6607:6640   */\n      tag_276\n      jump\t// in\n    tag_383:\n        /* \"#utility.yul\":6507:6646   */\n      swap3\n      swap2\n      pop\n      pop\n      jump\t// out\n        /* \"#utility.yul\":6652:6729   */\n    tag_278:\n        /* \"#utility.yul\":6689:6696   */\n      0x00\n        /* \"#utility.yul\":6718:6723   */\n      dup2\n        /* \"#utility.yul\":6707:6723   */\n      swap1\n      pop\n        /* \"#utility.yul\":6652:6729   */\n      swap2\n      swap1\n      pop\n      jump\t// out\n        /* \"#utility.yul\":6735:6857   */\n    tag_279:\n        /* \"#utility.yul\":6808:6832   */\n      tag_386\n        /* \"#utility.yul\":6826:6831   */\n      dup2\n        /* \"#utility.yul\":6808:6832   */\n      tag_278\n      jump\t// in\n    tag_386:\n        /* \"#utility.yul\":6801:6806   */\n      dup2\n        /* \"#utility.yul\":6798:6833   */\n      eq\n        /* \"#utility.yul\":6788:6851   */\n      tag_387\n      jumpi\n        /* \"#utility.yul\":6847:6848   */\n      0x00\n        /* \"#utility.yul\":6844:6845   */\n      0x00\n        /* \"#utility.yul\":6837:6849   */\n      revert\n        /* \"#utility.yul\":6788:6851   */\n    tag_387:\n        /* \"#utility.yul\":6735:6857   */\n      pop\n      jump\t// out\n        /* \"#utility.yul\":6863:7002   */\n    tag_280:\n        /* \"#utility.yul\":6909:6914   */\n      0x00\n        /* \"#utility.yul\":6947:6953   */\n      dup2\n        /* \"#utility.yul\":6934:6954   */\n      calldataload\n        /* \"#utility.yul\":6925:6954   */\n      swap1\n      pop\n        /* \"#utility.yul\":6963:6996   */\n      tag_389\n        /* \"#utility.yul\":6990:6995   */\n      dup2\n        /* \"#utility.yul\":6963:6996   */\n      tag_279\n      jump\t// in\n    tag_389:\n        /* \"#utility.yul\":6863:7002   */\n      swap3\n      swap2\n      pop\n      pop\n      jump\t// out\n        /* \"#utility.yul\":7008:7482   */\n    tag_63:\n        /* \"#utility.yul\":7076:7082   */\n      0x00\n        /* \"#utility.yul\":7084:7090   */\n      0x00\n        /* \"#utility.yul\":7133:7135   */\n      0x40\n        /* \"#utility.yul\":7121:7130   */\n      dup4\n        /* \"#utility.yul\":7112:7119   */\n      dup6\n        /* \"#utility.yul\":7108:7131   */\n      sub\n        /* \"#utility.yul\":7104:7136   */\n      slt\n        /* \"#utility.yul\":7101:7220   */\n      iszero\n      tag_391\n      jumpi\n        /* \"#utility.yul\":7139:7218   */\n      tag_392\n      tag_267\n      jump\t// in\n    tag_392:\n        /* \"#utility.yul\":7101:7220   */\n    tag_391:\n        /* \"#utility.yul\":7259:7260   */\n      0x00\n        /* \"#utility.yul\":7284:7337   */\n      tag_393\n        /* \"#utility.yul\":7329:7336   */\n      dup6\n        /* \"#utility.yul\":7320:7326   */\n      dup3\n        /* \"#utility.yul\":7309:7318   */\n      dup7\n        /* \"#utility.yul\":7305:7327   */\n      add\n        /* \"#utility.yul\":7284:7337   */\n      tag_277\n      jump\t// in\n    tag_393:\n        /* \"#utility.yul\":7274:7337   */\n      swap3\n      pop\n        /* \"#utility.yul\":7230:7347   */\n      pop\n        /* \"#utility.yul\":7386:7388   */\n      0x20\n        /* \"#utility.yul\":7412:7465   */\n      tag_394\n        /* \"#utility.yul\":7457:7464   */\n      dup6\n        /* \"#utility.yul\":7448:7454   */\n      dup3\n        /* \"#utility.yul\":7437:7446   */\n      dup7\n        /* \"#utility.yul\":7433:7455   */\n      add\n        /* \"#utility.yul\":7412:7465   */\n      tag_280\n      jump\t// in\n    tag_394:\n        /* \"#utility.yul\":7402:7465   */\n      swap2\n      pop\n        /* \"#utility.yul\":7357:7475   */\n      pop\n        /* \"#utility.yul\":7008:7482   */\n      swap3\n      pop\n      swap3\n      swap1\n      pop\n      jump\t// out\n        /* \"#utility.yul\":7488:7596   */\n    tag_281:\n        /* \"#utility.yul\":7565:7589   */\n      tag_396\n        /* \"#utility.yul\":7583:7588   */\n      dup2\n        /* \"#utility.yul\":7565:7589   */\n      tag_278\n      jump\t// in\n    tag_396:\n        /* \"#utility.yul\":7560:7563   */\n      dup3\n        /* \"#utility.yul\":7553:7590   */\n      mstore\n        /* \"#utility.yul\":7488:7596   */\n      pop\n      pop\n      jump\t// out\n        /* \"#utility.yul\":7602:7688   */\n    tag_282:\n        /* \"#utility.yul\":7637:7644   */\n      0x00\n        /* \"#utility.yul\":7677:7681   */\n      0xff\n        /* \"#utility.yul\":7670:7675   */\n      dup3\n        /* \"#utility.yul\":7666:7682   */\n      and\n        /* \"#utility.yul\":7655:7682   */\n      swap1\n      pop\n        /* \"#utility.yul\":7602:7688   */\n      swap2\n      swap1\n      pop\n      jump\t// out\n        /* \"#utility.yul\":7694:7796   */\n    tag_283:\n        /* \"#utility.yul\":7767:7789   */\n      tag_399\n        /* \"#utility.yul\":7783:7788   */\n      dup2\n        /* \"#utility.yul\":7767:7789   */\n      tag_282\n      jump\t// in\n    tag_399:\n        /* \"#utility.yul\":7762:7765   */\n      dup3\n        /* \"#utility.yul\":7755:7790   */\n      mstore\n        /* \"#utility.yul\":7694:7796   */\n      pop\n      pop\n      jump\t// out\n        /* \"#utility.yul\":7866:8730   */\n    tag_284:\n        /* \"#utility.yul\":8011:8015   */\n      0x80\n        /* \"#utility.yul\":8006:8009   */\n      dup3\n        /* \"#utility.yul\":8002:8016   */\n      add\n        /* \"#utility.yul\":8103:8107   */\n      0x00\n        /* \"#utility.yul\":8096:8101   */\n      dup3\n        /* \"#utility.yul\":8092:8108   */\n      add\n        /* \"#utility.yul\":8086:8109   */\n      mload\n        /* \"#utility.yul\":8122:8185   */\n      tag_401\n        /* \"#utility.yul\":8179:8183   */\n      0x00\n        /* \"#utility.yul\":8174:8177   */\n      dup6\n        /* \"#utility.yul\":8170:8184   */\n      add\n        /* \"#utility.yul\":8156:8168   */\n      dup3\n        /* \"#utility.yul\":8122:8185   */\n      tag_281\n      jump\t// in\n    tag_401:\n        /* \"#utility.yul\":8026:8195   */\n      pop\n        /* \"#utility.yul\":8282:8286   */\n      0x20\n        /* \"#utility.yul\":8275:8280   */\n      dup3\n        /* \"#utility.yul\":8271:8287   */\n      add\n        /* \"#utility.yul\":8265:8288   */\n      mload\n        /* \"#utility.yul\":8301:8364   */\n      tag_402\n        /* \"#utility.yul\":8358:8362   */\n      0x20\n        /* \"#utility.yul\":8353:8356   */\n      dup6\n        /* \"#utility.yul\":8349:8363   */\n      add\n        /* \"#utility.yul\":8335:8347   */\n      dup3\n        /* \"#utility.yul\":8301:8364   */\n      tag_281\n      jump\t// in\n    tag_402:\n        /* \"#utility.yul\":8205:8374   */\n      pop\n        /* \"#utility.yul\":8461:8465   */\n      0x40\n        /* \"#utility.yul\":8454:8459   */\n      dup3\n        /* \"#utility.yul\":8450:8466   */\n      add\n        /* \"#utility.yul\":8444:8467   */\n      mload\n        /* \"#utility.yul\":8480:8543   */\n      tag_403\n        /* \"#utility.yul\":8537:8541   */\n      0x40\n        /* \"#utility.yul\":8532:8535   */\n      dup6\n        /* \"#utility.yul\":8528:8542   */\n      add\n        /* \"#utility.yul\":8514:8526   */\n      dup3\n        /* \"#utility.yul\":8480:8543   */\n      tag_281\n      jump\t// in\n    tag_403:\n        /* \"#utility.yul\":8384:8553   */\n      pop\n        /* \"#utility.yul\":8635:8639   */\n      0x60\n        /* \"#utility.yul\":8628:8633   */\n      dup3\n        /* \"#utility.yul\":8624:8640   */\n      add\n        /* \"#utility.yul\":8618:8641   */\n      mload\n        /* \"#utility.yul\":8654:8713   */\n      tag_404\n        /* \"#utility.yul\":8707:8711   */\n      0x60\n        /* \"#utility.yul\":8702:8705   */\n      dup6\n        /* \"#utility.yul\":8698:8712   */\n      add\n        /* \"#utility.yul\":8684:8696   */\n      dup3\n        /* \"#utility.yul\":8654:8713   */\n      tag_283\n      jump\t// in\n    tag_404:\n        /* \"#utility.yul\":8563:8723   */\n      pop\n        /* \"#utility.yul\":7980:8730   */\n      pop\n        /* \"#utility.yul\":7866:8730   */\n      pop\n      pop\n      jump\t// out\n        /* \"#utility.yul\":8736:9055   */\n    tag_66:\n        /* \"#utility.yul\":8877:8881   */\n      0x00\n        /* \"#utility.yul\":8915:8918   */\n      0x80\n        /* \"#utility.yul\":8904:8913   */\n      dup3\n        /* \"#utility.yul\":8900:8919   */\n      add\n        /* \"#utility.yul\":8892:8919   */\n      swap1\n      pop\n        /* \"#utility.yul\":8929:9048   */\n      tag_406\n        /* \"#utility.yul\":9045:9046   */\n      0x00\n        /* \"#utility.yul\":9034:9043   */\n      dup4\n        /* \"#utility.yul\":9030:9047   */\n      add\n        /* \"#utility.yul\":9021:9027   */\n      dup5\n        /* \"#utility.yul\":8929:9048   */\n      tag_284\n      jump\t// in\n    tag_406:\n        /* \"#utility.yul\":8736:9055   */\n      swap3\n      swap2\n      pop\n      pop\n      jump\t// out\n        /* \"#utility.yul\":9061:9390   */\n    tag_70:\n        /* \"#utility.yul\":9120:9126   */\n      0x00\n        /* \"#utility.yul\":9169:9171   */\n      0x20\n        /* \"#utility.yul\":9157:9166   */\n      dup3\n        /* \"#utility.yul\":9148:9155   */\n      dup5\n        /* \"#utility.yul\":9144:9167   */\n      sub\n        /* \"#utility.yul\":9140:9172   */\n      slt\n        /* \"#utility.yul\":9137:9256   */\n      iszero\n      tag_408\n      jumpi\n        /* \"#utility.yul\":9175:9254   */\n      tag_409\n      tag_267\n      jump\t// in\n    tag_409:\n        /* \"#utility.yul\":9137:9256   */\n    tag_408:\n        /* \"#utility.yul\":9295:9296   */\n      0x00\n        /* \"#utility.yul\":9320:9373   */\n      tag_410\n        /* \"#utility.yul\":9365:9372   */\n      dup5\n        /* \"#utility.yul\":9356:9362   */\n      dup3\n        /* \"#utility.yul\":9345:9354   */\n      dup6\n        /* \"#utility.yul\":9341:9363   */\n      add\n        /* \"#utility.yul\":9320:9373   */\n      tag_277\n      jump\t// in\n    tag_410:\n        /* \"#utility.yul\":9310:9373   */\n      swap2\n      pop\n        /* \"#utility.yul\":9266:9383   */\n      pop\n        /* \"#utility.yul\":9061:9390   */\n      swap3\n      swap2\n      pop\n      pop\n      jump\t// out\n        /* \"#utility.yul\":9396:9514   */\n    tag_285:\n        /* \"#utility.yul\":9483:9507   */\n      tag_412\n        /* \"#utility.yul\":9501:9506   */\n      dup2\n        /* \"#utility.yul\":9483:9507   */\n      tag_278\n      jump\t// in\n    tag_412:\n        /* \"#utility.yul\":9478:9481   */\n      dup3\n        /* \"#utility.yul\":9471:9508   */\n      mstore\n        /* \"#utility.yul\":9396:9514   */\n      pop\n      pop\n      jump\t// out\n        /* \"#utility.yul\":9520:9742   */\n    tag_73:\n        /* \"#utility.yul\":9613:9617   */\n      0x00\n        /* \"#utility.yul\":9651:9653   */\n      0x20\n        /* \"#utility.yul\":9640:9649   */\n      dup3\n        /* \"#utility.yul\":9636:9654   */\n      add\n        /* \"#utility.yul\":9628:9654   */\n      swap1\n      pop\n        /* \"#utility.yul\":9664:9735   */\n      tag_414\n        /* \"#utility.yul\":9732:9733   */\n      0x00\n        /* \"#utility.yul\":9721:9730   */\n      dup4\n        /* \"#utility.yul\":9717:9734   */\n      add\n        /* \"#utility.yul\":9708:9714   */\n      dup5\n        /* \"#utility.yul\":9664:9735   */\n      tag_285\n      jump\t// in\n    tag_414:\n        /* \"#utility.yul\":9520:9742   */\n      swap3\n      swap2\n      pop\n      pop\n      jump\t// out\n        /* \"#utility.yul\":9748:9847   */\n    tag_286:\n        /* \"#utility.yul\":9800:9806   */\n      0x00\n        /* \"#utility.yul\":9834:9839   */\n      dup2\n        /* \"#utility.yul\":9828:9840   */\n      mload\n        /* \"#utility.yul\":9818:9840   */\n      swap1\n      pop\n        /* \"#utility.yul\":9748:9847   */\n      swap2\n      swap1\n      pop\n      jump\t// out\n        /* \"#utility.yul\":9853:9992   */\n    tag_287:\n        /* \"#utility.yul\":9942:9948   */\n      dup3\n        /* \"#utility.yul\":9937:9940   */\n      dup2\n        /* \"#utility.yul\":9932:9935   */\n      dup4\n        /* \"#utility.yul\":9926:9949   */\n      mcopy\n        /* \"#utility.yul\":9983:9984   */\n      0x00\n        /* \"#utility.yul\":9974:9980   */\n      dup4\n        /* \"#utility.yul\":9969:9972   */\n      dup4\n        /* \"#utility.yul\":9965:9981   */\n      add\n        /* \"#utility.yul\":9958:9985   */\n      mstore\n        /* \"#utility.yul\":9853:9992   */\n      pop\n      pop\n      pop\n      jump\t// out\n        /* \"#utility.yul\":9998:10100   */\n    tag_288:\n        /* \"#utility.yul\":10039:10045   */\n      0x00\n        /* \"#utility.yul\":10090:10092   */\n      0x1f\n        /* \"#utility.yul\":10086:10093   */\n      not\n        /* \"#utility.yul\":10081:10083   */\n      0x1f\n        /* \"#utility.yul\":10074:10079   */\n      dup4\n        /* \"#utility.yul\":10070:10084   */\n      add\n        /* \"#utility.yul\":10066:10094   */\n      and\n        /* \"#utility.yul\":10056:10094   */\n      swap1\n      pop\n        /* \"#utility.yul\":9998:10100   */\n      swap2\n      swap1\n      pop\n      jump\t// out\n        /* \"#utility.yul\":10106:10483   */\n    tag_289:\n        /* \"#utility.yul\":10194:10197   */\n      0x00\n        /* \"#utility.yul\":10222:10261   */\n      tag_419\n        /* \"#utility.yul\":10255:10260   */\n      dup3\n        /* \"#utility.yul\":10222:10261   */\n      tag_286\n      jump\t// in\n    tag_419:\n        /* \"#utility.yul\":10277:10348   */\n      tag_420\n        /* \"#utility.yul\":10341:10347   */\n      dup2\n        /* \"#utility.yul\":10336:10339   */\n      dup6\n        /* \"#utility.yul\":10277:10348   */\n      tag_256\n      jump\t// in\n    tag_420:\n        /* \"#utility.yul\":10270:10348   */\n      swap4\n      pop\n        /* \"#utility.yul\":10357:10422   */\n      tag_421\n        /* \"#utility.yul\":10415:10421   */\n      dup2\n        /* \"#utility.yul\":10410:10413   */\n      dup6\n        /* \"#utility.yul\":10403:10407   */\n      0x20\n        /* \"#utility.yul\":10396:10401   */\n      dup7\n        /* \"#utility.yul\":10392:10408   */\n      add\n        /* \"#utility.yul\":10357:10422   */\n      tag_287\n      jump\t// in\n    tag_421:\n        /* \"#utility.yul\":10447:10476   */\n      tag_422\n        /* \"#utility.yul\":10469:10475   */\n      dup2\n        /* \"#utility.yul\":10447:10476   */\n      tag_288\n      jump\t// in\n    tag_422:\n        /* \"#utility.yul\":10442:10445   */\n      dup5\n        /* \"#utility.yul\":10438:10477   */\n      add\n        /* \"#utility.yul\":10431:10477   */\n      swap2\n      pop\n        /* \"#utility.yul\":10198:10483   */\n      pop\n        /* \"#utility.yul\":10106:10483   */\n      swap3\n      swap2\n      pop\n      pop\n      jump\t// out\n        /* \"#utility.yul\":10489:10802   */\n    tag_86:\n        /* \"#utility.yul\":10602:10606   */\n      0x00\n        /* \"#utility.yul\":10640:10642   */\n      0x20\n        /* \"#utility.yul\":10629:10638   */\n      dup3\n        /* \"#utility.yul\":10625:10643   */\n      add\n        /* \"#utility.yul\":10617:10643   */\n      swap1\n      pop\n        /* \"#utility.yul\":10689:10698   */\n      dup2\n        /* \"#utility.yul\":10683:10687   */\n      dup2\n        /* \"#utility.yul\":10679:10699   */\n      sub\n        /* \"#utility.yul\":10675:10676   */\n      0x00\n        /* \"#utility.yul\":10664:10673   */\n      dup4\n        /* \"#utility.yul\":10660:10677   */\n      add\n        /* \"#utility.yul\":10653:10700   */\n      mstore\n        /* \"#utility.yul\":10717:10795   */\n      tag_424\n        /* \"#utility.yul\":10790:10794   */\n      dup2\n        /* \"#utility.yul\":10781:10787   */\n      dup5\n        /* \"#utility.yul\":10717:10795   */\n      tag_289\n      jump\t// in\n    tag_424:\n        /* \"#utility.yul\":10709:10795   */\n      swap1\n      pop\n        /* \"#utility.yul\":10489:10802   */\n      swap3\n      swap2\n      pop\n      pop\n      jump\t// out\n        /* \"#utility.yul\":10808:10912   */\n    tag_290:\n        /* \"#utility.yul\":10853:10860   */\n      0x00\n        /* \"#utility.yul\":10882:10906   */\n      tag_426\n        /* \"#utility.yul\":10900:10905   */\n      dup3\n        /* \"#utility.yul\":10882:10906   */\n      tag_274\n      jump\t// in\n    tag_426:\n        /* \"#utility.yul\":10871:10906   */\n      swap1\n      pop\n        /* \"#utility.yul\":10808:10912   */\n      swap2\n      swap1\n      pop\n      jump\t// out\n        /* \"#utility.yul\":10918:11056   */\n    tag_291:\n        /* \"#utility.yul\":10999:11031   */\n      tag_428\n        /* \"#utility.yul\":11025:11030   */\n      dup2\n        /* \"#utility.yul\":10999:11031   */\n      tag_290\n      jump\t// in\n    tag_428:\n        /* \"#utility.yul\":10992:10997   */\n      dup2\n        /* \"#utility.yul\":10989:11032   */\n      eq\n        /* \"#utility.yul\":10979:11050   */\n      tag_429\n      jumpi\n        /* \"#utility.yul\":11046:11047   */\n      0x00\n        /* \"#utility.yul\":11043:11044   */\n      0x00\n        /* \"#utility.yul\":11036:11048   */\n      revert\n        /* \"#utility.yul\":10979:11050   */\n    tag_429:\n        /* \"#utility.yul\":10918:11056   */\n      pop\n      jump\t// out\n        /* \"#utility.yul\":11062:11217   */\n    tag_292:\n        /* \"#utility.yul\":11116:11121   */\n      0x00\n        /* \"#utility.yul\":11154:11160   */\n      dup2\n        /* \"#utility.yul\":11141:11161   */\n      calldataload\n        /* \"#utility.yul\":11132:11161   */\n      swap1\n      pop\n        /* \"#utility.yul\":11170:11211   */\n      tag_431\n        /* \"#utility.yul\":11205:11210   */\n      dup2\n        /* \"#utility.yul\":11170:11211   */\n      tag_291\n      jump\t// in\n    tag_431:\n        /* \"#utility.yul\":11062:11217   */\n      swap3\n      swap2\n      pop\n      pop\n      jump\t// out\n        /* \"#utility.yul\":11223:11568   */\n    tag_90:\n        /* \"#utility.yul\":11290:11296   */\n      0x00\n        /* \"#utility.yul\":11339:11341   */\n      0x20\n        /* \"#utility.yul\":11327:11336   */\n      dup3\n        /* \"#utility.yul\":11318:11325   */\n      dup5\n        /* \"#utility.yul\":11314:11337   */\n      sub\n        /* \"#utility.yul\":11310:11342   */\n      slt\n        /* \"#utility.yul\":11307:11426   */\n      iszero\n      tag_433\n      jumpi\n        /* \"#utility.yul\":11345:11424   */\n      tag_434\n      tag_267\n      jump\t// in\n    tag_434:\n        /* \"#utility.yul\":11307:11426   */\n    tag_433:\n        /* \"#utility.yul\":11465:11466   */\n      0x00\n        /* \"#utility.yul\":11490:11551   */\n      tag_435\n        /* \"#utility.yul\":11543:11550   */\n      dup5\n        /* \"#utility.yul\":11534:11540   */\n      dup3\n        /* \"#utility.yul\":11523:11532   */\n      dup6\n        /* \"#utility.yul\":11519:11541   */\n      add\n        /* \"#utility.yul\":11490:11551   */\n      tag_292\n      jump\t// in\n    tag_435:\n        /* \"#utility.yul\":11480:11551   */\n      swap2\n      pop\n        /* \"#utility.yul\":11436:11561   */\n      pop\n        /* \"#utility.yul\":11223:11568   */\n      swap3\n      swap2\n      pop\n      pop\n      jump\t// out\n        /* \"#utility.yul\":11574:11903   */\n    tag_99:\n        /* \"#utility.yul\":11633:11639   */\n      0x00\n        /* \"#utility.yul\":11682:11684   */\n      0x20\n        /* \"#utility.yul\":11670:11679   */\n      dup3\n        /* \"#utility.yul\":11661:11668   */\n      dup5\n        /* \"#utility.yul\":11657:11680   */\n      sub\n        /* \"#utility.yul\":11653:11685   */\n      slt\n        /* \"#utility.yul\":11650:11769   */\n      iszero\n      tag_437\n      jumpi\n        /* \"#utility.yul\":11688:11767   */\n      tag_438\n      tag_267\n      jump\t// in\n    tag_438:\n        /* \"#utility.yul\":11650:11769   */\n    tag_437:\n        /* \"#utility.yul\":11808:11809   */\n      0x00\n        /* \"#utility.yul\":11833:11886   */\n      tag_439\n        /* \"#utility.yul\":11878:11885   */\n      dup5\n        /* \"#utility.yul\":11869:11875   */\n      dup3\n        /* \"#utility.yul\":11858:11867   */\n      dup6\n        /* \"#utility.yul\":11854:11876   */\n      add\n        /* \"#utility.yul\":11833:11886   */\n      tag_280\n      jump\t// in\n    tag_439:\n        /* \"#utility.yul\":11823:11886   */\n      swap2\n      pop\n        /* \"#utility.yul\":11779:11896   */\n      pop\n        /* \"#utility.yul\":11574:11903   */\n      swap3\n      swap2\n      pop\n      pop\n      jump\t// out\n        /* \"#utility.yul\":11909:12017   */\n    tag_293:\n        /* \"#utility.yul\":11986:12010   */\n      tag_441\n        /* \"#utility.yul\":12004:12009   */\n      dup2\n        /* \"#utility.yul\":11986:12010   */\n      tag_275\n      jump\t// in\n    tag_441:\n        /* \"#utility.yul\":11981:11984   */\n      dup3\n        /* \"#utility.yul\":11974:12011   */\n      mstore\n        /* \"#utility.yul\":11909:12017   */\n      pop\n      pop\n      jump\t// out\n        /* \"#utility.yul\":12023:12122   */\n    tag_294:\n        /* \"#utility.yul\":12094:12115   */\n      tag_443\n        /* \"#utility.yul\":12109:12114   */\n      dup2\n        /* \"#utility.yul\":12094:12115   */\n      tag_269\n      jump\t// in\n    tag_443:\n        /* \"#utility.yul\":12089:12092   */\n      dup3\n        /* \"#utility.yul\":12082:12116   */\n      mstore\n        /* \"#utility.yul\":12023:12122   */\n      pop\n      pop\n      jump\t// out\n        /* \"#utility.yul\":12128:12266   */\n    tag_295:\n        /* \"#utility.yul\":12219:12225   */\n      0x00\n        /* \"#utility.yul\":12253:12258   */\n      dup2\n        /* \"#utility.yul\":12247:12259   */\n      mload\n        /* \"#utility.yul\":12237:12259   */\n      swap1\n      pop\n        /* \"#utility.yul\":12128:12266   */\n      swap2\n      swap1\n      pop\n      jump\t// out\n        /* \"#utility.yul\":12272:12470   */\n    tag_296:\n        /* \"#utility.yul\":12385:12396   */\n      0x00\n        /* \"#utility.yul\":12419:12425   */\n      dup3\n        /* \"#utility.yul\":12414:12417   */\n      dup3\n        /* \"#utility.yul\":12407:12426   */\n      mstore\n        /* \"#utility.yul\":12459:12463   */\n      0x20\n        /* \"#utility.yul\":12454:12457   */\n      dup3\n        /* \"#utility.yul\":12450:12464   */\n      add\n        /* \"#utility.yul\":12435:12464   */\n      swap1\n      pop\n        /* \"#utility.yul\":12272:12470   */\n      swap3\n      swap2\n      pop\n      pop\n      jump\t// out\n        /* \"#utility.yul\":12476:12632   */\n    tag_297:\n        /* \"#utility.yul\":12567:12571   */\n      0x00\n        /* \"#utility.yul\":12590:12593   */\n      dup2\n        /* \"#utility.yul\":12582:12593   */\n      swap1\n      pop\n        /* \"#utility.yul\":12620:12624   */\n      0x20\n        /* \"#utility.yul\":12615:12618   */\n      dup3\n        /* \"#utility.yul\":12611:12625   */\n      add\n        /* \"#utility.yul\":12603:12625   */\n      swap1\n      pop\n        /* \"#utility.yul\":12476:12632   */\n      swap2\n      swap1\n      pop\n      jump\t// out\n        /* \"#utility.yul\":12702:13556   */\n    tag_298:\n        /* \"#utility.yul\":12837:12841   */\n      0x80\n        /* \"#utility.yul\":12832:12835   */\n      dup3\n        /* \"#utility.yul\":12828:12842   */\n      add\n        /* \"#utility.yul\":12929:12933   */\n      0x00\n        /* \"#utility.yul\":12922:12927   */\n      dup3\n        /* \"#utility.yul\":12918:12934   */\n      add\n        /* \"#utility.yul\":12912:12935   */\n      mload\n        /* \"#utility.yul\":12948:13011   */\n      tag_448\n        /* \"#utility.yul\":13005:13009   */\n      0x00\n        /* \"#utility.yul\":13000:13003   */\n      dup6\n        /* \"#utility.yul\":12996:13010   */\n      add\n        /* \"#utility.yul\":12982:12994   */\n      dup3\n        /* \"#utility.yul\":12948:13011   */\n      tag_281\n      jump\t// in\n    tag_448:\n        /* \"#utility.yul\":12852:13021   */\n      pop\n        /* \"#utility.yul\":13108:13112   */\n      0x20\n        /* \"#utility.yul\":13101:13106   */\n      dup3\n        /* \"#utility.yul\":13097:13113   */\n      add\n        /* \"#utility.yul\":13091:13114   */\n      mload\n        /* \"#utility.yul\":13127:13190   */\n      tag_449\n        /* \"#utility.yul\":13184:13188   */\n      0x20\n        /* \"#utility.yul\":13179:13182   */\n      dup6\n        /* \"#utility.yul\":13175:13189   */\n      add\n        /* \"#utility.yul\":13161:13173   */\n      dup3\n        /* \"#utility.yul\":13127:13190   */\n      tag_281\n      jump\t// in\n    tag_449:\n        /* \"#utility.yul\":13031:13200   */\n      pop\n        /* \"#utility.yul\":13287:13291   */\n      0x40\n        /* \"#utility.yul\":13280:13285   */\n      dup3\n        /* \"#utility.yul\":13276:13292   */\n      add\n        /* \"#utility.yul\":13270:13293   */\n      mload\n        /* \"#utility.yul\":13306:13369   */\n      tag_450\n        /* \"#utility.yul\":13363:13367   */\n      0x40\n        /* \"#utility.yul\":13358:13361   */\n      dup6\n        /* \"#utility.yul\":13354:13368   */\n      add\n        /* \"#utility.yul\":13340:13352   */\n      dup3\n        /* \"#utility.yul\":13306:13369   */\n      tag_281\n      jump\t// in\n    tag_450:\n        /* \"#utility.yul\":13210:13379   */\n      pop\n        /* \"#utility.yul\":13461:13465   */\n      0x60\n        /* \"#utility.yul\":13454:13459   */\n      dup3\n        /* \"#utility.yul\":13450:13466   */\n      add\n        /* \"#utility.yul\":13444:13467   */\n      mload\n        /* \"#utility.yul\":13480:13539   */\n      tag_451\n        /* \"#utility.yul\":13533:13537   */\n      0x60\n        /* \"#utility.yul\":13528:13531   */\n      dup6\n        /* \"#utility.yul\":13524:13538   */\n      add\n        /* \"#utility.yul\":13510:13522   */\n      dup3\n        /* \"#utility.yul\":13480:13539   */\n      tag_283\n      jump\t// in\n    tag_451:\n        /* \"#utility.yul\":13389:13549   */\n      pop\n        /* \"#utility.yul\":12806:13556   */\n      pop\n        /* \"#utility.yul\":12702:13556   */\n      pop\n      pop\n      jump\t// out\n        /* \"#utility.yul\":13562:13837   */\n    tag_299:\n        /* \"#utility.yul\":13679:13689   */\n      0x00\n        /* \"#utility.yul\":13700:13794   */\n      tag_453\n        /* \"#utility.yul\":13790:13793   */\n      dup4\n        /* \"#utility.yul\":13782:13788   */\n      dup4\n        /* \"#utility.yul\":13700:13794   */\n      tag_298\n      jump\t// in\n    tag_453:\n        /* \"#utility.yul\":13826:13830   */\n      0x80\n        /* \"#utility.yul\":13821:13824   */\n      dup4\n        /* \"#utility.yul\":13817:13831   */\n      add\n        /* \"#utility.yul\":13803:13831   */\n      swap1\n      pop\n        /* \"#utility.yul\":13562:13837   */\n      swap3\n      swap2\n      pop\n      pop\n      jump\t// out\n        /* \"#utility.yul\":13843:13980   */\n    tag_300:\n        /* \"#utility.yul\":13937:13941   */\n      0x00\n        /* \"#utility.yul\":13969:13973   */\n      0x20\n        /* \"#utility.yul\":13964:13967   */\n      dup3\n        /* \"#utility.yul\":13960:13974   */\n      add\n        /* \"#utility.yul\":13952:13974   */\n      swap1\n      pop\n        /* \"#utility.yul\":13843:13980   */\n      swap2\n      swap1\n      pop\n      jump\t// out\n        /* \"#utility.yul\":14054:14958   */\n    tag_301:\n        /* \"#utility.yul\":14211:14214   */\n      0x00\n        /* \"#utility.yul\":14240:14318   */\n      tag_456\n        /* \"#utility.yul\":14312:14317   */\n      dup3\n        /* \"#utility.yul\":14240:14318   */\n      tag_295\n      jump\t// in\n    tag_456:\n        /* \"#utility.yul\":14334:14434   */\n      tag_457\n        /* \"#utility.yul\":14427:14433   */\n      dup2\n        /* \"#utility.yul\":14422:14425   */\n      dup6\n        /* \"#utility.yul\":14334:14434   */\n      tag_296\n      jump\t// in\n    tag_457:\n        /* \"#utility.yul\":14327:14434   */\n      swap4\n      pop\n        /* \"#utility.yul\":14458:14538   */\n      tag_458\n        /* \"#utility.yul\":14532:14537   */\n      dup4\n        /* \"#utility.yul\":14458:14538   */\n      tag_297\n      jump\t// in\n    tag_458:\n        /* \"#utility.yul\":14561:14568   */\n      dup1\n        /* \"#utility.yul\":14592:14593   */\n      0x00\n        /* \"#utility.yul\":14577:14933   */\n    tag_459:\n        /* \"#utility.yul\":14602:14608   */\n      dup4\n        /* \"#utility.yul\":14599:14600   */\n      dup2\n        /* \"#utility.yul\":14596:14609   */\n      lt\n        /* \"#utility.yul\":14577:14933   */\n      iszero\n      tag_461\n      jumpi\n        /* \"#utility.yul\":14678:14684   */\n      dup2\n        /* \"#utility.yul\":14672:14685   */\n      mload\n        /* \"#utility.yul\":14705:14816   */\n      tag_462\n        /* \"#utility.yul\":14812:14815   */\n      dup9\n        /* \"#utility.yul\":14797:14810   */\n      dup3\n        /* \"#utility.yul\":14705:14816   */\n      tag_299\n      jump\t// in\n    tag_462:\n        /* \"#utility.yul\":14698:14816   */\n      swap8\n      pop\n        /* \"#utility.yul\":14839:14923   */\n      tag_463\n        /* \"#utility.yul\":14916:14922   */\n      dup4\n        /* \"#utility.yul\":14839:14923   */\n      tag_300\n      jump\t// in\n    tag_463:\n        /* \"#utility.yul\":14829:14923   */\n      swap3\n      pop\n        /* \"#utility.yul\":14637:14933   */\n      pop\n        /* \"#utility.yul\":14624:14625   */\n      0x01\n        /* \"#utility.yul\":14621:14622   */\n      dup2\n        /* \"#utility.yul\":14617:14626   */\n      add\n        /* \"#utility.yul\":14612:14626   */\n      swap1\n      pop\n        /* \"#utility.yul\":14577:14933   */\n      jump(tag_459)\n    tag_461:\n        /* \"#utility.yul\":14581:14595   */\n      pop\n        /* \"#utility.yul\":14949:14952   */\n      dup6\n        /* \"#utility.yul\":14942:14952   */\n      swap4\n      pop\n        /* \"#utility.yul\":14216:14958   */\n      pop\n      pop\n      pop\n        /* \"#utility.yul\":14054:14958   */\n      swap3\n      swap2\n      pop\n      pop\n      jump\t// out\n        /* \"#utility.yul\":15028:16079   */\n    tag_302:\n        /* \"#utility.yul\":15145:15148   */\n      0x00\n        /* \"#utility.yul\":15181:15185   */\n      0x80\n        /* \"#utility.yul\":15176:15179   */\n      dup4\n        /* \"#utility.yul\":15172:15186   */\n      add\n        /* \"#utility.yul\":15277:15281   */\n      0x00\n        /* \"#utility.yul\":15270:15275   */\n      dup4\n        /* \"#utility.yul\":15266:15282   */\n      add\n        /* \"#utility.yul\":15260:15283   */\n      mload\n        /* \"#utility.yul\":15296:15359   */\n      tag_465\n        /* \"#utility.yul\":15353:15357   */\n      0x00\n        /* \"#utility.yul\":15348:15351   */\n      dup7\n        /* \"#utility.yul\":15344:15358   */\n      add\n        /* \"#utility.yul\":15330:15342   */\n      dup3\n        /* \"#utility.yul\":15296:15359   */\n      tag_293\n      jump\t// in\n    tag_465:\n        /* \"#utility.yul\":15196:15369   */\n      pop\n        /* \"#utility.yul\":15457:15461   */\n      0x20\n        /* \"#utility.yul\":15450:15455   */\n      dup4\n        /* \"#utility.yul\":15446:15462   */\n      add\n        /* \"#utility.yul\":15440:15463   */\n      mload\n        /* \"#utility.yul\":15476:15539   */\n      tag_466\n        /* \"#utility.yul\":15533:15537   */\n      0x20\n        /* \"#utility.yul\":15528:15531   */\n      dup7\n        /* \"#utility.yul\":15524:15538   */\n      add\n        /* \"#utility.yul\":15510:15522   */\n      dup3\n        /* \"#utility.yul\":15476:15539   */\n      tag_281\n      jump\t// in\n    tag_466:\n        /* \"#utility.yul\":15379:15549   */\n      pop\n        /* \"#utility.yul\":15635:15639   */\n      0x40\n        /* \"#utility.yul\":15628:15633   */\n      dup4\n        /* \"#utility.yul\":15624:15640   */\n      add\n        /* \"#utility.yul\":15618:15641   */\n      mload\n        /* \"#utility.yul\":15654:15711   */\n      tag_467\n        /* \"#utility.yul\":15705:15709   */\n      0x40\n        /* \"#utility.yul\":15700:15703   */\n      dup7\n        /* \"#utility.yul\":15696:15710   */\n      add\n        /* \"#utility.yul\":15682:15694   */\n      dup3\n        /* \"#utility.yul\":15654:15711   */\n      tag_294\n      jump\t// in\n    tag_467:\n        /* \"#utility.yul\":15559:15721   */\n      pop\n        /* \"#utility.yul\":15811:15815   */\n      0x60\n        /* \"#utility.yul\":15804:15809   */\n      dup4\n        /* \"#utility.yul\":15800:15816   */\n      add\n        /* \"#utility.yul\":15794:15817   */\n      mload\n        /* \"#utility.yul\":15864:15867   */\n      dup5\n        /* \"#utility.yul\":15858:15862   */\n      dup3\n        /* \"#utility.yul\":15854:15868   */\n      sub\n        /* \"#utility.yul\":15847:15851   */\n      0x60\n        /* \"#utility.yul\":15842:15845   */\n      dup7\n        /* \"#utility.yul\":15838:15852   */\n      add\n        /* \"#utility.yul\":15831:15869   */\n      mstore\n        /* \"#utility.yul\":15890:16041   */\n      tag_468\n        /* \"#utility.yul\":16036:16040   */\n      dup3\n        /* \"#utility.yul\":16022:16034   */\n      dup3\n        /* \"#utility.yul\":15890:16041   */\n      tag_301\n      jump\t// in\n    tag_468:\n        /* \"#utility.yul\":15882:16041   */\n      swap2\n      pop\n        /* \"#utility.yul\":15731:16052   */\n      pop\n        /* \"#utility.yul\":16069:16073   */\n      dup1\n        /* \"#utility.yul\":16062:16073   */\n      swap2\n      pop\n        /* \"#utility.yul\":15150:16079   */\n      pop\n        /* \"#utility.yul\":15028:16079   */\n      swap3\n      swap2\n      pop\n      pop\n      jump\t// out\n        /* \"#utility.yul\":16085:16454   */\n    tag_102:\n        /* \"#utility.yul\":16226:16230   */\n      0x00\n        /* \"#utility.yul\":16264:16266   */\n      0x20\n        /* \"#utility.yul\":16253:16262   */\n      dup3\n        /* \"#utility.yul\":16249:16267   */\n      add\n        /* \"#utility.yul\":16241:16267   */\n      swap1\n      pop\n        /* \"#utility.yul\":16313:16322   */\n      dup2\n        /* \"#utility.yul\":16307:16311   */\n      dup2\n        /* \"#utility.yul\":16303:16323   */\n      sub\n        /* \"#utility.yul\":16299:16300   */\n      0x00\n        /* \"#utility.yul\":16288:16297   */\n      dup4\n        /* \"#utility.yul\":16284:16301   */\n      add\n        /* \"#utility.yul\":16277:16324   */\n      mstore\n        /* \"#utility.yul\":16341:16447   */\n      tag_470\n        /* \"#utility.yul\":16442:16446   */\n      dup2\n        /* \"#utility.yul\":16433:16439   */\n      dup5\n        /* \"#utility.yul\":16341:16447   */\n      tag_302\n      jump\t// in\n    tag_470:\n        /* \"#utility.yul\":16333:16447   */\n      swap1\n      pop\n        /* \"#utility.yul\":16085:16454   */\n      swap3\n      swap2\n      pop\n      pop\n      jump\t// out\n        /* \"#utility.yul\":16460:16578   */\n    tag_303:\n        /* \"#utility.yul\":16531:16553   */\n      tag_472\n        /* \"#utility.yul\":16547:16552   */\n      dup2\n        /* \"#utility.yul\":16531:16553   */\n      tag_282\n      jump\t// in\n    tag_472:\n        /* \"#utility.yul\":16524:16529   */\n      dup2\n        /* \"#utility.yul\":16521:16554   */\n      eq\n        /* \"#utility.yul\":16511:16572   */\n      tag_473\n      jumpi\n        /* \"#utility.yul\":16568:16569   */\n      0x00\n        /* \"#utility.yul\":16565:16566   */\n      0x00\n        /* \"#utility.yul\":16558:16570   */\n      revert\n        /* \"#utility.yul\":16511:16572   */\n    tag_473:\n        /* \"#utility.yul\":16460:16578   */\n      pop\n      jump\t// out\n        /* \"#utility.yul\":16584:16719   */\n    tag_304:\n        /* \"#utility.yul\":16628:16633   */\n      0x00\n        /* \"#utility.yul\":16666:16672   */\n      dup2\n        /* \"#utility.yul\":16653:16673   */\n      calldataload\n        /* \"#utility.yul\":16644:16673   */\n      swap1\n      pop\n        /* \"#utility.yul\":16682:16713   */\n      tag_475\n        /* \"#utility.yul\":16707:16712   */\n      dup2\n        /* \"#utility.yul\":16682:16713   */\n      tag_303\n      jump\t// in\n    tag_475:\n        /* \"#utility.yul\":16584:16719   */\n      swap3\n      swap2\n      pop\n      pop\n      jump\t// out\n        /* \"#utility.yul\":16725:17050   */\n    tag_106:\n        /* \"#utility.yul\":16782:16788   */\n      0x00\n        /* \"#utility.yul\":16831:16833   */\n      0x20\n        /* \"#utility.yul\":16819:16828   */\n      dup3\n        /* \"#utility.yul\":16810:16817   */\n      dup5\n        /* \"#utility.yul\":16806:16829   */\n      sub\n        /* \"#utility.yul\":16802:16834   */\n      slt\n        /* \"#utility.yul\":16799:16918   */\n      iszero\n      tag_477\n      jumpi\n        /* \"#utility.yul\":16837:16916   */\n      tag_478\n      tag_267\n      jump\t// in\n    tag_478:\n        /* \"#utility.yul\":16799:16918   */\n    tag_477:\n        /* \"#utility.yul\":16957:16958   */\n      0x00\n        /* \"#utility.yul\":16982:17033   */\n      tag_479\n        /* \"#utility.yul\":17025:17032   */\n      dup5\n        /* \"#utility.yul\":17016:17022   */\n      dup3\n        /* \"#utility.yul\":17005:17014   */\n      dup6\n        /* \"#utility.yul\":17001:17023   */\n      add\n        /* \"#utility.yul\":16982:17033   */\n      tag_304\n      jump\t// in\n    tag_479:\n        /* \"#utility.yul\":16972:17033   */\n      swap2\n      pop\n        /* \"#utility.yul\":16928:17043   */\n      pop\n        /* \"#utility.yul\":16725:17050   */\n      swap3\n      swap2\n      pop\n      pop\n      jump\t// out\n        /* \"#utility.yul\":17056:17198   */\n    tag_305:\n        /* \"#utility.yul\":17159:17191   */\n      tag_481\n        /* \"#utility.yul\":17185:17190   */\n      dup2\n        /* \"#utility.yul\":17159:17191   */\n      tag_290\n      jump\t// in\n    tag_481:\n        /* \"#utility.yul\":17154:17157   */\n      dup3\n        /* \"#utility.yul\":17147:17192   */\n      mstore\n        /* \"#utility.yul\":17056:17198   */\n      pop\n      pop\n      jump\t// out\n        /* \"#utility.yul\":17204:17458   */\n    tag_112:\n        /* \"#utility.yul\":17313:17317   */\n      0x00\n        /* \"#utility.yul\":17351:17353   */\n      0x20\n        /* \"#utility.yul\":17340:17349   */\n      dup3\n        /* \"#utility.yul\":17336:17354   */\n      add\n        /* \"#utility.yul\":17328:17354   */\n      swap1\n      pop\n        /* \"#utility.yul\":17364:17451   */\n      tag_483\n        /* \"#utility.yul\":17448:17449   */\n      0x00\n        /* \"#utility.yul\":17437:17446   */\n      dup4\n        /* \"#utility.yul\":17433:17450   */\n      add\n        /* \"#utility.yul\":17424:17430   */\n      dup5\n        /* \"#utility.yul\":17364:17451   */\n      tag_305\n      jump\t// in\n    tag_483:\n        /* \"#utility.yul\":17204:17458   */\n      swap3\n      swap2\n      pop\n      pop\n      jump\t// out\n        /* \"#utility.yul\":17464:17934   */\n    tag_116:\n        /* \"#utility.yul\":17530:17536   */\n      0x00\n        /* \"#utility.yul\":17538:17544   */\n      0x00\n        /* \"#utility.yul\":17587:17589   */\n      0x40\n        /* \"#utility.yul\":17575:17584   */\n      dup4\n        /* \"#utility.yul\":17566:17573   */\n      dup6\n        /* \"#utility.yul\":17562:17585   */\n      sub\n        /* \"#utility.yul\":17558:17590   */\n      slt\n        /* \"#utility.yul\":17555:17674   */\n      iszero\n      tag_485\n      jumpi\n        /* \"#utility.yul\":17593:17672   */\n      tag_486\n      tag_267\n      jump\t// in\n    tag_486:\n        /* \"#utility.yul\":17555:17674   */\n    tag_485:\n        /* \"#utility.yul\":17713:17714   */\n      0x00\n        /* \"#utility.yul\":17738:17789   */\n      tag_487\n        /* \"#utility.yul\":17781:17788   */\n      dup6\n        /* \"#utility.yul\":17772:17778   */\n      dup3\n        /* \"#utility.yul\":17761:17770   */\n      dup7\n        /* \"#utility.yul\":17757:17779   */\n      add\n        /* \"#utility.yul\":17738:17789   */\n      tag_304\n      jump\t// in\n    tag_487:\n        /* \"#utility.yul\":17728:17789   */\n      swap3\n      pop\n        /* \"#utility.yul\":17684:17799   */\n      pop\n        /* \"#utility.yul\":17838:17840   */\n      0x20\n        /* \"#utility.yul\":17864:17917   */\n      tag_488\n        /* \"#utility.yul\":17909:17916   */\n      dup6\n        /* \"#utility.yul\":17900:17906   */\n      dup3\n        /* \"#utility.yul\":17889:17898   */\n      dup7\n        /* \"#utility.yul\":17885:17907   */\n      add\n        /* \"#utility.yul\":17864:17917   */\n      tag_280\n      jump\t// in\n    tag_488:\n        /* \"#utility.yul\":17854:17917   */\n      swap2\n      pop\n        /* \"#utility.yul\":17809:17927   */\n      pop\n        /* \"#utility.yul\":17464:17934   */\n      swap3\n      pop\n      swap3\n      swap1\n      pop\n      jump\t// out\n        /* \"#utility.yul\":17940:18052   */\n    tag_306:\n        /* \"#utility.yul\":18023:18045   */\n      tag_490\n        /* \"#utility.yul\":18039:18044   */\n      dup2\n        /* \"#utility.yul\":18023:18045   */\n      tag_282\n      jump\t// in\n    tag_490:\n        /* \"#utility.yul\":18018:18021   */\n      dup3\n        /* \"#utility.yul\":18011:18046   */\n      mstore\n        /* \"#utility.yul\":17940:18052   */\n      pop\n      pop\n      jump\t// out\n        /* \"#utility.yul\":18058:18272   */\n    tag_122:\n        /* \"#utility.yul\":18147:18151   */\n      0x00\n        /* \"#utility.yul\":18185:18187   */\n      0x20\n        /* \"#utility.yul\":18174:18183   */\n      dup3\n        /* \"#utility.yul\":18170:18188   */\n      add\n        /* \"#utility.yul\":18162:18188   */\n      swap1\n      pop\n        /* \"#utility.yul\":18198:18265   */\n      tag_492\n        /* \"#utility.yul\":18262:18263   */\n      0x00\n        /* \"#utility.yul\":18251:18260   */\n      dup4\n        /* \"#utility.yul\":18247:18264   */\n      add\n        /* \"#utility.yul\":18238:18244   */\n      dup5\n        /* \"#utility.yul\":18198:18265   */\n      tag_306\n      jump\t// in\n    tag_492:\n        /* \"#utility.yul\":18058:18272   */\n      swap3\n      swap2\n      pop\n      pop\n      jump\t// out\n        /* \"#utility.yul\":18278:18443   */\n    tag_307:\n        /* \"#utility.yul\":18418:18435   */\n      0x436f6e7472616374205061757365640000000000000000000000000000000000\n        /* \"#utility.yul\":18414:18415   */\n      0x00\n        /* \"#utility.yul\":18406:18412   */\n      dup3\n        /* \"#utility.yul\":18402:18416   */\n      add\n        /* \"#utility.yul\":18395:18436   */\n      mstore\n        /* \"#utility.yul\":18278:18443   */\n      pop\n      jump\t// out\n        /* \"#utility.yul\":18449:18815   */\n    tag_308:\n        /* \"#utility.yul\":18591:18594   */\n      0x00\n        /* \"#utility.yul\":18612:18679   */\n      tag_495\n        /* \"#utility.yul\":18676:18678   */\n      0x0f\n        /* \"#utility.yul\":18671:18674   */\n      dup4\n        /* \"#utility.yul\":18612:18679   */\n      tag_256\n      jump\t// in\n    tag_495:\n        /* \"#utility.yul\":18605:18679   */\n      swap2\n      pop\n        /* \"#utility.yul\":18688:18781   */\n      tag_496\n        /* \"#utility.yul\":18777:18780   */\n      dup3\n        /* \"#utility.yul\":18688:18781   */\n      tag_307\n      jump\t// in\n    tag_496:\n        /* \"#utility.yul\":18806:18808   */\n      0x20\n        /* \"#utility.yul\":18801:18804   */\n      dup3\n        /* \"#utility.yul\":18797:18809   */\n      add\n        /* \"#utility.yul\":18790:18809   */\n      swap1\n      pop\n        /* \"#utility.yul\":18449:18815   */\n      swap2\n      swap1\n      pop\n      jump\t// out\n        /* \"#utility.yul\":18821:19240   */\n    tag_152:\n        /* \"#utility.yul\":18987:18991   */\n      0x00\n        /* \"#utility.yul\":19025:19027   */\n      0x20\n        /* \"#utility.yul\":19014:19023   */\n      dup3\n        /* \"#utility.yul\":19010:19028   */\n      add\n        /* \"#utility.yul\":19002:19028   */\n      swap1\n      pop\n        /* \"#utility.yul\":19074:19083   */\n      dup2\n        /* \"#utility.yul\":19068:19072   */\n      dup2\n        /* \"#utility.yul\":19064:19084   */\n      sub\n        /* \"#utility.yul\":19060:19061   */\n      0x00\n        /* \"#utility.yul\":19049:19058   */\n      dup4\n        /* \"#utility.yul\":19045:19062   */\n      add\n        /* \"#utility.yul\":19038:19085   */\n      mstore\n        /* \"#utility.yul\":19102:19233   */\n      tag_498\n        /* \"#utility.yul\":19228:19232   */\n      dup2\n        /* \"#utility.yul\":19102:19233   */\n      tag_308\n      jump\t// in\n    tag_498:\n        /* \"#utility.yul\":19094:19233   */\n      swap1\n      pop\n        /* \"#utility.yul\":18821:19240   */\n      swap2\n      swap1\n      pop\n      jump\t// out\n        /* \"#utility.yul\":19246:19418   */\n    tag_309:\n        /* \"#utility.yul\":19386:19410   */\n      0x4e6f205265656e7472616e63792c706c73207761697400000000000000000000\n        /* \"#utility.yul\":19382:19383   */\n      0x00\n        /* \"#utility.yul\":19374:19380   */\n      dup3\n        /* \"#utility.yul\":19370:19384   */\n      add\n        /* \"#utility.yul\":19363:19411   */\n      mstore\n        /* \"#utility.yul\":19246:19418   */\n      pop\n      jump\t// out\n        /* \"#utility.yul\":19424:19790   */\n    tag_310:\n        /* \"#utility.yul\":19566:19569   */\n      0x00\n        /* \"#utility.yul\":19587:19654   */\n      tag_501\n        /* \"#utility.yul\":19651:19653   */\n      0x16\n        /* \"#utility.yul\":19646:19649   */\n      dup4\n        /* \"#utility.yul\":19587:19654   */\n      tag_256\n      jump\t// in\n    tag_501:\n        /* \"#utility.yul\":19580:19654   */\n      swap2\n      pop\n        /* \"#utility.yul\":19663:19756   */\n      tag_502\n        /* \"#utility.yul\":19752:19755   */\n      dup3\n        /* \"#utility.yul\":19663:19756   */\n      tag_309\n      jump\t// in\n    tag_502:\n        /* \"#utility.yul\":19781:19783   */\n      0x20\n        /* \"#utility.yul\":19776:19779   */\n      dup3\n        /* \"#utility.yul\":19772:19784   */\n      add\n        /* \"#utility.yul\":19765:19784   */\n      swap1\n      pop\n        /* \"#utility.yul\":19424:19790   */\n      swap2\n      swap1\n      pop\n      jump\t// out\n        /* \"#utility.yul\":19796:20215   */\n    tag_156:\n        /* \"#utility.yul\":19962:19966   */\n      0x00\n        /* \"#utility.yul\":20000:20002   */\n      0x20\n        /* \"#utility.yul\":19989:19998   */\n      dup3\n        /* \"#utility.yul\":19985:20003   */\n      add\n        /* \"#utility.yul\":19977:20003   */\n      swap1\n      pop\n        /* \"#utility.yul\":20049:20058   */\n      dup2\n        /* \"#utility.yul\":20043:20047   */\n      dup2\n        /* \"#utility.yul\":20039:20059   */\n      sub\n        /* \"#utility.yul\":20035:20036   */\n      0x00\n        /* \"#utility.yul\":20024:20033   */\n      dup4\n        /* \"#utility.yul\":20020:20037   */\n      add\n        /* \"#utility.yul\":20013:20060   */\n      mstore\n        /* \"#utility.yul\":20077:20208   */\n      tag_504\n        /* \"#utility.yul\":20203:20207   */\n      dup2\n        /* \"#utility.yul\":20077:20208   */\n      tag_310\n      jump\t// in\n    tag_504:\n        /* \"#utility.yul\":20069:20208   */\n      swap1\n      pop\n        /* \"#utility.yul\":19796:20215   */\n      swap2\n      swap1\n      pop\n      jump\t// out\n        /* \"#utility.yul\":20221:20401   */\n    tag_311:\n        /* \"#utility.yul\":20269:20346   */\n      0x4e487b7100000000000000000000000000000000000000000000000000000000\n        /* \"#utility.yul\":20266:20267   */\n      0x00\n        /* \"#utility.yul\":20259:20347   */\n      mstore\n        /* \"#utility.yul\":20366:20370   */\n      0x11\n        /* \"#utility.yul\":20363:20364   */\n      0x04\n        /* \"#utility.yul\":20356:20371   */\n      mstore\n        /* \"#utility.yul\":20390:20394   */\n      0x24\n        /* \"#utility.yul\":20387:20388   */\n      0x00\n        /* \"#utility.yul\":20380:20395   */\n      revert\n        /* \"#utility.yul\":20407:20640   */\n    tag_160:\n        /* \"#utility.yul\":20446:20449   */\n      0x00\n        /* \"#utility.yul\":20469:20493   */\n      tag_507\n        /* \"#utility.yul\":20487:20492   */\n      dup3\n        /* \"#utility.yul\":20469:20493   */\n      tag_278\n      jump\t// in\n    tag_507:\n        /* \"#utility.yul\":20460:20493   */\n      swap2\n      pop\n        /* \"#utility.yul\":20515:20581   */\n      0xffffffffffffffffffffffffffffffffffffffffffffffffffffffffffffffff\n        /* \"#utility.yul\":20508:20513   */\n      dup3\n        /* \"#utility.yul\":20505:20582   */\n      sub\n        /* \"#utility.yul\":20502:20605   */\n      tag_508\n      jumpi\n        /* \"#utility.yul\":20585:20603   */\n      tag_509\n      tag_311\n      jump\t// in\n    tag_509:\n        /* \"#utility.yul\":20502:20605   */\n    tag_508:\n        /* \"#utility.yul\":20632:20633   */\n      0x01\n        /* \"#utility.yul\":20625:20630   */\n      dup3\n        /* \"#utility.yul\":20621:20634   */\n      add\n        /* \"#utility.yul\":20614:20634   */\n      swap1\n      pop\n        /* \"#utility.yul\":20407:20640   */\n      swap2\n      swap1\n      pop\n      jump\t// out\n        /* \"#utility.yul\":20646:20789   */\n    tag_312:\n        /* \"#utility.yul\":20703:20708   */\n      0x00\n        /* \"#utility.yul\":20734:20740   */\n      dup2\n        /* \"#utility.yul\":20728:20741   */\n      mload\n        /* \"#utility.yul\":20719:20741   */\n      swap1\n      pop\n        /* \"#utility.yul\":20750:20783   */\n      tag_511\n        /* \"#utility.yul\":20777:20782   */\n      dup2\n        /* \"#utility.yul\":20750:20783   */\n      tag_279\n      jump\t// in\n    tag_511:\n        /* \"#utility.yul\":20646:20789   */\n      swap3\n      swap2\n      pop\n      pop\n      jump\t// out\n        /* \"#utility.yul\":20795:21146   */\n    tag_166:\n        /* \"#utility.yul\":20865:20871   */\n      0x00\n        /* \"#utility.yul\":20914:20916   */\n      0x20\n        /* \"#utility.yul\":20902:20911   */\n      dup3\n        /* \"#utility.yul\":20893:20900   */\n      dup5\n        /* \"#utility.yul\":20889:20912   */\n      sub\n        /* \"#utility.yul\":20885:20917   */\n      slt\n        /* \"#utility.yul\":20882:21001   */\n      iszero\n      tag_513\n      jumpi\n        /* \"#utility.yul\":20920:20999   */\n      tag_514\n      tag_267\n      jump\t// in\n    tag_514:\n        /* \"#utility.yul\":20882:21001   */\n    tag_513:\n        /* \"#utility.yul\":21040:21041   */\n      0x00\n        /* \"#utility.yul\":21065:21129   */\n      tag_515\n        /* \"#utility.yul\":21121:21128   */\n      dup5\n        /* \"#utility.yul\":21112:21118   */\n      dup3\n        /* \"#utility.yul\":21101:21110   */\n      dup6\n        /* \"#utility.yul\":21097:21119   */\n      add\n        /* \"#utility.yul\":21065:21129   */\n      tag_312\n      jump\t// in\n    tag_515:\n        /* \"#utility.yul\":21055:21129   */\n      swap2\n      pop\n        /* \"#utility.yul\":21011:21139   */\n      pop\n        /* \"#utility.yul\":20795:21146   */\n      swap3\n      swap2\n      pop\n      pop\n      jump\t// out\n        /* \"#utility.yul\":21152:21315   */\n    tag_313:\n        /* \"#utility.yul\":21292:21307   */\n      0x6e6f206f66666572206d6f726500000000000000000000000000000000000000\n        /* \"#utility.yul\":21288:21289   */\n      0x00\n        /* \"#utility.yul\":21280:21286   */\n      dup3\n        /* \"#utility.yul\":21276:21290   */\n      add\n        /* \"#utility.yul\":21269:21308   */\n      mstore\n        /* \"#utility.yul\":21152:21315   */\n      pop\n      jump\t// out\n        /* \"#utility.yul\":21321:21687   */\n    tag_314:\n        /* \"#utility.yul\":21463:21466   */\n      0x00\n        /* \"#utility.yul\":21484:21551   */\n      tag_518\n        /* \"#utility.yul\":21548:21550   */\n      0x0d\n        /* \"#utility.yul\":21543:21546   */\n      dup4\n        /* \"#utility.yul\":21484:21551   */\n      tag_256\n      jump\t// in\n    tag_518:\n        /* \"#utility.yul\":21477:21551   */\n      swap2\n      pop\n        /* \"#utility.yul\":21560:21653   */\n      tag_519\n        /* \"#utility.yul\":21649:21652   */\n      dup3\n        /* \"#utility.yul\":21560:21653   */\n      tag_313\n      jump\t// in\n    tag_519:\n        /* \"#utility.yul\":21678:21680   */\n      0x20\n        /* \"#utility.yul\":21673:21676   */\n      dup3\n        /* \"#utility.yul\":21669:21681   */\n      add\n        /* \"#utility.yul\":21662:21681   */\n      swap1\n      pop\n        /* \"#utility.yul\":21321:21687   */\n      swap2\n      swap1\n      pop\n      jump\t// out\n        /* \"#utility.yul\":21693:22112   */\n    tag_170:\n        /* \"#utility.yul\":21859:21863   */\n      0x00\n        /* \"#utility.yul\":21897:21899   */\n      0x20\n        /* \"#utility.yul\":21886:21895   */\n      dup3\n        /* \"#utility.yul\":21882:21900   */\n      add\n        /* \"#utility.yul\":21874:21900   */\n      swap1\n      pop\n        /* \"#utility.yul\":21946:21955   */\n      dup2\n        /* \"#utility.yul\":21940:21944   */\n      dup2\n        /* \"#utility.yul\":21936:21956   */\n      sub\n        /* \"#utility.yul\":21932:21933   */\n      0x00\n        /* \"#utility.yul\":21921:21930   */\n      dup4\n        /* \"#utility.yul\":21917:21934   */\n      add\n        /* \"#utility.yul\":21910:21957   */\n      mstore\n        /* \"#utility.yul\":21974:22105   */\n      tag_521\n        /* \"#utility.yul\":22100:22104   */\n      dup2\n        /* \"#utility.yul\":21974:22105   */\n      tag_314\n      jump\t// in\n    tag_521:\n        /* \"#utility.yul\":21966:22105   */\n      swap1\n      pop\n        /* \"#utility.yul\":21693:22112   */\n      swap2\n      swap1\n      pop\n      jump\t// out\n        /* \"#utility.yul\":22118:22528   */\n    tag_172:\n        /* \"#utility.yul\":22158:22165   */\n      0x00\n        /* \"#utility.yul\":22181:22201   */\n      tag_523\n        /* \"#utility.yul\":22199:22200   */\n      dup3\n        /* \"#utility.yul\":22181:22201   */\n      tag_278\n      jump\t// in\n    tag_523:\n        /* \"#utility.yul\":22176:22201   */\n      swap2\n      pop\n        /* \"#utility.yul\":22215:22235   */\n      tag_524\n        /* \"#utility.yul\":22233:22234   */\n      dup4\n        /* \"#utility.yul\":22215:22235   */\n      tag_278\n      jump\t// in\n    tag_524:\n        /* \"#utility.yul\":22210:22235   */\n      swap3\n      pop\n        /* \"#utility.yul\":22270:22271   */\n      dup3\n        /* \"#utility.yul\":22267:22268   */\n      dup3\n        /* \"#utility.yul\":22263:22272   */\n      mul\n        /* \"#utility.yul\":22292:22322   */\n      tag_525\n        /* \"#utility.yul\":22310:22321   */\n      dup2\n        /* \"#utility.yul\":22292:22322   */\n      tag_278\n      jump\t// in\n    tag_525:\n        /* \"#utility.yul\":22281:22322   */\n      swap2\n      pop\n        /* \"#utility.yul\":22471:22472   */\n      dup3\n        /* \"#utility.yul\":22462:22469   */\n      dup3\n        /* \"#utility.yul\":22458:22473   */\n      div\n        /* \"#utility.yul\":22455:22456   */\n      dup5\n        /* \"#utility.yul\":22452:22474   */\n      eq\n        /* \"#utility.yul\":22432:22433   */\n      dup4\n        /* \"#utility.yul\":22425:22434   */\n      iszero\n        /* \"#utility.yul\":22405:22488   */\n      or\n        /* \"#utility.yul\":22382:22521   */\n      tag_526\n      jumpi\n        /* \"#utility.yul\":22501:22519   */\n      tag_527\n      tag_311\n      jump\t// in\n    tag_527:\n        /* \"#utility.yul\":22382:22521   */\n    tag_526:\n        /* \"#utility.yul\":22166:22528   */\n      pop\n        /* \"#utility.yul\":22118:22528   */\n      swap3\n      swap2\n      pop\n      pop\n      jump\t// out\n        /* \"#utility.yul\":22534:22714   */\n    tag_315:\n        /* \"#utility.yul\":22582:22659   */\n      0x4e487b7100000000000000000000000000000000000000000000000000000000\n        /* \"#utility.yul\":22579:22580   */\n      0x00\n        /* \"#utility.yul\":22572:22660   */\n      mstore\n        /* \"#utility.yul\":22679:22683   */\n      0x12\n        /* \"#utility.yul\":22676:22677   */\n      0x04\n        /* \"#utility.yul\":22669:22684   */\n      mstore\n        /* \"#utility.yul\":22703:22707   */\n      0x24\n        /* \"#utility.yul\":22700:22701   */\n      0x00\n        /* \"#utility.yul\":22693:22708   */\n      revert\n        /* \"#utility.yul\":22720:22905   */\n    tag_174:\n        /* \"#utility.yul\":22760:22761   */\n      0x00\n        /* \"#utility.yul\":22777:22797   */\n      tag_530\n        /* \"#utility.yul\":22795:22796   */\n      dup3\n        /* \"#utility.yul\":22777:22797   */\n      tag_278\n      jump\t// in\n    tag_530:\n        /* \"#utility.yul\":22772:22797   */\n      swap2\n      pop\n        /* \"#utility.yul\":22811:22831   */\n      tag_531\n        /* \"#utility.yul\":22829:22830   */\n      dup4\n        /* \"#utility.yul\":22811:22831   */\n      tag_278\n      jump\t// in\n    tag_531:\n        /* \"#utility.yul\":22806:22831   */\n      swap3\n      pop\n        /* \"#utility.yul\":22850:22851   */\n      dup3\n        /* \"#utility.yul\":22840:22875   */\n      tag_532\n      jumpi\n        /* \"#utility.yul\":22855:22873   */\n      tag_533\n      tag_315\n      jump\t// in\n    tag_533:\n        /* \"#utility.yul\":22840:22875   */\n    tag_532:\n        /* \"#utility.yul\":22897:22898   */\n      dup3\n        /* \"#utility.yul\":22894:22895   */\n      dup3\n        /* \"#utility.yul\":22890:22899   */\n      div\n        /* \"#utility.yul\":22885:22899   */\n      swap1\n      pop\n        /* \"#utility.yul\":22720:22905   */\n      swap3\n      swap2\n      pop\n      pop\n      jump\t// out\n        /* \"#utility.yul\":22911:23102   */\n    tag_182:\n        /* \"#utility.yul\":22951:22954   */\n      0x00\n        /* \"#utility.yul\":22970:22990   */\n      tag_535\n        /* \"#utility.yul\":22988:22989   */\n      dup3\n        /* \"#utility.yul\":22970:22990   */\n      tag_278\n      jump\t// in\n    tag_535:\n        /* \"#utility.yul\":22965:22990   */\n      swap2\n      pop\n        /* \"#utility.yul\":23004:23024   */\n      tag_536\n        /* \"#utility.yul\":23022:23023   */\n      dup4\n        /* \"#utility.yul\":23004:23024   */\n      tag_278\n      jump\t// in\n    tag_536:\n        /* \"#utility.yul\":22999:23024   */\n      swap3\n      pop\n        /* \"#utility.yul\":23047:23048   */\n      dup3\n        /* \"#utility.yul\":23044:23045   */\n      dup3\n        /* \"#utility.yul\":23040:23049   */\n      add\n        /* \"#utility.yul\":23033:23049   */\n      swap1\n      pop\n        /* \"#utility.yul\":23068:23071   */\n      dup1\n        /* \"#utility.yul\":23065:23066   */\n      dup3\n        /* \"#utility.yul\":23062:23072   */\n      gt\n        /* \"#utility.yul\":23059:23095   */\n      iszero\n      tag_537\n      jumpi\n        /* \"#utility.yul\":23075:23093   */\n      tag_538\n      tag_311\n      jump\t// in\n    tag_538:\n        /* \"#utility.yul\":23059:23095   */\n    tag_537:\n        /* \"#utility.yul\":22911:23102   */\n      swap3\n      swap2\n      pop\n      pop\n      jump\t// out\n        /* \"#utility.yul\":23108:23288   */\n    tag_189:\n        /* \"#utility.yul\":23156:23233   */\n      0x4e487b7100000000000000000000000000000000000000000000000000000000\n        /* \"#utility.yul\":23153:23154   */\n      0x00\n        /* \"#utility.yul\":23146:23234   */\n      mstore\n        /* \"#utility.yul\":23253:23257   */\n      0x32\n        /* \"#utility.yul\":23250:23251   */\n      0x04\n        /* \"#utility.yul\":23243:23258   */\n      mstore\n        /* \"#utility.yul\":23277:23281   */\n      0x24\n        /* \"#utility.yul\":23274:23275   */\n      0x00\n        /* \"#utility.yul\":23267:23282   */\n      revert\n        /* \"#utility.yul\":23294:23454   */\n    tag_316:\n        /* \"#utility.yul\":23434:23446   */\n      0x4f6e6c79206f776e657200000000000000000000000000000000000000000000\n        /* \"#utility.yul\":23430:23431   */\n      0x00\n        /* \"#utility.yul\":23422:23428   */\n      dup3\n        /* \"#utility.yul\":23418:23432   */\n      add\n        /* \"#utility.yul\":23411:23447   */\n      mstore\n        /* \"#utility.yul\":23294:23454   */\n      pop\n      jump\t// out\n        /* \"#utility.yul\":23460:23826   */\n    tag_317:\n        /* \"#utility.yul\":23602:23605   */\n      0x00\n        /* \"#utility.yul\":23623:23690   */\n      tag_542\n        /* \"#utility.yul\":23687:23689   */\n      0x0a\n        /* \"#utility.yul\":23682:23685   */\n      dup4\n        /* \"#utility.yul\":23623:23690   */\n      tag_256\n      jump\t// in\n    tag_542:\n        /* \"#utility.yul\":23616:23690   */\n      swap2\n      pop\n        /* \"#utility.yul\":23699:23792   */\n      tag_543\n        /* \"#utility.yul\":23788:23791   */\n      dup3\n        /* \"#utility.yul\":23699:23792   */\n      tag_316\n      jump\t// in\n    tag_543:\n        /* \"#utility.yul\":23817:23819   */\n      0x20\n        /* \"#utility.yul\":23812:23815   */\n      dup3\n        /* \"#utility.yul\":23808:23820   */\n      add\n        /* \"#utility.yul\":23801:23820   */\n      swap1\n      pop\n        /* \"#utility.yul\":23460:23826   */\n      swap2\n      swap1\n      pop\n      jump\t// out\n        /* \"#utility.yul\":23832:24251   */\n    tag_196:\n        /* \"#utility.yul\":23998:24002   */\n      0x00\n        /* \"#utility.yul\":24036:24038   */\n      0x20\n        /* \"#utility.yul\":24025:24034   */\n      dup3\n        /* \"#utility.yul\":24021:24039   */\n      add\n        /* \"#utility.yul\":24013:24039   */\n      swap1\n      pop\n        /* \"#utility.yul\":24085:24094   */\n      dup2\n        /* \"#utility.yul\":24079:24083   */\n      dup2\n        /* \"#utility.yul\":24075:24095   */\n      sub\n        /* \"#utility.yul\":24071:24072   */\n      0x00\n        /* \"#utility.yul\":24060:24069   */\n      dup4\n        /* \"#utility.yul\":24056:24073   */\n      add\n        /* \"#utility.yul\":24049:24096   */\n      mstore\n        /* \"#utility.yul\":24113:24244   */\n      tag_545\n        /* \"#utility.yul\":24239:24243   */\n      dup2\n        /* \"#utility.yul\":24113:24244   */\n      tag_317\n      jump\t// in\n    tag_545:\n        /* \"#utility.yul\":24105:24244   */\n      swap1\n      pop\n        /* \"#utility.yul\":23832:24251   */\n      swap2\n      swap1\n      pop\n      jump\t// out\n        /* \"#utility.yul\":24257:24374   */\n    tag_318:\n        /* \"#utility.yul\":24366:24367   */\n      0x00\n        /* \"#utility.yul\":24363:24364   */\n      0x00\n        /* \"#utility.yul\":24356:24368   */\n      revert\n        /* \"#utility.yul\":24380:24497   */\n    tag_319:\n        /* \"#utility.yul\":24489:24490   */\n      0x00\n        /* \"#utility.yul\":24486:24487   */\n      0x00\n        /* \"#utility.yul\":24479:24491   */\n      revert\n        /* \"#utility.yul\":24503:24683   */\n    tag_320:\n        /* \"#utility.yul\":24551:24628   */\n      0x4e487b7100000000000000000000000000000000000000000000000000000000\n        /* \"#utility.yul\":24548:24549   */\n      0x00\n        /* \"#utility.yul\":24541:24629   */\n      mstore\n        /* \"#utility.yul\":24648:24652   */\n      0x41\n        /* \"#utility.yul\":24645:24646   */\n      0x04\n        /* \"#utility.yul\":24638:24653   */\n      mstore\n        /* \"#utility.yul\":24672:24676   */\n      0x24\n        /* \"#utility.yul\":24669:24670   */\n      0x00\n        /* \"#utility.yul\":24662:24677   */\n      revert\n        /* \"#utility.yul\":24689:24970   */\n    tag_321:\n        /* \"#utility.yul\":24772:24799   */\n      tag_550\n        /* \"#utility.yul\":24794:24798   */\n      dup3\n        /* \"#utility.yul\":24772:24799   */\n      tag_288\n      jump\t// in\n    tag_550:\n        /* \"#utility.yul\":24764:24770   */\n      dup2\n        /* \"#utility.yul\":24760:24800   */\n      add\n        /* \"#utility.yul\":24902:24908   */\n      dup2\n        /* \"#utility.yul\":24890:24900   */\n      dup2\n        /* \"#utility.yul\":24887:24909   */\n      lt\n        /* \"#utility.yul\":24866:24884   */\n      0xffffffffffffffff\n        /* \"#utility.yul\":24854:24864   */\n      dup3\n        /* \"#utility.yul\":24851:24885   */\n      gt\n        /* \"#utility.yul\":24848:24910   */\n      or\n        /* \"#utility.yul\":24845:24933   */\n      iszero\n      tag_551\n      jumpi\n        /* \"#utility.yul\":24913:24931   */\n      tag_552\n      tag_320\n      jump\t// in\n    tag_552:\n        /* \"#utility.yul\":24845:24933   */\n    tag_551:\n        /* \"#utility.yul\":24953:24963   */\n      dup1\n        /* \"#utility.yul\":24949:24951   */\n      0x40\n        /* \"#utility.yul\":24942:24964   */\n      mstore\n        /* \"#utility.yul\":24732:24970   */\n      pop\n        /* \"#utility.yul\":24689:24970   */\n      pop\n      pop\n      jump\t// out\n        /* \"#utility.yul\":24976:25105   */\n    tag_322:\n        /* \"#utility.yul\":25010:25016   */\n      0x00\n        /* \"#utility.yul\":25037:25057   */\n      tag_554\n      tag_266\n      jump\t// in\n    tag_554:\n        /* \"#utility.yul\":25027:25057   */\n      swap1\n      pop\n        /* \"#utility.yul\":25066:25099   */\n      tag_555\n        /* \"#utility.yul\":25094:25098   */\n      dup3\n        /* \"#utility.yul\":25086:25092   */\n      dup3\n        /* \"#utility.yul\":25066:25099   */\n      tag_321\n      jump\t// in\n    tag_555:\n        /* \"#utility.yul\":24976:25105   */\n      swap2\n      swap1\n      pop\n      jump\t// out\n        /* \"#utility.yul\":25111:25419   */\n    tag_323:\n        /* \"#utility.yul\":25173:25177   */\n      0x00\n        /* \"#utility.yul\":25263:25281   */\n      0xffffffffffffffff\n        /* \"#utility.yul\":25255:25261   */\n      dup3\n        /* \"#utility.yul\":25252:25282   */\n      gt\n        /* \"#utility.yul\":25249:25305   */\n      iszero\n      tag_557\n      jumpi\n        /* \"#utility.yul\":25285:25303   */\n      tag_558\n      tag_320\n      jump\t// in\n    tag_558:\n        /* \"#utility.yul\":25249:25305   */\n    tag_557:\n        /* \"#utility.yul\":25323:25352   */\n      tag_559\n        /* \"#utility.yul\":25345:25351   */\n      dup3\n        /* \"#utility.yul\":25323:25352   */\n      tag_288\n      jump\t// in\n    tag_559:\n        /* \"#utility.yul\":25315:25352   */\n      swap1\n      pop\n        /* \"#utility.yul\":25407:25411   */\n      0x20\n        /* \"#utility.yul\":25401:25405   */\n      dup2\n        /* \"#utility.yul\":25397:25412   */\n      add\n        /* \"#utility.yul\":25389:25412   */\n      swap1\n      pop\n        /* \"#utility.yul\":25111:25419   */\n      swap2\n      swap1\n      pop\n      jump\t// out\n        /* \"#utility.yul\":25425:25859   */\n    tag_324:\n        /* \"#utility.yul\":25514:25519   */\n      0x00\n        /* \"#utility.yul\":25539:25605   */\n      tag_561\n        /* \"#utility.yul\":25555:25604   */\n      tag_562\n        /* \"#utility.yul\":25597:25603   */\n      dup5\n        /* \"#utility.yul\":25555:25604   */\n      tag_323\n      jump\t// in\n    tag_562:\n        /* \"#utility.yul\":25539:25605   */\n      tag_322\n      jump\t// in\n    tag_561:\n        /* \"#utility.yul\":25530:25605   */\n      swap1\n      pop\n        /* \"#utility.yul\":25628:25634   */\n      dup3\n        /* \"#utility.yul\":25621:25626   */\n      dup2\n        /* \"#utility.yul\":25614:25635   */\n      mstore\n        /* \"#utility.yul\":25666:25670   */\n      0x20\n        /* \"#utility.yul\":25659:25664   */\n      dup2\n        /* \"#utility.yul\":25655:25671   */\n      add\n        /* \"#utility.yul\":25704:25707   */\n      dup5\n        /* \"#utility.yul\":25695:25701   */\n      dup5\n        /* \"#utility.yul\":25690:25693   */\n      dup5\n        /* \"#utility.yul\":25686:25702   */\n      add\n        /* \"#utility.yul\":25683:25708   */\n      gt\n        /* \"#utility.yul\":25680:25792   */\n      iszero\n      tag_563\n      jumpi\n        /* \"#utility.yul\":25711:25790   */\n      tag_564\n      tag_319\n      jump\t// in\n    tag_564:\n        /* \"#utility.yul\":25680:25792   */\n    tag_563:\n        /* \"#utility.yul\":25801:25853   */\n      tag_565\n        /* \"#utility.yul\":25846:25852   */\n      dup5\n        /* \"#utility.yul\":25841:25844   */\n      dup3\n        /* \"#utility.yul\":25836:25839   */\n      dup6\n        /* \"#utility.yul\":25801:25853   */\n      tag_287\n      jump\t// in\n    tag_565:\n        /* \"#utility.yul\":25520:25859   */\n      pop\n        /* \"#utility.yul\":25425:25859   */\n      swap4\n      swap3\n      pop\n      pop\n      pop\n      jump\t// out\n        /* \"#utility.yul\":25879:26234   */\n    tag_325:\n        /* \"#utility.yul\":25946:25951   */\n      0x00\n        /* \"#utility.yul\":25995:25998   */\n      dup3\n        /* \"#utility.yul\":25988:25992   */\n      0x1f\n        /* \"#utility.yul\":25980:25986   */\n      dup4\n        /* \"#utility.yul\":25976:25993   */\n      add\n        /* \"#utility.yul\":25972:25999   */\n      slt\n        /* \"#utility.yul\":25962:26084   */\n      tag_567\n      jumpi\n        /* \"#utility.yul\":26003:26082   */\n      tag_568\n      tag_318\n      jump\t// in\n    tag_568:\n        /* \"#utility.yul\":25962:26084   */\n    tag_567:\n        /* \"#utility.yul\":26113:26119   */\n      dup2\n        /* \"#utility.yul\":26107:26120   */\n      mload\n        /* \"#utility.yul\":26138:26228   */\n      tag_569\n        /* \"#utility.yul\":26224:26227   */\n      dup5\n        /* \"#utility.yul\":26216:26222   */\n      dup3\n        /* \"#utility.yul\":26209:26213   */\n      0x20\n        /* \"#utility.yul\":26201:26207   */\n      dup7\n        /* \"#utility.yul\":26197:26214   */\n      add\n        /* \"#utility.yul\":26138:26228   */\n      tag_324\n      jump\t// in\n    tag_569:\n        /* \"#utility.yul\":26129:26228   */\n      swap2\n      pop\n        /* \"#utility.yul\":25952:26234   */\n      pop\n        /* \"#utility.yul\":25879:26234   */\n      swap3\n      swap2\n      pop\n      pop\n      jump\t// out\n        /* \"#utility.yul\":26240:26764   */\n    tag_208:\n        /* \"#utility.yul\":26320:26326   */\n      0x00\n        /* \"#utility.yul\":26369:26371   */\n      0x20\n        /* \"#utility.yul\":26357:26366   */\n      dup3\n        /* \"#utility.yul\":26348:26355   */\n      dup5\n        /* \"#utility.yul\":26344:26367   */\n      sub\n        /* \"#utility.yul\":26340:26372   */\n      slt\n        /* \"#utility.yul\":26337:26456   */\n      iszero\n      tag_571\n      jumpi\n        /* \"#utility.yul\":26375:26454   */\n      tag_572\n      tag_267\n      jump\t// in\n    tag_572:\n        /* \"#utility.yul\":26337:26456   */\n    tag_571:\n        /* \"#utility.yul\":26516:26517   */\n      0x00\n        /* \"#utility.yul\":26505:26514   */\n      dup3\n        /* \"#utility.yul\":26501:26518   */\n      add\n        /* \"#utility.yul\":26495:26519   */\n      mload\n        /* \"#utility.yul\":26546:26564   */\n      0xffffffffffffffff\n        /* \"#utility.yul\":26538:26544   */\n      dup2\n        /* \"#utility.yul\":26535:26565   */\n      gt\n        /* \"#utility.yul\":26532:26649   */\n      iszero\n      tag_573\n      jumpi\n        /* \"#utility.yul\":26568:26647   */\n      tag_574\n      tag_268\n      jump\t// in\n    tag_574:\n        /* \"#utility.yul\":26532:26649   */\n    tag_573:\n        /* \"#utility.yul\":26673:26747   */\n      tag_575\n        /* \"#utility.yul\":26739:26746   */\n      dup5\n        /* \"#utility.yul\":26730:26736   */\n      dup3\n        /* \"#utility.yul\":26719:26728   */\n      dup6\n        /* \"#utility.yul\":26715:26737   */\n      add\n        /* \"#utility.yul\":26673:26747   */\n      tag_325\n      jump\t// in\n    tag_575:\n        /* \"#utility.yul\":26663:26747   */\n      swap2\n      pop\n        /* \"#utility.yul\":26466:26757   */\n      pop\n        /* \"#utility.yul\":26240:26764   */\n      swap3\n      swap2\n      pop\n      pop\n      jump\t// out\n        /* \"#utility.yul\":26770:26947   */\n    tag_326:\n        /* \"#utility.yul\":26910:26939   */\n      0x6d696e2073686f756c64206265206d6f7265207468616e207461780000000000\n        /* \"#utility.yul\":26906:26907   */\n      0x00\n        /* \"#utility.yul\":26898:26904   */\n      dup3\n        /* \"#utility.yul\":26894:26908   */\n      add\n        /* \"#utility.yul\":26887:26940   */\n      mstore\n        /* \"#utility.yul\":26770:26947   */\n      pop\n      jump\t// out\n        /* \"#utility.yul\":26953:27319   */\n    tag_327:\n        /* \"#utility.yul\":27095:27098   */\n      0x00\n        /* \"#utility.yul\":27116:27183   */\n      tag_578\n        /* \"#utility.yul\":27180:27182   */\n      0x1b\n        /* \"#utility.yul\":27175:27178   */\n      dup4\n        /* \"#utility.yul\":27116:27183   */\n      tag_256\n      jump\t// in\n    tag_578:\n        /* \"#utility.yul\":27109:27183   */\n      swap2\n      pop\n        /* \"#utility.yul\":27192:27285   */\n      tag_579\n        /* \"#utility.yul\":27281:27284   */\n      dup3\n        /* \"#utility.yul\":27192:27285   */\n      tag_326\n      jump\t// in\n    tag_579:\n        /* \"#utility.yul\":27310:27312   */\n      0x20\n        /* \"#utility.yul\":27305:27308   */\n      dup3\n        /* \"#utility.yul\":27301:27313   */\n      add\n        /* \"#utility.yul\":27294:27313   */\n      swap1\n      pop\n        /* \"#utility.yul\":26953:27319   */\n      swap2\n      swap1\n      pop\n      jump\t// out\n        /* \"#utility.yul\":27325:27744   */\n    tag_238:\n        /* \"#utility.yul\":27491:27495   */\n      0x00\n        /* \"#utility.yul\":27529:27531   */\n      0x20\n        /* \"#utility.yul\":27518:27527   */\n      dup3\n        /* \"#utility.yul\":27514:27532   */\n      add\n        /* \"#utility.yul\":27506:27532   */\n      swap1\n      pop\n        /* \"#utility.yul\":27578:27587   */\n      dup2\n        /* \"#utility.yul\":27572:27576   */\n      dup2\n        /* \"#utility.yul\":27568:27588   */\n      sub\n        /* \"#utility.yul\":27564:27565   */\n      0x00\n        /* \"#utility.yul\":27553:27562   */\n      dup4\n        /* \"#utility.yul\":27549:27566   */\n      add\n        /* \"#utility.yul\":27542:27589   */\n      mstore\n        /* \"#utility.yul\":27606:27737   */\n      tag_581\n        /* \"#utility.yul\":27732:27736   */\n      dup2\n        /* \"#utility.yul\":27606:27737   */\n      tag_327\n      jump\t// in\n    tag_581:\n        /* \"#utility.yul\":27598:27737   */\n      swap1\n      pop\n        /* \"#utility.yul\":27325:27744   */\n      swap2\n      swap1\n      pop\n      jump\t// out\n        /* \"#utility.yul\":27750:27915   */\n    tag_328:\n        /* \"#utility.yul\":27890:27907   */\n      0x496e76616c696420616464726573730000000000000000000000000000000000\n        /* \"#utility.yul\":27886:27887   */\n      0x00\n        /* \"#utility.yul\":27878:27884   */\n      dup3\n        /* \"#utility.yul\":27874:27888   */\n      add\n        /* \"#utility.yul\":27867:27908   */\n      mstore\n        /* \"#utility.yul\":27750:27915   */\n      pop\n      jump\t// out\n        /* \"#utility.yul\":27921:28287   */\n    tag_329:\n        /* \"#utility.yul\":28063:28066   */\n      0x00\n        /* \"#utility.yul\":28084:28151   */\n      tag_584\n        /* \"#utility.yul\":28148:28150   */\n      0x0f\n        /* \"#utility.yul\":28143:28146   */\n      dup4\n        /* \"#utility.yul\":28084:28151   */\n      tag_256\n      jump\t// in\n    tag_584:\n        /* \"#utility.yul\":28077:28151   */\n      swap2\n      pop\n        /* \"#utility.yul\":28160:28253   */\n      tag_585\n        /* \"#utility.yul\":28249:28252   */\n      dup3\n        /* \"#utility.yul\":28160:28253   */\n      tag_328\n      jump\t// in\n    tag_585:\n        /* \"#utility.yul\":28278:28280   */\n      0x20\n        /* \"#utility.yul\":28273:28276   */\n      dup3\n        /* \"#utility.yul\":28269:28281   */\n      add\n        /* \"#utility.yul\":28262:28281   */\n      swap1\n      pop\n        /* \"#utility.yul\":27921:28287   */\n      swap2\n      swap1\n      pop\n      jump\t// out\n        /* \"#utility.yul\":28293:28712   */\n    tag_245:\n        /* \"#utility.yul\":28459:28463   */\n      0x00\n        /* \"#utility.yul\":28497:28499   */\n      0x20\n        /* \"#utility.yul\":28486:28495   */\n      dup3\n        /* \"#utility.yul\":28482:28500   */\n      add\n        /* \"#utility.yul\":28474:28500   */\n      swap1\n      pop\n        /* \"#utility.yul\":28546:28555   */\n      dup2\n        /* \"#utility.yul\":28540:28544   */\n      dup2\n        /* \"#utility.yul\":28536:28556   */\n      sub\n        /* \"#utility.yul\":28532:28533   */\n      0x00\n        /* \"#utility.yul\":28521:28530   */\n      dup4\n        /* \"#utility.yul\":28517:28534   */\n      add\n        /* \"#utility.yul\":28510:28557   */\n      mstore\n        /* \"#utility.yul\":28574:28705   */\n      tag_587\n        /* \"#utility.yul\":28700:28704   */\n      dup2\n        /* \"#utility.yul\":28574:28705   */\n      tag_329\n      jump\t// in\n    tag_587:\n        /* \"#utility.yul\":28566:28705   */\n      swap1\n      pop\n        /* \"#utility.yul\":28293:28712   */\n      swap2\n      swap1\n      pop\n      jump\t// out\n\n    auxdata: 0xa2646970667358221220742c6079408a8be8fa26db3deb04b62def155fbb074988720880115e8092691d64736f6c634300081e0033\n}\n",
				"bytecode": {
					"linkReferences": {},
					"object": "608060405234801561000f575f5ffd5b5060405161290538038061290583398181016040528101906100319190610151565b3360015f6101000a81548173ffffffffffffffffffffffffffffffffffffffff021916908373ffffffffffffffffffffffffffffffffffffffff16021790555060018060156101000a81548160ff021916908360ff160217905550805f5f6101000a81548173ffffffffffffffffffffffffffffffffffffffff021916908373ffffffffffffffffffffffffffffffffffffffff160217905550653b1dfde91000600381905550662386f26fc100006004819055505f6005819055505061017c565b5f5ffd5b5f73ffffffffffffffffffffffffffffffffffffffff82169050919050565b5f610120826100f7565b9050919050565b61013081610116565b811461013a575f5ffd5b50565b5f8151905061014b81610127565b92915050565b5f60208284031215610166576101656100f3565b5b5f6101738482850161013d565b91505092915050565b61277c806101895f395ff3fe60806040526004361061010c575f3560e01c80638da5cb5b11610094578063b76bdf0611610063578063b76bdf0614610646578063bff1f9e11461066e578063fa09e63014610698578063fdbb6696146106c0578063ffbe653d146106fc5761022b565b80638da5cb5b146105a2578063a2f5546e146105cc578063ae243031146105f4578063af6b55581461061e5761022b565b806354eb7ebe116100db57806354eb7ebe146104c25780635f1276a7146104ec578063672cbe1a146105145780636ed6da9e1461053e5780637ce8a08e1461057a5761022b565b80632a2a92cc146103f85780632b956ff71461043457806331bbf55514610470578063487cb6b0146104ac5761022b565b3661022b57600454341015610156576040517f08c379a000000000000000000000000000000000000000000000000000000000815260040161014d90611a77565b60405180910390fd5b5f5f5f9054906101000a900473ffffffffffffffffffffffffffffffffffffffff1673ffffffffffffffffffffffffffffffffffffffff1660035460405161019d90611ac2565b5f6040518083038185875af1925050503d805f81146101d7576040519150601f19603f3d011682016040523d82523d5f602084013e6101dc565b606091505b5050905080610220576040517f08c379a000000000000000000000000000000000000000000000000000000000815260040161021790611b20565b60405180910390fd5b6102295f610738565b005b600454341015610270576040517f08c379a000000000000000000000000000000000000000000000000000000000815260040161026790611a77565b60405180910390fd5b60205f36905010156102b7576040517f08c379a00000000000000000000000000000000000000000000000000000000081526004016102ae90611b88565b60405180910390fd5b5f368101906102c69190611bec565b156103155766b1a2bc2ec500003414610314576040517f08c379a000000000000000000000000000000000000000000000000000000000815260040161030b90611c61565b60405180910390fd5b5b5f5f5f9054906101000a900473ffffffffffffffffffffffffffffffffffffffff1673ffffffffffffffffffffffffffffffffffffffff1660035460405161035c90611ac2565b5f6040518083038185875af1925050503d805f8114610396576040519150601f19603f3d011682016040523d82523d5f602084013e61039b565b606091505b50509050806103df576040517f08c379a00000000000000000000000000000000000000000000000000000000081526004016103d690611b20565b60405180910390fd5b6103f65f368101906103f19190611bec565b610738565b005b348015610403575f5ffd5b5061041e60048036038101906104199190611d0c565b610e14565b60405161042b9190611dc7565b60405180910390f35b34801561043f575f5ffd5b5061045a60048036038101906104559190611de0565b610ed7565b6040516104679190611e1a565b60405180910390f35b34801561047b575f5ffd5b5061049660048036038101906104919190611de0565b610f1d565b6040516104a39190611e1a565b60405180910390f35b3480156104b7575f5ffd5b506104c0610f7a565b005b3480156104cd575f5ffd5b506104d6611086565b6040516104e39190611e93565b60405180910390f35b3480156104f7575f5ffd5b50610512600480360381019061050d9190611eee565b6111ac565b005b34801561051f575f5ffd5b5061052861127e565b6040516105359190611e1a565b60405180910390f35b348015610549575f5ffd5b50610564600480360381019061055f9190611f19565b6112ab565b60405161057191906120bd565b60405180910390f35b348015610585575f5ffd5b506105a0600480360381019061059b9190612107565b6113e3565b005b3480156105ad575f5ffd5b506105b6611490565b6040516105c39190612141565b60405180910390f35b3480156105d7575f5ffd5b506105f260048036038101906105ed919061215a565b6114b5565b005b3480156105ff575f5ffd5b50610608611564565b60405161061591906121a7565b60405180910390f35b348015610629575f5ffd5b50610644600480360381019061063f9190611eee565b611577565b005b348015610651575f5ffd5b5061066c60048036038101906106679190611f19565b611648565b005b348015610679575f5ffd5b50610682611726565b60405161068f9190611e1a565b60405180910390f35b3480156106a3575f5ffd5b506106be60048036038101906106b99190611eee565b61172c565b005b3480156106cb575f5ffd5b506106e660048036038101906106e19190611de0565b611870565b6040516106f39190611e1a565b60405180910390f35b348015610707575f5ffd5b50610722600480360381019061071d9190612107565b6118ca565b60405161072f9190611e1a565b60405180910390f35b5f600160159054906101000a900460ff1660ff160361078c576040517f08c379a00000000000000000000000000000000000000000000000000000000081526004016107839061220a565b60405180910390fd5b60011515600160149054906101000a900460ff161515036107e2576040517f08c379a00000000000000000000000000000000000000000000000000000000081526004016107d990612272565b60405180910390fd5b60018060146101000a81548160ff0219169083151502179055505f60065f3373ffffffffffffffffffffffffffffffffffffffff1673ffffffffffffffffffffffffffffffffffffffff1681526020019081526020015f205403610a555760055f815480929190610852906122bd565b919050555060055460065f3373ffffffffffffffffffffffffffffffffffffffff1673ffffffffffffffffffffffffffffffffffffffff1681526020019081526020015f20819055505f60075f60065f3373ffffffffffffffffffffffffffffffffffffffff1673ffffffffffffffffffffffffffffffffffffffff1681526020019081526020015f205481526020019081526020015f20905033815f015f6101000a81548173ffffffffffffffffffffffffffffffffffffffff021916908373ffffffffffffffffffffffffffffffffffffffff1602179055505f81600101819055506001816002015f6101000a81548160ff0219169083151502179055508060075f60065f3373ffffffffffffffffffffffffffffffffffffffff1673ffffffffffffffffffffffffffffffffffffffff1681526020019081526020015f205481526020019081526020015f205f82015f9054906101000a900473ffffffffffffffffffffffffffffffffffffffff16815f015f6101000a81548173ffffffffffffffffffffffffffffffffffffffff021916908373ffffffffffffffffffffffffffffffffffffffff16021790555060018201548160010155600282015f9054906101000a900460ff16816002015f6101000a81548160ff0219169083151502179055506003820181600301908054610a4f9291906118df565b50905050505b5f5f5f9054906101000a900473ffffffffffffffffffffffffffffffffffffffff1673ffffffffffffffffffffffffffffffffffffffff1663e03d16326040518163ffffffff1660e01b8152600401602060405180830381865afa158015610abf573d5f5f3e3d5ffd5b505050506040513d601f19601f82011682018060405250810190610ae39190612318565b90505f8215610c535760075f60065f3373ffffffffffffffffffffffffffffffffffffffff1673ffffffffffffffffffffffffffffffffffffffff1681526020019081526020015f205481526020019081526020015f206002015f9054906101000a900460ff16610b89576040517f08c379a0000000000000000000000000000000000000000000000000000000008152600401610b809061238d565b60405180910390fd5b6002805f600160159054906101000a900460ff1660ff1660ff1681526020019081526020015f205483670de0b6b3a764000034610bc691906123ab565b610bd09190612419565b610bda9190612419565b610be491906123ab565b90505f60075f60065f3373ffffffffffffffffffffffffffffffffffffffff1673ffffffffffffffffffffffffffffffffffffffff1681526020019081526020015f205481526020019081526020015f206002015f6101000a81548160ff021916908315150217905550610ca6565b60025f600160159054906101000a900460ff1660ff1660ff1681526020019081526020015f205482670de0b6b3a764000034610c8f91906123ab565b610c999190612419565b610ca39190612419565b90505b8060075f60065f3373ffffffffffffffffffffffffffffffffffffffff1673ffffffffffffffffffffffffffffffffffffffff1681526020019081526020015f205481526020019081526020015f206001015f828254610d069190612449565b9250508190555060075f60065f3373ffffffffffffffffffffffffffffffffffffffff1673ffffffffffffffffffffffffffffffffffffffff1681526020019081526020015f205481526020019081526020015f206003016040518060800160405280428152602001348152602001838152602001600160159054906101000a900460ff1660ff16815250908060018154018082558091505060019003905f5260205f2090600402015f909190919091505f820151815f015560208201518160010155604082015181600201556060820151816003015f6101000a81548160ff021916908360ff160217905550505050505f600160146101000a81548160ff02191690831515021790555050565b610e1c61197b565b60075f60065f8673ffffffffffffffffffffffffffffffffffffffff1673ffffffffffffffffffffffffffffffffffffffff1681526020019081526020015f205481526020019081526020015f206003018281548110610e7f57610e7e61247c565b5b905f5260205f2090600402016040518060800160405290815f82015481526020016001820154815260200160028201548152602001600382015f9054906101000a900460ff1660ff1660ff1681525050905092915050565b5f60065f8373ffffffffffffffffffffffffffffffffffffffff1673ffffffffffffffffffffffffffffffffffffffff1681526020019081526020015f20549050919050565b5f60075f60065f8573ffffffffffffffffffffffffffffffffffffffff1673ffffffffffffffffffffffffffffffffffffffff1681526020019081526020015f205481526020019081526020015f20600301805490509050919050565b60015f9054906101000a900473ffffffffffffffffffffffffffffffffffffffff1673ffffffffffffffffffffffffffffffffffffffff163373ffffffffffffffffffffffffffffffffffffffff1614611009576040517f08c379a0000000000000000000000000000000000000000000000000000000008152600401611000906124f3565b60405180910390fd5b5f5f9054906101000a900473ffffffffffffffffffffffffffffffffffffffff1673ffffffffffffffffffffffffffffffffffffffff166365a6cc2e6040518163ffffffff1660e01b81526004015f604051808303815f87803b15801561106e575f5ffd5b505af1158015611080573d5f5f3e3d5ffd5b50505050565b606060015f9054906101000a900473ffffffffffffffffffffffffffffffffffffffff1673ffffffffffffffffffffffffffffffffffffffff163373ffffffffffffffffffffffffffffffffffffffff1614611117576040517f08c379a000000000000000000000000000000000000000000000000000000000815260040161110e906124f3565b60405180910390fd5b5f5f9054906101000a900473ffffffffffffffffffffffffffffffffffffffff1673ffffffffffffffffffffffffffffffffffffffff1663a1c6a4056040518163ffffffff1660e01b81526004015f60405180830381865afa15801561117f573d5f5f3e3d5ffd5b505050506040513d5f823e3d601f19601f820116820180604052508101906111a7919061262f565b905090565b60015f9054906101000a900473ffffffffffffffffffffffffffffffffffffffff1673ffffffffffffffffffffffffffffffffffffffff163373ffffffffffffffffffffffffffffffffffffffff161461123b576040517f08c379a0000000000000000000000000000000000000000000000000000000008152600401611232906124f3565b60405180910390fd5b8060015f6101000a81548173ffffffffffffffffffffffffffffffffffffffff021916908373ffffffffffffffffffffffffffffffffffffffff16021790555050565b5f60025f600160159054906101000a900460ff1660ff1660ff1681526020019081526020015f2054905090565b6112b36119a2565b60075f8381526020019081526020015f206040518060800160405290815f82015f9054906101000a900473ffffffffffffffffffffffffffffffffffffffff1673ffffffffffffffffffffffffffffffffffffffff1673ffffffffffffffffffffffffffffffffffffffff16815260200160018201548152602001600282015f9054906101000a900460ff1615151515815260200160038201805480602002602001604051908101604052809291908181526020015f905b828210156113d4578382905f5260205f2090600402016040518060800160405290815f82015481526020016001820154815260200160028201548152602001600382015f9054906101000a900460ff1660ff1660ff16815250508152602001906001019061136b565b50505050815250509050919050565b60015f9054906101000a900473ffffffffffffffffffffffffffffffffffffffff1673ffffffffffffffffffffffffffffffffffffffff163373ffffffffffffffffffffffffffffffffffffffff1614611472576040517f08c379a0000000000000000000000000000000000000000000000000000000008152600401611469906124f3565b60405180910390fd5b80600160156101000a81548160ff021916908360ff16021790555050565b60015f9054906101000a900473ffffffffffffffffffffffffffffffffffffffff1681565b60015f9054906101000a900473ffffffffffffffffffffffffffffffffffffffff1673ffffffffffffffffffffffffffffffffffffffff163373ffffffffffffffffffffffffffffffffffffffff1614611544576040517f08c379a000000000000000000000000000000000000000000000000000000000815260040161153b906124f3565b60405180910390fd5b8060025f8460ff1660ff1681526020019081526020015f20819055505050565b600160159054906101000a900460ff1681565b60015f9054906101000a900473ffffffffffffffffffffffffffffffffffffffff1673ffffffffffffffffffffffffffffffffffffffff163373ffffffffffffffffffffffffffffffffffffffff1614611606576040517f08c379a00000000000000000000000000000000000000000000000000000000081526004016115fd906124f3565b60405180910390fd5b805f5f6101000a81548173ffffffffffffffffffffffffffffffffffffffff021916908373ffffffffffffffffffffffffffffffffffffffff16021790555050565b60015f9054906101000a900473ffffffffffffffffffffffffffffffffffffffff1673ffffffffffffffffffffffffffffffffffffffff163373ffffffffffffffffffffffffffffffffffffffff16146116d7576040517f08c379a00000000000000000000000000000000000000000000000000000000081526004016116ce906124f3565b60405180910390fd5b60035481101561171c576040517f08c379a0000000000000000000000000000000000000000000000000000000008152600401611713906126c0565b60405180910390fd5b8060048190555050565b60055481565b60015f9054906101000a900473ffffffffffffffffffffffffffffffffffffffff1673ffffffffffffffffffffffffffffffffffffffff163373ffffffffffffffffffffffffffffffffffffffff16146117bb576040517f08c379a00000000000000000000000000000000000000000000000000000000081526004016117b2906124f3565b60405180910390fd5b5f73ffffffffffffffffffffffffffffffffffffffff168173ffffffffffffffffffffffffffffffffffffffff1603611829576040517f08c379a000000000000000000000000000000000000000000000000000000000815260040161182090612728565b60405180910390fd5b8073ffffffffffffffffffffffffffffffffffffffff166108fc4790811502906040515f60405180830381858888f1935050505015801561186c573d5f5f3e3d5ffd5b5050565b5f60075f60065f8573ffffffffffffffffffffffffffffffffffffffff1673ffffffffffffffffffffffffffffffffffffffff1681526020019081526020015f205481526020019081526020015f20600101549050919050565b6002602052805f5260405f205f915090505481565b828054828255905f5260205f2090600402810192821561196a575f5260205f209160040282015b828111156119695782825f820154815f01556001820154816001015560028201548160020155600382015f9054906101000a900460ff16816003015f6101000a81548160ff021916908360ff160217905550505091600401919060040190611906565b5b50905061197791906119df565b5090565b60405180608001604052805f81526020015f81526020015f81526020015f60ff1681525090565b60405180608001604052805f73ffffffffffffffffffffffffffffffffffffffff1681526020015f81526020015f15158152602001606081525090565b5b80821115611a19575f5f82015f9055600182015f9055600282015f9055600382015f6101000a81549060ff0219169055506004016119e0565b5090565b5f82825260208201905092915050565b7f53656e64206d6f726520424e4220746f206275792054505400000000000000005f82015250565b5f611a61601883611a1d565b9150611a6c82611a2d565b602082019050919050565b5f6020820190508181035f830152611a8e81611a55565b9050919050565b5f81905092915050565b50565b5f611aad5f83611a95565b9150611ab882611a9f565b5f82019050919050565b5f611acc82611aa2565b9150819050919050565b7f5472616e73666572206661696c656400000000000000000000000000000000005f82015250565b5f611b0a600f83611a1d565b9150611b1582611ad6565b602082019050919050565b5f6020820190508181035f830152611b3781611afe565b9050919050565b7f496e76616c69642064617461206c656e677468000000000000000000000000005f82015250565b5f611b72601383611a1d565b9150611b7d82611b3e565b602082019050919050565b5f6020820190508181035f830152611b9f81611b66565b9050919050565b5f604051905090565b5f5ffd5b5f5ffd5b5f8115159050919050565b611bcb81611bb7565b8114611bd5575f5ffd5b50565b5f81359050611be681611bc2565b92915050565b5f60208284031215611c0157611c00611baf565b5b5f611c0e84828501611bd8565b91505092915050565b7f73656e64206a75737420302e303520626e6200000000000000000000000000005f82015250565b5f611c4b601283611a1d565b9150611c5682611c17565b602082019050919050565b5f6020820190508181035f830152611c7881611c3f565b9050919050565b5f73ffffffffffffffffffffffffffffffffffffffff82169050919050565b5f611ca882611c7f565b9050919050565b611cb881611c9e565b8114611cc2575f5ffd5b50565b5f81359050611cd381611caf565b92915050565b5f819050919050565b611ceb81611cd9565b8114611cf5575f5ffd5b50565b5f81359050611d0681611ce2565b92915050565b5f5f60408385031215611d2257611d21611baf565b5b5f611d2f85828601611cc5565b9250506020611d4085828601611cf8565b9150509250929050565b611d5381611cd9565b82525050565b5f60ff82169050919050565b611d6e81611d59565b82525050565b608082015f820151611d885f850182611d4a565b506020820151611d9b6020850182611d4a565b506040820151611dae6040850182611d4a565b506060820151611dc16060850182611d65565b50505050565b5f608082019050611dda5f830184611d74565b92915050565b5f60208284031215611df557611df4611baf565b5b5f611e0284828501611cc5565b91505092915050565b611e1481611cd9565b82525050565b5f602082019050611e2d5f830184611e0b565b92915050565b5f81519050919050565b8281835e5f83830152505050565b5f601f19601f8301169050919050565b5f611e6582611e33565b611e6f8185611a1d565b9350611e7f818560208601611e3d565b611e8881611e4b565b840191505092915050565b5f6020820190508181035f830152611eab8184611e5b565b905092915050565b5f611ebd82611c7f565b9050919050565b611ecd81611eb3565b8114611ed7575f5ffd5b50565b5f81359050611ee881611ec4565b92915050565b5f60208284031215611f0357611f02611baf565b5b5f611f1084828501611eda565b91505092915050565b5f60208284031215611f2e57611f2d611baf565b5b5f611f3b84828501611cf8565b91505092915050565b611f4d81611c9e565b82525050565b611f5c81611bb7565b82525050565b5f81519050919050565b5f82825260208201905092915050565b5f819050602082019050919050565b608082015f820151611f9f5f850182611d4a565b506020820151611fb26020850182611d4a565b506040820151611fc56040850182611d4a565b506060820151611fd86060850182611d65565b50505050565b5f611fe98383611f8b565b60808301905092915050565b5f602082019050919050565b5f61200b82611f62565b6120158185611f6c565b935061202083611f7c565b805f5b838110156120505781516120378882611fde565b975061204283611ff5565b925050600181019050612023565b5085935050505092915050565b5f608083015f8301516120725f860182611f44565b5060208301516120856020860182611d4a565b5060408301516120986040860182611f53565b50606083015184820360608601526120b08282612001565b9150508091505092915050565b5f6020820190508181035f8301526120d5818461205d565b905092915050565b6120e681611d59565b81146120f0575f5ffd5b50565b5f81359050612101816120dd565b92915050565b5f6020828403121561211c5761211b611baf565b5b5f612129848285016120f3565b91505092915050565b61213b81611eb3565b82525050565b5f6020820190506121545f830184612132565b92915050565b5f5f604083850312156121705761216f611baf565b5b5f61217d858286016120f3565b925050602061218e85828601611cf8565b9150509250929050565b6121a181611d59565b82525050565b5f6020820190506121ba5f830184612198565b92915050565b7f436f6e74726163742050617573656400000000000000000000000000000000005f82015250565b5f6121f4600f83611a1d565b91506121ff826121c0565b602082019050919050565b5f6020820190508181035f830152612221816121e8565b9050919050565b7f4e6f205265656e7472616e63792c706c732077616974000000000000000000005f82015250565b5f61225c601683611a1d565b915061226782612228565b602082019050919050565b5f6020820190508181035f83015261228981612250565b9050919050565b7f4e487b71000000000000000000000000000000000000000000000000000000005f52601160045260245ffd5b5f6122c782611cd9565b91507fffffffffffffffffffffffffffffffffffffffffffffffffffffffffffffffff82036122f9576122f8612290565b5b600182019050919050565b5f8151905061231281611ce2565b92915050565b5f6020828403121561232d5761232c611baf565b5b5f61233a84828501612304565b91505092915050565b7f6e6f206f66666572206d6f7265000000000000000000000000000000000000005f82015250565b5f612377600d83611a1d565b915061238282612343565b602082019050919050565b5f6020820190508181035f8301526123a48161236b565b9050919050565b5f6123b582611cd9565b91506123c083611cd9565b92508282026123ce81611cd9565b915082820484148315176123e5576123e4612290565b5b5092915050565b7f4e487b71000000000000000000000000000000000000000000000000000000005f52601260045260245ffd5b5f61242382611cd9565b915061242e83611cd9565b92508261243e5761243d6123ec565b5b828204905092915050565b5f61245382611cd9565b915061245e83611cd9565b925082820190508082111561247657612475612290565b5b92915050565b7f4e487b71000000000000000000000000000000000000000000000000000000005f52603260045260245ffd5b7f4f6e6c79206f776e6572000000000000000000000000000000000000000000005f82015250565b5f6124dd600a83611a1d565b91506124e8826124a9565b602082019050919050565b5f6020820190508181035f83015261250a816124d1565b9050919050565b5f5ffd5b5f5ffd5b7f4e487b71000000000000000000000000000000000000000000000000000000005f52604160045260245ffd5b61254f82611e4b565b810181811067ffffffffffffffff8211171561256e5761256d612519565b5b80604052505050565b5f612580611ba6565b905061258c8282612546565b919050565b5f67ffffffffffffffff8211156125ab576125aa612519565b5b6125b482611e4b565b9050602081019050919050565b5f6125d36125ce84612591565b612577565b9050828152602081018484840111156125ef576125ee612515565b5b6125fa848285611e3d565b509392505050565b5f82601f83011261261657612615612511565b5b81516126268482602086016125c1565b91505092915050565b5f6020828403121561264457612643611baf565b5b5f82015167ffffffffffffffff81111561266157612660611bb3565b5b61266d84828501612602565b91505092915050565b7f6d696e2073686f756c64206265206d6f7265207468616e2074617800000000005f82015250565b5f6126aa601b83611a1d565b91506126b582612676565b602082019050919050565b5f6020820190508181035f8301526126d78161269e565b9050919050565b7f496e76616c6964206164647265737300000000000000000000000000000000005f82015250565b5f612712600f83611a1d565b915061271d826126de565b602082019050919050565b5f6020820190508181035f83015261273f81612706565b905091905056fea2646970667358221220742c6079408a8be8fa26db3deb04b62def155fbb074988720880115e8092691d64736f6c634300081e0033",
					"opcodes": "PUSH1 0x80 PUSH1 0x40 MSTORE CALLVALUE DUP1 ISZERO PUSH2 0xF JUMPI PUSH0 PUSH0 REVERT JUMPDEST POP PUSH1 0x40 MLOAD PUSH2 0x2905 CODESIZE SUB DUP1 PUSH2 0x2905 DUP4 CODECOPY DUP2 DUP2 ADD PUSH1 0x40 MSTORE DUP2 ADD SWAP1 PUSH2 0x31 SWAP2 SWAP1 PUSH2 0x151 JUMP JUMPDEST CALLER PUSH1 0x1 PUSH0 PUSH2 0x100 EXP DUP2 SLOAD DUP2 PUSH20 0xFFFFFFFFFFFFFFFFFFFFFFFFFFFFFFFFFFFFFFFF MUL NOT AND SWAP1 DUP4 PUSH20 0xFFFFFFFFFFFFFFFFFFFFFFFFFFFFFFFFFFFFFFFF AND MUL OR SWAP1 SSTORE POP PUSH1 0x1 DUP1 PUSH1 0x15 PUSH2 0x100 EXP DUP2 SLOAD DUP2 PUSH1 0xFF MUL NOT AND SWAP1 DUP4 PUSH1 0xFF AND MUL OR SWAP1 SSTORE POP DUP1 PUSH0 PUSH0 PUSH2 0x100 EXP DUP2 SLOAD DUP2 PUSH20 0xFFFFFFFFFFFFFFFFFFFFFFFFFFFFFFFFFFFFFFFF MUL NOT AND SWAP1 DUP4 PUSH20 0xFFFFFFFFFFFFFFFFFFFFFFFFFFFFFFFFFFFFFFFF AND MUL OR SWAP1 SSTORE POP PUSH6 0x3B1DFDE91000 PUSH1 0x3 DUP2 SWAP1 SSTORE POP PUSH7 0x2386F26FC10000 PUSH1 0x4 DUP2 SWAP1 SSTORE POP PUSH0 PUSH1 0x5 DUP2 SWAP1 SSTORE POP POP PUSH2 0x17C JUMP JUMPDEST PUSH0 PUSH0 REVERT JUMPDEST PUSH0 PUSH20 0xFFFFFFFFFFFFFFFFFFFFFFFFFFFFFFFFFFFFFFFF DUP3 AND SWAP1 POP SWAP2 SWAP1 POP JUMP JUMPDEST PUSH0 PUSH2 0x120 DUP3 PUSH2 0xF7 JUMP JUMPDEST SWAP1 POP SWAP2 SWAP1 POP JUMP JUMPDEST PUSH2 0x130 DUP2 PUSH2 0x116 JUMP JUMPDEST DUP2 EQ PUSH2 0x13A JUMPI PUSH0 PUSH0 REVERT JUMPDEST POP JUMP JUMPDEST PUSH0 DUP2 MLOAD SWAP1 POP PUSH2 0x14B DUP2 PUSH2 0x127 JUMP JUMPDEST SWAP3 SWAP2 POP POP JUMP JUMPDEST PUSH0 PUSH1 0x20 DUP3 DUP5 SUB SLT ISZERO PUSH2 0x166 JUMPI PUSH2 0x165 PUSH2 0xF3 JUMP JUMPDEST JUMPDEST PUSH0 PUSH2 0x173 DUP5 DUP3 DUP6 ADD PUSH2 0x13D JUMP JUMPDEST SWAP2 POP POP SWAP3 SWAP2 POP POP JUMP JUMPDEST PUSH2 0x277C DUP1 PUSH2 0x189 PUSH0 CODECOPY PUSH0 RETURN INVALID PUSH1 0x80 PUSH1 0x40 MSTORE PUSH1 0x4 CALLDATASIZE LT PUSH2 0x10C JUMPI PUSH0 CALLDATALOAD PUSH1 0xE0 SHR DUP1 PUSH4 0x8DA5CB5B GT PUSH2 0x94 JUMPI DUP1 PUSH4 0xB76BDF06 GT PUSH2 0x63 JUMPI DUP1 PUSH4 0xB76BDF06 EQ PUSH2 0x646 JUMPI DUP1 PUSH4 0xBFF1F9E1 EQ PUSH2 0x66E JUMPI DUP1 PUSH4 0xFA09E630 EQ PUSH2 0x698 JUMPI DUP1 PUSH4 0xFDBB6696 EQ PUSH2 0x6C0 JUMPI DUP1 PUSH4 0xFFBE653D EQ PUSH2 0x6FC JUMPI PUSH2 0x22B JUMP JUMPDEST DUP1 PUSH4 0x8DA5CB5B EQ PUSH2 0x5A2 JUMPI DUP1 PUSH4 0xA2F5546E EQ PUSH2 0x5CC JUMPI DUP1 PUSH4 0xAE243031 EQ PUSH2 0x5F4 JUMPI DUP1 PUSH4 0xAF6B5558 EQ PUSH2 0x61E JUMPI PUSH2 0x22B JUMP JUMPDEST DUP1 PUSH4 0x54EB7EBE GT PUSH2 0xDB JUMPI DUP1 PUSH4 0x54EB7EBE EQ PUSH2 0x4C2 JUMPI DUP1 PUSH4 0x5F1276A7 EQ PUSH2 0x4EC JUMPI DUP1 PUSH4 0x672CBE1A EQ PUSH2 0x514 JUMPI DUP1 PUSH4 0x6ED6DA9E EQ PUSH2 0x53E JUMPI DUP1 PUSH4 0x7CE8A08E EQ PUSH2 0x57A JUMPI PUSH2 0x22B JUMP JUMPDEST DUP1 PUSH4 0x2A2A92CC EQ PUSH2 0x3F8 JUMPI DUP1 PUSH4 0x2B956FF7 EQ PUSH2 0x434 JUMPI DUP1 PUSH4 0x31BBF555 EQ PUSH2 0x470 JUMPI DUP1 PUSH4 0x487CB6B0 EQ PUSH2 0x4AC JUMPI PUSH2 0x22B JUMP JUMPDEST CALLDATASIZE PUSH2 0x22B JUMPI PUSH1 0x4 SLOAD CALLVALUE LT ISZERO PUSH2 0x156 JUMPI PUSH1 0x40 MLOAD PUSH32 0x8C379A000000000000000000000000000000000000000000000000000000000 DUP2 MSTORE PUSH1 0x4 ADD PUSH2 0x14D SWAP1 PUSH2 0x1A77 JUMP JUMPDEST PUSH1 0x40 MLOAD DUP1 SWAP2 SUB SWAP1 REVERT JUMPDEST PUSH0 PUSH0 PUSH0 SWAP1 SLOAD SWAP1 PUSH2 0x100 EXP SWAP1 DIV PUSH20 0xFFFFFFFFFFFFFFFFFFFFFFFFFFFFFFFFFFFFFFFF AND PUSH20 0xFFFFFFFFFFFFFFFFFFFFFFFFFFFFFFFFFFFFFFFF AND PUSH1 0x3 SLOAD PUSH1 0x40 MLOAD PUSH2 0x19D SWAP1 PUSH2 0x1AC2 JUMP JUMPDEST PUSH0 PUSH1 0x40 MLOAD DUP1 DUP4 SUB DUP2 DUP6 DUP8 GAS CALL SWAP3 POP POP POP RETURNDATASIZE DUP1 PUSH0 DUP2 EQ PUSH2 0x1D7 JUMPI PUSH1 0x40 MLOAD SWAP2 POP PUSH1 0x1F NOT PUSH1 0x3F RETURNDATASIZE ADD AND DUP3 ADD PUSH1 0x40 MSTORE RETURNDATASIZE DUP3 MSTORE RETURNDATASIZE PUSH0 PUSH1 0x20 DUP5 ADD RETURNDATACOPY PUSH2 0x1DC JUMP JUMPDEST PUSH1 0x60 SWAP2 POP JUMPDEST POP POP SWAP1 POP DUP1 PUSH2 0x220 JUMPI PUSH1 0x40 MLOAD PUSH32 0x8C379A000000000000000000000000000000000000000000000000000000000 DUP2 MSTORE PUSH1 0x4 ADD PUSH2 0x217 SWAP1 PUSH2 0x1B20 JUMP JUMPDEST PUSH1 0x40 MLOAD DUP1 SWAP2 SUB SWAP1 REVERT JUMPDEST PUSH2 0x229 PUSH0 PUSH2 0x738 JUMP JUMPDEST STOP JUMPDEST PUSH1 0x4 SLOAD CALLVALUE LT ISZERO PUSH2 0x270 JUMPI PUSH1 0x40 MLOAD PUSH32 0x8C379A000000000000000000000000000000000000000000000000000000000 DUP2 MSTORE PUSH1 0x4 ADD PUSH2 0x267 SWAP1 PUSH2 0x1A77 JUMP JUMPDEST PUSH1 0x40 MLOAD DUP1 SWAP2 SUB SWAP1 REVERT JUMPDEST PUSH1 0x20 PUSH0 CALLDATASIZE SWAP1 POP LT ISZERO PUSH2 0x2B7 JUMPI PUSH1 0x40 MLOAD PUSH32 0x8C379A000000000000000000000000000000000000000000000000000000000 DUP2 MSTORE PUSH1 0x4 ADD PUSH2 0x2AE SWAP1 PUSH2 0x1B88 JUMP JUMPDEST PUSH1 0x40 MLOAD DUP1 SWAP2 SUB SWAP1 REVERT JUMPDEST PUSH0 CALLDATASIZE DUP2 ADD SWAP1 PUSH2 0x2C6 SWAP2 SWAP1 PUSH2 0x1BEC JUMP JUMPDEST ISZERO PUSH2 0x315 JUMPI PUSH7 0xB1A2BC2EC50000 CALLVALUE EQ PUSH2 0x314 JUMPI PUSH1 0x40 MLOAD PUSH32 0x8C379A000000000000000000000000000000000000000000000000000000000 DUP2 MSTORE PUSH1 0x4 ADD PUSH2 0x30B SWAP1 PUSH2 0x1C61 JUMP JUMPDEST PUSH1 0x40 MLOAD DUP1 SWAP2 SUB SWAP1 REVERT JUMPDEST JUMPDEST PUSH0 PUSH0 PUSH0 SWAP1 SLOAD SWAP1 PUSH2 0x100 EXP SWAP1 DIV PUSH20 0xFFFFFFFFFFFFFFFFFFFFFFFFFFFFFFFFFFFFFFFF AND PUSH20 0xFFFFFFFFFFFFFFFFFFFFFFFFFFFFFFFFFFFFFFFF AND PUSH1 0x3 SLOAD PUSH1 0x40 MLOAD PUSH2 0x35C SWAP1 PUSH2 0x1AC2 JUMP JUMPDEST PUSH0 PUSH1 0x40 MLOAD DUP1 DUP4 SUB DUP2 DUP6 DUP8 GAS CALL SWAP3 POP POP POP RETURNDATASIZE DUP1 PUSH0 DUP2 EQ PUSH2 0x396 JUMPI PUSH1 0x40 MLOAD SWAP2 POP PUSH1 0x1F NOT PUSH1 0x3F RETURNDATASIZE ADD AND DUP3 ADD PUSH1 0x40 MSTORE RETURNDATASIZE DUP3 MSTORE RETURNDATASIZE PUSH0 PUSH1 0x20 DUP5 ADD RETURNDATACOPY PUSH2 0x39B JUMP JUMPDEST PUSH1 0x60 SWAP2 POP JUMPDEST POP POP SWAP1 POP DUP1 PUSH2 0x3DF JUMPI PUSH1 0x40 MLOAD PUSH32 0x8C379A000000000000000000000000000000000000000000000000000000000 DUP2 MSTORE PUSH1 0x4 ADD PUSH2 0x3D6 SWAP1 PUSH2 0x1B20 JUMP JUMPDEST PUSH1 0x40 MLOAD DUP1 SWAP2 SUB SWAP1 REVERT JUMPDEST PUSH2 0x3F6 PUSH0 CALLDATASIZE DUP2 ADD SWAP1 PUSH2 0x3F1 SWAP2 SWAP1 PUSH2 0x1BEC JUMP JUMPDEST PUSH2 0x738 JUMP JUMPDEST STOP JUMPDEST CALLVALUE DUP1 ISZERO PUSH2 0x403 JUMPI PUSH0 PUSH0 REVERT JUMPDEST POP PUSH2 0x41E PUSH1 0x4 DUP1 CALLDATASIZE SUB DUP2 ADD SWAP1 PUSH2 0x419 SWAP2 SWAP1 PUSH2 0x1D0C JUMP JUMPDEST PUSH2 0xE14 JUMP JUMPDEST PUSH1 0x40 MLOAD PUSH2 0x42B SWAP2 SWAP1 PUSH2 0x1DC7 JUMP JUMPDEST PUSH1 0x40 MLOAD DUP1 SWAP2 SUB SWAP1 RETURN JUMPDEST CALLVALUE DUP1 ISZERO PUSH2 0x43F JUMPI PUSH0 PUSH0 REVERT JUMPDEST POP PUSH2 0x45A PUSH1 0x4 DUP1 CALLDATASIZE SUB DUP2 ADD SWAP1 PUSH2 0x455 SWAP2 SWAP1 PUSH2 0x1DE0 JUMP JUMPDEST PUSH2 0xED7 JUMP JUMPDEST PUSH1 0x40 MLOAD PUSH2 0x467 SWAP2 SWAP1 PUSH2 0x1E1A JUMP JUMPDEST PUSH1 0x40 MLOAD DUP1 SWAP2 SUB SWAP1 RETURN JUMPDEST CALLVALUE DUP1 ISZERO PUSH2 0x47B JUMPI PUSH0 PUSH0 REVERT JUMPDEST POP PUSH2 0x496 PUSH1 0x4 DUP1 CALLDATASIZE SUB DUP2 ADD SWAP1 PUSH2 0x491 SWAP2 SWAP1 PUSH2 0x1DE0 JUMP JUMPDEST PUSH2 0xF1D JUMP JUMPDEST PUSH1 0x40 MLOAD PUSH2 0x4A3 SWAP2 SWAP1 PUSH2 0x1E1A JUMP JUMPDEST PUSH1 0x40 MLOAD DUP1 SWAP2 SUB SWAP1 RETURN JUMPDEST CALLVALUE DUP1 ISZERO PUSH2 0x4B7 JUMPI PUSH0 PUSH0 REVERT JUMPDEST POP PUSH2 0x4C0 PUSH2 0xF7A JUMP JUMPDEST STOP JUMPDEST CALLVALUE DUP1 ISZERO PUSH2 0x4CD JUMPI PUSH0 PUSH0 REVERT JUMPDEST POP PUSH2 0x4D6 PUSH2 0x1086 JUMP JUMPDEST PUSH1 0x40 MLOAD PUSH2 0x4E3 SWAP2 SWAP1 PUSH2 0x1E93 JUMP JUMPDEST PUSH1 0x40 MLOAD DUP1 SWAP2 SUB SWAP1 RETURN JUMPDEST CALLVALUE DUP1 ISZERO PUSH2 0x4F7 JUMPI PUSH0 PUSH0 REVERT JUMPDEST POP PUSH2 0x512 PUSH1 0x4 DUP1 CALLDATASIZE SUB DUP2 ADD SWAP1 PUSH2 0x50D SWAP2 SWAP1 PUSH2 0x1EEE JUMP JUMPDEST PUSH2 0x11AC JUMP JUMPDEST STOP JUMPDEST CALLVALUE DUP1 ISZERO PUSH2 0x51F JUMPI PUSH0 PUSH0 REVERT JUMPDEST POP PUSH2 0x528 PUSH2 0x127E JUMP JUMPDEST PUSH1 0x40 MLOAD PUSH2 0x535 SWAP2 SWAP1 PUSH2 0x1E1A JUMP JUMPDEST PUSH1 0x40 MLOAD DUP1 SWAP2 SUB SWAP1 RETURN JUMPDEST CALLVALUE DUP1 ISZERO PUSH2 0x549 JUMPI PUSH0 PUSH0 REVERT JUMPDEST POP PUSH2 0x564 PUSH1 0x4 DUP1 CALLDATASIZE SUB DUP2 ADD SWAP1 PUSH2 0x55F SWAP2 SWAP1 PUSH2 0x1F19 JUMP JUMPDEST PUSH2 0x12AB JUMP JUMPDEST PUSH1 0x40 MLOAD PUSH2 0x571 SWAP2 SWAP1 PUSH2 0x20BD JUMP JUMPDEST PUSH1 0x40 MLOAD DUP1 SWAP2 SUB SWAP1 RETURN JUMPDEST CALLVALUE DUP1 ISZERO PUSH2 0x585 JUMPI PUSH0 PUSH0 REVERT JUMPDEST POP PUSH2 0x5A0 PUSH1 0x4 DUP1 CALLDATASIZE SUB DUP2 ADD SWAP1 PUSH2 0x59B SWAP2 SWAP1 PUSH2 0x2107 JUMP JUMPDEST PUSH2 0x13E3 JUMP JUMPDEST STOP JUMPDEST CALLVALUE DUP1 ISZERO PUSH2 0x5AD JUMPI PUSH0 PUSH0 REVERT JUMPDEST POP PUSH2 0x5B6 PUSH2 0x1490 JUMP JUMPDEST PUSH1 0x40 MLOAD PUSH2 0x5C3 SWAP2 SWAP1 PUSH2 0x2141 JUMP JUMPDEST PUSH1 0x40 MLOAD DUP1 SWAP2 SUB SWAP1 RETURN JUMPDEST CALLVALUE DUP1 ISZERO PUSH2 0x5D7 JUMPI PUSH0 PUSH0 REVERT JUMPDEST POP PUSH2 0x5F2 PUSH1 0x4 DUP1 CALLDATASIZE SUB DUP2 ADD SWAP1 PUSH2 0x5ED SWAP2 SWAP1 PUSH2 0x215A JUMP JUMPDEST PUSH2 0x14B5 JUMP JUMPDEST STOP JUMPDEST CALLVALUE DUP1 ISZERO PUSH2 0x5FF JUMPI PUSH0 PUSH0 REVERT JUMPDEST POP PUSH2 0x608 PUSH2 0x1564 JUMP JUMPDEST PUSH1 0x40 MLOAD PUSH2 0x615 SWAP2 SWAP1 PUSH2 0x21A7 JUMP JUMPDEST PUSH1 0x40 MLOAD DUP1 SWAP2 SUB SWAP1 RETURN JUMPDEST CALLVALUE DUP1 ISZERO PUSH2 0x629 JUMPI PUSH0 PUSH0 REVERT JUMPDEST POP PUSH2 0x644 PUSH1 0x4 DUP1 CALLDATASIZE SUB DUP2 ADD SWAP1 PUSH2 0x63F SWAP2 SWAP1 PUSH2 0x1EEE JUMP JUMPDEST PUSH2 0x1577 JUMP JUMPDEST STOP JUMPDEST CALLVALUE DUP1 ISZERO PUSH2 0x651 JUMPI PUSH0 PUSH0 REVERT JUMPDEST POP PUSH2 0x66C PUSH1 0x4 DUP1 CALLDATASIZE SUB DUP2 ADD SWAP1 PUSH2 0x667 SWAP2 SWAP1 PUSH2 0x1F19 JUMP JUMPDEST PUSH2 0x1648 JUMP JUMPDEST STOP JUMPDEST CALLVALUE DUP1 ISZERO PUSH2 0x679 JUMPI PUSH0 PUSH0 REVERT JUMPDEST POP PUSH2 0x682 PUSH2 0x1726 JUMP JUMPDEST PUSH1 0x40 MLOAD PUSH2 0x68F SWAP2 SWAP1 PUSH2 0x1E1A JUMP JUMPDEST PUSH1 0x40 MLOAD DUP1 SWAP2 SUB SWAP1 RETURN JUMPDEST CALLVALUE DUP1 ISZERO PUSH2 0x6A3 JUMPI PUSH0 PUSH0 REVERT JUMPDEST POP PUSH2 0x6BE PUSH1 0x4 DUP1 CALLDATASIZE SUB DUP2 ADD SWAP1 PUSH2 0x6B9 SWAP2 SWAP1 PUSH2 0x1EEE JUMP JUMPDEST PUSH2 0x172C JUMP JUMPDEST STOP JUMPDEST CALLVALUE DUP1 ISZERO PUSH2 0x6CB JUMPI PUSH0 PUSH0 REVERT JUMPDEST POP PUSH2 0x6E6 PUSH1 0x4 DUP1 CALLDATASIZE SUB DUP2 ADD SWAP1 PUSH2 0x6E1 SWAP2 SWAP1 PUSH2 0x1DE0 JUMP JUMPDEST PUSH2 0x1870 JUMP JUMPDEST PUSH1 0x40 MLOAD PUSH2 0x6F3 SWAP2 SWAP1 PUSH2 0x1E1A JUMP JUMPDEST PUSH1 0x40 MLOAD DUP1 SWAP2 SUB SWAP1 RETURN JUMPDEST CALLVALUE DUP1 ISZERO PUSH2 0x707 JUMPI PUSH0 PUSH0 REVERT JUMPDEST POP PUSH2 0x722 PUSH1 0x4 DUP1 CALLDATASIZE SUB DUP2 ADD SWAP1 PUSH2 0x71D SWAP2 SWAP1 PUSH2 0x2107 JUMP JUMPDEST PUSH2 0x18CA JUMP JUMPDEST PUSH1 0x40 MLOAD PUSH2 0x72F SWAP2 SWAP1 PUSH2 0x1E1A JUMP JUMPDEST PUSH1 0x40 MLOAD DUP1 SWAP2 SUB SWAP1 RETURN JUMPDEST PUSH0 PUSH1 0x1 PUSH1 0x15 SWAP1 SLOAD SWAP1 PUSH2 0x100 EXP SWAP1 DIV PUSH1 0xFF AND PUSH1 0xFF AND SUB PUSH2 0x78C JUMPI PUSH1 0x40 MLOAD PUSH32 0x8C379A000000000000000000000000000000000000000000000000000000000 DUP2 MSTORE PUSH1 0x4 ADD PUSH2 0x783 SWAP1 PUSH2 0x220A JUMP JUMPDEST PUSH1 0x40 MLOAD DUP1 SWAP2 SUB SWAP1 REVERT JUMPDEST PUSH1 0x1 ISZERO ISZERO PUSH1 0x1 PUSH1 0x14 SWAP1 SLOAD SWAP1 PUSH2 0x100 EXP SWAP1 DIV PUSH1 0xFF AND ISZERO ISZERO SUB PUSH2 0x7E2 JUMPI PUSH1 0x40 MLOAD PUSH32 0x8C379A000000000000000000000000000000000000000000000000000000000 DUP2 MSTORE PUSH1 0x4 ADD PUSH2 0x7D9 SWAP1 PUSH2 0x2272 JUMP JUMPDEST PUSH1 0x40 MLOAD DUP1 SWAP2 SUB SWAP1 REVERT JUMPDEST PUSH1 0x1 DUP1 PUSH1 0x14 PUSH2 0x100 EXP DUP2 SLOAD DUP2 PUSH1 0xFF MUL NOT AND SWAP1 DUP4 ISZERO ISZERO MUL OR SWAP1 SSTORE POP PUSH0 PUSH1 0x6 PUSH0 CALLER PUSH20 0xFFFFFFFFFFFFFFFFFFFFFFFFFFFFFFFFFFFFFFFF AND PUSH20 0xFFFFFFFFFFFFFFFFFFFFFFFFFFFFFFFFFFFFFFFF AND DUP2 MSTORE PUSH1 0x20 ADD SWAP1 DUP2 MSTORE PUSH1 0x20 ADD PUSH0 KECCAK256 SLOAD SUB PUSH2 0xA55 JUMPI PUSH1 0x5 PUSH0 DUP2 SLOAD DUP1 SWAP3 SWAP2 SWAP1 PUSH2 0x852 SWAP1 PUSH2 0x22BD JUMP JUMPDEST SWAP2 SWAP1 POP SSTORE POP PUSH1 0x5 SLOAD PUSH1 0x6 PUSH0 CALLER PUSH20 0xFFFFFFFFFFFFFFFFFFFFFFFFFFFFFFFFFFFFFFFF AND PUSH20 0xFFFFFFFFFFFFFFFFFFFFFFFFFFFFFFFFFFFFFFFF AND DUP2 MSTORE PUSH1 0x20 ADD SWAP1 DUP2 MSTORE PUSH1 0x20 ADD PUSH0 KECCAK256 DUP2 SWAP1 SSTORE POP PUSH0 PUSH1 0x7 PUSH0 PUSH1 0x6 PUSH0 CALLER PUSH20 0xFFFFFFFFFFFFFFFFFFFFFFFFFFFFFFFFFFFFFFFF AND PUSH20 0xFFFFFFFFFFFFFFFFFFFFFFFFFFFFFFFFFFFFFFFF AND DUP2 MSTORE PUSH1 0x20 ADD SWAP1 DUP2 MSTORE PUSH1 0x20 ADD PUSH0 KECCAK256 SLOAD DUP2 MSTORE PUSH1 0x20 ADD SWAP1 DUP2 MSTORE PUSH1 0x20 ADD PUSH0 KECCAK256 SWAP1 POP CALLER DUP2 PUSH0 ADD PUSH0 PUSH2 0x100 EXP DUP2 SLOAD DUP2 PUSH20 0xFFFFFFFFFFFFFFFFFFFFFFFFFFFFFFFFFFFFFFFF MUL NOT AND SWAP1 DUP4 PUSH20 0xFFFFFFFFFFFFFFFFFFFFFFFFFFFFFFFFFFFFFFFF AND MUL OR SWAP1 SSTORE POP PUSH0 DUP2 PUSH1 0x1 ADD DUP2 SWAP1 SSTORE POP PUSH1 0x1 DUP2 PUSH1 0x2 ADD PUSH0 PUSH2 0x100 EXP DUP2 SLOAD DUP2 PUSH1 0xFF MUL NOT AND SWAP1 DUP4 ISZERO ISZERO MUL OR SWAP1 SSTORE POP DUP1 PUSH1 0x7 PUSH0 PUSH1 0x6 PUSH0 CALLER PUSH20 0xFFFFFFFFFFFFFFFFFFFFFFFFFFFFFFFFFFFFFFFF AND PUSH20 0xFFFFFFFFFFFFFFFFFFFFFFFFFFFFFFFFFFFFFFFF AND DUP2 MSTORE PUSH1 0x20 ADD SWAP1 DUP2 MSTORE PUSH1 0x20 ADD PUSH0 KECCAK256 SLOAD DUP2 MSTORE PUSH1 0x20 ADD SWAP1 DUP2 MSTORE PUSH1 0x20 ADD PUSH0 KECCAK256 PUSH0 DUP3 ADD PUSH0 SWAP1 SLOAD SWAP1 PUSH2 0x100 EXP SWAP1 DIV PUSH20 0xFFFFFFFFFFFFFFFFFFFFFFFFFFFFFFFFFFFFFFFF AND DUP2 PUSH0 ADD PUSH0 PUSH2 0x100 EXP DUP2 SLOAD DUP2 PUSH20 0xFFFFFFFFFFFFFFFFFFFFFFFFFFFFFFFFFFFFFFFF MUL NOT AND SWAP1 DUP4 PUSH20 0xFFFFFFFFFFFFFFFFFFFFFFFFFFFFFFFFFFFFFFFF AND MUL OR SWAP1 SSTORE POP PUSH1 0x1 DUP3 ADD SLOAD DUP2 PUSH1 0x1 ADD SSTORE PUSH1 0x2 DUP3 ADD PUSH0 SWAP1 SLOAD SWAP1 PUSH2 0x100 EXP SWAP1 DIV PUSH1 0xFF AND DUP2 PUSH1 0x2 ADD PUSH0 PUSH2 0x100 EXP DUP2 SLOAD DUP2 PUSH1 0xFF MUL NOT AND SWAP1 DUP4 ISZERO ISZERO MUL OR SWAP1 SSTORE POP PUSH1 0x3 DUP3 ADD DUP2 PUSH1 0x3 ADD SWAP1 DUP1 SLOAD PUSH2 0xA4F SWAP3 SWAP2 SWAP1 PUSH2 0x18DF JUMP JUMPDEST POP SWAP1 POP POP POP JUMPDEST PUSH0 PUSH0 PUSH0 SWAP1 SLOAD SWAP1 PUSH2 0x100 EXP SWAP1 DIV PUSH20 0xFFFFFFFFFFFFFFFFFFFFFFFFFFFFFFFFFFFFFFFF AND PUSH20 0xFFFFFFFFFFFFFFFFFFFFFFFFFFFFFFFFFFFFFFFF AND PUSH4 0xE03D1632 PUSH1 0x40 MLOAD DUP2 PUSH4 0xFFFFFFFF AND PUSH1 0xE0 SHL DUP2 MSTORE PUSH1 0x4 ADD PUSH1 0x20 PUSH1 0x40 MLOAD DUP1 DUP4 SUB DUP2 DUP7 GAS STATICCALL ISZERO DUP1 ISZERO PUSH2 0xABF JUMPI RETURNDATASIZE PUSH0 PUSH0 RETURNDATACOPY RETURNDATASIZE PUSH0 REVERT JUMPDEST POP POP POP POP PUSH1 0x40 MLOAD RETURNDATASIZE PUSH1 0x1F NOT PUSH1 0x1F DUP3 ADD AND DUP3 ADD DUP1 PUSH1 0x40 MSTORE POP DUP2 ADD SWAP1 PUSH2 0xAE3 SWAP2 SWAP1 PUSH2 0x2318 JUMP JUMPDEST SWAP1 POP PUSH0 DUP3 ISZERO PUSH2 0xC53 JUMPI PUSH1 0x7 PUSH0 PUSH1 0x6 PUSH0 CALLER PUSH20 0xFFFFFFFFFFFFFFFFFFFFFFFFFFFFFFFFFFFFFFFF AND PUSH20 0xFFFFFFFFFFFFFFFFFFFFFFFFFFFFFFFFFFFFFFFF AND DUP2 MSTORE PUSH1 0x20 ADD SWAP1 DUP2 MSTORE PUSH1 0x20 ADD PUSH0 KECCAK256 SLOAD DUP2 MSTORE PUSH1 0x20 ADD SWAP1 DUP2 MSTORE PUSH1 0x20 ADD PUSH0 KECCAK256 PUSH1 0x2 ADD PUSH0 SWAP1 SLOAD SWAP1 PUSH2 0x100 EXP SWAP1 DIV PUSH1 0xFF AND PUSH2 0xB89 JUMPI PUSH1 0x40 MLOAD PUSH32 0x8C379A000000000000000000000000000000000000000000000000000000000 DUP2 MSTORE PUSH1 0x4 ADD PUSH2 0xB80 SWAP1 PUSH2 0x238D JUMP JUMPDEST PUSH1 0x40 MLOAD DUP1 SWAP2 SUB SWAP1 REVERT JUMPDEST PUSH1 0x2 DUP1 PUSH0 PUSH1 0x1 PUSH1 0x15 SWAP1 SLOAD SWAP1 PUSH2 0x100 EXP SWAP1 DIV PUSH1 0xFF AND PUSH1 0xFF AND PUSH1 0xFF AND DUP2 MSTORE PUSH1 0x20 ADD SWAP1 DUP2 MSTORE PUSH1 0x20 ADD PUSH0 KECCAK256 SLOAD DUP4 PUSH8 0xDE0B6B3A7640000 CALLVALUE PUSH2 0xBC6 SWAP2 SWAP1 PUSH2 0x23AB JUMP JUMPDEST PUSH2 0xBD0 SWAP2 SWAP1 PUSH2 0x2419 JUMP JUMPDEST PUSH2 0xBDA SWAP2 SWAP1 PUSH2 0x2419 JUMP JUMPDEST PUSH2 0xBE4 SWAP2 SWAP1 PUSH2 0x23AB JUMP JUMPDEST SWAP1 POP PUSH0 PUSH1 0x7 PUSH0 PUSH1 0x6 PUSH0 CALLER PUSH20 0xFFFFFFFFFFFFFFFFFFFFFFFFFFFFFFFFFFFFFFFF AND PUSH20 0xFFFFFFFFFFFFFFFFFFFFFFFFFFFFFFFFFFFFFFFF AND DUP2 MSTORE PUSH1 0x20 ADD SWAP1 DUP2 MSTORE PUSH1 0x20 ADD PUSH0 KECCAK256 SLOAD DUP2 MSTORE PUSH1 0x20 ADD SWAP1 DUP2 MSTORE PUSH1 0x20 ADD PUSH0 KECCAK256 PUSH1 0x2 ADD PUSH0 PUSH2 0x100 EXP DUP2 SLOAD DUP2 PUSH1 0xFF MUL NOT AND SWAP1 DUP4 ISZERO ISZERO MUL OR SWAP1 SSTORE POP PUSH2 0xCA6 JUMP JUMPDEST PUSH1 0x2 PUSH0 PUSH1 0x1 PUSH1 0x15 SWAP1 SLOAD SWAP1 PUSH2 0x100 EXP SWAP1 DIV PUSH1 0xFF AND PUSH1 0xFF AND PUSH1 0xFF AND DUP2 MSTORE PUSH1 0x20 ADD SWAP1 DUP2 MSTORE PUSH1 0x20 ADD PUSH0 KECCAK256 SLOAD DUP3 PUSH8 0xDE0B6B3A7640000 CALLVALUE PUSH2 0xC8F SWAP2 SWAP1 PUSH2 0x23AB JUMP JUMPDEST PUSH2 0xC99 SWAP2 SWAP1 PUSH2 0x2419 JUMP JUMPDEST PUSH2 0xCA3 SWAP2 SWAP1 PUSH2 0x2419 JUMP JUMPDEST SWAP1 POP JUMPDEST DUP1 PUSH1 0x7 PUSH0 PUSH1 0x6 PUSH0 CALLER PUSH20 0xFFFFFFFFFFFFFFFFFFFFFFFFFFFFFFFFFFFFFFFF AND PUSH20 0xFFFFFFFFFFFFFFFFFFFFFFFFFFFFFFFFFFFFFFFF AND DUP2 MSTORE PUSH1 0x20 ADD SWAP1 DUP2 MSTORE PUSH1 0x20 ADD PUSH0 KECCAK256 SLOAD DUP2 MSTORE PUSH1 0x20 ADD SWAP1 DUP2 MSTORE PUSH1 0x20 ADD PUSH0 KECCAK256 PUSH1 0x1 ADD PUSH0 DUP3 DUP3 SLOAD PUSH2 0xD06 SWAP2 SWAP1 PUSH2 0x2449 JUMP JUMPDEST SWAP3 POP POP DUP2 SWAP1 SSTORE POP PUSH1 0x7 PUSH0 PUSH1 0x6 PUSH0 CALLER PUSH20 0xFFFFFFFFFFFFFFFFFFFFFFFFFFFFFFFFFFFFFFFF AND PUSH20 0xFFFFFFFFFFFFFFFFFFFFFFFFFFFFFFFFFFFFFFFF AND DUP2 MSTORE PUSH1 0x20 ADD SWAP1 DUP2 MSTORE PUSH1 0x20 ADD PUSH0 KECCAK256 SLOAD DUP2 MSTORE PUSH1 0x20 ADD SWAP1 DUP2 MSTORE PUSH1 0x20 ADD PUSH0 KECCAK256 PUSH1 0x3 ADD PUSH1 0x40 MLOAD DUP1 PUSH1 0x80 ADD PUSH1 0x40 MSTORE DUP1 TIMESTAMP DUP2 MSTORE PUSH1 0x20 ADD CALLVALUE DUP2 MSTORE PUSH1 0x20 ADD DUP4 DUP2 MSTORE PUSH1 0x20 ADD PUSH1 0x1 PUSH1 0x15 SWAP1 SLOAD SWAP1 PUSH2 0x100 EXP SWAP1 DIV PUSH1 0xFF AND PUSH1 0xFF AND DUP2 MSTORE POP SWAP1 DUP1 PUSH1 0x1 DUP2 SLOAD ADD DUP1 DUP3 SSTORE DUP1 SWAP2 POP POP PUSH1 0x1 SWAP1 SUB SWAP1 PUSH0 MSTORE PUSH1 0x20 PUSH0 KECCAK256 SWAP1 PUSH1 0x4 MUL ADD PUSH0 SWAP1 SWAP2 SWAP1 SWAP2 SWAP1 SWAP2 POP PUSH0 DUP3 ADD MLOAD DUP2 PUSH0 ADD SSTORE PUSH1 0x20 DUP3 ADD MLOAD DUP2 PUSH1 0x1 ADD SSTORE PUSH1 0x40 DUP3 ADD MLOAD DUP2 PUSH1 0x2 ADD SSTORE PUSH1 0x60 DUP3 ADD MLOAD DUP2 PUSH1 0x3 ADD PUSH0 PUSH2 0x100 EXP DUP2 SLOAD DUP2 PUSH1 0xFF MUL NOT AND SWAP1 DUP4 PUSH1 0xFF AND MUL OR SWAP1 SSTORE POP POP POP POP POP PUSH0 PUSH1 0x1 PUSH1 0x14 PUSH2 0x100 EXP DUP2 SLOAD DUP2 PUSH1 0xFF MUL NOT AND SWAP1 DUP4 ISZERO ISZERO MUL OR SWAP1 SSTORE POP POP JUMP JUMPDEST PUSH2 0xE1C PUSH2 0x197B JUMP JUMPDEST PUSH1 0x7 PUSH0 PUSH1 0x6 PUSH0 DUP7 PUSH20 0xFFFFFFFFFFFFFFFFFFFFFFFFFFFFFFFFFFFFFFFF AND PUSH20 0xFFFFFFFFFFFFFFFFFFFFFFFFFFFFFFFFFFFFFFFF AND DUP2 MSTORE PUSH1 0x20 ADD SWAP1 DUP2 MSTORE PUSH1 0x20 ADD PUSH0 KECCAK256 SLOAD DUP2 MSTORE PUSH1 0x20 ADD SWAP1 DUP2 MSTORE PUSH1 0x20 ADD PUSH0 KECCAK256 PUSH1 0x3 ADD DUP3 DUP2 SLOAD DUP2 LT PUSH2 0xE7F JUMPI PUSH2 0xE7E PUSH2 0x247C JUMP JUMPDEST JUMPDEST SWAP1 PUSH0 MSTORE PUSH1 0x20 PUSH0 KECCAK256 SWAP1 PUSH1 0x4 MUL ADD PUSH1 0x40 MLOAD DUP1 PUSH1 0x80 ADD PUSH1 0x40 MSTORE SWAP1 DUP2 PUSH0 DUP3 ADD SLOAD DUP2 MSTORE PUSH1 0x20 ADD PUSH1 0x1 DUP3 ADD SLOAD DUP2 MSTORE PUSH1 0x20 ADD PUSH1 0x2 DUP3 ADD SLOAD DUP2 MSTORE PUSH1 0x20 ADD PUSH1 0x3 DUP3 ADD PUSH0 SWAP1 SLOAD SWAP1 PUSH2 0x100 EXP SWAP1 DIV PUSH1 0xFF AND PUSH1 0xFF AND PUSH1 0xFF AND DUP2 MSTORE POP POP SWAP1 POP SWAP3 SWAP2 POP POP JUMP JUMPDEST PUSH0 PUSH1 0x6 PUSH0 DUP4 PUSH20 0xFFFFFFFFFFFFFFFFFFFFFFFFFFFFFFFFFFFFFFFF AND PUSH20 0xFFFFFFFFFFFFFFFFFFFFFFFFFFFFFFFFFFFFFFFF AND DUP2 MSTORE PUSH1 0x20 ADD SWAP1 DUP2 MSTORE PUSH1 0x20 ADD PUSH0 KECCAK256 SLOAD SWAP1 POP SWAP2 SWAP1 POP JUMP JUMPDEST PUSH0 PUSH1 0x7 PUSH0 PUSH1 0x6 PUSH0 DUP6 PUSH20 0xFFFFFFFFFFFFFFFFFFFFFFFFFFFFFFFFFFFFFFFF AND PUSH20 0xFFFFFFFFFFFFFFFFFFFFFFFFFFFFFFFFFFFFFFFF AND DUP2 MSTORE PUSH1 0x20 ADD SWAP1 DUP2 MSTORE PUSH1 0x20 ADD PUSH0 KECCAK256 SLOAD DUP2 MSTORE PUSH1 0x20 ADD SWAP1 DUP2 MSTORE PUSH1 0x20 ADD PUSH0 KECCAK256 PUSH1 0x3 ADD DUP1 SLOAD SWAP1 POP SWAP1 POP SWAP2 SWAP1 POP JUMP JUMPDEST PUSH1 0x1 PUSH0 SWAP1 SLOAD SWAP1 PUSH2 0x100 EXP SWAP1 DIV PUSH20 0xFFFFFFFFFFFFFFFFFFFFFFFFFFFFFFFFFFFFFFFF AND PUSH20 0xFFFFFFFFFFFFFFFFFFFFFFFFFFFFFFFFFFFFFFFF AND CALLER PUSH20 0xFFFFFFFFFFFFFFFFFFFFFFFFFFFFFFFFFFFFFFFF AND EQ PUSH2 0x1009 JUMPI PUSH1 0x40 MLOAD PUSH32 0x8C379A000000000000000000000000000000000000000000000000000000000 DUP2 MSTORE PUSH1 0x4 ADD PUSH2 0x1000 SWAP1 PUSH2 0x24F3 JUMP JUMPDEST PUSH1 0x40 MLOAD DUP1 SWAP2 SUB SWAP1 REVERT JUMPDEST PUSH0 PUSH0 SWAP1 SLOAD SWAP1 PUSH2 0x100 EXP SWAP1 DIV PUSH20 0xFFFFFFFFFFFFFFFFFFFFFFFFFFFFFFFFFFFFFFFF AND PUSH20 0xFFFFFFFFFFFFFFFFFFFFFFFFFFFFFFFFFFFFFFFF AND PUSH4 0x65A6CC2E PUSH1 0x40 MLOAD DUP2 PUSH4 0xFFFFFFFF AND PUSH1 0xE0 SHL DUP2 MSTORE PUSH1 0x4 ADD PUSH0 PUSH1 0x40 MLOAD DUP1 DUP4 SUB DUP2 PUSH0 DUP8 DUP1 EXTCODESIZE ISZERO DUP1 ISZERO PUSH2 0x106E JUMPI PUSH0 PUSH0 REVERT JUMPDEST POP GAS CALL ISZERO DUP1 ISZERO PUSH2 0x1080 JUMPI RETURNDATASIZE PUSH0 PUSH0 RETURNDATACOPY RETURNDATASIZE PUSH0 REVERT JUMPDEST POP POP POP POP JUMP JUMPDEST PUSH1 0x60 PUSH1 0x1 PUSH0 SWAP1 SLOAD SWAP1 PUSH2 0x100 EXP SWAP1 DIV PUSH20 0xFFFFFFFFFFFFFFFFFFFFFFFFFFFFFFFFFFFFFFFF AND PUSH20 0xFFFFFFFFFFFFFFFFFFFFFFFFFFFFFFFFFFFFFFFF AND CALLER PUSH20 0xFFFFFFFFFFFFFFFFFFFFFFFFFFFFFFFFFFFFFFFF AND EQ PUSH2 0x1117 JUMPI PUSH1 0x40 MLOAD PUSH32 0x8C379A000000000000000000000000000000000000000000000000000000000 DUP2 MSTORE PUSH1 0x4 ADD PUSH2 0x110E SWAP1 PUSH2 0x24F3 JUMP JUMPDEST PUSH1 0x40 MLOAD DUP1 SWAP2 SUB SWAP1 REVERT JUMPDEST PUSH0 PUSH0 SWAP1 SLOAD SWAP1 PUSH2 0x100 EXP SWAP1 DIV PUSH20 0xFFFFFFFFFFFFFFFFFFFFFFFFFFFFFFFFFFFFFFFF AND PUSH20 0xFFFFFFFFFFFFFFFFFFFFFFFFFFFFFFFFFFFFFFFF AND PUSH4 0xA1C6A405 PUSH1 0x40 MLOAD DUP2 PUSH4 0xFFFFFFFF AND PUSH1 0xE0 SHL DUP2 MSTORE PUSH1 0x4 ADD PUSH0 PUSH1 0x40 MLOAD DUP1 DUP4 SUB DUP2 DUP7 GAS STATICCALL ISZERO DUP1 ISZERO PUSH2 0x117F JUMPI RETURNDATASIZE PUSH0 PUSH0 RETURNDATACOPY RETURNDATASIZE PUSH0 REVERT JUMPDEST POP POP POP POP PUSH1 0x40 MLOAD RETURNDATASIZE PUSH0 DUP3 RETURNDATACOPY RETURNDATASIZE PUSH1 0x1F NOT PUSH1 0x1F DUP3 ADD AND DUP3 ADD DUP1 PUSH1 0x40 MSTORE POP DUP2 ADD SWAP1 PUSH2 0x11A7 SWAP2 SWAP1 PUSH2 0x262F JUMP JUMPDEST SWAP1 POP SWAP1 JUMP JUMPDEST PUSH1 0x1 PUSH0 SWAP1 SLOAD SWAP1 PUSH2 0x100 EXP SWAP1 DIV PUSH20 0xFFFFFFFFFFFFFFFFFFFFFFFFFFFFFFFFFFFFFFFF AND PUSH20 0xFFFFFFFFFFFFFFFFFFFFFFFFFFFFFFFFFFFFFFFF AND CALLER PUSH20 0xFFFFFFFFFFFFFFFFFFFFFFFFFFFFFFFFFFFFFFFF AND EQ PUSH2 0x123B JUMPI PUSH1 0x40 MLOAD PUSH32 0x8C379A000000000000000000000000000000000000000000000000000000000 DUP2 MSTORE PUSH1 0x4 ADD PUSH2 0x1232 SWAP1 PUSH2 0x24F3 JUMP JUMPDEST PUSH1 0x40 MLOAD DUP1 SWAP2 SUB SWAP1 REVERT JUMPDEST DUP1 PUSH1 0x1 PUSH0 PUSH2 0x100 EXP DUP2 SLOAD DUP2 PUSH20 0xFFFFFFFFFFFFFFFFFFFFFFFFFFFFFFFFFFFFFFFF MUL NOT AND SWAP1 DUP4 PUSH20 0xFFFFFFFFFFFFFFFFFFFFFFFFFFFFFFFFFFFFFFFF AND MUL OR SWAP1 SSTORE POP POP JUMP JUMPDEST PUSH0 PUSH1 0x2 PUSH0 PUSH1 0x1 PUSH1 0x15 SWAP1 SLOAD SWAP1 PUSH2 0x100 EXP SWAP1 DIV PUSH1 0xFF AND PUSH1 0xFF AND PUSH1 0xFF AND DUP2 MSTORE PUSH1 0x20 ADD SWAP1 DUP2 MSTORE PUSH1 0x20 ADD PUSH0 KECCAK256 SLOAD SWAP1 POP SWAP1 JUMP JUMPDEST PUSH2 0x12B3 PUSH2 0x19A2 JUMP JUMPDEST PUSH1 0x7 PUSH0 DUP4 DUP2 MSTORE PUSH1 0x20 ADD SWAP1 DUP2 MSTORE PUSH1 0x20 ADD PUSH0 KECCAK256 PUSH1 0x40 MLOAD DUP1 PUSH1 0x80 ADD PUSH1 0x40 MSTORE SWAP1 DUP2 PUSH0 DUP3 ADD PUSH0 SWAP1 SLOAD SWAP1 PUSH2 0x100 EXP SWAP1 DIV PUSH20 0xFFFFFFFFFFFFFFFFFFFFFFFFFFFFFFFFFFFFFFFF AND PUSH20 0xFFFFFFFFFFFFFFFFFFFFFFFFFFFFFFFFFFFFFFFF AND PUSH20 0xFFFFFFFFFFFFFFFFFFFFFFFFFFFFFFFFFFFFFFFF AND DUP2 MSTORE PUSH1 0x20 ADD PUSH1 0x1 DUP3 ADD SLOAD DUP2 MSTORE PUSH1 0x20 ADD PUSH1 0x2 DUP3 ADD PUSH0 SWAP1 SLOAD SWAP1 PUSH2 0x100 EXP SWAP1 DIV PUSH1 0xFF AND ISZERO ISZERO ISZERO ISZERO DUP2 MSTORE PUSH1 0x20 ADD PUSH1 0x3 DUP3 ADD DUP1 SLOAD DUP1 PUSH1 0x20 MUL PUSH1 0x20 ADD PUSH1 0x40 MLOAD SWAP1 DUP2 ADD PUSH1 0x40 MSTORE DUP1 SWAP3 SWAP2 SWAP1 DUP2 DUP2 MSTORE PUSH1 0x20 ADD PUSH0 SWAP1 JUMPDEST DUP3 DUP3 LT ISZERO PUSH2 0x13D4 JUMPI DUP4 DUP3 SWAP1 PUSH0 MSTORE PUSH1 0x20 PUSH0 KECCAK256 SWAP1 PUSH1 0x4 MUL ADD PUSH1 0x40 MLOAD DUP1 PUSH1 0x80 ADD PUSH1 0x40 MSTORE SWAP1 DUP2 PUSH0 DUP3 ADD SLOAD DUP2 MSTORE PUSH1 0x20 ADD PUSH1 0x1 DUP3 ADD SLOAD DUP2 MSTORE PUSH1 0x20 ADD PUSH1 0x2 DUP3 ADD SLOAD DUP2 MSTORE PUSH1 0x20 ADD PUSH1 0x3 DUP3 ADD PUSH0 SWAP1 SLOAD SWAP1 PUSH2 0x100 EXP SWAP1 DIV PUSH1 0xFF AND PUSH1 0xFF AND PUSH1 0xFF AND DUP2 MSTORE POP POP DUP2 MSTORE PUSH1 0x20 ADD SWAP1 PUSH1 0x1 ADD SWAP1 PUSH2 0x136B JUMP JUMPDEST POP POP POP POP DUP2 MSTORE POP POP SWAP1 POP SWAP2 SWAP1 POP JUMP JUMPDEST PUSH1 0x1 PUSH0 SWAP1 SLOAD SWAP1 PUSH2 0x100 EXP SWAP1 DIV PUSH20 0xFFFFFFFFFFFFFFFFFFFFFFFFFFFFFFFFFFFFFFFF AND PUSH20 0xFFFFFFFFFFFFFFFFFFFFFFFFFFFFFFFFFFFFFFFF AND CALLER PUSH20 0xFFFFFFFFFFFFFFFFFFFFFFFFFFFFFFFFFFFFFFFF AND EQ PUSH2 0x1472 JUMPI PUSH1 0x40 MLOAD PUSH32 0x8C379A000000000000000000000000000000000000000000000000000000000 DUP2 MSTORE PUSH1 0x4 ADD PUSH2 0x1469 SWAP1 PUSH2 0x24F3 JUMP JUMPDEST PUSH1 0x40 MLOAD DUP1 SWAP2 SUB SWAP1 REVERT JUMPDEST DUP1 PUSH1 0x1 PUSH1 0x15 PUSH2 0x100 EXP DUP2 SLOAD DUP2 PUSH1 0xFF MUL NOT AND SWAP1 DUP4 PUSH1 0xFF AND MUL OR SWAP1 SSTORE POP POP JUMP JUMPDEST PUSH1 0x1 PUSH0 SWAP1 SLOAD SWAP1 PUSH2 0x100 EXP SWAP1 DIV PUSH20 0xFFFFFFFFFFFFFFFFFFFFFFFFFFFFFFFFFFFFFFFF AND DUP2 JUMP JUMPDEST PUSH1 0x1 PUSH0 SWAP1 SLOAD SWAP1 PUSH2 0x100 EXP SWAP1 DIV PUSH20 0xFFFFFFFFFFFFFFFFFFFFFFFFFFFFFFFFFFFFFFFF AND PUSH20 0xFFFFFFFFFFFFFFFFFFFFFFFFFFFFFFFFFFFFFFFF AND CALLER PUSH20 0xFFFFFFFFFFFFFFFFFFFFFFFFFFFFFFFFFFFFFFFF AND EQ PUSH2 0x1544 JUMPI PUSH1 0x40 MLOAD PUSH32 0x8C379A000000000000000000000000000000000000000000000000000000000 DUP2 MSTORE PUSH1 0x4 ADD PUSH2 0x153B SWAP1 PUSH2 0x24F3 JUMP JUMPDEST PUSH1 0x40 MLOAD DUP1 SWAP2 SUB SWAP1 REVERT JUMPDEST DUP1 PUSH1 0x2 PUSH0 DUP5 PUSH1 0xFF AND PUSH1 0xFF AND DUP2 MSTORE PUSH1 0x20 ADD SWAP1 DUP2 MSTORE PUSH1 0x20 ADD PUSH0 KECCAK256 DUP2 SWAP1 SSTORE POP POP POP JUMP JUMPDEST PUSH1 0x1 PUSH1 0x15 SWAP1 SLOAD SWAP1 PUSH2 0x100 EXP SWAP1 DIV PUSH1 0xFF AND DUP2 JUMP JUMPDEST PUSH1 0x1 PUSH0 SWAP1 SLOAD SWAP1 PUSH2 0x100 EXP SWAP1 DIV PUSH20 0xFFFFFFFFFFFFFFFFFFFFFFFFFFFFFFFFFFFFFFFF AND PUSH20 0xFFFFFFFFFFFFFFFFFFFFFFFFFFFFFFFFFFFFFFFF AND CALLER PUSH20 0xFFFFFFFFFFFFFFFFFFFFFFFFFFFFFFFFFFFFFFFF AND EQ PUSH2 0x1606 JUMPI PUSH1 0x40 MLOAD PUSH32 0x8C379A000000000000000000000000000000000000000000000000000000000 DUP2 MSTORE PUSH1 0x4 ADD PUSH2 0x15FD SWAP1 PUSH2 0x24F3 JUMP JUMPDEST PUSH1 0x40 MLOAD DUP1 SWAP2 SUB SWAP1 REVERT JUMPDEST DUP1 PUSH0 PUSH0 PUSH2 0x100 EXP DUP2 SLOAD DUP2 PUSH20 0xFFFFFFFFFFFFFFFFFFFFFFFFFFFFFFFFFFFFFFFF MUL NOT AND SWAP1 DUP4 PUSH20 0xFFFFFFFFFFFFFFFFFFFFFFFFFFFFFFFFFFFFFFFF AND MUL OR SWAP1 SSTORE POP POP JUMP JUMPDEST PUSH1 0x1 PUSH0 SWAP1 SLOAD SWAP1 PUSH2 0x100 EXP SWAP1 DIV PUSH20 0xFFFFFFFFFFFFFFFFFFFFFFFFFFFFFFFFFFFFFFFF AND PUSH20 0xFFFFFFFFFFFFFFFFFFFFFFFFFFFFFFFFFFFFFFFF AND CALLER PUSH20 0xFFFFFFFFFFFFFFFFFFFFFFFFFFFFFFFFFFFFFFFF AND EQ PUSH2 0x16D7 JUMPI PUSH1 0x40 MLOAD PUSH32 0x8C379A000000000000000000000000000000000000000000000000000000000 DUP2 MSTORE PUSH1 0x4 ADD PUSH2 0x16CE SWAP1 PUSH2 0x24F3 JUMP JUMPDEST PUSH1 0x40 MLOAD DUP1 SWAP2 SUB SWAP1 REVERT JUMPDEST PUSH1 0x3 SLOAD DUP2 LT ISZERO PUSH2 0x171C JUMPI PUSH1 0x40 MLOAD PUSH32 0x8C379A000000000000000000000000000000000000000000000000000000000 DUP2 MSTORE PUSH1 0x4 ADD PUSH2 0x1713 SWAP1 PUSH2 0x26C0 JUMP JUMPDEST PUSH1 0x40 MLOAD DUP1 SWAP2 SUB SWAP1 REVERT JUMPDEST DUP1 PUSH1 0x4 DUP2 SWAP1 SSTORE POP POP JUMP JUMPDEST PUSH1 0x5 SLOAD DUP2 JUMP JUMPDEST PUSH1 0x1 PUSH0 SWAP1 SLOAD SWAP1 PUSH2 0x100 EXP SWAP1 DIV PUSH20 0xFFFFFFFFFFFFFFFFFFFFFFFFFFFFFFFFFFFFFFFF AND PUSH20 0xFFFFFFFFFFFFFFFFFFFFFFFFFFFFFFFFFFFFFFFF AND CALLER PUSH20 0xFFFFFFFFFFFFFFFFFFFFFFFFFFFFFFFFFFFFFFFF AND EQ PUSH2 0x17BB JUMPI PUSH1 0x40 MLOAD PUSH32 0x8C379A000000000000000000000000000000000000000000000000000000000 DUP2 MSTORE PUSH1 0x4 ADD PUSH2 0x17B2 SWAP1 PUSH2 0x24F3 JUMP JUMPDEST PUSH1 0x40 MLOAD DUP1 SWAP2 SUB SWAP1 REVERT JUMPDEST PUSH0 PUSH20 0xFFFFFFFFFFFFFFFFFFFFFFFFFFFFFFFFFFFFFFFF AND DUP2 PUSH20 0xFFFFFFFFFFFFFFFFFFFFFFFFFFFFFFFFFFFFFFFF AND SUB PUSH2 0x1829 JUMPI PUSH1 0x40 MLOAD PUSH32 0x8C379A000000000000000000000000000000000000000000000000000000000 DUP2 MSTORE PUSH1 0x4 ADD PUSH2 0x1820 SWAP1 PUSH2 0x2728 JUMP JUMPDEST PUSH1 0x40 MLOAD DUP1 SWAP2 SUB SWAP1 REVERT JUMPDEST DUP1 PUSH20 0xFFFFFFFFFFFFFFFFFFFFFFFFFFFFFFFFFFFFFFFF AND PUSH2 0x8FC SELFBALANCE SWAP1 DUP2 ISZERO MUL SWAP1 PUSH1 0x40 MLOAD PUSH0 PUSH1 0x40 MLOAD DUP1 DUP4 SUB DUP2 DUP6 DUP9 DUP9 CALL SWAP4 POP POP POP POP ISZERO DUP1 ISZERO PUSH2 0x186C JUMPI RETURNDATASIZE PUSH0 PUSH0 RETURNDATACOPY RETURNDATASIZE PUSH0 REVERT JUMPDEST POP POP JUMP JUMPDEST PUSH0 PUSH1 0x7 PUSH0 PUSH1 0x6 PUSH0 DUP6 PUSH20 0xFFFFFFFFFFFFFFFFFFFFFFFFFFFFFFFFFFFFFFFF AND PUSH20 0xFFFFFFFFFFFFFFFFFFFFFFFFFFFFFFFFFFFFFFFF AND DUP2 MSTORE PUSH1 0x20 ADD SWAP1 DUP2 MSTORE PUSH1 0x20 ADD PUSH0 KECCAK256 SLOAD DUP2 MSTORE PUSH1 0x20 ADD SWAP1 DUP2 MSTORE PUSH1 0x20 ADD PUSH0 KECCAK256 PUSH1 0x1 ADD SLOAD SWAP1 POP SWAP2 SWAP1 POP JUMP JUMPDEST PUSH1 0x2 PUSH1 0x20 MSTORE DUP1 PUSH0 MSTORE PUSH1 0x40 PUSH0 KECCAK256 PUSH0 SWAP2 POP SWAP1 POP SLOAD DUP2 JUMP JUMPDEST DUP3 DUP1 SLOAD DUP3 DUP3 SSTORE SWAP1 PUSH0 MSTORE PUSH1 0x20 PUSH0 KECCAK256 SWAP1 PUSH1 0x4 MUL DUP2 ADD SWAP3 DUP3 ISZERO PUSH2 0x196A JUMPI PUSH0 MSTORE PUSH1 0x20 PUSH0 KECCAK256 SWAP2 PUSH1 0x4 MUL DUP3 ADD JUMPDEST DUP3 DUP2 GT ISZERO PUSH2 0x1969 JUMPI DUP3 DUP3 PUSH0 DUP3 ADD SLOAD DUP2 PUSH0 ADD SSTORE PUSH1 0x1 DUP3 ADD SLOAD DUP2 PUSH1 0x1 ADD SSTORE PUSH1 0x2 DUP3 ADD SLOAD DUP2 PUSH1 0x2 ADD SSTORE PUSH1 0x3 DUP3 ADD PUSH0 SWAP1 SLOAD SWAP1 PUSH2 0x100 EXP SWAP1 DIV PUSH1 0xFF AND DUP2 PUSH1 0x3 ADD PUSH0 PUSH2 0x100 EXP DUP2 SLOAD DUP2 PUSH1 0xFF MUL NOT AND SWAP1 DUP4 PUSH1 0xFF AND MUL OR SWAP1 SSTORE POP POP POP SWAP2 PUSH1 0x4 ADD SWAP2 SWAP1 PUSH1 0x4 ADD SWAP1 PUSH2 0x1906 JUMP JUMPDEST JUMPDEST POP SWAP1 POP PUSH2 0x1977 SWAP2 SWAP1 PUSH2 0x19DF JUMP JUMPDEST POP SWAP1 JUMP JUMPDEST PUSH1 0x40 MLOAD DUP1 PUSH1 0x80 ADD PUSH1 0x40 MSTORE DUP1 PUSH0 DUP2 MSTORE PUSH1 0x20 ADD PUSH0 DUP2 MSTORE PUSH1 0x20 ADD PUSH0 DUP2 MSTORE PUSH1 0x20 ADD PUSH0 PUSH1 0xFF AND DUP2 MSTORE POP SWAP1 JUMP JUMPDEST PUSH1 0x40 MLOAD DUP1 PUSH1 0x80 ADD PUSH1 0x40 MSTORE DUP1 PUSH0 PUSH20 0xFFFFFFFFFFFFFFFFFFFFFFFFFFFFFFFFFFFFFFFF AND DUP2 MSTORE PUSH1 0x20 ADD PUSH0 DUP2 MSTORE PUSH1 0x20 ADD PUSH0 ISZERO ISZERO DUP2 MSTORE PUSH1 0x20 ADD PUSH1 0x60 DUP2 MSTORE POP SWAP1 JUMP JUMPDEST JUMPDEST DUP1 DUP3 GT ISZERO PUSH2 0x1A19 JUMPI PUSH0 PUSH0 DUP3 ADD PUSH0 SWAP1 SSTORE PUSH1 0x1 DUP3 ADD PUSH0 SWAP1 SSTORE PUSH1 0x2 DUP3 ADD PUSH0 SWAP1 SSTORE PUSH1 0x3 DUP3 ADD PUSH0 PUSH2 0x100 EXP DUP2 SLOAD SWAP1 PUSH1 0xFF MUL NOT AND SWAP1 SSTORE POP PUSH1 0x4 ADD PUSH2 0x19E0 JUMP JUMPDEST POP SWAP1 JUMP JUMPDEST PUSH0 DUP3 DUP3 MSTORE PUSH1 0x20 DUP3 ADD SWAP1 POP SWAP3 SWAP2 POP POP JUMP JUMPDEST PUSH32 0x53656E64206D6F726520424E4220746F20627579205450540000000000000000 PUSH0 DUP3 ADD MSTORE POP JUMP JUMPDEST PUSH0 PUSH2 0x1A61 PUSH1 0x18 DUP4 PUSH2 0x1A1D JUMP JUMPDEST SWAP2 POP PUSH2 0x1A6C DUP3 PUSH2 0x1A2D JUMP JUMPDEST PUSH1 0x20 DUP3 ADD SWAP1 POP SWAP2 SWAP1 POP JUMP JUMPDEST PUSH0 PUSH1 0x20 DUP3 ADD SWAP1 POP DUP2 DUP2 SUB PUSH0 DUP4 ADD MSTORE PUSH2 0x1A8E DUP2 PUSH2 0x1A55 JUMP JUMPDEST SWAP1 POP SWAP2 SWAP1 POP JUMP JUMPDEST PUSH0 DUP2 SWAP1 POP SWAP3 SWAP2 POP POP JUMP JUMPDEST POP JUMP JUMPDEST PUSH0 PUSH2 0x1AAD PUSH0 DUP4 PUSH2 0x1A95 JUMP JUMPDEST SWAP2 POP PUSH2 0x1AB8 DUP3 PUSH2 0x1A9F JUMP JUMPDEST PUSH0 DUP3 ADD SWAP1 POP SWAP2 SWAP1 POP JUMP JUMPDEST PUSH0 PUSH2 0x1ACC DUP3 PUSH2 0x1AA2 JUMP JUMPDEST SWAP2 POP DUP2 SWAP1 POP SWAP2 SWAP1 POP JUMP JUMPDEST PUSH32 0x5472616E73666572206661696C65640000000000000000000000000000000000 PUSH0 DUP3 ADD MSTORE POP JUMP JUMPDEST PUSH0 PUSH2 0x1B0A PUSH1 0xF DUP4 PUSH2 0x1A1D JUMP JUMPDEST SWAP2 POP PUSH2 0x1B15 DUP3 PUSH2 0x1AD6 JUMP JUMPDEST PUSH1 0x20 DUP3 ADD SWAP1 POP SWAP2 SWAP1 POP JUMP JUMPDEST PUSH0 PUSH1 0x20 DUP3 ADD SWAP1 POP DUP2 DUP2 SUB PUSH0 DUP4 ADD MSTORE PUSH2 0x1B37 DUP2 PUSH2 0x1AFE JUMP JUMPDEST SWAP1 POP SWAP2 SWAP1 POP JUMP JUMPDEST PUSH32 0x496E76616C69642064617461206C656E67746800000000000000000000000000 PUSH0 DUP3 ADD MSTORE POP JUMP JUMPDEST PUSH0 PUSH2 0x1B72 PUSH1 0x13 DUP4 PUSH2 0x1A1D JUMP JUMPDEST SWAP2 POP PUSH2 0x1B7D DUP3 PUSH2 0x1B3E JUMP JUMPDEST PUSH1 0x20 DUP3 ADD SWAP1 POP SWAP2 SWAP1 POP JUMP JUMPDEST PUSH0 PUSH1 0x20 DUP3 ADD SWAP1 POP DUP2 DUP2 SUB PUSH0 DUP4 ADD MSTORE PUSH2 0x1B9F DUP2 PUSH2 0x1B66 JUMP JUMPDEST SWAP1 POP SWAP2 SWAP1 POP JUMP JUMPDEST PUSH0 PUSH1 0x40 MLOAD SWAP1 POP SWAP1 JUMP JUMPDEST PUSH0 PUSH0 REVERT JUMPDEST PUSH0 PUSH0 REVERT JUMPDEST PUSH0 DUP2 ISZERO ISZERO SWAP1 POP SWAP2 SWAP1 POP JUMP JUMPDEST PUSH2 0x1BCB DUP2 PUSH2 0x1BB7 JUMP JUMPDEST DUP2 EQ PUSH2 0x1BD5 JUMPI PUSH0 PUSH0 REVERT JUMPDEST POP JUMP JUMPDEST PUSH0 DUP2 CALLDATALOAD SWAP1 POP PUSH2 0x1BE6 DUP2 PUSH2 0x1BC2 JUMP JUMPDEST SWAP3 SWAP2 POP POP JUMP JUMPDEST PUSH0 PUSH1 0x20 DUP3 DUP5 SUB SLT ISZERO PUSH2 0x1C01 JUMPI PUSH2 0x1C00 PUSH2 0x1BAF JUMP JUMPDEST JUMPDEST PUSH0 PUSH2 0x1C0E DUP5 DUP3 DUP6 ADD PUSH2 0x1BD8 JUMP JUMPDEST SWAP2 POP POP SWAP3 SWAP2 POP POP JUMP JUMPDEST PUSH32 0x73656E64206A75737420302E303520626E620000000000000000000000000000 PUSH0 DUP3 ADD MSTORE POP JUMP JUMPDEST PUSH0 PUSH2 0x1C4B PUSH1 0x12 DUP4 PUSH2 0x1A1D JUMP JUMPDEST SWAP2 POP PUSH2 0x1C56 DUP3 PUSH2 0x1C17 JUMP JUMPDEST PUSH1 0x20 DUP3 ADD SWAP1 POP SWAP2 SWAP1 POP JUMP JUMPDEST PUSH0 PUSH1 0x20 DUP3 ADD SWAP1 POP DUP2 DUP2 SUB PUSH0 DUP4 ADD MSTORE PUSH2 0x1C78 DUP2 PUSH2 0x1C3F JUMP JUMPDEST SWAP1 POP SWAP2 SWAP1 POP JUMP JUMPDEST PUSH0 PUSH20 0xFFFFFFFFFFFFFFFFFFFFFFFFFFFFFFFFFFFFFFFF DUP3 AND SWAP1 POP SWAP2 SWAP1 POP JUMP JUMPDEST PUSH0 PUSH2 0x1CA8 DUP3 PUSH2 0x1C7F JUMP JUMPDEST SWAP1 POP SWAP2 SWAP1 POP JUMP JUMPDEST PUSH2 0x1CB8 DUP2 PUSH2 0x1C9E JUMP JUMPDEST DUP2 EQ PUSH2 0x1CC2 JUMPI PUSH0 PUSH0 REVERT JUMPDEST POP JUMP JUMPDEST PUSH0 DUP2 CALLDATALOAD SWAP1 POP PUSH2 0x1CD3 DUP2 PUSH2 0x1CAF JUMP JUMPDEST SWAP3 SWAP2 POP POP JUMP JUMPDEST PUSH0 DUP2 SWAP1 POP SWAP2 SWAP1 POP JUMP JUMPDEST PUSH2 0x1CEB DUP2 PUSH2 0x1CD9 JUMP JUMPDEST DUP2 EQ PUSH2 0x1CF5 JUMPI PUSH0 PUSH0 REVERT JUMPDEST POP JUMP JUMPDEST PUSH0 DUP2 CALLDATALOAD SWAP1 POP PUSH2 0x1D06 DUP2 PUSH2 0x1CE2 JUMP JUMPDEST SWAP3 SWAP2 POP POP JUMP JUMPDEST PUSH0 PUSH0 PUSH1 0x40 DUP4 DUP6 SUB SLT ISZERO PUSH2 0x1D22 JUMPI PUSH2 0x1D21 PUSH2 0x1BAF JUMP JUMPDEST JUMPDEST PUSH0 PUSH2 0x1D2F DUP6 DUP3 DUP7 ADD PUSH2 0x1CC5 JUMP JUMPDEST SWAP3 POP POP PUSH1 0x20 PUSH2 0x1D40 DUP6 DUP3 DUP7 ADD PUSH2 0x1CF8 JUMP JUMPDEST SWAP2 POP POP SWAP3 POP SWAP3 SWAP1 POP JUMP JUMPDEST PUSH2 0x1D53 DUP2 PUSH2 0x1CD9 JUMP JUMPDEST DUP3 MSTORE POP POP JUMP JUMPDEST PUSH0 PUSH1 0xFF DUP3 AND SWAP1 POP SWAP2 SWAP1 POP JUMP JUMPDEST PUSH2 0x1D6E DUP2 PUSH2 0x1D59 JUMP JUMPDEST DUP3 MSTORE POP POP JUMP JUMPDEST PUSH1 0x80 DUP3 ADD PUSH0 DUP3 ADD MLOAD PUSH2 0x1D88 PUSH0 DUP6 ADD DUP3 PUSH2 0x1D4A JUMP JUMPDEST POP PUSH1 0x20 DUP3 ADD MLOAD PUSH2 0x1D9B PUSH1 0x20 DUP6 ADD DUP3 PUSH2 0x1D4A JUMP JUMPDEST POP PUSH1 0x40 DUP3 ADD MLOAD PUSH2 0x1DAE PUSH1 0x40 DUP6 ADD DUP3 PUSH2 0x1D4A JUMP JUMPDEST POP PUSH1 0x60 DUP3 ADD MLOAD PUSH2 0x1DC1 PUSH1 0x60 DUP6 ADD DUP3 PUSH2 0x1D65 JUMP JUMPDEST POP POP POP POP JUMP JUMPDEST PUSH0 PUSH1 0x80 DUP3 ADD SWAP1 POP PUSH2 0x1DDA PUSH0 DUP4 ADD DUP5 PUSH2 0x1D74 JUMP JUMPDEST SWAP3 SWAP2 POP POP JUMP JUMPDEST PUSH0 PUSH1 0x20 DUP3 DUP5 SUB SLT ISZERO PUSH2 0x1DF5 JUMPI PUSH2 0x1DF4 PUSH2 0x1BAF JUMP JUMPDEST JUMPDEST PUSH0 PUSH2 0x1E02 DUP5 DUP3 DUP6 ADD PUSH2 0x1CC5 JUMP JUMPDEST SWAP2 POP POP SWAP3 SWAP2 POP POP JUMP JUMPDEST PUSH2 0x1E14 DUP2 PUSH2 0x1CD9 JUMP JUMPDEST DUP3 MSTORE POP POP JUMP JUMPDEST PUSH0 PUSH1 0x20 DUP3 ADD SWAP1 POP PUSH2 0x1E2D PUSH0 DUP4 ADD DUP5 PUSH2 0x1E0B JUMP JUMPDEST SWAP3 SWAP2 POP POP JUMP JUMPDEST PUSH0 DUP2 MLOAD SWAP1 POP SWAP2 SWAP1 POP JUMP JUMPDEST DUP3 DUP2 DUP4 MCOPY PUSH0 DUP4 DUP4 ADD MSTORE POP POP POP JUMP JUMPDEST PUSH0 PUSH1 0x1F NOT PUSH1 0x1F DUP4 ADD AND SWAP1 POP SWAP2 SWAP1 POP JUMP JUMPDEST PUSH0 PUSH2 0x1E65 DUP3 PUSH2 0x1E33 JUMP JUMPDEST PUSH2 0x1E6F DUP2 DUP6 PUSH2 0x1A1D JUMP JUMPDEST SWAP4 POP PUSH2 0x1E7F DUP2 DUP6 PUSH1 0x20 DUP7 ADD PUSH2 0x1E3D JUMP JUMPDEST PUSH2 0x1E88 DUP2 PUSH2 0x1E4B JUMP JUMPDEST DUP5 ADD SWAP2 POP POP SWAP3 SWAP2 POP POP JUMP JUMPDEST PUSH0 PUSH1 0x20 DUP3 ADD SWAP1 POP DUP2 DUP2 SUB PUSH0 DUP4 ADD MSTORE PUSH2 0x1EAB DUP2 DUP5 PUSH2 0x1E5B JUMP JUMPDEST SWAP1 POP SWAP3 SWAP2 POP POP JUMP JUMPDEST PUSH0 PUSH2 0x1EBD DUP3 PUSH2 0x1C7F JUMP JUMPDEST SWAP1 POP SWAP2 SWAP1 POP JUMP JUMPDEST PUSH2 0x1ECD DUP2 PUSH2 0x1EB3 JUMP JUMPDEST DUP2 EQ PUSH2 0x1ED7 JUMPI PUSH0 PUSH0 REVERT JUMPDEST POP JUMP JUMPDEST PUSH0 DUP2 CALLDATALOAD SWAP1 POP PUSH2 0x1EE8 DUP2 PUSH2 0x1EC4 JUMP JUMPDEST SWAP3 SWAP2 POP POP JUMP JUMPDEST PUSH0 PUSH1 0x20 DUP3 DUP5 SUB SLT ISZERO PUSH2 0x1F03 JUMPI PUSH2 0x1F02 PUSH2 0x1BAF JUMP JUMPDEST JUMPDEST PUSH0 PUSH2 0x1F10 DUP5 DUP3 DUP6 ADD PUSH2 0x1EDA JUMP JUMPDEST SWAP2 POP POP SWAP3 SWAP2 POP POP JUMP JUMPDEST PUSH0 PUSH1 0x20 DUP3 DUP5 SUB SLT ISZERO PUSH2 0x1F2E JUMPI PUSH2 0x1F2D PUSH2 0x1BAF JUMP JUMPDEST JUMPDEST PUSH0 PUSH2 0x1F3B DUP5 DUP3 DUP6 ADD PUSH2 0x1CF8 JUMP JUMPDEST SWAP2 POP POP SWAP3 SWAP2 POP POP JUMP JUMPDEST PUSH2 0x1F4D DUP2 PUSH2 0x1C9E JUMP JUMPDEST DUP3 MSTORE POP POP JUMP JUMPDEST PUSH2 0x1F5C DUP2 PUSH2 0x1BB7 JUMP JUMPDEST DUP3 MSTORE POP POP JUMP JUMPDEST PUSH0 DUP2 MLOAD SWAP1 POP SWAP2 SWAP1 POP JUMP JUMPDEST PUSH0 DUP3 DUP3 MSTORE PUSH1 0x20 DUP3 ADD SWAP1 POP SWAP3 SWAP2 POP POP JUMP JUMPDEST PUSH0 DUP2 SWAP1 POP PUSH1 0x20 DUP3 ADD SWAP1 POP SWAP2 SWAP1 POP JUMP JUMPDEST PUSH1 0x80 DUP3 ADD PUSH0 DUP3 ADD MLOAD PUSH2 0x1F9F PUSH0 DUP6 ADD DUP3 PUSH2 0x1D4A JUMP JUMPDEST POP PUSH1 0x20 DUP3 ADD MLOAD PUSH2 0x1FB2 PUSH1 0x20 DUP6 ADD DUP3 PUSH2 0x1D4A JUMP JUMPDEST POP PUSH1 0x40 DUP3 ADD MLOAD PUSH2 0x1FC5 PUSH1 0x40 DUP6 ADD DUP3 PUSH2 0x1D4A JUMP JUMPDEST POP PUSH1 0x60 DUP3 ADD MLOAD PUSH2 0x1FD8 PUSH1 0x60 DUP6 ADD DUP3 PUSH2 0x1D65 JUMP JUMPDEST POP POP POP POP JUMP JUMPDEST PUSH0 PUSH2 0x1FE9 DUP4 DUP4 PUSH2 0x1F8B JUMP JUMPDEST PUSH1 0x80 DUP4 ADD SWAP1 POP SWAP3 SWAP2 POP POP JUMP JUMPDEST PUSH0 PUSH1 0x20 DUP3 ADD SWAP1 POP SWAP2 SWAP1 POP JUMP JUMPDEST PUSH0 PUSH2 0x200B DUP3 PUSH2 0x1F62 JUMP JUMPDEST PUSH2 0x2015 DUP2 DUP6 PUSH2 0x1F6C JUMP JUMPDEST SWAP4 POP PUSH2 0x2020 DUP4 PUSH2 0x1F7C JUMP JUMPDEST DUP1 PUSH0 JUMPDEST DUP4 DUP2 LT ISZERO PUSH2 0x2050 JUMPI DUP2 MLOAD PUSH2 0x2037 DUP9 DUP3 PUSH2 0x1FDE JUMP JUMPDEST SWAP8 POP PUSH2 0x2042 DUP4 PUSH2 0x1FF5 JUMP JUMPDEST SWAP3 POP POP PUSH1 0x1 DUP2 ADD SWAP1 POP PUSH2 0x2023 JUMP JUMPDEST POP DUP6 SWAP4 POP POP POP POP SWAP3 SWAP2 POP POP JUMP JUMPDEST PUSH0 PUSH1 0x80 DUP4 ADD PUSH0 DUP4 ADD MLOAD PUSH2 0x2072 PUSH0 DUP7 ADD DUP3 PUSH2 0x1F44 JUMP JUMPDEST POP PUSH1 0x20 DUP4 ADD MLOAD PUSH2 0x2085 PUSH1 0x20 DUP7 ADD DUP3 PUSH2 0x1D4A JUMP JUMPDEST POP PUSH1 0x40 DUP4 ADD MLOAD PUSH2 0x2098 PUSH1 0x40 DUP7 ADD DUP3 PUSH2 0x1F53 JUMP JUMPDEST POP PUSH1 0x60 DUP4 ADD MLOAD DUP5 DUP3 SUB PUSH1 0x60 DUP7 ADD MSTORE PUSH2 0x20B0 DUP3 DUP3 PUSH2 0x2001 JUMP JUMPDEST SWAP2 POP POP DUP1 SWAP2 POP POP SWAP3 SWAP2 POP POP JUMP JUMPDEST PUSH0 PUSH1 0x20 DUP3 ADD SWAP1 POP DUP2 DUP2 SUB PUSH0 DUP4 ADD MSTORE PUSH2 0x20D5 DUP2 DUP5 PUSH2 0x205D JUMP JUMPDEST SWAP1 POP SWAP3 SWAP2 POP POP JUMP JUMPDEST PUSH2 0x20E6 DUP2 PUSH2 0x1D59 JUMP JUMPDEST DUP2 EQ PUSH2 0x20F0 JUMPI PUSH0 PUSH0 REVERT JUMPDEST POP JUMP JUMPDEST PUSH0 DUP2 CALLDATALOAD SWAP1 POP PUSH2 0x2101 DUP2 PUSH2 0x20DD JUMP JUMPDEST SWAP3 SWAP2 POP POP JUMP JUMPDEST PUSH0 PUSH1 0x20 DUP3 DUP5 SUB SLT ISZERO PUSH2 0x211C JUMPI PUSH2 0x211B PUSH2 0x1BAF JUMP JUMPDEST JUMPDEST PUSH0 PUSH2 0x2129 DUP5 DUP3 DUP6 ADD PUSH2 0x20F3 JUMP JUMPDEST SWAP2 POP POP SWAP3 SWAP2 POP POP JUMP JUMPDEST PUSH2 0x213B DUP2 PUSH2 0x1EB3 JUMP JUMPDEST DUP3 MSTORE POP POP JUMP JUMPDEST PUSH0 PUSH1 0x20 DUP3 ADD SWAP1 POP PUSH2 0x2154 PUSH0 DUP4 ADD DUP5 PUSH2 0x2132 JUMP JUMPDEST SWAP3 SWAP2 POP POP JUMP JUMPDEST PUSH0 PUSH0 PUSH1 0x40 DUP4 DUP6 SUB SLT ISZERO PUSH2 0x2170 JUMPI PUSH2 0x216F PUSH2 0x1BAF JUMP JUMPDEST JUMPDEST PUSH0 PUSH2 0x217D DUP6 DUP3 DUP7 ADD PUSH2 0x20F3 JUMP JUMPDEST SWAP3 POP POP PUSH1 0x20 PUSH2 0x218E DUP6 DUP3 DUP7 ADD PUSH2 0x1CF8 JUMP JUMPDEST SWAP2 POP POP SWAP3 POP SWAP3 SWAP1 POP JUMP JUMPDEST PUSH2 0x21A1 DUP2 PUSH2 0x1D59 JUMP JUMPDEST DUP3 MSTORE POP POP JUMP JUMPDEST PUSH0 PUSH1 0x20 DUP3 ADD SWAP1 POP PUSH2 0x21BA PUSH0 DUP4 ADD DUP5 PUSH2 0x2198 JUMP JUMPDEST SWAP3 SWAP2 POP POP JUMP JUMPDEST PUSH32 0x436F6E7472616374205061757365640000000000000000000000000000000000 PUSH0 DUP3 ADD MSTORE POP JUMP JUMPDEST PUSH0 PUSH2 0x21F4 PUSH1 0xF DUP4 PUSH2 0x1A1D JUMP JUMPDEST SWAP2 POP PUSH2 0x21FF DUP3 PUSH2 0x21C0 JUMP JUMPDEST PUSH1 0x20 DUP3 ADD SWAP1 POP SWAP2 SWAP1 POP JUMP JUMPDEST PUSH0 PUSH1 0x20 DUP3 ADD SWAP1 POP DUP2 DUP2 SUB PUSH0 DUP4 ADD MSTORE PUSH2 0x2221 DUP2 PUSH2 0x21E8 JUMP JUMPDEST SWAP1 POP SWAP2 SWAP1 POP JUMP JUMPDEST PUSH32 0x4E6F205265656E7472616E63792C706C73207761697400000000000000000000 PUSH0 DUP3 ADD MSTORE POP JUMP JUMPDEST PUSH0 PUSH2 0x225C PUSH1 0x16 DUP4 PUSH2 0x1A1D JUMP JUMPDEST SWAP2 POP PUSH2 0x2267 DUP3 PUSH2 0x2228 JUMP JUMPDEST PUSH1 0x20 DUP3 ADD SWAP1 POP SWAP2 SWAP1 POP JUMP JUMPDEST PUSH0 PUSH1 0x20 DUP3 ADD SWAP1 POP DUP2 DUP2 SUB PUSH0 DUP4 ADD MSTORE PUSH2 0x2289 DUP2 PUSH2 0x2250 JUMP JUMPDEST SWAP1 POP SWAP2 SWAP1 POP JUMP JUMPDEST PUSH32 0x4E487B7100000000000000000000000000000000000000000000000000000000 PUSH0 MSTORE PUSH1 0x11 PUSH1 0x4 MSTORE PUSH1 0x24 PUSH0 REVERT JUMPDEST PUSH0 PUSH2 0x22C7 DUP3 PUSH2 0x1CD9 JUMP JUMPDEST SWAP2 POP PUSH32 0xFFFFFFFFFFFFFFFFFFFFFFFFFFFFFFFFFFFFFFFFFFFFFFFFFFFFFFFFFFFFFFFF DUP3 SUB PUSH2 0x22F9 JUMPI PUSH2 0x22F8 PUSH2 0x2290 JUMP JUMPDEST JUMPDEST PUSH1 0x1 DUP3 ADD SWAP1 POP SWAP2 SWAP1 POP JUMP JUMPDEST PUSH0 DUP2 MLOAD SWAP1 POP PUSH2 0x2312 DUP2 PUSH2 0x1CE2 JUMP JUMPDEST SWAP3 SWAP2 POP POP JUMP JUMPDEST PUSH0 PUSH1 0x20 DUP3 DUP5 SUB SLT ISZERO PUSH2 0x232D JUMPI PUSH2 0x232C PUSH2 0x1BAF JUMP JUMPDEST JUMPDEST PUSH0 PUSH2 0x233A DUP5 DUP3 DUP6 ADD PUSH2 0x2304 JUMP JUMPDEST SWAP2 POP POP SWAP3 SWAP2 POP POP JUMP JUMPDEST PUSH32 0x6E6F206F66666572206D6F726500000000000000000000000000000000000000 PUSH0 DUP3 ADD MSTORE POP JUMP JUMPDEST PUSH0 PUSH2 0x2377 PUSH1 0xD DUP4 PUSH2 0x1A1D JUMP JUMPDEST SWAP2 POP PUSH2 0x2382 DUP3 PUSH2 0x2343 JUMP JUMPDEST PUSH1 0x20 DUP3 ADD SWAP1 POP SWAP2 SWAP1 POP JUMP JUMPDEST PUSH0 PUSH1 0x20 DUP3 ADD SWAP1 POP DUP2 DUP2 SUB PUSH0 DUP4 ADD MSTORE PUSH2 0x23A4 DUP2 PUSH2 0x236B JUMP JUMPDEST SWAP1 POP SWAP2 SWAP1 POP JUMP JUMPDEST PUSH0 PUSH2 0x23B5 DUP3 PUSH2 0x1CD9 JUMP JUMPDEST SWAP2 POP PUSH2 0x23C0 DUP4 PUSH2 0x1CD9 JUMP JUMPDEST SWAP3 POP DUP3 DUP3 MUL PUSH2 0x23CE DUP2 PUSH2 0x1CD9 JUMP JUMPDEST SWAP2 POP DUP3 DUP3 DIV DUP5 EQ DUP4 ISZERO OR PUSH2 0x23E5 JUMPI PUSH2 0x23E4 PUSH2 0x2290 JUMP JUMPDEST JUMPDEST POP SWAP3 SWAP2 POP POP JUMP JUMPDEST PUSH32 0x4E487B7100000000000000000000000000000000000000000000000000000000 PUSH0 MSTORE PUSH1 0x12 PUSH1 0x4 MSTORE PUSH1 0x24 PUSH0 REVERT JUMPDEST PUSH0 PUSH2 0x2423 DUP3 PUSH2 0x1CD9 JUMP JUMPDEST SWAP2 POP PUSH2 0x242E DUP4 PUSH2 0x1CD9 JUMP JUMPDEST SWAP3 POP DUP3 PUSH2 0x243E JUMPI PUSH2 0x243D PUSH2 0x23EC JUMP JUMPDEST JUMPDEST DUP3 DUP3 DIV SWAP1 POP SWAP3 SWAP2 POP POP JUMP JUMPDEST PUSH0 PUSH2 0x2453 DUP3 PUSH2 0x1CD9 JUMP JUMPDEST SWAP2 POP PUSH2 0x245E DUP4 PUSH2 0x1CD9 JUMP JUMPDEST SWAP3 POP DUP3 DUP3 ADD SWAP1 POP DUP1 DUP3 GT ISZERO PUSH2 0x2476 JUMPI PUSH2 0x2475 PUSH2 0x2290 JUMP JUMPDEST JUMPDEST SWAP3 SWAP2 POP POP JUMP JUMPDEST PUSH32 0x4E487B7100000000000000000000000000000000000000000000000000000000 PUSH0 MSTORE PUSH1 0x32 PUSH1 0x4 MSTORE PUSH1 0x24 PUSH0 REVERT JUMPDEST PUSH32 0x4F6E6C79206F776E657200000000000000000000000000000000000000000000 PUSH0 DUP3 ADD MSTORE POP JUMP JUMPDEST PUSH0 PUSH2 0x24DD PUSH1 0xA DUP4 PUSH2 0x1A1D JUMP JUMPDEST SWAP2 POP PUSH2 0x24E8 DUP3 PUSH2 0x24A9 JUMP JUMPDEST PUSH1 0x20 DUP3 ADD SWAP1 POP SWAP2 SWAP1 POP JUMP JUMPDEST PUSH0 PUSH1 0x20 DUP3 ADD SWAP1 POP DUP2 DUP2 SUB PUSH0 DUP4 ADD MSTORE PUSH2 0x250A DUP2 PUSH2 0x24D1 JUMP JUMPDEST SWAP1 POP SWAP2 SWAP1 POP JUMP JUMPDEST PUSH0 PUSH0 REVERT JUMPDEST PUSH0 PUSH0 REVERT JUMPDEST PUSH32 0x4E487B7100000000000000000000000000000000000000000000000000000000 PUSH0 MSTORE PUSH1 0x41 PUSH1 0x4 MSTORE PUSH1 0x24 PUSH0 REVERT JUMPDEST PUSH2 0x254F DUP3 PUSH2 0x1E4B JUMP JUMPDEST DUP2 ADD DUP2 DUP2 LT PUSH8 0xFFFFFFFFFFFFFFFF DUP3 GT OR ISZERO PUSH2 0x256E JUMPI PUSH2 0x256D PUSH2 0x2519 JUMP JUMPDEST JUMPDEST DUP1 PUSH1 0x40 MSTORE POP POP POP JUMP JUMPDEST PUSH0 PUSH2 0x2580 PUSH2 0x1BA6 JUMP JUMPDEST SWAP1 POP PUSH2 0x258C DUP3 DUP3 PUSH2 0x2546 JUMP JUMPDEST SWAP2 SWAP1 POP JUMP JUMPDEST PUSH0 PUSH8 0xFFFFFFFFFFFFFFFF DUP3 GT ISZERO PUSH2 0x25AB JUMPI PUSH2 0x25AA PUSH2 0x2519 JUMP JUMPDEST JUMPDEST PUSH2 0x25B4 DUP3 PUSH2 0x1E4B JUMP JUMPDEST SWAP1 POP PUSH1 0x20 DUP2 ADD SWAP1 POP SWAP2 SWAP1 POP JUMP JUMPDEST PUSH0 PUSH2 0x25D3 PUSH2 0x25CE DUP5 PUSH2 0x2591 JUMP JUMPDEST PUSH2 0x2577 JUMP JUMPDEST SWAP1 POP DUP3 DUP2 MSTORE PUSH1 0x20 DUP2 ADD DUP5 DUP5 DUP5 ADD GT ISZERO PUSH2 0x25EF JUMPI PUSH2 0x25EE PUSH2 0x2515 JUMP JUMPDEST JUMPDEST PUSH2 0x25FA DUP5 DUP3 DUP6 PUSH2 0x1E3D JUMP JUMPDEST POP SWAP4 SWAP3 POP POP POP JUMP JUMPDEST PUSH0 DUP3 PUSH1 0x1F DUP4 ADD SLT PUSH2 0x2616 JUMPI PUSH2 0x2615 PUSH2 0x2511 JUMP JUMPDEST JUMPDEST DUP2 MLOAD PUSH2 0x2626 DUP5 DUP3 PUSH1 0x20 DUP7 ADD PUSH2 0x25C1 JUMP JUMPDEST SWAP2 POP POP SWAP3 SWAP2 POP POP JUMP JUMPDEST PUSH0 PUSH1 0x20 DUP3 DUP5 SUB SLT ISZERO PUSH2 0x2644 JUMPI PUSH2 0x2643 PUSH2 0x1BAF JUMP JUMPDEST JUMPDEST PUSH0 DUP3 ADD MLOAD PUSH8 0xFFFFFFFFFFFFFFFF DUP2 GT ISZERO PUSH2 0x2661 JUMPI PUSH2 0x2660 PUSH2 0x1BB3 JUMP JUMPDEST JUMPDEST PUSH2 0x266D DUP5 DUP3 DUP6 ADD PUSH2 0x2602 JUMP JUMPDEST SWAP2 POP POP SWAP3 SWAP2 POP POP JUMP JUMPDEST PUSH32 0x6D696E2073686F756C64206265206D6F7265207468616E207461780000000000 PUSH0 DUP3 ADD MSTORE POP JUMP JUMPDEST PUSH0 PUSH2 0x26AA PUSH1 0x1B DUP4 PUSH2 0x1A1D JUMP JUMPDEST SWAP2 POP PUSH2 0x26B5 DUP3 PUSH2 0x2676 JUMP JUMPDEST PUSH1 0x20 DUP3 ADD SWAP1 POP SWAP2 SWAP1 POP JUMP JUMPDEST PUSH0 PUSH1 0x20 DUP3 ADD SWAP1 POP DUP2 DUP2 SUB PUSH0 DUP4 ADD MSTORE PUSH2 0x26D7 DUP2 PUSH2 0x269E JUMP JUMPDEST SWAP1 POP SWAP2 SWAP1 POP JUMP JUMPDEST PUSH32 0x496E76616C696420616464726573730000000000000000000000000000000000 PUSH0 DUP3 ADD MSTORE POP JUMP JUMPDEST PUSH0 PUSH2 0x2712 PUSH1 0xF DUP4 PUSH2 0x1A1D JUMP JUMPDEST SWAP2 POP PUSH2 0x271D DUP3 PUSH2 0x26DE JUMP JUMPDEST PUSH1 0x20 DUP3 ADD SWAP1 POP SWAP2 SWAP1 POP JUMP JUMPDEST PUSH0 PUSH1 0x20 DUP3 ADD SWAP1 POP DUP2 DUP2 SUB PUSH0 DUP4 ADD MSTORE PUSH2 0x273F DUP2 PUSH2 0x2706 JUMP JUMPDEST SWAP1 POP SWAP2 SWAP1 POP JUMP INVALID LOG2 PUSH5 0x6970667358 0x22 SLT KECCAK256 PUSH21 0x2C6079408A8BE8FA26DB3DEB04B62DEF155FBB0749 DUP9 PUSH19 0x880115E8092691D64736F6C634300081E0033 "
				},
				"gasEstimates": {
					"creation": {
						"codeDepositCost": "2021600",
						"executionCost": "infinite",
						"totalCost": "infinite"
					},
					"external": {
						"": "infinite",
						"chaneOwner(address)": "26929",
						"getPriceMode()": "infinite",
						"getPurchase(address,uint256)": "infinite",
						"getPurchaseCount(address)": "5087",
						"getThisStepPrice()": "4773",
						"getUserById(uint256)": "infinite",
						"getUserId(address)": "2875",
						"getUserTPTBalance(address)": "5099",
						"owner()": "2531",
						"setBNBPriceAddress(address)": "26972",
						"setMinRequire(uint256)": "26832",
						"setPriceMode()": "infinite",
						"setTPTPrice(uint8,uint256)": "24993",
						"setThisStep(uint8)": "27004",
						"thisStep()": "2584",
						"totalUsers()": "2469",
						"tptStepPrice(uint8)": "2870",
						"withdrawAll(address)": "infinite"
					},
					"internal": {
						"buyTPT(bool)": "infinite"
					}
				},
				"methodIdentifiers": {
					"chaneOwner(address)": "5f1276a7",
					"getPriceMode()": "54eb7ebe",
					"getPurchase(address,uint256)": "2a2a92cc",
					"getPurchaseCount(address)": "31bbf555",
					"getThisStepPrice()": "672cbe1a",
					"getUserById(uint256)": "6ed6da9e",
					"getUserId(address)": "2b956ff7",
					"getUserTPTBalance(address)": "fdbb6696",
					"owner()": "8da5cb5b",
					"setBNBPriceAddress(address)": "af6b5558",
					"setMinRequire(uint256)": "b76bdf06",
					"setPriceMode()": "487cb6b0",
					"setTPTPrice(uint8,uint256)": "a2f5546e",
					"setThisStep(uint8)": "7ce8a08e",
					"thisStep()": "ae243031",
					"totalUsers()": "bff1f9e1",
					"tptStepPrice(uint8)": "ffbe653d",
					"withdrawAll(address)": "fa09e630"
				}
			},
			"storageLayout": {
				"storage": [
					{
						"astId": 44,
						"contract": "contracts/TPTPreSale.sol:TPTPreSale",
						"label": "priceContract",
						"offset": 0,
						"slot": "0",
						"type": "t_address_payable"
					},
					{
						"astId": 46,
						"contract": "contracts/TPTPreSale.sol:TPTPreSale",
						"label": "owner",
						"offset": 0,
						"slot": "1",
						"type": "t_address_payable"
					},
					{
						"astId": 48,
						"contract": "contracts/TPTPreSale.sol:TPTPreSale",
						"label": "locked",
						"offset": 20,
						"slot": "1",
						"type": "t_bool"
					},
					{
						"astId": 50,
						"contract": "contracts/TPTPreSale.sol:TPTPreSale",
						"label": "thisStep",
						"offset": 21,
						"slot": "1",
						"type": "t_uint8"
					},
					{
						"astId": 54,
						"contract": "contracts/TPTPreSale.sol:TPTPreSale",
						"label": "tptStepPrice",
						"offset": 0,
						"slot": "2",
						"type": "t_mapping(t_uint8,t_uint256)"
					},
					{
						"astId": 56,
						"contract": "contracts/TPTPreSale.sol:TPTPreSale",
						"label": "getPriceTax",
						"offset": 0,
						"slot": "3",
						"type": "t_uint256"
					},
					{
						"astId": 58,
						"contract": "contracts/TPTPreSale.sol:TPTPreSale",
						"label": "minRequire",
						"offset": 0,
						"slot": "4",
						"type": "t_uint256"
					},
					{
						"astId": 60,
						"contract": "contracts/TPTPreSale.sol:TPTPreSale",
						"label": "totalUsers",
						"offset": 0,
						"slot": "5",
						"type": "t_uint256"
					},
					{
						"astId": 84,
						"contract": "contracts/TPTPreSale.sol:TPTPreSale",
						"label": "userId",
						"offset": 0,
						"slot": "6",
						"type": "t_mapping(t_address,t_uint256)"
					},
					{
						"astId": 89,
						"contract": "contracts/TPTPreSale.sol:TPTPreSale",
						"label": "users",
						"offset": 0,
						"slot": "7",
						"type": "t_mapping(t_uint256,t_struct(UserInfo)80_storage)"
					}
				],
				"types": {
					"t_address": {
						"encoding": "inplace",
						"label": "address",
						"numberOfBytes": "20"
					},
					"t_address_payable": {
						"encoding": "inplace",
						"label": "address payable",
						"numberOfBytes": "20"
					},
					"t_array(t_struct(Purchase)69_storage)dyn_storage": {
						"base": "t_struct(Purchase)69_storage",
						"encoding": "dynamic_array",
						"label": "struct TPTPreSale.Purchase[]",
						"numberOfBytes": "32"
					},
					"t_bool": {
						"encoding": "inplace",
						"label": "bool",
						"numberOfBytes": "1"
					},
					"t_mapping(t_address,t_uint256)": {
						"encoding": "mapping",
						"key": "t_address",
						"label": "mapping(address => uint256)",
						"numberOfBytes": "32",
						"value": "t_uint256"
					},
					"t_mapping(t_uint256,t_struct(UserInfo)80_storage)": {
						"encoding": "mapping",
						"key": "t_uint256",
						"label": "mapping(uint256 => struct TPTPreSale.UserInfo)",
						"numberOfBytes": "32",
						"value": "t_struct(UserInfo)80_storage"
					},
					"t_mapping(t_uint8,t_uint256)": {
						"encoding": "mapping",
						"key": "t_uint8",
						"label": "mapping(uint8 => uint256)",
						"numberOfBytes": "32",
						"value": "t_uint256"
					},
					"t_struct(Purchase)69_storage": {
						"encoding": "inplace",
						"label": "struct TPTPreSale.Purchase",
						"members": [
							{
								"astId": 62,
								"contract": "contracts/TPTPreSale.sol:TPTPreSale",
								"label": "timestamp",
								"offset": 0,
								"slot": "0",
								"type": "t_uint256"
							},
							{
								"astId": 64,
								"contract": "contracts/TPTPreSale.sol:TPTPreSale",
								"label": "bnbAmount",
								"offset": 0,
								"slot": "1",
								"type": "t_uint256"
							},
							{
								"astId": 66,
								"contract": "contracts/TPTPreSale.sol:TPTPreSale",
								"label": "tptAmount",
								"offset": 0,
								"slot": "2",
								"type": "t_uint256"
							},
							{
								"astId": 68,
								"contract": "contracts/TPTPreSale.sol:TPTPreSale",
								"label": "step",
								"offset": 0,
								"slot": "3",
								"type": "t_uint8"
							}
						],
						"numberOfBytes": "128"
					},
					"t_struct(UserInfo)80_storage": {
						"encoding": "inplace",
						"label": "struct TPTPreSale.UserInfo",
						"members": [
							{
								"astId": 71,
								"contract": "contracts/TPTPreSale.sol:TPTPreSale",
								"label": "walletAddress",
								"offset": 0,
								"slot": "0",
								"type": "t_address"
							},
							{
								"astId": 73,
								"contract": "contracts/TPTPreSale.sol:TPTPreSale",
								"label": "tptBalance",
								"offset": 0,
								"slot": "1",
								"type": "t_uint256"
							},
							{
								"astId": 75,
								"contract": "contracts/TPTPreSale.sol:TPTPreSale",
								"label": "hasOffer",
								"offset": 0,
								"slot": "2",
								"type": "t_bool"
							},
							{
								"astId": 79,
								"contract": "contracts/TPTPreSale.sol:TPTPreSale",
								"label": "purchaseList",
								"offset": 0,
								"slot": "3",
								"type": "t_array(t_struct(Purchase)69_storage)dyn_storage"
							}
						],
						"numberOfBytes": "128"
					},
					"t_uint256": {
						"encoding": "inplace",
						"label": "uint256",
						"numberOfBytes": "32"
					},
					"t_uint8": {
						"encoding": "inplace",
						"label": "uint8",
						"numberOfBytes": "1"
					}
				}
			},
			"userdoc": {
				"kind": "user",
				"methods": {},
				"version": 1
			}
		}
	}
}