{
	"contracts/TPTPreSale.sol": {
		"TPTPreSale": {
			"abi": [
				{
					"inputs": [
						{
							"internalType": "address payable",
							"name": "_priceContract",
							"type": "address"
						}
					],
					"stateMutability": "nonpayable",
					"type": "constructor"
				},
				{
					"stateMutability": "payable",
					"type": "fallback"
				},
				{
					"inputs": [
						{
							"internalType": "bool",
							"name": "_useOffer",
							"type": "bool"
						},
						{
							"internalType": "uint256",
							"name": "_price",
							"type": "uint256"
						}
					],
					"name": "calcAmount",
					"outputs": [
						{
							"internalType": "uint256",
							"name": "",
							"type": "uint256"
						}
					],
					"stateMutability": "payable",
					"type": "function"
				},
				{
					"inputs": [
						{
							"internalType": "address",
							"name": "_userAddress",
							"type": "address"
						},
						{
							"internalType": "uint256",
							"name": "index",
							"type": "uint256"
						}
					],
					"name": "getPurchase",
					"outputs": [
						{
							"internalType": "uint256",
							"name": "timestamp",
							"type": "uint256"
						},
						{
							"internalType": "uint256",
							"name": "bnbAmount",
							"type": "uint256"
						},
						{
							"internalType": "uint256",
							"name": "tptAmount",
							"type": "uint256"
						}
					],
					"stateMutability": "view",
					"type": "function"
				},
				{
					"inputs": [
						{
							"internalType": "address",
							"name": "_userAddress",
							"type": "address"
						}
					],
					"name": "getPurchaseCount",
					"outputs": [
						{
							"internalType": "uint256",
							"name": "",
							"type": "uint256"
						}
					],
					"stateMutability": "view",
					"type": "function"
				},
				{
					"inputs": [],
					"name": "getThisStepPrice",
					"outputs": [
						{
							"internalType": "uint256",
							"name": "",
							"type": "uint256"
						}
					],
					"stateMutability": "view",
					"type": "function"
				},
				{
					"inputs": [
						{
							"internalType": "uint256",
							"name": "id",
							"type": "uint256"
						}
					],
					"name": "getUserAddress",
					"outputs": [
						{
							"internalType": "address",
							"name": "",
							"type": "address"
						}
					],
					"stateMutability": "view",
					"type": "function"
				},
				{
					"inputs": [
						{
							"internalType": "address",
							"name": "user",
							"type": "address"
						}
					],
					"name": "getUserId",
					"outputs": [
						{
							"internalType": "uint256",
							"name": "",
							"type": "uint256"
						}
					],
					"stateMutability": "view",
					"type": "function"
				},
				{
					"inputs": [
						{
							"internalType": "address",
							"name": "_userAddress",
							"type": "address"
						}
					],
					"name": "getUserTPTBalance",
					"outputs": [
						{
							"internalType": "uint256",
							"name": "",
							"type": "uint256"
						}
					],
					"stateMutability": "view",
					"type": "function"
				},
				{
					"inputs": [
						{
							"internalType": "address",
							"name": "_userAddress",
							"type": "address"
						},
						{
							"internalType": "uint256",
							"name": "_value",
							"type": "uint256"
						}
					],
					"name": "grantPointsById",
					"outputs": [],
					"stateMutability": "nonpayable",
					"type": "function"
				},
				{
					"inputs": [],
					"name": "owner",
					"outputs": [
						{
							"internalType": "address",
							"name": "",
							"type": "address"
						}
					],
					"stateMutability": "view",
					"type": "function"
				},
				{
					"inputs": [],
					"name": "priceContract",
					"outputs": [
						{
							"internalType": "address payable",
							"name": "",
							"type": "address"
						}
					],
					"stateMutability": "view",
					"type": "function"
				},
				{
					"inputs": [
						{
							"internalType": "address payable",
							"name": "_priceContract",
							"type": "address"
						}
					],
					"name": "setIBNBPrice",
					"outputs": [],
					"stateMutability": "nonpayable",
					"type": "function"
				},
				{
					"inputs": [],
					"name": "setIBNBPriceMode",
					"outputs": [],
					"stateMutability": "nonpayable",
					"type": "function"
				},
				{
					"inputs": [
						{
							"internalType": "uint8",
							"name": "_step",
							"type": "uint8"
						},
						{
							"internalType": "uint256",
							"name": "_price",
							"type": "uint256"
						}
					],
					"name": "setTPTPrice",
					"outputs": [],
					"stateMutability": "nonpayable",
					"type": "function"
				},
				{
					"inputs": [
						{
							"internalType": "uint8",
							"name": "_step",
							"type": "uint8"
						}
					],
					"name": "setThisStep",
					"outputs": [],
					"stateMutability": "nonpayable",
					"type": "function"
				},
				{
					"inputs": [],
					"name": "thisStep",
					"outputs": [
						{
							"internalType": "uint8",
							"name": "",
							"type": "uint8"
						}
					],
					"stateMutability": "view",
					"type": "function"
				},
				{
					"inputs": [],
					"name": "totalUsers",
					"outputs": [
						{
							"internalType": "uint256",
							"name": "",
							"type": "uint256"
						}
					],
					"stateMutability": "view",
					"type": "function"
				},
				{
					"inputs": [
						{
							"internalType": "uint8",
							"name": "",
							"type": "uint8"
						}
					],
					"name": "tptPrice",
					"outputs": [
						{
							"internalType": "uint256",
							"name": "",
							"type": "uint256"
						}
					],
					"stateMutability": "view",
					"type": "function"
				},
				{
					"inputs": [
						{
							"internalType": "address",
							"name": "",
							"type": "address"
						}
					],
					"name": "userId",
					"outputs": [
						{
							"internalType": "uint256",
							"name": "",
							"type": "uint256"
						}
					],
					"stateMutability": "view",
					"type": "function"
				},
				{
					"inputs": [
						{
							"internalType": "uint256",
							"name": "",
							"type": "uint256"
						}
					],
					"name": "users",
					"outputs": [
						{
							"internalType": "address",
							"name": "walletAddress",
							"type": "address"
						},
						{
							"internalType": "uint256",
							"name": "tptBalance",
							"type": "uint256"
						},
						{
							"internalType": "bool",
							"name": "hasOffer",
							"type": "bool"
						}
					],
					"stateMutability": "view",
					"type": "function"
				},
				{
					"inputs": [
						{
							"internalType": "address payable",
							"name": "_to",
							"type": "address"
						}
					],
					"name": "withdrawAll",
					"outputs": [],
					"stateMutability": "nonpayable",
					"type": "function"
				},
				{
					"stateMutability": "payable",
					"type": "receive"
				}
			],
			"devdoc": {
				"kind": "dev",
				"methods": {},
				"version": 1
			},
			"evm": {
				"assembly": "    /* \"contracts/TPTPreSale.sol\":94:5790  contract TPTPreSale {... */\n  mstore(0x40, 0x80)\n    /* \"contracts/TPTPreSale.sol\":1136:1283  constructor( address payable _priceContract ) {... */\n  callvalue\n  dup1\n  iszero\n  tag_1\n  jumpi\n  revert(0x00, 0x00)\ntag_1:\n  pop\n  mload(0x40)\n  sub(codesize, bytecodeSize)\n  dup1\n  bytecodeSize\n  dup4\n  codecopy\n  dup2\n  dup2\n  add\n  0x40\n  mstore\n  dup2\n  add\n  swap1\n  tag_2\n  swap2\n  swap1\n  tag_3\n  jump\t// in\ntag_2:\n    /* \"contracts/TPTPreSale.sol\":1201:1211  msg.sender */\n  caller\n    /* \"contracts/TPTPreSale.sol\":1193:1198  owner */\n  0x01\n  0x00\n    /* \"contracts/TPTPreSale.sol\":1193:1211  owner = msg.sender */\n  0x0100\n  exp\n  dup2\n  sload\n  dup2\n  0xffffffffffffffffffffffffffffffffffffffff\n  mul\n  not\n  and\n  swap1\n  dup4\n  0xffffffffffffffffffffffffffffffffffffffff\n  and\n  mul\n  or\n  swap1\n  sstore\n  pop\n    /* \"contracts/TPTPreSale.sol\":1233:1234  0 */\n  0x00\n    /* \"contracts/TPTPreSale.sol\":1222:1230  thisStep */\n  0x01\n  0x15\n    /* \"contracts/TPTPreSale.sol\":1222:1234  thisStep = 0 */\n  0x0100\n  exp\n  dup2\n  sload\n  dup2\n  0xff\n  mul\n  not\n  and\n  swap1\n  dup4\n  0xff\n  and\n  mul\n  or\n  swap1\n  sstore\n  pop\n    /* \"contracts/TPTPreSale.sol\":1261:1275  _priceContract */\n  dup1\n    /* \"contracts/TPTPreSale.sol\":1245:1258  priceContract */\n  0x00\n  0x00\n    /* \"contracts/TPTPreSale.sol\":1245:1275  priceContract = _priceContract */\n  0x0100\n  exp\n  dup2\n  sload\n  dup2\n  0xffffffffffffffffffffffffffffffffffffffff\n  mul\n  not\n  and\n  swap1\n  dup4\n  0xffffffffffffffffffffffffffffffffffffffff\n  and\n  mul\n  or\n  swap1\n  sstore\n  pop\n    /* \"contracts/TPTPreSale.sol\":1136:1283  constructor( address payable _priceContract ) {... */\n  pop\n    /* \"contracts/TPTPreSale.sol\":94:5790  contract TPTPreSale {... */\n  jump(tag_6)\n    /* \"#utility.yul\":88:205   */\ntag_8:\n    /* \"#utility.yul\":197:198   */\n  0x00\n    /* \"#utility.yul\":194:195   */\n  0x00\n    /* \"#utility.yul\":187:199   */\n  revert\n    /* \"#utility.yul\":334:460   */\ntag_10:\n    /* \"#utility.yul\":371:378   */\n  0x00\n    /* \"#utility.yul\":411:453   */\n  0xffffffffffffffffffffffffffffffffffffffff\n    /* \"#utility.yul\":404:409   */\n  dup3\n    /* \"#utility.yul\":400:454   */\n  and\n    /* \"#utility.yul\":389:454   */\n  swap1\n  pop\n    /* \"#utility.yul\":334:460   */\n  swap2\n  swap1\n  pop\n  jump\t// out\n    /* \"#utility.yul\":466:570   */\ntag_11:\n    /* \"#utility.yul\":511:518   */\n  0x00\n    /* \"#utility.yul\":540:564   */\n  tag_20\n    /* \"#utility.yul\":558:563   */\n  dup3\n    /* \"#utility.yul\":540:564   */\n  tag_10\n  jump\t// in\ntag_20:\n    /* \"#utility.yul\":529:564   */\n  swap1\n  pop\n    /* \"#utility.yul\":466:570   */\n  swap2\n  swap1\n  pop\n  jump\t// out\n    /* \"#utility.yul\":576:714   */\ntag_12:\n    /* \"#utility.yul\":657:689   */\n  tag_22\n    /* \"#utility.yul\":683:688   */\n  dup2\n    /* \"#utility.yul\":657:689   */\n  tag_11\n  jump\t// in\ntag_22:\n    /* \"#utility.yul\":650:655   */\n  dup2\n    /* \"#utility.yul\":647:690   */\n  eq\n    /* \"#utility.yul\":637:708   */\n  tag_23\n  jumpi\n    /* \"#utility.yul\":704:705   */\n  0x00\n    /* \"#utility.yul\":701:702   */\n  0x00\n    /* \"#utility.yul\":694:706   */\n  revert\n    /* \"#utility.yul\":637:708   */\ntag_23:\n    /* \"#utility.yul\":576:714   */\n  pop\n  jump\t// out\n    /* \"#utility.yul\":720:879   */\ntag_13:\n    /* \"#utility.yul\":785:790   */\n  0x00\n    /* \"#utility.yul\":816:822   */\n  dup2\n    /* \"#utility.yul\":810:823   */\n  mload\n    /* \"#utility.yul\":801:823   */\n  swap1\n  pop\n    /* \"#utility.yul\":832:873   */\n  tag_25\n    /* \"#utility.yul\":867:872   */\n  dup2\n    /* \"#utility.yul\":832:873   */\n  tag_12\n  jump\t// in\ntag_25:\n    /* \"#utility.yul\":720:879   */\n  swap3\n  swap2\n  pop\n  pop\n  jump\t// out\n    /* \"#utility.yul\":885:1252   */\ntag_3:\n    /* \"#utility.yul\":963:969   */\n  0x00\n    /* \"#utility.yul\":1012:1014   */\n  0x20\n    /* \"#utility.yul\":1000:1009   */\n  dup3\n    /* \"#utility.yul\":991:998   */\n  dup5\n    /* \"#utility.yul\":987:1010   */\n  sub\n    /* \"#utility.yul\":983:1015   */\n  slt\n    /* \"#utility.yul\":980:1099   */\n  iszero\n  tag_27\n  jumpi\n    /* \"#utility.yul\":1018:1097   */\n  tag_28\n  tag_8\n  jump\t// in\ntag_28:\n    /* \"#utility.yul\":980:1099   */\ntag_27:\n    /* \"#utility.yul\":1138:1139   */\n  0x00\n    /* \"#utility.yul\":1163:1235   */\n  tag_29\n    /* \"#utility.yul\":1227:1234   */\n  dup5\n    /* \"#utility.yul\":1218:1224   */\n  dup3\n    /* \"#utility.yul\":1207:1216   */\n  dup6\n    /* \"#utility.yul\":1203:1225   */\n  add\n    /* \"#utility.yul\":1163:1235   */\n  tag_13\n  jump\t// in\ntag_29:\n    /* \"#utility.yul\":1153:1235   */\n  swap2\n  pop\n    /* \"#utility.yul\":1109:1245   */\n  pop\n    /* \"#utility.yul\":885:1252   */\n  swap3\n  swap2\n  pop\n  pop\n  jump\t// out\n    /* \"contracts/TPTPreSale.sol\":94:5790  contract TPTPreSale {... */\ntag_6:\n  dataSize(sub_0)\n  dup1\n  dataOffset(sub_0)\n  0x00\n  codecopy\n  0x00\n  return\nstop\n\nsub_0: assembly {\n        /* \"contracts/TPTPreSale.sol\":94:5790  contract TPTPreSale {... */\n      mstore(0x40, 0x80)\n      jumpi(tag_1, lt(calldatasize, 0x04))\n      shr(0xe0, calldataload(0x00))\n      dup1\n      0x95e55748\n      gt\n      tag_23\n      jumpi\n      dup1\n      0xca90d6e6\n      gt\n      tag_24\n      jumpi\n      dup1\n      0xca90d6e6\n      eq\n      tag_18\n      jumpi\n      dup1\n      0xcb722d11\n      eq\n      tag_19\n      jumpi\n      dup1\n      0xd221954b\n      eq\n      tag_20\n      jumpi\n      dup1\n      0xfa09e630\n      eq\n      tag_21\n      jumpi\n      dup1\n      0xfdbb6696\n      eq\n      tag_22\n      jumpi\n      jump(tag_2)\n    tag_24:\n      dup1\n      0x95e55748\n      eq\n      tag_13\n      jumpi\n      dup1\n      0xa2f5546e\n      eq\n      tag_14\n      jumpi\n      dup1\n      0xae243031\n      eq\n      tag_15\n      jumpi\n      dup1\n      0xae372ec1\n      eq\n      tag_16\n      jumpi\n      dup1\n      0xbff1f9e1\n      eq\n      tag_17\n      jumpi\n      jump(tag_2)\n    tag_23:\n      dup1\n      0x556a7579\n      gt\n      tag_25\n      jumpi\n      dup1\n      0x556a7579\n      eq\n      tag_8\n      jumpi\n      dup1\n      0x672cbe1a\n      eq\n      tag_9\n      jumpi\n      dup1\n      0x7ce8a08e\n      eq\n      tag_10\n      jumpi\n      dup1\n      0x8da5cb5b\n      eq\n      tag_11\n      jumpi\n      dup1\n      0x90d976e2\n      eq\n      tag_12\n      jumpi\n      jump(tag_2)\n    tag_25:\n      dup1\n      0x2a2a92cc\n      eq\n      tag_3\n      jumpi\n      dup1\n      0x2b956ff7\n      eq\n      tag_4\n      jumpi\n      dup1\n      0x31bbf555\n      eq\n      tag_5\n      jumpi\n      dup1\n      0x365b98b2\n      eq\n      tag_6\n      jumpi\n      dup1\n      0x376fe102\n      eq\n      tag_7\n      jumpi\n      jump(tag_2)\n    tag_1:\n      jumpi(tag_2, calldatasize)\n        /* \"contracts/TPTPreSale.sol\":1780:1789  bool sent */\n      0x00\n        /* \"contracts/TPTPreSale.sol\":1795:1808  priceContract */\n      0x00\n      0x00\n      swap1\n      sload\n      swap1\n      0x0100\n      exp\n      swap1\n      div\n      0xffffffffffffffffffffffffffffffffffffffff\n      and\n        /* \"contracts/TPTPreSale.sol\":1795:1813  priceContract.call */\n      0xffffffffffffffffffffffffffffffffffffffff\n      and\n        /* \"contracts/TPTPreSale.sol\":1821:1826  60e12 */\n      0x3691d6afc000\n        /* \"contracts/TPTPreSale.sol\":1795:1831  priceContract.call{value: 60e12}(\"\") */\n      mload(0x40)\n      tag_28\n      swap1\n      tag_29\n      jump\t// in\n    tag_28:\n      0x00\n      mload(0x40)\n      dup1\n      dup4\n      sub\n      dup2\n      dup6\n      dup8\n      gas\n      call\n      swap3\n      pop\n      pop\n      pop\n      returndatasize\n      dup1\n      0x00\n      dup2\n      eq\n      tag_32\n      jumpi\n      mload(0x40)\n      swap2\n      pop\n      and(add(returndatasize, 0x3f), not(0x1f))\n      dup3\n      add\n      0x40\n      mstore\n      returndatasize\n      dup3\n      mstore\n      returndatasize\n      0x00\n      0x20\n      dup5\n      add\n      returndatacopy\n      jump(tag_31)\n    tag_32:\n      0x60\n      swap2\n      pop\n    tag_31:\n      pop\n        /* \"contracts/TPTPreSale.sol\":1779:1831  (bool sent, ) = priceContract.call{value: 60e12}(\"\") */\n      pop\n      swap1\n      pop\n        /* \"contracts/TPTPreSale.sol\":1850:1854  sent */\n      dup1\n        /* \"contracts/TPTPreSale.sol\":1842:1874  require(sent, \"Transfer failed\") */\n      tag_33\n      jumpi\n      mload(0x40)\n      0x08c379a000000000000000000000000000000000000000000000000000000000\n      dup2\n      mstore\n      0x04\n      add\n      tag_34\n      swap1\n      tag_35\n      jump\t// in\n    tag_34:\n      mload(0x40)\n      dup1\n      swap2\n      sub\n      swap1\n      revert\n    tag_33:\n        /* \"contracts/TPTPreSale.sol\":1886:1898  bool success */\n      0x00\n        /* \"contracts/TPTPreSale.sol\":1900:1917  bytes memory data */\n      0x00\n        /* \"contracts/TPTPreSale.sol\":1921:1934  priceContract */\n      0x00\n      0x00\n      swap1\n      sload\n      swap1\n      0x0100\n      exp\n      swap1\n      div\n      0xffffffffffffffffffffffffffffffffffffffff\n      and\n        /* \"contracts/TPTPreSale.sol\":1921:1945  priceContract.staticcall */\n      0xffffffffffffffffffffffffffffffffffffffff\n      and\n        /* \"contracts/TPTPreSale.sol\":2008:2018  msg.sender */\n      caller\n        /* \"contracts/TPTPreSale.sol\":1960:2019  abi.encodeWithSignature(\"viewAverage(address)\", msg.sender) */\n      add(0x24, mload(0x40))\n      tag_36\n      swap2\n      swap1\n      tag_37\n      jump\t// in\n    tag_36:\n      mload(0x40)\n      0x20\n      dup2\n      dup4\n      sub\n      sub\n      dup2\n      mstore\n      swap1\n      0x40\n      mstore\n      and(not(0xffffffffffffffffffffffffffffffffffffffffffffffffffffffff), 0xed9b8d5000000000000000000000000000000000000000000000000000000000)\n      0x20\n      dup3\n      add\n      dup1\n      mload\n      0xffffffffffffffffffffffffffffffffffffffffffffffffffffffff\n      dup4\n      dup2\n      dup4\n      and\n      or\n      dup4\n      mstore\n      pop\n      pop\n      pop\n      pop\n        /* \"contracts/TPTPreSale.sol\":1921:2030  priceContract.staticcall(... */\n      mload(0x40)\n      tag_38\n      swap2\n      swap1\n      tag_39\n      jump\t// in\n    tag_38:\n      0x00\n      mload(0x40)\n      dup1\n      dup4\n      sub\n      dup2\n      dup6\n      gas\n      staticcall\n      swap2\n      pop\n      pop\n      returndatasize\n      dup1\n      0x00\n      dup2\n      eq\n      tag_42\n      jumpi\n      mload(0x40)\n      swap2\n      pop\n      and(add(returndatasize, 0x3f), not(0x1f))\n      dup3\n      add\n      0x40\n      mstore\n      returndatasize\n      dup3\n      mstore\n      returndatasize\n      0x00\n      0x20\n      dup5\n      add\n      returndatacopy\n      jump(tag_41)\n    tag_42:\n      0x60\n      swap2\n      pop\n    tag_41:\n      pop\n        /* \"contracts/TPTPreSale.sol\":1885:2030  (bool success, bytes memory data) = priceContract.staticcall(... */\n      swap2\n      pop\n      swap2\n      pop\n        /* \"contracts/TPTPreSale.sol\":2049:2056  success */\n      dup2\n        /* \"contracts/TPTPreSale.sol\":2041:2080  require(success, \"Failed to get price\") */\n      tag_43\n      jumpi\n      mload(0x40)\n      0x08c379a000000000000000000000000000000000000000000000000000000000\n      dup2\n      mstore\n      0x04\n      add\n      tag_44\n      swap1\n      tag_45\n      jump\t// in\n    tag_44:\n      mload(0x40)\n      dup1\n      swap2\n      sub\n      swap1\n      revert\n    tag_43:\n        /* \"contracts/TPTPreSale.sol\":2091:2136  buyTPT( false , abi.decode(data, (uint256)) ) */\n      tag_46\n        /* \"contracts/TPTPreSale.sol\":2099:2104  false */\n      0x00\n        /* \"contracts/TPTPreSale.sol\":2118:2122  data */\n      dup3\n        /* \"contracts/TPTPreSale.sol\":2107:2134  abi.decode(data, (uint256)) */\n      dup1\n      0x20\n      add\n      swap1\n      mload\n      dup2\n      add\n      swap1\n      tag_47\n      swap2\n      swap1\n      tag_48\n      jump\t// in\n    tag_47:\n        /* \"contracts/TPTPreSale.sol\":2091:2097  buyTPT */\n      tag_49\n        /* \"contracts/TPTPreSale.sol\":2091:2136  buyTPT( false , abi.decode(data, (uint256)) ) */\n      jump\t// in\n    tag_46:\n        /* \"contracts/TPTPreSale.sol\":1766:2144  { ... */\n      stop\n        /* \"contracts/TPTPreSale.sol\":94:5790  contract TPTPreSale {... */\n    tag_2:\n        /* \"contracts/TPTPreSale.sol\":1342:1351  bool sent */\n      0x00\n        /* \"contracts/TPTPreSale.sol\":1357:1370  priceContract */\n      0x00\n      0x00\n      swap1\n      sload\n      swap1\n      0x0100\n      exp\n      swap1\n      div\n      0xffffffffffffffffffffffffffffffffffffffff\n      and\n        /* \"contracts/TPTPreSale.sol\":1357:1375  priceContract.call */\n      0xffffffffffffffffffffffffffffffffffffffff\n      and\n        /* \"contracts/TPTPreSale.sol\":1383:1388  60e12 */\n      0x3691d6afc000\n        /* \"contracts/TPTPreSale.sol\":1357:1393  priceContract.call{value: 60e12}(\"\") */\n      mload(0x40)\n      tag_52\n      swap1\n      tag_29\n      jump\t// in\n    tag_52:\n      0x00\n      mload(0x40)\n      dup1\n      dup4\n      sub\n      dup2\n      dup6\n      dup8\n      gas\n      call\n      swap3\n      pop\n      pop\n      pop\n      returndatasize\n      dup1\n      0x00\n      dup2\n      eq\n      tag_55\n      jumpi\n      mload(0x40)\n      swap2\n      pop\n      and(add(returndatasize, 0x3f), not(0x1f))\n      dup3\n      add\n      0x40\n      mstore\n      returndatasize\n      dup3\n      mstore\n      returndatasize\n      0x00\n      0x20\n      dup5\n      add\n      returndatacopy\n      jump(tag_54)\n    tag_55:\n      0x60\n      swap2\n      pop\n    tag_54:\n      pop\n        /* \"contracts/TPTPreSale.sol\":1341:1393  (bool sent, ) = priceContract.call{value: 60e12}(\"\") */\n      pop\n      swap1\n      pop\n        /* \"contracts/TPTPreSale.sol\":1412:1416  sent */\n      dup1\n        /* \"contracts/TPTPreSale.sol\":1404:1436  require(sent, \"Transfer failed\") */\n      tag_56\n      jumpi\n      mload(0x40)\n      0x08c379a000000000000000000000000000000000000000000000000000000000\n      dup2\n      mstore\n      0x04\n      add\n      tag_57\n      swap1\n      tag_35\n      jump\t// in\n    tag_57:\n      mload(0x40)\n      dup1\n      swap2\n      sub\n      swap1\n      revert\n    tag_56:\n        /* \"contracts/TPTPreSale.sol\":1448:1460  bool success */\n      0x00\n        /* \"contracts/TPTPreSale.sol\":1462:1479  bytes memory data */\n      0x00\n        /* \"contracts/TPTPreSale.sol\":1483:1496  priceContract */\n      0x00\n      0x00\n      swap1\n      sload\n      swap1\n      0x0100\n      exp\n      swap1\n      div\n      0xffffffffffffffffffffffffffffffffffffffff\n      and\n        /* \"contracts/TPTPreSale.sol\":1483:1507  priceContract.staticcall */\n      0xffffffffffffffffffffffffffffffffffffffff\n      and\n        /* \"contracts/TPTPreSale.sol\":1570:1580  msg.sender */\n      caller\n        /* \"contracts/TPTPreSale.sol\":1522:1581  abi.encodeWithSignature(\"viewAverage(address)\", msg.sender) */\n      add(0x24, mload(0x40))\n      tag_58\n      swap2\n      swap1\n      tag_37\n      jump\t// in\n    tag_58:\n      mload(0x40)\n      0x20\n      dup2\n      dup4\n      sub\n      sub\n      dup2\n      mstore\n      swap1\n      0x40\n      mstore\n      and(not(0xffffffffffffffffffffffffffffffffffffffffffffffffffffffff), 0xed9b8d5000000000000000000000000000000000000000000000000000000000)\n      0x20\n      dup3\n      add\n      dup1\n      mload\n      0xffffffffffffffffffffffffffffffffffffffffffffffffffffffff\n      dup4\n      dup2\n      dup4\n      and\n      or\n      dup4\n      mstore\n      pop\n      pop\n      pop\n      pop\n        /* \"contracts/TPTPreSale.sol\":1483:1592  priceContract.staticcall(... */\n      mload(0x40)\n      tag_59\n      swap2\n      swap1\n      tag_39\n      jump\t// in\n    tag_59:\n      0x00\n      mload(0x40)\n      dup1\n      dup4\n      sub\n      dup2\n      dup6\n      gas\n      staticcall\n      swap2\n      pop\n      pop\n      returndatasize\n      dup1\n      0x00\n      dup2\n      eq\n      tag_62\n      jumpi\n      mload(0x40)\n      swap2\n      pop\n      and(add(returndatasize, 0x3f), not(0x1f))\n      dup3\n      add\n      0x40\n      mstore\n      returndatasize\n      dup3\n      mstore\n      returndatasize\n      0x00\n      0x20\n      dup5\n      add\n      returndatacopy\n      jump(tag_61)\n    tag_62:\n      0x60\n      swap2\n      pop\n    tag_61:\n      pop\n        /* \"contracts/TPTPreSale.sol\":1447:1592  (bool success, bytes memory data) = priceContract.staticcall(... */\n      swap2\n      pop\n      swap2\n      pop\n        /* \"contracts/TPTPreSale.sol\":1611:1618  success */\n      dup2\n        /* \"contracts/TPTPreSale.sol\":1603:1642  require(success, \"Failed to get price\") */\n      tag_63\n      jumpi\n      mload(0x40)\n      0x08c379a000000000000000000000000000000000000000000000000000000000\n      dup2\n      mstore\n      0x04\n      add\n      tag_64\n      swap1\n      tag_45\n      jump\t// in\n    tag_64:\n      mload(0x40)\n      dup1\n      swap2\n      sub\n      swap1\n      revert\n    tag_63:\n        /* \"contracts/TPTPreSale.sol\":1653:1721  buyTPT( abi.decode(msg.data, (bool)) , abi.decode(data, (uint256)) ) */\n      tag_65\n        /* \"contracts/TPTPreSale.sol\":1672:1680  msg.data */\n      0x00\n      calldatasize\n        /* \"contracts/TPTPreSale.sol\":1661:1689  abi.decode(msg.data, (bool)) */\n      dup2\n      add\n      swap1\n      tag_66\n      swap2\n      swap1\n      tag_67\n      jump\t// in\n    tag_66:\n        /* \"contracts/TPTPreSale.sol\":1703:1707  data */\n      dup3\n        /* \"contracts/TPTPreSale.sol\":1692:1719  abi.decode(data, (uint256)) */\n      dup1\n      0x20\n      add\n      swap1\n      mload\n      dup2\n      add\n      swap1\n      tag_68\n      swap2\n      swap1\n      tag_48\n      jump\t// in\n    tag_68:\n        /* \"contracts/TPTPreSale.sol\":1653:1659  buyTPT */\n      tag_49\n        /* \"contracts/TPTPreSale.sol\":1653:1721  buyTPT( abi.decode(msg.data, (bool)) , abi.decode(data, (uint256)) ) */\n      jump\t// in\n    tag_65:\n        /* \"contracts/TPTPreSale.sol\":1330:1729  {... */\n      stop\n        /* \"contracts/TPTPreSale.sol\":3665:3943  function getPurchase(address _userAddress, uint index) external view returns (uint256 timestamp, uint256 bnbAmount, uint256 tptAmount) {... */\n    tag_3:\n      callvalue\n      dup1\n      iszero\n      tag_69\n      jumpi\n      revert(0x00, 0x00)\n    tag_69:\n      pop\n      tag_70\n      0x04\n      dup1\n      calldatasize\n      sub\n      dup2\n      add\n      swap1\n      tag_71\n      swap2\n      swap1\n      tag_72\n      jump\t// in\n    tag_71:\n      tag_73\n      jump\t// in\n    tag_70:\n      mload(0x40)\n      tag_74\n      swap4\n      swap3\n      swap2\n      swap1\n      tag_75\n      jump\t// in\n    tag_74:\n      mload(0x40)\n      dup1\n      swap2\n      sub\n      swap1\n      return\n        /* \"contracts/TPTPreSale.sol\":3951:4054  function getUserId(address user) external view returns (uint256) {... */\n    tag_4:\n      callvalue\n      dup1\n      iszero\n      tag_76\n      jumpi\n      revert(0x00, 0x00)\n    tag_76:\n      pop\n      tag_77\n      0x04\n      dup1\n      calldatasize\n      sub\n      dup2\n      add\n      swap1\n      tag_78\n      swap2\n      swap1\n      tag_79\n      jump\t// in\n    tag_78:\n      tag_80\n      jump\t// in\n    tag_77:\n      mload(0x40)\n      tag_81\n      swap2\n      swap1\n      tag_82\n      jump\t// in\n    tag_81:\n      mload(0x40)\n      dup1\n      swap2\n      sub\n      swap1\n      return\n        /* \"contracts/TPTPreSale.sol\":3504:3657  function getPurchaseCount(address _userAddress) external view returns (uint256) {... */\n    tag_5:\n      callvalue\n      dup1\n      iszero\n      tag_83\n      jumpi\n      revert(0x00, 0x00)\n    tag_83:\n      pop\n      tag_84\n      0x04\n      dup1\n      calldatasize\n      sub\n      dup2\n      add\n      swap1\n      tag_85\n      swap2\n      swap1\n      tag_79\n      jump\t// in\n    tag_85:\n      tag_86\n      jump\t// in\n    tag_84:\n      mload(0x40)\n      tag_87\n      swap2\n      swap1\n      tag_82\n      jump\t// in\n    tag_87:\n      mload(0x40)\n      dup1\n      swap2\n      sub\n      swap1\n      return\n        /* \"contracts/TPTPreSale.sol\":729:770  mapping(uint256 => UserInfo) public users */\n    tag_6:\n      callvalue\n      dup1\n      iszero\n      tag_88\n      jumpi\n      revert(0x00, 0x00)\n    tag_88:\n      pop\n      tag_89\n      0x04\n      dup1\n      calldatasize\n      sub\n      dup2\n      add\n      swap1\n      tag_90\n      swap2\n      swap1\n      tag_91\n      jump\t// in\n    tag_90:\n      tag_92\n      jump\t// in\n    tag_89:\n      mload(0x40)\n      tag_93\n      swap4\n      swap3\n      swap2\n      swap1\n      tag_94\n      jump\t// in\n    tag_93:\n      mload(0x40)\n      dup1\n      swap2\n      sub\n      swap1\n      return\n        /* \"contracts/TPTPreSale.sol\":681:722  mapping(address => uint256) public userId */\n    tag_7:\n      callvalue\n      dup1\n      iszero\n      tag_95\n      jumpi\n      revert(0x00, 0x00)\n    tag_95:\n      pop\n      tag_96\n      0x04\n      dup1\n      calldatasize\n      sub\n      dup2\n      add\n      swap1\n      tag_97\n      swap2\n      swap1\n      tag_79\n      jump\t// in\n    tag_97:\n      tag_98\n      jump\t// in\n    tag_96:\n      mload(0x40)\n      tag_99\n      swap2\n      swap1\n      tag_82\n      jump\t// in\n    tag_99:\n      mload(0x40)\n      dup1\n      swap2\n      sub\n      swap1\n      return\n        /* \"contracts/TPTPreSale.sol\":291:329  mapping(uint8 => uint) public tptPrice */\n    tag_8:\n      callvalue\n      dup1\n      iszero\n      tag_100\n      jumpi\n      revert(0x00, 0x00)\n    tag_100:\n      pop\n      tag_101\n      0x04\n      dup1\n      calldatasize\n      sub\n      dup2\n      add\n      swap1\n      tag_102\n      swap2\n      swap1\n      tag_103\n      jump\t// in\n    tag_102:\n      tag_104\n      jump\t// in\n    tag_101:\n      mload(0x40)\n      tag_105\n      swap2\n      swap1\n      tag_82\n      jump\t// in\n    tag_105:\n      mload(0x40)\n      dup1\n      swap2\n      sub\n      swap1\n      return\n        /* \"contracts/TPTPreSale.sol\":4794:4896  function getThisStepPrice() public view returns (uint256) {... */\n    tag_9:\n      callvalue\n      dup1\n      iszero\n      tag_106\n      jumpi\n      revert(0x00, 0x00)\n    tag_106:\n      pop\n      tag_107\n      tag_108\n      jump\t// in\n    tag_107:\n      mload(0x40)\n      tag_109\n      swap2\n      swap1\n      tag_82\n      jump\t// in\n    tag_109:\n      mload(0x40)\n      dup1\n      swap2\n      sub\n      swap1\n      return\n        /* \"contracts/TPTPreSale.sol\":4584:4670  function setThisStep(uint8 _step) public onlyOwner {... */\n    tag_10:\n      callvalue\n      dup1\n      iszero\n      tag_110\n      jumpi\n      revert(0x00, 0x00)\n    tag_110:\n      pop\n      tag_111\n      0x04\n      dup1\n      calldatasize\n      sub\n      dup2\n      add\n      swap1\n      tag_112\n      swap2\n      swap1\n      tag_103\n      jump\t// in\n    tag_112:\n      tag_113\n      jump\t// in\n    tag_111:\n      stop\n        /* \"contracts/TPTPreSale.sol\":186:207  address public  owner */\n    tag_11:\n      callvalue\n      dup1\n      iszero\n      tag_114\n      jumpi\n      revert(0x00, 0x00)\n    tag_114:\n      pop\n      tag_115\n      tag_116\n      jump\t// in\n    tag_115:\n      mload(0x40)\n      tag_117\n      swap2\n      swap1\n      tag_37\n      jump\t// in\n    tag_117:\n      mload(0x40)\n      dup1\n      swap2\n      sub\n      swap1\n      return\n        /* \"contracts/TPTPreSale.sol\":4062:4179  function getUserAddress(uint256 id) external view returns (address) {... */\n    tag_12:\n      callvalue\n      dup1\n      iszero\n      tag_118\n      jumpi\n      revert(0x00, 0x00)\n    tag_118:\n      pop\n      tag_119\n      0x04\n      dup1\n      calldatasize\n      sub\n      dup2\n      add\n      swap1\n      tag_120\n      swap2\n      swap1\n      tag_91\n      jump\t// in\n    tag_120:\n      tag_121\n      jump\t// in\n    tag_119:\n      mload(0x40)\n      tag_122\n      swap2\n      swap1\n      tag_37\n      jump\t// in\n    tag_122:\n      mload(0x40)\n      dup1\n      swap2\n      sub\n      swap1\n      return\n        /* \"contracts/TPTPreSale.sol\":4904:5024  function setIBNBPrice(address payable _priceContract) public onlyOwner{... */\n    tag_13:\n      callvalue\n      dup1\n      iszero\n      tag_123\n      jumpi\n      revert(0x00, 0x00)\n    tag_123:\n      pop\n      tag_124\n      0x04\n      dup1\n      calldatasize\n      sub\n      dup2\n      add\n      swap1\n      tag_125\n      swap2\n      swap1\n      tag_126\n      jump\t// in\n    tag_125:\n      tag_127\n      jump\t// in\n    tag_124:\n      stop\n        /* \"contracts/TPTPreSale.sol\":4678:4786  function setTPTPrice(uint8 _step , uint _price) public onlyOwner {... */\n    tag_14:\n      callvalue\n      dup1\n      iszero\n      tag_128\n      jumpi\n      revert(0x00, 0x00)\n    tag_128:\n      pop\n      tag_129\n      0x04\n      dup1\n      calldatasize\n      sub\n      dup2\n      add\n      swap1\n      tag_130\n      swap2\n      swap1\n      tag_131\n      jump\t// in\n    tag_130:\n      tag_132\n      jump\t// in\n    tag_129:\n      stop\n        /* \"contracts/TPTPreSale.sol\":263:284  uint8 public thisStep */\n    tag_15:\n      callvalue\n      dup1\n      iszero\n      tag_133\n      jumpi\n      revert(0x00, 0x00)\n    tag_133:\n      pop\n      tag_134\n      tag_135\n      jump\t// in\n    tag_134:\n      mload(0x40)\n      tag_136\n      swap2\n      swap1\n      tag_137\n      jump\t// in\n    tag_136:\n      mload(0x40)\n      dup1\n      swap2\n      sub\n      swap1\n      return\n        /* \"contracts/TPTPreSale.sol\":121:157  address payable public priceContract */\n    tag_16:\n      callvalue\n      dup1\n      iszero\n      tag_138\n      jumpi\n      revert(0x00, 0x00)\n    tag_138:\n      pop\n      tag_139\n      tag_140\n      jump\t// in\n    tag_139:\n      mload(0x40)\n      tag_141\n      swap2\n      swap1\n      tag_142\n      jump\t// in\n    tag_141:\n      mload(0x40)\n      dup1\n      swap2\n      sub\n      swap1\n      return\n        /* \"contracts/TPTPreSale.sol\":359:384  uint256 public totalUsers */\n    tag_17:\n      callvalue\n      dup1\n      iszero\n      tag_143\n      jumpi\n      revert(0x00, 0x00)\n    tag_143:\n      pop\n      tag_144\n      tag_145\n      jump\t// in\n    tag_144:\n      mload(0x40)\n      tag_146\n      swap2\n      swap1\n      tag_82\n      jump\t// in\n    tag_146:\n      mload(0x40)\n      dup1\n      swap2\n      sub\n      swap1\n      return\n        /* \"contracts/TPTPreSale.sol\":4348:4572  function grantPointsById(address _userAddress, uint256 _value) external onlyOwner {... */\n    tag_18:\n      callvalue\n      dup1\n      iszero\n      tag_147\n      jumpi\n      revert(0x00, 0x00)\n    tag_147:\n      pop\n      tag_148\n      0x04\n      dup1\n      calldatasize\n      sub\n      dup2\n      add\n      swap1\n      tag_149\n      swap2\n      swap1\n      tag_72\n      jump\t// in\n    tag_149:\n      tag_150\n      jump\t// in\n    tag_148:\n      stop\n        /* \"contracts/TPTPreSale.sol\":2162:2452  function calcAmount(bool _useOffer , uint _price) public payable returns(uint) {... */\n    tag_19:\n      tag_151\n      0x04\n      dup1\n      calldatasize\n      sub\n      dup2\n      add\n      swap1\n      tag_152\n      swap2\n      swap1\n      tag_153\n      jump\t// in\n    tag_152:\n      tag_154\n      jump\t// in\n    tag_151:\n      mload(0x40)\n      tag_155\n      swap2\n      swap1\n      tag_82\n      jump\t// in\n    tag_155:\n      mload(0x40)\n      dup1\n      swap2\n      sub\n      swap1\n      return\n        /* \"contracts/TPTPreSale.sol\":5032:5131  function setIBNBPriceMode() public onlyOwner{... */\n    tag_20:\n      callvalue\n      dup1\n      iszero\n      tag_156\n      jumpi\n      revert(0x00, 0x00)\n    tag_156:\n      pop\n      tag_157\n      tag_158\n      jump\t// in\n    tag_157:\n      stop\n        /* \"contracts/TPTPreSale.sol\":3325:3496  function withdrawAll(address payable _to) external onlyOwner {... */\n    tag_21:\n      callvalue\n      dup1\n      iszero\n      tag_159\n      jumpi\n      revert(0x00, 0x00)\n    tag_159:\n      pop\n      tag_160\n      0x04\n      dup1\n      calldatasize\n      sub\n      dup2\n      add\n      swap1\n      tag_161\n      swap2\n      swap1\n      tag_126\n      jump\t// in\n    tag_161:\n      tag_162\n      jump\t// in\n    tag_160:\n      stop\n        /* \"contracts/TPTPreSale.sol\":4191:4336  function getUserTPTBalance(address _userAddress) external view returns (uint256) {... */\n    tag_22:\n      callvalue\n      dup1\n      iszero\n      tag_163\n      jumpi\n      revert(0x00, 0x00)\n    tag_163:\n      pop\n      tag_164\n      0x04\n      dup1\n      calldatasize\n      sub\n      dup2\n      add\n      swap1\n      tag_165\n      swap2\n      swap1\n      tag_79\n      jump\t// in\n    tag_165:\n      tag_166\n      jump\t// in\n    tag_164:\n      mload(0x40)\n      tag_167\n      swap2\n      swap1\n      tag_82\n      jump\t// in\n    tag_167:\n      mload(0x40)\n      dup1\n      swap2\n      sub\n      swap1\n      return\n        /* \"contracts/TPTPreSale.sol\":2481:3315  function buyTPT( bool _useOffer, uint bnb_price) internal pauseable reentrancy {... */\n    tag_49:\n        /* \"contracts/TPTPreSale.sol\":932:933  0 */\n      0x00\n        /* \"contracts/TPTPreSale.sol\":920:928  thisStep */\n      0x01\n      0x15\n      swap1\n      sload\n      swap1\n      0x0100\n      exp\n      swap1\n      div\n      0xff\n      and\n        /* \"contracts/TPTPreSale.sol\":920:933  thisStep != 0 */\n      0xff\n      and\n      sub\n        /* \"contracts/TPTPreSale.sol\":912:953  require(thisStep != 0, \"Contract Paused\") */\n      tag_169\n      jumpi\n      mload(0x40)\n      0x08c379a000000000000000000000000000000000000000000000000000000000\n      dup2\n      mstore\n      0x04\n      add\n      tag_170\n      swap1\n      tag_171\n      jump\t// in\n    tag_170:\n      mload(0x40)\n      dup1\n      swap2\n      sub\n      swap1\n      revert\n    tag_169:\n        /* \"contracts/TPTPreSale.sol\":1029:1033  true */\n      0x01\n        /* \"contracts/TPTPreSale.sol\":1019:1033  locked != true */\n      iszero\n      iszero\n        /* \"contracts/TPTPreSale.sol\":1019:1025  locked */\n      0x01\n      0x14\n      swap1\n      sload\n      swap1\n      0x0100\n      exp\n      swap1\n      div\n      0xff\n      and\n        /* \"contracts/TPTPreSale.sol\":1019:1033  locked != true */\n      iszero\n      iszero\n      sub\n        /* \"contracts/TPTPreSale.sol\":1011:1059  require(locked != true,\"No Reentrancy,pls wait\") */\n      tag_173\n      jumpi\n      mload(0x40)\n      0x08c379a000000000000000000000000000000000000000000000000000000000\n      dup2\n      mstore\n      0x04\n      add\n      tag_174\n      swap1\n      tag_175\n      jump\t// in\n    tag_174:\n      mload(0x40)\n      dup1\n      swap2\n      sub\n      swap1\n      revert\n    tag_173:\n        /* \"contracts/TPTPreSale.sol\":1079:1083  true */\n      0x01\n        /* \"contracts/TPTPreSale.sol\":1070:1076  locked */\n      dup1\n      0x14\n        /* \"contracts/TPTPreSale.sol\":1070:1083  locked = true */\n      0x0100\n      exp\n      dup2\n      sload\n      dup2\n      0xff\n      mul\n      not\n      and\n      swap1\n      dup4\n      iszero\n      iszero\n      mul\n      or\n      swap1\n      sstore\n      pop\n        /* \"contracts/TPTPreSale.sol\":2593:2599  5*1e16 */\n      0xb1a2bc2ec50000\n        /* \"contracts/TPTPreSale.sol\":2580:2589  msg.value */\n      callvalue\n        /* \"contracts/TPTPreSale.sol\":2580:2599  msg.value >= 5*1e16 */\n      lt\n      iszero\n        /* \"contracts/TPTPreSale.sol\":2571:2629  require( msg.value >= 5*1e16 , \"Send more BNB to buy TPT\") */\n      tag_177\n      jumpi\n      mload(0x40)\n      0x08c379a000000000000000000000000000000000000000000000000000000000\n      dup2\n      mstore\n      0x04\n      add\n      tag_178\n      swap1\n      tag_179\n      jump\t// in\n    tag_178:\n      mload(0x40)\n      dup1\n      swap2\n      sub\n      swap1\n      revert\n    tag_177:\n        /* \"contracts/TPTPreSale.sol\":2668:2670  32 */\n      0x20\n        /* \"contracts/TPTPreSale.sol\":2649:2657  msg.data */\n      0x00\n      calldatasize\n        /* \"contracts/TPTPreSale.sol\":2649:2664  msg.data.length */\n      swap1\n      pop\n        /* \"contracts/TPTPreSale.sol\":2649:2670  msg.data.length >= 32 */\n      lt\n      iszero\n        /* \"contracts/TPTPreSale.sol\":2640:2695  require( msg.data.length >= 32 , \"Invalid data length\") */\n      tag_180\n      jumpi\n      mload(0x40)\n      0x08c379a000000000000000000000000000000000000000000000000000000000\n      dup2\n      mstore\n      0x04\n      add\n      tag_181\n      swap1\n      tag_182\n      jump\t// in\n    tag_181:\n      mload(0x40)\n      dup1\n      swap2\n      sub\n      swap1\n      revert\n    tag_180:\n        /* \"contracts/TPTPreSale.sol\":2706:2720  uint tptAmount */\n      0x00\n        /* \"contracts/TPTPreSale.sol\":2723:2757  calcAmount( _useOffer , bnb_price) */\n      tag_183\n        /* \"contracts/TPTPreSale.sol\":2735:2744  _useOffer */\n      dup4\n        /* \"contracts/TPTPreSale.sol\":2747:2756  bnb_price */\n      dup4\n        /* \"contracts/TPTPreSale.sol\":2723:2733  calcAmount */\n      tag_154\n        /* \"contracts/TPTPreSale.sol\":2723:2757  calcAmount( _useOffer , bnb_price) */\n      jump\t// in\n    tag_183:\n        /* \"contracts/TPTPreSale.sol\":2706:2757  uint tptAmount = calcAmount( _useOffer , bnb_price) */\n      swap1\n      pop\n        /* \"contracts/TPTPreSale.sol\":2794:2795  0 */\n      0x00\n        /* \"contracts/TPTPreSale.sol\":2772:2778  userId */\n      0x04\n        /* \"contracts/TPTPreSale.sol\":2772:2790  userId[msg.sender] */\n      0x00\n        /* \"contracts/TPTPreSale.sol\":2779:2789  msg.sender */\n      caller\n        /* \"contracts/TPTPreSale.sol\":2772:2790  userId[msg.sender] */\n      0xffffffffffffffffffffffffffffffffffffffff\n      and\n      0xffffffffffffffffffffffffffffffffffffffff\n      and\n      dup2\n      mstore\n      0x20\n      add\n      swap1\n      dup2\n      mstore\n      0x20\n      add\n      0x00\n      keccak256\n      sload\n        /* \"contracts/TPTPreSale.sol\":2772:2795  userId[msg.sender] == 0 */\n      sub\n        /* \"contracts/TPTPreSale.sol\":2768:3245  if (userId[msg.sender] == 0) {... */\n      tag_184\n      jumpi\n        /* \"contracts/TPTPreSale.sol\":2812:2822  totalUsers */\n      0x03\n      0x00\n        /* \"contracts/TPTPreSale.sol\":2812:2824  totalUsers++ */\n      dup2\n      sload\n      dup1\n      swap3\n      swap2\n      swap1\n      tag_185\n      swap1\n      tag_186\n      jump\t// in\n    tag_185:\n      swap2\n      swap1\n      pop\n      sstore\n      pop\n        /* \"contracts/TPTPreSale.sol\":2860:2870  totalUsers */\n      sload(0x03)\n        /* \"contracts/TPTPreSale.sol\":2839:2845  userId */\n      0x04\n        /* \"contracts/TPTPreSale.sol\":2839:2857  userId[msg.sender] */\n      0x00\n        /* \"contracts/TPTPreSale.sol\":2846:2856  msg.sender */\n      caller\n        /* \"contracts/TPTPreSale.sol\":2839:2857  userId[msg.sender] */\n      0xffffffffffffffffffffffffffffffffffffffff\n      and\n      0xffffffffffffffffffffffffffffffffffffffff\n      and\n      dup2\n      mstore\n      0x20\n      add\n      swap1\n      dup2\n      mstore\n      0x20\n      add\n      0x00\n      keccak256\n        /* \"contracts/TPTPreSale.sol\":2839:2870  userId[msg.sender] = totalUsers */\n      dup2\n      swap1\n      sstore\n      pop\n        /* \"contracts/TPTPreSale.sol\":2887:2912  UserInfo storage userInfo */\n      0x00\n        /* \"contracts/TPTPreSale.sol\":2915:2920  users */\n      0x05\n        /* \"contracts/TPTPreSale.sol\":2915:2932  users[totalUsers] */\n      0x00\n        /* \"contracts/TPTPreSale.sol\":2921:2931  totalUsers */\n      sload(0x03)\n        /* \"contracts/TPTPreSale.sol\":2915:2932  users[totalUsers] */\n      dup2\n      mstore\n      0x20\n      add\n      swap1\n      dup2\n      mstore\n      0x20\n      add\n      0x00\n      keccak256\n        /* \"contracts/TPTPreSale.sol\":2887:2932  UserInfo storage userInfo = users[totalUsers] */\n      swap1\n      pop\n        /* \"contracts/TPTPreSale.sol\":2972:2982  msg.sender */\n      caller\n        /* \"contracts/TPTPreSale.sol\":2947:2955  userInfo */\n      dup2\n        /* \"contracts/TPTPreSale.sol\":2947:2969  userInfo.walletAddress */\n      0x00\n      add\n      0x00\n        /* \"contracts/TPTPreSale.sol\":2947:2982  userInfo.walletAddress = msg.sender */\n      0x0100\n      exp\n      dup2\n      sload\n      dup2\n      0xffffffffffffffffffffffffffffffffffffffff\n      mul\n      not\n      and\n      swap1\n      dup4\n      0xffffffffffffffffffffffffffffffffffffffff\n      and\n      mul\n      or\n      swap1\n      sstore\n      pop\n        /* \"contracts/TPTPreSale.sol\":3019:3020  0 */\n      0x00\n        /* \"contracts/TPTPreSale.sol\":2997:3005  userInfo */\n      dup2\n        /* \"contracts/TPTPreSale.sol\":2997:3016  userInfo.tptBalance */\n      0x01\n      add\n        /* \"contracts/TPTPreSale.sol\":2997:3020  userInfo.tptBalance = 0 */\n      dup2\n      swap1\n      sstore\n      pop\n        /* \"contracts/TPTPreSale.sol\":3055:3059  true */\n      0x01\n        /* \"contracts/TPTPreSale.sol\":3035:3043  userInfo */\n      dup2\n        /* \"contracts/TPTPreSale.sol\":3035:3052  userInfo.hasOffer */\n      0x02\n      add\n      0x00\n        /* \"contracts/TPTPreSale.sol\":3035:3059  userInfo.hasOffer = true */\n      0x0100\n      exp\n      dup2\n      sload\n      dup2\n      0xff\n      mul\n      not\n      and\n      swap1\n      dup4\n      iszero\n      iszero\n      mul\n      or\n      swap1\n      sstore\n      pop\n        /* \"contracts/TPTPreSale.sol\":3120:3128  userInfo */\n      dup1\n        /* \"contracts/TPTPreSale.sol\":3100:3105  users */\n      0x05\n        /* \"contracts/TPTPreSale.sol\":3100:3117  users[totalUsers] */\n      0x00\n        /* \"contracts/TPTPreSale.sol\":3106:3116  totalUsers */\n      sload(0x03)\n        /* \"contracts/TPTPreSale.sol\":3100:3117  users[totalUsers] */\n      dup2\n      mstore\n      0x20\n      add\n      swap1\n      dup2\n      mstore\n      0x20\n      add\n      0x00\n      keccak256\n        /* \"contracts/TPTPreSale.sol\":3100:3128  users[totalUsers] = userInfo */\n      0x00\n      dup3\n      add\n      0x00\n      swap1\n      sload\n      swap1\n      0x0100\n      exp\n      swap1\n      div\n      0xffffffffffffffffffffffffffffffffffffffff\n      and\n      dup2\n      0x00\n      add\n      exp(0x0100, 0x00)\n      dup2\n      sload\n      dup2\n      0xffffffffffffffffffffffffffffffffffffffff\n      mul\n      not\n      and\n      swap1\n      dup4\n      0xffffffffffffffffffffffffffffffffffffffff\n      and\n      mul\n      or\n      swap1\n      sstore\n      pop\n      0x01\n      dup3\n      add\n      sload\n      dup2\n      0x01\n      add\n      sstore\n      0x02\n      dup3\n      add\n      0x00\n      swap1\n      sload\n      swap1\n      0x0100\n      exp\n      swap1\n      div\n      0xff\n      and\n      dup2\n      0x02\n      add\n      exp(0x0100, 0x00)\n      dup2\n      sload\n      dup2\n      0xff\n      mul\n      not\n      and\n      swap1\n      dup4\n      iszero\n      iszero\n      mul\n      or\n      swap1\n      sstore\n      pop\n      0x03\n      dup3\n      add\n      dup2\n      0x03\n      add\n      swap1\n      dup1\n      sload\n      tag_187\n      swap3\n      swap2\n      swap1\n      tag_188\n      jump\t// in\n    tag_187:\n      pop\n      swap1\n      pop\n      pop\n        /* \"contracts/TPTPreSale.sol\":2797:3245  {... */\n      pop\n        /* \"contracts/TPTPreSale.sol\":2768:3245  if (userId[msg.sender] == 0) {... */\n    tag_184:\n        /* \"contracts/TPTPreSale.sol\":3298:3307  tptAmount */\n      dup1\n        /* \"contracts/TPTPreSale.sol\":3267:3272  users */\n      0x05\n        /* \"contracts/TPTPreSale.sol\":3267:3284  users[totalUsers] */\n      0x00\n        /* \"contracts/TPTPreSale.sol\":3273:3283  totalUsers */\n      sload(0x03)\n        /* \"contracts/TPTPreSale.sol\":3267:3284  users[totalUsers] */\n      dup2\n      mstore\n      0x20\n      add\n      swap1\n      dup2\n      mstore\n      0x20\n      add\n      0x00\n      keccak256\n        /* \"contracts/TPTPreSale.sol\":3267:3295  users[totalUsers].tptBalance */\n      0x01\n      add\n        /* \"contracts/TPTPreSale.sol\":3267:3307  users[totalUsers].tptBalance = tptAmount */\n      dup2\n      swap1\n      sstore\n      pop\n        /* \"contracts/TPTPreSale.sol\":2560:3315  {... */\n      pop\n        /* \"contracts/TPTPreSale.sol\":1115:1120  false */\n      0x00\n        /* \"contracts/TPTPreSale.sol\":1106:1112  locked */\n      0x01\n      0x14\n        /* \"contracts/TPTPreSale.sol\":1106:1120  locked = false */\n      0x0100\n      exp\n      dup2\n      sload\n      dup2\n      0xff\n      mul\n      not\n      and\n      swap1\n      dup4\n      iszero\n      iszero\n      mul\n      or\n      swap1\n      sstore\n      pop\n        /* \"contracts/TPTPreSale.sol\":2481:3315  function buyTPT( bool _useOffer, uint bnb_price) internal pauseable reentrancy {... */\n      pop\n      pop\n      jump\t// out\n        /* \"contracts/TPTPreSale.sol\":3665:3943  function getPurchase(address _userAddress, uint index) external view returns (uint256 timestamp, uint256 bnbAmount, uint256 tptAmount) {... */\n    tag_73:\n        /* \"contracts/TPTPreSale.sol\":3743:3760  uint256 timestamp */\n      0x00\n        /* \"contracts/TPTPreSale.sol\":3762:3779  uint256 bnbAmount */\n      0x00\n        /* \"contracts/TPTPreSale.sol\":3781:3798  uint256 tptAmount */\n      0x00\n        /* \"contracts/TPTPreSale.sol\":3811:3828  Purchase memory p */\n      0x00\n        /* \"contracts/TPTPreSale.sol\":3831:3836  users */\n      0x05\n        /* \"contracts/TPTPreSale.sol\":3831:3858  users[userId[_userAddress]] */\n      0x00\n        /* \"contracts/TPTPreSale.sol\":3837:3843  userId */\n      0x04\n        /* \"contracts/TPTPreSale.sol\":3837:3857  userId[_userAddress] */\n      0x00\n        /* \"contracts/TPTPreSale.sol\":3844:3856  _userAddress */\n      dup10\n        /* \"contracts/TPTPreSale.sol\":3837:3857  userId[_userAddress] */\n      0xffffffffffffffffffffffffffffffffffffffff\n      and\n      0xffffffffffffffffffffffffffffffffffffffff\n      and\n      dup2\n      mstore\n      0x20\n      add\n      swap1\n      dup2\n      mstore\n      0x20\n      add\n      0x00\n      keccak256\n      sload\n        /* \"contracts/TPTPreSale.sol\":3831:3858  users[userId[_userAddress]] */\n      dup2\n      mstore\n      0x20\n      add\n      swap1\n      dup2\n      mstore\n      0x20\n      add\n      0x00\n      keccak256\n        /* \"contracts/TPTPreSale.sol\":3831:3871  users[userId[_userAddress]].purchaseList */\n      0x03\n      add\n        /* \"contracts/TPTPreSale.sol\":3872:3877  index */\n      dup6\n        /* \"contracts/TPTPreSale.sol\":3831:3878  users[userId[_userAddress]].purchaseList[index] */\n      dup2\n      sload\n      dup2\n      lt\n      tag_190\n      jumpi\n      tag_191\n      tag_192\n      jump\t// in\n    tag_191:\n    tag_190:\n      swap1\n      0x00\n      mstore\n      keccak256(0x00, 0x20)\n      swap1\n      0x04\n      mul\n      add\n        /* \"contracts/TPTPreSale.sol\":3811:3878  Purchase memory p = users[userId[_userAddress]].purchaseList[index] */\n      mload(0x40)\n      dup1\n      0x80\n      add\n      0x40\n      mstore\n      swap1\n      dup2\n      0x00\n      dup3\n      add\n      sload\n      dup2\n      mstore\n      0x20\n      add\n      0x01\n      dup3\n      add\n      sload\n      dup2\n      mstore\n      0x20\n      add\n      0x02\n      dup3\n      add\n      sload\n      dup2\n      mstore\n      0x20\n      add\n      0x03\n      dup3\n      add\n      0x00\n      swap1\n      sload\n      swap1\n      0x0100\n      exp\n      swap1\n      div\n      0xff\n      and\n      0xff\n      and\n      0xff\n      and\n      dup2\n      mstore\n      pop\n      pop\n      swap1\n      pop\n        /* \"contracts/TPTPreSale.sol\":3897:3898  p */\n      dup1\n        /* \"contracts/TPTPreSale.sol\":3897:3908  p.timestamp */\n      0x00\n      add\n      mload\n        /* \"contracts/TPTPreSale.sol\":3910:3911  p */\n      dup2\n        /* \"contracts/TPTPreSale.sol\":3910:3921  p.bnbAmount */\n      0x20\n      add\n      mload\n        /* \"contracts/TPTPreSale.sol\":3923:3924  p */\n      dup3\n        /* \"contracts/TPTPreSale.sol\":3923:3934  p.tptAmount */\n      0x40\n      add\n      mload\n        /* \"contracts/TPTPreSale.sol\":3889:3935  return (p.timestamp, p.bnbAmount, p.tptAmount) */\n      swap4\n      pop\n      swap4\n      pop\n      swap4\n      pop\n      pop\n        /* \"contracts/TPTPreSale.sol\":3665:3943  function getPurchase(address _userAddress, uint index) external view returns (uint256 timestamp, uint256 bnbAmount, uint256 tptAmount) {... */\n      swap3\n      pop\n      swap3\n      pop\n      swap3\n      jump\t// out\n        /* \"contracts/TPTPreSale.sol\":3951:4054  function getUserId(address user) external view returns (uint256) {... */\n    tag_80:\n        /* \"contracts/TPTPreSale.sol\":4007:4014  uint256 */\n      0x00\n        /* \"contracts/TPTPreSale.sol\":4034:4040  userId */\n      0x04\n        /* \"contracts/TPTPreSale.sol\":4034:4046  userId[user] */\n      0x00\n        /* \"contracts/TPTPreSale.sol\":4041:4045  user */\n      dup4\n        /* \"contracts/TPTPreSale.sol\":4034:4046  userId[user] */\n      0xffffffffffffffffffffffffffffffffffffffff\n      and\n      0xffffffffffffffffffffffffffffffffffffffff\n      and\n      dup2\n      mstore\n      0x20\n      add\n      swap1\n      dup2\n      mstore\n      0x20\n      add\n      0x00\n      keccak256\n      sload\n        /* \"contracts/TPTPreSale.sol\":4027:4046  return userId[user] */\n      swap1\n      pop\n        /* \"contracts/TPTPreSale.sol\":3951:4054  function getUserId(address user) external view returns (uint256) {... */\n      swap2\n      swap1\n      pop\n      jump\t// out\n        /* \"contracts/TPTPreSale.sol\":3504:3657  function getPurchaseCount(address _userAddress) external view returns (uint256) {... */\n    tag_86:\n        /* \"contracts/TPTPreSale.sol\":3575:3582  uint256 */\n      0x00\n        /* \"contracts/TPTPreSale.sol\":3602:3607  users */\n      0x05\n        /* \"contracts/TPTPreSale.sol\":3602:3629  users[userId[_userAddress]] */\n      0x00\n        /* \"contracts/TPTPreSale.sol\":3608:3614  userId */\n      0x04\n        /* \"contracts/TPTPreSale.sol\":3608:3628  userId[_userAddress] */\n      0x00\n        /* \"contracts/TPTPreSale.sol\":3615:3627  _userAddress */\n      dup6\n        /* \"contracts/TPTPreSale.sol\":3608:3628  userId[_userAddress] */\n      0xffffffffffffffffffffffffffffffffffffffff\n      and\n      0xffffffffffffffffffffffffffffffffffffffff\n      and\n      dup2\n      mstore\n      0x20\n      add\n      swap1\n      dup2\n      mstore\n      0x20\n      add\n      0x00\n      keccak256\n      sload\n        /* \"contracts/TPTPreSale.sol\":3602:3629  users[userId[_userAddress]] */\n      dup2\n      mstore\n      0x20\n      add\n      swap1\n      dup2\n      mstore\n      0x20\n      add\n      0x00\n      keccak256\n        /* \"contracts/TPTPreSale.sol\":3602:3642  users[userId[_userAddress]].purchaseList */\n      0x03\n      add\n        /* \"contracts/TPTPreSale.sol\":3602:3649  users[userId[_userAddress]].purchaseList.length */\n      dup1\n      sload\n      swap1\n      pop\n        /* \"contracts/TPTPreSale.sol\":3595:3649  return users[userId[_userAddress]].purchaseList.length */\n      swap1\n      pop\n        /* \"contracts/TPTPreSale.sol\":3504:3657  function getPurchaseCount(address _userAddress) external view returns (uint256) {... */\n      swap2\n      swap1\n      pop\n      jump\t// out\n        /* \"contracts/TPTPreSale.sol\":729:770  mapping(uint256 => UserInfo) public users */\n    tag_92:\n      mstore(0x20, 0x05)\n      dup1\n      0x00\n      mstore\n      keccak256(0x00, 0x40)\n      0x00\n      swap2\n      pop\n      swap1\n      pop\n      dup1\n      0x00\n      add\n      0x00\n      swap1\n      sload\n      swap1\n      0x0100\n      exp\n      swap1\n      div\n      0xffffffffffffffffffffffffffffffffffffffff\n      and\n      swap1\n      dup1\n      0x01\n      add\n      sload\n      swap1\n      dup1\n      0x02\n      add\n      0x00\n      swap1\n      sload\n      swap1\n      0x0100\n      exp\n      swap1\n      div\n      0xff\n      and\n      swap1\n      pop\n      dup4\n      jump\t// out\n        /* \"contracts/TPTPreSale.sol\":681:722  mapping(address => uint256) public userId */\n    tag_98:\n      mstore(0x20, 0x04)\n      dup1\n      0x00\n      mstore\n      keccak256(0x00, 0x40)\n      0x00\n      swap2\n      pop\n      swap1\n      pop\n      sload\n      dup2\n      jump\t// out\n        /* \"contracts/TPTPreSale.sol\":291:329  mapping(uint8 => uint) public tptPrice */\n    tag_104:\n      mstore(0x20, 0x02)\n      dup1\n      0x00\n      mstore\n      keccak256(0x00, 0x40)\n      0x00\n      swap2\n      pop\n      swap1\n      pop\n      sload\n      dup2\n      jump\t// out\n        /* \"contracts/TPTPreSale.sol\":4794:4896  function getThisStepPrice() public view returns (uint256) {... */\n    tag_108:\n        /* \"contracts/TPTPreSale.sol\":4843:4850  uint256 */\n      0x00\n        /* \"contracts/TPTPreSale.sol\":4870:4878  tptPrice */\n      0x02\n        /* \"contracts/TPTPreSale.sol\":4870:4888  tptPrice[thisStep] */\n      0x00\n        /* \"contracts/TPTPreSale.sol\":4879:4887  thisStep */\n      0x01\n      0x15\n      swap1\n      sload\n      swap1\n      0x0100\n      exp\n      swap1\n      div\n      0xff\n      and\n        /* \"contracts/TPTPreSale.sol\":4870:4888  tptPrice[thisStep] */\n      0xff\n      and\n      0xff\n      and\n      dup2\n      mstore\n      0x20\n      add\n      swap1\n      dup2\n      mstore\n      0x20\n      add\n      0x00\n      keccak256\n      sload\n        /* \"contracts/TPTPreSale.sol\":4863:4888  return tptPrice[thisStep] */\n      swap1\n      pop\n        /* \"contracts/TPTPreSale.sol\":4794:4896  function getThisStepPrice() public view returns (uint256) {... */\n      swap1\n      jump\t// out\n        /* \"contracts/TPTPreSale.sol\":4584:4670  function setThisStep(uint8 _step) public onlyOwner {... */\n    tag_113:\n        /* \"contracts/TPTPreSale.sol\":833:838  owner */\n      0x01\n      0x00\n      swap1\n      sload\n      swap1\n      0x0100\n      exp\n      swap1\n      div\n      0xffffffffffffffffffffffffffffffffffffffff\n      and\n        /* \"contracts/TPTPreSale.sol\":819:838  msg.sender == owner */\n      0xffffffffffffffffffffffffffffffffffffffff\n      and\n        /* \"contracts/TPTPreSale.sol\":819:829  msg.sender */\n      caller\n        /* \"contracts/TPTPreSale.sol\":819:838  msg.sender == owner */\n      0xffffffffffffffffffffffffffffffffffffffff\n      and\n      eq\n        /* \"contracts/TPTPreSale.sol\":811:853  require(msg.sender == owner, \"Only owner\") */\n      tag_198\n      jumpi\n      mload(0x40)\n      0x08c379a000000000000000000000000000000000000000000000000000000000\n      dup2\n      mstore\n      0x04\n      add\n      tag_199\n      swap1\n      tag_200\n      jump\t// in\n    tag_199:\n      mload(0x40)\n      dup1\n      swap2\n      sub\n      swap1\n      revert\n    tag_198:\n        /* \"contracts/TPTPreSale.sol\":4657:4662  _step */\n      dup1\n        /* \"contracts/TPTPreSale.sol\":4646:4654  thisStep */\n      0x01\n      0x15\n        /* \"contracts/TPTPreSale.sol\":4646:4662  thisStep = _step */\n      0x0100\n      exp\n      dup2\n      sload\n      dup2\n      0xff\n      mul\n      not\n      and\n      swap1\n      dup4\n      0xff\n      and\n      mul\n      or\n      swap1\n      sstore\n      pop\n        /* \"contracts/TPTPreSale.sol\":4584:4670  function setThisStep(uint8 _step) public onlyOwner {... */\n      pop\n      jump\t// out\n        /* \"contracts/TPTPreSale.sol\":186:207  address public  owner */\n    tag_116:\n      0x01\n      0x00\n      swap1\n      sload\n      swap1\n      0x0100\n      exp\n      swap1\n      div\n      0xffffffffffffffffffffffffffffffffffffffff\n      and\n      dup2\n      jump\t// out\n        /* \"contracts/TPTPreSale.sol\":4062:4179  function getUserAddress(uint256 id) external view returns (address) {... */\n    tag_121:\n        /* \"contracts/TPTPreSale.sol\":4121:4128  address */\n      0x00\n        /* \"contracts/TPTPreSale.sol\":4148:4153  users */\n      0x05\n        /* \"contracts/TPTPreSale.sol\":4148:4157  users[id] */\n      0x00\n        /* \"contracts/TPTPreSale.sol\":4154:4156  id */\n      dup4\n        /* \"contracts/TPTPreSale.sol\":4148:4157  users[id] */\n      dup2\n      mstore\n      0x20\n      add\n      swap1\n      dup2\n      mstore\n      0x20\n      add\n      0x00\n      keccak256\n        /* \"contracts/TPTPreSale.sol\":4148:4171  users[id].walletAddress */\n      0x00\n      add\n      0x00\n      swap1\n      sload\n      swap1\n      0x0100\n      exp\n      swap1\n      div\n      0xffffffffffffffffffffffffffffffffffffffff\n      and\n        /* \"contracts/TPTPreSale.sol\":4141:4171  return users[id].walletAddress */\n      swap1\n      pop\n        /* \"contracts/TPTPreSale.sol\":4062:4179  function getUserAddress(uint256 id) external view returns (address) {... */\n      swap2\n      swap1\n      pop\n      jump\t// out\n        /* \"contracts/TPTPreSale.sol\":4904:5024  function setIBNBPrice(address payable _priceContract) public onlyOwner{... */\n    tag_127:\n        /* \"contracts/TPTPreSale.sol\":833:838  owner */\n      0x01\n      0x00\n      swap1\n      sload\n      swap1\n      0x0100\n      exp\n      swap1\n      div\n      0xffffffffffffffffffffffffffffffffffffffff\n      and\n        /* \"contracts/TPTPreSale.sol\":819:838  msg.sender == owner */\n      0xffffffffffffffffffffffffffffffffffffffff\n      and\n        /* \"contracts/TPTPreSale.sol\":819:829  msg.sender */\n      caller\n        /* \"contracts/TPTPreSale.sol\":819:838  msg.sender == owner */\n      0xffffffffffffffffffffffffffffffffffffffff\n      and\n      eq\n        /* \"contracts/TPTPreSale.sol\":811:853  require(msg.sender == owner, \"Only owner\") */\n      tag_204\n      jumpi\n      mload(0x40)\n      0x08c379a000000000000000000000000000000000000000000000000000000000\n      dup2\n      mstore\n      0x04\n      add\n      tag_205\n      swap1\n      tag_200\n      jump\t// in\n    tag_205:\n      mload(0x40)\n      dup1\n      swap2\n      sub\n      swap1\n      revert\n    tag_204:\n        /* \"contracts/TPTPreSale.sol\":5001:5015  _priceContract */\n      dup1\n        /* \"contracts/TPTPreSale.sol\":4985:4998  priceContract */\n      0x00\n      0x00\n        /* \"contracts/TPTPreSale.sol\":4985:5015  priceContract = _priceContract */\n      0x0100\n      exp\n      dup2\n      sload\n      dup2\n      0xffffffffffffffffffffffffffffffffffffffff\n      mul\n      not\n      and\n      swap1\n      dup4\n      0xffffffffffffffffffffffffffffffffffffffff\n      and\n      mul\n      or\n      swap1\n      sstore\n      pop\n        /* \"contracts/TPTPreSale.sol\":4904:5024  function setIBNBPrice(address payable _priceContract) public onlyOwner{... */\n      pop\n      jump\t// out\n        /* \"contracts/TPTPreSale.sol\":4678:4786  function setTPTPrice(uint8 _step , uint _price) public onlyOwner {... */\n    tag_132:\n        /* \"contracts/TPTPreSale.sol\":833:838  owner */\n      0x01\n      0x00\n      swap1\n      sload\n      swap1\n      0x0100\n      exp\n      swap1\n      div\n      0xffffffffffffffffffffffffffffffffffffffff\n      and\n        /* \"contracts/TPTPreSale.sol\":819:838  msg.sender == owner */\n      0xffffffffffffffffffffffffffffffffffffffff\n      and\n        /* \"contracts/TPTPreSale.sol\":819:829  msg.sender */\n      caller\n        /* \"contracts/TPTPreSale.sol\":819:838  msg.sender == owner */\n      0xffffffffffffffffffffffffffffffffffffffff\n      and\n      eq\n        /* \"contracts/TPTPreSale.sol\":811:853  require(msg.sender == owner, \"Only owner\") */\n      tag_208\n      jumpi\n      mload(0x40)\n      0x08c379a000000000000000000000000000000000000000000000000000000000\n      dup2\n      mstore\n      0x04\n      add\n      tag_209\n      swap1\n      tag_200\n      jump\t// in\n    tag_209:\n      mload(0x40)\n      dup1\n      swap2\n      sub\n      swap1\n      revert\n    tag_208:\n        /* \"contracts/TPTPreSale.sol\":4772:4778  _price */\n      dup1\n        /* \"contracts/TPTPreSale.sol\":4754:4762  tptPrice */\n      0x02\n        /* \"contracts/TPTPreSale.sol\":4754:4769  tptPrice[_step] */\n      0x00\n        /* \"contracts/TPTPreSale.sol\":4763:4768  _step */\n      dup5\n        /* \"contracts/TPTPreSale.sol\":4754:4769  tptPrice[_step] */\n      0xff\n      and\n      0xff\n      and\n      dup2\n      mstore\n      0x20\n      add\n      swap1\n      dup2\n      mstore\n      0x20\n      add\n      0x00\n      keccak256\n        /* \"contracts/TPTPreSale.sol\":4754:4778  tptPrice[_step] = _price */\n      dup2\n      swap1\n      sstore\n      pop\n        /* \"contracts/TPTPreSale.sol\":4678:4786  function setTPTPrice(uint8 _step , uint _price) public onlyOwner {... */\n      pop\n      pop\n      jump\t// out\n        /* \"contracts/TPTPreSale.sol\":263:284  uint8 public thisStep */\n    tag_135:\n      0x01\n      0x15\n      swap1\n      sload\n      swap1\n      0x0100\n      exp\n      swap1\n      div\n      0xff\n      and\n      dup2\n      jump\t// out\n        /* \"contracts/TPTPreSale.sol\":121:157  address payable public priceContract */\n    tag_140:\n      0x00\n      0x00\n      swap1\n      sload\n      swap1\n      0x0100\n      exp\n      swap1\n      div\n      0xffffffffffffffffffffffffffffffffffffffff\n      and\n      dup2\n      jump\t// out\n        /* \"contracts/TPTPreSale.sol\":359:384  uint256 public totalUsers */\n    tag_145:\n      sload(0x03)\n      dup2\n      jump\t// out\n        /* \"contracts/TPTPreSale.sol\":4348:4572  function grantPointsById(address _userAddress, uint256 _value) external onlyOwner {... */\n    tag_150:\n        /* \"contracts/TPTPreSale.sol\":833:838  owner */\n      0x01\n      0x00\n      swap1\n      sload\n      swap1\n      0x0100\n      exp\n      swap1\n      div\n      0xffffffffffffffffffffffffffffffffffffffff\n      and\n        /* \"contracts/TPTPreSale.sol\":819:838  msg.sender == owner */\n      0xffffffffffffffffffffffffffffffffffffffff\n      and\n        /* \"contracts/TPTPreSale.sol\":819:829  msg.sender */\n      caller\n        /* \"contracts/TPTPreSale.sol\":819:838  msg.sender == owner */\n      0xffffffffffffffffffffffffffffffffffffffff\n      and\n      eq\n        /* \"contracts/TPTPreSale.sol\":811:853  require(msg.sender == owner, \"Only owner\") */\n      tag_212\n      jumpi\n      mload(0x40)\n      0x08c379a000000000000000000000000000000000000000000000000000000000\n      dup2\n      mstore\n      0x04\n      add\n      tag_213\n      swap1\n      tag_200\n      jump\t// in\n    tag_213:\n      mload(0x40)\n      dup1\n      swap2\n      sub\n      swap1\n      revert\n    tag_212:\n        /* \"contracts/TPTPreSale.sol\":4483:4484  0 */\n      0x00\n        /* \"contracts/TPTPreSale.sol\":4459:4465  userId */\n      0x04\n        /* \"contracts/TPTPreSale.sol\":4459:4479  userId[_userAddress] */\n      0x00\n        /* \"contracts/TPTPreSale.sol\":4466:4478  _userAddress */\n      dup5\n        /* \"contracts/TPTPreSale.sol\":4459:4479  userId[_userAddress] */\n      0xffffffffffffffffffffffffffffffffffffffff\n      and\n      0xffffffffffffffffffffffffffffffffffffffff\n      and\n      dup2\n      mstore\n      0x20\n      add\n      swap1\n      dup2\n      mstore\n      0x20\n      add\n      0x00\n      keccak256\n      sload\n        /* \"contracts/TPTPreSale.sol\":4459:4484  userId[_userAddress] != 0 */\n      sub\n        /* \"contracts/TPTPreSale.sol\":4451:4504  require(userId[_userAddress] != 0, \"Invalid user ID\") */\n      tag_215\n      jumpi\n      mload(0x40)\n      0x08c379a000000000000000000000000000000000000000000000000000000000\n      dup2\n      mstore\n      0x04\n      add\n      tag_216\n      swap1\n      tag_217\n      jump\t// in\n    tag_216:\n      mload(0x40)\n      dup1\n      swap2\n      sub\n      swap1\n      revert\n    tag_215:\n        /* \"contracts/TPTPreSale.sol\":4557:4563  _value */\n      dup1\n        /* \"contracts/TPTPreSale.sol\":4515:4520  users */\n      0x05\n        /* \"contracts/TPTPreSale.sol\":4515:4542  users[userId[_userAddress]] */\n      0x00\n        /* \"contracts/TPTPreSale.sol\":4521:4527  userId */\n      0x04\n        /* \"contracts/TPTPreSale.sol\":4521:4541  userId[_userAddress] */\n      0x00\n        /* \"contracts/TPTPreSale.sol\":4528:4540  _userAddress */\n      dup7\n        /* \"contracts/TPTPreSale.sol\":4521:4541  userId[_userAddress] */\n      0xffffffffffffffffffffffffffffffffffffffff\n      and\n      0xffffffffffffffffffffffffffffffffffffffff\n      and\n      dup2\n      mstore\n      0x20\n      add\n      swap1\n      dup2\n      mstore\n      0x20\n      add\n      0x00\n      keccak256\n      sload\n        /* \"contracts/TPTPreSale.sol\":4515:4542  users[userId[_userAddress]] */\n      dup2\n      mstore\n      0x20\n      add\n      swap1\n      dup2\n      mstore\n      0x20\n      add\n      0x00\n      keccak256\n        /* \"contracts/TPTPreSale.sol\":4515:4553  users[userId[_userAddress]].tptBalance */\n      0x01\n      add\n      0x00\n        /* \"contracts/TPTPreSale.sol\":4515:4563  users[userId[_userAddress]].tptBalance += _value */\n      dup3\n      dup3\n      sload\n      tag_218\n      swap2\n      swap1\n      tag_219\n      jump\t// in\n    tag_218:\n      swap3\n      pop\n      pop\n      dup2\n      swap1\n      sstore\n      pop\n        /* \"contracts/TPTPreSale.sol\":4348:4572  function grantPointsById(address _userAddress, uint256 _value) external onlyOwner {... */\n      pop\n      pop\n      jump\t// out\n        /* \"contracts/TPTPreSale.sol\":2162:2452  function calcAmount(bool _useOffer , uint _price) public payable returns(uint) {... */\n    tag_154:\n        /* \"contracts/TPTPreSale.sol\":2235:2239  uint */\n      0x00\n        /* \"contracts/TPTPreSale.sol\":2252:2266  uint tptAmount */\n      0x00\n        /* \"contracts/TPTPreSale.sol\":2269:2278  _useOffer */\n      dup4\n        /* \"contracts/TPTPreSale.sol\":2269:2402  _useOffer ... */\n      tag_221\n      jumpi\n        /* \"contracts/TPTPreSale.sol\":2384:2392  tptPrice */\n      0x02\n        /* \"contracts/TPTPreSale.sol\":2384:2402  tptPrice[thisStep] */\n      0x00\n        /* \"contracts/TPTPreSale.sol\":2393:2401  thisStep */\n      0x01\n      0x15\n      swap1\n      sload\n      swap1\n      0x0100\n      exp\n      swap1\n      div\n      0xff\n      and\n        /* \"contracts/TPTPreSale.sol\":2384:2402  tptPrice[thisStep] */\n      0xff\n      and\n      0xff\n      and\n      dup2\n      mstore\n      0x20\n      add\n      swap1\n      dup2\n      mstore\n      0x20\n      add\n      0x00\n      keccak256\n      sload\n        /* \"contracts/TPTPreSale.sol\":2374:2380  _price */\n      dup4\n        /* \"contracts/TPTPreSale.sol\":2362:2371  msg.value */\n      callvalue\n        /* \"contracts/TPTPreSale.sol\":2362:2380  msg.value / _price */\n      tag_222\n      swap2\n      swap1\n      tag_223\n      jump\t// in\n    tag_222:\n        /* \"contracts/TPTPreSale.sol\":2361:2402  (msg.value / _price) / tptPrice[thisStep] */\n      tag_224\n      swap2\n      swap1\n      tag_223\n      jump\t// in\n    tag_224:\n        /* \"contracts/TPTPreSale.sol\":2269:2402  _useOffer ... */\n      jump(tag_225)\n    tag_221:\n        /* \"contracts/TPTPreSale.sol\":2344:2345  2 */\n      0x02\n        /* \"contracts/TPTPreSale.sol\":2320:2328  tptPrice */\n      dup1\n        /* \"contracts/TPTPreSale.sol\":2320:2338  tptPrice[thisStep] */\n      0x00\n        /* \"contracts/TPTPreSale.sol\":2329:2337  thisStep */\n      0x01\n      0x15\n      swap1\n      sload\n      swap1\n      0x0100\n      exp\n      swap1\n      div\n      0xff\n      and\n        /* \"contracts/TPTPreSale.sol\":2320:2338  tptPrice[thisStep] */\n      0xff\n      and\n      0xff\n      and\n      dup2\n      mstore\n      0x20\n      add\n      swap1\n      dup2\n      mstore\n      0x20\n      add\n      0x00\n      keccak256\n      sload\n        /* \"contracts/TPTPreSale.sol\":2309:2315  _price */\n      dup5\n        /* \"contracts/TPTPreSale.sol\":2297:2306  msg.value */\n      callvalue\n        /* \"contracts/TPTPreSale.sol\":2297:2315  msg.value / _price */\n      tag_226\n      swap2\n      swap1\n      tag_223\n      jump\t// in\n    tag_226:\n        /* \"contracts/TPTPreSale.sol\":2296:2338  (msg.value / _price ) / tptPrice[thisStep] */\n      tag_227\n      swap2\n      swap1\n      tag_223\n      jump\t// in\n    tag_227:\n        /* \"contracts/TPTPreSale.sol\":2295:2345  ((msg.value / _price ) / tptPrice[thisStep]  ) * 2 */\n      tag_228\n      swap2\n      swap1\n      tag_229\n      jump\t// in\n    tag_228:\n        /* \"contracts/TPTPreSale.sol\":2269:2402  _useOffer ... */\n    tag_225:\n        /* \"contracts/TPTPreSale.sol\":2252:2402  uint tptAmount = _useOffer ... */\n      swap1\n      pop\n        /* \"contracts/TPTPreSale.sol\":2435:2444  tptAmount */\n      dup1\n        /* \"contracts/TPTPreSale.sol\":2428:2444  return tptAmount */\n      swap2\n      pop\n      pop\n        /* \"contracts/TPTPreSale.sol\":2162:2452  function calcAmount(bool _useOffer , uint _price) public payable returns(uint) {... */\n      swap3\n      swap2\n      pop\n      pop\n      jump\t// out\n        /* \"contracts/TPTPreSale.sol\":5032:5131  function setIBNBPriceMode() public onlyOwner{... */\n    tag_158:\n        /* \"contracts/TPTPreSale.sol\":833:838  owner */\n      0x01\n      0x00\n      swap1\n      sload\n      swap1\n      0x0100\n      exp\n      swap1\n      div\n      0xffffffffffffffffffffffffffffffffffffffff\n      and\n        /* \"contracts/TPTPreSale.sol\":819:838  msg.sender == owner */\n      0xffffffffffffffffffffffffffffffffffffffff\n      and\n        /* \"contracts/TPTPreSale.sol\":819:829  msg.sender */\n      caller\n        /* \"contracts/TPTPreSale.sol\":819:838  msg.sender == owner */\n      0xffffffffffffffffffffffffffffffffffffffff\n      and\n      eq\n        /* \"contracts/TPTPreSale.sol\":811:853  require(msg.sender == owner, \"Only owner\") */\n      tag_231\n      jumpi\n      mload(0x40)\n      0x08c379a000000000000000000000000000000000000000000000000000000000\n      dup2\n      mstore\n      0x04\n      add\n      tag_232\n      swap1\n      tag_200\n      jump\t// in\n    tag_232:\n      mload(0x40)\n      dup1\n      swap2\n      sub\n      swap1\n      revert\n    tag_231:\n        /* \"contracts/TPTPreSale.sol\":5097:5110  priceContract */\n      0x00\n      0x00\n      swap1\n      sload\n      swap1\n      0x0100\n      exp\n      swap1\n      div\n      0xffffffffffffffffffffffffffffffffffffffff\n      and\n        /* \"contracts/TPTPreSale.sol\":5087:5121  IBNBPrice(priceContract).setEqMode */\n      0xffffffffffffffffffffffffffffffffffffffff\n      and\n      0x65a6cc2e\n        /* \"contracts/TPTPreSale.sol\":5087:5123  IBNBPrice(priceContract).setEqMode() */\n      mload(0x40)\n      dup2\n      0xffffffff\n      and\n      0xe0\n      shl\n      dup2\n      mstore\n      0x04\n      add\n      0x00\n      mload(0x40)\n      dup1\n      dup4\n      sub\n      dup2\n      0x00\n      dup8\n      dup1\n      extcodesize\n      iszero\n      dup1\n      iszero\n      tag_234\n      jumpi\n      revert(0x00, 0x00)\n    tag_234:\n      pop\n      gas\n      call\n      iszero\n      dup1\n      iszero\n      tag_236\n      jumpi\n      returndatacopy(0x00, 0x00, returndatasize)\n      revert(0x00, returndatasize)\n    tag_236:\n      pop\n      pop\n      pop\n      pop\n        /* \"contracts/TPTPreSale.sol\":5032:5131  function setIBNBPriceMode() public onlyOwner{... */\n      jump\t// out\n        /* \"contracts/TPTPreSale.sol\":3325:3496  function withdrawAll(address payable _to) external onlyOwner {... */\n    tag_162:\n        /* \"contracts/TPTPreSale.sol\":833:838  owner */\n      0x01\n      0x00\n      swap1\n      sload\n      swap1\n      0x0100\n      exp\n      swap1\n      div\n      0xffffffffffffffffffffffffffffffffffffffff\n      and\n        /* \"contracts/TPTPreSale.sol\":819:838  msg.sender == owner */\n      0xffffffffffffffffffffffffffffffffffffffff\n      and\n        /* \"contracts/TPTPreSale.sol\":819:829  msg.sender */\n      caller\n        /* \"contracts/TPTPreSale.sol\":819:838  msg.sender == owner */\n      0xffffffffffffffffffffffffffffffffffffffff\n      and\n      eq\n        /* \"contracts/TPTPreSale.sol\":811:853  require(msg.sender == owner, \"Only owner\") */\n      tag_238\n      jumpi\n      mload(0x40)\n      0x08c379a000000000000000000000000000000000000000000000000000000000\n      dup2\n      mstore\n      0x04\n      add\n      tag_239\n      swap1\n      tag_200\n      jump\t// in\n    tag_239:\n      mload(0x40)\n      dup1\n      swap2\n      sub\n      swap1\n      revert\n    tag_238:\n        /* \"contracts/TPTPreSale.sol\":3420:3421  0 */\n      0x00\n        /* \"contracts/TPTPreSale.sol\":3405:3422  _to != address(0) */\n      0xffffffffffffffffffffffffffffffffffffffff\n      and\n        /* \"contracts/TPTPreSale.sol\":3405:3408  _to */\n      dup2\n        /* \"contracts/TPTPreSale.sol\":3405:3422  _to != address(0) */\n      0xffffffffffffffffffffffffffffffffffffffff\n      and\n      sub\n        /* \"contracts/TPTPreSale.sol\":3397:3442  require(_to != address(0), \"Invalid address\") */\n      tag_241\n      jumpi\n      mload(0x40)\n      0x08c379a000000000000000000000000000000000000000000000000000000000\n      dup2\n      mstore\n      0x04\n      add\n      tag_242\n      swap1\n      tag_243\n      jump\t// in\n    tag_242:\n      mload(0x40)\n      dup1\n      swap2\n      sub\n      swap1\n      revert\n    tag_241:\n        /* \"contracts/TPTPreSale.sol\":3453:3456  _to */\n      dup1\n        /* \"contracts/TPTPreSale.sol\":3453:3465  _to.transfer */\n      0xffffffffffffffffffffffffffffffffffffffff\n      and\n        /* \"contracts/TPTPreSale.sol\":3453:3488  _to.transfer(address(this).balance) */\n      0x08fc\n        /* \"contracts/TPTPreSale.sol\":3466:3487  address(this).balance */\n      selfbalance\n        /* \"contracts/TPTPreSale.sol\":3453:3488  _to.transfer(address(this).balance) */\n      swap1\n      dup2\n      iszero\n      mul\n      swap1\n      mload(0x40)\n      0x00\n      mload(0x40)\n      dup1\n      dup4\n      sub\n      dup2\n      dup6\n      dup9\n      dup9\n      call\n      swap4\n      pop\n      pop\n      pop\n      pop\n      iszero\n      dup1\n      iszero\n      tag_245\n      jumpi\n      returndatacopy(0x00, 0x00, returndatasize)\n      revert(0x00, returndatasize)\n    tag_245:\n      pop\n        /* \"contracts/TPTPreSale.sol\":3325:3496  function withdrawAll(address payable _to) external onlyOwner {... */\n      pop\n      jump\t// out\n        /* \"contracts/TPTPreSale.sol\":4191:4336  function getUserTPTBalance(address _userAddress) external view returns (uint256) {... */\n    tag_166:\n        /* \"contracts/TPTPreSale.sol\":4263:4270  uint256 */\n      0x00\n        /* \"contracts/TPTPreSale.sol\":4290:4295  users */\n      0x05\n        /* \"contracts/TPTPreSale.sol\":4290:4317  users[userId[_userAddress]] */\n      0x00\n        /* \"contracts/TPTPreSale.sol\":4296:4302  userId */\n      0x04\n        /* \"contracts/TPTPreSale.sol\":4296:4316  userId[_userAddress] */\n      0x00\n        /* \"contracts/TPTPreSale.sol\":4303:4315  _userAddress */\n      dup6\n        /* \"contracts/TPTPreSale.sol\":4296:4316  userId[_userAddress] */\n      0xffffffffffffffffffffffffffffffffffffffff\n      and\n      0xffffffffffffffffffffffffffffffffffffffff\n      and\n      dup2\n      mstore\n      0x20\n      add\n      swap1\n      dup2\n      mstore\n      0x20\n      add\n      0x00\n      keccak256\n      sload\n        /* \"contracts/TPTPreSale.sol\":4290:4317  users[userId[_userAddress]] */\n      dup2\n      mstore\n      0x20\n      add\n      swap1\n      dup2\n      mstore\n      0x20\n      add\n      0x00\n      keccak256\n        /* \"contracts/TPTPreSale.sol\":4290:4328  users[userId[_userAddress]].tptBalance */\n      0x01\n      add\n      sload\n        /* \"contracts/TPTPreSale.sol\":4283:4328  return users[userId[_userAddress]].tptBalance */\n      swap1\n      pop\n        /* \"contracts/TPTPreSale.sol\":4191:4336  function getUserTPTBalance(address _userAddress) external view returns (uint256) {... */\n      swap2\n      swap1\n      pop\n      jump\t// out\n    tag_188:\n      dup3\n      dup1\n      sload\n      dup3\n      dup3\n      sstore\n      swap1\n      0x00\n      mstore\n      keccak256(0x00, 0x20)\n      swap1\n      0x04\n      mul\n      dup2\n      add\n      swap3\n      dup3\n      iszero\n      tag_247\n      jumpi\n      0x00\n      mstore\n      keccak256(0x00, 0x20)\n      swap2\n      0x04\n      mul\n      dup3\n      add\n    tag_248:\n      dup3\n      dup2\n      gt\n      iszero\n      tag_249\n      jumpi\n      dup3\n      dup3\n      0x00\n      dup3\n      add\n      sload\n      dup2\n      0x00\n      add\n      sstore\n      0x01\n      dup3\n      add\n      sload\n      dup2\n      0x01\n      add\n      sstore\n      0x02\n      dup3\n      add\n      sload\n      dup2\n      0x02\n      add\n      sstore\n      0x03\n      dup3\n      add\n      0x00\n      swap1\n      sload\n      swap1\n      0x0100\n      exp\n      swap1\n      div\n      0xff\n      and\n      dup2\n      0x03\n      add\n      exp(0x0100, 0x00)\n      dup2\n      sload\n      dup2\n      0xff\n      mul\n      not\n      and\n      swap1\n      dup4\n      0xff\n      and\n      mul\n      or\n      swap1\n      sstore\n      pop\n      pop\n      pop\n      swap2\n      0x04\n      add\n      swap2\n      swap1\n      0x04\n      add\n      swap1\n      jump(tag_248)\n    tag_249:\n    tag_247:\n      pop\n      swap1\n      pop\n      tag_250\n      swap2\n      swap1\n      tag_251\n      jump\t// in\n    tag_250:\n      pop\n      swap1\n      jump\t// out\n    tag_251:\n    tag_252:\n      dup1\n      dup3\n      gt\n      iszero\n      tag_253\n      jumpi\n      0x00\n      0x00\n      dup3\n      add\n      0x00\n      swap1\n      sstore\n      0x01\n      dup3\n      add\n      0x00\n      swap1\n      sstore\n      0x02\n      dup3\n      add\n      0x00\n      swap1\n      sstore\n      0x03\n      dup3\n      add\n      exp(0x0100, 0x00)\n      dup2\n      sload\n      swap1\n      0xff\n      mul\n      not\n      and\n      swap1\n      sstore\n      pop\n      0x04\n      add\n      jump(tag_252)\n    tag_253:\n      pop\n      swap1\n      jump\t// out\n        /* \"#utility.yul\":7:154   */\n    tag_254:\n        /* \"#utility.yul\":108:119   */\n      0x00\n        /* \"#utility.yul\":145:148   */\n      dup2\n        /* \"#utility.yul\":130:148   */\n      swap1\n      pop\n        /* \"#utility.yul\":7:154   */\n      swap3\n      swap2\n      pop\n      pop\n      jump\t// out\n        /* \"#utility.yul\":160:274   */\n    tag_255:\n      pop\n      jump\t// out\n        /* \"#utility.yul\":280:678   */\n    tag_256:\n        /* \"#utility.yul\":439:442   */\n      0x00\n        /* \"#utility.yul\":460:543   */\n      tag_310\n        /* \"#utility.yul\":541:542   */\n      0x00\n        /* \"#utility.yul\":536:539   */\n      dup4\n        /* \"#utility.yul\":460:543   */\n      tag_254\n      jump\t// in\n    tag_310:\n        /* \"#utility.yul\":453:543   */\n      swap2\n      pop\n        /* \"#utility.yul\":552:645   */\n      tag_311\n        /* \"#utility.yul\":641:644   */\n      dup3\n        /* \"#utility.yul\":552:645   */\n      tag_255\n      jump\t// in\n    tag_311:\n        /* \"#utility.yul\":670:671   */\n      0x00\n        /* \"#utility.yul\":665:668   */\n      dup3\n        /* \"#utility.yul\":661:672   */\n      add\n        /* \"#utility.yul\":654:672   */\n      swap1\n      pop\n        /* \"#utility.yul\":280:678   */\n      swap2\n      swap1\n      pop\n      jump\t// out\n        /* \"#utility.yul\":684:1063   */\n    tag_29:\n        /* \"#utility.yul\":868:871   */\n      0x00\n        /* \"#utility.yul\":890:1037   */\n      tag_313\n        /* \"#utility.yul\":1033:1036   */\n      dup3\n        /* \"#utility.yul\":890:1037   */\n      tag_256\n      jump\t// in\n    tag_313:\n        /* \"#utility.yul\":883:1037   */\n      swap2\n      pop\n        /* \"#utility.yul\":1054:1057   */\n      dup2\n        /* \"#utility.yul\":1047:1057   */\n      swap1\n      pop\n        /* \"#utility.yul\":684:1063   */\n      swap2\n      swap1\n      pop\n      jump\t// out\n        /* \"#utility.yul\":1069:1238   */\n    tag_257:\n        /* \"#utility.yul\":1153:1164   */\n      0x00\n        /* \"#utility.yul\":1187:1193   */\n      dup3\n        /* \"#utility.yul\":1182:1185   */\n      dup3\n        /* \"#utility.yul\":1175:1194   */\n      mstore\n        /* \"#utility.yul\":1227:1231   */\n      0x20\n        /* \"#utility.yul\":1222:1225   */\n      dup3\n        /* \"#utility.yul\":1218:1232   */\n      add\n        /* \"#utility.yul\":1203:1232   */\n      swap1\n      pop\n        /* \"#utility.yul\":1069:1238   */\n      swap3\n      swap2\n      pop\n      pop\n      jump\t// out\n        /* \"#utility.yul\":1244:1409   */\n    tag_258:\n        /* \"#utility.yul\":1384:1401   */\n      0x5472616e73666572206661696c65640000000000000000000000000000000000\n        /* \"#utility.yul\":1380:1381   */\n      0x00\n        /* \"#utility.yul\":1372:1378   */\n      dup3\n        /* \"#utility.yul\":1368:1382   */\n      add\n        /* \"#utility.yul\":1361:1402   */\n      mstore\n        /* \"#utility.yul\":1244:1409   */\n      pop\n      jump\t// out\n        /* \"#utility.yul\":1415:1781   */\n    tag_259:\n        /* \"#utility.yul\":1557:1560   */\n      0x00\n        /* \"#utility.yul\":1578:1645   */\n      tag_317\n        /* \"#utility.yul\":1642:1644   */\n      0x0f\n        /* \"#utility.yul\":1637:1640   */\n      dup4\n        /* \"#utility.yul\":1578:1645   */\n      tag_257\n      jump\t// in\n    tag_317:\n        /* \"#utility.yul\":1571:1645   */\n      swap2\n      pop\n        /* \"#utility.yul\":1654:1747   */\n      tag_318\n        /* \"#utility.yul\":1743:1746   */\n      dup3\n        /* \"#utility.yul\":1654:1747   */\n      tag_258\n      jump\t// in\n    tag_318:\n        /* \"#utility.yul\":1772:1774   */\n      0x20\n        /* \"#utility.yul\":1767:1770   */\n      dup3\n        /* \"#utility.yul\":1763:1775   */\n      add\n        /* \"#utility.yul\":1756:1775   */\n      swap1\n      pop\n        /* \"#utility.yul\":1415:1781   */\n      swap2\n      swap1\n      pop\n      jump\t// out\n        /* \"#utility.yul\":1787:2206   */\n    tag_35:\n        /* \"#utility.yul\":1953:1957   */\n      0x00\n        /* \"#utility.yul\":1991:1993   */\n      0x20\n        /* \"#utility.yul\":1980:1989   */\n      dup3\n        /* \"#utility.yul\":1976:1994   */\n      add\n        /* \"#utility.yul\":1968:1994   */\n      swap1\n      pop\n        /* \"#utility.yul\":2040:2049   */\n      dup2\n        /* \"#utility.yul\":2034:2038   */\n      dup2\n        /* \"#utility.yul\":2030:2050   */\n      sub\n        /* \"#utility.yul\":2026:2027   */\n      0x00\n        /* \"#utility.yul\":2015:2024   */\n      dup4\n        /* \"#utility.yul\":2011:2028   */\n      add\n        /* \"#utility.yul\":2004:2051   */\n      mstore\n        /* \"#utility.yul\":2068:2199   */\n      tag_320\n        /* \"#utility.yul\":2194:2198   */\n      dup2\n        /* \"#utility.yul\":2068:2199   */\n      tag_259\n      jump\t// in\n    tag_320:\n        /* \"#utility.yul\":2060:2199   */\n      swap1\n      pop\n        /* \"#utility.yul\":1787:2206   */\n      swap2\n      swap1\n      pop\n      jump\t// out\n        /* \"#utility.yul\":2212:2338   */\n    tag_260:\n        /* \"#utility.yul\":2249:2256   */\n      0x00\n        /* \"#utility.yul\":2289:2331   */\n      0xffffffffffffffffffffffffffffffffffffffff\n        /* \"#utility.yul\":2282:2287   */\n      dup3\n        /* \"#utility.yul\":2278:2332   */\n      and\n        /* \"#utility.yul\":2267:2332   */\n      swap1\n      pop\n        /* \"#utility.yul\":2212:2338   */\n      swap2\n      swap1\n      pop\n      jump\t// out\n        /* \"#utility.yul\":2344:2440   */\n    tag_261:\n        /* \"#utility.yul\":2381:2388   */\n      0x00\n        /* \"#utility.yul\":2410:2434   */\n      tag_323\n        /* \"#utility.yul\":2428:2433   */\n      dup3\n        /* \"#utility.yul\":2410:2434   */\n      tag_260\n      jump\t// in\n    tag_323:\n        /* \"#utility.yul\":2399:2434   */\n      swap1\n      pop\n        /* \"#utility.yul\":2344:2440   */\n      swap2\n      swap1\n      pop\n      jump\t// out\n        /* \"#utility.yul\":2446:2564   */\n    tag_262:\n        /* \"#utility.yul\":2533:2557   */\n      tag_325\n        /* \"#utility.yul\":2551:2556   */\n      dup2\n        /* \"#utility.yul\":2533:2557   */\n      tag_261\n      jump\t// in\n    tag_325:\n        /* \"#utility.yul\":2528:2531   */\n      dup3\n        /* \"#utility.yul\":2521:2558   */\n      mstore\n        /* \"#utility.yul\":2446:2564   */\n      pop\n      pop\n      jump\t// out\n        /* \"#utility.yul\":2570:2792   */\n    tag_37:\n        /* \"#utility.yul\":2663:2667   */\n      0x00\n        /* \"#utility.yul\":2701:2703   */\n      0x20\n        /* \"#utility.yul\":2690:2699   */\n      dup3\n        /* \"#utility.yul\":2686:2704   */\n      add\n        /* \"#utility.yul\":2678:2704   */\n      swap1\n      pop\n        /* \"#utility.yul\":2714:2785   */\n      tag_327\n        /* \"#utility.yul\":2782:2783   */\n      0x00\n        /* \"#utility.yul\":2771:2780   */\n      dup4\n        /* \"#utility.yul\":2767:2784   */\n      add\n        /* \"#utility.yul\":2758:2764   */\n      dup5\n        /* \"#utility.yul\":2714:2785   */\n      tag_262\n      jump\t// in\n    tag_327:\n        /* \"#utility.yul\":2570:2792   */\n      swap3\n      swap2\n      pop\n      pop\n      jump\t// out\n        /* \"#utility.yul\":2798:2896   */\n    tag_263:\n        /* \"#utility.yul\":2849:2855   */\n      0x00\n        /* \"#utility.yul\":2883:2888   */\n      dup2\n        /* \"#utility.yul\":2877:2889   */\n      mload\n        /* \"#utility.yul\":2867:2889   */\n      swap1\n      pop\n        /* \"#utility.yul\":2798:2896   */\n      swap2\n      swap1\n      pop\n      jump\t// out\n        /* \"#utility.yul\":2902:3041   */\n    tag_264:\n        /* \"#utility.yul\":2991:2997   */\n      dup3\n        /* \"#utility.yul\":2986:2989   */\n      dup2\n        /* \"#utility.yul\":2981:2984   */\n      dup4\n        /* \"#utility.yul\":2975:2998   */\n      mcopy\n        /* \"#utility.yul\":3032:3033   */\n      0x00\n        /* \"#utility.yul\":3023:3029   */\n      dup4\n        /* \"#utility.yul\":3018:3021   */\n      dup4\n        /* \"#utility.yul\":3014:3030   */\n      add\n        /* \"#utility.yul\":3007:3034   */\n      mstore\n        /* \"#utility.yul\":2902:3041   */\n      pop\n      pop\n      pop\n      jump\t// out\n        /* \"#utility.yul\":3047:3433   */\n    tag_265:\n        /* \"#utility.yul\":3151:3154   */\n      0x00\n        /* \"#utility.yul\":3179:3217   */\n      tag_331\n        /* \"#utility.yul\":3211:3216   */\n      dup3\n        /* \"#utility.yul\":3179:3217   */\n      tag_263\n      jump\t// in\n    tag_331:\n        /* \"#utility.yul\":3233:3321   */\n      tag_332\n        /* \"#utility.yul\":3314:3320   */\n      dup2\n        /* \"#utility.yul\":3309:3312   */\n      dup6\n        /* \"#utility.yul\":3233:3321   */\n      tag_254\n      jump\t// in\n    tag_332:\n        /* \"#utility.yul\":3226:3321   */\n      swap4\n      pop\n        /* \"#utility.yul\":3330:3395   */\n      tag_333\n        /* \"#utility.yul\":3388:3394   */\n      dup2\n        /* \"#utility.yul\":3383:3386   */\n      dup6\n        /* \"#utility.yul\":3376:3380   */\n      0x20\n        /* \"#utility.yul\":3369:3374   */\n      dup7\n        /* \"#utility.yul\":3365:3381   */\n      add\n        /* \"#utility.yul\":3330:3395   */\n      tag_264\n      jump\t// in\n    tag_333:\n        /* \"#utility.yul\":3420:3426   */\n      dup1\n        /* \"#utility.yul\":3415:3418   */\n      dup5\n        /* \"#utility.yul\":3411:3427   */\n      add\n        /* \"#utility.yul\":3404:3427   */\n      swap2\n      pop\n        /* \"#utility.yul\":3155:3433   */\n      pop\n        /* \"#utility.yul\":3047:3433   */\n      swap3\n      swap2\n      pop\n      pop\n      jump\t// out\n        /* \"#utility.yul\":3439:3710   */\n    tag_39:\n        /* \"#utility.yul\":3569:3572   */\n      0x00\n        /* \"#utility.yul\":3591:3684   */\n      tag_335\n        /* \"#utility.yul\":3680:3683   */\n      dup3\n        /* \"#utility.yul\":3671:3677   */\n      dup5\n        /* \"#utility.yul\":3591:3684   */\n      tag_265\n      jump\t// in\n    tag_335:\n        /* \"#utility.yul\":3584:3684   */\n      swap2\n      pop\n        /* \"#utility.yul\":3701:3704   */\n      dup2\n        /* \"#utility.yul\":3694:3704   */\n      swap1\n      pop\n        /* \"#utility.yul\":3439:3710   */\n      swap3\n      swap2\n      pop\n      pop\n      jump\t// out\n        /* \"#utility.yul\":3716:3885   */\n    tag_266:\n        /* \"#utility.yul\":3856:3877   */\n      0x4661696c656420746f2067657420707269636500000000000000000000000000\n        /* \"#utility.yul\":3852:3853   */\n      0x00\n        /* \"#utility.yul\":3844:3850   */\n      dup3\n        /* \"#utility.yul\":3840:3854   */\n      add\n        /* \"#utility.yul\":3833:3878   */\n      mstore\n        /* \"#utility.yul\":3716:3885   */\n      pop\n      jump\t// out\n        /* \"#utility.yul\":3891:4257   */\n    tag_267:\n        /* \"#utility.yul\":4033:4036   */\n      0x00\n        /* \"#utility.yul\":4054:4121   */\n      tag_338\n        /* \"#utility.yul\":4118:4120   */\n      0x13\n        /* \"#utility.yul\":4113:4116   */\n      dup4\n        /* \"#utility.yul\":4054:4121   */\n      tag_257\n      jump\t// in\n    tag_338:\n        /* \"#utility.yul\":4047:4121   */\n      swap2\n      pop\n        /* \"#utility.yul\":4130:4223   */\n      tag_339\n        /* \"#utility.yul\":4219:4222   */\n      dup3\n        /* \"#utility.yul\":4130:4223   */\n      tag_266\n      jump\t// in\n    tag_339:\n        /* \"#utility.yul\":4248:4250   */\n      0x20\n        /* \"#utility.yul\":4243:4246   */\n      dup3\n        /* \"#utility.yul\":4239:4251   */\n      add\n        /* \"#utility.yul\":4232:4251   */\n      swap1\n      pop\n        /* \"#utility.yul\":3891:4257   */\n      swap2\n      swap1\n      pop\n      jump\t// out\n        /* \"#utility.yul\":4263:4682   */\n    tag_45:\n        /* \"#utility.yul\":4429:4433   */\n      0x00\n        /* \"#utility.yul\":4467:4469   */\n      0x20\n        /* \"#utility.yul\":4456:4465   */\n      dup3\n        /* \"#utility.yul\":4452:4470   */\n      add\n        /* \"#utility.yul\":4444:4470   */\n      swap1\n      pop\n        /* \"#utility.yul\":4516:4525   */\n      dup2\n        /* \"#utility.yul\":4510:4514   */\n      dup2\n        /* \"#utility.yul\":4506:4526   */\n      sub\n        /* \"#utility.yul\":4502:4503   */\n      0x00\n        /* \"#utility.yul\":4491:4500   */\n      dup4\n        /* \"#utility.yul\":4487:4504   */\n      add\n        /* \"#utility.yul\":4480:4527   */\n      mstore\n        /* \"#utility.yul\":4544:4675   */\n      tag_341\n        /* \"#utility.yul\":4670:4674   */\n      dup2\n        /* \"#utility.yul\":4544:4675   */\n      tag_267\n      jump\t// in\n    tag_341:\n        /* \"#utility.yul\":4536:4675   */\n      swap1\n      pop\n        /* \"#utility.yul\":4263:4682   */\n      swap2\n      swap1\n      pop\n      jump\t// out\n        /* \"#utility.yul\":4769:4886   */\n    tag_269:\n        /* \"#utility.yul\":4878:4879   */\n      0x00\n        /* \"#utility.yul\":4875:4876   */\n      0x00\n        /* \"#utility.yul\":4868:4880   */\n      revert\n        /* \"#utility.yul\":5015:5092   */\n    tag_271:\n        /* \"#utility.yul\":5052:5059   */\n      0x00\n        /* \"#utility.yul\":5081:5086   */\n      dup2\n        /* \"#utility.yul\":5070:5086   */\n      swap1\n      pop\n        /* \"#utility.yul\":5015:5092   */\n      swap2\n      swap1\n      pop\n      jump\t// out\n        /* \"#utility.yul\":5098:5220   */\n    tag_272:\n        /* \"#utility.yul\":5171:5195   */\n      tag_347\n        /* \"#utility.yul\":5189:5194   */\n      dup2\n        /* \"#utility.yul\":5171:5195   */\n      tag_271\n      jump\t// in\n    tag_347:\n        /* \"#utility.yul\":5164:5169   */\n      dup2\n        /* \"#utility.yul\":5161:5196   */\n      eq\n        /* \"#utility.yul\":5151:5214   */\n      tag_348\n      jumpi\n        /* \"#utility.yul\":5210:5211   */\n      0x00\n        /* \"#utility.yul\":5207:5208   */\n      0x00\n        /* \"#utility.yul\":5200:5212   */\n      revert\n        /* \"#utility.yul\":5151:5214   */\n    tag_348:\n        /* \"#utility.yul\":5098:5220   */\n      pop\n      jump\t// out\n        /* \"#utility.yul\":5226:5369   */\n    tag_273:\n        /* \"#utility.yul\":5283:5288   */\n      0x00\n        /* \"#utility.yul\":5314:5320   */\n      dup2\n        /* \"#utility.yul\":5308:5321   */\n      mload\n        /* \"#utility.yul\":5299:5321   */\n      swap1\n      pop\n        /* \"#utility.yul\":5330:5363   */\n      tag_350\n        /* \"#utility.yul\":5357:5362   */\n      dup2\n        /* \"#utility.yul\":5330:5363   */\n      tag_272\n      jump\t// in\n    tag_350:\n        /* \"#utility.yul\":5226:5369   */\n      swap3\n      swap2\n      pop\n      pop\n      jump\t// out\n        /* \"#utility.yul\":5375:5726   */\n    tag_48:\n        /* \"#utility.yul\":5445:5451   */\n      0x00\n        /* \"#utility.yul\":5494:5496   */\n      0x20\n        /* \"#utility.yul\":5482:5491   */\n      dup3\n        /* \"#utility.yul\":5473:5480   */\n      dup5\n        /* \"#utility.yul\":5469:5492   */\n      sub\n        /* \"#utility.yul\":5465:5497   */\n      slt\n        /* \"#utility.yul\":5462:5581   */\n      iszero\n      tag_352\n      jumpi\n        /* \"#utility.yul\":5500:5579   */\n      tag_353\n      tag_269\n      jump\t// in\n    tag_353:\n        /* \"#utility.yul\":5462:5581   */\n    tag_352:\n        /* \"#utility.yul\":5620:5621   */\n      0x00\n        /* \"#utility.yul\":5645:5709   */\n      tag_354\n        /* \"#utility.yul\":5701:5708   */\n      dup5\n        /* \"#utility.yul\":5692:5698   */\n      dup3\n        /* \"#utility.yul\":5681:5690   */\n      dup6\n        /* \"#utility.yul\":5677:5699   */\n      add\n        /* \"#utility.yul\":5645:5709   */\n      tag_273\n      jump\t// in\n    tag_354:\n        /* \"#utility.yul\":5635:5709   */\n      swap2\n      pop\n        /* \"#utility.yul\":5591:5719   */\n      pop\n        /* \"#utility.yul\":5375:5726   */\n      swap3\n      swap2\n      pop\n      pop\n      jump\t// out\n        /* \"#utility.yul\":5732:5822   */\n    tag_274:\n        /* \"#utility.yul\":5766:5773   */\n      0x00\n        /* \"#utility.yul\":5809:5814   */\n      dup2\n        /* \"#utility.yul\":5802:5815   */\n      iszero\n        /* \"#utility.yul\":5795:5816   */\n      iszero\n        /* \"#utility.yul\":5784:5816   */\n      swap1\n      pop\n        /* \"#utility.yul\":5732:5822   */\n      swap2\n      swap1\n      pop\n      jump\t// out\n        /* \"#utility.yul\":5828:5944   */\n    tag_275:\n        /* \"#utility.yul\":5898:5919   */\n      tag_357\n        /* \"#utility.yul\":5913:5918   */\n      dup2\n        /* \"#utility.yul\":5898:5919   */\n      tag_274\n      jump\t// in\n    tag_357:\n        /* \"#utility.yul\":5891:5896   */\n      dup2\n        /* \"#utility.yul\":5888:5920   */\n      eq\n        /* \"#utility.yul\":5878:5938   */\n      tag_358\n      jumpi\n        /* \"#utility.yul\":5934:5935   */\n      0x00\n        /* \"#utility.yul\":5931:5932   */\n      0x00\n        /* \"#utility.yul\":5924:5936   */\n      revert\n        /* \"#utility.yul\":5878:5938   */\n    tag_358:\n        /* \"#utility.yul\":5828:5944   */\n      pop\n      jump\t// out\n        /* \"#utility.yul\":5950:6083   */\n    tag_276:\n        /* \"#utility.yul\":5993:5998   */\n      0x00\n        /* \"#utility.yul\":6031:6037   */\n      dup2\n        /* \"#utility.yul\":6018:6038   */\n      calldataload\n        /* \"#utility.yul\":6009:6038   */\n      swap1\n      pop\n        /* \"#utility.yul\":6047:6077   */\n      tag_360\n        /* \"#utility.yul\":6071:6076   */\n      dup2\n        /* \"#utility.yul\":6047:6077   */\n      tag_275\n      jump\t// in\n    tag_360:\n        /* \"#utility.yul\":5950:6083   */\n      swap3\n      swap2\n      pop\n      pop\n      jump\t// out\n        /* \"#utility.yul\":6089:6412   */\n    tag_67:\n        /* \"#utility.yul\":6145:6151   */\n      0x00\n        /* \"#utility.yul\":6194:6196   */\n      0x20\n        /* \"#utility.yul\":6182:6191   */\n      dup3\n        /* \"#utility.yul\":6173:6180   */\n      dup5\n        /* \"#utility.yul\":6169:6192   */\n      sub\n        /* \"#utility.yul\":6165:6197   */\n      slt\n        /* \"#utility.yul\":6162:6281   */\n      iszero\n      tag_362\n      jumpi\n        /* \"#utility.yul\":6200:6279   */\n      tag_363\n      tag_269\n      jump\t// in\n    tag_363:\n        /* \"#utility.yul\":6162:6281   */\n    tag_362:\n        /* \"#utility.yul\":6320:6321   */\n      0x00\n        /* \"#utility.yul\":6345:6395   */\n      tag_364\n        /* \"#utility.yul\":6387:6394   */\n      dup5\n        /* \"#utility.yul\":6378:6384   */\n      dup3\n        /* \"#utility.yul\":6367:6376   */\n      dup6\n        /* \"#utility.yul\":6363:6385   */\n      add\n        /* \"#utility.yul\":6345:6395   */\n      tag_276\n      jump\t// in\n    tag_364:\n        /* \"#utility.yul\":6335:6395   */\n      swap2\n      pop\n        /* \"#utility.yul\":6291:6405   */\n      pop\n        /* \"#utility.yul\":6089:6412   */\n      swap3\n      swap2\n      pop\n      pop\n      jump\t// out\n        /* \"#utility.yul\":6418:6540   */\n    tag_277:\n        /* \"#utility.yul\":6491:6515   */\n      tag_366\n        /* \"#utility.yul\":6509:6514   */\n      dup2\n        /* \"#utility.yul\":6491:6515   */\n      tag_261\n      jump\t// in\n    tag_366:\n        /* \"#utility.yul\":6484:6489   */\n      dup2\n        /* \"#utility.yul\":6481:6516   */\n      eq\n        /* \"#utility.yul\":6471:6534   */\n      tag_367\n      jumpi\n        /* \"#utility.yul\":6530:6531   */\n      0x00\n        /* \"#utility.yul\":6527:6528   */\n      0x00\n        /* \"#utility.yul\":6520:6532   */\n      revert\n        /* \"#utility.yul\":6471:6534   */\n    tag_367:\n        /* \"#utility.yul\":6418:6540   */\n      pop\n      jump\t// out\n        /* \"#utility.yul\":6546:6685   */\n    tag_278:\n        /* \"#utility.yul\":6592:6597   */\n      0x00\n        /* \"#utility.yul\":6630:6636   */\n      dup2\n        /* \"#utility.yul\":6617:6637   */\n      calldataload\n        /* \"#utility.yul\":6608:6637   */\n      swap1\n      pop\n        /* \"#utility.yul\":6646:6679   */\n      tag_369\n        /* \"#utility.yul\":6673:6678   */\n      dup2\n        /* \"#utility.yul\":6646:6679   */\n      tag_277\n      jump\t// in\n    tag_369:\n        /* \"#utility.yul\":6546:6685   */\n      swap3\n      swap2\n      pop\n      pop\n      jump\t// out\n        /* \"#utility.yul\":6691:6830   */\n    tag_279:\n        /* \"#utility.yul\":6737:6742   */\n      0x00\n        /* \"#utility.yul\":6775:6781   */\n      dup2\n        /* \"#utility.yul\":6762:6782   */\n      calldataload\n        /* \"#utility.yul\":6753:6782   */\n      swap1\n      pop\n        /* \"#utility.yul\":6791:6824   */\n      tag_371\n        /* \"#utility.yul\":6818:6823   */\n      dup2\n        /* \"#utility.yul\":6791:6824   */\n      tag_272\n      jump\t// in\n    tag_371:\n        /* \"#utility.yul\":6691:6830   */\n      swap3\n      swap2\n      pop\n      pop\n      jump\t// out\n        /* \"#utility.yul\":6836:7310   */\n    tag_72:\n        /* \"#utility.yul\":6904:6910   */\n      0x00\n        /* \"#utility.yul\":6912:6918   */\n      0x00\n        /* \"#utility.yul\":6961:6963   */\n      0x40\n        /* \"#utility.yul\":6949:6958   */\n      dup4\n        /* \"#utility.yul\":6940:6947   */\n      dup6\n        /* \"#utility.yul\":6936:6959   */\n      sub\n        /* \"#utility.yul\":6932:6964   */\n      slt\n        /* \"#utility.yul\":6929:7048   */\n      iszero\n      tag_373\n      jumpi\n        /* \"#utility.yul\":6967:7046   */\n      tag_374\n      tag_269\n      jump\t// in\n    tag_374:\n        /* \"#utility.yul\":6929:7048   */\n    tag_373:\n        /* \"#utility.yul\":7087:7088   */\n      0x00\n        /* \"#utility.yul\":7112:7165   */\n      tag_375\n        /* \"#utility.yul\":7157:7164   */\n      dup6\n        /* \"#utility.yul\":7148:7154   */\n      dup3\n        /* \"#utility.yul\":7137:7146   */\n      dup7\n        /* \"#utility.yul\":7133:7155   */\n      add\n        /* \"#utility.yul\":7112:7165   */\n      tag_278\n      jump\t// in\n    tag_375:\n        /* \"#utility.yul\":7102:7165   */\n      swap3\n      pop\n        /* \"#utility.yul\":7058:7175   */\n      pop\n        /* \"#utility.yul\":7214:7216   */\n      0x20\n        /* \"#utility.yul\":7240:7293   */\n      tag_376\n        /* \"#utility.yul\":7285:7292   */\n      dup6\n        /* \"#utility.yul\":7276:7282   */\n      dup3\n        /* \"#utility.yul\":7265:7274   */\n      dup7\n        /* \"#utility.yul\":7261:7283   */\n      add\n        /* \"#utility.yul\":7240:7293   */\n      tag_279\n      jump\t// in\n    tag_376:\n        /* \"#utility.yul\":7230:7293   */\n      swap2\n      pop\n        /* \"#utility.yul\":7185:7303   */\n      pop\n        /* \"#utility.yul\":6836:7310   */\n      swap3\n      pop\n      swap3\n      swap1\n      pop\n      jump\t// out\n        /* \"#utility.yul\":7316:7434   */\n    tag_280:\n        /* \"#utility.yul\":7403:7427   */\n      tag_378\n        /* \"#utility.yul\":7421:7426   */\n      dup2\n        /* \"#utility.yul\":7403:7427   */\n      tag_271\n      jump\t// in\n    tag_378:\n        /* \"#utility.yul\":7398:7401   */\n      dup3\n        /* \"#utility.yul\":7391:7428   */\n      mstore\n        /* \"#utility.yul\":7316:7434   */\n      pop\n      pop\n      jump\t// out\n        /* \"#utility.yul\":7440:7882   */\n    tag_75:\n        /* \"#utility.yul\":7589:7593   */\n      0x00\n        /* \"#utility.yul\":7627:7629   */\n      0x60\n        /* \"#utility.yul\":7616:7625   */\n      dup3\n        /* \"#utility.yul\":7612:7630   */\n      add\n        /* \"#utility.yul\":7604:7630   */\n      swap1\n      pop\n        /* \"#utility.yul\":7640:7711   */\n      tag_380\n        /* \"#utility.yul\":7708:7709   */\n      0x00\n        /* \"#utility.yul\":7697:7706   */\n      dup4\n        /* \"#utility.yul\":7693:7710   */\n      add\n        /* \"#utility.yul\":7684:7690   */\n      dup7\n        /* \"#utility.yul\":7640:7711   */\n      tag_280\n      jump\t// in\n    tag_380:\n        /* \"#utility.yul\":7721:7793   */\n      tag_381\n        /* \"#utility.yul\":7789:7791   */\n      0x20\n        /* \"#utility.yul\":7778:7787   */\n      dup4\n        /* \"#utility.yul\":7774:7792   */\n      add\n        /* \"#utility.yul\":7765:7771   */\n      dup6\n        /* \"#utility.yul\":7721:7793   */\n      tag_280\n      jump\t// in\n    tag_381:\n        /* \"#utility.yul\":7803:7875   */\n      tag_382\n        /* \"#utility.yul\":7871:7873   */\n      0x40\n        /* \"#utility.yul\":7860:7869   */\n      dup4\n        /* \"#utility.yul\":7856:7874   */\n      add\n        /* \"#utility.yul\":7847:7853   */\n      dup5\n        /* \"#utility.yul\":7803:7875   */\n      tag_280\n      jump\t// in\n    tag_382:\n        /* \"#utility.yul\":7440:7882   */\n      swap5\n      swap4\n      pop\n      pop\n      pop\n      pop\n      jump\t// out\n        /* \"#utility.yul\":7888:8217   */\n    tag_79:\n        /* \"#utility.yul\":7947:7953   */\n      0x00\n        /* \"#utility.yul\":7996:7998   */\n      0x20\n        /* \"#utility.yul\":7984:7993   */\n      dup3\n        /* \"#utility.yul\":7975:7982   */\n      dup5\n        /* \"#utility.yul\":7971:7994   */\n      sub\n        /* \"#utility.yul\":7967:7999   */\n      slt\n        /* \"#utility.yul\":7964:8083   */\n      iszero\n      tag_384\n      jumpi\n        /* \"#utility.yul\":8002:8081   */\n      tag_385\n      tag_269\n      jump\t// in\n    tag_385:\n        /* \"#utility.yul\":7964:8083   */\n    tag_384:\n        /* \"#utility.yul\":8122:8123   */\n      0x00\n        /* \"#utility.yul\":8147:8200   */\n      tag_386\n        /* \"#utility.yul\":8192:8199   */\n      dup5\n        /* \"#utility.yul\":8183:8189   */\n      dup3\n        /* \"#utility.yul\":8172:8181   */\n      dup6\n        /* \"#utility.yul\":8168:8190   */\n      add\n        /* \"#utility.yul\":8147:8200   */\n      tag_278\n      jump\t// in\n    tag_386:\n        /* \"#utility.yul\":8137:8200   */\n      swap2\n      pop\n        /* \"#utility.yul\":8093:8210   */\n      pop\n        /* \"#utility.yul\":7888:8217   */\n      swap3\n      swap2\n      pop\n      pop\n      jump\t// out\n        /* \"#utility.yul\":8223:8445   */\n    tag_82:\n        /* \"#utility.yul\":8316:8320   */\n      0x00\n        /* \"#utility.yul\":8354:8356   */\n      0x20\n        /* \"#utility.yul\":8343:8352   */\n      dup3\n        /* \"#utility.yul\":8339:8357   */\n      add\n        /* \"#utility.yul\":8331:8357   */\n      swap1\n      pop\n        /* \"#utility.yul\":8367:8438   */\n      tag_388\n        /* \"#utility.yul\":8435:8436   */\n      0x00\n        /* \"#utility.yul\":8424:8433   */\n      dup4\n        /* \"#utility.yul\":8420:8437   */\n      add\n        /* \"#utility.yul\":8411:8417   */\n      dup5\n        /* \"#utility.yul\":8367:8438   */\n      tag_280\n      jump\t// in\n    tag_388:\n        /* \"#utility.yul\":8223:8445   */\n      swap3\n      swap2\n      pop\n      pop\n      jump\t// out\n        /* \"#utility.yul\":8451:8780   */\n    tag_91:\n        /* \"#utility.yul\":8510:8516   */\n      0x00\n        /* \"#utility.yul\":8559:8561   */\n      0x20\n        /* \"#utility.yul\":8547:8556   */\n      dup3\n        /* \"#utility.yul\":8538:8545   */\n      dup5\n        /* \"#utility.yul\":8534:8557   */\n      sub\n        /* \"#utility.yul\":8530:8562   */\n      slt\n        /* \"#utility.yul\":8527:8646   */\n      iszero\n      tag_390\n      jumpi\n        /* \"#utility.yul\":8565:8644   */\n      tag_391\n      tag_269\n      jump\t// in\n    tag_391:\n        /* \"#utility.yul\":8527:8646   */\n    tag_390:\n        /* \"#utility.yul\":8685:8686   */\n      0x00\n        /* \"#utility.yul\":8710:8763   */\n      tag_392\n        /* \"#utility.yul\":8755:8762   */\n      dup5\n        /* \"#utility.yul\":8746:8752   */\n      dup3\n        /* \"#utility.yul\":8735:8744   */\n      dup6\n        /* \"#utility.yul\":8731:8753   */\n      add\n        /* \"#utility.yul\":8710:8763   */\n      tag_279\n      jump\t// in\n    tag_392:\n        /* \"#utility.yul\":8700:8763   */\n      swap2\n      pop\n        /* \"#utility.yul\":8656:8773   */\n      pop\n        /* \"#utility.yul\":8451:8780   */\n      swap3\n      swap2\n      pop\n      pop\n      jump\t// out\n        /* \"#utility.yul\":8786:8895   */\n    tag_281:\n        /* \"#utility.yul\":8867:8888   */\n      tag_394\n        /* \"#utility.yul\":8882:8887   */\n      dup2\n        /* \"#utility.yul\":8867:8888   */\n      tag_274\n      jump\t// in\n    tag_394:\n        /* \"#utility.yul\":8862:8865   */\n      dup3\n        /* \"#utility.yul\":8855:8889   */\n      mstore\n        /* \"#utility.yul\":8786:8895   */\n      pop\n      pop\n      jump\t// out\n        /* \"#utility.yul\":8901:9331   */\n    tag_94:\n        /* \"#utility.yul\":9044:9048   */\n      0x00\n        /* \"#utility.yul\":9082:9084   */\n      0x60\n        /* \"#utility.yul\":9071:9080   */\n      dup3\n        /* \"#utility.yul\":9067:9085   */\n      add\n        /* \"#utility.yul\":9059:9085   */\n      swap1\n      pop\n        /* \"#utility.yul\":9095:9166   */\n      tag_396\n        /* \"#utility.yul\":9163:9164   */\n      0x00\n        /* \"#utility.yul\":9152:9161   */\n      dup4\n        /* \"#utility.yul\":9148:9165   */\n      add\n        /* \"#utility.yul\":9139:9145   */\n      dup7\n        /* \"#utility.yul\":9095:9166   */\n      tag_262\n      jump\t// in\n    tag_396:\n        /* \"#utility.yul\":9176:9248   */\n      tag_397\n        /* \"#utility.yul\":9244:9246   */\n      0x20\n        /* \"#utility.yul\":9233:9242   */\n      dup4\n        /* \"#utility.yul\":9229:9247   */\n      add\n        /* \"#utility.yul\":9220:9226   */\n      dup6\n        /* \"#utility.yul\":9176:9248   */\n      tag_280\n      jump\t// in\n    tag_397:\n        /* \"#utility.yul\":9258:9324   */\n      tag_398\n        /* \"#utility.yul\":9320:9322   */\n      0x40\n        /* \"#utility.yul\":9309:9318   */\n      dup4\n        /* \"#utility.yul\":9305:9323   */\n      add\n        /* \"#utility.yul\":9296:9302   */\n      dup5\n        /* \"#utility.yul\":9258:9324   */\n      tag_281\n      jump\t// in\n    tag_398:\n        /* \"#utility.yul\":8901:9331   */\n      swap5\n      swap4\n      pop\n      pop\n      pop\n      pop\n      jump\t// out\n        /* \"#utility.yul\":9337:9423   */\n    tag_282:\n        /* \"#utility.yul\":9372:9379   */\n      0x00\n        /* \"#utility.yul\":9412:9416   */\n      0xff\n        /* \"#utility.yul\":9405:9410   */\n      dup3\n        /* \"#utility.yul\":9401:9417   */\n      and\n        /* \"#utility.yul\":9390:9417   */\n      swap1\n      pop\n        /* \"#utility.yul\":9337:9423   */\n      swap2\n      swap1\n      pop\n      jump\t// out\n        /* \"#utility.yul\":9429:9547   */\n    tag_283:\n        /* \"#utility.yul\":9500:9522   */\n      tag_401\n        /* \"#utility.yul\":9516:9521   */\n      dup2\n        /* \"#utility.yul\":9500:9522   */\n      tag_282\n      jump\t// in\n    tag_401:\n        /* \"#utility.yul\":9493:9498   */\n      dup2\n        /* \"#utility.yul\":9490:9523   */\n      eq\n        /* \"#utility.yul\":9480:9541   */\n      tag_402\n      jumpi\n        /* \"#utility.yul\":9537:9538   */\n      0x00\n        /* \"#utility.yul\":9534:9535   */\n      0x00\n        /* \"#utility.yul\":9527:9539   */\n      revert\n        /* \"#utility.yul\":9480:9541   */\n    tag_402:\n        /* \"#utility.yul\":9429:9547   */\n      pop\n      jump\t// out\n        /* \"#utility.yul\":9553:9688   */\n    tag_284:\n        /* \"#utility.yul\":9597:9602   */\n      0x00\n        /* \"#utility.yul\":9635:9641   */\n      dup2\n        /* \"#utility.yul\":9622:9642   */\n      calldataload\n        /* \"#utility.yul\":9613:9642   */\n      swap1\n      pop\n        /* \"#utility.yul\":9651:9682   */\n      tag_404\n        /* \"#utility.yul\":9676:9681   */\n      dup2\n        /* \"#utility.yul\":9651:9682   */\n      tag_283\n      jump\t// in\n    tag_404:\n        /* \"#utility.yul\":9553:9688   */\n      swap3\n      swap2\n      pop\n      pop\n      jump\t// out\n        /* \"#utility.yul\":9694:10019   */\n    tag_103:\n        /* \"#utility.yul\":9751:9757   */\n      0x00\n        /* \"#utility.yul\":9800:9802   */\n      0x20\n        /* \"#utility.yul\":9788:9797   */\n      dup3\n        /* \"#utility.yul\":9779:9786   */\n      dup5\n        /* \"#utility.yul\":9775:9798   */\n      sub\n        /* \"#utility.yul\":9771:9803   */\n      slt\n        /* \"#utility.yul\":9768:9887   */\n      iszero\n      tag_406\n      jumpi\n        /* \"#utility.yul\":9806:9885   */\n      tag_407\n      tag_269\n      jump\t// in\n    tag_407:\n        /* \"#utility.yul\":9768:9887   */\n    tag_406:\n        /* \"#utility.yul\":9926:9927   */\n      0x00\n        /* \"#utility.yul\":9951:10002   */\n      tag_408\n        /* \"#utility.yul\":9994:10001   */\n      dup5\n        /* \"#utility.yul\":9985:9991   */\n      dup3\n        /* \"#utility.yul\":9974:9983   */\n      dup6\n        /* \"#utility.yul\":9970:9992   */\n      add\n        /* \"#utility.yul\":9951:10002   */\n      tag_284\n      jump\t// in\n    tag_408:\n        /* \"#utility.yul\":9941:10002   */\n      swap2\n      pop\n        /* \"#utility.yul\":9897:10012   */\n      pop\n        /* \"#utility.yul\":9694:10019   */\n      swap3\n      swap2\n      pop\n      pop\n      jump\t// out\n        /* \"#utility.yul\":10025:10129   */\n    tag_285:\n        /* \"#utility.yul\":10070:10077   */\n      0x00\n        /* \"#utility.yul\":10099:10123   */\n      tag_410\n        /* \"#utility.yul\":10117:10122   */\n      dup3\n        /* \"#utility.yul\":10099:10123   */\n      tag_260\n      jump\t// in\n    tag_410:\n        /* \"#utility.yul\":10088:10123   */\n      swap1\n      pop\n        /* \"#utility.yul\":10025:10129   */\n      swap2\n      swap1\n      pop\n      jump\t// out\n        /* \"#utility.yul\":10135:10273   */\n    tag_286:\n        /* \"#utility.yul\":10216:10248   */\n      tag_412\n        /* \"#utility.yul\":10242:10247   */\n      dup2\n        /* \"#utility.yul\":10216:10248   */\n      tag_285\n      jump\t// in\n    tag_412:\n        /* \"#utility.yul\":10209:10214   */\n      dup2\n        /* \"#utility.yul\":10206:10249   */\n      eq\n        /* \"#utility.yul\":10196:10267   */\n      tag_413\n      jumpi\n        /* \"#utility.yul\":10263:10264   */\n      0x00\n        /* \"#utility.yul\":10260:10261   */\n      0x00\n        /* \"#utility.yul\":10253:10265   */\n      revert\n        /* \"#utility.yul\":10196:10267   */\n    tag_413:\n        /* \"#utility.yul\":10135:10273   */\n      pop\n      jump\t// out\n        /* \"#utility.yul\":10279:10434   */\n    tag_287:\n        /* \"#utility.yul\":10333:10338   */\n      0x00\n        /* \"#utility.yul\":10371:10377   */\n      dup2\n        /* \"#utility.yul\":10358:10378   */\n      calldataload\n        /* \"#utility.yul\":10349:10378   */\n      swap1\n      pop\n        /* \"#utility.yul\":10387:10428   */\n      tag_415\n        /* \"#utility.yul\":10422:10427   */\n      dup2\n        /* \"#utility.yul\":10387:10428   */\n      tag_286\n      jump\t// in\n    tag_415:\n        /* \"#utility.yul\":10279:10434   */\n      swap3\n      swap2\n      pop\n      pop\n      jump\t// out\n        /* \"#utility.yul\":10440:10785   */\n    tag_126:\n        /* \"#utility.yul\":10507:10513   */\n      0x00\n        /* \"#utility.yul\":10556:10558   */\n      0x20\n        /* \"#utility.yul\":10544:10553   */\n      dup3\n        /* \"#utility.yul\":10535:10542   */\n      dup5\n        /* \"#utility.yul\":10531:10554   */\n      sub\n        /* \"#utility.yul\":10527:10559   */\n      slt\n        /* \"#utility.yul\":10524:10643   */\n      iszero\n      tag_417\n      jumpi\n        /* \"#utility.yul\":10562:10641   */\n      tag_418\n      tag_269\n      jump\t// in\n    tag_418:\n        /* \"#utility.yul\":10524:10643   */\n    tag_417:\n        /* \"#utility.yul\":10682:10683   */\n      0x00\n        /* \"#utility.yul\":10707:10768   */\n      tag_419\n        /* \"#utility.yul\":10760:10767   */\n      dup5\n        /* \"#utility.yul\":10751:10757   */\n      dup3\n        /* \"#utility.yul\":10740:10749   */\n      dup6\n        /* \"#utility.yul\":10736:10758   */\n      add\n        /* \"#utility.yul\":10707:10768   */\n      tag_287\n      jump\t// in\n    tag_419:\n        /* \"#utility.yul\":10697:10768   */\n      swap2\n      pop\n        /* \"#utility.yul\":10653:10778   */\n      pop\n        /* \"#utility.yul\":10440:10785   */\n      swap3\n      swap2\n      pop\n      pop\n      jump\t// out\n        /* \"#utility.yul\":10791:11261   */\n    tag_131:\n        /* \"#utility.yul\":10857:10863   */\n      0x00\n        /* \"#utility.yul\":10865:10871   */\n      0x00\n        /* \"#utility.yul\":10914:10916   */\n      0x40\n        /* \"#utility.yul\":10902:10911   */\n      dup4\n        /* \"#utility.yul\":10893:10900   */\n      dup6\n        /* \"#utility.yul\":10889:10912   */\n      sub\n        /* \"#utility.yul\":10885:10917   */\n      slt\n        /* \"#utility.yul\":10882:11001   */\n      iszero\n      tag_421\n      jumpi\n        /* \"#utility.yul\":10920:10999   */\n      tag_422\n      tag_269\n      jump\t// in\n    tag_422:\n        /* \"#utility.yul\":10882:11001   */\n    tag_421:\n        /* \"#utility.yul\":11040:11041   */\n      0x00\n        /* \"#utility.yul\":11065:11116   */\n      tag_423\n        /* \"#utility.yul\":11108:11115   */\n      dup6\n        /* \"#utility.yul\":11099:11105   */\n      dup3\n        /* \"#utility.yul\":11088:11097   */\n      dup7\n        /* \"#utility.yul\":11084:11106   */\n      add\n        /* \"#utility.yul\":11065:11116   */\n      tag_284\n      jump\t// in\n    tag_423:\n        /* \"#utility.yul\":11055:11116   */\n      swap3\n      pop\n        /* \"#utility.yul\":11011:11126   */\n      pop\n        /* \"#utility.yul\":11165:11167   */\n      0x20\n        /* \"#utility.yul\":11191:11244   */\n      tag_424\n        /* \"#utility.yul\":11236:11243   */\n      dup6\n        /* \"#utility.yul\":11227:11233   */\n      dup3\n        /* \"#utility.yul\":11216:11225   */\n      dup7\n        /* \"#utility.yul\":11212:11234   */\n      add\n        /* \"#utility.yul\":11191:11244   */\n      tag_279\n      jump\t// in\n    tag_424:\n        /* \"#utility.yul\":11181:11244   */\n      swap2\n      pop\n        /* \"#utility.yul\":11136:11254   */\n      pop\n        /* \"#utility.yul\":10791:11261   */\n      swap3\n      pop\n      swap3\n      swap1\n      pop\n      jump\t// out\n        /* \"#utility.yul\":11267:11379   */\n    tag_288:\n        /* \"#utility.yul\":11350:11372   */\n      tag_426\n        /* \"#utility.yul\":11366:11371   */\n      dup2\n        /* \"#utility.yul\":11350:11372   */\n      tag_282\n      jump\t// in\n    tag_426:\n        /* \"#utility.yul\":11345:11348   */\n      dup3\n        /* \"#utility.yul\":11338:11373   */\n      mstore\n        /* \"#utility.yul\":11267:11379   */\n      pop\n      pop\n      jump\t// out\n        /* \"#utility.yul\":11385:11599   */\n    tag_137:\n        /* \"#utility.yul\":11474:11478   */\n      0x00\n        /* \"#utility.yul\":11512:11514   */\n      0x20\n        /* \"#utility.yul\":11501:11510   */\n      dup3\n        /* \"#utility.yul\":11497:11515   */\n      add\n        /* \"#utility.yul\":11489:11515   */\n      swap1\n      pop\n        /* \"#utility.yul\":11525:11592   */\n      tag_428\n        /* \"#utility.yul\":11589:11590   */\n      0x00\n        /* \"#utility.yul\":11578:11587   */\n      dup4\n        /* \"#utility.yul\":11574:11591   */\n      add\n        /* \"#utility.yul\":11565:11571   */\n      dup5\n        /* \"#utility.yul\":11525:11592   */\n      tag_288\n      jump\t// in\n    tag_428:\n        /* \"#utility.yul\":11385:11599   */\n      swap3\n      swap2\n      pop\n      pop\n      jump\t// out\n        /* \"#utility.yul\":11605:11747   */\n    tag_289:\n        /* \"#utility.yul\":11708:11740   */\n      tag_430\n        /* \"#utility.yul\":11734:11739   */\n      dup2\n        /* \"#utility.yul\":11708:11740   */\n      tag_285\n      jump\t// in\n    tag_430:\n        /* \"#utility.yul\":11703:11706   */\n      dup3\n        /* \"#utility.yul\":11696:11741   */\n      mstore\n        /* \"#utility.yul\":11605:11747   */\n      pop\n      pop\n      jump\t// out\n        /* \"#utility.yul\":11753:12007   */\n    tag_142:\n        /* \"#utility.yul\":11862:11866   */\n      0x00\n        /* \"#utility.yul\":11900:11902   */\n      0x20\n        /* \"#utility.yul\":11889:11898   */\n      dup3\n        /* \"#utility.yul\":11885:11903   */\n      add\n        /* \"#utility.yul\":11877:11903   */\n      swap1\n      pop\n        /* \"#utility.yul\":11913:12000   */\n      tag_432\n        /* \"#utility.yul\":11997:11998   */\n      0x00\n        /* \"#utility.yul\":11986:11995   */\n      dup4\n        /* \"#utility.yul\":11982:11999   */\n      add\n        /* \"#utility.yul\":11973:11979   */\n      dup5\n        /* \"#utility.yul\":11913:12000   */\n      tag_289\n      jump\t// in\n    tag_432:\n        /* \"#utility.yul\":11753:12007   */\n      swap3\n      swap2\n      pop\n      pop\n      jump\t// out\n        /* \"#utility.yul\":12013:12481   */\n    tag_153:\n        /* \"#utility.yul\":12078:12084   */\n      0x00\n        /* \"#utility.yul\":12086:12092   */\n      0x00\n        /* \"#utility.yul\":12135:12137   */\n      0x40\n        /* \"#utility.yul\":12123:12132   */\n      dup4\n        /* \"#utility.yul\":12114:12121   */\n      dup6\n        /* \"#utility.yul\":12110:12133   */\n      sub\n        /* \"#utility.yul\":12106:12138   */\n      slt\n        /* \"#utility.yul\":12103:12222   */\n      iszero\n      tag_434\n      jumpi\n        /* \"#utility.yul\":12141:12220   */\n      tag_435\n      tag_269\n      jump\t// in\n    tag_435:\n        /* \"#utility.yul\":12103:12222   */\n    tag_434:\n        /* \"#utility.yul\":12261:12262   */\n      0x00\n        /* \"#utility.yul\":12286:12336   */\n      tag_436\n        /* \"#utility.yul\":12328:12335   */\n      dup6\n        /* \"#utility.yul\":12319:12325   */\n      dup3\n        /* \"#utility.yul\":12308:12317   */\n      dup7\n        /* \"#utility.yul\":12304:12326   */\n      add\n        /* \"#utility.yul\":12286:12336   */\n      tag_276\n      jump\t// in\n    tag_436:\n        /* \"#utility.yul\":12276:12336   */\n      swap3\n      pop\n        /* \"#utility.yul\":12232:12346   */\n      pop\n        /* \"#utility.yul\":12385:12387   */\n      0x20\n        /* \"#utility.yul\":12411:12464   */\n      tag_437\n        /* \"#utility.yul\":12456:12463   */\n      dup6\n        /* \"#utility.yul\":12447:12453   */\n      dup3\n        /* \"#utility.yul\":12436:12445   */\n      dup7\n        /* \"#utility.yul\":12432:12454   */\n      add\n        /* \"#utility.yul\":12411:12464   */\n      tag_279\n      jump\t// in\n    tag_437:\n        /* \"#utility.yul\":12401:12464   */\n      swap2\n      pop\n        /* \"#utility.yul\":12356:12474   */\n      pop\n        /* \"#utility.yul\":12013:12481   */\n      swap3\n      pop\n      swap3\n      swap1\n      pop\n      jump\t// out\n        /* \"#utility.yul\":12487:12652   */\n    tag_290:\n        /* \"#utility.yul\":12627:12644   */\n      0x436f6e7472616374205061757365640000000000000000000000000000000000\n        /* \"#utility.yul\":12623:12624   */\n      0x00\n        /* \"#utility.yul\":12615:12621   */\n      dup3\n        /* \"#utility.yul\":12611:12625   */\n      add\n        /* \"#utility.yul\":12604:12645   */\n      mstore\n        /* \"#utility.yul\":12487:12652   */\n      pop\n      jump\t// out\n        /* \"#utility.yul\":12658:13024   */\n    tag_291:\n        /* \"#utility.yul\":12800:12803   */\n      0x00\n        /* \"#utility.yul\":12821:12888   */\n      tag_440\n        /* \"#utility.yul\":12885:12887   */\n      0x0f\n        /* \"#utility.yul\":12880:12883   */\n      dup4\n        /* \"#utility.yul\":12821:12888   */\n      tag_257\n      jump\t// in\n    tag_440:\n        /* \"#utility.yul\":12814:12888   */\n      swap2\n      pop\n        /* \"#utility.yul\":12897:12990   */\n      tag_441\n        /* \"#utility.yul\":12986:12989   */\n      dup3\n        /* \"#utility.yul\":12897:12990   */\n      tag_290\n      jump\t// in\n    tag_441:\n        /* \"#utility.yul\":13015:13017   */\n      0x20\n        /* \"#utility.yul\":13010:13013   */\n      dup3\n        /* \"#utility.yul\":13006:13018   */\n      add\n        /* \"#utility.yul\":12999:13018   */\n      swap1\n      pop\n        /* \"#utility.yul\":12658:13024   */\n      swap2\n      swap1\n      pop\n      jump\t// out\n        /* \"#utility.yul\":13030:13449   */\n    tag_171:\n        /* \"#utility.yul\":13196:13200   */\n      0x00\n        /* \"#utility.yul\":13234:13236   */\n      0x20\n        /* \"#utility.yul\":13223:13232   */\n      dup3\n        /* \"#utility.yul\":13219:13237   */\n      add\n        /* \"#utility.yul\":13211:13237   */\n      swap1\n      pop\n        /* \"#utility.yul\":13283:13292   */\n      dup2\n        /* \"#utility.yul\":13277:13281   */\n      dup2\n        /* \"#utility.yul\":13273:13293   */\n      sub\n        /* \"#utility.yul\":13269:13270   */\n      0x00\n        /* \"#utility.yul\":13258:13267   */\n      dup4\n        /* \"#utility.yul\":13254:13271   */\n      add\n        /* \"#utility.yul\":13247:13294   */\n      mstore\n        /* \"#utility.yul\":13311:13442   */\n      tag_443\n        /* \"#utility.yul\":13437:13441   */\n      dup2\n        /* \"#utility.yul\":13311:13442   */\n      tag_291\n      jump\t// in\n    tag_443:\n        /* \"#utility.yul\":13303:13442   */\n      swap1\n      pop\n        /* \"#utility.yul\":13030:13449   */\n      swap2\n      swap1\n      pop\n      jump\t// out\n        /* \"#utility.yul\":13455:13627   */\n    tag_292:\n        /* \"#utility.yul\":13595:13619   */\n      0x4e6f205265656e7472616e63792c706c73207761697400000000000000000000\n        /* \"#utility.yul\":13591:13592   */\n      0x00\n        /* \"#utility.yul\":13583:13589   */\n      dup3\n        /* \"#utility.yul\":13579:13593   */\n      add\n        /* \"#utility.yul\":13572:13620   */\n      mstore\n        /* \"#utility.yul\":13455:13627   */\n      pop\n      jump\t// out\n        /* \"#utility.yul\":13633:13999   */\n    tag_293:\n        /* \"#utility.yul\":13775:13778   */\n      0x00\n        /* \"#utility.yul\":13796:13863   */\n      tag_446\n        /* \"#utility.yul\":13860:13862   */\n      0x16\n        /* \"#utility.yul\":13855:13858   */\n      dup4\n        /* \"#utility.yul\":13796:13863   */\n      tag_257\n      jump\t// in\n    tag_446:\n        /* \"#utility.yul\":13789:13863   */\n      swap2\n      pop\n        /* \"#utility.yul\":13872:13965   */\n      tag_447\n        /* \"#utility.yul\":13961:13964   */\n      dup3\n        /* \"#utility.yul\":13872:13965   */\n      tag_292\n      jump\t// in\n    tag_447:\n        /* \"#utility.yul\":13990:13992   */\n      0x20\n        /* \"#utility.yul\":13985:13988   */\n      dup3\n        /* \"#utility.yul\":13981:13993   */\n      add\n        /* \"#utility.yul\":13974:13993   */\n      swap1\n      pop\n        /* \"#utility.yul\":13633:13999   */\n      swap2\n      swap1\n      pop\n      jump\t// out\n        /* \"#utility.yul\":14005:14424   */\n    tag_175:\n        /* \"#utility.yul\":14171:14175   */\n      0x00\n        /* \"#utility.yul\":14209:14211   */\n      0x20\n        /* \"#utility.yul\":14198:14207   */\n      dup3\n        /* \"#utility.yul\":14194:14212   */\n      add\n        /* \"#utility.yul\":14186:14212   */\n      swap1\n      pop\n        /* \"#utility.yul\":14258:14267   */\n      dup2\n        /* \"#utility.yul\":14252:14256   */\n      dup2\n        /* \"#utility.yul\":14248:14268   */\n      sub\n        /* \"#utility.yul\":14244:14245   */\n      0x00\n        /* \"#utility.yul\":14233:14242   */\n      dup4\n        /* \"#utility.yul\":14229:14246   */\n      add\n        /* \"#utility.yul\":14222:14269   */\n      mstore\n        /* \"#utility.yul\":14286:14417   */\n      tag_449\n        /* \"#utility.yul\":14412:14416   */\n      dup2\n        /* \"#utility.yul\":14286:14417   */\n      tag_293\n      jump\t// in\n    tag_449:\n        /* \"#utility.yul\":14278:14417   */\n      swap1\n      pop\n        /* \"#utility.yul\":14005:14424   */\n      swap2\n      swap1\n      pop\n      jump\t// out\n        /* \"#utility.yul\":14430:14604   */\n    tag_294:\n        /* \"#utility.yul\":14570:14596   */\n      0x53656e64206d6f726520424e4220746f20627579205450540000000000000000\n        /* \"#utility.yul\":14566:14567   */\n      0x00\n        /* \"#utility.yul\":14558:14564   */\n      dup3\n        /* \"#utility.yul\":14554:14568   */\n      add\n        /* \"#utility.yul\":14547:14597   */\n      mstore\n        /* \"#utility.yul\":14430:14604   */\n      pop\n      jump\t// out\n        /* \"#utility.yul\":14610:14976   */\n    tag_295:\n        /* \"#utility.yul\":14752:14755   */\n      0x00\n        /* \"#utility.yul\":14773:14840   */\n      tag_452\n        /* \"#utility.yul\":14837:14839   */\n      0x18\n        /* \"#utility.yul\":14832:14835   */\n      dup4\n        /* \"#utility.yul\":14773:14840   */\n      tag_257\n      jump\t// in\n    tag_452:\n        /* \"#utility.yul\":14766:14840   */\n      swap2\n      pop\n        /* \"#utility.yul\":14849:14942   */\n      tag_453\n        /* \"#utility.yul\":14938:14941   */\n      dup3\n        /* \"#utility.yul\":14849:14942   */\n      tag_294\n      jump\t// in\n    tag_453:\n        /* \"#utility.yul\":14967:14969   */\n      0x20\n        /* \"#utility.yul\":14962:14965   */\n      dup3\n        /* \"#utility.yul\":14958:14970   */\n      add\n        /* \"#utility.yul\":14951:14970   */\n      swap1\n      pop\n        /* \"#utility.yul\":14610:14976   */\n      swap2\n      swap1\n      pop\n      jump\t// out\n        /* \"#utility.yul\":14982:15401   */\n    tag_179:\n        /* \"#utility.yul\":15148:15152   */\n      0x00\n        /* \"#utility.yul\":15186:15188   */\n      0x20\n        /* \"#utility.yul\":15175:15184   */\n      dup3\n        /* \"#utility.yul\":15171:15189   */\n      add\n        /* \"#utility.yul\":15163:15189   */\n      swap1\n      pop\n        /* \"#utility.yul\":15235:15244   */\n      dup2\n        /* \"#utility.yul\":15229:15233   */\n      dup2\n        /* \"#utility.yul\":15225:15245   */\n      sub\n        /* \"#utility.yul\":15221:15222   */\n      0x00\n        /* \"#utility.yul\":15210:15219   */\n      dup4\n        /* \"#utility.yul\":15206:15223   */\n      add\n        /* \"#utility.yul\":15199:15246   */\n      mstore\n        /* \"#utility.yul\":15263:15394   */\n      tag_455\n        /* \"#utility.yul\":15389:15393   */\n      dup2\n        /* \"#utility.yul\":15263:15394   */\n      tag_295\n      jump\t// in\n    tag_455:\n        /* \"#utility.yul\":15255:15394   */\n      swap1\n      pop\n        /* \"#utility.yul\":14982:15401   */\n      swap2\n      swap1\n      pop\n      jump\t// out\n        /* \"#utility.yul\":15407:15576   */\n    tag_296:\n        /* \"#utility.yul\":15547:15568   */\n      0x496e76616c69642064617461206c656e67746800000000000000000000000000\n        /* \"#utility.yul\":15543:15544   */\n      0x00\n        /* \"#utility.yul\":15535:15541   */\n      dup3\n        /* \"#utility.yul\":15531:15545   */\n      add\n        /* \"#utility.yul\":15524:15569   */\n      mstore\n        /* \"#utility.yul\":15407:15576   */\n      pop\n      jump\t// out\n        /* \"#utility.yul\":15582:15948   */\n    tag_297:\n        /* \"#utility.yul\":15724:15727   */\n      0x00\n        /* \"#utility.yul\":15745:15812   */\n      tag_458\n        /* \"#utility.yul\":15809:15811   */\n      0x13\n        /* \"#utility.yul\":15804:15807   */\n      dup4\n        /* \"#utility.yul\":15745:15812   */\n      tag_257\n      jump\t// in\n    tag_458:\n        /* \"#utility.yul\":15738:15812   */\n      swap2\n      pop\n        /* \"#utility.yul\":15821:15914   */\n      tag_459\n        /* \"#utility.yul\":15910:15913   */\n      dup3\n        /* \"#utility.yul\":15821:15914   */\n      tag_296\n      jump\t// in\n    tag_459:\n        /* \"#utility.yul\":15939:15941   */\n      0x20\n        /* \"#utility.yul\":15934:15937   */\n      dup3\n        /* \"#utility.yul\":15930:15942   */\n      add\n        /* \"#utility.yul\":15923:15942   */\n      swap1\n      pop\n        /* \"#utility.yul\":15582:15948   */\n      swap2\n      swap1\n      pop\n      jump\t// out\n        /* \"#utility.yul\":15954:16373   */\n    tag_182:\n        /* \"#utility.yul\":16120:16124   */\n      0x00\n        /* \"#utility.yul\":16158:16160   */\n      0x20\n        /* \"#utility.yul\":16147:16156   */\n      dup3\n        /* \"#utility.yul\":16143:16161   */\n      add\n        /* \"#utility.yul\":16135:16161   */\n      swap1\n      pop\n        /* \"#utility.yul\":16207:16216   */\n      dup2\n        /* \"#utility.yul\":16201:16205   */\n      dup2\n        /* \"#utility.yul\":16197:16217   */\n      sub\n        /* \"#utility.yul\":16193:16194   */\n      0x00\n        /* \"#utility.yul\":16182:16191   */\n      dup4\n        /* \"#utility.yul\":16178:16195   */\n      add\n        /* \"#utility.yul\":16171:16218   */\n      mstore\n        /* \"#utility.yul\":16235:16366   */\n      tag_461\n        /* \"#utility.yul\":16361:16365   */\n      dup2\n        /* \"#utility.yul\":16235:16366   */\n      tag_297\n      jump\t// in\n    tag_461:\n        /* \"#utility.yul\":16227:16366   */\n      swap1\n      pop\n        /* \"#utility.yul\":15954:16373   */\n      swap2\n      swap1\n      pop\n      jump\t// out\n        /* \"#utility.yul\":16379:16559   */\n    tag_298:\n        /* \"#utility.yul\":16427:16504   */\n      0x4e487b7100000000000000000000000000000000000000000000000000000000\n        /* \"#utility.yul\":16424:16425   */\n      0x00\n        /* \"#utility.yul\":16417:16505   */\n      mstore\n        /* \"#utility.yul\":16524:16528   */\n      0x11\n        /* \"#utility.yul\":16521:16522   */\n      0x04\n        /* \"#utility.yul\":16514:16529   */\n      mstore\n        /* \"#utility.yul\":16548:16552   */\n      0x24\n        /* \"#utility.yul\":16545:16546   */\n      0x00\n        /* \"#utility.yul\":16538:16553   */\n      revert\n        /* \"#utility.yul\":16565:16798   */\n    tag_186:\n        /* \"#utility.yul\":16604:16607   */\n      0x00\n        /* \"#utility.yul\":16627:16651   */\n      tag_464\n        /* \"#utility.yul\":16645:16650   */\n      dup3\n        /* \"#utility.yul\":16627:16651   */\n      tag_271\n      jump\t// in\n    tag_464:\n        /* \"#utility.yul\":16618:16651   */\n      swap2\n      pop\n        /* \"#utility.yul\":16673:16739   */\n      0xffffffffffffffffffffffffffffffffffffffffffffffffffffffffffffffff\n        /* \"#utility.yul\":16666:16671   */\n      dup3\n        /* \"#utility.yul\":16663:16740   */\n      sub\n        /* \"#utility.yul\":16660:16763   */\n      tag_465\n      jumpi\n        /* \"#utility.yul\":16743:16761   */\n      tag_466\n      tag_298\n      jump\t// in\n    tag_466:\n        /* \"#utility.yul\":16660:16763   */\n    tag_465:\n        /* \"#utility.yul\":16790:16791   */\n      0x01\n        /* \"#utility.yul\":16783:16788   */\n      dup3\n        /* \"#utility.yul\":16779:16792   */\n      add\n        /* \"#utility.yul\":16772:16792   */\n      swap1\n      pop\n        /* \"#utility.yul\":16565:16798   */\n      swap2\n      swap1\n      pop\n      jump\t// out\n        /* \"#utility.yul\":16804:16984   */\n    tag_192:\n        /* \"#utility.yul\":16852:16929   */\n      0x4e487b7100000000000000000000000000000000000000000000000000000000\n        /* \"#utility.yul\":16849:16850   */\n      0x00\n        /* \"#utility.yul\":16842:16930   */\n      mstore\n        /* \"#utility.yul\":16949:16953   */\n      0x32\n        /* \"#utility.yul\":16946:16947   */\n      0x04\n        /* \"#utility.yul\":16939:16954   */\n      mstore\n        /* \"#utility.yul\":16973:16977   */\n      0x24\n        /* \"#utility.yul\":16970:16971   */\n      0x00\n        /* \"#utility.yul\":16963:16978   */\n      revert\n        /* \"#utility.yul\":16990:17150   */\n    tag_299:\n        /* \"#utility.yul\":17130:17142   */\n      0x4f6e6c79206f776e657200000000000000000000000000000000000000000000\n        /* \"#utility.yul\":17126:17127   */\n      0x00\n        /* \"#utility.yul\":17118:17124   */\n      dup3\n        /* \"#utility.yul\":17114:17128   */\n      add\n        /* \"#utility.yul\":17107:17143   */\n      mstore\n        /* \"#utility.yul\":16990:17150   */\n      pop\n      jump\t// out\n        /* \"#utility.yul\":17156:17522   */\n    tag_300:\n        /* \"#utility.yul\":17298:17301   */\n      0x00\n        /* \"#utility.yul\":17319:17386   */\n      tag_470\n        /* \"#utility.yul\":17383:17385   */\n      0x0a\n        /* \"#utility.yul\":17378:17381   */\n      dup4\n        /* \"#utility.yul\":17319:17386   */\n      tag_257\n      jump\t// in\n    tag_470:\n        /* \"#utility.yul\":17312:17386   */\n      swap2\n      pop\n        /* \"#utility.yul\":17395:17488   */\n      tag_471\n        /* \"#utility.yul\":17484:17487   */\n      dup3\n        /* \"#utility.yul\":17395:17488   */\n      tag_299\n      jump\t// in\n    tag_471:\n        /* \"#utility.yul\":17513:17515   */\n      0x20\n        /* \"#utility.yul\":17508:17511   */\n      dup3\n        /* \"#utility.yul\":17504:17516   */\n      add\n        /* \"#utility.yul\":17497:17516   */\n      swap1\n      pop\n        /* \"#utility.yul\":17156:17522   */\n      swap2\n      swap1\n      pop\n      jump\t// out\n        /* \"#utility.yul\":17528:17947   */\n    tag_200:\n        /* \"#utility.yul\":17694:17698   */\n      0x00\n        /* \"#utility.yul\":17732:17734   */\n      0x20\n        /* \"#utility.yul\":17721:17730   */\n      dup3\n        /* \"#utility.yul\":17717:17735   */\n      add\n        /* \"#utility.yul\":17709:17735   */\n      swap1\n      pop\n        /* \"#utility.yul\":17781:17790   */\n      dup2\n        /* \"#utility.yul\":17775:17779   */\n      dup2\n        /* \"#utility.yul\":17771:17791   */\n      sub\n        /* \"#utility.yul\":17767:17768   */\n      0x00\n        /* \"#utility.yul\":17756:17765   */\n      dup4\n        /* \"#utility.yul\":17752:17769   */\n      add\n        /* \"#utility.yul\":17745:17792   */\n      mstore\n        /* \"#utility.yul\":17809:17940   */\n      tag_473\n        /* \"#utility.yul\":17935:17939   */\n      dup2\n        /* \"#utility.yul\":17809:17940   */\n      tag_300\n      jump\t// in\n    tag_473:\n        /* \"#utility.yul\":17801:17940   */\n      swap1\n      pop\n        /* \"#utility.yul\":17528:17947   */\n      swap2\n      swap1\n      pop\n      jump\t// out\n        /* \"#utility.yul\":17953:18118   */\n    tag_301:\n        /* \"#utility.yul\":18093:18110   */\n      0x496e76616c696420757365722049440000000000000000000000000000000000\n        /* \"#utility.yul\":18089:18090   */\n      0x00\n        /* \"#utility.yul\":18081:18087   */\n      dup3\n        /* \"#utility.yul\":18077:18091   */\n      add\n        /* \"#utility.yul\":18070:18111   */\n      mstore\n        /* \"#utility.yul\":17953:18118   */\n      pop\n      jump\t// out\n        /* \"#utility.yul\":18124:18490   */\n    tag_302:\n        /* \"#utility.yul\":18266:18269   */\n      0x00\n        /* \"#utility.yul\":18287:18354   */\n      tag_476\n        /* \"#utility.yul\":18351:18353   */\n      0x0f\n        /* \"#utility.yul\":18346:18349   */\n      dup4\n        /* \"#utility.yul\":18287:18354   */\n      tag_257\n      jump\t// in\n    tag_476:\n        /* \"#utility.yul\":18280:18354   */\n      swap2\n      pop\n        /* \"#utility.yul\":18363:18456   */\n      tag_477\n        /* \"#utility.yul\":18452:18455   */\n      dup3\n        /* \"#utility.yul\":18363:18456   */\n      tag_301\n      jump\t// in\n    tag_477:\n        /* \"#utility.yul\":18481:18483   */\n      0x20\n        /* \"#utility.yul\":18476:18479   */\n      dup3\n        /* \"#utility.yul\":18472:18484   */\n      add\n        /* \"#utility.yul\":18465:18484   */\n      swap1\n      pop\n        /* \"#utility.yul\":18124:18490   */\n      swap2\n      swap1\n      pop\n      jump\t// out\n        /* \"#utility.yul\":18496:18915   */\n    tag_217:\n        /* \"#utility.yul\":18662:18666   */\n      0x00\n        /* \"#utility.yul\":18700:18702   */\n      0x20\n        /* \"#utility.yul\":18689:18698   */\n      dup3\n        /* \"#utility.yul\":18685:18703   */\n      add\n        /* \"#utility.yul\":18677:18703   */\n      swap1\n      pop\n        /* \"#utility.yul\":18749:18758   */\n      dup2\n        /* \"#utility.yul\":18743:18747   */\n      dup2\n        /* \"#utility.yul\":18739:18759   */\n      sub\n        /* \"#utility.yul\":18735:18736   */\n      0x00\n        /* \"#utility.yul\":18724:18733   */\n      dup4\n        /* \"#utility.yul\":18720:18737   */\n      add\n        /* \"#utility.yul\":18713:18760   */\n      mstore\n        /* \"#utility.yul\":18777:18908   */\n      tag_479\n        /* \"#utility.yul\":18903:18907   */\n      dup2\n        /* \"#utility.yul\":18777:18908   */\n      tag_302\n      jump\t// in\n    tag_479:\n        /* \"#utility.yul\":18769:18908   */\n      swap1\n      pop\n        /* \"#utility.yul\":18496:18915   */\n      swap2\n      swap1\n      pop\n      jump\t// out\n        /* \"#utility.yul\":18921:19112   */\n    tag_219:\n        /* \"#utility.yul\":18961:18964   */\n      0x00\n        /* \"#utility.yul\":18980:19000   */\n      tag_481\n        /* \"#utility.yul\":18998:18999   */\n      dup3\n        /* \"#utility.yul\":18980:19000   */\n      tag_271\n      jump\t// in\n    tag_481:\n        /* \"#utility.yul\":18975:19000   */\n      swap2\n      pop\n        /* \"#utility.yul\":19014:19034   */\n      tag_482\n        /* \"#utility.yul\":19032:19033   */\n      dup4\n        /* \"#utility.yul\":19014:19034   */\n      tag_271\n      jump\t// in\n    tag_482:\n        /* \"#utility.yul\":19009:19034   */\n      swap3\n      pop\n        /* \"#utility.yul\":19057:19058   */\n      dup3\n        /* \"#utility.yul\":19054:19055   */\n      dup3\n        /* \"#utility.yul\":19050:19059   */\n      add\n        /* \"#utility.yul\":19043:19059   */\n      swap1\n      pop\n        /* \"#utility.yul\":19078:19081   */\n      dup1\n        /* \"#utility.yul\":19075:19076   */\n      dup3\n        /* \"#utility.yul\":19072:19082   */\n      gt\n        /* \"#utility.yul\":19069:19105   */\n      iszero\n      tag_483\n      jumpi\n        /* \"#utility.yul\":19085:19103   */\n      tag_484\n      tag_298\n      jump\t// in\n    tag_484:\n        /* \"#utility.yul\":19069:19105   */\n    tag_483:\n        /* \"#utility.yul\":18921:19112   */\n      swap3\n      swap2\n      pop\n      pop\n      jump\t// out\n        /* \"#utility.yul\":19118:19298   */\n    tag_303:\n        /* \"#utility.yul\":19166:19243   */\n      0x4e487b7100000000000000000000000000000000000000000000000000000000\n        /* \"#utility.yul\":19163:19164   */\n      0x00\n        /* \"#utility.yul\":19156:19244   */\n      mstore\n        /* \"#utility.yul\":19263:19267   */\n      0x12\n        /* \"#utility.yul\":19260:19261   */\n      0x04\n        /* \"#utility.yul\":19253:19268   */\n      mstore\n        /* \"#utility.yul\":19287:19291   */\n      0x24\n        /* \"#utility.yul\":19284:19285   */\n      0x00\n        /* \"#utility.yul\":19277:19292   */\n      revert\n        /* \"#utility.yul\":19304:19489   */\n    tag_223:\n        /* \"#utility.yul\":19344:19345   */\n      0x00\n        /* \"#utility.yul\":19361:19381   */\n      tag_487\n        /* \"#utility.yul\":19379:19380   */\n      dup3\n        /* \"#utility.yul\":19361:19381   */\n      tag_271\n      jump\t// in\n    tag_487:\n        /* \"#utility.yul\":19356:19381   */\n      swap2\n      pop\n        /* \"#utility.yul\":19395:19415   */\n      tag_488\n        /* \"#utility.yul\":19413:19414   */\n      dup4\n        /* \"#utility.yul\":19395:19415   */\n      tag_271\n      jump\t// in\n    tag_488:\n        /* \"#utility.yul\":19390:19415   */\n      swap3\n      pop\n        /* \"#utility.yul\":19434:19435   */\n      dup3\n        /* \"#utility.yul\":19424:19459   */\n      tag_489\n      jumpi\n        /* \"#utility.yul\":19439:19457   */\n      tag_490\n      tag_303\n      jump\t// in\n    tag_490:\n        /* \"#utility.yul\":19424:19459   */\n    tag_489:\n        /* \"#utility.yul\":19481:19482   */\n      dup3\n        /* \"#utility.yul\":19478:19479   */\n      dup3\n        /* \"#utility.yul\":19474:19483   */\n      div\n        /* \"#utility.yul\":19469:19483   */\n      swap1\n      pop\n        /* \"#utility.yul\":19304:19489   */\n      swap3\n      swap2\n      pop\n      pop\n      jump\t// out\n        /* \"#utility.yul\":19495:19905   */\n    tag_229:\n        /* \"#utility.yul\":19535:19542   */\n      0x00\n        /* \"#utility.yul\":19558:19578   */\n      tag_492\n        /* \"#utility.yul\":19576:19577   */\n      dup3\n        /* \"#utility.yul\":19558:19578   */\n      tag_271\n      jump\t// in\n    tag_492:\n        /* \"#utility.yul\":19553:19578   */\n      swap2\n      pop\n        /* \"#utility.yul\":19592:19612   */\n      tag_493\n        /* \"#utility.yul\":19610:19611   */\n      dup4\n        /* \"#utility.yul\":19592:19612   */\n      tag_271\n      jump\t// in\n    tag_493:\n        /* \"#utility.yul\":19587:19612   */\n      swap3\n      pop\n        /* \"#utility.yul\":19647:19648   */\n      dup3\n        /* \"#utility.yul\":19644:19645   */\n      dup3\n        /* \"#utility.yul\":19640:19649   */\n      mul\n        /* \"#utility.yul\":19669:19699   */\n      tag_494\n        /* \"#utility.yul\":19687:19698   */\n      dup2\n        /* \"#utility.yul\":19669:19699   */\n      tag_271\n      jump\t// in\n    tag_494:\n        /* \"#utility.yul\":19658:19699   */\n      swap2\n      pop\n        /* \"#utility.yul\":19848:19849   */\n      dup3\n        /* \"#utility.yul\":19839:19846   */\n      dup3\n        /* \"#utility.yul\":19835:19850   */\n      div\n        /* \"#utility.yul\":19832:19833   */\n      dup5\n        /* \"#utility.yul\":19829:19851   */\n      eq\n        /* \"#utility.yul\":19809:19810   */\n      dup4\n        /* \"#utility.yul\":19802:19811   */\n      iszero\n        /* \"#utility.yul\":19782:19865   */\n      or\n        /* \"#utility.yul\":19759:19898   */\n      tag_495\n      jumpi\n        /* \"#utility.yul\":19878:19896   */\n      tag_496\n      tag_298\n      jump\t// in\n    tag_496:\n        /* \"#utility.yul\":19759:19898   */\n    tag_495:\n        /* \"#utility.yul\":19543:19905   */\n      pop\n        /* \"#utility.yul\":19495:19905   */\n      swap3\n      swap2\n      pop\n      pop\n      jump\t// out\n        /* \"#utility.yul\":19911:20076   */\n    tag_304:\n        /* \"#utility.yul\":20051:20068   */\n      0x496e76616c696420616464726573730000000000000000000000000000000000\n        /* \"#utility.yul\":20047:20048   */\n      0x00\n        /* \"#utility.yul\":20039:20045   */\n      dup3\n        /* \"#utility.yul\":20035:20049   */\n      add\n        /* \"#utility.yul\":20028:20069   */\n      mstore\n        /* \"#utility.yul\":19911:20076   */\n      pop\n      jump\t// out\n        /* \"#utility.yul\":20082:20448   */\n    tag_305:\n        /* \"#utility.yul\":20224:20227   */\n      0x00\n        /* \"#utility.yul\":20245:20312   */\n      tag_499\n        /* \"#utility.yul\":20309:20311   */\n      0x0f\n        /* \"#utility.yul\":20304:20307   */\n      dup4\n        /* \"#utility.yul\":20245:20312   */\n      tag_257\n      jump\t// in\n    tag_499:\n        /* \"#utility.yul\":20238:20312   */\n      swap2\n      pop\n        /* \"#utility.yul\":20321:20414   */\n      tag_500\n        /* \"#utility.yul\":20410:20413   */\n      dup3\n        /* \"#utility.yul\":20321:20414   */\n      tag_304\n      jump\t// in\n    tag_500:\n        /* \"#utility.yul\":20439:20441   */\n      0x20\n        /* \"#utility.yul\":20434:20437   */\n      dup3\n        /* \"#utility.yul\":20430:20442   */\n      add\n        /* \"#utility.yul\":20423:20442   */\n      swap1\n      pop\n        /* \"#utility.yul\":20082:20448   */\n      swap2\n      swap1\n      pop\n      jump\t// out\n        /* \"#utility.yul\":20454:20873   */\n    tag_243:\n        /* \"#utility.yul\":20620:20624   */\n      0x00\n        /* \"#utility.yul\":20658:20660   */\n      0x20\n        /* \"#utility.yul\":20647:20656   */\n      dup3\n        /* \"#utility.yul\":20643:20661   */\n      add\n        /* \"#utility.yul\":20635:20661   */\n      swap1\n      pop\n        /* \"#utility.yul\":20707:20716   */\n      dup2\n        /* \"#utility.yul\":20701:20705   */\n      dup2\n        /* \"#utility.yul\":20697:20717   */\n      sub\n        /* \"#utility.yul\":20693:20694   */\n      0x00\n        /* \"#utility.yul\":20682:20691   */\n      dup4\n        /* \"#utility.yul\":20678:20695   */\n      add\n        /* \"#utility.yul\":20671:20718   */\n      mstore\n        /* \"#utility.yul\":20735:20866   */\n      tag_502\n        /* \"#utility.yul\":20861:20865   */\n      dup2\n        /* \"#utility.yul\":20735:20866   */\n      tag_305\n      jump\t// in\n    tag_502:\n        /* \"#utility.yul\":20727:20866   */\n      swap1\n      pop\n        /* \"#utility.yul\":20454:20873   */\n      swap2\n      swap1\n      pop\n      jump\t// out\n\n    auxdata: 0xa264697066735822122077f3b6f459be9b3bd638b0b44b7638d802b7a078b73affd3290c2be6019eb98464736f6c634300081e0033\n}\n",
				"bytecode": {
					"linkReferences": {},
					"object": "608060405234801561000f575f5ffd5b506040516123093803806123098339818101604052810190610031919061012f565b3360015f6101000a81548173ffffffffffffffffffffffffffffffffffffffff021916908373ffffffffffffffffffffffffffffffffffffffff1602179055505f600160156101000a81548160ff021916908360ff160217905550805f5f6101000a81548173ffffffffffffffffffffffffffffffffffffffff021916908373ffffffffffffffffffffffffffffffffffffffff1602179055505061015a565b5f5ffd5b5f73ffffffffffffffffffffffffffffffffffffffff82169050919050565b5f6100fe826100d5565b9050919050565b61010e816100f4565b8114610118575f5ffd5b50565b5f8151905061012981610105565b92915050565b5f60208284031215610144576101436100d1565b5b5f6101518482850161011b565b91505092915050565b6121a2806101675f395ff3fe608060405260043610610122575f3560e01c806395e557481161009f578063ca90d6e611610063578063ca90d6e6146108ad578063cb722d11146108d5578063d221954b14610905578063fa09e6301461091b578063fdbb6696146109435761036a565b806395e55748146107df578063a2f5546e14610807578063ae2430311461082f578063ae372ec114610859578063bff1f9e1146108835761036a565b8063556a7579116100e6578063556a7579146106eb578063672cbe1a146107275780637ce8a08e146107515780638da5cb5b1461077957806390d976e2146107a35761036a565b80632a2a92cc146105bb5780632b956ff7146105f957806331bbf55514610635578063365b98b214610671578063376fe102146106af5761036a565b3661036a575f5f5f9054906101000a900473ffffffffffffffffffffffffffffffffffffffff1673ffffffffffffffffffffffffffffffffffffffff16653691d6afc000604051610172906117b0565b5f6040518083038185875af1925050503d805f81146101ac576040519150601f19603f3d011682016040523d82523d5f602084013e6101b1565b606091505b50509050806101f5576040517f08c379a00000000000000000000000000000000000000000000000000000000081526004016101ec9061181e565b60405180910390fd5b5f5f5f5f9054906101000a900473ffffffffffffffffffffffffffffffffffffffff1673ffffffffffffffffffffffffffffffffffffffff163360405160240161023f919061187b565b6040516020818303038152906040527fed9b8d50000000000000000000000000000000000000000000000000000000007bffffffffffffffffffffffffffffffffffffffffffffffffffffffff19166020820180517bffffffffffffffffffffffffffffffffffffffffffffffffffffffff83818316178352505050506040516102c991906118dc565b5f60405180830381855afa9150503d805f8114610301576040519150601f19603f3d011682016040523d82523d5f602084013e610306565b606091505b50915091508161034b576040517f08c379a00000000000000000000000000000000000000000000000000000000081526004016103429061193c565b60405180910390fd5b6103685f828060200190518101906103639190611991565b61097f565b005b5f5f5f9054906101000a900473ffffffffffffffffffffffffffffffffffffffff1673ffffffffffffffffffffffffffffffffffffffff16653691d6afc0006040516103b5906117b0565b5f6040518083038185875af1925050503d805f81146103ef576040519150601f19603f3d011682016040523d82523d5f602084013e6103f4565b606091505b5050905080610438576040517f08c379a000000000000000000000000000000000000000000000000000000000815260040161042f9061181e565b60405180910390fd5b5f5f5f5f9054906101000a900473ffffffffffffffffffffffffffffffffffffffff1673ffffffffffffffffffffffffffffffffffffffff1633604051602401610482919061187b565b6040516020818303038152906040527fed9b8d50000000000000000000000000000000000000000000000000000000007bffffffffffffffffffffffffffffffffffffffffffffffffffffffff19166020820180517bffffffffffffffffffffffffffffffffffffffffffffffffffffffff838183161783525050505060405161050c91906118dc565b5f60405180830381855afa9150503d805f8114610544576040519150601f19603f3d011682016040523d82523d5f602084013e610549565b606091505b50915091508161058e576040517f08c379a00000000000000000000000000000000000000000000000000000000081526004016105859061193c565b60405180910390fd5b6105b95f368101906105a091906119f1565b828060200190518101906105b49190611991565b61097f565b005b3480156105c6575f5ffd5b506105e160048036038101906105dc9190611a5a565b610cfe565b6040516105f093929190611aa7565b60405180910390f35b348015610604575f5ffd5b5061061f600480360381019061061a9190611adc565b610dd3565b60405161062c9190611b07565b60405180910390f35b348015610640575f5ffd5b5061065b60048036038101906106569190611adc565b610e19565b6040516106689190611b07565b60405180910390f35b34801561067c575f5ffd5b5061069760048036038101906106929190611b20565b610e76565b6040516106a693929190611b5a565b60405180910390f35b3480156106ba575f5ffd5b506106d560048036038101906106d09190611adc565b610ec7565b6040516106e29190611b07565b60405180910390f35b3480156106f6575f5ffd5b50610711600480360381019061070c9190611bc5565b610edc565b60405161071e9190611b07565b60405180910390f35b348015610732575f5ffd5b5061073b610ef1565b6040516107489190611b07565b60405180910390f35b34801561075c575f5ffd5b5061077760048036038101906107729190611bc5565b610f1e565b005b348015610784575f5ffd5b5061078d610fcb565b60405161079a919061187b565b60405180910390f35b3480156107ae575f5ffd5b506107c960048036038101906107c49190611b20565b610ff0565b6040516107d6919061187b565b60405180910390f35b3480156107ea575f5ffd5b5061080560048036038101906108009190611c2b565b61102b565b005b348015610812575f5ffd5b5061082d60048036038101906108289190611c56565b6110fc565b005b34801561083a575f5ffd5b506108436111ab565b6040516108509190611ca3565b60405180910390f35b348015610864575f5ffd5b5061086d6111be565b60405161087a9190611ccb565b60405180910390f35b34801561088e575f5ffd5b506108976111e2565b6040516108a49190611b07565b60405180910390f35b3480156108b8575f5ffd5b506108d360048036038101906108ce9190611a5a565b6111e8565b005b6108ef60048036038101906108ea9190611ce4565b611361565b6040516108fc9190611b07565b60405180910390f35b348015610910575f5ffd5b506109196113ff565b005b348015610926575f5ffd5b50610941600480360381019061093c9190611c2b565b61150b565b005b34801561094e575f5ffd5b5061096960048036038101906109649190611adc565b61164f565b6040516109769190611b07565b60405180910390f35b5f600160159054906101000a900460ff1660ff16036109d3576040517f08c379a00000000000000000000000000000000000000000000000000000000081526004016109ca90611d6c565b60405180910390fd5b60011515600160149054906101000a900460ff16151503610a29576040517f08c379a0000000000000000000000000000000000000000000000000000000008152600401610a2090611dd4565b60405180910390fd5b60018060146101000a81548160ff02191690831515021790555066b1a2bc2ec50000341015610a8d576040517f08c379a0000000000000000000000000000000000000000000000000000000008152600401610a8490611e3c565b60405180910390fd5b60205f3690501015610ad4576040517f08c379a0000000000000000000000000000000000000000000000000000000008152600401610acb90611ea4565b60405180910390fd5b5f610adf8383611361565b90505f60045f3373ffffffffffffffffffffffffffffffffffffffff1673ffffffffffffffffffffffffffffffffffffffff1681526020019081526020015f205403610cc45760035f815480929190610b3790611eef565b919050555060035460045f3373ffffffffffffffffffffffffffffffffffffffff1673ffffffffffffffffffffffffffffffffffffffff1681526020019081526020015f20819055505f60055f60035481526020019081526020015f20905033815f015f6101000a81548173ffffffffffffffffffffffffffffffffffffffff021916908373ffffffffffffffffffffffffffffffffffffffff1602179055505f81600101819055506001816002015f6101000a81548160ff0219169083151502179055508060055f60035481526020019081526020015f205f82015f9054906101000a900473ffffffffffffffffffffffffffffffffffffffff16815f015f6101000a81548173ffffffffffffffffffffffffffffffffffffffff021916908373ffffffffffffffffffffffffffffffffffffffff16021790555060018201548160010155600282015f9054906101000a900460ff16816002015f6101000a81548160ff0219169083151502179055506003820181600301908054610cbe9291906116a9565b50905050505b8060055f60035481526020019081526020015f2060010181905550505f600160146101000a81548160ff0219169083151502179055505050565b5f5f5f5f60055f60045f8973ffffffffffffffffffffffffffffffffffffffff1673ffffffffffffffffffffffffffffffffffffffff1681526020019081526020015f205481526020019081526020015f206003018581548110610d6557610d64611f36565b5b905f5260205f2090600402016040518060800160405290815f82015481526020016001820154815260200160028201548152602001600382015f9054906101000a900460ff1660ff1660ff16815250509050805f015181602001518260400151935093509350509250925092565b5f60045f8373ffffffffffffffffffffffffffffffffffffffff1673ffffffffffffffffffffffffffffffffffffffff1681526020019081526020015f20549050919050565b5f60055f60045f8573ffffffffffffffffffffffffffffffffffffffff1673ffffffffffffffffffffffffffffffffffffffff1681526020019081526020015f205481526020019081526020015f20600301805490509050919050565b6005602052805f5260405f205f91509050805f015f9054906101000a900473ffffffffffffffffffffffffffffffffffffffff1690806001015490806002015f9054906101000a900460ff16905083565b6004602052805f5260405f205f915090505481565b6002602052805f5260405f205f915090505481565b5f60025f600160159054906101000a900460ff1660ff1660ff1681526020019081526020015f2054905090565b60015f9054906101000a900473ffffffffffffffffffffffffffffffffffffffff1673ffffffffffffffffffffffffffffffffffffffff163373ffffffffffffffffffffffffffffffffffffffff1614610fad576040517f08c379a0000000000000000000000000000000000000000000000000000000008152600401610fa490611fad565b60405180910390fd5b80600160156101000a81548160ff021916908360ff16021790555050565b60015f9054906101000a900473ffffffffffffffffffffffffffffffffffffffff1681565b5f60055f8381526020019081526020015f205f015f9054906101000a900473ffffffffffffffffffffffffffffffffffffffff169050919050565b60015f9054906101000a900473ffffffffffffffffffffffffffffffffffffffff1673ffffffffffffffffffffffffffffffffffffffff163373ffffffffffffffffffffffffffffffffffffffff16146110ba576040517f08c379a00000000000000000000000000000000000000000000000000000000081526004016110b190611fad565b60405180910390fd5b805f5f6101000a81548173ffffffffffffffffffffffffffffffffffffffff021916908373ffffffffffffffffffffffffffffffffffffffff16021790555050565b60015f9054906101000a900473ffffffffffffffffffffffffffffffffffffffff1673ffffffffffffffffffffffffffffffffffffffff163373ffffffffffffffffffffffffffffffffffffffff161461118b576040517f08c379a000000000000000000000000000000000000000000000000000000000815260040161118290611fad565b60405180910390fd5b8060025f8460ff1660ff1681526020019081526020015f20819055505050565b600160159054906101000a900460ff1681565b5f5f9054906101000a900473ffffffffffffffffffffffffffffffffffffffff1681565b60035481565b60015f9054906101000a900473ffffffffffffffffffffffffffffffffffffffff1673ffffffffffffffffffffffffffffffffffffffff163373ffffffffffffffffffffffffffffffffffffffff1614611277576040517f08c379a000000000000000000000000000000000000000000000000000000000815260040161126e90611fad565b60405180910390fd5b5f60045f8473ffffffffffffffffffffffffffffffffffffffff1673ffffffffffffffffffffffffffffffffffffffff1681526020019081526020015f2054036112f6576040517f08c379a00000000000000000000000000000000000000000000000000000000081526004016112ed90612015565b60405180910390fd5b8060055f60045f8673ffffffffffffffffffffffffffffffffffffffff1673ffffffffffffffffffffffffffffffffffffffff1681526020019081526020015f205481526020019081526020015f206001015f8282546113569190612033565b925050819055505050565b5f5f836113aa5760025f600160159054906101000a900460ff1660ff1660ff1681526020019081526020015f2054833461139b9190612093565b6113a59190612093565b6113f3565b6002805f600160159054906101000a900460ff1660ff1660ff1681526020019081526020015f205484346113de9190612093565b6113e89190612093565b6113f291906120c3565b5b90508091505092915050565b60015f9054906101000a900473ffffffffffffffffffffffffffffffffffffffff1673ffffffffffffffffffffffffffffffffffffffff163373ffffffffffffffffffffffffffffffffffffffff161461148e576040517f08c379a000000000000000000000000000000000000000000000000000000000815260040161148590611fad565b60405180910390fd5b5f5f9054906101000a900473ffffffffffffffffffffffffffffffffffffffff1673ffffffffffffffffffffffffffffffffffffffff166365a6cc2e6040518163ffffffff1660e01b81526004015f604051808303815f87803b1580156114f3575f5ffd5b505af1158015611505573d5f5f3e3d5ffd5b50505050565b60015f9054906101000a900473ffffffffffffffffffffffffffffffffffffffff1673ffffffffffffffffffffffffffffffffffffffff163373ffffffffffffffffffffffffffffffffffffffff161461159a576040517f08c379a000000000000000000000000000000000000000000000000000000000815260040161159190611fad565b60405180910390fd5b5f73ffffffffffffffffffffffffffffffffffffffff168173ffffffffffffffffffffffffffffffffffffffff1603611608576040517f08c379a00000000000000000000000000000000000000000000000000000000081526004016115ff9061214e565b60405180910390fd5b8073ffffffffffffffffffffffffffffffffffffffff166108fc4790811502906040515f60405180830381858888f1935050505015801561164b573d5f5f3e3d5ffd5b5050565b5f60055f60045f8573ffffffffffffffffffffffffffffffffffffffff1673ffffffffffffffffffffffffffffffffffffffff1681526020019081526020015f205481526020019081526020015f20600101549050919050565b828054828255905f5260205f20906004028101928215611734575f5260205f209160040282015b828111156117335782825f820154815f01556001820154816001015560028201548160020155600382015f9054906101000a900460ff16816003015f6101000a81548160ff021916908360ff1602179055505050916004019190600401906116d0565b5b5090506117419190611745565b5090565b5b8082111561177f575f5f82015f9055600182015f9055600282015f9055600382015f6101000a81549060ff021916905550600401611746565b5090565b5f81905092915050565b50565b5f61179b5f83611783565b91506117a68261178d565b5f82019050919050565b5f6117ba82611790565b9150819050919050565b5f82825260208201905092915050565b7f5472616e73666572206661696c656400000000000000000000000000000000005f82015250565b5f611808600f836117c4565b9150611813826117d4565b602082019050919050565b5f6020820190508181035f830152611835816117fc565b9050919050565b5f73ffffffffffffffffffffffffffffffffffffffff82169050919050565b5f6118658261183c565b9050919050565b6118758161185b565b82525050565b5f60208201905061188e5f83018461186c565b92915050565b5f81519050919050565b8281835e5f83830152505050565b5f6118b682611894565b6118c08185611783565b93506118d081856020860161189e565b80840191505092915050565b5f6118e782846118ac565b915081905092915050565b7f4661696c656420746f20676574207072696365000000000000000000000000005f82015250565b5f6119266013836117c4565b9150611931826118f2565b602082019050919050565b5f6020820190508181035f8301526119538161191a565b9050919050565b5f5ffd5b5f819050919050565b6119708161195e565b811461197a575f5ffd5b50565b5f8151905061198b81611967565b92915050565b5f602082840312156119a6576119a561195a565b5b5f6119b38482850161197d565b91505092915050565b5f8115159050919050565b6119d0816119bc565b81146119da575f5ffd5b50565b5f813590506119eb816119c7565b92915050565b5f60208284031215611a0657611a0561195a565b5b5f611a13848285016119dd565b91505092915050565b611a258161185b565b8114611a2f575f5ffd5b50565b5f81359050611a4081611a1c565b92915050565b5f81359050611a5481611967565b92915050565b5f5f60408385031215611a7057611a6f61195a565b5b5f611a7d85828601611a32565b9250506020611a8e85828601611a46565b9150509250929050565b611aa18161195e565b82525050565b5f606082019050611aba5f830186611a98565b611ac76020830185611a98565b611ad46040830184611a98565b949350505050565b5f60208284031215611af157611af061195a565b5b5f611afe84828501611a32565b91505092915050565b5f602082019050611b1a5f830184611a98565b92915050565b5f60208284031215611b3557611b3461195a565b5b5f611b4284828501611a46565b91505092915050565b611b54816119bc565b82525050565b5f606082019050611b6d5f83018661186c565b611b7a6020830185611a98565b611b876040830184611b4b565b949350505050565b5f60ff82169050919050565b611ba481611b8f565b8114611bae575f5ffd5b50565b5f81359050611bbf81611b9b565b92915050565b5f60208284031215611bda57611bd961195a565b5b5f611be784828501611bb1565b91505092915050565b5f611bfa8261183c565b9050919050565b611c0a81611bf0565b8114611c14575f5ffd5b50565b5f81359050611c2581611c01565b92915050565b5f60208284031215611c4057611c3f61195a565b5b5f611c4d84828501611c17565b91505092915050565b5f5f60408385031215611c6c57611c6b61195a565b5b5f611c7985828601611bb1565b9250506020611c8a85828601611a46565b9150509250929050565b611c9d81611b8f565b82525050565b5f602082019050611cb65f830184611c94565b92915050565b611cc581611bf0565b82525050565b5f602082019050611cde5f830184611cbc565b92915050565b5f5f60408385031215611cfa57611cf961195a565b5b5f611d07858286016119dd565b9250506020611d1885828601611a46565b9150509250929050565b7f436f6e74726163742050617573656400000000000000000000000000000000005f82015250565b5f611d56600f836117c4565b9150611d6182611d22565b602082019050919050565b5f6020820190508181035f830152611d8381611d4a565b9050919050565b7f4e6f205265656e7472616e63792c706c732077616974000000000000000000005f82015250565b5f611dbe6016836117c4565b9150611dc982611d8a565b602082019050919050565b5f6020820190508181035f830152611deb81611db2565b9050919050565b7f53656e64206d6f726520424e4220746f206275792054505400000000000000005f82015250565b5f611e266018836117c4565b9150611e3182611df2565b602082019050919050565b5f6020820190508181035f830152611e5381611e1a565b9050919050565b7f496e76616c69642064617461206c656e677468000000000000000000000000005f82015250565b5f611e8e6013836117c4565b9150611e9982611e5a565b602082019050919050565b5f6020820190508181035f830152611ebb81611e82565b9050919050565b7f4e487b71000000000000000000000000000000000000000000000000000000005f52601160045260245ffd5b5f611ef98261195e565b91507fffffffffffffffffffffffffffffffffffffffffffffffffffffffffffffffff8203611f2b57611f2a611ec2565b5b600182019050919050565b7f4e487b71000000000000000000000000000000000000000000000000000000005f52603260045260245ffd5b7f4f6e6c79206f776e6572000000000000000000000000000000000000000000005f82015250565b5f611f97600a836117c4565b9150611fa282611f63565b602082019050919050565b5f6020820190508181035f830152611fc481611f8b565b9050919050565b7f496e76616c6964207573657220494400000000000000000000000000000000005f82015250565b5f611fff600f836117c4565b915061200a82611fcb565b602082019050919050565b5f6020820190508181035f83015261202c81611ff3565b9050919050565b5f61203d8261195e565b91506120488361195e565b92508282019050808211156120605761205f611ec2565b5b92915050565b7f4e487b71000000000000000000000000000000000000000000000000000000005f52601260045260245ffd5b5f61209d8261195e565b91506120a88361195e565b9250826120b8576120b7612066565b5b828204905092915050565b5f6120cd8261195e565b91506120d88361195e565b92508282026120e68161195e565b915082820484148315176120fd576120fc611ec2565b5b5092915050565b7f496e76616c6964206164647265737300000000000000000000000000000000005f82015250565b5f612138600f836117c4565b915061214382612104565b602082019050919050565b5f6020820190508181035f8301526121658161212c565b905091905056fea264697066735822122077f3b6f459be9b3bd638b0b44b7638d802b7a078b73affd3290c2be6019eb98464736f6c634300081e0033",
					"opcodes": "PUSH1 0x80 PUSH1 0x40 MSTORE CALLVALUE DUP1 ISZERO PUSH2 0xF JUMPI PUSH0 PUSH0 REVERT JUMPDEST POP PUSH1 0x40 MLOAD PUSH2 0x2309 CODESIZE SUB DUP1 PUSH2 0x2309 DUP4 CODECOPY DUP2 DUP2 ADD PUSH1 0x40 MSTORE DUP2 ADD SWAP1 PUSH2 0x31 SWAP2 SWAP1 PUSH2 0x12F JUMP JUMPDEST CALLER PUSH1 0x1 PUSH0 PUSH2 0x100 EXP DUP2 SLOAD DUP2 PUSH20 0xFFFFFFFFFFFFFFFFFFFFFFFFFFFFFFFFFFFFFFFF MUL NOT AND SWAP1 DUP4 PUSH20 0xFFFFFFFFFFFFFFFFFFFFFFFFFFFFFFFFFFFFFFFF AND MUL OR SWAP1 SSTORE POP PUSH0 PUSH1 0x1 PUSH1 0x15 PUSH2 0x100 EXP DUP2 SLOAD DUP2 PUSH1 0xFF MUL NOT AND SWAP1 DUP4 PUSH1 0xFF AND MUL OR SWAP1 SSTORE POP DUP1 PUSH0 PUSH0 PUSH2 0x100 EXP DUP2 SLOAD DUP2 PUSH20 0xFFFFFFFFFFFFFFFFFFFFFFFFFFFFFFFFFFFFFFFF MUL NOT AND SWAP1 DUP4 PUSH20 0xFFFFFFFFFFFFFFFFFFFFFFFFFFFFFFFFFFFFFFFF AND MUL OR SWAP1 SSTORE POP POP PUSH2 0x15A JUMP JUMPDEST PUSH0 PUSH0 REVERT JUMPDEST PUSH0 PUSH20 0xFFFFFFFFFFFFFFFFFFFFFFFFFFFFFFFFFFFFFFFF DUP3 AND SWAP1 POP SWAP2 SWAP1 POP JUMP JUMPDEST PUSH0 PUSH2 0xFE DUP3 PUSH2 0xD5 JUMP JUMPDEST SWAP1 POP SWAP2 SWAP1 POP JUMP JUMPDEST PUSH2 0x10E DUP2 PUSH2 0xF4 JUMP JUMPDEST DUP2 EQ PUSH2 0x118 JUMPI PUSH0 PUSH0 REVERT JUMPDEST POP JUMP JUMPDEST PUSH0 DUP2 MLOAD SWAP1 POP PUSH2 0x129 DUP2 PUSH2 0x105 JUMP JUMPDEST SWAP3 SWAP2 POP POP JUMP JUMPDEST PUSH0 PUSH1 0x20 DUP3 DUP5 SUB SLT ISZERO PUSH2 0x144 JUMPI PUSH2 0x143 PUSH2 0xD1 JUMP JUMPDEST JUMPDEST PUSH0 PUSH2 0x151 DUP5 DUP3 DUP6 ADD PUSH2 0x11B JUMP JUMPDEST SWAP2 POP POP SWAP3 SWAP2 POP POP JUMP JUMPDEST PUSH2 0x21A2 DUP1 PUSH2 0x167 PUSH0 CODECOPY PUSH0 RETURN INVALID PUSH1 0x80 PUSH1 0x40 MSTORE PUSH1 0x4 CALLDATASIZE LT PUSH2 0x122 JUMPI PUSH0 CALLDATALOAD PUSH1 0xE0 SHR DUP1 PUSH4 0x95E55748 GT PUSH2 0x9F JUMPI DUP1 PUSH4 0xCA90D6E6 GT PUSH2 0x63 JUMPI DUP1 PUSH4 0xCA90D6E6 EQ PUSH2 0x8AD JUMPI DUP1 PUSH4 0xCB722D11 EQ PUSH2 0x8D5 JUMPI DUP1 PUSH4 0xD221954B EQ PUSH2 0x905 JUMPI DUP1 PUSH4 0xFA09E630 EQ PUSH2 0x91B JUMPI DUP1 PUSH4 0xFDBB6696 EQ PUSH2 0x943 JUMPI PUSH2 0x36A JUMP JUMPDEST DUP1 PUSH4 0x95E55748 EQ PUSH2 0x7DF JUMPI DUP1 PUSH4 0xA2F5546E EQ PUSH2 0x807 JUMPI DUP1 PUSH4 0xAE243031 EQ PUSH2 0x82F JUMPI DUP1 PUSH4 0xAE372EC1 EQ PUSH2 0x859 JUMPI DUP1 PUSH4 0xBFF1F9E1 EQ PUSH2 0x883 JUMPI PUSH2 0x36A JUMP JUMPDEST DUP1 PUSH4 0x556A7579 GT PUSH2 0xE6 JUMPI DUP1 PUSH4 0x556A7579 EQ PUSH2 0x6EB JUMPI DUP1 PUSH4 0x672CBE1A EQ PUSH2 0x727 JUMPI DUP1 PUSH4 0x7CE8A08E EQ PUSH2 0x751 JUMPI DUP1 PUSH4 0x8DA5CB5B EQ PUSH2 0x779 JUMPI DUP1 PUSH4 0x90D976E2 EQ PUSH2 0x7A3 JUMPI PUSH2 0x36A JUMP JUMPDEST DUP1 PUSH4 0x2A2A92CC EQ PUSH2 0x5BB JUMPI DUP1 PUSH4 0x2B956FF7 EQ PUSH2 0x5F9 JUMPI DUP1 PUSH4 0x31BBF555 EQ PUSH2 0x635 JUMPI DUP1 PUSH4 0x365B98B2 EQ PUSH2 0x671 JUMPI DUP1 PUSH4 0x376FE102 EQ PUSH2 0x6AF JUMPI PUSH2 0x36A JUMP JUMPDEST CALLDATASIZE PUSH2 0x36A JUMPI PUSH0 PUSH0 PUSH0 SWAP1 SLOAD SWAP1 PUSH2 0x100 EXP SWAP1 DIV PUSH20 0xFFFFFFFFFFFFFFFFFFFFFFFFFFFFFFFFFFFFFFFF AND PUSH20 0xFFFFFFFFFFFFFFFFFFFFFFFFFFFFFFFFFFFFFFFF AND PUSH6 0x3691D6AFC000 PUSH1 0x40 MLOAD PUSH2 0x172 SWAP1 PUSH2 0x17B0 JUMP JUMPDEST PUSH0 PUSH1 0x40 MLOAD DUP1 DUP4 SUB DUP2 DUP6 DUP8 GAS CALL SWAP3 POP POP POP RETURNDATASIZE DUP1 PUSH0 DUP2 EQ PUSH2 0x1AC JUMPI PUSH1 0x40 MLOAD SWAP2 POP PUSH1 0x1F NOT PUSH1 0x3F RETURNDATASIZE ADD AND DUP3 ADD PUSH1 0x40 MSTORE RETURNDATASIZE DUP3 MSTORE RETURNDATASIZE PUSH0 PUSH1 0x20 DUP5 ADD RETURNDATACOPY PUSH2 0x1B1 JUMP JUMPDEST PUSH1 0x60 SWAP2 POP JUMPDEST POP POP SWAP1 POP DUP1 PUSH2 0x1F5 JUMPI PUSH1 0x40 MLOAD PUSH32 0x8C379A000000000000000000000000000000000000000000000000000000000 DUP2 MSTORE PUSH1 0x4 ADD PUSH2 0x1EC SWAP1 PUSH2 0x181E JUMP JUMPDEST PUSH1 0x40 MLOAD DUP1 SWAP2 SUB SWAP1 REVERT JUMPDEST PUSH0 PUSH0 PUSH0 PUSH0 SWAP1 SLOAD SWAP1 PUSH2 0x100 EXP SWAP1 DIV PUSH20 0xFFFFFFFFFFFFFFFFFFFFFFFFFFFFFFFFFFFFFFFF AND PUSH20 0xFFFFFFFFFFFFFFFFFFFFFFFFFFFFFFFFFFFFFFFF AND CALLER PUSH1 0x40 MLOAD PUSH1 0x24 ADD PUSH2 0x23F SWAP2 SWAP1 PUSH2 0x187B JUMP JUMPDEST PUSH1 0x40 MLOAD PUSH1 0x20 DUP2 DUP4 SUB SUB DUP2 MSTORE SWAP1 PUSH1 0x40 MSTORE PUSH32 0xED9B8D5000000000000000000000000000000000000000000000000000000000 PUSH28 0xFFFFFFFFFFFFFFFFFFFFFFFFFFFFFFFFFFFFFFFFFFFFFFFFFFFFFFFF NOT AND PUSH1 0x20 DUP3 ADD DUP1 MLOAD PUSH28 0xFFFFFFFFFFFFFFFFFFFFFFFFFFFFFFFFFFFFFFFFFFFFFFFFFFFFFFFF DUP4 DUP2 DUP4 AND OR DUP4 MSTORE POP POP POP POP PUSH1 0x40 MLOAD PUSH2 0x2C9 SWAP2 SWAP1 PUSH2 0x18DC JUMP JUMPDEST PUSH0 PUSH1 0x40 MLOAD DUP1 DUP4 SUB DUP2 DUP6 GAS STATICCALL SWAP2 POP POP RETURNDATASIZE DUP1 PUSH0 DUP2 EQ PUSH2 0x301 JUMPI PUSH1 0x40 MLOAD SWAP2 POP PUSH1 0x1F NOT PUSH1 0x3F RETURNDATASIZE ADD AND DUP3 ADD PUSH1 0x40 MSTORE RETURNDATASIZE DUP3 MSTORE RETURNDATASIZE PUSH0 PUSH1 0x20 DUP5 ADD RETURNDATACOPY PUSH2 0x306 JUMP JUMPDEST PUSH1 0x60 SWAP2 POP JUMPDEST POP SWAP2 POP SWAP2 POP DUP2 PUSH2 0x34B JUMPI PUSH1 0x40 MLOAD PUSH32 0x8C379A000000000000000000000000000000000000000000000000000000000 DUP2 MSTORE PUSH1 0x4 ADD PUSH2 0x342 SWAP1 PUSH2 0x193C JUMP JUMPDEST PUSH1 0x40 MLOAD DUP1 SWAP2 SUB SWAP1 REVERT JUMPDEST PUSH2 0x368 PUSH0 DUP3 DUP1 PUSH1 0x20 ADD SWAP1 MLOAD DUP2 ADD SWAP1 PUSH2 0x363 SWAP2 SWAP1 PUSH2 0x1991 JUMP JUMPDEST PUSH2 0x97F JUMP JUMPDEST STOP JUMPDEST PUSH0 PUSH0 PUSH0 SWAP1 SLOAD SWAP1 PUSH2 0x100 EXP SWAP1 DIV PUSH20 0xFFFFFFFFFFFFFFFFFFFFFFFFFFFFFFFFFFFFFFFF AND PUSH20 0xFFFFFFFFFFFFFFFFFFFFFFFFFFFFFFFFFFFFFFFF AND PUSH6 0x3691D6AFC000 PUSH1 0x40 MLOAD PUSH2 0x3B5 SWAP1 PUSH2 0x17B0 JUMP JUMPDEST PUSH0 PUSH1 0x40 MLOAD DUP1 DUP4 SUB DUP2 DUP6 DUP8 GAS CALL SWAP3 POP POP POP RETURNDATASIZE DUP1 PUSH0 DUP2 EQ PUSH2 0x3EF JUMPI PUSH1 0x40 MLOAD SWAP2 POP PUSH1 0x1F NOT PUSH1 0x3F RETURNDATASIZE ADD AND DUP3 ADD PUSH1 0x40 MSTORE RETURNDATASIZE DUP3 MSTORE RETURNDATASIZE PUSH0 PUSH1 0x20 DUP5 ADD RETURNDATACOPY PUSH2 0x3F4 JUMP JUMPDEST PUSH1 0x60 SWAP2 POP JUMPDEST POP POP SWAP1 POP DUP1 PUSH2 0x438 JUMPI PUSH1 0x40 MLOAD PUSH32 0x8C379A000000000000000000000000000000000000000000000000000000000 DUP2 MSTORE PUSH1 0x4 ADD PUSH2 0x42F SWAP1 PUSH2 0x181E JUMP JUMPDEST PUSH1 0x40 MLOAD DUP1 SWAP2 SUB SWAP1 REVERT JUMPDEST PUSH0 PUSH0 PUSH0 PUSH0 SWAP1 SLOAD SWAP1 PUSH2 0x100 EXP SWAP1 DIV PUSH20 0xFFFFFFFFFFFFFFFFFFFFFFFFFFFFFFFFFFFFFFFF AND PUSH20 0xFFFFFFFFFFFFFFFFFFFFFFFFFFFFFFFFFFFFFFFF AND CALLER PUSH1 0x40 MLOAD PUSH1 0x24 ADD PUSH2 0x482 SWAP2 SWAP1 PUSH2 0x187B JUMP JUMPDEST PUSH1 0x40 MLOAD PUSH1 0x20 DUP2 DUP4 SUB SUB DUP2 MSTORE SWAP1 PUSH1 0x40 MSTORE PUSH32 0xED9B8D5000000000000000000000000000000000000000000000000000000000 PUSH28 0xFFFFFFFFFFFFFFFFFFFFFFFFFFFFFFFFFFFFFFFFFFFFFFFFFFFFFFFF NOT AND PUSH1 0x20 DUP3 ADD DUP1 MLOAD PUSH28 0xFFFFFFFFFFFFFFFFFFFFFFFFFFFFFFFFFFFFFFFFFFFFFFFFFFFFFFFF DUP4 DUP2 DUP4 AND OR DUP4 MSTORE POP POP POP POP PUSH1 0x40 MLOAD PUSH2 0x50C SWAP2 SWAP1 PUSH2 0x18DC JUMP JUMPDEST PUSH0 PUSH1 0x40 MLOAD DUP1 DUP4 SUB DUP2 DUP6 GAS STATICCALL SWAP2 POP POP RETURNDATASIZE DUP1 PUSH0 DUP2 EQ PUSH2 0x544 JUMPI PUSH1 0x40 MLOAD SWAP2 POP PUSH1 0x1F NOT PUSH1 0x3F RETURNDATASIZE ADD AND DUP3 ADD PUSH1 0x40 MSTORE RETURNDATASIZE DUP3 MSTORE RETURNDATASIZE PUSH0 PUSH1 0x20 DUP5 ADD RETURNDATACOPY PUSH2 0x549 JUMP JUMPDEST PUSH1 0x60 SWAP2 POP JUMPDEST POP SWAP2 POP SWAP2 POP DUP2 PUSH2 0x58E JUMPI PUSH1 0x40 MLOAD PUSH32 0x8C379A000000000000000000000000000000000000000000000000000000000 DUP2 MSTORE PUSH1 0x4 ADD PUSH2 0x585 SWAP1 PUSH2 0x193C JUMP JUMPDEST PUSH1 0x40 MLOAD DUP1 SWAP2 SUB SWAP1 REVERT JUMPDEST PUSH2 0x5B9 PUSH0 CALLDATASIZE DUP2 ADD SWAP1 PUSH2 0x5A0 SWAP2 SWAP1 PUSH2 0x19F1 JUMP JUMPDEST DUP3 DUP1 PUSH1 0x20 ADD SWAP1 MLOAD DUP2 ADD SWAP1 PUSH2 0x5B4 SWAP2 SWAP1 PUSH2 0x1991 JUMP JUMPDEST PUSH2 0x97F JUMP JUMPDEST STOP JUMPDEST CALLVALUE DUP1 ISZERO PUSH2 0x5C6 JUMPI PUSH0 PUSH0 REVERT JUMPDEST POP PUSH2 0x5E1 PUSH1 0x4 DUP1 CALLDATASIZE SUB DUP2 ADD SWAP1 PUSH2 0x5DC SWAP2 SWAP1 PUSH2 0x1A5A JUMP JUMPDEST PUSH2 0xCFE JUMP JUMPDEST PUSH1 0x40 MLOAD PUSH2 0x5F0 SWAP4 SWAP3 SWAP2 SWAP1 PUSH2 0x1AA7 JUMP JUMPDEST PUSH1 0x40 MLOAD DUP1 SWAP2 SUB SWAP1 RETURN JUMPDEST CALLVALUE DUP1 ISZERO PUSH2 0x604 JUMPI PUSH0 PUSH0 REVERT JUMPDEST POP PUSH2 0x61F PUSH1 0x4 DUP1 CALLDATASIZE SUB DUP2 ADD SWAP1 PUSH2 0x61A SWAP2 SWAP1 PUSH2 0x1ADC JUMP JUMPDEST PUSH2 0xDD3 JUMP JUMPDEST PUSH1 0x40 MLOAD PUSH2 0x62C SWAP2 SWAP1 PUSH2 0x1B07 JUMP JUMPDEST PUSH1 0x40 MLOAD DUP1 SWAP2 SUB SWAP1 RETURN JUMPDEST CALLVALUE DUP1 ISZERO PUSH2 0x640 JUMPI PUSH0 PUSH0 REVERT JUMPDEST POP PUSH2 0x65B PUSH1 0x4 DUP1 CALLDATASIZE SUB DUP2 ADD SWAP1 PUSH2 0x656 SWAP2 SWAP1 PUSH2 0x1ADC JUMP JUMPDEST PUSH2 0xE19 JUMP JUMPDEST PUSH1 0x40 MLOAD PUSH2 0x668 SWAP2 SWAP1 PUSH2 0x1B07 JUMP JUMPDEST PUSH1 0x40 MLOAD DUP1 SWAP2 SUB SWAP1 RETURN JUMPDEST CALLVALUE DUP1 ISZERO PUSH2 0x67C JUMPI PUSH0 PUSH0 REVERT JUMPDEST POP PUSH2 0x697 PUSH1 0x4 DUP1 CALLDATASIZE SUB DUP2 ADD SWAP1 PUSH2 0x692 SWAP2 SWAP1 PUSH2 0x1B20 JUMP JUMPDEST PUSH2 0xE76 JUMP JUMPDEST PUSH1 0x40 MLOAD PUSH2 0x6A6 SWAP4 SWAP3 SWAP2 SWAP1 PUSH2 0x1B5A JUMP JUMPDEST PUSH1 0x40 MLOAD DUP1 SWAP2 SUB SWAP1 RETURN JUMPDEST CALLVALUE DUP1 ISZERO PUSH2 0x6BA JUMPI PUSH0 PUSH0 REVERT JUMPDEST POP PUSH2 0x6D5 PUSH1 0x4 DUP1 CALLDATASIZE SUB DUP2 ADD SWAP1 PUSH2 0x6D0 SWAP2 SWAP1 PUSH2 0x1ADC JUMP JUMPDEST PUSH2 0xEC7 JUMP JUMPDEST PUSH1 0x40 MLOAD PUSH2 0x6E2 SWAP2 SWAP1 PUSH2 0x1B07 JUMP JUMPDEST PUSH1 0x40 MLOAD DUP1 SWAP2 SUB SWAP1 RETURN JUMPDEST CALLVALUE DUP1 ISZERO PUSH2 0x6F6 JUMPI PUSH0 PUSH0 REVERT JUMPDEST POP PUSH2 0x711 PUSH1 0x4 DUP1 CALLDATASIZE SUB DUP2 ADD SWAP1 PUSH2 0x70C SWAP2 SWAP1 PUSH2 0x1BC5 JUMP JUMPDEST PUSH2 0xEDC JUMP JUMPDEST PUSH1 0x40 MLOAD PUSH2 0x71E SWAP2 SWAP1 PUSH2 0x1B07 JUMP JUMPDEST PUSH1 0x40 MLOAD DUP1 SWAP2 SUB SWAP1 RETURN JUMPDEST CALLVALUE DUP1 ISZERO PUSH2 0x732 JUMPI PUSH0 PUSH0 REVERT JUMPDEST POP PUSH2 0x73B PUSH2 0xEF1 JUMP JUMPDEST PUSH1 0x40 MLOAD PUSH2 0x748 SWAP2 SWAP1 PUSH2 0x1B07 JUMP JUMPDEST PUSH1 0x40 MLOAD DUP1 SWAP2 SUB SWAP1 RETURN JUMPDEST CALLVALUE DUP1 ISZERO PUSH2 0x75C JUMPI PUSH0 PUSH0 REVERT JUMPDEST POP PUSH2 0x777 PUSH1 0x4 DUP1 CALLDATASIZE SUB DUP2 ADD SWAP1 PUSH2 0x772 SWAP2 SWAP1 PUSH2 0x1BC5 JUMP JUMPDEST PUSH2 0xF1E JUMP JUMPDEST STOP JUMPDEST CALLVALUE DUP1 ISZERO PUSH2 0x784 JUMPI PUSH0 PUSH0 REVERT JUMPDEST POP PUSH2 0x78D PUSH2 0xFCB JUMP JUMPDEST PUSH1 0x40 MLOAD PUSH2 0x79A SWAP2 SWAP1 PUSH2 0x187B JUMP JUMPDEST PUSH1 0x40 MLOAD DUP1 SWAP2 SUB SWAP1 RETURN JUMPDEST CALLVALUE DUP1 ISZERO PUSH2 0x7AE JUMPI PUSH0 PUSH0 REVERT JUMPDEST POP PUSH2 0x7C9 PUSH1 0x4 DUP1 CALLDATASIZE SUB DUP2 ADD SWAP1 PUSH2 0x7C4 SWAP2 SWAP1 PUSH2 0x1B20 JUMP JUMPDEST PUSH2 0xFF0 JUMP JUMPDEST PUSH1 0x40 MLOAD PUSH2 0x7D6 SWAP2 SWAP1 PUSH2 0x187B JUMP JUMPDEST PUSH1 0x40 MLOAD DUP1 SWAP2 SUB SWAP1 RETURN JUMPDEST CALLVALUE DUP1 ISZERO PUSH2 0x7EA JUMPI PUSH0 PUSH0 REVERT JUMPDEST POP PUSH2 0x805 PUSH1 0x4 DUP1 CALLDATASIZE SUB DUP2 ADD SWAP1 PUSH2 0x800 SWAP2 SWAP1 PUSH2 0x1C2B JUMP JUMPDEST PUSH2 0x102B JUMP JUMPDEST STOP JUMPDEST CALLVALUE DUP1 ISZERO PUSH2 0x812 JUMPI PUSH0 PUSH0 REVERT JUMPDEST POP PUSH2 0x82D PUSH1 0x4 DUP1 CALLDATASIZE SUB DUP2 ADD SWAP1 PUSH2 0x828 SWAP2 SWAP1 PUSH2 0x1C56 JUMP JUMPDEST PUSH2 0x10FC JUMP JUMPDEST STOP JUMPDEST CALLVALUE DUP1 ISZERO PUSH2 0x83A JUMPI PUSH0 PUSH0 REVERT JUMPDEST POP PUSH2 0x843 PUSH2 0x11AB JUMP JUMPDEST PUSH1 0x40 MLOAD PUSH2 0x850 SWAP2 SWAP1 PUSH2 0x1CA3 JUMP JUMPDEST PUSH1 0x40 MLOAD DUP1 SWAP2 SUB SWAP1 RETURN JUMPDEST CALLVALUE DUP1 ISZERO PUSH2 0x864 JUMPI PUSH0 PUSH0 REVERT JUMPDEST POP PUSH2 0x86D PUSH2 0x11BE JUMP JUMPDEST PUSH1 0x40 MLOAD PUSH2 0x87A SWAP2 SWAP1 PUSH2 0x1CCB JUMP JUMPDEST PUSH1 0x40 MLOAD DUP1 SWAP2 SUB SWAP1 RETURN JUMPDEST CALLVALUE DUP1 ISZERO PUSH2 0x88E JUMPI PUSH0 PUSH0 REVERT JUMPDEST POP PUSH2 0x897 PUSH2 0x11E2 JUMP JUMPDEST PUSH1 0x40 MLOAD PUSH2 0x8A4 SWAP2 SWAP1 PUSH2 0x1B07 JUMP JUMPDEST PUSH1 0x40 MLOAD DUP1 SWAP2 SUB SWAP1 RETURN JUMPDEST CALLVALUE DUP1 ISZERO PUSH2 0x8B8 JUMPI PUSH0 PUSH0 REVERT JUMPDEST POP PUSH2 0x8D3 PUSH1 0x4 DUP1 CALLDATASIZE SUB DUP2 ADD SWAP1 PUSH2 0x8CE SWAP2 SWAP1 PUSH2 0x1A5A JUMP JUMPDEST PUSH2 0x11E8 JUMP JUMPDEST STOP JUMPDEST PUSH2 0x8EF PUSH1 0x4 DUP1 CALLDATASIZE SUB DUP2 ADD SWAP1 PUSH2 0x8EA SWAP2 SWAP1 PUSH2 0x1CE4 JUMP JUMPDEST PUSH2 0x1361 JUMP JUMPDEST PUSH1 0x40 MLOAD PUSH2 0x8FC SWAP2 SWAP1 PUSH2 0x1B07 JUMP JUMPDEST PUSH1 0x40 MLOAD DUP1 SWAP2 SUB SWAP1 RETURN JUMPDEST CALLVALUE DUP1 ISZERO PUSH2 0x910 JUMPI PUSH0 PUSH0 REVERT JUMPDEST POP PUSH2 0x919 PUSH2 0x13FF JUMP JUMPDEST STOP JUMPDEST CALLVALUE DUP1 ISZERO PUSH2 0x926 JUMPI PUSH0 PUSH0 REVERT JUMPDEST POP PUSH2 0x941 PUSH1 0x4 DUP1 CALLDATASIZE SUB DUP2 ADD SWAP1 PUSH2 0x93C SWAP2 SWAP1 PUSH2 0x1C2B JUMP JUMPDEST PUSH2 0x150B JUMP JUMPDEST STOP JUMPDEST CALLVALUE DUP1 ISZERO PUSH2 0x94E JUMPI PUSH0 PUSH0 REVERT JUMPDEST POP PUSH2 0x969 PUSH1 0x4 DUP1 CALLDATASIZE SUB DUP2 ADD SWAP1 PUSH2 0x964 SWAP2 SWAP1 PUSH2 0x1ADC JUMP JUMPDEST PUSH2 0x164F JUMP JUMPDEST PUSH1 0x40 MLOAD PUSH2 0x976 SWAP2 SWAP1 PUSH2 0x1B07 JUMP JUMPDEST PUSH1 0x40 MLOAD DUP1 SWAP2 SUB SWAP1 RETURN JUMPDEST PUSH0 PUSH1 0x1 PUSH1 0x15 SWAP1 SLOAD SWAP1 PUSH2 0x100 EXP SWAP1 DIV PUSH1 0xFF AND PUSH1 0xFF AND SUB PUSH2 0x9D3 JUMPI PUSH1 0x40 MLOAD PUSH32 0x8C379A000000000000000000000000000000000000000000000000000000000 DUP2 MSTORE PUSH1 0x4 ADD PUSH2 0x9CA SWAP1 PUSH2 0x1D6C JUMP JUMPDEST PUSH1 0x40 MLOAD DUP1 SWAP2 SUB SWAP1 REVERT JUMPDEST PUSH1 0x1 ISZERO ISZERO PUSH1 0x1 PUSH1 0x14 SWAP1 SLOAD SWAP1 PUSH2 0x100 EXP SWAP1 DIV PUSH1 0xFF AND ISZERO ISZERO SUB PUSH2 0xA29 JUMPI PUSH1 0x40 MLOAD PUSH32 0x8C379A000000000000000000000000000000000000000000000000000000000 DUP2 MSTORE PUSH1 0x4 ADD PUSH2 0xA20 SWAP1 PUSH2 0x1DD4 JUMP JUMPDEST PUSH1 0x40 MLOAD DUP1 SWAP2 SUB SWAP1 REVERT JUMPDEST PUSH1 0x1 DUP1 PUSH1 0x14 PUSH2 0x100 EXP DUP2 SLOAD DUP2 PUSH1 0xFF MUL NOT AND SWAP1 DUP4 ISZERO ISZERO MUL OR SWAP1 SSTORE POP PUSH7 0xB1A2BC2EC50000 CALLVALUE LT ISZERO PUSH2 0xA8D JUMPI PUSH1 0x40 MLOAD PUSH32 0x8C379A000000000000000000000000000000000000000000000000000000000 DUP2 MSTORE PUSH1 0x4 ADD PUSH2 0xA84 SWAP1 PUSH2 0x1E3C JUMP JUMPDEST PUSH1 0x40 MLOAD DUP1 SWAP2 SUB SWAP1 REVERT JUMPDEST PUSH1 0x20 PUSH0 CALLDATASIZE SWAP1 POP LT ISZERO PUSH2 0xAD4 JUMPI PUSH1 0x40 MLOAD PUSH32 0x8C379A000000000000000000000000000000000000000000000000000000000 DUP2 MSTORE PUSH1 0x4 ADD PUSH2 0xACB SWAP1 PUSH2 0x1EA4 JUMP JUMPDEST PUSH1 0x40 MLOAD DUP1 SWAP2 SUB SWAP1 REVERT JUMPDEST PUSH0 PUSH2 0xADF DUP4 DUP4 PUSH2 0x1361 JUMP JUMPDEST SWAP1 POP PUSH0 PUSH1 0x4 PUSH0 CALLER PUSH20 0xFFFFFFFFFFFFFFFFFFFFFFFFFFFFFFFFFFFFFFFF AND PUSH20 0xFFFFFFFFFFFFFFFFFFFFFFFFFFFFFFFFFFFFFFFF AND DUP2 MSTORE PUSH1 0x20 ADD SWAP1 DUP2 MSTORE PUSH1 0x20 ADD PUSH0 KECCAK256 SLOAD SUB PUSH2 0xCC4 JUMPI PUSH1 0x3 PUSH0 DUP2 SLOAD DUP1 SWAP3 SWAP2 SWAP1 PUSH2 0xB37 SWAP1 PUSH2 0x1EEF JUMP JUMPDEST SWAP2 SWAP1 POP SSTORE POP PUSH1 0x3 SLOAD PUSH1 0x4 PUSH0 CALLER PUSH20 0xFFFFFFFFFFFFFFFFFFFFFFFFFFFFFFFFFFFFFFFF AND PUSH20 0xFFFFFFFFFFFFFFFFFFFFFFFFFFFFFFFFFFFFFFFF AND DUP2 MSTORE PUSH1 0x20 ADD SWAP1 DUP2 MSTORE PUSH1 0x20 ADD PUSH0 KECCAK256 DUP2 SWAP1 SSTORE POP PUSH0 PUSH1 0x5 PUSH0 PUSH1 0x3 SLOAD DUP2 MSTORE PUSH1 0x20 ADD SWAP1 DUP2 MSTORE PUSH1 0x20 ADD PUSH0 KECCAK256 SWAP1 POP CALLER DUP2 PUSH0 ADD PUSH0 PUSH2 0x100 EXP DUP2 SLOAD DUP2 PUSH20 0xFFFFFFFFFFFFFFFFFFFFFFFFFFFFFFFFFFFFFFFF MUL NOT AND SWAP1 DUP4 PUSH20 0xFFFFFFFFFFFFFFFFFFFFFFFFFFFFFFFFFFFFFFFF AND MUL OR SWAP1 SSTORE POP PUSH0 DUP2 PUSH1 0x1 ADD DUP2 SWAP1 SSTORE POP PUSH1 0x1 DUP2 PUSH1 0x2 ADD PUSH0 PUSH2 0x100 EXP DUP2 SLOAD DUP2 PUSH1 0xFF MUL NOT AND SWAP1 DUP4 ISZERO ISZERO MUL OR SWAP1 SSTORE POP DUP1 PUSH1 0x5 PUSH0 PUSH1 0x3 SLOAD DUP2 MSTORE PUSH1 0x20 ADD SWAP1 DUP2 MSTORE PUSH1 0x20 ADD PUSH0 KECCAK256 PUSH0 DUP3 ADD PUSH0 SWAP1 SLOAD SWAP1 PUSH2 0x100 EXP SWAP1 DIV PUSH20 0xFFFFFFFFFFFFFFFFFFFFFFFFFFFFFFFFFFFFFFFF AND DUP2 PUSH0 ADD PUSH0 PUSH2 0x100 EXP DUP2 SLOAD DUP2 PUSH20 0xFFFFFFFFFFFFFFFFFFFFFFFFFFFFFFFFFFFFFFFF MUL NOT AND SWAP1 DUP4 PUSH20 0xFFFFFFFFFFFFFFFFFFFFFFFFFFFFFFFFFFFFFFFF AND MUL OR SWAP1 SSTORE POP PUSH1 0x1 DUP3 ADD SLOAD DUP2 PUSH1 0x1 ADD SSTORE PUSH1 0x2 DUP3 ADD PUSH0 SWAP1 SLOAD SWAP1 PUSH2 0x100 EXP SWAP1 DIV PUSH1 0xFF AND DUP2 PUSH1 0x2 ADD PUSH0 PUSH2 0x100 EXP DUP2 SLOAD DUP2 PUSH1 0xFF MUL NOT AND SWAP1 DUP4 ISZERO ISZERO MUL OR SWAP1 SSTORE POP PUSH1 0x3 DUP3 ADD DUP2 PUSH1 0x3 ADD SWAP1 DUP1 SLOAD PUSH2 0xCBE SWAP3 SWAP2 SWAP1 PUSH2 0x16A9 JUMP JUMPDEST POP SWAP1 POP POP POP JUMPDEST DUP1 PUSH1 0x5 PUSH0 PUSH1 0x3 SLOAD DUP2 MSTORE PUSH1 0x20 ADD SWAP1 DUP2 MSTORE PUSH1 0x20 ADD PUSH0 KECCAK256 PUSH1 0x1 ADD DUP2 SWAP1 SSTORE POP POP PUSH0 PUSH1 0x1 PUSH1 0x14 PUSH2 0x100 EXP DUP2 SLOAD DUP2 PUSH1 0xFF MUL NOT AND SWAP1 DUP4 ISZERO ISZERO MUL OR SWAP1 SSTORE POP POP POP JUMP JUMPDEST PUSH0 PUSH0 PUSH0 PUSH0 PUSH1 0x5 PUSH0 PUSH1 0x4 PUSH0 DUP10 PUSH20 0xFFFFFFFFFFFFFFFFFFFFFFFFFFFFFFFFFFFFFFFF AND PUSH20 0xFFFFFFFFFFFFFFFFFFFFFFFFFFFFFFFFFFFFFFFF AND DUP2 MSTORE PUSH1 0x20 ADD SWAP1 DUP2 MSTORE PUSH1 0x20 ADD PUSH0 KECCAK256 SLOAD DUP2 MSTORE PUSH1 0x20 ADD SWAP1 DUP2 MSTORE PUSH1 0x20 ADD PUSH0 KECCAK256 PUSH1 0x3 ADD DUP6 DUP2 SLOAD DUP2 LT PUSH2 0xD65 JUMPI PUSH2 0xD64 PUSH2 0x1F36 JUMP JUMPDEST JUMPDEST SWAP1 PUSH0 MSTORE PUSH1 0x20 PUSH0 KECCAK256 SWAP1 PUSH1 0x4 MUL ADD PUSH1 0x40 MLOAD DUP1 PUSH1 0x80 ADD PUSH1 0x40 MSTORE SWAP1 DUP2 PUSH0 DUP3 ADD SLOAD DUP2 MSTORE PUSH1 0x20 ADD PUSH1 0x1 DUP3 ADD SLOAD DUP2 MSTORE PUSH1 0x20 ADD PUSH1 0x2 DUP3 ADD SLOAD DUP2 MSTORE PUSH1 0x20 ADD PUSH1 0x3 DUP3 ADD PUSH0 SWAP1 SLOAD SWAP1 PUSH2 0x100 EXP SWAP1 DIV PUSH1 0xFF AND PUSH1 0xFF AND PUSH1 0xFF AND DUP2 MSTORE POP POP SWAP1 POP DUP1 PUSH0 ADD MLOAD DUP2 PUSH1 0x20 ADD MLOAD DUP3 PUSH1 0x40 ADD MLOAD SWAP4 POP SWAP4 POP SWAP4 POP POP SWAP3 POP SWAP3 POP SWAP3 JUMP JUMPDEST PUSH0 PUSH1 0x4 PUSH0 DUP4 PUSH20 0xFFFFFFFFFFFFFFFFFFFFFFFFFFFFFFFFFFFFFFFF AND PUSH20 0xFFFFFFFFFFFFFFFFFFFFFFFFFFFFFFFFFFFFFFFF AND DUP2 MSTORE PUSH1 0x20 ADD SWAP1 DUP2 MSTORE PUSH1 0x20 ADD PUSH0 KECCAK256 SLOAD SWAP1 POP SWAP2 SWAP1 POP JUMP JUMPDEST PUSH0 PUSH1 0x5 PUSH0 PUSH1 0x4 PUSH0 DUP6 PUSH20 0xFFFFFFFFFFFFFFFFFFFFFFFFFFFFFFFFFFFFFFFF AND PUSH20 0xFFFFFFFFFFFFFFFFFFFFFFFFFFFFFFFFFFFFFFFF AND DUP2 MSTORE PUSH1 0x20 ADD SWAP1 DUP2 MSTORE PUSH1 0x20 ADD PUSH0 KECCAK256 SLOAD DUP2 MSTORE PUSH1 0x20 ADD SWAP1 DUP2 MSTORE PUSH1 0x20 ADD PUSH0 KECCAK256 PUSH1 0x3 ADD DUP1 SLOAD SWAP1 POP SWAP1 POP SWAP2 SWAP1 POP JUMP JUMPDEST PUSH1 0x5 PUSH1 0x20 MSTORE DUP1 PUSH0 MSTORE PUSH1 0x40 PUSH0 KECCAK256 PUSH0 SWAP2 POP SWAP1 POP DUP1 PUSH0 ADD PUSH0 SWAP1 SLOAD SWAP1 PUSH2 0x100 EXP SWAP1 DIV PUSH20 0xFFFFFFFFFFFFFFFFFFFFFFFFFFFFFFFFFFFFFFFF AND SWAP1 DUP1 PUSH1 0x1 ADD SLOAD SWAP1 DUP1 PUSH1 0x2 ADD PUSH0 SWAP1 SLOAD SWAP1 PUSH2 0x100 EXP SWAP1 DIV PUSH1 0xFF AND SWAP1 POP DUP4 JUMP JUMPDEST PUSH1 0x4 PUSH1 0x20 MSTORE DUP1 PUSH0 MSTORE PUSH1 0x40 PUSH0 KECCAK256 PUSH0 SWAP2 POP SWAP1 POP SLOAD DUP2 JUMP JUMPDEST PUSH1 0x2 PUSH1 0x20 MSTORE DUP1 PUSH0 MSTORE PUSH1 0x40 PUSH0 KECCAK256 PUSH0 SWAP2 POP SWAP1 POP SLOAD DUP2 JUMP JUMPDEST PUSH0 PUSH1 0x2 PUSH0 PUSH1 0x1 PUSH1 0x15 SWAP1 SLOAD SWAP1 PUSH2 0x100 EXP SWAP1 DIV PUSH1 0xFF AND PUSH1 0xFF AND PUSH1 0xFF AND DUP2 MSTORE PUSH1 0x20 ADD SWAP1 DUP2 MSTORE PUSH1 0x20 ADD PUSH0 KECCAK256 SLOAD SWAP1 POP SWAP1 JUMP JUMPDEST PUSH1 0x1 PUSH0 SWAP1 SLOAD SWAP1 PUSH2 0x100 EXP SWAP1 DIV PUSH20 0xFFFFFFFFFFFFFFFFFFFFFFFFFFFFFFFFFFFFFFFF AND PUSH20 0xFFFFFFFFFFFFFFFFFFFFFFFFFFFFFFFFFFFFFFFF AND CALLER PUSH20 0xFFFFFFFFFFFFFFFFFFFFFFFFFFFFFFFFFFFFFFFF AND EQ PUSH2 0xFAD JUMPI PUSH1 0x40 MLOAD PUSH32 0x8C379A000000000000000000000000000000000000000000000000000000000 DUP2 MSTORE PUSH1 0x4 ADD PUSH2 0xFA4 SWAP1 PUSH2 0x1FAD JUMP JUMPDEST PUSH1 0x40 MLOAD DUP1 SWAP2 SUB SWAP1 REVERT JUMPDEST DUP1 PUSH1 0x1 PUSH1 0x15 PUSH2 0x100 EXP DUP2 SLOAD DUP2 PUSH1 0xFF MUL NOT AND SWAP1 DUP4 PUSH1 0xFF AND MUL OR SWAP1 SSTORE POP POP JUMP JUMPDEST PUSH1 0x1 PUSH0 SWAP1 SLOAD SWAP1 PUSH2 0x100 EXP SWAP1 DIV PUSH20 0xFFFFFFFFFFFFFFFFFFFFFFFFFFFFFFFFFFFFFFFF AND DUP2 JUMP JUMPDEST PUSH0 PUSH1 0x5 PUSH0 DUP4 DUP2 MSTORE PUSH1 0x20 ADD SWAP1 DUP2 MSTORE PUSH1 0x20 ADD PUSH0 KECCAK256 PUSH0 ADD PUSH0 SWAP1 SLOAD SWAP1 PUSH2 0x100 EXP SWAP1 DIV PUSH20 0xFFFFFFFFFFFFFFFFFFFFFFFFFFFFFFFFFFFFFFFF AND SWAP1 POP SWAP2 SWAP1 POP JUMP JUMPDEST PUSH1 0x1 PUSH0 SWAP1 SLOAD SWAP1 PUSH2 0x100 EXP SWAP1 DIV PUSH20 0xFFFFFFFFFFFFFFFFFFFFFFFFFFFFFFFFFFFFFFFF AND PUSH20 0xFFFFFFFFFFFFFFFFFFFFFFFFFFFFFFFFFFFFFFFF AND CALLER PUSH20 0xFFFFFFFFFFFFFFFFFFFFFFFFFFFFFFFFFFFFFFFF AND EQ PUSH2 0x10BA JUMPI PUSH1 0x40 MLOAD PUSH32 0x8C379A000000000000000000000000000000000000000000000000000000000 DUP2 MSTORE PUSH1 0x4 ADD PUSH2 0x10B1 SWAP1 PUSH2 0x1FAD JUMP JUMPDEST PUSH1 0x40 MLOAD DUP1 SWAP2 SUB SWAP1 REVERT JUMPDEST DUP1 PUSH0 PUSH0 PUSH2 0x100 EXP DUP2 SLOAD DUP2 PUSH20 0xFFFFFFFFFFFFFFFFFFFFFFFFFFFFFFFFFFFFFFFF MUL NOT AND SWAP1 DUP4 PUSH20 0xFFFFFFFFFFFFFFFFFFFFFFFFFFFFFFFFFFFFFFFF AND MUL OR SWAP1 SSTORE POP POP JUMP JUMPDEST PUSH1 0x1 PUSH0 SWAP1 SLOAD SWAP1 PUSH2 0x100 EXP SWAP1 DIV PUSH20 0xFFFFFFFFFFFFFFFFFFFFFFFFFFFFFFFFFFFFFFFF AND PUSH20 0xFFFFFFFFFFFFFFFFFFFFFFFFFFFFFFFFFFFFFFFF AND CALLER PUSH20 0xFFFFFFFFFFFFFFFFFFFFFFFFFFFFFFFFFFFFFFFF AND EQ PUSH2 0x118B JUMPI PUSH1 0x40 MLOAD PUSH32 0x8C379A000000000000000000000000000000000000000000000000000000000 DUP2 MSTORE PUSH1 0x4 ADD PUSH2 0x1182 SWAP1 PUSH2 0x1FAD JUMP JUMPDEST PUSH1 0x40 MLOAD DUP1 SWAP2 SUB SWAP1 REVERT JUMPDEST DUP1 PUSH1 0x2 PUSH0 DUP5 PUSH1 0xFF AND PUSH1 0xFF AND DUP2 MSTORE PUSH1 0x20 ADD SWAP1 DUP2 MSTORE PUSH1 0x20 ADD PUSH0 KECCAK256 DUP2 SWAP1 SSTORE POP POP POP JUMP JUMPDEST PUSH1 0x1 PUSH1 0x15 SWAP1 SLOAD SWAP1 PUSH2 0x100 EXP SWAP1 DIV PUSH1 0xFF AND DUP2 JUMP JUMPDEST PUSH0 PUSH0 SWAP1 SLOAD SWAP1 PUSH2 0x100 EXP SWAP1 DIV PUSH20 0xFFFFFFFFFFFFFFFFFFFFFFFFFFFFFFFFFFFFFFFF AND DUP2 JUMP JUMPDEST PUSH1 0x3 SLOAD DUP2 JUMP JUMPDEST PUSH1 0x1 PUSH0 SWAP1 SLOAD SWAP1 PUSH2 0x100 EXP SWAP1 DIV PUSH20 0xFFFFFFFFFFFFFFFFFFFFFFFFFFFFFFFFFFFFFFFF AND PUSH20 0xFFFFFFFFFFFFFFFFFFFFFFFFFFFFFFFFFFFFFFFF AND CALLER PUSH20 0xFFFFFFFFFFFFFFFFFFFFFFFFFFFFFFFFFFFFFFFF AND EQ PUSH2 0x1277 JUMPI PUSH1 0x40 MLOAD PUSH32 0x8C379A000000000000000000000000000000000000000000000000000000000 DUP2 MSTORE PUSH1 0x4 ADD PUSH2 0x126E SWAP1 PUSH2 0x1FAD JUMP JUMPDEST PUSH1 0x40 MLOAD DUP1 SWAP2 SUB SWAP1 REVERT JUMPDEST PUSH0 PUSH1 0x4 PUSH0 DUP5 PUSH20 0xFFFFFFFFFFFFFFFFFFFFFFFFFFFFFFFFFFFFFFFF AND PUSH20 0xFFFFFFFFFFFFFFFFFFFFFFFFFFFFFFFFFFFFFFFF AND DUP2 MSTORE PUSH1 0x20 ADD SWAP1 DUP2 MSTORE PUSH1 0x20 ADD PUSH0 KECCAK256 SLOAD SUB PUSH2 0x12F6 JUMPI PUSH1 0x40 MLOAD PUSH32 0x8C379A000000000000000000000000000000000000000000000000000000000 DUP2 MSTORE PUSH1 0x4 ADD PUSH2 0x12ED SWAP1 PUSH2 0x2015 JUMP JUMPDEST PUSH1 0x40 MLOAD DUP1 SWAP2 SUB SWAP1 REVERT JUMPDEST DUP1 PUSH1 0x5 PUSH0 PUSH1 0x4 PUSH0 DUP7 PUSH20 0xFFFFFFFFFFFFFFFFFFFFFFFFFFFFFFFFFFFFFFFF AND PUSH20 0xFFFFFFFFFFFFFFFFFFFFFFFFFFFFFFFFFFFFFFFF AND DUP2 MSTORE PUSH1 0x20 ADD SWAP1 DUP2 MSTORE PUSH1 0x20 ADD PUSH0 KECCAK256 SLOAD DUP2 MSTORE PUSH1 0x20 ADD SWAP1 DUP2 MSTORE PUSH1 0x20 ADD PUSH0 KECCAK256 PUSH1 0x1 ADD PUSH0 DUP3 DUP3 SLOAD PUSH2 0x1356 SWAP2 SWAP1 PUSH2 0x2033 JUMP JUMPDEST SWAP3 POP POP DUP2 SWAP1 SSTORE POP POP POP JUMP JUMPDEST PUSH0 PUSH0 DUP4 PUSH2 0x13AA JUMPI PUSH1 0x2 PUSH0 PUSH1 0x1 PUSH1 0x15 SWAP1 SLOAD SWAP1 PUSH2 0x100 EXP SWAP1 DIV PUSH1 0xFF AND PUSH1 0xFF AND PUSH1 0xFF AND DUP2 MSTORE PUSH1 0x20 ADD SWAP1 DUP2 MSTORE PUSH1 0x20 ADD PUSH0 KECCAK256 SLOAD DUP4 CALLVALUE PUSH2 0x139B SWAP2 SWAP1 PUSH2 0x2093 JUMP JUMPDEST PUSH2 0x13A5 SWAP2 SWAP1 PUSH2 0x2093 JUMP JUMPDEST PUSH2 0x13F3 JUMP JUMPDEST PUSH1 0x2 DUP1 PUSH0 PUSH1 0x1 PUSH1 0x15 SWAP1 SLOAD SWAP1 PUSH2 0x100 EXP SWAP1 DIV PUSH1 0xFF AND PUSH1 0xFF AND PUSH1 0xFF AND DUP2 MSTORE PUSH1 0x20 ADD SWAP1 DUP2 MSTORE PUSH1 0x20 ADD PUSH0 KECCAK256 SLOAD DUP5 CALLVALUE PUSH2 0x13DE SWAP2 SWAP1 PUSH2 0x2093 JUMP JUMPDEST PUSH2 0x13E8 SWAP2 SWAP1 PUSH2 0x2093 JUMP JUMPDEST PUSH2 0x13F2 SWAP2 SWAP1 PUSH2 0x20C3 JUMP JUMPDEST JUMPDEST SWAP1 POP DUP1 SWAP2 POP POP SWAP3 SWAP2 POP POP JUMP JUMPDEST PUSH1 0x1 PUSH0 SWAP1 SLOAD SWAP1 PUSH2 0x100 EXP SWAP1 DIV PUSH20 0xFFFFFFFFFFFFFFFFFFFFFFFFFFFFFFFFFFFFFFFF AND PUSH20 0xFFFFFFFFFFFFFFFFFFFFFFFFFFFFFFFFFFFFFFFF AND CALLER PUSH20 0xFFFFFFFFFFFFFFFFFFFFFFFFFFFFFFFFFFFFFFFF AND EQ PUSH2 0x148E JUMPI PUSH1 0x40 MLOAD PUSH32 0x8C379A000000000000000000000000000000000000000000000000000000000 DUP2 MSTORE PUSH1 0x4 ADD PUSH2 0x1485 SWAP1 PUSH2 0x1FAD JUMP JUMPDEST PUSH1 0x40 MLOAD DUP1 SWAP2 SUB SWAP1 REVERT JUMPDEST PUSH0 PUSH0 SWAP1 SLOAD SWAP1 PUSH2 0x100 EXP SWAP1 DIV PUSH20 0xFFFFFFFFFFFFFFFFFFFFFFFFFFFFFFFFFFFFFFFF AND PUSH20 0xFFFFFFFFFFFFFFFFFFFFFFFFFFFFFFFFFFFFFFFF AND PUSH4 0x65A6CC2E PUSH1 0x40 MLOAD DUP2 PUSH4 0xFFFFFFFF AND PUSH1 0xE0 SHL DUP2 MSTORE PUSH1 0x4 ADD PUSH0 PUSH1 0x40 MLOAD DUP1 DUP4 SUB DUP2 PUSH0 DUP8 DUP1 EXTCODESIZE ISZERO DUP1 ISZERO PUSH2 0x14F3 JUMPI PUSH0 PUSH0 REVERT JUMPDEST POP GAS CALL ISZERO DUP1 ISZERO PUSH2 0x1505 JUMPI RETURNDATASIZE PUSH0 PUSH0 RETURNDATACOPY RETURNDATASIZE PUSH0 REVERT JUMPDEST POP POP POP POP JUMP JUMPDEST PUSH1 0x1 PUSH0 SWAP1 SLOAD SWAP1 PUSH2 0x100 EXP SWAP1 DIV PUSH20 0xFFFFFFFFFFFFFFFFFFFFFFFFFFFFFFFFFFFFFFFF AND PUSH20 0xFFFFFFFFFFFFFFFFFFFFFFFFFFFFFFFFFFFFFFFF AND CALLER PUSH20 0xFFFFFFFFFFFFFFFFFFFFFFFFFFFFFFFFFFFFFFFF AND EQ PUSH2 0x159A JUMPI PUSH1 0x40 MLOAD PUSH32 0x8C379A000000000000000000000000000000000000000000000000000000000 DUP2 MSTORE PUSH1 0x4 ADD PUSH2 0x1591 SWAP1 PUSH2 0x1FAD JUMP JUMPDEST PUSH1 0x40 MLOAD DUP1 SWAP2 SUB SWAP1 REVERT JUMPDEST PUSH0 PUSH20 0xFFFFFFFFFFFFFFFFFFFFFFFFFFFFFFFFFFFFFFFF AND DUP2 PUSH20 0xFFFFFFFFFFFFFFFFFFFFFFFFFFFFFFFFFFFFFFFF AND SUB PUSH2 0x1608 JUMPI PUSH1 0x40 MLOAD PUSH32 0x8C379A000000000000000000000000000000000000000000000000000000000 DUP2 MSTORE PUSH1 0x4 ADD PUSH2 0x15FF SWAP1 PUSH2 0x214E JUMP JUMPDEST PUSH1 0x40 MLOAD DUP1 SWAP2 SUB SWAP1 REVERT JUMPDEST DUP1 PUSH20 0xFFFFFFFFFFFFFFFFFFFFFFFFFFFFFFFFFFFFFFFF AND PUSH2 0x8FC SELFBALANCE SWAP1 DUP2 ISZERO MUL SWAP1 PUSH1 0x40 MLOAD PUSH0 PUSH1 0x40 MLOAD DUP1 DUP4 SUB DUP2 DUP6 DUP9 DUP9 CALL SWAP4 POP POP POP POP ISZERO DUP1 ISZERO PUSH2 0x164B JUMPI RETURNDATASIZE PUSH0 PUSH0 RETURNDATACOPY RETURNDATASIZE PUSH0 REVERT JUMPDEST POP POP JUMP JUMPDEST PUSH0 PUSH1 0x5 PUSH0 PUSH1 0x4 PUSH0 DUP6 PUSH20 0xFFFFFFFFFFFFFFFFFFFFFFFFFFFFFFFFFFFFFFFF AND PUSH20 0xFFFFFFFFFFFFFFFFFFFFFFFFFFFFFFFFFFFFFFFF AND DUP2 MSTORE PUSH1 0x20 ADD SWAP1 DUP2 MSTORE PUSH1 0x20 ADD PUSH0 KECCAK256 SLOAD DUP2 MSTORE PUSH1 0x20 ADD SWAP1 DUP2 MSTORE PUSH1 0x20 ADD PUSH0 KECCAK256 PUSH1 0x1 ADD SLOAD SWAP1 POP SWAP2 SWAP1 POP JUMP JUMPDEST DUP3 DUP1 SLOAD DUP3 DUP3 SSTORE SWAP1 PUSH0 MSTORE PUSH1 0x20 PUSH0 KECCAK256 SWAP1 PUSH1 0x4 MUL DUP2 ADD SWAP3 DUP3 ISZERO PUSH2 0x1734 JUMPI PUSH0 MSTORE PUSH1 0x20 PUSH0 KECCAK256 SWAP2 PUSH1 0x4 MUL DUP3 ADD JUMPDEST DUP3 DUP2 GT ISZERO PUSH2 0x1733 JUMPI DUP3 DUP3 PUSH0 DUP3 ADD SLOAD DUP2 PUSH0 ADD SSTORE PUSH1 0x1 DUP3 ADD SLOAD DUP2 PUSH1 0x1 ADD SSTORE PUSH1 0x2 DUP3 ADD SLOAD DUP2 PUSH1 0x2 ADD SSTORE PUSH1 0x3 DUP3 ADD PUSH0 SWAP1 SLOAD SWAP1 PUSH2 0x100 EXP SWAP1 DIV PUSH1 0xFF AND DUP2 PUSH1 0x3 ADD PUSH0 PUSH2 0x100 EXP DUP2 SLOAD DUP2 PUSH1 0xFF MUL NOT AND SWAP1 DUP4 PUSH1 0xFF AND MUL OR SWAP1 SSTORE POP POP POP SWAP2 PUSH1 0x4 ADD SWAP2 SWAP1 PUSH1 0x4 ADD SWAP1 PUSH2 0x16D0 JUMP JUMPDEST JUMPDEST POP SWAP1 POP PUSH2 0x1741 SWAP2 SWAP1 PUSH2 0x1745 JUMP JUMPDEST POP SWAP1 JUMP JUMPDEST JUMPDEST DUP1 DUP3 GT ISZERO PUSH2 0x177F JUMPI PUSH0 PUSH0 DUP3 ADD PUSH0 SWAP1 SSTORE PUSH1 0x1 DUP3 ADD PUSH0 SWAP1 SSTORE PUSH1 0x2 DUP3 ADD PUSH0 SWAP1 SSTORE PUSH1 0x3 DUP3 ADD PUSH0 PUSH2 0x100 EXP DUP2 SLOAD SWAP1 PUSH1 0xFF MUL NOT AND SWAP1 SSTORE POP PUSH1 0x4 ADD PUSH2 0x1746 JUMP JUMPDEST POP SWAP1 JUMP JUMPDEST PUSH0 DUP2 SWAP1 POP SWAP3 SWAP2 POP POP JUMP JUMPDEST POP JUMP JUMPDEST PUSH0 PUSH2 0x179B PUSH0 DUP4 PUSH2 0x1783 JUMP JUMPDEST SWAP2 POP PUSH2 0x17A6 DUP3 PUSH2 0x178D JUMP JUMPDEST PUSH0 DUP3 ADD SWAP1 POP SWAP2 SWAP1 POP JUMP JUMPDEST PUSH0 PUSH2 0x17BA DUP3 PUSH2 0x1790 JUMP JUMPDEST SWAP2 POP DUP2 SWAP1 POP SWAP2 SWAP1 POP JUMP JUMPDEST PUSH0 DUP3 DUP3 MSTORE PUSH1 0x20 DUP3 ADD SWAP1 POP SWAP3 SWAP2 POP POP JUMP JUMPDEST PUSH32 0x5472616E73666572206661696C65640000000000000000000000000000000000 PUSH0 DUP3 ADD MSTORE POP JUMP JUMPDEST PUSH0 PUSH2 0x1808 PUSH1 0xF DUP4 PUSH2 0x17C4 JUMP JUMPDEST SWAP2 POP PUSH2 0x1813 DUP3 PUSH2 0x17D4 JUMP JUMPDEST PUSH1 0x20 DUP3 ADD SWAP1 POP SWAP2 SWAP1 POP JUMP JUMPDEST PUSH0 PUSH1 0x20 DUP3 ADD SWAP1 POP DUP2 DUP2 SUB PUSH0 DUP4 ADD MSTORE PUSH2 0x1835 DUP2 PUSH2 0x17FC JUMP JUMPDEST SWAP1 POP SWAP2 SWAP1 POP JUMP JUMPDEST PUSH0 PUSH20 0xFFFFFFFFFFFFFFFFFFFFFFFFFFFFFFFFFFFFFFFF DUP3 AND SWAP1 POP SWAP2 SWAP1 POP JUMP JUMPDEST PUSH0 PUSH2 0x1865 DUP3 PUSH2 0x183C JUMP JUMPDEST SWAP1 POP SWAP2 SWAP1 POP JUMP JUMPDEST PUSH2 0x1875 DUP2 PUSH2 0x185B JUMP JUMPDEST DUP3 MSTORE POP POP JUMP JUMPDEST PUSH0 PUSH1 0x20 DUP3 ADD SWAP1 POP PUSH2 0x188E PUSH0 DUP4 ADD DUP5 PUSH2 0x186C JUMP JUMPDEST SWAP3 SWAP2 POP POP JUMP JUMPDEST PUSH0 DUP2 MLOAD SWAP1 POP SWAP2 SWAP1 POP JUMP JUMPDEST DUP3 DUP2 DUP4 MCOPY PUSH0 DUP4 DUP4 ADD MSTORE POP POP POP JUMP JUMPDEST PUSH0 PUSH2 0x18B6 DUP3 PUSH2 0x1894 JUMP JUMPDEST PUSH2 0x18C0 DUP2 DUP6 PUSH2 0x1783 JUMP JUMPDEST SWAP4 POP PUSH2 0x18D0 DUP2 DUP6 PUSH1 0x20 DUP7 ADD PUSH2 0x189E JUMP JUMPDEST DUP1 DUP5 ADD SWAP2 POP POP SWAP3 SWAP2 POP POP JUMP JUMPDEST PUSH0 PUSH2 0x18E7 DUP3 DUP5 PUSH2 0x18AC JUMP JUMPDEST SWAP2 POP DUP2 SWAP1 POP SWAP3 SWAP2 POP POP JUMP JUMPDEST PUSH32 0x4661696C656420746F2067657420707269636500000000000000000000000000 PUSH0 DUP3 ADD MSTORE POP JUMP JUMPDEST PUSH0 PUSH2 0x1926 PUSH1 0x13 DUP4 PUSH2 0x17C4 JUMP JUMPDEST SWAP2 POP PUSH2 0x1931 DUP3 PUSH2 0x18F2 JUMP JUMPDEST PUSH1 0x20 DUP3 ADD SWAP1 POP SWAP2 SWAP1 POP JUMP JUMPDEST PUSH0 PUSH1 0x20 DUP3 ADD SWAP1 POP DUP2 DUP2 SUB PUSH0 DUP4 ADD MSTORE PUSH2 0x1953 DUP2 PUSH2 0x191A JUMP JUMPDEST SWAP1 POP SWAP2 SWAP1 POP JUMP JUMPDEST PUSH0 PUSH0 REVERT JUMPDEST PUSH0 DUP2 SWAP1 POP SWAP2 SWAP1 POP JUMP JUMPDEST PUSH2 0x1970 DUP2 PUSH2 0x195E JUMP JUMPDEST DUP2 EQ PUSH2 0x197A JUMPI PUSH0 PUSH0 REVERT JUMPDEST POP JUMP JUMPDEST PUSH0 DUP2 MLOAD SWAP1 POP PUSH2 0x198B DUP2 PUSH2 0x1967 JUMP JUMPDEST SWAP3 SWAP2 POP POP JUMP JUMPDEST PUSH0 PUSH1 0x20 DUP3 DUP5 SUB SLT ISZERO PUSH2 0x19A6 JUMPI PUSH2 0x19A5 PUSH2 0x195A JUMP JUMPDEST JUMPDEST PUSH0 PUSH2 0x19B3 DUP5 DUP3 DUP6 ADD PUSH2 0x197D JUMP JUMPDEST SWAP2 POP POP SWAP3 SWAP2 POP POP JUMP JUMPDEST PUSH0 DUP2 ISZERO ISZERO SWAP1 POP SWAP2 SWAP1 POP JUMP JUMPDEST PUSH2 0x19D0 DUP2 PUSH2 0x19BC JUMP JUMPDEST DUP2 EQ PUSH2 0x19DA JUMPI PUSH0 PUSH0 REVERT JUMPDEST POP JUMP JUMPDEST PUSH0 DUP2 CALLDATALOAD SWAP1 POP PUSH2 0x19EB DUP2 PUSH2 0x19C7 JUMP JUMPDEST SWAP3 SWAP2 POP POP JUMP JUMPDEST PUSH0 PUSH1 0x20 DUP3 DUP5 SUB SLT ISZERO PUSH2 0x1A06 JUMPI PUSH2 0x1A05 PUSH2 0x195A JUMP JUMPDEST JUMPDEST PUSH0 PUSH2 0x1A13 DUP5 DUP3 DUP6 ADD PUSH2 0x19DD JUMP JUMPDEST SWAP2 POP POP SWAP3 SWAP2 POP POP JUMP JUMPDEST PUSH2 0x1A25 DUP2 PUSH2 0x185B JUMP JUMPDEST DUP2 EQ PUSH2 0x1A2F JUMPI PUSH0 PUSH0 REVERT JUMPDEST POP JUMP JUMPDEST PUSH0 DUP2 CALLDATALOAD SWAP1 POP PUSH2 0x1A40 DUP2 PUSH2 0x1A1C JUMP JUMPDEST SWAP3 SWAP2 POP POP JUMP JUMPDEST PUSH0 DUP2 CALLDATALOAD SWAP1 POP PUSH2 0x1A54 DUP2 PUSH2 0x1967 JUMP JUMPDEST SWAP3 SWAP2 POP POP JUMP JUMPDEST PUSH0 PUSH0 PUSH1 0x40 DUP4 DUP6 SUB SLT ISZERO PUSH2 0x1A70 JUMPI PUSH2 0x1A6F PUSH2 0x195A JUMP JUMPDEST JUMPDEST PUSH0 PUSH2 0x1A7D DUP6 DUP3 DUP7 ADD PUSH2 0x1A32 JUMP JUMPDEST SWAP3 POP POP PUSH1 0x20 PUSH2 0x1A8E DUP6 DUP3 DUP7 ADD PUSH2 0x1A46 JUMP JUMPDEST SWAP2 POP POP SWAP3 POP SWAP3 SWAP1 POP JUMP JUMPDEST PUSH2 0x1AA1 DUP2 PUSH2 0x195E JUMP JUMPDEST DUP3 MSTORE POP POP JUMP JUMPDEST PUSH0 PUSH1 0x60 DUP3 ADD SWAP1 POP PUSH2 0x1ABA PUSH0 DUP4 ADD DUP7 PUSH2 0x1A98 JUMP JUMPDEST PUSH2 0x1AC7 PUSH1 0x20 DUP4 ADD DUP6 PUSH2 0x1A98 JUMP JUMPDEST PUSH2 0x1AD4 PUSH1 0x40 DUP4 ADD DUP5 PUSH2 0x1A98 JUMP JUMPDEST SWAP5 SWAP4 POP POP POP POP JUMP JUMPDEST PUSH0 PUSH1 0x20 DUP3 DUP5 SUB SLT ISZERO PUSH2 0x1AF1 JUMPI PUSH2 0x1AF0 PUSH2 0x195A JUMP JUMPDEST JUMPDEST PUSH0 PUSH2 0x1AFE DUP5 DUP3 DUP6 ADD PUSH2 0x1A32 JUMP JUMPDEST SWAP2 POP POP SWAP3 SWAP2 POP POP JUMP JUMPDEST PUSH0 PUSH1 0x20 DUP3 ADD SWAP1 POP PUSH2 0x1B1A PUSH0 DUP4 ADD DUP5 PUSH2 0x1A98 JUMP JUMPDEST SWAP3 SWAP2 POP POP JUMP JUMPDEST PUSH0 PUSH1 0x20 DUP3 DUP5 SUB SLT ISZERO PUSH2 0x1B35 JUMPI PUSH2 0x1B34 PUSH2 0x195A JUMP JUMPDEST JUMPDEST PUSH0 PUSH2 0x1B42 DUP5 DUP3 DUP6 ADD PUSH2 0x1A46 JUMP JUMPDEST SWAP2 POP POP SWAP3 SWAP2 POP POP JUMP JUMPDEST PUSH2 0x1B54 DUP2 PUSH2 0x19BC JUMP JUMPDEST DUP3 MSTORE POP POP JUMP JUMPDEST PUSH0 PUSH1 0x60 DUP3 ADD SWAP1 POP PUSH2 0x1B6D PUSH0 DUP4 ADD DUP7 PUSH2 0x186C JUMP JUMPDEST PUSH2 0x1B7A PUSH1 0x20 DUP4 ADD DUP6 PUSH2 0x1A98 JUMP JUMPDEST PUSH2 0x1B87 PUSH1 0x40 DUP4 ADD DUP5 PUSH2 0x1B4B JUMP JUMPDEST SWAP5 SWAP4 POP POP POP POP JUMP JUMPDEST PUSH0 PUSH1 0xFF DUP3 AND SWAP1 POP SWAP2 SWAP1 POP JUMP JUMPDEST PUSH2 0x1BA4 DUP2 PUSH2 0x1B8F JUMP JUMPDEST DUP2 EQ PUSH2 0x1BAE JUMPI PUSH0 PUSH0 REVERT JUMPDEST POP JUMP JUMPDEST PUSH0 DUP2 CALLDATALOAD SWAP1 POP PUSH2 0x1BBF DUP2 PUSH2 0x1B9B JUMP JUMPDEST SWAP3 SWAP2 POP POP JUMP JUMPDEST PUSH0 PUSH1 0x20 DUP3 DUP5 SUB SLT ISZERO PUSH2 0x1BDA JUMPI PUSH2 0x1BD9 PUSH2 0x195A JUMP JUMPDEST JUMPDEST PUSH0 PUSH2 0x1BE7 DUP5 DUP3 DUP6 ADD PUSH2 0x1BB1 JUMP JUMPDEST SWAP2 POP POP SWAP3 SWAP2 POP POP JUMP JUMPDEST PUSH0 PUSH2 0x1BFA DUP3 PUSH2 0x183C JUMP JUMPDEST SWAP1 POP SWAP2 SWAP1 POP JUMP JUMPDEST PUSH2 0x1C0A DUP2 PUSH2 0x1BF0 JUMP JUMPDEST DUP2 EQ PUSH2 0x1C14 JUMPI PUSH0 PUSH0 REVERT JUMPDEST POP JUMP JUMPDEST PUSH0 DUP2 CALLDATALOAD SWAP1 POP PUSH2 0x1C25 DUP2 PUSH2 0x1C01 JUMP JUMPDEST SWAP3 SWAP2 POP POP JUMP JUMPDEST PUSH0 PUSH1 0x20 DUP3 DUP5 SUB SLT ISZERO PUSH2 0x1C40 JUMPI PUSH2 0x1C3F PUSH2 0x195A JUMP JUMPDEST JUMPDEST PUSH0 PUSH2 0x1C4D DUP5 DUP3 DUP6 ADD PUSH2 0x1C17 JUMP JUMPDEST SWAP2 POP POP SWAP3 SWAP2 POP POP JUMP JUMPDEST PUSH0 PUSH0 PUSH1 0x40 DUP4 DUP6 SUB SLT ISZERO PUSH2 0x1C6C JUMPI PUSH2 0x1C6B PUSH2 0x195A JUMP JUMPDEST JUMPDEST PUSH0 PUSH2 0x1C79 DUP6 DUP3 DUP7 ADD PUSH2 0x1BB1 JUMP JUMPDEST SWAP3 POP POP PUSH1 0x20 PUSH2 0x1C8A DUP6 DUP3 DUP7 ADD PUSH2 0x1A46 JUMP JUMPDEST SWAP2 POP POP SWAP3 POP SWAP3 SWAP1 POP JUMP JUMPDEST PUSH2 0x1C9D DUP2 PUSH2 0x1B8F JUMP JUMPDEST DUP3 MSTORE POP POP JUMP JUMPDEST PUSH0 PUSH1 0x20 DUP3 ADD SWAP1 POP PUSH2 0x1CB6 PUSH0 DUP4 ADD DUP5 PUSH2 0x1C94 JUMP JUMPDEST SWAP3 SWAP2 POP POP JUMP JUMPDEST PUSH2 0x1CC5 DUP2 PUSH2 0x1BF0 JUMP JUMPDEST DUP3 MSTORE POP POP JUMP JUMPDEST PUSH0 PUSH1 0x20 DUP3 ADD SWAP1 POP PUSH2 0x1CDE PUSH0 DUP4 ADD DUP5 PUSH2 0x1CBC JUMP JUMPDEST SWAP3 SWAP2 POP POP JUMP JUMPDEST PUSH0 PUSH0 PUSH1 0x40 DUP4 DUP6 SUB SLT ISZERO PUSH2 0x1CFA JUMPI PUSH2 0x1CF9 PUSH2 0x195A JUMP JUMPDEST JUMPDEST PUSH0 PUSH2 0x1D07 DUP6 DUP3 DUP7 ADD PUSH2 0x19DD JUMP JUMPDEST SWAP3 POP POP PUSH1 0x20 PUSH2 0x1D18 DUP6 DUP3 DUP7 ADD PUSH2 0x1A46 JUMP JUMPDEST SWAP2 POP POP SWAP3 POP SWAP3 SWAP1 POP JUMP JUMPDEST PUSH32 0x436F6E7472616374205061757365640000000000000000000000000000000000 PUSH0 DUP3 ADD MSTORE POP JUMP JUMPDEST PUSH0 PUSH2 0x1D56 PUSH1 0xF DUP4 PUSH2 0x17C4 JUMP JUMPDEST SWAP2 POP PUSH2 0x1D61 DUP3 PUSH2 0x1D22 JUMP JUMPDEST PUSH1 0x20 DUP3 ADD SWAP1 POP SWAP2 SWAP1 POP JUMP JUMPDEST PUSH0 PUSH1 0x20 DUP3 ADD SWAP1 POP DUP2 DUP2 SUB PUSH0 DUP4 ADD MSTORE PUSH2 0x1D83 DUP2 PUSH2 0x1D4A JUMP JUMPDEST SWAP1 POP SWAP2 SWAP1 POP JUMP JUMPDEST PUSH32 0x4E6F205265656E7472616E63792C706C73207761697400000000000000000000 PUSH0 DUP3 ADD MSTORE POP JUMP JUMPDEST PUSH0 PUSH2 0x1DBE PUSH1 0x16 DUP4 PUSH2 0x17C4 JUMP JUMPDEST SWAP2 POP PUSH2 0x1DC9 DUP3 PUSH2 0x1D8A JUMP JUMPDEST PUSH1 0x20 DUP3 ADD SWAP1 POP SWAP2 SWAP1 POP JUMP JUMPDEST PUSH0 PUSH1 0x20 DUP3 ADD SWAP1 POP DUP2 DUP2 SUB PUSH0 DUP4 ADD MSTORE PUSH2 0x1DEB DUP2 PUSH2 0x1DB2 JUMP JUMPDEST SWAP1 POP SWAP2 SWAP1 POP JUMP JUMPDEST PUSH32 0x53656E64206D6F726520424E4220746F20627579205450540000000000000000 PUSH0 DUP3 ADD MSTORE POP JUMP JUMPDEST PUSH0 PUSH2 0x1E26 PUSH1 0x18 DUP4 PUSH2 0x17C4 JUMP JUMPDEST SWAP2 POP PUSH2 0x1E31 DUP3 PUSH2 0x1DF2 JUMP JUMPDEST PUSH1 0x20 DUP3 ADD SWAP1 POP SWAP2 SWAP1 POP JUMP JUMPDEST PUSH0 PUSH1 0x20 DUP3 ADD SWAP1 POP DUP2 DUP2 SUB PUSH0 DUP4 ADD MSTORE PUSH2 0x1E53 DUP2 PUSH2 0x1E1A JUMP JUMPDEST SWAP1 POP SWAP2 SWAP1 POP JUMP JUMPDEST PUSH32 0x496E76616C69642064617461206C656E67746800000000000000000000000000 PUSH0 DUP3 ADD MSTORE POP JUMP JUMPDEST PUSH0 PUSH2 0x1E8E PUSH1 0x13 DUP4 PUSH2 0x17C4 JUMP JUMPDEST SWAP2 POP PUSH2 0x1E99 DUP3 PUSH2 0x1E5A JUMP JUMPDEST PUSH1 0x20 DUP3 ADD SWAP1 POP SWAP2 SWAP1 POP JUMP JUMPDEST PUSH0 PUSH1 0x20 DUP3 ADD SWAP1 POP DUP2 DUP2 SUB PUSH0 DUP4 ADD MSTORE PUSH2 0x1EBB DUP2 PUSH2 0x1E82 JUMP JUMPDEST SWAP1 POP SWAP2 SWAP1 POP JUMP JUMPDEST PUSH32 0x4E487B7100000000000000000000000000000000000000000000000000000000 PUSH0 MSTORE PUSH1 0x11 PUSH1 0x4 MSTORE PUSH1 0x24 PUSH0 REVERT JUMPDEST PUSH0 PUSH2 0x1EF9 DUP3 PUSH2 0x195E JUMP JUMPDEST SWAP2 POP PUSH32 0xFFFFFFFFFFFFFFFFFFFFFFFFFFFFFFFFFFFFFFFFFFFFFFFFFFFFFFFFFFFFFFFF DUP3 SUB PUSH2 0x1F2B JUMPI PUSH2 0x1F2A PUSH2 0x1EC2 JUMP JUMPDEST JUMPDEST PUSH1 0x1 DUP3 ADD SWAP1 POP SWAP2 SWAP1 POP JUMP JUMPDEST PUSH32 0x4E487B7100000000000000000000000000000000000000000000000000000000 PUSH0 MSTORE PUSH1 0x32 PUSH1 0x4 MSTORE PUSH1 0x24 PUSH0 REVERT JUMPDEST PUSH32 0x4F6E6C79206F776E657200000000000000000000000000000000000000000000 PUSH0 DUP3 ADD MSTORE POP JUMP JUMPDEST PUSH0 PUSH2 0x1F97 PUSH1 0xA DUP4 PUSH2 0x17C4 JUMP JUMPDEST SWAP2 POP PUSH2 0x1FA2 DUP3 PUSH2 0x1F63 JUMP JUMPDEST PUSH1 0x20 DUP3 ADD SWAP1 POP SWAP2 SWAP1 POP JUMP JUMPDEST PUSH0 PUSH1 0x20 DUP3 ADD SWAP1 POP DUP2 DUP2 SUB PUSH0 DUP4 ADD MSTORE PUSH2 0x1FC4 DUP2 PUSH2 0x1F8B JUMP JUMPDEST SWAP1 POP SWAP2 SWAP1 POP JUMP JUMPDEST PUSH32 0x496E76616C696420757365722049440000000000000000000000000000000000 PUSH0 DUP3 ADD MSTORE POP JUMP JUMPDEST PUSH0 PUSH2 0x1FFF PUSH1 0xF DUP4 PUSH2 0x17C4 JUMP JUMPDEST SWAP2 POP PUSH2 0x200A DUP3 PUSH2 0x1FCB JUMP JUMPDEST PUSH1 0x20 DUP3 ADD SWAP1 POP SWAP2 SWAP1 POP JUMP JUMPDEST PUSH0 PUSH1 0x20 DUP3 ADD SWAP1 POP DUP2 DUP2 SUB PUSH0 DUP4 ADD MSTORE PUSH2 0x202C DUP2 PUSH2 0x1FF3 JUMP JUMPDEST SWAP1 POP SWAP2 SWAP1 POP JUMP JUMPDEST PUSH0 PUSH2 0x203D DUP3 PUSH2 0x195E JUMP JUMPDEST SWAP2 POP PUSH2 0x2048 DUP4 PUSH2 0x195E JUMP JUMPDEST SWAP3 POP DUP3 DUP3 ADD SWAP1 POP DUP1 DUP3 GT ISZERO PUSH2 0x2060 JUMPI PUSH2 0x205F PUSH2 0x1EC2 JUMP JUMPDEST JUMPDEST SWAP3 SWAP2 POP POP JUMP JUMPDEST PUSH32 0x4E487B7100000000000000000000000000000000000000000000000000000000 PUSH0 MSTORE PUSH1 0x12 PUSH1 0x4 MSTORE PUSH1 0x24 PUSH0 REVERT JUMPDEST PUSH0 PUSH2 0x209D DUP3 PUSH2 0x195E JUMP JUMPDEST SWAP2 POP PUSH2 0x20A8 DUP4 PUSH2 0x195E JUMP JUMPDEST SWAP3 POP DUP3 PUSH2 0x20B8 JUMPI PUSH2 0x20B7 PUSH2 0x2066 JUMP JUMPDEST JUMPDEST DUP3 DUP3 DIV SWAP1 POP SWAP3 SWAP2 POP POP JUMP JUMPDEST PUSH0 PUSH2 0x20CD DUP3 PUSH2 0x195E JUMP JUMPDEST SWAP2 POP PUSH2 0x20D8 DUP4 PUSH2 0x195E JUMP JUMPDEST SWAP3 POP DUP3 DUP3 MUL PUSH2 0x20E6 DUP2 PUSH2 0x195E JUMP JUMPDEST SWAP2 POP DUP3 DUP3 DIV DUP5 EQ DUP4 ISZERO OR PUSH2 0x20FD JUMPI PUSH2 0x20FC PUSH2 0x1EC2 JUMP JUMPDEST JUMPDEST POP SWAP3 SWAP2 POP POP JUMP JUMPDEST PUSH32 0x496E76616C696420616464726573730000000000000000000000000000000000 PUSH0 DUP3 ADD MSTORE POP JUMP JUMPDEST PUSH0 PUSH2 0x2138 PUSH1 0xF DUP4 PUSH2 0x17C4 JUMP JUMPDEST SWAP2 POP PUSH2 0x2143 DUP3 PUSH2 0x2104 JUMP JUMPDEST PUSH1 0x20 DUP3 ADD SWAP1 POP SWAP2 SWAP1 POP JUMP JUMPDEST PUSH0 PUSH1 0x20 DUP3 ADD SWAP1 POP DUP2 DUP2 SUB PUSH0 DUP4 ADD MSTORE PUSH2 0x2165 DUP2 PUSH2 0x212C JUMP JUMPDEST SWAP1 POP SWAP2 SWAP1 POP JUMP INVALID LOG2 PUSH5 0x6970667358 0x22 SLT KECCAK256 PUSH24 0xF3B6F459BE9B3BD638B0B44B7638D802B7A078B73AFFD329 0xC 0x2B DUPN 0x1 SWAP15 0xB9 DUP5 PUSH5 0x736F6C6343 STOP ADDMOD 0x1E STOP CALLER "
				},
				"gasEstimates": {
					"creation": {
						"codeDepositCost": "1722000",
						"executionCost": "infinite",
						"totalCost": "infinite"
					},
					"external": {
						"": "infinite",
						"calcAmount(bool,uint256)": "infinite",
						"getPurchase(address,uint256)": "infinite",
						"getPurchaseCount(address)": "5087",
						"getThisStepPrice()": "4751",
						"getUserAddress(uint256)": "2968",
						"getUserId(address)": "2875",
						"getUserTPTBalance(address)": "5121",
						"grantPointsById(address,uint256)": "infinite",
						"owner()": "2597",
						"priceContract()": "2596",
						"setIBNBPrice(address)": "26906",
						"setIBNBPriceMode()": "infinite",
						"setTPTPrice(uint8,uint256)": "24993",
						"setThisStep(uint8)": "26960",
						"thisStep()": "2584",
						"totalUsers()": "2536",
						"tptPrice(uint8)": "2783",
						"userId(address)": "2914",
						"users(uint256)": "infinite",
						"withdrawAll(address)": "infinite"
					},
					"internal": {
						"buyTPT(bool,uint256)": "infinite"
					}
				},
				"methodIdentifiers": {
					"calcAmount(bool,uint256)": "cb722d11",
					"getPurchase(address,uint256)": "2a2a92cc",
					"getPurchaseCount(address)": "31bbf555",
					"getThisStepPrice()": "672cbe1a",
					"getUserAddress(uint256)": "90d976e2",
					"getUserId(address)": "2b956ff7",
					"getUserTPTBalance(address)": "fdbb6696",
					"grantPointsById(address,uint256)": "ca90d6e6",
					"owner()": "8da5cb5b",
					"priceContract()": "ae372ec1",
					"setIBNBPrice(address)": "95e55748",
					"setIBNBPriceMode()": "d221954b",
					"setTPTPrice(uint8,uint256)": "a2f5546e",
					"setThisStep(uint8)": "7ce8a08e",
					"thisStep()": "ae243031",
					"totalUsers()": "bff1f9e1",
					"tptPrice(uint8)": "556a7579",
					"userId(address)": "376fe102",
					"users(uint256)": "365b98b2",
					"withdrawAll(address)": "fa09e630"
				}
			},
			"storageLayout": {
				"storage": [
					{
						"astId": 39,
						"contract": "contracts/TPTPreSale.sol:TPTPreSale",
						"label": "priceContract",
						"offset": 0,
						"slot": "0",
						"type": "t_address_payable"
					},
					{
						"astId": 41,
						"contract": "contracts/TPTPreSale.sol:TPTPreSale",
						"label": "owner",
						"offset": 0,
						"slot": "1",
						"type": "t_address"
					},
					{
						"astId": 43,
						"contract": "contracts/TPTPreSale.sol:TPTPreSale",
						"label": "locked",
						"offset": 20,
						"slot": "1",
						"type": "t_bool"
					},
					{
						"astId": 45,
						"contract": "contracts/TPTPreSale.sol:TPTPreSale",
						"label": "thisStep",
						"offset": 21,
						"slot": "1",
						"type": "t_uint8"
					},
					{
						"astId": 49,
						"contract": "contracts/TPTPreSale.sol:TPTPreSale",
						"label": "tptPrice",
						"offset": 0,
						"slot": "2",
						"type": "t_mapping(t_uint8,t_uint256)"
					},
					{
						"astId": 51,
						"contract": "contracts/TPTPreSale.sol:TPTPreSale",
						"label": "totalUsers",
						"offset": 0,
						"slot": "3",
						"type": "t_uint256"
					},
					{
						"astId": 75,
						"contract": "contracts/TPTPreSale.sol:TPTPreSale",
						"label": "userId",
						"offset": 0,
						"slot": "4",
						"type": "t_mapping(t_address,t_uint256)"
					},
					{
						"astId": 80,
						"contract": "contracts/TPTPreSale.sol:TPTPreSale",
						"label": "users",
						"offset": 0,
						"slot": "5",
						"type": "t_mapping(t_uint256,t_struct(UserInfo)71_storage)"
					}
				],
				"types": {
					"t_address": {
						"encoding": "inplace",
						"label": "address",
						"numberOfBytes": "20"
					},
					"t_address_payable": {
						"encoding": "inplace",
						"label": "address payable",
						"numberOfBytes": "20"
					},
					"t_array(t_struct(Purchase)60_storage)dyn_storage": {
						"base": "t_struct(Purchase)60_storage",
						"encoding": "dynamic_array",
						"label": "struct TPTPreSale.Purchase[]",
						"numberOfBytes": "32"
					},
					"t_bool": {
						"encoding": "inplace",
						"label": "bool",
						"numberOfBytes": "1"
					},
					"t_mapping(t_address,t_uint256)": {
						"encoding": "mapping",
						"key": "t_address",
						"label": "mapping(address => uint256)",
						"numberOfBytes": "32",
						"value": "t_uint256"
					},
					"t_mapping(t_uint256,t_struct(UserInfo)71_storage)": {
						"encoding": "mapping",
						"key": "t_uint256",
						"label": "mapping(uint256 => struct TPTPreSale.UserInfo)",
						"numberOfBytes": "32",
						"value": "t_struct(UserInfo)71_storage"
					},
					"t_mapping(t_uint8,t_uint256)": {
						"encoding": "mapping",
						"key": "t_uint8",
						"label": "mapping(uint8 => uint256)",
						"numberOfBytes": "32",
						"value": "t_uint256"
					},
					"t_struct(Purchase)60_storage": {
						"encoding": "inplace",
						"label": "struct TPTPreSale.Purchase",
						"members": [
							{
								"astId": 53,
								"contract": "contracts/TPTPreSale.sol:TPTPreSale",
								"label": "timestamp",
								"offset": 0,
								"slot": "0",
								"type": "t_uint256"
							},
							{
								"astId": 55,
								"contract": "contracts/TPTPreSale.sol:TPTPreSale",
								"label": "bnbAmount",
								"offset": 0,
								"slot": "1",
								"type": "t_uint256"
							},
							{
								"astId": 57,
								"contract": "contracts/TPTPreSale.sol:TPTPreSale",
								"label": "tptAmount",
								"offset": 0,
								"slot": "2",
								"type": "t_uint256"
							},
							{
								"astId": 59,
								"contract": "contracts/TPTPreSale.sol:TPTPreSale",
								"label": "step",
								"offset": 0,
								"slot": "3",
								"type": "t_uint8"
							}
						],
						"numberOfBytes": "128"
					},
					"t_struct(UserInfo)71_storage": {
						"encoding": "inplace",
						"label": "struct TPTPreSale.UserInfo",
						"members": [
							{
								"astId": 62,
								"contract": "contracts/TPTPreSale.sol:TPTPreSale",
								"label": "walletAddress",
								"offset": 0,
								"slot": "0",
								"type": "t_address"
							},
							{
								"astId": 64,
								"contract": "contracts/TPTPreSale.sol:TPTPreSale",
								"label": "tptBalance",
								"offset": 0,
								"slot": "1",
								"type": "t_uint256"
							},
							{
								"astId": 66,
								"contract": "contracts/TPTPreSale.sol:TPTPreSale",
								"label": "hasOffer",
								"offset": 0,
								"slot": "2",
								"type": "t_bool"
							},
							{
								"astId": 70,
								"contract": "contracts/TPTPreSale.sol:TPTPreSale",
								"label": "purchaseList",
								"offset": 0,
								"slot": "3",
								"type": "t_array(t_struct(Purchase)60_storage)dyn_storage"
							}
						],
						"numberOfBytes": "128"
					},
					"t_uint256": {
						"encoding": "inplace",
						"label": "uint256",
						"numberOfBytes": "32"
					},
					"t_uint8": {
						"encoding": "inplace",
						"label": "uint8",
						"numberOfBytes": "1"
					}
				}
			},
			"userdoc": {
				"kind": "user",
				"methods": {},
				"version": 1
			}
		}
	}
}