{
	"contracts/TPTPreSale_flattened.sol": {
		"TPTPreSale": {
			"abi": [
				{
					"inputs": [
						{
							"internalType": "address payable",
							"name": "_priceContract",
							"type": "address"
						}
					],
					"stateMutability": "nonpayable",
					"type": "constructor"
				},
				{
					"stateMutability": "payable",
					"type": "fallback"
				},
				{
					"inputs": [
						{
							"internalType": "address payable",
							"name": "_owner",
							"type": "address"
						}
					],
					"name": "chaneOwner",
					"outputs": [],
					"stateMutability": "nonpayable",
					"type": "function"
				},
				{
					"inputs": [],
					"name": "getPriceMode",
					"outputs": [
						{
							"internalType": "string",
							"name": "",
							"type": "string"
						}
					],
					"stateMutability": "view",
					"type": "function"
				},
				{
					"inputs": [
						{
							"internalType": "address",
							"name": "_userAddress",
							"type": "address"
						},
						{
							"internalType": "uint256",
							"name": "index",
							"type": "uint256"
						}
					],
					"name": "getPurchase",
					"outputs": [
						{
							"components": [
								{
									"internalType": "uint256",
									"name": "timestamp",
									"type": "uint256"
								},
								{
									"internalType": "uint256",
									"name": "bnbAmount",
									"type": "uint256"
								},
								{
									"internalType": "uint256",
									"name": "tptAmount",
									"type": "uint256"
								},
								{
									"internalType": "uint8",
									"name": "step",
									"type": "uint8"
								}
							],
							"internalType": "struct TPTPreSale.Purchase",
							"name": "",
							"type": "tuple"
						}
					],
					"stateMutability": "view",
					"type": "function"
				},
				{
					"inputs": [
						{
							"internalType": "address",
							"name": "_userAddress",
							"type": "address"
						}
					],
					"name": "getPurchaseCount",
					"outputs": [
						{
							"internalType": "uint256",
							"name": "",
							"type": "uint256"
						}
					],
					"stateMutability": "view",
					"type": "function"
				},
				{
					"inputs": [],
					"name": "getThisStepPrice",
					"outputs": [
						{
							"internalType": "uint256",
							"name": "",
							"type": "uint256"
						}
					],
					"stateMutability": "view",
					"type": "function"
				},
				{
					"inputs": [
						{
							"internalType": "uint256",
							"name": "id",
							"type": "uint256"
						}
					],
					"name": "getUserById",
					"outputs": [
						{
							"components": [
								{
									"internalType": "address",
									"name": "walletAddress",
									"type": "address"
								},
								{
									"internalType": "uint256",
									"name": "tptBalance",
									"type": "uint256"
								},
								{
									"internalType": "bool",
									"name": "hasOffer",
									"type": "bool"
								},
								{
									"components": [
										{
											"internalType": "uint256",
											"name": "timestamp",
											"type": "uint256"
										},
										{
											"internalType": "uint256",
											"name": "bnbAmount",
											"type": "uint256"
										},
										{
											"internalType": "uint256",
											"name": "tptAmount",
											"type": "uint256"
										},
										{
											"internalType": "uint8",
											"name": "step",
											"type": "uint8"
										}
									],
									"internalType": "struct TPTPreSale.Purchase[]",
									"name": "purchaseList",
									"type": "tuple[]"
								}
							],
							"internalType": "struct TPTPreSale.UserInfo",
							"name": "",
							"type": "tuple"
						}
					],
					"stateMutability": "view",
					"type": "function"
				},
				{
					"inputs": [
						{
							"internalType": "address",
							"name": "user",
							"type": "address"
						}
					],
					"name": "getUserId",
					"outputs": [
						{
							"internalType": "uint256",
							"name": "",
							"type": "uint256"
						}
					],
					"stateMutability": "view",
					"type": "function"
				},
				{
					"inputs": [
						{
							"internalType": "address",
							"name": "_userAddress",
							"type": "address"
						}
					],
					"name": "getUserTPTBalance",
					"outputs": [
						{
							"internalType": "uint256",
							"name": "",
							"type": "uint256"
						}
					],
					"stateMutability": "view",
					"type": "function"
				},
				{
					"inputs": [],
					"name": "owner",
					"outputs": [
						{
							"internalType": "address payable",
							"name": "",
							"type": "address"
						}
					],
					"stateMutability": "view",
					"type": "function"
				},
				{
					"inputs": [
						{
							"internalType": "address payable",
							"name": "_priceContract",
							"type": "address"
						}
					],
					"name": "setBNBPriceAddress",
					"outputs": [],
					"stateMutability": "nonpayable",
					"type": "function"
				},
				{
					"inputs": [
						{
							"internalType": "uint256",
							"name": "_min",
							"type": "uint256"
						}
					],
					"name": "setMinRequire",
					"outputs": [],
					"stateMutability": "nonpayable",
					"type": "function"
				},
				{
					"inputs": [],
					"name": "setPriceMode",
					"outputs": [],
					"stateMutability": "nonpayable",
					"type": "function"
				},
				{
					"inputs": [
						{
							"internalType": "uint8",
							"name": "_step",
							"type": "uint8"
						},
						{
							"internalType": "uint256",
							"name": "_price",
							"type": "uint256"
						}
					],
					"name": "setTPTPrice",
					"outputs": [],
					"stateMutability": "nonpayable",
					"type": "function"
				},
				{
					"inputs": [
						{
							"internalType": "uint8",
							"name": "_step",
							"type": "uint8"
						}
					],
					"name": "setThisStep",
					"outputs": [],
					"stateMutability": "nonpayable",
					"type": "function"
				},
				{
					"inputs": [],
					"name": "thisStep",
					"outputs": [
						{
							"internalType": "uint8",
							"name": "",
							"type": "uint8"
						}
					],
					"stateMutability": "view",
					"type": "function"
				},
				{
					"inputs": [],
					"name": "totalUsers",
					"outputs": [
						{
							"internalType": "uint256",
							"name": "",
							"type": "uint256"
						}
					],
					"stateMutability": "view",
					"type": "function"
				},
				{
					"inputs": [
						{
							"internalType": "uint8",
							"name": "",
							"type": "uint8"
						}
					],
					"name": "tptStepPrice",
					"outputs": [
						{
							"internalType": "uint256",
							"name": "",
							"type": "uint256"
						}
					],
					"stateMutability": "view",
					"type": "function"
				},
				{
					"inputs": [
						{
							"internalType": "address payable",
							"name": "_to",
							"type": "address"
						}
					],
					"name": "withdrawAll",
					"outputs": [],
					"stateMutability": "nonpayable",
					"type": "function"
				},
				{
					"stateMutability": "payable",
					"type": "receive"
				}
			],
			"devdoc": {
				"kind": "dev",
				"methods": {},
				"version": 1
			},
			"evm": {
				"assembly": "    /* \"contracts/TPTPreSale_flattened.sol\":606:6003  contract TPTPreSale {... */\n  mstore(0x40, 0x80)\n    /* \"contracts/TPTPreSale_flattened.sol\":1651:1897  constructor(address payable _priceContract) {... */\n  callvalue\n  dup1\n  iszero\n  tag_1\n  jumpi\n  0x00\n  dup1\n  revert\ntag_1:\n  pop\n  mload(0x40)\n  sub(codesize, bytecodeSize)\n  dup1\n  bytecodeSize\n  dup4\n  codecopy\n  dup2\n  dup2\n  add\n  0x40\n  mstore\n  dup2\n  add\n  swap1\n  tag_2\n  swap2\n  swap1\n  tag_3\n  jump\t// in\ntag_2:\n    /* \"contracts/TPTPreSale_flattened.sol\":1722:1732  msg.sender */\n  caller\n    /* \"contracts/TPTPreSale_flattened.sol\":1705:1710  owner */\n  0x01\n  0x00\n    /* \"contracts/TPTPreSale_flattened.sol\":1705:1733  owner = payable (msg.sender) */\n  0x0100\n  exp\n  dup2\n  sload\n  dup2\n  0xffffffffffffffffffffffffffffffffffffffff\n  mul\n  not\n  and\n  swap1\n  dup4\n  0xffffffffffffffffffffffffffffffffffffffff\n  and\n  mul\n  or\n  swap1\n  sstore\n  pop\n    /* \"contracts/TPTPreSale_flattened.sol\":1754:1755  1 */\n  0x01\n    /* \"contracts/TPTPreSale_flattened.sol\":1743:1751  thisStep */\n  dup1\n  0x15\n    /* \"contracts/TPTPreSale_flattened.sol\":1743:1755  thisStep = 1 */\n  0x0100\n  exp\n  dup2\n  sload\n  dup2\n  0xff\n  mul\n  not\n  and\n  swap1\n  dup4\n  0xff\n  and\n  mul\n  or\n  swap1\n  sstore\n  pop\n    /* \"contracts/TPTPreSale_flattened.sol\":1781:1795  _priceContract */\n  dup1\n    /* \"contracts/TPTPreSale_flattened.sol\":1765:1778  priceContract */\n  0x00\n  dup1\n    /* \"contracts/TPTPreSale_flattened.sol\":1765:1795  priceContract = _priceContract */\n  0x0100\n  exp\n  dup2\n  sload\n  dup2\n  0xffffffffffffffffffffffffffffffffffffffff\n  mul\n  not\n  and\n  swap1\n  dup4\n  0xffffffffffffffffffffffffffffffffffffffff\n  and\n  mul\n  or\n  swap1\n  sstore\n  pop\n    /* \"contracts/TPTPreSale_flattened.sol\":1819:1824  65e12 */\n  0x3b1dfde91000\n    /* \"contracts/TPTPreSale_flattened.sol\":1805:1816  getPriceTax */\n  0x03\n    /* \"contracts/TPTPreSale_flattened.sol\":1805:1824  getPriceTax = 65e12 */\n  dup2\n  swap1\n  sstore\n  pop\n    /* \"contracts/TPTPreSale_flattened.sol\":1847:1851  1e16 */\n  0x2386f26fc10000\n    /* \"contracts/TPTPreSale_flattened.sol\":1834:1844  minRequire */\n  0x04\n    /* \"contracts/TPTPreSale_flattened.sol\":1834:1851  minRequire = 1e16 */\n  dup2\n  swap1\n  sstore\n  pop\n    /* \"contracts/TPTPreSale_flattened.sol\":1889:1890  0 */\n  0x00\n    /* \"contracts/TPTPreSale_flattened.sol\":1876:1886  totalUsers */\n  0x05\n    /* \"contracts/TPTPreSale_flattened.sol\":1876:1890  totalUsers = 0 */\n  dup2\n  swap1\n  sstore\n  pop\n    /* \"contracts/TPTPreSale_flattened.sol\":1651:1897  constructor(address payable _priceContract) {... */\n  pop\n    /* \"contracts/TPTPreSale_flattened.sol\":606:6003  contract TPTPreSale {... */\n  jump(tag_6)\n    /* \"#utility.yul\":88:205   */\ntag_8:\n    /* \"#utility.yul\":197:198   */\n  0x00\n    /* \"#utility.yul\":194:195   */\n  dup1\n    /* \"#utility.yul\":187:199   */\n  revert\n    /* \"#utility.yul\":334:460   */\ntag_10:\n    /* \"#utility.yul\":371:378   */\n  0x00\n    /* \"#utility.yul\":411:453   */\n  0xffffffffffffffffffffffffffffffffffffffff\n    /* \"#utility.yul\":404:409   */\n  dup3\n    /* \"#utility.yul\":400:454   */\n  and\n    /* \"#utility.yul\":389:454   */\n  swap1\n  pop\n    /* \"#utility.yul\":334:460   */\n  swap2\n  swap1\n  pop\n  jump\t// out\n    /* \"#utility.yul\":466:570   */\ntag_11:\n    /* \"#utility.yul\":511:518   */\n  0x00\n    /* \"#utility.yul\":540:564   */\n  tag_20\n    /* \"#utility.yul\":558:563   */\n  dup3\n    /* \"#utility.yul\":540:564   */\n  tag_10\n  jump\t// in\ntag_20:\n    /* \"#utility.yul\":529:564   */\n  swap1\n  pop\n    /* \"#utility.yul\":466:570   */\n  swap2\n  swap1\n  pop\n  jump\t// out\n    /* \"#utility.yul\":576:714   */\ntag_12:\n    /* \"#utility.yul\":657:689   */\n  tag_22\n    /* \"#utility.yul\":683:688   */\n  dup2\n    /* \"#utility.yul\":657:689   */\n  tag_11\n  jump\t// in\ntag_22:\n    /* \"#utility.yul\":650:655   */\n  dup2\n    /* \"#utility.yul\":647:690   */\n  eq\n    /* \"#utility.yul\":637:708   */\n  tag_23\n  jumpi\n    /* \"#utility.yul\":704:705   */\n  0x00\n    /* \"#utility.yul\":701:702   */\n  dup1\n    /* \"#utility.yul\":694:706   */\n  revert\n    /* \"#utility.yul\":637:708   */\ntag_23:\n    /* \"#utility.yul\":576:714   */\n  pop\n  jump\t// out\n    /* \"#utility.yul\":720:879   */\ntag_13:\n    /* \"#utility.yul\":785:790   */\n  0x00\n    /* \"#utility.yul\":816:822   */\n  dup2\n    /* \"#utility.yul\":810:823   */\n  mload\n    /* \"#utility.yul\":801:823   */\n  swap1\n  pop\n    /* \"#utility.yul\":832:873   */\n  tag_25\n    /* \"#utility.yul\":867:872   */\n  dup2\n    /* \"#utility.yul\":832:873   */\n  tag_12\n  jump\t// in\ntag_25:\n    /* \"#utility.yul\":720:879   */\n  swap3\n  swap2\n  pop\n  pop\n  jump\t// out\n    /* \"#utility.yul\":885:1252   */\ntag_3:\n    /* \"#utility.yul\":963:969   */\n  0x00\n    /* \"#utility.yul\":1012:1014   */\n  0x20\n    /* \"#utility.yul\":1000:1009   */\n  dup3\n    /* \"#utility.yul\":991:998   */\n  dup5\n    /* \"#utility.yul\":987:1010   */\n  sub\n    /* \"#utility.yul\":983:1015   */\n  slt\n    /* \"#utility.yul\":980:1099   */\n  iszero\n  tag_27\n  jumpi\n    /* \"#utility.yul\":1018:1097   */\n  tag_28\n  tag_8\n  jump\t// in\ntag_28:\n    /* \"#utility.yul\":980:1099   */\ntag_27:\n    /* \"#utility.yul\":1138:1139   */\n  0x00\n    /* \"#utility.yul\":1163:1235   */\n  tag_29\n    /* \"#utility.yul\":1227:1234   */\n  dup5\n    /* \"#utility.yul\":1218:1224   */\n  dup3\n    /* \"#utility.yul\":1207:1216   */\n  dup6\n    /* \"#utility.yul\":1203:1225   */\n  add\n    /* \"#utility.yul\":1163:1235   */\n  tag_13\n  jump\t// in\ntag_29:\n    /* \"#utility.yul\":1153:1235   */\n  swap2\n  pop\n    /* \"#utility.yul\":1109:1245   */\n  pop\n    /* \"#utility.yul\":885:1252   */\n  swap3\n  swap2\n  pop\n  pop\n  jump\t// out\n    /* \"contracts/TPTPreSale_flattened.sol\":606:6003  contract TPTPreSale {... */\ntag_6:\n  dataSize(sub_0)\n  dup1\n  dataOffset(sub_0)\n  0x00\n  codecopy\n  0x00\n  return\nstop\n\nsub_0: assembly {\n        /* \"contracts/TPTPreSale_flattened.sol\":606:6003  contract TPTPreSale {... */\n      mstore(0x40, 0x80)\n      jumpi(tag_1, lt(calldatasize, 0x04))\n      shr(0xe0, calldataload(0x00))\n      dup1\n      0x8da5cb5b\n      gt\n      tag_21\n      jumpi\n      dup1\n      0xb76bdf06\n      gt\n      tag_22\n      jumpi\n      dup1\n      0xb76bdf06\n      eq\n      tag_16\n      jumpi\n      dup1\n      0xbff1f9e1\n      eq\n      tag_17\n      jumpi\n      dup1\n      0xfa09e630\n      eq\n      tag_18\n      jumpi\n      dup1\n      0xfdbb6696\n      eq\n      tag_19\n      jumpi\n      dup1\n      0xffbe653d\n      eq\n      tag_20\n      jumpi\n      jump(tag_2)\n    tag_22:\n      dup1\n      0x8da5cb5b\n      eq\n      tag_12\n      jumpi\n      dup1\n      0xa2f5546e\n      eq\n      tag_13\n      jumpi\n      dup1\n      0xae243031\n      eq\n      tag_14\n      jumpi\n      dup1\n      0xaf6b5558\n      eq\n      tag_15\n      jumpi\n      jump(tag_2)\n    tag_21:\n      dup1\n      0x54eb7ebe\n      gt\n      tag_23\n      jumpi\n      dup1\n      0x54eb7ebe\n      eq\n      tag_7\n      jumpi\n      dup1\n      0x5f1276a7\n      eq\n      tag_8\n      jumpi\n      dup1\n      0x672cbe1a\n      eq\n      tag_9\n      jumpi\n      dup1\n      0x6ed6da9e\n      eq\n      tag_10\n      jumpi\n      dup1\n      0x7ce8a08e\n      eq\n      tag_11\n      jumpi\n      jump(tag_2)\n    tag_23:\n      dup1\n      0x2a2a92cc\n      eq\n      tag_3\n      jumpi\n      dup1\n      0x2b956ff7\n      eq\n      tag_4\n      jumpi\n      dup1\n      0x31bbf555\n      eq\n      tag_5\n      jumpi\n      dup1\n      0x487cb6b0\n      eq\n      tag_6\n      jumpi\n      jump(tag_2)\n    tag_1:\n      jumpi(tag_2, calldatasize)\n        /* \"contracts/TPTPreSale_flattened.sol\":2407:2417  minRequire */\n      sload(0x04)\n        /* \"contracts/TPTPreSale_flattened.sol\":2394:2403  msg.value */\n      callvalue\n        /* \"contracts/TPTPreSale_flattened.sol\":2394:2417  msg.value >= minRequire */\n      lt\n      iszero\n        /* \"contracts/TPTPreSale_flattened.sol\":2386:2446  require(msg.value >= minRequire, \"Send more BNB to buy TPT\") */\n      tag_26\n      jumpi\n      mload(0x40)\n      0x08c379a000000000000000000000000000000000000000000000000000000000\n      dup2\n      mstore\n      0x04\n      add\n      tag_27\n      swap1\n      tag_28\n      jump\t// in\n    tag_27:\n      mload(0x40)\n      dup1\n      swap2\n      sub\n      swap1\n      revert\n    tag_26:\n        /* \"contracts/TPTPreSale_flattened.sol\":2457:2466  bool sent */\n      0x00\n        /* \"contracts/TPTPreSale_flattened.sol\":2472:2485  priceContract */\n      dup1\n      0x00\n      swap1\n      sload\n      swap1\n      0x0100\n      exp\n      swap1\n      div\n      0xffffffffffffffffffffffffffffffffffffffff\n      and\n        /* \"contracts/TPTPreSale_flattened.sol\":2472:2490  priceContract.call */\n      0xffffffffffffffffffffffffffffffffffffffff\n      and\n        /* \"contracts/TPTPreSale_flattened.sol\":2498:2509  getPriceTax */\n      sload(0x03)\n        /* \"contracts/TPTPreSale_flattened.sol\":2472:2514  priceContract.call{value: getPriceTax}(\"\") */\n      mload(0x40)\n      tag_29\n      swap1\n      tag_30\n      jump\t// in\n    tag_29:\n      0x00\n      mload(0x40)\n      dup1\n      dup4\n      sub\n      dup2\n      dup6\n      dup8\n      gas\n      call\n      swap3\n      pop\n      pop\n      pop\n      returndatasize\n      dup1\n      0x00\n      dup2\n      eq\n      tag_33\n      jumpi\n      mload(0x40)\n      swap2\n      pop\n      and(add(returndatasize, 0x3f), not(0x1f))\n      dup3\n      add\n      0x40\n      mstore\n      returndatasize\n      dup3\n      mstore\n      returndatasize\n      0x00\n      0x20\n      dup5\n      add\n      returndatacopy\n      jump(tag_32)\n    tag_33:\n      0x60\n      swap2\n      pop\n    tag_32:\n      pop\n        /* \"contracts/TPTPreSale_flattened.sol\":2456:2514  (bool sent, ) = priceContract.call{value: getPriceTax}(\"\") */\n      pop\n      swap1\n      pop\n        /* \"contracts/TPTPreSale_flattened.sol\":2532:2536  sent */\n      dup1\n        /* \"contracts/TPTPreSale_flattened.sol\":2524:2556  require(sent, \"Transfer failed\") */\n      tag_34\n      jumpi\n      mload(0x40)\n      0x08c379a000000000000000000000000000000000000000000000000000000000\n      dup2\n      mstore\n      0x04\n      add\n      tag_35\n      swap1\n      tag_36\n      jump\t// in\n    tag_35:\n      mload(0x40)\n      dup1\n      swap2\n      sub\n      swap1\n      revert\n    tag_34:\n        /* \"contracts/TPTPreSale_flattened.sol\":2567:2580  buyTPT(false) */\n      tag_37\n        /* \"contracts/TPTPreSale_flattened.sol\":2574:2579  false */\n      0x00\n        /* \"contracts/TPTPreSale_flattened.sol\":2567:2573  buyTPT */\n      tag_38\n        /* \"contracts/TPTPreSale_flattened.sol\":2567:2580  buyTPT(false) */\n      jump\t// in\n    tag_37:\n        /* \"contracts/TPTPreSale_flattened.sol\":2376:2587  {... */\n      stop\n        /* \"contracts/TPTPreSale_flattened.sol\":606:6003  contract TPTPreSale {... */\n    tag_2:\n        /* \"contracts/TPTPreSale_flattened.sol\":1962:1972  minRequire */\n      sload(0x04)\n        /* \"contracts/TPTPreSale_flattened.sol\":1949:1958  msg.value */\n      callvalue\n        /* \"contracts/TPTPreSale_flattened.sol\":1949:1972  msg.value >= minRequire */\n      lt\n      iszero\n        /* \"contracts/TPTPreSale_flattened.sol\":1941:2001  require(msg.value >= minRequire, \"Send more BNB to buy TPT\") */\n      tag_41\n      jumpi\n      mload(0x40)\n      0x08c379a000000000000000000000000000000000000000000000000000000000\n      dup2\n      mstore\n      0x04\n      add\n      tag_42\n      swap1\n      tag_28\n      jump\t// in\n    tag_42:\n      mload(0x40)\n      dup1\n      swap2\n      sub\n      swap1\n      revert\n    tag_41:\n        /* \"contracts/TPTPreSale_flattened.sol\":2038:2040  32 */\n      0x20\n        /* \"contracts/TPTPreSale_flattened.sol\":2019:2027  msg.data */\n      0x00\n      calldatasize\n        /* \"contracts/TPTPreSale_flattened.sol\":2019:2034  msg.data.length */\n      swap1\n      pop\n        /* \"contracts/TPTPreSale_flattened.sol\":2019:2040  msg.data.length >= 32 */\n      lt\n      iszero\n        /* \"contracts/TPTPreSale_flattened.sol\":2011:2064  require(msg.data.length >= 32, \"Invalid data length\") */\n      tag_43\n      jumpi\n      mload(0x40)\n      0x08c379a000000000000000000000000000000000000000000000000000000000\n      dup2\n      mstore\n      0x04\n      add\n      tag_44\n      swap1\n      tag_45\n      jump\t// in\n    tag_44:\n      mload(0x40)\n      dup1\n      swap2\n      sub\n      swap1\n      revert\n    tag_43:\n        /* \"contracts/TPTPreSale_flattened.sol\":2089:2097  msg.data */\n      0x00\n      calldatasize\n        /* \"contracts/TPTPreSale_flattened.sol\":2078:2106  abi.decode(msg.data, (bool)) */\n      dup2\n      add\n      swap1\n      tag_46\n      swap2\n      swap1\n      tag_47\n      jump\t// in\n    tag_46:\n        /* \"contracts/TPTPreSale_flattened.sol\":2074:2181  if (abi.decode(msg.data, (bool))) {... */\n      iszero\n      tag_48\n      jumpi\n        /* \"contracts/TPTPreSale_flattened.sol\":2143:2147  5e16 */\n      0xb1a2bc2ec50000\n        /* \"contracts/TPTPreSale_flattened.sol\":2130:2139  msg.value */\n      callvalue\n        /* \"contracts/TPTPreSale_flattened.sol\":2130:2147  msg.value == 5e16 */\n      eq\n        /* \"contracts/TPTPreSale_flattened.sol\":2122:2170  require(msg.value == 5e16, \"send just 0.05 bnb\") */\n      tag_49\n      jumpi\n      mload(0x40)\n      0x08c379a000000000000000000000000000000000000000000000000000000000\n      dup2\n      mstore\n      0x04\n      add\n      tag_50\n      swap1\n      tag_51\n      jump\t// in\n    tag_50:\n      mload(0x40)\n      dup1\n      swap2\n      sub\n      swap1\n      revert\n    tag_49:\n        /* \"contracts/TPTPreSale_flattened.sol\":2074:2181  if (abi.decode(msg.data, (bool))) {... */\n    tag_48:\n        /* \"contracts/TPTPreSale_flattened.sol\":2191:2200  bool sent */\n      0x00\n        /* \"contracts/TPTPreSale_flattened.sol\":2206:2219  priceContract */\n      dup1\n      0x00\n      swap1\n      sload\n      swap1\n      0x0100\n      exp\n      swap1\n      div\n      0xffffffffffffffffffffffffffffffffffffffff\n      and\n        /* \"contracts/TPTPreSale_flattened.sol\":2206:2224  priceContract.call */\n      0xffffffffffffffffffffffffffffffffffffffff\n      and\n        /* \"contracts/TPTPreSale_flattened.sol\":2232:2243  getPriceTax */\n      sload(0x03)\n        /* \"contracts/TPTPreSale_flattened.sol\":2206:2248  priceContract.call{value: getPriceTax}(\"\") */\n      mload(0x40)\n      tag_52\n      swap1\n      tag_30\n      jump\t// in\n    tag_52:\n      0x00\n      mload(0x40)\n      dup1\n      dup4\n      sub\n      dup2\n      dup6\n      dup8\n      gas\n      call\n      swap3\n      pop\n      pop\n      pop\n      returndatasize\n      dup1\n      0x00\n      dup2\n      eq\n      tag_55\n      jumpi\n      mload(0x40)\n      swap2\n      pop\n      and(add(returndatasize, 0x3f), not(0x1f))\n      dup3\n      add\n      0x40\n      mstore\n      returndatasize\n      dup3\n      mstore\n      returndatasize\n      0x00\n      0x20\n      dup5\n      add\n      returndatacopy\n      jump(tag_54)\n    tag_55:\n      0x60\n      swap2\n      pop\n    tag_54:\n      pop\n        /* \"contracts/TPTPreSale_flattened.sol\":2190:2248  (bool sent, ) = priceContract.call{value: getPriceTax}(\"\") */\n      pop\n      swap1\n      pop\n        /* \"contracts/TPTPreSale_flattened.sol\":2266:2270  sent */\n      dup1\n        /* \"contracts/TPTPreSale_flattened.sol\":2258:2290  require(sent, \"Transfer failed\") */\n      tag_56\n      jumpi\n      mload(0x40)\n      0x08c379a000000000000000000000000000000000000000000000000000000000\n      dup2\n      mstore\n      0x04\n      add\n      tag_57\n      swap1\n      tag_36\n      jump\t// in\n    tag_57:\n      mload(0x40)\n      dup1\n      swap2\n      sub\n      swap1\n      revert\n    tag_56:\n        /* \"contracts/TPTPreSale_flattened.sol\":2300:2336  buyTPT(abi.decode(msg.data, (bool))) */\n      tag_58\n        /* \"contracts/TPTPreSale_flattened.sol\":2318:2326  msg.data */\n      0x00\n      calldatasize\n        /* \"contracts/TPTPreSale_flattened.sol\":2307:2335  abi.decode(msg.data, (bool)) */\n      dup2\n      add\n      swap1\n      tag_59\n      swap2\n      swap1\n      tag_47\n      jump\t// in\n    tag_59:\n        /* \"contracts/TPTPreSale_flattened.sol\":2300:2306  buyTPT */\n      tag_38\n        /* \"contracts/TPTPreSale_flattened.sol\":2300:2336  buyTPT(abi.decode(msg.data, (bool))) */\n      jump\t// in\n    tag_58:\n        /* \"contracts/TPTPreSale_flattened.sol\":1931:2343  {... */\n      stop\n        /* \"contracts/TPTPreSale_flattened.sol\":4988:5194  function getPurchase(address _userAddress, uint256 index)... */\n    tag_3:\n      callvalue\n      dup1\n      iszero\n      tag_60\n      jumpi\n      0x00\n      dup1\n      revert\n    tag_60:\n      pop\n      tag_61\n      0x04\n      dup1\n      calldatasize\n      sub\n      dup2\n      add\n      swap1\n      tag_62\n      swap2\n      swap1\n      tag_63\n      jump\t// in\n    tag_62:\n      tag_64\n      jump\t// in\n    tag_61:\n      mload(0x40)\n      tag_65\n      swap2\n      swap1\n      tag_66\n      jump\t// in\n    tag_65:\n      mload(0x40)\n      dup1\n      swap2\n      sub\n      swap1\n      return\n        /* \"contracts/TPTPreSale_flattened.sol\":5200:5301  function getUserId(address user) external view returns (uint256) {... */\n    tag_4:\n      callvalue\n      dup1\n      iszero\n      tag_67\n      jumpi\n      0x00\n      dup1\n      revert\n    tag_67:\n      pop\n      tag_68\n      0x04\n      dup1\n      calldatasize\n      sub\n      dup2\n      add\n      swap1\n      tag_69\n      swap2\n      swap1\n      tag_70\n      jump\t// in\n    tag_69:\n      tag_71\n      jump\t// in\n    tag_68:\n      mload(0x40)\n      tag_72\n      swap2\n      swap1\n      tag_73\n      jump\t// in\n    tag_72:\n      mload(0x40)\n      dup1\n      swap2\n      sub\n      swap1\n      return\n        /* \"contracts/TPTPreSale_flattened.sol\":4803:4982  function getPurchaseCount(address _userAddress)... */\n    tag_5:\n      callvalue\n      dup1\n      iszero\n      tag_74\n      jumpi\n      0x00\n      dup1\n      revert\n    tag_74:\n      pop\n      tag_75\n      0x04\n      dup1\n      calldatasize\n      sub\n      dup2\n      add\n      swap1\n      tag_76\n      swap2\n      swap1\n      tag_70\n      jump\t// in\n    tag_76:\n      tag_77\n      jump\t// in\n    tag_75:\n      mload(0x40)\n      tag_78\n      swap2\n      swap1\n      tag_73\n      jump\t// in\n    tag_78:\n      mload(0x40)\n      dup1\n      swap2\n      sub\n      swap1\n      return\n        /* \"contracts/TPTPreSale_flattened.sol\":2593:2687  function setPriceMode() public onlyOwner {... */\n    tag_6:\n      callvalue\n      dup1\n      iszero\n      tag_79\n      jumpi\n      0x00\n      dup1\n      revert\n    tag_79:\n      pop\n      tag_80\n      tag_81\n      jump\t// in\n    tag_80:\n      stop\n        /* \"contracts/TPTPreSale_flattened.sol\":2693:2829  function getPriceMode() public view onlyOwner returns (string memory) {... */\n    tag_7:\n      callvalue\n      dup1\n      iszero\n      tag_82\n      jumpi\n      0x00\n      dup1\n      revert\n    tag_82:\n      pop\n      tag_83\n      tag_84\n      jump\t// in\n    tag_83:\n      mload(0x40)\n      tag_85\n      swap2\n      swap1\n      tag_86\n      jump\t// in\n    tag_85:\n      mload(0x40)\n      dup1\n      swap2\n      sub\n      swap1\n      return\n        /* \"contracts/TPTPreSale_flattened.sol\":5747:5840  function chaneOwner(address payable  _owner) public onlyOwner{... */\n    tag_8:\n      callvalue\n      dup1\n      iszero\n      tag_87\n      jumpi\n      0x00\n      dup1\n      revert\n    tag_87:\n      pop\n      tag_88\n      0x04\n      dup1\n      calldatasize\n      sub\n      dup2\n      add\n      swap1\n      tag_89\n      swap2\n      swap1\n      tag_90\n      jump\t// in\n    tag_89:\n      tag_91\n      jump\t// in\n    tag_88:\n      stop\n        /* \"contracts/TPTPreSale_flattened.sol\":4519:4623  function getThisStepPrice() public view returns (uint256) {... */\n    tag_9:\n      callvalue\n      dup1\n      iszero\n      tag_92\n      jumpi\n      0x00\n      dup1\n      revert\n    tag_92:\n      pop\n      tag_93\n      tag_94\n      jump\t// in\n    tag_93:\n      mload(0x40)\n      tag_95\n      swap2\n      swap1\n      tag_73\n      jump\t// in\n    tag_95:\n      mload(0x40)\n      dup1\n      swap2\n      sub\n      swap1\n      return\n        /* \"contracts/TPTPreSale_flattened.sol\":5307:5413  function getUserById(uint256 id) external view returns (UserInfo memory) {... */\n    tag_10:\n      callvalue\n      dup1\n      iszero\n      tag_96\n      jumpi\n      0x00\n      dup1\n      revert\n    tag_96:\n      pop\n      tag_97\n      0x04\n      dup1\n      calldatasize\n      sub\n      dup2\n      add\n      swap1\n      tag_98\n      swap2\n      swap1\n      tag_99\n      jump\t// in\n    tag_98:\n      tag_100\n      jump\t// in\n    tag_97:\n      mload(0x40)\n      tag_101\n      swap2\n      swap1\n      tag_102\n      jump\t// in\n    tag_101:\n      mload(0x40)\n      dup1\n      swap2\n      sub\n      swap1\n      return\n        /* \"contracts/TPTPreSale_flattened.sol\":4311:4395  function setThisStep(uint8 _step) public onlyOwner {... */\n    tag_11:\n      callvalue\n      dup1\n      iszero\n      tag_103\n      jumpi\n      0x00\n      dup1\n      revert\n    tag_103:\n      pop\n      tag_104\n      0x04\n      dup1\n      calldatasize\n      sub\n      dup2\n      add\n      swap1\n      tag_105\n      swap2\n      swap1\n      tag_106\n      jump\t// in\n    tag_105:\n      tag_107\n      jump\t// in\n    tag_104:\n      stop\n        /* \"contracts/TPTPreSale_flattened.sol\":676:704  address payable public owner */\n    tag_12:\n      callvalue\n      dup1\n      iszero\n      tag_108\n      jumpi\n      0x00\n      dup1\n      revert\n    tag_108:\n      pop\n      tag_109\n      tag_110\n      jump\t// in\n    tag_109:\n      mload(0x40)\n      tag_111\n      swap2\n      swap1\n      tag_112\n      jump\t// in\n    tag_111:\n      mload(0x40)\n      dup1\n      swap2\n      sub\n      swap1\n      return\n        /* \"contracts/TPTPreSale_flattened.sol\":4401:4513  function setTPTPrice(uint8 _step, uint256 _price) public onlyOwner {... */\n    tag_13:\n      callvalue\n      dup1\n      iszero\n      tag_113\n      jumpi\n      0x00\n      dup1\n      revert\n    tag_113:\n      pop\n      tag_114\n      0x04\n      dup1\n      calldatasize\n      sub\n      dup2\n      add\n      swap1\n      tag_115\n      swap2\n      swap1\n      tag_116\n      jump\t// in\n    tag_115:\n      tag_117\n      jump\t// in\n    tag_114:\n      stop\n        /* \"contracts/TPTPreSale_flattened.sol\":736:757  uint8 public thisStep */\n    tag_14:\n      callvalue\n      dup1\n      iszero\n      tag_118\n      jumpi\n      0x00\n      dup1\n      revert\n    tag_118:\n      pop\n      tag_119\n      tag_120\n      jump\t// in\n    tag_119:\n      mload(0x40)\n      tag_121\n      swap2\n      swap1\n      tag_122\n      jump\t// in\n    tag_121:\n      mload(0x40)\n      dup1\n      swap2\n      sub\n      swap1\n      return\n        /* \"contracts/TPTPreSale_flattened.sol\":5597:5741  function setBNBPriceAddress(address payable _priceContract)... */\n    tag_15:\n      callvalue\n      dup1\n      iszero\n      tag_123\n      jumpi\n      0x00\n      dup1\n      revert\n    tag_123:\n      pop\n      tag_124\n      0x04\n      dup1\n      calldatasize\n      sub\n      dup2\n      add\n      swap1\n      tag_125\n      swap2\n      swap1\n      tag_90\n      jump\t// in\n    tag_125:\n      tag_126\n      jump\t// in\n    tag_124:\n      stop\n        /* \"contracts/TPTPreSale_flattened.sol\":5847:6001  function setMinRequire(uint _min) public onlyOwner{... */\n    tag_16:\n      callvalue\n      dup1\n      iszero\n      tag_127\n      jumpi\n      0x00\n      dup1\n      revert\n    tag_127:\n      pop\n      tag_128\n      0x04\n      dup1\n      calldatasize\n      sub\n      dup2\n      add\n      swap1\n      tag_129\n      swap2\n      swap1\n      tag_99\n      jump\t// in\n    tag_129:\n      tag_130\n      jump\t// in\n    tag_128:\n      stop\n        /* \"contracts/TPTPreSale_flattened.sol\":901:926  uint256 public totalUsers */\n    tag_17:\n      callvalue\n      dup1\n      iszero\n      tag_131\n      jumpi\n      0x00\n      dup1\n      revert\n    tag_131:\n      pop\n      tag_132\n      tag_133\n      jump\t// in\n    tag_132:\n      mload(0x40)\n      tag_134\n      swap2\n      swap1\n      tag_73\n      jump\t// in\n    tag_134:\n      mload(0x40)\n      dup1\n      swap2\n      sub\n      swap1\n      return\n        /* \"contracts/TPTPreSale_flattened.sol\":4629:4797  function withdrawAll(address payable _to) external onlyOwner {... */\n    tag_18:\n      callvalue\n      dup1\n      iszero\n      tag_135\n      jumpi\n      0x00\n      dup1\n      revert\n    tag_135:\n      pop\n      tag_136\n      0x04\n      dup1\n      calldatasize\n      sub\n      dup2\n      add\n      swap1\n      tag_137\n      swap2\n      swap1\n      tag_90\n      jump\t// in\n    tag_137:\n      tag_138\n      jump\t// in\n    tag_136:\n      stop\n        /* \"contracts/TPTPreSale_flattened.sol\":5419:5590  function getUserTPTBalance(address _userAddress)... */\n    tag_19:\n      callvalue\n      dup1\n      iszero\n      tag_139\n      jumpi\n      0x00\n      dup1\n      revert\n    tag_139:\n      pop\n      tag_140\n      0x04\n      dup1\n      calldatasize\n      sub\n      dup2\n      add\n      swap1\n      tag_141\n      swap2\n      swap1\n      tag_70\n      jump\t// in\n    tag_141:\n      tag_142\n      jump\t// in\n    tag_140:\n      mload(0x40)\n      tag_143\n      swap2\n      swap1\n      tag_73\n      jump\t// in\n    tag_143:\n      mload(0x40)\n      dup1\n      swap2\n      sub\n      swap1\n      return\n        /* \"contracts/TPTPreSale_flattened.sol\":763:808  mapping(uint8 => uint256) public tptStepPrice */\n    tag_20:\n      callvalue\n      dup1\n      iszero\n      tag_144\n      jumpi\n      0x00\n      dup1\n      revert\n    tag_144:\n      pop\n      tag_145\n      0x04\n      dup1\n      calldatasize\n      sub\n      dup2\n      add\n      swap1\n      tag_146\n      swap2\n      swap1\n      tag_106\n      jump\t// in\n    tag_146:\n      tag_147\n      jump\t// in\n    tag_145:\n      mload(0x40)\n      tag_148\n      swap2\n      swap1\n      tag_73\n      jump\t// in\n    tag_148:\n      mload(0x40)\n      dup1\n      swap2\n      sub\n      swap1\n      return\n        /* \"contracts/TPTPreSale_flattened.sol\":3183:4305  function buyTPT(bool _useOffer) internal pauseable reentrancy {... */\n    tag_38:\n        /* \"contracts/TPTPreSale_flattened.sol\":1454:1455  0 */\n      0x00\n        /* \"contracts/TPTPreSale_flattened.sol\":1442:1450  thisStep */\n      0x01\n      0x15\n      swap1\n      sload\n      swap1\n      0x0100\n      exp\n      swap1\n      div\n      0xff\n      and\n        /* \"contracts/TPTPreSale_flattened.sol\":1442:1455  thisStep != 0 */\n      0xff\n      and\n      sub\n        /* \"contracts/TPTPreSale_flattened.sol\":1434:1475  require(thisStep != 0, \"Contract Paused\") */\n      tag_150\n      jumpi\n      mload(0x40)\n      0x08c379a000000000000000000000000000000000000000000000000000000000\n      dup2\n      mstore\n      0x04\n      add\n      tag_151\n      swap1\n      tag_152\n      jump\t// in\n    tag_151:\n      mload(0x40)\n      dup1\n      swap2\n      sub\n      swap1\n      revert\n    tag_150:\n        /* \"contracts/TPTPreSale_flattened.sol\":1549:1553  true */\n      0x01\n        /* \"contracts/TPTPreSale_flattened.sol\":1539:1553  locked != true */\n      iszero\n      iszero\n        /* \"contracts/TPTPreSale_flattened.sol\":1539:1545  locked */\n      0x01\n      0x14\n      swap1\n      sload\n      swap1\n      0x0100\n      exp\n      swap1\n      div\n      0xff\n      and\n        /* \"contracts/TPTPreSale_flattened.sol\":1539:1553  locked != true */\n      iszero\n      iszero\n      sub\n        /* \"contracts/TPTPreSale_flattened.sol\":1531:1580  require(locked != true, \"No Reentrancy,pls wait\") */\n      tag_154\n      jumpi\n      mload(0x40)\n      0x08c379a000000000000000000000000000000000000000000000000000000000\n      dup2\n      mstore\n      0x04\n      add\n      tag_155\n      swap1\n      tag_156\n      jump\t// in\n    tag_155:\n      mload(0x40)\n      dup1\n      swap2\n      sub\n      swap1\n      revert\n    tag_154:\n        /* \"contracts/TPTPreSale_flattened.sol\":1599:1603  true */\n      0x01\n        /* \"contracts/TPTPreSale_flattened.sol\":1590:1596  locked */\n      dup1\n      0x14\n        /* \"contracts/TPTPreSale_flattened.sol\":1590:1603  locked = true */\n      0x0100\n      exp\n      dup2\n      sload\n      dup2\n      0xff\n      mul\n      not\n      and\n      swap1\n      dup4\n      iszero\n      iszero\n      mul\n      or\n      swap1\n      sstore\n      pop\n        /* \"contracts/TPTPreSale_flattened.sol\":3281:3282  0 */\n      0x00\n        /* \"contracts/TPTPreSale_flattened.sol\":3259:3265  userId */\n      0x06\n        /* \"contracts/TPTPreSale_flattened.sol\":3259:3277  userId[msg.sender] */\n      0x00\n        /* \"contracts/TPTPreSale_flattened.sol\":3266:3276  msg.sender */\n      caller\n        /* \"contracts/TPTPreSale_flattened.sol\":3259:3277  userId[msg.sender] */\n      0xffffffffffffffffffffffffffffffffffffffff\n      and\n      0xffffffffffffffffffffffffffffffffffffffff\n      and\n      dup2\n      mstore\n      0x20\n      add\n      swap1\n      dup2\n      mstore\n      0x20\n      add\n      0x00\n      keccak256\n      sload\n        /* \"contracts/TPTPreSale_flattened.sol\":3259:3282  userId[msg.sender] == 0 */\n      sub\n        /* \"contracts/TPTPreSale_flattened.sol\":3255:3634  if (userId[msg.sender] == 0) {... */\n      tag_158\n      jumpi\n        /* \"contracts/TPTPreSale_flattened.sol\":3298:3308  totalUsers */\n      0x05\n      0x00\n        /* \"contracts/TPTPreSale_flattened.sol\":3298:3310  totalUsers++ */\n      dup2\n      sload\n      dup1\n      swap3\n      swap2\n      swap1\n      tag_159\n      swap1\n      tag_160\n      jump\t// in\n    tag_159:\n      swap2\n      swap1\n      pop\n      sstore\n      pop\n        /* \"contracts/TPTPreSale_flattened.sol\":3345:3355  totalUsers */\n      sload(0x05)\n        /* \"contracts/TPTPreSale_flattened.sol\":3324:3330  userId */\n      0x06\n        /* \"contracts/TPTPreSale_flattened.sol\":3324:3342  userId[msg.sender] */\n      0x00\n        /* \"contracts/TPTPreSale_flattened.sol\":3331:3341  msg.sender */\n      caller\n        /* \"contracts/TPTPreSale_flattened.sol\":3324:3342  userId[msg.sender] */\n      0xffffffffffffffffffffffffffffffffffffffff\n      and\n      0xffffffffffffffffffffffffffffffffffffffff\n      and\n      dup2\n      mstore\n      0x20\n      add\n      swap1\n      dup2\n      mstore\n      0x20\n      add\n      0x00\n      keccak256\n        /* \"contracts/TPTPreSale_flattened.sol\":3324:3355  userId[msg.sender] = totalUsers */\n      dup2\n      swap1\n      sstore\n      pop\n        /* \"contracts/TPTPreSale_flattened.sol\":3370:3395  UserInfo storage userInfo */\n      0x00\n        /* \"contracts/TPTPreSale_flattened.sol\":3398:3403  users */\n      0x07\n        /* \"contracts/TPTPreSale_flattened.sol\":3398:3423  users[userId[msg.sender]] */\n      0x00\n        /* \"contracts/TPTPreSale_flattened.sol\":3404:3410  userId */\n      0x06\n        /* \"contracts/TPTPreSale_flattened.sol\":3404:3422  userId[msg.sender] */\n      0x00\n        /* \"contracts/TPTPreSale_flattened.sol\":3411:3421  msg.sender */\n      caller\n        /* \"contracts/TPTPreSale_flattened.sol\":3404:3422  userId[msg.sender] */\n      0xffffffffffffffffffffffffffffffffffffffff\n      and\n      0xffffffffffffffffffffffffffffffffffffffff\n      and\n      dup2\n      mstore\n      0x20\n      add\n      swap1\n      dup2\n      mstore\n      0x20\n      add\n      0x00\n      keccak256\n      sload\n        /* \"contracts/TPTPreSale_flattened.sol\":3398:3423  users[userId[msg.sender]] */\n      dup2\n      mstore\n      0x20\n      add\n      swap1\n      dup2\n      mstore\n      0x20\n      add\n      0x00\n      keccak256\n        /* \"contracts/TPTPreSale_flattened.sol\":3370:3423  UserInfo storage userInfo = users[userId[msg.sender]] */\n      swap1\n      pop\n        /* \"contracts/TPTPreSale_flattened.sol\":3462:3472  msg.sender */\n      caller\n        /* \"contracts/TPTPreSale_flattened.sol\":3437:3445  userInfo */\n      dup2\n        /* \"contracts/TPTPreSale_flattened.sol\":3437:3459  userInfo.walletAddress */\n      0x00\n      add\n      0x00\n        /* \"contracts/TPTPreSale_flattened.sol\":3437:3472  userInfo.walletAddress = msg.sender */\n      0x0100\n      exp\n      dup2\n      sload\n      dup2\n      0xffffffffffffffffffffffffffffffffffffffff\n      mul\n      not\n      and\n      swap1\n      dup4\n      0xffffffffffffffffffffffffffffffffffffffff\n      and\n      mul\n      or\n      swap1\n      sstore\n      pop\n        /* \"contracts/TPTPreSale_flattened.sol\":3508:3509  0 */\n      0x00\n        /* \"contracts/TPTPreSale_flattened.sol\":3486:3494  userInfo */\n      dup2\n        /* \"contracts/TPTPreSale_flattened.sol\":3486:3505  userInfo.tptBalance */\n      0x01\n      add\n        /* \"contracts/TPTPreSale_flattened.sol\":3486:3509  userInfo.tptBalance = 0 */\n      dup2\n      swap1\n      sstore\n      pop\n        /* \"contracts/TPTPreSale_flattened.sol\":3543:3547  true */\n      0x01\n        /* \"contracts/TPTPreSale_flattened.sol\":3523:3531  userInfo */\n      dup2\n        /* \"contracts/TPTPreSale_flattened.sol\":3523:3540  userInfo.hasOffer */\n      0x02\n      add\n      0x00\n        /* \"contracts/TPTPreSale_flattened.sol\":3523:3547  userInfo.hasOffer = true */\n      0x0100\n      exp\n      dup2\n      sload\n      dup2\n      0xff\n      mul\n      not\n      and\n      swap1\n      dup4\n      iszero\n      iszero\n      mul\n      or\n      swap1\n      sstore\n      pop\n        /* \"contracts/TPTPreSale_flattened.sol\":3615:3623  userInfo */\n      dup1\n        /* \"contracts/TPTPreSale_flattened.sol\":3587:3592  users */\n      0x07\n        /* \"contracts/TPTPreSale_flattened.sol\":3587:3612  users[userId[msg.sender]] */\n      0x00\n        /* \"contracts/TPTPreSale_flattened.sol\":3593:3599  userId */\n      0x06\n        /* \"contracts/TPTPreSale_flattened.sol\":3593:3611  userId[msg.sender] */\n      0x00\n        /* \"contracts/TPTPreSale_flattened.sol\":3600:3610  msg.sender */\n      caller\n        /* \"contracts/TPTPreSale_flattened.sol\":3593:3611  userId[msg.sender] */\n      0xffffffffffffffffffffffffffffffffffffffff\n      and\n      0xffffffffffffffffffffffffffffffffffffffff\n      and\n      dup2\n      mstore\n      0x20\n      add\n      swap1\n      dup2\n      mstore\n      0x20\n      add\n      0x00\n      keccak256\n      sload\n        /* \"contracts/TPTPreSale_flattened.sol\":3587:3612  users[userId[msg.sender]] */\n      dup2\n      mstore\n      0x20\n      add\n      swap1\n      dup2\n      mstore\n      0x20\n      add\n      0x00\n      keccak256\n        /* \"contracts/TPTPreSale_flattened.sol\":3587:3623  users[userId[msg.sender]] = userInfo */\n      0x00\n      dup3\n      add\n      0x00\n      swap1\n      sload\n      swap1\n      0x0100\n      exp\n      swap1\n      div\n      0xffffffffffffffffffffffffffffffffffffffff\n      and\n      dup2\n      0x00\n      add\n      exp(0x0100, 0x00)\n      dup2\n      sload\n      dup2\n      0xffffffffffffffffffffffffffffffffffffffff\n      mul\n      not\n      and\n      swap1\n      dup4\n      0xffffffffffffffffffffffffffffffffffffffff\n      and\n      mul\n      or\n      swap1\n      sstore\n      pop\n      0x01\n      dup3\n      add\n      sload\n      dup2\n      0x01\n      add\n      sstore\n      0x02\n      dup3\n      add\n      0x00\n      swap1\n      sload\n      swap1\n      0x0100\n      exp\n      swap1\n      div\n      0xff\n      and\n      dup2\n      0x02\n      add\n      exp(0x0100, 0x00)\n      dup2\n      sload\n      dup2\n      0xff\n      mul\n      not\n      and\n      swap1\n      dup4\n      iszero\n      iszero\n      mul\n      or\n      swap1\n      sstore\n      pop\n      0x03\n      dup3\n      add\n      dup2\n      0x03\n      add\n      swap1\n      dup1\n      sload\n      tag_161\n      swap3\n      swap2\n      swap1\n      tag_162\n      jump\t// in\n    tag_161:\n      pop\n      swap1\n      pop\n      pop\n        /* \"contracts/TPTPreSale_flattened.sol\":3284:3634  {... */\n      pop\n        /* \"contracts/TPTPreSale_flattened.sol\":3255:3634  if (userId[msg.sender] == 0) {... */\n    tag_158:\n        /* \"contracts/TPTPreSale_flattened.sol\":3643:3662  uint256 usdBnbPrice */\n      0x00\n        /* \"contracts/TPTPreSale_flattened.sol\":3675:3688  priceContract */\n      dup1\n      0x00\n      swap1\n      sload\n      swap1\n      0x0100\n      exp\n      swap1\n      div\n      0xffffffffffffffffffffffffffffffffffffffff\n      and\n        /* \"contracts/TPTPreSale_flattened.sol\":3665:3701  IBNBPrice(priceContract).viewAverage */\n      0xffffffffffffffffffffffffffffffffffffffff\n      and\n      0xe03d1632\n        /* \"contracts/TPTPreSale_flattened.sol\":3665:3703  IBNBPrice(priceContract).viewAverage() */\n      mload(0x40)\n      dup2\n      0xffffffff\n      and\n      0xe0\n      shl\n      dup2\n      mstore\n      0x04\n      add\n      0x20\n      mload(0x40)\n      dup1\n      dup4\n      sub\n      dup2\n      dup7\n      gas\n      staticcall\n      iszero\n      dup1\n      iszero\n      tag_164\n      jumpi\n      returndatasize\n      0x00\n      dup1\n      returndatacopy\n      revert(0x00, returndatasize)\n    tag_164:\n      pop\n      pop\n      pop\n      pop\n      mload(0x40)\n      returndatasize\n      not(0x1f)\n      0x1f\n      dup3\n      add\n      and\n      dup3\n      add\n      dup1\n      0x40\n      mstore\n      pop\n      dup2\n      add\n      swap1\n      tag_165\n      swap2\n      swap1\n      tag_166\n      jump\t// in\n    tag_165:\n        /* \"contracts/TPTPreSale_flattened.sol\":3643:3703  uint256 usdBnbPrice = IBNBPrice(priceContract).viewAverage() */\n      swap1\n      pop\n        /* \"contracts/TPTPreSale_flattened.sol\":3713:3727  uint256 amount */\n      0x00\n        /* \"contracts/TPTPreSale_flattened.sol\":3741:3750  _useOffer */\n      dup3\n        /* \"contracts/TPTPreSale_flattened.sol\":3737:4112  if (_useOffer) {... */\n      iszero\n      tag_167\n      jumpi\n        /* \"contracts/TPTPreSale_flattened.sol\":3774:3779  users */\n      0x07\n        /* \"contracts/TPTPreSale_flattened.sol\":3774:3799  users[userId[msg.sender]] */\n      0x00\n        /* \"contracts/TPTPreSale_flattened.sol\":3780:3786  userId */\n      0x06\n        /* \"contracts/TPTPreSale_flattened.sol\":3780:3798  userId[msg.sender] */\n      0x00\n        /* \"contracts/TPTPreSale_flattened.sol\":3787:3797  msg.sender */\n      caller\n        /* \"contracts/TPTPreSale_flattened.sol\":3780:3798  userId[msg.sender] */\n      0xffffffffffffffffffffffffffffffffffffffff\n      and\n      0xffffffffffffffffffffffffffffffffffffffff\n      and\n      dup2\n      mstore\n      0x20\n      add\n      swap1\n      dup2\n      mstore\n      0x20\n      add\n      0x00\n      keccak256\n      sload\n        /* \"contracts/TPTPreSale_flattened.sol\":3774:3799  users[userId[msg.sender]] */\n      dup2\n      mstore\n      0x20\n      add\n      swap1\n      dup2\n      mstore\n      0x20\n      add\n      0x00\n      keccak256\n        /* \"contracts/TPTPreSale_flattened.sol\":3774:3808  users[userId[msg.sender]].hasOffer */\n      0x02\n      add\n      0x00\n      swap1\n      sload\n      swap1\n      0x0100\n      exp\n      swap1\n      div\n      0xff\n      and\n        /* \"contracts/TPTPreSale_flattened.sol\":3766:3826  require(users[userId[msg.sender]].hasOffer, \"no offer more\") */\n      tag_168\n      jumpi\n      mload(0x40)\n      0x08c379a000000000000000000000000000000000000000000000000000000000\n      dup2\n      mstore\n      0x04\n      add\n      tag_169\n      swap1\n      tag_170\n      jump\t// in\n    tag_169:\n      mload(0x40)\n      dup1\n      swap2\n      sub\n      swap1\n      revert\n    tag_168:\n        /* \"contracts/TPTPreSale_flattened.sol\":3945:3946  2 */\n      0x02\n        /* \"contracts/TPTPreSale_flattened.sol\":3903:3915  tptStepPrice */\n      dup1\n        /* \"contracts/TPTPreSale_flattened.sol\":3903:3925  tptStepPrice[thisStep] */\n      0x00\n        /* \"contracts/TPTPreSale_flattened.sol\":3916:3924  thisStep */\n      0x01\n      0x15\n      swap1\n      sload\n      swap1\n      0x0100\n      exp\n      swap1\n      div\n      0xff\n      and\n        /* \"contracts/TPTPreSale_flattened.sol\":3903:3925  tptStepPrice[thisStep] */\n      0xff\n      and\n      0xff\n      and\n      dup2\n      mstore\n      0x20\n      add\n      swap1\n      dup2\n      mstore\n      0x20\n      add\n      0x00\n      keccak256\n      sload\n        /* \"contracts/TPTPreSale_flattened.sol\":3888:3899  usdBnbPrice */\n      dup4\n        /* \"contracts/TPTPreSale_flattened.sol\":3880:3884  1e18 */\n      0x0de0b6b3a7640000\n        /* \"contracts/TPTPreSale_flattened.sol\":3868:3877  msg.value */\n      callvalue\n        /* \"contracts/TPTPreSale_flattened.sol\":3868:3884  msg.value * 1e18 */\n      tag_171\n      swap2\n      swap1\n      tag_172\n      jump\t// in\n    tag_171:\n        /* \"contracts/TPTPreSale_flattened.sol\":3867:3899  (msg.value * 1e18) / usdBnbPrice */\n      tag_173\n      swap2\n      swap1\n      tag_174\n      jump\t// in\n    tag_173:\n        /* \"contracts/TPTPreSale_flattened.sol\":3866:3925  ((msg.value * 1e18) / usdBnbPrice) / tptStepPrice[thisStep] */\n      tag_175\n      swap2\n      swap1\n      tag_174\n      jump\t// in\n    tag_175:\n        /* \"contracts/TPTPreSale_flattened.sol\":3865:3946  (((msg.value * 1e18) / usdBnbPrice) / tptStepPrice[thisStep]) *... */\n      tag_176\n      swap2\n      swap1\n      tag_172\n      jump\t// in\n    tag_176:\n        /* \"contracts/TPTPreSale_flattened.sol\":3840:3946  amount =... */\n      swap1\n      pop\n        /* \"contracts/TPTPreSale_flattened.sol\":3997:4002  false */\n      0x00\n        /* \"contracts/TPTPreSale_flattened.sol\":3960:3965  users */\n      0x07\n        /* \"contracts/TPTPreSale_flattened.sol\":3960:3985  users[userId[msg.sender]] */\n      0x00\n        /* \"contracts/TPTPreSale_flattened.sol\":3966:3972  userId */\n      0x06\n        /* \"contracts/TPTPreSale_flattened.sol\":3966:3984  userId[msg.sender] */\n      0x00\n        /* \"contracts/TPTPreSale_flattened.sol\":3973:3983  msg.sender */\n      caller\n        /* \"contracts/TPTPreSale_flattened.sol\":3966:3984  userId[msg.sender] */\n      0xffffffffffffffffffffffffffffffffffffffff\n      and\n      0xffffffffffffffffffffffffffffffffffffffff\n      and\n      dup2\n      mstore\n      0x20\n      add\n      swap1\n      dup2\n      mstore\n      0x20\n      add\n      0x00\n      keccak256\n      sload\n        /* \"contracts/TPTPreSale_flattened.sol\":3960:3985  users[userId[msg.sender]] */\n      dup2\n      mstore\n      0x20\n      add\n      swap1\n      dup2\n      mstore\n      0x20\n      add\n      0x00\n      keccak256\n        /* \"contracts/TPTPreSale_flattened.sol\":3960:3994  users[userId[msg.sender]].hasOffer */\n      0x02\n      add\n      0x00\n        /* \"contracts/TPTPreSale_flattened.sol\":3960:4002  users[userId[msg.sender]].hasOffer = false */\n      0x0100\n      exp\n      dup2\n      sload\n      dup2\n      0xff\n      mul\n      not\n      and\n      swap1\n      dup4\n      iszero\n      iszero\n      mul\n      or\n      swap1\n      sstore\n      pop\n        /* \"contracts/TPTPreSale_flattened.sol\":3737:4112  if (_useOffer) {... */\n      jump(tag_177)\n    tag_167:\n        /* \"contracts/TPTPreSale_flattened.sol\":4079:4091  tptStepPrice */\n      0x02\n        /* \"contracts/TPTPreSale_flattened.sol\":4079:4101  tptStepPrice[thisStep] */\n      0x00\n        /* \"contracts/TPTPreSale_flattened.sol\":4092:4100  thisStep */\n      0x01\n      0x15\n      swap1\n      sload\n      swap1\n      0x0100\n      exp\n      swap1\n      div\n      0xff\n      and\n        /* \"contracts/TPTPreSale_flattened.sol\":4079:4101  tptStepPrice[thisStep] */\n      0xff\n      and\n      0xff\n      and\n      dup2\n      mstore\n      0x20\n      add\n      swap1\n      dup2\n      mstore\n      0x20\n      add\n      0x00\n      keccak256\n      sload\n        /* \"contracts/TPTPreSale_flattened.sol\":4064:4075  usdBnbPrice */\n      dup3\n        /* \"contracts/TPTPreSale_flattened.sol\":4056:4060  1e18 */\n      0x0de0b6b3a7640000\n        /* \"contracts/TPTPreSale_flattened.sol\":4044:4053  msg.value */\n      callvalue\n        /* \"contracts/TPTPreSale_flattened.sol\":4044:4060  msg.value * 1e18 */\n      tag_178\n      swap2\n      swap1\n      tag_172\n      jump\t// in\n    tag_178:\n        /* \"contracts/TPTPreSale_flattened.sol\":4043:4075  (msg.value * 1e18) / usdBnbPrice */\n      tag_179\n      swap2\n      swap1\n      tag_174\n      jump\t// in\n    tag_179:\n        /* \"contracts/TPTPreSale_flattened.sol\":4042:4101  ((msg.value * 1e18) / usdBnbPrice) / tptStepPrice[thisStep] */\n      tag_180\n      swap2\n      swap1\n      tag_174\n      jump\t// in\n    tag_180:\n        /* \"contracts/TPTPreSale_flattened.sol\":4033:4101  amount = ((msg.value * 1e18) / usdBnbPrice) / tptStepPrice[thisStep] */\n      swap1\n      pop\n        /* \"contracts/TPTPreSale_flattened.sol\":3737:4112  if (_useOffer) {... */\n    tag_177:\n        /* \"contracts/TPTPreSale_flattened.sol\":4161:4167  amount */\n      dup1\n        /* \"contracts/TPTPreSale_flattened.sol\":4121:4126  users */\n      0x07\n        /* \"contracts/TPTPreSale_flattened.sol\":4121:4146  users[userId[msg.sender]] */\n      0x00\n        /* \"contracts/TPTPreSale_flattened.sol\":4127:4133  userId */\n      0x06\n        /* \"contracts/TPTPreSale_flattened.sol\":4127:4145  userId[msg.sender] */\n      0x00\n        /* \"contracts/TPTPreSale_flattened.sol\":4134:4144  msg.sender */\n      caller\n        /* \"contracts/TPTPreSale_flattened.sol\":4127:4145  userId[msg.sender] */\n      0xffffffffffffffffffffffffffffffffffffffff\n      and\n      0xffffffffffffffffffffffffffffffffffffffff\n      and\n      dup2\n      mstore\n      0x20\n      add\n      swap1\n      dup2\n      mstore\n      0x20\n      add\n      0x00\n      keccak256\n      sload\n        /* \"contracts/TPTPreSale_flattened.sol\":4121:4146  users[userId[msg.sender]] */\n      dup2\n      mstore\n      0x20\n      add\n      swap1\n      dup2\n      mstore\n      0x20\n      add\n      0x00\n      keccak256\n        /* \"contracts/TPTPreSale_flattened.sol\":4121:4157  users[userId[msg.sender]].tptBalance */\n      0x01\n      add\n      0x00\n        /* \"contracts/TPTPreSale_flattened.sol\":4121:4167  users[userId[msg.sender]].tptBalance += amount */\n      dup3\n      dup3\n      sload\n      tag_181\n      swap2\n      swap1\n      tag_182\n      jump\t// in\n    tag_181:\n      swap3\n      pop\n      pop\n      dup2\n      swap1\n      sstore\n      pop\n        /* \"contracts/TPTPreSale_flattened.sol\":4177:4182  users */\n      0x07\n        /* \"contracts/TPTPreSale_flattened.sol\":4177:4202  users[userId[msg.sender]] */\n      0x00\n        /* \"contracts/TPTPreSale_flattened.sol\":4183:4189  userId */\n      0x06\n        /* \"contracts/TPTPreSale_flattened.sol\":4183:4201  userId[msg.sender] */\n      0x00\n        /* \"contracts/TPTPreSale_flattened.sol\":4190:4200  msg.sender */\n      caller\n        /* \"contracts/TPTPreSale_flattened.sol\":4183:4201  userId[msg.sender] */\n      0xffffffffffffffffffffffffffffffffffffffff\n      and\n      0xffffffffffffffffffffffffffffffffffffffff\n      and\n      dup2\n      mstore\n      0x20\n      add\n      swap1\n      dup2\n      mstore\n      0x20\n      add\n      0x00\n      keccak256\n      sload\n        /* \"contracts/TPTPreSale_flattened.sol\":4177:4202  users[userId[msg.sender]] */\n      dup2\n      mstore\n      0x20\n      add\n      swap1\n      dup2\n      mstore\n      0x20\n      add\n      0x00\n      keccak256\n        /* \"contracts/TPTPreSale_flattened.sol\":4177:4215  users[userId[msg.sender]].purchaseList */\n      0x03\n      add\n        /* \"contracts/TPTPreSale_flattened.sol\":4234:4288  Purchase(block.timestamp, msg.value, amount, thisStep) */\n      mload(0x40)\n      dup1\n      0x80\n      add\n      0x40\n      mstore\n      dup1\n        /* \"contracts/TPTPreSale_flattened.sol\":4243:4258  block.timestamp */\n      timestamp\n        /* \"contracts/TPTPreSale_flattened.sol\":4234:4288  Purchase(block.timestamp, msg.value, amount, thisStep) */\n      dup2\n      mstore\n      0x20\n      add\n        /* \"contracts/TPTPreSale_flattened.sol\":4260:4269  msg.value */\n      callvalue\n        /* \"contracts/TPTPreSale_flattened.sol\":4234:4288  Purchase(block.timestamp, msg.value, amount, thisStep) */\n      dup2\n      mstore\n      0x20\n      add\n        /* \"contracts/TPTPreSale_flattened.sol\":4271:4277  amount */\n      dup4\n        /* \"contracts/TPTPreSale_flattened.sol\":4234:4288  Purchase(block.timestamp, msg.value, amount, thisStep) */\n      dup2\n      mstore\n      0x20\n      add\n        /* \"contracts/TPTPreSale_flattened.sol\":4279:4287  thisStep */\n      0x01\n      0x15\n      swap1\n      sload\n      swap1\n      0x0100\n      exp\n      swap1\n      div\n      0xff\n      and\n        /* \"contracts/TPTPreSale_flattened.sol\":4234:4288  Purchase(block.timestamp, msg.value, amount, thisStep) */\n      0xff\n      and\n      dup2\n      mstore\n      pop\n        /* \"contracts/TPTPreSale_flattened.sol\":4177:4298  users[userId[msg.sender]].purchaseList.push(... */\n      swap1\n      dup1\n      0x01\n      dup2\n      sload\n      add\n      dup1\n      dup3\n      sstore\n      dup1\n      swap2\n      pop\n      pop\n      0x01\n      swap1\n      sub\n      swap1\n      0x00\n      mstore\n      keccak256(0x00, 0x20)\n      swap1\n      0x04\n      mul\n      add\n      0x00\n      swap1\n      swap2\n      swap1\n      swap2\n      swap1\n      swap2\n      pop\n      0x00\n      dup3\n      add\n      mload\n      dup2\n      0x00\n      add\n      sstore\n      0x20\n      dup3\n      add\n      mload\n      dup2\n      0x01\n      add\n      sstore\n      0x40\n      dup3\n      add\n      mload\n      dup2\n      0x02\n      add\n      sstore\n      0x60\n      dup3\n      add\n      mload\n      dup2\n      0x03\n      add\n      exp(0x0100, 0x00)\n      dup2\n      sload\n      dup2\n      0xff\n      mul\n      not\n      and\n      swap1\n      dup4\n      0xff\n      and\n      mul\n      or\n      swap1\n      sstore\n      pop\n      pop\n      pop\n        /* \"contracts/TPTPreSale_flattened.sol\":3245:4305  {... */\n      pop\n      pop\n        /* \"contracts/TPTPreSale_flattened.sol\":1633:1638  false */\n      0x00\n        /* \"contracts/TPTPreSale_flattened.sol\":1624:1630  locked */\n      0x01\n      0x14\n        /* \"contracts/TPTPreSale_flattened.sol\":1624:1638  locked = false */\n      0x0100\n      exp\n      dup2\n      sload\n      dup2\n      0xff\n      mul\n      not\n      and\n      swap1\n      dup4\n      iszero\n      iszero\n      mul\n      or\n      swap1\n      sstore\n      pop\n        /* \"contracts/TPTPreSale_flattened.sol\":3183:4305  function buyTPT(bool _useOffer) internal pauseable reentrancy {... */\n      pop\n      jump\t// out\n        /* \"contracts/TPTPreSale_flattened.sol\":4988:5194  function getPurchase(address _userAddress, uint256 index)... */\n    tag_64:\n        /* \"contracts/TPTPreSale_flattened.sol\":5093:5108  Purchase memory */\n      tag_184\n      tag_185\n      jump\t// in\n    tag_184:\n        /* \"contracts/TPTPreSale_flattened.sol\":5140:5145  users */\n      0x07\n        /* \"contracts/TPTPreSale_flattened.sol\":5140:5167  users[userId[_userAddress]] */\n      0x00\n        /* \"contracts/TPTPreSale_flattened.sol\":5146:5152  userId */\n      0x06\n        /* \"contracts/TPTPreSale_flattened.sol\":5146:5166  userId[_userAddress] */\n      0x00\n        /* \"contracts/TPTPreSale_flattened.sol\":5153:5165  _userAddress */\n      dup7\n        /* \"contracts/TPTPreSale_flattened.sol\":5146:5166  userId[_userAddress] */\n      0xffffffffffffffffffffffffffffffffffffffff\n      and\n      0xffffffffffffffffffffffffffffffffffffffff\n      and\n      dup2\n      mstore\n      0x20\n      add\n      swap1\n      dup2\n      mstore\n      0x20\n      add\n      0x00\n      keccak256\n      sload\n        /* \"contracts/TPTPreSale_flattened.sol\":5140:5167  users[userId[_userAddress]] */\n      dup2\n      mstore\n      0x20\n      add\n      swap1\n      dup2\n      mstore\n      0x20\n      add\n      0x00\n      keccak256\n        /* \"contracts/TPTPreSale_flattened.sol\":5140:5180  users[userId[_userAddress]].purchaseList */\n      0x03\n      add\n        /* \"contracts/TPTPreSale_flattened.sol\":5181:5186  index */\n      dup3\n        /* \"contracts/TPTPreSale_flattened.sol\":5140:5187  users[userId[_userAddress]].purchaseList[index] */\n      dup2\n      sload\n      dup2\n      lt\n      tag_187\n      jumpi\n      tag_188\n      tag_189\n      jump\t// in\n    tag_188:\n    tag_187:\n      swap1\n      0x00\n      mstore\n      keccak256(0x00, 0x20)\n      swap1\n      0x04\n      mul\n      add\n        /* \"contracts/TPTPreSale_flattened.sol\":5133:5187  return users[userId[_userAddress]].purchaseList[index] */\n      mload(0x40)\n      dup1\n      0x80\n      add\n      0x40\n      mstore\n      swap1\n      dup2\n      0x00\n      dup3\n      add\n      sload\n      dup2\n      mstore\n      0x20\n      add\n      0x01\n      dup3\n      add\n      sload\n      dup2\n      mstore\n      0x20\n      add\n      0x02\n      dup3\n      add\n      sload\n      dup2\n      mstore\n      0x20\n      add\n      0x03\n      dup3\n      add\n      0x00\n      swap1\n      sload\n      swap1\n      0x0100\n      exp\n      swap1\n      div\n      0xff\n      and\n      0xff\n      and\n      0xff\n      and\n      dup2\n      mstore\n      pop\n      pop\n      swap1\n      pop\n        /* \"contracts/TPTPreSale_flattened.sol\":4988:5194  function getPurchase(address _userAddress, uint256 index)... */\n      swap3\n      swap2\n      pop\n      pop\n      jump\t// out\n        /* \"contracts/TPTPreSale_flattened.sol\":5200:5301  function getUserId(address user) external view returns (uint256) {... */\n    tag_71:\n        /* \"contracts/TPTPreSale_flattened.sol\":5256:5263  uint256 */\n      0x00\n        /* \"contracts/TPTPreSale_flattened.sol\":5282:5288  userId */\n      0x06\n        /* \"contracts/TPTPreSale_flattened.sol\":5282:5294  userId[user] */\n      0x00\n        /* \"contracts/TPTPreSale_flattened.sol\":5289:5293  user */\n      dup4\n        /* \"contracts/TPTPreSale_flattened.sol\":5282:5294  userId[user] */\n      0xffffffffffffffffffffffffffffffffffffffff\n      and\n      0xffffffffffffffffffffffffffffffffffffffff\n      and\n      dup2\n      mstore\n      0x20\n      add\n      swap1\n      dup2\n      mstore\n      0x20\n      add\n      0x00\n      keccak256\n      sload\n        /* \"contracts/TPTPreSale_flattened.sol\":5275:5294  return userId[user] */\n      swap1\n      pop\n        /* \"contracts/TPTPreSale_flattened.sol\":5200:5301  function getUserId(address user) external view returns (uint256) {... */\n      swap2\n      swap1\n      pop\n      jump\t// out\n        /* \"contracts/TPTPreSale_flattened.sol\":4803:4982  function getPurchaseCount(address _userAddress)... */\n    tag_77:\n        /* \"contracts/TPTPreSale_flattened.sol\":4898:4905  uint256 */\n      0x00\n        /* \"contracts/TPTPreSale_flattened.sol\":4928:4933  users */\n      0x07\n        /* \"contracts/TPTPreSale_flattened.sol\":4928:4955  users[userId[_userAddress]] */\n      0x00\n        /* \"contracts/TPTPreSale_flattened.sol\":4934:4940  userId */\n      0x06\n        /* \"contracts/TPTPreSale_flattened.sol\":4934:4954  userId[_userAddress] */\n      0x00\n        /* \"contracts/TPTPreSale_flattened.sol\":4941:4953  _userAddress */\n      dup6\n        /* \"contracts/TPTPreSale_flattened.sol\":4934:4954  userId[_userAddress] */\n      0xffffffffffffffffffffffffffffffffffffffff\n      and\n      0xffffffffffffffffffffffffffffffffffffffff\n      and\n      dup2\n      mstore\n      0x20\n      add\n      swap1\n      dup2\n      mstore\n      0x20\n      add\n      0x00\n      keccak256\n      sload\n        /* \"contracts/TPTPreSale_flattened.sol\":4928:4955  users[userId[_userAddress]] */\n      dup2\n      mstore\n      0x20\n      add\n      swap1\n      dup2\n      mstore\n      0x20\n      add\n      0x00\n      keccak256\n        /* \"contracts/TPTPreSale_flattened.sol\":4928:4968  users[userId[_userAddress]].purchaseList */\n      0x03\n      add\n        /* \"contracts/TPTPreSale_flattened.sol\":4928:4975  users[userId[_userAddress]].purchaseList.length */\n      dup1\n      sload\n      swap1\n      pop\n        /* \"contracts/TPTPreSale_flattened.sol\":4921:4975  return users[userId[_userAddress]].purchaseList.length */\n      swap1\n      pop\n        /* \"contracts/TPTPreSale_flattened.sol\":4803:4982  function getPurchaseCount(address _userAddress)... */\n      swap2\n      swap1\n      pop\n      jump\t// out\n        /* \"contracts/TPTPreSale_flattened.sol\":2593:2687  function setPriceMode() public onlyOwner {... */\n    tag_81:\n        /* \"contracts/TPTPreSale_flattened.sol\":1359:1364  owner */\n      0x01\n      0x00\n      swap1\n      sload\n      swap1\n      0x0100\n      exp\n      swap1\n      div\n      0xffffffffffffffffffffffffffffffffffffffff\n      and\n        /* \"contracts/TPTPreSale_flattened.sol\":1345:1364  msg.sender == owner */\n      0xffffffffffffffffffffffffffffffffffffffff\n      and\n        /* \"contracts/TPTPreSale_flattened.sol\":1345:1355  msg.sender */\n      caller\n        /* \"contracts/TPTPreSale_flattened.sol\":1345:1364  msg.sender == owner */\n      0xffffffffffffffffffffffffffffffffffffffff\n      and\n      eq\n        /* \"contracts/TPTPreSale_flattened.sol\":1337:1379  require(msg.sender == owner, \"Only owner\") */\n      tag_194\n      jumpi\n      mload(0x40)\n      0x08c379a000000000000000000000000000000000000000000000000000000000\n      dup2\n      mstore\n      0x04\n      add\n      tag_195\n      swap1\n      tag_196\n      jump\t// in\n    tag_195:\n      mload(0x40)\n      dup1\n      swap2\n      sub\n      swap1\n      revert\n    tag_194:\n        /* \"contracts/TPTPreSale_flattened.sol\":2654:2667  priceContract */\n      0x00\n      dup1\n      sload\n      swap1\n      0x0100\n      exp\n      swap1\n      div\n      0xffffffffffffffffffffffffffffffffffffffff\n      and\n        /* \"contracts/TPTPreSale_flattened.sol\":2644:2678  IBNBPrice(priceContract).setEqMode */\n      0xffffffffffffffffffffffffffffffffffffffff\n      and\n      0x65a6cc2e\n        /* \"contracts/TPTPreSale_flattened.sol\":2644:2680  IBNBPrice(priceContract).setEqMode() */\n      mload(0x40)\n      dup2\n      0xffffffff\n      and\n      0xe0\n      shl\n      dup2\n      mstore\n      0x04\n      add\n      0x00\n      mload(0x40)\n      dup1\n      dup4\n      sub\n      dup2\n      0x00\n      dup8\n      dup1\n      extcodesize\n      iszero\n      dup1\n      iszero\n      tag_198\n      jumpi\n      0x00\n      dup1\n      revert\n    tag_198:\n      pop\n      gas\n      call\n      iszero\n      dup1\n      iszero\n      tag_200\n      jumpi\n      returndatasize\n      0x00\n      dup1\n      returndatacopy\n      revert(0x00, returndatasize)\n    tag_200:\n      pop\n      pop\n      pop\n      pop\n        /* \"contracts/TPTPreSale_flattened.sol\":2593:2687  function setPriceMode() public onlyOwner {... */\n      jump\t// out\n        /* \"contracts/TPTPreSale_flattened.sol\":2693:2829  function getPriceMode() public view onlyOwner returns (string memory) {... */\n    tag_84:\n        /* \"contracts/TPTPreSale_flattened.sol\":2748:2761  string memory */\n      0x60\n        /* \"contracts/TPTPreSale_flattened.sol\":1359:1364  owner */\n      0x01\n      0x00\n      swap1\n      sload\n      swap1\n      0x0100\n      exp\n      swap1\n      div\n      0xffffffffffffffffffffffffffffffffffffffff\n      and\n        /* \"contracts/TPTPreSale_flattened.sol\":1345:1364  msg.sender == owner */\n      0xffffffffffffffffffffffffffffffffffffffff\n      and\n        /* \"contracts/TPTPreSale_flattened.sol\":1345:1355  msg.sender */\n      caller\n        /* \"contracts/TPTPreSale_flattened.sol\":1345:1364  msg.sender == owner */\n      0xffffffffffffffffffffffffffffffffffffffff\n      and\n      eq\n        /* \"contracts/TPTPreSale_flattened.sol\":1337:1379  require(msg.sender == owner, \"Only owner\") */\n      tag_202\n      jumpi\n      mload(0x40)\n      0x08c379a000000000000000000000000000000000000000000000000000000000\n      dup2\n      mstore\n      0x04\n      add\n      tag_203\n      swap1\n      tag_196\n      jump\t// in\n    tag_203:\n      mload(0x40)\n      dup1\n      swap2\n      sub\n      swap1\n      revert\n    tag_202:\n        /* \"contracts/TPTPreSale_flattened.sol\":2790:2803  priceContract */\n      0x00\n      dup1\n      sload\n      swap1\n      0x0100\n      exp\n      swap1\n      div\n      0xffffffffffffffffffffffffffffffffffffffff\n      and\n        /* \"contracts/TPTPreSale_flattened.sol\":2780:2820  IBNBPrice(priceContract).getEqModeString */\n      0xffffffffffffffffffffffffffffffffffffffff\n      and\n      0xa1c6a405\n        /* \"contracts/TPTPreSale_flattened.sol\":2780:2822  IBNBPrice(priceContract).getEqModeString() */\n      mload(0x40)\n      dup2\n      0xffffffff\n      and\n      0xe0\n      shl\n      dup2\n      mstore\n      0x04\n      add\n      0x00\n      mload(0x40)\n      dup1\n      dup4\n      sub\n      dup2\n      dup7\n      gas\n      staticcall\n      iszero\n      dup1\n      iszero\n      tag_206\n      jumpi\n      returndatasize\n      0x00\n      dup1\n      returndatacopy\n      revert(0x00, returndatasize)\n    tag_206:\n      pop\n      pop\n      pop\n      pop\n      mload(0x40)\n      returndatasize\n      0x00\n      dup3\n      returndatacopy\n      returndatasize\n      not(0x1f)\n      0x1f\n      dup3\n      add\n      and\n      dup3\n      add\n      dup1\n      0x40\n      mstore\n      pop\n      dup2\n      add\n      swap1\n      tag_207\n      swap2\n      swap1\n      tag_208\n      jump\t// in\n    tag_207:\n        /* \"contracts/TPTPreSale_flattened.sol\":2773:2822  return IBNBPrice(priceContract).getEqModeString() */\n      swap1\n      pop\n        /* \"contracts/TPTPreSale_flattened.sol\":2693:2829  function getPriceMode() public view onlyOwner returns (string memory) {... */\n      swap1\n      jump\t// out\n        /* \"contracts/TPTPreSale_flattened.sol\":5747:5840  function chaneOwner(address payable  _owner) public onlyOwner{... */\n    tag_91:\n        /* \"contracts/TPTPreSale_flattened.sol\":1359:1364  owner */\n      0x01\n      0x00\n      swap1\n      sload\n      swap1\n      0x0100\n      exp\n      swap1\n      div\n      0xffffffffffffffffffffffffffffffffffffffff\n      and\n        /* \"contracts/TPTPreSale_flattened.sol\":1345:1364  msg.sender == owner */\n      0xffffffffffffffffffffffffffffffffffffffff\n      and\n        /* \"contracts/TPTPreSale_flattened.sol\":1345:1355  msg.sender */\n      caller\n        /* \"contracts/TPTPreSale_flattened.sol\":1345:1364  msg.sender == owner */\n      0xffffffffffffffffffffffffffffffffffffffff\n      and\n      eq\n        /* \"contracts/TPTPreSale_flattened.sol\":1337:1379  require(msg.sender == owner, \"Only owner\") */\n      tag_210\n      jumpi\n      mload(0x40)\n      0x08c379a000000000000000000000000000000000000000000000000000000000\n      dup2\n      mstore\n      0x04\n      add\n      tag_211\n      swap1\n      tag_196\n      jump\t// in\n    tag_211:\n      mload(0x40)\n      dup1\n      swap2\n      sub\n      swap1\n      revert\n    tag_210:\n        /* \"contracts/TPTPreSale_flattened.sol\":5826:5832  _owner */\n      dup1\n        /* \"contracts/TPTPreSale_flattened.sol\":5818:5823  owner */\n      0x01\n      0x00\n        /* \"contracts/TPTPreSale_flattened.sol\":5818:5832  owner = _owner */\n      0x0100\n      exp\n      dup2\n      sload\n      dup2\n      0xffffffffffffffffffffffffffffffffffffffff\n      mul\n      not\n      and\n      swap1\n      dup4\n      0xffffffffffffffffffffffffffffffffffffffff\n      and\n      mul\n      or\n      swap1\n      sstore\n      pop\n        /* \"contracts/TPTPreSale_flattened.sol\":5747:5840  function chaneOwner(address payable  _owner) public onlyOwner{... */\n      pop\n      jump\t// out\n        /* \"contracts/TPTPreSale_flattened.sol\":4519:4623  function getThisStepPrice() public view returns (uint256) {... */\n    tag_94:\n        /* \"contracts/TPTPreSale_flattened.sol\":4568:4575  uint256 */\n      0x00\n        /* \"contracts/TPTPreSale_flattened.sol\":4594:4606  tptStepPrice */\n      0x02\n        /* \"contracts/TPTPreSale_flattened.sol\":4594:4616  tptStepPrice[thisStep] */\n      0x00\n        /* \"contracts/TPTPreSale_flattened.sol\":4607:4615  thisStep */\n      0x01\n      0x15\n      swap1\n      sload\n      swap1\n      0x0100\n      exp\n      swap1\n      div\n      0xff\n      and\n        /* \"contracts/TPTPreSale_flattened.sol\":4594:4616  tptStepPrice[thisStep] */\n      0xff\n      and\n      0xff\n      and\n      dup2\n      mstore\n      0x20\n      add\n      swap1\n      dup2\n      mstore\n      0x20\n      add\n      0x00\n      keccak256\n      sload\n        /* \"contracts/TPTPreSale_flattened.sol\":4587:4616  return tptStepPrice[thisStep] */\n      swap1\n      pop\n        /* \"contracts/TPTPreSale_flattened.sol\":4519:4623  function getThisStepPrice() public view returns (uint256) {... */\n      swap1\n      jump\t// out\n        /* \"contracts/TPTPreSale_flattened.sol\":5307:5413  function getUserById(uint256 id) external view returns (UserInfo memory) {... */\n    tag_100:\n        /* \"contracts/TPTPreSale_flattened.sol\":5363:5378  UserInfo memory */\n      tag_214\n      tag_215\n      jump\t// in\n    tag_214:\n        /* \"contracts/TPTPreSale_flattened.sol\":5397:5402  users */\n      0x07\n        /* \"contracts/TPTPreSale_flattened.sol\":5397:5406  users[id] */\n      0x00\n        /* \"contracts/TPTPreSale_flattened.sol\":5403:5405  id */\n      dup4\n        /* \"contracts/TPTPreSale_flattened.sol\":5397:5406  users[id] */\n      dup2\n      mstore\n      0x20\n      add\n      swap1\n      dup2\n      mstore\n      0x20\n      add\n      0x00\n      keccak256\n        /* \"contracts/TPTPreSale_flattened.sol\":5390:5406  return users[id] */\n      mload(0x40)\n      dup1\n      0x80\n      add\n      0x40\n      mstore\n      swap1\n      dup2\n      0x00\n      dup3\n      add\n      0x00\n      swap1\n      sload\n      swap1\n      0x0100\n      exp\n      swap1\n      div\n      0xffffffffffffffffffffffffffffffffffffffff\n      and\n      0xffffffffffffffffffffffffffffffffffffffff\n      and\n      0xffffffffffffffffffffffffffffffffffffffff\n      and\n      dup2\n      mstore\n      0x20\n      add\n      0x01\n      dup3\n      add\n      sload\n      dup2\n      mstore\n      0x20\n      add\n      0x02\n      dup3\n      add\n      0x00\n      swap1\n      sload\n      swap1\n      0x0100\n      exp\n      swap1\n      div\n      0xff\n      and\n      iszero\n      iszero\n      iszero\n      iszero\n      dup2\n      mstore\n      0x20\n      add\n      0x03\n      dup3\n      add\n      dup1\n      sload\n      dup1\n      0x20\n      mul\n      0x20\n      add\n      mload(0x40)\n      swap1\n      dup2\n      add\n      0x40\n      mstore\n      dup1\n      swap3\n      swap2\n      swap1\n      dup2\n      dup2\n      mstore\n      0x20\n      add\n      0x00\n      swap1\n    tag_217:\n      dup3\n      dup3\n      lt\n      iszero\n      tag_218\n      jumpi\n      dup4\n      dup3\n      swap1\n      0x00\n      mstore\n      keccak256(0x00, 0x20)\n      swap1\n      0x04\n      mul\n      add\n      mload(0x40)\n      dup1\n      0x80\n      add\n      0x40\n      mstore\n      swap1\n      dup2\n      0x00\n      dup3\n      add\n      sload\n      dup2\n      mstore\n      0x20\n      add\n      0x01\n      dup3\n      add\n      sload\n      dup2\n      mstore\n      0x20\n      add\n      0x02\n      dup3\n      add\n      sload\n      dup2\n      mstore\n      0x20\n      add\n      0x03\n      dup3\n      add\n      0x00\n      swap1\n      sload\n      swap1\n      0x0100\n      exp\n      swap1\n      div\n      0xff\n      and\n      0xff\n      and\n      0xff\n      and\n      dup2\n      mstore\n      pop\n      pop\n      dup2\n      mstore\n      0x20\n      add\n      swap1\n      0x01\n      add\n      swap1\n      jump(tag_217)\n    tag_218:\n      pop\n      pop\n      pop\n      pop\n      dup2\n      mstore\n      pop\n      pop\n      swap1\n      pop\n        /* \"contracts/TPTPreSale_flattened.sol\":5307:5413  function getUserById(uint256 id) external view returns (UserInfo memory) {... */\n      swap2\n      swap1\n      pop\n      jump\t// out\n        /* \"contracts/TPTPreSale_flattened.sol\":4311:4395  function setThisStep(uint8 _step) public onlyOwner {... */\n    tag_107:\n        /* \"contracts/TPTPreSale_flattened.sol\":1359:1364  owner */\n      0x01\n      0x00\n      swap1\n      sload\n      swap1\n      0x0100\n      exp\n      swap1\n      div\n      0xffffffffffffffffffffffffffffffffffffffff\n      and\n        /* \"contracts/TPTPreSale_flattened.sol\":1345:1364  msg.sender == owner */\n      0xffffffffffffffffffffffffffffffffffffffff\n      and\n        /* \"contracts/TPTPreSale_flattened.sol\":1345:1355  msg.sender */\n      caller\n        /* \"contracts/TPTPreSale_flattened.sol\":1345:1364  msg.sender == owner */\n      0xffffffffffffffffffffffffffffffffffffffff\n      and\n      eq\n        /* \"contracts/TPTPreSale_flattened.sol\":1337:1379  require(msg.sender == owner, \"Only owner\") */\n      tag_221\n      jumpi\n      mload(0x40)\n      0x08c379a000000000000000000000000000000000000000000000000000000000\n      dup2\n      mstore\n      0x04\n      add\n      tag_222\n      swap1\n      tag_196\n      jump\t// in\n    tag_222:\n      mload(0x40)\n      dup1\n      swap2\n      sub\n      swap1\n      revert\n    tag_221:\n        /* \"contracts/TPTPreSale_flattened.sol\":4383:4388  _step */\n      dup1\n        /* \"contracts/TPTPreSale_flattened.sol\":4372:4380  thisStep */\n      0x01\n      0x15\n        /* \"contracts/TPTPreSale_flattened.sol\":4372:4388  thisStep = _step */\n      0x0100\n      exp\n      dup2\n      sload\n      dup2\n      0xff\n      mul\n      not\n      and\n      swap1\n      dup4\n      0xff\n      and\n      mul\n      or\n      swap1\n      sstore\n      pop\n        /* \"contracts/TPTPreSale_flattened.sol\":4311:4395  function setThisStep(uint8 _step) public onlyOwner {... */\n      pop\n      jump\t// out\n        /* \"contracts/TPTPreSale_flattened.sol\":676:704  address payable public owner */\n    tag_110:\n      0x01\n      0x00\n      swap1\n      sload\n      swap1\n      0x0100\n      exp\n      swap1\n      div\n      0xffffffffffffffffffffffffffffffffffffffff\n      and\n      dup2\n      jump\t// out\n        /* \"contracts/TPTPreSale_flattened.sol\":4401:4513  function setTPTPrice(uint8 _step, uint256 _price) public onlyOwner {... */\n    tag_117:\n        /* \"contracts/TPTPreSale_flattened.sol\":1359:1364  owner */\n      0x01\n      0x00\n      swap1\n      sload\n      swap1\n      0x0100\n      exp\n      swap1\n      div\n      0xffffffffffffffffffffffffffffffffffffffff\n      and\n        /* \"contracts/TPTPreSale_flattened.sol\":1345:1364  msg.sender == owner */\n      0xffffffffffffffffffffffffffffffffffffffff\n      and\n        /* \"contracts/TPTPreSale_flattened.sol\":1345:1355  msg.sender */\n      caller\n        /* \"contracts/TPTPreSale_flattened.sol\":1345:1364  msg.sender == owner */\n      0xffffffffffffffffffffffffffffffffffffffff\n      and\n      eq\n        /* \"contracts/TPTPreSale_flattened.sol\":1337:1379  require(msg.sender == owner, \"Only owner\") */\n      tag_225\n      jumpi\n      mload(0x40)\n      0x08c379a000000000000000000000000000000000000000000000000000000000\n      dup2\n      mstore\n      0x04\n      add\n      tag_226\n      swap1\n      tag_196\n      jump\t// in\n    tag_226:\n      mload(0x40)\n      dup1\n      swap2\n      sub\n      swap1\n      revert\n    tag_225:\n        /* \"contracts/TPTPreSale_flattened.sol\":4500:4506  _price */\n      dup1\n        /* \"contracts/TPTPreSale_flattened.sol\":4478:4490  tptStepPrice */\n      0x02\n        /* \"contracts/TPTPreSale_flattened.sol\":4478:4497  tptStepPrice[_step] */\n      0x00\n        /* \"contracts/TPTPreSale_flattened.sol\":4491:4496  _step */\n      dup5\n        /* \"contracts/TPTPreSale_flattened.sol\":4478:4497  tptStepPrice[_step] */\n      0xff\n      and\n      0xff\n      and\n      dup2\n      mstore\n      0x20\n      add\n      swap1\n      dup2\n      mstore\n      0x20\n      add\n      0x00\n      keccak256\n        /* \"contracts/TPTPreSale_flattened.sol\":4478:4506  tptStepPrice[_step] = _price */\n      dup2\n      swap1\n      sstore\n      pop\n        /* \"contracts/TPTPreSale_flattened.sol\":4401:4513  function setTPTPrice(uint8 _step, uint256 _price) public onlyOwner {... */\n      pop\n      pop\n      jump\t// out\n        /* \"contracts/TPTPreSale_flattened.sol\":736:757  uint8 public thisStep */\n    tag_120:\n      0x01\n      0x15\n      swap1\n      sload\n      swap1\n      0x0100\n      exp\n      swap1\n      div\n      0xff\n      and\n      dup2\n      jump\t// out\n        /* \"contracts/TPTPreSale_flattened.sol\":5597:5741  function setBNBPriceAddress(address payable _priceContract)... */\n    tag_126:\n        /* \"contracts/TPTPreSale_flattened.sol\":1359:1364  owner */\n      0x01\n      0x00\n      swap1\n      sload\n      swap1\n      0x0100\n      exp\n      swap1\n      div\n      0xffffffffffffffffffffffffffffffffffffffff\n      and\n        /* \"contracts/TPTPreSale_flattened.sol\":1345:1364  msg.sender == owner */\n      0xffffffffffffffffffffffffffffffffffffffff\n      and\n        /* \"contracts/TPTPreSale_flattened.sol\":1345:1355  msg.sender */\n      caller\n        /* \"contracts/TPTPreSale_flattened.sol\":1345:1364  msg.sender == owner */\n      0xffffffffffffffffffffffffffffffffffffffff\n      and\n      eq\n        /* \"contracts/TPTPreSale_flattened.sol\":1337:1379  require(msg.sender == owner, \"Only owner\") */\n      tag_229\n      jumpi\n      mload(0x40)\n      0x08c379a000000000000000000000000000000000000000000000000000000000\n      dup2\n      mstore\n      0x04\n      add\n      tag_230\n      swap1\n      tag_196\n      jump\t// in\n    tag_230:\n      mload(0x40)\n      dup1\n      swap2\n      sub\n      swap1\n      revert\n    tag_229:\n        /* \"contracts/TPTPreSale_flattened.sol\":5720:5734  _priceContract */\n      dup1\n        /* \"contracts/TPTPreSale_flattened.sol\":5704:5717  priceContract */\n      0x00\n      dup1\n        /* \"contracts/TPTPreSale_flattened.sol\":5704:5734  priceContract = _priceContract */\n      0x0100\n      exp\n      dup2\n      sload\n      dup2\n      0xffffffffffffffffffffffffffffffffffffffff\n      mul\n      not\n      and\n      swap1\n      dup4\n      0xffffffffffffffffffffffffffffffffffffffff\n      and\n      mul\n      or\n      swap1\n      sstore\n      pop\n        /* \"contracts/TPTPreSale_flattened.sol\":5597:5741  function setBNBPriceAddress(address payable _priceContract)... */\n      pop\n      jump\t// out\n        /* \"contracts/TPTPreSale_flattened.sol\":5847:6001  function setMinRequire(uint _min) public onlyOwner{... */\n    tag_130:\n        /* \"contracts/TPTPreSale_flattened.sol\":1359:1364  owner */\n      0x01\n      0x00\n      swap1\n      sload\n      swap1\n      0x0100\n      exp\n      swap1\n      div\n      0xffffffffffffffffffffffffffffffffffffffff\n      and\n        /* \"contracts/TPTPreSale_flattened.sol\":1345:1364  msg.sender == owner */\n      0xffffffffffffffffffffffffffffffffffffffff\n      and\n        /* \"contracts/TPTPreSale_flattened.sol\":1345:1355  msg.sender */\n      caller\n        /* \"contracts/TPTPreSale_flattened.sol\":1345:1364  msg.sender == owner */\n      0xffffffffffffffffffffffffffffffffffffffff\n      and\n      eq\n        /* \"contracts/TPTPreSale_flattened.sol\":1337:1379  require(msg.sender == owner, \"Only owner\") */\n      tag_233\n      jumpi\n      mload(0x40)\n      0x08c379a000000000000000000000000000000000000000000000000000000000\n      dup2\n      mstore\n      0x04\n      add\n      tag_234\n      swap1\n      tag_196\n      jump\t// in\n    tag_234:\n      mload(0x40)\n      dup1\n      swap2\n      sub\n      swap1\n      revert\n    tag_233:\n        /* \"contracts/TPTPreSale_flattened.sol\":5923:5934  getPriceTax */\n      sload(0x03)\n        /* \"contracts/TPTPreSale_flattened.sol\":5915:5919  _min */\n      dup2\n        /* \"contracts/TPTPreSale_flattened.sol\":5915:5934  _min >= getPriceTax */\n      lt\n      iszero\n        /* \"contracts/TPTPreSale_flattened.sol\":5907:5967  require(_min >= getPriceTax , \"min should be more than tax\") */\n      tag_236\n      jumpi\n      mload(0x40)\n      0x08c379a000000000000000000000000000000000000000000000000000000000\n      dup2\n      mstore\n      0x04\n      add\n      tag_237\n      swap1\n      tag_238\n      jump\t// in\n    tag_237:\n      mload(0x40)\n      dup1\n      swap2\n      sub\n      swap1\n      revert\n    tag_236:\n        /* \"contracts/TPTPreSale_flattened.sol\":5990:5994  _min */\n      dup1\n        /* \"contracts/TPTPreSale_flattened.sol\":5977:5987  minRequire */\n      0x04\n        /* \"contracts/TPTPreSale_flattened.sol\":5977:5994  minRequire = _min */\n      dup2\n      swap1\n      sstore\n      pop\n        /* \"contracts/TPTPreSale_flattened.sol\":5847:6001  function setMinRequire(uint _min) public onlyOwner{... */\n      pop\n      jump\t// out\n        /* \"contracts/TPTPreSale_flattened.sol\":901:926  uint256 public totalUsers */\n    tag_133:\n      sload(0x05)\n      dup2\n      jump\t// out\n        /* \"contracts/TPTPreSale_flattened.sol\":4629:4797  function withdrawAll(address payable _to) external onlyOwner {... */\n    tag_138:\n        /* \"contracts/TPTPreSale_flattened.sol\":1359:1364  owner */\n      0x01\n      0x00\n      swap1\n      sload\n      swap1\n      0x0100\n      exp\n      swap1\n      div\n      0xffffffffffffffffffffffffffffffffffffffff\n      and\n        /* \"contracts/TPTPreSale_flattened.sol\":1345:1364  msg.sender == owner */\n      0xffffffffffffffffffffffffffffffffffffffff\n      and\n        /* \"contracts/TPTPreSale_flattened.sol\":1345:1355  msg.sender */\n      caller\n        /* \"contracts/TPTPreSale_flattened.sol\":1345:1364  msg.sender == owner */\n      0xffffffffffffffffffffffffffffffffffffffff\n      and\n      eq\n        /* \"contracts/TPTPreSale_flattened.sol\":1337:1379  require(msg.sender == owner, \"Only owner\") */\n      tag_240\n      jumpi\n      mload(0x40)\n      0x08c379a000000000000000000000000000000000000000000000000000000000\n      dup2\n      mstore\n      0x04\n      add\n      tag_241\n      swap1\n      tag_196\n      jump\t// in\n    tag_241:\n      mload(0x40)\n      dup1\n      swap2\n      sub\n      swap1\n      revert\n    tag_240:\n        /* \"contracts/TPTPreSale_flattened.sol\":4723:4724  0 */\n      0x00\n        /* \"contracts/TPTPreSale_flattened.sol\":4708:4725  _to != address(0) */\n      0xffffffffffffffffffffffffffffffffffffffff\n      and\n        /* \"contracts/TPTPreSale_flattened.sol\":4708:4711  _to */\n      dup2\n        /* \"contracts/TPTPreSale_flattened.sol\":4708:4725  _to != address(0) */\n      0xffffffffffffffffffffffffffffffffffffffff\n      and\n      sub\n        /* \"contracts/TPTPreSale_flattened.sol\":4700:4745  require(_to != address(0), \"Invalid address\") */\n      tag_243\n      jumpi\n      mload(0x40)\n      0x08c379a000000000000000000000000000000000000000000000000000000000\n      dup2\n      mstore\n      0x04\n      add\n      tag_244\n      swap1\n      tag_245\n      jump\t// in\n    tag_244:\n      mload(0x40)\n      dup1\n      swap2\n      sub\n      swap1\n      revert\n    tag_243:\n        /* \"contracts/TPTPreSale_flattened.sol\":4755:4758  _to */\n      dup1\n        /* \"contracts/TPTPreSale_flattened.sol\":4755:4767  _to.transfer */\n      0xffffffffffffffffffffffffffffffffffffffff\n      and\n        /* \"contracts/TPTPreSale_flattened.sol\":4755:4790  _to.transfer(address(this).balance) */\n      0x08fc\n        /* \"contracts/TPTPreSale_flattened.sol\":4768:4789  address(this).balance */\n      selfbalance\n        /* \"contracts/TPTPreSale_flattened.sol\":4755:4790  _to.transfer(address(this).balance) */\n      swap1\n      dup2\n      iszero\n      mul\n      swap1\n      mload(0x40)\n      0x00\n      mload(0x40)\n      dup1\n      dup4\n      sub\n      dup2\n      dup6\n      dup9\n      dup9\n      call\n      swap4\n      pop\n      pop\n      pop\n      pop\n      iszero\n      dup1\n      iszero\n      tag_247\n      jumpi\n      returndatasize\n      0x00\n      dup1\n      returndatacopy\n      revert(0x00, returndatasize)\n    tag_247:\n      pop\n        /* \"contracts/TPTPreSale_flattened.sol\":4629:4797  function withdrawAll(address payable _to) external onlyOwner {... */\n      pop\n      jump\t// out\n        /* \"contracts/TPTPreSale_flattened.sol\":5419:5590  function getUserTPTBalance(address _userAddress)... */\n    tag_142:\n        /* \"contracts/TPTPreSale_flattened.sol\":5515:5522  uint256 */\n      0x00\n        /* \"contracts/TPTPreSale_flattened.sol\":5545:5550  users */\n      0x07\n        /* \"contracts/TPTPreSale_flattened.sol\":5545:5572  users[userId[_userAddress]] */\n      0x00\n        /* \"contracts/TPTPreSale_flattened.sol\":5551:5557  userId */\n      0x06\n        /* \"contracts/TPTPreSale_flattened.sol\":5551:5571  userId[_userAddress] */\n      0x00\n        /* \"contracts/TPTPreSale_flattened.sol\":5558:5570  _userAddress */\n      dup6\n        /* \"contracts/TPTPreSale_flattened.sol\":5551:5571  userId[_userAddress] */\n      0xffffffffffffffffffffffffffffffffffffffff\n      and\n      0xffffffffffffffffffffffffffffffffffffffff\n      and\n      dup2\n      mstore\n      0x20\n      add\n      swap1\n      dup2\n      mstore\n      0x20\n      add\n      0x00\n      keccak256\n      sload\n        /* \"contracts/TPTPreSale_flattened.sol\":5545:5572  users[userId[_userAddress]] */\n      dup2\n      mstore\n      0x20\n      add\n      swap1\n      dup2\n      mstore\n      0x20\n      add\n      0x00\n      keccak256\n        /* \"contracts/TPTPreSale_flattened.sol\":5545:5583  users[userId[_userAddress]].tptBalance */\n      0x01\n      add\n      sload\n        /* \"contracts/TPTPreSale_flattened.sol\":5538:5583  return users[userId[_userAddress]].tptBalance */\n      swap1\n      pop\n        /* \"contracts/TPTPreSale_flattened.sol\":5419:5590  function getUserTPTBalance(address _userAddress)... */\n      swap2\n      swap1\n      pop\n      jump\t// out\n        /* \"contracts/TPTPreSale_flattened.sol\":763:808  mapping(uint8 => uint256) public tptStepPrice */\n    tag_147:\n      mstore(0x20, 0x02)\n      dup1\n      0x00\n      mstore\n      keccak256(0x00, 0x40)\n      0x00\n      swap2\n      pop\n      swap1\n      pop\n      sload\n      dup2\n      jump\t// out\n    tag_162:\n      dup3\n      dup1\n      sload\n      dup3\n      dup3\n      sstore\n      swap1\n      0x00\n      mstore\n      keccak256(0x00, 0x20)\n      swap1\n      0x04\n      mul\n      dup2\n      add\n      swap3\n      dup3\n      iszero\n      tag_249\n      jumpi\n      0x00\n      mstore\n      keccak256(0x00, 0x20)\n      swap2\n      0x04\n      mul\n      dup3\n      add\n    tag_250:\n      dup3\n      dup2\n      gt\n      iszero\n      tag_251\n      jumpi\n      dup3\n      dup3\n      0x00\n      dup3\n      add\n      sload\n      dup2\n      0x00\n      add\n      sstore\n      0x01\n      dup3\n      add\n      sload\n      dup2\n      0x01\n      add\n      sstore\n      0x02\n      dup3\n      add\n      sload\n      dup2\n      0x02\n      add\n      sstore\n      0x03\n      dup3\n      add\n      0x00\n      swap1\n      sload\n      swap1\n      0x0100\n      exp\n      swap1\n      div\n      0xff\n      and\n      dup2\n      0x03\n      add\n      exp(0x0100, 0x00)\n      dup2\n      sload\n      dup2\n      0xff\n      mul\n      not\n      and\n      swap1\n      dup4\n      0xff\n      and\n      mul\n      or\n      swap1\n      sstore\n      pop\n      pop\n      pop\n      swap2\n      0x04\n      add\n      swap2\n      swap1\n      0x04\n      add\n      swap1\n      jump(tag_250)\n    tag_251:\n    tag_249:\n      pop\n      swap1\n      pop\n      tag_252\n      swap2\n      swap1\n      tag_253\n      jump\t// in\n    tag_252:\n      pop\n      swap1\n      jump\t// out\n    tag_185:\n      mload(0x40)\n      dup1\n      0x80\n      add\n      0x40\n      mstore\n      dup1\n      0x00\n      dup2\n      mstore\n      0x20\n      add\n      0x00\n      dup2\n      mstore\n      0x20\n      add\n      0x00\n      dup2\n      mstore\n      0x20\n      add\n      and(0xff, 0x00)\n      dup2\n      mstore\n      pop\n      swap1\n      jump\t// out\n    tag_215:\n      mload(0x40)\n      dup1\n      0x80\n      add\n      0x40\n      mstore\n      dup1\n      and(0xffffffffffffffffffffffffffffffffffffffff, 0x00)\n      dup2\n      mstore\n      0x20\n      add\n      0x00\n      dup2\n      mstore\n      0x20\n      add\n      iszero(iszero(0x00))\n      dup2\n      mstore\n      0x20\n      add\n      0x60\n      dup2\n      mstore\n      pop\n      swap1\n      jump\t// out\n    tag_253:\n    tag_254:\n      dup1\n      dup3\n      gt\n      iszero\n      tag_255\n      jumpi\n      0x00\n      dup1\n      dup3\n      add\n      0x00\n      swap1\n      sstore\n      0x01\n      dup3\n      add\n      0x00\n      swap1\n      sstore\n      0x02\n      dup3\n      add\n      0x00\n      swap1\n      sstore\n      0x03\n      dup3\n      add\n      exp(0x0100, 0x00)\n      dup2\n      sload\n      swap1\n      0xff\n      mul\n      not\n      and\n      swap1\n      sstore\n      pop\n      0x04\n      add\n      jump(tag_254)\n    tag_255:\n      pop\n      swap1\n      jump\t// out\n        /* \"#utility.yul\":7:176   */\n    tag_256:\n        /* \"#utility.yul\":91:102   */\n      0x00\n        /* \"#utility.yul\":125:131   */\n      dup3\n        /* \"#utility.yul\":120:123   */\n      dup3\n        /* \"#utility.yul\":113:132   */\n      mstore\n        /* \"#utility.yul\":165:169   */\n      0x20\n        /* \"#utility.yul\":160:163   */\n      dup3\n        /* \"#utility.yul\":156:170   */\n      add\n        /* \"#utility.yul\":141:170   */\n      swap1\n      pop\n        /* \"#utility.yul\":7:176   */\n      swap3\n      swap2\n      pop\n      pop\n      jump\t// out\n        /* \"#utility.yul\":182:356   */\n    tag_257:\n        /* \"#utility.yul\":322:348   */\n      0x53656e64206d6f726520424e4220746f20627579205450540000000000000000\n        /* \"#utility.yul\":318:319   */\n      0x00\n        /* \"#utility.yul\":310:316   */\n      dup3\n        /* \"#utility.yul\":306:320   */\n      add\n        /* \"#utility.yul\":299:349   */\n      mstore\n        /* \"#utility.yul\":182:356   */\n      pop\n      jump\t// out\n        /* \"#utility.yul\":362:728   */\n    tag_258:\n        /* \"#utility.yul\":504:507   */\n      0x00\n        /* \"#utility.yul\":525:592   */\n      tag_334\n        /* \"#utility.yul\":589:591   */\n      0x18\n        /* \"#utility.yul\":584:587   */\n      dup4\n        /* \"#utility.yul\":525:592   */\n      tag_256\n      jump\t// in\n    tag_334:\n        /* \"#utility.yul\":518:592   */\n      swap2\n      pop\n        /* \"#utility.yul\":601:694   */\n      tag_335\n        /* \"#utility.yul\":690:693   */\n      dup3\n        /* \"#utility.yul\":601:694   */\n      tag_257\n      jump\t// in\n    tag_335:\n        /* \"#utility.yul\":719:721   */\n      0x20\n        /* \"#utility.yul\":714:717   */\n      dup3\n        /* \"#utility.yul\":710:722   */\n      add\n        /* \"#utility.yul\":703:722   */\n      swap1\n      pop\n        /* \"#utility.yul\":362:728   */\n      swap2\n      swap1\n      pop\n      jump\t// out\n        /* \"#utility.yul\":734:1153   */\n    tag_28:\n        /* \"#utility.yul\":900:904   */\n      0x00\n        /* \"#utility.yul\":938:940   */\n      0x20\n        /* \"#utility.yul\":927:936   */\n      dup3\n        /* \"#utility.yul\":923:941   */\n      add\n        /* \"#utility.yul\":915:941   */\n      swap1\n      pop\n        /* \"#utility.yul\":987:996   */\n      dup2\n        /* \"#utility.yul\":981:985   */\n      dup2\n        /* \"#utility.yul\":977:997   */\n      sub\n        /* \"#utility.yul\":973:974   */\n      0x00\n        /* \"#utility.yul\":962:971   */\n      dup4\n        /* \"#utility.yul\":958:975   */\n      add\n        /* \"#utility.yul\":951:998   */\n      mstore\n        /* \"#utility.yul\":1015:1146   */\n      tag_337\n        /* \"#utility.yul\":1141:1145   */\n      dup2\n        /* \"#utility.yul\":1015:1146   */\n      tag_258\n      jump\t// in\n    tag_337:\n        /* \"#utility.yul\":1007:1146   */\n      swap1\n      pop\n        /* \"#utility.yul\":734:1153   */\n      swap2\n      swap1\n      pop\n      jump\t// out\n        /* \"#utility.yul\":1159:1306   */\n    tag_259:\n        /* \"#utility.yul\":1260:1271   */\n      0x00\n        /* \"#utility.yul\":1297:1300   */\n      dup2\n        /* \"#utility.yul\":1282:1300   */\n      swap1\n      pop\n        /* \"#utility.yul\":1159:1306   */\n      swap3\n      swap2\n      pop\n      pop\n      jump\t// out\n        /* \"#utility.yul\":1312:1426   */\n    tag_260:\n      pop\n      jump\t// out\n        /* \"#utility.yul\":1432:1830   */\n    tag_261:\n        /* \"#utility.yul\":1591:1594   */\n      0x00\n        /* \"#utility.yul\":1612:1695   */\n      tag_341\n        /* \"#utility.yul\":1693:1694   */\n      0x00\n        /* \"#utility.yul\":1688:1691   */\n      dup4\n        /* \"#utility.yul\":1612:1695   */\n      tag_259\n      jump\t// in\n    tag_341:\n        /* \"#utility.yul\":1605:1695   */\n      swap2\n      pop\n        /* \"#utility.yul\":1704:1797   */\n      tag_342\n        /* \"#utility.yul\":1793:1796   */\n      dup3\n        /* \"#utility.yul\":1704:1797   */\n      tag_260\n      jump\t// in\n    tag_342:\n        /* \"#utility.yul\":1822:1823   */\n      0x00\n        /* \"#utility.yul\":1817:1820   */\n      dup3\n        /* \"#utility.yul\":1813:1824   */\n      add\n        /* \"#utility.yul\":1806:1824   */\n      swap1\n      pop\n        /* \"#utility.yul\":1432:1830   */\n      swap2\n      swap1\n      pop\n      jump\t// out\n        /* \"#utility.yul\":1836:2215   */\n    tag_30:\n        /* \"#utility.yul\":2020:2023   */\n      0x00\n        /* \"#utility.yul\":2042:2189   */\n      tag_344\n        /* \"#utility.yul\":2185:2188   */\n      dup3\n        /* \"#utility.yul\":2042:2189   */\n      tag_261\n      jump\t// in\n    tag_344:\n        /* \"#utility.yul\":2035:2189   */\n      swap2\n      pop\n        /* \"#utility.yul\":2206:2209   */\n      dup2\n        /* \"#utility.yul\":2199:2209   */\n      swap1\n      pop\n        /* \"#utility.yul\":1836:2215   */\n      swap2\n      swap1\n      pop\n      jump\t// out\n        /* \"#utility.yul\":2221:2386   */\n    tag_262:\n        /* \"#utility.yul\":2361:2378   */\n      0x5472616e73666572206661696c65640000000000000000000000000000000000\n        /* \"#utility.yul\":2357:2358   */\n      0x00\n        /* \"#utility.yul\":2349:2355   */\n      dup3\n        /* \"#utility.yul\":2345:2359   */\n      add\n        /* \"#utility.yul\":2338:2379   */\n      mstore\n        /* \"#utility.yul\":2221:2386   */\n      pop\n      jump\t// out\n        /* \"#utility.yul\":2392:2758   */\n    tag_263:\n        /* \"#utility.yul\":2534:2537   */\n      0x00\n        /* \"#utility.yul\":2555:2622   */\n      tag_347\n        /* \"#utility.yul\":2619:2621   */\n      0x0f\n        /* \"#utility.yul\":2614:2617   */\n      dup4\n        /* \"#utility.yul\":2555:2622   */\n      tag_256\n      jump\t// in\n    tag_347:\n        /* \"#utility.yul\":2548:2622   */\n      swap2\n      pop\n        /* \"#utility.yul\":2631:2724   */\n      tag_348\n        /* \"#utility.yul\":2720:2723   */\n      dup3\n        /* \"#utility.yul\":2631:2724   */\n      tag_262\n      jump\t// in\n    tag_348:\n        /* \"#utility.yul\":2749:2751   */\n      0x20\n        /* \"#utility.yul\":2744:2747   */\n      dup3\n        /* \"#utility.yul\":2740:2752   */\n      add\n        /* \"#utility.yul\":2733:2752   */\n      swap1\n      pop\n        /* \"#utility.yul\":2392:2758   */\n      swap2\n      swap1\n      pop\n      jump\t// out\n        /* \"#utility.yul\":2764:3183   */\n    tag_36:\n        /* \"#utility.yul\":2930:2934   */\n      0x00\n        /* \"#utility.yul\":2968:2970   */\n      0x20\n        /* \"#utility.yul\":2957:2966   */\n      dup3\n        /* \"#utility.yul\":2953:2971   */\n      add\n        /* \"#utility.yul\":2945:2971   */\n      swap1\n      pop\n        /* \"#utility.yul\":3017:3026   */\n      dup2\n        /* \"#utility.yul\":3011:3015   */\n      dup2\n        /* \"#utility.yul\":3007:3027   */\n      sub\n        /* \"#utility.yul\":3003:3004   */\n      0x00\n        /* \"#utility.yul\":2992:3001   */\n      dup4\n        /* \"#utility.yul\":2988:3005   */\n      add\n        /* \"#utility.yul\":2981:3028   */\n      mstore\n        /* \"#utility.yul\":3045:3176   */\n      tag_350\n        /* \"#utility.yul\":3171:3175   */\n      dup2\n        /* \"#utility.yul\":3045:3176   */\n      tag_263\n      jump\t// in\n    tag_350:\n        /* \"#utility.yul\":3037:3176   */\n      swap1\n      pop\n        /* \"#utility.yul\":2764:3183   */\n      swap2\n      swap1\n      pop\n      jump\t// out\n        /* \"#utility.yul\":3189:3358   */\n    tag_264:\n        /* \"#utility.yul\":3329:3350   */\n      0x496e76616c69642064617461206c656e67746800000000000000000000000000\n        /* \"#utility.yul\":3325:3326   */\n      0x00\n        /* \"#utility.yul\":3317:3323   */\n      dup3\n        /* \"#utility.yul\":3313:3327   */\n      add\n        /* \"#utility.yul\":3306:3351   */\n      mstore\n        /* \"#utility.yul\":3189:3358   */\n      pop\n      jump\t// out\n        /* \"#utility.yul\":3364:3730   */\n    tag_265:\n        /* \"#utility.yul\":3506:3509   */\n      0x00\n        /* \"#utility.yul\":3527:3594   */\n      tag_353\n        /* \"#utility.yul\":3591:3593   */\n      0x13\n        /* \"#utility.yul\":3586:3589   */\n      dup4\n        /* \"#utility.yul\":3527:3594   */\n      tag_256\n      jump\t// in\n    tag_353:\n        /* \"#utility.yul\":3520:3594   */\n      swap2\n      pop\n        /* \"#utility.yul\":3603:3696   */\n      tag_354\n        /* \"#utility.yul\":3692:3695   */\n      dup3\n        /* \"#utility.yul\":3603:3696   */\n      tag_264\n      jump\t// in\n    tag_354:\n        /* \"#utility.yul\":3721:3723   */\n      0x20\n        /* \"#utility.yul\":3716:3719   */\n      dup3\n        /* \"#utility.yul\":3712:3724   */\n      add\n        /* \"#utility.yul\":3705:3724   */\n      swap1\n      pop\n        /* \"#utility.yul\":3364:3730   */\n      swap2\n      swap1\n      pop\n      jump\t// out\n        /* \"#utility.yul\":3736:4155   */\n    tag_45:\n        /* \"#utility.yul\":3902:3906   */\n      0x00\n        /* \"#utility.yul\":3940:3942   */\n      0x20\n        /* \"#utility.yul\":3929:3938   */\n      dup3\n        /* \"#utility.yul\":3925:3943   */\n      add\n        /* \"#utility.yul\":3917:3943   */\n      swap1\n      pop\n        /* \"#utility.yul\":3989:3998   */\n      dup2\n        /* \"#utility.yul\":3983:3987   */\n      dup2\n        /* \"#utility.yul\":3979:3999   */\n      sub\n        /* \"#utility.yul\":3975:3976   */\n      0x00\n        /* \"#utility.yul\":3964:3973   */\n      dup4\n        /* \"#utility.yul\":3960:3977   */\n      add\n        /* \"#utility.yul\":3953:4000   */\n      mstore\n        /* \"#utility.yul\":4017:4148   */\n      tag_356\n        /* \"#utility.yul\":4143:4147   */\n      dup2\n        /* \"#utility.yul\":4017:4148   */\n      tag_265\n      jump\t// in\n    tag_356:\n        /* \"#utility.yul\":4009:4148   */\n      swap1\n      pop\n        /* \"#utility.yul\":3736:4155   */\n      swap2\n      swap1\n      pop\n      jump\t// out\n        /* \"#utility.yul\":4161:4236   */\n    tag_266:\n        /* \"#utility.yul\":4194:4200   */\n      0x00\n        /* \"#utility.yul\":4227:4229   */\n      0x40\n        /* \"#utility.yul\":4221:4230   */\n      mload\n        /* \"#utility.yul\":4211:4230   */\n      swap1\n      pop\n        /* \"#utility.yul\":4161:4236   */\n      swap1\n      jump\t// out\n        /* \"#utility.yul\":4242:4359   */\n    tag_267:\n        /* \"#utility.yul\":4351:4352   */\n      0x00\n        /* \"#utility.yul\":4348:4349   */\n      dup1\n        /* \"#utility.yul\":4341:4353   */\n      revert\n        /* \"#utility.yul\":4365:4482   */\n    tag_268:\n        /* \"#utility.yul\":4474:4475   */\n      0x00\n        /* \"#utility.yul\":4471:4472   */\n      dup1\n        /* \"#utility.yul\":4464:4476   */\n      revert\n        /* \"#utility.yul\":4488:4578   */\n    tag_269:\n        /* \"#utility.yul\":4522:4529   */\n      0x00\n        /* \"#utility.yul\":4565:4570   */\n      dup2\n        /* \"#utility.yul\":4558:4571   */\n      iszero\n        /* \"#utility.yul\":4551:4572   */\n      iszero\n        /* \"#utility.yul\":4540:4572   */\n      swap1\n      pop\n        /* \"#utility.yul\":4488:4578   */\n      swap2\n      swap1\n      pop\n      jump\t// out\n        /* \"#utility.yul\":4584:4700   */\n    tag_270:\n        /* \"#utility.yul\":4654:4675   */\n      tag_362\n        /* \"#utility.yul\":4669:4674   */\n      dup2\n        /* \"#utility.yul\":4654:4675   */\n      tag_269\n      jump\t// in\n    tag_362:\n        /* \"#utility.yul\":4647:4652   */\n      dup2\n        /* \"#utility.yul\":4644:4676   */\n      eq\n        /* \"#utility.yul\":4634:4694   */\n      tag_363\n      jumpi\n        /* \"#utility.yul\":4690:4691   */\n      0x00\n        /* \"#utility.yul\":4687:4688   */\n      dup1\n        /* \"#utility.yul\":4680:4692   */\n      revert\n        /* \"#utility.yul\":4634:4694   */\n    tag_363:\n        /* \"#utility.yul\":4584:4700   */\n      pop\n      jump\t// out\n        /* \"#utility.yul\":4706:4839   */\n    tag_271:\n        /* \"#utility.yul\":4749:4754   */\n      0x00\n        /* \"#utility.yul\":4787:4793   */\n      dup2\n        /* \"#utility.yul\":4774:4794   */\n      calldataload\n        /* \"#utility.yul\":4765:4794   */\n      swap1\n      pop\n        /* \"#utility.yul\":4803:4833   */\n      tag_365\n        /* \"#utility.yul\":4827:4832   */\n      dup2\n        /* \"#utility.yul\":4803:4833   */\n      tag_270\n      jump\t// in\n    tag_365:\n        /* \"#utility.yul\":4706:4839   */\n      swap3\n      swap2\n      pop\n      pop\n      jump\t// out\n        /* \"#utility.yul\":4845:5168   */\n    tag_47:\n        /* \"#utility.yul\":4901:4907   */\n      0x00\n        /* \"#utility.yul\":4950:4952   */\n      0x20\n        /* \"#utility.yul\":4938:4947   */\n      dup3\n        /* \"#utility.yul\":4929:4936   */\n      dup5\n        /* \"#utility.yul\":4925:4948   */\n      sub\n        /* \"#utility.yul\":4921:4953   */\n      slt\n        /* \"#utility.yul\":4918:5037   */\n      iszero\n      tag_367\n      jumpi\n        /* \"#utility.yul\":4956:5035   */\n      tag_368\n      tag_267\n      jump\t// in\n    tag_368:\n        /* \"#utility.yul\":4918:5037   */\n    tag_367:\n        /* \"#utility.yul\":5076:5077   */\n      0x00\n        /* \"#utility.yul\":5101:5151   */\n      tag_369\n        /* \"#utility.yul\":5143:5150   */\n      dup5\n        /* \"#utility.yul\":5134:5140   */\n      dup3\n        /* \"#utility.yul\":5123:5132   */\n      dup6\n        /* \"#utility.yul\":5119:5141   */\n      add\n        /* \"#utility.yul\":5101:5151   */\n      tag_271\n      jump\t// in\n    tag_369:\n        /* \"#utility.yul\":5091:5151   */\n      swap2\n      pop\n        /* \"#utility.yul\":5047:5161   */\n      pop\n        /* \"#utility.yul\":4845:5168   */\n      swap3\n      swap2\n      pop\n      pop\n      jump\t// out\n        /* \"#utility.yul\":5174:5342   */\n    tag_272:\n        /* \"#utility.yul\":5314:5334   */\n      0x73656e64206a75737420302e303520626e620000000000000000000000000000\n        /* \"#utility.yul\":5310:5311   */\n      0x00\n        /* \"#utility.yul\":5302:5308   */\n      dup3\n        /* \"#utility.yul\":5298:5312   */\n      add\n        /* \"#utility.yul\":5291:5335   */\n      mstore\n        /* \"#utility.yul\":5174:5342   */\n      pop\n      jump\t// out\n        /* \"#utility.yul\":5348:5714   */\n    tag_273:\n        /* \"#utility.yul\":5490:5493   */\n      0x00\n        /* \"#utility.yul\":5511:5578   */\n      tag_372\n        /* \"#utility.yul\":5575:5577   */\n      0x12\n        /* \"#utility.yul\":5570:5573   */\n      dup4\n        /* \"#utility.yul\":5511:5578   */\n      tag_256\n      jump\t// in\n    tag_372:\n        /* \"#utility.yul\":5504:5578   */\n      swap2\n      pop\n        /* \"#utility.yul\":5587:5680   */\n      tag_373\n        /* \"#utility.yul\":5676:5679   */\n      dup3\n        /* \"#utility.yul\":5587:5680   */\n      tag_272\n      jump\t// in\n    tag_373:\n        /* \"#utility.yul\":5705:5707   */\n      0x20\n        /* \"#utility.yul\":5700:5703   */\n      dup3\n        /* \"#utility.yul\":5696:5708   */\n      add\n        /* \"#utility.yul\":5689:5708   */\n      swap1\n      pop\n        /* \"#utility.yul\":5348:5714   */\n      swap2\n      swap1\n      pop\n      jump\t// out\n        /* \"#utility.yul\":5720:6139   */\n    tag_51:\n        /* \"#utility.yul\":5886:5890   */\n      0x00\n        /* \"#utility.yul\":5924:5926   */\n      0x20\n        /* \"#utility.yul\":5913:5922   */\n      dup3\n        /* \"#utility.yul\":5909:5927   */\n      add\n        /* \"#utility.yul\":5901:5927   */\n      swap1\n      pop\n        /* \"#utility.yul\":5973:5982   */\n      dup2\n        /* \"#utility.yul\":5967:5971   */\n      dup2\n        /* \"#utility.yul\":5963:5983   */\n      sub\n        /* \"#utility.yul\":5959:5960   */\n      0x00\n        /* \"#utility.yul\":5948:5957   */\n      dup4\n        /* \"#utility.yul\":5944:5961   */\n      add\n        /* \"#utility.yul\":5937:5984   */\n      mstore\n        /* \"#utility.yul\":6001:6132   */\n      tag_375\n        /* \"#utility.yul\":6127:6131   */\n      dup2\n        /* \"#utility.yul\":6001:6132   */\n      tag_273\n      jump\t// in\n    tag_375:\n        /* \"#utility.yul\":5993:6132   */\n      swap1\n      pop\n        /* \"#utility.yul\":5720:6139   */\n      swap2\n      swap1\n      pop\n      jump\t// out\n        /* \"#utility.yul\":6145:6271   */\n    tag_274:\n        /* \"#utility.yul\":6182:6189   */\n      0x00\n        /* \"#utility.yul\":6222:6264   */\n      0xffffffffffffffffffffffffffffffffffffffff\n        /* \"#utility.yul\":6215:6220   */\n      dup3\n        /* \"#utility.yul\":6211:6265   */\n      and\n        /* \"#utility.yul\":6200:6265   */\n      swap1\n      pop\n        /* \"#utility.yul\":6145:6271   */\n      swap2\n      swap1\n      pop\n      jump\t// out\n        /* \"#utility.yul\":6277:6373   */\n    tag_275:\n        /* \"#utility.yul\":6314:6321   */\n      0x00\n        /* \"#utility.yul\":6343:6367   */\n      tag_378\n        /* \"#utility.yul\":6361:6366   */\n      dup3\n        /* \"#utility.yul\":6343:6367   */\n      tag_274\n      jump\t// in\n    tag_378:\n        /* \"#utility.yul\":6332:6367   */\n      swap1\n      pop\n        /* \"#utility.yul\":6277:6373   */\n      swap2\n      swap1\n      pop\n      jump\t// out\n        /* \"#utility.yul\":6379:6501   */\n    tag_276:\n        /* \"#utility.yul\":6452:6476   */\n      tag_380\n        /* \"#utility.yul\":6470:6475   */\n      dup2\n        /* \"#utility.yul\":6452:6476   */\n      tag_275\n      jump\t// in\n    tag_380:\n        /* \"#utility.yul\":6445:6450   */\n      dup2\n        /* \"#utility.yul\":6442:6477   */\n      eq\n        /* \"#utility.yul\":6432:6495   */\n      tag_381\n      jumpi\n        /* \"#utility.yul\":6491:6492   */\n      0x00\n        /* \"#utility.yul\":6488:6489   */\n      dup1\n        /* \"#utility.yul\":6481:6493   */\n      revert\n        /* \"#utility.yul\":6432:6495   */\n    tag_381:\n        /* \"#utility.yul\":6379:6501   */\n      pop\n      jump\t// out\n        /* \"#utility.yul\":6507:6646   */\n    tag_277:\n        /* \"#utility.yul\":6553:6558   */\n      0x00\n        /* \"#utility.yul\":6591:6597   */\n      dup2\n        /* \"#utility.yul\":6578:6598   */\n      calldataload\n        /* \"#utility.yul\":6569:6598   */\n      swap1\n      pop\n        /* \"#utility.yul\":6607:6640   */\n      tag_383\n        /* \"#utility.yul\":6634:6639   */\n      dup2\n        /* \"#utility.yul\":6607:6640   */\n      tag_276\n      jump\t// in\n    tag_383:\n        /* \"#utility.yul\":6507:6646   */\n      swap3\n      swap2\n      pop\n      pop\n      jump\t// out\n        /* \"#utility.yul\":6652:6729   */\n    tag_278:\n        /* \"#utility.yul\":6689:6696   */\n      0x00\n        /* \"#utility.yul\":6718:6723   */\n      dup2\n        /* \"#utility.yul\":6707:6723   */\n      swap1\n      pop\n        /* \"#utility.yul\":6652:6729   */\n      swap2\n      swap1\n      pop\n      jump\t// out\n        /* \"#utility.yul\":6735:6857   */\n    tag_279:\n        /* \"#utility.yul\":6808:6832   */\n      tag_386\n        /* \"#utility.yul\":6826:6831   */\n      dup2\n        /* \"#utility.yul\":6808:6832   */\n      tag_278\n      jump\t// in\n    tag_386:\n        /* \"#utility.yul\":6801:6806   */\n      dup2\n        /* \"#utility.yul\":6798:6833   */\n      eq\n        /* \"#utility.yul\":6788:6851   */\n      tag_387\n      jumpi\n        /* \"#utility.yul\":6847:6848   */\n      0x00\n        /* \"#utility.yul\":6844:6845   */\n      dup1\n        /* \"#utility.yul\":6837:6849   */\n      revert\n        /* \"#utility.yul\":6788:6851   */\n    tag_387:\n        /* \"#utility.yul\":6735:6857   */\n      pop\n      jump\t// out\n        /* \"#utility.yul\":6863:7002   */\n    tag_280:\n        /* \"#utility.yul\":6909:6914   */\n      0x00\n        /* \"#utility.yul\":6947:6953   */\n      dup2\n        /* \"#utility.yul\":6934:6954   */\n      calldataload\n        /* \"#utility.yul\":6925:6954   */\n      swap1\n      pop\n        /* \"#utility.yul\":6963:6996   */\n      tag_389\n        /* \"#utility.yul\":6990:6995   */\n      dup2\n        /* \"#utility.yul\":6963:6996   */\n      tag_279\n      jump\t// in\n    tag_389:\n        /* \"#utility.yul\":6863:7002   */\n      swap3\n      swap2\n      pop\n      pop\n      jump\t// out\n        /* \"#utility.yul\":7008:7482   */\n    tag_63:\n        /* \"#utility.yul\":7076:7082   */\n      0x00\n        /* \"#utility.yul\":7084:7090   */\n      dup1\n        /* \"#utility.yul\":7133:7135   */\n      0x40\n        /* \"#utility.yul\":7121:7130   */\n      dup4\n        /* \"#utility.yul\":7112:7119   */\n      dup6\n        /* \"#utility.yul\":7108:7131   */\n      sub\n        /* \"#utility.yul\":7104:7136   */\n      slt\n        /* \"#utility.yul\":7101:7220   */\n      iszero\n      tag_391\n      jumpi\n        /* \"#utility.yul\":7139:7218   */\n      tag_392\n      tag_267\n      jump\t// in\n    tag_392:\n        /* \"#utility.yul\":7101:7220   */\n    tag_391:\n        /* \"#utility.yul\":7259:7260   */\n      0x00\n        /* \"#utility.yul\":7284:7337   */\n      tag_393\n        /* \"#utility.yul\":7329:7336   */\n      dup6\n        /* \"#utility.yul\":7320:7326   */\n      dup3\n        /* \"#utility.yul\":7309:7318   */\n      dup7\n        /* \"#utility.yul\":7305:7327   */\n      add\n        /* \"#utility.yul\":7284:7337   */\n      tag_277\n      jump\t// in\n    tag_393:\n        /* \"#utility.yul\":7274:7337   */\n      swap3\n      pop\n        /* \"#utility.yul\":7230:7347   */\n      pop\n        /* \"#utility.yul\":7386:7388   */\n      0x20\n        /* \"#utility.yul\":7412:7465   */\n      tag_394\n        /* \"#utility.yul\":7457:7464   */\n      dup6\n        /* \"#utility.yul\":7448:7454   */\n      dup3\n        /* \"#utility.yul\":7437:7446   */\n      dup7\n        /* \"#utility.yul\":7433:7455   */\n      add\n        /* \"#utility.yul\":7412:7465   */\n      tag_280\n      jump\t// in\n    tag_394:\n        /* \"#utility.yul\":7402:7465   */\n      swap2\n      pop\n        /* \"#utility.yul\":7357:7475   */\n      pop\n        /* \"#utility.yul\":7008:7482   */\n      swap3\n      pop\n      swap3\n      swap1\n      pop\n      jump\t// out\n        /* \"#utility.yul\":7488:7596   */\n    tag_281:\n        /* \"#utility.yul\":7565:7589   */\n      tag_396\n        /* \"#utility.yul\":7583:7588   */\n      dup2\n        /* \"#utility.yul\":7565:7589   */\n      tag_278\n      jump\t// in\n    tag_396:\n        /* \"#utility.yul\":7560:7563   */\n      dup3\n        /* \"#utility.yul\":7553:7590   */\n      mstore\n        /* \"#utility.yul\":7488:7596   */\n      pop\n      pop\n      jump\t// out\n        /* \"#utility.yul\":7602:7688   */\n    tag_282:\n        /* \"#utility.yul\":7637:7644   */\n      0x00\n        /* \"#utility.yul\":7677:7681   */\n      0xff\n        /* \"#utility.yul\":7670:7675   */\n      dup3\n        /* \"#utility.yul\":7666:7682   */\n      and\n        /* \"#utility.yul\":7655:7682   */\n      swap1\n      pop\n        /* \"#utility.yul\":7602:7688   */\n      swap2\n      swap1\n      pop\n      jump\t// out\n        /* \"#utility.yul\":7694:7796   */\n    tag_283:\n        /* \"#utility.yul\":7767:7789   */\n      tag_399\n        /* \"#utility.yul\":7783:7788   */\n      dup2\n        /* \"#utility.yul\":7767:7789   */\n      tag_282\n      jump\t// in\n    tag_399:\n        /* \"#utility.yul\":7762:7765   */\n      dup3\n        /* \"#utility.yul\":7755:7790   */\n      mstore\n        /* \"#utility.yul\":7694:7796   */\n      pop\n      pop\n      jump\t// out\n        /* \"#utility.yul\":7866:8730   */\n    tag_284:\n        /* \"#utility.yul\":8011:8015   */\n      0x80\n        /* \"#utility.yul\":8006:8009   */\n      dup3\n        /* \"#utility.yul\":8002:8016   */\n      add\n        /* \"#utility.yul\":8103:8107   */\n      0x00\n        /* \"#utility.yul\":8096:8101   */\n      dup3\n        /* \"#utility.yul\":8092:8108   */\n      add\n        /* \"#utility.yul\":8086:8109   */\n      mload\n        /* \"#utility.yul\":8122:8185   */\n      tag_401\n        /* \"#utility.yul\":8179:8183   */\n      0x00\n        /* \"#utility.yul\":8174:8177   */\n      dup6\n        /* \"#utility.yul\":8170:8184   */\n      add\n        /* \"#utility.yul\":8156:8168   */\n      dup3\n        /* \"#utility.yul\":8122:8185   */\n      tag_281\n      jump\t// in\n    tag_401:\n        /* \"#utility.yul\":8026:8195   */\n      pop\n        /* \"#utility.yul\":8282:8286   */\n      0x20\n        /* \"#utility.yul\":8275:8280   */\n      dup3\n        /* \"#utility.yul\":8271:8287   */\n      add\n        /* \"#utility.yul\":8265:8288   */\n      mload\n        /* \"#utility.yul\":8301:8364   */\n      tag_402\n        /* \"#utility.yul\":8358:8362   */\n      0x20\n        /* \"#utility.yul\":8353:8356   */\n      dup6\n        /* \"#utility.yul\":8349:8363   */\n      add\n        /* \"#utility.yul\":8335:8347   */\n      dup3\n        /* \"#utility.yul\":8301:8364   */\n      tag_281\n      jump\t// in\n    tag_402:\n        /* \"#utility.yul\":8205:8374   */\n      pop\n        /* \"#utility.yul\":8461:8465   */\n      0x40\n        /* \"#utility.yul\":8454:8459   */\n      dup3\n        /* \"#utility.yul\":8450:8466   */\n      add\n        /* \"#utility.yul\":8444:8467   */\n      mload\n        /* \"#utility.yul\":8480:8543   */\n      tag_403\n        /* \"#utility.yul\":8537:8541   */\n      0x40\n        /* \"#utility.yul\":8532:8535   */\n      dup6\n        /* \"#utility.yul\":8528:8542   */\n      add\n        /* \"#utility.yul\":8514:8526   */\n      dup3\n        /* \"#utility.yul\":8480:8543   */\n      tag_281\n      jump\t// in\n    tag_403:\n        /* \"#utility.yul\":8384:8553   */\n      pop\n        /* \"#utility.yul\":8635:8639   */\n      0x60\n        /* \"#utility.yul\":8628:8633   */\n      dup3\n        /* \"#utility.yul\":8624:8640   */\n      add\n        /* \"#utility.yul\":8618:8641   */\n      mload\n        /* \"#utility.yul\":8654:8713   */\n      tag_404\n        /* \"#utility.yul\":8707:8711   */\n      0x60\n        /* \"#utility.yul\":8702:8705   */\n      dup6\n        /* \"#utility.yul\":8698:8712   */\n      add\n        /* \"#utility.yul\":8684:8696   */\n      dup3\n        /* \"#utility.yul\":8654:8713   */\n      tag_283\n      jump\t// in\n    tag_404:\n        /* \"#utility.yul\":8563:8723   */\n      pop\n        /* \"#utility.yul\":7980:8730   */\n      pop\n        /* \"#utility.yul\":7866:8730   */\n      pop\n      pop\n      jump\t// out\n        /* \"#utility.yul\":8736:9055   */\n    tag_66:\n        /* \"#utility.yul\":8877:8881   */\n      0x00\n        /* \"#utility.yul\":8915:8918   */\n      0x80\n        /* \"#utility.yul\":8904:8913   */\n      dup3\n        /* \"#utility.yul\":8900:8919   */\n      add\n        /* \"#utility.yul\":8892:8919   */\n      swap1\n      pop\n        /* \"#utility.yul\":8929:9048   */\n      tag_406\n        /* \"#utility.yul\":9045:9046   */\n      0x00\n        /* \"#utility.yul\":9034:9043   */\n      dup4\n        /* \"#utility.yul\":9030:9047   */\n      add\n        /* \"#utility.yul\":9021:9027   */\n      dup5\n        /* \"#utility.yul\":8929:9048   */\n      tag_284\n      jump\t// in\n    tag_406:\n        /* \"#utility.yul\":8736:9055   */\n      swap3\n      swap2\n      pop\n      pop\n      jump\t// out\n        /* \"#utility.yul\":9061:9390   */\n    tag_70:\n        /* \"#utility.yul\":9120:9126   */\n      0x00\n        /* \"#utility.yul\":9169:9171   */\n      0x20\n        /* \"#utility.yul\":9157:9166   */\n      dup3\n        /* \"#utility.yul\":9148:9155   */\n      dup5\n        /* \"#utility.yul\":9144:9167   */\n      sub\n        /* \"#utility.yul\":9140:9172   */\n      slt\n        /* \"#utility.yul\":9137:9256   */\n      iszero\n      tag_408\n      jumpi\n        /* \"#utility.yul\":9175:9254   */\n      tag_409\n      tag_267\n      jump\t// in\n    tag_409:\n        /* \"#utility.yul\":9137:9256   */\n    tag_408:\n        /* \"#utility.yul\":9295:9296   */\n      0x00\n        /* \"#utility.yul\":9320:9373   */\n      tag_410\n        /* \"#utility.yul\":9365:9372   */\n      dup5\n        /* \"#utility.yul\":9356:9362   */\n      dup3\n        /* \"#utility.yul\":9345:9354   */\n      dup6\n        /* \"#utility.yul\":9341:9363   */\n      add\n        /* \"#utility.yul\":9320:9373   */\n      tag_277\n      jump\t// in\n    tag_410:\n        /* \"#utility.yul\":9310:9373   */\n      swap2\n      pop\n        /* \"#utility.yul\":9266:9383   */\n      pop\n        /* \"#utility.yul\":9061:9390   */\n      swap3\n      swap2\n      pop\n      pop\n      jump\t// out\n        /* \"#utility.yul\":9396:9514   */\n    tag_285:\n        /* \"#utility.yul\":9483:9507   */\n      tag_412\n        /* \"#utility.yul\":9501:9506   */\n      dup2\n        /* \"#utility.yul\":9483:9507   */\n      tag_278\n      jump\t// in\n    tag_412:\n        /* \"#utility.yul\":9478:9481   */\n      dup3\n        /* \"#utility.yul\":9471:9508   */\n      mstore\n        /* \"#utility.yul\":9396:9514   */\n      pop\n      pop\n      jump\t// out\n        /* \"#utility.yul\":9520:9742   */\n    tag_73:\n        /* \"#utility.yul\":9613:9617   */\n      0x00\n        /* \"#utility.yul\":9651:9653   */\n      0x20\n        /* \"#utility.yul\":9640:9649   */\n      dup3\n        /* \"#utility.yul\":9636:9654   */\n      add\n        /* \"#utility.yul\":9628:9654   */\n      swap1\n      pop\n        /* \"#utility.yul\":9664:9735   */\n      tag_414\n        /* \"#utility.yul\":9732:9733   */\n      0x00\n        /* \"#utility.yul\":9721:9730   */\n      dup4\n        /* \"#utility.yul\":9717:9734   */\n      add\n        /* \"#utility.yul\":9708:9714   */\n      dup5\n        /* \"#utility.yul\":9664:9735   */\n      tag_285\n      jump\t// in\n    tag_414:\n        /* \"#utility.yul\":9520:9742   */\n      swap3\n      swap2\n      pop\n      pop\n      jump\t// out\n        /* \"#utility.yul\":9748:9847   */\n    tag_286:\n        /* \"#utility.yul\":9800:9806   */\n      0x00\n        /* \"#utility.yul\":9834:9839   */\n      dup2\n        /* \"#utility.yul\":9828:9840   */\n      mload\n        /* \"#utility.yul\":9818:9840   */\n      swap1\n      pop\n        /* \"#utility.yul\":9748:9847   */\n      swap2\n      swap1\n      pop\n      jump\t// out\n        /* \"#utility.yul\":9853:10099   */\n    tag_287:\n        /* \"#utility.yul\":9934:9935   */\n      0x00\n        /* \"#utility.yul\":9944:10057   */\n    tag_417:\n        /* \"#utility.yul\":9958:9964   */\n      dup4\n        /* \"#utility.yul\":9955:9956   */\n      dup2\n        /* \"#utility.yul\":9952:9965   */\n      lt\n        /* \"#utility.yul\":9944:10057   */\n      iszero\n      tag_419\n      jumpi\n        /* \"#utility.yul\":10043:10044   */\n      dup1\n        /* \"#utility.yul\":10038:10041   */\n      dup3\n        /* \"#utility.yul\":10034:10045   */\n      add\n        /* \"#utility.yul\":10028:10046   */\n      mload\n        /* \"#utility.yul\":10024:10025   */\n      dup2\n        /* \"#utility.yul\":10019:10022   */\n      dup5\n        /* \"#utility.yul\":10015:10026   */\n      add\n        /* \"#utility.yul\":10008:10047   */\n      mstore\n        /* \"#utility.yul\":9980:9982   */\n      0x20\n        /* \"#utility.yul\":9977:9978   */\n      dup2\n        /* \"#utility.yul\":9973:9983   */\n      add\n        /* \"#utility.yul\":9968:9983   */\n      swap1\n      pop\n        /* \"#utility.yul\":9944:10057   */\n      jump(tag_417)\n    tag_419:\n        /* \"#utility.yul\":10091:10092   */\n      0x00\n        /* \"#utility.yul\":10082:10088   */\n      dup5\n        /* \"#utility.yul\":10077:10080   */\n      dup5\n        /* \"#utility.yul\":10073:10089   */\n      add\n        /* \"#utility.yul\":10066:10093   */\n      mstore\n        /* \"#utility.yul\":9915:10099   */\n      pop\n        /* \"#utility.yul\":9853:10099   */\n      pop\n      pop\n      pop\n      jump\t// out\n        /* \"#utility.yul\":10105:10207   */\n    tag_288:\n        /* \"#utility.yul\":10146:10152   */\n      0x00\n        /* \"#utility.yul\":10197:10199   */\n      0x1f\n        /* \"#utility.yul\":10193:10200   */\n      not\n        /* \"#utility.yul\":10188:10190   */\n      0x1f\n        /* \"#utility.yul\":10181:10186   */\n      dup4\n        /* \"#utility.yul\":10177:10191   */\n      add\n        /* \"#utility.yul\":10173:10201   */\n      and\n        /* \"#utility.yul\":10163:10201   */\n      swap1\n      pop\n        /* \"#utility.yul\":10105:10207   */\n      swap2\n      swap1\n      pop\n      jump\t// out\n        /* \"#utility.yul\":10213:10590   */\n    tag_289:\n        /* \"#utility.yul\":10301:10304   */\n      0x00\n        /* \"#utility.yul\":10329:10368   */\n      tag_422\n        /* \"#utility.yul\":10362:10367   */\n      dup3\n        /* \"#utility.yul\":10329:10368   */\n      tag_286\n      jump\t// in\n    tag_422:\n        /* \"#utility.yul\":10384:10455   */\n      tag_423\n        /* \"#utility.yul\":10448:10454   */\n      dup2\n        /* \"#utility.yul\":10443:10446   */\n      dup6\n        /* \"#utility.yul\":10384:10455   */\n      tag_256\n      jump\t// in\n    tag_423:\n        /* \"#utility.yul\":10377:10455   */\n      swap4\n      pop\n        /* \"#utility.yul\":10464:10529   */\n      tag_424\n        /* \"#utility.yul\":10522:10528   */\n      dup2\n        /* \"#utility.yul\":10517:10520   */\n      dup6\n        /* \"#utility.yul\":10510:10514   */\n      0x20\n        /* \"#utility.yul\":10503:10508   */\n      dup7\n        /* \"#utility.yul\":10499:10515   */\n      add\n        /* \"#utility.yul\":10464:10529   */\n      tag_287\n      jump\t// in\n    tag_424:\n        /* \"#utility.yul\":10554:10583   */\n      tag_425\n        /* \"#utility.yul\":10576:10582   */\n      dup2\n        /* \"#utility.yul\":10554:10583   */\n      tag_288\n      jump\t// in\n    tag_425:\n        /* \"#utility.yul\":10549:10552   */\n      dup5\n        /* \"#utility.yul\":10545:10584   */\n      add\n        /* \"#utility.yul\":10538:10584   */\n      swap2\n      pop\n        /* \"#utility.yul\":10305:10590   */\n      pop\n        /* \"#utility.yul\":10213:10590   */\n      swap3\n      swap2\n      pop\n      pop\n      jump\t// out\n        /* \"#utility.yul\":10596:10909   */\n    tag_86:\n        /* \"#utility.yul\":10709:10713   */\n      0x00\n        /* \"#utility.yul\":10747:10749   */\n      0x20\n        /* \"#utility.yul\":10736:10745   */\n      dup3\n        /* \"#utility.yul\":10732:10750   */\n      add\n        /* \"#utility.yul\":10724:10750   */\n      swap1\n      pop\n        /* \"#utility.yul\":10796:10805   */\n      dup2\n        /* \"#utility.yul\":10790:10794   */\n      dup2\n        /* \"#utility.yul\":10786:10806   */\n      sub\n        /* \"#utility.yul\":10782:10783   */\n      0x00\n        /* \"#utility.yul\":10771:10780   */\n      dup4\n        /* \"#utility.yul\":10767:10784   */\n      add\n        /* \"#utility.yul\":10760:10807   */\n      mstore\n        /* \"#utility.yul\":10824:10902   */\n      tag_427\n        /* \"#utility.yul\":10897:10901   */\n      dup2\n        /* \"#utility.yul\":10888:10894   */\n      dup5\n        /* \"#utility.yul\":10824:10902   */\n      tag_289\n      jump\t// in\n    tag_427:\n        /* \"#utility.yul\":10816:10902   */\n      swap1\n      pop\n        /* \"#utility.yul\":10596:10909   */\n      swap3\n      swap2\n      pop\n      pop\n      jump\t// out\n        /* \"#utility.yul\":10915:11019   */\n    tag_290:\n        /* \"#utility.yul\":10960:10967   */\n      0x00\n        /* \"#utility.yul\":10989:11013   */\n      tag_429\n        /* \"#utility.yul\":11007:11012   */\n      dup3\n        /* \"#utility.yul\":10989:11013   */\n      tag_274\n      jump\t// in\n    tag_429:\n        /* \"#utility.yul\":10978:11013   */\n      swap1\n      pop\n        /* \"#utility.yul\":10915:11019   */\n      swap2\n      swap1\n      pop\n      jump\t// out\n        /* \"#utility.yul\":11025:11163   */\n    tag_291:\n        /* \"#utility.yul\":11106:11138   */\n      tag_431\n        /* \"#utility.yul\":11132:11137   */\n      dup2\n        /* \"#utility.yul\":11106:11138   */\n      tag_290\n      jump\t// in\n    tag_431:\n        /* \"#utility.yul\":11099:11104   */\n      dup2\n        /* \"#utility.yul\":11096:11139   */\n      eq\n        /* \"#utility.yul\":11086:11157   */\n      tag_432\n      jumpi\n        /* \"#utility.yul\":11153:11154   */\n      0x00\n        /* \"#utility.yul\":11150:11151   */\n      dup1\n        /* \"#utility.yul\":11143:11155   */\n      revert\n        /* \"#utility.yul\":11086:11157   */\n    tag_432:\n        /* \"#utility.yul\":11025:11163   */\n      pop\n      jump\t// out\n        /* \"#utility.yul\":11169:11324   */\n    tag_292:\n        /* \"#utility.yul\":11223:11228   */\n      0x00\n        /* \"#utility.yul\":11261:11267   */\n      dup2\n        /* \"#utility.yul\":11248:11268   */\n      calldataload\n        /* \"#utility.yul\":11239:11268   */\n      swap1\n      pop\n        /* \"#utility.yul\":11277:11318   */\n      tag_434\n        /* \"#utility.yul\":11312:11317   */\n      dup2\n        /* \"#utility.yul\":11277:11318   */\n      tag_291\n      jump\t// in\n    tag_434:\n        /* \"#utility.yul\":11169:11324   */\n      swap3\n      swap2\n      pop\n      pop\n      jump\t// out\n        /* \"#utility.yul\":11330:11675   */\n    tag_90:\n        /* \"#utility.yul\":11397:11403   */\n      0x00\n        /* \"#utility.yul\":11446:11448   */\n      0x20\n        /* \"#utility.yul\":11434:11443   */\n      dup3\n        /* \"#utility.yul\":11425:11432   */\n      dup5\n        /* \"#utility.yul\":11421:11444   */\n      sub\n        /* \"#utility.yul\":11417:11449   */\n      slt\n        /* \"#utility.yul\":11414:11533   */\n      iszero\n      tag_436\n      jumpi\n        /* \"#utility.yul\":11452:11531   */\n      tag_437\n      tag_267\n      jump\t// in\n    tag_437:\n        /* \"#utility.yul\":11414:11533   */\n    tag_436:\n        /* \"#utility.yul\":11572:11573   */\n      0x00\n        /* \"#utility.yul\":11597:11658   */\n      tag_438\n        /* \"#utility.yul\":11650:11657   */\n      dup5\n        /* \"#utility.yul\":11641:11647   */\n      dup3\n        /* \"#utility.yul\":11630:11639   */\n      dup6\n        /* \"#utility.yul\":11626:11648   */\n      add\n        /* \"#utility.yul\":11597:11658   */\n      tag_292\n      jump\t// in\n    tag_438:\n        /* \"#utility.yul\":11587:11658   */\n      swap2\n      pop\n        /* \"#utility.yul\":11543:11668   */\n      pop\n        /* \"#utility.yul\":11330:11675   */\n      swap3\n      swap2\n      pop\n      pop\n      jump\t// out\n        /* \"#utility.yul\":11681:12010   */\n    tag_99:\n        /* \"#utility.yul\":11740:11746   */\n      0x00\n        /* \"#utility.yul\":11789:11791   */\n      0x20\n        /* \"#utility.yul\":11777:11786   */\n      dup3\n        /* \"#utility.yul\":11768:11775   */\n      dup5\n        /* \"#utility.yul\":11764:11787   */\n      sub\n        /* \"#utility.yul\":11760:11792   */\n      slt\n        /* \"#utility.yul\":11757:11876   */\n      iszero\n      tag_440\n      jumpi\n        /* \"#utility.yul\":11795:11874   */\n      tag_441\n      tag_267\n      jump\t// in\n    tag_441:\n        /* \"#utility.yul\":11757:11876   */\n    tag_440:\n        /* \"#utility.yul\":11915:11916   */\n      0x00\n        /* \"#utility.yul\":11940:11993   */\n      tag_442\n        /* \"#utility.yul\":11985:11992   */\n      dup5\n        /* \"#utility.yul\":11976:11982   */\n      dup3\n        /* \"#utility.yul\":11965:11974   */\n      dup6\n        /* \"#utility.yul\":11961:11983   */\n      add\n        /* \"#utility.yul\":11940:11993   */\n      tag_280\n      jump\t// in\n    tag_442:\n        /* \"#utility.yul\":11930:11993   */\n      swap2\n      pop\n        /* \"#utility.yul\":11886:12003   */\n      pop\n        /* \"#utility.yul\":11681:12010   */\n      swap3\n      swap2\n      pop\n      pop\n      jump\t// out\n        /* \"#utility.yul\":12016:12124   */\n    tag_293:\n        /* \"#utility.yul\":12093:12117   */\n      tag_444\n        /* \"#utility.yul\":12111:12116   */\n      dup2\n        /* \"#utility.yul\":12093:12117   */\n      tag_275\n      jump\t// in\n    tag_444:\n        /* \"#utility.yul\":12088:12091   */\n      dup3\n        /* \"#utility.yul\":12081:12118   */\n      mstore\n        /* \"#utility.yul\":12016:12124   */\n      pop\n      pop\n      jump\t// out\n        /* \"#utility.yul\":12130:12229   */\n    tag_294:\n        /* \"#utility.yul\":12201:12222   */\n      tag_446\n        /* \"#utility.yul\":12216:12221   */\n      dup2\n        /* \"#utility.yul\":12201:12222   */\n      tag_269\n      jump\t// in\n    tag_446:\n        /* \"#utility.yul\":12196:12199   */\n      dup3\n        /* \"#utility.yul\":12189:12223   */\n      mstore\n        /* \"#utility.yul\":12130:12229   */\n      pop\n      pop\n      jump\t// out\n        /* \"#utility.yul\":12235:12373   */\n    tag_295:\n        /* \"#utility.yul\":12326:12332   */\n      0x00\n        /* \"#utility.yul\":12360:12365   */\n      dup2\n        /* \"#utility.yul\":12354:12366   */\n      mload\n        /* \"#utility.yul\":12344:12366   */\n      swap1\n      pop\n        /* \"#utility.yul\":12235:12373   */\n      swap2\n      swap1\n      pop\n      jump\t// out\n        /* \"#utility.yul\":12379:12577   */\n    tag_296:\n        /* \"#utility.yul\":12492:12503   */\n      0x00\n        /* \"#utility.yul\":12526:12532   */\n      dup3\n        /* \"#utility.yul\":12521:12524   */\n      dup3\n        /* \"#utility.yul\":12514:12533   */\n      mstore\n        /* \"#utility.yul\":12566:12570   */\n      0x20\n        /* \"#utility.yul\":12561:12564   */\n      dup3\n        /* \"#utility.yul\":12557:12571   */\n      add\n        /* \"#utility.yul\":12542:12571   */\n      swap1\n      pop\n        /* \"#utility.yul\":12379:12577   */\n      swap3\n      swap2\n      pop\n      pop\n      jump\t// out\n        /* \"#utility.yul\":12583:12739   */\n    tag_297:\n        /* \"#utility.yul\":12674:12678   */\n      0x00\n        /* \"#utility.yul\":12697:12700   */\n      dup2\n        /* \"#utility.yul\":12689:12700   */\n      swap1\n      pop\n        /* \"#utility.yul\":12727:12731   */\n      0x20\n        /* \"#utility.yul\":12722:12725   */\n      dup3\n        /* \"#utility.yul\":12718:12732   */\n      add\n        /* \"#utility.yul\":12710:12732   */\n      swap1\n      pop\n        /* \"#utility.yul\":12583:12739   */\n      swap2\n      swap1\n      pop\n      jump\t// out\n        /* \"#utility.yul\":12809:13663   */\n    tag_298:\n        /* \"#utility.yul\":12944:12948   */\n      0x80\n        /* \"#utility.yul\":12939:12942   */\n      dup3\n        /* \"#utility.yul\":12935:12949   */\n      add\n        /* \"#utility.yul\":13036:13040   */\n      0x00\n        /* \"#utility.yul\":13029:13034   */\n      dup3\n        /* \"#utility.yul\":13025:13041   */\n      add\n        /* \"#utility.yul\":13019:13042   */\n      mload\n        /* \"#utility.yul\":13055:13118   */\n      tag_451\n        /* \"#utility.yul\":13112:13116   */\n      0x00\n        /* \"#utility.yul\":13107:13110   */\n      dup6\n        /* \"#utility.yul\":13103:13117   */\n      add\n        /* \"#utility.yul\":13089:13101   */\n      dup3\n        /* \"#utility.yul\":13055:13118   */\n      tag_281\n      jump\t// in\n    tag_451:\n        /* \"#utility.yul\":12959:13128   */\n      pop\n        /* \"#utility.yul\":13215:13219   */\n      0x20\n        /* \"#utility.yul\":13208:13213   */\n      dup3\n        /* \"#utility.yul\":13204:13220   */\n      add\n        /* \"#utility.yul\":13198:13221   */\n      mload\n        /* \"#utility.yul\":13234:13297   */\n      tag_452\n        /* \"#utility.yul\":13291:13295   */\n      0x20\n        /* \"#utility.yul\":13286:13289   */\n      dup6\n        /* \"#utility.yul\":13282:13296   */\n      add\n        /* \"#utility.yul\":13268:13280   */\n      dup3\n        /* \"#utility.yul\":13234:13297   */\n      tag_281\n      jump\t// in\n    tag_452:\n        /* \"#utility.yul\":13138:13307   */\n      pop\n        /* \"#utility.yul\":13394:13398   */\n      0x40\n        /* \"#utility.yul\":13387:13392   */\n      dup3\n        /* \"#utility.yul\":13383:13399   */\n      add\n        /* \"#utility.yul\":13377:13400   */\n      mload\n        /* \"#utility.yul\":13413:13476   */\n      tag_453\n        /* \"#utility.yul\":13470:13474   */\n      0x40\n        /* \"#utility.yul\":13465:13468   */\n      dup6\n        /* \"#utility.yul\":13461:13475   */\n      add\n        /* \"#utility.yul\":13447:13459   */\n      dup3\n        /* \"#utility.yul\":13413:13476   */\n      tag_281\n      jump\t// in\n    tag_453:\n        /* \"#utility.yul\":13317:13486   */\n      pop\n        /* \"#utility.yul\":13568:13572   */\n      0x60\n        /* \"#utility.yul\":13561:13566   */\n      dup3\n        /* \"#utility.yul\":13557:13573   */\n      add\n        /* \"#utility.yul\":13551:13574   */\n      mload\n        /* \"#utility.yul\":13587:13646   */\n      tag_454\n        /* \"#utility.yul\":13640:13644   */\n      0x60\n        /* \"#utility.yul\":13635:13638   */\n      dup6\n        /* \"#utility.yul\":13631:13645   */\n      add\n        /* \"#utility.yul\":13617:13629   */\n      dup3\n        /* \"#utility.yul\":13587:13646   */\n      tag_283\n      jump\t// in\n    tag_454:\n        /* \"#utility.yul\":13496:13656   */\n      pop\n        /* \"#utility.yul\":12913:13663   */\n      pop\n        /* \"#utility.yul\":12809:13663   */\n      pop\n      pop\n      jump\t// out\n        /* \"#utility.yul\":13669:13944   */\n    tag_299:\n        /* \"#utility.yul\":13786:13796   */\n      0x00\n        /* \"#utility.yul\":13807:13901   */\n      tag_456\n        /* \"#utility.yul\":13897:13900   */\n      dup4\n        /* \"#utility.yul\":13889:13895   */\n      dup4\n        /* \"#utility.yul\":13807:13901   */\n      tag_298\n      jump\t// in\n    tag_456:\n        /* \"#utility.yul\":13933:13937   */\n      0x80\n        /* \"#utility.yul\":13928:13931   */\n      dup4\n        /* \"#utility.yul\":13924:13938   */\n      add\n        /* \"#utility.yul\":13910:13938   */\n      swap1\n      pop\n        /* \"#utility.yul\":13669:13944   */\n      swap3\n      swap2\n      pop\n      pop\n      jump\t// out\n        /* \"#utility.yul\":13950:14087   */\n    tag_300:\n        /* \"#utility.yul\":14044:14048   */\n      0x00\n        /* \"#utility.yul\":14076:14080   */\n      0x20\n        /* \"#utility.yul\":14071:14074   */\n      dup3\n        /* \"#utility.yul\":14067:14081   */\n      add\n        /* \"#utility.yul\":14059:14081   */\n      swap1\n      pop\n        /* \"#utility.yul\":13950:14087   */\n      swap2\n      swap1\n      pop\n      jump\t// out\n        /* \"#utility.yul\":14161:15065   */\n    tag_301:\n        /* \"#utility.yul\":14318:14321   */\n      0x00\n        /* \"#utility.yul\":14347:14425   */\n      tag_459\n        /* \"#utility.yul\":14419:14424   */\n      dup3\n        /* \"#utility.yul\":14347:14425   */\n      tag_295\n      jump\t// in\n    tag_459:\n        /* \"#utility.yul\":14441:14541   */\n      tag_460\n        /* \"#utility.yul\":14534:14540   */\n      dup2\n        /* \"#utility.yul\":14529:14532   */\n      dup6\n        /* \"#utility.yul\":14441:14541   */\n      tag_296\n      jump\t// in\n    tag_460:\n        /* \"#utility.yul\":14434:14541   */\n      swap4\n      pop\n        /* \"#utility.yul\":14565:14645   */\n      tag_461\n        /* \"#utility.yul\":14639:14644   */\n      dup4\n        /* \"#utility.yul\":14565:14645   */\n      tag_297\n      jump\t// in\n    tag_461:\n        /* \"#utility.yul\":14668:14675   */\n      dup1\n        /* \"#utility.yul\":14699:14700   */\n      0x00\n        /* \"#utility.yul\":14684:15040   */\n    tag_462:\n        /* \"#utility.yul\":14709:14715   */\n      dup4\n        /* \"#utility.yul\":14706:14707   */\n      dup2\n        /* \"#utility.yul\":14703:14716   */\n      lt\n        /* \"#utility.yul\":14684:15040   */\n      iszero\n      tag_464\n      jumpi\n        /* \"#utility.yul\":14785:14791   */\n      dup2\n        /* \"#utility.yul\":14779:14792   */\n      mload\n        /* \"#utility.yul\":14812:14923   */\n      tag_465\n        /* \"#utility.yul\":14919:14922   */\n      dup9\n        /* \"#utility.yul\":14904:14917   */\n      dup3\n        /* \"#utility.yul\":14812:14923   */\n      tag_299\n      jump\t// in\n    tag_465:\n        /* \"#utility.yul\":14805:14923   */\n      swap8\n      pop\n        /* \"#utility.yul\":14946:15030   */\n      tag_466\n        /* \"#utility.yul\":15023:15029   */\n      dup4\n        /* \"#utility.yul\":14946:15030   */\n      tag_300\n      jump\t// in\n    tag_466:\n        /* \"#utility.yul\":14936:15030   */\n      swap3\n      pop\n        /* \"#utility.yul\":14744:15040   */\n      pop\n        /* \"#utility.yul\":14731:14732   */\n      0x01\n        /* \"#utility.yul\":14728:14729   */\n      dup2\n        /* \"#utility.yul\":14724:14733   */\n      add\n        /* \"#utility.yul\":14719:14733   */\n      swap1\n      pop\n        /* \"#utility.yul\":14684:15040   */\n      jump(tag_462)\n    tag_464:\n        /* \"#utility.yul\":14688:14702   */\n      pop\n        /* \"#utility.yul\":15056:15059   */\n      dup6\n        /* \"#utility.yul\":15049:15059   */\n      swap4\n      pop\n        /* \"#utility.yul\":14323:15065   */\n      pop\n      pop\n      pop\n        /* \"#utility.yul\":14161:15065   */\n      swap3\n      swap2\n      pop\n      pop\n      jump\t// out\n        /* \"#utility.yul\":15135:16186   */\n    tag_302:\n        /* \"#utility.yul\":15252:15255   */\n      0x00\n        /* \"#utility.yul\":15288:15292   */\n      0x80\n        /* \"#utility.yul\":15283:15286   */\n      dup4\n        /* \"#utility.yul\":15279:15293   */\n      add\n        /* \"#utility.yul\":15384:15388   */\n      0x00\n        /* \"#utility.yul\":15377:15382   */\n      dup4\n        /* \"#utility.yul\":15373:15389   */\n      add\n        /* \"#utility.yul\":15367:15390   */\n      mload\n        /* \"#utility.yul\":15403:15466   */\n      tag_468\n        /* \"#utility.yul\":15460:15464   */\n      0x00\n        /* \"#utility.yul\":15455:15458   */\n      dup7\n        /* \"#utility.yul\":15451:15465   */\n      add\n        /* \"#utility.yul\":15437:15449   */\n      dup3\n        /* \"#utility.yul\":15403:15466   */\n      tag_293\n      jump\t// in\n    tag_468:\n        /* \"#utility.yul\":15303:15476   */\n      pop\n        /* \"#utility.yul\":15564:15568   */\n      0x20\n        /* \"#utility.yul\":15557:15562   */\n      dup4\n        /* \"#utility.yul\":15553:15569   */\n      add\n        /* \"#utility.yul\":15547:15570   */\n      mload\n        /* \"#utility.yul\":15583:15646   */\n      tag_469\n        /* \"#utility.yul\":15640:15644   */\n      0x20\n        /* \"#utility.yul\":15635:15638   */\n      dup7\n        /* \"#utility.yul\":15631:15645   */\n      add\n        /* \"#utility.yul\":15617:15629   */\n      dup3\n        /* \"#utility.yul\":15583:15646   */\n      tag_281\n      jump\t// in\n    tag_469:\n        /* \"#utility.yul\":15486:15656   */\n      pop\n        /* \"#utility.yul\":15742:15746   */\n      0x40\n        /* \"#utility.yul\":15735:15740   */\n      dup4\n        /* \"#utility.yul\":15731:15747   */\n      add\n        /* \"#utility.yul\":15725:15748   */\n      mload\n        /* \"#utility.yul\":15761:15818   */\n      tag_470\n        /* \"#utility.yul\":15812:15816   */\n      0x40\n        /* \"#utility.yul\":15807:15810   */\n      dup7\n        /* \"#utility.yul\":15803:15817   */\n      add\n        /* \"#utility.yul\":15789:15801   */\n      dup3\n        /* \"#utility.yul\":15761:15818   */\n      tag_294\n      jump\t// in\n    tag_470:\n        /* \"#utility.yul\":15666:15828   */\n      pop\n        /* \"#utility.yul\":15918:15922   */\n      0x60\n        /* \"#utility.yul\":15911:15916   */\n      dup4\n        /* \"#utility.yul\":15907:15923   */\n      add\n        /* \"#utility.yul\":15901:15924   */\n      mload\n        /* \"#utility.yul\":15971:15974   */\n      dup5\n        /* \"#utility.yul\":15965:15969   */\n      dup3\n        /* \"#utility.yul\":15961:15975   */\n      sub\n        /* \"#utility.yul\":15954:15958   */\n      0x60\n        /* \"#utility.yul\":15949:15952   */\n      dup7\n        /* \"#utility.yul\":15945:15959   */\n      add\n        /* \"#utility.yul\":15938:15976   */\n      mstore\n        /* \"#utility.yul\":15997:16148   */\n      tag_471\n        /* \"#utility.yul\":16143:16147   */\n      dup3\n        /* \"#utility.yul\":16129:16141   */\n      dup3\n        /* \"#utility.yul\":15997:16148   */\n      tag_301\n      jump\t// in\n    tag_471:\n        /* \"#utility.yul\":15989:16148   */\n      swap2\n      pop\n        /* \"#utility.yul\":15838:16159   */\n      pop\n        /* \"#utility.yul\":16176:16180   */\n      dup1\n        /* \"#utility.yul\":16169:16180   */\n      swap2\n      pop\n        /* \"#utility.yul\":15257:16186   */\n      pop\n        /* \"#utility.yul\":15135:16186   */\n      swap3\n      swap2\n      pop\n      pop\n      jump\t// out\n        /* \"#utility.yul\":16192:16561   */\n    tag_102:\n        /* \"#utility.yul\":16333:16337   */\n      0x00\n        /* \"#utility.yul\":16371:16373   */\n      0x20\n        /* \"#utility.yul\":16360:16369   */\n      dup3\n        /* \"#utility.yul\":16356:16374   */\n      add\n        /* \"#utility.yul\":16348:16374   */\n      swap1\n      pop\n        /* \"#utility.yul\":16420:16429   */\n      dup2\n        /* \"#utility.yul\":16414:16418   */\n      dup2\n        /* \"#utility.yul\":16410:16430   */\n      sub\n        /* \"#utility.yul\":16406:16407   */\n      0x00\n        /* \"#utility.yul\":16395:16404   */\n      dup4\n        /* \"#utility.yul\":16391:16408   */\n      add\n        /* \"#utility.yul\":16384:16431   */\n      mstore\n        /* \"#utility.yul\":16448:16554   */\n      tag_473\n        /* \"#utility.yul\":16549:16553   */\n      dup2\n        /* \"#utility.yul\":16540:16546   */\n      dup5\n        /* \"#utility.yul\":16448:16554   */\n      tag_302\n      jump\t// in\n    tag_473:\n        /* \"#utility.yul\":16440:16554   */\n      swap1\n      pop\n        /* \"#utility.yul\":16192:16561   */\n      swap3\n      swap2\n      pop\n      pop\n      jump\t// out\n        /* \"#utility.yul\":16567:16685   */\n    tag_303:\n        /* \"#utility.yul\":16638:16660   */\n      tag_475\n        /* \"#utility.yul\":16654:16659   */\n      dup2\n        /* \"#utility.yul\":16638:16660   */\n      tag_282\n      jump\t// in\n    tag_475:\n        /* \"#utility.yul\":16631:16636   */\n      dup2\n        /* \"#utility.yul\":16628:16661   */\n      eq\n        /* \"#utility.yul\":16618:16679   */\n      tag_476\n      jumpi\n        /* \"#utility.yul\":16675:16676   */\n      0x00\n        /* \"#utility.yul\":16672:16673   */\n      dup1\n        /* \"#utility.yul\":16665:16677   */\n      revert\n        /* \"#utility.yul\":16618:16679   */\n    tag_476:\n        /* \"#utility.yul\":16567:16685   */\n      pop\n      jump\t// out\n        /* \"#utility.yul\":16691:16826   */\n    tag_304:\n        /* \"#utility.yul\":16735:16740   */\n      0x00\n        /* \"#utility.yul\":16773:16779   */\n      dup2\n        /* \"#utility.yul\":16760:16780   */\n      calldataload\n        /* \"#utility.yul\":16751:16780   */\n      swap1\n      pop\n        /* \"#utility.yul\":16789:16820   */\n      tag_478\n        /* \"#utility.yul\":16814:16819   */\n      dup2\n        /* \"#utility.yul\":16789:16820   */\n      tag_303\n      jump\t// in\n    tag_478:\n        /* \"#utility.yul\":16691:16826   */\n      swap3\n      swap2\n      pop\n      pop\n      jump\t// out\n        /* \"#utility.yul\":16832:17157   */\n    tag_106:\n        /* \"#utility.yul\":16889:16895   */\n      0x00\n        /* \"#utility.yul\":16938:16940   */\n      0x20\n        /* \"#utility.yul\":16926:16935   */\n      dup3\n        /* \"#utility.yul\":16917:16924   */\n      dup5\n        /* \"#utility.yul\":16913:16936   */\n      sub\n        /* \"#utility.yul\":16909:16941   */\n      slt\n        /* \"#utility.yul\":16906:17025   */\n      iszero\n      tag_480\n      jumpi\n        /* \"#utility.yul\":16944:17023   */\n      tag_481\n      tag_267\n      jump\t// in\n    tag_481:\n        /* \"#utility.yul\":16906:17025   */\n    tag_480:\n        /* \"#utility.yul\":17064:17065   */\n      0x00\n        /* \"#utility.yul\":17089:17140   */\n      tag_482\n        /* \"#utility.yul\":17132:17139   */\n      dup5\n        /* \"#utility.yul\":17123:17129   */\n      dup3\n        /* \"#utility.yul\":17112:17121   */\n      dup6\n        /* \"#utility.yul\":17108:17130   */\n      add\n        /* \"#utility.yul\":17089:17140   */\n      tag_304\n      jump\t// in\n    tag_482:\n        /* \"#utility.yul\":17079:17140   */\n      swap2\n      pop\n        /* \"#utility.yul\":17035:17150   */\n      pop\n        /* \"#utility.yul\":16832:17157   */\n      swap3\n      swap2\n      pop\n      pop\n      jump\t// out\n        /* \"#utility.yul\":17163:17305   */\n    tag_305:\n        /* \"#utility.yul\":17266:17298   */\n      tag_484\n        /* \"#utility.yul\":17292:17297   */\n      dup2\n        /* \"#utility.yul\":17266:17298   */\n      tag_290\n      jump\t// in\n    tag_484:\n        /* \"#utility.yul\":17261:17264   */\n      dup3\n        /* \"#utility.yul\":17254:17299   */\n      mstore\n        /* \"#utility.yul\":17163:17305   */\n      pop\n      pop\n      jump\t// out\n        /* \"#utility.yul\":17311:17565   */\n    tag_112:\n        /* \"#utility.yul\":17420:17424   */\n      0x00\n        /* \"#utility.yul\":17458:17460   */\n      0x20\n        /* \"#utility.yul\":17447:17456   */\n      dup3\n        /* \"#utility.yul\":17443:17461   */\n      add\n        /* \"#utility.yul\":17435:17461   */\n      swap1\n      pop\n        /* \"#utility.yul\":17471:17558   */\n      tag_486\n        /* \"#utility.yul\":17555:17556   */\n      0x00\n        /* \"#utility.yul\":17544:17553   */\n      dup4\n        /* \"#utility.yul\":17540:17557   */\n      add\n        /* \"#utility.yul\":17531:17537   */\n      dup5\n        /* \"#utility.yul\":17471:17558   */\n      tag_305\n      jump\t// in\n    tag_486:\n        /* \"#utility.yul\":17311:17565   */\n      swap3\n      swap2\n      pop\n      pop\n      jump\t// out\n        /* \"#utility.yul\":17571:18041   */\n    tag_116:\n        /* \"#utility.yul\":17637:17643   */\n      0x00\n        /* \"#utility.yul\":17645:17651   */\n      dup1\n        /* \"#utility.yul\":17694:17696   */\n      0x40\n        /* \"#utility.yul\":17682:17691   */\n      dup4\n        /* \"#utility.yul\":17673:17680   */\n      dup6\n        /* \"#utility.yul\":17669:17692   */\n      sub\n        /* \"#utility.yul\":17665:17697   */\n      slt\n        /* \"#utility.yul\":17662:17781   */\n      iszero\n      tag_488\n      jumpi\n        /* \"#utility.yul\":17700:17779   */\n      tag_489\n      tag_267\n      jump\t// in\n    tag_489:\n        /* \"#utility.yul\":17662:17781   */\n    tag_488:\n        /* \"#utility.yul\":17820:17821   */\n      0x00\n        /* \"#utility.yul\":17845:17896   */\n      tag_490\n        /* \"#utility.yul\":17888:17895   */\n      dup6\n        /* \"#utility.yul\":17879:17885   */\n      dup3\n        /* \"#utility.yul\":17868:17877   */\n      dup7\n        /* \"#utility.yul\":17864:17886   */\n      add\n        /* \"#utility.yul\":17845:17896   */\n      tag_304\n      jump\t// in\n    tag_490:\n        /* \"#utility.yul\":17835:17896   */\n      swap3\n      pop\n        /* \"#utility.yul\":17791:17906   */\n      pop\n        /* \"#utility.yul\":17945:17947   */\n      0x20\n        /* \"#utility.yul\":17971:18024   */\n      tag_491\n        /* \"#utility.yul\":18016:18023   */\n      dup6\n        /* \"#utility.yul\":18007:18013   */\n      dup3\n        /* \"#utility.yul\":17996:18005   */\n      dup7\n        /* \"#utility.yul\":17992:18014   */\n      add\n        /* \"#utility.yul\":17971:18024   */\n      tag_280\n      jump\t// in\n    tag_491:\n        /* \"#utility.yul\":17961:18024   */\n      swap2\n      pop\n        /* \"#utility.yul\":17916:18034   */\n      pop\n        /* \"#utility.yul\":17571:18041   */\n      swap3\n      pop\n      swap3\n      swap1\n      pop\n      jump\t// out\n        /* \"#utility.yul\":18047:18159   */\n    tag_306:\n        /* \"#utility.yul\":18130:18152   */\n      tag_493\n        /* \"#utility.yul\":18146:18151   */\n      dup2\n        /* \"#utility.yul\":18130:18152   */\n      tag_282\n      jump\t// in\n    tag_493:\n        /* \"#utility.yul\":18125:18128   */\n      dup3\n        /* \"#utility.yul\":18118:18153   */\n      mstore\n        /* \"#utility.yul\":18047:18159   */\n      pop\n      pop\n      jump\t// out\n        /* \"#utility.yul\":18165:18379   */\n    tag_122:\n        /* \"#utility.yul\":18254:18258   */\n      0x00\n        /* \"#utility.yul\":18292:18294   */\n      0x20\n        /* \"#utility.yul\":18281:18290   */\n      dup3\n        /* \"#utility.yul\":18277:18295   */\n      add\n        /* \"#utility.yul\":18269:18295   */\n      swap1\n      pop\n        /* \"#utility.yul\":18305:18372   */\n      tag_495\n        /* \"#utility.yul\":18369:18370   */\n      0x00\n        /* \"#utility.yul\":18358:18367   */\n      dup4\n        /* \"#utility.yul\":18354:18371   */\n      add\n        /* \"#utility.yul\":18345:18351   */\n      dup5\n        /* \"#utility.yul\":18305:18372   */\n      tag_306\n      jump\t// in\n    tag_495:\n        /* \"#utility.yul\":18165:18379   */\n      swap3\n      swap2\n      pop\n      pop\n      jump\t// out\n        /* \"#utility.yul\":18385:18550   */\n    tag_307:\n        /* \"#utility.yul\":18525:18542   */\n      0x436f6e7472616374205061757365640000000000000000000000000000000000\n        /* \"#utility.yul\":18521:18522   */\n      0x00\n        /* \"#utility.yul\":18513:18519   */\n      dup3\n        /* \"#utility.yul\":18509:18523   */\n      add\n        /* \"#utility.yul\":18502:18543   */\n      mstore\n        /* \"#utility.yul\":18385:18550   */\n      pop\n      jump\t// out\n        /* \"#utility.yul\":18556:18922   */\n    tag_308:\n        /* \"#utility.yul\":18698:18701   */\n      0x00\n        /* \"#utility.yul\":18719:18786   */\n      tag_498\n        /* \"#utility.yul\":18783:18785   */\n      0x0f\n        /* \"#utility.yul\":18778:18781   */\n      dup4\n        /* \"#utility.yul\":18719:18786   */\n      tag_256\n      jump\t// in\n    tag_498:\n        /* \"#utility.yul\":18712:18786   */\n      swap2\n      pop\n        /* \"#utility.yul\":18795:18888   */\n      tag_499\n        /* \"#utility.yul\":18884:18887   */\n      dup3\n        /* \"#utility.yul\":18795:18888   */\n      tag_307\n      jump\t// in\n    tag_499:\n        /* \"#utility.yul\":18913:18915   */\n      0x20\n        /* \"#utility.yul\":18908:18911   */\n      dup3\n        /* \"#utility.yul\":18904:18916   */\n      add\n        /* \"#utility.yul\":18897:18916   */\n      swap1\n      pop\n        /* \"#utility.yul\":18556:18922   */\n      swap2\n      swap1\n      pop\n      jump\t// out\n        /* \"#utility.yul\":18928:19347   */\n    tag_152:\n        /* \"#utility.yul\":19094:19098   */\n      0x00\n        /* \"#utility.yul\":19132:19134   */\n      0x20\n        /* \"#utility.yul\":19121:19130   */\n      dup3\n        /* \"#utility.yul\":19117:19135   */\n      add\n        /* \"#utility.yul\":19109:19135   */\n      swap1\n      pop\n        /* \"#utility.yul\":19181:19190   */\n      dup2\n        /* \"#utility.yul\":19175:19179   */\n      dup2\n        /* \"#utility.yul\":19171:19191   */\n      sub\n        /* \"#utility.yul\":19167:19168   */\n      0x00\n        /* \"#utility.yul\":19156:19165   */\n      dup4\n        /* \"#utility.yul\":19152:19169   */\n      add\n        /* \"#utility.yul\":19145:19192   */\n      mstore\n        /* \"#utility.yul\":19209:19340   */\n      tag_501\n        /* \"#utility.yul\":19335:19339   */\n      dup2\n        /* \"#utility.yul\":19209:19340   */\n      tag_308\n      jump\t// in\n    tag_501:\n        /* \"#utility.yul\":19201:19340   */\n      swap1\n      pop\n        /* \"#utility.yul\":18928:19347   */\n      swap2\n      swap1\n      pop\n      jump\t// out\n        /* \"#utility.yul\":19353:19525   */\n    tag_309:\n        /* \"#utility.yul\":19493:19517   */\n      0x4e6f205265656e7472616e63792c706c73207761697400000000000000000000\n        /* \"#utility.yul\":19489:19490   */\n      0x00\n        /* \"#utility.yul\":19481:19487   */\n      dup3\n        /* \"#utility.yul\":19477:19491   */\n      add\n        /* \"#utility.yul\":19470:19518   */\n      mstore\n        /* \"#utility.yul\":19353:19525   */\n      pop\n      jump\t// out\n        /* \"#utility.yul\":19531:19897   */\n    tag_310:\n        /* \"#utility.yul\":19673:19676   */\n      0x00\n        /* \"#utility.yul\":19694:19761   */\n      tag_504\n        /* \"#utility.yul\":19758:19760   */\n      0x16\n        /* \"#utility.yul\":19753:19756   */\n      dup4\n        /* \"#utility.yul\":19694:19761   */\n      tag_256\n      jump\t// in\n    tag_504:\n        /* \"#utility.yul\":19687:19761   */\n      swap2\n      pop\n        /* \"#utility.yul\":19770:19863   */\n      tag_505\n        /* \"#utility.yul\":19859:19862   */\n      dup3\n        /* \"#utility.yul\":19770:19863   */\n      tag_309\n      jump\t// in\n    tag_505:\n        /* \"#utility.yul\":19888:19890   */\n      0x20\n        /* \"#utility.yul\":19883:19886   */\n      dup3\n        /* \"#utility.yul\":19879:19891   */\n      add\n        /* \"#utility.yul\":19872:19891   */\n      swap1\n      pop\n        /* \"#utility.yul\":19531:19897   */\n      swap2\n      swap1\n      pop\n      jump\t// out\n        /* \"#utility.yul\":19903:20322   */\n    tag_156:\n        /* \"#utility.yul\":20069:20073   */\n      0x00\n        /* \"#utility.yul\":20107:20109   */\n      0x20\n        /* \"#utility.yul\":20096:20105   */\n      dup3\n        /* \"#utility.yul\":20092:20110   */\n      add\n        /* \"#utility.yul\":20084:20110   */\n      swap1\n      pop\n        /* \"#utility.yul\":20156:20165   */\n      dup2\n        /* \"#utility.yul\":20150:20154   */\n      dup2\n        /* \"#utility.yul\":20146:20166   */\n      sub\n        /* \"#utility.yul\":20142:20143   */\n      0x00\n        /* \"#utility.yul\":20131:20140   */\n      dup4\n        /* \"#utility.yul\":20127:20144   */\n      add\n        /* \"#utility.yul\":20120:20167   */\n      mstore\n        /* \"#utility.yul\":20184:20315   */\n      tag_507\n        /* \"#utility.yul\":20310:20314   */\n      dup2\n        /* \"#utility.yul\":20184:20315   */\n      tag_310\n      jump\t// in\n    tag_507:\n        /* \"#utility.yul\":20176:20315   */\n      swap1\n      pop\n        /* \"#utility.yul\":19903:20322   */\n      swap2\n      swap1\n      pop\n      jump\t// out\n        /* \"#utility.yul\":20328:20508   */\n    tag_311:\n        /* \"#utility.yul\":20376:20453   */\n      0x4e487b7100000000000000000000000000000000000000000000000000000000\n        /* \"#utility.yul\":20373:20374   */\n      0x00\n        /* \"#utility.yul\":20366:20454   */\n      mstore\n        /* \"#utility.yul\":20473:20477   */\n      0x11\n        /* \"#utility.yul\":20470:20471   */\n      0x04\n        /* \"#utility.yul\":20463:20478   */\n      mstore\n        /* \"#utility.yul\":20497:20501   */\n      0x24\n        /* \"#utility.yul\":20494:20495   */\n      0x00\n        /* \"#utility.yul\":20487:20502   */\n      revert\n        /* \"#utility.yul\":20514:20747   */\n    tag_160:\n        /* \"#utility.yul\":20553:20556   */\n      0x00\n        /* \"#utility.yul\":20576:20600   */\n      tag_510\n        /* \"#utility.yul\":20594:20599   */\n      dup3\n        /* \"#utility.yul\":20576:20600   */\n      tag_278\n      jump\t// in\n    tag_510:\n        /* \"#utility.yul\":20567:20600   */\n      swap2\n      pop\n        /* \"#utility.yul\":20622:20688   */\n      0xffffffffffffffffffffffffffffffffffffffffffffffffffffffffffffffff\n        /* \"#utility.yul\":20615:20620   */\n      dup3\n        /* \"#utility.yul\":20612:20689   */\n      sub\n        /* \"#utility.yul\":20609:20712   */\n      tag_511\n      jumpi\n        /* \"#utility.yul\":20692:20710   */\n      tag_512\n      tag_311\n      jump\t// in\n    tag_512:\n        /* \"#utility.yul\":20609:20712   */\n    tag_511:\n        /* \"#utility.yul\":20739:20740   */\n      0x01\n        /* \"#utility.yul\":20732:20737   */\n      dup3\n        /* \"#utility.yul\":20728:20741   */\n      add\n        /* \"#utility.yul\":20721:20741   */\n      swap1\n      pop\n        /* \"#utility.yul\":20514:20747   */\n      swap2\n      swap1\n      pop\n      jump\t// out\n        /* \"#utility.yul\":20753:20896   */\n    tag_312:\n        /* \"#utility.yul\":20810:20815   */\n      0x00\n        /* \"#utility.yul\":20841:20847   */\n      dup2\n        /* \"#utility.yul\":20835:20848   */\n      mload\n        /* \"#utility.yul\":20826:20848   */\n      swap1\n      pop\n        /* \"#utility.yul\":20857:20890   */\n      tag_514\n        /* \"#utility.yul\":20884:20889   */\n      dup2\n        /* \"#utility.yul\":20857:20890   */\n      tag_279\n      jump\t// in\n    tag_514:\n        /* \"#utility.yul\":20753:20896   */\n      swap3\n      swap2\n      pop\n      pop\n      jump\t// out\n        /* \"#utility.yul\":20902:21253   */\n    tag_166:\n        /* \"#utility.yul\":20972:20978   */\n      0x00\n        /* \"#utility.yul\":21021:21023   */\n      0x20\n        /* \"#utility.yul\":21009:21018   */\n      dup3\n        /* \"#utility.yul\":21000:21007   */\n      dup5\n        /* \"#utility.yul\":20996:21019   */\n      sub\n        /* \"#utility.yul\":20992:21024   */\n      slt\n        /* \"#utility.yul\":20989:21108   */\n      iszero\n      tag_516\n      jumpi\n        /* \"#utility.yul\":21027:21106   */\n      tag_517\n      tag_267\n      jump\t// in\n    tag_517:\n        /* \"#utility.yul\":20989:21108   */\n    tag_516:\n        /* \"#utility.yul\":21147:21148   */\n      0x00\n        /* \"#utility.yul\":21172:21236   */\n      tag_518\n        /* \"#utility.yul\":21228:21235   */\n      dup5\n        /* \"#utility.yul\":21219:21225   */\n      dup3\n        /* \"#utility.yul\":21208:21217   */\n      dup6\n        /* \"#utility.yul\":21204:21226   */\n      add\n        /* \"#utility.yul\":21172:21236   */\n      tag_312\n      jump\t// in\n    tag_518:\n        /* \"#utility.yul\":21162:21236   */\n      swap2\n      pop\n        /* \"#utility.yul\":21118:21246   */\n      pop\n        /* \"#utility.yul\":20902:21253   */\n      swap3\n      swap2\n      pop\n      pop\n      jump\t// out\n        /* \"#utility.yul\":21259:21422   */\n    tag_313:\n        /* \"#utility.yul\":21399:21414   */\n      0x6e6f206f66666572206d6f726500000000000000000000000000000000000000\n        /* \"#utility.yul\":21395:21396   */\n      0x00\n        /* \"#utility.yul\":21387:21393   */\n      dup3\n        /* \"#utility.yul\":21383:21397   */\n      add\n        /* \"#utility.yul\":21376:21415   */\n      mstore\n        /* \"#utility.yul\":21259:21422   */\n      pop\n      jump\t// out\n        /* \"#utility.yul\":21428:21794   */\n    tag_314:\n        /* \"#utility.yul\":21570:21573   */\n      0x00\n        /* \"#utility.yul\":21591:21658   */\n      tag_521\n        /* \"#utility.yul\":21655:21657   */\n      0x0d\n        /* \"#utility.yul\":21650:21653   */\n      dup4\n        /* \"#utility.yul\":21591:21658   */\n      tag_256\n      jump\t// in\n    tag_521:\n        /* \"#utility.yul\":21584:21658   */\n      swap2\n      pop\n        /* \"#utility.yul\":21667:21760   */\n      tag_522\n        /* \"#utility.yul\":21756:21759   */\n      dup3\n        /* \"#utility.yul\":21667:21760   */\n      tag_313\n      jump\t// in\n    tag_522:\n        /* \"#utility.yul\":21785:21787   */\n      0x20\n        /* \"#utility.yul\":21780:21783   */\n      dup3\n        /* \"#utility.yul\":21776:21788   */\n      add\n        /* \"#utility.yul\":21769:21788   */\n      swap1\n      pop\n        /* \"#utility.yul\":21428:21794   */\n      swap2\n      swap1\n      pop\n      jump\t// out\n        /* \"#utility.yul\":21800:22219   */\n    tag_170:\n        /* \"#utility.yul\":21966:21970   */\n      0x00\n        /* \"#utility.yul\":22004:22006   */\n      0x20\n        /* \"#utility.yul\":21993:22002   */\n      dup3\n        /* \"#utility.yul\":21989:22007   */\n      add\n        /* \"#utility.yul\":21981:22007   */\n      swap1\n      pop\n        /* \"#utility.yul\":22053:22062   */\n      dup2\n        /* \"#utility.yul\":22047:22051   */\n      dup2\n        /* \"#utility.yul\":22043:22063   */\n      sub\n        /* \"#utility.yul\":22039:22040   */\n      0x00\n        /* \"#utility.yul\":22028:22037   */\n      dup4\n        /* \"#utility.yul\":22024:22041   */\n      add\n        /* \"#utility.yul\":22017:22064   */\n      mstore\n        /* \"#utility.yul\":22081:22212   */\n      tag_524\n        /* \"#utility.yul\":22207:22211   */\n      dup2\n        /* \"#utility.yul\":22081:22212   */\n      tag_314\n      jump\t// in\n    tag_524:\n        /* \"#utility.yul\":22073:22212   */\n      swap1\n      pop\n        /* \"#utility.yul\":21800:22219   */\n      swap2\n      swap1\n      pop\n      jump\t// out\n        /* \"#utility.yul\":22225:22635   */\n    tag_172:\n        /* \"#utility.yul\":22265:22272   */\n      0x00\n        /* \"#utility.yul\":22288:22308   */\n      tag_526\n        /* \"#utility.yul\":22306:22307   */\n      dup3\n        /* \"#utility.yul\":22288:22308   */\n      tag_278\n      jump\t// in\n    tag_526:\n        /* \"#utility.yul\":22283:22308   */\n      swap2\n      pop\n        /* \"#utility.yul\":22322:22342   */\n      tag_527\n        /* \"#utility.yul\":22340:22341   */\n      dup4\n        /* \"#utility.yul\":22322:22342   */\n      tag_278\n      jump\t// in\n    tag_527:\n        /* \"#utility.yul\":22317:22342   */\n      swap3\n      pop\n        /* \"#utility.yul\":22377:22378   */\n      dup3\n        /* \"#utility.yul\":22374:22375   */\n      dup3\n        /* \"#utility.yul\":22370:22379   */\n      mul\n        /* \"#utility.yul\":22399:22429   */\n      tag_528\n        /* \"#utility.yul\":22417:22428   */\n      dup2\n        /* \"#utility.yul\":22399:22429   */\n      tag_278\n      jump\t// in\n    tag_528:\n        /* \"#utility.yul\":22388:22429   */\n      swap2\n      pop\n        /* \"#utility.yul\":22578:22579   */\n      dup3\n        /* \"#utility.yul\":22569:22576   */\n      dup3\n        /* \"#utility.yul\":22565:22580   */\n      div\n        /* \"#utility.yul\":22562:22563   */\n      dup5\n        /* \"#utility.yul\":22559:22581   */\n      eq\n        /* \"#utility.yul\":22539:22540   */\n      dup4\n        /* \"#utility.yul\":22532:22541   */\n      iszero\n        /* \"#utility.yul\":22512:22595   */\n      or\n        /* \"#utility.yul\":22489:22628   */\n      tag_529\n      jumpi\n        /* \"#utility.yul\":22608:22626   */\n      tag_530\n      tag_311\n      jump\t// in\n    tag_530:\n        /* \"#utility.yul\":22489:22628   */\n    tag_529:\n        /* \"#utility.yul\":22273:22635   */\n      pop\n        /* \"#utility.yul\":22225:22635   */\n      swap3\n      swap2\n      pop\n      pop\n      jump\t// out\n        /* \"#utility.yul\":22641:22821   */\n    tag_315:\n        /* \"#utility.yul\":22689:22766   */\n      0x4e487b7100000000000000000000000000000000000000000000000000000000\n        /* \"#utility.yul\":22686:22687   */\n      0x00\n        /* \"#utility.yul\":22679:22767   */\n      mstore\n        /* \"#utility.yul\":22786:22790   */\n      0x12\n        /* \"#utility.yul\":22783:22784   */\n      0x04\n        /* \"#utility.yul\":22776:22791   */\n      mstore\n        /* \"#utility.yul\":22810:22814   */\n      0x24\n        /* \"#utility.yul\":22807:22808   */\n      0x00\n        /* \"#utility.yul\":22800:22815   */\n      revert\n        /* \"#utility.yul\":22827:23012   */\n    tag_174:\n        /* \"#utility.yul\":22867:22868   */\n      0x00\n        /* \"#utility.yul\":22884:22904   */\n      tag_533\n        /* \"#utility.yul\":22902:22903   */\n      dup3\n        /* \"#utility.yul\":22884:22904   */\n      tag_278\n      jump\t// in\n    tag_533:\n        /* \"#utility.yul\":22879:22904   */\n      swap2\n      pop\n        /* \"#utility.yul\":22918:22938   */\n      tag_534\n        /* \"#utility.yul\":22936:22937   */\n      dup4\n        /* \"#utility.yul\":22918:22938   */\n      tag_278\n      jump\t// in\n    tag_534:\n        /* \"#utility.yul\":22913:22938   */\n      swap3\n      pop\n        /* \"#utility.yul\":22957:22958   */\n      dup3\n        /* \"#utility.yul\":22947:22982   */\n      tag_535\n      jumpi\n        /* \"#utility.yul\":22962:22980   */\n      tag_536\n      tag_315\n      jump\t// in\n    tag_536:\n        /* \"#utility.yul\":22947:22982   */\n    tag_535:\n        /* \"#utility.yul\":23004:23005   */\n      dup3\n        /* \"#utility.yul\":23001:23002   */\n      dup3\n        /* \"#utility.yul\":22997:23006   */\n      div\n        /* \"#utility.yul\":22992:23006   */\n      swap1\n      pop\n        /* \"#utility.yul\":22827:23012   */\n      swap3\n      swap2\n      pop\n      pop\n      jump\t// out\n        /* \"#utility.yul\":23018:23209   */\n    tag_182:\n        /* \"#utility.yul\":23058:23061   */\n      0x00\n        /* \"#utility.yul\":23077:23097   */\n      tag_538\n        /* \"#utility.yul\":23095:23096   */\n      dup3\n        /* \"#utility.yul\":23077:23097   */\n      tag_278\n      jump\t// in\n    tag_538:\n        /* \"#utility.yul\":23072:23097   */\n      swap2\n      pop\n        /* \"#utility.yul\":23111:23131   */\n      tag_539\n        /* \"#utility.yul\":23129:23130   */\n      dup4\n        /* \"#utility.yul\":23111:23131   */\n      tag_278\n      jump\t// in\n    tag_539:\n        /* \"#utility.yul\":23106:23131   */\n      swap3\n      pop\n        /* \"#utility.yul\":23154:23155   */\n      dup3\n        /* \"#utility.yul\":23151:23152   */\n      dup3\n        /* \"#utility.yul\":23147:23156   */\n      add\n        /* \"#utility.yul\":23140:23156   */\n      swap1\n      pop\n        /* \"#utility.yul\":23175:23178   */\n      dup1\n        /* \"#utility.yul\":23172:23173   */\n      dup3\n        /* \"#utility.yul\":23169:23179   */\n      gt\n        /* \"#utility.yul\":23166:23202   */\n      iszero\n      tag_540\n      jumpi\n        /* \"#utility.yul\":23182:23200   */\n      tag_541\n      tag_311\n      jump\t// in\n    tag_541:\n        /* \"#utility.yul\":23166:23202   */\n    tag_540:\n        /* \"#utility.yul\":23018:23209   */\n      swap3\n      swap2\n      pop\n      pop\n      jump\t// out\n        /* \"#utility.yul\":23215:23395   */\n    tag_189:\n        /* \"#utility.yul\":23263:23340   */\n      0x4e487b7100000000000000000000000000000000000000000000000000000000\n        /* \"#utility.yul\":23260:23261   */\n      0x00\n        /* \"#utility.yul\":23253:23341   */\n      mstore\n        /* \"#utility.yul\":23360:23364   */\n      0x32\n        /* \"#utility.yul\":23357:23358   */\n      0x04\n        /* \"#utility.yul\":23350:23365   */\n      mstore\n        /* \"#utility.yul\":23384:23388   */\n      0x24\n        /* \"#utility.yul\":23381:23382   */\n      0x00\n        /* \"#utility.yul\":23374:23389   */\n      revert\n        /* \"#utility.yul\":23401:23561   */\n    tag_316:\n        /* \"#utility.yul\":23541:23553   */\n      0x4f6e6c79206f776e657200000000000000000000000000000000000000000000\n        /* \"#utility.yul\":23537:23538   */\n      0x00\n        /* \"#utility.yul\":23529:23535   */\n      dup3\n        /* \"#utility.yul\":23525:23539   */\n      add\n        /* \"#utility.yul\":23518:23554   */\n      mstore\n        /* \"#utility.yul\":23401:23561   */\n      pop\n      jump\t// out\n        /* \"#utility.yul\":23567:23933   */\n    tag_317:\n        /* \"#utility.yul\":23709:23712   */\n      0x00\n        /* \"#utility.yul\":23730:23797   */\n      tag_545\n        /* \"#utility.yul\":23794:23796   */\n      0x0a\n        /* \"#utility.yul\":23789:23792   */\n      dup4\n        /* \"#utility.yul\":23730:23797   */\n      tag_256\n      jump\t// in\n    tag_545:\n        /* \"#utility.yul\":23723:23797   */\n      swap2\n      pop\n        /* \"#utility.yul\":23806:23899   */\n      tag_546\n        /* \"#utility.yul\":23895:23898   */\n      dup3\n        /* \"#utility.yul\":23806:23899   */\n      tag_316\n      jump\t// in\n    tag_546:\n        /* \"#utility.yul\":23924:23926   */\n      0x20\n        /* \"#utility.yul\":23919:23922   */\n      dup3\n        /* \"#utility.yul\":23915:23927   */\n      add\n        /* \"#utility.yul\":23908:23927   */\n      swap1\n      pop\n        /* \"#utility.yul\":23567:23933   */\n      swap2\n      swap1\n      pop\n      jump\t// out\n        /* \"#utility.yul\":23939:24358   */\n    tag_196:\n        /* \"#utility.yul\":24105:24109   */\n      0x00\n        /* \"#utility.yul\":24143:24145   */\n      0x20\n        /* \"#utility.yul\":24132:24141   */\n      dup3\n        /* \"#utility.yul\":24128:24146   */\n      add\n        /* \"#utility.yul\":24120:24146   */\n      swap1\n      pop\n        /* \"#utility.yul\":24192:24201   */\n      dup2\n        /* \"#utility.yul\":24186:24190   */\n      dup2\n        /* \"#utility.yul\":24182:24202   */\n      sub\n        /* \"#utility.yul\":24178:24179   */\n      0x00\n        /* \"#utility.yul\":24167:24176   */\n      dup4\n        /* \"#utility.yul\":24163:24180   */\n      add\n        /* \"#utility.yul\":24156:24203   */\n      mstore\n        /* \"#utility.yul\":24220:24351   */\n      tag_548\n        /* \"#utility.yul\":24346:24350   */\n      dup2\n        /* \"#utility.yul\":24220:24351   */\n      tag_317\n      jump\t// in\n    tag_548:\n        /* \"#utility.yul\":24212:24351   */\n      swap1\n      pop\n        /* \"#utility.yul\":23939:24358   */\n      swap2\n      swap1\n      pop\n      jump\t// out\n        /* \"#utility.yul\":24364:24481   */\n    tag_318:\n        /* \"#utility.yul\":24473:24474   */\n      0x00\n        /* \"#utility.yul\":24470:24471   */\n      dup1\n        /* \"#utility.yul\":24463:24475   */\n      revert\n        /* \"#utility.yul\":24487:24604   */\n    tag_319:\n        /* \"#utility.yul\":24596:24597   */\n      0x00\n        /* \"#utility.yul\":24593:24594   */\n      dup1\n        /* \"#utility.yul\":24586:24598   */\n      revert\n        /* \"#utility.yul\":24610:24790   */\n    tag_320:\n        /* \"#utility.yul\":24658:24735   */\n      0x4e487b7100000000000000000000000000000000000000000000000000000000\n        /* \"#utility.yul\":24655:24656   */\n      0x00\n        /* \"#utility.yul\":24648:24736   */\n      mstore\n        /* \"#utility.yul\":24755:24759   */\n      0x41\n        /* \"#utility.yul\":24752:24753   */\n      0x04\n        /* \"#utility.yul\":24745:24760   */\n      mstore\n        /* \"#utility.yul\":24779:24783   */\n      0x24\n        /* \"#utility.yul\":24776:24777   */\n      0x00\n        /* \"#utility.yul\":24769:24784   */\n      revert\n        /* \"#utility.yul\":24796:25077   */\n    tag_321:\n        /* \"#utility.yul\":24879:24906   */\n      tag_553\n        /* \"#utility.yul\":24901:24905   */\n      dup3\n        /* \"#utility.yul\":24879:24906   */\n      tag_288\n      jump\t// in\n    tag_553:\n        /* \"#utility.yul\":24871:24877   */\n      dup2\n        /* \"#utility.yul\":24867:24907   */\n      add\n        /* \"#utility.yul\":25009:25015   */\n      dup2\n        /* \"#utility.yul\":24997:25007   */\n      dup2\n        /* \"#utility.yul\":24994:25016   */\n      lt\n        /* \"#utility.yul\":24973:24991   */\n      0xffffffffffffffff\n        /* \"#utility.yul\":24961:24971   */\n      dup3\n        /* \"#utility.yul\":24958:24992   */\n      gt\n        /* \"#utility.yul\":24955:25017   */\n      or\n        /* \"#utility.yul\":24952:25040   */\n      iszero\n      tag_554\n      jumpi\n        /* \"#utility.yul\":25020:25038   */\n      tag_555\n      tag_320\n      jump\t// in\n    tag_555:\n        /* \"#utility.yul\":24952:25040   */\n    tag_554:\n        /* \"#utility.yul\":25060:25070   */\n      dup1\n        /* \"#utility.yul\":25056:25058   */\n      0x40\n        /* \"#utility.yul\":25049:25071   */\n      mstore\n        /* \"#utility.yul\":24839:25077   */\n      pop\n        /* \"#utility.yul\":24796:25077   */\n      pop\n      pop\n      jump\t// out\n        /* \"#utility.yul\":25083:25212   */\n    tag_322:\n        /* \"#utility.yul\":25117:25123   */\n      0x00\n        /* \"#utility.yul\":25144:25164   */\n      tag_557\n      tag_266\n      jump\t// in\n    tag_557:\n        /* \"#utility.yul\":25134:25164   */\n      swap1\n      pop\n        /* \"#utility.yul\":25173:25206   */\n      tag_558\n        /* \"#utility.yul\":25201:25205   */\n      dup3\n        /* \"#utility.yul\":25193:25199   */\n      dup3\n        /* \"#utility.yul\":25173:25206   */\n      tag_321\n      jump\t// in\n    tag_558:\n        /* \"#utility.yul\":25083:25212   */\n      swap2\n      swap1\n      pop\n      jump\t// out\n        /* \"#utility.yul\":25218:25526   */\n    tag_323:\n        /* \"#utility.yul\":25280:25284   */\n      0x00\n        /* \"#utility.yul\":25370:25388   */\n      0xffffffffffffffff\n        /* \"#utility.yul\":25362:25368   */\n      dup3\n        /* \"#utility.yul\":25359:25389   */\n      gt\n        /* \"#utility.yul\":25356:25412   */\n      iszero\n      tag_560\n      jumpi\n        /* \"#utility.yul\":25392:25410   */\n      tag_561\n      tag_320\n      jump\t// in\n    tag_561:\n        /* \"#utility.yul\":25356:25412   */\n    tag_560:\n        /* \"#utility.yul\":25430:25459   */\n      tag_562\n        /* \"#utility.yul\":25452:25458   */\n      dup3\n        /* \"#utility.yul\":25430:25459   */\n      tag_288\n      jump\t// in\n    tag_562:\n        /* \"#utility.yul\":25422:25459   */\n      swap1\n      pop\n        /* \"#utility.yul\":25514:25518   */\n      0x20\n        /* \"#utility.yul\":25508:25512   */\n      dup2\n        /* \"#utility.yul\":25504:25519   */\n      add\n        /* \"#utility.yul\":25496:25519   */\n      swap1\n      pop\n        /* \"#utility.yul\":25218:25526   */\n      swap2\n      swap1\n      pop\n      jump\t// out\n        /* \"#utility.yul\":25532:25966   */\n    tag_324:\n        /* \"#utility.yul\":25621:25626   */\n      0x00\n        /* \"#utility.yul\":25646:25712   */\n      tag_564\n        /* \"#utility.yul\":25662:25711   */\n      tag_565\n        /* \"#utility.yul\":25704:25710   */\n      dup5\n        /* \"#utility.yul\":25662:25711   */\n      tag_323\n      jump\t// in\n    tag_565:\n        /* \"#utility.yul\":25646:25712   */\n      tag_322\n      jump\t// in\n    tag_564:\n        /* \"#utility.yul\":25637:25712   */\n      swap1\n      pop\n        /* \"#utility.yul\":25735:25741   */\n      dup3\n        /* \"#utility.yul\":25728:25733   */\n      dup2\n        /* \"#utility.yul\":25721:25742   */\n      mstore\n        /* \"#utility.yul\":25773:25777   */\n      0x20\n        /* \"#utility.yul\":25766:25771   */\n      dup2\n        /* \"#utility.yul\":25762:25778   */\n      add\n        /* \"#utility.yul\":25811:25814   */\n      dup5\n        /* \"#utility.yul\":25802:25808   */\n      dup5\n        /* \"#utility.yul\":25797:25800   */\n      dup5\n        /* \"#utility.yul\":25793:25809   */\n      add\n        /* \"#utility.yul\":25790:25815   */\n      gt\n        /* \"#utility.yul\":25787:25899   */\n      iszero\n      tag_566\n      jumpi\n        /* \"#utility.yul\":25818:25897   */\n      tag_567\n      tag_319\n      jump\t// in\n    tag_567:\n        /* \"#utility.yul\":25787:25899   */\n    tag_566:\n        /* \"#utility.yul\":25908:25960   */\n      tag_568\n        /* \"#utility.yul\":25953:25959   */\n      dup5\n        /* \"#utility.yul\":25948:25951   */\n      dup3\n        /* \"#utility.yul\":25943:25946   */\n      dup6\n        /* \"#utility.yul\":25908:25960   */\n      tag_287\n      jump\t// in\n    tag_568:\n        /* \"#utility.yul\":25627:25966   */\n      pop\n        /* \"#utility.yul\":25532:25966   */\n      swap4\n      swap3\n      pop\n      pop\n      pop\n      jump\t// out\n        /* \"#utility.yul\":25986:26341   */\n    tag_325:\n        /* \"#utility.yul\":26053:26058   */\n      0x00\n        /* \"#utility.yul\":26102:26105   */\n      dup3\n        /* \"#utility.yul\":26095:26099   */\n      0x1f\n        /* \"#utility.yul\":26087:26093   */\n      dup4\n        /* \"#utility.yul\":26083:26100   */\n      add\n        /* \"#utility.yul\":26079:26106   */\n      slt\n        /* \"#utility.yul\":26069:26191   */\n      tag_570\n      jumpi\n        /* \"#utility.yul\":26110:26189   */\n      tag_571\n      tag_318\n      jump\t// in\n    tag_571:\n        /* \"#utility.yul\":26069:26191   */\n    tag_570:\n        /* \"#utility.yul\":26220:26226   */\n      dup2\n        /* \"#utility.yul\":26214:26227   */\n      mload\n        /* \"#utility.yul\":26245:26335   */\n      tag_572\n        /* \"#utility.yul\":26331:26334   */\n      dup5\n        /* \"#utility.yul\":26323:26329   */\n      dup3\n        /* \"#utility.yul\":26316:26320   */\n      0x20\n        /* \"#utility.yul\":26308:26314   */\n      dup7\n        /* \"#utility.yul\":26304:26321   */\n      add\n        /* \"#utility.yul\":26245:26335   */\n      tag_324\n      jump\t// in\n    tag_572:\n        /* \"#utility.yul\":26236:26335   */\n      swap2\n      pop\n        /* \"#utility.yul\":26059:26341   */\n      pop\n        /* \"#utility.yul\":25986:26341   */\n      swap3\n      swap2\n      pop\n      pop\n      jump\t// out\n        /* \"#utility.yul\":26347:26871   */\n    tag_208:\n        /* \"#utility.yul\":26427:26433   */\n      0x00\n        /* \"#utility.yul\":26476:26478   */\n      0x20\n        /* \"#utility.yul\":26464:26473   */\n      dup3\n        /* \"#utility.yul\":26455:26462   */\n      dup5\n        /* \"#utility.yul\":26451:26474   */\n      sub\n        /* \"#utility.yul\":26447:26479   */\n      slt\n        /* \"#utility.yul\":26444:26563   */\n      iszero\n      tag_574\n      jumpi\n        /* \"#utility.yul\":26482:26561   */\n      tag_575\n      tag_267\n      jump\t// in\n    tag_575:\n        /* \"#utility.yul\":26444:26563   */\n    tag_574:\n        /* \"#utility.yul\":26623:26624   */\n      0x00\n        /* \"#utility.yul\":26612:26621   */\n      dup3\n        /* \"#utility.yul\":26608:26625   */\n      add\n        /* \"#utility.yul\":26602:26626   */\n      mload\n        /* \"#utility.yul\":26653:26671   */\n      0xffffffffffffffff\n        /* \"#utility.yul\":26645:26651   */\n      dup2\n        /* \"#utility.yul\":26642:26672   */\n      gt\n        /* \"#utility.yul\":26639:26756   */\n      iszero\n      tag_576\n      jumpi\n        /* \"#utility.yul\":26675:26754   */\n      tag_577\n      tag_268\n      jump\t// in\n    tag_577:\n        /* \"#utility.yul\":26639:26756   */\n    tag_576:\n        /* \"#utility.yul\":26780:26854   */\n      tag_578\n        /* \"#utility.yul\":26846:26853   */\n      dup5\n        /* \"#utility.yul\":26837:26843   */\n      dup3\n        /* \"#utility.yul\":26826:26835   */\n      dup6\n        /* \"#utility.yul\":26822:26844   */\n      add\n        /* \"#utility.yul\":26780:26854   */\n      tag_325\n      jump\t// in\n    tag_578:\n        /* \"#utility.yul\":26770:26854   */\n      swap2\n      pop\n        /* \"#utility.yul\":26573:26864   */\n      pop\n        /* \"#utility.yul\":26347:26871   */\n      swap3\n      swap2\n      pop\n      pop\n      jump\t// out\n        /* \"#utility.yul\":26877:27054   */\n    tag_326:\n        /* \"#utility.yul\":27017:27046   */\n      0x6d696e2073686f756c64206265206d6f7265207468616e207461780000000000\n        /* \"#utility.yul\":27013:27014   */\n      0x00\n        /* \"#utility.yul\":27005:27011   */\n      dup3\n        /* \"#utility.yul\":27001:27015   */\n      add\n        /* \"#utility.yul\":26994:27047   */\n      mstore\n        /* \"#utility.yul\":26877:27054   */\n      pop\n      jump\t// out\n        /* \"#utility.yul\":27060:27426   */\n    tag_327:\n        /* \"#utility.yul\":27202:27205   */\n      0x00\n        /* \"#utility.yul\":27223:27290   */\n      tag_581\n        /* \"#utility.yul\":27287:27289   */\n      0x1b\n        /* \"#utility.yul\":27282:27285   */\n      dup4\n        /* \"#utility.yul\":27223:27290   */\n      tag_256\n      jump\t// in\n    tag_581:\n        /* \"#utility.yul\":27216:27290   */\n      swap2\n      pop\n        /* \"#utility.yul\":27299:27392   */\n      tag_582\n        /* \"#utility.yul\":27388:27391   */\n      dup3\n        /* \"#utility.yul\":27299:27392   */\n      tag_326\n      jump\t// in\n    tag_582:\n        /* \"#utility.yul\":27417:27419   */\n      0x20\n        /* \"#utility.yul\":27412:27415   */\n      dup3\n        /* \"#utility.yul\":27408:27420   */\n      add\n        /* \"#utility.yul\":27401:27420   */\n      swap1\n      pop\n        /* \"#utility.yul\":27060:27426   */\n      swap2\n      swap1\n      pop\n      jump\t// out\n        /* \"#utility.yul\":27432:27851   */\n    tag_238:\n        /* \"#utility.yul\":27598:27602   */\n      0x00\n        /* \"#utility.yul\":27636:27638   */\n      0x20\n        /* \"#utility.yul\":27625:27634   */\n      dup3\n        /* \"#utility.yul\":27621:27639   */\n      add\n        /* \"#utility.yul\":27613:27639   */\n      swap1\n      pop\n        /* \"#utility.yul\":27685:27694   */\n      dup2\n        /* \"#utility.yul\":27679:27683   */\n      dup2\n        /* \"#utility.yul\":27675:27695   */\n      sub\n        /* \"#utility.yul\":27671:27672   */\n      0x00\n        /* \"#utility.yul\":27660:27669   */\n      dup4\n        /* \"#utility.yul\":27656:27673   */\n      add\n        /* \"#utility.yul\":27649:27696   */\n      mstore\n        /* \"#utility.yul\":27713:27844   */\n      tag_584\n        /* \"#utility.yul\":27839:27843   */\n      dup2\n        /* \"#utility.yul\":27713:27844   */\n      tag_327\n      jump\t// in\n    tag_584:\n        /* \"#utility.yul\":27705:27844   */\n      swap1\n      pop\n        /* \"#utility.yul\":27432:27851   */\n      swap2\n      swap1\n      pop\n      jump\t// out\n        /* \"#utility.yul\":27857:28022   */\n    tag_328:\n        /* \"#utility.yul\":27997:28014   */\n      0x496e76616c696420616464726573730000000000000000000000000000000000\n        /* \"#utility.yul\":27993:27994   */\n      0x00\n        /* \"#utility.yul\":27985:27991   */\n      dup3\n        /* \"#utility.yul\":27981:27995   */\n      add\n        /* \"#utility.yul\":27974:28015   */\n      mstore\n        /* \"#utility.yul\":27857:28022   */\n      pop\n      jump\t// out\n        /* \"#utility.yul\":28028:28394   */\n    tag_329:\n        /* \"#utility.yul\":28170:28173   */\n      0x00\n        /* \"#utility.yul\":28191:28258   */\n      tag_587\n        /* \"#utility.yul\":28255:28257   */\n      0x0f\n        /* \"#utility.yul\":28250:28253   */\n      dup4\n        /* \"#utility.yul\":28191:28258   */\n      tag_256\n      jump\t// in\n    tag_587:\n        /* \"#utility.yul\":28184:28258   */\n      swap2\n      pop\n        /* \"#utility.yul\":28267:28360   */\n      tag_588\n        /* \"#utility.yul\":28356:28359   */\n      dup3\n        /* \"#utility.yul\":28267:28360   */\n      tag_328\n      jump\t// in\n    tag_588:\n        /* \"#utility.yul\":28385:28387   */\n      0x20\n        /* \"#utility.yul\":28380:28383   */\n      dup3\n        /* \"#utility.yul\":28376:28388   */\n      add\n        /* \"#utility.yul\":28369:28388   */\n      swap1\n      pop\n        /* \"#utility.yul\":28028:28394   */\n      swap2\n      swap1\n      pop\n      jump\t// out\n        /* \"#utility.yul\":28400:28819   */\n    tag_245:\n        /* \"#utility.yul\":28566:28570   */\n      0x00\n        /* \"#utility.yul\":28604:28606   */\n      0x20\n        /* \"#utility.yul\":28593:28602   */\n      dup3\n        /* \"#utility.yul\":28589:28607   */\n      add\n        /* \"#utility.yul\":28581:28607   */\n      swap1\n      pop\n        /* \"#utility.yul\":28653:28662   */\n      dup2\n        /* \"#utility.yul\":28647:28651   */\n      dup2\n        /* \"#utility.yul\":28643:28663   */\n      sub\n        /* \"#utility.yul\":28639:28640   */\n      0x00\n        /* \"#utility.yul\":28628:28637   */\n      dup4\n        /* \"#utility.yul\":28624:28641   */\n      add\n        /* \"#utility.yul\":28617:28664   */\n      mstore\n        /* \"#utility.yul\":28681:28812   */\n      tag_590\n        /* \"#utility.yul\":28807:28811   */\n      dup2\n        /* \"#utility.yul\":28681:28812   */\n      tag_329\n      jump\t// in\n    tag_590:\n        /* \"#utility.yul\":28673:28812   */\n      swap1\n      pop\n        /* \"#utility.yul\":28400:28819   */\n      swap2\n      swap1\n      pop\n      jump\t// out\n\n    auxdata: 0xa264697066735822122029dbc3f2b259ed0b8784b440dcbb777027cc8dedca05cb5395eec7036dc6965164736f6c63430008180033\n}\n",
				"bytecode": {
					"linkReferences": {},
					"object": "608060405234801562000010575f80fd5b50604051620029303803806200293083398181016040528101906200003691906200015e565b3360015f6101000a81548173ffffffffffffffffffffffffffffffffffffffff021916908373ffffffffffffffffffffffffffffffffffffffff16021790555060018060156101000a81548160ff021916908360ff160217905550805f806101000a81548173ffffffffffffffffffffffffffffffffffffffff021916908373ffffffffffffffffffffffffffffffffffffffff160217905550653b1dfde91000600381905550662386f26fc100006004819055505f600581905550506200018e565b5f80fd5b5f73ffffffffffffffffffffffffffffffffffffffff82169050919050565b5f6200012882620000fd565b9050919050565b6200013a816200011c565b811462000145575f80fd5b50565b5f8151905062000158816200012f565b92915050565b5f60208284031215620001765762000175620000f9565b5b5f620001858482850162000148565b91505092915050565b612794806200019c5f395ff3fe60806040526004361061010c575f3560e01c80638da5cb5b11610094578063b76bdf0611610063578063b76bdf0614610646578063bff1f9e11461066e578063fa09e63014610698578063fdbb6696146106c0578063ffbe653d146106fc5761022b565b80638da5cb5b146105a2578063a2f5546e146105cc578063ae243031146105f4578063af6b55581461061e5761022b565b806354eb7ebe116100db57806354eb7ebe146104c25780635f1276a7146104ec578063672cbe1a146105145780636ed6da9e1461053e5780637ce8a08e1461057a5761022b565b80632a2a92cc146103f85780632b956ff71461043457806331bbf55514610470578063487cb6b0146104ac5761022b565b3661022b57600454341015610156576040517f08c379a000000000000000000000000000000000000000000000000000000000815260040161014d90611a75565b60405180910390fd5b5f805f9054906101000a900473ffffffffffffffffffffffffffffffffffffffff1673ffffffffffffffffffffffffffffffffffffffff1660035460405161019d90611ac0565b5f6040518083038185875af1925050503d805f81146101d7576040519150601f19603f3d011682016040523d82523d5f602084013e6101dc565b606091505b5050905080610220576040517f08c379a000000000000000000000000000000000000000000000000000000000815260040161021790611b1e565b60405180910390fd5b6102295f610738565b005b600454341015610270576040517f08c379a000000000000000000000000000000000000000000000000000000000815260040161026790611a75565b60405180910390fd5b60205f36905010156102b7576040517f08c379a00000000000000000000000000000000000000000000000000000000081526004016102ae90611b86565b60405180910390fd5b5f368101906102c69190611bea565b156103155766b1a2bc2ec500003414610314576040517f08c379a000000000000000000000000000000000000000000000000000000000815260040161030b90611c5f565b60405180910390fd5b5b5f805f9054906101000a900473ffffffffffffffffffffffffffffffffffffffff1673ffffffffffffffffffffffffffffffffffffffff1660035460405161035c90611ac0565b5f6040518083038185875af1925050503d805f8114610396576040519150601f19603f3d011682016040523d82523d5f602084013e61039b565b606091505b50509050806103df576040517f08c379a00000000000000000000000000000000000000000000000000000000081526004016103d690611b1e565b60405180910390fd5b6103f65f368101906103f19190611bea565b610738565b005b348015610403575f80fd5b5061041e60048036038101906104199190611d0a565b610e14565b60405161042b9190611dc5565b60405180910390f35b34801561043f575f80fd5b5061045a60048036038101906104559190611dde565b610ed7565b6040516104679190611e18565b60405180910390f35b34801561047b575f80fd5b5061049660048036038101906104919190611dde565b610f1d565b6040516104a39190611e18565b60405180910390f35b3480156104b7575f80fd5b506104c0610f7a565b005b3480156104cd575f80fd5b506104d6611085565b6040516104e39190611eab565b60405180910390f35b3480156104f7575f80fd5b50610512600480360381019061050d9190611f06565b6111aa565b005b34801561051f575f80fd5b5061052861127c565b6040516105359190611e18565b60405180910390f35b348015610549575f80fd5b50610564600480360381019061055f9190611f31565b6112a9565b60405161057191906120d5565b60405180910390f35b348015610585575f80fd5b506105a0600480360381019061059b919061211f565b6113e1565b005b3480156105ad575f80fd5b506105b661148e565b6040516105c39190612159565b60405180910390f35b3480156105d7575f80fd5b506105f260048036038101906105ed9190612172565b6114b3565b005b3480156105ff575f80fd5b50610608611562565b60405161061591906121bf565b60405180910390f35b348015610629575f80fd5b50610644600480360381019061063f9190611f06565b611575565b005b348015610651575f80fd5b5061066c60048036038101906106679190611f31565b611646565b005b348015610679575f80fd5b50610682611724565b60405161068f9190611e18565b60405180910390f35b3480156106a3575f80fd5b506106be60048036038101906106b99190611f06565b61172a565b005b3480156106cb575f80fd5b506106e660048036038101906106e19190611dde565b61186e565b6040516106f39190611e18565b60405180910390f35b348015610707575f80fd5b50610722600480360381019061071d919061211f565b6118c8565b60405161072f9190611e18565b60405180910390f35b5f600160159054906101000a900460ff1660ff160361078c576040517f08c379a000000000000000000000000000000000000000000000000000000000815260040161078390612222565b60405180910390fd5b60011515600160149054906101000a900460ff161515036107e2576040517f08c379a00000000000000000000000000000000000000000000000000000000081526004016107d99061228a565b60405180910390fd5b60018060146101000a81548160ff0219169083151502179055505f60065f3373ffffffffffffffffffffffffffffffffffffffff1673ffffffffffffffffffffffffffffffffffffffff1681526020019081526020015f205403610a555760055f815480929190610852906122d5565b919050555060055460065f3373ffffffffffffffffffffffffffffffffffffffff1673ffffffffffffffffffffffffffffffffffffffff1681526020019081526020015f20819055505f60075f60065f3373ffffffffffffffffffffffffffffffffffffffff1673ffffffffffffffffffffffffffffffffffffffff1681526020019081526020015f205481526020019081526020015f20905033815f015f6101000a81548173ffffffffffffffffffffffffffffffffffffffff021916908373ffffffffffffffffffffffffffffffffffffffff1602179055505f81600101819055506001816002015f6101000a81548160ff0219169083151502179055508060075f60065f3373ffffffffffffffffffffffffffffffffffffffff1673ffffffffffffffffffffffffffffffffffffffff1681526020019081526020015f205481526020019081526020015f205f82015f9054906101000a900473ffffffffffffffffffffffffffffffffffffffff16815f015f6101000a81548173ffffffffffffffffffffffffffffffffffffffff021916908373ffffffffffffffffffffffffffffffffffffffff16021790555060018201548160010155600282015f9054906101000a900460ff16816002015f6101000a81548160ff0219169083151502179055506003820181600301908054610a4f9291906118dd565b50905050505b5f805f9054906101000a900473ffffffffffffffffffffffffffffffffffffffff1673ffffffffffffffffffffffffffffffffffffffff1663e03d16326040518163ffffffff1660e01b8152600401602060405180830381865afa158015610abf573d5f803e3d5ffd5b505050506040513d601f19601f82011682018060405250810190610ae39190612330565b90505f8215610c535760075f60065f3373ffffffffffffffffffffffffffffffffffffffff1673ffffffffffffffffffffffffffffffffffffffff1681526020019081526020015f205481526020019081526020015f206002015f9054906101000a900460ff16610b89576040517f08c379a0000000000000000000000000000000000000000000000000000000008152600401610b80906123a5565b60405180910390fd5b6002805f600160159054906101000a900460ff1660ff1660ff1681526020019081526020015f205483670de0b6b3a764000034610bc691906123c3565b610bd09190612431565b610bda9190612431565b610be491906123c3565b90505f60075f60065f3373ffffffffffffffffffffffffffffffffffffffff1673ffffffffffffffffffffffffffffffffffffffff1681526020019081526020015f205481526020019081526020015f206002015f6101000a81548160ff021916908315150217905550610ca6565b60025f600160159054906101000a900460ff1660ff1660ff1681526020019081526020015f205482670de0b6b3a764000034610c8f91906123c3565b610c999190612431565b610ca39190612431565b90505b8060075f60065f3373ffffffffffffffffffffffffffffffffffffffff1673ffffffffffffffffffffffffffffffffffffffff1681526020019081526020015f205481526020019081526020015f206001015f828254610d069190612461565b9250508190555060075f60065f3373ffffffffffffffffffffffffffffffffffffffff1673ffffffffffffffffffffffffffffffffffffffff1681526020019081526020015f205481526020019081526020015f206003016040518060800160405280428152602001348152602001838152602001600160159054906101000a900460ff1660ff16815250908060018154018082558091505060019003905f5260205f2090600402015f909190919091505f820151815f015560208201518160010155604082015181600201556060820151816003015f6101000a81548160ff021916908360ff160217905550505050505f600160146101000a81548160ff02191690831515021790555050565b610e1c611979565b60075f60065f8673ffffffffffffffffffffffffffffffffffffffff1673ffffffffffffffffffffffffffffffffffffffff1681526020019081526020015f205481526020019081526020015f206003018281548110610e7f57610e7e612494565b5b905f5260205f2090600402016040518060800160405290815f82015481526020016001820154815260200160028201548152602001600382015f9054906101000a900460ff1660ff1660ff1681525050905092915050565b5f60065f8373ffffffffffffffffffffffffffffffffffffffff1673ffffffffffffffffffffffffffffffffffffffff1681526020019081526020015f20549050919050565b5f60075f60065f8573ffffffffffffffffffffffffffffffffffffffff1673ffffffffffffffffffffffffffffffffffffffff1681526020019081526020015f205481526020019081526020015f20600301805490509050919050565b60015f9054906101000a900473ffffffffffffffffffffffffffffffffffffffff1673ffffffffffffffffffffffffffffffffffffffff163373ffffffffffffffffffffffffffffffffffffffff1614611009576040517f08c379a00000000000000000000000000000000000000000000000000000000081526004016110009061250b565b60405180910390fd5b5f8054906101000a900473ffffffffffffffffffffffffffffffffffffffff1673ffffffffffffffffffffffffffffffffffffffff166365a6cc2e6040518163ffffffff1660e01b81526004015f604051808303815f87803b15801561106d575f80fd5b505af115801561107f573d5f803e3d5ffd5b50505050565b606060015f9054906101000a900473ffffffffffffffffffffffffffffffffffffffff1673ffffffffffffffffffffffffffffffffffffffff163373ffffffffffffffffffffffffffffffffffffffff1614611116576040517f08c379a000000000000000000000000000000000000000000000000000000000815260040161110d9061250b565b60405180910390fd5b5f8054906101000a900473ffffffffffffffffffffffffffffffffffffffff1673ffffffffffffffffffffffffffffffffffffffff1663a1c6a4056040518163ffffffff1660e01b81526004015f60405180830381865afa15801561117d573d5f803e3d5ffd5b505050506040513d5f823e3d601f19601f820116820180604052508101906111a59190612647565b905090565b60015f9054906101000a900473ffffffffffffffffffffffffffffffffffffffff1673ffffffffffffffffffffffffffffffffffffffff163373ffffffffffffffffffffffffffffffffffffffff1614611239576040517f08c379a00000000000000000000000000000000000000000000000000000000081526004016112309061250b565b60405180910390fd5b8060015f6101000a81548173ffffffffffffffffffffffffffffffffffffffff021916908373ffffffffffffffffffffffffffffffffffffffff16021790555050565b5f60025f600160159054906101000a900460ff1660ff1660ff1681526020019081526020015f2054905090565b6112b16119a0565b60075f8381526020019081526020015f206040518060800160405290815f82015f9054906101000a900473ffffffffffffffffffffffffffffffffffffffff1673ffffffffffffffffffffffffffffffffffffffff1673ffffffffffffffffffffffffffffffffffffffff16815260200160018201548152602001600282015f9054906101000a900460ff1615151515815260200160038201805480602002602001604051908101604052809291908181526020015f905b828210156113d2578382905f5260205f2090600402016040518060800160405290815f82015481526020016001820154815260200160028201548152602001600382015f9054906101000a900460ff1660ff1660ff168152505081526020019060010190611369565b50505050815250509050919050565b60015f9054906101000a900473ffffffffffffffffffffffffffffffffffffffff1673ffffffffffffffffffffffffffffffffffffffff163373ffffffffffffffffffffffffffffffffffffffff1614611470576040517f08c379a00000000000000000000000000000000000000000000000000000000081526004016114679061250b565b60405180910390fd5b80600160156101000a81548160ff021916908360ff16021790555050565b60015f9054906101000a900473ffffffffffffffffffffffffffffffffffffffff1681565b60015f9054906101000a900473ffffffffffffffffffffffffffffffffffffffff1673ffffffffffffffffffffffffffffffffffffffff163373ffffffffffffffffffffffffffffffffffffffff1614611542576040517f08c379a00000000000000000000000000000000000000000000000000000000081526004016115399061250b565b60405180910390fd5b8060025f8460ff1660ff1681526020019081526020015f20819055505050565b600160159054906101000a900460ff1681565b60015f9054906101000a900473ffffffffffffffffffffffffffffffffffffffff1673ffffffffffffffffffffffffffffffffffffffff163373ffffffffffffffffffffffffffffffffffffffff1614611604576040517f08c379a00000000000000000000000000000000000000000000000000000000081526004016115fb9061250b565b60405180910390fd5b805f806101000a81548173ffffffffffffffffffffffffffffffffffffffff021916908373ffffffffffffffffffffffffffffffffffffffff16021790555050565b60015f9054906101000a900473ffffffffffffffffffffffffffffffffffffffff1673ffffffffffffffffffffffffffffffffffffffff163373ffffffffffffffffffffffffffffffffffffffff16146116d5576040517f08c379a00000000000000000000000000000000000000000000000000000000081526004016116cc9061250b565b60405180910390fd5b60035481101561171a576040517f08c379a0000000000000000000000000000000000000000000000000000000008152600401611711906126d8565b60405180910390fd5b8060048190555050565b60055481565b60015f9054906101000a900473ffffffffffffffffffffffffffffffffffffffff1673ffffffffffffffffffffffffffffffffffffffff163373ffffffffffffffffffffffffffffffffffffffff16146117b9576040517f08c379a00000000000000000000000000000000000000000000000000000000081526004016117b09061250b565b60405180910390fd5b5f73ffffffffffffffffffffffffffffffffffffffff168173ffffffffffffffffffffffffffffffffffffffff1603611827576040517f08c379a000000000000000000000000000000000000000000000000000000000815260040161181e90612740565b60405180910390fd5b8073ffffffffffffffffffffffffffffffffffffffff166108fc4790811502906040515f60405180830381858888f1935050505015801561186a573d5f803e3d5ffd5b5050565b5f60075f60065f8573ffffffffffffffffffffffffffffffffffffffff1673ffffffffffffffffffffffffffffffffffffffff1681526020019081526020015f205481526020019081526020015f20600101549050919050565b6002602052805f5260405f205f915090505481565b828054828255905f5260205f20906004028101928215611968575f5260205f209160040282015b828111156119675782825f820154815f01556001820154816001015560028201548160020155600382015f9054906101000a900460ff16816003015f6101000a81548160ff021916908360ff160217905550505091600401919060040190611904565b5b50905061197591906119dd565b5090565b60405180608001604052805f81526020015f81526020015f81526020015f60ff1681525090565b60405180608001604052805f73ffffffffffffffffffffffffffffffffffffffff1681526020015f81526020015f15158152602001606081525090565b5b80821115611a17575f8082015f9055600182015f9055600282015f9055600382015f6101000a81549060ff0219169055506004016119de565b5090565b5f82825260208201905092915050565b7f53656e64206d6f726520424e4220746f206275792054505400000000000000005f82015250565b5f611a5f601883611a1b565b9150611a6a82611a2b565b602082019050919050565b5f6020820190508181035f830152611a8c81611a53565b9050919050565b5f81905092915050565b50565b5f611aab5f83611a93565b9150611ab682611a9d565b5f82019050919050565b5f611aca82611aa0565b9150819050919050565b7f5472616e73666572206661696c656400000000000000000000000000000000005f82015250565b5f611b08600f83611a1b565b9150611b1382611ad4565b602082019050919050565b5f6020820190508181035f830152611b3581611afc565b9050919050565b7f496e76616c69642064617461206c656e677468000000000000000000000000005f82015250565b5f611b70601383611a1b565b9150611b7b82611b3c565b602082019050919050565b5f6020820190508181035f830152611b9d81611b64565b9050919050565b5f604051905090565b5f80fd5b5f80fd5b5f8115159050919050565b611bc981611bb5565b8114611bd3575f80fd5b50565b5f81359050611be481611bc0565b92915050565b5f60208284031215611bff57611bfe611bad565b5b5f611c0c84828501611bd6565b91505092915050565b7f73656e64206a75737420302e303520626e6200000000000000000000000000005f82015250565b5f611c49601283611a1b565b9150611c5482611c15565b602082019050919050565b5f6020820190508181035f830152611c7681611c3d565b9050919050565b5f73ffffffffffffffffffffffffffffffffffffffff82169050919050565b5f611ca682611c7d565b9050919050565b611cb681611c9c565b8114611cc0575f80fd5b50565b5f81359050611cd181611cad565b92915050565b5f819050919050565b611ce981611cd7565b8114611cf3575f80fd5b50565b5f81359050611d0481611ce0565b92915050565b5f8060408385031215611d2057611d1f611bad565b5b5f611d2d85828601611cc3565b9250506020611d3e85828601611cf6565b9150509250929050565b611d5181611cd7565b82525050565b5f60ff82169050919050565b611d6c81611d57565b82525050565b608082015f820151611d865f850182611d48565b506020820151611d996020850182611d48565b506040820151611dac6040850182611d48565b506060820151611dbf6060850182611d63565b50505050565b5f608082019050611dd85f830184611d72565b92915050565b5f60208284031215611df357611df2611bad565b5b5f611e0084828501611cc3565b91505092915050565b611e1281611cd7565b82525050565b5f602082019050611e2b5f830184611e09565b92915050565b5f81519050919050565b5f5b83811015611e58578082015181840152602081019050611e3d565b5f8484015250505050565b5f601f19601f8301169050919050565b5f611e7d82611e31565b611e878185611a1b565b9350611e97818560208601611e3b565b611ea081611e63565b840191505092915050565b5f6020820190508181035f830152611ec38184611e73565b905092915050565b5f611ed582611c7d565b9050919050565b611ee581611ecb565b8114611eef575f80fd5b50565b5f81359050611f0081611edc565b92915050565b5f60208284031215611f1b57611f1a611bad565b5b5f611f2884828501611ef2565b91505092915050565b5f60208284031215611f4657611f45611bad565b5b5f611f5384828501611cf6565b91505092915050565b611f6581611c9c565b82525050565b611f7481611bb5565b82525050565b5f81519050919050565b5f82825260208201905092915050565b5f819050602082019050919050565b608082015f820151611fb75f850182611d48565b506020820151611fca6020850182611d48565b506040820151611fdd6040850182611d48565b506060820151611ff06060850182611d63565b50505050565b5f6120018383611fa3565b60808301905092915050565b5f602082019050919050565b5f61202382611f7a565b61202d8185611f84565b935061203883611f94565b805f5b8381101561206857815161204f8882611ff6565b975061205a8361200d565b92505060018101905061203b565b5085935050505092915050565b5f608083015f83015161208a5f860182611f5c565b50602083015161209d6020860182611d48565b5060408301516120b06040860182611f6b565b50606083015184820360608601526120c88282612019565b9150508091505092915050565b5f6020820190508181035f8301526120ed8184612075565b905092915050565b6120fe81611d57565b8114612108575f80fd5b50565b5f81359050612119816120f5565b92915050565b5f6020828403121561213457612133611bad565b5b5f6121418482850161210b565b91505092915050565b61215381611ecb565b82525050565b5f60208201905061216c5f83018461214a565b92915050565b5f806040838503121561218857612187611bad565b5b5f6121958582860161210b565b92505060206121a685828601611cf6565b9150509250929050565b6121b981611d57565b82525050565b5f6020820190506121d25f8301846121b0565b92915050565b7f436f6e74726163742050617573656400000000000000000000000000000000005f82015250565b5f61220c600f83611a1b565b9150612217826121d8565b602082019050919050565b5f6020820190508181035f83015261223981612200565b9050919050565b7f4e6f205265656e7472616e63792c706c732077616974000000000000000000005f82015250565b5f612274601683611a1b565b915061227f82612240565b602082019050919050565b5f6020820190508181035f8301526122a181612268565b9050919050565b7f4e487b71000000000000000000000000000000000000000000000000000000005f52601160045260245ffd5b5f6122df82611cd7565b91507fffffffffffffffffffffffffffffffffffffffffffffffffffffffffffffffff8203612311576123106122a8565b5b600182019050919050565b5f8151905061232a81611ce0565b92915050565b5f6020828403121561234557612344611bad565b5b5f6123528482850161231c565b91505092915050565b7f6e6f206f66666572206d6f7265000000000000000000000000000000000000005f82015250565b5f61238f600d83611a1b565b915061239a8261235b565b602082019050919050565b5f6020820190508181035f8301526123bc81612383565b9050919050565b5f6123cd82611cd7565b91506123d883611cd7565b92508282026123e681611cd7565b915082820484148315176123fd576123fc6122a8565b5b5092915050565b7f4e487b71000000000000000000000000000000000000000000000000000000005f52601260045260245ffd5b5f61243b82611cd7565b915061244683611cd7565b92508261245657612455612404565b5b828204905092915050565b5f61246b82611cd7565b915061247683611cd7565b925082820190508082111561248e5761248d6122a8565b5b92915050565b7f4e487b71000000000000000000000000000000000000000000000000000000005f52603260045260245ffd5b7f4f6e6c79206f776e6572000000000000000000000000000000000000000000005f82015250565b5f6124f5600a83611a1b565b9150612500826124c1565b602082019050919050565b5f6020820190508181035f830152612522816124e9565b9050919050565b5f80fd5b5f80fd5b7f4e487b71000000000000000000000000000000000000000000000000000000005f52604160045260245ffd5b61256782611e63565b810181811067ffffffffffffffff8211171561258657612585612531565b5b80604052505050565b5f612598611ba4565b90506125a4828261255e565b919050565b5f67ffffffffffffffff8211156125c3576125c2612531565b5b6125cc82611e63565b9050602081019050919050565b5f6125eb6125e6846125a9565b61258f565b9050828152602081018484840111156126075761260661252d565b5b612612848285611e3b565b509392505050565b5f82601f83011261262e5761262d612529565b5b815161263e8482602086016125d9565b91505092915050565b5f6020828403121561265c5761265b611bad565b5b5f82015167ffffffffffffffff81111561267957612678611bb1565b5b6126858482850161261a565b91505092915050565b7f6d696e2073686f756c64206265206d6f7265207468616e2074617800000000005f82015250565b5f6126c2601b83611a1b565b91506126cd8261268e565b602082019050919050565b5f6020820190508181035f8301526126ef816126b6565b9050919050565b7f496e76616c6964206164647265737300000000000000000000000000000000005f82015250565b5f61272a600f83611a1b565b9150612735826126f6565b602082019050919050565b5f6020820190508181035f8301526127578161271e565b905091905056fea264697066735822122029dbc3f2b259ed0b8784b440dcbb777027cc8dedca05cb5395eec7036dc6965164736f6c63430008180033",
					"opcodes": "PUSH1 0x80 PUSH1 0x40 MSTORE CALLVALUE DUP1 ISZERO PUSH3 0x10 JUMPI PUSH0 DUP1 REVERT JUMPDEST POP PUSH1 0x40 MLOAD PUSH3 0x2930 CODESIZE SUB DUP1 PUSH3 0x2930 DUP4 CODECOPY DUP2 DUP2 ADD PUSH1 0x40 MSTORE DUP2 ADD SWAP1 PUSH3 0x36 SWAP2 SWAP1 PUSH3 0x15E JUMP JUMPDEST CALLER PUSH1 0x1 PUSH0 PUSH2 0x100 EXP DUP2 SLOAD DUP2 PUSH20 0xFFFFFFFFFFFFFFFFFFFFFFFFFFFFFFFFFFFFFFFF MUL NOT AND SWAP1 DUP4 PUSH20 0xFFFFFFFFFFFFFFFFFFFFFFFFFFFFFFFFFFFFFFFF AND MUL OR SWAP1 SSTORE POP PUSH1 0x1 DUP1 PUSH1 0x15 PUSH2 0x100 EXP DUP2 SLOAD DUP2 PUSH1 0xFF MUL NOT AND SWAP1 DUP4 PUSH1 0xFF AND MUL OR SWAP1 SSTORE POP DUP1 PUSH0 DUP1 PUSH2 0x100 EXP DUP2 SLOAD DUP2 PUSH20 0xFFFFFFFFFFFFFFFFFFFFFFFFFFFFFFFFFFFFFFFF MUL NOT AND SWAP1 DUP4 PUSH20 0xFFFFFFFFFFFFFFFFFFFFFFFFFFFFFFFFFFFFFFFF AND MUL OR SWAP1 SSTORE POP PUSH6 0x3B1DFDE91000 PUSH1 0x3 DUP2 SWAP1 SSTORE POP PUSH7 0x2386F26FC10000 PUSH1 0x4 DUP2 SWAP1 SSTORE POP PUSH0 PUSH1 0x5 DUP2 SWAP1 SSTORE POP POP PUSH3 0x18E JUMP JUMPDEST PUSH0 DUP1 REVERT JUMPDEST PUSH0 PUSH20 0xFFFFFFFFFFFFFFFFFFFFFFFFFFFFFFFFFFFFFFFF DUP3 AND SWAP1 POP SWAP2 SWAP1 POP JUMP JUMPDEST PUSH0 PUSH3 0x128 DUP3 PUSH3 0xFD JUMP JUMPDEST SWAP1 POP SWAP2 SWAP1 POP JUMP JUMPDEST PUSH3 0x13A DUP2 PUSH3 0x11C JUMP JUMPDEST DUP2 EQ PUSH3 0x145 JUMPI PUSH0 DUP1 REVERT JUMPDEST POP JUMP JUMPDEST PUSH0 DUP2 MLOAD SWAP1 POP PUSH3 0x158 DUP2 PUSH3 0x12F JUMP JUMPDEST SWAP3 SWAP2 POP POP JUMP JUMPDEST PUSH0 PUSH1 0x20 DUP3 DUP5 SUB SLT ISZERO PUSH3 0x176 JUMPI PUSH3 0x175 PUSH3 0xF9 JUMP JUMPDEST JUMPDEST PUSH0 PUSH3 0x185 DUP5 DUP3 DUP6 ADD PUSH3 0x148 JUMP JUMPDEST SWAP2 POP POP SWAP3 SWAP2 POP POP JUMP JUMPDEST PUSH2 0x2794 DUP1 PUSH3 0x19C PUSH0 CODECOPY PUSH0 RETURN INVALID PUSH1 0x80 PUSH1 0x40 MSTORE PUSH1 0x4 CALLDATASIZE LT PUSH2 0x10C JUMPI PUSH0 CALLDATALOAD PUSH1 0xE0 SHR DUP1 PUSH4 0x8DA5CB5B GT PUSH2 0x94 JUMPI DUP1 PUSH4 0xB76BDF06 GT PUSH2 0x63 JUMPI DUP1 PUSH4 0xB76BDF06 EQ PUSH2 0x646 JUMPI DUP1 PUSH4 0xBFF1F9E1 EQ PUSH2 0x66E JUMPI DUP1 PUSH4 0xFA09E630 EQ PUSH2 0x698 JUMPI DUP1 PUSH4 0xFDBB6696 EQ PUSH2 0x6C0 JUMPI DUP1 PUSH4 0xFFBE653D EQ PUSH2 0x6FC JUMPI PUSH2 0x22B JUMP JUMPDEST DUP1 PUSH4 0x8DA5CB5B EQ PUSH2 0x5A2 JUMPI DUP1 PUSH4 0xA2F5546E EQ PUSH2 0x5CC JUMPI DUP1 PUSH4 0xAE243031 EQ PUSH2 0x5F4 JUMPI DUP1 PUSH4 0xAF6B5558 EQ PUSH2 0x61E JUMPI PUSH2 0x22B JUMP JUMPDEST DUP1 PUSH4 0x54EB7EBE GT PUSH2 0xDB JUMPI DUP1 PUSH4 0x54EB7EBE EQ PUSH2 0x4C2 JUMPI DUP1 PUSH4 0x5F1276A7 EQ PUSH2 0x4EC JUMPI DUP1 PUSH4 0x672CBE1A EQ PUSH2 0x514 JUMPI DUP1 PUSH4 0x6ED6DA9E EQ PUSH2 0x53E JUMPI DUP1 PUSH4 0x7CE8A08E EQ PUSH2 0x57A JUMPI PUSH2 0x22B JUMP JUMPDEST DUP1 PUSH4 0x2A2A92CC EQ PUSH2 0x3F8 JUMPI DUP1 PUSH4 0x2B956FF7 EQ PUSH2 0x434 JUMPI DUP1 PUSH4 0x31BBF555 EQ PUSH2 0x470 JUMPI DUP1 PUSH4 0x487CB6B0 EQ PUSH2 0x4AC JUMPI PUSH2 0x22B JUMP JUMPDEST CALLDATASIZE PUSH2 0x22B JUMPI PUSH1 0x4 SLOAD CALLVALUE LT ISZERO PUSH2 0x156 JUMPI PUSH1 0x40 MLOAD PUSH32 0x8C379A000000000000000000000000000000000000000000000000000000000 DUP2 MSTORE PUSH1 0x4 ADD PUSH2 0x14D SWAP1 PUSH2 0x1A75 JUMP JUMPDEST PUSH1 0x40 MLOAD DUP1 SWAP2 SUB SWAP1 REVERT JUMPDEST PUSH0 DUP1 PUSH0 SWAP1 SLOAD SWAP1 PUSH2 0x100 EXP SWAP1 DIV PUSH20 0xFFFFFFFFFFFFFFFFFFFFFFFFFFFFFFFFFFFFFFFF AND PUSH20 0xFFFFFFFFFFFFFFFFFFFFFFFFFFFFFFFFFFFFFFFF AND PUSH1 0x3 SLOAD PUSH1 0x40 MLOAD PUSH2 0x19D SWAP1 PUSH2 0x1AC0 JUMP JUMPDEST PUSH0 PUSH1 0x40 MLOAD DUP1 DUP4 SUB DUP2 DUP6 DUP8 GAS CALL SWAP3 POP POP POP RETURNDATASIZE DUP1 PUSH0 DUP2 EQ PUSH2 0x1D7 JUMPI PUSH1 0x40 MLOAD SWAP2 POP PUSH1 0x1F NOT PUSH1 0x3F RETURNDATASIZE ADD AND DUP3 ADD PUSH1 0x40 MSTORE RETURNDATASIZE DUP3 MSTORE RETURNDATASIZE PUSH0 PUSH1 0x20 DUP5 ADD RETURNDATACOPY PUSH2 0x1DC JUMP JUMPDEST PUSH1 0x60 SWAP2 POP JUMPDEST POP POP SWAP1 POP DUP1 PUSH2 0x220 JUMPI PUSH1 0x40 MLOAD PUSH32 0x8C379A000000000000000000000000000000000000000000000000000000000 DUP2 MSTORE PUSH1 0x4 ADD PUSH2 0x217 SWAP1 PUSH2 0x1B1E JUMP JUMPDEST PUSH1 0x40 MLOAD DUP1 SWAP2 SUB SWAP1 REVERT JUMPDEST PUSH2 0x229 PUSH0 PUSH2 0x738 JUMP JUMPDEST STOP JUMPDEST PUSH1 0x4 SLOAD CALLVALUE LT ISZERO PUSH2 0x270 JUMPI PUSH1 0x40 MLOAD PUSH32 0x8C379A000000000000000000000000000000000000000000000000000000000 DUP2 MSTORE PUSH1 0x4 ADD PUSH2 0x267 SWAP1 PUSH2 0x1A75 JUMP JUMPDEST PUSH1 0x40 MLOAD DUP1 SWAP2 SUB SWAP1 REVERT JUMPDEST PUSH1 0x20 PUSH0 CALLDATASIZE SWAP1 POP LT ISZERO PUSH2 0x2B7 JUMPI PUSH1 0x40 MLOAD PUSH32 0x8C379A000000000000000000000000000000000000000000000000000000000 DUP2 MSTORE PUSH1 0x4 ADD PUSH2 0x2AE SWAP1 PUSH2 0x1B86 JUMP JUMPDEST PUSH1 0x40 MLOAD DUP1 SWAP2 SUB SWAP1 REVERT JUMPDEST PUSH0 CALLDATASIZE DUP2 ADD SWAP1 PUSH2 0x2C6 SWAP2 SWAP1 PUSH2 0x1BEA JUMP JUMPDEST ISZERO PUSH2 0x315 JUMPI PUSH7 0xB1A2BC2EC50000 CALLVALUE EQ PUSH2 0x314 JUMPI PUSH1 0x40 MLOAD PUSH32 0x8C379A000000000000000000000000000000000000000000000000000000000 DUP2 MSTORE PUSH1 0x4 ADD PUSH2 0x30B SWAP1 PUSH2 0x1C5F JUMP JUMPDEST PUSH1 0x40 MLOAD DUP1 SWAP2 SUB SWAP1 REVERT JUMPDEST JUMPDEST PUSH0 DUP1 PUSH0 SWAP1 SLOAD SWAP1 PUSH2 0x100 EXP SWAP1 DIV PUSH20 0xFFFFFFFFFFFFFFFFFFFFFFFFFFFFFFFFFFFFFFFF AND PUSH20 0xFFFFFFFFFFFFFFFFFFFFFFFFFFFFFFFFFFFFFFFF AND PUSH1 0x3 SLOAD PUSH1 0x40 MLOAD PUSH2 0x35C SWAP1 PUSH2 0x1AC0 JUMP JUMPDEST PUSH0 PUSH1 0x40 MLOAD DUP1 DUP4 SUB DUP2 DUP6 DUP8 GAS CALL SWAP3 POP POP POP RETURNDATASIZE DUP1 PUSH0 DUP2 EQ PUSH2 0x396 JUMPI PUSH1 0x40 MLOAD SWAP2 POP PUSH1 0x1F NOT PUSH1 0x3F RETURNDATASIZE ADD AND DUP3 ADD PUSH1 0x40 MSTORE RETURNDATASIZE DUP3 MSTORE RETURNDATASIZE PUSH0 PUSH1 0x20 DUP5 ADD RETURNDATACOPY PUSH2 0x39B JUMP JUMPDEST PUSH1 0x60 SWAP2 POP JUMPDEST POP POP SWAP1 POP DUP1 PUSH2 0x3DF JUMPI PUSH1 0x40 MLOAD PUSH32 0x8C379A000000000000000000000000000000000000000000000000000000000 DUP2 MSTORE PUSH1 0x4 ADD PUSH2 0x3D6 SWAP1 PUSH2 0x1B1E JUMP JUMPDEST PUSH1 0x40 MLOAD DUP1 SWAP2 SUB SWAP1 REVERT JUMPDEST PUSH2 0x3F6 PUSH0 CALLDATASIZE DUP2 ADD SWAP1 PUSH2 0x3F1 SWAP2 SWAP1 PUSH2 0x1BEA JUMP JUMPDEST PUSH2 0x738 JUMP JUMPDEST STOP JUMPDEST CALLVALUE DUP1 ISZERO PUSH2 0x403 JUMPI PUSH0 DUP1 REVERT JUMPDEST POP PUSH2 0x41E PUSH1 0x4 DUP1 CALLDATASIZE SUB DUP2 ADD SWAP1 PUSH2 0x419 SWAP2 SWAP1 PUSH2 0x1D0A JUMP JUMPDEST PUSH2 0xE14 JUMP JUMPDEST PUSH1 0x40 MLOAD PUSH2 0x42B SWAP2 SWAP1 PUSH2 0x1DC5 JUMP JUMPDEST PUSH1 0x40 MLOAD DUP1 SWAP2 SUB SWAP1 RETURN JUMPDEST CALLVALUE DUP1 ISZERO PUSH2 0x43F JUMPI PUSH0 DUP1 REVERT JUMPDEST POP PUSH2 0x45A PUSH1 0x4 DUP1 CALLDATASIZE SUB DUP2 ADD SWAP1 PUSH2 0x455 SWAP2 SWAP1 PUSH2 0x1DDE JUMP JUMPDEST PUSH2 0xED7 JUMP JUMPDEST PUSH1 0x40 MLOAD PUSH2 0x467 SWAP2 SWAP1 PUSH2 0x1E18 JUMP JUMPDEST PUSH1 0x40 MLOAD DUP1 SWAP2 SUB SWAP1 RETURN JUMPDEST CALLVALUE DUP1 ISZERO PUSH2 0x47B JUMPI PUSH0 DUP1 REVERT JUMPDEST POP PUSH2 0x496 PUSH1 0x4 DUP1 CALLDATASIZE SUB DUP2 ADD SWAP1 PUSH2 0x491 SWAP2 SWAP1 PUSH2 0x1DDE JUMP JUMPDEST PUSH2 0xF1D JUMP JUMPDEST PUSH1 0x40 MLOAD PUSH2 0x4A3 SWAP2 SWAP1 PUSH2 0x1E18 JUMP JUMPDEST PUSH1 0x40 MLOAD DUP1 SWAP2 SUB SWAP1 RETURN JUMPDEST CALLVALUE DUP1 ISZERO PUSH2 0x4B7 JUMPI PUSH0 DUP1 REVERT JUMPDEST POP PUSH2 0x4C0 PUSH2 0xF7A JUMP JUMPDEST STOP JUMPDEST CALLVALUE DUP1 ISZERO PUSH2 0x4CD JUMPI PUSH0 DUP1 REVERT JUMPDEST POP PUSH2 0x4D6 PUSH2 0x1085 JUMP JUMPDEST PUSH1 0x40 MLOAD PUSH2 0x4E3 SWAP2 SWAP1 PUSH2 0x1EAB JUMP JUMPDEST PUSH1 0x40 MLOAD DUP1 SWAP2 SUB SWAP1 RETURN JUMPDEST CALLVALUE DUP1 ISZERO PUSH2 0x4F7 JUMPI PUSH0 DUP1 REVERT JUMPDEST POP PUSH2 0x512 PUSH1 0x4 DUP1 CALLDATASIZE SUB DUP2 ADD SWAP1 PUSH2 0x50D SWAP2 SWAP1 PUSH2 0x1F06 JUMP JUMPDEST PUSH2 0x11AA JUMP JUMPDEST STOP JUMPDEST CALLVALUE DUP1 ISZERO PUSH2 0x51F JUMPI PUSH0 DUP1 REVERT JUMPDEST POP PUSH2 0x528 PUSH2 0x127C JUMP JUMPDEST PUSH1 0x40 MLOAD PUSH2 0x535 SWAP2 SWAP1 PUSH2 0x1E18 JUMP JUMPDEST PUSH1 0x40 MLOAD DUP1 SWAP2 SUB SWAP1 RETURN JUMPDEST CALLVALUE DUP1 ISZERO PUSH2 0x549 JUMPI PUSH0 DUP1 REVERT JUMPDEST POP PUSH2 0x564 PUSH1 0x4 DUP1 CALLDATASIZE SUB DUP2 ADD SWAP1 PUSH2 0x55F SWAP2 SWAP1 PUSH2 0x1F31 JUMP JUMPDEST PUSH2 0x12A9 JUMP JUMPDEST PUSH1 0x40 MLOAD PUSH2 0x571 SWAP2 SWAP1 PUSH2 0x20D5 JUMP JUMPDEST PUSH1 0x40 MLOAD DUP1 SWAP2 SUB SWAP1 RETURN JUMPDEST CALLVALUE DUP1 ISZERO PUSH2 0x585 JUMPI PUSH0 DUP1 REVERT JUMPDEST POP PUSH2 0x5A0 PUSH1 0x4 DUP1 CALLDATASIZE SUB DUP2 ADD SWAP1 PUSH2 0x59B SWAP2 SWAP1 PUSH2 0x211F JUMP JUMPDEST PUSH2 0x13E1 JUMP JUMPDEST STOP JUMPDEST CALLVALUE DUP1 ISZERO PUSH2 0x5AD JUMPI PUSH0 DUP1 REVERT JUMPDEST POP PUSH2 0x5B6 PUSH2 0x148E JUMP JUMPDEST PUSH1 0x40 MLOAD PUSH2 0x5C3 SWAP2 SWAP1 PUSH2 0x2159 JUMP JUMPDEST PUSH1 0x40 MLOAD DUP1 SWAP2 SUB SWAP1 RETURN JUMPDEST CALLVALUE DUP1 ISZERO PUSH2 0x5D7 JUMPI PUSH0 DUP1 REVERT JUMPDEST POP PUSH2 0x5F2 PUSH1 0x4 DUP1 CALLDATASIZE SUB DUP2 ADD SWAP1 PUSH2 0x5ED SWAP2 SWAP1 PUSH2 0x2172 JUMP JUMPDEST PUSH2 0x14B3 JUMP JUMPDEST STOP JUMPDEST CALLVALUE DUP1 ISZERO PUSH2 0x5FF JUMPI PUSH0 DUP1 REVERT JUMPDEST POP PUSH2 0x608 PUSH2 0x1562 JUMP JUMPDEST PUSH1 0x40 MLOAD PUSH2 0x615 SWAP2 SWAP1 PUSH2 0x21BF JUMP JUMPDEST PUSH1 0x40 MLOAD DUP1 SWAP2 SUB SWAP1 RETURN JUMPDEST CALLVALUE DUP1 ISZERO PUSH2 0x629 JUMPI PUSH0 DUP1 REVERT JUMPDEST POP PUSH2 0x644 PUSH1 0x4 DUP1 CALLDATASIZE SUB DUP2 ADD SWAP1 PUSH2 0x63F SWAP2 SWAP1 PUSH2 0x1F06 JUMP JUMPDEST PUSH2 0x1575 JUMP JUMPDEST STOP JUMPDEST CALLVALUE DUP1 ISZERO PUSH2 0x651 JUMPI PUSH0 DUP1 REVERT JUMPDEST POP PUSH2 0x66C PUSH1 0x4 DUP1 CALLDATASIZE SUB DUP2 ADD SWAP1 PUSH2 0x667 SWAP2 SWAP1 PUSH2 0x1F31 JUMP JUMPDEST PUSH2 0x1646 JUMP JUMPDEST STOP JUMPDEST CALLVALUE DUP1 ISZERO PUSH2 0x679 JUMPI PUSH0 DUP1 REVERT JUMPDEST POP PUSH2 0x682 PUSH2 0x1724 JUMP JUMPDEST PUSH1 0x40 MLOAD PUSH2 0x68F SWAP2 SWAP1 PUSH2 0x1E18 JUMP JUMPDEST PUSH1 0x40 MLOAD DUP1 SWAP2 SUB SWAP1 RETURN JUMPDEST CALLVALUE DUP1 ISZERO PUSH2 0x6A3 JUMPI PUSH0 DUP1 REVERT JUMPDEST POP PUSH2 0x6BE PUSH1 0x4 DUP1 CALLDATASIZE SUB DUP2 ADD SWAP1 PUSH2 0x6B9 SWAP2 SWAP1 PUSH2 0x1F06 JUMP JUMPDEST PUSH2 0x172A JUMP JUMPDEST STOP JUMPDEST CALLVALUE DUP1 ISZERO PUSH2 0x6CB JUMPI PUSH0 DUP1 REVERT JUMPDEST POP PUSH2 0x6E6 PUSH1 0x4 DUP1 CALLDATASIZE SUB DUP2 ADD SWAP1 PUSH2 0x6E1 SWAP2 SWAP1 PUSH2 0x1DDE JUMP JUMPDEST PUSH2 0x186E JUMP JUMPDEST PUSH1 0x40 MLOAD PUSH2 0x6F3 SWAP2 SWAP1 PUSH2 0x1E18 JUMP JUMPDEST PUSH1 0x40 MLOAD DUP1 SWAP2 SUB SWAP1 RETURN JUMPDEST CALLVALUE DUP1 ISZERO PUSH2 0x707 JUMPI PUSH0 DUP1 REVERT JUMPDEST POP PUSH2 0x722 PUSH1 0x4 DUP1 CALLDATASIZE SUB DUP2 ADD SWAP1 PUSH2 0x71D SWAP2 SWAP1 PUSH2 0x211F JUMP JUMPDEST PUSH2 0x18C8 JUMP JUMPDEST PUSH1 0x40 MLOAD PUSH2 0x72F SWAP2 SWAP1 PUSH2 0x1E18 JUMP JUMPDEST PUSH1 0x40 MLOAD DUP1 SWAP2 SUB SWAP1 RETURN JUMPDEST PUSH0 PUSH1 0x1 PUSH1 0x15 SWAP1 SLOAD SWAP1 PUSH2 0x100 EXP SWAP1 DIV PUSH1 0xFF AND PUSH1 0xFF AND SUB PUSH2 0x78C JUMPI PUSH1 0x40 MLOAD PUSH32 0x8C379A000000000000000000000000000000000000000000000000000000000 DUP2 MSTORE PUSH1 0x4 ADD PUSH2 0x783 SWAP1 PUSH2 0x2222 JUMP JUMPDEST PUSH1 0x40 MLOAD DUP1 SWAP2 SUB SWAP1 REVERT JUMPDEST PUSH1 0x1 ISZERO ISZERO PUSH1 0x1 PUSH1 0x14 SWAP1 SLOAD SWAP1 PUSH2 0x100 EXP SWAP1 DIV PUSH1 0xFF AND ISZERO ISZERO SUB PUSH2 0x7E2 JUMPI PUSH1 0x40 MLOAD PUSH32 0x8C379A000000000000000000000000000000000000000000000000000000000 DUP2 MSTORE PUSH1 0x4 ADD PUSH2 0x7D9 SWAP1 PUSH2 0x228A JUMP JUMPDEST PUSH1 0x40 MLOAD DUP1 SWAP2 SUB SWAP1 REVERT JUMPDEST PUSH1 0x1 DUP1 PUSH1 0x14 PUSH2 0x100 EXP DUP2 SLOAD DUP2 PUSH1 0xFF MUL NOT AND SWAP1 DUP4 ISZERO ISZERO MUL OR SWAP1 SSTORE POP PUSH0 PUSH1 0x6 PUSH0 CALLER PUSH20 0xFFFFFFFFFFFFFFFFFFFFFFFFFFFFFFFFFFFFFFFF AND PUSH20 0xFFFFFFFFFFFFFFFFFFFFFFFFFFFFFFFFFFFFFFFF AND DUP2 MSTORE PUSH1 0x20 ADD SWAP1 DUP2 MSTORE PUSH1 0x20 ADD PUSH0 KECCAK256 SLOAD SUB PUSH2 0xA55 JUMPI PUSH1 0x5 PUSH0 DUP2 SLOAD DUP1 SWAP3 SWAP2 SWAP1 PUSH2 0x852 SWAP1 PUSH2 0x22D5 JUMP JUMPDEST SWAP2 SWAP1 POP SSTORE POP PUSH1 0x5 SLOAD PUSH1 0x6 PUSH0 CALLER PUSH20 0xFFFFFFFFFFFFFFFFFFFFFFFFFFFFFFFFFFFFFFFF AND PUSH20 0xFFFFFFFFFFFFFFFFFFFFFFFFFFFFFFFFFFFFFFFF AND DUP2 MSTORE PUSH1 0x20 ADD SWAP1 DUP2 MSTORE PUSH1 0x20 ADD PUSH0 KECCAK256 DUP2 SWAP1 SSTORE POP PUSH0 PUSH1 0x7 PUSH0 PUSH1 0x6 PUSH0 CALLER PUSH20 0xFFFFFFFFFFFFFFFFFFFFFFFFFFFFFFFFFFFFFFFF AND PUSH20 0xFFFFFFFFFFFFFFFFFFFFFFFFFFFFFFFFFFFFFFFF AND DUP2 MSTORE PUSH1 0x20 ADD SWAP1 DUP2 MSTORE PUSH1 0x20 ADD PUSH0 KECCAK256 SLOAD DUP2 MSTORE PUSH1 0x20 ADD SWAP1 DUP2 MSTORE PUSH1 0x20 ADD PUSH0 KECCAK256 SWAP1 POP CALLER DUP2 PUSH0 ADD PUSH0 PUSH2 0x100 EXP DUP2 SLOAD DUP2 PUSH20 0xFFFFFFFFFFFFFFFFFFFFFFFFFFFFFFFFFFFFFFFF MUL NOT AND SWAP1 DUP4 PUSH20 0xFFFFFFFFFFFFFFFFFFFFFFFFFFFFFFFFFFFFFFFF AND MUL OR SWAP1 SSTORE POP PUSH0 DUP2 PUSH1 0x1 ADD DUP2 SWAP1 SSTORE POP PUSH1 0x1 DUP2 PUSH1 0x2 ADD PUSH0 PUSH2 0x100 EXP DUP2 SLOAD DUP2 PUSH1 0xFF MUL NOT AND SWAP1 DUP4 ISZERO ISZERO MUL OR SWAP1 SSTORE POP DUP1 PUSH1 0x7 PUSH0 PUSH1 0x6 PUSH0 CALLER PUSH20 0xFFFFFFFFFFFFFFFFFFFFFFFFFFFFFFFFFFFFFFFF AND PUSH20 0xFFFFFFFFFFFFFFFFFFFFFFFFFFFFFFFFFFFFFFFF AND DUP2 MSTORE PUSH1 0x20 ADD SWAP1 DUP2 MSTORE PUSH1 0x20 ADD PUSH0 KECCAK256 SLOAD DUP2 MSTORE PUSH1 0x20 ADD SWAP1 DUP2 MSTORE PUSH1 0x20 ADD PUSH0 KECCAK256 PUSH0 DUP3 ADD PUSH0 SWAP1 SLOAD SWAP1 PUSH2 0x100 EXP SWAP1 DIV PUSH20 0xFFFFFFFFFFFFFFFFFFFFFFFFFFFFFFFFFFFFFFFF AND DUP2 PUSH0 ADD PUSH0 PUSH2 0x100 EXP DUP2 SLOAD DUP2 PUSH20 0xFFFFFFFFFFFFFFFFFFFFFFFFFFFFFFFFFFFFFFFF MUL NOT AND SWAP1 DUP4 PUSH20 0xFFFFFFFFFFFFFFFFFFFFFFFFFFFFFFFFFFFFFFFF AND MUL OR SWAP1 SSTORE POP PUSH1 0x1 DUP3 ADD SLOAD DUP2 PUSH1 0x1 ADD SSTORE PUSH1 0x2 DUP3 ADD PUSH0 SWAP1 SLOAD SWAP1 PUSH2 0x100 EXP SWAP1 DIV PUSH1 0xFF AND DUP2 PUSH1 0x2 ADD PUSH0 PUSH2 0x100 EXP DUP2 SLOAD DUP2 PUSH1 0xFF MUL NOT AND SWAP1 DUP4 ISZERO ISZERO MUL OR SWAP1 SSTORE POP PUSH1 0x3 DUP3 ADD DUP2 PUSH1 0x3 ADD SWAP1 DUP1 SLOAD PUSH2 0xA4F SWAP3 SWAP2 SWAP1 PUSH2 0x18DD JUMP JUMPDEST POP SWAP1 POP POP POP JUMPDEST PUSH0 DUP1 PUSH0 SWAP1 SLOAD SWAP1 PUSH2 0x100 EXP SWAP1 DIV PUSH20 0xFFFFFFFFFFFFFFFFFFFFFFFFFFFFFFFFFFFFFFFF AND PUSH20 0xFFFFFFFFFFFFFFFFFFFFFFFFFFFFFFFFFFFFFFFF AND PUSH4 0xE03D1632 PUSH1 0x40 MLOAD DUP2 PUSH4 0xFFFFFFFF AND PUSH1 0xE0 SHL DUP2 MSTORE PUSH1 0x4 ADD PUSH1 0x20 PUSH1 0x40 MLOAD DUP1 DUP4 SUB DUP2 DUP7 GAS STATICCALL ISZERO DUP1 ISZERO PUSH2 0xABF JUMPI RETURNDATASIZE PUSH0 DUP1 RETURNDATACOPY RETURNDATASIZE PUSH0 REVERT JUMPDEST POP POP POP POP PUSH1 0x40 MLOAD RETURNDATASIZE PUSH1 0x1F NOT PUSH1 0x1F DUP3 ADD AND DUP3 ADD DUP1 PUSH1 0x40 MSTORE POP DUP2 ADD SWAP1 PUSH2 0xAE3 SWAP2 SWAP1 PUSH2 0x2330 JUMP JUMPDEST SWAP1 POP PUSH0 DUP3 ISZERO PUSH2 0xC53 JUMPI PUSH1 0x7 PUSH0 PUSH1 0x6 PUSH0 CALLER PUSH20 0xFFFFFFFFFFFFFFFFFFFFFFFFFFFFFFFFFFFFFFFF AND PUSH20 0xFFFFFFFFFFFFFFFFFFFFFFFFFFFFFFFFFFFFFFFF AND DUP2 MSTORE PUSH1 0x20 ADD SWAP1 DUP2 MSTORE PUSH1 0x20 ADD PUSH0 KECCAK256 SLOAD DUP2 MSTORE PUSH1 0x20 ADD SWAP1 DUP2 MSTORE PUSH1 0x20 ADD PUSH0 KECCAK256 PUSH1 0x2 ADD PUSH0 SWAP1 SLOAD SWAP1 PUSH2 0x100 EXP SWAP1 DIV PUSH1 0xFF AND PUSH2 0xB89 JUMPI PUSH1 0x40 MLOAD PUSH32 0x8C379A000000000000000000000000000000000000000000000000000000000 DUP2 MSTORE PUSH1 0x4 ADD PUSH2 0xB80 SWAP1 PUSH2 0x23A5 JUMP JUMPDEST PUSH1 0x40 MLOAD DUP1 SWAP2 SUB SWAP1 REVERT JUMPDEST PUSH1 0x2 DUP1 PUSH0 PUSH1 0x1 PUSH1 0x15 SWAP1 SLOAD SWAP1 PUSH2 0x100 EXP SWAP1 DIV PUSH1 0xFF AND PUSH1 0xFF AND PUSH1 0xFF AND DUP2 MSTORE PUSH1 0x20 ADD SWAP1 DUP2 MSTORE PUSH1 0x20 ADD PUSH0 KECCAK256 SLOAD DUP4 PUSH8 0xDE0B6B3A7640000 CALLVALUE PUSH2 0xBC6 SWAP2 SWAP1 PUSH2 0x23C3 JUMP JUMPDEST PUSH2 0xBD0 SWAP2 SWAP1 PUSH2 0x2431 JUMP JUMPDEST PUSH2 0xBDA SWAP2 SWAP1 PUSH2 0x2431 JUMP JUMPDEST PUSH2 0xBE4 SWAP2 SWAP1 PUSH2 0x23C3 JUMP JUMPDEST SWAP1 POP PUSH0 PUSH1 0x7 PUSH0 PUSH1 0x6 PUSH0 CALLER PUSH20 0xFFFFFFFFFFFFFFFFFFFFFFFFFFFFFFFFFFFFFFFF AND PUSH20 0xFFFFFFFFFFFFFFFFFFFFFFFFFFFFFFFFFFFFFFFF AND DUP2 MSTORE PUSH1 0x20 ADD SWAP1 DUP2 MSTORE PUSH1 0x20 ADD PUSH0 KECCAK256 SLOAD DUP2 MSTORE PUSH1 0x20 ADD SWAP1 DUP2 MSTORE PUSH1 0x20 ADD PUSH0 KECCAK256 PUSH1 0x2 ADD PUSH0 PUSH2 0x100 EXP DUP2 SLOAD DUP2 PUSH1 0xFF MUL NOT AND SWAP1 DUP4 ISZERO ISZERO MUL OR SWAP1 SSTORE POP PUSH2 0xCA6 JUMP JUMPDEST PUSH1 0x2 PUSH0 PUSH1 0x1 PUSH1 0x15 SWAP1 SLOAD SWAP1 PUSH2 0x100 EXP SWAP1 DIV PUSH1 0xFF AND PUSH1 0xFF AND PUSH1 0xFF AND DUP2 MSTORE PUSH1 0x20 ADD SWAP1 DUP2 MSTORE PUSH1 0x20 ADD PUSH0 KECCAK256 SLOAD DUP3 PUSH8 0xDE0B6B3A7640000 CALLVALUE PUSH2 0xC8F SWAP2 SWAP1 PUSH2 0x23C3 JUMP JUMPDEST PUSH2 0xC99 SWAP2 SWAP1 PUSH2 0x2431 JUMP JUMPDEST PUSH2 0xCA3 SWAP2 SWAP1 PUSH2 0x2431 JUMP JUMPDEST SWAP1 POP JUMPDEST DUP1 PUSH1 0x7 PUSH0 PUSH1 0x6 PUSH0 CALLER PUSH20 0xFFFFFFFFFFFFFFFFFFFFFFFFFFFFFFFFFFFFFFFF AND PUSH20 0xFFFFFFFFFFFFFFFFFFFFFFFFFFFFFFFFFFFFFFFF AND DUP2 MSTORE PUSH1 0x20 ADD SWAP1 DUP2 MSTORE PUSH1 0x20 ADD PUSH0 KECCAK256 SLOAD DUP2 MSTORE PUSH1 0x20 ADD SWAP1 DUP2 MSTORE PUSH1 0x20 ADD PUSH0 KECCAK256 PUSH1 0x1 ADD PUSH0 DUP3 DUP3 SLOAD PUSH2 0xD06 SWAP2 SWAP1 PUSH2 0x2461 JUMP JUMPDEST SWAP3 POP POP DUP2 SWAP1 SSTORE POP PUSH1 0x7 PUSH0 PUSH1 0x6 PUSH0 CALLER PUSH20 0xFFFFFFFFFFFFFFFFFFFFFFFFFFFFFFFFFFFFFFFF AND PUSH20 0xFFFFFFFFFFFFFFFFFFFFFFFFFFFFFFFFFFFFFFFF AND DUP2 MSTORE PUSH1 0x20 ADD SWAP1 DUP2 MSTORE PUSH1 0x20 ADD PUSH0 KECCAK256 SLOAD DUP2 MSTORE PUSH1 0x20 ADD SWAP1 DUP2 MSTORE PUSH1 0x20 ADD PUSH0 KECCAK256 PUSH1 0x3 ADD PUSH1 0x40 MLOAD DUP1 PUSH1 0x80 ADD PUSH1 0x40 MSTORE DUP1 TIMESTAMP DUP2 MSTORE PUSH1 0x20 ADD CALLVALUE DUP2 MSTORE PUSH1 0x20 ADD DUP4 DUP2 MSTORE PUSH1 0x20 ADD PUSH1 0x1 PUSH1 0x15 SWAP1 SLOAD SWAP1 PUSH2 0x100 EXP SWAP1 DIV PUSH1 0xFF AND PUSH1 0xFF AND DUP2 MSTORE POP SWAP1 DUP1 PUSH1 0x1 DUP2 SLOAD ADD DUP1 DUP3 SSTORE DUP1 SWAP2 POP POP PUSH1 0x1 SWAP1 SUB SWAP1 PUSH0 MSTORE PUSH1 0x20 PUSH0 KECCAK256 SWAP1 PUSH1 0x4 MUL ADD PUSH0 SWAP1 SWAP2 SWAP1 SWAP2 SWAP1 SWAP2 POP PUSH0 DUP3 ADD MLOAD DUP2 PUSH0 ADD SSTORE PUSH1 0x20 DUP3 ADD MLOAD DUP2 PUSH1 0x1 ADD SSTORE PUSH1 0x40 DUP3 ADD MLOAD DUP2 PUSH1 0x2 ADD SSTORE PUSH1 0x60 DUP3 ADD MLOAD DUP2 PUSH1 0x3 ADD PUSH0 PUSH2 0x100 EXP DUP2 SLOAD DUP2 PUSH1 0xFF MUL NOT AND SWAP1 DUP4 PUSH1 0xFF AND MUL OR SWAP1 SSTORE POP POP POP POP POP PUSH0 PUSH1 0x1 PUSH1 0x14 PUSH2 0x100 EXP DUP2 SLOAD DUP2 PUSH1 0xFF MUL NOT AND SWAP1 DUP4 ISZERO ISZERO MUL OR SWAP1 SSTORE POP POP JUMP JUMPDEST PUSH2 0xE1C PUSH2 0x1979 JUMP JUMPDEST PUSH1 0x7 PUSH0 PUSH1 0x6 PUSH0 DUP7 PUSH20 0xFFFFFFFFFFFFFFFFFFFFFFFFFFFFFFFFFFFFFFFF AND PUSH20 0xFFFFFFFFFFFFFFFFFFFFFFFFFFFFFFFFFFFFFFFF AND DUP2 MSTORE PUSH1 0x20 ADD SWAP1 DUP2 MSTORE PUSH1 0x20 ADD PUSH0 KECCAK256 SLOAD DUP2 MSTORE PUSH1 0x20 ADD SWAP1 DUP2 MSTORE PUSH1 0x20 ADD PUSH0 KECCAK256 PUSH1 0x3 ADD DUP3 DUP2 SLOAD DUP2 LT PUSH2 0xE7F JUMPI PUSH2 0xE7E PUSH2 0x2494 JUMP JUMPDEST JUMPDEST SWAP1 PUSH0 MSTORE PUSH1 0x20 PUSH0 KECCAK256 SWAP1 PUSH1 0x4 MUL ADD PUSH1 0x40 MLOAD DUP1 PUSH1 0x80 ADD PUSH1 0x40 MSTORE SWAP1 DUP2 PUSH0 DUP3 ADD SLOAD DUP2 MSTORE PUSH1 0x20 ADD PUSH1 0x1 DUP3 ADD SLOAD DUP2 MSTORE PUSH1 0x20 ADD PUSH1 0x2 DUP3 ADD SLOAD DUP2 MSTORE PUSH1 0x20 ADD PUSH1 0x3 DUP3 ADD PUSH0 SWAP1 SLOAD SWAP1 PUSH2 0x100 EXP SWAP1 DIV PUSH1 0xFF AND PUSH1 0xFF AND PUSH1 0xFF AND DUP2 MSTORE POP POP SWAP1 POP SWAP3 SWAP2 POP POP JUMP JUMPDEST PUSH0 PUSH1 0x6 PUSH0 DUP4 PUSH20 0xFFFFFFFFFFFFFFFFFFFFFFFFFFFFFFFFFFFFFFFF AND PUSH20 0xFFFFFFFFFFFFFFFFFFFFFFFFFFFFFFFFFFFFFFFF AND DUP2 MSTORE PUSH1 0x20 ADD SWAP1 DUP2 MSTORE PUSH1 0x20 ADD PUSH0 KECCAK256 SLOAD SWAP1 POP SWAP2 SWAP1 POP JUMP JUMPDEST PUSH0 PUSH1 0x7 PUSH0 PUSH1 0x6 PUSH0 DUP6 PUSH20 0xFFFFFFFFFFFFFFFFFFFFFFFFFFFFFFFFFFFFFFFF AND PUSH20 0xFFFFFFFFFFFFFFFFFFFFFFFFFFFFFFFFFFFFFFFF AND DUP2 MSTORE PUSH1 0x20 ADD SWAP1 DUP2 MSTORE PUSH1 0x20 ADD PUSH0 KECCAK256 SLOAD DUP2 MSTORE PUSH1 0x20 ADD SWAP1 DUP2 MSTORE PUSH1 0x20 ADD PUSH0 KECCAK256 PUSH1 0x3 ADD DUP1 SLOAD SWAP1 POP SWAP1 POP SWAP2 SWAP1 POP JUMP JUMPDEST PUSH1 0x1 PUSH0 SWAP1 SLOAD SWAP1 PUSH2 0x100 EXP SWAP1 DIV PUSH20 0xFFFFFFFFFFFFFFFFFFFFFFFFFFFFFFFFFFFFFFFF AND PUSH20 0xFFFFFFFFFFFFFFFFFFFFFFFFFFFFFFFFFFFFFFFF AND CALLER PUSH20 0xFFFFFFFFFFFFFFFFFFFFFFFFFFFFFFFFFFFFFFFF AND EQ PUSH2 0x1009 JUMPI PUSH1 0x40 MLOAD PUSH32 0x8C379A000000000000000000000000000000000000000000000000000000000 DUP2 MSTORE PUSH1 0x4 ADD PUSH2 0x1000 SWAP1 PUSH2 0x250B JUMP JUMPDEST PUSH1 0x40 MLOAD DUP1 SWAP2 SUB SWAP1 REVERT JUMPDEST PUSH0 DUP1 SLOAD SWAP1 PUSH2 0x100 EXP SWAP1 DIV PUSH20 0xFFFFFFFFFFFFFFFFFFFFFFFFFFFFFFFFFFFFFFFF AND PUSH20 0xFFFFFFFFFFFFFFFFFFFFFFFFFFFFFFFFFFFFFFFF AND PUSH4 0x65A6CC2E PUSH1 0x40 MLOAD DUP2 PUSH4 0xFFFFFFFF AND PUSH1 0xE0 SHL DUP2 MSTORE PUSH1 0x4 ADD PUSH0 PUSH1 0x40 MLOAD DUP1 DUP4 SUB DUP2 PUSH0 DUP8 DUP1 EXTCODESIZE ISZERO DUP1 ISZERO PUSH2 0x106D JUMPI PUSH0 DUP1 REVERT JUMPDEST POP GAS CALL ISZERO DUP1 ISZERO PUSH2 0x107F JUMPI RETURNDATASIZE PUSH0 DUP1 RETURNDATACOPY RETURNDATASIZE PUSH0 REVERT JUMPDEST POP POP POP POP JUMP JUMPDEST PUSH1 0x60 PUSH1 0x1 PUSH0 SWAP1 SLOAD SWAP1 PUSH2 0x100 EXP SWAP1 DIV PUSH20 0xFFFFFFFFFFFFFFFFFFFFFFFFFFFFFFFFFFFFFFFF AND PUSH20 0xFFFFFFFFFFFFFFFFFFFFFFFFFFFFFFFFFFFFFFFF AND CALLER PUSH20 0xFFFFFFFFFFFFFFFFFFFFFFFFFFFFFFFFFFFFFFFF AND EQ PUSH2 0x1116 JUMPI PUSH1 0x40 MLOAD PUSH32 0x8C379A000000000000000000000000000000000000000000000000000000000 DUP2 MSTORE PUSH1 0x4 ADD PUSH2 0x110D SWAP1 PUSH2 0x250B JUMP JUMPDEST PUSH1 0x40 MLOAD DUP1 SWAP2 SUB SWAP1 REVERT JUMPDEST PUSH0 DUP1 SLOAD SWAP1 PUSH2 0x100 EXP SWAP1 DIV PUSH20 0xFFFFFFFFFFFFFFFFFFFFFFFFFFFFFFFFFFFFFFFF AND PUSH20 0xFFFFFFFFFFFFFFFFFFFFFFFFFFFFFFFFFFFFFFFF AND PUSH4 0xA1C6A405 PUSH1 0x40 MLOAD DUP2 PUSH4 0xFFFFFFFF AND PUSH1 0xE0 SHL DUP2 MSTORE PUSH1 0x4 ADD PUSH0 PUSH1 0x40 MLOAD DUP1 DUP4 SUB DUP2 DUP7 GAS STATICCALL ISZERO DUP1 ISZERO PUSH2 0x117D JUMPI RETURNDATASIZE PUSH0 DUP1 RETURNDATACOPY RETURNDATASIZE PUSH0 REVERT JUMPDEST POP POP POP POP PUSH1 0x40 MLOAD RETURNDATASIZE PUSH0 DUP3 RETURNDATACOPY RETURNDATASIZE PUSH1 0x1F NOT PUSH1 0x1F DUP3 ADD AND DUP3 ADD DUP1 PUSH1 0x40 MSTORE POP DUP2 ADD SWAP1 PUSH2 0x11A5 SWAP2 SWAP1 PUSH2 0x2647 JUMP JUMPDEST SWAP1 POP SWAP1 JUMP JUMPDEST PUSH1 0x1 PUSH0 SWAP1 SLOAD SWAP1 PUSH2 0x100 EXP SWAP1 DIV PUSH20 0xFFFFFFFFFFFFFFFFFFFFFFFFFFFFFFFFFFFFFFFF AND PUSH20 0xFFFFFFFFFFFFFFFFFFFFFFFFFFFFFFFFFFFFFFFF AND CALLER PUSH20 0xFFFFFFFFFFFFFFFFFFFFFFFFFFFFFFFFFFFFFFFF AND EQ PUSH2 0x1239 JUMPI PUSH1 0x40 MLOAD PUSH32 0x8C379A000000000000000000000000000000000000000000000000000000000 DUP2 MSTORE PUSH1 0x4 ADD PUSH2 0x1230 SWAP1 PUSH2 0x250B JUMP JUMPDEST PUSH1 0x40 MLOAD DUP1 SWAP2 SUB SWAP1 REVERT JUMPDEST DUP1 PUSH1 0x1 PUSH0 PUSH2 0x100 EXP DUP2 SLOAD DUP2 PUSH20 0xFFFFFFFFFFFFFFFFFFFFFFFFFFFFFFFFFFFFFFFF MUL NOT AND SWAP1 DUP4 PUSH20 0xFFFFFFFFFFFFFFFFFFFFFFFFFFFFFFFFFFFFFFFF AND MUL OR SWAP1 SSTORE POP POP JUMP JUMPDEST PUSH0 PUSH1 0x2 PUSH0 PUSH1 0x1 PUSH1 0x15 SWAP1 SLOAD SWAP1 PUSH2 0x100 EXP SWAP1 DIV PUSH1 0xFF AND PUSH1 0xFF AND PUSH1 0xFF AND DUP2 MSTORE PUSH1 0x20 ADD SWAP1 DUP2 MSTORE PUSH1 0x20 ADD PUSH0 KECCAK256 SLOAD SWAP1 POP SWAP1 JUMP JUMPDEST PUSH2 0x12B1 PUSH2 0x19A0 JUMP JUMPDEST PUSH1 0x7 PUSH0 DUP4 DUP2 MSTORE PUSH1 0x20 ADD SWAP1 DUP2 MSTORE PUSH1 0x20 ADD PUSH0 KECCAK256 PUSH1 0x40 MLOAD DUP1 PUSH1 0x80 ADD PUSH1 0x40 MSTORE SWAP1 DUP2 PUSH0 DUP3 ADD PUSH0 SWAP1 SLOAD SWAP1 PUSH2 0x100 EXP SWAP1 DIV PUSH20 0xFFFFFFFFFFFFFFFFFFFFFFFFFFFFFFFFFFFFFFFF AND PUSH20 0xFFFFFFFFFFFFFFFFFFFFFFFFFFFFFFFFFFFFFFFF AND PUSH20 0xFFFFFFFFFFFFFFFFFFFFFFFFFFFFFFFFFFFFFFFF AND DUP2 MSTORE PUSH1 0x20 ADD PUSH1 0x1 DUP3 ADD SLOAD DUP2 MSTORE PUSH1 0x20 ADD PUSH1 0x2 DUP3 ADD PUSH0 SWAP1 SLOAD SWAP1 PUSH2 0x100 EXP SWAP1 DIV PUSH1 0xFF AND ISZERO ISZERO ISZERO ISZERO DUP2 MSTORE PUSH1 0x20 ADD PUSH1 0x3 DUP3 ADD DUP1 SLOAD DUP1 PUSH1 0x20 MUL PUSH1 0x20 ADD PUSH1 0x40 MLOAD SWAP1 DUP2 ADD PUSH1 0x40 MSTORE DUP1 SWAP3 SWAP2 SWAP1 DUP2 DUP2 MSTORE PUSH1 0x20 ADD PUSH0 SWAP1 JUMPDEST DUP3 DUP3 LT ISZERO PUSH2 0x13D2 JUMPI DUP4 DUP3 SWAP1 PUSH0 MSTORE PUSH1 0x20 PUSH0 KECCAK256 SWAP1 PUSH1 0x4 MUL ADD PUSH1 0x40 MLOAD DUP1 PUSH1 0x80 ADD PUSH1 0x40 MSTORE SWAP1 DUP2 PUSH0 DUP3 ADD SLOAD DUP2 MSTORE PUSH1 0x20 ADD PUSH1 0x1 DUP3 ADD SLOAD DUP2 MSTORE PUSH1 0x20 ADD PUSH1 0x2 DUP3 ADD SLOAD DUP2 MSTORE PUSH1 0x20 ADD PUSH1 0x3 DUP3 ADD PUSH0 SWAP1 SLOAD SWAP1 PUSH2 0x100 EXP SWAP1 DIV PUSH1 0xFF AND PUSH1 0xFF AND PUSH1 0xFF AND DUP2 MSTORE POP POP DUP2 MSTORE PUSH1 0x20 ADD SWAP1 PUSH1 0x1 ADD SWAP1 PUSH2 0x1369 JUMP JUMPDEST POP POP POP POP DUP2 MSTORE POP POP SWAP1 POP SWAP2 SWAP1 POP JUMP JUMPDEST PUSH1 0x1 PUSH0 SWAP1 SLOAD SWAP1 PUSH2 0x100 EXP SWAP1 DIV PUSH20 0xFFFFFFFFFFFFFFFFFFFFFFFFFFFFFFFFFFFFFFFF AND PUSH20 0xFFFFFFFFFFFFFFFFFFFFFFFFFFFFFFFFFFFFFFFF AND CALLER PUSH20 0xFFFFFFFFFFFFFFFFFFFFFFFFFFFFFFFFFFFFFFFF AND EQ PUSH2 0x1470 JUMPI PUSH1 0x40 MLOAD PUSH32 0x8C379A000000000000000000000000000000000000000000000000000000000 DUP2 MSTORE PUSH1 0x4 ADD PUSH2 0x1467 SWAP1 PUSH2 0x250B JUMP JUMPDEST PUSH1 0x40 MLOAD DUP1 SWAP2 SUB SWAP1 REVERT JUMPDEST DUP1 PUSH1 0x1 PUSH1 0x15 PUSH2 0x100 EXP DUP2 SLOAD DUP2 PUSH1 0xFF MUL NOT AND SWAP1 DUP4 PUSH1 0xFF AND MUL OR SWAP1 SSTORE POP POP JUMP JUMPDEST PUSH1 0x1 PUSH0 SWAP1 SLOAD SWAP1 PUSH2 0x100 EXP SWAP1 DIV PUSH20 0xFFFFFFFFFFFFFFFFFFFFFFFFFFFFFFFFFFFFFFFF AND DUP2 JUMP JUMPDEST PUSH1 0x1 PUSH0 SWAP1 SLOAD SWAP1 PUSH2 0x100 EXP SWAP1 DIV PUSH20 0xFFFFFFFFFFFFFFFFFFFFFFFFFFFFFFFFFFFFFFFF AND PUSH20 0xFFFFFFFFFFFFFFFFFFFFFFFFFFFFFFFFFFFFFFFF AND CALLER PUSH20 0xFFFFFFFFFFFFFFFFFFFFFFFFFFFFFFFFFFFFFFFF AND EQ PUSH2 0x1542 JUMPI PUSH1 0x40 MLOAD PUSH32 0x8C379A000000000000000000000000000000000000000000000000000000000 DUP2 MSTORE PUSH1 0x4 ADD PUSH2 0x1539 SWAP1 PUSH2 0x250B JUMP JUMPDEST PUSH1 0x40 MLOAD DUP1 SWAP2 SUB SWAP1 REVERT JUMPDEST DUP1 PUSH1 0x2 PUSH0 DUP5 PUSH1 0xFF AND PUSH1 0xFF AND DUP2 MSTORE PUSH1 0x20 ADD SWAP1 DUP2 MSTORE PUSH1 0x20 ADD PUSH0 KECCAK256 DUP2 SWAP1 SSTORE POP POP POP JUMP JUMPDEST PUSH1 0x1 PUSH1 0x15 SWAP1 SLOAD SWAP1 PUSH2 0x100 EXP SWAP1 DIV PUSH1 0xFF AND DUP2 JUMP JUMPDEST PUSH1 0x1 PUSH0 SWAP1 SLOAD SWAP1 PUSH2 0x100 EXP SWAP1 DIV PUSH20 0xFFFFFFFFFFFFFFFFFFFFFFFFFFFFFFFFFFFFFFFF AND PUSH20 0xFFFFFFFFFFFFFFFFFFFFFFFFFFFFFFFFFFFFFFFF AND CALLER PUSH20 0xFFFFFFFFFFFFFFFFFFFFFFFFFFFFFFFFFFFFFFFF AND EQ PUSH2 0x1604 JUMPI PUSH1 0x40 MLOAD PUSH32 0x8C379A000000000000000000000000000000000000000000000000000000000 DUP2 MSTORE PUSH1 0x4 ADD PUSH2 0x15FB SWAP1 PUSH2 0x250B JUMP JUMPDEST PUSH1 0x40 MLOAD DUP1 SWAP2 SUB SWAP1 REVERT JUMPDEST DUP1 PUSH0 DUP1 PUSH2 0x100 EXP DUP2 SLOAD DUP2 PUSH20 0xFFFFFFFFFFFFFFFFFFFFFFFFFFFFFFFFFFFFFFFF MUL NOT AND SWAP1 DUP4 PUSH20 0xFFFFFFFFFFFFFFFFFFFFFFFFFFFFFFFFFFFFFFFF AND MUL OR SWAP1 SSTORE POP POP JUMP JUMPDEST PUSH1 0x1 PUSH0 SWAP1 SLOAD SWAP1 PUSH2 0x100 EXP SWAP1 DIV PUSH20 0xFFFFFFFFFFFFFFFFFFFFFFFFFFFFFFFFFFFFFFFF AND PUSH20 0xFFFFFFFFFFFFFFFFFFFFFFFFFFFFFFFFFFFFFFFF AND CALLER PUSH20 0xFFFFFFFFFFFFFFFFFFFFFFFFFFFFFFFFFFFFFFFF AND EQ PUSH2 0x16D5 JUMPI PUSH1 0x40 MLOAD PUSH32 0x8C379A000000000000000000000000000000000000000000000000000000000 DUP2 MSTORE PUSH1 0x4 ADD PUSH2 0x16CC SWAP1 PUSH2 0x250B JUMP JUMPDEST PUSH1 0x40 MLOAD DUP1 SWAP2 SUB SWAP1 REVERT JUMPDEST PUSH1 0x3 SLOAD DUP2 LT ISZERO PUSH2 0x171A JUMPI PUSH1 0x40 MLOAD PUSH32 0x8C379A000000000000000000000000000000000000000000000000000000000 DUP2 MSTORE PUSH1 0x4 ADD PUSH2 0x1711 SWAP1 PUSH2 0x26D8 JUMP JUMPDEST PUSH1 0x40 MLOAD DUP1 SWAP2 SUB SWAP1 REVERT JUMPDEST DUP1 PUSH1 0x4 DUP2 SWAP1 SSTORE POP POP JUMP JUMPDEST PUSH1 0x5 SLOAD DUP2 JUMP JUMPDEST PUSH1 0x1 PUSH0 SWAP1 SLOAD SWAP1 PUSH2 0x100 EXP SWAP1 DIV PUSH20 0xFFFFFFFFFFFFFFFFFFFFFFFFFFFFFFFFFFFFFFFF AND PUSH20 0xFFFFFFFFFFFFFFFFFFFFFFFFFFFFFFFFFFFFFFFF AND CALLER PUSH20 0xFFFFFFFFFFFFFFFFFFFFFFFFFFFFFFFFFFFFFFFF AND EQ PUSH2 0x17B9 JUMPI PUSH1 0x40 MLOAD PUSH32 0x8C379A000000000000000000000000000000000000000000000000000000000 DUP2 MSTORE PUSH1 0x4 ADD PUSH2 0x17B0 SWAP1 PUSH2 0x250B JUMP JUMPDEST PUSH1 0x40 MLOAD DUP1 SWAP2 SUB SWAP1 REVERT JUMPDEST PUSH0 PUSH20 0xFFFFFFFFFFFFFFFFFFFFFFFFFFFFFFFFFFFFFFFF AND DUP2 PUSH20 0xFFFFFFFFFFFFFFFFFFFFFFFFFFFFFFFFFFFFFFFF AND SUB PUSH2 0x1827 JUMPI PUSH1 0x40 MLOAD PUSH32 0x8C379A000000000000000000000000000000000000000000000000000000000 DUP2 MSTORE PUSH1 0x4 ADD PUSH2 0x181E SWAP1 PUSH2 0x2740 JUMP JUMPDEST PUSH1 0x40 MLOAD DUP1 SWAP2 SUB SWAP1 REVERT JUMPDEST DUP1 PUSH20 0xFFFFFFFFFFFFFFFFFFFFFFFFFFFFFFFFFFFFFFFF AND PUSH2 0x8FC SELFBALANCE SWAP1 DUP2 ISZERO MUL SWAP1 PUSH1 0x40 MLOAD PUSH0 PUSH1 0x40 MLOAD DUP1 DUP4 SUB DUP2 DUP6 DUP9 DUP9 CALL SWAP4 POP POP POP POP ISZERO DUP1 ISZERO PUSH2 0x186A JUMPI RETURNDATASIZE PUSH0 DUP1 RETURNDATACOPY RETURNDATASIZE PUSH0 REVERT JUMPDEST POP POP JUMP JUMPDEST PUSH0 PUSH1 0x7 PUSH0 PUSH1 0x6 PUSH0 DUP6 PUSH20 0xFFFFFFFFFFFFFFFFFFFFFFFFFFFFFFFFFFFFFFFF AND PUSH20 0xFFFFFFFFFFFFFFFFFFFFFFFFFFFFFFFFFFFFFFFF AND DUP2 MSTORE PUSH1 0x20 ADD SWAP1 DUP2 MSTORE PUSH1 0x20 ADD PUSH0 KECCAK256 SLOAD DUP2 MSTORE PUSH1 0x20 ADD SWAP1 DUP2 MSTORE PUSH1 0x20 ADD PUSH0 KECCAK256 PUSH1 0x1 ADD SLOAD SWAP1 POP SWAP2 SWAP1 POP JUMP JUMPDEST PUSH1 0x2 PUSH1 0x20 MSTORE DUP1 PUSH0 MSTORE PUSH1 0x40 PUSH0 KECCAK256 PUSH0 SWAP2 POP SWAP1 POP SLOAD DUP2 JUMP JUMPDEST DUP3 DUP1 SLOAD DUP3 DUP3 SSTORE SWAP1 PUSH0 MSTORE PUSH1 0x20 PUSH0 KECCAK256 SWAP1 PUSH1 0x4 MUL DUP2 ADD SWAP3 DUP3 ISZERO PUSH2 0x1968 JUMPI PUSH0 MSTORE PUSH1 0x20 PUSH0 KECCAK256 SWAP2 PUSH1 0x4 MUL DUP3 ADD JUMPDEST DUP3 DUP2 GT ISZERO PUSH2 0x1967 JUMPI DUP3 DUP3 PUSH0 DUP3 ADD SLOAD DUP2 PUSH0 ADD SSTORE PUSH1 0x1 DUP3 ADD SLOAD DUP2 PUSH1 0x1 ADD SSTORE PUSH1 0x2 DUP3 ADD SLOAD DUP2 PUSH1 0x2 ADD SSTORE PUSH1 0x3 DUP3 ADD PUSH0 SWAP1 SLOAD SWAP1 PUSH2 0x100 EXP SWAP1 DIV PUSH1 0xFF AND DUP2 PUSH1 0x3 ADD PUSH0 PUSH2 0x100 EXP DUP2 SLOAD DUP2 PUSH1 0xFF MUL NOT AND SWAP1 DUP4 PUSH1 0xFF AND MUL OR SWAP1 SSTORE POP POP POP SWAP2 PUSH1 0x4 ADD SWAP2 SWAP1 PUSH1 0x4 ADD SWAP1 PUSH2 0x1904 JUMP JUMPDEST JUMPDEST POP SWAP1 POP PUSH2 0x1975 SWAP2 SWAP1 PUSH2 0x19DD JUMP JUMPDEST POP SWAP1 JUMP JUMPDEST PUSH1 0x40 MLOAD DUP1 PUSH1 0x80 ADD PUSH1 0x40 MSTORE DUP1 PUSH0 DUP2 MSTORE PUSH1 0x20 ADD PUSH0 DUP2 MSTORE PUSH1 0x20 ADD PUSH0 DUP2 MSTORE PUSH1 0x20 ADD PUSH0 PUSH1 0xFF AND DUP2 MSTORE POP SWAP1 JUMP JUMPDEST PUSH1 0x40 MLOAD DUP1 PUSH1 0x80 ADD PUSH1 0x40 MSTORE DUP1 PUSH0 PUSH20 0xFFFFFFFFFFFFFFFFFFFFFFFFFFFFFFFFFFFFFFFF AND DUP2 MSTORE PUSH1 0x20 ADD PUSH0 DUP2 MSTORE PUSH1 0x20 ADD PUSH0 ISZERO ISZERO DUP2 MSTORE PUSH1 0x20 ADD PUSH1 0x60 DUP2 MSTORE POP SWAP1 JUMP JUMPDEST JUMPDEST DUP1 DUP3 GT ISZERO PUSH2 0x1A17 JUMPI PUSH0 DUP1 DUP3 ADD PUSH0 SWAP1 SSTORE PUSH1 0x1 DUP3 ADD PUSH0 SWAP1 SSTORE PUSH1 0x2 DUP3 ADD PUSH0 SWAP1 SSTORE PUSH1 0x3 DUP3 ADD PUSH0 PUSH2 0x100 EXP DUP2 SLOAD SWAP1 PUSH1 0xFF MUL NOT AND SWAP1 SSTORE POP PUSH1 0x4 ADD PUSH2 0x19DE JUMP JUMPDEST POP SWAP1 JUMP JUMPDEST PUSH0 DUP3 DUP3 MSTORE PUSH1 0x20 DUP3 ADD SWAP1 POP SWAP3 SWAP2 POP POP JUMP JUMPDEST PUSH32 0x53656E64206D6F726520424E4220746F20627579205450540000000000000000 PUSH0 DUP3 ADD MSTORE POP JUMP JUMPDEST PUSH0 PUSH2 0x1A5F PUSH1 0x18 DUP4 PUSH2 0x1A1B JUMP JUMPDEST SWAP2 POP PUSH2 0x1A6A DUP3 PUSH2 0x1A2B JUMP JUMPDEST PUSH1 0x20 DUP3 ADD SWAP1 POP SWAP2 SWAP1 POP JUMP JUMPDEST PUSH0 PUSH1 0x20 DUP3 ADD SWAP1 POP DUP2 DUP2 SUB PUSH0 DUP4 ADD MSTORE PUSH2 0x1A8C DUP2 PUSH2 0x1A53 JUMP JUMPDEST SWAP1 POP SWAP2 SWAP1 POP JUMP JUMPDEST PUSH0 DUP2 SWAP1 POP SWAP3 SWAP2 POP POP JUMP JUMPDEST POP JUMP JUMPDEST PUSH0 PUSH2 0x1AAB PUSH0 DUP4 PUSH2 0x1A93 JUMP JUMPDEST SWAP2 POP PUSH2 0x1AB6 DUP3 PUSH2 0x1A9D JUMP JUMPDEST PUSH0 DUP3 ADD SWAP1 POP SWAP2 SWAP1 POP JUMP JUMPDEST PUSH0 PUSH2 0x1ACA DUP3 PUSH2 0x1AA0 JUMP JUMPDEST SWAP2 POP DUP2 SWAP1 POP SWAP2 SWAP1 POP JUMP JUMPDEST PUSH32 0x5472616E73666572206661696C65640000000000000000000000000000000000 PUSH0 DUP3 ADD MSTORE POP JUMP JUMPDEST PUSH0 PUSH2 0x1B08 PUSH1 0xF DUP4 PUSH2 0x1A1B JUMP JUMPDEST SWAP2 POP PUSH2 0x1B13 DUP3 PUSH2 0x1AD4 JUMP JUMPDEST PUSH1 0x20 DUP3 ADD SWAP1 POP SWAP2 SWAP1 POP JUMP JUMPDEST PUSH0 PUSH1 0x20 DUP3 ADD SWAP1 POP DUP2 DUP2 SUB PUSH0 DUP4 ADD MSTORE PUSH2 0x1B35 DUP2 PUSH2 0x1AFC JUMP JUMPDEST SWAP1 POP SWAP2 SWAP1 POP JUMP JUMPDEST PUSH32 0x496E76616C69642064617461206C656E67746800000000000000000000000000 PUSH0 DUP3 ADD MSTORE POP JUMP JUMPDEST PUSH0 PUSH2 0x1B70 PUSH1 0x13 DUP4 PUSH2 0x1A1B JUMP JUMPDEST SWAP2 POP PUSH2 0x1B7B DUP3 PUSH2 0x1B3C JUMP JUMPDEST PUSH1 0x20 DUP3 ADD SWAP1 POP SWAP2 SWAP1 POP JUMP JUMPDEST PUSH0 PUSH1 0x20 DUP3 ADD SWAP1 POP DUP2 DUP2 SUB PUSH0 DUP4 ADD MSTORE PUSH2 0x1B9D DUP2 PUSH2 0x1B64 JUMP JUMPDEST SWAP1 POP SWAP2 SWAP1 POP JUMP JUMPDEST PUSH0 PUSH1 0x40 MLOAD SWAP1 POP SWAP1 JUMP JUMPDEST PUSH0 DUP1 REVERT JUMPDEST PUSH0 DUP1 REVERT JUMPDEST PUSH0 DUP2 ISZERO ISZERO SWAP1 POP SWAP2 SWAP1 POP JUMP JUMPDEST PUSH2 0x1BC9 DUP2 PUSH2 0x1BB5 JUMP JUMPDEST DUP2 EQ PUSH2 0x1BD3 JUMPI PUSH0 DUP1 REVERT JUMPDEST POP JUMP JUMPDEST PUSH0 DUP2 CALLDATALOAD SWAP1 POP PUSH2 0x1BE4 DUP2 PUSH2 0x1BC0 JUMP JUMPDEST SWAP3 SWAP2 POP POP JUMP JUMPDEST PUSH0 PUSH1 0x20 DUP3 DUP5 SUB SLT ISZERO PUSH2 0x1BFF JUMPI PUSH2 0x1BFE PUSH2 0x1BAD JUMP JUMPDEST JUMPDEST PUSH0 PUSH2 0x1C0C DUP5 DUP3 DUP6 ADD PUSH2 0x1BD6 JUMP JUMPDEST SWAP2 POP POP SWAP3 SWAP2 POP POP JUMP JUMPDEST PUSH32 0x73656E64206A75737420302E303520626E620000000000000000000000000000 PUSH0 DUP3 ADD MSTORE POP JUMP JUMPDEST PUSH0 PUSH2 0x1C49 PUSH1 0x12 DUP4 PUSH2 0x1A1B JUMP JUMPDEST SWAP2 POP PUSH2 0x1C54 DUP3 PUSH2 0x1C15 JUMP JUMPDEST PUSH1 0x20 DUP3 ADD SWAP1 POP SWAP2 SWAP1 POP JUMP JUMPDEST PUSH0 PUSH1 0x20 DUP3 ADD SWAP1 POP DUP2 DUP2 SUB PUSH0 DUP4 ADD MSTORE PUSH2 0x1C76 DUP2 PUSH2 0x1C3D JUMP JUMPDEST SWAP1 POP SWAP2 SWAP1 POP JUMP JUMPDEST PUSH0 PUSH20 0xFFFFFFFFFFFFFFFFFFFFFFFFFFFFFFFFFFFFFFFF DUP3 AND SWAP1 POP SWAP2 SWAP1 POP JUMP JUMPDEST PUSH0 PUSH2 0x1CA6 DUP3 PUSH2 0x1C7D JUMP JUMPDEST SWAP1 POP SWAP2 SWAP1 POP JUMP JUMPDEST PUSH2 0x1CB6 DUP2 PUSH2 0x1C9C JUMP JUMPDEST DUP2 EQ PUSH2 0x1CC0 JUMPI PUSH0 DUP1 REVERT JUMPDEST POP JUMP JUMPDEST PUSH0 DUP2 CALLDATALOAD SWAP1 POP PUSH2 0x1CD1 DUP2 PUSH2 0x1CAD JUMP JUMPDEST SWAP3 SWAP2 POP POP JUMP JUMPDEST PUSH0 DUP2 SWAP1 POP SWAP2 SWAP1 POP JUMP JUMPDEST PUSH2 0x1CE9 DUP2 PUSH2 0x1CD7 JUMP JUMPDEST DUP2 EQ PUSH2 0x1CF3 JUMPI PUSH0 DUP1 REVERT JUMPDEST POP JUMP JUMPDEST PUSH0 DUP2 CALLDATALOAD SWAP1 POP PUSH2 0x1D04 DUP2 PUSH2 0x1CE0 JUMP JUMPDEST SWAP3 SWAP2 POP POP JUMP JUMPDEST PUSH0 DUP1 PUSH1 0x40 DUP4 DUP6 SUB SLT ISZERO PUSH2 0x1D20 JUMPI PUSH2 0x1D1F PUSH2 0x1BAD JUMP JUMPDEST JUMPDEST PUSH0 PUSH2 0x1D2D DUP6 DUP3 DUP7 ADD PUSH2 0x1CC3 JUMP JUMPDEST SWAP3 POP POP PUSH1 0x20 PUSH2 0x1D3E DUP6 DUP3 DUP7 ADD PUSH2 0x1CF6 JUMP JUMPDEST SWAP2 POP POP SWAP3 POP SWAP3 SWAP1 POP JUMP JUMPDEST PUSH2 0x1D51 DUP2 PUSH2 0x1CD7 JUMP JUMPDEST DUP3 MSTORE POP POP JUMP JUMPDEST PUSH0 PUSH1 0xFF DUP3 AND SWAP1 POP SWAP2 SWAP1 POP JUMP JUMPDEST PUSH2 0x1D6C DUP2 PUSH2 0x1D57 JUMP JUMPDEST DUP3 MSTORE POP POP JUMP JUMPDEST PUSH1 0x80 DUP3 ADD PUSH0 DUP3 ADD MLOAD PUSH2 0x1D86 PUSH0 DUP6 ADD DUP3 PUSH2 0x1D48 JUMP JUMPDEST POP PUSH1 0x20 DUP3 ADD MLOAD PUSH2 0x1D99 PUSH1 0x20 DUP6 ADD DUP3 PUSH2 0x1D48 JUMP JUMPDEST POP PUSH1 0x40 DUP3 ADD MLOAD PUSH2 0x1DAC PUSH1 0x40 DUP6 ADD DUP3 PUSH2 0x1D48 JUMP JUMPDEST POP PUSH1 0x60 DUP3 ADD MLOAD PUSH2 0x1DBF PUSH1 0x60 DUP6 ADD DUP3 PUSH2 0x1D63 JUMP JUMPDEST POP POP POP POP JUMP JUMPDEST PUSH0 PUSH1 0x80 DUP3 ADD SWAP1 POP PUSH2 0x1DD8 PUSH0 DUP4 ADD DUP5 PUSH2 0x1D72 JUMP JUMPDEST SWAP3 SWAP2 POP POP JUMP JUMPDEST PUSH0 PUSH1 0x20 DUP3 DUP5 SUB SLT ISZERO PUSH2 0x1DF3 JUMPI PUSH2 0x1DF2 PUSH2 0x1BAD JUMP JUMPDEST JUMPDEST PUSH0 PUSH2 0x1E00 DUP5 DUP3 DUP6 ADD PUSH2 0x1CC3 JUMP JUMPDEST SWAP2 POP POP SWAP3 SWAP2 POP POP JUMP JUMPDEST PUSH2 0x1E12 DUP2 PUSH2 0x1CD7 JUMP JUMPDEST DUP3 MSTORE POP POP JUMP JUMPDEST PUSH0 PUSH1 0x20 DUP3 ADD SWAP1 POP PUSH2 0x1E2B PUSH0 DUP4 ADD DUP5 PUSH2 0x1E09 JUMP JUMPDEST SWAP3 SWAP2 POP POP JUMP JUMPDEST PUSH0 DUP2 MLOAD SWAP1 POP SWAP2 SWAP1 POP JUMP JUMPDEST PUSH0 JUMPDEST DUP4 DUP2 LT ISZERO PUSH2 0x1E58 JUMPI DUP1 DUP3 ADD MLOAD DUP2 DUP5 ADD MSTORE PUSH1 0x20 DUP2 ADD SWAP1 POP PUSH2 0x1E3D JUMP JUMPDEST PUSH0 DUP5 DUP5 ADD MSTORE POP POP POP POP JUMP JUMPDEST PUSH0 PUSH1 0x1F NOT PUSH1 0x1F DUP4 ADD AND SWAP1 POP SWAP2 SWAP1 POP JUMP JUMPDEST PUSH0 PUSH2 0x1E7D DUP3 PUSH2 0x1E31 JUMP JUMPDEST PUSH2 0x1E87 DUP2 DUP6 PUSH2 0x1A1B JUMP JUMPDEST SWAP4 POP PUSH2 0x1E97 DUP2 DUP6 PUSH1 0x20 DUP7 ADD PUSH2 0x1E3B JUMP JUMPDEST PUSH2 0x1EA0 DUP2 PUSH2 0x1E63 JUMP JUMPDEST DUP5 ADD SWAP2 POP POP SWAP3 SWAP2 POP POP JUMP JUMPDEST PUSH0 PUSH1 0x20 DUP3 ADD SWAP1 POP DUP2 DUP2 SUB PUSH0 DUP4 ADD MSTORE PUSH2 0x1EC3 DUP2 DUP5 PUSH2 0x1E73 JUMP JUMPDEST SWAP1 POP SWAP3 SWAP2 POP POP JUMP JUMPDEST PUSH0 PUSH2 0x1ED5 DUP3 PUSH2 0x1C7D JUMP JUMPDEST SWAP1 POP SWAP2 SWAP1 POP JUMP JUMPDEST PUSH2 0x1EE5 DUP2 PUSH2 0x1ECB JUMP JUMPDEST DUP2 EQ PUSH2 0x1EEF JUMPI PUSH0 DUP1 REVERT JUMPDEST POP JUMP JUMPDEST PUSH0 DUP2 CALLDATALOAD SWAP1 POP PUSH2 0x1F00 DUP2 PUSH2 0x1EDC JUMP JUMPDEST SWAP3 SWAP2 POP POP JUMP JUMPDEST PUSH0 PUSH1 0x20 DUP3 DUP5 SUB SLT ISZERO PUSH2 0x1F1B JUMPI PUSH2 0x1F1A PUSH2 0x1BAD JUMP JUMPDEST JUMPDEST PUSH0 PUSH2 0x1F28 DUP5 DUP3 DUP6 ADD PUSH2 0x1EF2 JUMP JUMPDEST SWAP2 POP POP SWAP3 SWAP2 POP POP JUMP JUMPDEST PUSH0 PUSH1 0x20 DUP3 DUP5 SUB SLT ISZERO PUSH2 0x1F46 JUMPI PUSH2 0x1F45 PUSH2 0x1BAD JUMP JUMPDEST JUMPDEST PUSH0 PUSH2 0x1F53 DUP5 DUP3 DUP6 ADD PUSH2 0x1CF6 JUMP JUMPDEST SWAP2 POP POP SWAP3 SWAP2 POP POP JUMP JUMPDEST PUSH2 0x1F65 DUP2 PUSH2 0x1C9C JUMP JUMPDEST DUP3 MSTORE POP POP JUMP JUMPDEST PUSH2 0x1F74 DUP2 PUSH2 0x1BB5 JUMP JUMPDEST DUP3 MSTORE POP POP JUMP JUMPDEST PUSH0 DUP2 MLOAD SWAP1 POP SWAP2 SWAP1 POP JUMP JUMPDEST PUSH0 DUP3 DUP3 MSTORE PUSH1 0x20 DUP3 ADD SWAP1 POP SWAP3 SWAP2 POP POP JUMP JUMPDEST PUSH0 DUP2 SWAP1 POP PUSH1 0x20 DUP3 ADD SWAP1 POP SWAP2 SWAP1 POP JUMP JUMPDEST PUSH1 0x80 DUP3 ADD PUSH0 DUP3 ADD MLOAD PUSH2 0x1FB7 PUSH0 DUP6 ADD DUP3 PUSH2 0x1D48 JUMP JUMPDEST POP PUSH1 0x20 DUP3 ADD MLOAD PUSH2 0x1FCA PUSH1 0x20 DUP6 ADD DUP3 PUSH2 0x1D48 JUMP JUMPDEST POP PUSH1 0x40 DUP3 ADD MLOAD PUSH2 0x1FDD PUSH1 0x40 DUP6 ADD DUP3 PUSH2 0x1D48 JUMP JUMPDEST POP PUSH1 0x60 DUP3 ADD MLOAD PUSH2 0x1FF0 PUSH1 0x60 DUP6 ADD DUP3 PUSH2 0x1D63 JUMP JUMPDEST POP POP POP POP JUMP JUMPDEST PUSH0 PUSH2 0x2001 DUP4 DUP4 PUSH2 0x1FA3 JUMP JUMPDEST PUSH1 0x80 DUP4 ADD SWAP1 POP SWAP3 SWAP2 POP POP JUMP JUMPDEST PUSH0 PUSH1 0x20 DUP3 ADD SWAP1 POP SWAP2 SWAP1 POP JUMP JUMPDEST PUSH0 PUSH2 0x2023 DUP3 PUSH2 0x1F7A JUMP JUMPDEST PUSH2 0x202D DUP2 DUP6 PUSH2 0x1F84 JUMP JUMPDEST SWAP4 POP PUSH2 0x2038 DUP4 PUSH2 0x1F94 JUMP JUMPDEST DUP1 PUSH0 JUMPDEST DUP4 DUP2 LT ISZERO PUSH2 0x2068 JUMPI DUP2 MLOAD PUSH2 0x204F DUP9 DUP3 PUSH2 0x1FF6 JUMP JUMPDEST SWAP8 POP PUSH2 0x205A DUP4 PUSH2 0x200D JUMP JUMPDEST SWAP3 POP POP PUSH1 0x1 DUP2 ADD SWAP1 POP PUSH2 0x203B JUMP JUMPDEST POP DUP6 SWAP4 POP POP POP POP SWAP3 SWAP2 POP POP JUMP JUMPDEST PUSH0 PUSH1 0x80 DUP4 ADD PUSH0 DUP4 ADD MLOAD PUSH2 0x208A PUSH0 DUP7 ADD DUP3 PUSH2 0x1F5C JUMP JUMPDEST POP PUSH1 0x20 DUP4 ADD MLOAD PUSH2 0x209D PUSH1 0x20 DUP7 ADD DUP3 PUSH2 0x1D48 JUMP JUMPDEST POP PUSH1 0x40 DUP4 ADD MLOAD PUSH2 0x20B0 PUSH1 0x40 DUP7 ADD DUP3 PUSH2 0x1F6B JUMP JUMPDEST POP PUSH1 0x60 DUP4 ADD MLOAD DUP5 DUP3 SUB PUSH1 0x60 DUP7 ADD MSTORE PUSH2 0x20C8 DUP3 DUP3 PUSH2 0x2019 JUMP JUMPDEST SWAP2 POP POP DUP1 SWAP2 POP POP SWAP3 SWAP2 POP POP JUMP JUMPDEST PUSH0 PUSH1 0x20 DUP3 ADD SWAP1 POP DUP2 DUP2 SUB PUSH0 DUP4 ADD MSTORE PUSH2 0x20ED DUP2 DUP5 PUSH2 0x2075 JUMP JUMPDEST SWAP1 POP SWAP3 SWAP2 POP POP JUMP JUMPDEST PUSH2 0x20FE DUP2 PUSH2 0x1D57 JUMP JUMPDEST DUP2 EQ PUSH2 0x2108 JUMPI PUSH0 DUP1 REVERT JUMPDEST POP JUMP JUMPDEST PUSH0 DUP2 CALLDATALOAD SWAP1 POP PUSH2 0x2119 DUP2 PUSH2 0x20F5 JUMP JUMPDEST SWAP3 SWAP2 POP POP JUMP JUMPDEST PUSH0 PUSH1 0x20 DUP3 DUP5 SUB SLT ISZERO PUSH2 0x2134 JUMPI PUSH2 0x2133 PUSH2 0x1BAD JUMP JUMPDEST JUMPDEST PUSH0 PUSH2 0x2141 DUP5 DUP3 DUP6 ADD PUSH2 0x210B JUMP JUMPDEST SWAP2 POP POP SWAP3 SWAP2 POP POP JUMP JUMPDEST PUSH2 0x2153 DUP2 PUSH2 0x1ECB JUMP JUMPDEST DUP3 MSTORE POP POP JUMP JUMPDEST PUSH0 PUSH1 0x20 DUP3 ADD SWAP1 POP PUSH2 0x216C PUSH0 DUP4 ADD DUP5 PUSH2 0x214A JUMP JUMPDEST SWAP3 SWAP2 POP POP JUMP JUMPDEST PUSH0 DUP1 PUSH1 0x40 DUP4 DUP6 SUB SLT ISZERO PUSH2 0x2188 JUMPI PUSH2 0x2187 PUSH2 0x1BAD JUMP JUMPDEST JUMPDEST PUSH0 PUSH2 0x2195 DUP6 DUP3 DUP7 ADD PUSH2 0x210B JUMP JUMPDEST SWAP3 POP POP PUSH1 0x20 PUSH2 0x21A6 DUP6 DUP3 DUP7 ADD PUSH2 0x1CF6 JUMP JUMPDEST SWAP2 POP POP SWAP3 POP SWAP3 SWAP1 POP JUMP JUMPDEST PUSH2 0x21B9 DUP2 PUSH2 0x1D57 JUMP JUMPDEST DUP3 MSTORE POP POP JUMP JUMPDEST PUSH0 PUSH1 0x20 DUP3 ADD SWAP1 POP PUSH2 0x21D2 PUSH0 DUP4 ADD DUP5 PUSH2 0x21B0 JUMP JUMPDEST SWAP3 SWAP2 POP POP JUMP JUMPDEST PUSH32 0x436F6E7472616374205061757365640000000000000000000000000000000000 PUSH0 DUP3 ADD MSTORE POP JUMP JUMPDEST PUSH0 PUSH2 0x220C PUSH1 0xF DUP4 PUSH2 0x1A1B JUMP JUMPDEST SWAP2 POP PUSH2 0x2217 DUP3 PUSH2 0x21D8 JUMP JUMPDEST PUSH1 0x20 DUP3 ADD SWAP1 POP SWAP2 SWAP1 POP JUMP JUMPDEST PUSH0 PUSH1 0x20 DUP3 ADD SWAP1 POP DUP2 DUP2 SUB PUSH0 DUP4 ADD MSTORE PUSH2 0x2239 DUP2 PUSH2 0x2200 JUMP JUMPDEST SWAP1 POP SWAP2 SWAP1 POP JUMP JUMPDEST PUSH32 0x4E6F205265656E7472616E63792C706C73207761697400000000000000000000 PUSH0 DUP3 ADD MSTORE POP JUMP JUMPDEST PUSH0 PUSH2 0x2274 PUSH1 0x16 DUP4 PUSH2 0x1A1B JUMP JUMPDEST SWAP2 POP PUSH2 0x227F DUP3 PUSH2 0x2240 JUMP JUMPDEST PUSH1 0x20 DUP3 ADD SWAP1 POP SWAP2 SWAP1 POP JUMP JUMPDEST PUSH0 PUSH1 0x20 DUP3 ADD SWAP1 POP DUP2 DUP2 SUB PUSH0 DUP4 ADD MSTORE PUSH2 0x22A1 DUP2 PUSH2 0x2268 JUMP JUMPDEST SWAP1 POP SWAP2 SWAP1 POP JUMP JUMPDEST PUSH32 0x4E487B7100000000000000000000000000000000000000000000000000000000 PUSH0 MSTORE PUSH1 0x11 PUSH1 0x4 MSTORE PUSH1 0x24 PUSH0 REVERT JUMPDEST PUSH0 PUSH2 0x22DF DUP3 PUSH2 0x1CD7 JUMP JUMPDEST SWAP2 POP PUSH32 0xFFFFFFFFFFFFFFFFFFFFFFFFFFFFFFFFFFFFFFFFFFFFFFFFFFFFFFFFFFFFFFFF DUP3 SUB PUSH2 0x2311 JUMPI PUSH2 0x2310 PUSH2 0x22A8 JUMP JUMPDEST JUMPDEST PUSH1 0x1 DUP3 ADD SWAP1 POP SWAP2 SWAP1 POP JUMP JUMPDEST PUSH0 DUP2 MLOAD SWAP1 POP PUSH2 0x232A DUP2 PUSH2 0x1CE0 JUMP JUMPDEST SWAP3 SWAP2 POP POP JUMP JUMPDEST PUSH0 PUSH1 0x20 DUP3 DUP5 SUB SLT ISZERO PUSH2 0x2345 JUMPI PUSH2 0x2344 PUSH2 0x1BAD JUMP JUMPDEST JUMPDEST PUSH0 PUSH2 0x2352 DUP5 DUP3 DUP6 ADD PUSH2 0x231C JUMP JUMPDEST SWAP2 POP POP SWAP3 SWAP2 POP POP JUMP JUMPDEST PUSH32 0x6E6F206F66666572206D6F726500000000000000000000000000000000000000 PUSH0 DUP3 ADD MSTORE POP JUMP JUMPDEST PUSH0 PUSH2 0x238F PUSH1 0xD DUP4 PUSH2 0x1A1B JUMP JUMPDEST SWAP2 POP PUSH2 0x239A DUP3 PUSH2 0x235B JUMP JUMPDEST PUSH1 0x20 DUP3 ADD SWAP1 POP SWAP2 SWAP1 POP JUMP JUMPDEST PUSH0 PUSH1 0x20 DUP3 ADD SWAP1 POP DUP2 DUP2 SUB PUSH0 DUP4 ADD MSTORE PUSH2 0x23BC DUP2 PUSH2 0x2383 JUMP JUMPDEST SWAP1 POP SWAP2 SWAP1 POP JUMP JUMPDEST PUSH0 PUSH2 0x23CD DUP3 PUSH2 0x1CD7 JUMP JUMPDEST SWAP2 POP PUSH2 0x23D8 DUP4 PUSH2 0x1CD7 JUMP JUMPDEST SWAP3 POP DUP3 DUP3 MUL PUSH2 0x23E6 DUP2 PUSH2 0x1CD7 JUMP JUMPDEST SWAP2 POP DUP3 DUP3 DIV DUP5 EQ DUP4 ISZERO OR PUSH2 0x23FD JUMPI PUSH2 0x23FC PUSH2 0x22A8 JUMP JUMPDEST JUMPDEST POP SWAP3 SWAP2 POP POP JUMP JUMPDEST PUSH32 0x4E487B7100000000000000000000000000000000000000000000000000000000 PUSH0 MSTORE PUSH1 0x12 PUSH1 0x4 MSTORE PUSH1 0x24 PUSH0 REVERT JUMPDEST PUSH0 PUSH2 0x243B DUP3 PUSH2 0x1CD7 JUMP JUMPDEST SWAP2 POP PUSH2 0x2446 DUP4 PUSH2 0x1CD7 JUMP JUMPDEST SWAP3 POP DUP3 PUSH2 0x2456 JUMPI PUSH2 0x2455 PUSH2 0x2404 JUMP JUMPDEST JUMPDEST DUP3 DUP3 DIV SWAP1 POP SWAP3 SWAP2 POP POP JUMP JUMPDEST PUSH0 PUSH2 0x246B DUP3 PUSH2 0x1CD7 JUMP JUMPDEST SWAP2 POP PUSH2 0x2476 DUP4 PUSH2 0x1CD7 JUMP JUMPDEST SWAP3 POP DUP3 DUP3 ADD SWAP1 POP DUP1 DUP3 GT ISZERO PUSH2 0x248E JUMPI PUSH2 0x248D PUSH2 0x22A8 JUMP JUMPDEST JUMPDEST SWAP3 SWAP2 POP POP JUMP JUMPDEST PUSH32 0x4E487B7100000000000000000000000000000000000000000000000000000000 PUSH0 MSTORE PUSH1 0x32 PUSH1 0x4 MSTORE PUSH1 0x24 PUSH0 REVERT JUMPDEST PUSH32 0x4F6E6C79206F776E657200000000000000000000000000000000000000000000 PUSH0 DUP3 ADD MSTORE POP JUMP JUMPDEST PUSH0 PUSH2 0x24F5 PUSH1 0xA DUP4 PUSH2 0x1A1B JUMP JUMPDEST SWAP2 POP PUSH2 0x2500 DUP3 PUSH2 0x24C1 JUMP JUMPDEST PUSH1 0x20 DUP3 ADD SWAP1 POP SWAP2 SWAP1 POP JUMP JUMPDEST PUSH0 PUSH1 0x20 DUP3 ADD SWAP1 POP DUP2 DUP2 SUB PUSH0 DUP4 ADD MSTORE PUSH2 0x2522 DUP2 PUSH2 0x24E9 JUMP JUMPDEST SWAP1 POP SWAP2 SWAP1 POP JUMP JUMPDEST PUSH0 DUP1 REVERT JUMPDEST PUSH0 DUP1 REVERT JUMPDEST PUSH32 0x4E487B7100000000000000000000000000000000000000000000000000000000 PUSH0 MSTORE PUSH1 0x41 PUSH1 0x4 MSTORE PUSH1 0x24 PUSH0 REVERT JUMPDEST PUSH2 0x2567 DUP3 PUSH2 0x1E63 JUMP JUMPDEST DUP2 ADD DUP2 DUP2 LT PUSH8 0xFFFFFFFFFFFFFFFF DUP3 GT OR ISZERO PUSH2 0x2586 JUMPI PUSH2 0x2585 PUSH2 0x2531 JUMP JUMPDEST JUMPDEST DUP1 PUSH1 0x40 MSTORE POP POP POP JUMP JUMPDEST PUSH0 PUSH2 0x2598 PUSH2 0x1BA4 JUMP JUMPDEST SWAP1 POP PUSH2 0x25A4 DUP3 DUP3 PUSH2 0x255E JUMP JUMPDEST SWAP2 SWAP1 POP JUMP JUMPDEST PUSH0 PUSH8 0xFFFFFFFFFFFFFFFF DUP3 GT ISZERO PUSH2 0x25C3 JUMPI PUSH2 0x25C2 PUSH2 0x2531 JUMP JUMPDEST JUMPDEST PUSH2 0x25CC DUP3 PUSH2 0x1E63 JUMP JUMPDEST SWAP1 POP PUSH1 0x20 DUP2 ADD SWAP1 POP SWAP2 SWAP1 POP JUMP JUMPDEST PUSH0 PUSH2 0x25EB PUSH2 0x25E6 DUP5 PUSH2 0x25A9 JUMP JUMPDEST PUSH2 0x258F JUMP JUMPDEST SWAP1 POP DUP3 DUP2 MSTORE PUSH1 0x20 DUP2 ADD DUP5 DUP5 DUP5 ADD GT ISZERO PUSH2 0x2607 JUMPI PUSH2 0x2606 PUSH2 0x252D JUMP JUMPDEST JUMPDEST PUSH2 0x2612 DUP5 DUP3 DUP6 PUSH2 0x1E3B JUMP JUMPDEST POP SWAP4 SWAP3 POP POP POP JUMP JUMPDEST PUSH0 DUP3 PUSH1 0x1F DUP4 ADD SLT PUSH2 0x262E JUMPI PUSH2 0x262D PUSH2 0x2529 JUMP JUMPDEST JUMPDEST DUP2 MLOAD PUSH2 0x263E DUP5 DUP3 PUSH1 0x20 DUP7 ADD PUSH2 0x25D9 JUMP JUMPDEST SWAP2 POP POP SWAP3 SWAP2 POP POP JUMP JUMPDEST PUSH0 PUSH1 0x20 DUP3 DUP5 SUB SLT ISZERO PUSH2 0x265C JUMPI PUSH2 0x265B PUSH2 0x1BAD JUMP JUMPDEST JUMPDEST PUSH0 DUP3 ADD MLOAD PUSH8 0xFFFFFFFFFFFFFFFF DUP2 GT ISZERO PUSH2 0x2679 JUMPI PUSH2 0x2678 PUSH2 0x1BB1 JUMP JUMPDEST JUMPDEST PUSH2 0x2685 DUP5 DUP3 DUP6 ADD PUSH2 0x261A JUMP JUMPDEST SWAP2 POP POP SWAP3 SWAP2 POP POP JUMP JUMPDEST PUSH32 0x6D696E2073686F756C64206265206D6F7265207468616E207461780000000000 PUSH0 DUP3 ADD MSTORE POP JUMP JUMPDEST PUSH0 PUSH2 0x26C2 PUSH1 0x1B DUP4 PUSH2 0x1A1B JUMP JUMPDEST SWAP2 POP PUSH2 0x26CD DUP3 PUSH2 0x268E JUMP JUMPDEST PUSH1 0x20 DUP3 ADD SWAP1 POP SWAP2 SWAP1 POP JUMP JUMPDEST PUSH0 PUSH1 0x20 DUP3 ADD SWAP1 POP DUP2 DUP2 SUB PUSH0 DUP4 ADD MSTORE PUSH2 0x26EF DUP2 PUSH2 0x26B6 JUMP JUMPDEST SWAP1 POP SWAP2 SWAP1 POP JUMP JUMPDEST PUSH32 0x496E76616C696420616464726573730000000000000000000000000000000000 PUSH0 DUP3 ADD MSTORE POP JUMP JUMPDEST PUSH0 PUSH2 0x272A PUSH1 0xF DUP4 PUSH2 0x1A1B JUMP JUMPDEST SWAP2 POP PUSH2 0x2735 DUP3 PUSH2 0x26F6 JUMP JUMPDEST PUSH1 0x20 DUP3 ADD SWAP1 POP SWAP2 SWAP1 POP JUMP JUMPDEST PUSH0 PUSH1 0x20 DUP3 ADD SWAP1 POP DUP2 DUP2 SUB PUSH0 DUP4 ADD MSTORE PUSH2 0x2757 DUP2 PUSH2 0x271E JUMP JUMPDEST SWAP1 POP SWAP2 SWAP1 POP JUMP INVALID LOG2 PUSH5 0x6970667358 0x22 SLT KECCAK256 0x29 0xDB 0xC3 CALLCODE 0xB2 MSIZE 0xED SIGNEXTEND DUP8 DUP5 0xB4 BLOCKHASH 0xDC 0xBB PUSH24 0x7027CC8DEDCA05CB5395EEC7036DC6965164736F6C634300 ADDMOD XOR STOP CALLER "
				},
				"gasEstimates": {
					"creation": {
						"codeDepositCost": "2026400",
						"executionCost": "infinite",
						"totalCost": "infinite"
					},
					"external": {
						"": "infinite",
						"chaneOwner(address)": "26929",
						"getPriceMode()": "infinite",
						"getPurchase(address,uint256)": "infinite",
						"getPurchaseCount(address)": "5087",
						"getThisStepPrice()": "4773",
						"getUserById(uint256)": "infinite",
						"getUserId(address)": "2875",
						"getUserTPTBalance(address)": "5099",
						"owner()": "2531",
						"setBNBPriceAddress(address)": "26973",
						"setMinRequire(uint256)": "26832",
						"setPriceMode()": "infinite",
						"setTPTPrice(uint8,uint256)": "24994",
						"setThisStep(uint8)": "27004",
						"thisStep()": "2584",
						"totalUsers()": "2469",
						"tptStepPrice(uint8)": "2870",
						"withdrawAll(address)": "infinite"
					},
					"internal": {
						"buyTPT(bool)": "infinite"
					}
				},
				"methodIdentifiers": {
					"chaneOwner(address)": "5f1276a7",
					"getPriceMode()": "54eb7ebe",
					"getPurchase(address,uint256)": "2a2a92cc",
					"getPurchaseCount(address)": "31bbf555",
					"getThisStepPrice()": "672cbe1a",
					"getUserById(uint256)": "6ed6da9e",
					"getUserId(address)": "2b956ff7",
					"getUserTPTBalance(address)": "fdbb6696",
					"owner()": "8da5cb5b",
					"setBNBPriceAddress(address)": "af6b5558",
					"setMinRequire(uint256)": "b76bdf06",
					"setPriceMode()": "487cb6b0",
					"setTPTPrice(uint8,uint256)": "a2f5546e",
					"setThisStep(uint8)": "7ce8a08e",
					"thisStep()": "ae243031",
					"totalUsers()": "bff1f9e1",
					"tptStepPrice(uint8)": "ffbe653d",
					"withdrawAll(address)": "fa09e630"
				}
			},
			"storageLayout": {
				"storage": [
					{
						"astId": 42,
						"contract": "contracts/TPTPreSale_flattened.sol:TPTPreSale",
						"label": "priceContract",
						"offset": 0,
						"slot": "0",
						"type": "t_address_payable"
					},
					{
						"astId": 44,
						"contract": "contracts/TPTPreSale_flattened.sol:TPTPreSale",
						"label": "owner",
						"offset": 0,
						"slot": "1",
						"type": "t_address_payable"
					},
					{
						"astId": 46,
						"contract": "contracts/TPTPreSale_flattened.sol:TPTPreSale",
						"label": "locked",
						"offset": 20,
						"slot": "1",
						"type": "t_bool"
					},
					{
						"astId": 48,
						"contract": "contracts/TPTPreSale_flattened.sol:TPTPreSale",
						"label": "thisStep",
						"offset": 21,
						"slot": "1",
						"type": "t_uint8"
					},
					{
						"astId": 52,
						"contract": "contracts/TPTPreSale_flattened.sol:TPTPreSale",
						"label": "tptStepPrice",
						"offset": 0,
						"slot": "2",
						"type": "t_mapping(t_uint8,t_uint256)"
					},
					{
						"astId": 54,
						"contract": "contracts/TPTPreSale_flattened.sol:TPTPreSale",
						"label": "getPriceTax",
						"offset": 0,
						"slot": "3",
						"type": "t_uint256"
					},
					{
						"astId": 56,
						"contract": "contracts/TPTPreSale_flattened.sol:TPTPreSale",
						"label": "minRequire",
						"offset": 0,
						"slot": "4",
						"type": "t_uint256"
					},
					{
						"astId": 58,
						"contract": "contracts/TPTPreSale_flattened.sol:TPTPreSale",
						"label": "totalUsers",
						"offset": 0,
						"slot": "5",
						"type": "t_uint256"
					},
					{
						"astId": 82,
						"contract": "contracts/TPTPreSale_flattened.sol:TPTPreSale",
						"label": "userId",
						"offset": 0,
						"slot": "6",
						"type": "t_mapping(t_address,t_uint256)"
					},
					{
						"astId": 87,
						"contract": "contracts/TPTPreSale_flattened.sol:TPTPreSale",
						"label": "users",
						"offset": 0,
						"slot": "7",
						"type": "t_mapping(t_uint256,t_struct(UserInfo)78_storage)"
					}
				],
				"types": {
					"t_address": {
						"encoding": "inplace",
						"label": "address",
						"numberOfBytes": "20"
					},
					"t_address_payable": {
						"encoding": "inplace",
						"label": "address payable",
						"numberOfBytes": "20"
					},
					"t_array(t_struct(Purchase)67_storage)dyn_storage": {
						"base": "t_struct(Purchase)67_storage",
						"encoding": "dynamic_array",
						"label": "struct TPTPreSale.Purchase[]",
						"numberOfBytes": "32"
					},
					"t_bool": {
						"encoding": "inplace",
						"label": "bool",
						"numberOfBytes": "1"
					},
					"t_mapping(t_address,t_uint256)": {
						"encoding": "mapping",
						"key": "t_address",
						"label": "mapping(address => uint256)",
						"numberOfBytes": "32",
						"value": "t_uint256"
					},
					"t_mapping(t_uint256,t_struct(UserInfo)78_storage)": {
						"encoding": "mapping",
						"key": "t_uint256",
						"label": "mapping(uint256 => struct TPTPreSale.UserInfo)",
						"numberOfBytes": "32",
						"value": "t_struct(UserInfo)78_storage"
					},
					"t_mapping(t_uint8,t_uint256)": {
						"encoding": "mapping",
						"key": "t_uint8",
						"label": "mapping(uint8 => uint256)",
						"numberOfBytes": "32",
						"value": "t_uint256"
					},
					"t_struct(Purchase)67_storage": {
						"encoding": "inplace",
						"label": "struct TPTPreSale.Purchase",
						"members": [
							{
								"astId": 60,
								"contract": "contracts/TPTPreSale_flattened.sol:TPTPreSale",
								"label": "timestamp",
								"offset": 0,
								"slot": "0",
								"type": "t_uint256"
							},
							{
								"astId": 62,
								"contract": "contracts/TPTPreSale_flattened.sol:TPTPreSale",
								"label": "bnbAmount",
								"offset": 0,
								"slot": "1",
								"type": "t_uint256"
							},
							{
								"astId": 64,
								"contract": "contracts/TPTPreSale_flattened.sol:TPTPreSale",
								"label": "tptAmount",
								"offset": 0,
								"slot": "2",
								"type": "t_uint256"
							},
							{
								"astId": 66,
								"contract": "contracts/TPTPreSale_flattened.sol:TPTPreSale",
								"label": "step",
								"offset": 0,
								"slot": "3",
								"type": "t_uint8"
							}
						],
						"numberOfBytes": "128"
					},
					"t_struct(UserInfo)78_storage": {
						"encoding": "inplace",
						"label": "struct TPTPreSale.UserInfo",
						"members": [
							{
								"astId": 69,
								"contract": "contracts/TPTPreSale_flattened.sol:TPTPreSale",
								"label": "walletAddress",
								"offset": 0,
								"slot": "0",
								"type": "t_address"
							},
							{
								"astId": 71,
								"contract": "contracts/TPTPreSale_flattened.sol:TPTPreSale",
								"label": "tptBalance",
								"offset": 0,
								"slot": "1",
								"type": "t_uint256"
							},
							{
								"astId": 73,
								"contract": "contracts/TPTPreSale_flattened.sol:TPTPreSale",
								"label": "hasOffer",
								"offset": 0,
								"slot": "2",
								"type": "t_bool"
							},
							{
								"astId": 77,
								"contract": "contracts/TPTPreSale_flattened.sol:TPTPreSale",
								"label": "purchaseList",
								"offset": 0,
								"slot": "3",
								"type": "t_array(t_struct(Purchase)67_storage)dyn_storage"
							}
						],
						"numberOfBytes": "128"
					},
					"t_uint256": {
						"encoding": "inplace",
						"label": "uint256",
						"numberOfBytes": "32"
					},
					"t_uint8": {
						"encoding": "inplace",
						"label": "uint8",
						"numberOfBytes": "1"
					}
				}
			},
			"userdoc": {
				"kind": "user",
				"methods": {},
				"version": 1
			}
		}
	}
}