{
	"contracts/PTPPreSale.sol": {
		"TPTPreSale": {
			"abi": [
				{
					"inputs": [
						{
							"internalType": "address",
							"name": "_iBnbPrice",
							"type": "address"
						}
					],
					"stateMutability": "nonpayable",
					"type": "constructor"
				},
				{
					"stateMutability": "payable",
					"type": "fallback"
				},
				{
					"inputs": [
						{
							"internalType": "bool",
							"name": "_useOffer",
							"type": "bool"
						}
					],
					"name": "calcAmount",
					"outputs": [
						{
							"internalType": "uint256",
							"name": "",
							"type": "uint256"
						}
					],
					"stateMutability": "payable",
					"type": "function"
				},
				{
					"inputs": [
						{
							"internalType": "address",
							"name": "_userAddress",
							"type": "address"
						},
						{
							"internalType": "uint256",
							"name": "index",
							"type": "uint256"
						}
					],
					"name": "getPurchase",
					"outputs": [
						{
							"internalType": "uint256",
							"name": "timestamp",
							"type": "uint256"
						},
						{
							"internalType": "uint256",
							"name": "bnbAmount",
							"type": "uint256"
						},
						{
							"internalType": "uint256",
							"name": "tptAmount",
							"type": "uint256"
						}
					],
					"stateMutability": "view",
					"type": "function"
				},
				{
					"inputs": [
						{
							"internalType": "address",
							"name": "_userAddress",
							"type": "address"
						}
					],
					"name": "getPurchaseCount",
					"outputs": [
						{
							"internalType": "uint256",
							"name": "",
							"type": "uint256"
						}
					],
					"stateMutability": "view",
					"type": "function"
				},
				{
					"inputs": [],
					"name": "getThisStepPrice",
					"outputs": [
						{
							"internalType": "uint256",
							"name": "",
							"type": "uint256"
						}
					],
					"stateMutability": "view",
					"type": "function"
				},
				{
					"inputs": [],
					"name": "getUsdBnbPrice",
					"outputs": [
						{
							"internalType": "uint256",
							"name": "usdBnb",
							"type": "uint256"
						},
						{
							"internalType": "bool",
							"name": "mode",
							"type": "bool"
						}
					],
					"stateMutability": "payable",
					"type": "function"
				},
				{
					"inputs": [
						{
							"internalType": "uint256",
							"name": "id",
							"type": "uint256"
						}
					],
					"name": "getUserAddress",
					"outputs": [
						{
							"internalType": "address",
							"name": "",
							"type": "address"
						}
					],
					"stateMutability": "view",
					"type": "function"
				},
				{
					"inputs": [
						{
							"internalType": "address",
							"name": "user",
							"type": "address"
						}
					],
					"name": "getUserId",
					"outputs": [
						{
							"internalType": "uint256",
							"name": "",
							"type": "uint256"
						}
					],
					"stateMutability": "view",
					"type": "function"
				},
				{
					"inputs": [
						{
							"internalType": "address",
							"name": "_userAddress",
							"type": "address"
						}
					],
					"name": "getUserTPTBalance",
					"outputs": [
						{
							"internalType": "uint256",
							"name": "",
							"type": "uint256"
						}
					],
					"stateMutability": "view",
					"type": "function"
				},
				{
					"inputs": [
						{
							"internalType": "address",
							"name": "_userAddress",
							"type": "address"
						},
						{
							"internalType": "uint256",
							"name": "_value",
							"type": "uint256"
						}
					],
					"name": "grantPointsById",
					"outputs": [],
					"stateMutability": "nonpayable",
					"type": "function"
				},
				{
					"inputs": [],
					"name": "owner",
					"outputs": [
						{
							"internalType": "address",
							"name": "",
							"type": "address"
						}
					],
					"stateMutability": "view",
					"type": "function"
				},
				{
					"inputs": [
						{
							"internalType": "address",
							"name": "_bnbprice",
							"type": "address"
						}
					],
					"name": "setIBNBPrice",
					"outputs": [],
					"stateMutability": "nonpayable",
					"type": "function"
				},
				{
					"inputs": [],
					"name": "setIBNBPriceMode",
					"outputs": [],
					"stateMutability": "nonpayable",
					"type": "function"
				},
				{
					"inputs": [
						{
							"internalType": "uint8",
							"name": "_step",
							"type": "uint8"
						},
						{
							"internalType": "uint256",
							"name": "_price",
							"type": "uint256"
						}
					],
					"name": "setTPTPrice",
					"outputs": [],
					"stateMutability": "nonpayable",
					"type": "function"
				},
				{
					"inputs": [
						{
							"internalType": "uint8",
							"name": "_step",
							"type": "uint8"
						}
					],
					"name": "setThisStep",
					"outputs": [],
					"stateMutability": "nonpayable",
					"type": "function"
				},
				{
					"inputs": [],
					"name": "thisStep",
					"outputs": [
						{
							"internalType": "uint8",
							"name": "",
							"type": "uint8"
						}
					],
					"stateMutability": "view",
					"type": "function"
				},
				{
					"inputs": [],
					"name": "totalUsers",
					"outputs": [
						{
							"internalType": "uint256",
							"name": "",
							"type": "uint256"
						}
					],
					"stateMutability": "view",
					"type": "function"
				},
				{
					"inputs": [
						{
							"internalType": "uint8",
							"name": "",
							"type": "uint8"
						}
					],
					"name": "tptPrice",
					"outputs": [
						{
							"internalType": "uint256",
							"name": "",
							"type": "uint256"
						}
					],
					"stateMutability": "view",
					"type": "function"
				},
				{
					"inputs": [
						{
							"internalType": "address",
							"name": "",
							"type": "address"
						}
					],
					"name": "userId",
					"outputs": [
						{
							"internalType": "uint256",
							"name": "",
							"type": "uint256"
						}
					],
					"stateMutability": "view",
					"type": "function"
				},
				{
					"inputs": [
						{
							"internalType": "uint256",
							"name": "",
							"type": "uint256"
						}
					],
					"name": "users",
					"outputs": [
						{
							"internalType": "address",
							"name": "walletAddress",
							"type": "address"
						},
						{
							"internalType": "uint256",
							"name": "tptBalance",
							"type": "uint256"
						},
						{
							"internalType": "bool",
							"name": "hasOffer",
							"type": "bool"
						}
					],
					"stateMutability": "view",
					"type": "function"
				},
				{
					"inputs": [
						{
							"internalType": "address payable",
							"name": "_to",
							"type": "address"
						}
					],
					"name": "withdrawAll",
					"outputs": [],
					"stateMutability": "nonpayable",
					"type": "function"
				},
				{
					"stateMutability": "payable",
					"type": "receive"
				}
			],
			"devdoc": {
				"kind": "dev",
				"methods": {},
				"version": 1
			},
			"evm": {
				"assembly": "    /* \"contracts/PTPPreSale.sol\":90:4712  contract TPTPreSale {... */\n  mstore(0x40, 0x80)\n    /* \"contracts/PTPPreSale.sol\":1112:1248  constructor(address _iBnbPrice) {... */\n  callvalue\n  dup1\n  iszero\n  tag_1\n  jumpi\n  revert(0x00, 0x00)\ntag_1:\n  pop\n  mload(0x40)\n  sub(codesize, bytecodeSize)\n  dup1\n  bytecodeSize\n  dup4\n  codecopy\n  dup2\n  dup2\n  add\n  0x40\n  mstore\n  dup2\n  add\n  swap1\n  tag_2\n  swap2\n  swap1\n  tag_3\n  jump\t// in\ntag_2:\n    /* \"contracts/PTPPreSale.sol\":1163:1173  msg.sender */\n  caller\n    /* \"contracts/PTPPreSale.sol\":1155:1160  owner */\n  0x00\n  0x00\n    /* \"contracts/PTPPreSale.sol\":1155:1173  owner = msg.sender */\n  0x0100\n  exp\n  dup2\n  sload\n  dup2\n  0xffffffffffffffffffffffffffffffffffffffff\n  mul\n  not\n  and\n  swap1\n  dup4\n  0xffffffffffffffffffffffffffffffffffffffff\n  and\n  mul\n  or\n  swap1\n  sstore\n  pop\n    /* \"contracts/PTPPreSale.sol\":1195:1196  0 */\n  0x00\n    /* \"contracts/PTPPreSale.sol\":1184:1192  thisStep */\n  0x00\n  0x15\n    /* \"contracts/PTPPreSale.sol\":1184:1196  thisStep = 0 */\n  0x0100\n  exp\n  dup2\n  sload\n  dup2\n  0xff\n  mul\n  not\n  and\n  swap1\n  dup4\n  0xff\n  and\n  mul\n  or\n  swap1\n  sstore\n  pop\n    /* \"contracts/PTPPreSale.sol\":1229:1239  _iBnbPrice */\n  dup1\n    /* \"contracts/PTPPreSale.sol\":1207:1216  iBNBPrice */\n  0x02\n  0x00\n    /* \"contracts/PTPPreSale.sol\":1207:1240  iBNBPrice = IBNBPrice(_iBnbPrice) */\n  0x0100\n  exp\n  dup2\n  sload\n  dup2\n  0xffffffffffffffffffffffffffffffffffffffff\n  mul\n  not\n  and\n  swap1\n  dup4\n  0xffffffffffffffffffffffffffffffffffffffff\n  and\n  mul\n  or\n  swap1\n  sstore\n  pop\n    /* \"contracts/PTPPreSale.sol\":1112:1248  constructor(address _iBnbPrice) {... */\n  pop\n    /* \"contracts/PTPPreSale.sol\":90:4712  contract TPTPreSale {... */\n  jump(tag_6)\n    /* \"#utility.yul\":88:205   */\ntag_8:\n    /* \"#utility.yul\":197:198   */\n  0x00\n    /* \"#utility.yul\":194:195   */\n  0x00\n    /* \"#utility.yul\":187:199   */\n  revert\n    /* \"#utility.yul\":334:460   */\ntag_10:\n    /* \"#utility.yul\":371:378   */\n  0x00\n    /* \"#utility.yul\":411:453   */\n  0xffffffffffffffffffffffffffffffffffffffff\n    /* \"#utility.yul\":404:409   */\n  dup3\n    /* \"#utility.yul\":400:454   */\n  and\n    /* \"#utility.yul\":389:454   */\n  swap1\n  pop\n    /* \"#utility.yul\":334:460   */\n  swap2\n  swap1\n  pop\n  jump\t// out\n    /* \"#utility.yul\":466:562   */\ntag_11:\n    /* \"#utility.yul\":503:510   */\n  0x00\n    /* \"#utility.yul\":532:556   */\n  tag_20\n    /* \"#utility.yul\":550:555   */\n  dup3\n    /* \"#utility.yul\":532:556   */\n  tag_10\n  jump\t// in\ntag_20:\n    /* \"#utility.yul\":521:556   */\n  swap1\n  pop\n    /* \"#utility.yul\":466:562   */\n  swap2\n  swap1\n  pop\n  jump\t// out\n    /* \"#utility.yul\":568:690   */\ntag_12:\n    /* \"#utility.yul\":641:665   */\n  tag_22\n    /* \"#utility.yul\":659:664   */\n  dup2\n    /* \"#utility.yul\":641:665   */\n  tag_11\n  jump\t// in\ntag_22:\n    /* \"#utility.yul\":634:639   */\n  dup2\n    /* \"#utility.yul\":631:666   */\n  eq\n    /* \"#utility.yul\":621:684   */\n  tag_23\n  jumpi\n    /* \"#utility.yul\":680:681   */\n  0x00\n    /* \"#utility.yul\":677:678   */\n  0x00\n    /* \"#utility.yul\":670:682   */\n  revert\n    /* \"#utility.yul\":621:684   */\ntag_23:\n    /* \"#utility.yul\":568:690   */\n  pop\n  jump\t// out\n    /* \"#utility.yul\":696:839   */\ntag_13:\n    /* \"#utility.yul\":753:758   */\n  0x00\n    /* \"#utility.yul\":784:790   */\n  dup2\n    /* \"#utility.yul\":778:791   */\n  mload\n    /* \"#utility.yul\":769:791   */\n  swap1\n  pop\n    /* \"#utility.yul\":800:833   */\n  tag_25\n    /* \"#utility.yul\":827:832   */\n  dup2\n    /* \"#utility.yul\":800:833   */\n  tag_12\n  jump\t// in\ntag_25:\n    /* \"#utility.yul\":696:839   */\n  swap3\n  swap2\n  pop\n  pop\n  jump\t// out\n    /* \"#utility.yul\":845:1196   */\ntag_3:\n    /* \"#utility.yul\":915:921   */\n  0x00\n    /* \"#utility.yul\":964:966   */\n  0x20\n    /* \"#utility.yul\":952:961   */\n  dup3\n    /* \"#utility.yul\":943:950   */\n  dup5\n    /* \"#utility.yul\":939:962   */\n  sub\n    /* \"#utility.yul\":935:967   */\n  slt\n    /* \"#utility.yul\":932:1051   */\n  iszero\n  tag_27\n  jumpi\n    /* \"#utility.yul\":970:1049   */\n  tag_28\n  tag_8\n  jump\t// in\ntag_28:\n    /* \"#utility.yul\":932:1051   */\ntag_27:\n    /* \"#utility.yul\":1090:1091   */\n  0x00\n    /* \"#utility.yul\":1115:1179   */\n  tag_29\n    /* \"#utility.yul\":1171:1178   */\n  dup5\n    /* \"#utility.yul\":1162:1168   */\n  dup3\n    /* \"#utility.yul\":1151:1160   */\n  dup6\n    /* \"#utility.yul\":1147:1169   */\n  add\n    /* \"#utility.yul\":1115:1179   */\n  tag_13\n  jump\t// in\ntag_29:\n    /* \"#utility.yul\":1105:1179   */\n  swap2\n  pop\n    /* \"#utility.yul\":1061:1189   */\n  pop\n    /* \"#utility.yul\":845:1196   */\n  swap3\n  swap2\n  pop\n  pop\n  jump\t// out\n    /* \"contracts/PTPPreSale.sol\":90:4712  contract TPTPreSale {... */\ntag_6:\n  dataSize(sub_0)\n  dup1\n  dataOffset(sub_0)\n  0x00\n  codecopy\n  0x00\n  return\nstop\n\nsub_0: assembly {\n        /* \"contracts/PTPPreSale.sol\":90:4712  contract TPTPreSale {... */\n      mstore(0x40, 0x80)\n      jumpi(tag_1, lt(calldatasize, 0x04))\n      shr(0xe0, calldataload(0x00))\n      dup1\n      0x90d976e2\n      gt\n      tag_23\n      jumpi\n      dup1\n      0xbff1f9e1\n      gt\n      tag_24\n      jumpi\n      dup1\n      0xbff1f9e1\n      eq\n      tag_18\n      jumpi\n      dup1\n      0xca90d6e6\n      eq\n      tag_19\n      jumpi\n      dup1\n      0xd221954b\n      eq\n      tag_20\n      jumpi\n      dup1\n      0xfa09e630\n      eq\n      tag_21\n      jumpi\n      dup1\n      0xfdbb6696\n      eq\n      tag_22\n      jumpi\n      jump(tag_2)\n    tag_24:\n      dup1\n      0x90d976e2\n      eq\n      tag_13\n      jumpi\n      dup1\n      0x95e55748\n      eq\n      tag_14\n      jumpi\n      dup1\n      0xa2f5546e\n      eq\n      tag_15\n      jumpi\n      dup1\n      0xa52d981e\n      eq\n      tag_16\n      jumpi\n      dup1\n      0xae243031\n      eq\n      tag_17\n      jumpi\n      jump(tag_2)\n    tag_23:\n      dup1\n      0x556a7579\n      gt\n      tag_25\n      jumpi\n      dup1\n      0x556a7579\n      eq\n      tag_8\n      jumpi\n      dup1\n      0x5b148f7b\n      eq\n      tag_9\n      jumpi\n      dup1\n      0x672cbe1a\n      eq\n      tag_10\n      jumpi\n      dup1\n      0x7ce8a08e\n      eq\n      tag_11\n      jumpi\n      dup1\n      0x8da5cb5b\n      eq\n      tag_12\n      jumpi\n      jump(tag_2)\n    tag_25:\n      dup1\n      0x2a2a92cc\n      eq\n      tag_3\n      jumpi\n      dup1\n      0x2b956ff7\n      eq\n      tag_4\n      jumpi\n      dup1\n      0x31bbf555\n      eq\n      tag_5\n      jumpi\n      dup1\n      0x365b98b2\n      eq\n      tag_6\n      jumpi\n      dup1\n      0x376fe102\n      eq\n      tag_7\n      jumpi\n      jump(tag_2)\n    tag_1:\n      jumpi(tag_2, calldatasize)\n        /* \"contracts/PTPPreSale.sol\":1442:1457  buyTPT( false ) */\n      tag_28\n        /* \"contracts/PTPPreSale.sol\":1450:1455  false */\n      0x00\n        /* \"contracts/PTPPreSale.sol\":1442:1448  buyTPT */\n      tag_29\n        /* \"contracts/PTPPreSale.sol\":1442:1457  buyTPT( false ) */\n      jump\t// in\n    tag_28:\n        /* \"contracts/PTPPreSale.sol\":90:4712  contract TPTPreSale {... */\n      stop\n    tag_2:\n        /* \"contracts/PTPPreSale.sol\":1298:1336  buyTPT( abi.decode(msg.data, (bool)) ) */\n      tag_32\n        /* \"contracts/PTPPreSale.sol\":1317:1325  msg.data */\n      0x00\n      calldatasize\n        /* \"contracts/PTPPreSale.sol\":1306:1334  abi.decode(msg.data, (bool)) */\n      dup2\n      add\n      swap1\n      tag_33\n      swap2\n      swap1\n      tag_34\n      jump\t// in\n    tag_33:\n        /* \"contracts/PTPPreSale.sol\":1298:1304  buyTPT */\n      tag_29\n        /* \"contracts/PTPPreSale.sol\":1298:1336  buyTPT( abi.decode(msg.data, (bool)) ) */\n      jump\t// in\n    tag_32:\n        /* \"contracts/PTPPreSale.sol\":90:4712  contract TPTPreSale {... */\n      stop\n        /* \"contracts/PTPPreSale.sol\":3266:3544  function getPurchase(address _userAddress, uint index) external view returns (uint256 timestamp, uint256 bnbAmount, uint256 tptAmount) {... */\n    tag_3:\n      callvalue\n      dup1\n      iszero\n      tag_35\n      jumpi\n      revert(0x00, 0x00)\n    tag_35:\n      pop\n      tag_36\n      0x04\n      dup1\n      calldatasize\n      sub\n      dup2\n      add\n      swap1\n      tag_37\n      swap2\n      swap1\n      tag_38\n      jump\t// in\n    tag_37:\n      tag_39\n      jump\t// in\n    tag_36:\n      mload(0x40)\n      tag_40\n      swap4\n      swap3\n      swap2\n      swap1\n      tag_41\n      jump\t// in\n    tag_40:\n      mload(0x40)\n      dup1\n      swap2\n      sub\n      swap1\n      return\n        /* \"contracts/PTPPreSale.sol\":3552:3655  function getUserId(address user) external view returns (uint256) {... */\n    tag_4:\n      callvalue\n      dup1\n      iszero\n      tag_42\n      jumpi\n      revert(0x00, 0x00)\n    tag_42:\n      pop\n      tag_43\n      0x04\n      dup1\n      calldatasize\n      sub\n      dup2\n      add\n      swap1\n      tag_44\n      swap2\n      swap1\n      tag_45\n      jump\t// in\n    tag_44:\n      tag_46\n      jump\t// in\n    tag_43:\n      mload(0x40)\n      tag_47\n      swap2\n      swap1\n      tag_48\n      jump\t// in\n    tag_47:\n      mload(0x40)\n      dup1\n      swap2\n      sub\n      swap1\n      return\n        /* \"contracts/PTPPreSale.sol\":3105:3258  function getPurchaseCount(address _userAddress) external view returns (uint256) {... */\n    tag_5:\n      callvalue\n      dup1\n      iszero\n      tag_49\n      jumpi\n      revert(0x00, 0x00)\n    tag_49:\n      pop\n      tag_50\n      0x04\n      dup1\n      calldatasize\n      sub\n      dup2\n      add\n      swap1\n      tag_51\n      swap2\n      swap1\n      tag_45\n      jump\t// in\n    tag_51:\n      tag_52\n      jump\t// in\n    tag_50:\n      mload(0x40)\n      tag_53\n      swap2\n      swap1\n      tag_48\n      jump\t// in\n    tag_53:\n      mload(0x40)\n      dup1\n      swap2\n      sub\n      swap1\n      return\n        /* \"contracts/PTPPreSale.sol\":705:746  mapping(uint256 => UserInfo) public users */\n    tag_6:\n      callvalue\n      dup1\n      iszero\n      tag_54\n      jumpi\n      revert(0x00, 0x00)\n    tag_54:\n      pop\n      tag_55\n      0x04\n      dup1\n      calldatasize\n      sub\n      dup2\n      add\n      swap1\n      tag_56\n      swap2\n      swap1\n      tag_57\n      jump\t// in\n    tag_56:\n      tag_58\n      jump\t// in\n    tag_55:\n      mload(0x40)\n      tag_59\n      swap4\n      swap3\n      swap2\n      swap1\n      tag_60\n      jump\t// in\n    tag_59:\n      mload(0x40)\n      dup1\n      swap2\n      sub\n      swap1\n      return\n        /* \"contracts/PTPPreSale.sol\":657:698  mapping(address => uint256) public userId */\n    tag_7:\n      callvalue\n      dup1\n      iszero\n      tag_61\n      jumpi\n      revert(0x00, 0x00)\n    tag_61:\n      pop\n      tag_62\n      0x04\n      dup1\n      calldatasize\n      sub\n      dup2\n      add\n      swap1\n      tag_63\n      swap2\n      swap1\n      tag_45\n      jump\t// in\n    tag_63:\n      tag_64\n      jump\t// in\n    tag_62:\n      mload(0x40)\n      tag_65\n      swap2\n      swap1\n      tag_48\n      jump\t// in\n    tag_65:\n      mload(0x40)\n      dup1\n      swap2\n      sub\n      swap1\n      return\n        /* \"contracts/PTPPreSale.sol\":241:279  mapping(uint8 => uint) public tptPrice */\n    tag_8:\n      callvalue\n      dup1\n      iszero\n      tag_66\n      jumpi\n      revert(0x00, 0x00)\n    tag_66:\n      pop\n      tag_67\n      0x04\n      dup1\n      calldatasize\n      sub\n      dup2\n      add\n      swap1\n      tag_68\n      swap2\n      swap1\n      tag_69\n      jump\t// in\n    tag_68:\n      tag_70\n      jump\t// in\n    tag_67:\n      mload(0x40)\n      tag_71\n      swap2\n      swap1\n      tag_48\n      jump\t// in\n    tag_71:\n      mload(0x40)\n      dup1\n      swap2\n      sub\n      swap1\n      return\n        /* \"contracts/PTPPreSale.sol\":1548:1727  function getUsdBnbPrice() public payable returns ( uint usdBnb, bool mode){... */\n    tag_9:\n      tag_72\n      tag_73\n      jump\t// in\n    tag_72:\n      mload(0x40)\n      tag_74\n      swap3\n      swap2\n      swap1\n      tag_75\n      jump\t// in\n    tag_74:\n      mload(0x40)\n      dup1\n      swap2\n      sub\n      swap1\n      return\n        /* \"contracts/PTPPreSale.sol\":4395:4497  function getThisStepPrice() public view returns (uint256) {... */\n    tag_10:\n      callvalue\n      dup1\n      iszero\n      tag_76\n      jumpi\n      revert(0x00, 0x00)\n    tag_76:\n      pop\n      tag_77\n      tag_78\n      jump\t// in\n    tag_77:\n      mload(0x40)\n      tag_79\n      swap2\n      swap1\n      tag_48\n      jump\t// in\n    tag_79:\n      mload(0x40)\n      dup1\n      swap2\n      sub\n      swap1\n      return\n        /* \"contracts/PTPPreSale.sol\":4185:4271  function setThisStep(uint8 _step) public onlyOwner {... */\n    tag_11:\n      callvalue\n      dup1\n      iszero\n      tag_80\n      jumpi\n      revert(0x00, 0x00)\n    tag_80:\n      pop\n      tag_81\n      0x04\n      dup1\n      calldatasize\n      sub\n      dup2\n      add\n      swap1\n      tag_82\n      swap2\n      swap1\n      tag_69\n      jump\t// in\n    tag_82:\n      tag_83\n      jump\t// in\n    tag_81:\n      stop\n        /* \"contracts/PTPPreSale.sol\":137:157  address public owner */\n    tag_12:\n      callvalue\n      dup1\n      iszero\n      tag_84\n      jumpi\n      revert(0x00, 0x00)\n    tag_84:\n      pop\n      tag_85\n      tag_86\n      jump\t// in\n    tag_85:\n      mload(0x40)\n      tag_87\n      swap2\n      swap1\n      tag_88\n      jump\t// in\n    tag_87:\n      mload(0x40)\n      dup1\n      swap2\n      sub\n      swap1\n      return\n        /* \"contracts/PTPPreSale.sol\":3663:3780  function getUserAddress(uint256 id) external view returns (address) {... */\n    tag_13:\n      callvalue\n      dup1\n      iszero\n      tag_89\n      jumpi\n      revert(0x00, 0x00)\n    tag_89:\n      pop\n      tag_90\n      0x04\n      dup1\n      calldatasize\n      sub\n      dup2\n      add\n      swap1\n      tag_91\n      swap2\n      swap1\n      tag_57\n      jump\t// in\n    tag_91:\n      tag_92\n      jump\t// in\n    tag_90:\n      mload(0x40)\n      tag_93\n      swap2\n      swap1\n      tag_88\n      jump\t// in\n    tag_93:\n      mload(0x40)\n      dup1\n      swap2\n      sub\n      swap1\n      return\n        /* \"contracts/PTPPreSale.sol\":4505:4613  function setIBNBPrice(address _bnbprice) public onlyOwner{... */\n    tag_14:\n      callvalue\n      dup1\n      iszero\n      tag_94\n      jumpi\n      revert(0x00, 0x00)\n    tag_94:\n      pop\n      tag_95\n      0x04\n      dup1\n      calldatasize\n      sub\n      dup2\n      add\n      swap1\n      tag_96\n      swap2\n      swap1\n      tag_45\n      jump\t// in\n    tag_96:\n      tag_97\n      jump\t// in\n    tag_95:\n      stop\n        /* \"contracts/PTPPreSale.sol\":4279:4387  function setTPTPrice(uint8 _step , uint _price) public onlyOwner {... */\n    tag_15:\n      callvalue\n      dup1\n      iszero\n      tag_98\n      jumpi\n      revert(0x00, 0x00)\n    tag_98:\n      pop\n      tag_99\n      0x04\n      dup1\n      calldatasize\n      sub\n      dup2\n      add\n      swap1\n      tag_100\n      swap2\n      swap1\n      tag_101\n      jump\t// in\n    tag_100:\n      tag_102\n      jump\t// in\n    tag_99:\n      stop\n        /* \"contracts/PTPPreSale.sol\":1737:2057  function calcAmount(bool _useOffer) public payable returns(uint){... */\n    tag_16:\n      tag_103\n      0x04\n      dup1\n      calldatasize\n      sub\n      dup2\n      add\n      swap1\n      tag_104\n      swap2\n      swap1\n      tag_34\n      jump\t// in\n    tag_104:\n      tag_105\n      jump\t// in\n    tag_103:\n      mload(0x40)\n      tag_106\n      swap2\n      swap1\n      tag_48\n      jump\t// in\n    tag_106:\n      mload(0x40)\n      dup1\n      swap2\n      sub\n      swap1\n      return\n        /* \"contracts/PTPPreSale.sol\":213:234  uint8 public thisStep */\n    tag_17:\n      callvalue\n      dup1\n      iszero\n      tag_107\n      jumpi\n      revert(0x00, 0x00)\n    tag_107:\n      pop\n      tag_108\n      tag_109\n      jump\t// in\n    tag_108:\n      mload(0x40)\n      tag_110\n      swap2\n      swap1\n      tag_111\n      jump\t// in\n    tag_110:\n      mload(0x40)\n      dup1\n      swap2\n      sub\n      swap1\n      return\n        /* \"contracts/PTPPreSale.sol\":335:360  uint256 public totalUsers */\n    tag_18:\n      callvalue\n      dup1\n      iszero\n      tag_112\n      jumpi\n      revert(0x00, 0x00)\n    tag_112:\n      pop\n      tag_113\n      tag_114\n      jump\t// in\n    tag_113:\n      mload(0x40)\n      tag_115\n      swap2\n      swap1\n      tag_48\n      jump\t// in\n    tag_115:\n      mload(0x40)\n      dup1\n      swap2\n      sub\n      swap1\n      return\n        /* \"contracts/PTPPreSale.sol\":3949:4173  function grantPointsById(address _userAddress, uint256 _value) external onlyOwner {... */\n    tag_19:\n      callvalue\n      dup1\n      iszero\n      tag_116\n      jumpi\n      revert(0x00, 0x00)\n    tag_116:\n      pop\n      tag_117\n      0x04\n      dup1\n      calldatasize\n      sub\n      dup2\n      add\n      swap1\n      tag_118\n      swap2\n      swap1\n      tag_38\n      jump\t// in\n    tag_118:\n      tag_119\n      jump\t// in\n    tag_117:\n      stop\n        /* \"contracts/PTPPreSale.sol\":4621:4705  function setIBNBPriceMode() public onlyOwner{... */\n    tag_20:\n      callvalue\n      dup1\n      iszero\n      tag_120\n      jumpi\n      revert(0x00, 0x00)\n    tag_120:\n      pop\n      tag_121\n      tag_122\n      jump\t// in\n    tag_121:\n      stop\n        /* \"contracts/PTPPreSale.sol\":2926:3097  function withdrawAll(address payable _to) external onlyOwner {... */\n    tag_21:\n      callvalue\n      dup1\n      iszero\n      tag_123\n      jumpi\n      revert(0x00, 0x00)\n    tag_123:\n      pop\n      tag_124\n      0x04\n      dup1\n      calldatasize\n      sub\n      dup2\n      add\n      swap1\n      tag_125\n      swap2\n      swap1\n      tag_126\n      jump\t// in\n    tag_125:\n      tag_127\n      jump\t// in\n    tag_124:\n      stop\n        /* \"contracts/PTPPreSale.sol\":3792:3937  function getUserTPTBalance(address _userAddress) external view returns (uint256) {... */\n    tag_22:\n      callvalue\n      dup1\n      iszero\n      tag_128\n      jumpi\n      revert(0x00, 0x00)\n    tag_128:\n      pop\n      tag_129\n      0x04\n      dup1\n      calldatasize\n      sub\n      dup2\n      add\n      swap1\n      tag_130\n      swap2\n      swap1\n      tag_45\n      jump\t// in\n    tag_130:\n      tag_131\n      jump\t// in\n    tag_129:\n      mload(0x40)\n      tag_132\n      swap2\n      swap1\n      tag_48\n      jump\t// in\n    tag_132:\n      mload(0x40)\n      dup1\n      swap2\n      sub\n      swap1\n      return\n        /* \"contracts/PTPPreSale.sol\":2092:2916  function buyTPT( bool _useOffer ) internal pauseable reentrancy {... */\n    tag_29:\n        /* \"contracts/PTPPreSale.sol\":908:909  0 */\n      0x00\n        /* \"contracts/PTPPreSale.sol\":896:904  thisStep */\n      0x00\n      0x15\n      swap1\n      sload\n      swap1\n      0x0100\n      exp\n      swap1\n      div\n      0xff\n      and\n        /* \"contracts/PTPPreSale.sol\":896:909  thisStep != 0 */\n      0xff\n      and\n      sub\n        /* \"contracts/PTPPreSale.sol\":888:929  require(thisStep != 0, \"Contract Paused\") */\n      tag_134\n      jumpi\n      mload(0x40)\n      0x08c379a000000000000000000000000000000000000000000000000000000000\n      dup2\n      mstore\n      0x04\n      add\n      tag_135\n      swap1\n      tag_136\n      jump\t// in\n    tag_135:\n      mload(0x40)\n      dup1\n      swap2\n      sub\n      swap1\n      revert\n    tag_134:\n        /* \"contracts/PTPPreSale.sol\":1005:1009  true */\n      0x01\n        /* \"contracts/PTPPreSale.sol\":995:1009  locked != true */\n      iszero\n      iszero\n        /* \"contracts/PTPPreSale.sol\":995:1001  locked */\n      0x00\n      0x14\n      swap1\n      sload\n      swap1\n      0x0100\n      exp\n      swap1\n      div\n      0xff\n      and\n        /* \"contracts/PTPPreSale.sol\":995:1009  locked != true */\n      iszero\n      iszero\n      sub\n        /* \"contracts/PTPPreSale.sol\":987:1035  require(locked != true,\"No Reentrancy,pls wait\") */\n      tag_138\n      jumpi\n      mload(0x40)\n      0x08c379a000000000000000000000000000000000000000000000000000000000\n      dup2\n      mstore\n      0x04\n      add\n      tag_139\n      swap1\n      tag_140\n      jump\t// in\n    tag_139:\n      mload(0x40)\n      dup1\n      swap2\n      sub\n      swap1\n      revert\n    tag_138:\n        /* \"contracts/PTPPreSale.sol\":1055:1059  true */\n      0x01\n        /* \"contracts/PTPPreSale.sol\":1046:1052  locked */\n      0x00\n      0x14\n        /* \"contracts/PTPPreSale.sol\":1046:1059  locked = true */\n      0x0100\n      exp\n      dup2\n      sload\n      dup2\n      0xff\n      mul\n      not\n      and\n      swap1\n      dup4\n      iszero\n      iszero\n      mul\n      or\n      swap1\n      sstore\n      pop\n        /* \"contracts/PTPPreSale.sol\":2189:2195  5*1e16 */\n      0xb1a2bc2ec50000\n        /* \"contracts/PTPPreSale.sol\":2176:2185  msg.value */\n      callvalue\n        /* \"contracts/PTPPreSale.sol\":2176:2195  msg.value >= 5*1e16 */\n      lt\n      iszero\n        /* \"contracts/PTPPreSale.sol\":2167:2225  require( msg.value >= 5*1e16 , \"Send more BNB to buy TPT\") */\n      tag_142\n      jumpi\n      mload(0x40)\n      0x08c379a000000000000000000000000000000000000000000000000000000000\n      dup2\n      mstore\n      0x04\n      add\n      tag_143\n      swap1\n      tag_144\n      jump\t// in\n    tag_143:\n      mload(0x40)\n      dup1\n      swap2\n      sub\n      swap1\n      revert\n    tag_142:\n        /* \"contracts/PTPPreSale.sol\":2264:2266  32 */\n      0x20\n        /* \"contracts/PTPPreSale.sol\":2245:2253  msg.data */\n      0x00\n      calldatasize\n        /* \"contracts/PTPPreSale.sol\":2245:2260  msg.data.length */\n      swap1\n      pop\n        /* \"contracts/PTPPreSale.sol\":2245:2266  msg.data.length >= 32 */\n      lt\n      iszero\n        /* \"contracts/PTPPreSale.sol\":2236:2291  require( msg.data.length >= 32 , \"Invalid data length\") */\n      tag_145\n      jumpi\n      mload(0x40)\n      0x08c379a000000000000000000000000000000000000000000000000000000000\n      dup2\n      mstore\n      0x04\n      add\n      tag_146\n      swap1\n      tag_147\n      jump\t// in\n    tag_146:\n      mload(0x40)\n      dup1\n      swap2\n      sub\n      swap1\n      revert\n    tag_145:\n        /* \"contracts/PTPPreSale.sol\":2304:2318  uint tptAmount */\n      0x00\n        /* \"contracts/PTPPreSale.sol\":2321:2344  calcAmount( _useOffer ) */\n      tag_148\n        /* \"contracts/PTPPreSale.sol\":2333:2342  _useOffer */\n      dup3\n        /* \"contracts/PTPPreSale.sol\":2321:2331  calcAmount */\n      tag_105\n        /* \"contracts/PTPPreSale.sol\":2321:2344  calcAmount( _useOffer ) */\n      jump\t// in\n    tag_148:\n        /* \"contracts/PTPPreSale.sol\":2304:2344  uint tptAmount = calcAmount( _useOffer ) */\n      swap1\n      pop\n        /* \"contracts/PTPPreSale.sol\":2395:2396  0 */\n      0x00\n        /* \"contracts/PTPPreSale.sol\":2373:2379  userId */\n      0x04\n        /* \"contracts/PTPPreSale.sol\":2373:2391  userId[msg.sender] */\n      0x00\n        /* \"contracts/PTPPreSale.sol\":2380:2390  msg.sender */\n      caller\n        /* \"contracts/PTPPreSale.sol\":2373:2391  userId[msg.sender] */\n      0xffffffffffffffffffffffffffffffffffffffff\n      and\n      0xffffffffffffffffffffffffffffffffffffffff\n      and\n      dup2\n      mstore\n      0x20\n      add\n      swap1\n      dup2\n      mstore\n      0x20\n      add\n      0x00\n      keccak256\n      sload\n        /* \"contracts/PTPPreSale.sol\":2373:2396  userId[msg.sender] == 0 */\n      sub\n        /* \"contracts/PTPPreSale.sol\":2369:2846  if (userId[msg.sender] == 0) {... */\n      tag_149\n      jumpi\n        /* \"contracts/PTPPreSale.sol\":2413:2423  totalUsers */\n      0x03\n      0x00\n        /* \"contracts/PTPPreSale.sol\":2413:2425  totalUsers++ */\n      dup2\n      sload\n      dup1\n      swap3\n      swap2\n      swap1\n      tag_150\n      swap1\n      tag_151\n      jump\t// in\n    tag_150:\n      swap2\n      swap1\n      pop\n      sstore\n      pop\n        /* \"contracts/PTPPreSale.sol\":2461:2471  totalUsers */\n      sload(0x03)\n        /* \"contracts/PTPPreSale.sol\":2440:2446  userId */\n      0x04\n        /* \"contracts/PTPPreSale.sol\":2440:2458  userId[msg.sender] */\n      0x00\n        /* \"contracts/PTPPreSale.sol\":2447:2457  msg.sender */\n      caller\n        /* \"contracts/PTPPreSale.sol\":2440:2458  userId[msg.sender] */\n      0xffffffffffffffffffffffffffffffffffffffff\n      and\n      0xffffffffffffffffffffffffffffffffffffffff\n      and\n      dup2\n      mstore\n      0x20\n      add\n      swap1\n      dup2\n      mstore\n      0x20\n      add\n      0x00\n      keccak256\n        /* \"contracts/PTPPreSale.sol\":2440:2471  userId[msg.sender] = totalUsers */\n      dup2\n      swap1\n      sstore\n      pop\n        /* \"contracts/PTPPreSale.sol\":2488:2513  UserInfo storage userInfo */\n      0x00\n        /* \"contracts/PTPPreSale.sol\":2516:2521  users */\n      0x05\n        /* \"contracts/PTPPreSale.sol\":2516:2533  users[totalUsers] */\n      0x00\n        /* \"contracts/PTPPreSale.sol\":2522:2532  totalUsers */\n      sload(0x03)\n        /* \"contracts/PTPPreSale.sol\":2516:2533  users[totalUsers] */\n      dup2\n      mstore\n      0x20\n      add\n      swap1\n      dup2\n      mstore\n      0x20\n      add\n      0x00\n      keccak256\n        /* \"contracts/PTPPreSale.sol\":2488:2533  UserInfo storage userInfo = users[totalUsers] */\n      swap1\n      pop\n        /* \"contracts/PTPPreSale.sol\":2573:2583  msg.sender */\n      caller\n        /* \"contracts/PTPPreSale.sol\":2548:2556  userInfo */\n      dup2\n        /* \"contracts/PTPPreSale.sol\":2548:2570  userInfo.walletAddress */\n      0x00\n      add\n      0x00\n        /* \"contracts/PTPPreSale.sol\":2548:2583  userInfo.walletAddress = msg.sender */\n      0x0100\n      exp\n      dup2\n      sload\n      dup2\n      0xffffffffffffffffffffffffffffffffffffffff\n      mul\n      not\n      and\n      swap1\n      dup4\n      0xffffffffffffffffffffffffffffffffffffffff\n      and\n      mul\n      or\n      swap1\n      sstore\n      pop\n        /* \"contracts/PTPPreSale.sol\":2620:2621  0 */\n      0x00\n        /* \"contracts/PTPPreSale.sol\":2598:2606  userInfo */\n      dup2\n        /* \"contracts/PTPPreSale.sol\":2598:2617  userInfo.tptBalance */\n      0x01\n      add\n        /* \"contracts/PTPPreSale.sol\":2598:2621  userInfo.tptBalance = 0 */\n      dup2\n      swap1\n      sstore\n      pop\n        /* \"contracts/PTPPreSale.sol\":2656:2660  true */\n      0x01\n        /* \"contracts/PTPPreSale.sol\":2636:2644  userInfo */\n      dup2\n        /* \"contracts/PTPPreSale.sol\":2636:2653  userInfo.hasOffer */\n      0x02\n      add\n      0x00\n        /* \"contracts/PTPPreSale.sol\":2636:2660  userInfo.hasOffer = true */\n      0x0100\n      exp\n      dup2\n      sload\n      dup2\n      0xff\n      mul\n      not\n      and\n      swap1\n      dup4\n      iszero\n      iszero\n      mul\n      or\n      swap1\n      sstore\n      pop\n        /* \"contracts/PTPPreSale.sol\":2721:2729  userInfo */\n      dup1\n        /* \"contracts/PTPPreSale.sol\":2701:2706  users */\n      0x05\n        /* \"contracts/PTPPreSale.sol\":2701:2718  users[totalUsers] */\n      0x00\n        /* \"contracts/PTPPreSale.sol\":2707:2717  totalUsers */\n      sload(0x03)\n        /* \"contracts/PTPPreSale.sol\":2701:2718  users[totalUsers] */\n      dup2\n      mstore\n      0x20\n      add\n      swap1\n      dup2\n      mstore\n      0x20\n      add\n      0x00\n      keccak256\n        /* \"contracts/PTPPreSale.sol\":2701:2729  users[totalUsers] = userInfo */\n      0x00\n      dup3\n      add\n      0x00\n      swap1\n      sload\n      swap1\n      0x0100\n      exp\n      swap1\n      div\n      0xffffffffffffffffffffffffffffffffffffffff\n      and\n      dup2\n      0x00\n      add\n      exp(0x0100, 0x00)\n      dup2\n      sload\n      dup2\n      0xffffffffffffffffffffffffffffffffffffffff\n      mul\n      not\n      and\n      swap1\n      dup4\n      0xffffffffffffffffffffffffffffffffffffffff\n      and\n      mul\n      or\n      swap1\n      sstore\n      pop\n      0x01\n      dup3\n      add\n      sload\n      dup2\n      0x01\n      add\n      sstore\n      0x02\n      dup3\n      add\n      0x00\n      swap1\n      sload\n      swap1\n      0x0100\n      exp\n      swap1\n      div\n      0xff\n      and\n      dup2\n      0x02\n      add\n      exp(0x0100, 0x00)\n      dup2\n      sload\n      dup2\n      0xff\n      mul\n      not\n      and\n      swap1\n      dup4\n      iszero\n      iszero\n      mul\n      or\n      swap1\n      sstore\n      pop\n      0x03\n      dup3\n      add\n      dup2\n      0x03\n      add\n      swap1\n      dup1\n      sload\n      tag_152\n      swap3\n      swap2\n      swap1\n      tag_153\n      jump\t// in\n    tag_152:\n      pop\n      swap1\n      pop\n      pop\n        /* \"contracts/PTPPreSale.sol\":2398:2846  {... */\n      pop\n        /* \"contracts/PTPPreSale.sol\":2369:2846  if (userId[msg.sender] == 0) {... */\n    tag_149:\n        /* \"contracts/PTPPreSale.sol\":2899:2908  tptAmount */\n      dup1\n        /* \"contracts/PTPPreSale.sol\":2868:2873  users */\n      0x05\n        /* \"contracts/PTPPreSale.sol\":2868:2885  users[totalUsers] */\n      0x00\n        /* \"contracts/PTPPreSale.sol\":2874:2884  totalUsers */\n      sload(0x03)\n        /* \"contracts/PTPPreSale.sol\":2868:2885  users[totalUsers] */\n      dup2\n      mstore\n      0x20\n      add\n      swap1\n      dup2\n      mstore\n      0x20\n      add\n      0x00\n      keccak256\n        /* \"contracts/PTPPreSale.sol\":2868:2896  users[totalUsers].tptBalance */\n      0x01\n      add\n        /* \"contracts/PTPPreSale.sol\":2868:2908  users[totalUsers].tptBalance = tptAmount */\n      dup2\n      swap1\n      sstore\n      pop\n        /* \"contracts/PTPPreSale.sol\":2156:2916  {... */\n      pop\n        /* \"contracts/PTPPreSale.sol\":1091:1096  false */\n      0x00\n        /* \"contracts/PTPPreSale.sol\":1082:1088  locked */\n      0x00\n      0x14\n        /* \"contracts/PTPPreSale.sol\":1082:1096  locked = false */\n      0x0100\n      exp\n      dup2\n      sload\n      dup2\n      0xff\n      mul\n      not\n      and\n      swap1\n      dup4\n      iszero\n      iszero\n      mul\n      or\n      swap1\n      sstore\n      pop\n        /* \"contracts/PTPPreSale.sol\":2092:2916  function buyTPT( bool _useOffer ) internal pauseable reentrancy {... */\n      pop\n      jump\t// out\n        /* \"contracts/PTPPreSale.sol\":3266:3544  function getPurchase(address _userAddress, uint index) external view returns (uint256 timestamp, uint256 bnbAmount, uint256 tptAmount) {... */\n    tag_39:\n        /* \"contracts/PTPPreSale.sol\":3344:3361  uint256 timestamp */\n      0x00\n        /* \"contracts/PTPPreSale.sol\":3363:3380  uint256 bnbAmount */\n      0x00\n        /* \"contracts/PTPPreSale.sol\":3382:3399  uint256 tptAmount */\n      0x00\n        /* \"contracts/PTPPreSale.sol\":3412:3429  Purchase memory p */\n      0x00\n        /* \"contracts/PTPPreSale.sol\":3432:3437  users */\n      0x05\n        /* \"contracts/PTPPreSale.sol\":3432:3459  users[userId[_userAddress]] */\n      0x00\n        /* \"contracts/PTPPreSale.sol\":3438:3444  userId */\n      0x04\n        /* \"contracts/PTPPreSale.sol\":3438:3458  userId[_userAddress] */\n      0x00\n        /* \"contracts/PTPPreSale.sol\":3445:3457  _userAddress */\n      dup10\n        /* \"contracts/PTPPreSale.sol\":3438:3458  userId[_userAddress] */\n      0xffffffffffffffffffffffffffffffffffffffff\n      and\n      0xffffffffffffffffffffffffffffffffffffffff\n      and\n      dup2\n      mstore\n      0x20\n      add\n      swap1\n      dup2\n      mstore\n      0x20\n      add\n      0x00\n      keccak256\n      sload\n        /* \"contracts/PTPPreSale.sol\":3432:3459  users[userId[_userAddress]] */\n      dup2\n      mstore\n      0x20\n      add\n      swap1\n      dup2\n      mstore\n      0x20\n      add\n      0x00\n      keccak256\n        /* \"contracts/PTPPreSale.sol\":3432:3472  users[userId[_userAddress]].purchaseList */\n      0x03\n      add\n        /* \"contracts/PTPPreSale.sol\":3473:3478  index */\n      dup6\n        /* \"contracts/PTPPreSale.sol\":3432:3479  users[userId[_userAddress]].purchaseList[index] */\n      dup2\n      sload\n      dup2\n      lt\n      tag_155\n      jumpi\n      tag_156\n      tag_157\n      jump\t// in\n    tag_156:\n    tag_155:\n      swap1\n      0x00\n      mstore\n      keccak256(0x00, 0x20)\n      swap1\n      0x04\n      mul\n      add\n        /* \"contracts/PTPPreSale.sol\":3412:3479  Purchase memory p = users[userId[_userAddress]].purchaseList[index] */\n      mload(0x40)\n      dup1\n      0x80\n      add\n      0x40\n      mstore\n      swap1\n      dup2\n      0x00\n      dup3\n      add\n      sload\n      dup2\n      mstore\n      0x20\n      add\n      0x01\n      dup3\n      add\n      sload\n      dup2\n      mstore\n      0x20\n      add\n      0x02\n      dup3\n      add\n      sload\n      dup2\n      mstore\n      0x20\n      add\n      0x03\n      dup3\n      add\n      0x00\n      swap1\n      sload\n      swap1\n      0x0100\n      exp\n      swap1\n      div\n      0xff\n      and\n      0xff\n      and\n      0xff\n      and\n      dup2\n      mstore\n      pop\n      pop\n      swap1\n      pop\n        /* \"contracts/PTPPreSale.sol\":3498:3499  p */\n      dup1\n        /* \"contracts/PTPPreSale.sol\":3498:3509  p.timestamp */\n      0x00\n      add\n      mload\n        /* \"contracts/PTPPreSale.sol\":3511:3512  p */\n      dup2\n        /* \"contracts/PTPPreSale.sol\":3511:3522  p.bnbAmount */\n      0x20\n      add\n      mload\n        /* \"contracts/PTPPreSale.sol\":3524:3525  p */\n      dup3\n        /* \"contracts/PTPPreSale.sol\":3524:3535  p.tptAmount */\n      0x40\n      add\n      mload\n        /* \"contracts/PTPPreSale.sol\":3490:3536  return (p.timestamp, p.bnbAmount, p.tptAmount) */\n      swap4\n      pop\n      swap4\n      pop\n      swap4\n      pop\n      pop\n        /* \"contracts/PTPPreSale.sol\":3266:3544  function getPurchase(address _userAddress, uint index) external view returns (uint256 timestamp, uint256 bnbAmount, uint256 tptAmount) {... */\n      swap3\n      pop\n      swap3\n      pop\n      swap3\n      jump\t// out\n        /* \"contracts/PTPPreSale.sol\":3552:3655  function getUserId(address user) external view returns (uint256) {... */\n    tag_46:\n        /* \"contracts/PTPPreSale.sol\":3608:3615  uint256 */\n      0x00\n        /* \"contracts/PTPPreSale.sol\":3635:3641  userId */\n      0x04\n        /* \"contracts/PTPPreSale.sol\":3635:3647  userId[user] */\n      0x00\n        /* \"contracts/PTPPreSale.sol\":3642:3646  user */\n      dup4\n        /* \"contracts/PTPPreSale.sol\":3635:3647  userId[user] */\n      0xffffffffffffffffffffffffffffffffffffffff\n      and\n      0xffffffffffffffffffffffffffffffffffffffff\n      and\n      dup2\n      mstore\n      0x20\n      add\n      swap1\n      dup2\n      mstore\n      0x20\n      add\n      0x00\n      keccak256\n      sload\n        /* \"contracts/PTPPreSale.sol\":3628:3647  return userId[user] */\n      swap1\n      pop\n        /* \"contracts/PTPPreSale.sol\":3552:3655  function getUserId(address user) external view returns (uint256) {... */\n      swap2\n      swap1\n      pop\n      jump\t// out\n        /* \"contracts/PTPPreSale.sol\":3105:3258  function getPurchaseCount(address _userAddress) external view returns (uint256) {... */\n    tag_52:\n        /* \"contracts/PTPPreSale.sol\":3176:3183  uint256 */\n      0x00\n        /* \"contracts/PTPPreSale.sol\":3203:3208  users */\n      0x05\n        /* \"contracts/PTPPreSale.sol\":3203:3230  users[userId[_userAddress]] */\n      0x00\n        /* \"contracts/PTPPreSale.sol\":3209:3215  userId */\n      0x04\n        /* \"contracts/PTPPreSale.sol\":3209:3229  userId[_userAddress] */\n      0x00\n        /* \"contracts/PTPPreSale.sol\":3216:3228  _userAddress */\n      dup6\n        /* \"contracts/PTPPreSale.sol\":3209:3229  userId[_userAddress] */\n      0xffffffffffffffffffffffffffffffffffffffff\n      and\n      0xffffffffffffffffffffffffffffffffffffffff\n      and\n      dup2\n      mstore\n      0x20\n      add\n      swap1\n      dup2\n      mstore\n      0x20\n      add\n      0x00\n      keccak256\n      sload\n        /* \"contracts/PTPPreSale.sol\":3203:3230  users[userId[_userAddress]] */\n      dup2\n      mstore\n      0x20\n      add\n      swap1\n      dup2\n      mstore\n      0x20\n      add\n      0x00\n      keccak256\n        /* \"contracts/PTPPreSale.sol\":3203:3243  users[userId[_userAddress]].purchaseList */\n      0x03\n      add\n        /* \"contracts/PTPPreSale.sol\":3203:3250  users[userId[_userAddress]].purchaseList.length */\n      dup1\n      sload\n      swap1\n      pop\n        /* \"contracts/PTPPreSale.sol\":3196:3250  return users[userId[_userAddress]].purchaseList.length */\n      swap1\n      pop\n        /* \"contracts/PTPPreSale.sol\":3105:3258  function getPurchaseCount(address _userAddress) external view returns (uint256) {... */\n      swap2\n      swap1\n      pop\n      jump\t// out\n        /* \"contracts/PTPPreSale.sol\":705:746  mapping(uint256 => UserInfo) public users */\n    tag_58:\n      mstore(0x20, 0x05)\n      dup1\n      0x00\n      mstore\n      keccak256(0x00, 0x40)\n      0x00\n      swap2\n      pop\n      swap1\n      pop\n      dup1\n      0x00\n      add\n      0x00\n      swap1\n      sload\n      swap1\n      0x0100\n      exp\n      swap1\n      div\n      0xffffffffffffffffffffffffffffffffffffffff\n      and\n      swap1\n      dup1\n      0x01\n      add\n      sload\n      swap1\n      dup1\n      0x02\n      add\n      0x00\n      swap1\n      sload\n      swap1\n      0x0100\n      exp\n      swap1\n      div\n      0xff\n      and\n      swap1\n      pop\n      dup4\n      jump\t// out\n        /* \"contracts/PTPPreSale.sol\":657:698  mapping(address => uint256) public userId */\n    tag_64:\n      mstore(0x20, 0x04)\n      dup1\n      0x00\n      mstore\n      keccak256(0x00, 0x40)\n      0x00\n      swap2\n      pop\n      swap1\n      pop\n      sload\n      dup2\n      jump\t// out\n        /* \"contracts/PTPPreSale.sol\":241:279  mapping(uint8 => uint) public tptPrice */\n    tag_70:\n      mstore(0x20, 0x01)\n      dup1\n      0x00\n      mstore\n      keccak256(0x00, 0x40)\n      0x00\n      swap2\n      pop\n      swap1\n      pop\n      sload\n      dup2\n      jump\t// out\n        /* \"contracts/PTPPreSale.sol\":1548:1727  function getUsdBnbPrice() public payable returns ( uint usdBnb, bool mode){... */\n    tag_73:\n        /* \"contracts/PTPPreSale.sol\":1599:1610  uint usdBnb */\n      0x00\n        /* \"contracts/PTPPreSale.sol\":1612:1621  bool mode */\n      0x00\n        /* \"contracts/PTPPreSale.sol\":1650:1659  iBNBPrice */\n      0x02\n      0x00\n      swap1\n      sload\n      swap1\n      0x0100\n      exp\n      swap1\n      div\n      0xffffffffffffffffffffffffffffffffffffffff\n      and\n        /* \"contracts/PTPPreSale.sol\":1650:1670  iBNBPrice.getAverage */\n      0xffffffffffffffffffffffffffffffffffffffff\n      and\n      0x21055acb\n        /* \"contracts/PTPPreSale.sol\":1679:1683  1e14 */\n      0x5af3107a4000\n        /* \"contracts/PTPPreSale.sol\":1650:1686  iBNBPrice.getAverage{value : 1e14}() */\n      mload(0x40)\n      dup3\n      0xffffffff\n      and\n      0xe0\n      shl\n      dup2\n      mstore\n      0x04\n      add\n      0x40\n      dup1\n      mload\n      dup1\n      dup4\n      sub\n      dup2\n      dup6\n      dup9\n      gas\n      call\n      iszero\n      dup1\n      iszero\n      tag_163\n      jumpi\n      returndatacopy(0x00, 0x00, returndatasize)\n      revert(0x00, returndatasize)\n    tag_163:\n      pop\n      pop\n      pop\n      pop\n      pop\n      mload(0x40)\n      returndatasize\n      not(0x1f)\n      0x1f\n      dup3\n      add\n      and\n      dup3\n      add\n      dup1\n      0x40\n      mstore\n      pop\n      dup2\n      add\n      swap1\n      tag_164\n      swap2\n      swap1\n      tag_165\n      jump\t// in\n    tag_164:\n        /* \"contracts/PTPPreSale.sol\":1633:1686  (usdBnb, mode) = iBNBPrice.getAverage{value : 1e14}() */\n      dup1\n      swap3\n      pop\n      dup2\n      swap4\n      pop\n      pop\n      pop\n        /* \"contracts/PTPPreSale.sol\":1548:1727  function getUsdBnbPrice() public payable returns ( uint usdBnb, bool mode){... */\n      swap1\n      swap2\n      jump\t// out\n        /* \"contracts/PTPPreSale.sol\":4395:4497  function getThisStepPrice() public view returns (uint256) {... */\n    tag_78:\n        /* \"contracts/PTPPreSale.sol\":4444:4451  uint256 */\n      0x00\n        /* \"contracts/PTPPreSale.sol\":4471:4479  tptPrice */\n      0x01\n        /* \"contracts/PTPPreSale.sol\":4471:4489  tptPrice[thisStep] */\n      0x00\n        /* \"contracts/PTPPreSale.sol\":4480:4488  thisStep */\n      0x00\n      0x15\n      swap1\n      sload\n      swap1\n      0x0100\n      exp\n      swap1\n      div\n      0xff\n      and\n        /* \"contracts/PTPPreSale.sol\":4471:4489  tptPrice[thisStep] */\n      0xff\n      and\n      0xff\n      and\n      dup2\n      mstore\n      0x20\n      add\n      swap1\n      dup2\n      mstore\n      0x20\n      add\n      0x00\n      keccak256\n      sload\n        /* \"contracts/PTPPreSale.sol\":4464:4489  return tptPrice[thisStep] */\n      swap1\n      pop\n        /* \"contracts/PTPPreSale.sol\":4395:4497  function getThisStepPrice() public view returns (uint256) {... */\n      swap1\n      jump\t// out\n        /* \"contracts/PTPPreSale.sol\":4185:4271  function setThisStep(uint8 _step) public onlyOwner {... */\n    tag_83:\n        /* \"contracts/PTPPreSale.sol\":809:814  owner */\n      0x00\n      0x00\n      swap1\n      sload\n      swap1\n      0x0100\n      exp\n      swap1\n      div\n      0xffffffffffffffffffffffffffffffffffffffff\n      and\n        /* \"contracts/PTPPreSale.sol\":795:814  msg.sender == owner */\n      0xffffffffffffffffffffffffffffffffffffffff\n      and\n        /* \"contracts/PTPPreSale.sol\":795:805  msg.sender */\n      caller\n        /* \"contracts/PTPPreSale.sol\":795:814  msg.sender == owner */\n      0xffffffffffffffffffffffffffffffffffffffff\n      and\n      eq\n        /* \"contracts/PTPPreSale.sol\":787:829  require(msg.sender == owner, \"Only owner\") */\n      tag_168\n      jumpi\n      mload(0x40)\n      0x08c379a000000000000000000000000000000000000000000000000000000000\n      dup2\n      mstore\n      0x04\n      add\n      tag_169\n      swap1\n      tag_170\n      jump\t// in\n    tag_169:\n      mload(0x40)\n      dup1\n      swap2\n      sub\n      swap1\n      revert\n    tag_168:\n        /* \"contracts/PTPPreSale.sol\":4258:4263  _step */\n      dup1\n        /* \"contracts/PTPPreSale.sol\":4247:4255  thisStep */\n      0x00\n      0x15\n        /* \"contracts/PTPPreSale.sol\":4247:4263  thisStep = _step */\n      0x0100\n      exp\n      dup2\n      sload\n      dup2\n      0xff\n      mul\n      not\n      and\n      swap1\n      dup4\n      0xff\n      and\n      mul\n      or\n      swap1\n      sstore\n      pop\n        /* \"contracts/PTPPreSale.sol\":4185:4271  function setThisStep(uint8 _step) public onlyOwner {... */\n      pop\n      jump\t// out\n        /* \"contracts/PTPPreSale.sol\":137:157  address public owner */\n    tag_86:\n      0x00\n      0x00\n      swap1\n      sload\n      swap1\n      0x0100\n      exp\n      swap1\n      div\n      0xffffffffffffffffffffffffffffffffffffffff\n      and\n      dup2\n      jump\t// out\n        /* \"contracts/PTPPreSale.sol\":3663:3780  function getUserAddress(uint256 id) external view returns (address) {... */\n    tag_92:\n        /* \"contracts/PTPPreSale.sol\":3722:3729  address */\n      0x00\n        /* \"contracts/PTPPreSale.sol\":3749:3754  users */\n      0x05\n        /* \"contracts/PTPPreSale.sol\":3749:3758  users[id] */\n      0x00\n        /* \"contracts/PTPPreSale.sol\":3755:3757  id */\n      dup4\n        /* \"contracts/PTPPreSale.sol\":3749:3758  users[id] */\n      dup2\n      mstore\n      0x20\n      add\n      swap1\n      dup2\n      mstore\n      0x20\n      add\n      0x00\n      keccak256\n        /* \"contracts/PTPPreSale.sol\":3749:3772  users[id].walletAddress */\n      0x00\n      add\n      0x00\n      swap1\n      sload\n      swap1\n      0x0100\n      exp\n      swap1\n      div\n      0xffffffffffffffffffffffffffffffffffffffff\n      and\n        /* \"contracts/PTPPreSale.sol\":3742:3772  return users[id].walletAddress */\n      swap1\n      pop\n        /* \"contracts/PTPPreSale.sol\":3663:3780  function getUserAddress(uint256 id) external view returns (address) {... */\n      swap2\n      swap1\n      pop\n      jump\t// out\n        /* \"contracts/PTPPreSale.sol\":4505:4613  function setIBNBPrice(address _bnbprice) public onlyOwner{... */\n    tag_97:\n        /* \"contracts/PTPPreSale.sol\":809:814  owner */\n      0x00\n      0x00\n      swap1\n      sload\n      swap1\n      0x0100\n      exp\n      swap1\n      div\n      0xffffffffffffffffffffffffffffffffffffffff\n      and\n        /* \"contracts/PTPPreSale.sol\":795:814  msg.sender == owner */\n      0xffffffffffffffffffffffffffffffffffffffff\n      and\n        /* \"contracts/PTPPreSale.sol\":795:805  msg.sender */\n      caller\n        /* \"contracts/PTPPreSale.sol\":795:814  msg.sender == owner */\n      0xffffffffffffffffffffffffffffffffffffffff\n      and\n      eq\n        /* \"contracts/PTPPreSale.sol\":787:829  require(msg.sender == owner, \"Only owner\") */\n      tag_174\n      jumpi\n      mload(0x40)\n      0x08c379a000000000000000000000000000000000000000000000000000000000\n      dup2\n      mstore\n      0x04\n      add\n      tag_175\n      swap1\n      tag_170\n      jump\t// in\n    tag_175:\n      mload(0x40)\n      dup1\n      swap2\n      sub\n      swap1\n      revert\n    tag_174:\n        /* \"contracts/PTPPreSale.sol\":4595:4604  _bnbprice */\n      dup1\n        /* \"contracts/PTPPreSale.sol\":4573:4582  iBNBPrice */\n      0x02\n      0x00\n        /* \"contracts/PTPPreSale.sol\":4573:4605  iBNBPrice = IBNBPrice(_bnbprice) */\n      0x0100\n      exp\n      dup2\n      sload\n      dup2\n      0xffffffffffffffffffffffffffffffffffffffff\n      mul\n      not\n      and\n      swap1\n      dup4\n      0xffffffffffffffffffffffffffffffffffffffff\n      and\n      mul\n      or\n      swap1\n      sstore\n      pop\n        /* \"contracts/PTPPreSale.sol\":4505:4613  function setIBNBPrice(address _bnbprice) public onlyOwner{... */\n      pop\n      jump\t// out\n        /* \"contracts/PTPPreSale.sol\":4279:4387  function setTPTPrice(uint8 _step , uint _price) public onlyOwner {... */\n    tag_102:\n        /* \"contracts/PTPPreSale.sol\":809:814  owner */\n      0x00\n      0x00\n      swap1\n      sload\n      swap1\n      0x0100\n      exp\n      swap1\n      div\n      0xffffffffffffffffffffffffffffffffffffffff\n      and\n        /* \"contracts/PTPPreSale.sol\":795:814  msg.sender == owner */\n      0xffffffffffffffffffffffffffffffffffffffff\n      and\n        /* \"contracts/PTPPreSale.sol\":795:805  msg.sender */\n      caller\n        /* \"contracts/PTPPreSale.sol\":795:814  msg.sender == owner */\n      0xffffffffffffffffffffffffffffffffffffffff\n      and\n      eq\n        /* \"contracts/PTPPreSale.sol\":787:829  require(msg.sender == owner, \"Only owner\") */\n      tag_178\n      jumpi\n      mload(0x40)\n      0x08c379a000000000000000000000000000000000000000000000000000000000\n      dup2\n      mstore\n      0x04\n      add\n      tag_179\n      swap1\n      tag_170\n      jump\t// in\n    tag_179:\n      mload(0x40)\n      dup1\n      swap2\n      sub\n      swap1\n      revert\n    tag_178:\n        /* \"contracts/PTPPreSale.sol\":4373:4379  _price */\n      dup1\n        /* \"contracts/PTPPreSale.sol\":4355:4363  tptPrice */\n      0x01\n        /* \"contracts/PTPPreSale.sol\":4355:4370  tptPrice[_step] */\n      0x00\n        /* \"contracts/PTPPreSale.sol\":4364:4369  _step */\n      dup5\n        /* \"contracts/PTPPreSale.sol\":4355:4370  tptPrice[_step] */\n      0xff\n      and\n      0xff\n      and\n      dup2\n      mstore\n      0x20\n      add\n      swap1\n      dup2\n      mstore\n      0x20\n      add\n      0x00\n      keccak256\n        /* \"contracts/PTPPreSale.sol\":4355:4379  tptPrice[_step] = _price */\n      dup2\n      swap1\n      sstore\n      pop\n        /* \"contracts/PTPPreSale.sol\":4279:4387  function setTPTPrice(uint8 _step , uint _price) public onlyOwner {... */\n      pop\n      pop\n      jump\t// out\n        /* \"contracts/PTPPreSale.sol\":1737:2057  function calcAmount(bool _useOffer) public payable returns(uint){... */\n    tag_105:\n        /* \"contracts/PTPPreSale.sol\":1796:1800  uint */\n      0x00\n        /* \"contracts/PTPPreSale.sol\":1813:1824  uint usdBnb */\n      0x00\n        /* \"contracts/PTPPreSale.sol\":1830:1846  getUsdBnbPrice() */\n      tag_182\n        /* \"contracts/PTPPreSale.sol\":1830:1844  getUsdBnbPrice */\n      tag_73\n        /* \"contracts/PTPPreSale.sol\":1830:1846  getUsdBnbPrice() */\n      jump\t// in\n    tag_182:\n        /* \"contracts/PTPPreSale.sol\":1812:1846  (uint usdBnb ,) = getUsdBnbPrice() */\n      pop\n      swap1\n      pop\n        /* \"contracts/PTPPreSale.sol\":1857:1871  uint tptAmount */\n      0x00\n        /* \"contracts/PTPPreSale.sol\":1874:1883  _useOffer */\n      dup4\n        /* \"contracts/PTPPreSale.sol\":1874:2007  _useOffer ... */\n      tag_183\n      jumpi\n        /* \"contracts/PTPPreSale.sol\":1989:1997  tptPrice */\n      0x01\n        /* \"contracts/PTPPreSale.sol\":1989:2007  tptPrice[thisStep] */\n      0x00\n        /* \"contracts/PTPPreSale.sol\":1998:2006  thisStep */\n      0x00\n      0x15\n      swap1\n      sload\n      swap1\n      0x0100\n      exp\n      swap1\n      div\n      0xff\n      and\n        /* \"contracts/PTPPreSale.sol\":1989:2007  tptPrice[thisStep] */\n      0xff\n      and\n      0xff\n      and\n      dup2\n      mstore\n      0x20\n      add\n      swap1\n      dup2\n      mstore\n      0x20\n      add\n      0x00\n      keccak256\n      sload\n        /* \"contracts/PTPPreSale.sol\":1979:1985  usdBnb */\n      dup3\n        /* \"contracts/PTPPreSale.sol\":1967:1976  msg.value */\n      callvalue\n        /* \"contracts/PTPPreSale.sol\":1967:1985  msg.value / usdBnb */\n      tag_184\n      swap2\n      swap1\n      tag_185\n      jump\t// in\n    tag_184:\n        /* \"contracts/PTPPreSale.sol\":1966:2007  (msg.value / usdBnb) / tptPrice[thisStep] */\n      tag_186\n      swap2\n      swap1\n      tag_185\n      jump\t// in\n    tag_186:\n        /* \"contracts/PTPPreSale.sol\":1874:2007  _useOffer ... */\n      jump(tag_187)\n    tag_183:\n        /* \"contracts/PTPPreSale.sol\":1949:1950  2 */\n      0x02\n        /* \"contracts/PTPPreSale.sol\":1925:1933  tptPrice */\n      0x01\n        /* \"contracts/PTPPreSale.sol\":1925:1943  tptPrice[thisStep] */\n      0x00\n        /* \"contracts/PTPPreSale.sol\":1934:1942  thisStep */\n      0x00\n      0x15\n      swap1\n      sload\n      swap1\n      0x0100\n      exp\n      swap1\n      div\n      0xff\n      and\n        /* \"contracts/PTPPreSale.sol\":1925:1943  tptPrice[thisStep] */\n      0xff\n      and\n      0xff\n      and\n      dup2\n      mstore\n      0x20\n      add\n      swap1\n      dup2\n      mstore\n      0x20\n      add\n      0x00\n      keccak256\n      sload\n        /* \"contracts/PTPPreSale.sol\":1914:1920  usdBnb */\n      dup4\n        /* \"contracts/PTPPreSale.sol\":1902:1911  msg.value */\n      callvalue\n        /* \"contracts/PTPPreSale.sol\":1902:1920  msg.value / usdBnb */\n      tag_188\n      swap2\n      swap1\n      tag_185\n      jump\t// in\n    tag_188:\n        /* \"contracts/PTPPreSale.sol\":1901:1943  (msg.value / usdBnb ) / tptPrice[thisStep] */\n      tag_189\n      swap2\n      swap1\n      tag_185\n      jump\t// in\n    tag_189:\n        /* \"contracts/PTPPreSale.sol\":1900:1950  ((msg.value / usdBnb ) / tptPrice[thisStep]  ) * 2 */\n      tag_190\n      swap2\n      swap1\n      tag_191\n      jump\t// in\n    tag_190:\n        /* \"contracts/PTPPreSale.sol\":1874:2007  _useOffer ... */\n    tag_187:\n        /* \"contracts/PTPPreSale.sol\":1857:2007  uint tptAmount = _useOffer ... */\n      swap1\n      pop\n        /* \"contracts/PTPPreSale.sol\":2040:2049  tptAmount */\n      dup1\n        /* \"contracts/PTPPreSale.sol\":2033:2049  return tptAmount */\n      swap3\n      pop\n      pop\n      pop\n        /* \"contracts/PTPPreSale.sol\":1737:2057  function calcAmount(bool _useOffer) public payable returns(uint){... */\n      swap2\n      swap1\n      pop\n      jump\t// out\n        /* \"contracts/PTPPreSale.sol\":213:234  uint8 public thisStep */\n    tag_109:\n      0x00\n      0x15\n      swap1\n      sload\n      swap1\n      0x0100\n      exp\n      swap1\n      div\n      0xff\n      and\n      dup2\n      jump\t// out\n        /* \"contracts/PTPPreSale.sol\":335:360  uint256 public totalUsers */\n    tag_114:\n      sload(0x03)\n      dup2\n      jump\t// out\n        /* \"contracts/PTPPreSale.sol\":3949:4173  function grantPointsById(address _userAddress, uint256 _value) external onlyOwner {... */\n    tag_119:\n        /* \"contracts/PTPPreSale.sol\":809:814  owner */\n      0x00\n      0x00\n      swap1\n      sload\n      swap1\n      0x0100\n      exp\n      swap1\n      div\n      0xffffffffffffffffffffffffffffffffffffffff\n      and\n        /* \"contracts/PTPPreSale.sol\":795:814  msg.sender == owner */\n      0xffffffffffffffffffffffffffffffffffffffff\n      and\n        /* \"contracts/PTPPreSale.sol\":795:805  msg.sender */\n      caller\n        /* \"contracts/PTPPreSale.sol\":795:814  msg.sender == owner */\n      0xffffffffffffffffffffffffffffffffffffffff\n      and\n      eq\n        /* \"contracts/PTPPreSale.sol\":787:829  require(msg.sender == owner, \"Only owner\") */\n      tag_193\n      jumpi\n      mload(0x40)\n      0x08c379a000000000000000000000000000000000000000000000000000000000\n      dup2\n      mstore\n      0x04\n      add\n      tag_194\n      swap1\n      tag_170\n      jump\t// in\n    tag_194:\n      mload(0x40)\n      dup1\n      swap2\n      sub\n      swap1\n      revert\n    tag_193:\n        /* \"contracts/PTPPreSale.sol\":4084:4085  0 */\n      0x00\n        /* \"contracts/PTPPreSale.sol\":4060:4066  userId */\n      0x04\n        /* \"contracts/PTPPreSale.sol\":4060:4080  userId[_userAddress] */\n      0x00\n        /* \"contracts/PTPPreSale.sol\":4067:4079  _userAddress */\n      dup5\n        /* \"contracts/PTPPreSale.sol\":4060:4080  userId[_userAddress] */\n      0xffffffffffffffffffffffffffffffffffffffff\n      and\n      0xffffffffffffffffffffffffffffffffffffffff\n      and\n      dup2\n      mstore\n      0x20\n      add\n      swap1\n      dup2\n      mstore\n      0x20\n      add\n      0x00\n      keccak256\n      sload\n        /* \"contracts/PTPPreSale.sol\":4060:4085  userId[_userAddress] != 0 */\n      sub\n        /* \"contracts/PTPPreSale.sol\":4052:4105  require(userId[_userAddress] != 0, \"Invalid user ID\") */\n      tag_196\n      jumpi\n      mload(0x40)\n      0x08c379a000000000000000000000000000000000000000000000000000000000\n      dup2\n      mstore\n      0x04\n      add\n      tag_197\n      swap1\n      tag_198\n      jump\t// in\n    tag_197:\n      mload(0x40)\n      dup1\n      swap2\n      sub\n      swap1\n      revert\n    tag_196:\n        /* \"contracts/PTPPreSale.sol\":4158:4164  _value */\n      dup1\n        /* \"contracts/PTPPreSale.sol\":4116:4121  users */\n      0x05\n        /* \"contracts/PTPPreSale.sol\":4116:4143  users[userId[_userAddress]] */\n      0x00\n        /* \"contracts/PTPPreSale.sol\":4122:4128  userId */\n      0x04\n        /* \"contracts/PTPPreSale.sol\":4122:4142  userId[_userAddress] */\n      0x00\n        /* \"contracts/PTPPreSale.sol\":4129:4141  _userAddress */\n      dup7\n        /* \"contracts/PTPPreSale.sol\":4122:4142  userId[_userAddress] */\n      0xffffffffffffffffffffffffffffffffffffffff\n      and\n      0xffffffffffffffffffffffffffffffffffffffff\n      and\n      dup2\n      mstore\n      0x20\n      add\n      swap1\n      dup2\n      mstore\n      0x20\n      add\n      0x00\n      keccak256\n      sload\n        /* \"contracts/PTPPreSale.sol\":4116:4143  users[userId[_userAddress]] */\n      dup2\n      mstore\n      0x20\n      add\n      swap1\n      dup2\n      mstore\n      0x20\n      add\n      0x00\n      keccak256\n        /* \"contracts/PTPPreSale.sol\":4116:4154  users[userId[_userAddress]].tptBalance */\n      0x01\n      add\n      0x00\n        /* \"contracts/PTPPreSale.sol\":4116:4164  users[userId[_userAddress]].tptBalance += _value */\n      dup3\n      dup3\n      sload\n      tag_199\n      swap2\n      swap1\n      tag_200\n      jump\t// in\n    tag_199:\n      swap3\n      pop\n      pop\n      dup2\n      swap1\n      sstore\n      pop\n        /* \"contracts/PTPPreSale.sol\":3949:4173  function grantPointsById(address _userAddress, uint256 _value) external onlyOwner {... */\n      pop\n      pop\n      jump\t// out\n        /* \"contracts/PTPPreSale.sol\":4621:4705  function setIBNBPriceMode() public onlyOwner{... */\n    tag_122:\n        /* \"contracts/PTPPreSale.sol\":809:814  owner */\n      0x00\n      0x00\n      swap1\n      sload\n      swap1\n      0x0100\n      exp\n      swap1\n      div\n      0xffffffffffffffffffffffffffffffffffffffff\n      and\n        /* \"contracts/PTPPreSale.sol\":795:814  msg.sender == owner */\n      0xffffffffffffffffffffffffffffffffffffffff\n      and\n        /* \"contracts/PTPPreSale.sol\":795:805  msg.sender */\n      caller\n        /* \"contracts/PTPPreSale.sol\":795:814  msg.sender == owner */\n      0xffffffffffffffffffffffffffffffffffffffff\n      and\n      eq\n        /* \"contracts/PTPPreSale.sol\":787:829  require(msg.sender == owner, \"Only owner\") */\n      tag_202\n      jumpi\n      mload(0x40)\n      0x08c379a000000000000000000000000000000000000000000000000000000000\n      dup2\n      mstore\n      0x04\n      add\n      tag_203\n      swap1\n      tag_170\n      jump\t// in\n    tag_203:\n      mload(0x40)\n      dup1\n      swap2\n      sub\n      swap1\n      revert\n    tag_202:\n        /* \"contracts/PTPPreSale.sol\":4676:4685  iBNBPrice */\n      0x02\n      0x00\n      swap1\n      sload\n      swap1\n      0x0100\n      exp\n      swap1\n      div\n      0xffffffffffffffffffffffffffffffffffffffff\n      and\n        /* \"contracts/PTPPreSale.sol\":4676:4695  iBNBPrice.setEqMode */\n      0xffffffffffffffffffffffffffffffffffffffff\n      and\n      0x65a6cc2e\n        /* \"contracts/PTPPreSale.sol\":4676:4697  iBNBPrice.setEqMode() */\n      mload(0x40)\n      dup2\n      0xffffffff\n      and\n      0xe0\n      shl\n      dup2\n      mstore\n      0x04\n      add\n      0x00\n      mload(0x40)\n      dup1\n      dup4\n      sub\n      dup2\n      0x00\n      dup8\n      dup1\n      extcodesize\n      iszero\n      dup1\n      iszero\n      tag_205\n      jumpi\n      revert(0x00, 0x00)\n    tag_205:\n      pop\n      gas\n      call\n      iszero\n      dup1\n      iszero\n      tag_207\n      jumpi\n      returndatacopy(0x00, 0x00, returndatasize)\n      revert(0x00, returndatasize)\n    tag_207:\n      pop\n      pop\n      pop\n      pop\n        /* \"contracts/PTPPreSale.sol\":4621:4705  function setIBNBPriceMode() public onlyOwner{... */\n      jump\t// out\n        /* \"contracts/PTPPreSale.sol\":2926:3097  function withdrawAll(address payable _to) external onlyOwner {... */\n    tag_127:\n        /* \"contracts/PTPPreSale.sol\":809:814  owner */\n      0x00\n      0x00\n      swap1\n      sload\n      swap1\n      0x0100\n      exp\n      swap1\n      div\n      0xffffffffffffffffffffffffffffffffffffffff\n      and\n        /* \"contracts/PTPPreSale.sol\":795:814  msg.sender == owner */\n      0xffffffffffffffffffffffffffffffffffffffff\n      and\n        /* \"contracts/PTPPreSale.sol\":795:805  msg.sender */\n      caller\n        /* \"contracts/PTPPreSale.sol\":795:814  msg.sender == owner */\n      0xffffffffffffffffffffffffffffffffffffffff\n      and\n      eq\n        /* \"contracts/PTPPreSale.sol\":787:829  require(msg.sender == owner, \"Only owner\") */\n      tag_209\n      jumpi\n      mload(0x40)\n      0x08c379a000000000000000000000000000000000000000000000000000000000\n      dup2\n      mstore\n      0x04\n      add\n      tag_210\n      swap1\n      tag_170\n      jump\t// in\n    tag_210:\n      mload(0x40)\n      dup1\n      swap2\n      sub\n      swap1\n      revert\n    tag_209:\n        /* \"contracts/PTPPreSale.sol\":3021:3022  0 */\n      0x00\n        /* \"contracts/PTPPreSale.sol\":3006:3023  _to != address(0) */\n      0xffffffffffffffffffffffffffffffffffffffff\n      and\n        /* \"contracts/PTPPreSale.sol\":3006:3009  _to */\n      dup2\n        /* \"contracts/PTPPreSale.sol\":3006:3023  _to != address(0) */\n      0xffffffffffffffffffffffffffffffffffffffff\n      and\n      sub\n        /* \"contracts/PTPPreSale.sol\":2998:3043  require(_to != address(0), \"Invalid address\") */\n      tag_212\n      jumpi\n      mload(0x40)\n      0x08c379a000000000000000000000000000000000000000000000000000000000\n      dup2\n      mstore\n      0x04\n      add\n      tag_213\n      swap1\n      tag_214\n      jump\t// in\n    tag_213:\n      mload(0x40)\n      dup1\n      swap2\n      sub\n      swap1\n      revert\n    tag_212:\n        /* \"contracts/PTPPreSale.sol\":3054:3057  _to */\n      dup1\n        /* \"contracts/PTPPreSale.sol\":3054:3066  _to.transfer */\n      0xffffffffffffffffffffffffffffffffffffffff\n      and\n        /* \"contracts/PTPPreSale.sol\":3054:3089  _to.transfer(address(this).balance) */\n      0x08fc\n        /* \"contracts/PTPPreSale.sol\":3067:3088  address(this).balance */\n      selfbalance\n        /* \"contracts/PTPPreSale.sol\":3054:3089  _to.transfer(address(this).balance) */\n      swap1\n      dup2\n      iszero\n      mul\n      swap1\n      mload(0x40)\n      0x00\n      mload(0x40)\n      dup1\n      dup4\n      sub\n      dup2\n      dup6\n      dup9\n      dup9\n      call\n      swap4\n      pop\n      pop\n      pop\n      pop\n      iszero\n      dup1\n      iszero\n      tag_216\n      jumpi\n      returndatacopy(0x00, 0x00, returndatasize)\n      revert(0x00, returndatasize)\n    tag_216:\n      pop\n        /* \"contracts/PTPPreSale.sol\":2926:3097  function withdrawAll(address payable _to) external onlyOwner {... */\n      pop\n      jump\t// out\n        /* \"contracts/PTPPreSale.sol\":3792:3937  function getUserTPTBalance(address _userAddress) external view returns (uint256) {... */\n    tag_131:\n        /* \"contracts/PTPPreSale.sol\":3864:3871  uint256 */\n      0x00\n        /* \"contracts/PTPPreSale.sol\":3891:3896  users */\n      0x05\n        /* \"contracts/PTPPreSale.sol\":3891:3918  users[userId[_userAddress]] */\n      0x00\n        /* \"contracts/PTPPreSale.sol\":3897:3903  userId */\n      0x04\n        /* \"contracts/PTPPreSale.sol\":3897:3917  userId[_userAddress] */\n      0x00\n        /* \"contracts/PTPPreSale.sol\":3904:3916  _userAddress */\n      dup6\n        /* \"contracts/PTPPreSale.sol\":3897:3917  userId[_userAddress] */\n      0xffffffffffffffffffffffffffffffffffffffff\n      and\n      0xffffffffffffffffffffffffffffffffffffffff\n      and\n      dup2\n      mstore\n      0x20\n      add\n      swap1\n      dup2\n      mstore\n      0x20\n      add\n      0x00\n      keccak256\n      sload\n        /* \"contracts/PTPPreSale.sol\":3891:3918  users[userId[_userAddress]] */\n      dup2\n      mstore\n      0x20\n      add\n      swap1\n      dup2\n      mstore\n      0x20\n      add\n      0x00\n      keccak256\n        /* \"contracts/PTPPreSale.sol\":3891:3929  users[userId[_userAddress]].tptBalance */\n      0x01\n      add\n      sload\n        /* \"contracts/PTPPreSale.sol\":3884:3929  return users[userId[_userAddress]].tptBalance */\n      swap1\n      pop\n        /* \"contracts/PTPPreSale.sol\":3792:3937  function getUserTPTBalance(address _userAddress) external view returns (uint256) {... */\n      swap2\n      swap1\n      pop\n      jump\t// out\n    tag_153:\n      dup3\n      dup1\n      sload\n      dup3\n      dup3\n      sstore\n      swap1\n      0x00\n      mstore\n      keccak256(0x00, 0x20)\n      swap1\n      0x04\n      mul\n      dup2\n      add\n      swap3\n      dup3\n      iszero\n      tag_218\n      jumpi\n      0x00\n      mstore\n      keccak256(0x00, 0x20)\n      swap2\n      0x04\n      mul\n      dup3\n      add\n    tag_219:\n      dup3\n      dup2\n      gt\n      iszero\n      tag_220\n      jumpi\n      dup3\n      dup3\n      0x00\n      dup3\n      add\n      sload\n      dup2\n      0x00\n      add\n      sstore\n      0x01\n      dup3\n      add\n      sload\n      dup2\n      0x01\n      add\n      sstore\n      0x02\n      dup3\n      add\n      sload\n      dup2\n      0x02\n      add\n      sstore\n      0x03\n      dup3\n      add\n      0x00\n      swap1\n      sload\n      swap1\n      0x0100\n      exp\n      swap1\n      div\n      0xff\n      and\n      dup2\n      0x03\n      add\n      exp(0x0100, 0x00)\n      dup2\n      sload\n      dup2\n      0xff\n      mul\n      not\n      and\n      swap1\n      dup4\n      0xff\n      and\n      mul\n      or\n      swap1\n      sstore\n      pop\n      pop\n      pop\n      swap2\n      0x04\n      add\n      swap2\n      swap1\n      0x04\n      add\n      swap1\n      jump(tag_219)\n    tag_220:\n    tag_218:\n      pop\n      swap1\n      pop\n      tag_221\n      swap2\n      swap1\n      tag_222\n      jump\t// in\n    tag_221:\n      pop\n      swap1\n      jump\t// out\n    tag_222:\n    tag_223:\n      dup1\n      dup3\n      gt\n      iszero\n      tag_224\n      jumpi\n      0x00\n      0x00\n      dup3\n      add\n      0x00\n      swap1\n      sstore\n      0x01\n      dup3\n      add\n      0x00\n      swap1\n      sstore\n      0x02\n      dup3\n      add\n      0x00\n      swap1\n      sstore\n      0x03\n      dup3\n      add\n      exp(0x0100, 0x00)\n      dup2\n      sload\n      swap1\n      0xff\n      mul\n      not\n      and\n      swap1\n      sstore\n      pop\n      0x04\n      add\n      jump(tag_223)\n    tag_224:\n      pop\n      swap1\n      jump\t// out\n        /* \"#utility.yul\":88:205   */\n    tag_226:\n        /* \"#utility.yul\":197:198   */\n      0x00\n        /* \"#utility.yul\":194:195   */\n      0x00\n        /* \"#utility.yul\":187:199   */\n      revert\n        /* \"#utility.yul\":334:424   */\n    tag_228:\n        /* \"#utility.yul\":368:375   */\n      0x00\n        /* \"#utility.yul\":411:416   */\n      dup2\n        /* \"#utility.yul\":404:417   */\n      iszero\n        /* \"#utility.yul\":397:418   */\n      iszero\n        /* \"#utility.yul\":386:418   */\n      swap1\n      pop\n        /* \"#utility.yul\":334:424   */\n      swap2\n      swap1\n      pop\n      jump\t// out\n        /* \"#utility.yul\":430:546   */\n    tag_229:\n        /* \"#utility.yul\":500:521   */\n      tag_273\n        /* \"#utility.yul\":515:520   */\n      dup2\n        /* \"#utility.yul\":500:521   */\n      tag_228\n      jump\t// in\n    tag_273:\n        /* \"#utility.yul\":493:498   */\n      dup2\n        /* \"#utility.yul\":490:522   */\n      eq\n        /* \"#utility.yul\":480:540   */\n      tag_274\n      jumpi\n        /* \"#utility.yul\":536:537   */\n      0x00\n        /* \"#utility.yul\":533:534   */\n      0x00\n        /* \"#utility.yul\":526:538   */\n      revert\n        /* \"#utility.yul\":480:540   */\n    tag_274:\n        /* \"#utility.yul\":430:546   */\n      pop\n      jump\t// out\n        /* \"#utility.yul\":552:685   */\n    tag_230:\n        /* \"#utility.yul\":595:600   */\n      0x00\n        /* \"#utility.yul\":633:639   */\n      dup2\n        /* \"#utility.yul\":620:640   */\n      calldataload\n        /* \"#utility.yul\":611:640   */\n      swap1\n      pop\n        /* \"#utility.yul\":649:679   */\n      tag_276\n        /* \"#utility.yul\":673:678   */\n      dup2\n        /* \"#utility.yul\":649:679   */\n      tag_229\n      jump\t// in\n    tag_276:\n        /* \"#utility.yul\":552:685   */\n      swap3\n      swap2\n      pop\n      pop\n      jump\t// out\n        /* \"#utility.yul\":691:1014   */\n    tag_34:\n        /* \"#utility.yul\":747:753   */\n      0x00\n        /* \"#utility.yul\":796:798   */\n      0x20\n        /* \"#utility.yul\":784:793   */\n      dup3\n        /* \"#utility.yul\":775:782   */\n      dup5\n        /* \"#utility.yul\":771:794   */\n      sub\n        /* \"#utility.yul\":767:799   */\n      slt\n        /* \"#utility.yul\":764:883   */\n      iszero\n      tag_278\n      jumpi\n        /* \"#utility.yul\":802:881   */\n      tag_279\n      tag_226\n      jump\t// in\n    tag_279:\n        /* \"#utility.yul\":764:883   */\n    tag_278:\n        /* \"#utility.yul\":922:923   */\n      0x00\n        /* \"#utility.yul\":947:997   */\n      tag_280\n        /* \"#utility.yul\":989:996   */\n      dup5\n        /* \"#utility.yul\":980:986   */\n      dup3\n        /* \"#utility.yul\":969:978   */\n      dup6\n        /* \"#utility.yul\":965:987   */\n      add\n        /* \"#utility.yul\":947:997   */\n      tag_230\n      jump\t// in\n    tag_280:\n        /* \"#utility.yul\":937:997   */\n      swap2\n      pop\n        /* \"#utility.yul\":893:1007   */\n      pop\n        /* \"#utility.yul\":691:1014   */\n      swap3\n      swap2\n      pop\n      pop\n      jump\t// out\n        /* \"#utility.yul\":1020:1146   */\n    tag_231:\n        /* \"#utility.yul\":1057:1064   */\n      0x00\n        /* \"#utility.yul\":1097:1139   */\n      0xffffffffffffffffffffffffffffffffffffffff\n        /* \"#utility.yul\":1090:1095   */\n      dup3\n        /* \"#utility.yul\":1086:1140   */\n      and\n        /* \"#utility.yul\":1075:1140   */\n      swap1\n      pop\n        /* \"#utility.yul\":1020:1146   */\n      swap2\n      swap1\n      pop\n      jump\t// out\n        /* \"#utility.yul\":1152:1248   */\n    tag_232:\n        /* \"#utility.yul\":1189:1196   */\n      0x00\n        /* \"#utility.yul\":1218:1242   */\n      tag_283\n        /* \"#utility.yul\":1236:1241   */\n      dup3\n        /* \"#utility.yul\":1218:1242   */\n      tag_231\n      jump\t// in\n    tag_283:\n        /* \"#utility.yul\":1207:1242   */\n      swap1\n      pop\n        /* \"#utility.yul\":1152:1248   */\n      swap2\n      swap1\n      pop\n      jump\t// out\n        /* \"#utility.yul\":1254:1376   */\n    tag_233:\n        /* \"#utility.yul\":1327:1351   */\n      tag_285\n        /* \"#utility.yul\":1345:1350   */\n      dup2\n        /* \"#utility.yul\":1327:1351   */\n      tag_232\n      jump\t// in\n    tag_285:\n        /* \"#utility.yul\":1320:1325   */\n      dup2\n        /* \"#utility.yul\":1317:1352   */\n      eq\n        /* \"#utility.yul\":1307:1370   */\n      tag_286\n      jumpi\n        /* \"#utility.yul\":1366:1367   */\n      0x00\n        /* \"#utility.yul\":1363:1364   */\n      0x00\n        /* \"#utility.yul\":1356:1368   */\n      revert\n        /* \"#utility.yul\":1307:1370   */\n    tag_286:\n        /* \"#utility.yul\":1254:1376   */\n      pop\n      jump\t// out\n        /* \"#utility.yul\":1382:1521   */\n    tag_234:\n        /* \"#utility.yul\":1428:1433   */\n      0x00\n        /* \"#utility.yul\":1466:1472   */\n      dup2\n        /* \"#utility.yul\":1453:1473   */\n      calldataload\n        /* \"#utility.yul\":1444:1473   */\n      swap1\n      pop\n        /* \"#utility.yul\":1482:1515   */\n      tag_288\n        /* \"#utility.yul\":1509:1514   */\n      dup2\n        /* \"#utility.yul\":1482:1515   */\n      tag_233\n      jump\t// in\n    tag_288:\n        /* \"#utility.yul\":1382:1521   */\n      swap3\n      swap2\n      pop\n      pop\n      jump\t// out\n        /* \"#utility.yul\":1527:1604   */\n    tag_235:\n        /* \"#utility.yul\":1564:1571   */\n      0x00\n        /* \"#utility.yul\":1593:1598   */\n      dup2\n        /* \"#utility.yul\":1582:1598   */\n      swap1\n      pop\n        /* \"#utility.yul\":1527:1604   */\n      swap2\n      swap1\n      pop\n      jump\t// out\n        /* \"#utility.yul\":1610:1732   */\n    tag_236:\n        /* \"#utility.yul\":1683:1707   */\n      tag_291\n        /* \"#utility.yul\":1701:1706   */\n      dup2\n        /* \"#utility.yul\":1683:1707   */\n      tag_235\n      jump\t// in\n    tag_291:\n        /* \"#utility.yul\":1676:1681   */\n      dup2\n        /* \"#utility.yul\":1673:1708   */\n      eq\n        /* \"#utility.yul\":1663:1726   */\n      tag_292\n      jumpi\n        /* \"#utility.yul\":1722:1723   */\n      0x00\n        /* \"#utility.yul\":1719:1720   */\n      0x00\n        /* \"#utility.yul\":1712:1724   */\n      revert\n        /* \"#utility.yul\":1663:1726   */\n    tag_292:\n        /* \"#utility.yul\":1610:1732   */\n      pop\n      jump\t// out\n        /* \"#utility.yul\":1738:1877   */\n    tag_237:\n        /* \"#utility.yul\":1784:1789   */\n      0x00\n        /* \"#utility.yul\":1822:1828   */\n      dup2\n        /* \"#utility.yul\":1809:1829   */\n      calldataload\n        /* \"#utility.yul\":1800:1829   */\n      swap1\n      pop\n        /* \"#utility.yul\":1838:1871   */\n      tag_294\n        /* \"#utility.yul\":1865:1870   */\n      dup2\n        /* \"#utility.yul\":1838:1871   */\n      tag_236\n      jump\t// in\n    tag_294:\n        /* \"#utility.yul\":1738:1877   */\n      swap3\n      swap2\n      pop\n      pop\n      jump\t// out\n        /* \"#utility.yul\":1883:2357   */\n    tag_38:\n        /* \"#utility.yul\":1951:1957   */\n      0x00\n        /* \"#utility.yul\":1959:1965   */\n      0x00\n        /* \"#utility.yul\":2008:2010   */\n      0x40\n        /* \"#utility.yul\":1996:2005   */\n      dup4\n        /* \"#utility.yul\":1987:1994   */\n      dup6\n        /* \"#utility.yul\":1983:2006   */\n      sub\n        /* \"#utility.yul\":1979:2011   */\n      slt\n        /* \"#utility.yul\":1976:2095   */\n      iszero\n      tag_296\n      jumpi\n        /* \"#utility.yul\":2014:2093   */\n      tag_297\n      tag_226\n      jump\t// in\n    tag_297:\n        /* \"#utility.yul\":1976:2095   */\n    tag_296:\n        /* \"#utility.yul\":2134:2135   */\n      0x00\n        /* \"#utility.yul\":2159:2212   */\n      tag_298\n        /* \"#utility.yul\":2204:2211   */\n      dup6\n        /* \"#utility.yul\":2195:2201   */\n      dup3\n        /* \"#utility.yul\":2184:2193   */\n      dup7\n        /* \"#utility.yul\":2180:2202   */\n      add\n        /* \"#utility.yul\":2159:2212   */\n      tag_234\n      jump\t// in\n    tag_298:\n        /* \"#utility.yul\":2149:2212   */\n      swap3\n      pop\n        /* \"#utility.yul\":2105:2222   */\n      pop\n        /* \"#utility.yul\":2261:2263   */\n      0x20\n        /* \"#utility.yul\":2287:2340   */\n      tag_299\n        /* \"#utility.yul\":2332:2339   */\n      dup6\n        /* \"#utility.yul\":2323:2329   */\n      dup3\n        /* \"#utility.yul\":2312:2321   */\n      dup7\n        /* \"#utility.yul\":2308:2330   */\n      add\n        /* \"#utility.yul\":2287:2340   */\n      tag_237\n      jump\t// in\n    tag_299:\n        /* \"#utility.yul\":2277:2340   */\n      swap2\n      pop\n        /* \"#utility.yul\":2232:2350   */\n      pop\n        /* \"#utility.yul\":1883:2357   */\n      swap3\n      pop\n      swap3\n      swap1\n      pop\n      jump\t// out\n        /* \"#utility.yul\":2363:2481   */\n    tag_238:\n        /* \"#utility.yul\":2450:2474   */\n      tag_301\n        /* \"#utility.yul\":2468:2473   */\n      dup2\n        /* \"#utility.yul\":2450:2474   */\n      tag_235\n      jump\t// in\n    tag_301:\n        /* \"#utility.yul\":2445:2448   */\n      dup3\n        /* \"#utility.yul\":2438:2475   */\n      mstore\n        /* \"#utility.yul\":2363:2481   */\n      pop\n      pop\n      jump\t// out\n        /* \"#utility.yul\":2487:2929   */\n    tag_41:\n        /* \"#utility.yul\":2636:2640   */\n      0x00\n        /* \"#utility.yul\":2674:2676   */\n      0x60\n        /* \"#utility.yul\":2663:2672   */\n      dup3\n        /* \"#utility.yul\":2659:2677   */\n      add\n        /* \"#utility.yul\":2651:2677   */\n      swap1\n      pop\n        /* \"#utility.yul\":2687:2758   */\n      tag_303\n        /* \"#utility.yul\":2755:2756   */\n      0x00\n        /* \"#utility.yul\":2744:2753   */\n      dup4\n        /* \"#utility.yul\":2740:2757   */\n      add\n        /* \"#utility.yul\":2731:2737   */\n      dup7\n        /* \"#utility.yul\":2687:2758   */\n      tag_238\n      jump\t// in\n    tag_303:\n        /* \"#utility.yul\":2768:2840   */\n      tag_304\n        /* \"#utility.yul\":2836:2838   */\n      0x20\n        /* \"#utility.yul\":2825:2834   */\n      dup4\n        /* \"#utility.yul\":2821:2839   */\n      add\n        /* \"#utility.yul\":2812:2818   */\n      dup6\n        /* \"#utility.yul\":2768:2840   */\n      tag_238\n      jump\t// in\n    tag_304:\n        /* \"#utility.yul\":2850:2922   */\n      tag_305\n        /* \"#utility.yul\":2918:2920   */\n      0x40\n        /* \"#utility.yul\":2907:2916   */\n      dup4\n        /* \"#utility.yul\":2903:2921   */\n      add\n        /* \"#utility.yul\":2894:2900   */\n      dup5\n        /* \"#utility.yul\":2850:2922   */\n      tag_238\n      jump\t// in\n    tag_305:\n        /* \"#utility.yul\":2487:2929   */\n      swap5\n      swap4\n      pop\n      pop\n      pop\n      pop\n      jump\t// out\n        /* \"#utility.yul\":2935:3264   */\n    tag_45:\n        /* \"#utility.yul\":2994:3000   */\n      0x00\n        /* \"#utility.yul\":3043:3045   */\n      0x20\n        /* \"#utility.yul\":3031:3040   */\n      dup3\n        /* \"#utility.yul\":3022:3029   */\n      dup5\n        /* \"#utility.yul\":3018:3041   */\n      sub\n        /* \"#utility.yul\":3014:3046   */\n      slt\n        /* \"#utility.yul\":3011:3130   */\n      iszero\n      tag_307\n      jumpi\n        /* \"#utility.yul\":3049:3128   */\n      tag_308\n      tag_226\n      jump\t// in\n    tag_308:\n        /* \"#utility.yul\":3011:3130   */\n    tag_307:\n        /* \"#utility.yul\":3169:3170   */\n      0x00\n        /* \"#utility.yul\":3194:3247   */\n      tag_309\n        /* \"#utility.yul\":3239:3246   */\n      dup5\n        /* \"#utility.yul\":3230:3236   */\n      dup3\n        /* \"#utility.yul\":3219:3228   */\n      dup6\n        /* \"#utility.yul\":3215:3237   */\n      add\n        /* \"#utility.yul\":3194:3247   */\n      tag_234\n      jump\t// in\n    tag_309:\n        /* \"#utility.yul\":3184:3247   */\n      swap2\n      pop\n        /* \"#utility.yul\":3140:3257   */\n      pop\n        /* \"#utility.yul\":2935:3264   */\n      swap3\n      swap2\n      pop\n      pop\n      jump\t// out\n        /* \"#utility.yul\":3270:3492   */\n    tag_48:\n        /* \"#utility.yul\":3363:3367   */\n      0x00\n        /* \"#utility.yul\":3401:3403   */\n      0x20\n        /* \"#utility.yul\":3390:3399   */\n      dup3\n        /* \"#utility.yul\":3386:3404   */\n      add\n        /* \"#utility.yul\":3378:3404   */\n      swap1\n      pop\n        /* \"#utility.yul\":3414:3485   */\n      tag_311\n        /* \"#utility.yul\":3482:3483   */\n      0x00\n        /* \"#utility.yul\":3471:3480   */\n      dup4\n        /* \"#utility.yul\":3467:3484   */\n      add\n        /* \"#utility.yul\":3458:3464   */\n      dup5\n        /* \"#utility.yul\":3414:3485   */\n      tag_238\n      jump\t// in\n    tag_311:\n        /* \"#utility.yul\":3270:3492   */\n      swap3\n      swap2\n      pop\n      pop\n      jump\t// out\n        /* \"#utility.yul\":3498:3827   */\n    tag_57:\n        /* \"#utility.yul\":3557:3563   */\n      0x00\n        /* \"#utility.yul\":3606:3608   */\n      0x20\n        /* \"#utility.yul\":3594:3603   */\n      dup3\n        /* \"#utility.yul\":3585:3592   */\n      dup5\n        /* \"#utility.yul\":3581:3604   */\n      sub\n        /* \"#utility.yul\":3577:3609   */\n      slt\n        /* \"#utility.yul\":3574:3693   */\n      iszero\n      tag_313\n      jumpi\n        /* \"#utility.yul\":3612:3691   */\n      tag_314\n      tag_226\n      jump\t// in\n    tag_314:\n        /* \"#utility.yul\":3574:3693   */\n    tag_313:\n        /* \"#utility.yul\":3732:3733   */\n      0x00\n        /* \"#utility.yul\":3757:3810   */\n      tag_315\n        /* \"#utility.yul\":3802:3809   */\n      dup5\n        /* \"#utility.yul\":3793:3799   */\n      dup3\n        /* \"#utility.yul\":3782:3791   */\n      dup6\n        /* \"#utility.yul\":3778:3800   */\n      add\n        /* \"#utility.yul\":3757:3810   */\n      tag_237\n      jump\t// in\n    tag_315:\n        /* \"#utility.yul\":3747:3810   */\n      swap2\n      pop\n        /* \"#utility.yul\":3703:3820   */\n      pop\n        /* \"#utility.yul\":3498:3827   */\n      swap3\n      swap2\n      pop\n      pop\n      jump\t// out\n        /* \"#utility.yul\":3833:3951   */\n    tag_239:\n        /* \"#utility.yul\":3920:3944   */\n      tag_317\n        /* \"#utility.yul\":3938:3943   */\n      dup2\n        /* \"#utility.yul\":3920:3944   */\n      tag_232\n      jump\t// in\n    tag_317:\n        /* \"#utility.yul\":3915:3918   */\n      dup3\n        /* \"#utility.yul\":3908:3945   */\n      mstore\n        /* \"#utility.yul\":3833:3951   */\n      pop\n      pop\n      jump\t// out\n        /* \"#utility.yul\":3957:4066   */\n    tag_240:\n        /* \"#utility.yul\":4038:4059   */\n      tag_319\n        /* \"#utility.yul\":4053:4058   */\n      dup2\n        /* \"#utility.yul\":4038:4059   */\n      tag_228\n      jump\t// in\n    tag_319:\n        /* \"#utility.yul\":4033:4036   */\n      dup3\n        /* \"#utility.yul\":4026:4060   */\n      mstore\n        /* \"#utility.yul\":3957:4066   */\n      pop\n      pop\n      jump\t// out\n        /* \"#utility.yul\":4072:4502   */\n    tag_60:\n        /* \"#utility.yul\":4215:4219   */\n      0x00\n        /* \"#utility.yul\":4253:4255   */\n      0x60\n        /* \"#utility.yul\":4242:4251   */\n      dup3\n        /* \"#utility.yul\":4238:4256   */\n      add\n        /* \"#utility.yul\":4230:4256   */\n      swap1\n      pop\n        /* \"#utility.yul\":4266:4337   */\n      tag_321\n        /* \"#utility.yul\":4334:4335   */\n      0x00\n        /* \"#utility.yul\":4323:4332   */\n      dup4\n        /* \"#utility.yul\":4319:4336   */\n      add\n        /* \"#utility.yul\":4310:4316   */\n      dup7\n        /* \"#utility.yul\":4266:4337   */\n      tag_239\n      jump\t// in\n    tag_321:\n        /* \"#utility.yul\":4347:4419   */\n      tag_322\n        /* \"#utility.yul\":4415:4417   */\n      0x20\n        /* \"#utility.yul\":4404:4413   */\n      dup4\n        /* \"#utility.yul\":4400:4418   */\n      add\n        /* \"#utility.yul\":4391:4397   */\n      dup6\n        /* \"#utility.yul\":4347:4419   */\n      tag_238\n      jump\t// in\n    tag_322:\n        /* \"#utility.yul\":4429:4495   */\n      tag_323\n        /* \"#utility.yul\":4491:4493   */\n      0x40\n        /* \"#utility.yul\":4480:4489   */\n      dup4\n        /* \"#utility.yul\":4476:4494   */\n      add\n        /* \"#utility.yul\":4467:4473   */\n      dup5\n        /* \"#utility.yul\":4429:4495   */\n      tag_240\n      jump\t// in\n    tag_323:\n        /* \"#utility.yul\":4072:4502   */\n      swap5\n      swap4\n      pop\n      pop\n      pop\n      pop\n      jump\t// out\n        /* \"#utility.yul\":4508:4594   */\n    tag_241:\n        /* \"#utility.yul\":4543:4550   */\n      0x00\n        /* \"#utility.yul\":4583:4587   */\n      0xff\n        /* \"#utility.yul\":4576:4581   */\n      dup3\n        /* \"#utility.yul\":4572:4588   */\n      and\n        /* \"#utility.yul\":4561:4588   */\n      swap1\n      pop\n        /* \"#utility.yul\":4508:4594   */\n      swap2\n      swap1\n      pop\n      jump\t// out\n        /* \"#utility.yul\":4600:4718   */\n    tag_242:\n        /* \"#utility.yul\":4671:4693   */\n      tag_326\n        /* \"#utility.yul\":4687:4692   */\n      dup2\n        /* \"#utility.yul\":4671:4693   */\n      tag_241\n      jump\t// in\n    tag_326:\n        /* \"#utility.yul\":4664:4669   */\n      dup2\n        /* \"#utility.yul\":4661:4694   */\n      eq\n        /* \"#utility.yul\":4651:4712   */\n      tag_327\n      jumpi\n        /* \"#utility.yul\":4708:4709   */\n      0x00\n        /* \"#utility.yul\":4705:4706   */\n      0x00\n        /* \"#utility.yul\":4698:4710   */\n      revert\n        /* \"#utility.yul\":4651:4712   */\n    tag_327:\n        /* \"#utility.yul\":4600:4718   */\n      pop\n      jump\t// out\n        /* \"#utility.yul\":4724:4859   */\n    tag_243:\n        /* \"#utility.yul\":4768:4773   */\n      0x00\n        /* \"#utility.yul\":4806:4812   */\n      dup2\n        /* \"#utility.yul\":4793:4813   */\n      calldataload\n        /* \"#utility.yul\":4784:4813   */\n      swap1\n      pop\n        /* \"#utility.yul\":4822:4853   */\n      tag_329\n        /* \"#utility.yul\":4847:4852   */\n      dup2\n        /* \"#utility.yul\":4822:4853   */\n      tag_242\n      jump\t// in\n    tag_329:\n        /* \"#utility.yul\":4724:4859   */\n      swap3\n      swap2\n      pop\n      pop\n      jump\t// out\n        /* \"#utility.yul\":4865:5190   */\n    tag_69:\n        /* \"#utility.yul\":4922:4928   */\n      0x00\n        /* \"#utility.yul\":4971:4973   */\n      0x20\n        /* \"#utility.yul\":4959:4968   */\n      dup3\n        /* \"#utility.yul\":4950:4957   */\n      dup5\n        /* \"#utility.yul\":4946:4969   */\n      sub\n        /* \"#utility.yul\":4942:4974   */\n      slt\n        /* \"#utility.yul\":4939:5058   */\n      iszero\n      tag_331\n      jumpi\n        /* \"#utility.yul\":4977:5056   */\n      tag_332\n      tag_226\n      jump\t// in\n    tag_332:\n        /* \"#utility.yul\":4939:5058   */\n    tag_331:\n        /* \"#utility.yul\":5097:5098   */\n      0x00\n        /* \"#utility.yul\":5122:5173   */\n      tag_333\n        /* \"#utility.yul\":5165:5172   */\n      dup5\n        /* \"#utility.yul\":5156:5162   */\n      dup3\n        /* \"#utility.yul\":5145:5154   */\n      dup6\n        /* \"#utility.yul\":5141:5163   */\n      add\n        /* \"#utility.yul\":5122:5173   */\n      tag_243\n      jump\t// in\n    tag_333:\n        /* \"#utility.yul\":5112:5173   */\n      swap2\n      pop\n        /* \"#utility.yul\":5068:5183   */\n      pop\n        /* \"#utility.yul\":4865:5190   */\n      swap3\n      swap2\n      pop\n      pop\n      jump\t// out\n        /* \"#utility.yul\":5196:5516   */\n    tag_75:\n        /* \"#utility.yul\":5311:5315   */\n      0x00\n        /* \"#utility.yul\":5349:5351   */\n      0x40\n        /* \"#utility.yul\":5338:5347   */\n      dup3\n        /* \"#utility.yul\":5334:5352   */\n      add\n        /* \"#utility.yul\":5326:5352   */\n      swap1\n      pop\n        /* \"#utility.yul\":5362:5433   */\n      tag_335\n        /* \"#utility.yul\":5430:5431   */\n      0x00\n        /* \"#utility.yul\":5419:5428   */\n      dup4\n        /* \"#utility.yul\":5415:5432   */\n      add\n        /* \"#utility.yul\":5406:5412   */\n      dup6\n        /* \"#utility.yul\":5362:5433   */\n      tag_238\n      jump\t// in\n    tag_335:\n        /* \"#utility.yul\":5443:5509   */\n      tag_336\n        /* \"#utility.yul\":5505:5507   */\n      0x20\n        /* \"#utility.yul\":5494:5503   */\n      dup4\n        /* \"#utility.yul\":5490:5508   */\n      add\n        /* \"#utility.yul\":5481:5487   */\n      dup5\n        /* \"#utility.yul\":5443:5509   */\n      tag_240\n      jump\t// in\n    tag_336:\n        /* \"#utility.yul\":5196:5516   */\n      swap4\n      swap3\n      pop\n      pop\n      pop\n      jump\t// out\n        /* \"#utility.yul\":5522:5744   */\n    tag_88:\n        /* \"#utility.yul\":5615:5619   */\n      0x00\n        /* \"#utility.yul\":5653:5655   */\n      0x20\n        /* \"#utility.yul\":5642:5651   */\n      dup3\n        /* \"#utility.yul\":5638:5656   */\n      add\n        /* \"#utility.yul\":5630:5656   */\n      swap1\n      pop\n        /* \"#utility.yul\":5666:5737   */\n      tag_338\n        /* \"#utility.yul\":5734:5735   */\n      0x00\n        /* \"#utility.yul\":5723:5732   */\n      dup4\n        /* \"#utility.yul\":5719:5736   */\n      add\n        /* \"#utility.yul\":5710:5716   */\n      dup5\n        /* \"#utility.yul\":5666:5737   */\n      tag_239\n      jump\t// in\n    tag_338:\n        /* \"#utility.yul\":5522:5744   */\n      swap3\n      swap2\n      pop\n      pop\n      jump\t// out\n        /* \"#utility.yul\":5750:6220   */\n    tag_101:\n        /* \"#utility.yul\":5816:5822   */\n      0x00\n        /* \"#utility.yul\":5824:5830   */\n      0x00\n        /* \"#utility.yul\":5873:5875   */\n      0x40\n        /* \"#utility.yul\":5861:5870   */\n      dup4\n        /* \"#utility.yul\":5852:5859   */\n      dup6\n        /* \"#utility.yul\":5848:5871   */\n      sub\n        /* \"#utility.yul\":5844:5876   */\n      slt\n        /* \"#utility.yul\":5841:5960   */\n      iszero\n      tag_340\n      jumpi\n        /* \"#utility.yul\":5879:5958   */\n      tag_341\n      tag_226\n      jump\t// in\n    tag_341:\n        /* \"#utility.yul\":5841:5960   */\n    tag_340:\n        /* \"#utility.yul\":5999:6000   */\n      0x00\n        /* \"#utility.yul\":6024:6075   */\n      tag_342\n        /* \"#utility.yul\":6067:6074   */\n      dup6\n        /* \"#utility.yul\":6058:6064   */\n      dup3\n        /* \"#utility.yul\":6047:6056   */\n      dup7\n        /* \"#utility.yul\":6043:6065   */\n      add\n        /* \"#utility.yul\":6024:6075   */\n      tag_243\n      jump\t// in\n    tag_342:\n        /* \"#utility.yul\":6014:6075   */\n      swap3\n      pop\n        /* \"#utility.yul\":5970:6085   */\n      pop\n        /* \"#utility.yul\":6124:6126   */\n      0x20\n        /* \"#utility.yul\":6150:6203   */\n      tag_343\n        /* \"#utility.yul\":6195:6202   */\n      dup6\n        /* \"#utility.yul\":6186:6192   */\n      dup3\n        /* \"#utility.yul\":6175:6184   */\n      dup7\n        /* \"#utility.yul\":6171:6193   */\n      add\n        /* \"#utility.yul\":6150:6203   */\n      tag_237\n      jump\t// in\n    tag_343:\n        /* \"#utility.yul\":6140:6203   */\n      swap2\n      pop\n        /* \"#utility.yul\":6095:6213   */\n      pop\n        /* \"#utility.yul\":5750:6220   */\n      swap3\n      pop\n      swap3\n      swap1\n      pop\n      jump\t// out\n        /* \"#utility.yul\":6226:6338   */\n    tag_244:\n        /* \"#utility.yul\":6309:6331   */\n      tag_345\n        /* \"#utility.yul\":6325:6330   */\n      dup2\n        /* \"#utility.yul\":6309:6331   */\n      tag_241\n      jump\t// in\n    tag_345:\n        /* \"#utility.yul\":6304:6307   */\n      dup3\n        /* \"#utility.yul\":6297:6332   */\n      mstore\n        /* \"#utility.yul\":6226:6338   */\n      pop\n      pop\n      jump\t// out\n        /* \"#utility.yul\":6344:6558   */\n    tag_111:\n        /* \"#utility.yul\":6433:6437   */\n      0x00\n        /* \"#utility.yul\":6471:6473   */\n      0x20\n        /* \"#utility.yul\":6460:6469   */\n      dup3\n        /* \"#utility.yul\":6456:6474   */\n      add\n        /* \"#utility.yul\":6448:6474   */\n      swap1\n      pop\n        /* \"#utility.yul\":6484:6551   */\n      tag_347\n        /* \"#utility.yul\":6548:6549   */\n      0x00\n        /* \"#utility.yul\":6537:6546   */\n      dup4\n        /* \"#utility.yul\":6533:6550   */\n      add\n        /* \"#utility.yul\":6524:6530   */\n      dup5\n        /* \"#utility.yul\":6484:6551   */\n      tag_244\n      jump\t// in\n    tag_347:\n        /* \"#utility.yul\":6344:6558   */\n      swap3\n      swap2\n      pop\n      pop\n      jump\t// out\n        /* \"#utility.yul\":6564:6668   */\n    tag_245:\n        /* \"#utility.yul\":6609:6616   */\n      0x00\n        /* \"#utility.yul\":6638:6662   */\n      tag_349\n        /* \"#utility.yul\":6656:6661   */\n      dup3\n        /* \"#utility.yul\":6638:6662   */\n      tag_231\n      jump\t// in\n    tag_349:\n        /* \"#utility.yul\":6627:6662   */\n      swap1\n      pop\n        /* \"#utility.yul\":6564:6668   */\n      swap2\n      swap1\n      pop\n      jump\t// out\n        /* \"#utility.yul\":6674:6812   */\n    tag_246:\n        /* \"#utility.yul\":6755:6787   */\n      tag_351\n        /* \"#utility.yul\":6781:6786   */\n      dup2\n        /* \"#utility.yul\":6755:6787   */\n      tag_245\n      jump\t// in\n    tag_351:\n        /* \"#utility.yul\":6748:6753   */\n      dup2\n        /* \"#utility.yul\":6745:6788   */\n      eq\n        /* \"#utility.yul\":6735:6806   */\n      tag_352\n      jumpi\n        /* \"#utility.yul\":6802:6803   */\n      0x00\n        /* \"#utility.yul\":6799:6800   */\n      0x00\n        /* \"#utility.yul\":6792:6804   */\n      revert\n        /* \"#utility.yul\":6735:6806   */\n    tag_352:\n        /* \"#utility.yul\":6674:6812   */\n      pop\n      jump\t// out\n        /* \"#utility.yul\":6818:6973   */\n    tag_247:\n        /* \"#utility.yul\":6872:6877   */\n      0x00\n        /* \"#utility.yul\":6910:6916   */\n      dup2\n        /* \"#utility.yul\":6897:6917   */\n      calldataload\n        /* \"#utility.yul\":6888:6917   */\n      swap1\n      pop\n        /* \"#utility.yul\":6926:6967   */\n      tag_354\n        /* \"#utility.yul\":6961:6966   */\n      dup2\n        /* \"#utility.yul\":6926:6967   */\n      tag_246\n      jump\t// in\n    tag_354:\n        /* \"#utility.yul\":6818:6973   */\n      swap3\n      swap2\n      pop\n      pop\n      jump\t// out\n        /* \"#utility.yul\":6979:7324   */\n    tag_126:\n        /* \"#utility.yul\":7046:7052   */\n      0x00\n        /* \"#utility.yul\":7095:7097   */\n      0x20\n        /* \"#utility.yul\":7083:7092   */\n      dup3\n        /* \"#utility.yul\":7074:7081   */\n      dup5\n        /* \"#utility.yul\":7070:7093   */\n      sub\n        /* \"#utility.yul\":7066:7098   */\n      slt\n        /* \"#utility.yul\":7063:7182   */\n      iszero\n      tag_356\n      jumpi\n        /* \"#utility.yul\":7101:7180   */\n      tag_357\n      tag_226\n      jump\t// in\n    tag_357:\n        /* \"#utility.yul\":7063:7182   */\n    tag_356:\n        /* \"#utility.yul\":7221:7222   */\n      0x00\n        /* \"#utility.yul\":7246:7307   */\n      tag_358\n        /* \"#utility.yul\":7299:7306   */\n      dup5\n        /* \"#utility.yul\":7290:7296   */\n      dup3\n        /* \"#utility.yul\":7279:7288   */\n      dup6\n        /* \"#utility.yul\":7275:7297   */\n      add\n        /* \"#utility.yul\":7246:7307   */\n      tag_247\n      jump\t// in\n    tag_358:\n        /* \"#utility.yul\":7236:7307   */\n      swap2\n      pop\n        /* \"#utility.yul\":7192:7317   */\n      pop\n        /* \"#utility.yul\":6979:7324   */\n      swap3\n      swap2\n      pop\n      pop\n      jump\t// out\n        /* \"#utility.yul\":7330:7499   */\n    tag_248:\n        /* \"#utility.yul\":7414:7425   */\n      0x00\n        /* \"#utility.yul\":7448:7454   */\n      dup3\n        /* \"#utility.yul\":7443:7446   */\n      dup3\n        /* \"#utility.yul\":7436:7455   */\n      mstore\n        /* \"#utility.yul\":7488:7492   */\n      0x20\n        /* \"#utility.yul\":7483:7486   */\n      dup3\n        /* \"#utility.yul\":7479:7493   */\n      add\n        /* \"#utility.yul\":7464:7493   */\n      swap1\n      pop\n        /* \"#utility.yul\":7330:7499   */\n      swap3\n      swap2\n      pop\n      pop\n      jump\t// out\n        /* \"#utility.yul\":7505:7670   */\n    tag_249:\n        /* \"#utility.yul\":7645:7662   */\n      0x436f6e7472616374205061757365640000000000000000000000000000000000\n        /* \"#utility.yul\":7641:7642   */\n      0x00\n        /* \"#utility.yul\":7633:7639   */\n      dup3\n        /* \"#utility.yul\":7629:7643   */\n      add\n        /* \"#utility.yul\":7622:7663   */\n      mstore\n        /* \"#utility.yul\":7505:7670   */\n      pop\n      jump\t// out\n        /* \"#utility.yul\":7676:8042   */\n    tag_250:\n        /* \"#utility.yul\":7818:7821   */\n      0x00\n        /* \"#utility.yul\":7839:7906   */\n      tag_362\n        /* \"#utility.yul\":7903:7905   */\n      0x0f\n        /* \"#utility.yul\":7898:7901   */\n      dup4\n        /* \"#utility.yul\":7839:7906   */\n      tag_248\n      jump\t// in\n    tag_362:\n        /* \"#utility.yul\":7832:7906   */\n      swap2\n      pop\n        /* \"#utility.yul\":7915:8008   */\n      tag_363\n        /* \"#utility.yul\":8004:8007   */\n      dup3\n        /* \"#utility.yul\":7915:8008   */\n      tag_249\n      jump\t// in\n    tag_363:\n        /* \"#utility.yul\":8033:8035   */\n      0x20\n        /* \"#utility.yul\":8028:8031   */\n      dup3\n        /* \"#utility.yul\":8024:8036   */\n      add\n        /* \"#utility.yul\":8017:8036   */\n      swap1\n      pop\n        /* \"#utility.yul\":7676:8042   */\n      swap2\n      swap1\n      pop\n      jump\t// out\n        /* \"#utility.yul\":8048:8467   */\n    tag_136:\n        /* \"#utility.yul\":8214:8218   */\n      0x00\n        /* \"#utility.yul\":8252:8254   */\n      0x20\n        /* \"#utility.yul\":8241:8250   */\n      dup3\n        /* \"#utility.yul\":8237:8255   */\n      add\n        /* \"#utility.yul\":8229:8255   */\n      swap1\n      pop\n        /* \"#utility.yul\":8301:8310   */\n      dup2\n        /* \"#utility.yul\":8295:8299   */\n      dup2\n        /* \"#utility.yul\":8291:8311   */\n      sub\n        /* \"#utility.yul\":8287:8288   */\n      0x00\n        /* \"#utility.yul\":8276:8285   */\n      dup4\n        /* \"#utility.yul\":8272:8289   */\n      add\n        /* \"#utility.yul\":8265:8312   */\n      mstore\n        /* \"#utility.yul\":8329:8460   */\n      tag_365\n        /* \"#utility.yul\":8455:8459   */\n      dup2\n        /* \"#utility.yul\":8329:8460   */\n      tag_250\n      jump\t// in\n    tag_365:\n        /* \"#utility.yul\":8321:8460   */\n      swap1\n      pop\n        /* \"#utility.yul\":8048:8467   */\n      swap2\n      swap1\n      pop\n      jump\t// out\n        /* \"#utility.yul\":8473:8645   */\n    tag_251:\n        /* \"#utility.yul\":8613:8637   */\n      0x4e6f205265656e7472616e63792c706c73207761697400000000000000000000\n        /* \"#utility.yul\":8609:8610   */\n      0x00\n        /* \"#utility.yul\":8601:8607   */\n      dup3\n        /* \"#utility.yul\":8597:8611   */\n      add\n        /* \"#utility.yul\":8590:8638   */\n      mstore\n        /* \"#utility.yul\":8473:8645   */\n      pop\n      jump\t// out\n        /* \"#utility.yul\":8651:9017   */\n    tag_252:\n        /* \"#utility.yul\":8793:8796   */\n      0x00\n        /* \"#utility.yul\":8814:8881   */\n      tag_368\n        /* \"#utility.yul\":8878:8880   */\n      0x16\n        /* \"#utility.yul\":8873:8876   */\n      dup4\n        /* \"#utility.yul\":8814:8881   */\n      tag_248\n      jump\t// in\n    tag_368:\n        /* \"#utility.yul\":8807:8881   */\n      swap2\n      pop\n        /* \"#utility.yul\":8890:8983   */\n      tag_369\n        /* \"#utility.yul\":8979:8982   */\n      dup3\n        /* \"#utility.yul\":8890:8983   */\n      tag_251\n      jump\t// in\n    tag_369:\n        /* \"#utility.yul\":9008:9010   */\n      0x20\n        /* \"#utility.yul\":9003:9006   */\n      dup3\n        /* \"#utility.yul\":8999:9011   */\n      add\n        /* \"#utility.yul\":8992:9011   */\n      swap1\n      pop\n        /* \"#utility.yul\":8651:9017   */\n      swap2\n      swap1\n      pop\n      jump\t// out\n        /* \"#utility.yul\":9023:9442   */\n    tag_140:\n        /* \"#utility.yul\":9189:9193   */\n      0x00\n        /* \"#utility.yul\":9227:9229   */\n      0x20\n        /* \"#utility.yul\":9216:9225   */\n      dup3\n        /* \"#utility.yul\":9212:9230   */\n      add\n        /* \"#utility.yul\":9204:9230   */\n      swap1\n      pop\n        /* \"#utility.yul\":9276:9285   */\n      dup2\n        /* \"#utility.yul\":9270:9274   */\n      dup2\n        /* \"#utility.yul\":9266:9286   */\n      sub\n        /* \"#utility.yul\":9262:9263   */\n      0x00\n        /* \"#utility.yul\":9251:9260   */\n      dup4\n        /* \"#utility.yul\":9247:9264   */\n      add\n        /* \"#utility.yul\":9240:9287   */\n      mstore\n        /* \"#utility.yul\":9304:9435   */\n      tag_371\n        /* \"#utility.yul\":9430:9434   */\n      dup2\n        /* \"#utility.yul\":9304:9435   */\n      tag_252\n      jump\t// in\n    tag_371:\n        /* \"#utility.yul\":9296:9435   */\n      swap1\n      pop\n        /* \"#utility.yul\":9023:9442   */\n      swap2\n      swap1\n      pop\n      jump\t// out\n        /* \"#utility.yul\":9448:9622   */\n    tag_253:\n        /* \"#utility.yul\":9588:9614   */\n      0x53656e64206d6f726520424e4220746f20627579205450540000000000000000\n        /* \"#utility.yul\":9584:9585   */\n      0x00\n        /* \"#utility.yul\":9576:9582   */\n      dup3\n        /* \"#utility.yul\":9572:9586   */\n      add\n        /* \"#utility.yul\":9565:9615   */\n      mstore\n        /* \"#utility.yul\":9448:9622   */\n      pop\n      jump\t// out\n        /* \"#utility.yul\":9628:9994   */\n    tag_254:\n        /* \"#utility.yul\":9770:9773   */\n      0x00\n        /* \"#utility.yul\":9791:9858   */\n      tag_374\n        /* \"#utility.yul\":9855:9857   */\n      0x18\n        /* \"#utility.yul\":9850:9853   */\n      dup4\n        /* \"#utility.yul\":9791:9858   */\n      tag_248\n      jump\t// in\n    tag_374:\n        /* \"#utility.yul\":9784:9858   */\n      swap2\n      pop\n        /* \"#utility.yul\":9867:9960   */\n      tag_375\n        /* \"#utility.yul\":9956:9959   */\n      dup3\n        /* \"#utility.yul\":9867:9960   */\n      tag_253\n      jump\t// in\n    tag_375:\n        /* \"#utility.yul\":9985:9987   */\n      0x20\n        /* \"#utility.yul\":9980:9983   */\n      dup3\n        /* \"#utility.yul\":9976:9988   */\n      add\n        /* \"#utility.yul\":9969:9988   */\n      swap1\n      pop\n        /* \"#utility.yul\":9628:9994   */\n      swap2\n      swap1\n      pop\n      jump\t// out\n        /* \"#utility.yul\":10000:10419   */\n    tag_144:\n        /* \"#utility.yul\":10166:10170   */\n      0x00\n        /* \"#utility.yul\":10204:10206   */\n      0x20\n        /* \"#utility.yul\":10193:10202   */\n      dup3\n        /* \"#utility.yul\":10189:10207   */\n      add\n        /* \"#utility.yul\":10181:10207   */\n      swap1\n      pop\n        /* \"#utility.yul\":10253:10262   */\n      dup2\n        /* \"#utility.yul\":10247:10251   */\n      dup2\n        /* \"#utility.yul\":10243:10263   */\n      sub\n        /* \"#utility.yul\":10239:10240   */\n      0x00\n        /* \"#utility.yul\":10228:10237   */\n      dup4\n        /* \"#utility.yul\":10224:10241   */\n      add\n        /* \"#utility.yul\":10217:10264   */\n      mstore\n        /* \"#utility.yul\":10281:10412   */\n      tag_377\n        /* \"#utility.yul\":10407:10411   */\n      dup2\n        /* \"#utility.yul\":10281:10412   */\n      tag_254\n      jump\t// in\n    tag_377:\n        /* \"#utility.yul\":10273:10412   */\n      swap1\n      pop\n        /* \"#utility.yul\":10000:10419   */\n      swap2\n      swap1\n      pop\n      jump\t// out\n        /* \"#utility.yul\":10425:10594   */\n    tag_255:\n        /* \"#utility.yul\":10565:10586   */\n      0x496e76616c69642064617461206c656e67746800000000000000000000000000\n        /* \"#utility.yul\":10561:10562   */\n      0x00\n        /* \"#utility.yul\":10553:10559   */\n      dup3\n        /* \"#utility.yul\":10549:10563   */\n      add\n        /* \"#utility.yul\":10542:10587   */\n      mstore\n        /* \"#utility.yul\":10425:10594   */\n      pop\n      jump\t// out\n        /* \"#utility.yul\":10600:10966   */\n    tag_256:\n        /* \"#utility.yul\":10742:10745   */\n      0x00\n        /* \"#utility.yul\":10763:10830   */\n      tag_380\n        /* \"#utility.yul\":10827:10829   */\n      0x13\n        /* \"#utility.yul\":10822:10825   */\n      dup4\n        /* \"#utility.yul\":10763:10830   */\n      tag_248\n      jump\t// in\n    tag_380:\n        /* \"#utility.yul\":10756:10830   */\n      swap2\n      pop\n        /* \"#utility.yul\":10839:10932   */\n      tag_381\n        /* \"#utility.yul\":10928:10931   */\n      dup3\n        /* \"#utility.yul\":10839:10932   */\n      tag_255\n      jump\t// in\n    tag_381:\n        /* \"#utility.yul\":10957:10959   */\n      0x20\n        /* \"#utility.yul\":10952:10955   */\n      dup3\n        /* \"#utility.yul\":10948:10960   */\n      add\n        /* \"#utility.yul\":10941:10960   */\n      swap1\n      pop\n        /* \"#utility.yul\":10600:10966   */\n      swap2\n      swap1\n      pop\n      jump\t// out\n        /* \"#utility.yul\":10972:11391   */\n    tag_147:\n        /* \"#utility.yul\":11138:11142   */\n      0x00\n        /* \"#utility.yul\":11176:11178   */\n      0x20\n        /* \"#utility.yul\":11165:11174   */\n      dup3\n        /* \"#utility.yul\":11161:11179   */\n      add\n        /* \"#utility.yul\":11153:11179   */\n      swap1\n      pop\n        /* \"#utility.yul\":11225:11234   */\n      dup2\n        /* \"#utility.yul\":11219:11223   */\n      dup2\n        /* \"#utility.yul\":11215:11235   */\n      sub\n        /* \"#utility.yul\":11211:11212   */\n      0x00\n        /* \"#utility.yul\":11200:11209   */\n      dup4\n        /* \"#utility.yul\":11196:11213   */\n      add\n        /* \"#utility.yul\":11189:11236   */\n      mstore\n        /* \"#utility.yul\":11253:11384   */\n      tag_383\n        /* \"#utility.yul\":11379:11383   */\n      dup2\n        /* \"#utility.yul\":11253:11384   */\n      tag_256\n      jump\t// in\n    tag_383:\n        /* \"#utility.yul\":11245:11384   */\n      swap1\n      pop\n        /* \"#utility.yul\":10972:11391   */\n      swap2\n      swap1\n      pop\n      jump\t// out\n        /* \"#utility.yul\":11397:11577   */\n    tag_257:\n        /* \"#utility.yul\":11445:11522   */\n      0x4e487b7100000000000000000000000000000000000000000000000000000000\n        /* \"#utility.yul\":11442:11443   */\n      0x00\n        /* \"#utility.yul\":11435:11523   */\n      mstore\n        /* \"#utility.yul\":11542:11546   */\n      0x11\n        /* \"#utility.yul\":11539:11540   */\n      0x04\n        /* \"#utility.yul\":11532:11547   */\n      mstore\n        /* \"#utility.yul\":11566:11570   */\n      0x24\n        /* \"#utility.yul\":11563:11564   */\n      0x00\n        /* \"#utility.yul\":11556:11571   */\n      revert\n        /* \"#utility.yul\":11583:11816   */\n    tag_151:\n        /* \"#utility.yul\":11622:11625   */\n      0x00\n        /* \"#utility.yul\":11645:11669   */\n      tag_386\n        /* \"#utility.yul\":11663:11668   */\n      dup3\n        /* \"#utility.yul\":11645:11669   */\n      tag_235\n      jump\t// in\n    tag_386:\n        /* \"#utility.yul\":11636:11669   */\n      swap2\n      pop\n        /* \"#utility.yul\":11691:11757   */\n      0xffffffffffffffffffffffffffffffffffffffffffffffffffffffffffffffff\n        /* \"#utility.yul\":11684:11689   */\n      dup3\n        /* \"#utility.yul\":11681:11758   */\n      sub\n        /* \"#utility.yul\":11678:11781   */\n      tag_387\n      jumpi\n        /* \"#utility.yul\":11761:11779   */\n      tag_388\n      tag_257\n      jump\t// in\n    tag_388:\n        /* \"#utility.yul\":11678:11781   */\n    tag_387:\n        /* \"#utility.yul\":11808:11809   */\n      0x01\n        /* \"#utility.yul\":11801:11806   */\n      dup3\n        /* \"#utility.yul\":11797:11810   */\n      add\n        /* \"#utility.yul\":11790:11810   */\n      swap1\n      pop\n        /* \"#utility.yul\":11583:11816   */\n      swap2\n      swap1\n      pop\n      jump\t// out\n        /* \"#utility.yul\":11822:12002   */\n    tag_157:\n        /* \"#utility.yul\":11870:11947   */\n      0x4e487b7100000000000000000000000000000000000000000000000000000000\n        /* \"#utility.yul\":11867:11868   */\n      0x00\n        /* \"#utility.yul\":11860:11948   */\n      mstore\n        /* \"#utility.yul\":11967:11971   */\n      0x32\n        /* \"#utility.yul\":11964:11965   */\n      0x04\n        /* \"#utility.yul\":11957:11972   */\n      mstore\n        /* \"#utility.yul\":11991:11995   */\n      0x24\n        /* \"#utility.yul\":11988:11989   */\n      0x00\n        /* \"#utility.yul\":11981:11996   */\n      revert\n        /* \"#utility.yul\":12008:12151   */\n    tag_258:\n        /* \"#utility.yul\":12065:12070   */\n      0x00\n        /* \"#utility.yul\":12096:12102   */\n      dup2\n        /* \"#utility.yul\":12090:12103   */\n      mload\n        /* \"#utility.yul\":12081:12103   */\n      swap1\n      pop\n        /* \"#utility.yul\":12112:12145   */\n      tag_391\n        /* \"#utility.yul\":12139:12144   */\n      dup2\n        /* \"#utility.yul\":12112:12145   */\n      tag_236\n      jump\t// in\n    tag_391:\n        /* \"#utility.yul\":12008:12151   */\n      swap3\n      swap2\n      pop\n      pop\n      jump\t// out\n        /* \"#utility.yul\":12157:12294   */\n    tag_259:\n        /* \"#utility.yul\":12211:12216   */\n      0x00\n        /* \"#utility.yul\":12242:12248   */\n      dup2\n        /* \"#utility.yul\":12236:12249   */\n      mload\n        /* \"#utility.yul\":12227:12249   */\n      swap1\n      pop\n        /* \"#utility.yul\":12258:12288   */\n      tag_393\n        /* \"#utility.yul\":12282:12287   */\n      dup2\n        /* \"#utility.yul\":12258:12288   */\n      tag_229\n      jump\t// in\n    tag_393:\n        /* \"#utility.yul\":12157:12294   */\n      swap3\n      swap2\n      pop\n      pop\n      jump\t// out\n        /* \"#utility.yul\":12300:12801   */\n    tag_165:\n        /* \"#utility.yul\":12376:12382   */\n      0x00\n        /* \"#utility.yul\":12384:12390   */\n      0x00\n        /* \"#utility.yul\":12433:12435   */\n      0x40\n        /* \"#utility.yul\":12421:12430   */\n      dup4\n        /* \"#utility.yul\":12412:12419   */\n      dup6\n        /* \"#utility.yul\":12408:12431   */\n      sub\n        /* \"#utility.yul\":12404:12436   */\n      slt\n        /* \"#utility.yul\":12401:12520   */\n      iszero\n      tag_395\n      jumpi\n        /* \"#utility.yul\":12439:12518   */\n      tag_396\n      tag_226\n      jump\t// in\n    tag_396:\n        /* \"#utility.yul\":12401:12520   */\n    tag_395:\n        /* \"#utility.yul\":12559:12560   */\n      0x00\n        /* \"#utility.yul\":12584:12648   */\n      tag_397\n        /* \"#utility.yul\":12640:12647   */\n      dup6\n        /* \"#utility.yul\":12631:12637   */\n      dup3\n        /* \"#utility.yul\":12620:12629   */\n      dup7\n        /* \"#utility.yul\":12616:12638   */\n      add\n        /* \"#utility.yul\":12584:12648   */\n      tag_258\n      jump\t// in\n    tag_397:\n        /* \"#utility.yul\":12574:12648   */\n      swap3\n      pop\n        /* \"#utility.yul\":12530:12658   */\n      pop\n        /* \"#utility.yul\":12697:12699   */\n      0x20\n        /* \"#utility.yul\":12723:12784   */\n      tag_398\n        /* \"#utility.yul\":12776:12783   */\n      dup6\n        /* \"#utility.yul\":12767:12773   */\n      dup3\n        /* \"#utility.yul\":12756:12765   */\n      dup7\n        /* \"#utility.yul\":12752:12774   */\n      add\n        /* \"#utility.yul\":12723:12784   */\n      tag_259\n      jump\t// in\n    tag_398:\n        /* \"#utility.yul\":12713:12784   */\n      swap2\n      pop\n        /* \"#utility.yul\":12668:12794   */\n      pop\n        /* \"#utility.yul\":12300:12801   */\n      swap3\n      pop\n      swap3\n      swap1\n      pop\n      jump\t// out\n        /* \"#utility.yul\":12807:12967   */\n    tag_260:\n        /* \"#utility.yul\":12947:12959   */\n      0x4f6e6c79206f776e657200000000000000000000000000000000000000000000\n        /* \"#utility.yul\":12943:12944   */\n      0x00\n        /* \"#utility.yul\":12935:12941   */\n      dup3\n        /* \"#utility.yul\":12931:12945   */\n      add\n        /* \"#utility.yul\":12924:12960   */\n      mstore\n        /* \"#utility.yul\":12807:12967   */\n      pop\n      jump\t// out\n        /* \"#utility.yul\":12973:13339   */\n    tag_261:\n        /* \"#utility.yul\":13115:13118   */\n      0x00\n        /* \"#utility.yul\":13136:13203   */\n      tag_401\n        /* \"#utility.yul\":13200:13202   */\n      0x0a\n        /* \"#utility.yul\":13195:13198   */\n      dup4\n        /* \"#utility.yul\":13136:13203   */\n      tag_248\n      jump\t// in\n    tag_401:\n        /* \"#utility.yul\":13129:13203   */\n      swap2\n      pop\n        /* \"#utility.yul\":13212:13305   */\n      tag_402\n        /* \"#utility.yul\":13301:13304   */\n      dup3\n        /* \"#utility.yul\":13212:13305   */\n      tag_260\n      jump\t// in\n    tag_402:\n        /* \"#utility.yul\":13330:13332   */\n      0x20\n        /* \"#utility.yul\":13325:13328   */\n      dup3\n        /* \"#utility.yul\":13321:13333   */\n      add\n        /* \"#utility.yul\":13314:13333   */\n      swap1\n      pop\n        /* \"#utility.yul\":12973:13339   */\n      swap2\n      swap1\n      pop\n      jump\t// out\n        /* \"#utility.yul\":13345:13764   */\n    tag_170:\n        /* \"#utility.yul\":13511:13515   */\n      0x00\n        /* \"#utility.yul\":13549:13551   */\n      0x20\n        /* \"#utility.yul\":13538:13547   */\n      dup3\n        /* \"#utility.yul\":13534:13552   */\n      add\n        /* \"#utility.yul\":13526:13552   */\n      swap1\n      pop\n        /* \"#utility.yul\":13598:13607   */\n      dup2\n        /* \"#utility.yul\":13592:13596   */\n      dup2\n        /* \"#utility.yul\":13588:13608   */\n      sub\n        /* \"#utility.yul\":13584:13585   */\n      0x00\n        /* \"#utility.yul\":13573:13582   */\n      dup4\n        /* \"#utility.yul\":13569:13586   */\n      add\n        /* \"#utility.yul\":13562:13609   */\n      mstore\n        /* \"#utility.yul\":13626:13757   */\n      tag_404\n        /* \"#utility.yul\":13752:13756   */\n      dup2\n        /* \"#utility.yul\":13626:13757   */\n      tag_261\n      jump\t// in\n    tag_404:\n        /* \"#utility.yul\":13618:13757   */\n      swap1\n      pop\n        /* \"#utility.yul\":13345:13764   */\n      swap2\n      swap1\n      pop\n      jump\t// out\n        /* \"#utility.yul\":13770:13950   */\n    tag_262:\n        /* \"#utility.yul\":13818:13895   */\n      0x4e487b7100000000000000000000000000000000000000000000000000000000\n        /* \"#utility.yul\":13815:13816   */\n      0x00\n        /* \"#utility.yul\":13808:13896   */\n      mstore\n        /* \"#utility.yul\":13915:13919   */\n      0x12\n        /* \"#utility.yul\":13912:13913   */\n      0x04\n        /* \"#utility.yul\":13905:13920   */\n      mstore\n        /* \"#utility.yul\":13939:13943   */\n      0x24\n        /* \"#utility.yul\":13936:13937   */\n      0x00\n        /* \"#utility.yul\":13929:13944   */\n      revert\n        /* \"#utility.yul\":13956:14141   */\n    tag_185:\n        /* \"#utility.yul\":13996:13997   */\n      0x00\n        /* \"#utility.yul\":14013:14033   */\n      tag_407\n        /* \"#utility.yul\":14031:14032   */\n      dup3\n        /* \"#utility.yul\":14013:14033   */\n      tag_235\n      jump\t// in\n    tag_407:\n        /* \"#utility.yul\":14008:14033   */\n      swap2\n      pop\n        /* \"#utility.yul\":14047:14067   */\n      tag_408\n        /* \"#utility.yul\":14065:14066   */\n      dup4\n        /* \"#utility.yul\":14047:14067   */\n      tag_235\n      jump\t// in\n    tag_408:\n        /* \"#utility.yul\":14042:14067   */\n      swap3\n      pop\n        /* \"#utility.yul\":14086:14087   */\n      dup3\n        /* \"#utility.yul\":14076:14111   */\n      tag_409\n      jumpi\n        /* \"#utility.yul\":14091:14109   */\n      tag_410\n      tag_262\n      jump\t// in\n    tag_410:\n        /* \"#utility.yul\":14076:14111   */\n    tag_409:\n        /* \"#utility.yul\":14133:14134   */\n      dup3\n        /* \"#utility.yul\":14130:14131   */\n      dup3\n        /* \"#utility.yul\":14126:14135   */\n      div\n        /* \"#utility.yul\":14121:14135   */\n      swap1\n      pop\n        /* \"#utility.yul\":13956:14141   */\n      swap3\n      swap2\n      pop\n      pop\n      jump\t// out\n        /* \"#utility.yul\":14147:14557   */\n    tag_191:\n        /* \"#utility.yul\":14187:14194   */\n      0x00\n        /* \"#utility.yul\":14210:14230   */\n      tag_412\n        /* \"#utility.yul\":14228:14229   */\n      dup3\n        /* \"#utility.yul\":14210:14230   */\n      tag_235\n      jump\t// in\n    tag_412:\n        /* \"#utility.yul\":14205:14230   */\n      swap2\n      pop\n        /* \"#utility.yul\":14244:14264   */\n      tag_413\n        /* \"#utility.yul\":14262:14263   */\n      dup4\n        /* \"#utility.yul\":14244:14264   */\n      tag_235\n      jump\t// in\n    tag_413:\n        /* \"#utility.yul\":14239:14264   */\n      swap3\n      pop\n        /* \"#utility.yul\":14299:14300   */\n      dup3\n        /* \"#utility.yul\":14296:14297   */\n      dup3\n        /* \"#utility.yul\":14292:14301   */\n      mul\n        /* \"#utility.yul\":14321:14351   */\n      tag_414\n        /* \"#utility.yul\":14339:14350   */\n      dup2\n        /* \"#utility.yul\":14321:14351   */\n      tag_235\n      jump\t// in\n    tag_414:\n        /* \"#utility.yul\":14310:14351   */\n      swap2\n      pop\n        /* \"#utility.yul\":14500:14501   */\n      dup3\n        /* \"#utility.yul\":14491:14498   */\n      dup3\n        /* \"#utility.yul\":14487:14502   */\n      div\n        /* \"#utility.yul\":14484:14485   */\n      dup5\n        /* \"#utility.yul\":14481:14503   */\n      eq\n        /* \"#utility.yul\":14461:14462   */\n      dup4\n        /* \"#utility.yul\":14454:14463   */\n      iszero\n        /* \"#utility.yul\":14434:14517   */\n      or\n        /* \"#utility.yul\":14411:14550   */\n      tag_415\n      jumpi\n        /* \"#utility.yul\":14530:14548   */\n      tag_416\n      tag_257\n      jump\t// in\n    tag_416:\n        /* \"#utility.yul\":14411:14550   */\n    tag_415:\n        /* \"#utility.yul\":14195:14557   */\n      pop\n        /* \"#utility.yul\":14147:14557   */\n      swap3\n      swap2\n      pop\n      pop\n      jump\t// out\n        /* \"#utility.yul\":14563:14728   */\n    tag_263:\n        /* \"#utility.yul\":14703:14720   */\n      0x496e76616c696420757365722049440000000000000000000000000000000000\n        /* \"#utility.yul\":14699:14700   */\n      0x00\n        /* \"#utility.yul\":14691:14697   */\n      dup3\n        /* \"#utility.yul\":14687:14701   */\n      add\n        /* \"#utility.yul\":14680:14721   */\n      mstore\n        /* \"#utility.yul\":14563:14728   */\n      pop\n      jump\t// out\n        /* \"#utility.yul\":14734:15100   */\n    tag_264:\n        /* \"#utility.yul\":14876:14879   */\n      0x00\n        /* \"#utility.yul\":14897:14964   */\n      tag_419\n        /* \"#utility.yul\":14961:14963   */\n      0x0f\n        /* \"#utility.yul\":14956:14959   */\n      dup4\n        /* \"#utility.yul\":14897:14964   */\n      tag_248\n      jump\t// in\n    tag_419:\n        /* \"#utility.yul\":14890:14964   */\n      swap2\n      pop\n        /* \"#utility.yul\":14973:15066   */\n      tag_420\n        /* \"#utility.yul\":15062:15065   */\n      dup3\n        /* \"#utility.yul\":14973:15066   */\n      tag_263\n      jump\t// in\n    tag_420:\n        /* \"#utility.yul\":15091:15093   */\n      0x20\n        /* \"#utility.yul\":15086:15089   */\n      dup3\n        /* \"#utility.yul\":15082:15094   */\n      add\n        /* \"#utility.yul\":15075:15094   */\n      swap1\n      pop\n        /* \"#utility.yul\":14734:15100   */\n      swap2\n      swap1\n      pop\n      jump\t// out\n        /* \"#utility.yul\":15106:15525   */\n    tag_198:\n        /* \"#utility.yul\":15272:15276   */\n      0x00\n        /* \"#utility.yul\":15310:15312   */\n      0x20\n        /* \"#utility.yul\":15299:15308   */\n      dup3\n        /* \"#utility.yul\":15295:15313   */\n      add\n        /* \"#utility.yul\":15287:15313   */\n      swap1\n      pop\n        /* \"#utility.yul\":15359:15368   */\n      dup2\n        /* \"#utility.yul\":15353:15357   */\n      dup2\n        /* \"#utility.yul\":15349:15369   */\n      sub\n        /* \"#utility.yul\":15345:15346   */\n      0x00\n        /* \"#utility.yul\":15334:15343   */\n      dup4\n        /* \"#utility.yul\":15330:15347   */\n      add\n        /* \"#utility.yul\":15323:15370   */\n      mstore\n        /* \"#utility.yul\":15387:15518   */\n      tag_422\n        /* \"#utility.yul\":15513:15517   */\n      dup2\n        /* \"#utility.yul\":15387:15518   */\n      tag_264\n      jump\t// in\n    tag_422:\n        /* \"#utility.yul\":15379:15518   */\n      swap1\n      pop\n        /* \"#utility.yul\":15106:15525   */\n      swap2\n      swap1\n      pop\n      jump\t// out\n        /* \"#utility.yul\":15531:15722   */\n    tag_200:\n        /* \"#utility.yul\":15571:15574   */\n      0x00\n        /* \"#utility.yul\":15590:15610   */\n      tag_424\n        /* \"#utility.yul\":15608:15609   */\n      dup3\n        /* \"#utility.yul\":15590:15610   */\n      tag_235\n      jump\t// in\n    tag_424:\n        /* \"#utility.yul\":15585:15610   */\n      swap2\n      pop\n        /* \"#utility.yul\":15624:15644   */\n      tag_425\n        /* \"#utility.yul\":15642:15643   */\n      dup4\n        /* \"#utility.yul\":15624:15644   */\n      tag_235\n      jump\t// in\n    tag_425:\n        /* \"#utility.yul\":15619:15644   */\n      swap3\n      pop\n        /* \"#utility.yul\":15667:15668   */\n      dup3\n        /* \"#utility.yul\":15664:15665   */\n      dup3\n        /* \"#utility.yul\":15660:15669   */\n      add\n        /* \"#utility.yul\":15653:15669   */\n      swap1\n      pop\n        /* \"#utility.yul\":15688:15691   */\n      dup1\n        /* \"#utility.yul\":15685:15686   */\n      dup3\n        /* \"#utility.yul\":15682:15692   */\n      gt\n        /* \"#utility.yul\":15679:15715   */\n      iszero\n      tag_426\n      jumpi\n        /* \"#utility.yul\":15695:15713   */\n      tag_427\n      tag_257\n      jump\t// in\n    tag_427:\n        /* \"#utility.yul\":15679:15715   */\n    tag_426:\n        /* \"#utility.yul\":15531:15722   */\n      swap3\n      swap2\n      pop\n      pop\n      jump\t// out\n        /* \"#utility.yul\":15728:15893   */\n    tag_265:\n        /* \"#utility.yul\":15868:15885   */\n      0x496e76616c696420616464726573730000000000000000000000000000000000\n        /* \"#utility.yul\":15864:15865   */\n      0x00\n        /* \"#utility.yul\":15856:15862   */\n      dup3\n        /* \"#utility.yul\":15852:15866   */\n      add\n        /* \"#utility.yul\":15845:15886   */\n      mstore\n        /* \"#utility.yul\":15728:15893   */\n      pop\n      jump\t// out\n        /* \"#utility.yul\":15899:16265   */\n    tag_266:\n        /* \"#utility.yul\":16041:16044   */\n      0x00\n        /* \"#utility.yul\":16062:16129   */\n      tag_430\n        /* \"#utility.yul\":16126:16128   */\n      0x0f\n        /* \"#utility.yul\":16121:16124   */\n      dup4\n        /* \"#utility.yul\":16062:16129   */\n      tag_248\n      jump\t// in\n    tag_430:\n        /* \"#utility.yul\":16055:16129   */\n      swap2\n      pop\n        /* \"#utility.yul\":16138:16231   */\n      tag_431\n        /* \"#utility.yul\":16227:16230   */\n      dup3\n        /* \"#utility.yul\":16138:16231   */\n      tag_265\n      jump\t// in\n    tag_431:\n        /* \"#utility.yul\":16256:16258   */\n      0x20\n        /* \"#utility.yul\":16251:16254   */\n      dup3\n        /* \"#utility.yul\":16247:16259   */\n      add\n        /* \"#utility.yul\":16240:16259   */\n      swap1\n      pop\n        /* \"#utility.yul\":15899:16265   */\n      swap2\n      swap1\n      pop\n      jump\t// out\n        /* \"#utility.yul\":16271:16690   */\n    tag_214:\n        /* \"#utility.yul\":16437:16441   */\n      0x00\n        /* \"#utility.yul\":16475:16477   */\n      0x20\n        /* \"#utility.yul\":16464:16473   */\n      dup3\n        /* \"#utility.yul\":16460:16478   */\n      add\n        /* \"#utility.yul\":16452:16478   */\n      swap1\n      pop\n        /* \"#utility.yul\":16524:16533   */\n      dup2\n        /* \"#utility.yul\":16518:16522   */\n      dup2\n        /* \"#utility.yul\":16514:16534   */\n      sub\n        /* \"#utility.yul\":16510:16511   */\n      0x00\n        /* \"#utility.yul\":16499:16508   */\n      dup4\n        /* \"#utility.yul\":16495:16512   */\n      add\n        /* \"#utility.yul\":16488:16535   */\n      mstore\n        /* \"#utility.yul\":16552:16683   */\n      tag_433\n        /* \"#utility.yul\":16678:16682   */\n      dup2\n        /* \"#utility.yul\":16552:16683   */\n      tag_266\n      jump\t// in\n    tag_433:\n        /* \"#utility.yul\":16544:16683   */\n      swap1\n      pop\n        /* \"#utility.yul\":16271:16690   */\n      swap2\n      swap1\n      pop\n      jump\t// out\n\n    auxdata: 0xa26469706673582212201b4dabe94c15f05a899f7958acb27643915d3af790ed5ac004ded2bf024ea98e64736f6c634300081e0033\n}\n",
				"bytecode": {
					"linkReferences": {},
					"object": "608060405234801561000f575f5ffd5b50604051611d84380380611d848339818101604052810190610031919061012e565b335f5f6101000a81548173ffffffffffffffffffffffffffffffffffffffff021916908373ffffffffffffffffffffffffffffffffffffffff1602179055505f5f60156101000a81548160ff021916908360ff1602179055508060025f6101000a81548173ffffffffffffffffffffffffffffffffffffffff021916908373ffffffffffffffffffffffffffffffffffffffff16021790555050610159565b5f5ffd5b5f73ffffffffffffffffffffffffffffffffffffffff82169050919050565b5f6100fd826100d4565b9050919050565b61010d816100f3565b8114610117575f5ffd5b50565b5f8151905061012881610104565b92915050565b5f60208284031215610143576101426100d0565b5b5f6101508482850161011a565b91505092915050565b611c1e806101665f395ff3fe608060405260043610610122575f3560e01c806390d976e21161009f578063bff1f9e111610063578063bff1f9e114610438578063ca90d6e614610462578063d221954b1461048a578063fa09e630146104a0578063fdbb6696146104c857610132565b806390d976e21461035257806395e557481461038e578063a2f5546e146103b6578063a52d981e146103de578063ae2430311461040e57610132565b8063556a7579116100e6578063556a75791461027b5780635b148f7b146102b7578063672cbe1a146102d65780637ce8a08e146103005780638da5cb5b1461032857610132565b80632a2a92cc1461014b5780632b956ff71461018957806331bbf555146101c5578063365b98b214610201578063376fe1021461023f57610132565b36610132576101305f610504565b005b6101495f3681019061014491906113bf565b610504565b005b348015610156575f5ffd5b50610171600480360381019061016c9190611477565b61087e565b604051610180939291906114c4565b60405180910390f35b348015610194575f5ffd5b506101af60048036038101906101aa91906114f9565b610953565b6040516101bc9190611524565b60405180910390f35b3480156101d0575f5ffd5b506101eb60048036038101906101e691906114f9565b610999565b6040516101f89190611524565b60405180910390f35b34801561020c575f5ffd5b506102276004803603810190610222919061153d565b6109f6565b60405161023693929190611586565b60405180910390f35b34801561024a575f5ffd5b50610265600480360381019061026091906114f9565b610a47565b6040516102729190611524565b60405180910390f35b348015610286575f5ffd5b506102a1600480360381019061029c91906115f1565b610a5c565b6040516102ae9190611524565b60405180910390f35b6102bf610a71565b6040516102cd92919061161c565b60405180910390f35b3480156102e1575f5ffd5b506102ea610b15565b6040516102f79190611524565b60405180910390f35b34801561030b575f5ffd5b50610326600480360381019061032191906115f1565b610b41565b005b348015610333575f5ffd5b5061033c610bec565b6040516103499190611643565b60405180910390f35b34801561035d575f5ffd5b506103786004803603810190610373919061153d565b610c10565b6040516103859190611643565b60405180910390f35b348015610399575f5ffd5b506103b460048036038101906103af91906114f9565b610c4b565b005b3480156103c1575f5ffd5b506103dc60048036038101906103d7919061165c565b610d1c565b005b6103f860048036038101906103f391906113bf565b610dca565b6040516104059190611524565b60405180910390f35b348015610419575f5ffd5b50610422610e73565b60405161042f91906116a9565b60405180910390f35b348015610443575f5ffd5b5061044c610e85565b6040516104599190611524565b60405180910390f35b34801561046d575f5ffd5b5061048860048036038101906104839190611477565b610e8b565b005b348015610495575f5ffd5b5061049e611003565b005b3480156104ab575f5ffd5b506104c660048036038101906104c191906116fd565b61110f565b005b3480156104d3575f5ffd5b506104ee60048036038101906104e991906114f9565b611252565b6040516104fb9190611524565b60405180910390f35b5f5f60159054906101000a900460ff1660ff1603610557576040517f08c379a000000000000000000000000000000000000000000000000000000000815260040161054e90611782565b60405180910390fd5b600115155f60149054906101000a900460ff161515036105ac576040517f08c379a00000000000000000000000000000000000000000000000000000000081526004016105a3906117ea565b60405180910390fd5b60015f60146101000a81548160ff02191690831515021790555066b1a2bc2ec50000341015610610576040517f08c379a000000000000000000000000000000000000000000000000000000000815260040161060790611852565b60405180910390fd5b60205f3690501015610657576040517f08c379a000000000000000000000000000000000000000000000000000000000815260040161064e906118ba565b60405180910390fd5b5f61066182610dca565b90505f60045f3373ffffffffffffffffffffffffffffffffffffffff1673ffffffffffffffffffffffffffffffffffffffff1681526020019081526020015f2054036108465760035f8154809291906106b990611905565b919050555060035460045f3373ffffffffffffffffffffffffffffffffffffffff1673ffffffffffffffffffffffffffffffffffffffff1681526020019081526020015f20819055505f60055f60035481526020019081526020015f20905033815f015f6101000a81548173ffffffffffffffffffffffffffffffffffffffff021916908373ffffffffffffffffffffffffffffffffffffffff1602179055505f81600101819055506001816002015f6101000a81548160ff0219169083151502179055508060055f60035481526020019081526020015f205f82015f9054906101000a900473ffffffffffffffffffffffffffffffffffffffff16815f015f6101000a81548173ffffffffffffffffffffffffffffffffffffffff021916908373ffffffffffffffffffffffffffffffffffffffff16021790555060018201548160010155600282015f9054906101000a900460ff16816002015f6101000a81548160ff02191690831515021790555060038201816003019080546108409291906112ac565b50905050505b8060055f60035481526020019081526020015f2060010181905550505f5f60146101000a81548160ff02191690831515021790555050565b5f5f5f5f60055f60045f8973ffffffffffffffffffffffffffffffffffffffff1673ffffffffffffffffffffffffffffffffffffffff1681526020019081526020015f205481526020019081526020015f2060030185815481106108e5576108e461194c565b5b905f5260205f2090600402016040518060800160405290815f82015481526020016001820154815260200160028201548152602001600382015f9054906101000a900460ff1660ff1660ff16815250509050805f015181602001518260400151935093509350509250925092565b5f60045f8373ffffffffffffffffffffffffffffffffffffffff1673ffffffffffffffffffffffffffffffffffffffff1681526020019081526020015f20549050919050565b5f60055f60045f8573ffffffffffffffffffffffffffffffffffffffff1673ffffffffffffffffffffffffffffffffffffffff1681526020019081526020015f205481526020019081526020015f20600301805490509050919050565b6005602052805f5260405f205f91509050805f015f9054906101000a900473ffffffffffffffffffffffffffffffffffffffff1690806001015490806002015f9054906101000a900460ff16905083565b6004602052805f5260405f205f915090505481565b6001602052805f5260405f205f915090505481565b5f5f60025f9054906101000a900473ffffffffffffffffffffffffffffffffffffffff1673ffffffffffffffffffffffffffffffffffffffff166321055acb655af3107a40006040518263ffffffff1660e01b8152600401604080518083038185885af1158015610ae4573d5f5f3e3d5ffd5b50505050506040513d601f19601f82011682018060405250810190610b0991906119a1565b80925081935050509091565b5f60015f5f60159054906101000a900460ff1660ff1660ff1681526020019081526020015f2054905090565b5f5f9054906101000a900473ffffffffffffffffffffffffffffffffffffffff1673ffffffffffffffffffffffffffffffffffffffff163373ffffffffffffffffffffffffffffffffffffffff1614610bcf576040517f08c379a0000000000000000000000000000000000000000000000000000000008152600401610bc690611a29565b60405180910390fd5b805f60156101000a81548160ff021916908360ff16021790555050565b5f5f9054906101000a900473ffffffffffffffffffffffffffffffffffffffff1681565b5f60055f8381526020019081526020015f205f015f9054906101000a900473ffffffffffffffffffffffffffffffffffffffff169050919050565b5f5f9054906101000a900473ffffffffffffffffffffffffffffffffffffffff1673ffffffffffffffffffffffffffffffffffffffff163373ffffffffffffffffffffffffffffffffffffffff1614610cd9576040517f08c379a0000000000000000000000000000000000000000000000000000000008152600401610cd090611a29565b60405180910390fd5b8060025f6101000a81548173ffffffffffffffffffffffffffffffffffffffff021916908373ffffffffffffffffffffffffffffffffffffffff16021790555050565b5f5f9054906101000a900473ffffffffffffffffffffffffffffffffffffffff1673ffffffffffffffffffffffffffffffffffffffff163373ffffffffffffffffffffffffffffffffffffffff1614610daa576040517f08c379a0000000000000000000000000000000000000000000000000000000008152600401610da190611a29565b60405180910390fd5b8060015f8460ff1660ff1681526020019081526020015f20819055505050565b5f5f610dd4610a71565b5090505f83610e1e5760015f5f60159054906101000a900460ff1660ff1660ff1681526020019081526020015f20548234610e0f9190611a74565b610e199190611a74565b610e67565b600260015f5f60159054906101000a900460ff1660ff1660ff1681526020019081526020015f20548334610e529190611a74565b610e5c9190611a74565b610e669190611aa4565b5b90508092505050919050565b5f60159054906101000a900460ff1681565b60035481565b5f5f9054906101000a900473ffffffffffffffffffffffffffffffffffffffff1673ffffffffffffffffffffffffffffffffffffffff163373ffffffffffffffffffffffffffffffffffffffff1614610f19576040517f08c379a0000000000000000000000000000000000000000000000000000000008152600401610f1090611a29565b60405180910390fd5b5f60045f8473ffffffffffffffffffffffffffffffffffffffff1673ffffffffffffffffffffffffffffffffffffffff1681526020019081526020015f205403610f98576040517f08c379a0000000000000000000000000000000000000000000000000000000008152600401610f8f90611b2f565b60405180910390fd5b8060055f60045f8673ffffffffffffffffffffffffffffffffffffffff1673ffffffffffffffffffffffffffffffffffffffff1681526020019081526020015f205481526020019081526020015f206001015f828254610ff89190611b4d565b925050819055505050565b5f5f9054906101000a900473ffffffffffffffffffffffffffffffffffffffff1673ffffffffffffffffffffffffffffffffffffffff163373ffffffffffffffffffffffffffffffffffffffff1614611091576040517f08c379a000000000000000000000000000000000000000000000000000000000815260040161108890611a29565b60405180910390fd5b60025f9054906101000a900473ffffffffffffffffffffffffffffffffffffffff1673ffffffffffffffffffffffffffffffffffffffff166365a6cc2e6040518163ffffffff1660e01b81526004015f604051808303815f87803b1580156110f7575f5ffd5b505af1158015611109573d5f5f3e3d5ffd5b50505050565b5f5f9054906101000a900473ffffffffffffffffffffffffffffffffffffffff1673ffffffffffffffffffffffffffffffffffffffff163373ffffffffffffffffffffffffffffffffffffffff161461119d576040517f08c379a000000000000000000000000000000000000000000000000000000000815260040161119490611a29565b60405180910390fd5b5f73ffffffffffffffffffffffffffffffffffffffff168173ffffffffffffffffffffffffffffffffffffffff160361120b576040517f08c379a000000000000000000000000000000000000000000000000000000000815260040161120290611bca565b60405180910390fd5b8073ffffffffffffffffffffffffffffffffffffffff166108fc4790811502906040515f60405180830381858888f1935050505015801561124e573d5f5f3e3d5ffd5b5050565b5f60055f60045f8573ffffffffffffffffffffffffffffffffffffffff1673ffffffffffffffffffffffffffffffffffffffff1681526020019081526020015f205481526020019081526020015f20600101549050919050565b828054828255905f5260205f20906004028101928215611337575f5260205f209160040282015b828111156113365782825f820154815f01556001820154816001015560028201548160020155600382015f9054906101000a900460ff16816003015f6101000a81548160ff021916908360ff1602179055505050916004019190600401906112d3565b5b5090506113449190611348565b5090565b5b80821115611382575f5f82015f9055600182015f9055600282015f9055600382015f6101000a81549060ff021916905550600401611349565b5090565b5f5ffd5b5f8115159050919050565b61139e8161138a565b81146113a8575f5ffd5b50565b5f813590506113b981611395565b92915050565b5f602082840312156113d4576113d3611386565b5b5f6113e1848285016113ab565b91505092915050565b5f73ffffffffffffffffffffffffffffffffffffffff82169050919050565b5f611413826113ea565b9050919050565b61142381611409565b811461142d575f5ffd5b50565b5f8135905061143e8161141a565b92915050565b5f819050919050565b61145681611444565b8114611460575f5ffd5b50565b5f813590506114718161144d565b92915050565b5f5f6040838503121561148d5761148c611386565b5b5f61149a85828601611430565b92505060206114ab85828601611463565b9150509250929050565b6114be81611444565b82525050565b5f6060820190506114d75f8301866114b5565b6114e460208301856114b5565b6114f160408301846114b5565b949350505050565b5f6020828403121561150e5761150d611386565b5b5f61151b84828501611430565b91505092915050565b5f6020820190506115375f8301846114b5565b92915050565b5f6020828403121561155257611551611386565b5b5f61155f84828501611463565b91505092915050565b61157181611409565b82525050565b6115808161138a565b82525050565b5f6060820190506115995f830186611568565b6115a660208301856114b5565b6115b36040830184611577565b949350505050565b5f60ff82169050919050565b6115d0816115bb565b81146115da575f5ffd5b50565b5f813590506115eb816115c7565b92915050565b5f6020828403121561160657611605611386565b5b5f611613848285016115dd565b91505092915050565b5f60408201905061162f5f8301856114b5565b61163c6020830184611577565b9392505050565b5f6020820190506116565f830184611568565b92915050565b5f5f6040838503121561167257611671611386565b5b5f61167f858286016115dd565b925050602061169085828601611463565b9150509250929050565b6116a3816115bb565b82525050565b5f6020820190506116bc5f83018461169a565b92915050565b5f6116cc826113ea565b9050919050565b6116dc816116c2565b81146116e6575f5ffd5b50565b5f813590506116f7816116d3565b92915050565b5f6020828403121561171257611711611386565b5b5f61171f848285016116e9565b91505092915050565b5f82825260208201905092915050565b7f436f6e74726163742050617573656400000000000000000000000000000000005f82015250565b5f61176c600f83611728565b915061177782611738565b602082019050919050565b5f6020820190508181035f83015261179981611760565b9050919050565b7f4e6f205265656e7472616e63792c706c732077616974000000000000000000005f82015250565b5f6117d4601683611728565b91506117df826117a0565b602082019050919050565b5f6020820190508181035f830152611801816117c8565b9050919050565b7f53656e64206d6f726520424e4220746f206275792054505400000000000000005f82015250565b5f61183c601883611728565b915061184782611808565b602082019050919050565b5f6020820190508181035f83015261186981611830565b9050919050565b7f496e76616c69642064617461206c656e677468000000000000000000000000005f82015250565b5f6118a4601383611728565b91506118af82611870565b602082019050919050565b5f6020820190508181035f8301526118d181611898565b9050919050565b7f4e487b71000000000000000000000000000000000000000000000000000000005f52601160045260245ffd5b5f61190f82611444565b91507fffffffffffffffffffffffffffffffffffffffffffffffffffffffffffffffff8203611941576119406118d8565b5b600182019050919050565b7f4e487b71000000000000000000000000000000000000000000000000000000005f52603260045260245ffd5b5f815190506119878161144d565b92915050565b5f8151905061199b81611395565b92915050565b5f5f604083850312156119b7576119b6611386565b5b5f6119c485828601611979565b92505060206119d58582860161198d565b9150509250929050565b7f4f6e6c79206f776e6572000000000000000000000000000000000000000000005f82015250565b5f611a13600a83611728565b9150611a1e826119df565b602082019050919050565b5f6020820190508181035f830152611a4081611a07565b9050919050565b7f4e487b71000000000000000000000000000000000000000000000000000000005f52601260045260245ffd5b5f611a7e82611444565b9150611a8983611444565b925082611a9957611a98611a47565b5b828204905092915050565b5f611aae82611444565b9150611ab983611444565b9250828202611ac781611444565b91508282048414831517611ade57611add6118d8565b5b5092915050565b7f496e76616c6964207573657220494400000000000000000000000000000000005f82015250565b5f611b19600f83611728565b9150611b2482611ae5565b602082019050919050565b5f6020820190508181035f830152611b4681611b0d565b9050919050565b5f611b5782611444565b9150611b6283611444565b9250828201905080821115611b7a57611b796118d8565b5b92915050565b7f496e76616c6964206164647265737300000000000000000000000000000000005f82015250565b5f611bb4600f83611728565b9150611bbf82611b80565b602082019050919050565b5f6020820190508181035f830152611be181611ba8565b905091905056fea26469706673582212201b4dabe94c15f05a899f7958acb27643915d3af790ed5ac004ded2bf024ea98e64736f6c634300081e0033",
					"opcodes": "PUSH1 0x80 PUSH1 0x40 MSTORE CALLVALUE DUP1 ISZERO PUSH2 0xF JUMPI PUSH0 PUSH0 REVERT JUMPDEST POP PUSH1 0x40 MLOAD PUSH2 0x1D84 CODESIZE SUB DUP1 PUSH2 0x1D84 DUP4 CODECOPY DUP2 DUP2 ADD PUSH1 0x40 MSTORE DUP2 ADD SWAP1 PUSH2 0x31 SWAP2 SWAP1 PUSH2 0x12E JUMP JUMPDEST CALLER PUSH0 PUSH0 PUSH2 0x100 EXP DUP2 SLOAD DUP2 PUSH20 0xFFFFFFFFFFFFFFFFFFFFFFFFFFFFFFFFFFFFFFFF MUL NOT AND SWAP1 DUP4 PUSH20 0xFFFFFFFFFFFFFFFFFFFFFFFFFFFFFFFFFFFFFFFF AND MUL OR SWAP1 SSTORE POP PUSH0 PUSH0 PUSH1 0x15 PUSH2 0x100 EXP DUP2 SLOAD DUP2 PUSH1 0xFF MUL NOT AND SWAP1 DUP4 PUSH1 0xFF AND MUL OR SWAP1 SSTORE POP DUP1 PUSH1 0x2 PUSH0 PUSH2 0x100 EXP DUP2 SLOAD DUP2 PUSH20 0xFFFFFFFFFFFFFFFFFFFFFFFFFFFFFFFFFFFFFFFF MUL NOT AND SWAP1 DUP4 PUSH20 0xFFFFFFFFFFFFFFFFFFFFFFFFFFFFFFFFFFFFFFFF AND MUL OR SWAP1 SSTORE POP POP PUSH2 0x159 JUMP JUMPDEST PUSH0 PUSH0 REVERT JUMPDEST PUSH0 PUSH20 0xFFFFFFFFFFFFFFFFFFFFFFFFFFFFFFFFFFFFFFFF DUP3 AND SWAP1 POP SWAP2 SWAP1 POP JUMP JUMPDEST PUSH0 PUSH2 0xFD DUP3 PUSH2 0xD4 JUMP JUMPDEST SWAP1 POP SWAP2 SWAP1 POP JUMP JUMPDEST PUSH2 0x10D DUP2 PUSH2 0xF3 JUMP JUMPDEST DUP2 EQ PUSH2 0x117 JUMPI PUSH0 PUSH0 REVERT JUMPDEST POP JUMP JUMPDEST PUSH0 DUP2 MLOAD SWAP1 POP PUSH2 0x128 DUP2 PUSH2 0x104 JUMP JUMPDEST SWAP3 SWAP2 POP POP JUMP JUMPDEST PUSH0 PUSH1 0x20 DUP3 DUP5 SUB SLT ISZERO PUSH2 0x143 JUMPI PUSH2 0x142 PUSH2 0xD0 JUMP JUMPDEST JUMPDEST PUSH0 PUSH2 0x150 DUP5 DUP3 DUP6 ADD PUSH2 0x11A JUMP JUMPDEST SWAP2 POP POP SWAP3 SWAP2 POP POP JUMP JUMPDEST PUSH2 0x1C1E DUP1 PUSH2 0x166 PUSH0 CODECOPY PUSH0 RETURN INVALID PUSH1 0x80 PUSH1 0x40 MSTORE PUSH1 0x4 CALLDATASIZE LT PUSH2 0x122 JUMPI PUSH0 CALLDATALOAD PUSH1 0xE0 SHR DUP1 PUSH4 0x90D976E2 GT PUSH2 0x9F JUMPI DUP1 PUSH4 0xBFF1F9E1 GT PUSH2 0x63 JUMPI DUP1 PUSH4 0xBFF1F9E1 EQ PUSH2 0x438 JUMPI DUP1 PUSH4 0xCA90D6E6 EQ PUSH2 0x462 JUMPI DUP1 PUSH4 0xD221954B EQ PUSH2 0x48A JUMPI DUP1 PUSH4 0xFA09E630 EQ PUSH2 0x4A0 JUMPI DUP1 PUSH4 0xFDBB6696 EQ PUSH2 0x4C8 JUMPI PUSH2 0x132 JUMP JUMPDEST DUP1 PUSH4 0x90D976E2 EQ PUSH2 0x352 JUMPI DUP1 PUSH4 0x95E55748 EQ PUSH2 0x38E JUMPI DUP1 PUSH4 0xA2F5546E EQ PUSH2 0x3B6 JUMPI DUP1 PUSH4 0xA52D981E EQ PUSH2 0x3DE JUMPI DUP1 PUSH4 0xAE243031 EQ PUSH2 0x40E JUMPI PUSH2 0x132 JUMP JUMPDEST DUP1 PUSH4 0x556A7579 GT PUSH2 0xE6 JUMPI DUP1 PUSH4 0x556A7579 EQ PUSH2 0x27B JUMPI DUP1 PUSH4 0x5B148F7B EQ PUSH2 0x2B7 JUMPI DUP1 PUSH4 0x672CBE1A EQ PUSH2 0x2D6 JUMPI DUP1 PUSH4 0x7CE8A08E EQ PUSH2 0x300 JUMPI DUP1 PUSH4 0x8DA5CB5B EQ PUSH2 0x328 JUMPI PUSH2 0x132 JUMP JUMPDEST DUP1 PUSH4 0x2A2A92CC EQ PUSH2 0x14B JUMPI DUP1 PUSH4 0x2B956FF7 EQ PUSH2 0x189 JUMPI DUP1 PUSH4 0x31BBF555 EQ PUSH2 0x1C5 JUMPI DUP1 PUSH4 0x365B98B2 EQ PUSH2 0x201 JUMPI DUP1 PUSH4 0x376FE102 EQ PUSH2 0x23F JUMPI PUSH2 0x132 JUMP JUMPDEST CALLDATASIZE PUSH2 0x132 JUMPI PUSH2 0x130 PUSH0 PUSH2 0x504 JUMP JUMPDEST STOP JUMPDEST PUSH2 0x149 PUSH0 CALLDATASIZE DUP2 ADD SWAP1 PUSH2 0x144 SWAP2 SWAP1 PUSH2 0x13BF JUMP JUMPDEST PUSH2 0x504 JUMP JUMPDEST STOP JUMPDEST CALLVALUE DUP1 ISZERO PUSH2 0x156 JUMPI PUSH0 PUSH0 REVERT JUMPDEST POP PUSH2 0x171 PUSH1 0x4 DUP1 CALLDATASIZE SUB DUP2 ADD SWAP1 PUSH2 0x16C SWAP2 SWAP1 PUSH2 0x1477 JUMP JUMPDEST PUSH2 0x87E JUMP JUMPDEST PUSH1 0x40 MLOAD PUSH2 0x180 SWAP4 SWAP3 SWAP2 SWAP1 PUSH2 0x14C4 JUMP JUMPDEST PUSH1 0x40 MLOAD DUP1 SWAP2 SUB SWAP1 RETURN JUMPDEST CALLVALUE DUP1 ISZERO PUSH2 0x194 JUMPI PUSH0 PUSH0 REVERT JUMPDEST POP PUSH2 0x1AF PUSH1 0x4 DUP1 CALLDATASIZE SUB DUP2 ADD SWAP1 PUSH2 0x1AA SWAP2 SWAP1 PUSH2 0x14F9 JUMP JUMPDEST PUSH2 0x953 JUMP JUMPDEST PUSH1 0x40 MLOAD PUSH2 0x1BC SWAP2 SWAP1 PUSH2 0x1524 JUMP JUMPDEST PUSH1 0x40 MLOAD DUP1 SWAP2 SUB SWAP1 RETURN JUMPDEST CALLVALUE DUP1 ISZERO PUSH2 0x1D0 JUMPI PUSH0 PUSH0 REVERT JUMPDEST POP PUSH2 0x1EB PUSH1 0x4 DUP1 CALLDATASIZE SUB DUP2 ADD SWAP1 PUSH2 0x1E6 SWAP2 SWAP1 PUSH2 0x14F9 JUMP JUMPDEST PUSH2 0x999 JUMP JUMPDEST PUSH1 0x40 MLOAD PUSH2 0x1F8 SWAP2 SWAP1 PUSH2 0x1524 JUMP JUMPDEST PUSH1 0x40 MLOAD DUP1 SWAP2 SUB SWAP1 RETURN JUMPDEST CALLVALUE DUP1 ISZERO PUSH2 0x20C JUMPI PUSH0 PUSH0 REVERT JUMPDEST POP PUSH2 0x227 PUSH1 0x4 DUP1 CALLDATASIZE SUB DUP2 ADD SWAP1 PUSH2 0x222 SWAP2 SWAP1 PUSH2 0x153D JUMP JUMPDEST PUSH2 0x9F6 JUMP JUMPDEST PUSH1 0x40 MLOAD PUSH2 0x236 SWAP4 SWAP3 SWAP2 SWAP1 PUSH2 0x1586 JUMP JUMPDEST PUSH1 0x40 MLOAD DUP1 SWAP2 SUB SWAP1 RETURN JUMPDEST CALLVALUE DUP1 ISZERO PUSH2 0x24A JUMPI PUSH0 PUSH0 REVERT JUMPDEST POP PUSH2 0x265 PUSH1 0x4 DUP1 CALLDATASIZE SUB DUP2 ADD SWAP1 PUSH2 0x260 SWAP2 SWAP1 PUSH2 0x14F9 JUMP JUMPDEST PUSH2 0xA47 JUMP JUMPDEST PUSH1 0x40 MLOAD PUSH2 0x272 SWAP2 SWAP1 PUSH2 0x1524 JUMP JUMPDEST PUSH1 0x40 MLOAD DUP1 SWAP2 SUB SWAP1 RETURN JUMPDEST CALLVALUE DUP1 ISZERO PUSH2 0x286 JUMPI PUSH0 PUSH0 REVERT JUMPDEST POP PUSH2 0x2A1 PUSH1 0x4 DUP1 CALLDATASIZE SUB DUP2 ADD SWAP1 PUSH2 0x29C SWAP2 SWAP1 PUSH2 0x15F1 JUMP JUMPDEST PUSH2 0xA5C JUMP JUMPDEST PUSH1 0x40 MLOAD PUSH2 0x2AE SWAP2 SWAP1 PUSH2 0x1524 JUMP JUMPDEST PUSH1 0x40 MLOAD DUP1 SWAP2 SUB SWAP1 RETURN JUMPDEST PUSH2 0x2BF PUSH2 0xA71 JUMP JUMPDEST PUSH1 0x40 MLOAD PUSH2 0x2CD SWAP3 SWAP2 SWAP1 PUSH2 0x161C JUMP JUMPDEST PUSH1 0x40 MLOAD DUP1 SWAP2 SUB SWAP1 RETURN JUMPDEST CALLVALUE DUP1 ISZERO PUSH2 0x2E1 JUMPI PUSH0 PUSH0 REVERT JUMPDEST POP PUSH2 0x2EA PUSH2 0xB15 JUMP JUMPDEST PUSH1 0x40 MLOAD PUSH2 0x2F7 SWAP2 SWAP1 PUSH2 0x1524 JUMP JUMPDEST PUSH1 0x40 MLOAD DUP1 SWAP2 SUB SWAP1 RETURN JUMPDEST CALLVALUE DUP1 ISZERO PUSH2 0x30B JUMPI PUSH0 PUSH0 REVERT JUMPDEST POP PUSH2 0x326 PUSH1 0x4 DUP1 CALLDATASIZE SUB DUP2 ADD SWAP1 PUSH2 0x321 SWAP2 SWAP1 PUSH2 0x15F1 JUMP JUMPDEST PUSH2 0xB41 JUMP JUMPDEST STOP JUMPDEST CALLVALUE DUP1 ISZERO PUSH2 0x333 JUMPI PUSH0 PUSH0 REVERT JUMPDEST POP PUSH2 0x33C PUSH2 0xBEC JUMP JUMPDEST PUSH1 0x40 MLOAD PUSH2 0x349 SWAP2 SWAP1 PUSH2 0x1643 JUMP JUMPDEST PUSH1 0x40 MLOAD DUP1 SWAP2 SUB SWAP1 RETURN JUMPDEST CALLVALUE DUP1 ISZERO PUSH2 0x35D JUMPI PUSH0 PUSH0 REVERT JUMPDEST POP PUSH2 0x378 PUSH1 0x4 DUP1 CALLDATASIZE SUB DUP2 ADD SWAP1 PUSH2 0x373 SWAP2 SWAP1 PUSH2 0x153D JUMP JUMPDEST PUSH2 0xC10 JUMP JUMPDEST PUSH1 0x40 MLOAD PUSH2 0x385 SWAP2 SWAP1 PUSH2 0x1643 JUMP JUMPDEST PUSH1 0x40 MLOAD DUP1 SWAP2 SUB SWAP1 RETURN JUMPDEST CALLVALUE DUP1 ISZERO PUSH2 0x399 JUMPI PUSH0 PUSH0 REVERT JUMPDEST POP PUSH2 0x3B4 PUSH1 0x4 DUP1 CALLDATASIZE SUB DUP2 ADD SWAP1 PUSH2 0x3AF SWAP2 SWAP1 PUSH2 0x14F9 JUMP JUMPDEST PUSH2 0xC4B JUMP JUMPDEST STOP JUMPDEST CALLVALUE DUP1 ISZERO PUSH2 0x3C1 JUMPI PUSH0 PUSH0 REVERT JUMPDEST POP PUSH2 0x3DC PUSH1 0x4 DUP1 CALLDATASIZE SUB DUP2 ADD SWAP1 PUSH2 0x3D7 SWAP2 SWAP1 PUSH2 0x165C JUMP JUMPDEST PUSH2 0xD1C JUMP JUMPDEST STOP JUMPDEST PUSH2 0x3F8 PUSH1 0x4 DUP1 CALLDATASIZE SUB DUP2 ADD SWAP1 PUSH2 0x3F3 SWAP2 SWAP1 PUSH2 0x13BF JUMP JUMPDEST PUSH2 0xDCA JUMP JUMPDEST PUSH1 0x40 MLOAD PUSH2 0x405 SWAP2 SWAP1 PUSH2 0x1524 JUMP JUMPDEST PUSH1 0x40 MLOAD DUP1 SWAP2 SUB SWAP1 RETURN JUMPDEST CALLVALUE DUP1 ISZERO PUSH2 0x419 JUMPI PUSH0 PUSH0 REVERT JUMPDEST POP PUSH2 0x422 PUSH2 0xE73 JUMP JUMPDEST PUSH1 0x40 MLOAD PUSH2 0x42F SWAP2 SWAP1 PUSH2 0x16A9 JUMP JUMPDEST PUSH1 0x40 MLOAD DUP1 SWAP2 SUB SWAP1 RETURN JUMPDEST CALLVALUE DUP1 ISZERO PUSH2 0x443 JUMPI PUSH0 PUSH0 REVERT JUMPDEST POP PUSH2 0x44C PUSH2 0xE85 JUMP JUMPDEST PUSH1 0x40 MLOAD PUSH2 0x459 SWAP2 SWAP1 PUSH2 0x1524 JUMP JUMPDEST PUSH1 0x40 MLOAD DUP1 SWAP2 SUB SWAP1 RETURN JUMPDEST CALLVALUE DUP1 ISZERO PUSH2 0x46D JUMPI PUSH0 PUSH0 REVERT JUMPDEST POP PUSH2 0x488 PUSH1 0x4 DUP1 CALLDATASIZE SUB DUP2 ADD SWAP1 PUSH2 0x483 SWAP2 SWAP1 PUSH2 0x1477 JUMP JUMPDEST PUSH2 0xE8B JUMP JUMPDEST STOP JUMPDEST CALLVALUE DUP1 ISZERO PUSH2 0x495 JUMPI PUSH0 PUSH0 REVERT JUMPDEST POP PUSH2 0x49E PUSH2 0x1003 JUMP JUMPDEST STOP JUMPDEST CALLVALUE DUP1 ISZERO PUSH2 0x4AB JUMPI PUSH0 PUSH0 REVERT JUMPDEST POP PUSH2 0x4C6 PUSH1 0x4 DUP1 CALLDATASIZE SUB DUP2 ADD SWAP1 PUSH2 0x4C1 SWAP2 SWAP1 PUSH2 0x16FD JUMP JUMPDEST PUSH2 0x110F JUMP JUMPDEST STOP JUMPDEST CALLVALUE DUP1 ISZERO PUSH2 0x4D3 JUMPI PUSH0 PUSH0 REVERT JUMPDEST POP PUSH2 0x4EE PUSH1 0x4 DUP1 CALLDATASIZE SUB DUP2 ADD SWAP1 PUSH2 0x4E9 SWAP2 SWAP1 PUSH2 0x14F9 JUMP JUMPDEST PUSH2 0x1252 JUMP JUMPDEST PUSH1 0x40 MLOAD PUSH2 0x4FB SWAP2 SWAP1 PUSH2 0x1524 JUMP JUMPDEST PUSH1 0x40 MLOAD DUP1 SWAP2 SUB SWAP1 RETURN JUMPDEST PUSH0 PUSH0 PUSH1 0x15 SWAP1 SLOAD SWAP1 PUSH2 0x100 EXP SWAP1 DIV PUSH1 0xFF AND PUSH1 0xFF AND SUB PUSH2 0x557 JUMPI PUSH1 0x40 MLOAD PUSH32 0x8C379A000000000000000000000000000000000000000000000000000000000 DUP2 MSTORE PUSH1 0x4 ADD PUSH2 0x54E SWAP1 PUSH2 0x1782 JUMP JUMPDEST PUSH1 0x40 MLOAD DUP1 SWAP2 SUB SWAP1 REVERT JUMPDEST PUSH1 0x1 ISZERO ISZERO PUSH0 PUSH1 0x14 SWAP1 SLOAD SWAP1 PUSH2 0x100 EXP SWAP1 DIV PUSH1 0xFF AND ISZERO ISZERO SUB PUSH2 0x5AC JUMPI PUSH1 0x40 MLOAD PUSH32 0x8C379A000000000000000000000000000000000000000000000000000000000 DUP2 MSTORE PUSH1 0x4 ADD PUSH2 0x5A3 SWAP1 PUSH2 0x17EA JUMP JUMPDEST PUSH1 0x40 MLOAD DUP1 SWAP2 SUB SWAP1 REVERT JUMPDEST PUSH1 0x1 PUSH0 PUSH1 0x14 PUSH2 0x100 EXP DUP2 SLOAD DUP2 PUSH1 0xFF MUL NOT AND SWAP1 DUP4 ISZERO ISZERO MUL OR SWAP1 SSTORE POP PUSH7 0xB1A2BC2EC50000 CALLVALUE LT ISZERO PUSH2 0x610 JUMPI PUSH1 0x40 MLOAD PUSH32 0x8C379A000000000000000000000000000000000000000000000000000000000 DUP2 MSTORE PUSH1 0x4 ADD PUSH2 0x607 SWAP1 PUSH2 0x1852 JUMP JUMPDEST PUSH1 0x40 MLOAD DUP1 SWAP2 SUB SWAP1 REVERT JUMPDEST PUSH1 0x20 PUSH0 CALLDATASIZE SWAP1 POP LT ISZERO PUSH2 0x657 JUMPI PUSH1 0x40 MLOAD PUSH32 0x8C379A000000000000000000000000000000000000000000000000000000000 DUP2 MSTORE PUSH1 0x4 ADD PUSH2 0x64E SWAP1 PUSH2 0x18BA JUMP JUMPDEST PUSH1 0x40 MLOAD DUP1 SWAP2 SUB SWAP1 REVERT JUMPDEST PUSH0 PUSH2 0x661 DUP3 PUSH2 0xDCA JUMP JUMPDEST SWAP1 POP PUSH0 PUSH1 0x4 PUSH0 CALLER PUSH20 0xFFFFFFFFFFFFFFFFFFFFFFFFFFFFFFFFFFFFFFFF AND PUSH20 0xFFFFFFFFFFFFFFFFFFFFFFFFFFFFFFFFFFFFFFFF AND DUP2 MSTORE PUSH1 0x20 ADD SWAP1 DUP2 MSTORE PUSH1 0x20 ADD PUSH0 KECCAK256 SLOAD SUB PUSH2 0x846 JUMPI PUSH1 0x3 PUSH0 DUP2 SLOAD DUP1 SWAP3 SWAP2 SWAP1 PUSH2 0x6B9 SWAP1 PUSH2 0x1905 JUMP JUMPDEST SWAP2 SWAP1 POP SSTORE POP PUSH1 0x3 SLOAD PUSH1 0x4 PUSH0 CALLER PUSH20 0xFFFFFFFFFFFFFFFFFFFFFFFFFFFFFFFFFFFFFFFF AND PUSH20 0xFFFFFFFFFFFFFFFFFFFFFFFFFFFFFFFFFFFFFFFF AND DUP2 MSTORE PUSH1 0x20 ADD SWAP1 DUP2 MSTORE PUSH1 0x20 ADD PUSH0 KECCAK256 DUP2 SWAP1 SSTORE POP PUSH0 PUSH1 0x5 PUSH0 PUSH1 0x3 SLOAD DUP2 MSTORE PUSH1 0x20 ADD SWAP1 DUP2 MSTORE PUSH1 0x20 ADD PUSH0 KECCAK256 SWAP1 POP CALLER DUP2 PUSH0 ADD PUSH0 PUSH2 0x100 EXP DUP2 SLOAD DUP2 PUSH20 0xFFFFFFFFFFFFFFFFFFFFFFFFFFFFFFFFFFFFFFFF MUL NOT AND SWAP1 DUP4 PUSH20 0xFFFFFFFFFFFFFFFFFFFFFFFFFFFFFFFFFFFFFFFF AND MUL OR SWAP1 SSTORE POP PUSH0 DUP2 PUSH1 0x1 ADD DUP2 SWAP1 SSTORE POP PUSH1 0x1 DUP2 PUSH1 0x2 ADD PUSH0 PUSH2 0x100 EXP DUP2 SLOAD DUP2 PUSH1 0xFF MUL NOT AND SWAP1 DUP4 ISZERO ISZERO MUL OR SWAP1 SSTORE POP DUP1 PUSH1 0x5 PUSH0 PUSH1 0x3 SLOAD DUP2 MSTORE PUSH1 0x20 ADD SWAP1 DUP2 MSTORE PUSH1 0x20 ADD PUSH0 KECCAK256 PUSH0 DUP3 ADD PUSH0 SWAP1 SLOAD SWAP1 PUSH2 0x100 EXP SWAP1 DIV PUSH20 0xFFFFFFFFFFFFFFFFFFFFFFFFFFFFFFFFFFFFFFFF AND DUP2 PUSH0 ADD PUSH0 PUSH2 0x100 EXP DUP2 SLOAD DUP2 PUSH20 0xFFFFFFFFFFFFFFFFFFFFFFFFFFFFFFFFFFFFFFFF MUL NOT AND SWAP1 DUP4 PUSH20 0xFFFFFFFFFFFFFFFFFFFFFFFFFFFFFFFFFFFFFFFF AND MUL OR SWAP1 SSTORE POP PUSH1 0x1 DUP3 ADD SLOAD DUP2 PUSH1 0x1 ADD SSTORE PUSH1 0x2 DUP3 ADD PUSH0 SWAP1 SLOAD SWAP1 PUSH2 0x100 EXP SWAP1 DIV PUSH1 0xFF AND DUP2 PUSH1 0x2 ADD PUSH0 PUSH2 0x100 EXP DUP2 SLOAD DUP2 PUSH1 0xFF MUL NOT AND SWAP1 DUP4 ISZERO ISZERO MUL OR SWAP1 SSTORE POP PUSH1 0x3 DUP3 ADD DUP2 PUSH1 0x3 ADD SWAP1 DUP1 SLOAD PUSH2 0x840 SWAP3 SWAP2 SWAP1 PUSH2 0x12AC JUMP JUMPDEST POP SWAP1 POP POP POP JUMPDEST DUP1 PUSH1 0x5 PUSH0 PUSH1 0x3 SLOAD DUP2 MSTORE PUSH1 0x20 ADD SWAP1 DUP2 MSTORE PUSH1 0x20 ADD PUSH0 KECCAK256 PUSH1 0x1 ADD DUP2 SWAP1 SSTORE POP POP PUSH0 PUSH0 PUSH1 0x14 PUSH2 0x100 EXP DUP2 SLOAD DUP2 PUSH1 0xFF MUL NOT AND SWAP1 DUP4 ISZERO ISZERO MUL OR SWAP1 SSTORE POP POP JUMP JUMPDEST PUSH0 PUSH0 PUSH0 PUSH0 PUSH1 0x5 PUSH0 PUSH1 0x4 PUSH0 DUP10 PUSH20 0xFFFFFFFFFFFFFFFFFFFFFFFFFFFFFFFFFFFFFFFF AND PUSH20 0xFFFFFFFFFFFFFFFFFFFFFFFFFFFFFFFFFFFFFFFF AND DUP2 MSTORE PUSH1 0x20 ADD SWAP1 DUP2 MSTORE PUSH1 0x20 ADD PUSH0 KECCAK256 SLOAD DUP2 MSTORE PUSH1 0x20 ADD SWAP1 DUP2 MSTORE PUSH1 0x20 ADD PUSH0 KECCAK256 PUSH1 0x3 ADD DUP6 DUP2 SLOAD DUP2 LT PUSH2 0x8E5 JUMPI PUSH2 0x8E4 PUSH2 0x194C JUMP JUMPDEST JUMPDEST SWAP1 PUSH0 MSTORE PUSH1 0x20 PUSH0 KECCAK256 SWAP1 PUSH1 0x4 MUL ADD PUSH1 0x40 MLOAD DUP1 PUSH1 0x80 ADD PUSH1 0x40 MSTORE SWAP1 DUP2 PUSH0 DUP3 ADD SLOAD DUP2 MSTORE PUSH1 0x20 ADD PUSH1 0x1 DUP3 ADD SLOAD DUP2 MSTORE PUSH1 0x20 ADD PUSH1 0x2 DUP3 ADD SLOAD DUP2 MSTORE PUSH1 0x20 ADD PUSH1 0x3 DUP3 ADD PUSH0 SWAP1 SLOAD SWAP1 PUSH2 0x100 EXP SWAP1 DIV PUSH1 0xFF AND PUSH1 0xFF AND PUSH1 0xFF AND DUP2 MSTORE POP POP SWAP1 POP DUP1 PUSH0 ADD MLOAD DUP2 PUSH1 0x20 ADD MLOAD DUP3 PUSH1 0x40 ADD MLOAD SWAP4 POP SWAP4 POP SWAP4 POP POP SWAP3 POP SWAP3 POP SWAP3 JUMP JUMPDEST PUSH0 PUSH1 0x4 PUSH0 DUP4 PUSH20 0xFFFFFFFFFFFFFFFFFFFFFFFFFFFFFFFFFFFFFFFF AND PUSH20 0xFFFFFFFFFFFFFFFFFFFFFFFFFFFFFFFFFFFFFFFF AND DUP2 MSTORE PUSH1 0x20 ADD SWAP1 DUP2 MSTORE PUSH1 0x20 ADD PUSH0 KECCAK256 SLOAD SWAP1 POP SWAP2 SWAP1 POP JUMP JUMPDEST PUSH0 PUSH1 0x5 PUSH0 PUSH1 0x4 PUSH0 DUP6 PUSH20 0xFFFFFFFFFFFFFFFFFFFFFFFFFFFFFFFFFFFFFFFF AND PUSH20 0xFFFFFFFFFFFFFFFFFFFFFFFFFFFFFFFFFFFFFFFF AND DUP2 MSTORE PUSH1 0x20 ADD SWAP1 DUP2 MSTORE PUSH1 0x20 ADD PUSH0 KECCAK256 SLOAD DUP2 MSTORE PUSH1 0x20 ADD SWAP1 DUP2 MSTORE PUSH1 0x20 ADD PUSH0 KECCAK256 PUSH1 0x3 ADD DUP1 SLOAD SWAP1 POP SWAP1 POP SWAP2 SWAP1 POP JUMP JUMPDEST PUSH1 0x5 PUSH1 0x20 MSTORE DUP1 PUSH0 MSTORE PUSH1 0x40 PUSH0 KECCAK256 PUSH0 SWAP2 POP SWAP1 POP DUP1 PUSH0 ADD PUSH0 SWAP1 SLOAD SWAP1 PUSH2 0x100 EXP SWAP1 DIV PUSH20 0xFFFFFFFFFFFFFFFFFFFFFFFFFFFFFFFFFFFFFFFF AND SWAP1 DUP1 PUSH1 0x1 ADD SLOAD SWAP1 DUP1 PUSH1 0x2 ADD PUSH0 SWAP1 SLOAD SWAP1 PUSH2 0x100 EXP SWAP1 DIV PUSH1 0xFF AND SWAP1 POP DUP4 JUMP JUMPDEST PUSH1 0x4 PUSH1 0x20 MSTORE DUP1 PUSH0 MSTORE PUSH1 0x40 PUSH0 KECCAK256 PUSH0 SWAP2 POP SWAP1 POP SLOAD DUP2 JUMP JUMPDEST PUSH1 0x1 PUSH1 0x20 MSTORE DUP1 PUSH0 MSTORE PUSH1 0x40 PUSH0 KECCAK256 PUSH0 SWAP2 POP SWAP1 POP SLOAD DUP2 JUMP JUMPDEST PUSH0 PUSH0 PUSH1 0x2 PUSH0 SWAP1 SLOAD SWAP1 PUSH2 0x100 EXP SWAP1 DIV PUSH20 0xFFFFFFFFFFFFFFFFFFFFFFFFFFFFFFFFFFFFFFFF AND PUSH20 0xFFFFFFFFFFFFFFFFFFFFFFFFFFFFFFFFFFFFFFFF AND PUSH4 0x21055ACB PUSH6 0x5AF3107A4000 PUSH1 0x40 MLOAD DUP3 PUSH4 0xFFFFFFFF AND PUSH1 0xE0 SHL DUP2 MSTORE PUSH1 0x4 ADD PUSH1 0x40 DUP1 MLOAD DUP1 DUP4 SUB DUP2 DUP6 DUP9 GAS CALL ISZERO DUP1 ISZERO PUSH2 0xAE4 JUMPI RETURNDATASIZE PUSH0 PUSH0 RETURNDATACOPY RETURNDATASIZE PUSH0 REVERT JUMPDEST POP POP POP POP POP PUSH1 0x40 MLOAD RETURNDATASIZE PUSH1 0x1F NOT PUSH1 0x1F DUP3 ADD AND DUP3 ADD DUP1 PUSH1 0x40 MSTORE POP DUP2 ADD SWAP1 PUSH2 0xB09 SWAP2 SWAP1 PUSH2 0x19A1 JUMP JUMPDEST DUP1 SWAP3 POP DUP2 SWAP4 POP POP POP SWAP1 SWAP2 JUMP JUMPDEST PUSH0 PUSH1 0x1 PUSH0 PUSH0 PUSH1 0x15 SWAP1 SLOAD SWAP1 PUSH2 0x100 EXP SWAP1 DIV PUSH1 0xFF AND PUSH1 0xFF AND PUSH1 0xFF AND DUP2 MSTORE PUSH1 0x20 ADD SWAP1 DUP2 MSTORE PUSH1 0x20 ADD PUSH0 KECCAK256 SLOAD SWAP1 POP SWAP1 JUMP JUMPDEST PUSH0 PUSH0 SWAP1 SLOAD SWAP1 PUSH2 0x100 EXP SWAP1 DIV PUSH20 0xFFFFFFFFFFFFFFFFFFFFFFFFFFFFFFFFFFFFFFFF AND PUSH20 0xFFFFFFFFFFFFFFFFFFFFFFFFFFFFFFFFFFFFFFFF AND CALLER PUSH20 0xFFFFFFFFFFFFFFFFFFFFFFFFFFFFFFFFFFFFFFFF AND EQ PUSH2 0xBCF JUMPI PUSH1 0x40 MLOAD PUSH32 0x8C379A000000000000000000000000000000000000000000000000000000000 DUP2 MSTORE PUSH1 0x4 ADD PUSH2 0xBC6 SWAP1 PUSH2 0x1A29 JUMP JUMPDEST PUSH1 0x40 MLOAD DUP1 SWAP2 SUB SWAP1 REVERT JUMPDEST DUP1 PUSH0 PUSH1 0x15 PUSH2 0x100 EXP DUP2 SLOAD DUP2 PUSH1 0xFF MUL NOT AND SWAP1 DUP4 PUSH1 0xFF AND MUL OR SWAP1 SSTORE POP POP JUMP JUMPDEST PUSH0 PUSH0 SWAP1 SLOAD SWAP1 PUSH2 0x100 EXP SWAP1 DIV PUSH20 0xFFFFFFFFFFFFFFFFFFFFFFFFFFFFFFFFFFFFFFFF AND DUP2 JUMP JUMPDEST PUSH0 PUSH1 0x5 PUSH0 DUP4 DUP2 MSTORE PUSH1 0x20 ADD SWAP1 DUP2 MSTORE PUSH1 0x20 ADD PUSH0 KECCAK256 PUSH0 ADD PUSH0 SWAP1 SLOAD SWAP1 PUSH2 0x100 EXP SWAP1 DIV PUSH20 0xFFFFFFFFFFFFFFFFFFFFFFFFFFFFFFFFFFFFFFFF AND SWAP1 POP SWAP2 SWAP1 POP JUMP JUMPDEST PUSH0 PUSH0 SWAP1 SLOAD SWAP1 PUSH2 0x100 EXP SWAP1 DIV PUSH20 0xFFFFFFFFFFFFFFFFFFFFFFFFFFFFFFFFFFFFFFFF AND PUSH20 0xFFFFFFFFFFFFFFFFFFFFFFFFFFFFFFFFFFFFFFFF AND CALLER PUSH20 0xFFFFFFFFFFFFFFFFFFFFFFFFFFFFFFFFFFFFFFFF AND EQ PUSH2 0xCD9 JUMPI PUSH1 0x40 MLOAD PUSH32 0x8C379A000000000000000000000000000000000000000000000000000000000 DUP2 MSTORE PUSH1 0x4 ADD PUSH2 0xCD0 SWAP1 PUSH2 0x1A29 JUMP JUMPDEST PUSH1 0x40 MLOAD DUP1 SWAP2 SUB SWAP1 REVERT JUMPDEST DUP1 PUSH1 0x2 PUSH0 PUSH2 0x100 EXP DUP2 SLOAD DUP2 PUSH20 0xFFFFFFFFFFFFFFFFFFFFFFFFFFFFFFFFFFFFFFFF MUL NOT AND SWAP1 DUP4 PUSH20 0xFFFFFFFFFFFFFFFFFFFFFFFFFFFFFFFFFFFFFFFF AND MUL OR SWAP1 SSTORE POP POP JUMP JUMPDEST PUSH0 PUSH0 SWAP1 SLOAD SWAP1 PUSH2 0x100 EXP SWAP1 DIV PUSH20 0xFFFFFFFFFFFFFFFFFFFFFFFFFFFFFFFFFFFFFFFF AND PUSH20 0xFFFFFFFFFFFFFFFFFFFFFFFFFFFFFFFFFFFFFFFF AND CALLER PUSH20 0xFFFFFFFFFFFFFFFFFFFFFFFFFFFFFFFFFFFFFFFF AND EQ PUSH2 0xDAA JUMPI PUSH1 0x40 MLOAD PUSH32 0x8C379A000000000000000000000000000000000000000000000000000000000 DUP2 MSTORE PUSH1 0x4 ADD PUSH2 0xDA1 SWAP1 PUSH2 0x1A29 JUMP JUMPDEST PUSH1 0x40 MLOAD DUP1 SWAP2 SUB SWAP1 REVERT JUMPDEST DUP1 PUSH1 0x1 PUSH0 DUP5 PUSH1 0xFF AND PUSH1 0xFF AND DUP2 MSTORE PUSH1 0x20 ADD SWAP1 DUP2 MSTORE PUSH1 0x20 ADD PUSH0 KECCAK256 DUP2 SWAP1 SSTORE POP POP POP JUMP JUMPDEST PUSH0 PUSH0 PUSH2 0xDD4 PUSH2 0xA71 JUMP JUMPDEST POP SWAP1 POP PUSH0 DUP4 PUSH2 0xE1E JUMPI PUSH1 0x1 PUSH0 PUSH0 PUSH1 0x15 SWAP1 SLOAD SWAP1 PUSH2 0x100 EXP SWAP1 DIV PUSH1 0xFF AND PUSH1 0xFF AND PUSH1 0xFF AND DUP2 MSTORE PUSH1 0x20 ADD SWAP1 DUP2 MSTORE PUSH1 0x20 ADD PUSH0 KECCAK256 SLOAD DUP3 CALLVALUE PUSH2 0xE0F SWAP2 SWAP1 PUSH2 0x1A74 JUMP JUMPDEST PUSH2 0xE19 SWAP2 SWAP1 PUSH2 0x1A74 JUMP JUMPDEST PUSH2 0xE67 JUMP JUMPDEST PUSH1 0x2 PUSH1 0x1 PUSH0 PUSH0 PUSH1 0x15 SWAP1 SLOAD SWAP1 PUSH2 0x100 EXP SWAP1 DIV PUSH1 0xFF AND PUSH1 0xFF AND PUSH1 0xFF AND DUP2 MSTORE PUSH1 0x20 ADD SWAP1 DUP2 MSTORE PUSH1 0x20 ADD PUSH0 KECCAK256 SLOAD DUP4 CALLVALUE PUSH2 0xE52 SWAP2 SWAP1 PUSH2 0x1A74 JUMP JUMPDEST PUSH2 0xE5C SWAP2 SWAP1 PUSH2 0x1A74 JUMP JUMPDEST PUSH2 0xE66 SWAP2 SWAP1 PUSH2 0x1AA4 JUMP JUMPDEST JUMPDEST SWAP1 POP DUP1 SWAP3 POP POP POP SWAP2 SWAP1 POP JUMP JUMPDEST PUSH0 PUSH1 0x15 SWAP1 SLOAD SWAP1 PUSH2 0x100 EXP SWAP1 DIV PUSH1 0xFF AND DUP2 JUMP JUMPDEST PUSH1 0x3 SLOAD DUP2 JUMP JUMPDEST PUSH0 PUSH0 SWAP1 SLOAD SWAP1 PUSH2 0x100 EXP SWAP1 DIV PUSH20 0xFFFFFFFFFFFFFFFFFFFFFFFFFFFFFFFFFFFFFFFF AND PUSH20 0xFFFFFFFFFFFFFFFFFFFFFFFFFFFFFFFFFFFFFFFF AND CALLER PUSH20 0xFFFFFFFFFFFFFFFFFFFFFFFFFFFFFFFFFFFFFFFF AND EQ PUSH2 0xF19 JUMPI PUSH1 0x40 MLOAD PUSH32 0x8C379A000000000000000000000000000000000000000000000000000000000 DUP2 MSTORE PUSH1 0x4 ADD PUSH2 0xF10 SWAP1 PUSH2 0x1A29 JUMP JUMPDEST PUSH1 0x40 MLOAD DUP1 SWAP2 SUB SWAP1 REVERT JUMPDEST PUSH0 PUSH1 0x4 PUSH0 DUP5 PUSH20 0xFFFFFFFFFFFFFFFFFFFFFFFFFFFFFFFFFFFFFFFF AND PUSH20 0xFFFFFFFFFFFFFFFFFFFFFFFFFFFFFFFFFFFFFFFF AND DUP2 MSTORE PUSH1 0x20 ADD SWAP1 DUP2 MSTORE PUSH1 0x20 ADD PUSH0 KECCAK256 SLOAD SUB PUSH2 0xF98 JUMPI PUSH1 0x40 MLOAD PUSH32 0x8C379A000000000000000000000000000000000000000000000000000000000 DUP2 MSTORE PUSH1 0x4 ADD PUSH2 0xF8F SWAP1 PUSH2 0x1B2F JUMP JUMPDEST PUSH1 0x40 MLOAD DUP1 SWAP2 SUB SWAP1 REVERT JUMPDEST DUP1 PUSH1 0x5 PUSH0 PUSH1 0x4 PUSH0 DUP7 PUSH20 0xFFFFFFFFFFFFFFFFFFFFFFFFFFFFFFFFFFFFFFFF AND PUSH20 0xFFFFFFFFFFFFFFFFFFFFFFFFFFFFFFFFFFFFFFFF AND DUP2 MSTORE PUSH1 0x20 ADD SWAP1 DUP2 MSTORE PUSH1 0x20 ADD PUSH0 KECCAK256 SLOAD DUP2 MSTORE PUSH1 0x20 ADD SWAP1 DUP2 MSTORE PUSH1 0x20 ADD PUSH0 KECCAK256 PUSH1 0x1 ADD PUSH0 DUP3 DUP3 SLOAD PUSH2 0xFF8 SWAP2 SWAP1 PUSH2 0x1B4D JUMP JUMPDEST SWAP3 POP POP DUP2 SWAP1 SSTORE POP POP POP JUMP JUMPDEST PUSH0 PUSH0 SWAP1 SLOAD SWAP1 PUSH2 0x100 EXP SWAP1 DIV PUSH20 0xFFFFFFFFFFFFFFFFFFFFFFFFFFFFFFFFFFFFFFFF AND PUSH20 0xFFFFFFFFFFFFFFFFFFFFFFFFFFFFFFFFFFFFFFFF AND CALLER PUSH20 0xFFFFFFFFFFFFFFFFFFFFFFFFFFFFFFFFFFFFFFFF AND EQ PUSH2 0x1091 JUMPI PUSH1 0x40 MLOAD PUSH32 0x8C379A000000000000000000000000000000000000000000000000000000000 DUP2 MSTORE PUSH1 0x4 ADD PUSH2 0x1088 SWAP1 PUSH2 0x1A29 JUMP JUMPDEST PUSH1 0x40 MLOAD DUP1 SWAP2 SUB SWAP1 REVERT JUMPDEST PUSH1 0x2 PUSH0 SWAP1 SLOAD SWAP1 PUSH2 0x100 EXP SWAP1 DIV PUSH20 0xFFFFFFFFFFFFFFFFFFFFFFFFFFFFFFFFFFFFFFFF AND PUSH20 0xFFFFFFFFFFFFFFFFFFFFFFFFFFFFFFFFFFFFFFFF AND PUSH4 0x65A6CC2E PUSH1 0x40 MLOAD DUP2 PUSH4 0xFFFFFFFF AND PUSH1 0xE0 SHL DUP2 MSTORE PUSH1 0x4 ADD PUSH0 PUSH1 0x40 MLOAD DUP1 DUP4 SUB DUP2 PUSH0 DUP8 DUP1 EXTCODESIZE ISZERO DUP1 ISZERO PUSH2 0x10F7 JUMPI PUSH0 PUSH0 REVERT JUMPDEST POP GAS CALL ISZERO DUP1 ISZERO PUSH2 0x1109 JUMPI RETURNDATASIZE PUSH0 PUSH0 RETURNDATACOPY RETURNDATASIZE PUSH0 REVERT JUMPDEST POP POP POP POP JUMP JUMPDEST PUSH0 PUSH0 SWAP1 SLOAD SWAP1 PUSH2 0x100 EXP SWAP1 DIV PUSH20 0xFFFFFFFFFFFFFFFFFFFFFFFFFFFFFFFFFFFFFFFF AND PUSH20 0xFFFFFFFFFFFFFFFFFFFFFFFFFFFFFFFFFFFFFFFF AND CALLER PUSH20 0xFFFFFFFFFFFFFFFFFFFFFFFFFFFFFFFFFFFFFFFF AND EQ PUSH2 0x119D JUMPI PUSH1 0x40 MLOAD PUSH32 0x8C379A000000000000000000000000000000000000000000000000000000000 DUP2 MSTORE PUSH1 0x4 ADD PUSH2 0x1194 SWAP1 PUSH2 0x1A29 JUMP JUMPDEST PUSH1 0x40 MLOAD DUP1 SWAP2 SUB SWAP1 REVERT JUMPDEST PUSH0 PUSH20 0xFFFFFFFFFFFFFFFFFFFFFFFFFFFFFFFFFFFFFFFF AND DUP2 PUSH20 0xFFFFFFFFFFFFFFFFFFFFFFFFFFFFFFFFFFFFFFFF AND SUB PUSH2 0x120B JUMPI PUSH1 0x40 MLOAD PUSH32 0x8C379A000000000000000000000000000000000000000000000000000000000 DUP2 MSTORE PUSH1 0x4 ADD PUSH2 0x1202 SWAP1 PUSH2 0x1BCA JUMP JUMPDEST PUSH1 0x40 MLOAD DUP1 SWAP2 SUB SWAP1 REVERT JUMPDEST DUP1 PUSH20 0xFFFFFFFFFFFFFFFFFFFFFFFFFFFFFFFFFFFFFFFF AND PUSH2 0x8FC SELFBALANCE SWAP1 DUP2 ISZERO MUL SWAP1 PUSH1 0x40 MLOAD PUSH0 PUSH1 0x40 MLOAD DUP1 DUP4 SUB DUP2 DUP6 DUP9 DUP9 CALL SWAP4 POP POP POP POP ISZERO DUP1 ISZERO PUSH2 0x124E JUMPI RETURNDATASIZE PUSH0 PUSH0 RETURNDATACOPY RETURNDATASIZE PUSH0 REVERT JUMPDEST POP POP JUMP JUMPDEST PUSH0 PUSH1 0x5 PUSH0 PUSH1 0x4 PUSH0 DUP6 PUSH20 0xFFFFFFFFFFFFFFFFFFFFFFFFFFFFFFFFFFFFFFFF AND PUSH20 0xFFFFFFFFFFFFFFFFFFFFFFFFFFFFFFFFFFFFFFFF AND DUP2 MSTORE PUSH1 0x20 ADD SWAP1 DUP2 MSTORE PUSH1 0x20 ADD PUSH0 KECCAK256 SLOAD DUP2 MSTORE PUSH1 0x20 ADD SWAP1 DUP2 MSTORE PUSH1 0x20 ADD PUSH0 KECCAK256 PUSH1 0x1 ADD SLOAD SWAP1 POP SWAP2 SWAP1 POP JUMP JUMPDEST DUP3 DUP1 SLOAD DUP3 DUP3 SSTORE SWAP1 PUSH0 MSTORE PUSH1 0x20 PUSH0 KECCAK256 SWAP1 PUSH1 0x4 MUL DUP2 ADD SWAP3 DUP3 ISZERO PUSH2 0x1337 JUMPI PUSH0 MSTORE PUSH1 0x20 PUSH0 KECCAK256 SWAP2 PUSH1 0x4 MUL DUP3 ADD JUMPDEST DUP3 DUP2 GT ISZERO PUSH2 0x1336 JUMPI DUP3 DUP3 PUSH0 DUP3 ADD SLOAD DUP2 PUSH0 ADD SSTORE PUSH1 0x1 DUP3 ADD SLOAD DUP2 PUSH1 0x1 ADD SSTORE PUSH1 0x2 DUP3 ADD SLOAD DUP2 PUSH1 0x2 ADD SSTORE PUSH1 0x3 DUP3 ADD PUSH0 SWAP1 SLOAD SWAP1 PUSH2 0x100 EXP SWAP1 DIV PUSH1 0xFF AND DUP2 PUSH1 0x3 ADD PUSH0 PUSH2 0x100 EXP DUP2 SLOAD DUP2 PUSH1 0xFF MUL NOT AND SWAP1 DUP4 PUSH1 0xFF AND MUL OR SWAP1 SSTORE POP POP POP SWAP2 PUSH1 0x4 ADD SWAP2 SWAP1 PUSH1 0x4 ADD SWAP1 PUSH2 0x12D3 JUMP JUMPDEST JUMPDEST POP SWAP1 POP PUSH2 0x1344 SWAP2 SWAP1 PUSH2 0x1348 JUMP JUMPDEST POP SWAP1 JUMP JUMPDEST JUMPDEST DUP1 DUP3 GT ISZERO PUSH2 0x1382 JUMPI PUSH0 PUSH0 DUP3 ADD PUSH0 SWAP1 SSTORE PUSH1 0x1 DUP3 ADD PUSH0 SWAP1 SSTORE PUSH1 0x2 DUP3 ADD PUSH0 SWAP1 SSTORE PUSH1 0x3 DUP3 ADD PUSH0 PUSH2 0x100 EXP DUP2 SLOAD SWAP1 PUSH1 0xFF MUL NOT AND SWAP1 SSTORE POP PUSH1 0x4 ADD PUSH2 0x1349 JUMP JUMPDEST POP SWAP1 JUMP JUMPDEST PUSH0 PUSH0 REVERT JUMPDEST PUSH0 DUP2 ISZERO ISZERO SWAP1 POP SWAP2 SWAP1 POP JUMP JUMPDEST PUSH2 0x139E DUP2 PUSH2 0x138A JUMP JUMPDEST DUP2 EQ PUSH2 0x13A8 JUMPI PUSH0 PUSH0 REVERT JUMPDEST POP JUMP JUMPDEST PUSH0 DUP2 CALLDATALOAD SWAP1 POP PUSH2 0x13B9 DUP2 PUSH2 0x1395 JUMP JUMPDEST SWAP3 SWAP2 POP POP JUMP JUMPDEST PUSH0 PUSH1 0x20 DUP3 DUP5 SUB SLT ISZERO PUSH2 0x13D4 JUMPI PUSH2 0x13D3 PUSH2 0x1386 JUMP JUMPDEST JUMPDEST PUSH0 PUSH2 0x13E1 DUP5 DUP3 DUP6 ADD PUSH2 0x13AB JUMP JUMPDEST SWAP2 POP POP SWAP3 SWAP2 POP POP JUMP JUMPDEST PUSH0 PUSH20 0xFFFFFFFFFFFFFFFFFFFFFFFFFFFFFFFFFFFFFFFF DUP3 AND SWAP1 POP SWAP2 SWAP1 POP JUMP JUMPDEST PUSH0 PUSH2 0x1413 DUP3 PUSH2 0x13EA JUMP JUMPDEST SWAP1 POP SWAP2 SWAP1 POP JUMP JUMPDEST PUSH2 0x1423 DUP2 PUSH2 0x1409 JUMP JUMPDEST DUP2 EQ PUSH2 0x142D JUMPI PUSH0 PUSH0 REVERT JUMPDEST POP JUMP JUMPDEST PUSH0 DUP2 CALLDATALOAD SWAP1 POP PUSH2 0x143E DUP2 PUSH2 0x141A JUMP JUMPDEST SWAP3 SWAP2 POP POP JUMP JUMPDEST PUSH0 DUP2 SWAP1 POP SWAP2 SWAP1 POP JUMP JUMPDEST PUSH2 0x1456 DUP2 PUSH2 0x1444 JUMP JUMPDEST DUP2 EQ PUSH2 0x1460 JUMPI PUSH0 PUSH0 REVERT JUMPDEST POP JUMP JUMPDEST PUSH0 DUP2 CALLDATALOAD SWAP1 POP PUSH2 0x1471 DUP2 PUSH2 0x144D JUMP JUMPDEST SWAP3 SWAP2 POP POP JUMP JUMPDEST PUSH0 PUSH0 PUSH1 0x40 DUP4 DUP6 SUB SLT ISZERO PUSH2 0x148D JUMPI PUSH2 0x148C PUSH2 0x1386 JUMP JUMPDEST JUMPDEST PUSH0 PUSH2 0x149A DUP6 DUP3 DUP7 ADD PUSH2 0x1430 JUMP JUMPDEST SWAP3 POP POP PUSH1 0x20 PUSH2 0x14AB DUP6 DUP3 DUP7 ADD PUSH2 0x1463 JUMP JUMPDEST SWAP2 POP POP SWAP3 POP SWAP3 SWAP1 POP JUMP JUMPDEST PUSH2 0x14BE DUP2 PUSH2 0x1444 JUMP JUMPDEST DUP3 MSTORE POP POP JUMP JUMPDEST PUSH0 PUSH1 0x60 DUP3 ADD SWAP1 POP PUSH2 0x14D7 PUSH0 DUP4 ADD DUP7 PUSH2 0x14B5 JUMP JUMPDEST PUSH2 0x14E4 PUSH1 0x20 DUP4 ADD DUP6 PUSH2 0x14B5 JUMP JUMPDEST PUSH2 0x14F1 PUSH1 0x40 DUP4 ADD DUP5 PUSH2 0x14B5 JUMP JUMPDEST SWAP5 SWAP4 POP POP POP POP JUMP JUMPDEST PUSH0 PUSH1 0x20 DUP3 DUP5 SUB SLT ISZERO PUSH2 0x150E JUMPI PUSH2 0x150D PUSH2 0x1386 JUMP JUMPDEST JUMPDEST PUSH0 PUSH2 0x151B DUP5 DUP3 DUP6 ADD PUSH2 0x1430 JUMP JUMPDEST SWAP2 POP POP SWAP3 SWAP2 POP POP JUMP JUMPDEST PUSH0 PUSH1 0x20 DUP3 ADD SWAP1 POP PUSH2 0x1537 PUSH0 DUP4 ADD DUP5 PUSH2 0x14B5 JUMP JUMPDEST SWAP3 SWAP2 POP POP JUMP JUMPDEST PUSH0 PUSH1 0x20 DUP3 DUP5 SUB SLT ISZERO PUSH2 0x1552 JUMPI PUSH2 0x1551 PUSH2 0x1386 JUMP JUMPDEST JUMPDEST PUSH0 PUSH2 0x155F DUP5 DUP3 DUP6 ADD PUSH2 0x1463 JUMP JUMPDEST SWAP2 POP POP SWAP3 SWAP2 POP POP JUMP JUMPDEST PUSH2 0x1571 DUP2 PUSH2 0x1409 JUMP JUMPDEST DUP3 MSTORE POP POP JUMP JUMPDEST PUSH2 0x1580 DUP2 PUSH2 0x138A JUMP JUMPDEST DUP3 MSTORE POP POP JUMP JUMPDEST PUSH0 PUSH1 0x60 DUP3 ADD SWAP1 POP PUSH2 0x1599 PUSH0 DUP4 ADD DUP7 PUSH2 0x1568 JUMP JUMPDEST PUSH2 0x15A6 PUSH1 0x20 DUP4 ADD DUP6 PUSH2 0x14B5 JUMP JUMPDEST PUSH2 0x15B3 PUSH1 0x40 DUP4 ADD DUP5 PUSH2 0x1577 JUMP JUMPDEST SWAP5 SWAP4 POP POP POP POP JUMP JUMPDEST PUSH0 PUSH1 0xFF DUP3 AND SWAP1 POP SWAP2 SWAP1 POP JUMP JUMPDEST PUSH2 0x15D0 DUP2 PUSH2 0x15BB JUMP JUMPDEST DUP2 EQ PUSH2 0x15DA JUMPI PUSH0 PUSH0 REVERT JUMPDEST POP JUMP JUMPDEST PUSH0 DUP2 CALLDATALOAD SWAP1 POP PUSH2 0x15EB DUP2 PUSH2 0x15C7 JUMP JUMPDEST SWAP3 SWAP2 POP POP JUMP JUMPDEST PUSH0 PUSH1 0x20 DUP3 DUP5 SUB SLT ISZERO PUSH2 0x1606 JUMPI PUSH2 0x1605 PUSH2 0x1386 JUMP JUMPDEST JUMPDEST PUSH0 PUSH2 0x1613 DUP5 DUP3 DUP6 ADD PUSH2 0x15DD JUMP JUMPDEST SWAP2 POP POP SWAP3 SWAP2 POP POP JUMP JUMPDEST PUSH0 PUSH1 0x40 DUP3 ADD SWAP1 POP PUSH2 0x162F PUSH0 DUP4 ADD DUP6 PUSH2 0x14B5 JUMP JUMPDEST PUSH2 0x163C PUSH1 0x20 DUP4 ADD DUP5 PUSH2 0x1577 JUMP JUMPDEST SWAP4 SWAP3 POP POP POP JUMP JUMPDEST PUSH0 PUSH1 0x20 DUP3 ADD SWAP1 POP PUSH2 0x1656 PUSH0 DUP4 ADD DUP5 PUSH2 0x1568 JUMP JUMPDEST SWAP3 SWAP2 POP POP JUMP JUMPDEST PUSH0 PUSH0 PUSH1 0x40 DUP4 DUP6 SUB SLT ISZERO PUSH2 0x1672 JUMPI PUSH2 0x1671 PUSH2 0x1386 JUMP JUMPDEST JUMPDEST PUSH0 PUSH2 0x167F DUP6 DUP3 DUP7 ADD PUSH2 0x15DD JUMP JUMPDEST SWAP3 POP POP PUSH1 0x20 PUSH2 0x1690 DUP6 DUP3 DUP7 ADD PUSH2 0x1463 JUMP JUMPDEST SWAP2 POP POP SWAP3 POP SWAP3 SWAP1 POP JUMP JUMPDEST PUSH2 0x16A3 DUP2 PUSH2 0x15BB JUMP JUMPDEST DUP3 MSTORE POP POP JUMP JUMPDEST PUSH0 PUSH1 0x20 DUP3 ADD SWAP1 POP PUSH2 0x16BC PUSH0 DUP4 ADD DUP5 PUSH2 0x169A JUMP JUMPDEST SWAP3 SWAP2 POP POP JUMP JUMPDEST PUSH0 PUSH2 0x16CC DUP3 PUSH2 0x13EA JUMP JUMPDEST SWAP1 POP SWAP2 SWAP1 POP JUMP JUMPDEST PUSH2 0x16DC DUP2 PUSH2 0x16C2 JUMP JUMPDEST DUP2 EQ PUSH2 0x16E6 JUMPI PUSH0 PUSH0 REVERT JUMPDEST POP JUMP JUMPDEST PUSH0 DUP2 CALLDATALOAD SWAP1 POP PUSH2 0x16F7 DUP2 PUSH2 0x16D3 JUMP JUMPDEST SWAP3 SWAP2 POP POP JUMP JUMPDEST PUSH0 PUSH1 0x20 DUP3 DUP5 SUB SLT ISZERO PUSH2 0x1712 JUMPI PUSH2 0x1711 PUSH2 0x1386 JUMP JUMPDEST JUMPDEST PUSH0 PUSH2 0x171F DUP5 DUP3 DUP6 ADD PUSH2 0x16E9 JUMP JUMPDEST SWAP2 POP POP SWAP3 SWAP2 POP POP JUMP JUMPDEST PUSH0 DUP3 DUP3 MSTORE PUSH1 0x20 DUP3 ADD SWAP1 POP SWAP3 SWAP2 POP POP JUMP JUMPDEST PUSH32 0x436F6E7472616374205061757365640000000000000000000000000000000000 PUSH0 DUP3 ADD MSTORE POP JUMP JUMPDEST PUSH0 PUSH2 0x176C PUSH1 0xF DUP4 PUSH2 0x1728 JUMP JUMPDEST SWAP2 POP PUSH2 0x1777 DUP3 PUSH2 0x1738 JUMP JUMPDEST PUSH1 0x20 DUP3 ADD SWAP1 POP SWAP2 SWAP1 POP JUMP JUMPDEST PUSH0 PUSH1 0x20 DUP3 ADD SWAP1 POP DUP2 DUP2 SUB PUSH0 DUP4 ADD MSTORE PUSH2 0x1799 DUP2 PUSH2 0x1760 JUMP JUMPDEST SWAP1 POP SWAP2 SWAP1 POP JUMP JUMPDEST PUSH32 0x4E6F205265656E7472616E63792C706C73207761697400000000000000000000 PUSH0 DUP3 ADD MSTORE POP JUMP JUMPDEST PUSH0 PUSH2 0x17D4 PUSH1 0x16 DUP4 PUSH2 0x1728 JUMP JUMPDEST SWAP2 POP PUSH2 0x17DF DUP3 PUSH2 0x17A0 JUMP JUMPDEST PUSH1 0x20 DUP3 ADD SWAP1 POP SWAP2 SWAP1 POP JUMP JUMPDEST PUSH0 PUSH1 0x20 DUP3 ADD SWAP1 POP DUP2 DUP2 SUB PUSH0 DUP4 ADD MSTORE PUSH2 0x1801 DUP2 PUSH2 0x17C8 JUMP JUMPDEST SWAP1 POP SWAP2 SWAP1 POP JUMP JUMPDEST PUSH32 0x53656E64206D6F726520424E4220746F20627579205450540000000000000000 PUSH0 DUP3 ADD MSTORE POP JUMP JUMPDEST PUSH0 PUSH2 0x183C PUSH1 0x18 DUP4 PUSH2 0x1728 JUMP JUMPDEST SWAP2 POP PUSH2 0x1847 DUP3 PUSH2 0x1808 JUMP JUMPDEST PUSH1 0x20 DUP3 ADD SWAP1 POP SWAP2 SWAP1 POP JUMP JUMPDEST PUSH0 PUSH1 0x20 DUP3 ADD SWAP1 POP DUP2 DUP2 SUB PUSH0 DUP4 ADD MSTORE PUSH2 0x1869 DUP2 PUSH2 0x1830 JUMP JUMPDEST SWAP1 POP SWAP2 SWAP1 POP JUMP JUMPDEST PUSH32 0x496E76616C69642064617461206C656E67746800000000000000000000000000 PUSH0 DUP3 ADD MSTORE POP JUMP JUMPDEST PUSH0 PUSH2 0x18A4 PUSH1 0x13 DUP4 PUSH2 0x1728 JUMP JUMPDEST SWAP2 POP PUSH2 0x18AF DUP3 PUSH2 0x1870 JUMP JUMPDEST PUSH1 0x20 DUP3 ADD SWAP1 POP SWAP2 SWAP1 POP JUMP JUMPDEST PUSH0 PUSH1 0x20 DUP3 ADD SWAP1 POP DUP2 DUP2 SUB PUSH0 DUP4 ADD MSTORE PUSH2 0x18D1 DUP2 PUSH2 0x1898 JUMP JUMPDEST SWAP1 POP SWAP2 SWAP1 POP JUMP JUMPDEST PUSH32 0x4E487B7100000000000000000000000000000000000000000000000000000000 PUSH0 MSTORE PUSH1 0x11 PUSH1 0x4 MSTORE PUSH1 0x24 PUSH0 REVERT JUMPDEST PUSH0 PUSH2 0x190F DUP3 PUSH2 0x1444 JUMP JUMPDEST SWAP2 POP PUSH32 0xFFFFFFFFFFFFFFFFFFFFFFFFFFFFFFFFFFFFFFFFFFFFFFFFFFFFFFFFFFFFFFFF DUP3 SUB PUSH2 0x1941 JUMPI PUSH2 0x1940 PUSH2 0x18D8 JUMP JUMPDEST JUMPDEST PUSH1 0x1 DUP3 ADD SWAP1 POP SWAP2 SWAP1 POP JUMP JUMPDEST PUSH32 0x4E487B7100000000000000000000000000000000000000000000000000000000 PUSH0 MSTORE PUSH1 0x32 PUSH1 0x4 MSTORE PUSH1 0x24 PUSH0 REVERT JUMPDEST PUSH0 DUP2 MLOAD SWAP1 POP PUSH2 0x1987 DUP2 PUSH2 0x144D JUMP JUMPDEST SWAP3 SWAP2 POP POP JUMP JUMPDEST PUSH0 DUP2 MLOAD SWAP1 POP PUSH2 0x199B DUP2 PUSH2 0x1395 JUMP JUMPDEST SWAP3 SWAP2 POP POP JUMP JUMPDEST PUSH0 PUSH0 PUSH1 0x40 DUP4 DUP6 SUB SLT ISZERO PUSH2 0x19B7 JUMPI PUSH2 0x19B6 PUSH2 0x1386 JUMP JUMPDEST JUMPDEST PUSH0 PUSH2 0x19C4 DUP6 DUP3 DUP7 ADD PUSH2 0x1979 JUMP JUMPDEST SWAP3 POP POP PUSH1 0x20 PUSH2 0x19D5 DUP6 DUP3 DUP7 ADD PUSH2 0x198D JUMP JUMPDEST SWAP2 POP POP SWAP3 POP SWAP3 SWAP1 POP JUMP JUMPDEST PUSH32 0x4F6E6C79206F776E657200000000000000000000000000000000000000000000 PUSH0 DUP3 ADD MSTORE POP JUMP JUMPDEST PUSH0 PUSH2 0x1A13 PUSH1 0xA DUP4 PUSH2 0x1728 JUMP JUMPDEST SWAP2 POP PUSH2 0x1A1E DUP3 PUSH2 0x19DF JUMP JUMPDEST PUSH1 0x20 DUP3 ADD SWAP1 POP SWAP2 SWAP1 POP JUMP JUMPDEST PUSH0 PUSH1 0x20 DUP3 ADD SWAP1 POP DUP2 DUP2 SUB PUSH0 DUP4 ADD MSTORE PUSH2 0x1A40 DUP2 PUSH2 0x1A07 JUMP JUMPDEST SWAP1 POP SWAP2 SWAP1 POP JUMP JUMPDEST PUSH32 0x4E487B7100000000000000000000000000000000000000000000000000000000 PUSH0 MSTORE PUSH1 0x12 PUSH1 0x4 MSTORE PUSH1 0x24 PUSH0 REVERT JUMPDEST PUSH0 PUSH2 0x1A7E DUP3 PUSH2 0x1444 JUMP JUMPDEST SWAP2 POP PUSH2 0x1A89 DUP4 PUSH2 0x1444 JUMP JUMPDEST SWAP3 POP DUP3 PUSH2 0x1A99 JUMPI PUSH2 0x1A98 PUSH2 0x1A47 JUMP JUMPDEST JUMPDEST DUP3 DUP3 DIV SWAP1 POP SWAP3 SWAP2 POP POP JUMP JUMPDEST PUSH0 PUSH2 0x1AAE DUP3 PUSH2 0x1444 JUMP JUMPDEST SWAP2 POP PUSH2 0x1AB9 DUP4 PUSH2 0x1444 JUMP JUMPDEST SWAP3 POP DUP3 DUP3 MUL PUSH2 0x1AC7 DUP2 PUSH2 0x1444 JUMP JUMPDEST SWAP2 POP DUP3 DUP3 DIV DUP5 EQ DUP4 ISZERO OR PUSH2 0x1ADE JUMPI PUSH2 0x1ADD PUSH2 0x18D8 JUMP JUMPDEST JUMPDEST POP SWAP3 SWAP2 POP POP JUMP JUMPDEST PUSH32 0x496E76616C696420757365722049440000000000000000000000000000000000 PUSH0 DUP3 ADD MSTORE POP JUMP JUMPDEST PUSH0 PUSH2 0x1B19 PUSH1 0xF DUP4 PUSH2 0x1728 JUMP JUMPDEST SWAP2 POP PUSH2 0x1B24 DUP3 PUSH2 0x1AE5 JUMP JUMPDEST PUSH1 0x20 DUP3 ADD SWAP1 POP SWAP2 SWAP1 POP JUMP JUMPDEST PUSH0 PUSH1 0x20 DUP3 ADD SWAP1 POP DUP2 DUP2 SUB PUSH0 DUP4 ADD MSTORE PUSH2 0x1B46 DUP2 PUSH2 0x1B0D JUMP JUMPDEST SWAP1 POP SWAP2 SWAP1 POP JUMP JUMPDEST PUSH0 PUSH2 0x1B57 DUP3 PUSH2 0x1444 JUMP JUMPDEST SWAP2 POP PUSH2 0x1B62 DUP4 PUSH2 0x1444 JUMP JUMPDEST SWAP3 POP DUP3 DUP3 ADD SWAP1 POP DUP1 DUP3 GT ISZERO PUSH2 0x1B7A JUMPI PUSH2 0x1B79 PUSH2 0x18D8 JUMP JUMPDEST JUMPDEST SWAP3 SWAP2 POP POP JUMP JUMPDEST PUSH32 0x496E76616C696420616464726573730000000000000000000000000000000000 PUSH0 DUP3 ADD MSTORE POP JUMP JUMPDEST PUSH0 PUSH2 0x1BB4 PUSH1 0xF DUP4 PUSH2 0x1728 JUMP JUMPDEST SWAP2 POP PUSH2 0x1BBF DUP3 PUSH2 0x1B80 JUMP JUMPDEST PUSH1 0x20 DUP3 ADD SWAP1 POP SWAP2 SWAP1 POP JUMP JUMPDEST PUSH0 PUSH1 0x20 DUP3 ADD SWAP1 POP DUP2 DUP2 SUB PUSH0 DUP4 ADD MSTORE PUSH2 0x1BE1 DUP2 PUSH2 0x1BA8 JUMP JUMPDEST SWAP1 POP SWAP2 SWAP1 POP JUMP INVALID LOG2 PUSH5 0x6970667358 0x22 SLT KECCAK256 SHL 0x4D 0xAB 0xE9 0x4C ISZERO CREATE GAS DUP10 SWAP16 PUSH26 0x58ACB27643915D3AF790ED5AC004DED2BF024EA98E64736F6C63 NUMBER STOP ADDMOD 0x1E STOP CALLER "
				},
				"gasEstimates": {
					"creation": {
						"codeDepositCost": "1439600",
						"executionCost": "infinite",
						"totalCost": "infinite"
					},
					"external": {
						"": "infinite",
						"calcAmount(bool)": "infinite",
						"getPurchase(address,uint256)": "infinite",
						"getPurchaseCount(address)": "5087",
						"getThisStepPrice()": "4772",
						"getUsdBnbPrice()": "infinite",
						"getUserAddress(uint256)": "2880",
						"getUserId(address)": "2875",
						"getUserTPTBalance(address)": "5121",
						"grantPointsById(address,uint256)": "infinite",
						"owner()": "2618",
						"setIBNBPrice(address)": "26928",
						"setIBNBPriceMode()": "infinite",
						"setTPTPrice(uint8,uint256)": "25014",
						"setThisStep(uint8)": "26980",
						"thisStep()": "2627",
						"totalUsers()": "2447",
						"tptPrice(uint8)": "2783",
						"userId(address)": "2914",
						"users(uint256)": "infinite",
						"withdrawAll(address)": "infinite"
					},
					"internal": {
						"buyTPT(bool)": "infinite"
					}
				},
				"methodIdentifiers": {
					"calcAmount(bool)": "a52d981e",
					"getPurchase(address,uint256)": "2a2a92cc",
					"getPurchaseCount(address)": "31bbf555",
					"getThisStepPrice()": "672cbe1a",
					"getUsdBnbPrice()": "5b148f7b",
					"getUserAddress(uint256)": "90d976e2",
					"getUserId(address)": "2b956ff7",
					"getUserTPTBalance(address)": "fdbb6696",
					"grantPointsById(address,uint256)": "ca90d6e6",
					"owner()": "8da5cb5b",
					"setIBNBPrice(address)": "95e55748",
					"setIBNBPriceMode()": "d221954b",
					"setTPTPrice(uint8,uint256)": "a2f5546e",
					"setThisStep(uint8)": "7ce8a08e",
					"thisStep()": "ae243031",
					"totalUsers()": "bff1f9e1",
					"tptPrice(uint8)": "556a7579",
					"userId(address)": "376fe102",
					"users(uint256)": "365b98b2",
					"withdrawAll(address)": "fa09e630"
				}
			},
			"storageLayout": {
				"storage": [
					{
						"astId": 41,
						"contract": "contracts/PTPPreSale.sol:TPTPreSale",
						"label": "owner",
						"offset": 0,
						"slot": "0",
						"type": "t_address"
					},
					{
						"astId": 43,
						"contract": "contracts/PTPPreSale.sol:TPTPreSale",
						"label": "locked",
						"offset": 20,
						"slot": "0",
						"type": "t_bool"
					},
					{
						"astId": 45,
						"contract": "contracts/PTPPreSale.sol:TPTPreSale",
						"label": "thisStep",
						"offset": 21,
						"slot": "0",
						"type": "t_uint8"
					},
					{
						"astId": 49,
						"contract": "contracts/PTPPreSale.sol:TPTPreSale",
						"label": "tptPrice",
						"offset": 0,
						"slot": "1",
						"type": "t_mapping(t_uint8,t_uint256)"
					},
					{
						"astId": 52,
						"contract": "contracts/PTPPreSale.sol:TPTPreSale",
						"label": "iBNBPrice",
						"offset": 0,
						"slot": "2",
						"type": "t_contract(IBNBPrice)36"
					},
					{
						"astId": 54,
						"contract": "contracts/PTPPreSale.sol:TPTPreSale",
						"label": "totalUsers",
						"offset": 0,
						"slot": "3",
						"type": "t_uint256"
					},
					{
						"astId": 78,
						"contract": "contracts/PTPPreSale.sol:TPTPreSale",
						"label": "userId",
						"offset": 0,
						"slot": "4",
						"type": "t_mapping(t_address,t_uint256)"
					},
					{
						"astId": 83,
						"contract": "contracts/PTPPreSale.sol:TPTPreSale",
						"label": "users",
						"offset": 0,
						"slot": "5",
						"type": "t_mapping(t_uint256,t_struct(UserInfo)74_storage)"
					}
				],
				"types": {
					"t_address": {
						"encoding": "inplace",
						"label": "address",
						"numberOfBytes": "20"
					},
					"t_array(t_struct(Purchase)63_storage)dyn_storage": {
						"base": "t_struct(Purchase)63_storage",
						"encoding": "dynamic_array",
						"label": "struct TPTPreSale.Purchase[]",
						"numberOfBytes": "32"
					},
					"t_bool": {
						"encoding": "inplace",
						"label": "bool",
						"numberOfBytes": "1"
					},
					"t_contract(IBNBPrice)36": {
						"encoding": "inplace",
						"label": "contract IBNBPrice",
						"numberOfBytes": "20"
					},
					"t_mapping(t_address,t_uint256)": {
						"encoding": "mapping",
						"key": "t_address",
						"label": "mapping(address => uint256)",
						"numberOfBytes": "32",
						"value": "t_uint256"
					},
					"t_mapping(t_uint256,t_struct(UserInfo)74_storage)": {
						"encoding": "mapping",
						"key": "t_uint256",
						"label": "mapping(uint256 => struct TPTPreSale.UserInfo)",
						"numberOfBytes": "32",
						"value": "t_struct(UserInfo)74_storage"
					},
					"t_mapping(t_uint8,t_uint256)": {
						"encoding": "mapping",
						"key": "t_uint8",
						"label": "mapping(uint8 => uint256)",
						"numberOfBytes": "32",
						"value": "t_uint256"
					},
					"t_struct(Purchase)63_storage": {
						"encoding": "inplace",
						"label": "struct TPTPreSale.Purchase",
						"members": [
							{
								"astId": 56,
								"contract": "contracts/PTPPreSale.sol:TPTPreSale",
								"label": "timestamp",
								"offset": 0,
								"slot": "0",
								"type": "t_uint256"
							},
							{
								"astId": 58,
								"contract": "contracts/PTPPreSale.sol:TPTPreSale",
								"label": "bnbAmount",
								"offset": 0,
								"slot": "1",
								"type": "t_uint256"
							},
							{
								"astId": 60,
								"contract": "contracts/PTPPreSale.sol:TPTPreSale",
								"label": "tptAmount",
								"offset": 0,
								"slot": "2",
								"type": "t_uint256"
							},
							{
								"astId": 62,
								"contract": "contracts/PTPPreSale.sol:TPTPreSale",
								"label": "step",
								"offset": 0,
								"slot": "3",
								"type": "t_uint8"
							}
						],
						"numberOfBytes": "128"
					},
					"t_struct(UserInfo)74_storage": {
						"encoding": "inplace",
						"label": "struct TPTPreSale.UserInfo",
						"members": [
							{
								"astId": 65,
								"contract": "contracts/PTPPreSale.sol:TPTPreSale",
								"label": "walletAddress",
								"offset": 0,
								"slot": "0",
								"type": "t_address"
							},
							{
								"astId": 67,
								"contract": "contracts/PTPPreSale.sol:TPTPreSale",
								"label": "tptBalance",
								"offset": 0,
								"slot": "1",
								"type": "t_uint256"
							},
							{
								"astId": 69,
								"contract": "contracts/PTPPreSale.sol:TPTPreSale",
								"label": "hasOffer",
								"offset": 0,
								"slot": "2",
								"type": "t_bool"
							},
							{
								"astId": 73,
								"contract": "contracts/PTPPreSale.sol:TPTPreSale",
								"label": "purchaseList",
								"offset": 0,
								"slot": "3",
								"type": "t_array(t_struct(Purchase)63_storage)dyn_storage"
							}
						],
						"numberOfBytes": "128"
					},
					"t_uint256": {
						"encoding": "inplace",
						"label": "uint256",
						"numberOfBytes": "32"
					},
					"t_uint8": {
						"encoding": "inplace",
						"label": "uint8",
						"numberOfBytes": "1"
					}
				}
			},
			"userdoc": {
				"kind": "user",
				"methods": {},
				"version": 1
			}
		}
	}
}