{
	"contracts/TPTPreSale.sol": {
		"TPTPreSale": {
			"abi": [
				{
					"inputs": [
						{
							"internalType": "address payable",
							"name": "_priceContract",
							"type": "address"
						}
					],
					"stateMutability": "nonpayable",
					"type": "constructor"
				},
				{
					"stateMutability": "payable",
					"type": "fallback"
				},
				{
					"inputs": [
						{
							"internalType": "bool",
							"name": "_useOffer",
							"type": "bool"
						}
					],
					"name": "calcAmount",
					"outputs": [
						{
							"internalType": "uint256",
							"name": "",
							"type": "uint256"
						}
					],
					"stateMutability": "payable",
					"type": "function"
				},
				{
					"inputs": [],
					"name": "getPrice",
					"outputs": [
						{
							"internalType": "uint256",
							"name": "",
							"type": "uint256"
						}
					],
					"stateMutability": "payable",
					"type": "function"
				},
				{
					"inputs": [],
					"name": "getUsdBnbPrice",
					"outputs": [
						{
							"internalType": "uint256",
							"name": "_lastPrice",
							"type": "uint256"
						}
					],
					"stateMutability": "payable",
					"type": "function"
				},
				{
					"inputs": [],
					"name": "owner",
					"outputs": [
						{
							"internalType": "address",
							"name": "",
							"type": "address"
						}
					],
					"stateMutability": "view",
					"type": "function"
				},
				{
					"inputs": [],
					"name": "priceContract",
					"outputs": [
						{
							"internalType": "address payable",
							"name": "",
							"type": "address"
						}
					],
					"stateMutability": "view",
					"type": "function"
				},
				{
					"inputs": [],
					"name": "thisStep",
					"outputs": [
						{
							"internalType": "uint8",
							"name": "",
							"type": "uint8"
						}
					],
					"stateMutability": "view",
					"type": "function"
				},
				{
					"inputs": [],
					"name": "totalUsers",
					"outputs": [
						{
							"internalType": "uint256",
							"name": "",
							"type": "uint256"
						}
					],
					"stateMutability": "view",
					"type": "function"
				},
				{
					"inputs": [
						{
							"internalType": "uint8",
							"name": "",
							"type": "uint8"
						}
					],
					"name": "tptPrice",
					"outputs": [
						{
							"internalType": "uint256",
							"name": "",
							"type": "uint256"
						}
					],
					"stateMutability": "view",
					"type": "function"
				},
				{
					"inputs": [
						{
							"internalType": "address",
							"name": "",
							"type": "address"
						}
					],
					"name": "userId",
					"outputs": [
						{
							"internalType": "uint256",
							"name": "",
							"type": "uint256"
						}
					],
					"stateMutability": "view",
					"type": "function"
				},
				{
					"inputs": [
						{
							"internalType": "uint256",
							"name": "",
							"type": "uint256"
						}
					],
					"name": "users",
					"outputs": [
						{
							"internalType": "address",
							"name": "walletAddress",
							"type": "address"
						},
						{
							"internalType": "uint256",
							"name": "tptBalance",
							"type": "uint256"
						},
						{
							"internalType": "bool",
							"name": "hasOffer",
							"type": "bool"
						}
					],
					"stateMutability": "view",
					"type": "function"
				},
				{
					"stateMutability": "payable",
					"type": "receive"
				}
			],
			"devdoc": {
				"kind": "dev",
				"methods": {},
				"version": 1
			},
			"evm": {
				"assembly": "    /* \"contracts/TPTPreSale.sol\":90:5218  contract TPTPreSale {... */\n  mstore(0x40, 0x80)\n    /* \"contracts/TPTPreSale.sol\":1132:1279  constructor( address payable _priceContract ) {... */\n  callvalue\n  dup1\n  iszero\n  tag_1\n  jumpi\n  revert(0x00, 0x00)\ntag_1:\n  pop\n  mload(0x40)\n  sub(codesize, bytecodeSize)\n  dup1\n  bytecodeSize\n  dup4\n  codecopy\n  dup2\n  dup2\n  add\n  0x40\n  mstore\n  dup2\n  add\n  swap1\n  tag_2\n  swap2\n  swap1\n  tag_3\n  jump\t// in\ntag_2:\n    /* \"contracts/TPTPreSale.sol\":1197:1207  msg.sender */\n  caller\n    /* \"contracts/TPTPreSale.sol\":1189:1194  owner */\n  0x01\n  0x00\n    /* \"contracts/TPTPreSale.sol\":1189:1207  owner = msg.sender */\n  0x0100\n  exp\n  dup2\n  sload\n  dup2\n  0xffffffffffffffffffffffffffffffffffffffff\n  mul\n  not\n  and\n  swap1\n  dup4\n  0xffffffffffffffffffffffffffffffffffffffff\n  and\n  mul\n  or\n  swap1\n  sstore\n  pop\n    /* \"contracts/TPTPreSale.sol\":1229:1230  0 */\n  0x00\n    /* \"contracts/TPTPreSale.sol\":1218:1226  thisStep */\n  0x01\n  0x15\n    /* \"contracts/TPTPreSale.sol\":1218:1230  thisStep = 0 */\n  0x0100\n  exp\n  dup2\n  sload\n  dup2\n  0xff\n  mul\n  not\n  and\n  swap1\n  dup4\n  0xff\n  and\n  mul\n  or\n  swap1\n  sstore\n  pop\n    /* \"contracts/TPTPreSale.sol\":1257:1271  _priceContract */\n  dup1\n    /* \"contracts/TPTPreSale.sol\":1241:1254  priceContract */\n  0x00\n  0x00\n    /* \"contracts/TPTPreSale.sol\":1241:1271  priceContract = _priceContract */\n  0x0100\n  exp\n  dup2\n  sload\n  dup2\n  0xffffffffffffffffffffffffffffffffffffffff\n  mul\n  not\n  and\n  swap1\n  dup4\n  0xffffffffffffffffffffffffffffffffffffffff\n  and\n  mul\n  or\n  swap1\n  sstore\n  pop\n    /* \"contracts/TPTPreSale.sol\":1132:1279  constructor( address payable _priceContract ) {... */\n  pop\n    /* \"contracts/TPTPreSale.sol\":90:5218  contract TPTPreSale {... */\n  jump(tag_6)\n    /* \"#utility.yul\":88:205   */\ntag_8:\n    /* \"#utility.yul\":197:198   */\n  0x00\n    /* \"#utility.yul\":194:195   */\n  0x00\n    /* \"#utility.yul\":187:199   */\n  revert\n    /* \"#utility.yul\":334:460   */\ntag_10:\n    /* \"#utility.yul\":371:378   */\n  0x00\n    /* \"#utility.yul\":411:453   */\n  0xffffffffffffffffffffffffffffffffffffffff\n    /* \"#utility.yul\":404:409   */\n  dup3\n    /* \"#utility.yul\":400:454   */\n  and\n    /* \"#utility.yul\":389:454   */\n  swap1\n  pop\n    /* \"#utility.yul\":334:460   */\n  swap2\n  swap1\n  pop\n  jump\t// out\n    /* \"#utility.yul\":466:570   */\ntag_11:\n    /* \"#utility.yul\":511:518   */\n  0x00\n    /* \"#utility.yul\":540:564   */\n  tag_20\n    /* \"#utility.yul\":558:563   */\n  dup3\n    /* \"#utility.yul\":540:564   */\n  tag_10\n  jump\t// in\ntag_20:\n    /* \"#utility.yul\":529:564   */\n  swap1\n  pop\n    /* \"#utility.yul\":466:570   */\n  swap2\n  swap1\n  pop\n  jump\t// out\n    /* \"#utility.yul\":576:714   */\ntag_12:\n    /* \"#utility.yul\":657:689   */\n  tag_22\n    /* \"#utility.yul\":683:688   */\n  dup2\n    /* \"#utility.yul\":657:689   */\n  tag_11\n  jump\t// in\ntag_22:\n    /* \"#utility.yul\":650:655   */\n  dup2\n    /* \"#utility.yul\":647:690   */\n  eq\n    /* \"#utility.yul\":637:708   */\n  tag_23\n  jumpi\n    /* \"#utility.yul\":704:705   */\n  0x00\n    /* \"#utility.yul\":701:702   */\n  0x00\n    /* \"#utility.yul\":694:706   */\n  revert\n    /* \"#utility.yul\":637:708   */\ntag_23:\n    /* \"#utility.yul\":576:714   */\n  pop\n  jump\t// out\n    /* \"#utility.yul\":720:879   */\ntag_13:\n    /* \"#utility.yul\":785:790   */\n  0x00\n    /* \"#utility.yul\":816:822   */\n  dup2\n    /* \"#utility.yul\":810:823   */\n  mload\n    /* \"#utility.yul\":801:823   */\n  swap1\n  pop\n    /* \"#utility.yul\":832:873   */\n  tag_25\n    /* \"#utility.yul\":867:872   */\n  dup2\n    /* \"#utility.yul\":832:873   */\n  tag_12\n  jump\t// in\ntag_25:\n    /* \"#utility.yul\":720:879   */\n  swap3\n  swap2\n  pop\n  pop\n  jump\t// out\n    /* \"#utility.yul\":885:1252   */\ntag_3:\n    /* \"#utility.yul\":963:969   */\n  0x00\n    /* \"#utility.yul\":1012:1014   */\n  0x20\n    /* \"#utility.yul\":1000:1009   */\n  dup3\n    /* \"#utility.yul\":991:998   */\n  dup5\n    /* \"#utility.yul\":987:1010   */\n  sub\n    /* \"#utility.yul\":983:1015   */\n  slt\n    /* \"#utility.yul\":980:1099   */\n  iszero\n  tag_27\n  jumpi\n    /* \"#utility.yul\":1018:1097   */\n  tag_28\n  tag_8\n  jump\t// in\ntag_28:\n    /* \"#utility.yul\":980:1099   */\ntag_27:\n    /* \"#utility.yul\":1138:1139   */\n  0x00\n    /* \"#utility.yul\":1163:1235   */\n  tag_29\n    /* \"#utility.yul\":1227:1234   */\n  dup5\n    /* \"#utility.yul\":1218:1224   */\n  dup3\n    /* \"#utility.yul\":1207:1216   */\n  dup6\n    /* \"#utility.yul\":1203:1225   */\n  add\n    /* \"#utility.yul\":1163:1235   */\n  tag_13\n  jump\t// in\ntag_29:\n    /* \"#utility.yul\":1153:1235   */\n  swap2\n  pop\n    /* \"#utility.yul\":1109:1245   */\n  pop\n    /* \"#utility.yul\":885:1252   */\n  swap3\n  swap2\n  pop\n  pop\n  jump\t// out\n    /* \"contracts/TPTPreSale.sol\":90:5218  contract TPTPreSale {... */\ntag_6:\n  dataSize(sub_0)\n  dup1\n  dataOffset(sub_0)\n  0x00\n  codecopy\n  0x00\n  return\nstop\n\nsub_0: assembly {\n        /* \"contracts/TPTPreSale.sol\":90:5218  contract TPTPreSale {... */\n      mstore(0x40, 0x80)\n      jumpi(tag_1, lt(calldatasize, 0x04))\n      shr(0xe0, calldataload(0x00))\n      dup1\n      0x98d5fdca\n      gt\n      tag_13\n      jumpi\n      dup1\n      0x98d5fdca\n      eq\n      tag_8\n      jumpi\n      dup1\n      0xa52d981e\n      eq\n      tag_9\n      jumpi\n      dup1\n      0xae243031\n      eq\n      tag_10\n      jumpi\n      dup1\n      0xae372ec1\n      eq\n      tag_11\n      jumpi\n      dup1\n      0xbff1f9e1\n      eq\n      tag_12\n      jumpi\n      jump(tag_2)\n    tag_13:\n      dup1\n      0x365b98b2\n      eq\n      tag_3\n      jumpi\n      dup1\n      0x376fe102\n      eq\n      tag_4\n      jumpi\n      dup1\n      0x556a7579\n      eq\n      tag_5\n      jumpi\n      dup1\n      0x5b148f7b\n      eq\n      tag_6\n      jumpi\n      dup1\n      0x8da5cb5b\n      eq\n      tag_7\n      jumpi\n      jump(tag_2)\n    tag_1:\n      jumpi(tag_2, calldatasize)\n        /* \"contracts/TPTPreSale.sol\":1434:1449  buyTPT( false ) */\n      tag_16\n        /* \"contracts/TPTPreSale.sol\":1442:1447  false */\n      0x00\n        /* \"contracts/TPTPreSale.sol\":1434:1440  buyTPT */\n      tag_17\n        /* \"contracts/TPTPreSale.sol\":1434:1449  buyTPT( false ) */\n      jump\t// in\n    tag_16:\n        /* \"contracts/TPTPreSale.sol\":90:5218  contract TPTPreSale {... */\n      stop\n    tag_2:\n        /* \"contracts/TPTPreSale.sol\":1339:1377  buyTPT( abi.decode(msg.data, (bool)) ) */\n      tag_20\n        /* \"contracts/TPTPreSale.sol\":1358:1366  msg.data */\n      0x00\n      calldatasize\n        /* \"contracts/TPTPreSale.sol\":1347:1375  abi.decode(msg.data, (bool)) */\n      dup2\n      add\n      swap1\n      tag_21\n      swap2\n      swap1\n      tag_22\n      jump\t// in\n    tag_21:\n        /* \"contracts/TPTPreSale.sol\":1339:1345  buyTPT */\n      tag_17\n        /* \"contracts/TPTPreSale.sol\":1339:1377  buyTPT( abi.decode(msg.data, (bool)) ) */\n      jump\t// in\n    tag_20:\n        /* \"contracts/TPTPreSale.sol\":90:5218  contract TPTPreSale {... */\n      stop\n        /* \"contracts/TPTPreSale.sol\":725:766  mapping(uint256 => UserInfo) public users */\n    tag_3:\n      callvalue\n      dup1\n      iszero\n      tag_23\n      jumpi\n      revert(0x00, 0x00)\n    tag_23:\n      pop\n      tag_24\n      0x04\n      dup1\n      calldatasize\n      sub\n      dup2\n      add\n      swap1\n      tag_25\n      swap2\n      swap1\n      tag_26\n      jump\t// in\n    tag_25:\n      tag_27\n      jump\t// in\n    tag_24:\n      mload(0x40)\n      tag_28\n      swap4\n      swap3\n      swap2\n      swap1\n      tag_29\n      jump\t// in\n    tag_28:\n      mload(0x40)\n      dup1\n      swap2\n      sub\n      swap1\n      return\n        /* \"contracts/TPTPreSale.sol\":677:718  mapping(address => uint256) public userId */\n    tag_4:\n      callvalue\n      dup1\n      iszero\n      tag_30\n      jumpi\n      revert(0x00, 0x00)\n    tag_30:\n      pop\n      tag_31\n      0x04\n      dup1\n      calldatasize\n      sub\n      dup2\n      add\n      swap1\n      tag_32\n      swap2\n      swap1\n      tag_33\n      jump\t// in\n    tag_32:\n      tag_34\n      jump\t// in\n    tag_31:\n      mload(0x40)\n      tag_35\n      swap2\n      swap1\n      tag_36\n      jump\t// in\n    tag_35:\n      mload(0x40)\n      dup1\n      swap2\n      sub\n      swap1\n      return\n        /* \"contracts/TPTPreSale.sol\":287:325  mapping(uint8 => uint) public tptPrice */\n    tag_5:\n      callvalue\n      dup1\n      iszero\n      tag_37\n      jumpi\n      revert(0x00, 0x00)\n    tag_37:\n      pop\n      tag_38\n      0x04\n      dup1\n      calldatasize\n      sub\n      dup2\n      add\n      swap1\n      tag_39\n      swap2\n      swap1\n      tag_40\n      jump\t// in\n    tag_39:\n      tag_41\n      jump\t// in\n    tag_38:\n      mload(0x40)\n      tag_42\n      swap2\n      swap1\n      tag_36\n      jump\t// in\n    tag_42:\n      mload(0x40)\n      dup1\n      swap2\n      sub\n      swap1\n      return\n        /* \"contracts/TPTPreSale.sol\":1981:2141  function getUsdBnbPrice() public payable returns ( uint _lastPrice){... */\n    tag_6:\n      tag_43\n      tag_44\n      jump\t// in\n    tag_43:\n      mload(0x40)\n      tag_45\n      swap2\n      swap1\n      tag_36\n      jump\t// in\n    tag_45:\n      mload(0x40)\n      dup1\n      swap2\n      sub\n      swap1\n      return\n        /* \"contracts/TPTPreSale.sol\":182:203  address public  owner */\n    tag_7:\n      callvalue\n      dup1\n      iszero\n      tag_46\n      jumpi\n      revert(0x00, 0x00)\n    tag_46:\n      pop\n      tag_47\n      tag_48\n      jump\t// in\n    tag_47:\n      mload(0x40)\n      tag_49\n      swap2\n      swap1\n      tag_50\n      jump\t// in\n    tag_49:\n      mload(0x40)\n      dup1\n      swap2\n      sub\n      swap1\n      return\n        /* \"contracts/TPTPreSale.sol\":1465:1973  function getPrice() external payable returns (uint256) {... */\n    tag_8:\n      tag_51\n      tag_52\n      jump\t// in\n    tag_51:\n      mload(0x40)\n      tag_53\n      swap2\n      swap1\n      tag_36\n      jump\t// in\n    tag_53:\n      mload(0x40)\n      dup1\n      swap2\n      sub\n      swap1\n      return\n        /* \"contracts/TPTPreSale.sol\":2151:2468  function calcAmount(bool _useOffer) public payable returns(uint) {... */\n    tag_9:\n      tag_54\n      0x04\n      dup1\n      calldatasize\n      sub\n      dup2\n      add\n      swap1\n      tag_55\n      swap2\n      swap1\n      tag_22\n      jump\t// in\n    tag_55:\n      tag_56\n      jump\t// in\n    tag_54:\n      mload(0x40)\n      tag_57\n      swap2\n      swap1\n      tag_36\n      jump\t// in\n    tag_57:\n      mload(0x40)\n      dup1\n      swap2\n      sub\n      swap1\n      return\n        /* \"contracts/TPTPreSale.sol\":259:280  uint8 public thisStep */\n    tag_10:\n      callvalue\n      dup1\n      iszero\n      tag_58\n      jumpi\n      revert(0x00, 0x00)\n    tag_58:\n      pop\n      tag_59\n      tag_60\n      jump\t// in\n    tag_59:\n      mload(0x40)\n      tag_61\n      swap2\n      swap1\n      tag_62\n      jump\t// in\n    tag_61:\n      mload(0x40)\n      dup1\n      swap2\n      sub\n      swap1\n      return\n        /* \"contracts/TPTPreSale.sol\":117:153  address payable public priceContract */\n    tag_11:\n      callvalue\n      dup1\n      iszero\n      tag_63\n      jumpi\n      revert(0x00, 0x00)\n    tag_63:\n      pop\n      tag_64\n      tag_65\n      jump\t// in\n    tag_64:\n      mload(0x40)\n      tag_66\n      swap2\n      swap1\n      tag_67\n      jump\t// in\n    tag_66:\n      mload(0x40)\n      dup1\n      swap2\n      sub\n      swap1\n      return\n        /* \"contracts/TPTPreSale.sol\":355:380  uint256 public totalUsers */\n    tag_12:\n      callvalue\n      dup1\n      iszero\n      tag_68\n      jumpi\n      revert(0x00, 0x00)\n    tag_68:\n      pop\n      tag_69\n      tag_70\n      jump\t// in\n    tag_69:\n      mload(0x40)\n      tag_71\n      swap2\n      swap1\n      tag_36\n      jump\t// in\n    tag_71:\n      mload(0x40)\n      dup1\n      swap2\n      sub\n      swap1\n      return\n        /* \"contracts/TPTPreSale.sol\":2497:3305  function buyTPT( bool _useOffer ) internal pauseable reentrancy {... */\n    tag_17:\n        /* \"contracts/TPTPreSale.sol\":928:929  0 */\n      0x00\n        /* \"contracts/TPTPreSale.sol\":916:924  thisStep */\n      0x01\n      0x15\n      swap1\n      sload\n      swap1\n      0x0100\n      exp\n      swap1\n      div\n      0xff\n      and\n        /* \"contracts/TPTPreSale.sol\":916:929  thisStep != 0 */\n      0xff\n      and\n      sub\n        /* \"contracts/TPTPreSale.sol\":908:949  require(thisStep != 0, \"Contract Paused\") */\n      tag_73\n      jumpi\n      mload(0x40)\n      0x08c379a000000000000000000000000000000000000000000000000000000000\n      dup2\n      mstore\n      0x04\n      add\n      tag_74\n      swap1\n      tag_75\n      jump\t// in\n    tag_74:\n      mload(0x40)\n      dup1\n      swap2\n      sub\n      swap1\n      revert\n    tag_73:\n        /* \"contracts/TPTPreSale.sol\":1025:1029  true */\n      0x01\n        /* \"contracts/TPTPreSale.sol\":1015:1029  locked != true */\n      iszero\n      iszero\n        /* \"contracts/TPTPreSale.sol\":1015:1021  locked */\n      0x01\n      0x14\n      swap1\n      sload\n      swap1\n      0x0100\n      exp\n      swap1\n      div\n      0xff\n      and\n        /* \"contracts/TPTPreSale.sol\":1015:1029  locked != true */\n      iszero\n      iszero\n      sub\n        /* \"contracts/TPTPreSale.sol\":1007:1055  require(locked != true,\"No Reentrancy,pls wait\") */\n      tag_77\n      jumpi\n      mload(0x40)\n      0x08c379a000000000000000000000000000000000000000000000000000000000\n      dup2\n      mstore\n      0x04\n      add\n      tag_78\n      swap1\n      tag_79\n      jump\t// in\n    tag_78:\n      mload(0x40)\n      dup1\n      swap2\n      sub\n      swap1\n      revert\n    tag_77:\n        /* \"contracts/TPTPreSale.sol\":1075:1079  true */\n      0x01\n        /* \"contracts/TPTPreSale.sol\":1066:1072  locked */\n      dup1\n      0x14\n        /* \"contracts/TPTPreSale.sol\":1066:1079  locked = true */\n      0x0100\n      exp\n      dup2\n      sload\n      dup2\n      0xff\n      mul\n      not\n      and\n      swap1\n      dup4\n      iszero\n      iszero\n      mul\n      or\n      swap1\n      sstore\n      pop\n        /* \"contracts/TPTPreSale.sol\":2594:2600  5*1e16 */\n      0xb1a2bc2ec50000\n        /* \"contracts/TPTPreSale.sol\":2581:2590  msg.value */\n      callvalue\n        /* \"contracts/TPTPreSale.sol\":2581:2600  msg.value >= 5*1e16 */\n      lt\n      iszero\n        /* \"contracts/TPTPreSale.sol\":2572:2630  require( msg.value >= 5*1e16 , \"Send more BNB to buy TPT\") */\n      tag_81\n      jumpi\n      mload(0x40)\n      0x08c379a000000000000000000000000000000000000000000000000000000000\n      dup2\n      mstore\n      0x04\n      add\n      tag_82\n      swap1\n      tag_83\n      jump\t// in\n    tag_82:\n      mload(0x40)\n      dup1\n      swap2\n      sub\n      swap1\n      revert\n    tag_81:\n        /* \"contracts/TPTPreSale.sol\":2669:2671  32 */\n      0x20\n        /* \"contracts/TPTPreSale.sol\":2650:2658  msg.data */\n      0x00\n      calldatasize\n        /* \"contracts/TPTPreSale.sol\":2650:2665  msg.data.length */\n      swap1\n      pop\n        /* \"contracts/TPTPreSale.sol\":2650:2671  msg.data.length >= 32 */\n      lt\n      iszero\n        /* \"contracts/TPTPreSale.sol\":2641:2696  require( msg.data.length >= 32 , \"Invalid data length\") */\n      tag_84\n      jumpi\n      mload(0x40)\n      0x08c379a000000000000000000000000000000000000000000000000000000000\n      dup2\n      mstore\n      0x04\n      add\n      tag_85\n      swap1\n      tag_86\n      jump\t// in\n    tag_85:\n      mload(0x40)\n      dup1\n      swap2\n      sub\n      swap1\n      revert\n    tag_84:\n        /* \"contracts/TPTPreSale.sol\":2707:2721  uint tptAmount */\n      0x00\n        /* \"contracts/TPTPreSale.sol\":2724:2747  calcAmount( _useOffer ) */\n      tag_87\n        /* \"contracts/TPTPreSale.sol\":2736:2745  _useOffer */\n      dup3\n        /* \"contracts/TPTPreSale.sol\":2724:2734  calcAmount */\n      tag_56\n        /* \"contracts/TPTPreSale.sol\":2724:2747  calcAmount( _useOffer ) */\n      jump\t// in\n    tag_87:\n        /* \"contracts/TPTPreSale.sol\":2707:2747  uint tptAmount = calcAmount( _useOffer ) */\n      swap1\n      pop\n        /* \"contracts/TPTPreSale.sol\":2784:2785  0 */\n      0x00\n        /* \"contracts/TPTPreSale.sol\":2762:2768  userId */\n      0x04\n        /* \"contracts/TPTPreSale.sol\":2762:2780  userId[msg.sender] */\n      0x00\n        /* \"contracts/TPTPreSale.sol\":2769:2779  msg.sender */\n      caller\n        /* \"contracts/TPTPreSale.sol\":2762:2780  userId[msg.sender] */\n      0xffffffffffffffffffffffffffffffffffffffff\n      and\n      0xffffffffffffffffffffffffffffffffffffffff\n      and\n      dup2\n      mstore\n      0x20\n      add\n      swap1\n      dup2\n      mstore\n      0x20\n      add\n      0x00\n      keccak256\n      sload\n        /* \"contracts/TPTPreSale.sol\":2762:2785  userId[msg.sender] == 0 */\n      sub\n        /* \"contracts/TPTPreSale.sol\":2758:3235  if (userId[msg.sender] == 0) {... */\n      tag_88\n      jumpi\n        /* \"contracts/TPTPreSale.sol\":2802:2812  totalUsers */\n      0x03\n      0x00\n        /* \"contracts/TPTPreSale.sol\":2802:2814  totalUsers++ */\n      dup2\n      sload\n      dup1\n      swap3\n      swap2\n      swap1\n      tag_89\n      swap1\n      tag_90\n      jump\t// in\n    tag_89:\n      swap2\n      swap1\n      pop\n      sstore\n      pop\n        /* \"contracts/TPTPreSale.sol\":2850:2860  totalUsers */\n      sload(0x03)\n        /* \"contracts/TPTPreSale.sol\":2829:2835  userId */\n      0x04\n        /* \"contracts/TPTPreSale.sol\":2829:2847  userId[msg.sender] */\n      0x00\n        /* \"contracts/TPTPreSale.sol\":2836:2846  msg.sender */\n      caller\n        /* \"contracts/TPTPreSale.sol\":2829:2847  userId[msg.sender] */\n      0xffffffffffffffffffffffffffffffffffffffff\n      and\n      0xffffffffffffffffffffffffffffffffffffffff\n      and\n      dup2\n      mstore\n      0x20\n      add\n      swap1\n      dup2\n      mstore\n      0x20\n      add\n      0x00\n      keccak256\n        /* \"contracts/TPTPreSale.sol\":2829:2860  userId[msg.sender] = totalUsers */\n      dup2\n      swap1\n      sstore\n      pop\n        /* \"contracts/TPTPreSale.sol\":2877:2902  UserInfo storage userInfo */\n      0x00\n        /* \"contracts/TPTPreSale.sol\":2905:2910  users */\n      0x05\n        /* \"contracts/TPTPreSale.sol\":2905:2922  users[totalUsers] */\n      0x00\n        /* \"contracts/TPTPreSale.sol\":2911:2921  totalUsers */\n      sload(0x03)\n        /* \"contracts/TPTPreSale.sol\":2905:2922  users[totalUsers] */\n      dup2\n      mstore\n      0x20\n      add\n      swap1\n      dup2\n      mstore\n      0x20\n      add\n      0x00\n      keccak256\n        /* \"contracts/TPTPreSale.sol\":2877:2922  UserInfo storage userInfo = users[totalUsers] */\n      swap1\n      pop\n        /* \"contracts/TPTPreSale.sol\":2962:2972  msg.sender */\n      caller\n        /* \"contracts/TPTPreSale.sol\":2937:2945  userInfo */\n      dup2\n        /* \"contracts/TPTPreSale.sol\":2937:2959  userInfo.walletAddress */\n      0x00\n      add\n      0x00\n        /* \"contracts/TPTPreSale.sol\":2937:2972  userInfo.walletAddress = msg.sender */\n      0x0100\n      exp\n      dup2\n      sload\n      dup2\n      0xffffffffffffffffffffffffffffffffffffffff\n      mul\n      not\n      and\n      swap1\n      dup4\n      0xffffffffffffffffffffffffffffffffffffffff\n      and\n      mul\n      or\n      swap1\n      sstore\n      pop\n        /* \"contracts/TPTPreSale.sol\":3009:3010  0 */\n      0x00\n        /* \"contracts/TPTPreSale.sol\":2987:2995  userInfo */\n      dup2\n        /* \"contracts/TPTPreSale.sol\":2987:3006  userInfo.tptBalance */\n      0x01\n      add\n        /* \"contracts/TPTPreSale.sol\":2987:3010  userInfo.tptBalance = 0 */\n      dup2\n      swap1\n      sstore\n      pop\n        /* \"contracts/TPTPreSale.sol\":3045:3049  true */\n      0x01\n        /* \"contracts/TPTPreSale.sol\":3025:3033  userInfo */\n      dup2\n        /* \"contracts/TPTPreSale.sol\":3025:3042  userInfo.hasOffer */\n      0x02\n      add\n      0x00\n        /* \"contracts/TPTPreSale.sol\":3025:3049  userInfo.hasOffer = true */\n      0x0100\n      exp\n      dup2\n      sload\n      dup2\n      0xff\n      mul\n      not\n      and\n      swap1\n      dup4\n      iszero\n      iszero\n      mul\n      or\n      swap1\n      sstore\n      pop\n        /* \"contracts/TPTPreSale.sol\":3110:3118  userInfo */\n      dup1\n        /* \"contracts/TPTPreSale.sol\":3090:3095  users */\n      0x05\n        /* \"contracts/TPTPreSale.sol\":3090:3107  users[totalUsers] */\n      0x00\n        /* \"contracts/TPTPreSale.sol\":3096:3106  totalUsers */\n      sload(0x03)\n        /* \"contracts/TPTPreSale.sol\":3090:3107  users[totalUsers] */\n      dup2\n      mstore\n      0x20\n      add\n      swap1\n      dup2\n      mstore\n      0x20\n      add\n      0x00\n      keccak256\n        /* \"contracts/TPTPreSale.sol\":3090:3118  users[totalUsers] = userInfo */\n      0x00\n      dup3\n      add\n      0x00\n      swap1\n      sload\n      swap1\n      0x0100\n      exp\n      swap1\n      div\n      0xffffffffffffffffffffffffffffffffffffffff\n      and\n      dup2\n      0x00\n      add\n      exp(0x0100, 0x00)\n      dup2\n      sload\n      dup2\n      0xffffffffffffffffffffffffffffffffffffffff\n      mul\n      not\n      and\n      swap1\n      dup4\n      0xffffffffffffffffffffffffffffffffffffffff\n      and\n      mul\n      or\n      swap1\n      sstore\n      pop\n      0x01\n      dup3\n      add\n      sload\n      dup2\n      0x01\n      add\n      sstore\n      0x02\n      dup3\n      add\n      0x00\n      swap1\n      sload\n      swap1\n      0x0100\n      exp\n      swap1\n      div\n      0xff\n      and\n      dup2\n      0x02\n      add\n      exp(0x0100, 0x00)\n      dup2\n      sload\n      dup2\n      0xff\n      mul\n      not\n      and\n      swap1\n      dup4\n      iszero\n      iszero\n      mul\n      or\n      swap1\n      sstore\n      pop\n      0x03\n      dup3\n      add\n      dup2\n      0x03\n      add\n      swap1\n      dup1\n      sload\n      tag_91\n      swap3\n      swap2\n      swap1\n      tag_92\n      jump\t// in\n    tag_91:\n      pop\n      swap1\n      pop\n      pop\n        /* \"contracts/TPTPreSale.sol\":2787:3235  {... */\n      pop\n        /* \"contracts/TPTPreSale.sol\":2758:3235  if (userId[msg.sender] == 0) {... */\n    tag_88:\n        /* \"contracts/TPTPreSale.sol\":3288:3297  tptAmount */\n      dup1\n        /* \"contracts/TPTPreSale.sol\":3257:3262  users */\n      0x05\n        /* \"contracts/TPTPreSale.sol\":3257:3274  users[totalUsers] */\n      0x00\n        /* \"contracts/TPTPreSale.sol\":3263:3273  totalUsers */\n      sload(0x03)\n        /* \"contracts/TPTPreSale.sol\":3257:3274  users[totalUsers] */\n      dup2\n      mstore\n      0x20\n      add\n      swap1\n      dup2\n      mstore\n      0x20\n      add\n      0x00\n      keccak256\n        /* \"contracts/TPTPreSale.sol\":3257:3285  users[totalUsers].tptBalance */\n      0x01\n      add\n        /* \"contracts/TPTPreSale.sol\":3257:3297  users[totalUsers].tptBalance = tptAmount */\n      dup2\n      swap1\n      sstore\n      pop\n        /* \"contracts/TPTPreSale.sol\":2561:3305  {... */\n      pop\n        /* \"contracts/TPTPreSale.sol\":1111:1116  false */\n      0x00\n        /* \"contracts/TPTPreSale.sol\":1102:1108  locked */\n      0x01\n      0x14\n        /* \"contracts/TPTPreSale.sol\":1102:1116  locked = false */\n      0x0100\n      exp\n      dup2\n      sload\n      dup2\n      0xff\n      mul\n      not\n      and\n      swap1\n      dup4\n      iszero\n      iszero\n      mul\n      or\n      swap1\n      sstore\n      pop\n        /* \"contracts/TPTPreSale.sol\":2497:3305  function buyTPT( bool _useOffer ) internal pauseable reentrancy {... */\n      pop\n      jump\t// out\n        /* \"contracts/TPTPreSale.sol\":725:766  mapping(uint256 => UserInfo) public users */\n    tag_27:\n      mstore(0x20, 0x05)\n      dup1\n      0x00\n      mstore\n      keccak256(0x00, 0x40)\n      0x00\n      swap2\n      pop\n      swap1\n      pop\n      dup1\n      0x00\n      add\n      0x00\n      swap1\n      sload\n      swap1\n      0x0100\n      exp\n      swap1\n      div\n      0xffffffffffffffffffffffffffffffffffffffff\n      and\n      swap1\n      dup1\n      0x01\n      add\n      sload\n      swap1\n      dup1\n      0x02\n      add\n      0x00\n      swap1\n      sload\n      swap1\n      0x0100\n      exp\n      swap1\n      div\n      0xff\n      and\n      swap1\n      pop\n      dup4\n      jump\t// out\n        /* \"contracts/TPTPreSale.sol\":677:718  mapping(address => uint256) public userId */\n    tag_34:\n      mstore(0x20, 0x04)\n      dup1\n      0x00\n      mstore\n      keccak256(0x00, 0x40)\n      0x00\n      swap2\n      pop\n      swap1\n      pop\n      sload\n      dup2\n      jump\t// out\n        /* \"contracts/TPTPreSale.sol\":287:325  mapping(uint8 => uint) public tptPrice */\n    tag_41:\n      mstore(0x20, 0x02)\n      dup1\n      0x00\n      mstore\n      keccak256(0x00, 0x40)\n      0x00\n      swap2\n      pop\n      swap1\n      pop\n      sload\n      dup2\n      jump\t// out\n        /* \"contracts/TPTPreSale.sol\":1981:2141  function getUsdBnbPrice() public payable returns ( uint _lastPrice){... */\n    tag_44:\n        /* \"contracts/TPTPreSale.sol\":2032:2047  uint _lastPrice */\n      0x00\n        /* \"contracts/TPTPreSale.sol\":2082:2095  priceContract */\n      0x00\n      0x00\n      swap1\n      sload\n      swap1\n      0x0100\n      exp\n      swap1\n      div\n      0xffffffffffffffffffffffffffffffffffffffff\n      and\n        /* \"contracts/TPTPreSale.sol\":2072:2108  IBNBPrice(priceContract).viewAverage */\n      0xffffffffffffffffffffffffffffffffffffffff\n      and\n      0xe03d1632\n        /* \"contracts/TPTPreSale.sol\":2072:2110  IBNBPrice(priceContract).viewAverage() */\n      mload(0x40)\n      dup2\n      0xffffffff\n      and\n      0xe0\n      shl\n      dup2\n      mstore\n      0x04\n      add\n      0x20\n      mload(0x40)\n      dup1\n      dup4\n      sub\n      dup2\n      dup7\n      gas\n      staticcall\n      iszero\n      dup1\n      iszero\n      tag_95\n      jumpi\n      returndatacopy(0x00, 0x00, returndatasize)\n      revert(0x00, returndatasize)\n    tag_95:\n      pop\n      pop\n      pop\n      pop\n      mload(0x40)\n      returndatasize\n      not(0x1f)\n      0x1f\n      dup3\n      add\n      and\n      dup3\n      add\n      dup1\n      0x40\n      mstore\n      pop\n      dup2\n      add\n      swap1\n      tag_96\n      swap2\n      swap1\n      tag_97\n      jump\t// in\n    tag_96:\n        /* \"contracts/TPTPreSale.sol\":2059:2110  _lastPrice = IBNBPrice(priceContract).viewAverage() */\n      swap1\n      pop\n        /* \"contracts/TPTPreSale.sol\":1981:2141  function getUsdBnbPrice() public payable returns ( uint _lastPrice){... */\n      swap1\n      jump\t// out\n        /* \"contracts/TPTPreSale.sol\":182:203  address public  owner */\n    tag_48:\n      0x01\n      0x00\n      swap1\n      sload\n      swap1\n      0x0100\n      exp\n      swap1\n      div\n      0xffffffffffffffffffffffffffffffffffffffff\n      and\n      dup2\n      jump\t// out\n        /* \"contracts/TPTPreSale.sol\":1465:1973  function getPrice() external payable returns (uint256) {... */\n    tag_52:\n        /* \"contracts/TPTPreSale.sol\":1511:1518  uint256 */\n      0x00\n        /* \"contracts/TPTPreSale.sol\":1594:1603  bool sent */\n      0x00\n        /* \"contracts/TPTPreSale.sol\":1609:1622  priceContract */\n      0x00\n      0x00\n      swap1\n      sload\n      swap1\n      0x0100\n      exp\n      swap1\n      div\n      0xffffffffffffffffffffffffffffffffffffffff\n      and\n        /* \"contracts/TPTPreSale.sol\":1609:1627  priceContract.call */\n      0xffffffffffffffffffffffffffffffffffffffff\n      and\n        /* \"contracts/TPTPreSale.sol\":1635:1644  msg.value */\n      callvalue\n        /* \"contracts/TPTPreSale.sol\":1609:1649  priceContract.call{value: msg.value}(\"\") */\n      mload(0x40)\n      tag_99\n      swap1\n      tag_100\n      jump\t// in\n    tag_99:\n      0x00\n      mload(0x40)\n      dup1\n      dup4\n      sub\n      dup2\n      dup6\n      dup8\n      gas\n      call\n      swap3\n      pop\n      pop\n      pop\n      returndatasize\n      dup1\n      0x00\n      dup2\n      eq\n      tag_103\n      jumpi\n      mload(0x40)\n      swap2\n      pop\n      and(add(returndatasize, 0x3f), not(0x1f))\n      dup3\n      add\n      0x40\n      mstore\n      returndatasize\n      dup3\n      mstore\n      returndatasize\n      0x00\n      0x20\n      dup5\n      add\n      returndatacopy\n      jump(tag_102)\n    tag_103:\n      0x60\n      swap2\n      pop\n    tag_102:\n      pop\n        /* \"contracts/TPTPreSale.sol\":1593:1649  (bool sent, ) = priceContract.call{value: msg.value}(\"\") */\n      pop\n      swap1\n      pop\n        /* \"contracts/TPTPreSale.sol\":1668:1672  sent */\n      dup1\n        /* \"contracts/TPTPreSale.sol\":1660:1710  require(sent, \"Transfer to price contract failed\") */\n      tag_104\n      jumpi\n      mload(0x40)\n      0x08c379a000000000000000000000000000000000000000000000000000000000\n      dup2\n      mstore\n      0x04\n      add\n      tag_105\n      swap1\n      tag_106\n      jump\t// in\n    tag_105:\n      mload(0x40)\n      dup1\n      swap2\n      sub\n      swap1\n      revert\n    tag_104:\n        /* \"contracts/TPTPreSale.sol\":1724:1736  bool success */\n      0x00\n        /* \"contracts/TPTPreSale.sol\":1738:1755  bytes memory data */\n      0x00\n        /* \"contracts/TPTPreSale.sol\":1759:1772  priceContract */\n      0x00\n      0x00\n      swap1\n      sload\n      swap1\n      0x0100\n      exp\n      swap1\n      div\n      0xffffffffffffffffffffffffffffffffffffffff\n      and\n        /* \"contracts/TPTPreSale.sol\":1759:1783  priceContract.staticcall */\n      0xffffffffffffffffffffffffffffffffffffffff\n      and\n        /* \"contracts/TPTPreSale.sol\":1846:1856  msg.sender */\n      caller\n        /* \"contracts/TPTPreSale.sol\":1798:1857  abi.encodeWithSignature(\"viewAverage(address)\", msg.sender) */\n      add(0x24, mload(0x40))\n      tag_107\n      swap2\n      swap1\n      tag_50\n      jump\t// in\n    tag_107:\n      mload(0x40)\n      0x20\n      dup2\n      dup4\n      sub\n      sub\n      dup2\n      mstore\n      swap1\n      0x40\n      mstore\n      and(not(0xffffffffffffffffffffffffffffffffffffffffffffffffffffffff), 0xed9b8d5000000000000000000000000000000000000000000000000000000000)\n      0x20\n      dup3\n      add\n      dup1\n      mload\n      0xffffffffffffffffffffffffffffffffffffffffffffffffffffffff\n      dup4\n      dup2\n      dup4\n      and\n      or\n      dup4\n      mstore\n      pop\n      pop\n      pop\n      pop\n        /* \"contracts/TPTPreSale.sol\":1759:1868  priceContract.staticcall(... */\n      mload(0x40)\n      tag_108\n      swap2\n      swap1\n      tag_109\n      jump\t// in\n    tag_108:\n      0x00\n      mload(0x40)\n      dup1\n      dup4\n      sub\n      dup2\n      dup6\n      gas\n      staticcall\n      swap2\n      pop\n      pop\n      returndatasize\n      dup1\n      0x00\n      dup2\n      eq\n      tag_112\n      jumpi\n      mload(0x40)\n      swap2\n      pop\n      and(add(returndatasize, 0x3f), not(0x1f))\n      dup3\n      add\n      0x40\n      mstore\n      returndatasize\n      dup3\n      mstore\n      returndatasize\n      0x00\n      0x20\n      dup5\n      add\n      returndatacopy\n      jump(tag_111)\n    tag_112:\n      0x60\n      swap2\n      pop\n    tag_111:\n      pop\n        /* \"contracts/TPTPreSale.sol\":1723:1868  (bool success, bytes memory data) = priceContract.staticcall(... */\n      swap2\n      pop\n      swap2\n      pop\n        /* \"contracts/TPTPreSale.sol\":1887:1894  success */\n      dup2\n        /* \"contracts/TPTPreSale.sol\":1879:1918  require(success, \"Failed to get price\") */\n      tag_113\n      jumpi\n      mload(0x40)\n      0x08c379a000000000000000000000000000000000000000000000000000000000\n      dup2\n      mstore\n      0x04\n      add\n      tag_114\n      swap1\n      tag_115\n      jump\t// in\n    tag_114:\n      mload(0x40)\n      dup1\n      swap2\n      sub\n      swap1\n      revert\n    tag_113:\n        /* \"contracts/TPTPreSale.sol\":1949:1953  data */\n      dup1\n        /* \"contracts/TPTPreSale.sol\":1938:1965  abi.decode(data, (uint256)) */\n      dup1\n      0x20\n      add\n      swap1\n      mload\n      dup2\n      add\n      swap1\n      tag_116\n      swap2\n      swap1\n      tag_97\n      jump\t// in\n    tag_116:\n        /* \"contracts/TPTPreSale.sol\":1931:1965  return abi.decode(data, (uint256)) */\n      swap4\n      pop\n      pop\n      pop\n      pop\n        /* \"contracts/TPTPreSale.sol\":1465:1973  function getPrice() external payable returns (uint256) {... */\n      swap1\n      jump\t// out\n        /* \"contracts/TPTPreSale.sol\":2151:2468  function calcAmount(bool _useOffer) public payable returns(uint) {... */\n    tag_56:\n        /* \"contracts/TPTPreSale.sol\":2210:2214  uint */\n      0x00\n        /* \"contracts/TPTPreSale.sol\":2227:2238  uint _price */\n      0x00\n        /* \"contracts/TPTPreSale.sol\":2241:2257  getUsdBnbPrice() */\n      tag_118\n        /* \"contracts/TPTPreSale.sol\":2241:2255  getUsdBnbPrice */\n      tag_44\n        /* \"contracts/TPTPreSale.sol\":2241:2257  getUsdBnbPrice() */\n      jump\t// in\n    tag_118:\n        /* \"contracts/TPTPreSale.sol\":2227:2257  uint _price = getUsdBnbPrice() */\n      swap1\n      pop\n        /* \"contracts/TPTPreSale.sol\":2268:2282  uint tptAmount */\n      0x00\n        /* \"contracts/TPTPreSale.sol\":2285:2294  _useOffer */\n      dup4\n        /* \"contracts/TPTPreSale.sol\":2285:2418  _useOffer ... */\n      tag_119\n      jumpi\n        /* \"contracts/TPTPreSale.sol\":2400:2408  tptPrice */\n      0x02\n        /* \"contracts/TPTPreSale.sol\":2400:2418  tptPrice[thisStep] */\n      0x00\n        /* \"contracts/TPTPreSale.sol\":2409:2417  thisStep */\n      0x01\n      0x15\n      swap1\n      sload\n      swap1\n      0x0100\n      exp\n      swap1\n      div\n      0xff\n      and\n        /* \"contracts/TPTPreSale.sol\":2400:2418  tptPrice[thisStep] */\n      0xff\n      and\n      0xff\n      and\n      dup2\n      mstore\n      0x20\n      add\n      swap1\n      dup2\n      mstore\n      0x20\n      add\n      0x00\n      keccak256\n      sload\n        /* \"contracts/TPTPreSale.sol\":2390:2396  _price */\n      dup3\n        /* \"contracts/TPTPreSale.sol\":2378:2387  msg.value */\n      callvalue\n        /* \"contracts/TPTPreSale.sol\":2378:2396  msg.value / _price */\n      tag_120\n      swap2\n      swap1\n      tag_121\n      jump\t// in\n    tag_120:\n        /* \"contracts/TPTPreSale.sol\":2377:2418  (msg.value / _price) / tptPrice[thisStep] */\n      tag_122\n      swap2\n      swap1\n      tag_121\n      jump\t// in\n    tag_122:\n        /* \"contracts/TPTPreSale.sol\":2285:2418  _useOffer ... */\n      jump(tag_123)\n    tag_119:\n        /* \"contracts/TPTPreSale.sol\":2360:2361  2 */\n      0x02\n        /* \"contracts/TPTPreSale.sol\":2336:2344  tptPrice */\n      dup1\n        /* \"contracts/TPTPreSale.sol\":2336:2354  tptPrice[thisStep] */\n      0x00\n        /* \"contracts/TPTPreSale.sol\":2345:2353  thisStep */\n      0x01\n      0x15\n      swap1\n      sload\n      swap1\n      0x0100\n      exp\n      swap1\n      div\n      0xff\n      and\n        /* \"contracts/TPTPreSale.sol\":2336:2354  tptPrice[thisStep] */\n      0xff\n      and\n      0xff\n      and\n      dup2\n      mstore\n      0x20\n      add\n      swap1\n      dup2\n      mstore\n      0x20\n      add\n      0x00\n      keccak256\n      sload\n        /* \"contracts/TPTPreSale.sol\":2325:2331  _price */\n      dup4\n        /* \"contracts/TPTPreSale.sol\":2313:2322  msg.value */\n      callvalue\n        /* \"contracts/TPTPreSale.sol\":2313:2331  msg.value / _price */\n      tag_124\n      swap2\n      swap1\n      tag_121\n      jump\t// in\n    tag_124:\n        /* \"contracts/TPTPreSale.sol\":2312:2354  (msg.value / _price ) / tptPrice[thisStep] */\n      tag_125\n      swap2\n      swap1\n      tag_121\n      jump\t// in\n    tag_125:\n        /* \"contracts/TPTPreSale.sol\":2311:2361  ((msg.value / _price ) / tptPrice[thisStep]  ) * 2 */\n      tag_126\n      swap2\n      swap1\n      tag_127\n      jump\t// in\n    tag_126:\n        /* \"contracts/TPTPreSale.sol\":2285:2418  _useOffer ... */\n    tag_123:\n        /* \"contracts/TPTPreSale.sol\":2268:2418  uint tptAmount = _useOffer ... */\n      swap1\n      pop\n        /* \"contracts/TPTPreSale.sol\":2451:2460  tptAmount */\n      dup1\n        /* \"contracts/TPTPreSale.sol\":2444:2460  return tptAmount */\n      swap3\n      pop\n      pop\n      pop\n        /* \"contracts/TPTPreSale.sol\":2151:2468  function calcAmount(bool _useOffer) public payable returns(uint) {... */\n      swap2\n      swap1\n      pop\n      jump\t// out\n        /* \"contracts/TPTPreSale.sol\":259:280  uint8 public thisStep */\n    tag_60:\n      0x01\n      0x15\n      swap1\n      sload\n      swap1\n      0x0100\n      exp\n      swap1\n      div\n      0xff\n      and\n      dup2\n      jump\t// out\n        /* \"contracts/TPTPreSale.sol\":117:153  address payable public priceContract */\n    tag_65:\n      0x00\n      0x00\n      swap1\n      sload\n      swap1\n      0x0100\n      exp\n      swap1\n      div\n      0xffffffffffffffffffffffffffffffffffffffff\n      and\n      dup2\n      jump\t// out\n        /* \"contracts/TPTPreSale.sol\":355:380  uint256 public totalUsers */\n    tag_70:\n      sload(0x03)\n      dup2\n      jump\t// out\n    tag_92:\n      dup3\n      dup1\n      sload\n      dup3\n      dup3\n      sstore\n      swap1\n      0x00\n      mstore\n      keccak256(0x00, 0x20)\n      swap1\n      0x04\n      mul\n      dup2\n      add\n      swap3\n      dup3\n      iszero\n      tag_128\n      jumpi\n      0x00\n      mstore\n      keccak256(0x00, 0x20)\n      swap2\n      0x04\n      mul\n      dup3\n      add\n    tag_129:\n      dup3\n      dup2\n      gt\n      iszero\n      tag_130\n      jumpi\n      dup3\n      dup3\n      0x00\n      dup3\n      add\n      sload\n      dup2\n      0x00\n      add\n      sstore\n      0x01\n      dup3\n      add\n      sload\n      dup2\n      0x01\n      add\n      sstore\n      0x02\n      dup3\n      add\n      sload\n      dup2\n      0x02\n      add\n      sstore\n      0x03\n      dup3\n      add\n      0x00\n      swap1\n      sload\n      swap1\n      0x0100\n      exp\n      swap1\n      div\n      0xff\n      and\n      dup2\n      0x03\n      add\n      exp(0x0100, 0x00)\n      dup2\n      sload\n      dup2\n      0xff\n      mul\n      not\n      and\n      swap1\n      dup4\n      0xff\n      and\n      mul\n      or\n      swap1\n      sstore\n      pop\n      pop\n      pop\n      swap2\n      0x04\n      add\n      swap2\n      swap1\n      0x04\n      add\n      swap1\n      jump(tag_129)\n    tag_130:\n    tag_128:\n      pop\n      swap1\n      pop\n      tag_131\n      swap2\n      swap1\n      tag_132\n      jump\t// in\n    tag_131:\n      pop\n      swap1\n      jump\t// out\n    tag_132:\n    tag_133:\n      dup1\n      dup3\n      gt\n      iszero\n      tag_134\n      jumpi\n      0x00\n      0x00\n      dup3\n      add\n      0x00\n      swap1\n      sstore\n      0x01\n      dup3\n      add\n      0x00\n      swap1\n      sstore\n      0x02\n      dup3\n      add\n      0x00\n      swap1\n      sstore\n      0x03\n      dup3\n      add\n      exp(0x0100, 0x00)\n      dup2\n      sload\n      swap1\n      0xff\n      mul\n      not\n      and\n      swap1\n      sstore\n      pop\n      0x04\n      add\n      jump(tag_133)\n    tag_134:\n      pop\n      swap1\n      jump\t// out\n        /* \"#utility.yul\":88:205   */\n    tag_136:\n        /* \"#utility.yul\":197:198   */\n      0x00\n        /* \"#utility.yul\":194:195   */\n      0x00\n        /* \"#utility.yul\":187:199   */\n      revert\n        /* \"#utility.yul\":334:424   */\n    tag_138:\n        /* \"#utility.yul\":368:375   */\n      0x00\n        /* \"#utility.yul\":411:416   */\n      dup2\n        /* \"#utility.yul\":404:417   */\n      iszero\n        /* \"#utility.yul\":397:418   */\n      iszero\n        /* \"#utility.yul\":386:418   */\n      swap1\n      pop\n        /* \"#utility.yul\":334:424   */\n      swap2\n      swap1\n      pop\n      jump\t// out\n        /* \"#utility.yul\":430:546   */\n    tag_139:\n        /* \"#utility.yul\":500:521   */\n      tag_185\n        /* \"#utility.yul\":515:520   */\n      dup2\n        /* \"#utility.yul\":500:521   */\n      tag_138\n      jump\t// in\n    tag_185:\n        /* \"#utility.yul\":493:498   */\n      dup2\n        /* \"#utility.yul\":490:522   */\n      eq\n        /* \"#utility.yul\":480:540   */\n      tag_186\n      jumpi\n        /* \"#utility.yul\":536:537   */\n      0x00\n        /* \"#utility.yul\":533:534   */\n      0x00\n        /* \"#utility.yul\":526:538   */\n      revert\n        /* \"#utility.yul\":480:540   */\n    tag_186:\n        /* \"#utility.yul\":430:546   */\n      pop\n      jump\t// out\n        /* \"#utility.yul\":552:685   */\n    tag_140:\n        /* \"#utility.yul\":595:600   */\n      0x00\n        /* \"#utility.yul\":633:639   */\n      dup2\n        /* \"#utility.yul\":620:640   */\n      calldataload\n        /* \"#utility.yul\":611:640   */\n      swap1\n      pop\n        /* \"#utility.yul\":649:679   */\n      tag_188\n        /* \"#utility.yul\":673:678   */\n      dup2\n        /* \"#utility.yul\":649:679   */\n      tag_139\n      jump\t// in\n    tag_188:\n        /* \"#utility.yul\":552:685   */\n      swap3\n      swap2\n      pop\n      pop\n      jump\t// out\n        /* \"#utility.yul\":691:1014   */\n    tag_22:\n        /* \"#utility.yul\":747:753   */\n      0x00\n        /* \"#utility.yul\":796:798   */\n      0x20\n        /* \"#utility.yul\":784:793   */\n      dup3\n        /* \"#utility.yul\":775:782   */\n      dup5\n        /* \"#utility.yul\":771:794   */\n      sub\n        /* \"#utility.yul\":767:799   */\n      slt\n        /* \"#utility.yul\":764:883   */\n      iszero\n      tag_190\n      jumpi\n        /* \"#utility.yul\":802:881   */\n      tag_191\n      tag_136\n      jump\t// in\n    tag_191:\n        /* \"#utility.yul\":764:883   */\n    tag_190:\n        /* \"#utility.yul\":922:923   */\n      0x00\n        /* \"#utility.yul\":947:997   */\n      tag_192\n        /* \"#utility.yul\":989:996   */\n      dup5\n        /* \"#utility.yul\":980:986   */\n      dup3\n        /* \"#utility.yul\":969:978   */\n      dup6\n        /* \"#utility.yul\":965:987   */\n      add\n        /* \"#utility.yul\":947:997   */\n      tag_140\n      jump\t// in\n    tag_192:\n        /* \"#utility.yul\":937:997   */\n      swap2\n      pop\n        /* \"#utility.yul\":893:1007   */\n      pop\n        /* \"#utility.yul\":691:1014   */\n      swap3\n      swap2\n      pop\n      pop\n      jump\t// out\n        /* \"#utility.yul\":1020:1097   */\n    tag_141:\n        /* \"#utility.yul\":1057:1064   */\n      0x00\n        /* \"#utility.yul\":1086:1091   */\n      dup2\n        /* \"#utility.yul\":1075:1091   */\n      swap1\n      pop\n        /* \"#utility.yul\":1020:1097   */\n      swap2\n      swap1\n      pop\n      jump\t// out\n        /* \"#utility.yul\":1103:1225   */\n    tag_142:\n        /* \"#utility.yul\":1176:1200   */\n      tag_195\n        /* \"#utility.yul\":1194:1199   */\n      dup2\n        /* \"#utility.yul\":1176:1200   */\n      tag_141\n      jump\t// in\n    tag_195:\n        /* \"#utility.yul\":1169:1174   */\n      dup2\n        /* \"#utility.yul\":1166:1201   */\n      eq\n        /* \"#utility.yul\":1156:1219   */\n      tag_196\n      jumpi\n        /* \"#utility.yul\":1215:1216   */\n      0x00\n        /* \"#utility.yul\":1212:1213   */\n      0x00\n        /* \"#utility.yul\":1205:1217   */\n      revert\n        /* \"#utility.yul\":1156:1219   */\n    tag_196:\n        /* \"#utility.yul\":1103:1225   */\n      pop\n      jump\t// out\n        /* \"#utility.yul\":1231:1370   */\n    tag_143:\n        /* \"#utility.yul\":1277:1282   */\n      0x00\n        /* \"#utility.yul\":1315:1321   */\n      dup2\n        /* \"#utility.yul\":1302:1322   */\n      calldataload\n        /* \"#utility.yul\":1293:1322   */\n      swap1\n      pop\n        /* \"#utility.yul\":1331:1364   */\n      tag_198\n        /* \"#utility.yul\":1358:1363   */\n      dup2\n        /* \"#utility.yul\":1331:1364   */\n      tag_142\n      jump\t// in\n    tag_198:\n        /* \"#utility.yul\":1231:1370   */\n      swap3\n      swap2\n      pop\n      pop\n      jump\t// out\n        /* \"#utility.yul\":1376:1705   */\n    tag_26:\n        /* \"#utility.yul\":1435:1441   */\n      0x00\n        /* \"#utility.yul\":1484:1486   */\n      0x20\n        /* \"#utility.yul\":1472:1481   */\n      dup3\n        /* \"#utility.yul\":1463:1470   */\n      dup5\n        /* \"#utility.yul\":1459:1482   */\n      sub\n        /* \"#utility.yul\":1455:1487   */\n      slt\n        /* \"#utility.yul\":1452:1571   */\n      iszero\n      tag_200\n      jumpi\n        /* \"#utility.yul\":1490:1569   */\n      tag_201\n      tag_136\n      jump\t// in\n    tag_201:\n        /* \"#utility.yul\":1452:1571   */\n    tag_200:\n        /* \"#utility.yul\":1610:1611   */\n      0x00\n        /* \"#utility.yul\":1635:1688   */\n      tag_202\n        /* \"#utility.yul\":1680:1687   */\n      dup5\n        /* \"#utility.yul\":1671:1677   */\n      dup3\n        /* \"#utility.yul\":1660:1669   */\n      dup6\n        /* \"#utility.yul\":1656:1678   */\n      add\n        /* \"#utility.yul\":1635:1688   */\n      tag_143\n      jump\t// in\n    tag_202:\n        /* \"#utility.yul\":1625:1688   */\n      swap2\n      pop\n        /* \"#utility.yul\":1581:1698   */\n      pop\n        /* \"#utility.yul\":1376:1705   */\n      swap3\n      swap2\n      pop\n      pop\n      jump\t// out\n        /* \"#utility.yul\":1711:1837   */\n    tag_144:\n        /* \"#utility.yul\":1748:1755   */\n      0x00\n        /* \"#utility.yul\":1788:1830   */\n      0xffffffffffffffffffffffffffffffffffffffff\n        /* \"#utility.yul\":1781:1786   */\n      dup3\n        /* \"#utility.yul\":1777:1831   */\n      and\n        /* \"#utility.yul\":1766:1831   */\n      swap1\n      pop\n        /* \"#utility.yul\":1711:1837   */\n      swap2\n      swap1\n      pop\n      jump\t// out\n        /* \"#utility.yul\":1843:1939   */\n    tag_145:\n        /* \"#utility.yul\":1880:1887   */\n      0x00\n        /* \"#utility.yul\":1909:1933   */\n      tag_205\n        /* \"#utility.yul\":1927:1932   */\n      dup3\n        /* \"#utility.yul\":1909:1933   */\n      tag_144\n      jump\t// in\n    tag_205:\n        /* \"#utility.yul\":1898:1933   */\n      swap1\n      pop\n        /* \"#utility.yul\":1843:1939   */\n      swap2\n      swap1\n      pop\n      jump\t// out\n        /* \"#utility.yul\":1945:2063   */\n    tag_146:\n        /* \"#utility.yul\":2032:2056   */\n      tag_207\n        /* \"#utility.yul\":2050:2055   */\n      dup2\n        /* \"#utility.yul\":2032:2056   */\n      tag_145\n      jump\t// in\n    tag_207:\n        /* \"#utility.yul\":2027:2030   */\n      dup3\n        /* \"#utility.yul\":2020:2057   */\n      mstore\n        /* \"#utility.yul\":1945:2063   */\n      pop\n      pop\n      jump\t// out\n        /* \"#utility.yul\":2069:2187   */\n    tag_147:\n        /* \"#utility.yul\":2156:2180   */\n      tag_209\n        /* \"#utility.yul\":2174:2179   */\n      dup2\n        /* \"#utility.yul\":2156:2180   */\n      tag_141\n      jump\t// in\n    tag_209:\n        /* \"#utility.yul\":2151:2154   */\n      dup3\n        /* \"#utility.yul\":2144:2181   */\n      mstore\n        /* \"#utility.yul\":2069:2187   */\n      pop\n      pop\n      jump\t// out\n        /* \"#utility.yul\":2193:2302   */\n    tag_148:\n        /* \"#utility.yul\":2274:2295   */\n      tag_211\n        /* \"#utility.yul\":2289:2294   */\n      dup2\n        /* \"#utility.yul\":2274:2295   */\n      tag_138\n      jump\t// in\n    tag_211:\n        /* \"#utility.yul\":2269:2272   */\n      dup3\n        /* \"#utility.yul\":2262:2296   */\n      mstore\n        /* \"#utility.yul\":2193:2302   */\n      pop\n      pop\n      jump\t// out\n        /* \"#utility.yul\":2308:2738   */\n    tag_29:\n        /* \"#utility.yul\":2451:2455   */\n      0x00\n        /* \"#utility.yul\":2489:2491   */\n      0x60\n        /* \"#utility.yul\":2478:2487   */\n      dup3\n        /* \"#utility.yul\":2474:2492   */\n      add\n        /* \"#utility.yul\":2466:2492   */\n      swap1\n      pop\n        /* \"#utility.yul\":2502:2573   */\n      tag_213\n        /* \"#utility.yul\":2570:2571   */\n      0x00\n        /* \"#utility.yul\":2559:2568   */\n      dup4\n        /* \"#utility.yul\":2555:2572   */\n      add\n        /* \"#utility.yul\":2546:2552   */\n      dup7\n        /* \"#utility.yul\":2502:2573   */\n      tag_146\n      jump\t// in\n    tag_213:\n        /* \"#utility.yul\":2583:2655   */\n      tag_214\n        /* \"#utility.yul\":2651:2653   */\n      0x20\n        /* \"#utility.yul\":2640:2649   */\n      dup4\n        /* \"#utility.yul\":2636:2654   */\n      add\n        /* \"#utility.yul\":2627:2633   */\n      dup6\n        /* \"#utility.yul\":2583:2655   */\n      tag_147\n      jump\t// in\n    tag_214:\n        /* \"#utility.yul\":2665:2731   */\n      tag_215\n        /* \"#utility.yul\":2727:2729   */\n      0x40\n        /* \"#utility.yul\":2716:2725   */\n      dup4\n        /* \"#utility.yul\":2712:2730   */\n      add\n        /* \"#utility.yul\":2703:2709   */\n      dup5\n        /* \"#utility.yul\":2665:2731   */\n      tag_148\n      jump\t// in\n    tag_215:\n        /* \"#utility.yul\":2308:2738   */\n      swap5\n      swap4\n      pop\n      pop\n      pop\n      pop\n      jump\t// out\n        /* \"#utility.yul\":2744:2866   */\n    tag_149:\n        /* \"#utility.yul\":2817:2841   */\n      tag_217\n        /* \"#utility.yul\":2835:2840   */\n      dup2\n        /* \"#utility.yul\":2817:2841   */\n      tag_145\n      jump\t// in\n    tag_217:\n        /* \"#utility.yul\":2810:2815   */\n      dup2\n        /* \"#utility.yul\":2807:2842   */\n      eq\n        /* \"#utility.yul\":2797:2860   */\n      tag_218\n      jumpi\n        /* \"#utility.yul\":2856:2857   */\n      0x00\n        /* \"#utility.yul\":2853:2854   */\n      0x00\n        /* \"#utility.yul\":2846:2858   */\n      revert\n        /* \"#utility.yul\":2797:2860   */\n    tag_218:\n        /* \"#utility.yul\":2744:2866   */\n      pop\n      jump\t// out\n        /* \"#utility.yul\":2872:3011   */\n    tag_150:\n        /* \"#utility.yul\":2918:2923   */\n      0x00\n        /* \"#utility.yul\":2956:2962   */\n      dup2\n        /* \"#utility.yul\":2943:2963   */\n      calldataload\n        /* \"#utility.yul\":2934:2963   */\n      swap1\n      pop\n        /* \"#utility.yul\":2972:3005   */\n      tag_220\n        /* \"#utility.yul\":2999:3004   */\n      dup2\n        /* \"#utility.yul\":2972:3005   */\n      tag_149\n      jump\t// in\n    tag_220:\n        /* \"#utility.yul\":2872:3011   */\n      swap3\n      swap2\n      pop\n      pop\n      jump\t// out\n        /* \"#utility.yul\":3017:3346   */\n    tag_33:\n        /* \"#utility.yul\":3076:3082   */\n      0x00\n        /* \"#utility.yul\":3125:3127   */\n      0x20\n        /* \"#utility.yul\":3113:3122   */\n      dup3\n        /* \"#utility.yul\":3104:3111   */\n      dup5\n        /* \"#utility.yul\":3100:3123   */\n      sub\n        /* \"#utility.yul\":3096:3128   */\n      slt\n        /* \"#utility.yul\":3093:3212   */\n      iszero\n      tag_222\n      jumpi\n        /* \"#utility.yul\":3131:3210   */\n      tag_223\n      tag_136\n      jump\t// in\n    tag_223:\n        /* \"#utility.yul\":3093:3212   */\n    tag_222:\n        /* \"#utility.yul\":3251:3252   */\n      0x00\n        /* \"#utility.yul\":3276:3329   */\n      tag_224\n        /* \"#utility.yul\":3321:3328   */\n      dup5\n        /* \"#utility.yul\":3312:3318   */\n      dup3\n        /* \"#utility.yul\":3301:3310   */\n      dup6\n        /* \"#utility.yul\":3297:3319   */\n      add\n        /* \"#utility.yul\":3276:3329   */\n      tag_150\n      jump\t// in\n    tag_224:\n        /* \"#utility.yul\":3266:3329   */\n      swap2\n      pop\n        /* \"#utility.yul\":3222:3339   */\n      pop\n        /* \"#utility.yul\":3017:3346   */\n      swap3\n      swap2\n      pop\n      pop\n      jump\t// out\n        /* \"#utility.yul\":3352:3574   */\n    tag_36:\n        /* \"#utility.yul\":3445:3449   */\n      0x00\n        /* \"#utility.yul\":3483:3485   */\n      0x20\n        /* \"#utility.yul\":3472:3481   */\n      dup3\n        /* \"#utility.yul\":3468:3486   */\n      add\n        /* \"#utility.yul\":3460:3486   */\n      swap1\n      pop\n        /* \"#utility.yul\":3496:3567   */\n      tag_226\n        /* \"#utility.yul\":3564:3565   */\n      0x00\n        /* \"#utility.yul\":3553:3562   */\n      dup4\n        /* \"#utility.yul\":3549:3566   */\n      add\n        /* \"#utility.yul\":3540:3546   */\n      dup5\n        /* \"#utility.yul\":3496:3567   */\n      tag_147\n      jump\t// in\n    tag_226:\n        /* \"#utility.yul\":3352:3574   */\n      swap3\n      swap2\n      pop\n      pop\n      jump\t// out\n        /* \"#utility.yul\":3580:3666   */\n    tag_151:\n        /* \"#utility.yul\":3615:3622   */\n      0x00\n        /* \"#utility.yul\":3655:3659   */\n      0xff\n        /* \"#utility.yul\":3648:3653   */\n      dup3\n        /* \"#utility.yul\":3644:3660   */\n      and\n        /* \"#utility.yul\":3633:3660   */\n      swap1\n      pop\n        /* \"#utility.yul\":3580:3666   */\n      swap2\n      swap1\n      pop\n      jump\t// out\n        /* \"#utility.yul\":3672:3790   */\n    tag_152:\n        /* \"#utility.yul\":3743:3765   */\n      tag_229\n        /* \"#utility.yul\":3759:3764   */\n      dup2\n        /* \"#utility.yul\":3743:3765   */\n      tag_151\n      jump\t// in\n    tag_229:\n        /* \"#utility.yul\":3736:3741   */\n      dup2\n        /* \"#utility.yul\":3733:3766   */\n      eq\n        /* \"#utility.yul\":3723:3784   */\n      tag_230\n      jumpi\n        /* \"#utility.yul\":3780:3781   */\n      0x00\n        /* \"#utility.yul\":3777:3778   */\n      0x00\n        /* \"#utility.yul\":3770:3782   */\n      revert\n        /* \"#utility.yul\":3723:3784   */\n    tag_230:\n        /* \"#utility.yul\":3672:3790   */\n      pop\n      jump\t// out\n        /* \"#utility.yul\":3796:3931   */\n    tag_153:\n        /* \"#utility.yul\":3840:3845   */\n      0x00\n        /* \"#utility.yul\":3878:3884   */\n      dup2\n        /* \"#utility.yul\":3865:3885   */\n      calldataload\n        /* \"#utility.yul\":3856:3885   */\n      swap1\n      pop\n        /* \"#utility.yul\":3894:3925   */\n      tag_232\n        /* \"#utility.yul\":3919:3924   */\n      dup2\n        /* \"#utility.yul\":3894:3925   */\n      tag_152\n      jump\t// in\n    tag_232:\n        /* \"#utility.yul\":3796:3931   */\n      swap3\n      swap2\n      pop\n      pop\n      jump\t// out\n        /* \"#utility.yul\":3937:4262   */\n    tag_40:\n        /* \"#utility.yul\":3994:4000   */\n      0x00\n        /* \"#utility.yul\":4043:4045   */\n      0x20\n        /* \"#utility.yul\":4031:4040   */\n      dup3\n        /* \"#utility.yul\":4022:4029   */\n      dup5\n        /* \"#utility.yul\":4018:4041   */\n      sub\n        /* \"#utility.yul\":4014:4046   */\n      slt\n        /* \"#utility.yul\":4011:4130   */\n      iszero\n      tag_234\n      jumpi\n        /* \"#utility.yul\":4049:4128   */\n      tag_235\n      tag_136\n      jump\t// in\n    tag_235:\n        /* \"#utility.yul\":4011:4130   */\n    tag_234:\n        /* \"#utility.yul\":4169:4170   */\n      0x00\n        /* \"#utility.yul\":4194:4245   */\n      tag_236\n        /* \"#utility.yul\":4237:4244   */\n      dup5\n        /* \"#utility.yul\":4228:4234   */\n      dup3\n        /* \"#utility.yul\":4217:4226   */\n      dup6\n        /* \"#utility.yul\":4213:4235   */\n      add\n        /* \"#utility.yul\":4194:4245   */\n      tag_153\n      jump\t// in\n    tag_236:\n        /* \"#utility.yul\":4184:4245   */\n      swap2\n      pop\n        /* \"#utility.yul\":4140:4255   */\n      pop\n        /* \"#utility.yul\":3937:4262   */\n      swap3\n      swap2\n      pop\n      pop\n      jump\t// out\n        /* \"#utility.yul\":4268:4490   */\n    tag_50:\n        /* \"#utility.yul\":4361:4365   */\n      0x00\n        /* \"#utility.yul\":4399:4401   */\n      0x20\n        /* \"#utility.yul\":4388:4397   */\n      dup3\n        /* \"#utility.yul\":4384:4402   */\n      add\n        /* \"#utility.yul\":4376:4402   */\n      swap1\n      pop\n        /* \"#utility.yul\":4412:4483   */\n      tag_238\n        /* \"#utility.yul\":4480:4481   */\n      0x00\n        /* \"#utility.yul\":4469:4478   */\n      dup4\n        /* \"#utility.yul\":4465:4482   */\n      add\n        /* \"#utility.yul\":4456:4462   */\n      dup5\n        /* \"#utility.yul\":4412:4483   */\n      tag_146\n      jump\t// in\n    tag_238:\n        /* \"#utility.yul\":4268:4490   */\n      swap3\n      swap2\n      pop\n      pop\n      jump\t// out\n        /* \"#utility.yul\":4496:4608   */\n    tag_154:\n        /* \"#utility.yul\":4579:4601   */\n      tag_240\n        /* \"#utility.yul\":4595:4600   */\n      dup2\n        /* \"#utility.yul\":4579:4601   */\n      tag_151\n      jump\t// in\n    tag_240:\n        /* \"#utility.yul\":4574:4577   */\n      dup3\n        /* \"#utility.yul\":4567:4602   */\n      mstore\n        /* \"#utility.yul\":4496:4608   */\n      pop\n      pop\n      jump\t// out\n        /* \"#utility.yul\":4614:4828   */\n    tag_62:\n        /* \"#utility.yul\":4703:4707   */\n      0x00\n        /* \"#utility.yul\":4741:4743   */\n      0x20\n        /* \"#utility.yul\":4730:4739   */\n      dup3\n        /* \"#utility.yul\":4726:4744   */\n      add\n        /* \"#utility.yul\":4718:4744   */\n      swap1\n      pop\n        /* \"#utility.yul\":4754:4821   */\n      tag_242\n        /* \"#utility.yul\":4818:4819   */\n      0x00\n        /* \"#utility.yul\":4807:4816   */\n      dup4\n        /* \"#utility.yul\":4803:4820   */\n      add\n        /* \"#utility.yul\":4794:4800   */\n      dup5\n        /* \"#utility.yul\":4754:4821   */\n      tag_154\n      jump\t// in\n    tag_242:\n        /* \"#utility.yul\":4614:4828   */\n      swap3\n      swap2\n      pop\n      pop\n      jump\t// out\n        /* \"#utility.yul\":4834:4938   */\n    tag_155:\n        /* \"#utility.yul\":4879:4886   */\n      0x00\n        /* \"#utility.yul\":4908:4932   */\n      tag_244\n        /* \"#utility.yul\":4926:4931   */\n      dup3\n        /* \"#utility.yul\":4908:4932   */\n      tag_144\n      jump\t// in\n    tag_244:\n        /* \"#utility.yul\":4897:4932   */\n      swap1\n      pop\n        /* \"#utility.yul\":4834:4938   */\n      swap2\n      swap1\n      pop\n      jump\t// out\n        /* \"#utility.yul\":4944:5086   */\n    tag_156:\n        /* \"#utility.yul\":5047:5079   */\n      tag_246\n        /* \"#utility.yul\":5073:5078   */\n      dup2\n        /* \"#utility.yul\":5047:5079   */\n      tag_155\n      jump\t// in\n    tag_246:\n        /* \"#utility.yul\":5042:5045   */\n      dup3\n        /* \"#utility.yul\":5035:5080   */\n      mstore\n        /* \"#utility.yul\":4944:5086   */\n      pop\n      pop\n      jump\t// out\n        /* \"#utility.yul\":5092:5346   */\n    tag_67:\n        /* \"#utility.yul\":5201:5205   */\n      0x00\n        /* \"#utility.yul\":5239:5241   */\n      0x20\n        /* \"#utility.yul\":5228:5237   */\n      dup3\n        /* \"#utility.yul\":5224:5242   */\n      add\n        /* \"#utility.yul\":5216:5242   */\n      swap1\n      pop\n        /* \"#utility.yul\":5252:5339   */\n      tag_248\n        /* \"#utility.yul\":5336:5337   */\n      0x00\n        /* \"#utility.yul\":5325:5334   */\n      dup4\n        /* \"#utility.yul\":5321:5338   */\n      add\n        /* \"#utility.yul\":5312:5318   */\n      dup5\n        /* \"#utility.yul\":5252:5339   */\n      tag_156\n      jump\t// in\n    tag_248:\n        /* \"#utility.yul\":5092:5346   */\n      swap3\n      swap2\n      pop\n      pop\n      jump\t// out\n        /* \"#utility.yul\":5352:5521   */\n    tag_157:\n        /* \"#utility.yul\":5436:5447   */\n      0x00\n        /* \"#utility.yul\":5470:5476   */\n      dup3\n        /* \"#utility.yul\":5465:5468   */\n      dup3\n        /* \"#utility.yul\":5458:5477   */\n      mstore\n        /* \"#utility.yul\":5510:5514   */\n      0x20\n        /* \"#utility.yul\":5505:5508   */\n      dup3\n        /* \"#utility.yul\":5501:5515   */\n      add\n        /* \"#utility.yul\":5486:5515   */\n      swap1\n      pop\n        /* \"#utility.yul\":5352:5521   */\n      swap3\n      swap2\n      pop\n      pop\n      jump\t// out\n        /* \"#utility.yul\":5527:5692   */\n    tag_158:\n        /* \"#utility.yul\":5667:5684   */\n      0x436f6e7472616374205061757365640000000000000000000000000000000000\n        /* \"#utility.yul\":5663:5664   */\n      0x00\n        /* \"#utility.yul\":5655:5661   */\n      dup3\n        /* \"#utility.yul\":5651:5665   */\n      add\n        /* \"#utility.yul\":5644:5685   */\n      mstore\n        /* \"#utility.yul\":5527:5692   */\n      pop\n      jump\t// out\n        /* \"#utility.yul\":5698:6064   */\n    tag_159:\n        /* \"#utility.yul\":5840:5843   */\n      0x00\n        /* \"#utility.yul\":5861:5928   */\n      tag_252\n        /* \"#utility.yul\":5925:5927   */\n      0x0f\n        /* \"#utility.yul\":5920:5923   */\n      dup4\n        /* \"#utility.yul\":5861:5928   */\n      tag_157\n      jump\t// in\n    tag_252:\n        /* \"#utility.yul\":5854:5928   */\n      swap2\n      pop\n        /* \"#utility.yul\":5937:6030   */\n      tag_253\n        /* \"#utility.yul\":6026:6029   */\n      dup3\n        /* \"#utility.yul\":5937:6030   */\n      tag_158\n      jump\t// in\n    tag_253:\n        /* \"#utility.yul\":6055:6057   */\n      0x20\n        /* \"#utility.yul\":6050:6053   */\n      dup3\n        /* \"#utility.yul\":6046:6058   */\n      add\n        /* \"#utility.yul\":6039:6058   */\n      swap1\n      pop\n        /* \"#utility.yul\":5698:6064   */\n      swap2\n      swap1\n      pop\n      jump\t// out\n        /* \"#utility.yul\":6070:6489   */\n    tag_75:\n        /* \"#utility.yul\":6236:6240   */\n      0x00\n        /* \"#utility.yul\":6274:6276   */\n      0x20\n        /* \"#utility.yul\":6263:6272   */\n      dup3\n        /* \"#utility.yul\":6259:6277   */\n      add\n        /* \"#utility.yul\":6251:6277   */\n      swap1\n      pop\n        /* \"#utility.yul\":6323:6332   */\n      dup2\n        /* \"#utility.yul\":6317:6321   */\n      dup2\n        /* \"#utility.yul\":6313:6333   */\n      sub\n        /* \"#utility.yul\":6309:6310   */\n      0x00\n        /* \"#utility.yul\":6298:6307   */\n      dup4\n        /* \"#utility.yul\":6294:6311   */\n      add\n        /* \"#utility.yul\":6287:6334   */\n      mstore\n        /* \"#utility.yul\":6351:6482   */\n      tag_255\n        /* \"#utility.yul\":6477:6481   */\n      dup2\n        /* \"#utility.yul\":6351:6482   */\n      tag_159\n      jump\t// in\n    tag_255:\n        /* \"#utility.yul\":6343:6482   */\n      swap1\n      pop\n        /* \"#utility.yul\":6070:6489   */\n      swap2\n      swap1\n      pop\n      jump\t// out\n        /* \"#utility.yul\":6495:6667   */\n    tag_160:\n        /* \"#utility.yul\":6635:6659   */\n      0x4e6f205265656e7472616e63792c706c73207761697400000000000000000000\n        /* \"#utility.yul\":6631:6632   */\n      0x00\n        /* \"#utility.yul\":6623:6629   */\n      dup3\n        /* \"#utility.yul\":6619:6633   */\n      add\n        /* \"#utility.yul\":6612:6660   */\n      mstore\n        /* \"#utility.yul\":6495:6667   */\n      pop\n      jump\t// out\n        /* \"#utility.yul\":6673:7039   */\n    tag_161:\n        /* \"#utility.yul\":6815:6818   */\n      0x00\n        /* \"#utility.yul\":6836:6903   */\n      tag_258\n        /* \"#utility.yul\":6900:6902   */\n      0x16\n        /* \"#utility.yul\":6895:6898   */\n      dup4\n        /* \"#utility.yul\":6836:6903   */\n      tag_157\n      jump\t// in\n    tag_258:\n        /* \"#utility.yul\":6829:6903   */\n      swap2\n      pop\n        /* \"#utility.yul\":6912:7005   */\n      tag_259\n        /* \"#utility.yul\":7001:7004   */\n      dup3\n        /* \"#utility.yul\":6912:7005   */\n      tag_160\n      jump\t// in\n    tag_259:\n        /* \"#utility.yul\":7030:7032   */\n      0x20\n        /* \"#utility.yul\":7025:7028   */\n      dup3\n        /* \"#utility.yul\":7021:7033   */\n      add\n        /* \"#utility.yul\":7014:7033   */\n      swap1\n      pop\n        /* \"#utility.yul\":6673:7039   */\n      swap2\n      swap1\n      pop\n      jump\t// out\n        /* \"#utility.yul\":7045:7464   */\n    tag_79:\n        /* \"#utility.yul\":7211:7215   */\n      0x00\n        /* \"#utility.yul\":7249:7251   */\n      0x20\n        /* \"#utility.yul\":7238:7247   */\n      dup3\n        /* \"#utility.yul\":7234:7252   */\n      add\n        /* \"#utility.yul\":7226:7252   */\n      swap1\n      pop\n        /* \"#utility.yul\":7298:7307   */\n      dup2\n        /* \"#utility.yul\":7292:7296   */\n      dup2\n        /* \"#utility.yul\":7288:7308   */\n      sub\n        /* \"#utility.yul\":7284:7285   */\n      0x00\n        /* \"#utility.yul\":7273:7282   */\n      dup4\n        /* \"#utility.yul\":7269:7286   */\n      add\n        /* \"#utility.yul\":7262:7309   */\n      mstore\n        /* \"#utility.yul\":7326:7457   */\n      tag_261\n        /* \"#utility.yul\":7452:7456   */\n      dup2\n        /* \"#utility.yul\":7326:7457   */\n      tag_161\n      jump\t// in\n    tag_261:\n        /* \"#utility.yul\":7318:7457   */\n      swap1\n      pop\n        /* \"#utility.yul\":7045:7464   */\n      swap2\n      swap1\n      pop\n      jump\t// out\n        /* \"#utility.yul\":7470:7644   */\n    tag_162:\n        /* \"#utility.yul\":7610:7636   */\n      0x53656e64206d6f726520424e4220746f20627579205450540000000000000000\n        /* \"#utility.yul\":7606:7607   */\n      0x00\n        /* \"#utility.yul\":7598:7604   */\n      dup3\n        /* \"#utility.yul\":7594:7608   */\n      add\n        /* \"#utility.yul\":7587:7637   */\n      mstore\n        /* \"#utility.yul\":7470:7644   */\n      pop\n      jump\t// out\n        /* \"#utility.yul\":7650:8016   */\n    tag_163:\n        /* \"#utility.yul\":7792:7795   */\n      0x00\n        /* \"#utility.yul\":7813:7880   */\n      tag_264\n        /* \"#utility.yul\":7877:7879   */\n      0x18\n        /* \"#utility.yul\":7872:7875   */\n      dup4\n        /* \"#utility.yul\":7813:7880   */\n      tag_157\n      jump\t// in\n    tag_264:\n        /* \"#utility.yul\":7806:7880   */\n      swap2\n      pop\n        /* \"#utility.yul\":7889:7982   */\n      tag_265\n        /* \"#utility.yul\":7978:7981   */\n      dup3\n        /* \"#utility.yul\":7889:7982   */\n      tag_162\n      jump\t// in\n    tag_265:\n        /* \"#utility.yul\":8007:8009   */\n      0x20\n        /* \"#utility.yul\":8002:8005   */\n      dup3\n        /* \"#utility.yul\":7998:8010   */\n      add\n        /* \"#utility.yul\":7991:8010   */\n      swap1\n      pop\n        /* \"#utility.yul\":7650:8016   */\n      swap2\n      swap1\n      pop\n      jump\t// out\n        /* \"#utility.yul\":8022:8441   */\n    tag_83:\n        /* \"#utility.yul\":8188:8192   */\n      0x00\n        /* \"#utility.yul\":8226:8228   */\n      0x20\n        /* \"#utility.yul\":8215:8224   */\n      dup3\n        /* \"#utility.yul\":8211:8229   */\n      add\n        /* \"#utility.yul\":8203:8229   */\n      swap1\n      pop\n        /* \"#utility.yul\":8275:8284   */\n      dup2\n        /* \"#utility.yul\":8269:8273   */\n      dup2\n        /* \"#utility.yul\":8265:8285   */\n      sub\n        /* \"#utility.yul\":8261:8262   */\n      0x00\n        /* \"#utility.yul\":8250:8259   */\n      dup4\n        /* \"#utility.yul\":8246:8263   */\n      add\n        /* \"#utility.yul\":8239:8286   */\n      mstore\n        /* \"#utility.yul\":8303:8434   */\n      tag_267\n        /* \"#utility.yul\":8429:8433   */\n      dup2\n        /* \"#utility.yul\":8303:8434   */\n      tag_163\n      jump\t// in\n    tag_267:\n        /* \"#utility.yul\":8295:8434   */\n      swap1\n      pop\n        /* \"#utility.yul\":8022:8441   */\n      swap2\n      swap1\n      pop\n      jump\t// out\n        /* \"#utility.yul\":8447:8616   */\n    tag_164:\n        /* \"#utility.yul\":8587:8608   */\n      0x496e76616c69642064617461206c656e67746800000000000000000000000000\n        /* \"#utility.yul\":8583:8584   */\n      0x00\n        /* \"#utility.yul\":8575:8581   */\n      dup3\n        /* \"#utility.yul\":8571:8585   */\n      add\n        /* \"#utility.yul\":8564:8609   */\n      mstore\n        /* \"#utility.yul\":8447:8616   */\n      pop\n      jump\t// out\n        /* \"#utility.yul\":8622:8988   */\n    tag_165:\n        /* \"#utility.yul\":8764:8767   */\n      0x00\n        /* \"#utility.yul\":8785:8852   */\n      tag_270\n        /* \"#utility.yul\":8849:8851   */\n      0x13\n        /* \"#utility.yul\":8844:8847   */\n      dup4\n        /* \"#utility.yul\":8785:8852   */\n      tag_157\n      jump\t// in\n    tag_270:\n        /* \"#utility.yul\":8778:8852   */\n      swap2\n      pop\n        /* \"#utility.yul\":8861:8954   */\n      tag_271\n        /* \"#utility.yul\":8950:8953   */\n      dup3\n        /* \"#utility.yul\":8861:8954   */\n      tag_164\n      jump\t// in\n    tag_271:\n        /* \"#utility.yul\":8979:8981   */\n      0x20\n        /* \"#utility.yul\":8974:8977   */\n      dup3\n        /* \"#utility.yul\":8970:8982   */\n      add\n        /* \"#utility.yul\":8963:8982   */\n      swap1\n      pop\n        /* \"#utility.yul\":8622:8988   */\n      swap2\n      swap1\n      pop\n      jump\t// out\n        /* \"#utility.yul\":8994:9413   */\n    tag_86:\n        /* \"#utility.yul\":9160:9164   */\n      0x00\n        /* \"#utility.yul\":9198:9200   */\n      0x20\n        /* \"#utility.yul\":9187:9196   */\n      dup3\n        /* \"#utility.yul\":9183:9201   */\n      add\n        /* \"#utility.yul\":9175:9201   */\n      swap1\n      pop\n        /* \"#utility.yul\":9247:9256   */\n      dup2\n        /* \"#utility.yul\":9241:9245   */\n      dup2\n        /* \"#utility.yul\":9237:9257   */\n      sub\n        /* \"#utility.yul\":9233:9234   */\n      0x00\n        /* \"#utility.yul\":9222:9231   */\n      dup4\n        /* \"#utility.yul\":9218:9235   */\n      add\n        /* \"#utility.yul\":9211:9258   */\n      mstore\n        /* \"#utility.yul\":9275:9406   */\n      tag_273\n        /* \"#utility.yul\":9401:9405   */\n      dup2\n        /* \"#utility.yul\":9275:9406   */\n      tag_165\n      jump\t// in\n    tag_273:\n        /* \"#utility.yul\":9267:9406   */\n      swap1\n      pop\n        /* \"#utility.yul\":8994:9413   */\n      swap2\n      swap1\n      pop\n      jump\t// out\n        /* \"#utility.yul\":9419:9599   */\n    tag_166:\n        /* \"#utility.yul\":9467:9544   */\n      0x4e487b7100000000000000000000000000000000000000000000000000000000\n        /* \"#utility.yul\":9464:9465   */\n      0x00\n        /* \"#utility.yul\":9457:9545   */\n      mstore\n        /* \"#utility.yul\":9564:9568   */\n      0x11\n        /* \"#utility.yul\":9561:9562   */\n      0x04\n        /* \"#utility.yul\":9554:9569   */\n      mstore\n        /* \"#utility.yul\":9588:9592   */\n      0x24\n        /* \"#utility.yul\":9585:9586   */\n      0x00\n        /* \"#utility.yul\":9578:9593   */\n      revert\n        /* \"#utility.yul\":9605:9838   */\n    tag_90:\n        /* \"#utility.yul\":9644:9647   */\n      0x00\n        /* \"#utility.yul\":9667:9691   */\n      tag_276\n        /* \"#utility.yul\":9685:9690   */\n      dup3\n        /* \"#utility.yul\":9667:9691   */\n      tag_141\n      jump\t// in\n    tag_276:\n        /* \"#utility.yul\":9658:9691   */\n      swap2\n      pop\n        /* \"#utility.yul\":9713:9779   */\n      0xffffffffffffffffffffffffffffffffffffffffffffffffffffffffffffffff\n        /* \"#utility.yul\":9706:9711   */\n      dup3\n        /* \"#utility.yul\":9703:9780   */\n      sub\n        /* \"#utility.yul\":9700:9803   */\n      tag_277\n      jumpi\n        /* \"#utility.yul\":9783:9801   */\n      tag_278\n      tag_166\n      jump\t// in\n    tag_278:\n        /* \"#utility.yul\":9700:9803   */\n    tag_277:\n        /* \"#utility.yul\":9830:9831   */\n      0x01\n        /* \"#utility.yul\":9823:9828   */\n      dup3\n        /* \"#utility.yul\":9819:9832   */\n      add\n        /* \"#utility.yul\":9812:9832   */\n      swap1\n      pop\n        /* \"#utility.yul\":9605:9838   */\n      swap2\n      swap1\n      pop\n      jump\t// out\n        /* \"#utility.yul\":9844:9987   */\n    tag_167:\n        /* \"#utility.yul\":9901:9906   */\n      0x00\n        /* \"#utility.yul\":9932:9938   */\n      dup2\n        /* \"#utility.yul\":9926:9939   */\n      mload\n        /* \"#utility.yul\":9917:9939   */\n      swap1\n      pop\n        /* \"#utility.yul\":9948:9981   */\n      tag_280\n        /* \"#utility.yul\":9975:9980   */\n      dup2\n        /* \"#utility.yul\":9948:9981   */\n      tag_142\n      jump\t// in\n    tag_280:\n        /* \"#utility.yul\":9844:9987   */\n      swap3\n      swap2\n      pop\n      pop\n      jump\t// out\n        /* \"#utility.yul\":9993:10344   */\n    tag_97:\n        /* \"#utility.yul\":10063:10069   */\n      0x00\n        /* \"#utility.yul\":10112:10114   */\n      0x20\n        /* \"#utility.yul\":10100:10109   */\n      dup3\n        /* \"#utility.yul\":10091:10098   */\n      dup5\n        /* \"#utility.yul\":10087:10110   */\n      sub\n        /* \"#utility.yul\":10083:10115   */\n      slt\n        /* \"#utility.yul\":10080:10199   */\n      iszero\n      tag_282\n      jumpi\n        /* \"#utility.yul\":10118:10197   */\n      tag_283\n      tag_136\n      jump\t// in\n    tag_283:\n        /* \"#utility.yul\":10080:10199   */\n    tag_282:\n        /* \"#utility.yul\":10238:10239   */\n      0x00\n        /* \"#utility.yul\":10263:10327   */\n      tag_284\n        /* \"#utility.yul\":10319:10326   */\n      dup5\n        /* \"#utility.yul\":10310:10316   */\n      dup3\n        /* \"#utility.yul\":10299:10308   */\n      dup6\n        /* \"#utility.yul\":10295:10317   */\n      add\n        /* \"#utility.yul\":10263:10327   */\n      tag_167\n      jump\t// in\n    tag_284:\n        /* \"#utility.yul\":10253:10327   */\n      swap2\n      pop\n        /* \"#utility.yul\":10209:10337   */\n      pop\n        /* \"#utility.yul\":9993:10344   */\n      swap3\n      swap2\n      pop\n      pop\n      jump\t// out\n        /* \"#utility.yul\":10350:10497   */\n    tag_168:\n        /* \"#utility.yul\":10451:10462   */\n      0x00\n        /* \"#utility.yul\":10488:10491   */\n      dup2\n        /* \"#utility.yul\":10473:10491   */\n      swap1\n      pop\n        /* \"#utility.yul\":10350:10497   */\n      swap3\n      swap2\n      pop\n      pop\n      jump\t// out\n        /* \"#utility.yul\":10503:10617   */\n    tag_169:\n      pop\n      jump\t// out\n        /* \"#utility.yul\":10623:11021   */\n    tag_170:\n        /* \"#utility.yul\":10782:10785   */\n      0x00\n        /* \"#utility.yul\":10803:10886   */\n      tag_288\n        /* \"#utility.yul\":10884:10885   */\n      0x00\n        /* \"#utility.yul\":10879:10882   */\n      dup4\n        /* \"#utility.yul\":10803:10886   */\n      tag_168\n      jump\t// in\n    tag_288:\n        /* \"#utility.yul\":10796:10886   */\n      swap2\n      pop\n        /* \"#utility.yul\":10895:10988   */\n      tag_289\n        /* \"#utility.yul\":10984:10987   */\n      dup3\n        /* \"#utility.yul\":10895:10988   */\n      tag_169\n      jump\t// in\n    tag_289:\n        /* \"#utility.yul\":11013:11014   */\n      0x00\n        /* \"#utility.yul\":11008:11011   */\n      dup3\n        /* \"#utility.yul\":11004:11015   */\n      add\n        /* \"#utility.yul\":10997:11015   */\n      swap1\n      pop\n        /* \"#utility.yul\":10623:11021   */\n      swap2\n      swap1\n      pop\n      jump\t// out\n        /* \"#utility.yul\":11027:11406   */\n    tag_100:\n        /* \"#utility.yul\":11211:11214   */\n      0x00\n        /* \"#utility.yul\":11233:11380   */\n      tag_291\n        /* \"#utility.yul\":11376:11379   */\n      dup3\n        /* \"#utility.yul\":11233:11380   */\n      tag_170\n      jump\t// in\n    tag_291:\n        /* \"#utility.yul\":11226:11380   */\n      swap2\n      pop\n        /* \"#utility.yul\":11397:11400   */\n      dup2\n        /* \"#utility.yul\":11390:11400   */\n      swap1\n      pop\n        /* \"#utility.yul\":11027:11406   */\n      swap2\n      swap1\n      pop\n      jump\t// out\n        /* \"#utility.yul\":11412:11632   */\n    tag_171:\n        /* \"#utility.yul\":11552:11586   */\n      0x5472616e7366657220746f20707269636520636f6e7472616374206661696c65\n        /* \"#utility.yul\":11548:11549   */\n      0x00\n        /* \"#utility.yul\":11540:11546   */\n      dup3\n        /* \"#utility.yul\":11536:11550   */\n      add\n        /* \"#utility.yul\":11529:11587   */\n      mstore\n        /* \"#utility.yul\":11621:11624   */\n      0x6400000000000000000000000000000000000000000000000000000000000000\n        /* \"#utility.yul\":11616:11618   */\n      0x20\n        /* \"#utility.yul\":11608:11614   */\n      dup3\n        /* \"#utility.yul\":11604:11619   */\n      add\n        /* \"#utility.yul\":11597:11625   */\n      mstore\n        /* \"#utility.yul\":11412:11632   */\n      pop\n      jump\t// out\n        /* \"#utility.yul\":11638:12004   */\n    tag_172:\n        /* \"#utility.yul\":11780:11783   */\n      0x00\n        /* \"#utility.yul\":11801:11868   */\n      tag_294\n        /* \"#utility.yul\":11865:11867   */\n      0x21\n        /* \"#utility.yul\":11860:11863   */\n      dup4\n        /* \"#utility.yul\":11801:11868   */\n      tag_157\n      jump\t// in\n    tag_294:\n        /* \"#utility.yul\":11794:11868   */\n      swap2\n      pop\n        /* \"#utility.yul\":11877:11970   */\n      tag_295\n        /* \"#utility.yul\":11966:11969   */\n      dup3\n        /* \"#utility.yul\":11877:11970   */\n      tag_171\n      jump\t// in\n    tag_295:\n        /* \"#utility.yul\":11995:11997   */\n      0x40\n        /* \"#utility.yul\":11990:11993   */\n      dup3\n        /* \"#utility.yul\":11986:11998   */\n      add\n        /* \"#utility.yul\":11979:11998   */\n      swap1\n      pop\n        /* \"#utility.yul\":11638:12004   */\n      swap2\n      swap1\n      pop\n      jump\t// out\n        /* \"#utility.yul\":12010:12429   */\n    tag_106:\n        /* \"#utility.yul\":12176:12180   */\n      0x00\n        /* \"#utility.yul\":12214:12216   */\n      0x20\n        /* \"#utility.yul\":12203:12212   */\n      dup3\n        /* \"#utility.yul\":12199:12217   */\n      add\n        /* \"#utility.yul\":12191:12217   */\n      swap1\n      pop\n        /* \"#utility.yul\":12263:12272   */\n      dup2\n        /* \"#utility.yul\":12257:12261   */\n      dup2\n        /* \"#utility.yul\":12253:12273   */\n      sub\n        /* \"#utility.yul\":12249:12250   */\n      0x00\n        /* \"#utility.yul\":12238:12247   */\n      dup4\n        /* \"#utility.yul\":12234:12251   */\n      add\n        /* \"#utility.yul\":12227:12274   */\n      mstore\n        /* \"#utility.yul\":12291:12422   */\n      tag_297\n        /* \"#utility.yul\":12417:12421   */\n      dup2\n        /* \"#utility.yul\":12291:12422   */\n      tag_172\n      jump\t// in\n    tag_297:\n        /* \"#utility.yul\":12283:12422   */\n      swap1\n      pop\n        /* \"#utility.yul\":12010:12429   */\n      swap2\n      swap1\n      pop\n      jump\t// out\n        /* \"#utility.yul\":12435:12533   */\n    tag_173:\n        /* \"#utility.yul\":12486:12492   */\n      0x00\n        /* \"#utility.yul\":12520:12525   */\n      dup2\n        /* \"#utility.yul\":12514:12526   */\n      mload\n        /* \"#utility.yul\":12504:12526   */\n      swap1\n      pop\n        /* \"#utility.yul\":12435:12533   */\n      swap2\n      swap1\n      pop\n      jump\t// out\n        /* \"#utility.yul\":12539:12678   */\n    tag_174:\n        /* \"#utility.yul\":12628:12634   */\n      dup3\n        /* \"#utility.yul\":12623:12626   */\n      dup2\n        /* \"#utility.yul\":12618:12621   */\n      dup4\n        /* \"#utility.yul\":12612:12635   */\n      mcopy\n        /* \"#utility.yul\":12669:12670   */\n      0x00\n        /* \"#utility.yul\":12660:12666   */\n      dup4\n        /* \"#utility.yul\":12655:12658   */\n      dup4\n        /* \"#utility.yul\":12651:12667   */\n      add\n        /* \"#utility.yul\":12644:12671   */\n      mstore\n        /* \"#utility.yul\":12539:12678   */\n      pop\n      pop\n      pop\n      jump\t// out\n        /* \"#utility.yul\":12684:13070   */\n    tag_175:\n        /* \"#utility.yul\":12788:12791   */\n      0x00\n        /* \"#utility.yul\":12816:12854   */\n      tag_301\n        /* \"#utility.yul\":12848:12853   */\n      dup3\n        /* \"#utility.yul\":12816:12854   */\n      tag_173\n      jump\t// in\n    tag_301:\n        /* \"#utility.yul\":12870:12958   */\n      tag_302\n        /* \"#utility.yul\":12951:12957   */\n      dup2\n        /* \"#utility.yul\":12946:12949   */\n      dup6\n        /* \"#utility.yul\":12870:12958   */\n      tag_168\n      jump\t// in\n    tag_302:\n        /* \"#utility.yul\":12863:12958   */\n      swap4\n      pop\n        /* \"#utility.yul\":12967:13032   */\n      tag_303\n        /* \"#utility.yul\":13025:13031   */\n      dup2\n        /* \"#utility.yul\":13020:13023   */\n      dup6\n        /* \"#utility.yul\":13013:13017   */\n      0x20\n        /* \"#utility.yul\":13006:13011   */\n      dup7\n        /* \"#utility.yul\":13002:13018   */\n      add\n        /* \"#utility.yul\":12967:13032   */\n      tag_174\n      jump\t// in\n    tag_303:\n        /* \"#utility.yul\":13057:13063   */\n      dup1\n        /* \"#utility.yul\":13052:13055   */\n      dup5\n        /* \"#utility.yul\":13048:13064   */\n      add\n        /* \"#utility.yul\":13041:13064   */\n      swap2\n      pop\n        /* \"#utility.yul\":12792:13070   */\n      pop\n        /* \"#utility.yul\":12684:13070   */\n      swap3\n      swap2\n      pop\n      pop\n      jump\t// out\n        /* \"#utility.yul\":13076:13347   */\n    tag_109:\n        /* \"#utility.yul\":13206:13209   */\n      0x00\n        /* \"#utility.yul\":13228:13321   */\n      tag_305\n        /* \"#utility.yul\":13317:13320   */\n      dup3\n        /* \"#utility.yul\":13308:13314   */\n      dup5\n        /* \"#utility.yul\":13228:13321   */\n      tag_175\n      jump\t// in\n    tag_305:\n        /* \"#utility.yul\":13221:13321   */\n      swap2\n      pop\n        /* \"#utility.yul\":13338:13341   */\n      dup2\n        /* \"#utility.yul\":13331:13341   */\n      swap1\n      pop\n        /* \"#utility.yul\":13076:13347   */\n      swap3\n      swap2\n      pop\n      pop\n      jump\t// out\n        /* \"#utility.yul\":13353:13522   */\n    tag_176:\n        /* \"#utility.yul\":13493:13514   */\n      0x4661696c656420746f2067657420707269636500000000000000000000000000\n        /* \"#utility.yul\":13489:13490   */\n      0x00\n        /* \"#utility.yul\":13481:13487   */\n      dup3\n        /* \"#utility.yul\":13477:13491   */\n      add\n        /* \"#utility.yul\":13470:13515   */\n      mstore\n        /* \"#utility.yul\":13353:13522   */\n      pop\n      jump\t// out\n        /* \"#utility.yul\":13528:13894   */\n    tag_177:\n        /* \"#utility.yul\":13670:13673   */\n      0x00\n        /* \"#utility.yul\":13691:13758   */\n      tag_308\n        /* \"#utility.yul\":13755:13757   */\n      0x13\n        /* \"#utility.yul\":13750:13753   */\n      dup4\n        /* \"#utility.yul\":13691:13758   */\n      tag_157\n      jump\t// in\n    tag_308:\n        /* \"#utility.yul\":13684:13758   */\n      swap2\n      pop\n        /* \"#utility.yul\":13767:13860   */\n      tag_309\n        /* \"#utility.yul\":13856:13859   */\n      dup3\n        /* \"#utility.yul\":13767:13860   */\n      tag_176\n      jump\t// in\n    tag_309:\n        /* \"#utility.yul\":13885:13887   */\n      0x20\n        /* \"#utility.yul\":13880:13883   */\n      dup3\n        /* \"#utility.yul\":13876:13888   */\n      add\n        /* \"#utility.yul\":13869:13888   */\n      swap1\n      pop\n        /* \"#utility.yul\":13528:13894   */\n      swap2\n      swap1\n      pop\n      jump\t// out\n        /* \"#utility.yul\":13900:14319   */\n    tag_115:\n        /* \"#utility.yul\":14066:14070   */\n      0x00\n        /* \"#utility.yul\":14104:14106   */\n      0x20\n        /* \"#utility.yul\":14093:14102   */\n      dup3\n        /* \"#utility.yul\":14089:14107   */\n      add\n        /* \"#utility.yul\":14081:14107   */\n      swap1\n      pop\n        /* \"#utility.yul\":14153:14162   */\n      dup2\n        /* \"#utility.yul\":14147:14151   */\n      dup2\n        /* \"#utility.yul\":14143:14163   */\n      sub\n        /* \"#utility.yul\":14139:14140   */\n      0x00\n        /* \"#utility.yul\":14128:14137   */\n      dup4\n        /* \"#utility.yul\":14124:14141   */\n      add\n        /* \"#utility.yul\":14117:14164   */\n      mstore\n        /* \"#utility.yul\":14181:14312   */\n      tag_311\n        /* \"#utility.yul\":14307:14311   */\n      dup2\n        /* \"#utility.yul\":14181:14312   */\n      tag_177\n      jump\t// in\n    tag_311:\n        /* \"#utility.yul\":14173:14312   */\n      swap1\n      pop\n        /* \"#utility.yul\":13900:14319   */\n      swap2\n      swap1\n      pop\n      jump\t// out\n        /* \"#utility.yul\":14325:14505   */\n    tag_178:\n        /* \"#utility.yul\":14373:14450   */\n      0x4e487b7100000000000000000000000000000000000000000000000000000000\n        /* \"#utility.yul\":14370:14371   */\n      0x00\n        /* \"#utility.yul\":14363:14451   */\n      mstore\n        /* \"#utility.yul\":14470:14474   */\n      0x12\n        /* \"#utility.yul\":14467:14468   */\n      0x04\n        /* \"#utility.yul\":14460:14475   */\n      mstore\n        /* \"#utility.yul\":14494:14498   */\n      0x24\n        /* \"#utility.yul\":14491:14492   */\n      0x00\n        /* \"#utility.yul\":14484:14499   */\n      revert\n        /* \"#utility.yul\":14511:14696   */\n    tag_121:\n        /* \"#utility.yul\":14551:14552   */\n      0x00\n        /* \"#utility.yul\":14568:14588   */\n      tag_314\n        /* \"#utility.yul\":14586:14587   */\n      dup3\n        /* \"#utility.yul\":14568:14588   */\n      tag_141\n      jump\t// in\n    tag_314:\n        /* \"#utility.yul\":14563:14588   */\n      swap2\n      pop\n        /* \"#utility.yul\":14602:14622   */\n      tag_315\n        /* \"#utility.yul\":14620:14621   */\n      dup4\n        /* \"#utility.yul\":14602:14622   */\n      tag_141\n      jump\t// in\n    tag_315:\n        /* \"#utility.yul\":14597:14622   */\n      swap3\n      pop\n        /* \"#utility.yul\":14641:14642   */\n      dup3\n        /* \"#utility.yul\":14631:14666   */\n      tag_316\n      jumpi\n        /* \"#utility.yul\":14646:14664   */\n      tag_317\n      tag_178\n      jump\t// in\n    tag_317:\n        /* \"#utility.yul\":14631:14666   */\n    tag_316:\n        /* \"#utility.yul\":14688:14689   */\n      dup3\n        /* \"#utility.yul\":14685:14686   */\n      dup3\n        /* \"#utility.yul\":14681:14690   */\n      div\n        /* \"#utility.yul\":14676:14690   */\n      swap1\n      pop\n        /* \"#utility.yul\":14511:14696   */\n      swap3\n      swap2\n      pop\n      pop\n      jump\t// out\n        /* \"#utility.yul\":14702:15112   */\n    tag_127:\n        /* \"#utility.yul\":14742:14749   */\n      0x00\n        /* \"#utility.yul\":14765:14785   */\n      tag_319\n        /* \"#utility.yul\":14783:14784   */\n      dup3\n        /* \"#utility.yul\":14765:14785   */\n      tag_141\n      jump\t// in\n    tag_319:\n        /* \"#utility.yul\":14760:14785   */\n      swap2\n      pop\n        /* \"#utility.yul\":14799:14819   */\n      tag_320\n        /* \"#utility.yul\":14817:14818   */\n      dup4\n        /* \"#utility.yul\":14799:14819   */\n      tag_141\n      jump\t// in\n    tag_320:\n        /* \"#utility.yul\":14794:14819   */\n      swap3\n      pop\n        /* \"#utility.yul\":14854:14855   */\n      dup3\n        /* \"#utility.yul\":14851:14852   */\n      dup3\n        /* \"#utility.yul\":14847:14856   */\n      mul\n        /* \"#utility.yul\":14876:14906   */\n      tag_321\n        /* \"#utility.yul\":14894:14905   */\n      dup2\n        /* \"#utility.yul\":14876:14906   */\n      tag_141\n      jump\t// in\n    tag_321:\n        /* \"#utility.yul\":14865:14906   */\n      swap2\n      pop\n        /* \"#utility.yul\":15055:15056   */\n      dup3\n        /* \"#utility.yul\":15046:15053   */\n      dup3\n        /* \"#utility.yul\":15042:15057   */\n      div\n        /* \"#utility.yul\":15039:15040   */\n      dup5\n        /* \"#utility.yul\":15036:15058   */\n      eq\n        /* \"#utility.yul\":15016:15017   */\n      dup4\n        /* \"#utility.yul\":15009:15018   */\n      iszero\n        /* \"#utility.yul\":14989:15072   */\n      or\n        /* \"#utility.yul\":14966:15105   */\n      tag_322\n      jumpi\n        /* \"#utility.yul\":15085:15103   */\n      tag_323\n      tag_166\n      jump\t// in\n    tag_323:\n        /* \"#utility.yul\":14966:15105   */\n    tag_322:\n        /* \"#utility.yul\":14750:15112   */\n      pop\n        /* \"#utility.yul\":14702:15112   */\n      swap3\n      swap2\n      pop\n      pop\n      jump\t// out\n\n    auxdata: 0xa2646970667358221220e2c6e25d98c0964646a00f549380c75bacc8fc45b7947593ab5f78ca4f9a724164736f6c634300081e0033\n}\n",
				"bytecode": {
					"linkReferences": {},
					"object": "608060405234801561000f575f5ffd5b506040516114023803806114028339818101604052810190610031919061012f565b3360015f6101000a81548173ffffffffffffffffffffffffffffffffffffffff021916908373ffffffffffffffffffffffffffffffffffffffff1602179055505f600160156101000a81548160ff021916908360ff160217905550805f5f6101000a81548173ffffffffffffffffffffffffffffffffffffffff021916908373ffffffffffffffffffffffffffffffffffffffff1602179055505061015a565b5f5ffd5b5f73ffffffffffffffffffffffffffffffffffffffff82169050919050565b5f6100fe826100d5565b9050919050565b61010e816100f4565b8114610118575f5ffd5b50565b5f8151905061012981610105565b92915050565b5f60208284031215610144576101436100d1565b5b5f6101518482850161011b565b91505092915050565b61129b806101675f395ff3fe608060405260043610610094575f3560e01c806398d5fdca1161005857806398d5fdca146101bb578063a52d981e146101d9578063ae24303114610209578063ae372ec114610233578063bff1f9e11461025d576100a4565b8063365b98b2146100bd578063376fe102146100fb578063556a7579146101375780635b148f7b146101735780638da5cb5b14610191576100a4565b366100a4576100a25f610287565b005b6100bb5f368101906100b69190610b6b565b610287565b005b3480156100c8575f5ffd5b506100e360048036038101906100de9190610bc9565b610604565b6040516100f293929190610c51565b60405180910390f35b348015610106575f5ffd5b50610121600480360381019061011c9190610cb0565b610655565b60405161012e9190610cdb565b60405180910390f35b348015610142575f5ffd5b5061015d60048036038101906101589190610d2a565b61066a565b60405161016a9190610cdb565b60405180910390f35b61017b61067f565b6040516101889190610cdb565b60405180910390f35b34801561019c575f5ffd5b506101a5610712565b6040516101b29190610d55565b60405180910390f35b6101c3610737565b6040516101d09190610cdb565b60405180910390f35b6101f360048036038101906101ee9190610b6b565b610972565b6040516102009190610cdb565b60405180910390f35b348015610214575f5ffd5b5061021d610a1b565b60405161022a9190610d7d565b60405180910390f35b34801561023e575f5ffd5b50610247610a2e565b6040516102549190610db6565b60405180910390f35b348015610268575f5ffd5b50610271610a52565b60405161027e9190610cdb565b60405180910390f35b5f600160159054906101000a900460ff1660ff16036102db576040517f08c379a00000000000000000000000000000000000000000000000000000000081526004016102d290610e29565b60405180910390fd5b60011515600160149054906101000a900460ff16151503610331576040517f08c379a000000000000000000000000000000000000000000000000000000000815260040161032890610e91565b60405180910390fd5b60018060146101000a81548160ff02191690831515021790555066b1a2bc2ec50000341015610395576040517f08c379a000000000000000000000000000000000000000000000000000000000815260040161038c90610ef9565b60405180910390fd5b60205f36905010156103dc576040517f08c379a00000000000000000000000000000000000000000000000000000000081526004016103d390610f61565b60405180910390fd5b5f6103e682610972565b90505f60045f3373ffffffffffffffffffffffffffffffffffffffff1673ffffffffffffffffffffffffffffffffffffffff1681526020019081526020015f2054036105cb5760035f81548092919061043e90610fac565b919050555060035460045f3373ffffffffffffffffffffffffffffffffffffffff1673ffffffffffffffffffffffffffffffffffffffff1681526020019081526020015f20819055505f60055f60035481526020019081526020015f20905033815f015f6101000a81548173ffffffffffffffffffffffffffffffffffffffff021916908373ffffffffffffffffffffffffffffffffffffffff1602179055505f81600101819055506001816002015f6101000a81548160ff0219169083151502179055508060055f60035481526020019081526020015f205f82015f9054906101000a900473ffffffffffffffffffffffffffffffffffffffff16815f015f6101000a81548173ffffffffffffffffffffffffffffffffffffffff021916908373ffffffffffffffffffffffffffffffffffffffff16021790555060018201548160010155600282015f9054906101000a900460ff16816002015f6101000a81548160ff02191690831515021790555060038201816003019080546105c5929190610a58565b50905050505b8060055f60035481526020019081526020015f2060010181905550505f600160146101000a81548160ff02191690831515021790555050565b6005602052805f5260405f205f91509050805f015f9054906101000a900473ffffffffffffffffffffffffffffffffffffffff1690806001015490806002015f9054906101000a900460ff16905083565b6004602052805f5260405f205f915090505481565b6002602052805f5260405f205f915090505481565b5f5f5f9054906101000a900473ffffffffffffffffffffffffffffffffffffffff1673ffffffffffffffffffffffffffffffffffffffff1663e03d16326040518163ffffffff1660e01b8152600401602060405180830381865afa1580156106e9573d5f5f3e3d5ffd5b505050506040513d601f19601f8201168201806040525081019061070d9190611007565b905090565b60015f9054906101000a900473ffffffffffffffffffffffffffffffffffffffff1681565b5f5f5f5f9054906101000a900473ffffffffffffffffffffffffffffffffffffffff1673ffffffffffffffffffffffffffffffffffffffff163460405161077d9061105f565b5f6040518083038185875af1925050503d805f81146107b7576040519150601f19603f3d011682016040523d82523d5f602084013e6107bc565b606091505b5050905080610800576040517f08c379a00000000000000000000000000000000000000000000000000000000081526004016107f7906110e3565b60405180910390fd5b5f5f5f5f9054906101000a900473ffffffffffffffffffffffffffffffffffffffff1673ffffffffffffffffffffffffffffffffffffffff163360405160240161084a9190610d55565b6040516020818303038152906040527fed9b8d50000000000000000000000000000000000000000000000000000000007bffffffffffffffffffffffffffffffffffffffffffffffffffffffff19166020820180517bffffffffffffffffffffffffffffffffffffffffffffffffffffffff83818316178352505050506040516108d49190611149565b5f60405180830381855afa9150503d805f811461090c576040519150601f19603f3d011682016040523d82523d5f602084013e610911565b606091505b509150915081610956576040517f08c379a000000000000000000000000000000000000000000000000000000000815260040161094d906111a9565b60405180910390fd5b8080602001905181019061096a9190611007565b935050505090565b5f5f61097c61067f565b90505f836109c65760025f600160159054906101000a900460ff1660ff1660ff1681526020019081526020015f205482346109b791906111f4565b6109c191906111f4565b610a0f565b6002805f600160159054906101000a900460ff1660ff1660ff1681526020019081526020015f205483346109fa91906111f4565b610a0491906111f4565b610a0e9190611224565b5b90508092505050919050565b600160159054906101000a900460ff1681565b5f5f9054906101000a900473ffffffffffffffffffffffffffffffffffffffff1681565b60035481565b828054828255905f5260205f20906004028101928215610ae3575f5260205f209160040282015b82811115610ae25782825f820154815f01556001820154816001015560028201548160020155600382015f9054906101000a900460ff16816003015f6101000a81548160ff021916908360ff160217905550505091600401919060040190610a7f565b5b509050610af09190610af4565b5090565b5b80821115610b2e575f5f82015f9055600182015f9055600282015f9055600382015f6101000a81549060ff021916905550600401610af5565b5090565b5f5ffd5b5f8115159050919050565b610b4a81610b36565b8114610b54575f5ffd5b50565b5f81359050610b6581610b41565b92915050565b5f60208284031215610b8057610b7f610b32565b5b5f610b8d84828501610b57565b91505092915050565b5f819050919050565b610ba881610b96565b8114610bb2575f5ffd5b50565b5f81359050610bc381610b9f565b92915050565b5f60208284031215610bde57610bdd610b32565b5b5f610beb84828501610bb5565b91505092915050565b5f73ffffffffffffffffffffffffffffffffffffffff82169050919050565b5f610c1d82610bf4565b9050919050565b610c2d81610c13565b82525050565b610c3c81610b96565b82525050565b610c4b81610b36565b82525050565b5f606082019050610c645f830186610c24565b610c716020830185610c33565b610c7e6040830184610c42565b949350505050565b610c8f81610c13565b8114610c99575f5ffd5b50565b5f81359050610caa81610c86565b92915050565b5f60208284031215610cc557610cc4610b32565b5b5f610cd284828501610c9c565b91505092915050565b5f602082019050610cee5f830184610c33565b92915050565b5f60ff82169050919050565b610d0981610cf4565b8114610d13575f5ffd5b50565b5f81359050610d2481610d00565b92915050565b5f60208284031215610d3f57610d3e610b32565b5b5f610d4c84828501610d16565b91505092915050565b5f602082019050610d685f830184610c24565b92915050565b610d7781610cf4565b82525050565b5f602082019050610d905f830184610d6e565b92915050565b5f610da082610bf4565b9050919050565b610db081610d96565b82525050565b5f602082019050610dc95f830184610da7565b92915050565b5f82825260208201905092915050565b7f436f6e74726163742050617573656400000000000000000000000000000000005f82015250565b5f610e13600f83610dcf565b9150610e1e82610ddf565b602082019050919050565b5f6020820190508181035f830152610e4081610e07565b9050919050565b7f4e6f205265656e7472616e63792c706c732077616974000000000000000000005f82015250565b5f610e7b601683610dcf565b9150610e8682610e47565b602082019050919050565b5f6020820190508181035f830152610ea881610e6f565b9050919050565b7f53656e64206d6f726520424e4220746f206275792054505400000000000000005f82015250565b5f610ee3601883610dcf565b9150610eee82610eaf565b602082019050919050565b5f6020820190508181035f830152610f1081610ed7565b9050919050565b7f496e76616c69642064617461206c656e677468000000000000000000000000005f82015250565b5f610f4b601383610dcf565b9150610f5682610f17565b602082019050919050565b5f6020820190508181035f830152610f7881610f3f565b9050919050565b7f4e487b71000000000000000000000000000000000000000000000000000000005f52601160045260245ffd5b5f610fb682610b96565b91507fffffffffffffffffffffffffffffffffffffffffffffffffffffffffffffffff8203610fe857610fe7610f7f565b5b600182019050919050565b5f8151905061100181610b9f565b92915050565b5f6020828403121561101c5761101b610b32565b5b5f61102984828501610ff3565b91505092915050565b5f81905092915050565b50565b5f61104a5f83611032565b91506110558261103c565b5f82019050919050565b5f6110698261103f565b9150819050919050565b7f5472616e7366657220746f20707269636520636f6e7472616374206661696c655f8201527f6400000000000000000000000000000000000000000000000000000000000000602082015250565b5f6110cd602183610dcf565b91506110d882611073565b604082019050919050565b5f6020820190508181035f8301526110fa816110c1565b9050919050565b5f81519050919050565b8281835e5f83830152505050565b5f61112382611101565b61112d8185611032565b935061113d81856020860161110b565b80840191505092915050565b5f6111548284611119565b915081905092915050565b7f4661696c656420746f20676574207072696365000000000000000000000000005f82015250565b5f611193601383610dcf565b915061119e8261115f565b602082019050919050565b5f6020820190508181035f8301526111c081611187565b9050919050565b7f4e487b71000000000000000000000000000000000000000000000000000000005f52601260045260245ffd5b5f6111fe82610b96565b915061120983610b96565b925082611219576112186111c7565b5b828204905092915050565b5f61122e82610b96565b915061123983610b96565b925082820261124781610b96565b9150828204841483151761125e5761125d610f7f565b5b509291505056fea2646970667358221220e2c6e25d98c0964646a00f549380c75bacc8fc45b7947593ab5f78ca4f9a724164736f6c634300081e0033",
					"opcodes": "PUSH1 0x80 PUSH1 0x40 MSTORE CALLVALUE DUP1 ISZERO PUSH2 0xF JUMPI PUSH0 PUSH0 REVERT JUMPDEST POP PUSH1 0x40 MLOAD PUSH2 0x1402 CODESIZE SUB DUP1 PUSH2 0x1402 DUP4 CODECOPY DUP2 DUP2 ADD PUSH1 0x40 MSTORE DUP2 ADD SWAP1 PUSH2 0x31 SWAP2 SWAP1 PUSH2 0x12F JUMP JUMPDEST CALLER PUSH1 0x1 PUSH0 PUSH2 0x100 EXP DUP2 SLOAD DUP2 PUSH20 0xFFFFFFFFFFFFFFFFFFFFFFFFFFFFFFFFFFFFFFFF MUL NOT AND SWAP1 DUP4 PUSH20 0xFFFFFFFFFFFFFFFFFFFFFFFFFFFFFFFFFFFFFFFF AND MUL OR SWAP1 SSTORE POP PUSH0 PUSH1 0x1 PUSH1 0x15 PUSH2 0x100 EXP DUP2 SLOAD DUP2 PUSH1 0xFF MUL NOT AND SWAP1 DUP4 PUSH1 0xFF AND MUL OR SWAP1 SSTORE POP DUP1 PUSH0 PUSH0 PUSH2 0x100 EXP DUP2 SLOAD DUP2 PUSH20 0xFFFFFFFFFFFFFFFFFFFFFFFFFFFFFFFFFFFFFFFF MUL NOT AND SWAP1 DUP4 PUSH20 0xFFFFFFFFFFFFFFFFFFFFFFFFFFFFFFFFFFFFFFFF AND MUL OR SWAP1 SSTORE POP POP PUSH2 0x15A JUMP JUMPDEST PUSH0 PUSH0 REVERT JUMPDEST PUSH0 PUSH20 0xFFFFFFFFFFFFFFFFFFFFFFFFFFFFFFFFFFFFFFFF DUP3 AND SWAP1 POP SWAP2 SWAP1 POP JUMP JUMPDEST PUSH0 PUSH2 0xFE DUP3 PUSH2 0xD5 JUMP JUMPDEST SWAP1 POP SWAP2 SWAP1 POP JUMP JUMPDEST PUSH2 0x10E DUP2 PUSH2 0xF4 JUMP JUMPDEST DUP2 EQ PUSH2 0x118 JUMPI PUSH0 PUSH0 REVERT JUMPDEST POP JUMP JUMPDEST PUSH0 DUP2 MLOAD SWAP1 POP PUSH2 0x129 DUP2 PUSH2 0x105 JUMP JUMPDEST SWAP3 SWAP2 POP POP JUMP JUMPDEST PUSH0 PUSH1 0x20 DUP3 DUP5 SUB SLT ISZERO PUSH2 0x144 JUMPI PUSH2 0x143 PUSH2 0xD1 JUMP JUMPDEST JUMPDEST PUSH0 PUSH2 0x151 DUP5 DUP3 DUP6 ADD PUSH2 0x11B JUMP JUMPDEST SWAP2 POP POP SWAP3 SWAP2 POP POP JUMP JUMPDEST PUSH2 0x129B DUP1 PUSH2 0x167 PUSH0 CODECOPY PUSH0 RETURN INVALID PUSH1 0x80 PUSH1 0x40 MSTORE PUSH1 0x4 CALLDATASIZE LT PUSH2 0x94 JUMPI PUSH0 CALLDATALOAD PUSH1 0xE0 SHR DUP1 PUSH4 0x98D5FDCA GT PUSH2 0x58 JUMPI DUP1 PUSH4 0x98D5FDCA EQ PUSH2 0x1BB JUMPI DUP1 PUSH4 0xA52D981E EQ PUSH2 0x1D9 JUMPI DUP1 PUSH4 0xAE243031 EQ PUSH2 0x209 JUMPI DUP1 PUSH4 0xAE372EC1 EQ PUSH2 0x233 JUMPI DUP1 PUSH4 0xBFF1F9E1 EQ PUSH2 0x25D JUMPI PUSH2 0xA4 JUMP JUMPDEST DUP1 PUSH4 0x365B98B2 EQ PUSH2 0xBD JUMPI DUP1 PUSH4 0x376FE102 EQ PUSH2 0xFB JUMPI DUP1 PUSH4 0x556A7579 EQ PUSH2 0x137 JUMPI DUP1 PUSH4 0x5B148F7B EQ PUSH2 0x173 JUMPI DUP1 PUSH4 0x8DA5CB5B EQ PUSH2 0x191 JUMPI PUSH2 0xA4 JUMP JUMPDEST CALLDATASIZE PUSH2 0xA4 JUMPI PUSH2 0xA2 PUSH0 PUSH2 0x287 JUMP JUMPDEST STOP JUMPDEST PUSH2 0xBB PUSH0 CALLDATASIZE DUP2 ADD SWAP1 PUSH2 0xB6 SWAP2 SWAP1 PUSH2 0xB6B JUMP JUMPDEST PUSH2 0x287 JUMP JUMPDEST STOP JUMPDEST CALLVALUE DUP1 ISZERO PUSH2 0xC8 JUMPI PUSH0 PUSH0 REVERT JUMPDEST POP PUSH2 0xE3 PUSH1 0x4 DUP1 CALLDATASIZE SUB DUP2 ADD SWAP1 PUSH2 0xDE SWAP2 SWAP1 PUSH2 0xBC9 JUMP JUMPDEST PUSH2 0x604 JUMP JUMPDEST PUSH1 0x40 MLOAD PUSH2 0xF2 SWAP4 SWAP3 SWAP2 SWAP1 PUSH2 0xC51 JUMP JUMPDEST PUSH1 0x40 MLOAD DUP1 SWAP2 SUB SWAP1 RETURN JUMPDEST CALLVALUE DUP1 ISZERO PUSH2 0x106 JUMPI PUSH0 PUSH0 REVERT JUMPDEST POP PUSH2 0x121 PUSH1 0x4 DUP1 CALLDATASIZE SUB DUP2 ADD SWAP1 PUSH2 0x11C SWAP2 SWAP1 PUSH2 0xCB0 JUMP JUMPDEST PUSH2 0x655 JUMP JUMPDEST PUSH1 0x40 MLOAD PUSH2 0x12E SWAP2 SWAP1 PUSH2 0xCDB JUMP JUMPDEST PUSH1 0x40 MLOAD DUP1 SWAP2 SUB SWAP1 RETURN JUMPDEST CALLVALUE DUP1 ISZERO PUSH2 0x142 JUMPI PUSH0 PUSH0 REVERT JUMPDEST POP PUSH2 0x15D PUSH1 0x4 DUP1 CALLDATASIZE SUB DUP2 ADD SWAP1 PUSH2 0x158 SWAP2 SWAP1 PUSH2 0xD2A JUMP JUMPDEST PUSH2 0x66A JUMP JUMPDEST PUSH1 0x40 MLOAD PUSH2 0x16A SWAP2 SWAP1 PUSH2 0xCDB JUMP JUMPDEST PUSH1 0x40 MLOAD DUP1 SWAP2 SUB SWAP1 RETURN JUMPDEST PUSH2 0x17B PUSH2 0x67F JUMP JUMPDEST PUSH1 0x40 MLOAD PUSH2 0x188 SWAP2 SWAP1 PUSH2 0xCDB JUMP JUMPDEST PUSH1 0x40 MLOAD DUP1 SWAP2 SUB SWAP1 RETURN JUMPDEST CALLVALUE DUP1 ISZERO PUSH2 0x19C JUMPI PUSH0 PUSH0 REVERT JUMPDEST POP PUSH2 0x1A5 PUSH2 0x712 JUMP JUMPDEST PUSH1 0x40 MLOAD PUSH2 0x1B2 SWAP2 SWAP1 PUSH2 0xD55 JUMP JUMPDEST PUSH1 0x40 MLOAD DUP1 SWAP2 SUB SWAP1 RETURN JUMPDEST PUSH2 0x1C3 PUSH2 0x737 JUMP JUMPDEST PUSH1 0x40 MLOAD PUSH2 0x1D0 SWAP2 SWAP1 PUSH2 0xCDB JUMP JUMPDEST PUSH1 0x40 MLOAD DUP1 SWAP2 SUB SWAP1 RETURN JUMPDEST PUSH2 0x1F3 PUSH1 0x4 DUP1 CALLDATASIZE SUB DUP2 ADD SWAP1 PUSH2 0x1EE SWAP2 SWAP1 PUSH2 0xB6B JUMP JUMPDEST PUSH2 0x972 JUMP JUMPDEST PUSH1 0x40 MLOAD PUSH2 0x200 SWAP2 SWAP1 PUSH2 0xCDB JUMP JUMPDEST PUSH1 0x40 MLOAD DUP1 SWAP2 SUB SWAP1 RETURN JUMPDEST CALLVALUE DUP1 ISZERO PUSH2 0x214 JUMPI PUSH0 PUSH0 REVERT JUMPDEST POP PUSH2 0x21D PUSH2 0xA1B JUMP JUMPDEST PUSH1 0x40 MLOAD PUSH2 0x22A SWAP2 SWAP1 PUSH2 0xD7D JUMP JUMPDEST PUSH1 0x40 MLOAD DUP1 SWAP2 SUB SWAP1 RETURN JUMPDEST CALLVALUE DUP1 ISZERO PUSH2 0x23E JUMPI PUSH0 PUSH0 REVERT JUMPDEST POP PUSH2 0x247 PUSH2 0xA2E JUMP JUMPDEST PUSH1 0x40 MLOAD PUSH2 0x254 SWAP2 SWAP1 PUSH2 0xDB6 JUMP JUMPDEST PUSH1 0x40 MLOAD DUP1 SWAP2 SUB SWAP1 RETURN JUMPDEST CALLVALUE DUP1 ISZERO PUSH2 0x268 JUMPI PUSH0 PUSH0 REVERT JUMPDEST POP PUSH2 0x271 PUSH2 0xA52 JUMP JUMPDEST PUSH1 0x40 MLOAD PUSH2 0x27E SWAP2 SWAP1 PUSH2 0xCDB JUMP JUMPDEST PUSH1 0x40 MLOAD DUP1 SWAP2 SUB SWAP1 RETURN JUMPDEST PUSH0 PUSH1 0x1 PUSH1 0x15 SWAP1 SLOAD SWAP1 PUSH2 0x100 EXP SWAP1 DIV PUSH1 0xFF AND PUSH1 0xFF AND SUB PUSH2 0x2DB JUMPI PUSH1 0x40 MLOAD PUSH32 0x8C379A000000000000000000000000000000000000000000000000000000000 DUP2 MSTORE PUSH1 0x4 ADD PUSH2 0x2D2 SWAP1 PUSH2 0xE29 JUMP JUMPDEST PUSH1 0x40 MLOAD DUP1 SWAP2 SUB SWAP1 REVERT JUMPDEST PUSH1 0x1 ISZERO ISZERO PUSH1 0x1 PUSH1 0x14 SWAP1 SLOAD SWAP1 PUSH2 0x100 EXP SWAP1 DIV PUSH1 0xFF AND ISZERO ISZERO SUB PUSH2 0x331 JUMPI PUSH1 0x40 MLOAD PUSH32 0x8C379A000000000000000000000000000000000000000000000000000000000 DUP2 MSTORE PUSH1 0x4 ADD PUSH2 0x328 SWAP1 PUSH2 0xE91 JUMP JUMPDEST PUSH1 0x40 MLOAD DUP1 SWAP2 SUB SWAP1 REVERT JUMPDEST PUSH1 0x1 DUP1 PUSH1 0x14 PUSH2 0x100 EXP DUP2 SLOAD DUP2 PUSH1 0xFF MUL NOT AND SWAP1 DUP4 ISZERO ISZERO MUL OR SWAP1 SSTORE POP PUSH7 0xB1A2BC2EC50000 CALLVALUE LT ISZERO PUSH2 0x395 JUMPI PUSH1 0x40 MLOAD PUSH32 0x8C379A000000000000000000000000000000000000000000000000000000000 DUP2 MSTORE PUSH1 0x4 ADD PUSH2 0x38C SWAP1 PUSH2 0xEF9 JUMP JUMPDEST PUSH1 0x40 MLOAD DUP1 SWAP2 SUB SWAP1 REVERT JUMPDEST PUSH1 0x20 PUSH0 CALLDATASIZE SWAP1 POP LT ISZERO PUSH2 0x3DC JUMPI PUSH1 0x40 MLOAD PUSH32 0x8C379A000000000000000000000000000000000000000000000000000000000 DUP2 MSTORE PUSH1 0x4 ADD PUSH2 0x3D3 SWAP1 PUSH2 0xF61 JUMP JUMPDEST PUSH1 0x40 MLOAD DUP1 SWAP2 SUB SWAP1 REVERT JUMPDEST PUSH0 PUSH2 0x3E6 DUP3 PUSH2 0x972 JUMP JUMPDEST SWAP1 POP PUSH0 PUSH1 0x4 PUSH0 CALLER PUSH20 0xFFFFFFFFFFFFFFFFFFFFFFFFFFFFFFFFFFFFFFFF AND PUSH20 0xFFFFFFFFFFFFFFFFFFFFFFFFFFFFFFFFFFFFFFFF AND DUP2 MSTORE PUSH1 0x20 ADD SWAP1 DUP2 MSTORE PUSH1 0x20 ADD PUSH0 KECCAK256 SLOAD SUB PUSH2 0x5CB JUMPI PUSH1 0x3 PUSH0 DUP2 SLOAD DUP1 SWAP3 SWAP2 SWAP1 PUSH2 0x43E SWAP1 PUSH2 0xFAC JUMP JUMPDEST SWAP2 SWAP1 POP SSTORE POP PUSH1 0x3 SLOAD PUSH1 0x4 PUSH0 CALLER PUSH20 0xFFFFFFFFFFFFFFFFFFFFFFFFFFFFFFFFFFFFFFFF AND PUSH20 0xFFFFFFFFFFFFFFFFFFFFFFFFFFFFFFFFFFFFFFFF AND DUP2 MSTORE PUSH1 0x20 ADD SWAP1 DUP2 MSTORE PUSH1 0x20 ADD PUSH0 KECCAK256 DUP2 SWAP1 SSTORE POP PUSH0 PUSH1 0x5 PUSH0 PUSH1 0x3 SLOAD DUP2 MSTORE PUSH1 0x20 ADD SWAP1 DUP2 MSTORE PUSH1 0x20 ADD PUSH0 KECCAK256 SWAP1 POP CALLER DUP2 PUSH0 ADD PUSH0 PUSH2 0x100 EXP DUP2 SLOAD DUP2 PUSH20 0xFFFFFFFFFFFFFFFFFFFFFFFFFFFFFFFFFFFFFFFF MUL NOT AND SWAP1 DUP4 PUSH20 0xFFFFFFFFFFFFFFFFFFFFFFFFFFFFFFFFFFFFFFFF AND MUL OR SWAP1 SSTORE POP PUSH0 DUP2 PUSH1 0x1 ADD DUP2 SWAP1 SSTORE POP PUSH1 0x1 DUP2 PUSH1 0x2 ADD PUSH0 PUSH2 0x100 EXP DUP2 SLOAD DUP2 PUSH1 0xFF MUL NOT AND SWAP1 DUP4 ISZERO ISZERO MUL OR SWAP1 SSTORE POP DUP1 PUSH1 0x5 PUSH0 PUSH1 0x3 SLOAD DUP2 MSTORE PUSH1 0x20 ADD SWAP1 DUP2 MSTORE PUSH1 0x20 ADD PUSH0 KECCAK256 PUSH0 DUP3 ADD PUSH0 SWAP1 SLOAD SWAP1 PUSH2 0x100 EXP SWAP1 DIV PUSH20 0xFFFFFFFFFFFFFFFFFFFFFFFFFFFFFFFFFFFFFFFF AND DUP2 PUSH0 ADD PUSH0 PUSH2 0x100 EXP DUP2 SLOAD DUP2 PUSH20 0xFFFFFFFFFFFFFFFFFFFFFFFFFFFFFFFFFFFFFFFF MUL NOT AND SWAP1 DUP4 PUSH20 0xFFFFFFFFFFFFFFFFFFFFFFFFFFFFFFFFFFFFFFFF AND MUL OR SWAP1 SSTORE POP PUSH1 0x1 DUP3 ADD SLOAD DUP2 PUSH1 0x1 ADD SSTORE PUSH1 0x2 DUP3 ADD PUSH0 SWAP1 SLOAD SWAP1 PUSH2 0x100 EXP SWAP1 DIV PUSH1 0xFF AND DUP2 PUSH1 0x2 ADD PUSH0 PUSH2 0x100 EXP DUP2 SLOAD DUP2 PUSH1 0xFF MUL NOT AND SWAP1 DUP4 ISZERO ISZERO MUL OR SWAP1 SSTORE POP PUSH1 0x3 DUP3 ADD DUP2 PUSH1 0x3 ADD SWAP1 DUP1 SLOAD PUSH2 0x5C5 SWAP3 SWAP2 SWAP1 PUSH2 0xA58 JUMP JUMPDEST POP SWAP1 POP POP POP JUMPDEST DUP1 PUSH1 0x5 PUSH0 PUSH1 0x3 SLOAD DUP2 MSTORE PUSH1 0x20 ADD SWAP1 DUP2 MSTORE PUSH1 0x20 ADD PUSH0 KECCAK256 PUSH1 0x1 ADD DUP2 SWAP1 SSTORE POP POP PUSH0 PUSH1 0x1 PUSH1 0x14 PUSH2 0x100 EXP DUP2 SLOAD DUP2 PUSH1 0xFF MUL NOT AND SWAP1 DUP4 ISZERO ISZERO MUL OR SWAP1 SSTORE POP POP JUMP JUMPDEST PUSH1 0x5 PUSH1 0x20 MSTORE DUP1 PUSH0 MSTORE PUSH1 0x40 PUSH0 KECCAK256 PUSH0 SWAP2 POP SWAP1 POP DUP1 PUSH0 ADD PUSH0 SWAP1 SLOAD SWAP1 PUSH2 0x100 EXP SWAP1 DIV PUSH20 0xFFFFFFFFFFFFFFFFFFFFFFFFFFFFFFFFFFFFFFFF AND SWAP1 DUP1 PUSH1 0x1 ADD SLOAD SWAP1 DUP1 PUSH1 0x2 ADD PUSH0 SWAP1 SLOAD SWAP1 PUSH2 0x100 EXP SWAP1 DIV PUSH1 0xFF AND SWAP1 POP DUP4 JUMP JUMPDEST PUSH1 0x4 PUSH1 0x20 MSTORE DUP1 PUSH0 MSTORE PUSH1 0x40 PUSH0 KECCAK256 PUSH0 SWAP2 POP SWAP1 POP SLOAD DUP2 JUMP JUMPDEST PUSH1 0x2 PUSH1 0x20 MSTORE DUP1 PUSH0 MSTORE PUSH1 0x40 PUSH0 KECCAK256 PUSH0 SWAP2 POP SWAP1 POP SLOAD DUP2 JUMP JUMPDEST PUSH0 PUSH0 PUSH0 SWAP1 SLOAD SWAP1 PUSH2 0x100 EXP SWAP1 DIV PUSH20 0xFFFFFFFFFFFFFFFFFFFFFFFFFFFFFFFFFFFFFFFF AND PUSH20 0xFFFFFFFFFFFFFFFFFFFFFFFFFFFFFFFFFFFFFFFF AND PUSH4 0xE03D1632 PUSH1 0x40 MLOAD DUP2 PUSH4 0xFFFFFFFF AND PUSH1 0xE0 SHL DUP2 MSTORE PUSH1 0x4 ADD PUSH1 0x20 PUSH1 0x40 MLOAD DUP1 DUP4 SUB DUP2 DUP7 GAS STATICCALL ISZERO DUP1 ISZERO PUSH2 0x6E9 JUMPI RETURNDATASIZE PUSH0 PUSH0 RETURNDATACOPY RETURNDATASIZE PUSH0 REVERT JUMPDEST POP POP POP POP PUSH1 0x40 MLOAD RETURNDATASIZE PUSH1 0x1F NOT PUSH1 0x1F DUP3 ADD AND DUP3 ADD DUP1 PUSH1 0x40 MSTORE POP DUP2 ADD SWAP1 PUSH2 0x70D SWAP2 SWAP1 PUSH2 0x1007 JUMP JUMPDEST SWAP1 POP SWAP1 JUMP JUMPDEST PUSH1 0x1 PUSH0 SWAP1 SLOAD SWAP1 PUSH2 0x100 EXP SWAP1 DIV PUSH20 0xFFFFFFFFFFFFFFFFFFFFFFFFFFFFFFFFFFFFFFFF AND DUP2 JUMP JUMPDEST PUSH0 PUSH0 PUSH0 PUSH0 SWAP1 SLOAD SWAP1 PUSH2 0x100 EXP SWAP1 DIV PUSH20 0xFFFFFFFFFFFFFFFFFFFFFFFFFFFFFFFFFFFFFFFF AND PUSH20 0xFFFFFFFFFFFFFFFFFFFFFFFFFFFFFFFFFFFFFFFF AND CALLVALUE PUSH1 0x40 MLOAD PUSH2 0x77D SWAP1 PUSH2 0x105F JUMP JUMPDEST PUSH0 PUSH1 0x40 MLOAD DUP1 DUP4 SUB DUP2 DUP6 DUP8 GAS CALL SWAP3 POP POP POP RETURNDATASIZE DUP1 PUSH0 DUP2 EQ PUSH2 0x7B7 JUMPI PUSH1 0x40 MLOAD SWAP2 POP PUSH1 0x1F NOT PUSH1 0x3F RETURNDATASIZE ADD AND DUP3 ADD PUSH1 0x40 MSTORE RETURNDATASIZE DUP3 MSTORE RETURNDATASIZE PUSH0 PUSH1 0x20 DUP5 ADD RETURNDATACOPY PUSH2 0x7BC JUMP JUMPDEST PUSH1 0x60 SWAP2 POP JUMPDEST POP POP SWAP1 POP DUP1 PUSH2 0x800 JUMPI PUSH1 0x40 MLOAD PUSH32 0x8C379A000000000000000000000000000000000000000000000000000000000 DUP2 MSTORE PUSH1 0x4 ADD PUSH2 0x7F7 SWAP1 PUSH2 0x10E3 JUMP JUMPDEST PUSH1 0x40 MLOAD DUP1 SWAP2 SUB SWAP1 REVERT JUMPDEST PUSH0 PUSH0 PUSH0 PUSH0 SWAP1 SLOAD SWAP1 PUSH2 0x100 EXP SWAP1 DIV PUSH20 0xFFFFFFFFFFFFFFFFFFFFFFFFFFFFFFFFFFFFFFFF AND PUSH20 0xFFFFFFFFFFFFFFFFFFFFFFFFFFFFFFFFFFFFFFFF AND CALLER PUSH1 0x40 MLOAD PUSH1 0x24 ADD PUSH2 0x84A SWAP2 SWAP1 PUSH2 0xD55 JUMP JUMPDEST PUSH1 0x40 MLOAD PUSH1 0x20 DUP2 DUP4 SUB SUB DUP2 MSTORE SWAP1 PUSH1 0x40 MSTORE PUSH32 0xED9B8D5000000000000000000000000000000000000000000000000000000000 PUSH28 0xFFFFFFFFFFFFFFFFFFFFFFFFFFFFFFFFFFFFFFFFFFFFFFFFFFFFFFFF NOT AND PUSH1 0x20 DUP3 ADD DUP1 MLOAD PUSH28 0xFFFFFFFFFFFFFFFFFFFFFFFFFFFFFFFFFFFFFFFFFFFFFFFFFFFFFFFF DUP4 DUP2 DUP4 AND OR DUP4 MSTORE POP POP POP POP PUSH1 0x40 MLOAD PUSH2 0x8D4 SWAP2 SWAP1 PUSH2 0x1149 JUMP JUMPDEST PUSH0 PUSH1 0x40 MLOAD DUP1 DUP4 SUB DUP2 DUP6 GAS STATICCALL SWAP2 POP POP RETURNDATASIZE DUP1 PUSH0 DUP2 EQ PUSH2 0x90C JUMPI PUSH1 0x40 MLOAD SWAP2 POP PUSH1 0x1F NOT PUSH1 0x3F RETURNDATASIZE ADD AND DUP3 ADD PUSH1 0x40 MSTORE RETURNDATASIZE DUP3 MSTORE RETURNDATASIZE PUSH0 PUSH1 0x20 DUP5 ADD RETURNDATACOPY PUSH2 0x911 JUMP JUMPDEST PUSH1 0x60 SWAP2 POP JUMPDEST POP SWAP2 POP SWAP2 POP DUP2 PUSH2 0x956 JUMPI PUSH1 0x40 MLOAD PUSH32 0x8C379A000000000000000000000000000000000000000000000000000000000 DUP2 MSTORE PUSH1 0x4 ADD PUSH2 0x94D SWAP1 PUSH2 0x11A9 JUMP JUMPDEST PUSH1 0x40 MLOAD DUP1 SWAP2 SUB SWAP1 REVERT JUMPDEST DUP1 DUP1 PUSH1 0x20 ADD SWAP1 MLOAD DUP2 ADD SWAP1 PUSH2 0x96A SWAP2 SWAP1 PUSH2 0x1007 JUMP JUMPDEST SWAP4 POP POP POP POP SWAP1 JUMP JUMPDEST PUSH0 PUSH0 PUSH2 0x97C PUSH2 0x67F JUMP JUMPDEST SWAP1 POP PUSH0 DUP4 PUSH2 0x9C6 JUMPI PUSH1 0x2 PUSH0 PUSH1 0x1 PUSH1 0x15 SWAP1 SLOAD SWAP1 PUSH2 0x100 EXP SWAP1 DIV PUSH1 0xFF AND PUSH1 0xFF AND PUSH1 0xFF AND DUP2 MSTORE PUSH1 0x20 ADD SWAP1 DUP2 MSTORE PUSH1 0x20 ADD PUSH0 KECCAK256 SLOAD DUP3 CALLVALUE PUSH2 0x9B7 SWAP2 SWAP1 PUSH2 0x11F4 JUMP JUMPDEST PUSH2 0x9C1 SWAP2 SWAP1 PUSH2 0x11F4 JUMP JUMPDEST PUSH2 0xA0F JUMP JUMPDEST PUSH1 0x2 DUP1 PUSH0 PUSH1 0x1 PUSH1 0x15 SWAP1 SLOAD SWAP1 PUSH2 0x100 EXP SWAP1 DIV PUSH1 0xFF AND PUSH1 0xFF AND PUSH1 0xFF AND DUP2 MSTORE PUSH1 0x20 ADD SWAP1 DUP2 MSTORE PUSH1 0x20 ADD PUSH0 KECCAK256 SLOAD DUP4 CALLVALUE PUSH2 0x9FA SWAP2 SWAP1 PUSH2 0x11F4 JUMP JUMPDEST PUSH2 0xA04 SWAP2 SWAP1 PUSH2 0x11F4 JUMP JUMPDEST PUSH2 0xA0E SWAP2 SWAP1 PUSH2 0x1224 JUMP JUMPDEST JUMPDEST SWAP1 POP DUP1 SWAP3 POP POP POP SWAP2 SWAP1 POP JUMP JUMPDEST PUSH1 0x1 PUSH1 0x15 SWAP1 SLOAD SWAP1 PUSH2 0x100 EXP SWAP1 DIV PUSH1 0xFF AND DUP2 JUMP JUMPDEST PUSH0 PUSH0 SWAP1 SLOAD SWAP1 PUSH2 0x100 EXP SWAP1 DIV PUSH20 0xFFFFFFFFFFFFFFFFFFFFFFFFFFFFFFFFFFFFFFFF AND DUP2 JUMP JUMPDEST PUSH1 0x3 SLOAD DUP2 JUMP JUMPDEST DUP3 DUP1 SLOAD DUP3 DUP3 SSTORE SWAP1 PUSH0 MSTORE PUSH1 0x20 PUSH0 KECCAK256 SWAP1 PUSH1 0x4 MUL DUP2 ADD SWAP3 DUP3 ISZERO PUSH2 0xAE3 JUMPI PUSH0 MSTORE PUSH1 0x20 PUSH0 KECCAK256 SWAP2 PUSH1 0x4 MUL DUP3 ADD JUMPDEST DUP3 DUP2 GT ISZERO PUSH2 0xAE2 JUMPI DUP3 DUP3 PUSH0 DUP3 ADD SLOAD DUP2 PUSH0 ADD SSTORE PUSH1 0x1 DUP3 ADD SLOAD DUP2 PUSH1 0x1 ADD SSTORE PUSH1 0x2 DUP3 ADD SLOAD DUP2 PUSH1 0x2 ADD SSTORE PUSH1 0x3 DUP3 ADD PUSH0 SWAP1 SLOAD SWAP1 PUSH2 0x100 EXP SWAP1 DIV PUSH1 0xFF AND DUP2 PUSH1 0x3 ADD PUSH0 PUSH2 0x100 EXP DUP2 SLOAD DUP2 PUSH1 0xFF MUL NOT AND SWAP1 DUP4 PUSH1 0xFF AND MUL OR SWAP1 SSTORE POP POP POP SWAP2 PUSH1 0x4 ADD SWAP2 SWAP1 PUSH1 0x4 ADD SWAP1 PUSH2 0xA7F JUMP JUMPDEST JUMPDEST POP SWAP1 POP PUSH2 0xAF0 SWAP2 SWAP1 PUSH2 0xAF4 JUMP JUMPDEST POP SWAP1 JUMP JUMPDEST JUMPDEST DUP1 DUP3 GT ISZERO PUSH2 0xB2E JUMPI PUSH0 PUSH0 DUP3 ADD PUSH0 SWAP1 SSTORE PUSH1 0x1 DUP3 ADD PUSH0 SWAP1 SSTORE PUSH1 0x2 DUP3 ADD PUSH0 SWAP1 SSTORE PUSH1 0x3 DUP3 ADD PUSH0 PUSH2 0x100 EXP DUP2 SLOAD SWAP1 PUSH1 0xFF MUL NOT AND SWAP1 SSTORE POP PUSH1 0x4 ADD PUSH2 0xAF5 JUMP JUMPDEST POP SWAP1 JUMP JUMPDEST PUSH0 PUSH0 REVERT JUMPDEST PUSH0 DUP2 ISZERO ISZERO SWAP1 POP SWAP2 SWAP1 POP JUMP JUMPDEST PUSH2 0xB4A DUP2 PUSH2 0xB36 JUMP JUMPDEST DUP2 EQ PUSH2 0xB54 JUMPI PUSH0 PUSH0 REVERT JUMPDEST POP JUMP JUMPDEST PUSH0 DUP2 CALLDATALOAD SWAP1 POP PUSH2 0xB65 DUP2 PUSH2 0xB41 JUMP JUMPDEST SWAP3 SWAP2 POP POP JUMP JUMPDEST PUSH0 PUSH1 0x20 DUP3 DUP5 SUB SLT ISZERO PUSH2 0xB80 JUMPI PUSH2 0xB7F PUSH2 0xB32 JUMP JUMPDEST JUMPDEST PUSH0 PUSH2 0xB8D DUP5 DUP3 DUP6 ADD PUSH2 0xB57 JUMP JUMPDEST SWAP2 POP POP SWAP3 SWAP2 POP POP JUMP JUMPDEST PUSH0 DUP2 SWAP1 POP SWAP2 SWAP1 POP JUMP JUMPDEST PUSH2 0xBA8 DUP2 PUSH2 0xB96 JUMP JUMPDEST DUP2 EQ PUSH2 0xBB2 JUMPI PUSH0 PUSH0 REVERT JUMPDEST POP JUMP JUMPDEST PUSH0 DUP2 CALLDATALOAD SWAP1 POP PUSH2 0xBC3 DUP2 PUSH2 0xB9F JUMP JUMPDEST SWAP3 SWAP2 POP POP JUMP JUMPDEST PUSH0 PUSH1 0x20 DUP3 DUP5 SUB SLT ISZERO PUSH2 0xBDE JUMPI PUSH2 0xBDD PUSH2 0xB32 JUMP JUMPDEST JUMPDEST PUSH0 PUSH2 0xBEB DUP5 DUP3 DUP6 ADD PUSH2 0xBB5 JUMP JUMPDEST SWAP2 POP POP SWAP3 SWAP2 POP POP JUMP JUMPDEST PUSH0 PUSH20 0xFFFFFFFFFFFFFFFFFFFFFFFFFFFFFFFFFFFFFFFF DUP3 AND SWAP1 POP SWAP2 SWAP1 POP JUMP JUMPDEST PUSH0 PUSH2 0xC1D DUP3 PUSH2 0xBF4 JUMP JUMPDEST SWAP1 POP SWAP2 SWAP1 POP JUMP JUMPDEST PUSH2 0xC2D DUP2 PUSH2 0xC13 JUMP JUMPDEST DUP3 MSTORE POP POP JUMP JUMPDEST PUSH2 0xC3C DUP2 PUSH2 0xB96 JUMP JUMPDEST DUP3 MSTORE POP POP JUMP JUMPDEST PUSH2 0xC4B DUP2 PUSH2 0xB36 JUMP JUMPDEST DUP3 MSTORE POP POP JUMP JUMPDEST PUSH0 PUSH1 0x60 DUP3 ADD SWAP1 POP PUSH2 0xC64 PUSH0 DUP4 ADD DUP7 PUSH2 0xC24 JUMP JUMPDEST PUSH2 0xC71 PUSH1 0x20 DUP4 ADD DUP6 PUSH2 0xC33 JUMP JUMPDEST PUSH2 0xC7E PUSH1 0x40 DUP4 ADD DUP5 PUSH2 0xC42 JUMP JUMPDEST SWAP5 SWAP4 POP POP POP POP JUMP JUMPDEST PUSH2 0xC8F DUP2 PUSH2 0xC13 JUMP JUMPDEST DUP2 EQ PUSH2 0xC99 JUMPI PUSH0 PUSH0 REVERT JUMPDEST POP JUMP JUMPDEST PUSH0 DUP2 CALLDATALOAD SWAP1 POP PUSH2 0xCAA DUP2 PUSH2 0xC86 JUMP JUMPDEST SWAP3 SWAP2 POP POP JUMP JUMPDEST PUSH0 PUSH1 0x20 DUP3 DUP5 SUB SLT ISZERO PUSH2 0xCC5 JUMPI PUSH2 0xCC4 PUSH2 0xB32 JUMP JUMPDEST JUMPDEST PUSH0 PUSH2 0xCD2 DUP5 DUP3 DUP6 ADD PUSH2 0xC9C JUMP JUMPDEST SWAP2 POP POP SWAP3 SWAP2 POP POP JUMP JUMPDEST PUSH0 PUSH1 0x20 DUP3 ADD SWAP1 POP PUSH2 0xCEE PUSH0 DUP4 ADD DUP5 PUSH2 0xC33 JUMP JUMPDEST SWAP3 SWAP2 POP POP JUMP JUMPDEST PUSH0 PUSH1 0xFF DUP3 AND SWAP1 POP SWAP2 SWAP1 POP JUMP JUMPDEST PUSH2 0xD09 DUP2 PUSH2 0xCF4 JUMP JUMPDEST DUP2 EQ PUSH2 0xD13 JUMPI PUSH0 PUSH0 REVERT JUMPDEST POP JUMP JUMPDEST PUSH0 DUP2 CALLDATALOAD SWAP1 POP PUSH2 0xD24 DUP2 PUSH2 0xD00 JUMP JUMPDEST SWAP3 SWAP2 POP POP JUMP JUMPDEST PUSH0 PUSH1 0x20 DUP3 DUP5 SUB SLT ISZERO PUSH2 0xD3F JUMPI PUSH2 0xD3E PUSH2 0xB32 JUMP JUMPDEST JUMPDEST PUSH0 PUSH2 0xD4C DUP5 DUP3 DUP6 ADD PUSH2 0xD16 JUMP JUMPDEST SWAP2 POP POP SWAP3 SWAP2 POP POP JUMP JUMPDEST PUSH0 PUSH1 0x20 DUP3 ADD SWAP1 POP PUSH2 0xD68 PUSH0 DUP4 ADD DUP5 PUSH2 0xC24 JUMP JUMPDEST SWAP3 SWAP2 POP POP JUMP JUMPDEST PUSH2 0xD77 DUP2 PUSH2 0xCF4 JUMP JUMPDEST DUP3 MSTORE POP POP JUMP JUMPDEST PUSH0 PUSH1 0x20 DUP3 ADD SWAP1 POP PUSH2 0xD90 PUSH0 DUP4 ADD DUP5 PUSH2 0xD6E JUMP JUMPDEST SWAP3 SWAP2 POP POP JUMP JUMPDEST PUSH0 PUSH2 0xDA0 DUP3 PUSH2 0xBF4 JUMP JUMPDEST SWAP1 POP SWAP2 SWAP1 POP JUMP JUMPDEST PUSH2 0xDB0 DUP2 PUSH2 0xD96 JUMP JUMPDEST DUP3 MSTORE POP POP JUMP JUMPDEST PUSH0 PUSH1 0x20 DUP3 ADD SWAP1 POP PUSH2 0xDC9 PUSH0 DUP4 ADD DUP5 PUSH2 0xDA7 JUMP JUMPDEST SWAP3 SWAP2 POP POP JUMP JUMPDEST PUSH0 DUP3 DUP3 MSTORE PUSH1 0x20 DUP3 ADD SWAP1 POP SWAP3 SWAP2 POP POP JUMP JUMPDEST PUSH32 0x436F6E7472616374205061757365640000000000000000000000000000000000 PUSH0 DUP3 ADD MSTORE POP JUMP JUMPDEST PUSH0 PUSH2 0xE13 PUSH1 0xF DUP4 PUSH2 0xDCF JUMP JUMPDEST SWAP2 POP PUSH2 0xE1E DUP3 PUSH2 0xDDF JUMP JUMPDEST PUSH1 0x20 DUP3 ADD SWAP1 POP SWAP2 SWAP1 POP JUMP JUMPDEST PUSH0 PUSH1 0x20 DUP3 ADD SWAP1 POP DUP2 DUP2 SUB PUSH0 DUP4 ADD MSTORE PUSH2 0xE40 DUP2 PUSH2 0xE07 JUMP JUMPDEST SWAP1 POP SWAP2 SWAP1 POP JUMP JUMPDEST PUSH32 0x4E6F205265656E7472616E63792C706C73207761697400000000000000000000 PUSH0 DUP3 ADD MSTORE POP JUMP JUMPDEST PUSH0 PUSH2 0xE7B PUSH1 0x16 DUP4 PUSH2 0xDCF JUMP JUMPDEST SWAP2 POP PUSH2 0xE86 DUP3 PUSH2 0xE47 JUMP JUMPDEST PUSH1 0x20 DUP3 ADD SWAP1 POP SWAP2 SWAP1 POP JUMP JUMPDEST PUSH0 PUSH1 0x20 DUP3 ADD SWAP1 POP DUP2 DUP2 SUB PUSH0 DUP4 ADD MSTORE PUSH2 0xEA8 DUP2 PUSH2 0xE6F JUMP JUMPDEST SWAP1 POP SWAP2 SWAP1 POP JUMP JUMPDEST PUSH32 0x53656E64206D6F726520424E4220746F20627579205450540000000000000000 PUSH0 DUP3 ADD MSTORE POP JUMP JUMPDEST PUSH0 PUSH2 0xEE3 PUSH1 0x18 DUP4 PUSH2 0xDCF JUMP JUMPDEST SWAP2 POP PUSH2 0xEEE DUP3 PUSH2 0xEAF JUMP JUMPDEST PUSH1 0x20 DUP3 ADD SWAP1 POP SWAP2 SWAP1 POP JUMP JUMPDEST PUSH0 PUSH1 0x20 DUP3 ADD SWAP1 POP DUP2 DUP2 SUB PUSH0 DUP4 ADD MSTORE PUSH2 0xF10 DUP2 PUSH2 0xED7 JUMP JUMPDEST SWAP1 POP SWAP2 SWAP1 POP JUMP JUMPDEST PUSH32 0x496E76616C69642064617461206C656E67746800000000000000000000000000 PUSH0 DUP3 ADD MSTORE POP JUMP JUMPDEST PUSH0 PUSH2 0xF4B PUSH1 0x13 DUP4 PUSH2 0xDCF JUMP JUMPDEST SWAP2 POP PUSH2 0xF56 DUP3 PUSH2 0xF17 JUMP JUMPDEST PUSH1 0x20 DUP3 ADD SWAP1 POP SWAP2 SWAP1 POP JUMP JUMPDEST PUSH0 PUSH1 0x20 DUP3 ADD SWAP1 POP DUP2 DUP2 SUB PUSH0 DUP4 ADD MSTORE PUSH2 0xF78 DUP2 PUSH2 0xF3F JUMP JUMPDEST SWAP1 POP SWAP2 SWAP1 POP JUMP JUMPDEST PUSH32 0x4E487B7100000000000000000000000000000000000000000000000000000000 PUSH0 MSTORE PUSH1 0x11 PUSH1 0x4 MSTORE PUSH1 0x24 PUSH0 REVERT JUMPDEST PUSH0 PUSH2 0xFB6 DUP3 PUSH2 0xB96 JUMP JUMPDEST SWAP2 POP PUSH32 0xFFFFFFFFFFFFFFFFFFFFFFFFFFFFFFFFFFFFFFFFFFFFFFFFFFFFFFFFFFFFFFFF DUP3 SUB PUSH2 0xFE8 JUMPI PUSH2 0xFE7 PUSH2 0xF7F JUMP JUMPDEST JUMPDEST PUSH1 0x1 DUP3 ADD SWAP1 POP SWAP2 SWAP1 POP JUMP JUMPDEST PUSH0 DUP2 MLOAD SWAP1 POP PUSH2 0x1001 DUP2 PUSH2 0xB9F JUMP JUMPDEST SWAP3 SWAP2 POP POP JUMP JUMPDEST PUSH0 PUSH1 0x20 DUP3 DUP5 SUB SLT ISZERO PUSH2 0x101C JUMPI PUSH2 0x101B PUSH2 0xB32 JUMP JUMPDEST JUMPDEST PUSH0 PUSH2 0x1029 DUP5 DUP3 DUP6 ADD PUSH2 0xFF3 JUMP JUMPDEST SWAP2 POP POP SWAP3 SWAP2 POP POP JUMP JUMPDEST PUSH0 DUP2 SWAP1 POP SWAP3 SWAP2 POP POP JUMP JUMPDEST POP JUMP JUMPDEST PUSH0 PUSH2 0x104A PUSH0 DUP4 PUSH2 0x1032 JUMP JUMPDEST SWAP2 POP PUSH2 0x1055 DUP3 PUSH2 0x103C JUMP JUMPDEST PUSH0 DUP3 ADD SWAP1 POP SWAP2 SWAP1 POP JUMP JUMPDEST PUSH0 PUSH2 0x1069 DUP3 PUSH2 0x103F JUMP JUMPDEST SWAP2 POP DUP2 SWAP1 POP SWAP2 SWAP1 POP JUMP JUMPDEST PUSH32 0x5472616E7366657220746F20707269636520636F6E7472616374206661696C65 PUSH0 DUP3 ADD MSTORE PUSH32 0x6400000000000000000000000000000000000000000000000000000000000000 PUSH1 0x20 DUP3 ADD MSTORE POP JUMP JUMPDEST PUSH0 PUSH2 0x10CD PUSH1 0x21 DUP4 PUSH2 0xDCF JUMP JUMPDEST SWAP2 POP PUSH2 0x10D8 DUP3 PUSH2 0x1073 JUMP JUMPDEST PUSH1 0x40 DUP3 ADD SWAP1 POP SWAP2 SWAP1 POP JUMP JUMPDEST PUSH0 PUSH1 0x20 DUP3 ADD SWAP1 POP DUP2 DUP2 SUB PUSH0 DUP4 ADD MSTORE PUSH2 0x10FA DUP2 PUSH2 0x10C1 JUMP JUMPDEST SWAP1 POP SWAP2 SWAP1 POP JUMP JUMPDEST PUSH0 DUP2 MLOAD SWAP1 POP SWAP2 SWAP1 POP JUMP JUMPDEST DUP3 DUP2 DUP4 MCOPY PUSH0 DUP4 DUP4 ADD MSTORE POP POP POP JUMP JUMPDEST PUSH0 PUSH2 0x1123 DUP3 PUSH2 0x1101 JUMP JUMPDEST PUSH2 0x112D DUP2 DUP6 PUSH2 0x1032 JUMP JUMPDEST SWAP4 POP PUSH2 0x113D DUP2 DUP6 PUSH1 0x20 DUP7 ADD PUSH2 0x110B JUMP JUMPDEST DUP1 DUP5 ADD SWAP2 POP POP SWAP3 SWAP2 POP POP JUMP JUMPDEST PUSH0 PUSH2 0x1154 DUP3 DUP5 PUSH2 0x1119 JUMP JUMPDEST SWAP2 POP DUP2 SWAP1 POP SWAP3 SWAP2 POP POP JUMP JUMPDEST PUSH32 0x4661696C656420746F2067657420707269636500000000000000000000000000 PUSH0 DUP3 ADD MSTORE POP JUMP JUMPDEST PUSH0 PUSH2 0x1193 PUSH1 0x13 DUP4 PUSH2 0xDCF JUMP JUMPDEST SWAP2 POP PUSH2 0x119E DUP3 PUSH2 0x115F JUMP JUMPDEST PUSH1 0x20 DUP3 ADD SWAP1 POP SWAP2 SWAP1 POP JUMP JUMPDEST PUSH0 PUSH1 0x20 DUP3 ADD SWAP1 POP DUP2 DUP2 SUB PUSH0 DUP4 ADD MSTORE PUSH2 0x11C0 DUP2 PUSH2 0x1187 JUMP JUMPDEST SWAP1 POP SWAP2 SWAP1 POP JUMP JUMPDEST PUSH32 0x4E487B7100000000000000000000000000000000000000000000000000000000 PUSH0 MSTORE PUSH1 0x12 PUSH1 0x4 MSTORE PUSH1 0x24 PUSH0 REVERT JUMPDEST PUSH0 PUSH2 0x11FE DUP3 PUSH2 0xB96 JUMP JUMPDEST SWAP2 POP PUSH2 0x1209 DUP4 PUSH2 0xB96 JUMP JUMPDEST SWAP3 POP DUP3 PUSH2 0x1219 JUMPI PUSH2 0x1218 PUSH2 0x11C7 JUMP JUMPDEST JUMPDEST DUP3 DUP3 DIV SWAP1 POP SWAP3 SWAP2 POP POP JUMP JUMPDEST PUSH0 PUSH2 0x122E DUP3 PUSH2 0xB96 JUMP JUMPDEST SWAP2 POP PUSH2 0x1239 DUP4 PUSH2 0xB96 JUMP JUMPDEST SWAP3 POP DUP3 DUP3 MUL PUSH2 0x1247 DUP2 PUSH2 0xB96 JUMP JUMPDEST SWAP2 POP DUP3 DUP3 DIV DUP5 EQ DUP4 ISZERO OR PUSH2 0x125E JUMPI PUSH2 0x125D PUSH2 0xF7F JUMP JUMPDEST JUMPDEST POP SWAP3 SWAP2 POP POP JUMP INVALID LOG2 PUSH5 0x6970667358 0x22 SLT KECCAK256 0xE2 0xC6 0xE2 TSTORE SWAP9 0xC0 SWAP7 CHAINID CHAINID LOG0 0xF SLOAD SWAP4 DUP1 0xC7 JUMPDEST 0xAC 0xC8 0xFC GASLIMIT 0xB7 SWAP5 PUSH22 0x93AB5F78CA4F9A724164736F6C634300081E00330000 "
				},
				"gasEstimates": {
					"creation": {
						"codeDepositCost": "952600",
						"executionCost": "infinite",
						"totalCost": "infinite"
					},
					"external": {
						"": "infinite",
						"calcAmount(bool)": "infinite",
						"getPrice()": "infinite",
						"getUsdBnbPrice()": "infinite",
						"owner()": "2597",
						"priceContract()": "2573",
						"thisStep()": "2561",
						"totalUsers()": "2513",
						"tptPrice(uint8)": "2805",
						"userId(address)": "2825",
						"users(uint256)": "infinite"
					},
					"internal": {
						"buyTPT(bool)": "infinite"
					}
				},
				"methodIdentifiers": {
					"calcAmount(bool)": "a52d981e",
					"getPrice()": "98d5fdca",
					"getUsdBnbPrice()": "5b148f7b",
					"owner()": "8da5cb5b",
					"priceContract()": "ae372ec1",
					"thisStep()": "ae243031",
					"totalUsers()": "bff1f9e1",
					"tptPrice(uint8)": "556a7579",
					"userId(address)": "376fe102",
					"users(uint256)": "365b98b2"
				}
			},
			"storageLayout": {
				"storage": [
					{
						"astId": 39,
						"contract": "contracts/TPTPreSale.sol:TPTPreSale",
						"label": "priceContract",
						"offset": 0,
						"slot": "0",
						"type": "t_address_payable"
					},
					{
						"astId": 41,
						"contract": "contracts/TPTPreSale.sol:TPTPreSale",
						"label": "owner",
						"offset": 0,
						"slot": "1",
						"type": "t_address"
					},
					{
						"astId": 43,
						"contract": "contracts/TPTPreSale.sol:TPTPreSale",
						"label": "locked",
						"offset": 20,
						"slot": "1",
						"type": "t_bool"
					},
					{
						"astId": 45,
						"contract": "contracts/TPTPreSale.sol:TPTPreSale",
						"label": "thisStep",
						"offset": 21,
						"slot": "1",
						"type": "t_uint8"
					},
					{
						"astId": 49,
						"contract": "contracts/TPTPreSale.sol:TPTPreSale",
						"label": "tptPrice",
						"offset": 0,
						"slot": "2",
						"type": "t_mapping(t_uint8,t_uint256)"
					},
					{
						"astId": 51,
						"contract": "contracts/TPTPreSale.sol:TPTPreSale",
						"label": "totalUsers",
						"offset": 0,
						"slot": "3",
						"type": "t_uint256"
					},
					{
						"astId": 75,
						"contract": "contracts/TPTPreSale.sol:TPTPreSale",
						"label": "userId",
						"offset": 0,
						"slot": "4",
						"type": "t_mapping(t_address,t_uint256)"
					},
					{
						"astId": 80,
						"contract": "contracts/TPTPreSale.sol:TPTPreSale",
						"label": "users",
						"offset": 0,
						"slot": "5",
						"type": "t_mapping(t_uint256,t_struct(UserInfo)71_storage)"
					}
				],
				"types": {
					"t_address": {
						"encoding": "inplace",
						"label": "address",
						"numberOfBytes": "20"
					},
					"t_address_payable": {
						"encoding": "inplace",
						"label": "address payable",
						"numberOfBytes": "20"
					},
					"t_array(t_struct(Purchase)60_storage)dyn_storage": {
						"base": "t_struct(Purchase)60_storage",
						"encoding": "dynamic_array",
						"label": "struct TPTPreSale.Purchase[]",
						"numberOfBytes": "32"
					},
					"t_bool": {
						"encoding": "inplace",
						"label": "bool",
						"numberOfBytes": "1"
					},
					"t_mapping(t_address,t_uint256)": {
						"encoding": "mapping",
						"key": "t_address",
						"label": "mapping(address => uint256)",
						"numberOfBytes": "32",
						"value": "t_uint256"
					},
					"t_mapping(t_uint256,t_struct(UserInfo)71_storage)": {
						"encoding": "mapping",
						"key": "t_uint256",
						"label": "mapping(uint256 => struct TPTPreSale.UserInfo)",
						"numberOfBytes": "32",
						"value": "t_struct(UserInfo)71_storage"
					},
					"t_mapping(t_uint8,t_uint256)": {
						"encoding": "mapping",
						"key": "t_uint8",
						"label": "mapping(uint8 => uint256)",
						"numberOfBytes": "32",
						"value": "t_uint256"
					},
					"t_struct(Purchase)60_storage": {
						"encoding": "inplace",
						"label": "struct TPTPreSale.Purchase",
						"members": [
							{
								"astId": 53,
								"contract": "contracts/TPTPreSale.sol:TPTPreSale",
								"label": "timestamp",
								"offset": 0,
								"slot": "0",
								"type": "t_uint256"
							},
							{
								"astId": 55,
								"contract": "contracts/TPTPreSale.sol:TPTPreSale",
								"label": "bnbAmount",
								"offset": 0,
								"slot": "1",
								"type": "t_uint256"
							},
							{
								"astId": 57,
								"contract": "contracts/TPTPreSale.sol:TPTPreSale",
								"label": "tptAmount",
								"offset": 0,
								"slot": "2",
								"type": "t_uint256"
							},
							{
								"astId": 59,
								"contract": "contracts/TPTPreSale.sol:TPTPreSale",
								"label": "step",
								"offset": 0,
								"slot": "3",
								"type": "t_uint8"
							}
						],
						"numberOfBytes": "128"
					},
					"t_struct(UserInfo)71_storage": {
						"encoding": "inplace",
						"label": "struct TPTPreSale.UserInfo",
						"members": [
							{
								"astId": 62,
								"contract": "contracts/TPTPreSale.sol:TPTPreSale",
								"label": "walletAddress",
								"offset": 0,
								"slot": "0",
								"type": "t_address"
							},
							{
								"astId": 64,
								"contract": "contracts/TPTPreSale.sol:TPTPreSale",
								"label": "tptBalance",
								"offset": 0,
								"slot": "1",
								"type": "t_uint256"
							},
							{
								"astId": 66,
								"contract": "contracts/TPTPreSale.sol:TPTPreSale",
								"label": "hasOffer",
								"offset": 0,
								"slot": "2",
								"type": "t_bool"
							},
							{
								"astId": 70,
								"contract": "contracts/TPTPreSale.sol:TPTPreSale",
								"label": "purchaseList",
								"offset": 0,
								"slot": "3",
								"type": "t_array(t_struct(Purchase)60_storage)dyn_storage"
							}
						],
						"numberOfBytes": "128"
					},
					"t_uint256": {
						"encoding": "inplace",
						"label": "uint256",
						"numberOfBytes": "32"
					},
					"t_uint8": {
						"encoding": "inplace",
						"label": "uint8",
						"numberOfBytes": "1"
					}
				}
			},
			"userdoc": {
				"kind": "user",
				"methods": {},
				"version": 1
			}
		}
	}
}