{
	"contracts/PTPPreSale.sol": {
		"TPTPreSale": {
			"abi": [
				{
					"inputs": [
						{
							"internalType": "address",
							"name": "_iBnbPrice",
							"type": "address"
						}
					],
					"stateMutability": "nonpayable",
					"type": "constructor"
				},
				{
					"stateMutability": "payable",
					"type": "fallback"
				},
				{
					"inputs": [],
					"name": "activeOffer",
					"outputs": [],
					"stateMutability": "nonpayable",
					"type": "function"
				},
				{
					"inputs": [],
					"name": "buyTPTWithOffer",
					"outputs": [],
					"stateMutability": "nonpayable",
					"type": "function"
				},
				{
					"inputs": [
						{
							"internalType": "address",
							"name": "_userAddress",
							"type": "address"
						},
						{
							"internalType": "uint256",
							"name": "index",
							"type": "uint256"
						}
					],
					"name": "getPurchase",
					"outputs": [
						{
							"internalType": "uint256",
							"name": "timestamp",
							"type": "uint256"
						},
						{
							"internalType": "uint256",
							"name": "bnbAmount",
							"type": "uint256"
						},
						{
							"internalType": "uint256",
							"name": "tptAmount",
							"type": "uint256"
						}
					],
					"stateMutability": "view",
					"type": "function"
				},
				{
					"inputs": [
						{
							"internalType": "address",
							"name": "_userAddress",
							"type": "address"
						}
					],
					"name": "getPurchaseCount",
					"outputs": [
						{
							"internalType": "uint256",
							"name": "",
							"type": "uint256"
						}
					],
					"stateMutability": "view",
					"type": "function"
				},
				{
					"inputs": [],
					"name": "getThisStepPrice",
					"outputs": [
						{
							"internalType": "uint256",
							"name": "",
							"type": "uint256"
						}
					],
					"stateMutability": "view",
					"type": "function"
				},
				{
					"inputs": [
						{
							"internalType": "uint256",
							"name": "id",
							"type": "uint256"
						}
					],
					"name": "getUserAddress",
					"outputs": [
						{
							"internalType": "address",
							"name": "",
							"type": "address"
						}
					],
					"stateMutability": "view",
					"type": "function"
				},
				{
					"inputs": [
						{
							"internalType": "address",
							"name": "user",
							"type": "address"
						}
					],
					"name": "getUserId",
					"outputs": [
						{
							"internalType": "uint256",
							"name": "",
							"type": "uint256"
						}
					],
					"stateMutability": "view",
					"type": "function"
				},
				{
					"inputs": [
						{
							"internalType": "address",
							"name": "_userAddress",
							"type": "address"
						}
					],
					"name": "getUserTPTBalance",
					"outputs": [
						{
							"internalType": "uint256",
							"name": "",
							"type": "uint256"
						}
					],
					"stateMutability": "view",
					"type": "function"
				},
				{
					"inputs": [
						{
							"internalType": "address",
							"name": "_userAddress",
							"type": "address"
						},
						{
							"internalType": "uint256",
							"name": "_value",
							"type": "uint256"
						}
					],
					"name": "grantPointsById",
					"outputs": [],
					"stateMutability": "nonpayable",
					"type": "function"
				},
				{
					"inputs": [],
					"name": "owner",
					"outputs": [
						{
							"internalType": "address",
							"name": "",
							"type": "address"
						}
					],
					"stateMutability": "view",
					"type": "function"
				},
				{
					"inputs": [
						{
							"internalType": "uint8",
							"name": "_step",
							"type": "uint8"
						},
						{
							"internalType": "uint256",
							"name": "_price",
							"type": "uint256"
						}
					],
					"name": "setTPTPrice",
					"outputs": [],
					"stateMutability": "nonpayable",
					"type": "function"
				},
				{
					"inputs": [
						{
							"internalType": "uint8",
							"name": "_step",
							"type": "uint8"
						}
					],
					"name": "setThisStep",
					"outputs": [],
					"stateMutability": "nonpayable",
					"type": "function"
				},
				{
					"inputs": [],
					"name": "thisStep",
					"outputs": [
						{
							"internalType": "uint8",
							"name": "",
							"type": "uint8"
						}
					],
					"stateMutability": "view",
					"type": "function"
				},
				{
					"inputs": [],
					"name": "totalUsers",
					"outputs": [
						{
							"internalType": "uint256",
							"name": "",
							"type": "uint256"
						}
					],
					"stateMutability": "view",
					"type": "function"
				},
				{
					"inputs": [
						{
							"internalType": "uint8",
							"name": "",
							"type": "uint8"
						}
					],
					"name": "tptPrice",
					"outputs": [
						{
							"internalType": "uint256",
							"name": "",
							"type": "uint256"
						}
					],
					"stateMutability": "view",
					"type": "function"
				},
				{
					"inputs": [
						{
							"internalType": "address",
							"name": "",
							"type": "address"
						}
					],
					"name": "userId",
					"outputs": [
						{
							"internalType": "uint256",
							"name": "",
							"type": "uint256"
						}
					],
					"stateMutability": "view",
					"type": "function"
				},
				{
					"inputs": [
						{
							"internalType": "uint256",
							"name": "",
							"type": "uint256"
						}
					],
					"name": "users",
					"outputs": [
						{
							"internalType": "address",
							"name": "walletAddress",
							"type": "address"
						},
						{
							"internalType": "uint256",
							"name": "tptBalance",
							"type": "uint256"
						},
						{
							"internalType": "bool",
							"name": "hasOffer",
							"type": "bool"
						}
					],
					"stateMutability": "view",
					"type": "function"
				},
				{
					"inputs": [
						{
							"internalType": "address payable",
							"name": "_to",
							"type": "address"
						}
					],
					"name": "withdrawAll",
					"outputs": [],
					"stateMutability": "nonpayable",
					"type": "function"
				},
				{
					"stateMutability": "payable",
					"type": "receive"
				}
			],
			"devdoc": {
				"kind": "dev",
				"methods": {},
				"version": 1
			},
			"evm": {
				"assembly": "    /* \"contracts/PTPPreSale.sol\":90:4364  contract TPTPreSale {... */\n  mstore(0x40, 0x80)\n    /* \"contracts/PTPPreSale.sol\":1228:1364  constructor(address _iBnbPrice) {... */\n  callvalue\n  dup1\n  iszero\n  tag_1\n  jumpi\n  revert(0x00, 0x00)\ntag_1:\n  pop\n  mload(0x40)\n  sub(codesize, bytecodeSize)\n  dup1\n  bytecodeSize\n  dup4\n  codecopy\n  dup2\n  dup2\n  add\n  0x40\n  mstore\n  dup2\n  add\n  swap1\n  tag_2\n  swap2\n  swap1\n  tag_3\n  jump\t// in\ntag_2:\n    /* \"contracts/PTPPreSale.sol\":1279:1289  msg.sender */\n  caller\n    /* \"contracts/PTPPreSale.sol\":1271:1276  owner */\n  0x00\n  0x00\n    /* \"contracts/PTPPreSale.sol\":1271:1289  owner = msg.sender */\n  0x0100\n  exp\n  dup2\n  sload\n  dup2\n  0xffffffffffffffffffffffffffffffffffffffff\n  mul\n  not\n  and\n  swap1\n  dup4\n  0xffffffffffffffffffffffffffffffffffffffff\n  and\n  mul\n  or\n  swap1\n  sstore\n  pop\n    /* \"contracts/PTPPreSale.sol\":1311:1312  0 */\n  0x00\n    /* \"contracts/PTPPreSale.sol\":1300:1308  thisStep */\n  0x00\n  0x15\n    /* \"contracts/PTPPreSale.sol\":1300:1312  thisStep = 0 */\n  0x0100\n  exp\n  dup2\n  sload\n  dup2\n  0xff\n  mul\n  not\n  and\n  swap1\n  dup4\n  0xff\n  and\n  mul\n  or\n  swap1\n  sstore\n  pop\n    /* \"contracts/PTPPreSale.sol\":1345:1355  _iBnbPrice */\n  dup1\n    /* \"contracts/PTPPreSale.sol\":1323:1332  iBNBPrice */\n  0x02\n  0x00\n    /* \"contracts/PTPPreSale.sol\":1323:1356  iBNBPrice = IBNBPrice(_iBnbPrice) */\n  0x0100\n  exp\n  dup2\n  sload\n  dup2\n  0xffffffffffffffffffffffffffffffffffffffff\n  mul\n  not\n  and\n  swap1\n  dup4\n  0xffffffffffffffffffffffffffffffffffffffff\n  and\n  mul\n  or\n  swap1\n  sstore\n  pop\n    /* \"contracts/PTPPreSale.sol\":1228:1364  constructor(address _iBnbPrice) {... */\n  pop\n    /* \"contracts/PTPPreSale.sol\":90:4364  contract TPTPreSale {... */\n  jump(tag_6)\n    /* \"#utility.yul\":88:205   */\ntag_8:\n    /* \"#utility.yul\":197:198   */\n  0x00\n    /* \"#utility.yul\":194:195   */\n  0x00\n    /* \"#utility.yul\":187:199   */\n  revert\n    /* \"#utility.yul\":334:460   */\ntag_10:\n    /* \"#utility.yul\":371:378   */\n  0x00\n    /* \"#utility.yul\":411:453   */\n  0xffffffffffffffffffffffffffffffffffffffff\n    /* \"#utility.yul\":404:409   */\n  dup3\n    /* \"#utility.yul\":400:454   */\n  and\n    /* \"#utility.yul\":389:454   */\n  swap1\n  pop\n    /* \"#utility.yul\":334:460   */\n  swap2\n  swap1\n  pop\n  jump\t// out\n    /* \"#utility.yul\":466:562   */\ntag_11:\n    /* \"#utility.yul\":503:510   */\n  0x00\n    /* \"#utility.yul\":532:556   */\n  tag_20\n    /* \"#utility.yul\":550:555   */\n  dup3\n    /* \"#utility.yul\":532:556   */\n  tag_10\n  jump\t// in\ntag_20:\n    /* \"#utility.yul\":521:556   */\n  swap1\n  pop\n    /* \"#utility.yul\":466:562   */\n  swap2\n  swap1\n  pop\n  jump\t// out\n    /* \"#utility.yul\":568:690   */\ntag_12:\n    /* \"#utility.yul\":641:665   */\n  tag_22\n    /* \"#utility.yul\":659:664   */\n  dup2\n    /* \"#utility.yul\":641:665   */\n  tag_11\n  jump\t// in\ntag_22:\n    /* \"#utility.yul\":634:639   */\n  dup2\n    /* \"#utility.yul\":631:666   */\n  eq\n    /* \"#utility.yul\":621:684   */\n  tag_23\n  jumpi\n    /* \"#utility.yul\":680:681   */\n  0x00\n    /* \"#utility.yul\":677:678   */\n  0x00\n    /* \"#utility.yul\":670:682   */\n  revert\n    /* \"#utility.yul\":621:684   */\ntag_23:\n    /* \"#utility.yul\":568:690   */\n  pop\n  jump\t// out\n    /* \"#utility.yul\":696:839   */\ntag_13:\n    /* \"#utility.yul\":753:758   */\n  0x00\n    /* \"#utility.yul\":784:790   */\n  dup2\n    /* \"#utility.yul\":778:791   */\n  mload\n    /* \"#utility.yul\":769:791   */\n  swap1\n  pop\n    /* \"#utility.yul\":800:833   */\n  tag_25\n    /* \"#utility.yul\":827:832   */\n  dup2\n    /* \"#utility.yul\":800:833   */\n  tag_12\n  jump\t// in\ntag_25:\n    /* \"#utility.yul\":696:839   */\n  swap3\n  swap2\n  pop\n  pop\n  jump\t// out\n    /* \"#utility.yul\":845:1196   */\ntag_3:\n    /* \"#utility.yul\":915:921   */\n  0x00\n    /* \"#utility.yul\":964:966   */\n  0x20\n    /* \"#utility.yul\":952:961   */\n  dup3\n    /* \"#utility.yul\":943:950   */\n  dup5\n    /* \"#utility.yul\":939:962   */\n  sub\n    /* \"#utility.yul\":935:967   */\n  slt\n    /* \"#utility.yul\":932:1051   */\n  iszero\n  tag_27\n  jumpi\n    /* \"#utility.yul\":970:1049   */\n  tag_28\n  tag_8\n  jump\t// in\ntag_28:\n    /* \"#utility.yul\":932:1051   */\ntag_27:\n    /* \"#utility.yul\":1090:1091   */\n  0x00\n    /* \"#utility.yul\":1115:1179   */\n  tag_29\n    /* \"#utility.yul\":1171:1178   */\n  dup5\n    /* \"#utility.yul\":1162:1168   */\n  dup3\n    /* \"#utility.yul\":1151:1160   */\n  dup6\n    /* \"#utility.yul\":1147:1169   */\n  add\n    /* \"#utility.yul\":1115:1179   */\n  tag_13\n  jump\t// in\ntag_29:\n    /* \"#utility.yul\":1105:1179   */\n  swap2\n  pop\n    /* \"#utility.yul\":1061:1189   */\n  pop\n    /* \"#utility.yul\":845:1196   */\n  swap3\n  swap2\n  pop\n  pop\n  jump\t// out\n    /* \"contracts/PTPPreSale.sol\":90:4364  contract TPTPreSale {... */\ntag_6:\n  dataSize(sub_0)\n  dup1\n  dataOffset(sub_0)\n  0x00\n  codecopy\n  0x00\n  return\nstop\n\nsub_0: assembly {\n        /* \"contracts/PTPPreSale.sol\":90:4364  contract TPTPreSale {... */\n      mstore(0x40, 0x80)\n      jumpi(tag_1, lt(calldatasize, 0x04))\n      shr(0xe0, calldataload(0x00))\n      dup1\n      0x7ce8a08e\n      gt\n      tag_21\n      jumpi\n      dup1\n      0xae243031\n      gt\n      tag_22\n      jumpi\n      dup1\n      0xae243031\n      eq\n      tag_16\n      jumpi\n      dup1\n      0xbff1f9e1\n      eq\n      tag_17\n      jumpi\n      dup1\n      0xca90d6e6\n      eq\n      tag_18\n      jumpi\n      dup1\n      0xfa09e630\n      eq\n      tag_19\n      jumpi\n      dup1\n      0xfdbb6696\n      eq\n      tag_20\n      jumpi\n      jump(tag_2)\n    tag_22:\n      dup1\n      0x7ce8a08e\n      eq\n      tag_12\n      jumpi\n      dup1\n      0x8da5cb5b\n      eq\n      tag_13\n      jumpi\n      dup1\n      0x90d976e2\n      eq\n      tag_14\n      jumpi\n      dup1\n      0xa2f5546e\n      eq\n      tag_15\n      jumpi\n      jump(tag_2)\n    tag_21:\n      dup1\n      0x376fe102\n      gt\n      tag_23\n      jumpi\n      dup1\n      0x376fe102\n      eq\n      tag_7\n      jumpi\n      dup1\n      0x419dd841\n      eq\n      tag_8\n      jumpi\n      dup1\n      0x4c957dca\n      eq\n      tag_9\n      jumpi\n      dup1\n      0x556a7579\n      eq\n      tag_10\n      jumpi\n      dup1\n      0x672cbe1a\n      eq\n      tag_11\n      jumpi\n      jump(tag_2)\n    tag_23:\n      dup1\n      0x2a2a92cc\n      eq\n      tag_3\n      jumpi\n      dup1\n      0x2b956ff7\n      eq\n      tag_4\n      jumpi\n      dup1\n      0x31bbf555\n      eq\n      tag_5\n      jumpi\n      dup1\n      0x365b98b2\n      eq\n      tag_6\n      jumpi\n      jump(tag_2)\n    tag_1:\n      jumpi(tag_2, calldatasize)\n        /* \"contracts/PTPPreSale.sol\":3978:3979  0 */\n      0x00\n        /* \"contracts/PTPPreSale.sol\":3966:3975  msg.value */\n      callvalue\n        /* \"contracts/PTPPreSale.sol\":3966:3979  msg.value > 0 */\n      gt\n        /* \"contracts/PTPPreSale.sol\":3957:4003  require( msg.value > 0, \"Send BNB to buy TPT\") */\n      tag_26\n      jumpi\n      mload(0x40)\n      0x08c379a000000000000000000000000000000000000000000000000000000000\n      dup2\n      mstore\n      0x04\n      add\n      tag_27\n      swap1\n      tag_28\n      jump\t// in\n    tag_27:\n      mload(0x40)\n      dup1\n      swap2\n      sub\n      swap1\n      revert\n    tag_26:\n        /* \"contracts/PTPPreSale.sol\":4014:4029  buyTPT( false ) */\n      tag_29\n        /* \"contracts/PTPPreSale.sol\":4022:4027  false */\n      0x00\n        /* \"contracts/PTPPreSale.sol\":4014:4020  buyTPT */\n      tag_30\n        /* \"contracts/PTPPreSale.sol\":4014:4029  buyTPT( false ) */\n      jump\t// in\n    tag_29:\n        /* \"contracts/PTPPreSale.sol\":90:4364  contract TPTPreSale {... */\n      stop\n    tag_2:\n        /* \"contracts/PTPPreSale.sol\":3707:3708  0 */\n      0x00\n        /* \"contracts/PTPPreSale.sol\":3695:3704  msg.value */\n      callvalue\n        /* \"contracts/PTPPreSale.sol\":3695:3708  msg.value > 0 */\n      gt\n        /* \"contracts/PTPPreSale.sol\":3686:3732  require( msg.value > 0, \"Send BNB to buy TPT\") */\n      tag_33\n      jumpi\n      mload(0x40)\n      0x08c379a000000000000000000000000000000000000000000000000000000000\n      dup2\n      mstore\n      0x04\n      add\n      tag_34\n      swap1\n      tag_28\n      jump\t// in\n    tag_34:\n      mload(0x40)\n      dup1\n      swap2\n      sub\n      swap1\n      revert\n    tag_33:\n        /* \"contracts/PTPPreSale.sol\":3771:3773  32 */\n      0x20\n        /* \"contracts/PTPPreSale.sol\":3752:3760  msg.data */\n      0x00\n      calldatasize\n        /* \"contracts/PTPPreSale.sol\":3752:3767  msg.data.length */\n      swap1\n      pop\n        /* \"contracts/PTPPreSale.sol\":3752:3773  msg.data.length >= 32 */\n      lt\n      iszero\n        /* \"contracts/PTPPreSale.sol\":3743:3798  require( msg.data.length >= 32 , \"Invalid data length\") */\n      tag_35\n      jumpi\n      mload(0x40)\n      0x08c379a000000000000000000000000000000000000000000000000000000000\n      dup2\n      mstore\n      0x04\n      add\n      tag_36\n      swap1\n      tag_37\n      jump\t// in\n    tag_36:\n      mload(0x40)\n      dup1\n      swap2\n      sub\n      swap1\n      revert\n    tag_35:\n        /* \"contracts/PTPPreSale.sol\":3809:3847  buyTPT( abi.decode(msg.data, (bool)) ) */\n      tag_38\n        /* \"contracts/PTPPreSale.sol\":3828:3836  msg.data */\n      0x00\n      calldatasize\n        /* \"contracts/PTPPreSale.sol\":3817:3845  abi.decode(msg.data, (bool)) */\n      dup2\n      add\n      swap1\n      tag_39\n      swap2\n      swap1\n      tag_40\n      jump\t// in\n    tag_39:\n        /* \"contracts/PTPPreSale.sol\":3809:3815  buyTPT */\n      tag_30\n        /* \"contracts/PTPPreSale.sol\":3809:3847  buyTPT( abi.decode(msg.data, (bool)) ) */\n      jump\t// in\n    tag_38:\n        /* \"contracts/PTPPreSale.sol\":90:4364  contract TPTPreSale {... */\n      stop\n        /* \"contracts/PTPPreSale.sol\":2532:2810  function getPurchase(address _userAddress, uint index) external view returns (uint256 timestamp, uint256 bnbAmount, uint256 tptAmount) {... */\n    tag_3:\n      callvalue\n      dup1\n      iszero\n      tag_41\n      jumpi\n      revert(0x00, 0x00)\n    tag_41:\n      pop\n      tag_42\n      0x04\n      dup1\n      calldatasize\n      sub\n      dup2\n      add\n      swap1\n      tag_43\n      swap2\n      swap1\n      tag_44\n      jump\t// in\n    tag_43:\n      tag_45\n      jump\t// in\n    tag_42:\n      mload(0x40)\n      tag_46\n      swap4\n      swap3\n      swap2\n      swap1\n      tag_47\n      jump\t// in\n    tag_46:\n      mload(0x40)\n      dup1\n      swap2\n      sub\n      swap1\n      return\n        /* \"contracts/PTPPreSale.sol\":2858:2961  function getUserId(address user) external view returns (uint256) {... */\n    tag_4:\n      callvalue\n      dup1\n      iszero\n      tag_48\n      jumpi\n      revert(0x00, 0x00)\n    tag_48:\n      pop\n      tag_49\n      0x04\n      dup1\n      calldatasize\n      sub\n      dup2\n      add\n      swap1\n      tag_50\n      swap2\n      swap1\n      tag_51\n      jump\t// in\n    tag_50:\n      tag_52\n      jump\t// in\n    tag_49:\n      mload(0x40)\n      tag_53\n      swap2\n      swap1\n      tag_54\n      jump\t// in\n    tag_53:\n      mload(0x40)\n      dup1\n      swap2\n      sub\n      swap1\n      return\n        /* \"contracts/PTPPreSale.sol\":2371:2524  function getPurchaseCount(address _userAddress) external view returns (uint256) {... */\n    tag_5:\n      callvalue\n      dup1\n      iszero\n      tag_55\n      jumpi\n      revert(0x00, 0x00)\n    tag_55:\n      pop\n      tag_56\n      0x04\n      dup1\n      calldatasize\n      sub\n      dup2\n      add\n      swap1\n      tag_57\n      swap2\n      swap1\n      tag_51\n      jump\t// in\n    tag_57:\n      tag_58\n      jump\t// in\n    tag_56:\n      mload(0x40)\n      tag_59\n      swap2\n      swap1\n      tag_54\n      jump\t// in\n    tag_59:\n      mload(0x40)\n      dup1\n      swap2\n      sub\n      swap1\n      return\n        /* \"contracts/PTPPreSale.sol\":809:850  mapping(uint256 => UserInfo) public users */\n    tag_6:\n      callvalue\n      dup1\n      iszero\n      tag_60\n      jumpi\n      revert(0x00, 0x00)\n    tag_60:\n      pop\n      tag_61\n      0x04\n      dup1\n      calldatasize\n      sub\n      dup2\n      add\n      swap1\n      tag_62\n      swap2\n      swap1\n      tag_63\n      jump\t// in\n    tag_62:\n      tag_64\n      jump\t// in\n    tag_61:\n      mload(0x40)\n      tag_65\n      swap4\n      swap3\n      swap2\n      swap1\n      tag_66\n      jump\t// in\n    tag_65:\n      mload(0x40)\n      dup1\n      swap2\n      sub\n      swap1\n      return\n        /* \"contracts/PTPPreSale.sol\":731:772  mapping(address => uint256) public userId */\n    tag_7:\n      callvalue\n      dup1\n      iszero\n      tag_67\n      jumpi\n      revert(0x00, 0x00)\n    tag_67:\n      pop\n      tag_68\n      0x04\n      dup1\n      calldatasize\n      sub\n      dup2\n      add\n      swap1\n      tag_69\n      swap2\n      swap1\n      tag_51\n      jump\t// in\n    tag_69:\n      tag_70\n      jump\t// in\n    tag_68:\n      mload(0x40)\n      tag_71\n      swap2\n      swap1\n      tag_54\n      jump\t// in\n    tag_71:\n      mload(0x40)\n      dup1\n      swap2\n      sub\n      swap1\n      return\n        /* \"contracts/PTPPreSale.sol\":3592:3634  function activeOffer() public {... */\n    tag_8:\n      callvalue\n      dup1\n      iszero\n      tag_72\n      jumpi\n      revert(0x00, 0x00)\n    tag_72:\n      pop\n      tag_73\n      tag_74\n      jump\t// in\n    tag_73:\n      stop\n        /* \"contracts/PTPPreSale.sol\":3544:3580  function buyTPTWithOffer() public {} */\n    tag_9:\n      callvalue\n      dup1\n      iszero\n      tag_75\n      jumpi\n      revert(0x00, 0x00)\n    tag_75:\n      pop\n      tag_76\n      tag_77\n      jump\t// in\n    tag_76:\n      stop\n        /* \"contracts/PTPPreSale.sol\":243:281  mapping(uint8 => uint) public tptPrice */\n    tag_10:\n      callvalue\n      dup1\n      iszero\n      tag_78\n      jumpi\n      revert(0x00, 0x00)\n    tag_78:\n      pop\n      tag_79\n      0x04\n      dup1\n      calldatasize\n      sub\n      dup2\n      add\n      swap1\n      tag_80\n      swap2\n      swap1\n      tag_81\n      jump\t// in\n    tag_80:\n      tag_82\n      jump\t// in\n    tag_79:\n      mload(0x40)\n      tag_83\n      swap2\n      swap1\n      tag_54\n      jump\t// in\n    tag_83:\n      mload(0x40)\n      dup1\n      swap2\n      sub\n      swap1\n      return\n        /* \"contracts/PTPPreSale.sol\":4259:4361  function getThisStepPrice() public view returns (uint256) {... */\n    tag_11:\n      callvalue\n      dup1\n      iszero\n      tag_84\n      jumpi\n      revert(0x00, 0x00)\n    tag_84:\n      pop\n      tag_85\n      tag_86\n      jump\t// in\n    tag_85:\n      mload(0x40)\n      tag_87\n      swap2\n      swap1\n      tag_54\n      jump\t// in\n    tag_87:\n      mload(0x40)\n      dup1\n      swap2\n      sub\n      swap1\n      return\n        /* \"contracts/PTPPreSale.sol\":4049:4135  function setThisStep(uint8 _step) public onlyOwner {... */\n    tag_12:\n      callvalue\n      dup1\n      iszero\n      tag_88\n      jumpi\n      revert(0x00, 0x00)\n    tag_88:\n      pop\n      tag_89\n      0x04\n      dup1\n      calldatasize\n      sub\n      dup2\n      add\n      swap1\n      tag_90\n      swap2\n      swap1\n      tag_81\n      jump\t// in\n    tag_90:\n      tag_91\n      jump\t// in\n    tag_89:\n      stop\n        /* \"contracts/PTPPreSale.sol\":137:157  address public owner */\n    tag_13:\n      callvalue\n      dup1\n      iszero\n      tag_92\n      jumpi\n      revert(0x00, 0x00)\n    tag_92:\n      pop\n      tag_93\n      tag_94\n      jump\t// in\n    tag_93:\n      mload(0x40)\n      tag_95\n      swap2\n      swap1\n      tag_96\n      jump\t// in\n    tag_95:\n      mload(0x40)\n      dup1\n      swap2\n      sub\n      swap1\n      return\n        /* \"contracts/PTPPreSale.sol\":3020:3137  function getUserAddress(uint256 id) external view returns (address) {... */\n    tag_14:\n      callvalue\n      dup1\n      iszero\n      tag_97\n      jumpi\n      revert(0x00, 0x00)\n    tag_97:\n      pop\n      tag_98\n      0x04\n      dup1\n      calldatasize\n      sub\n      dup2\n      add\n      swap1\n      tag_99\n      swap2\n      swap1\n      tag_63\n      jump\t// in\n    tag_99:\n      tag_100\n      jump\t// in\n    tag_98:\n      mload(0x40)\n      tag_101\n      swap2\n      swap1\n      tag_96\n      jump\t// in\n    tag_101:\n      mload(0x40)\n      dup1\n      swap2\n      sub\n      swap1\n      return\n        /* \"contracts/PTPPreSale.sol\":4143:4251  function setTPTPrice(uint8 _step , uint _price) public onlyOwner {... */\n    tag_15:\n      callvalue\n      dup1\n      iszero\n      tag_102\n      jumpi\n      revert(0x00, 0x00)\n    tag_102:\n      pop\n      tag_103\n      0x04\n      dup1\n      calldatasize\n      sub\n      dup2\n      add\n      swap1\n      tag_104\n      swap2\n      swap1\n      tag_105\n      jump\t// in\n    tag_104:\n      tag_106\n      jump\t// in\n    tag_103:\n      stop\n        /* \"contracts/PTPPreSale.sol\":215:236  uint8 public thisStep */\n    tag_16:\n      callvalue\n      dup1\n      iszero\n      tag_107\n      jumpi\n      revert(0x00, 0x00)\n    tag_107:\n      pop\n      tag_108\n      tag_109\n      jump\t// in\n    tag_108:\n      mload(0x40)\n      tag_110\n      swap2\n      swap1\n      tag_111\n      jump\t// in\n    tag_110:\n      mload(0x40)\n      dup1\n      swap2\n      sub\n      swap1\n      return\n        /* \"contracts/PTPPreSale.sol\":383:408  uint256 public totalUsers */\n    tag_17:\n      callvalue\n      dup1\n      iszero\n      tag_112\n      jumpi\n      revert(0x00, 0x00)\n    tag_112:\n      pop\n      tag_113\n      tag_114\n      jump\t// in\n    tag_113:\n      mload(0x40)\n      tag_115\n      swap2\n      swap1\n      tag_54\n      jump\t// in\n    tag_115:\n      mload(0x40)\n      dup1\n      swap2\n      sub\n      swap1\n      return\n        /* \"contracts/PTPPreSale.sol\":3306:3530  function grantPointsById(address _userAddress, uint256 _value) external onlyOwner {... */\n    tag_18:\n      callvalue\n      dup1\n      iszero\n      tag_116\n      jumpi\n      revert(0x00, 0x00)\n    tag_116:\n      pop\n      tag_117\n      0x04\n      dup1\n      calldatasize\n      sub\n      dup2\n      add\n      swap1\n      tag_118\n      swap2\n      swap1\n      tag_44\n      jump\t// in\n    tag_118:\n      tag_119\n      jump\t// in\n    tag_117:\n      stop\n        /* \"contracts/PTPPreSale.sol\":2192:2363  function withdrawAll(address payable _to) external onlyOwner {... */\n    tag_19:\n      callvalue\n      dup1\n      iszero\n      tag_120\n      jumpi\n      revert(0x00, 0x00)\n    tag_120:\n      pop\n      tag_121\n      0x04\n      dup1\n      calldatasize\n      sub\n      dup2\n      add\n      swap1\n      tag_122\n      swap2\n      swap1\n      tag_123\n      jump\t// in\n    tag_122:\n      tag_124\n      jump\t// in\n    tag_121:\n      stop\n        /* \"contracts/PTPPreSale.sol\":3149:3294  function getUserTPTBalance(address _userAddress) external view returns (uint256) {... */\n    tag_20:\n      callvalue\n      dup1\n      iszero\n      tag_125\n      jumpi\n      revert(0x00, 0x00)\n    tag_125:\n      pop\n      tag_126\n      0x04\n      dup1\n      calldatasize\n      sub\n      dup2\n      add\n      swap1\n      tag_127\n      swap2\n      swap1\n      tag_51\n      jump\t// in\n    tag_127:\n      tag_128\n      jump\t// in\n    tag_126:\n      mload(0x40)\n      tag_129\n      swap2\n      swap1\n      tag_54\n      jump\t// in\n    tag_129:\n      mload(0x40)\n      dup1\n      swap2\n      sub\n      swap1\n      return\n        /* \"contracts/PTPPreSale.sol\":1395:2182  function buyTPT( bool _useOffer ) internal pauseable reentrancy {... */\n    tag_30:\n        /* \"contracts/PTPPreSale.sol\":1024:1025  0 */\n      0x00\n        /* \"contracts/PTPPreSale.sol\":1012:1020  thisStep */\n      0x00\n      0x15\n      swap1\n      sload\n      swap1\n      0x0100\n      exp\n      swap1\n      div\n      0xff\n      and\n        /* \"contracts/PTPPreSale.sol\":1012:1025  thisStep != 0 */\n      0xff\n      and\n      sub\n        /* \"contracts/PTPPreSale.sol\":1004:1045  require(thisStep != 0, \"Contract Paused\") */\n      tag_131\n      jumpi\n      mload(0x40)\n      0x08c379a000000000000000000000000000000000000000000000000000000000\n      dup2\n      mstore\n      0x04\n      add\n      tag_132\n      swap1\n      tag_133\n      jump\t// in\n    tag_132:\n      mload(0x40)\n      dup1\n      swap2\n      sub\n      swap1\n      revert\n    tag_131:\n        /* \"contracts/PTPPreSale.sol\":1121:1125  true */\n      0x01\n        /* \"contracts/PTPPreSale.sol\":1111:1125  locked != true */\n      iszero\n      iszero\n        /* \"contracts/PTPPreSale.sol\":1111:1117  locked */\n      0x00\n      0x14\n      swap1\n      sload\n      swap1\n      0x0100\n      exp\n      swap1\n      div\n      0xff\n      and\n        /* \"contracts/PTPPreSale.sol\":1111:1125  locked != true */\n      iszero\n      iszero\n      sub\n        /* \"contracts/PTPPreSale.sol\":1103:1151  require(locked != true,\"No Reentrancy,pls wait\") */\n      tag_135\n      jumpi\n      mload(0x40)\n      0x08c379a000000000000000000000000000000000000000000000000000000000\n      dup2\n      mstore\n      0x04\n      add\n      tag_136\n      swap1\n      tag_137\n      jump\t// in\n    tag_136:\n      mload(0x40)\n      dup1\n      swap2\n      sub\n      swap1\n      revert\n    tag_135:\n        /* \"contracts/PTPPreSale.sol\":1171:1175  true */\n      0x01\n        /* \"contracts/PTPPreSale.sol\":1162:1168  locked */\n      0x00\n      0x14\n        /* \"contracts/PTPPreSale.sol\":1162:1175  locked = true */\n      0x0100\n      exp\n      dup2\n      sload\n      dup2\n      0xff\n      mul\n      not\n      and\n      swap1\n      dup4\n      iszero\n      iszero\n      mul\n      or\n      swap1\n      sstore\n      pop\n        /* \"contracts/PTPPreSale.sol\":1470:1487  uint256 tptAmount */\n      0x00\n        /* \"contracts/PTPPreSale.sol\":1490:1499  _useOffer */\n      dup2\n        /* \"contracts/PTPPreSale.sol\":1490:1585  _useOffer ? msg.value * 1e18 / tptPrice[thisStep] : (msg.value * 1e18 / tptPrice[thisStep]) * 2 */\n      tag_139\n      jumpi\n        /* \"contracts/PTPPreSale.sol\":1584:1585  2 */\n      0x02\n        /* \"contracts/PTPPreSale.sol\":1562:1570  tptPrice */\n      0x01\n        /* \"contracts/PTPPreSale.sol\":1562:1580  tptPrice[thisStep] */\n      0x00\n        /* \"contracts/PTPPreSale.sol\":1571:1579  thisStep */\n      0x00\n      0x15\n      swap1\n      sload\n      swap1\n      0x0100\n      exp\n      swap1\n      div\n      0xff\n      and\n        /* \"contracts/PTPPreSale.sol\":1562:1580  tptPrice[thisStep] */\n      0xff\n      and\n      0xff\n      and\n      dup2\n      mstore\n      0x20\n      add\n      swap1\n      dup2\n      mstore\n      0x20\n      add\n      0x00\n      keccak256\n      sload\n        /* \"contracts/PTPPreSale.sol\":1555:1559  1e18 */\n      0x0de0b6b3a7640000\n        /* \"contracts/PTPPreSale.sol\":1543:1552  msg.value */\n      callvalue\n        /* \"contracts/PTPPreSale.sol\":1543:1559  msg.value * 1e18 */\n      tag_140\n      swap2\n      swap1\n      tag_141\n      jump\t// in\n    tag_140:\n        /* \"contracts/PTPPreSale.sol\":1543:1580  msg.value * 1e18 / tptPrice[thisStep] */\n      tag_142\n      swap2\n      swap1\n      tag_143\n      jump\t// in\n    tag_142:\n        /* \"contracts/PTPPreSale.sol\":1542:1585  (msg.value * 1e18 / tptPrice[thisStep]) * 2 */\n      tag_144\n      swap2\n      swap1\n      tag_141\n      jump\t// in\n    tag_144:\n        /* \"contracts/PTPPreSale.sol\":1490:1585  _useOffer ? msg.value * 1e18 / tptPrice[thisStep] : (msg.value * 1e18 / tptPrice[thisStep]) * 2 */\n      jump(tag_145)\n    tag_139:\n        /* \"contracts/PTPPreSale.sol\":1521:1529  tptPrice */\n      0x01\n        /* \"contracts/PTPPreSale.sol\":1521:1539  tptPrice[thisStep] */\n      0x00\n        /* \"contracts/PTPPreSale.sol\":1530:1538  thisStep */\n      0x00\n      0x15\n      swap1\n      sload\n      swap1\n      0x0100\n      exp\n      swap1\n      div\n      0xff\n      and\n        /* \"contracts/PTPPreSale.sol\":1521:1539  tptPrice[thisStep] */\n      0xff\n      and\n      0xff\n      and\n      dup2\n      mstore\n      0x20\n      add\n      swap1\n      dup2\n      mstore\n      0x20\n      add\n      0x00\n      keccak256\n      sload\n        /* \"contracts/PTPPreSale.sol\":1514:1518  1e18 */\n      0x0de0b6b3a7640000\n        /* \"contracts/PTPPreSale.sol\":1502:1511  msg.value */\n      callvalue\n        /* \"contracts/PTPPreSale.sol\":1502:1518  msg.value * 1e18 */\n      tag_146\n      swap2\n      swap1\n      tag_141\n      jump\t// in\n    tag_146:\n        /* \"contracts/PTPPreSale.sol\":1502:1539  msg.value * 1e18 / tptPrice[thisStep] */\n      tag_147\n      swap2\n      swap1\n      tag_143\n      jump\t// in\n    tag_147:\n        /* \"contracts/PTPPreSale.sol\":1490:1585  _useOffer ? msg.value * 1e18 / tptPrice[thisStep] : (msg.value * 1e18 / tptPrice[thisStep]) * 2 */\n    tag_145:\n        /* \"contracts/PTPPreSale.sol\":1470:1585  uint256 tptAmount = _useOffer ? msg.value * 1e18 / tptPrice[thisStep] : (msg.value * 1e18 / tptPrice[thisStep]) * 2 */\n      swap1\n      pop\n        /* \"contracts/PTPPreSale.sol\":1625:1626  0 */\n      0x00\n        /* \"contracts/PTPPreSale.sol\":1603:1609  userId */\n      0x04\n        /* \"contracts/PTPPreSale.sol\":1603:1621  userId[msg.sender] */\n      0x00\n        /* \"contracts/PTPPreSale.sol\":1610:1620  msg.sender */\n      caller\n        /* \"contracts/PTPPreSale.sol\":1603:1621  userId[msg.sender] */\n      0xffffffffffffffffffffffffffffffffffffffff\n      and\n      0xffffffffffffffffffffffffffffffffffffffff\n      and\n      dup2\n      mstore\n      0x20\n      add\n      swap1\n      dup2\n      mstore\n      0x20\n      add\n      0x00\n      keccak256\n      sload\n        /* \"contracts/PTPPreSale.sol\":1603:1626  userId[msg.sender] == 0 */\n      sub\n        /* \"contracts/PTPPreSale.sol\":1599:2104  if (userId[msg.sender] == 0) {... */\n      tag_148\n      jumpi\n        /* \"contracts/PTPPreSale.sol\":1661:1671  totalUsers */\n      0x03\n      0x00\n        /* \"contracts/PTPPreSale.sol\":1661:1673  totalUsers++ */\n      dup2\n      sload\n      dup1\n      swap3\n      swap2\n      swap1\n      tag_149\n      swap1\n      tag_150\n      jump\t// in\n    tag_149:\n      swap2\n      swap1\n      pop\n      sstore\n      pop\n        /* \"contracts/PTPPreSale.sol\":1709:1719  totalUsers */\n      sload(0x03)\n        /* \"contracts/PTPPreSale.sol\":1688:1694  userId */\n      0x04\n        /* \"contracts/PTPPreSale.sol\":1688:1706  userId[msg.sender] */\n      0x00\n        /* \"contracts/PTPPreSale.sol\":1695:1705  msg.sender */\n      caller\n        /* \"contracts/PTPPreSale.sol\":1688:1706  userId[msg.sender] */\n      0xffffffffffffffffffffffffffffffffffffffff\n      and\n      0xffffffffffffffffffffffffffffffffffffffff\n      and\n      dup2\n      mstore\n      0x20\n      add\n      swap1\n      dup2\n      mstore\n      0x20\n      add\n      0x00\n      keccak256\n        /* \"contracts/PTPPreSale.sol\":1688:1719  userId[msg.sender] = totalUsers */\n      dup2\n      swap1\n      sstore\n      pop\n        /* \"contracts/PTPPreSale.sol\":1740:1765  UserInfo storage userInfo */\n      0x00\n        /* \"contracts/PTPPreSale.sol\":1768:1773  users */\n      0x05\n        /* \"contracts/PTPPreSale.sol\":1768:1785  users[totalUsers] */\n      0x00\n        /* \"contracts/PTPPreSale.sol\":1774:1784  totalUsers */\n      sload(0x03)\n        /* \"contracts/PTPPreSale.sol\":1768:1785  users[totalUsers] */\n      dup2\n      mstore\n      0x20\n      add\n      swap1\n      dup2\n      mstore\n      0x20\n      add\n      0x00\n      keccak256\n        /* \"contracts/PTPPreSale.sol\":1740:1785  UserInfo storage userInfo = users[totalUsers] */\n      swap1\n      pop\n        /* \"contracts/PTPPreSale.sol\":1825:1835  msg.sender */\n      caller\n        /* \"contracts/PTPPreSale.sol\":1800:1808  userInfo */\n      dup2\n        /* \"contracts/PTPPreSale.sol\":1800:1822  userInfo.walletAddress */\n      0x00\n      add\n      0x00\n        /* \"contracts/PTPPreSale.sol\":1800:1835  userInfo.walletAddress = msg.sender */\n      0x0100\n      exp\n      dup2\n      sload\n      dup2\n      0xffffffffffffffffffffffffffffffffffffffff\n      mul\n      not\n      and\n      swap1\n      dup4\n      0xffffffffffffffffffffffffffffffffffffffff\n      and\n      mul\n      or\n      swap1\n      sstore\n      pop\n        /* \"contracts/PTPPreSale.sol\":1872:1873  0 */\n      0x00\n        /* \"contracts/PTPPreSale.sol\":1850:1858  userInfo */\n      dup2\n        /* \"contracts/PTPPreSale.sol\":1850:1869  userInfo.tptBalance */\n      0x01\n      add\n        /* \"contracts/PTPPreSale.sol\":1850:1873  userInfo.tptBalance = 0 */\n      dup2\n      swap1\n      sstore\n      pop\n        /* \"contracts/PTPPreSale.sol\":1908:1912  true */\n      0x01\n        /* \"contracts/PTPPreSale.sol\":1888:1896  userInfo */\n      dup2\n        /* \"contracts/PTPPreSale.sol\":1888:1905  userInfo.hasOffer */\n      0x02\n      add\n      0x00\n        /* \"contracts/PTPPreSale.sol\":1888:1912  userInfo.hasOffer = true */\n      0x0100\n      exp\n      dup2\n      sload\n      dup2\n      0xff\n      mul\n      not\n      and\n      swap1\n      dup4\n      iszero\n      iszero\n      mul\n      or\n      swap1\n      sstore\n      pop\n        /* \"contracts/PTPPreSale.sol\":1973:1981  userInfo */\n      dup1\n        /* \"contracts/PTPPreSale.sol\":1953:1958  users */\n      0x05\n        /* \"contracts/PTPPreSale.sol\":1953:1970  users[totalUsers] */\n      0x00\n        /* \"contracts/PTPPreSale.sol\":1959:1969  totalUsers */\n      sload(0x03)\n        /* \"contracts/PTPPreSale.sol\":1953:1970  users[totalUsers] */\n      dup2\n      mstore\n      0x20\n      add\n      swap1\n      dup2\n      mstore\n      0x20\n      add\n      0x00\n      keccak256\n        /* \"contracts/PTPPreSale.sol\":1953:1981  users[totalUsers] = userInfo */\n      0x00\n      dup3\n      add\n      0x00\n      swap1\n      sload\n      swap1\n      0x0100\n      exp\n      swap1\n      div\n      0xffffffffffffffffffffffffffffffffffffffff\n      and\n      dup2\n      0x00\n      add\n      exp(0x0100, 0x00)\n      dup2\n      sload\n      dup2\n      0xffffffffffffffffffffffffffffffffffffffff\n      mul\n      not\n      and\n      swap1\n      dup4\n      0xffffffffffffffffffffffffffffffffffffffff\n      and\n      mul\n      or\n      swap1\n      sstore\n      pop\n      0x01\n      dup3\n      add\n      sload\n      dup2\n      0x01\n      add\n      sstore\n      0x02\n      dup3\n      add\n      0x00\n      swap1\n      sload\n      swap1\n      0x0100\n      exp\n      swap1\n      div\n      0xff\n      and\n      dup2\n      0x02\n      add\n      exp(0x0100, 0x00)\n      dup2\n      sload\n      dup2\n      0xff\n      mul\n      not\n      and\n      swap1\n      dup4\n      iszero\n      iszero\n      mul\n      or\n      swap1\n      sstore\n      pop\n      0x03\n      dup3\n      add\n      dup2\n      0x03\n      add\n      swap1\n      dup1\n      sload\n      tag_151\n      swap3\n      swap2\n      swap1\n      tag_152\n      jump\t// in\n    tag_151:\n      pop\n      swap1\n      pop\n      pop\n        /* \"contracts/PTPPreSale.sol\":1628:2104  {... */\n      pop\n        /* \"contracts/PTPPreSale.sol\":1599:2104  if (userId[msg.sender] == 0) {... */\n    tag_148:\n        /* \"contracts/PTPPreSale.sol\":2165:2174  tptAmount */\n      dup1\n        /* \"contracts/PTPPreSale.sol\":2134:2139  users */\n      0x05\n        /* \"contracts/PTPPreSale.sol\":2134:2151  users[totalUsers] */\n      0x00\n        /* \"contracts/PTPPreSale.sol\":2140:2150  totalUsers */\n      sload(0x03)\n        /* \"contracts/PTPPreSale.sol\":2134:2151  users[totalUsers] */\n      dup2\n      mstore\n      0x20\n      add\n      swap1\n      dup2\n      mstore\n      0x20\n      add\n      0x00\n      keccak256\n        /* \"contracts/PTPPreSale.sol\":2134:2162  users[totalUsers].tptBalance */\n      0x01\n      add\n        /* \"contracts/PTPPreSale.sol\":2134:2174  users[totalUsers].tptBalance = tptAmount */\n      dup2\n      swap1\n      sstore\n      pop\n        /* \"contracts/PTPPreSale.sol\":1459:2182  {... */\n      pop\n        /* \"contracts/PTPPreSale.sol\":1207:1212  false */\n      0x00\n        /* \"contracts/PTPPreSale.sol\":1198:1204  locked */\n      0x00\n      0x14\n        /* \"contracts/PTPPreSale.sol\":1198:1212  locked = false */\n      0x0100\n      exp\n      dup2\n      sload\n      dup2\n      0xff\n      mul\n      not\n      and\n      swap1\n      dup4\n      iszero\n      iszero\n      mul\n      or\n      swap1\n      sstore\n      pop\n        /* \"contracts/PTPPreSale.sol\":1395:2182  function buyTPT( bool _useOffer ) internal pauseable reentrancy {... */\n      pop\n      jump\t// out\n        /* \"contracts/PTPPreSale.sol\":2532:2810  function getPurchase(address _userAddress, uint index) external view returns (uint256 timestamp, uint256 bnbAmount, uint256 tptAmount) {... */\n    tag_45:\n        /* \"contracts/PTPPreSale.sol\":2610:2627  uint256 timestamp */\n      0x00\n        /* \"contracts/PTPPreSale.sol\":2629:2646  uint256 bnbAmount */\n      0x00\n        /* \"contracts/PTPPreSale.sol\":2648:2665  uint256 tptAmount */\n      0x00\n        /* \"contracts/PTPPreSale.sol\":2678:2695  Purchase memory p */\n      0x00\n        /* \"contracts/PTPPreSale.sol\":2698:2703  users */\n      0x05\n        /* \"contracts/PTPPreSale.sol\":2698:2725  users[userId[_userAddress]] */\n      0x00\n        /* \"contracts/PTPPreSale.sol\":2704:2710  userId */\n      0x04\n        /* \"contracts/PTPPreSale.sol\":2704:2724  userId[_userAddress] */\n      0x00\n        /* \"contracts/PTPPreSale.sol\":2711:2723  _userAddress */\n      dup10\n        /* \"contracts/PTPPreSale.sol\":2704:2724  userId[_userAddress] */\n      0xffffffffffffffffffffffffffffffffffffffff\n      and\n      0xffffffffffffffffffffffffffffffffffffffff\n      and\n      dup2\n      mstore\n      0x20\n      add\n      swap1\n      dup2\n      mstore\n      0x20\n      add\n      0x00\n      keccak256\n      sload\n        /* \"contracts/PTPPreSale.sol\":2698:2725  users[userId[_userAddress]] */\n      dup2\n      mstore\n      0x20\n      add\n      swap1\n      dup2\n      mstore\n      0x20\n      add\n      0x00\n      keccak256\n        /* \"contracts/PTPPreSale.sol\":2698:2738  users[userId[_userAddress]].purchaseList */\n      0x03\n      add\n        /* \"contracts/PTPPreSale.sol\":2739:2744  index */\n      dup6\n        /* \"contracts/PTPPreSale.sol\":2698:2745  users[userId[_userAddress]].purchaseList[index] */\n      dup2\n      sload\n      dup2\n      lt\n      tag_154\n      jumpi\n      tag_155\n      tag_156\n      jump\t// in\n    tag_155:\n    tag_154:\n      swap1\n      0x00\n      mstore\n      keccak256(0x00, 0x20)\n      swap1\n      0x04\n      mul\n      add\n        /* \"contracts/PTPPreSale.sol\":2678:2745  Purchase memory p = users[userId[_userAddress]].purchaseList[index] */\n      mload(0x40)\n      dup1\n      0x80\n      add\n      0x40\n      mstore\n      swap1\n      dup2\n      0x00\n      dup3\n      add\n      sload\n      dup2\n      mstore\n      0x20\n      add\n      0x01\n      dup3\n      add\n      sload\n      dup2\n      mstore\n      0x20\n      add\n      0x02\n      dup3\n      add\n      sload\n      dup2\n      mstore\n      0x20\n      add\n      0x03\n      dup3\n      add\n      0x00\n      swap1\n      sload\n      swap1\n      0x0100\n      exp\n      swap1\n      div\n      0xff\n      and\n      0xff\n      and\n      0xff\n      and\n      dup2\n      mstore\n      pop\n      pop\n      swap1\n      pop\n        /* \"contracts/PTPPreSale.sol\":2764:2765  p */\n      dup1\n        /* \"contracts/PTPPreSale.sol\":2764:2775  p.timestamp */\n      0x00\n      add\n      mload\n        /* \"contracts/PTPPreSale.sol\":2777:2778  p */\n      dup2\n        /* \"contracts/PTPPreSale.sol\":2777:2788  p.bnbAmount */\n      0x20\n      add\n      mload\n        /* \"contracts/PTPPreSale.sol\":2790:2791  p */\n      dup3\n        /* \"contracts/PTPPreSale.sol\":2790:2801  p.tptAmount */\n      0x40\n      add\n      mload\n        /* \"contracts/PTPPreSale.sol\":2756:2802  return (p.timestamp, p.bnbAmount, p.tptAmount) */\n      swap4\n      pop\n      swap4\n      pop\n      swap4\n      pop\n      pop\n        /* \"contracts/PTPPreSale.sol\":2532:2810  function getPurchase(address _userAddress, uint index) external view returns (uint256 timestamp, uint256 bnbAmount, uint256 tptAmount) {... */\n      swap3\n      pop\n      swap3\n      pop\n      swap3\n      jump\t// out\n        /* \"contracts/PTPPreSale.sol\":2858:2961  function getUserId(address user) external view returns (uint256) {... */\n    tag_52:\n        /* \"contracts/PTPPreSale.sol\":2914:2921  uint256 */\n      0x00\n        /* \"contracts/PTPPreSale.sol\":2941:2947  userId */\n      0x04\n        /* \"contracts/PTPPreSale.sol\":2941:2953  userId[user] */\n      0x00\n        /* \"contracts/PTPPreSale.sol\":2948:2952  user */\n      dup4\n        /* \"contracts/PTPPreSale.sol\":2941:2953  userId[user] */\n      0xffffffffffffffffffffffffffffffffffffffff\n      and\n      0xffffffffffffffffffffffffffffffffffffffff\n      and\n      dup2\n      mstore\n      0x20\n      add\n      swap1\n      dup2\n      mstore\n      0x20\n      add\n      0x00\n      keccak256\n      sload\n        /* \"contracts/PTPPreSale.sol\":2934:2953  return userId[user] */\n      swap1\n      pop\n        /* \"contracts/PTPPreSale.sol\":2858:2961  function getUserId(address user) external view returns (uint256) {... */\n      swap2\n      swap1\n      pop\n      jump\t// out\n        /* \"contracts/PTPPreSale.sol\":2371:2524  function getPurchaseCount(address _userAddress) external view returns (uint256) {... */\n    tag_58:\n        /* \"contracts/PTPPreSale.sol\":2442:2449  uint256 */\n      0x00\n        /* \"contracts/PTPPreSale.sol\":2469:2474  users */\n      0x05\n        /* \"contracts/PTPPreSale.sol\":2469:2496  users[userId[_userAddress]] */\n      0x00\n        /* \"contracts/PTPPreSale.sol\":2475:2481  userId */\n      0x04\n        /* \"contracts/PTPPreSale.sol\":2475:2495  userId[_userAddress] */\n      0x00\n        /* \"contracts/PTPPreSale.sol\":2482:2494  _userAddress */\n      dup6\n        /* \"contracts/PTPPreSale.sol\":2475:2495  userId[_userAddress] */\n      0xffffffffffffffffffffffffffffffffffffffff\n      and\n      0xffffffffffffffffffffffffffffffffffffffff\n      and\n      dup2\n      mstore\n      0x20\n      add\n      swap1\n      dup2\n      mstore\n      0x20\n      add\n      0x00\n      keccak256\n      sload\n        /* \"contracts/PTPPreSale.sol\":2469:2496  users[userId[_userAddress]] */\n      dup2\n      mstore\n      0x20\n      add\n      swap1\n      dup2\n      mstore\n      0x20\n      add\n      0x00\n      keccak256\n        /* \"contracts/PTPPreSale.sol\":2469:2509  users[userId[_userAddress]].purchaseList */\n      0x03\n      add\n        /* \"contracts/PTPPreSale.sol\":2469:2516  users[userId[_userAddress]].purchaseList.length */\n      dup1\n      sload\n      swap1\n      pop\n        /* \"contracts/PTPPreSale.sol\":2462:2516  return users[userId[_userAddress]].purchaseList.length */\n      swap1\n      pop\n        /* \"contracts/PTPPreSale.sol\":2371:2524  function getPurchaseCount(address _userAddress) external view returns (uint256) {... */\n      swap2\n      swap1\n      pop\n      jump\t// out\n        /* \"contracts/PTPPreSale.sol\":809:850  mapping(uint256 => UserInfo) public users */\n    tag_64:\n      mstore(0x20, 0x05)\n      dup1\n      0x00\n      mstore\n      keccak256(0x00, 0x40)\n      0x00\n      swap2\n      pop\n      swap1\n      pop\n      dup1\n      0x00\n      add\n      0x00\n      swap1\n      sload\n      swap1\n      0x0100\n      exp\n      swap1\n      div\n      0xffffffffffffffffffffffffffffffffffffffff\n      and\n      swap1\n      dup1\n      0x01\n      add\n      sload\n      swap1\n      dup1\n      0x02\n      add\n      0x00\n      swap1\n      sload\n      swap1\n      0x0100\n      exp\n      swap1\n      div\n      0xff\n      and\n      swap1\n      pop\n      dup4\n      jump\t// out\n        /* \"contracts/PTPPreSale.sol\":731:772  mapping(address => uint256) public userId */\n    tag_70:\n      mstore(0x20, 0x04)\n      dup1\n      0x00\n      mstore\n      keccak256(0x00, 0x40)\n      0x00\n      swap2\n      pop\n      swap1\n      pop\n      sload\n      dup2\n      jump\t// out\n        /* \"contracts/PTPPreSale.sol\":3592:3634  function activeOffer() public {... */\n    tag_74:\n      jump\t// out\n        /* \"contracts/PTPPreSale.sol\":3544:3580  function buyTPTWithOffer() public {} */\n    tag_77:\n      jump\t// out\n        /* \"contracts/PTPPreSale.sol\":243:281  mapping(uint8 => uint) public tptPrice */\n    tag_82:\n      mstore(0x20, 0x01)\n      dup1\n      0x00\n      mstore\n      keccak256(0x00, 0x40)\n      0x00\n      swap2\n      pop\n      swap1\n      pop\n      sload\n      dup2\n      jump\t// out\n        /* \"contracts/PTPPreSale.sol\":4259:4361  function getThisStepPrice() public view returns (uint256) {... */\n    tag_86:\n        /* \"contracts/PTPPreSale.sol\":4308:4315  uint256 */\n      0x00\n        /* \"contracts/PTPPreSale.sol\":4335:4343  tptPrice */\n      0x01\n        /* \"contracts/PTPPreSale.sol\":4335:4353  tptPrice[thisStep] */\n      0x00\n        /* \"contracts/PTPPreSale.sol\":4344:4352  thisStep */\n      0x00\n      0x15\n      swap1\n      sload\n      swap1\n      0x0100\n      exp\n      swap1\n      div\n      0xff\n      and\n        /* \"contracts/PTPPreSale.sol\":4335:4353  tptPrice[thisStep] */\n      0xff\n      and\n      0xff\n      and\n      dup2\n      mstore\n      0x20\n      add\n      swap1\n      dup2\n      mstore\n      0x20\n      add\n      0x00\n      keccak256\n      sload\n        /* \"contracts/PTPPreSale.sol\":4328:4353  return tptPrice[thisStep] */\n      swap1\n      pop\n        /* \"contracts/PTPPreSale.sol\":4259:4361  function getThisStepPrice() public view returns (uint256) {... */\n      swap1\n      jump\t// out\n        /* \"contracts/PTPPreSale.sol\":4049:4135  function setThisStep(uint8 _step) public onlyOwner {... */\n    tag_91:\n        /* \"contracts/PTPPreSale.sol\":925:930  owner */\n      0x00\n      0x00\n      swap1\n      sload\n      swap1\n      0x0100\n      exp\n      swap1\n      div\n      0xffffffffffffffffffffffffffffffffffffffff\n      and\n        /* \"contracts/PTPPreSale.sol\":911:930  msg.sender == owner */\n      0xffffffffffffffffffffffffffffffffffffffff\n      and\n        /* \"contracts/PTPPreSale.sol\":911:921  msg.sender */\n      caller\n        /* \"contracts/PTPPreSale.sol\":911:930  msg.sender == owner */\n      0xffffffffffffffffffffffffffffffffffffffff\n      and\n      eq\n        /* \"contracts/PTPPreSale.sol\":903:945  require(msg.sender == owner, \"Only owner\") */\n      tag_164\n      jumpi\n      mload(0x40)\n      0x08c379a000000000000000000000000000000000000000000000000000000000\n      dup2\n      mstore\n      0x04\n      add\n      tag_165\n      swap1\n      tag_166\n      jump\t// in\n    tag_165:\n      mload(0x40)\n      dup1\n      swap2\n      sub\n      swap1\n      revert\n    tag_164:\n        /* \"contracts/PTPPreSale.sol\":4122:4127  _step */\n      dup1\n        /* \"contracts/PTPPreSale.sol\":4111:4119  thisStep */\n      0x00\n      0x15\n        /* \"contracts/PTPPreSale.sol\":4111:4127  thisStep = _step */\n      0x0100\n      exp\n      dup2\n      sload\n      dup2\n      0xff\n      mul\n      not\n      and\n      swap1\n      dup4\n      0xff\n      and\n      mul\n      or\n      swap1\n      sstore\n      pop\n        /* \"contracts/PTPPreSale.sol\":4049:4135  function setThisStep(uint8 _step) public onlyOwner {... */\n      pop\n      jump\t// out\n        /* \"contracts/PTPPreSale.sol\":137:157  address public owner */\n    tag_94:\n      0x00\n      0x00\n      swap1\n      sload\n      swap1\n      0x0100\n      exp\n      swap1\n      div\n      0xffffffffffffffffffffffffffffffffffffffff\n      and\n      dup2\n      jump\t// out\n        /* \"contracts/PTPPreSale.sol\":3020:3137  function getUserAddress(uint256 id) external view returns (address) {... */\n    tag_100:\n        /* \"contracts/PTPPreSale.sol\":3079:3086  address */\n      0x00\n        /* \"contracts/PTPPreSale.sol\":3106:3111  users */\n      0x05\n        /* \"contracts/PTPPreSale.sol\":3106:3115  users[id] */\n      0x00\n        /* \"contracts/PTPPreSale.sol\":3112:3114  id */\n      dup4\n        /* \"contracts/PTPPreSale.sol\":3106:3115  users[id] */\n      dup2\n      mstore\n      0x20\n      add\n      swap1\n      dup2\n      mstore\n      0x20\n      add\n      0x00\n      keccak256\n        /* \"contracts/PTPPreSale.sol\":3106:3129  users[id].walletAddress */\n      0x00\n      add\n      0x00\n      swap1\n      sload\n      swap1\n      0x0100\n      exp\n      swap1\n      div\n      0xffffffffffffffffffffffffffffffffffffffff\n      and\n        /* \"contracts/PTPPreSale.sol\":3099:3129  return users[id].walletAddress */\n      swap1\n      pop\n        /* \"contracts/PTPPreSale.sol\":3020:3137  function getUserAddress(uint256 id) external view returns (address) {... */\n      swap2\n      swap1\n      pop\n      jump\t// out\n        /* \"contracts/PTPPreSale.sol\":4143:4251  function setTPTPrice(uint8 _step , uint _price) public onlyOwner {... */\n    tag_106:\n        /* \"contracts/PTPPreSale.sol\":925:930  owner */\n      0x00\n      0x00\n      swap1\n      sload\n      swap1\n      0x0100\n      exp\n      swap1\n      div\n      0xffffffffffffffffffffffffffffffffffffffff\n      and\n        /* \"contracts/PTPPreSale.sol\":911:930  msg.sender == owner */\n      0xffffffffffffffffffffffffffffffffffffffff\n      and\n        /* \"contracts/PTPPreSale.sol\":911:921  msg.sender */\n      caller\n        /* \"contracts/PTPPreSale.sol\":911:930  msg.sender == owner */\n      0xffffffffffffffffffffffffffffffffffffffff\n      and\n      eq\n        /* \"contracts/PTPPreSale.sol\":903:945  require(msg.sender == owner, \"Only owner\") */\n      tag_170\n      jumpi\n      mload(0x40)\n      0x08c379a000000000000000000000000000000000000000000000000000000000\n      dup2\n      mstore\n      0x04\n      add\n      tag_171\n      swap1\n      tag_166\n      jump\t// in\n    tag_171:\n      mload(0x40)\n      dup1\n      swap2\n      sub\n      swap1\n      revert\n    tag_170:\n        /* \"contracts/PTPPreSale.sol\":4237:4243  _price */\n      dup1\n        /* \"contracts/PTPPreSale.sol\":4219:4227  tptPrice */\n      0x01\n        /* \"contracts/PTPPreSale.sol\":4219:4234  tptPrice[_step] */\n      0x00\n        /* \"contracts/PTPPreSale.sol\":4228:4233  _step */\n      dup5\n        /* \"contracts/PTPPreSale.sol\":4219:4234  tptPrice[_step] */\n      0xff\n      and\n      0xff\n      and\n      dup2\n      mstore\n      0x20\n      add\n      swap1\n      dup2\n      mstore\n      0x20\n      add\n      0x00\n      keccak256\n        /* \"contracts/PTPPreSale.sol\":4219:4243  tptPrice[_step] = _price */\n      dup2\n      swap1\n      sstore\n      pop\n        /* \"contracts/PTPPreSale.sol\":4143:4251  function setTPTPrice(uint8 _step , uint _price) public onlyOwner {... */\n      pop\n      pop\n      jump\t// out\n        /* \"contracts/PTPPreSale.sol\":215:236  uint8 public thisStep */\n    tag_109:\n      0x00\n      0x15\n      swap1\n      sload\n      swap1\n      0x0100\n      exp\n      swap1\n      div\n      0xff\n      and\n      dup2\n      jump\t// out\n        /* \"contracts/PTPPreSale.sol\":383:408  uint256 public totalUsers */\n    tag_114:\n      sload(0x03)\n      dup2\n      jump\t// out\n        /* \"contracts/PTPPreSale.sol\":3306:3530  function grantPointsById(address _userAddress, uint256 _value) external onlyOwner {... */\n    tag_119:\n        /* \"contracts/PTPPreSale.sol\":925:930  owner */\n      0x00\n      0x00\n      swap1\n      sload\n      swap1\n      0x0100\n      exp\n      swap1\n      div\n      0xffffffffffffffffffffffffffffffffffffffff\n      and\n        /* \"contracts/PTPPreSale.sol\":911:930  msg.sender == owner */\n      0xffffffffffffffffffffffffffffffffffffffff\n      and\n        /* \"contracts/PTPPreSale.sol\":911:921  msg.sender */\n      caller\n        /* \"contracts/PTPPreSale.sol\":911:930  msg.sender == owner */\n      0xffffffffffffffffffffffffffffffffffffffff\n      and\n      eq\n        /* \"contracts/PTPPreSale.sol\":903:945  require(msg.sender == owner, \"Only owner\") */\n      tag_174\n      jumpi\n      mload(0x40)\n      0x08c379a000000000000000000000000000000000000000000000000000000000\n      dup2\n      mstore\n      0x04\n      add\n      tag_175\n      swap1\n      tag_166\n      jump\t// in\n    tag_175:\n      mload(0x40)\n      dup1\n      swap2\n      sub\n      swap1\n      revert\n    tag_174:\n        /* \"contracts/PTPPreSale.sol\":3441:3442  0 */\n      0x00\n        /* \"contracts/PTPPreSale.sol\":3417:3423  userId */\n      0x04\n        /* \"contracts/PTPPreSale.sol\":3417:3437  userId[_userAddress] */\n      0x00\n        /* \"contracts/PTPPreSale.sol\":3424:3436  _userAddress */\n      dup5\n        /* \"contracts/PTPPreSale.sol\":3417:3437  userId[_userAddress] */\n      0xffffffffffffffffffffffffffffffffffffffff\n      and\n      0xffffffffffffffffffffffffffffffffffffffff\n      and\n      dup2\n      mstore\n      0x20\n      add\n      swap1\n      dup2\n      mstore\n      0x20\n      add\n      0x00\n      keccak256\n      sload\n        /* \"contracts/PTPPreSale.sol\":3417:3442  userId[_userAddress] != 0 */\n      sub\n        /* \"contracts/PTPPreSale.sol\":3409:3462  require(userId[_userAddress] != 0, \"Invalid user ID\") */\n      tag_177\n      jumpi\n      mload(0x40)\n      0x08c379a000000000000000000000000000000000000000000000000000000000\n      dup2\n      mstore\n      0x04\n      add\n      tag_178\n      swap1\n      tag_179\n      jump\t// in\n    tag_178:\n      mload(0x40)\n      dup1\n      swap2\n      sub\n      swap1\n      revert\n    tag_177:\n        /* \"contracts/PTPPreSale.sol\":3515:3521  _value */\n      dup1\n        /* \"contracts/PTPPreSale.sol\":3473:3478  users */\n      0x05\n        /* \"contracts/PTPPreSale.sol\":3473:3500  users[userId[_userAddress]] */\n      0x00\n        /* \"contracts/PTPPreSale.sol\":3479:3485  userId */\n      0x04\n        /* \"contracts/PTPPreSale.sol\":3479:3499  userId[_userAddress] */\n      0x00\n        /* \"contracts/PTPPreSale.sol\":3486:3498  _userAddress */\n      dup7\n        /* \"contracts/PTPPreSale.sol\":3479:3499  userId[_userAddress] */\n      0xffffffffffffffffffffffffffffffffffffffff\n      and\n      0xffffffffffffffffffffffffffffffffffffffff\n      and\n      dup2\n      mstore\n      0x20\n      add\n      swap1\n      dup2\n      mstore\n      0x20\n      add\n      0x00\n      keccak256\n      sload\n        /* \"contracts/PTPPreSale.sol\":3473:3500  users[userId[_userAddress]] */\n      dup2\n      mstore\n      0x20\n      add\n      swap1\n      dup2\n      mstore\n      0x20\n      add\n      0x00\n      keccak256\n        /* \"contracts/PTPPreSale.sol\":3473:3511  users[userId[_userAddress]].tptBalance */\n      0x01\n      add\n      0x00\n        /* \"contracts/PTPPreSale.sol\":3473:3521  users[userId[_userAddress]].tptBalance += _value */\n      dup3\n      dup3\n      sload\n      tag_180\n      swap2\n      swap1\n      tag_181\n      jump\t// in\n    tag_180:\n      swap3\n      pop\n      pop\n      dup2\n      swap1\n      sstore\n      pop\n        /* \"contracts/PTPPreSale.sol\":3306:3530  function grantPointsById(address _userAddress, uint256 _value) external onlyOwner {... */\n      pop\n      pop\n      jump\t// out\n        /* \"contracts/PTPPreSale.sol\":2192:2363  function withdrawAll(address payable _to) external onlyOwner {... */\n    tag_124:\n        /* \"contracts/PTPPreSale.sol\":925:930  owner */\n      0x00\n      0x00\n      swap1\n      sload\n      swap1\n      0x0100\n      exp\n      swap1\n      div\n      0xffffffffffffffffffffffffffffffffffffffff\n      and\n        /* \"contracts/PTPPreSale.sol\":911:930  msg.sender == owner */\n      0xffffffffffffffffffffffffffffffffffffffff\n      and\n        /* \"contracts/PTPPreSale.sol\":911:921  msg.sender */\n      caller\n        /* \"contracts/PTPPreSale.sol\":911:930  msg.sender == owner */\n      0xffffffffffffffffffffffffffffffffffffffff\n      and\n      eq\n        /* \"contracts/PTPPreSale.sol\":903:945  require(msg.sender == owner, \"Only owner\") */\n      tag_183\n      jumpi\n      mload(0x40)\n      0x08c379a000000000000000000000000000000000000000000000000000000000\n      dup2\n      mstore\n      0x04\n      add\n      tag_184\n      swap1\n      tag_166\n      jump\t// in\n    tag_184:\n      mload(0x40)\n      dup1\n      swap2\n      sub\n      swap1\n      revert\n    tag_183:\n        /* \"contracts/PTPPreSale.sol\":2287:2288  0 */\n      0x00\n        /* \"contracts/PTPPreSale.sol\":2272:2289  _to != address(0) */\n      0xffffffffffffffffffffffffffffffffffffffff\n      and\n        /* \"contracts/PTPPreSale.sol\":2272:2275  _to */\n      dup2\n        /* \"contracts/PTPPreSale.sol\":2272:2289  _to != address(0) */\n      0xffffffffffffffffffffffffffffffffffffffff\n      and\n      sub\n        /* \"contracts/PTPPreSale.sol\":2264:2309  require(_to != address(0), \"Invalid address\") */\n      tag_186\n      jumpi\n      mload(0x40)\n      0x08c379a000000000000000000000000000000000000000000000000000000000\n      dup2\n      mstore\n      0x04\n      add\n      tag_187\n      swap1\n      tag_188\n      jump\t// in\n    tag_187:\n      mload(0x40)\n      dup1\n      swap2\n      sub\n      swap1\n      revert\n    tag_186:\n        /* \"contracts/PTPPreSale.sol\":2320:2323  _to */\n      dup1\n        /* \"contracts/PTPPreSale.sol\":2320:2332  _to.transfer */\n      0xffffffffffffffffffffffffffffffffffffffff\n      and\n        /* \"contracts/PTPPreSale.sol\":2320:2355  _to.transfer(address(this).balance) */\n      0x08fc\n        /* \"contracts/PTPPreSale.sol\":2333:2354  address(this).balance */\n      selfbalance\n        /* \"contracts/PTPPreSale.sol\":2320:2355  _to.transfer(address(this).balance) */\n      swap1\n      dup2\n      iszero\n      mul\n      swap1\n      mload(0x40)\n      0x00\n      mload(0x40)\n      dup1\n      dup4\n      sub\n      dup2\n      dup6\n      dup9\n      dup9\n      call\n      swap4\n      pop\n      pop\n      pop\n      pop\n      iszero\n      dup1\n      iszero\n      tag_190\n      jumpi\n      returndatacopy(0x00, 0x00, returndatasize)\n      revert(0x00, returndatasize)\n    tag_190:\n      pop\n        /* \"contracts/PTPPreSale.sol\":2192:2363  function withdrawAll(address payable _to) external onlyOwner {... */\n      pop\n      jump\t// out\n        /* \"contracts/PTPPreSale.sol\":3149:3294  function getUserTPTBalance(address _userAddress) external view returns (uint256) {... */\n    tag_128:\n        /* \"contracts/PTPPreSale.sol\":3221:3228  uint256 */\n      0x00\n        /* \"contracts/PTPPreSale.sol\":3248:3253  users */\n      0x05\n        /* \"contracts/PTPPreSale.sol\":3248:3275  users[userId[_userAddress]] */\n      0x00\n        /* \"contracts/PTPPreSale.sol\":3254:3260  userId */\n      0x04\n        /* \"contracts/PTPPreSale.sol\":3254:3274  userId[_userAddress] */\n      0x00\n        /* \"contracts/PTPPreSale.sol\":3261:3273  _userAddress */\n      dup6\n        /* \"contracts/PTPPreSale.sol\":3254:3274  userId[_userAddress] */\n      0xffffffffffffffffffffffffffffffffffffffff\n      and\n      0xffffffffffffffffffffffffffffffffffffffff\n      and\n      dup2\n      mstore\n      0x20\n      add\n      swap1\n      dup2\n      mstore\n      0x20\n      add\n      0x00\n      keccak256\n      sload\n        /* \"contracts/PTPPreSale.sol\":3248:3275  users[userId[_userAddress]] */\n      dup2\n      mstore\n      0x20\n      add\n      swap1\n      dup2\n      mstore\n      0x20\n      add\n      0x00\n      keccak256\n        /* \"contracts/PTPPreSale.sol\":3248:3286  users[userId[_userAddress]].tptBalance */\n      0x01\n      add\n      sload\n        /* \"contracts/PTPPreSale.sol\":3241:3286  return users[userId[_userAddress]].tptBalance */\n      swap1\n      pop\n        /* \"contracts/PTPPreSale.sol\":3149:3294  function getUserTPTBalance(address _userAddress) external view returns (uint256) {... */\n      swap2\n      swap1\n      pop\n      jump\t// out\n    tag_152:\n      dup3\n      dup1\n      sload\n      dup3\n      dup3\n      sstore\n      swap1\n      0x00\n      mstore\n      keccak256(0x00, 0x20)\n      swap1\n      0x04\n      mul\n      dup2\n      add\n      swap3\n      dup3\n      iszero\n      tag_192\n      jumpi\n      0x00\n      mstore\n      keccak256(0x00, 0x20)\n      swap2\n      0x04\n      mul\n      dup3\n      add\n    tag_193:\n      dup3\n      dup2\n      gt\n      iszero\n      tag_194\n      jumpi\n      dup3\n      dup3\n      0x00\n      dup3\n      add\n      sload\n      dup2\n      0x00\n      add\n      sstore\n      0x01\n      dup3\n      add\n      sload\n      dup2\n      0x01\n      add\n      sstore\n      0x02\n      dup3\n      add\n      sload\n      dup2\n      0x02\n      add\n      sstore\n      0x03\n      dup3\n      add\n      0x00\n      swap1\n      sload\n      swap1\n      0x0100\n      exp\n      swap1\n      div\n      0xff\n      and\n      dup2\n      0x03\n      add\n      exp(0x0100, 0x00)\n      dup2\n      sload\n      dup2\n      0xff\n      mul\n      not\n      and\n      swap1\n      dup4\n      0xff\n      and\n      mul\n      or\n      swap1\n      sstore\n      pop\n      pop\n      pop\n      swap2\n      0x04\n      add\n      swap2\n      swap1\n      0x04\n      add\n      swap1\n      jump(tag_193)\n    tag_194:\n    tag_192:\n      pop\n      swap1\n      pop\n      tag_195\n      swap2\n      swap1\n      tag_196\n      jump\t// in\n    tag_195:\n      pop\n      swap1\n      jump\t// out\n    tag_196:\n    tag_197:\n      dup1\n      dup3\n      gt\n      iszero\n      tag_198\n      jumpi\n      0x00\n      0x00\n      dup3\n      add\n      0x00\n      swap1\n      sstore\n      0x01\n      dup3\n      add\n      0x00\n      swap1\n      sstore\n      0x02\n      dup3\n      add\n      0x00\n      swap1\n      sstore\n      0x03\n      dup3\n      add\n      exp(0x0100, 0x00)\n      dup2\n      sload\n      swap1\n      0xff\n      mul\n      not\n      and\n      swap1\n      sstore\n      pop\n      0x04\n      add\n      jump(tag_197)\n    tag_198:\n      pop\n      swap1\n      jump\t// out\n        /* \"#utility.yul\":7:176   */\n    tag_199:\n        /* \"#utility.yul\":91:102   */\n      0x00\n        /* \"#utility.yul\":125:131   */\n      dup3\n        /* \"#utility.yul\":120:123   */\n      dup3\n        /* \"#utility.yul\":113:132   */\n      mstore\n        /* \"#utility.yul\":165:169   */\n      0x20\n        /* \"#utility.yul\":160:163   */\n      dup3\n        /* \"#utility.yul\":156:170   */\n      add\n        /* \"#utility.yul\":141:170   */\n      swap1\n      pop\n        /* \"#utility.yul\":7:176   */\n      swap3\n      swap2\n      pop\n      pop\n      jump\t// out\n        /* \"#utility.yul\":182:351   */\n    tag_200:\n        /* \"#utility.yul\":322:343   */\n      0x53656e6420424e4220746f206275792054505400000000000000000000000000\n        /* \"#utility.yul\":318:319   */\n      0x00\n        /* \"#utility.yul\":310:316   */\n      dup3\n        /* \"#utility.yul\":306:320   */\n      add\n        /* \"#utility.yul\":299:344   */\n      mstore\n        /* \"#utility.yul\":182:351   */\n      pop\n      jump\t// out\n        /* \"#utility.yul\":357:723   */\n    tag_201:\n        /* \"#utility.yul\":499:502   */\n      0x00\n        /* \"#utility.yul\":520:587   */\n      tag_243\n        /* \"#utility.yul\":584:586   */\n      0x13\n        /* \"#utility.yul\":579:582   */\n      dup4\n        /* \"#utility.yul\":520:587   */\n      tag_199\n      jump\t// in\n    tag_243:\n        /* \"#utility.yul\":513:587   */\n      swap2\n      pop\n        /* \"#utility.yul\":596:689   */\n      tag_244\n        /* \"#utility.yul\":685:688   */\n      dup3\n        /* \"#utility.yul\":596:689   */\n      tag_200\n      jump\t// in\n    tag_244:\n        /* \"#utility.yul\":714:716   */\n      0x20\n        /* \"#utility.yul\":709:712   */\n      dup3\n        /* \"#utility.yul\":705:717   */\n      add\n        /* \"#utility.yul\":698:717   */\n      swap1\n      pop\n        /* \"#utility.yul\":357:723   */\n      swap2\n      swap1\n      pop\n      jump\t// out\n        /* \"#utility.yul\":729:1148   */\n    tag_28:\n        /* \"#utility.yul\":895:899   */\n      0x00\n        /* \"#utility.yul\":933:935   */\n      0x20\n        /* \"#utility.yul\":922:931   */\n      dup3\n        /* \"#utility.yul\":918:936   */\n      add\n        /* \"#utility.yul\":910:936   */\n      swap1\n      pop\n        /* \"#utility.yul\":982:991   */\n      dup2\n        /* \"#utility.yul\":976:980   */\n      dup2\n        /* \"#utility.yul\":972:992   */\n      sub\n        /* \"#utility.yul\":968:969   */\n      0x00\n        /* \"#utility.yul\":957:966   */\n      dup4\n        /* \"#utility.yul\":953:970   */\n      add\n        /* \"#utility.yul\":946:993   */\n      mstore\n        /* \"#utility.yul\":1010:1141   */\n      tag_246\n        /* \"#utility.yul\":1136:1140   */\n      dup2\n        /* \"#utility.yul\":1010:1141   */\n      tag_201\n      jump\t// in\n    tag_246:\n        /* \"#utility.yul\":1002:1141   */\n      swap1\n      pop\n        /* \"#utility.yul\":729:1148   */\n      swap2\n      swap1\n      pop\n      jump\t// out\n        /* \"#utility.yul\":1154:1323   */\n    tag_202:\n        /* \"#utility.yul\":1294:1315   */\n      0x496e76616c69642064617461206c656e67746800000000000000000000000000\n        /* \"#utility.yul\":1290:1291   */\n      0x00\n        /* \"#utility.yul\":1282:1288   */\n      dup3\n        /* \"#utility.yul\":1278:1292   */\n      add\n        /* \"#utility.yul\":1271:1316   */\n      mstore\n        /* \"#utility.yul\":1154:1323   */\n      pop\n      jump\t// out\n        /* \"#utility.yul\":1329:1695   */\n    tag_203:\n        /* \"#utility.yul\":1471:1474   */\n      0x00\n        /* \"#utility.yul\":1492:1559   */\n      tag_249\n        /* \"#utility.yul\":1556:1558   */\n      0x13\n        /* \"#utility.yul\":1551:1554   */\n      dup4\n        /* \"#utility.yul\":1492:1559   */\n      tag_199\n      jump\t// in\n    tag_249:\n        /* \"#utility.yul\":1485:1559   */\n      swap2\n      pop\n        /* \"#utility.yul\":1568:1661   */\n      tag_250\n        /* \"#utility.yul\":1657:1660   */\n      dup3\n        /* \"#utility.yul\":1568:1661   */\n      tag_202\n      jump\t// in\n    tag_250:\n        /* \"#utility.yul\":1686:1688   */\n      0x20\n        /* \"#utility.yul\":1681:1684   */\n      dup3\n        /* \"#utility.yul\":1677:1689   */\n      add\n        /* \"#utility.yul\":1670:1689   */\n      swap1\n      pop\n        /* \"#utility.yul\":1329:1695   */\n      swap2\n      swap1\n      pop\n      jump\t// out\n        /* \"#utility.yul\":1701:2120   */\n    tag_37:\n        /* \"#utility.yul\":1867:1871   */\n      0x00\n        /* \"#utility.yul\":1905:1907   */\n      0x20\n        /* \"#utility.yul\":1894:1903   */\n      dup3\n        /* \"#utility.yul\":1890:1908   */\n      add\n        /* \"#utility.yul\":1882:1908   */\n      swap1\n      pop\n        /* \"#utility.yul\":1954:1963   */\n      dup2\n        /* \"#utility.yul\":1948:1952   */\n      dup2\n        /* \"#utility.yul\":1944:1964   */\n      sub\n        /* \"#utility.yul\":1940:1941   */\n      0x00\n        /* \"#utility.yul\":1929:1938   */\n      dup4\n        /* \"#utility.yul\":1925:1942   */\n      add\n        /* \"#utility.yul\":1918:1965   */\n      mstore\n        /* \"#utility.yul\":1982:2113   */\n      tag_252\n        /* \"#utility.yul\":2108:2112   */\n      dup2\n        /* \"#utility.yul\":1982:2113   */\n      tag_203\n      jump\t// in\n    tag_252:\n        /* \"#utility.yul\":1974:2113   */\n      swap1\n      pop\n        /* \"#utility.yul\":1701:2120   */\n      swap2\n      swap1\n      pop\n      jump\t// out\n        /* \"#utility.yul\":2207:2324   */\n    tag_205:\n        /* \"#utility.yul\":2316:2317   */\n      0x00\n        /* \"#utility.yul\":2313:2314   */\n      0x00\n        /* \"#utility.yul\":2306:2318   */\n      revert\n        /* \"#utility.yul\":2453:2543   */\n    tag_207:\n        /* \"#utility.yul\":2487:2494   */\n      0x00\n        /* \"#utility.yul\":2530:2535   */\n      dup2\n        /* \"#utility.yul\":2523:2536   */\n      iszero\n        /* \"#utility.yul\":2516:2537   */\n      iszero\n        /* \"#utility.yul\":2505:2537   */\n      swap1\n      pop\n        /* \"#utility.yul\":2453:2543   */\n      swap2\n      swap1\n      pop\n      jump\t// out\n        /* \"#utility.yul\":2549:2665   */\n    tag_208:\n        /* \"#utility.yul\":2619:2640   */\n      tag_258\n        /* \"#utility.yul\":2634:2639   */\n      dup2\n        /* \"#utility.yul\":2619:2640   */\n      tag_207\n      jump\t// in\n    tag_258:\n        /* \"#utility.yul\":2612:2617   */\n      dup2\n        /* \"#utility.yul\":2609:2641   */\n      eq\n        /* \"#utility.yul\":2599:2659   */\n      tag_259\n      jumpi\n        /* \"#utility.yul\":2655:2656   */\n      0x00\n        /* \"#utility.yul\":2652:2653   */\n      0x00\n        /* \"#utility.yul\":2645:2657   */\n      revert\n        /* \"#utility.yul\":2599:2659   */\n    tag_259:\n        /* \"#utility.yul\":2549:2665   */\n      pop\n      jump\t// out\n        /* \"#utility.yul\":2671:2804   */\n    tag_209:\n        /* \"#utility.yul\":2714:2719   */\n      0x00\n        /* \"#utility.yul\":2752:2758   */\n      dup2\n        /* \"#utility.yul\":2739:2759   */\n      calldataload\n        /* \"#utility.yul\":2730:2759   */\n      swap1\n      pop\n        /* \"#utility.yul\":2768:2798   */\n      tag_261\n        /* \"#utility.yul\":2792:2797   */\n      dup2\n        /* \"#utility.yul\":2768:2798   */\n      tag_208\n      jump\t// in\n    tag_261:\n        /* \"#utility.yul\":2671:2804   */\n      swap3\n      swap2\n      pop\n      pop\n      jump\t// out\n        /* \"#utility.yul\":2810:3133   */\n    tag_40:\n        /* \"#utility.yul\":2866:2872   */\n      0x00\n        /* \"#utility.yul\":2915:2917   */\n      0x20\n        /* \"#utility.yul\":2903:2912   */\n      dup3\n        /* \"#utility.yul\":2894:2901   */\n      dup5\n        /* \"#utility.yul\":2890:2913   */\n      sub\n        /* \"#utility.yul\":2886:2918   */\n      slt\n        /* \"#utility.yul\":2883:3002   */\n      iszero\n      tag_263\n      jumpi\n        /* \"#utility.yul\":2921:3000   */\n      tag_264\n      tag_205\n      jump\t// in\n    tag_264:\n        /* \"#utility.yul\":2883:3002   */\n    tag_263:\n        /* \"#utility.yul\":3041:3042   */\n      0x00\n        /* \"#utility.yul\":3066:3116   */\n      tag_265\n        /* \"#utility.yul\":3108:3115   */\n      dup5\n        /* \"#utility.yul\":3099:3105   */\n      dup3\n        /* \"#utility.yul\":3088:3097   */\n      dup6\n        /* \"#utility.yul\":3084:3106   */\n      add\n        /* \"#utility.yul\":3066:3116   */\n      tag_209\n      jump\t// in\n    tag_265:\n        /* \"#utility.yul\":3056:3116   */\n      swap2\n      pop\n        /* \"#utility.yul\":3012:3126   */\n      pop\n        /* \"#utility.yul\":2810:3133   */\n      swap3\n      swap2\n      pop\n      pop\n      jump\t// out\n        /* \"#utility.yul\":3139:3265   */\n    tag_210:\n        /* \"#utility.yul\":3176:3183   */\n      0x00\n        /* \"#utility.yul\":3216:3258   */\n      0xffffffffffffffffffffffffffffffffffffffff\n        /* \"#utility.yul\":3209:3214   */\n      dup3\n        /* \"#utility.yul\":3205:3259   */\n      and\n        /* \"#utility.yul\":3194:3259   */\n      swap1\n      pop\n        /* \"#utility.yul\":3139:3265   */\n      swap2\n      swap1\n      pop\n      jump\t// out\n        /* \"#utility.yul\":3271:3367   */\n    tag_211:\n        /* \"#utility.yul\":3308:3315   */\n      0x00\n        /* \"#utility.yul\":3337:3361   */\n      tag_268\n        /* \"#utility.yul\":3355:3360   */\n      dup3\n        /* \"#utility.yul\":3337:3361   */\n      tag_210\n      jump\t// in\n    tag_268:\n        /* \"#utility.yul\":3326:3361   */\n      swap1\n      pop\n        /* \"#utility.yul\":3271:3367   */\n      swap2\n      swap1\n      pop\n      jump\t// out\n        /* \"#utility.yul\":3373:3495   */\n    tag_212:\n        /* \"#utility.yul\":3446:3470   */\n      tag_270\n        /* \"#utility.yul\":3464:3469   */\n      dup2\n        /* \"#utility.yul\":3446:3470   */\n      tag_211\n      jump\t// in\n    tag_270:\n        /* \"#utility.yul\":3439:3444   */\n      dup2\n        /* \"#utility.yul\":3436:3471   */\n      eq\n        /* \"#utility.yul\":3426:3489   */\n      tag_271\n      jumpi\n        /* \"#utility.yul\":3485:3486   */\n      0x00\n        /* \"#utility.yul\":3482:3483   */\n      0x00\n        /* \"#utility.yul\":3475:3487   */\n      revert\n        /* \"#utility.yul\":3426:3489   */\n    tag_271:\n        /* \"#utility.yul\":3373:3495   */\n      pop\n      jump\t// out\n        /* \"#utility.yul\":3501:3640   */\n    tag_213:\n        /* \"#utility.yul\":3547:3552   */\n      0x00\n        /* \"#utility.yul\":3585:3591   */\n      dup2\n        /* \"#utility.yul\":3572:3592   */\n      calldataload\n        /* \"#utility.yul\":3563:3592   */\n      swap1\n      pop\n        /* \"#utility.yul\":3601:3634   */\n      tag_273\n        /* \"#utility.yul\":3628:3633   */\n      dup2\n        /* \"#utility.yul\":3601:3634   */\n      tag_212\n      jump\t// in\n    tag_273:\n        /* \"#utility.yul\":3501:3640   */\n      swap3\n      swap2\n      pop\n      pop\n      jump\t// out\n        /* \"#utility.yul\":3646:3723   */\n    tag_214:\n        /* \"#utility.yul\":3683:3690   */\n      0x00\n        /* \"#utility.yul\":3712:3717   */\n      dup2\n        /* \"#utility.yul\":3701:3717   */\n      swap1\n      pop\n        /* \"#utility.yul\":3646:3723   */\n      swap2\n      swap1\n      pop\n      jump\t// out\n        /* \"#utility.yul\":3729:3851   */\n    tag_215:\n        /* \"#utility.yul\":3802:3826   */\n      tag_276\n        /* \"#utility.yul\":3820:3825   */\n      dup2\n        /* \"#utility.yul\":3802:3826   */\n      tag_214\n      jump\t// in\n    tag_276:\n        /* \"#utility.yul\":3795:3800   */\n      dup2\n        /* \"#utility.yul\":3792:3827   */\n      eq\n        /* \"#utility.yul\":3782:3845   */\n      tag_277\n      jumpi\n        /* \"#utility.yul\":3841:3842   */\n      0x00\n        /* \"#utility.yul\":3838:3839   */\n      0x00\n        /* \"#utility.yul\":3831:3843   */\n      revert\n        /* \"#utility.yul\":3782:3845   */\n    tag_277:\n        /* \"#utility.yul\":3729:3851   */\n      pop\n      jump\t// out\n        /* \"#utility.yul\":3857:3996   */\n    tag_216:\n        /* \"#utility.yul\":3903:3908   */\n      0x00\n        /* \"#utility.yul\":3941:3947   */\n      dup2\n        /* \"#utility.yul\":3928:3948   */\n      calldataload\n        /* \"#utility.yul\":3919:3948   */\n      swap1\n      pop\n        /* \"#utility.yul\":3957:3990   */\n      tag_279\n        /* \"#utility.yul\":3984:3989   */\n      dup2\n        /* \"#utility.yul\":3957:3990   */\n      tag_215\n      jump\t// in\n    tag_279:\n        /* \"#utility.yul\":3857:3996   */\n      swap3\n      swap2\n      pop\n      pop\n      jump\t// out\n        /* \"#utility.yul\":4002:4476   */\n    tag_44:\n        /* \"#utility.yul\":4070:4076   */\n      0x00\n        /* \"#utility.yul\":4078:4084   */\n      0x00\n        /* \"#utility.yul\":4127:4129   */\n      0x40\n        /* \"#utility.yul\":4115:4124   */\n      dup4\n        /* \"#utility.yul\":4106:4113   */\n      dup6\n        /* \"#utility.yul\":4102:4125   */\n      sub\n        /* \"#utility.yul\":4098:4130   */\n      slt\n        /* \"#utility.yul\":4095:4214   */\n      iszero\n      tag_281\n      jumpi\n        /* \"#utility.yul\":4133:4212   */\n      tag_282\n      tag_205\n      jump\t// in\n    tag_282:\n        /* \"#utility.yul\":4095:4214   */\n    tag_281:\n        /* \"#utility.yul\":4253:4254   */\n      0x00\n        /* \"#utility.yul\":4278:4331   */\n      tag_283\n        /* \"#utility.yul\":4323:4330   */\n      dup6\n        /* \"#utility.yul\":4314:4320   */\n      dup3\n        /* \"#utility.yul\":4303:4312   */\n      dup7\n        /* \"#utility.yul\":4299:4321   */\n      add\n        /* \"#utility.yul\":4278:4331   */\n      tag_213\n      jump\t// in\n    tag_283:\n        /* \"#utility.yul\":4268:4331   */\n      swap3\n      pop\n        /* \"#utility.yul\":4224:4341   */\n      pop\n        /* \"#utility.yul\":4380:4382   */\n      0x20\n        /* \"#utility.yul\":4406:4459   */\n      tag_284\n        /* \"#utility.yul\":4451:4458   */\n      dup6\n        /* \"#utility.yul\":4442:4448   */\n      dup3\n        /* \"#utility.yul\":4431:4440   */\n      dup7\n        /* \"#utility.yul\":4427:4449   */\n      add\n        /* \"#utility.yul\":4406:4459   */\n      tag_216\n      jump\t// in\n    tag_284:\n        /* \"#utility.yul\":4396:4459   */\n      swap2\n      pop\n        /* \"#utility.yul\":4351:4469   */\n      pop\n        /* \"#utility.yul\":4002:4476   */\n      swap3\n      pop\n      swap3\n      swap1\n      pop\n      jump\t// out\n        /* \"#utility.yul\":4482:4600   */\n    tag_217:\n        /* \"#utility.yul\":4569:4593   */\n      tag_286\n        /* \"#utility.yul\":4587:4592   */\n      dup2\n        /* \"#utility.yul\":4569:4593   */\n      tag_214\n      jump\t// in\n    tag_286:\n        /* \"#utility.yul\":4564:4567   */\n      dup3\n        /* \"#utility.yul\":4557:4594   */\n      mstore\n        /* \"#utility.yul\":4482:4600   */\n      pop\n      pop\n      jump\t// out\n        /* \"#utility.yul\":4606:5048   */\n    tag_47:\n        /* \"#utility.yul\":4755:4759   */\n      0x00\n        /* \"#utility.yul\":4793:4795   */\n      0x60\n        /* \"#utility.yul\":4782:4791   */\n      dup3\n        /* \"#utility.yul\":4778:4796   */\n      add\n        /* \"#utility.yul\":4770:4796   */\n      swap1\n      pop\n        /* \"#utility.yul\":4806:4877   */\n      tag_288\n        /* \"#utility.yul\":4874:4875   */\n      0x00\n        /* \"#utility.yul\":4863:4872   */\n      dup4\n        /* \"#utility.yul\":4859:4876   */\n      add\n        /* \"#utility.yul\":4850:4856   */\n      dup7\n        /* \"#utility.yul\":4806:4877   */\n      tag_217\n      jump\t// in\n    tag_288:\n        /* \"#utility.yul\":4887:4959   */\n      tag_289\n        /* \"#utility.yul\":4955:4957   */\n      0x20\n        /* \"#utility.yul\":4944:4953   */\n      dup4\n        /* \"#utility.yul\":4940:4958   */\n      add\n        /* \"#utility.yul\":4931:4937   */\n      dup6\n        /* \"#utility.yul\":4887:4959   */\n      tag_217\n      jump\t// in\n    tag_289:\n        /* \"#utility.yul\":4969:5041   */\n      tag_290\n        /* \"#utility.yul\":5037:5039   */\n      0x40\n        /* \"#utility.yul\":5026:5035   */\n      dup4\n        /* \"#utility.yul\":5022:5040   */\n      add\n        /* \"#utility.yul\":5013:5019   */\n      dup5\n        /* \"#utility.yul\":4969:5041   */\n      tag_217\n      jump\t// in\n    tag_290:\n        /* \"#utility.yul\":4606:5048   */\n      swap5\n      swap4\n      pop\n      pop\n      pop\n      pop\n      jump\t// out\n        /* \"#utility.yul\":5054:5383   */\n    tag_51:\n        /* \"#utility.yul\":5113:5119   */\n      0x00\n        /* \"#utility.yul\":5162:5164   */\n      0x20\n        /* \"#utility.yul\":5150:5159   */\n      dup3\n        /* \"#utility.yul\":5141:5148   */\n      dup5\n        /* \"#utility.yul\":5137:5160   */\n      sub\n        /* \"#utility.yul\":5133:5165   */\n      slt\n        /* \"#utility.yul\":5130:5249   */\n      iszero\n      tag_292\n      jumpi\n        /* \"#utility.yul\":5168:5247   */\n      tag_293\n      tag_205\n      jump\t// in\n    tag_293:\n        /* \"#utility.yul\":5130:5249   */\n    tag_292:\n        /* \"#utility.yul\":5288:5289   */\n      0x00\n        /* \"#utility.yul\":5313:5366   */\n      tag_294\n        /* \"#utility.yul\":5358:5365   */\n      dup5\n        /* \"#utility.yul\":5349:5355   */\n      dup3\n        /* \"#utility.yul\":5338:5347   */\n      dup6\n        /* \"#utility.yul\":5334:5356   */\n      add\n        /* \"#utility.yul\":5313:5366   */\n      tag_213\n      jump\t// in\n    tag_294:\n        /* \"#utility.yul\":5303:5366   */\n      swap2\n      pop\n        /* \"#utility.yul\":5259:5376   */\n      pop\n        /* \"#utility.yul\":5054:5383   */\n      swap3\n      swap2\n      pop\n      pop\n      jump\t// out\n        /* \"#utility.yul\":5389:5611   */\n    tag_54:\n        /* \"#utility.yul\":5482:5486   */\n      0x00\n        /* \"#utility.yul\":5520:5522   */\n      0x20\n        /* \"#utility.yul\":5509:5518   */\n      dup3\n        /* \"#utility.yul\":5505:5523   */\n      add\n        /* \"#utility.yul\":5497:5523   */\n      swap1\n      pop\n        /* \"#utility.yul\":5533:5604   */\n      tag_296\n        /* \"#utility.yul\":5601:5602   */\n      0x00\n        /* \"#utility.yul\":5590:5599   */\n      dup4\n        /* \"#utility.yul\":5586:5603   */\n      add\n        /* \"#utility.yul\":5577:5583   */\n      dup5\n        /* \"#utility.yul\":5533:5604   */\n      tag_217\n      jump\t// in\n    tag_296:\n        /* \"#utility.yul\":5389:5611   */\n      swap3\n      swap2\n      pop\n      pop\n      jump\t// out\n        /* \"#utility.yul\":5617:5946   */\n    tag_63:\n        /* \"#utility.yul\":5676:5682   */\n      0x00\n        /* \"#utility.yul\":5725:5727   */\n      0x20\n        /* \"#utility.yul\":5713:5722   */\n      dup3\n        /* \"#utility.yul\":5704:5711   */\n      dup5\n        /* \"#utility.yul\":5700:5723   */\n      sub\n        /* \"#utility.yul\":5696:5728   */\n      slt\n        /* \"#utility.yul\":5693:5812   */\n      iszero\n      tag_298\n      jumpi\n        /* \"#utility.yul\":5731:5810   */\n      tag_299\n      tag_205\n      jump\t// in\n    tag_299:\n        /* \"#utility.yul\":5693:5812   */\n    tag_298:\n        /* \"#utility.yul\":5851:5852   */\n      0x00\n        /* \"#utility.yul\":5876:5929   */\n      tag_300\n        /* \"#utility.yul\":5921:5928   */\n      dup5\n        /* \"#utility.yul\":5912:5918   */\n      dup3\n        /* \"#utility.yul\":5901:5910   */\n      dup6\n        /* \"#utility.yul\":5897:5919   */\n      add\n        /* \"#utility.yul\":5876:5929   */\n      tag_216\n      jump\t// in\n    tag_300:\n        /* \"#utility.yul\":5866:5929   */\n      swap2\n      pop\n        /* \"#utility.yul\":5822:5939   */\n      pop\n        /* \"#utility.yul\":5617:5946   */\n      swap3\n      swap2\n      pop\n      pop\n      jump\t// out\n        /* \"#utility.yul\":5952:6070   */\n    tag_218:\n        /* \"#utility.yul\":6039:6063   */\n      tag_302\n        /* \"#utility.yul\":6057:6062   */\n      dup2\n        /* \"#utility.yul\":6039:6063   */\n      tag_211\n      jump\t// in\n    tag_302:\n        /* \"#utility.yul\":6034:6037   */\n      dup3\n        /* \"#utility.yul\":6027:6064   */\n      mstore\n        /* \"#utility.yul\":5952:6070   */\n      pop\n      pop\n      jump\t// out\n        /* \"#utility.yul\":6076:6185   */\n    tag_219:\n        /* \"#utility.yul\":6157:6178   */\n      tag_304\n        /* \"#utility.yul\":6172:6177   */\n      dup2\n        /* \"#utility.yul\":6157:6178   */\n      tag_207\n      jump\t// in\n    tag_304:\n        /* \"#utility.yul\":6152:6155   */\n      dup3\n        /* \"#utility.yul\":6145:6179   */\n      mstore\n        /* \"#utility.yul\":6076:6185   */\n      pop\n      pop\n      jump\t// out\n        /* \"#utility.yul\":6191:6621   */\n    tag_66:\n        /* \"#utility.yul\":6334:6338   */\n      0x00\n        /* \"#utility.yul\":6372:6374   */\n      0x60\n        /* \"#utility.yul\":6361:6370   */\n      dup3\n        /* \"#utility.yul\":6357:6375   */\n      add\n        /* \"#utility.yul\":6349:6375   */\n      swap1\n      pop\n        /* \"#utility.yul\":6385:6456   */\n      tag_306\n        /* \"#utility.yul\":6453:6454   */\n      0x00\n        /* \"#utility.yul\":6442:6451   */\n      dup4\n        /* \"#utility.yul\":6438:6455   */\n      add\n        /* \"#utility.yul\":6429:6435   */\n      dup7\n        /* \"#utility.yul\":6385:6456   */\n      tag_218\n      jump\t// in\n    tag_306:\n        /* \"#utility.yul\":6466:6538   */\n      tag_307\n        /* \"#utility.yul\":6534:6536   */\n      0x20\n        /* \"#utility.yul\":6523:6532   */\n      dup4\n        /* \"#utility.yul\":6519:6537   */\n      add\n        /* \"#utility.yul\":6510:6516   */\n      dup6\n        /* \"#utility.yul\":6466:6538   */\n      tag_217\n      jump\t// in\n    tag_307:\n        /* \"#utility.yul\":6548:6614   */\n      tag_308\n        /* \"#utility.yul\":6610:6612   */\n      0x40\n        /* \"#utility.yul\":6599:6608   */\n      dup4\n        /* \"#utility.yul\":6595:6613   */\n      add\n        /* \"#utility.yul\":6586:6592   */\n      dup5\n        /* \"#utility.yul\":6548:6614   */\n      tag_219\n      jump\t// in\n    tag_308:\n        /* \"#utility.yul\":6191:6621   */\n      swap5\n      swap4\n      pop\n      pop\n      pop\n      pop\n      jump\t// out\n        /* \"#utility.yul\":6627:6713   */\n    tag_220:\n        /* \"#utility.yul\":6662:6669   */\n      0x00\n        /* \"#utility.yul\":6702:6706   */\n      0xff\n        /* \"#utility.yul\":6695:6700   */\n      dup3\n        /* \"#utility.yul\":6691:6707   */\n      and\n        /* \"#utility.yul\":6680:6707   */\n      swap1\n      pop\n        /* \"#utility.yul\":6627:6713   */\n      swap2\n      swap1\n      pop\n      jump\t// out\n        /* \"#utility.yul\":6719:6837   */\n    tag_221:\n        /* \"#utility.yul\":6790:6812   */\n      tag_311\n        /* \"#utility.yul\":6806:6811   */\n      dup2\n        /* \"#utility.yul\":6790:6812   */\n      tag_220\n      jump\t// in\n    tag_311:\n        /* \"#utility.yul\":6783:6788   */\n      dup2\n        /* \"#utility.yul\":6780:6813   */\n      eq\n        /* \"#utility.yul\":6770:6831   */\n      tag_312\n      jumpi\n        /* \"#utility.yul\":6827:6828   */\n      0x00\n        /* \"#utility.yul\":6824:6825   */\n      0x00\n        /* \"#utility.yul\":6817:6829   */\n      revert\n        /* \"#utility.yul\":6770:6831   */\n    tag_312:\n        /* \"#utility.yul\":6719:6837   */\n      pop\n      jump\t// out\n        /* \"#utility.yul\":6843:6978   */\n    tag_222:\n        /* \"#utility.yul\":6887:6892   */\n      0x00\n        /* \"#utility.yul\":6925:6931   */\n      dup2\n        /* \"#utility.yul\":6912:6932   */\n      calldataload\n        /* \"#utility.yul\":6903:6932   */\n      swap1\n      pop\n        /* \"#utility.yul\":6941:6972   */\n      tag_314\n        /* \"#utility.yul\":6966:6971   */\n      dup2\n        /* \"#utility.yul\":6941:6972   */\n      tag_221\n      jump\t// in\n    tag_314:\n        /* \"#utility.yul\":6843:6978   */\n      swap3\n      swap2\n      pop\n      pop\n      jump\t// out\n        /* \"#utility.yul\":6984:7309   */\n    tag_81:\n        /* \"#utility.yul\":7041:7047   */\n      0x00\n        /* \"#utility.yul\":7090:7092   */\n      0x20\n        /* \"#utility.yul\":7078:7087   */\n      dup3\n        /* \"#utility.yul\":7069:7076   */\n      dup5\n        /* \"#utility.yul\":7065:7088   */\n      sub\n        /* \"#utility.yul\":7061:7093   */\n      slt\n        /* \"#utility.yul\":7058:7177   */\n      iszero\n      tag_316\n      jumpi\n        /* \"#utility.yul\":7096:7175   */\n      tag_317\n      tag_205\n      jump\t// in\n    tag_317:\n        /* \"#utility.yul\":7058:7177   */\n    tag_316:\n        /* \"#utility.yul\":7216:7217   */\n      0x00\n        /* \"#utility.yul\":7241:7292   */\n      tag_318\n        /* \"#utility.yul\":7284:7291   */\n      dup5\n        /* \"#utility.yul\":7275:7281   */\n      dup3\n        /* \"#utility.yul\":7264:7273   */\n      dup6\n        /* \"#utility.yul\":7260:7282   */\n      add\n        /* \"#utility.yul\":7241:7292   */\n      tag_222\n      jump\t// in\n    tag_318:\n        /* \"#utility.yul\":7231:7292   */\n      swap2\n      pop\n        /* \"#utility.yul\":7187:7302   */\n      pop\n        /* \"#utility.yul\":6984:7309   */\n      swap3\n      swap2\n      pop\n      pop\n      jump\t// out\n        /* \"#utility.yul\":7315:7537   */\n    tag_96:\n        /* \"#utility.yul\":7408:7412   */\n      0x00\n        /* \"#utility.yul\":7446:7448   */\n      0x20\n        /* \"#utility.yul\":7435:7444   */\n      dup3\n        /* \"#utility.yul\":7431:7449   */\n      add\n        /* \"#utility.yul\":7423:7449   */\n      swap1\n      pop\n        /* \"#utility.yul\":7459:7530   */\n      tag_320\n        /* \"#utility.yul\":7527:7528   */\n      0x00\n        /* \"#utility.yul\":7516:7525   */\n      dup4\n        /* \"#utility.yul\":7512:7529   */\n      add\n        /* \"#utility.yul\":7503:7509   */\n      dup5\n        /* \"#utility.yul\":7459:7530   */\n      tag_218\n      jump\t// in\n    tag_320:\n        /* \"#utility.yul\":7315:7537   */\n      swap3\n      swap2\n      pop\n      pop\n      jump\t// out\n        /* \"#utility.yul\":7543:8013   */\n    tag_105:\n        /* \"#utility.yul\":7609:7615   */\n      0x00\n        /* \"#utility.yul\":7617:7623   */\n      0x00\n        /* \"#utility.yul\":7666:7668   */\n      0x40\n        /* \"#utility.yul\":7654:7663   */\n      dup4\n        /* \"#utility.yul\":7645:7652   */\n      dup6\n        /* \"#utility.yul\":7641:7664   */\n      sub\n        /* \"#utility.yul\":7637:7669   */\n      slt\n        /* \"#utility.yul\":7634:7753   */\n      iszero\n      tag_322\n      jumpi\n        /* \"#utility.yul\":7672:7751   */\n      tag_323\n      tag_205\n      jump\t// in\n    tag_323:\n        /* \"#utility.yul\":7634:7753   */\n    tag_322:\n        /* \"#utility.yul\":7792:7793   */\n      0x00\n        /* \"#utility.yul\":7817:7868   */\n      tag_324\n        /* \"#utility.yul\":7860:7867   */\n      dup6\n        /* \"#utility.yul\":7851:7857   */\n      dup3\n        /* \"#utility.yul\":7840:7849   */\n      dup7\n        /* \"#utility.yul\":7836:7858   */\n      add\n        /* \"#utility.yul\":7817:7868   */\n      tag_222\n      jump\t// in\n    tag_324:\n        /* \"#utility.yul\":7807:7868   */\n      swap3\n      pop\n        /* \"#utility.yul\":7763:7878   */\n      pop\n        /* \"#utility.yul\":7917:7919   */\n      0x20\n        /* \"#utility.yul\":7943:7996   */\n      tag_325\n        /* \"#utility.yul\":7988:7995   */\n      dup6\n        /* \"#utility.yul\":7979:7985   */\n      dup3\n        /* \"#utility.yul\":7968:7977   */\n      dup7\n        /* \"#utility.yul\":7964:7986   */\n      add\n        /* \"#utility.yul\":7943:7996   */\n      tag_216\n      jump\t// in\n    tag_325:\n        /* \"#utility.yul\":7933:7996   */\n      swap2\n      pop\n        /* \"#utility.yul\":7888:8006   */\n      pop\n        /* \"#utility.yul\":7543:8013   */\n      swap3\n      pop\n      swap3\n      swap1\n      pop\n      jump\t// out\n        /* \"#utility.yul\":8019:8131   */\n    tag_223:\n        /* \"#utility.yul\":8102:8124   */\n      tag_327\n        /* \"#utility.yul\":8118:8123   */\n      dup2\n        /* \"#utility.yul\":8102:8124   */\n      tag_220\n      jump\t// in\n    tag_327:\n        /* \"#utility.yul\":8097:8100   */\n      dup3\n        /* \"#utility.yul\":8090:8125   */\n      mstore\n        /* \"#utility.yul\":8019:8131   */\n      pop\n      pop\n      jump\t// out\n        /* \"#utility.yul\":8137:8351   */\n    tag_111:\n        /* \"#utility.yul\":8226:8230   */\n      0x00\n        /* \"#utility.yul\":8264:8266   */\n      0x20\n        /* \"#utility.yul\":8253:8262   */\n      dup3\n        /* \"#utility.yul\":8249:8267   */\n      add\n        /* \"#utility.yul\":8241:8267   */\n      swap1\n      pop\n        /* \"#utility.yul\":8277:8344   */\n      tag_329\n        /* \"#utility.yul\":8341:8342   */\n      0x00\n        /* \"#utility.yul\":8330:8339   */\n      dup4\n        /* \"#utility.yul\":8326:8343   */\n      add\n        /* \"#utility.yul\":8317:8323   */\n      dup5\n        /* \"#utility.yul\":8277:8344   */\n      tag_223\n      jump\t// in\n    tag_329:\n        /* \"#utility.yul\":8137:8351   */\n      swap3\n      swap2\n      pop\n      pop\n      jump\t// out\n        /* \"#utility.yul\":8357:8461   */\n    tag_224:\n        /* \"#utility.yul\":8402:8409   */\n      0x00\n        /* \"#utility.yul\":8431:8455   */\n      tag_331\n        /* \"#utility.yul\":8449:8454   */\n      dup3\n        /* \"#utility.yul\":8431:8455   */\n      tag_210\n      jump\t// in\n    tag_331:\n        /* \"#utility.yul\":8420:8455   */\n      swap1\n      pop\n        /* \"#utility.yul\":8357:8461   */\n      swap2\n      swap1\n      pop\n      jump\t// out\n        /* \"#utility.yul\":8467:8605   */\n    tag_225:\n        /* \"#utility.yul\":8548:8580   */\n      tag_333\n        /* \"#utility.yul\":8574:8579   */\n      dup2\n        /* \"#utility.yul\":8548:8580   */\n      tag_224\n      jump\t// in\n    tag_333:\n        /* \"#utility.yul\":8541:8546   */\n      dup2\n        /* \"#utility.yul\":8538:8581   */\n      eq\n        /* \"#utility.yul\":8528:8599   */\n      tag_334\n      jumpi\n        /* \"#utility.yul\":8595:8596   */\n      0x00\n        /* \"#utility.yul\":8592:8593   */\n      0x00\n        /* \"#utility.yul\":8585:8597   */\n      revert\n        /* \"#utility.yul\":8528:8599   */\n    tag_334:\n        /* \"#utility.yul\":8467:8605   */\n      pop\n      jump\t// out\n        /* \"#utility.yul\":8611:8766   */\n    tag_226:\n        /* \"#utility.yul\":8665:8670   */\n      0x00\n        /* \"#utility.yul\":8703:8709   */\n      dup2\n        /* \"#utility.yul\":8690:8710   */\n      calldataload\n        /* \"#utility.yul\":8681:8710   */\n      swap1\n      pop\n        /* \"#utility.yul\":8719:8760   */\n      tag_336\n        /* \"#utility.yul\":8754:8759   */\n      dup2\n        /* \"#utility.yul\":8719:8760   */\n      tag_225\n      jump\t// in\n    tag_336:\n        /* \"#utility.yul\":8611:8766   */\n      swap3\n      swap2\n      pop\n      pop\n      jump\t// out\n        /* \"#utility.yul\":8772:9117   */\n    tag_123:\n        /* \"#utility.yul\":8839:8845   */\n      0x00\n        /* \"#utility.yul\":8888:8890   */\n      0x20\n        /* \"#utility.yul\":8876:8885   */\n      dup3\n        /* \"#utility.yul\":8867:8874   */\n      dup5\n        /* \"#utility.yul\":8863:8886   */\n      sub\n        /* \"#utility.yul\":8859:8891   */\n      slt\n        /* \"#utility.yul\":8856:8975   */\n      iszero\n      tag_338\n      jumpi\n        /* \"#utility.yul\":8894:8973   */\n      tag_339\n      tag_205\n      jump\t// in\n    tag_339:\n        /* \"#utility.yul\":8856:8975   */\n    tag_338:\n        /* \"#utility.yul\":9014:9015   */\n      0x00\n        /* \"#utility.yul\":9039:9100   */\n      tag_340\n        /* \"#utility.yul\":9092:9099   */\n      dup5\n        /* \"#utility.yul\":9083:9089   */\n      dup3\n        /* \"#utility.yul\":9072:9081   */\n      dup6\n        /* \"#utility.yul\":9068:9090   */\n      add\n        /* \"#utility.yul\":9039:9100   */\n      tag_226\n      jump\t// in\n    tag_340:\n        /* \"#utility.yul\":9029:9100   */\n      swap2\n      pop\n        /* \"#utility.yul\":8985:9110   */\n      pop\n        /* \"#utility.yul\":8772:9117   */\n      swap3\n      swap2\n      pop\n      pop\n      jump\t// out\n        /* \"#utility.yul\":9123:9288   */\n    tag_227:\n        /* \"#utility.yul\":9263:9280   */\n      0x436f6e7472616374205061757365640000000000000000000000000000000000\n        /* \"#utility.yul\":9259:9260   */\n      0x00\n        /* \"#utility.yul\":9251:9257   */\n      dup3\n        /* \"#utility.yul\":9247:9261   */\n      add\n        /* \"#utility.yul\":9240:9281   */\n      mstore\n        /* \"#utility.yul\":9123:9288   */\n      pop\n      jump\t// out\n        /* \"#utility.yul\":9294:9660   */\n    tag_228:\n        /* \"#utility.yul\":9436:9439   */\n      0x00\n        /* \"#utility.yul\":9457:9524   */\n      tag_343\n        /* \"#utility.yul\":9521:9523   */\n      0x0f\n        /* \"#utility.yul\":9516:9519   */\n      dup4\n        /* \"#utility.yul\":9457:9524   */\n      tag_199\n      jump\t// in\n    tag_343:\n        /* \"#utility.yul\":9450:9524   */\n      swap2\n      pop\n        /* \"#utility.yul\":9533:9626   */\n      tag_344\n        /* \"#utility.yul\":9622:9625   */\n      dup3\n        /* \"#utility.yul\":9533:9626   */\n      tag_227\n      jump\t// in\n    tag_344:\n        /* \"#utility.yul\":9651:9653   */\n      0x20\n        /* \"#utility.yul\":9646:9649   */\n      dup3\n        /* \"#utility.yul\":9642:9654   */\n      add\n        /* \"#utility.yul\":9635:9654   */\n      swap1\n      pop\n        /* \"#utility.yul\":9294:9660   */\n      swap2\n      swap1\n      pop\n      jump\t// out\n        /* \"#utility.yul\":9666:10085   */\n    tag_133:\n        /* \"#utility.yul\":9832:9836   */\n      0x00\n        /* \"#utility.yul\":9870:9872   */\n      0x20\n        /* \"#utility.yul\":9859:9868   */\n      dup3\n        /* \"#utility.yul\":9855:9873   */\n      add\n        /* \"#utility.yul\":9847:9873   */\n      swap1\n      pop\n        /* \"#utility.yul\":9919:9928   */\n      dup2\n        /* \"#utility.yul\":9913:9917   */\n      dup2\n        /* \"#utility.yul\":9909:9929   */\n      sub\n        /* \"#utility.yul\":9905:9906   */\n      0x00\n        /* \"#utility.yul\":9894:9903   */\n      dup4\n        /* \"#utility.yul\":9890:9907   */\n      add\n        /* \"#utility.yul\":9883:9930   */\n      mstore\n        /* \"#utility.yul\":9947:10078   */\n      tag_346\n        /* \"#utility.yul\":10073:10077   */\n      dup2\n        /* \"#utility.yul\":9947:10078   */\n      tag_228\n      jump\t// in\n    tag_346:\n        /* \"#utility.yul\":9939:10078   */\n      swap1\n      pop\n        /* \"#utility.yul\":9666:10085   */\n      swap2\n      swap1\n      pop\n      jump\t// out\n        /* \"#utility.yul\":10091:10263   */\n    tag_229:\n        /* \"#utility.yul\":10231:10255   */\n      0x4e6f205265656e7472616e63792c706c73207761697400000000000000000000\n        /* \"#utility.yul\":10227:10228   */\n      0x00\n        /* \"#utility.yul\":10219:10225   */\n      dup3\n        /* \"#utility.yul\":10215:10229   */\n      add\n        /* \"#utility.yul\":10208:10256   */\n      mstore\n        /* \"#utility.yul\":10091:10263   */\n      pop\n      jump\t// out\n        /* \"#utility.yul\":10269:10635   */\n    tag_230:\n        /* \"#utility.yul\":10411:10414   */\n      0x00\n        /* \"#utility.yul\":10432:10499   */\n      tag_349\n        /* \"#utility.yul\":10496:10498   */\n      0x16\n        /* \"#utility.yul\":10491:10494   */\n      dup4\n        /* \"#utility.yul\":10432:10499   */\n      tag_199\n      jump\t// in\n    tag_349:\n        /* \"#utility.yul\":10425:10499   */\n      swap2\n      pop\n        /* \"#utility.yul\":10508:10601   */\n      tag_350\n        /* \"#utility.yul\":10597:10600   */\n      dup3\n        /* \"#utility.yul\":10508:10601   */\n      tag_229\n      jump\t// in\n    tag_350:\n        /* \"#utility.yul\":10626:10628   */\n      0x20\n        /* \"#utility.yul\":10621:10624   */\n      dup3\n        /* \"#utility.yul\":10617:10629   */\n      add\n        /* \"#utility.yul\":10610:10629   */\n      swap1\n      pop\n        /* \"#utility.yul\":10269:10635   */\n      swap2\n      swap1\n      pop\n      jump\t// out\n        /* \"#utility.yul\":10641:11060   */\n    tag_137:\n        /* \"#utility.yul\":10807:10811   */\n      0x00\n        /* \"#utility.yul\":10845:10847   */\n      0x20\n        /* \"#utility.yul\":10834:10843   */\n      dup3\n        /* \"#utility.yul\":10830:10848   */\n      add\n        /* \"#utility.yul\":10822:10848   */\n      swap1\n      pop\n        /* \"#utility.yul\":10894:10903   */\n      dup2\n        /* \"#utility.yul\":10888:10892   */\n      dup2\n        /* \"#utility.yul\":10884:10904   */\n      sub\n        /* \"#utility.yul\":10880:10881   */\n      0x00\n        /* \"#utility.yul\":10869:10878   */\n      dup4\n        /* \"#utility.yul\":10865:10882   */\n      add\n        /* \"#utility.yul\":10858:10905   */\n      mstore\n        /* \"#utility.yul\":10922:11053   */\n      tag_352\n        /* \"#utility.yul\":11048:11052   */\n      dup2\n        /* \"#utility.yul\":10922:11053   */\n      tag_230\n      jump\t// in\n    tag_352:\n        /* \"#utility.yul\":10914:11053   */\n      swap1\n      pop\n        /* \"#utility.yul\":10641:11060   */\n      swap2\n      swap1\n      pop\n      jump\t// out\n        /* \"#utility.yul\":11066:11246   */\n    tag_231:\n        /* \"#utility.yul\":11114:11191   */\n      0x4e487b7100000000000000000000000000000000000000000000000000000000\n        /* \"#utility.yul\":11111:11112   */\n      0x00\n        /* \"#utility.yul\":11104:11192   */\n      mstore\n        /* \"#utility.yul\":11211:11215   */\n      0x11\n        /* \"#utility.yul\":11208:11209   */\n      0x04\n        /* \"#utility.yul\":11201:11216   */\n      mstore\n        /* \"#utility.yul\":11235:11239   */\n      0x24\n        /* \"#utility.yul\":11232:11233   */\n      0x00\n        /* \"#utility.yul\":11225:11240   */\n      revert\n        /* \"#utility.yul\":11252:11662   */\n    tag_141:\n        /* \"#utility.yul\":11292:11299   */\n      0x00\n        /* \"#utility.yul\":11315:11335   */\n      tag_355\n        /* \"#utility.yul\":11333:11334   */\n      dup3\n        /* \"#utility.yul\":11315:11335   */\n      tag_214\n      jump\t// in\n    tag_355:\n        /* \"#utility.yul\":11310:11335   */\n      swap2\n      pop\n        /* \"#utility.yul\":11349:11369   */\n      tag_356\n        /* \"#utility.yul\":11367:11368   */\n      dup4\n        /* \"#utility.yul\":11349:11369   */\n      tag_214\n      jump\t// in\n    tag_356:\n        /* \"#utility.yul\":11344:11369   */\n      swap3\n      pop\n        /* \"#utility.yul\":11404:11405   */\n      dup3\n        /* \"#utility.yul\":11401:11402   */\n      dup3\n        /* \"#utility.yul\":11397:11406   */\n      mul\n        /* \"#utility.yul\":11426:11456   */\n      tag_357\n        /* \"#utility.yul\":11444:11455   */\n      dup2\n        /* \"#utility.yul\":11426:11456   */\n      tag_214\n      jump\t// in\n    tag_357:\n        /* \"#utility.yul\":11415:11456   */\n      swap2\n      pop\n        /* \"#utility.yul\":11605:11606   */\n      dup3\n        /* \"#utility.yul\":11596:11603   */\n      dup3\n        /* \"#utility.yul\":11592:11607   */\n      div\n        /* \"#utility.yul\":11589:11590   */\n      dup5\n        /* \"#utility.yul\":11586:11608   */\n      eq\n        /* \"#utility.yul\":11566:11567   */\n      dup4\n        /* \"#utility.yul\":11559:11568   */\n      iszero\n        /* \"#utility.yul\":11539:11622   */\n      or\n        /* \"#utility.yul\":11516:11655   */\n      tag_358\n      jumpi\n        /* \"#utility.yul\":11635:11653   */\n      tag_359\n      tag_231\n      jump\t// in\n    tag_359:\n        /* \"#utility.yul\":11516:11655   */\n    tag_358:\n        /* \"#utility.yul\":11300:11662   */\n      pop\n        /* \"#utility.yul\":11252:11662   */\n      swap3\n      swap2\n      pop\n      pop\n      jump\t// out\n        /* \"#utility.yul\":11668:11848   */\n    tag_232:\n        /* \"#utility.yul\":11716:11793   */\n      0x4e487b7100000000000000000000000000000000000000000000000000000000\n        /* \"#utility.yul\":11713:11714   */\n      0x00\n        /* \"#utility.yul\":11706:11794   */\n      mstore\n        /* \"#utility.yul\":11813:11817   */\n      0x12\n        /* \"#utility.yul\":11810:11811   */\n      0x04\n        /* \"#utility.yul\":11803:11818   */\n      mstore\n        /* \"#utility.yul\":11837:11841   */\n      0x24\n        /* \"#utility.yul\":11834:11835   */\n      0x00\n        /* \"#utility.yul\":11827:11842   */\n      revert\n        /* \"#utility.yul\":11854:12039   */\n    tag_143:\n        /* \"#utility.yul\":11894:11895   */\n      0x00\n        /* \"#utility.yul\":11911:11931   */\n      tag_362\n        /* \"#utility.yul\":11929:11930   */\n      dup3\n        /* \"#utility.yul\":11911:11931   */\n      tag_214\n      jump\t// in\n    tag_362:\n        /* \"#utility.yul\":11906:11931   */\n      swap2\n      pop\n        /* \"#utility.yul\":11945:11965   */\n      tag_363\n        /* \"#utility.yul\":11963:11964   */\n      dup4\n        /* \"#utility.yul\":11945:11965   */\n      tag_214\n      jump\t// in\n    tag_363:\n        /* \"#utility.yul\":11940:11965   */\n      swap3\n      pop\n        /* \"#utility.yul\":11984:11985   */\n      dup3\n        /* \"#utility.yul\":11974:12009   */\n      tag_364\n      jumpi\n        /* \"#utility.yul\":11989:12007   */\n      tag_365\n      tag_232\n      jump\t// in\n    tag_365:\n        /* \"#utility.yul\":11974:12009   */\n    tag_364:\n        /* \"#utility.yul\":12031:12032   */\n      dup3\n        /* \"#utility.yul\":12028:12029   */\n      dup3\n        /* \"#utility.yul\":12024:12033   */\n      div\n        /* \"#utility.yul\":12019:12033   */\n      swap1\n      pop\n        /* \"#utility.yul\":11854:12039   */\n      swap3\n      swap2\n      pop\n      pop\n      jump\t// out\n        /* \"#utility.yul\":12045:12278   */\n    tag_150:\n        /* \"#utility.yul\":12084:12087   */\n      0x00\n        /* \"#utility.yul\":12107:12131   */\n      tag_367\n        /* \"#utility.yul\":12125:12130   */\n      dup3\n        /* \"#utility.yul\":12107:12131   */\n      tag_214\n      jump\t// in\n    tag_367:\n        /* \"#utility.yul\":12098:12131   */\n      swap2\n      pop\n        /* \"#utility.yul\":12153:12219   */\n      0xffffffffffffffffffffffffffffffffffffffffffffffffffffffffffffffff\n        /* \"#utility.yul\":12146:12151   */\n      dup3\n        /* \"#utility.yul\":12143:12220   */\n      sub\n        /* \"#utility.yul\":12140:12243   */\n      tag_368\n      jumpi\n        /* \"#utility.yul\":12223:12241   */\n      tag_369\n      tag_231\n      jump\t// in\n    tag_369:\n        /* \"#utility.yul\":12140:12243   */\n    tag_368:\n        /* \"#utility.yul\":12270:12271   */\n      0x01\n        /* \"#utility.yul\":12263:12268   */\n      dup3\n        /* \"#utility.yul\":12259:12272   */\n      add\n        /* \"#utility.yul\":12252:12272   */\n      swap1\n      pop\n        /* \"#utility.yul\":12045:12278   */\n      swap2\n      swap1\n      pop\n      jump\t// out\n        /* \"#utility.yul\":12284:12464   */\n    tag_156:\n        /* \"#utility.yul\":12332:12409   */\n      0x4e487b7100000000000000000000000000000000000000000000000000000000\n        /* \"#utility.yul\":12329:12330   */\n      0x00\n        /* \"#utility.yul\":12322:12410   */\n      mstore\n        /* \"#utility.yul\":12429:12433   */\n      0x32\n        /* \"#utility.yul\":12426:12427   */\n      0x04\n        /* \"#utility.yul\":12419:12434   */\n      mstore\n        /* \"#utility.yul\":12453:12457   */\n      0x24\n        /* \"#utility.yul\":12450:12451   */\n      0x00\n        /* \"#utility.yul\":12443:12458   */\n      revert\n        /* \"#utility.yul\":12470:12630   */\n    tag_233:\n        /* \"#utility.yul\":12610:12622   */\n      0x4f6e6c79206f776e657200000000000000000000000000000000000000000000\n        /* \"#utility.yul\":12606:12607   */\n      0x00\n        /* \"#utility.yul\":12598:12604   */\n      dup3\n        /* \"#utility.yul\":12594:12608   */\n      add\n        /* \"#utility.yul\":12587:12623   */\n      mstore\n        /* \"#utility.yul\":12470:12630   */\n      pop\n      jump\t// out\n        /* \"#utility.yul\":12636:13002   */\n    tag_234:\n        /* \"#utility.yul\":12778:12781   */\n      0x00\n        /* \"#utility.yul\":12799:12866   */\n      tag_373\n        /* \"#utility.yul\":12863:12865   */\n      0x0a\n        /* \"#utility.yul\":12858:12861   */\n      dup4\n        /* \"#utility.yul\":12799:12866   */\n      tag_199\n      jump\t// in\n    tag_373:\n        /* \"#utility.yul\":12792:12866   */\n      swap2\n      pop\n        /* \"#utility.yul\":12875:12968   */\n      tag_374\n        /* \"#utility.yul\":12964:12967   */\n      dup3\n        /* \"#utility.yul\":12875:12968   */\n      tag_233\n      jump\t// in\n    tag_374:\n        /* \"#utility.yul\":12993:12995   */\n      0x20\n        /* \"#utility.yul\":12988:12991   */\n      dup3\n        /* \"#utility.yul\":12984:12996   */\n      add\n        /* \"#utility.yul\":12977:12996   */\n      swap1\n      pop\n        /* \"#utility.yul\":12636:13002   */\n      swap2\n      swap1\n      pop\n      jump\t// out\n        /* \"#utility.yul\":13008:13427   */\n    tag_166:\n        /* \"#utility.yul\":13174:13178   */\n      0x00\n        /* \"#utility.yul\":13212:13214   */\n      0x20\n        /* \"#utility.yul\":13201:13210   */\n      dup3\n        /* \"#utility.yul\":13197:13215   */\n      add\n        /* \"#utility.yul\":13189:13215   */\n      swap1\n      pop\n        /* \"#utility.yul\":13261:13270   */\n      dup2\n        /* \"#utility.yul\":13255:13259   */\n      dup2\n        /* \"#utility.yul\":13251:13271   */\n      sub\n        /* \"#utility.yul\":13247:13248   */\n      0x00\n        /* \"#utility.yul\":13236:13245   */\n      dup4\n        /* \"#utility.yul\":13232:13249   */\n      add\n        /* \"#utility.yul\":13225:13272   */\n      mstore\n        /* \"#utility.yul\":13289:13420   */\n      tag_376\n        /* \"#utility.yul\":13415:13419   */\n      dup2\n        /* \"#utility.yul\":13289:13420   */\n      tag_234\n      jump\t// in\n    tag_376:\n        /* \"#utility.yul\":13281:13420   */\n      swap1\n      pop\n        /* \"#utility.yul\":13008:13427   */\n      swap2\n      swap1\n      pop\n      jump\t// out\n        /* \"#utility.yul\":13433:13598   */\n    tag_235:\n        /* \"#utility.yul\":13573:13590   */\n      0x496e76616c696420757365722049440000000000000000000000000000000000\n        /* \"#utility.yul\":13569:13570   */\n      0x00\n        /* \"#utility.yul\":13561:13567   */\n      dup3\n        /* \"#utility.yul\":13557:13571   */\n      add\n        /* \"#utility.yul\":13550:13591   */\n      mstore\n        /* \"#utility.yul\":13433:13598   */\n      pop\n      jump\t// out\n        /* \"#utility.yul\":13604:13970   */\n    tag_236:\n        /* \"#utility.yul\":13746:13749   */\n      0x00\n        /* \"#utility.yul\":13767:13834   */\n      tag_379\n        /* \"#utility.yul\":13831:13833   */\n      0x0f\n        /* \"#utility.yul\":13826:13829   */\n      dup4\n        /* \"#utility.yul\":13767:13834   */\n      tag_199\n      jump\t// in\n    tag_379:\n        /* \"#utility.yul\":13760:13834   */\n      swap2\n      pop\n        /* \"#utility.yul\":13843:13936   */\n      tag_380\n        /* \"#utility.yul\":13932:13935   */\n      dup3\n        /* \"#utility.yul\":13843:13936   */\n      tag_235\n      jump\t// in\n    tag_380:\n        /* \"#utility.yul\":13961:13963   */\n      0x20\n        /* \"#utility.yul\":13956:13959   */\n      dup3\n        /* \"#utility.yul\":13952:13964   */\n      add\n        /* \"#utility.yul\":13945:13964   */\n      swap1\n      pop\n        /* \"#utility.yul\":13604:13970   */\n      swap2\n      swap1\n      pop\n      jump\t// out\n        /* \"#utility.yul\":13976:14395   */\n    tag_179:\n        /* \"#utility.yul\":14142:14146   */\n      0x00\n        /* \"#utility.yul\":14180:14182   */\n      0x20\n        /* \"#utility.yul\":14169:14178   */\n      dup3\n        /* \"#utility.yul\":14165:14183   */\n      add\n        /* \"#utility.yul\":14157:14183   */\n      swap1\n      pop\n        /* \"#utility.yul\":14229:14238   */\n      dup2\n        /* \"#utility.yul\":14223:14227   */\n      dup2\n        /* \"#utility.yul\":14219:14239   */\n      sub\n        /* \"#utility.yul\":14215:14216   */\n      0x00\n        /* \"#utility.yul\":14204:14213   */\n      dup4\n        /* \"#utility.yul\":14200:14217   */\n      add\n        /* \"#utility.yul\":14193:14240   */\n      mstore\n        /* \"#utility.yul\":14257:14388   */\n      tag_382\n        /* \"#utility.yul\":14383:14387   */\n      dup2\n        /* \"#utility.yul\":14257:14388   */\n      tag_236\n      jump\t// in\n    tag_382:\n        /* \"#utility.yul\":14249:14388   */\n      swap1\n      pop\n        /* \"#utility.yul\":13976:14395   */\n      swap2\n      swap1\n      pop\n      jump\t// out\n        /* \"#utility.yul\":14401:14592   */\n    tag_181:\n        /* \"#utility.yul\":14441:14444   */\n      0x00\n        /* \"#utility.yul\":14460:14480   */\n      tag_384\n        /* \"#utility.yul\":14478:14479   */\n      dup3\n        /* \"#utility.yul\":14460:14480   */\n      tag_214\n      jump\t// in\n    tag_384:\n        /* \"#utility.yul\":14455:14480   */\n      swap2\n      pop\n        /* \"#utility.yul\":14494:14514   */\n      tag_385\n        /* \"#utility.yul\":14512:14513   */\n      dup4\n        /* \"#utility.yul\":14494:14514   */\n      tag_214\n      jump\t// in\n    tag_385:\n        /* \"#utility.yul\":14489:14514   */\n      swap3\n      pop\n        /* \"#utility.yul\":14537:14538   */\n      dup3\n        /* \"#utility.yul\":14534:14535   */\n      dup3\n        /* \"#utility.yul\":14530:14539   */\n      add\n        /* \"#utility.yul\":14523:14539   */\n      swap1\n      pop\n        /* \"#utility.yul\":14558:14561   */\n      dup1\n        /* \"#utility.yul\":14555:14556   */\n      dup3\n        /* \"#utility.yul\":14552:14562   */\n      gt\n        /* \"#utility.yul\":14549:14585   */\n      iszero\n      tag_386\n      jumpi\n        /* \"#utility.yul\":14565:14583   */\n      tag_387\n      tag_231\n      jump\t// in\n    tag_387:\n        /* \"#utility.yul\":14549:14585   */\n    tag_386:\n        /* \"#utility.yul\":14401:14592   */\n      swap3\n      swap2\n      pop\n      pop\n      jump\t// out\n        /* \"#utility.yul\":14598:14763   */\n    tag_237:\n        /* \"#utility.yul\":14738:14755   */\n      0x496e76616c696420616464726573730000000000000000000000000000000000\n        /* \"#utility.yul\":14734:14735   */\n      0x00\n        /* \"#utility.yul\":14726:14732   */\n      dup3\n        /* \"#utility.yul\":14722:14736   */\n      add\n        /* \"#utility.yul\":14715:14756   */\n      mstore\n        /* \"#utility.yul\":14598:14763   */\n      pop\n      jump\t// out\n        /* \"#utility.yul\":14769:15135   */\n    tag_238:\n        /* \"#utility.yul\":14911:14914   */\n      0x00\n        /* \"#utility.yul\":14932:14999   */\n      tag_390\n        /* \"#utility.yul\":14996:14998   */\n      0x0f\n        /* \"#utility.yul\":14991:14994   */\n      dup4\n        /* \"#utility.yul\":14932:14999   */\n      tag_199\n      jump\t// in\n    tag_390:\n        /* \"#utility.yul\":14925:14999   */\n      swap2\n      pop\n        /* \"#utility.yul\":15008:15101   */\n      tag_391\n        /* \"#utility.yul\":15097:15100   */\n      dup3\n        /* \"#utility.yul\":15008:15101   */\n      tag_237\n      jump\t// in\n    tag_391:\n        /* \"#utility.yul\":15126:15128   */\n      0x20\n        /* \"#utility.yul\":15121:15124   */\n      dup3\n        /* \"#utility.yul\":15117:15129   */\n      add\n        /* \"#utility.yul\":15110:15129   */\n      swap1\n      pop\n        /* \"#utility.yul\":14769:15135   */\n      swap2\n      swap1\n      pop\n      jump\t// out\n        /* \"#utility.yul\":15141:15560   */\n    tag_188:\n        /* \"#utility.yul\":15307:15311   */\n      0x00\n        /* \"#utility.yul\":15345:15347   */\n      0x20\n        /* \"#utility.yul\":15334:15343   */\n      dup3\n        /* \"#utility.yul\":15330:15348   */\n      add\n        /* \"#utility.yul\":15322:15348   */\n      swap1\n      pop\n        /* \"#utility.yul\":15394:15403   */\n      dup2\n        /* \"#utility.yul\":15388:15392   */\n      dup2\n        /* \"#utility.yul\":15384:15404   */\n      sub\n        /* \"#utility.yul\":15380:15381   */\n      0x00\n        /* \"#utility.yul\":15369:15378   */\n      dup4\n        /* \"#utility.yul\":15365:15382   */\n      add\n        /* \"#utility.yul\":15358:15405   */\n      mstore\n        /* \"#utility.yul\":15422:15553   */\n      tag_393\n        /* \"#utility.yul\":15548:15552   */\n      dup2\n        /* \"#utility.yul\":15422:15553   */\n      tag_238\n      jump\t// in\n    tag_393:\n        /* \"#utility.yul\":15414:15553   */\n      swap1\n      pop\n        /* \"#utility.yul\":15141:15560   */\n      swap2\n      swap1\n      pop\n      jump\t// out\n\n    auxdata: 0xa264697066735822122076f53626083560afde1f4de8e5c550ad9d393d4ed8085ec0416f53df16eca39064736f6c634300081e0033\n}\n",
				"bytecode": {
					"linkReferences": {},
					"object": "608060405234801561000f575f5ffd5b50604051611a2a380380611a2a8339818101604052810190610031919061012e565b335f5f6101000a81548173ffffffffffffffffffffffffffffffffffffffff021916908373ffffffffffffffffffffffffffffffffffffffff1602179055505f5f60156101000a81548160ff021916908360ff1602179055508060025f6101000a81548173ffffffffffffffffffffffffffffffffffffffff021916908373ffffffffffffffffffffffffffffffffffffffff16021790555050610159565b5f5ffd5b5f73ffffffffffffffffffffffffffffffffffffffff82169050919050565b5f6100fd826100d4565b9050919050565b61010d816100f3565b8114610117575f5ffd5b50565b5f8151905061012881610104565b92915050565b5f60208284031215610143576101426100d0565b5b5f6101508482850161011a565b91505092915050565b6118c4806101665f395ff3fe60806040526004361061010c575f3560e01c80637ce8a08e11610094578063ae24303111610063578063ae24303114610478578063bff1f9e1146104a2578063ca90d6e6146104cc578063fa09e630146104f4578063fdbb66961461051c5761015e565b80637ce8a08e146103c25780638da5cb5b146103ea57806390d976e214610414578063a2f5546e146104505761015e565b8063376fe102116100db578063376fe102146102f4578063419dd841146103305780634c957dca14610346578063556a75791461035c578063672cbe1a146103985761015e565b80632a2a92cc146102005780632b956ff71461023e57806331bbf5551461027a578063365b98b2146102b65761015e565b3661015e575f3411610153576040517f08c379a000000000000000000000000000000000000000000000000000000000815260040161014a90611113565b60405180910390fd5b61015c5f610558565b005b5f34116101a0576040517f08c379a000000000000000000000000000000000000000000000000000000000815260040161019790611113565b60405180910390fd5b60205f36905010156101e7576040517f08c379a00000000000000000000000000000000000000000000000000000000081526004016101de9061117b565b60405180910390fd5b6101fe5f368101906101f991906111d2565b610558565b005b34801561020b575f5ffd5b506102266004803603810190610221919061128a565b6108d7565b604051610235939291906112d7565b60405180910390f35b348015610249575f5ffd5b50610264600480360381019061025f919061130c565b6109ac565b6040516102719190611337565b60405180910390f35b348015610285575f5ffd5b506102a0600480360381019061029b919061130c565b6109f2565b6040516102ad9190611337565b60405180910390f35b3480156102c1575f5ffd5b506102dc60048036038101906102d79190611350565b610a4f565b6040516102eb93929190611399565b60405180910390f35b3480156102ff575f5ffd5b5061031a6004803603810190610315919061130c565b610aa0565b6040516103279190611337565b60405180910390f35b34801561033b575f5ffd5b50610344610ab5565b005b348015610351575f5ffd5b5061035a610ab7565b005b348015610367575f5ffd5b50610382600480360381019061037d9190611404565b610ab9565b60405161038f9190611337565b60405180910390f35b3480156103a3575f5ffd5b506103ac610ace565b6040516103b99190611337565b60405180910390f35b3480156103cd575f5ffd5b506103e860048036038101906103e39190611404565b610afa565b005b3480156103f5575f5ffd5b506103fe610ba5565b60405161040b919061142f565b60405180910390f35b34801561041f575f5ffd5b5061043a60048036038101906104359190611350565b610bc9565b604051610447919061142f565b60405180910390f35b34801561045b575f5ffd5b5061047660048036038101906104719190611448565b610c04565b005b348015610483575f5ffd5b5061048c610cb2565b6040516104999190611495565b60405180910390f35b3480156104ad575f5ffd5b506104b6610cc4565b6040516104c39190611337565b60405180910390f35b3480156104d7575f5ffd5b506104f260048036038101906104ed919061128a565b610cca565b005b3480156104ff575f5ffd5b5061051a600480360381019061051591906114e9565b610e42565b005b348015610527575f5ffd5b50610542600480360381019061053d919061130c565b610f85565b60405161054f9190611337565b60405180910390f35b5f5f60159054906101000a900460ff1660ff16036105ab576040517f08c379a00000000000000000000000000000000000000000000000000000000081526004016105a29061155e565b60405180910390fd5b600115155f60149054906101000a900460ff16151503610600576040517f08c379a00000000000000000000000000000000000000000000000000000000081526004016105f7906115c6565b60405180910390fd5b60015f60146101000a81548160ff0219169083151502179055505f8161067557600260015f5f60159054906101000a900460ff1660ff1660ff1681526020019081526020015f2054670de0b6b3a76400003461065c9190611611565b610666919061167f565b6106709190611611565b6106ba565b60015f5f60159054906101000a900460ff1660ff1660ff1681526020019081526020015f2054670de0b6b3a7640000346106af9190611611565b6106b9919061167f565b5b90505f60045f3373ffffffffffffffffffffffffffffffffffffffff1673ffffffffffffffffffffffffffffffffffffffff1681526020019081526020015f20540361089f5760035f815480929190610712906116af565b919050555060035460045f3373ffffffffffffffffffffffffffffffffffffffff1673ffffffffffffffffffffffffffffffffffffffff1681526020019081526020015f20819055505f60055f60035481526020019081526020015f20905033815f015f6101000a81548173ffffffffffffffffffffffffffffffffffffffff021916908373ffffffffffffffffffffffffffffffffffffffff1602179055505f81600101819055506001816002015f6101000a81548160ff0219169083151502179055508060055f60035481526020019081526020015f205f82015f9054906101000a900473ffffffffffffffffffffffffffffffffffffffff16815f015f6101000a81548173ffffffffffffffffffffffffffffffffffffffff021916908373ffffffffffffffffffffffffffffffffffffffff16021790555060018201548160010155600282015f9054906101000a900460ff16816002015f6101000a81548160ff0219169083151502179055506003820181600301908054610899929190610fdf565b50905050505b8060055f60035481526020019081526020015f2060010181905550505f5f60146101000a81548160ff02191690831515021790555050565b5f5f5f5f60055f60045f8973ffffffffffffffffffffffffffffffffffffffff1673ffffffffffffffffffffffffffffffffffffffff1681526020019081526020015f205481526020019081526020015f20600301858154811061093e5761093d6116f6565b5b905f5260205f2090600402016040518060800160405290815f82015481526020016001820154815260200160028201548152602001600382015f9054906101000a900460ff1660ff1660ff16815250509050805f015181602001518260400151935093509350509250925092565b5f60045f8373ffffffffffffffffffffffffffffffffffffffff1673ffffffffffffffffffffffffffffffffffffffff1681526020019081526020015f20549050919050565b5f60055f60045f8573ffffffffffffffffffffffffffffffffffffffff1673ffffffffffffffffffffffffffffffffffffffff1681526020019081526020015f205481526020019081526020015f20600301805490509050919050565b6005602052805f5260405f205f91509050805f015f9054906101000a900473ffffffffffffffffffffffffffffffffffffffff1690806001015490806002015f9054906101000a900460ff16905083565b6004602052805f5260405f205f915090505481565b565b565b6001602052805f5260405f205f915090505481565b5f60015f5f60159054906101000a900460ff1660ff1660ff1681526020019081526020015f2054905090565b5f5f9054906101000a900473ffffffffffffffffffffffffffffffffffffffff1673ffffffffffffffffffffffffffffffffffffffff163373ffffffffffffffffffffffffffffffffffffffff1614610b88576040517f08c379a0000000000000000000000000000000000000000000000000000000008152600401610b7f9061176d565b60405180910390fd5b805f60156101000a81548160ff021916908360ff16021790555050565b5f5f9054906101000a900473ffffffffffffffffffffffffffffffffffffffff1681565b5f60055f8381526020019081526020015f205f015f9054906101000a900473ffffffffffffffffffffffffffffffffffffffff169050919050565b5f5f9054906101000a900473ffffffffffffffffffffffffffffffffffffffff1673ffffffffffffffffffffffffffffffffffffffff163373ffffffffffffffffffffffffffffffffffffffff1614610c92576040517f08c379a0000000000000000000000000000000000000000000000000000000008152600401610c899061176d565b60405180910390fd5b8060015f8460ff1660ff1681526020019081526020015f20819055505050565b5f60159054906101000a900460ff1681565b60035481565b5f5f9054906101000a900473ffffffffffffffffffffffffffffffffffffffff1673ffffffffffffffffffffffffffffffffffffffff163373ffffffffffffffffffffffffffffffffffffffff1614610d58576040517f08c379a0000000000000000000000000000000000000000000000000000000008152600401610d4f9061176d565b60405180910390fd5b5f60045f8473ffffffffffffffffffffffffffffffffffffffff1673ffffffffffffffffffffffffffffffffffffffff1681526020019081526020015f205403610dd7576040517f08c379a0000000000000000000000000000000000000000000000000000000008152600401610dce906117d5565b60405180910390fd5b8060055f60045f8673ffffffffffffffffffffffffffffffffffffffff1673ffffffffffffffffffffffffffffffffffffffff1681526020019081526020015f205481526020019081526020015f206001015f828254610e3791906117f3565b925050819055505050565b5f5f9054906101000a900473ffffffffffffffffffffffffffffffffffffffff1673ffffffffffffffffffffffffffffffffffffffff163373ffffffffffffffffffffffffffffffffffffffff1614610ed0576040517f08c379a0000000000000000000000000000000000000000000000000000000008152600401610ec79061176d565b60405180910390fd5b5f73ffffffffffffffffffffffffffffffffffffffff168173ffffffffffffffffffffffffffffffffffffffff1603610f3e576040517f08c379a0000000000000000000000000000000000000000000000000000000008152600401610f3590611870565b60405180910390fd5b8073ffffffffffffffffffffffffffffffffffffffff166108fc4790811502906040515f60405180830381858888f19350505050158015610f81573d5f5f3e3d5ffd5b5050565b5f60055f60045f8573ffffffffffffffffffffffffffffffffffffffff1673ffffffffffffffffffffffffffffffffffffffff1681526020019081526020015f205481526020019081526020015f20600101549050919050565b828054828255905f5260205f2090600402810192821561106a575f5260205f209160040282015b828111156110695782825f820154815f01556001820154816001015560028201548160020155600382015f9054906101000a900460ff16816003015f6101000a81548160ff021916908360ff160217905550505091600401919060040190611006565b5b509050611077919061107b565b5090565b5b808211156110b5575f5f82015f9055600182015f9055600282015f9055600382015f6101000a81549060ff02191690555060040161107c565b5090565b5f82825260208201905092915050565b7f53656e6420424e4220746f2062757920545054000000000000000000000000005f82015250565b5f6110fd6013836110b9565b9150611108826110c9565b602082019050919050565b5f6020820190508181035f83015261112a816110f1565b9050919050565b7f496e76616c69642064617461206c656e677468000000000000000000000000005f82015250565b5f6111656013836110b9565b915061117082611131565b602082019050919050565b5f6020820190508181035f83015261119281611159565b9050919050565b5f5ffd5b5f8115159050919050565b6111b18161119d565b81146111bb575f5ffd5b50565b5f813590506111cc816111a8565b92915050565b5f602082840312156111e7576111e6611199565b5b5f6111f4848285016111be565b91505092915050565b5f73ffffffffffffffffffffffffffffffffffffffff82169050919050565b5f611226826111fd565b9050919050565b6112368161121c565b8114611240575f5ffd5b50565b5f813590506112518161122d565b92915050565b5f819050919050565b61126981611257565b8114611273575f5ffd5b50565b5f8135905061128481611260565b92915050565b5f5f604083850312156112a05761129f611199565b5b5f6112ad85828601611243565b92505060206112be85828601611276565b9150509250929050565b6112d181611257565b82525050565b5f6060820190506112ea5f8301866112c8565b6112f760208301856112c8565b61130460408301846112c8565b949350505050565b5f6020828403121561132157611320611199565b5b5f61132e84828501611243565b91505092915050565b5f60208201905061134a5f8301846112c8565b92915050565b5f6020828403121561136557611364611199565b5b5f61137284828501611276565b91505092915050565b6113848161121c565b82525050565b6113938161119d565b82525050565b5f6060820190506113ac5f83018661137b565b6113b960208301856112c8565b6113c6604083018461138a565b949350505050565b5f60ff82169050919050565b6113e3816113ce565b81146113ed575f5ffd5b50565b5f813590506113fe816113da565b92915050565b5f6020828403121561141957611418611199565b5b5f611426848285016113f0565b91505092915050565b5f6020820190506114425f83018461137b565b92915050565b5f5f6040838503121561145e5761145d611199565b5b5f61146b858286016113f0565b925050602061147c85828601611276565b9150509250929050565b61148f816113ce565b82525050565b5f6020820190506114a85f830184611486565b92915050565b5f6114b8826111fd565b9050919050565b6114c8816114ae565b81146114d2575f5ffd5b50565b5f813590506114e3816114bf565b92915050565b5f602082840312156114fe576114fd611199565b5b5f61150b848285016114d5565b91505092915050565b7f436f6e74726163742050617573656400000000000000000000000000000000005f82015250565b5f611548600f836110b9565b915061155382611514565b602082019050919050565b5f6020820190508181035f8301526115758161153c565b9050919050565b7f4e6f205265656e7472616e63792c706c732077616974000000000000000000005f82015250565b5f6115b06016836110b9565b91506115bb8261157c565b602082019050919050565b5f6020820190508181035f8301526115dd816115a4565b9050919050565b7f4e487b71000000000000000000000000000000000000000000000000000000005f52601160045260245ffd5b5f61161b82611257565b915061162683611257565b925082820261163481611257565b9150828204841483151761164b5761164a6115e4565b5b5092915050565b7f4e487b71000000000000000000000000000000000000000000000000000000005f52601260045260245ffd5b5f61168982611257565b915061169483611257565b9250826116a4576116a3611652565b5b828204905092915050565b5f6116b982611257565b91507fffffffffffffffffffffffffffffffffffffffffffffffffffffffffffffffff82036116eb576116ea6115e4565b5b600182019050919050565b7f4e487b71000000000000000000000000000000000000000000000000000000005f52603260045260245ffd5b7f4f6e6c79206f776e6572000000000000000000000000000000000000000000005f82015250565b5f611757600a836110b9565b915061176282611723565b602082019050919050565b5f6020820190508181035f8301526117848161174b565b9050919050565b7f496e76616c6964207573657220494400000000000000000000000000000000005f82015250565b5f6117bf600f836110b9565b91506117ca8261178b565b602082019050919050565b5f6020820190508181035f8301526117ec816117b3565b9050919050565b5f6117fd82611257565b915061180883611257565b92508282019050808211156118205761181f6115e4565b5b92915050565b7f496e76616c6964206164647265737300000000000000000000000000000000005f82015250565b5f61185a600f836110b9565b915061186582611826565b602082019050919050565b5f6020820190508181035f8301526118878161184e565b905091905056fea264697066735822122076f53626083560afde1f4de8e5c550ad9d393d4ed8085ec0416f53df16eca39064736f6c634300081e0033",
					"opcodes": "PUSH1 0x80 PUSH1 0x40 MSTORE CALLVALUE DUP1 ISZERO PUSH2 0xF JUMPI PUSH0 PUSH0 REVERT JUMPDEST POP PUSH1 0x40 MLOAD PUSH2 0x1A2A CODESIZE SUB DUP1 PUSH2 0x1A2A DUP4 CODECOPY DUP2 DUP2 ADD PUSH1 0x40 MSTORE DUP2 ADD SWAP1 PUSH2 0x31 SWAP2 SWAP1 PUSH2 0x12E JUMP JUMPDEST CALLER PUSH0 PUSH0 PUSH2 0x100 EXP DUP2 SLOAD DUP2 PUSH20 0xFFFFFFFFFFFFFFFFFFFFFFFFFFFFFFFFFFFFFFFF MUL NOT AND SWAP1 DUP4 PUSH20 0xFFFFFFFFFFFFFFFFFFFFFFFFFFFFFFFFFFFFFFFF AND MUL OR SWAP1 SSTORE POP PUSH0 PUSH0 PUSH1 0x15 PUSH2 0x100 EXP DUP2 SLOAD DUP2 PUSH1 0xFF MUL NOT AND SWAP1 DUP4 PUSH1 0xFF AND MUL OR SWAP1 SSTORE POP DUP1 PUSH1 0x2 PUSH0 PUSH2 0x100 EXP DUP2 SLOAD DUP2 PUSH20 0xFFFFFFFFFFFFFFFFFFFFFFFFFFFFFFFFFFFFFFFF MUL NOT AND SWAP1 DUP4 PUSH20 0xFFFFFFFFFFFFFFFFFFFFFFFFFFFFFFFFFFFFFFFF AND MUL OR SWAP1 SSTORE POP POP PUSH2 0x159 JUMP JUMPDEST PUSH0 PUSH0 REVERT JUMPDEST PUSH0 PUSH20 0xFFFFFFFFFFFFFFFFFFFFFFFFFFFFFFFFFFFFFFFF DUP3 AND SWAP1 POP SWAP2 SWAP1 POP JUMP JUMPDEST PUSH0 PUSH2 0xFD DUP3 PUSH2 0xD4 JUMP JUMPDEST SWAP1 POP SWAP2 SWAP1 POP JUMP JUMPDEST PUSH2 0x10D DUP2 PUSH2 0xF3 JUMP JUMPDEST DUP2 EQ PUSH2 0x117 JUMPI PUSH0 PUSH0 REVERT JUMPDEST POP JUMP JUMPDEST PUSH0 DUP2 MLOAD SWAP1 POP PUSH2 0x128 DUP2 PUSH2 0x104 JUMP JUMPDEST SWAP3 SWAP2 POP POP JUMP JUMPDEST PUSH0 PUSH1 0x20 DUP3 DUP5 SUB SLT ISZERO PUSH2 0x143 JUMPI PUSH2 0x142 PUSH2 0xD0 JUMP JUMPDEST JUMPDEST PUSH0 PUSH2 0x150 DUP5 DUP3 DUP6 ADD PUSH2 0x11A JUMP JUMPDEST SWAP2 POP POP SWAP3 SWAP2 POP POP JUMP JUMPDEST PUSH2 0x18C4 DUP1 PUSH2 0x166 PUSH0 CODECOPY PUSH0 RETURN INVALID PUSH1 0x80 PUSH1 0x40 MSTORE PUSH1 0x4 CALLDATASIZE LT PUSH2 0x10C JUMPI PUSH0 CALLDATALOAD PUSH1 0xE0 SHR DUP1 PUSH4 0x7CE8A08E GT PUSH2 0x94 JUMPI DUP1 PUSH4 0xAE243031 GT PUSH2 0x63 JUMPI DUP1 PUSH4 0xAE243031 EQ PUSH2 0x478 JUMPI DUP1 PUSH4 0xBFF1F9E1 EQ PUSH2 0x4A2 JUMPI DUP1 PUSH4 0xCA90D6E6 EQ PUSH2 0x4CC JUMPI DUP1 PUSH4 0xFA09E630 EQ PUSH2 0x4F4 JUMPI DUP1 PUSH4 0xFDBB6696 EQ PUSH2 0x51C JUMPI PUSH2 0x15E JUMP JUMPDEST DUP1 PUSH4 0x7CE8A08E EQ PUSH2 0x3C2 JUMPI DUP1 PUSH4 0x8DA5CB5B EQ PUSH2 0x3EA JUMPI DUP1 PUSH4 0x90D976E2 EQ PUSH2 0x414 JUMPI DUP1 PUSH4 0xA2F5546E EQ PUSH2 0x450 JUMPI PUSH2 0x15E JUMP JUMPDEST DUP1 PUSH4 0x376FE102 GT PUSH2 0xDB JUMPI DUP1 PUSH4 0x376FE102 EQ PUSH2 0x2F4 JUMPI DUP1 PUSH4 0x419DD841 EQ PUSH2 0x330 JUMPI DUP1 PUSH4 0x4C957DCA EQ PUSH2 0x346 JUMPI DUP1 PUSH4 0x556A7579 EQ PUSH2 0x35C JUMPI DUP1 PUSH4 0x672CBE1A EQ PUSH2 0x398 JUMPI PUSH2 0x15E JUMP JUMPDEST DUP1 PUSH4 0x2A2A92CC EQ PUSH2 0x200 JUMPI DUP1 PUSH4 0x2B956FF7 EQ PUSH2 0x23E JUMPI DUP1 PUSH4 0x31BBF555 EQ PUSH2 0x27A JUMPI DUP1 PUSH4 0x365B98B2 EQ PUSH2 0x2B6 JUMPI PUSH2 0x15E JUMP JUMPDEST CALLDATASIZE PUSH2 0x15E JUMPI PUSH0 CALLVALUE GT PUSH2 0x153 JUMPI PUSH1 0x40 MLOAD PUSH32 0x8C379A000000000000000000000000000000000000000000000000000000000 DUP2 MSTORE PUSH1 0x4 ADD PUSH2 0x14A SWAP1 PUSH2 0x1113 JUMP JUMPDEST PUSH1 0x40 MLOAD DUP1 SWAP2 SUB SWAP1 REVERT JUMPDEST PUSH2 0x15C PUSH0 PUSH2 0x558 JUMP JUMPDEST STOP JUMPDEST PUSH0 CALLVALUE GT PUSH2 0x1A0 JUMPI PUSH1 0x40 MLOAD PUSH32 0x8C379A000000000000000000000000000000000000000000000000000000000 DUP2 MSTORE PUSH1 0x4 ADD PUSH2 0x197 SWAP1 PUSH2 0x1113 JUMP JUMPDEST PUSH1 0x40 MLOAD DUP1 SWAP2 SUB SWAP1 REVERT JUMPDEST PUSH1 0x20 PUSH0 CALLDATASIZE SWAP1 POP LT ISZERO PUSH2 0x1E7 JUMPI PUSH1 0x40 MLOAD PUSH32 0x8C379A000000000000000000000000000000000000000000000000000000000 DUP2 MSTORE PUSH1 0x4 ADD PUSH2 0x1DE SWAP1 PUSH2 0x117B JUMP JUMPDEST PUSH1 0x40 MLOAD DUP1 SWAP2 SUB SWAP1 REVERT JUMPDEST PUSH2 0x1FE PUSH0 CALLDATASIZE DUP2 ADD SWAP1 PUSH2 0x1F9 SWAP2 SWAP1 PUSH2 0x11D2 JUMP JUMPDEST PUSH2 0x558 JUMP JUMPDEST STOP JUMPDEST CALLVALUE DUP1 ISZERO PUSH2 0x20B JUMPI PUSH0 PUSH0 REVERT JUMPDEST POP PUSH2 0x226 PUSH1 0x4 DUP1 CALLDATASIZE SUB DUP2 ADD SWAP1 PUSH2 0x221 SWAP2 SWAP1 PUSH2 0x128A JUMP JUMPDEST PUSH2 0x8D7 JUMP JUMPDEST PUSH1 0x40 MLOAD PUSH2 0x235 SWAP4 SWAP3 SWAP2 SWAP1 PUSH2 0x12D7 JUMP JUMPDEST PUSH1 0x40 MLOAD DUP1 SWAP2 SUB SWAP1 RETURN JUMPDEST CALLVALUE DUP1 ISZERO PUSH2 0x249 JUMPI PUSH0 PUSH0 REVERT JUMPDEST POP PUSH2 0x264 PUSH1 0x4 DUP1 CALLDATASIZE SUB DUP2 ADD SWAP1 PUSH2 0x25F SWAP2 SWAP1 PUSH2 0x130C JUMP JUMPDEST PUSH2 0x9AC JUMP JUMPDEST PUSH1 0x40 MLOAD PUSH2 0x271 SWAP2 SWAP1 PUSH2 0x1337 JUMP JUMPDEST PUSH1 0x40 MLOAD DUP1 SWAP2 SUB SWAP1 RETURN JUMPDEST CALLVALUE DUP1 ISZERO PUSH2 0x285 JUMPI PUSH0 PUSH0 REVERT JUMPDEST POP PUSH2 0x2A0 PUSH1 0x4 DUP1 CALLDATASIZE SUB DUP2 ADD SWAP1 PUSH2 0x29B SWAP2 SWAP1 PUSH2 0x130C JUMP JUMPDEST PUSH2 0x9F2 JUMP JUMPDEST PUSH1 0x40 MLOAD PUSH2 0x2AD SWAP2 SWAP1 PUSH2 0x1337 JUMP JUMPDEST PUSH1 0x40 MLOAD DUP1 SWAP2 SUB SWAP1 RETURN JUMPDEST CALLVALUE DUP1 ISZERO PUSH2 0x2C1 JUMPI PUSH0 PUSH0 REVERT JUMPDEST POP PUSH2 0x2DC PUSH1 0x4 DUP1 CALLDATASIZE SUB DUP2 ADD SWAP1 PUSH2 0x2D7 SWAP2 SWAP1 PUSH2 0x1350 JUMP JUMPDEST PUSH2 0xA4F JUMP JUMPDEST PUSH1 0x40 MLOAD PUSH2 0x2EB SWAP4 SWAP3 SWAP2 SWAP1 PUSH2 0x1399 JUMP JUMPDEST PUSH1 0x40 MLOAD DUP1 SWAP2 SUB SWAP1 RETURN JUMPDEST CALLVALUE DUP1 ISZERO PUSH2 0x2FF JUMPI PUSH0 PUSH0 REVERT JUMPDEST POP PUSH2 0x31A PUSH1 0x4 DUP1 CALLDATASIZE SUB DUP2 ADD SWAP1 PUSH2 0x315 SWAP2 SWAP1 PUSH2 0x130C JUMP JUMPDEST PUSH2 0xAA0 JUMP JUMPDEST PUSH1 0x40 MLOAD PUSH2 0x327 SWAP2 SWAP1 PUSH2 0x1337 JUMP JUMPDEST PUSH1 0x40 MLOAD DUP1 SWAP2 SUB SWAP1 RETURN JUMPDEST CALLVALUE DUP1 ISZERO PUSH2 0x33B JUMPI PUSH0 PUSH0 REVERT JUMPDEST POP PUSH2 0x344 PUSH2 0xAB5 JUMP JUMPDEST STOP JUMPDEST CALLVALUE DUP1 ISZERO PUSH2 0x351 JUMPI PUSH0 PUSH0 REVERT JUMPDEST POP PUSH2 0x35A PUSH2 0xAB7 JUMP JUMPDEST STOP JUMPDEST CALLVALUE DUP1 ISZERO PUSH2 0x367 JUMPI PUSH0 PUSH0 REVERT JUMPDEST POP PUSH2 0x382 PUSH1 0x4 DUP1 CALLDATASIZE SUB DUP2 ADD SWAP1 PUSH2 0x37D SWAP2 SWAP1 PUSH2 0x1404 JUMP JUMPDEST PUSH2 0xAB9 JUMP JUMPDEST PUSH1 0x40 MLOAD PUSH2 0x38F SWAP2 SWAP1 PUSH2 0x1337 JUMP JUMPDEST PUSH1 0x40 MLOAD DUP1 SWAP2 SUB SWAP1 RETURN JUMPDEST CALLVALUE DUP1 ISZERO PUSH2 0x3A3 JUMPI PUSH0 PUSH0 REVERT JUMPDEST POP PUSH2 0x3AC PUSH2 0xACE JUMP JUMPDEST PUSH1 0x40 MLOAD PUSH2 0x3B9 SWAP2 SWAP1 PUSH2 0x1337 JUMP JUMPDEST PUSH1 0x40 MLOAD DUP1 SWAP2 SUB SWAP1 RETURN JUMPDEST CALLVALUE DUP1 ISZERO PUSH2 0x3CD JUMPI PUSH0 PUSH0 REVERT JUMPDEST POP PUSH2 0x3E8 PUSH1 0x4 DUP1 CALLDATASIZE SUB DUP2 ADD SWAP1 PUSH2 0x3E3 SWAP2 SWAP1 PUSH2 0x1404 JUMP JUMPDEST PUSH2 0xAFA JUMP JUMPDEST STOP JUMPDEST CALLVALUE DUP1 ISZERO PUSH2 0x3F5 JUMPI PUSH0 PUSH0 REVERT JUMPDEST POP PUSH2 0x3FE PUSH2 0xBA5 JUMP JUMPDEST PUSH1 0x40 MLOAD PUSH2 0x40B SWAP2 SWAP1 PUSH2 0x142F JUMP JUMPDEST PUSH1 0x40 MLOAD DUP1 SWAP2 SUB SWAP1 RETURN JUMPDEST CALLVALUE DUP1 ISZERO PUSH2 0x41F JUMPI PUSH0 PUSH0 REVERT JUMPDEST POP PUSH2 0x43A PUSH1 0x4 DUP1 CALLDATASIZE SUB DUP2 ADD SWAP1 PUSH2 0x435 SWAP2 SWAP1 PUSH2 0x1350 JUMP JUMPDEST PUSH2 0xBC9 JUMP JUMPDEST PUSH1 0x40 MLOAD PUSH2 0x447 SWAP2 SWAP1 PUSH2 0x142F JUMP JUMPDEST PUSH1 0x40 MLOAD DUP1 SWAP2 SUB SWAP1 RETURN JUMPDEST CALLVALUE DUP1 ISZERO PUSH2 0x45B JUMPI PUSH0 PUSH0 REVERT JUMPDEST POP PUSH2 0x476 PUSH1 0x4 DUP1 CALLDATASIZE SUB DUP2 ADD SWAP1 PUSH2 0x471 SWAP2 SWAP1 PUSH2 0x1448 JUMP JUMPDEST PUSH2 0xC04 JUMP JUMPDEST STOP JUMPDEST CALLVALUE DUP1 ISZERO PUSH2 0x483 JUMPI PUSH0 PUSH0 REVERT JUMPDEST POP PUSH2 0x48C PUSH2 0xCB2 JUMP JUMPDEST PUSH1 0x40 MLOAD PUSH2 0x499 SWAP2 SWAP1 PUSH2 0x1495 JUMP JUMPDEST PUSH1 0x40 MLOAD DUP1 SWAP2 SUB SWAP1 RETURN JUMPDEST CALLVALUE DUP1 ISZERO PUSH2 0x4AD JUMPI PUSH0 PUSH0 REVERT JUMPDEST POP PUSH2 0x4B6 PUSH2 0xCC4 JUMP JUMPDEST PUSH1 0x40 MLOAD PUSH2 0x4C3 SWAP2 SWAP1 PUSH2 0x1337 JUMP JUMPDEST PUSH1 0x40 MLOAD DUP1 SWAP2 SUB SWAP1 RETURN JUMPDEST CALLVALUE DUP1 ISZERO PUSH2 0x4D7 JUMPI PUSH0 PUSH0 REVERT JUMPDEST POP PUSH2 0x4F2 PUSH1 0x4 DUP1 CALLDATASIZE SUB DUP2 ADD SWAP1 PUSH2 0x4ED SWAP2 SWAP1 PUSH2 0x128A JUMP JUMPDEST PUSH2 0xCCA JUMP JUMPDEST STOP JUMPDEST CALLVALUE DUP1 ISZERO PUSH2 0x4FF JUMPI PUSH0 PUSH0 REVERT JUMPDEST POP PUSH2 0x51A PUSH1 0x4 DUP1 CALLDATASIZE SUB DUP2 ADD SWAP1 PUSH2 0x515 SWAP2 SWAP1 PUSH2 0x14E9 JUMP JUMPDEST PUSH2 0xE42 JUMP JUMPDEST STOP JUMPDEST CALLVALUE DUP1 ISZERO PUSH2 0x527 JUMPI PUSH0 PUSH0 REVERT JUMPDEST POP PUSH2 0x542 PUSH1 0x4 DUP1 CALLDATASIZE SUB DUP2 ADD SWAP1 PUSH2 0x53D SWAP2 SWAP1 PUSH2 0x130C JUMP JUMPDEST PUSH2 0xF85 JUMP JUMPDEST PUSH1 0x40 MLOAD PUSH2 0x54F SWAP2 SWAP1 PUSH2 0x1337 JUMP JUMPDEST PUSH1 0x40 MLOAD DUP1 SWAP2 SUB SWAP1 RETURN JUMPDEST PUSH0 PUSH0 PUSH1 0x15 SWAP1 SLOAD SWAP1 PUSH2 0x100 EXP SWAP1 DIV PUSH1 0xFF AND PUSH1 0xFF AND SUB PUSH2 0x5AB JUMPI PUSH1 0x40 MLOAD PUSH32 0x8C379A000000000000000000000000000000000000000000000000000000000 DUP2 MSTORE PUSH1 0x4 ADD PUSH2 0x5A2 SWAP1 PUSH2 0x155E JUMP JUMPDEST PUSH1 0x40 MLOAD DUP1 SWAP2 SUB SWAP1 REVERT JUMPDEST PUSH1 0x1 ISZERO ISZERO PUSH0 PUSH1 0x14 SWAP1 SLOAD SWAP1 PUSH2 0x100 EXP SWAP1 DIV PUSH1 0xFF AND ISZERO ISZERO SUB PUSH2 0x600 JUMPI PUSH1 0x40 MLOAD PUSH32 0x8C379A000000000000000000000000000000000000000000000000000000000 DUP2 MSTORE PUSH1 0x4 ADD PUSH2 0x5F7 SWAP1 PUSH2 0x15C6 JUMP JUMPDEST PUSH1 0x40 MLOAD DUP1 SWAP2 SUB SWAP1 REVERT JUMPDEST PUSH1 0x1 PUSH0 PUSH1 0x14 PUSH2 0x100 EXP DUP2 SLOAD DUP2 PUSH1 0xFF MUL NOT AND SWAP1 DUP4 ISZERO ISZERO MUL OR SWAP1 SSTORE POP PUSH0 DUP2 PUSH2 0x675 JUMPI PUSH1 0x2 PUSH1 0x1 PUSH0 PUSH0 PUSH1 0x15 SWAP1 SLOAD SWAP1 PUSH2 0x100 EXP SWAP1 DIV PUSH1 0xFF AND PUSH1 0xFF AND PUSH1 0xFF AND DUP2 MSTORE PUSH1 0x20 ADD SWAP1 DUP2 MSTORE PUSH1 0x20 ADD PUSH0 KECCAK256 SLOAD PUSH8 0xDE0B6B3A7640000 CALLVALUE PUSH2 0x65C SWAP2 SWAP1 PUSH2 0x1611 JUMP JUMPDEST PUSH2 0x666 SWAP2 SWAP1 PUSH2 0x167F JUMP JUMPDEST PUSH2 0x670 SWAP2 SWAP1 PUSH2 0x1611 JUMP JUMPDEST PUSH2 0x6BA JUMP JUMPDEST PUSH1 0x1 PUSH0 PUSH0 PUSH1 0x15 SWAP1 SLOAD SWAP1 PUSH2 0x100 EXP SWAP1 DIV PUSH1 0xFF AND PUSH1 0xFF AND PUSH1 0xFF AND DUP2 MSTORE PUSH1 0x20 ADD SWAP1 DUP2 MSTORE PUSH1 0x20 ADD PUSH0 KECCAK256 SLOAD PUSH8 0xDE0B6B3A7640000 CALLVALUE PUSH2 0x6AF SWAP2 SWAP1 PUSH2 0x1611 JUMP JUMPDEST PUSH2 0x6B9 SWAP2 SWAP1 PUSH2 0x167F JUMP JUMPDEST JUMPDEST SWAP1 POP PUSH0 PUSH1 0x4 PUSH0 CALLER PUSH20 0xFFFFFFFFFFFFFFFFFFFFFFFFFFFFFFFFFFFFFFFF AND PUSH20 0xFFFFFFFFFFFFFFFFFFFFFFFFFFFFFFFFFFFFFFFF AND DUP2 MSTORE PUSH1 0x20 ADD SWAP1 DUP2 MSTORE PUSH1 0x20 ADD PUSH0 KECCAK256 SLOAD SUB PUSH2 0x89F JUMPI PUSH1 0x3 PUSH0 DUP2 SLOAD DUP1 SWAP3 SWAP2 SWAP1 PUSH2 0x712 SWAP1 PUSH2 0x16AF JUMP JUMPDEST SWAP2 SWAP1 POP SSTORE POP PUSH1 0x3 SLOAD PUSH1 0x4 PUSH0 CALLER PUSH20 0xFFFFFFFFFFFFFFFFFFFFFFFFFFFFFFFFFFFFFFFF AND PUSH20 0xFFFFFFFFFFFFFFFFFFFFFFFFFFFFFFFFFFFFFFFF AND DUP2 MSTORE PUSH1 0x20 ADD SWAP1 DUP2 MSTORE PUSH1 0x20 ADD PUSH0 KECCAK256 DUP2 SWAP1 SSTORE POP PUSH0 PUSH1 0x5 PUSH0 PUSH1 0x3 SLOAD DUP2 MSTORE PUSH1 0x20 ADD SWAP1 DUP2 MSTORE PUSH1 0x20 ADD PUSH0 KECCAK256 SWAP1 POP CALLER DUP2 PUSH0 ADD PUSH0 PUSH2 0x100 EXP DUP2 SLOAD DUP2 PUSH20 0xFFFFFFFFFFFFFFFFFFFFFFFFFFFFFFFFFFFFFFFF MUL NOT AND SWAP1 DUP4 PUSH20 0xFFFFFFFFFFFFFFFFFFFFFFFFFFFFFFFFFFFFFFFF AND MUL OR SWAP1 SSTORE POP PUSH0 DUP2 PUSH1 0x1 ADD DUP2 SWAP1 SSTORE POP PUSH1 0x1 DUP2 PUSH1 0x2 ADD PUSH0 PUSH2 0x100 EXP DUP2 SLOAD DUP2 PUSH1 0xFF MUL NOT AND SWAP1 DUP4 ISZERO ISZERO MUL OR SWAP1 SSTORE POP DUP1 PUSH1 0x5 PUSH0 PUSH1 0x3 SLOAD DUP2 MSTORE PUSH1 0x20 ADD SWAP1 DUP2 MSTORE PUSH1 0x20 ADD PUSH0 KECCAK256 PUSH0 DUP3 ADD PUSH0 SWAP1 SLOAD SWAP1 PUSH2 0x100 EXP SWAP1 DIV PUSH20 0xFFFFFFFFFFFFFFFFFFFFFFFFFFFFFFFFFFFFFFFF AND DUP2 PUSH0 ADD PUSH0 PUSH2 0x100 EXP DUP2 SLOAD DUP2 PUSH20 0xFFFFFFFFFFFFFFFFFFFFFFFFFFFFFFFFFFFFFFFF MUL NOT AND SWAP1 DUP4 PUSH20 0xFFFFFFFFFFFFFFFFFFFFFFFFFFFFFFFFFFFFFFFF AND MUL OR SWAP1 SSTORE POP PUSH1 0x1 DUP3 ADD SLOAD DUP2 PUSH1 0x1 ADD SSTORE PUSH1 0x2 DUP3 ADD PUSH0 SWAP1 SLOAD SWAP1 PUSH2 0x100 EXP SWAP1 DIV PUSH1 0xFF AND DUP2 PUSH1 0x2 ADD PUSH0 PUSH2 0x100 EXP DUP2 SLOAD DUP2 PUSH1 0xFF MUL NOT AND SWAP1 DUP4 ISZERO ISZERO MUL OR SWAP1 SSTORE POP PUSH1 0x3 DUP3 ADD DUP2 PUSH1 0x3 ADD SWAP1 DUP1 SLOAD PUSH2 0x899 SWAP3 SWAP2 SWAP1 PUSH2 0xFDF JUMP JUMPDEST POP SWAP1 POP POP POP JUMPDEST DUP1 PUSH1 0x5 PUSH0 PUSH1 0x3 SLOAD DUP2 MSTORE PUSH1 0x20 ADD SWAP1 DUP2 MSTORE PUSH1 0x20 ADD PUSH0 KECCAK256 PUSH1 0x1 ADD DUP2 SWAP1 SSTORE POP POP PUSH0 PUSH0 PUSH1 0x14 PUSH2 0x100 EXP DUP2 SLOAD DUP2 PUSH1 0xFF MUL NOT AND SWAP1 DUP4 ISZERO ISZERO MUL OR SWAP1 SSTORE POP POP JUMP JUMPDEST PUSH0 PUSH0 PUSH0 PUSH0 PUSH1 0x5 PUSH0 PUSH1 0x4 PUSH0 DUP10 PUSH20 0xFFFFFFFFFFFFFFFFFFFFFFFFFFFFFFFFFFFFFFFF AND PUSH20 0xFFFFFFFFFFFFFFFFFFFFFFFFFFFFFFFFFFFFFFFF AND DUP2 MSTORE PUSH1 0x20 ADD SWAP1 DUP2 MSTORE PUSH1 0x20 ADD PUSH0 KECCAK256 SLOAD DUP2 MSTORE PUSH1 0x20 ADD SWAP1 DUP2 MSTORE PUSH1 0x20 ADD PUSH0 KECCAK256 PUSH1 0x3 ADD DUP6 DUP2 SLOAD DUP2 LT PUSH2 0x93E JUMPI PUSH2 0x93D PUSH2 0x16F6 JUMP JUMPDEST JUMPDEST SWAP1 PUSH0 MSTORE PUSH1 0x20 PUSH0 KECCAK256 SWAP1 PUSH1 0x4 MUL ADD PUSH1 0x40 MLOAD DUP1 PUSH1 0x80 ADD PUSH1 0x40 MSTORE SWAP1 DUP2 PUSH0 DUP3 ADD SLOAD DUP2 MSTORE PUSH1 0x20 ADD PUSH1 0x1 DUP3 ADD SLOAD DUP2 MSTORE PUSH1 0x20 ADD PUSH1 0x2 DUP3 ADD SLOAD DUP2 MSTORE PUSH1 0x20 ADD PUSH1 0x3 DUP3 ADD PUSH0 SWAP1 SLOAD SWAP1 PUSH2 0x100 EXP SWAP1 DIV PUSH1 0xFF AND PUSH1 0xFF AND PUSH1 0xFF AND DUP2 MSTORE POP POP SWAP1 POP DUP1 PUSH0 ADD MLOAD DUP2 PUSH1 0x20 ADD MLOAD DUP3 PUSH1 0x40 ADD MLOAD SWAP4 POP SWAP4 POP SWAP4 POP POP SWAP3 POP SWAP3 POP SWAP3 JUMP JUMPDEST PUSH0 PUSH1 0x4 PUSH0 DUP4 PUSH20 0xFFFFFFFFFFFFFFFFFFFFFFFFFFFFFFFFFFFFFFFF AND PUSH20 0xFFFFFFFFFFFFFFFFFFFFFFFFFFFFFFFFFFFFFFFF AND DUP2 MSTORE PUSH1 0x20 ADD SWAP1 DUP2 MSTORE PUSH1 0x20 ADD PUSH0 KECCAK256 SLOAD SWAP1 POP SWAP2 SWAP1 POP JUMP JUMPDEST PUSH0 PUSH1 0x5 PUSH0 PUSH1 0x4 PUSH0 DUP6 PUSH20 0xFFFFFFFFFFFFFFFFFFFFFFFFFFFFFFFFFFFFFFFF AND PUSH20 0xFFFFFFFFFFFFFFFFFFFFFFFFFFFFFFFFFFFFFFFF AND DUP2 MSTORE PUSH1 0x20 ADD SWAP1 DUP2 MSTORE PUSH1 0x20 ADD PUSH0 KECCAK256 SLOAD DUP2 MSTORE PUSH1 0x20 ADD SWAP1 DUP2 MSTORE PUSH1 0x20 ADD PUSH0 KECCAK256 PUSH1 0x3 ADD DUP1 SLOAD SWAP1 POP SWAP1 POP SWAP2 SWAP1 POP JUMP JUMPDEST PUSH1 0x5 PUSH1 0x20 MSTORE DUP1 PUSH0 MSTORE PUSH1 0x40 PUSH0 KECCAK256 PUSH0 SWAP2 POP SWAP1 POP DUP1 PUSH0 ADD PUSH0 SWAP1 SLOAD SWAP1 PUSH2 0x100 EXP SWAP1 DIV PUSH20 0xFFFFFFFFFFFFFFFFFFFFFFFFFFFFFFFFFFFFFFFF AND SWAP1 DUP1 PUSH1 0x1 ADD SLOAD SWAP1 DUP1 PUSH1 0x2 ADD PUSH0 SWAP1 SLOAD SWAP1 PUSH2 0x100 EXP SWAP1 DIV PUSH1 0xFF AND SWAP1 POP DUP4 JUMP JUMPDEST PUSH1 0x4 PUSH1 0x20 MSTORE DUP1 PUSH0 MSTORE PUSH1 0x40 PUSH0 KECCAK256 PUSH0 SWAP2 POP SWAP1 POP SLOAD DUP2 JUMP JUMPDEST JUMP JUMPDEST JUMP JUMPDEST PUSH1 0x1 PUSH1 0x20 MSTORE DUP1 PUSH0 MSTORE PUSH1 0x40 PUSH0 KECCAK256 PUSH0 SWAP2 POP SWAP1 POP SLOAD DUP2 JUMP JUMPDEST PUSH0 PUSH1 0x1 PUSH0 PUSH0 PUSH1 0x15 SWAP1 SLOAD SWAP1 PUSH2 0x100 EXP SWAP1 DIV PUSH1 0xFF AND PUSH1 0xFF AND PUSH1 0xFF AND DUP2 MSTORE PUSH1 0x20 ADD SWAP1 DUP2 MSTORE PUSH1 0x20 ADD PUSH0 KECCAK256 SLOAD SWAP1 POP SWAP1 JUMP JUMPDEST PUSH0 PUSH0 SWAP1 SLOAD SWAP1 PUSH2 0x100 EXP SWAP1 DIV PUSH20 0xFFFFFFFFFFFFFFFFFFFFFFFFFFFFFFFFFFFFFFFF AND PUSH20 0xFFFFFFFFFFFFFFFFFFFFFFFFFFFFFFFFFFFFFFFF AND CALLER PUSH20 0xFFFFFFFFFFFFFFFFFFFFFFFFFFFFFFFFFFFFFFFF AND EQ PUSH2 0xB88 JUMPI PUSH1 0x40 MLOAD PUSH32 0x8C379A000000000000000000000000000000000000000000000000000000000 DUP2 MSTORE PUSH1 0x4 ADD PUSH2 0xB7F SWAP1 PUSH2 0x176D JUMP JUMPDEST PUSH1 0x40 MLOAD DUP1 SWAP2 SUB SWAP1 REVERT JUMPDEST DUP1 PUSH0 PUSH1 0x15 PUSH2 0x100 EXP DUP2 SLOAD DUP2 PUSH1 0xFF MUL NOT AND SWAP1 DUP4 PUSH1 0xFF AND MUL OR SWAP1 SSTORE POP POP JUMP JUMPDEST PUSH0 PUSH0 SWAP1 SLOAD SWAP1 PUSH2 0x100 EXP SWAP1 DIV PUSH20 0xFFFFFFFFFFFFFFFFFFFFFFFFFFFFFFFFFFFFFFFF AND DUP2 JUMP JUMPDEST PUSH0 PUSH1 0x5 PUSH0 DUP4 DUP2 MSTORE PUSH1 0x20 ADD SWAP1 DUP2 MSTORE PUSH1 0x20 ADD PUSH0 KECCAK256 PUSH0 ADD PUSH0 SWAP1 SLOAD SWAP1 PUSH2 0x100 EXP SWAP1 DIV PUSH20 0xFFFFFFFFFFFFFFFFFFFFFFFFFFFFFFFFFFFFFFFF AND SWAP1 POP SWAP2 SWAP1 POP JUMP JUMPDEST PUSH0 PUSH0 SWAP1 SLOAD SWAP1 PUSH2 0x100 EXP SWAP1 DIV PUSH20 0xFFFFFFFFFFFFFFFFFFFFFFFFFFFFFFFFFFFFFFFF AND PUSH20 0xFFFFFFFFFFFFFFFFFFFFFFFFFFFFFFFFFFFFFFFF AND CALLER PUSH20 0xFFFFFFFFFFFFFFFFFFFFFFFFFFFFFFFFFFFFFFFF AND EQ PUSH2 0xC92 JUMPI PUSH1 0x40 MLOAD PUSH32 0x8C379A000000000000000000000000000000000000000000000000000000000 DUP2 MSTORE PUSH1 0x4 ADD PUSH2 0xC89 SWAP1 PUSH2 0x176D JUMP JUMPDEST PUSH1 0x40 MLOAD DUP1 SWAP2 SUB SWAP1 REVERT JUMPDEST DUP1 PUSH1 0x1 PUSH0 DUP5 PUSH1 0xFF AND PUSH1 0xFF AND DUP2 MSTORE PUSH1 0x20 ADD SWAP1 DUP2 MSTORE PUSH1 0x20 ADD PUSH0 KECCAK256 DUP2 SWAP1 SSTORE POP POP POP JUMP JUMPDEST PUSH0 PUSH1 0x15 SWAP1 SLOAD SWAP1 PUSH2 0x100 EXP SWAP1 DIV PUSH1 0xFF AND DUP2 JUMP JUMPDEST PUSH1 0x3 SLOAD DUP2 JUMP JUMPDEST PUSH0 PUSH0 SWAP1 SLOAD SWAP1 PUSH2 0x100 EXP SWAP1 DIV PUSH20 0xFFFFFFFFFFFFFFFFFFFFFFFFFFFFFFFFFFFFFFFF AND PUSH20 0xFFFFFFFFFFFFFFFFFFFFFFFFFFFFFFFFFFFFFFFF AND CALLER PUSH20 0xFFFFFFFFFFFFFFFFFFFFFFFFFFFFFFFFFFFFFFFF AND EQ PUSH2 0xD58 JUMPI PUSH1 0x40 MLOAD PUSH32 0x8C379A000000000000000000000000000000000000000000000000000000000 DUP2 MSTORE PUSH1 0x4 ADD PUSH2 0xD4F SWAP1 PUSH2 0x176D JUMP JUMPDEST PUSH1 0x40 MLOAD DUP1 SWAP2 SUB SWAP1 REVERT JUMPDEST PUSH0 PUSH1 0x4 PUSH0 DUP5 PUSH20 0xFFFFFFFFFFFFFFFFFFFFFFFFFFFFFFFFFFFFFFFF AND PUSH20 0xFFFFFFFFFFFFFFFFFFFFFFFFFFFFFFFFFFFFFFFF AND DUP2 MSTORE PUSH1 0x20 ADD SWAP1 DUP2 MSTORE PUSH1 0x20 ADD PUSH0 KECCAK256 SLOAD SUB PUSH2 0xDD7 JUMPI PUSH1 0x40 MLOAD PUSH32 0x8C379A000000000000000000000000000000000000000000000000000000000 DUP2 MSTORE PUSH1 0x4 ADD PUSH2 0xDCE SWAP1 PUSH2 0x17D5 JUMP JUMPDEST PUSH1 0x40 MLOAD DUP1 SWAP2 SUB SWAP1 REVERT JUMPDEST DUP1 PUSH1 0x5 PUSH0 PUSH1 0x4 PUSH0 DUP7 PUSH20 0xFFFFFFFFFFFFFFFFFFFFFFFFFFFFFFFFFFFFFFFF AND PUSH20 0xFFFFFFFFFFFFFFFFFFFFFFFFFFFFFFFFFFFFFFFF AND DUP2 MSTORE PUSH1 0x20 ADD SWAP1 DUP2 MSTORE PUSH1 0x20 ADD PUSH0 KECCAK256 SLOAD DUP2 MSTORE PUSH1 0x20 ADD SWAP1 DUP2 MSTORE PUSH1 0x20 ADD PUSH0 KECCAK256 PUSH1 0x1 ADD PUSH0 DUP3 DUP3 SLOAD PUSH2 0xE37 SWAP2 SWAP1 PUSH2 0x17F3 JUMP JUMPDEST SWAP3 POP POP DUP2 SWAP1 SSTORE POP POP POP JUMP JUMPDEST PUSH0 PUSH0 SWAP1 SLOAD SWAP1 PUSH2 0x100 EXP SWAP1 DIV PUSH20 0xFFFFFFFFFFFFFFFFFFFFFFFFFFFFFFFFFFFFFFFF AND PUSH20 0xFFFFFFFFFFFFFFFFFFFFFFFFFFFFFFFFFFFFFFFF AND CALLER PUSH20 0xFFFFFFFFFFFFFFFFFFFFFFFFFFFFFFFFFFFFFFFF AND EQ PUSH2 0xED0 JUMPI PUSH1 0x40 MLOAD PUSH32 0x8C379A000000000000000000000000000000000000000000000000000000000 DUP2 MSTORE PUSH1 0x4 ADD PUSH2 0xEC7 SWAP1 PUSH2 0x176D JUMP JUMPDEST PUSH1 0x40 MLOAD DUP1 SWAP2 SUB SWAP1 REVERT JUMPDEST PUSH0 PUSH20 0xFFFFFFFFFFFFFFFFFFFFFFFFFFFFFFFFFFFFFFFF AND DUP2 PUSH20 0xFFFFFFFFFFFFFFFFFFFFFFFFFFFFFFFFFFFFFFFF AND SUB PUSH2 0xF3E JUMPI PUSH1 0x40 MLOAD PUSH32 0x8C379A000000000000000000000000000000000000000000000000000000000 DUP2 MSTORE PUSH1 0x4 ADD PUSH2 0xF35 SWAP1 PUSH2 0x1870 JUMP JUMPDEST PUSH1 0x40 MLOAD DUP1 SWAP2 SUB SWAP1 REVERT JUMPDEST DUP1 PUSH20 0xFFFFFFFFFFFFFFFFFFFFFFFFFFFFFFFFFFFFFFFF AND PUSH2 0x8FC SELFBALANCE SWAP1 DUP2 ISZERO MUL SWAP1 PUSH1 0x40 MLOAD PUSH0 PUSH1 0x40 MLOAD DUP1 DUP4 SUB DUP2 DUP6 DUP9 DUP9 CALL SWAP4 POP POP POP POP ISZERO DUP1 ISZERO PUSH2 0xF81 JUMPI RETURNDATASIZE PUSH0 PUSH0 RETURNDATACOPY RETURNDATASIZE PUSH0 REVERT JUMPDEST POP POP JUMP JUMPDEST PUSH0 PUSH1 0x5 PUSH0 PUSH1 0x4 PUSH0 DUP6 PUSH20 0xFFFFFFFFFFFFFFFFFFFFFFFFFFFFFFFFFFFFFFFF AND PUSH20 0xFFFFFFFFFFFFFFFFFFFFFFFFFFFFFFFFFFFFFFFF AND DUP2 MSTORE PUSH1 0x20 ADD SWAP1 DUP2 MSTORE PUSH1 0x20 ADD PUSH0 KECCAK256 SLOAD DUP2 MSTORE PUSH1 0x20 ADD SWAP1 DUP2 MSTORE PUSH1 0x20 ADD PUSH0 KECCAK256 PUSH1 0x1 ADD SLOAD SWAP1 POP SWAP2 SWAP1 POP JUMP JUMPDEST DUP3 DUP1 SLOAD DUP3 DUP3 SSTORE SWAP1 PUSH0 MSTORE PUSH1 0x20 PUSH0 KECCAK256 SWAP1 PUSH1 0x4 MUL DUP2 ADD SWAP3 DUP3 ISZERO PUSH2 0x106A JUMPI PUSH0 MSTORE PUSH1 0x20 PUSH0 KECCAK256 SWAP2 PUSH1 0x4 MUL DUP3 ADD JUMPDEST DUP3 DUP2 GT ISZERO PUSH2 0x1069 JUMPI DUP3 DUP3 PUSH0 DUP3 ADD SLOAD DUP2 PUSH0 ADD SSTORE PUSH1 0x1 DUP3 ADD SLOAD DUP2 PUSH1 0x1 ADD SSTORE PUSH1 0x2 DUP3 ADD SLOAD DUP2 PUSH1 0x2 ADD SSTORE PUSH1 0x3 DUP3 ADD PUSH0 SWAP1 SLOAD SWAP1 PUSH2 0x100 EXP SWAP1 DIV PUSH1 0xFF AND DUP2 PUSH1 0x3 ADD PUSH0 PUSH2 0x100 EXP DUP2 SLOAD DUP2 PUSH1 0xFF MUL NOT AND SWAP1 DUP4 PUSH1 0xFF AND MUL OR SWAP1 SSTORE POP POP POP SWAP2 PUSH1 0x4 ADD SWAP2 SWAP1 PUSH1 0x4 ADD SWAP1 PUSH2 0x1006 JUMP JUMPDEST JUMPDEST POP SWAP1 POP PUSH2 0x1077 SWAP2 SWAP1 PUSH2 0x107B JUMP JUMPDEST POP SWAP1 JUMP JUMPDEST JUMPDEST DUP1 DUP3 GT ISZERO PUSH2 0x10B5 JUMPI PUSH0 PUSH0 DUP3 ADD PUSH0 SWAP1 SSTORE PUSH1 0x1 DUP3 ADD PUSH0 SWAP1 SSTORE PUSH1 0x2 DUP3 ADD PUSH0 SWAP1 SSTORE PUSH1 0x3 DUP3 ADD PUSH0 PUSH2 0x100 EXP DUP2 SLOAD SWAP1 PUSH1 0xFF MUL NOT AND SWAP1 SSTORE POP PUSH1 0x4 ADD PUSH2 0x107C JUMP JUMPDEST POP SWAP1 JUMP JUMPDEST PUSH0 DUP3 DUP3 MSTORE PUSH1 0x20 DUP3 ADD SWAP1 POP SWAP3 SWAP2 POP POP JUMP JUMPDEST PUSH32 0x53656E6420424E4220746F206275792054505400000000000000000000000000 PUSH0 DUP3 ADD MSTORE POP JUMP JUMPDEST PUSH0 PUSH2 0x10FD PUSH1 0x13 DUP4 PUSH2 0x10B9 JUMP JUMPDEST SWAP2 POP PUSH2 0x1108 DUP3 PUSH2 0x10C9 JUMP JUMPDEST PUSH1 0x20 DUP3 ADD SWAP1 POP SWAP2 SWAP1 POP JUMP JUMPDEST PUSH0 PUSH1 0x20 DUP3 ADD SWAP1 POP DUP2 DUP2 SUB PUSH0 DUP4 ADD MSTORE PUSH2 0x112A DUP2 PUSH2 0x10F1 JUMP JUMPDEST SWAP1 POP SWAP2 SWAP1 POP JUMP JUMPDEST PUSH32 0x496E76616C69642064617461206C656E67746800000000000000000000000000 PUSH0 DUP3 ADD MSTORE POP JUMP JUMPDEST PUSH0 PUSH2 0x1165 PUSH1 0x13 DUP4 PUSH2 0x10B9 JUMP JUMPDEST SWAP2 POP PUSH2 0x1170 DUP3 PUSH2 0x1131 JUMP JUMPDEST PUSH1 0x20 DUP3 ADD SWAP1 POP SWAP2 SWAP1 POP JUMP JUMPDEST PUSH0 PUSH1 0x20 DUP3 ADD SWAP1 POP DUP2 DUP2 SUB PUSH0 DUP4 ADD MSTORE PUSH2 0x1192 DUP2 PUSH2 0x1159 JUMP JUMPDEST SWAP1 POP SWAP2 SWAP1 POP JUMP JUMPDEST PUSH0 PUSH0 REVERT JUMPDEST PUSH0 DUP2 ISZERO ISZERO SWAP1 POP SWAP2 SWAP1 POP JUMP JUMPDEST PUSH2 0x11B1 DUP2 PUSH2 0x119D JUMP JUMPDEST DUP2 EQ PUSH2 0x11BB JUMPI PUSH0 PUSH0 REVERT JUMPDEST POP JUMP JUMPDEST PUSH0 DUP2 CALLDATALOAD SWAP1 POP PUSH2 0x11CC DUP2 PUSH2 0x11A8 JUMP JUMPDEST SWAP3 SWAP2 POP POP JUMP JUMPDEST PUSH0 PUSH1 0x20 DUP3 DUP5 SUB SLT ISZERO PUSH2 0x11E7 JUMPI PUSH2 0x11E6 PUSH2 0x1199 JUMP JUMPDEST JUMPDEST PUSH0 PUSH2 0x11F4 DUP5 DUP3 DUP6 ADD PUSH2 0x11BE JUMP JUMPDEST SWAP2 POP POP SWAP3 SWAP2 POP POP JUMP JUMPDEST PUSH0 PUSH20 0xFFFFFFFFFFFFFFFFFFFFFFFFFFFFFFFFFFFFFFFF DUP3 AND SWAP1 POP SWAP2 SWAP1 POP JUMP JUMPDEST PUSH0 PUSH2 0x1226 DUP3 PUSH2 0x11FD JUMP JUMPDEST SWAP1 POP SWAP2 SWAP1 POP JUMP JUMPDEST PUSH2 0x1236 DUP2 PUSH2 0x121C JUMP JUMPDEST DUP2 EQ PUSH2 0x1240 JUMPI PUSH0 PUSH0 REVERT JUMPDEST POP JUMP JUMPDEST PUSH0 DUP2 CALLDATALOAD SWAP1 POP PUSH2 0x1251 DUP2 PUSH2 0x122D JUMP JUMPDEST SWAP3 SWAP2 POP POP JUMP JUMPDEST PUSH0 DUP2 SWAP1 POP SWAP2 SWAP1 POP JUMP JUMPDEST PUSH2 0x1269 DUP2 PUSH2 0x1257 JUMP JUMPDEST DUP2 EQ PUSH2 0x1273 JUMPI PUSH0 PUSH0 REVERT JUMPDEST POP JUMP JUMPDEST PUSH0 DUP2 CALLDATALOAD SWAP1 POP PUSH2 0x1284 DUP2 PUSH2 0x1260 JUMP JUMPDEST SWAP3 SWAP2 POP POP JUMP JUMPDEST PUSH0 PUSH0 PUSH1 0x40 DUP4 DUP6 SUB SLT ISZERO PUSH2 0x12A0 JUMPI PUSH2 0x129F PUSH2 0x1199 JUMP JUMPDEST JUMPDEST PUSH0 PUSH2 0x12AD DUP6 DUP3 DUP7 ADD PUSH2 0x1243 JUMP JUMPDEST SWAP3 POP POP PUSH1 0x20 PUSH2 0x12BE DUP6 DUP3 DUP7 ADD PUSH2 0x1276 JUMP JUMPDEST SWAP2 POP POP SWAP3 POP SWAP3 SWAP1 POP JUMP JUMPDEST PUSH2 0x12D1 DUP2 PUSH2 0x1257 JUMP JUMPDEST DUP3 MSTORE POP POP JUMP JUMPDEST PUSH0 PUSH1 0x60 DUP3 ADD SWAP1 POP PUSH2 0x12EA PUSH0 DUP4 ADD DUP7 PUSH2 0x12C8 JUMP JUMPDEST PUSH2 0x12F7 PUSH1 0x20 DUP4 ADD DUP6 PUSH2 0x12C8 JUMP JUMPDEST PUSH2 0x1304 PUSH1 0x40 DUP4 ADD DUP5 PUSH2 0x12C8 JUMP JUMPDEST SWAP5 SWAP4 POP POP POP POP JUMP JUMPDEST PUSH0 PUSH1 0x20 DUP3 DUP5 SUB SLT ISZERO PUSH2 0x1321 JUMPI PUSH2 0x1320 PUSH2 0x1199 JUMP JUMPDEST JUMPDEST PUSH0 PUSH2 0x132E DUP5 DUP3 DUP6 ADD PUSH2 0x1243 JUMP JUMPDEST SWAP2 POP POP SWAP3 SWAP2 POP POP JUMP JUMPDEST PUSH0 PUSH1 0x20 DUP3 ADD SWAP1 POP PUSH2 0x134A PUSH0 DUP4 ADD DUP5 PUSH2 0x12C8 JUMP JUMPDEST SWAP3 SWAP2 POP POP JUMP JUMPDEST PUSH0 PUSH1 0x20 DUP3 DUP5 SUB SLT ISZERO PUSH2 0x1365 JUMPI PUSH2 0x1364 PUSH2 0x1199 JUMP JUMPDEST JUMPDEST PUSH0 PUSH2 0x1372 DUP5 DUP3 DUP6 ADD PUSH2 0x1276 JUMP JUMPDEST SWAP2 POP POP SWAP3 SWAP2 POP POP JUMP JUMPDEST PUSH2 0x1384 DUP2 PUSH2 0x121C JUMP JUMPDEST DUP3 MSTORE POP POP JUMP JUMPDEST PUSH2 0x1393 DUP2 PUSH2 0x119D JUMP JUMPDEST DUP3 MSTORE POP POP JUMP JUMPDEST PUSH0 PUSH1 0x60 DUP3 ADD SWAP1 POP PUSH2 0x13AC PUSH0 DUP4 ADD DUP7 PUSH2 0x137B JUMP JUMPDEST PUSH2 0x13B9 PUSH1 0x20 DUP4 ADD DUP6 PUSH2 0x12C8 JUMP JUMPDEST PUSH2 0x13C6 PUSH1 0x40 DUP4 ADD DUP5 PUSH2 0x138A JUMP JUMPDEST SWAP5 SWAP4 POP POP POP POP JUMP JUMPDEST PUSH0 PUSH1 0xFF DUP3 AND SWAP1 POP SWAP2 SWAP1 POP JUMP JUMPDEST PUSH2 0x13E3 DUP2 PUSH2 0x13CE JUMP JUMPDEST DUP2 EQ PUSH2 0x13ED JUMPI PUSH0 PUSH0 REVERT JUMPDEST POP JUMP JUMPDEST PUSH0 DUP2 CALLDATALOAD SWAP1 POP PUSH2 0x13FE DUP2 PUSH2 0x13DA JUMP JUMPDEST SWAP3 SWAP2 POP POP JUMP JUMPDEST PUSH0 PUSH1 0x20 DUP3 DUP5 SUB SLT ISZERO PUSH2 0x1419 JUMPI PUSH2 0x1418 PUSH2 0x1199 JUMP JUMPDEST JUMPDEST PUSH0 PUSH2 0x1426 DUP5 DUP3 DUP6 ADD PUSH2 0x13F0 JUMP JUMPDEST SWAP2 POP POP SWAP3 SWAP2 POP POP JUMP JUMPDEST PUSH0 PUSH1 0x20 DUP3 ADD SWAP1 POP PUSH2 0x1442 PUSH0 DUP4 ADD DUP5 PUSH2 0x137B JUMP JUMPDEST SWAP3 SWAP2 POP POP JUMP JUMPDEST PUSH0 PUSH0 PUSH1 0x40 DUP4 DUP6 SUB SLT ISZERO PUSH2 0x145E JUMPI PUSH2 0x145D PUSH2 0x1199 JUMP JUMPDEST JUMPDEST PUSH0 PUSH2 0x146B DUP6 DUP3 DUP7 ADD PUSH2 0x13F0 JUMP JUMPDEST SWAP3 POP POP PUSH1 0x20 PUSH2 0x147C DUP6 DUP3 DUP7 ADD PUSH2 0x1276 JUMP JUMPDEST SWAP2 POP POP SWAP3 POP SWAP3 SWAP1 POP JUMP JUMPDEST PUSH2 0x148F DUP2 PUSH2 0x13CE JUMP JUMPDEST DUP3 MSTORE POP POP JUMP JUMPDEST PUSH0 PUSH1 0x20 DUP3 ADD SWAP1 POP PUSH2 0x14A8 PUSH0 DUP4 ADD DUP5 PUSH2 0x1486 JUMP JUMPDEST SWAP3 SWAP2 POP POP JUMP JUMPDEST PUSH0 PUSH2 0x14B8 DUP3 PUSH2 0x11FD JUMP JUMPDEST SWAP1 POP SWAP2 SWAP1 POP JUMP JUMPDEST PUSH2 0x14C8 DUP2 PUSH2 0x14AE JUMP JUMPDEST DUP2 EQ PUSH2 0x14D2 JUMPI PUSH0 PUSH0 REVERT JUMPDEST POP JUMP JUMPDEST PUSH0 DUP2 CALLDATALOAD SWAP1 POP PUSH2 0x14E3 DUP2 PUSH2 0x14BF JUMP JUMPDEST SWAP3 SWAP2 POP POP JUMP JUMPDEST PUSH0 PUSH1 0x20 DUP3 DUP5 SUB SLT ISZERO PUSH2 0x14FE JUMPI PUSH2 0x14FD PUSH2 0x1199 JUMP JUMPDEST JUMPDEST PUSH0 PUSH2 0x150B DUP5 DUP3 DUP6 ADD PUSH2 0x14D5 JUMP JUMPDEST SWAP2 POP POP SWAP3 SWAP2 POP POP JUMP JUMPDEST PUSH32 0x436F6E7472616374205061757365640000000000000000000000000000000000 PUSH0 DUP3 ADD MSTORE POP JUMP JUMPDEST PUSH0 PUSH2 0x1548 PUSH1 0xF DUP4 PUSH2 0x10B9 JUMP JUMPDEST SWAP2 POP PUSH2 0x1553 DUP3 PUSH2 0x1514 JUMP JUMPDEST PUSH1 0x20 DUP3 ADD SWAP1 POP SWAP2 SWAP1 POP JUMP JUMPDEST PUSH0 PUSH1 0x20 DUP3 ADD SWAP1 POP DUP2 DUP2 SUB PUSH0 DUP4 ADD MSTORE PUSH2 0x1575 DUP2 PUSH2 0x153C JUMP JUMPDEST SWAP1 POP SWAP2 SWAP1 POP JUMP JUMPDEST PUSH32 0x4E6F205265656E7472616E63792C706C73207761697400000000000000000000 PUSH0 DUP3 ADD MSTORE POP JUMP JUMPDEST PUSH0 PUSH2 0x15B0 PUSH1 0x16 DUP4 PUSH2 0x10B9 JUMP JUMPDEST SWAP2 POP PUSH2 0x15BB DUP3 PUSH2 0x157C JUMP JUMPDEST PUSH1 0x20 DUP3 ADD SWAP1 POP SWAP2 SWAP1 POP JUMP JUMPDEST PUSH0 PUSH1 0x20 DUP3 ADD SWAP1 POP DUP2 DUP2 SUB PUSH0 DUP4 ADD MSTORE PUSH2 0x15DD DUP2 PUSH2 0x15A4 JUMP JUMPDEST SWAP1 POP SWAP2 SWAP1 POP JUMP JUMPDEST PUSH32 0x4E487B7100000000000000000000000000000000000000000000000000000000 PUSH0 MSTORE PUSH1 0x11 PUSH1 0x4 MSTORE PUSH1 0x24 PUSH0 REVERT JUMPDEST PUSH0 PUSH2 0x161B DUP3 PUSH2 0x1257 JUMP JUMPDEST SWAP2 POP PUSH2 0x1626 DUP4 PUSH2 0x1257 JUMP JUMPDEST SWAP3 POP DUP3 DUP3 MUL PUSH2 0x1634 DUP2 PUSH2 0x1257 JUMP JUMPDEST SWAP2 POP DUP3 DUP3 DIV DUP5 EQ DUP4 ISZERO OR PUSH2 0x164B JUMPI PUSH2 0x164A PUSH2 0x15E4 JUMP JUMPDEST JUMPDEST POP SWAP3 SWAP2 POP POP JUMP JUMPDEST PUSH32 0x4E487B7100000000000000000000000000000000000000000000000000000000 PUSH0 MSTORE PUSH1 0x12 PUSH1 0x4 MSTORE PUSH1 0x24 PUSH0 REVERT JUMPDEST PUSH0 PUSH2 0x1689 DUP3 PUSH2 0x1257 JUMP JUMPDEST SWAP2 POP PUSH2 0x1694 DUP4 PUSH2 0x1257 JUMP JUMPDEST SWAP3 POP DUP3 PUSH2 0x16A4 JUMPI PUSH2 0x16A3 PUSH2 0x1652 JUMP JUMPDEST JUMPDEST DUP3 DUP3 DIV SWAP1 POP SWAP3 SWAP2 POP POP JUMP JUMPDEST PUSH0 PUSH2 0x16B9 DUP3 PUSH2 0x1257 JUMP JUMPDEST SWAP2 POP PUSH32 0xFFFFFFFFFFFFFFFFFFFFFFFFFFFFFFFFFFFFFFFFFFFFFFFFFFFFFFFFFFFFFFFF DUP3 SUB PUSH2 0x16EB JUMPI PUSH2 0x16EA PUSH2 0x15E4 JUMP JUMPDEST JUMPDEST PUSH1 0x1 DUP3 ADD SWAP1 POP SWAP2 SWAP1 POP JUMP JUMPDEST PUSH32 0x4E487B7100000000000000000000000000000000000000000000000000000000 PUSH0 MSTORE PUSH1 0x32 PUSH1 0x4 MSTORE PUSH1 0x24 PUSH0 REVERT JUMPDEST PUSH32 0x4F6E6C79206F776E657200000000000000000000000000000000000000000000 PUSH0 DUP3 ADD MSTORE POP JUMP JUMPDEST PUSH0 PUSH2 0x1757 PUSH1 0xA DUP4 PUSH2 0x10B9 JUMP JUMPDEST SWAP2 POP PUSH2 0x1762 DUP3 PUSH2 0x1723 JUMP JUMPDEST PUSH1 0x20 DUP3 ADD SWAP1 POP SWAP2 SWAP1 POP JUMP JUMPDEST PUSH0 PUSH1 0x20 DUP3 ADD SWAP1 POP DUP2 DUP2 SUB PUSH0 DUP4 ADD MSTORE PUSH2 0x1784 DUP2 PUSH2 0x174B JUMP JUMPDEST SWAP1 POP SWAP2 SWAP1 POP JUMP JUMPDEST PUSH32 0x496E76616C696420757365722049440000000000000000000000000000000000 PUSH0 DUP3 ADD MSTORE POP JUMP JUMPDEST PUSH0 PUSH2 0x17BF PUSH1 0xF DUP4 PUSH2 0x10B9 JUMP JUMPDEST SWAP2 POP PUSH2 0x17CA DUP3 PUSH2 0x178B JUMP JUMPDEST PUSH1 0x20 DUP3 ADD SWAP1 POP SWAP2 SWAP1 POP JUMP JUMPDEST PUSH0 PUSH1 0x20 DUP3 ADD SWAP1 POP DUP2 DUP2 SUB PUSH0 DUP4 ADD MSTORE PUSH2 0x17EC DUP2 PUSH2 0x17B3 JUMP JUMPDEST SWAP1 POP SWAP2 SWAP1 POP JUMP JUMPDEST PUSH0 PUSH2 0x17FD DUP3 PUSH2 0x1257 JUMP JUMPDEST SWAP2 POP PUSH2 0x1808 DUP4 PUSH2 0x1257 JUMP JUMPDEST SWAP3 POP DUP3 DUP3 ADD SWAP1 POP DUP1 DUP3 GT ISZERO PUSH2 0x1820 JUMPI PUSH2 0x181F PUSH2 0x15E4 JUMP JUMPDEST JUMPDEST SWAP3 SWAP2 POP POP JUMP JUMPDEST PUSH32 0x496E76616C696420616464726573730000000000000000000000000000000000 PUSH0 DUP3 ADD MSTORE POP JUMP JUMPDEST PUSH0 PUSH2 0x185A PUSH1 0xF DUP4 PUSH2 0x10B9 JUMP JUMPDEST SWAP2 POP PUSH2 0x1865 DUP3 PUSH2 0x1826 JUMP JUMPDEST PUSH1 0x20 DUP3 ADD SWAP1 POP SWAP2 SWAP1 POP JUMP JUMPDEST PUSH0 PUSH1 0x20 DUP3 ADD SWAP1 POP DUP2 DUP2 SUB PUSH0 DUP4 ADD MSTORE PUSH2 0x1887 DUP2 PUSH2 0x184E JUMP JUMPDEST SWAP1 POP SWAP2 SWAP1 POP JUMP INVALID LOG2 PUSH5 0x6970667358 0x22 SLT KECCAK256 PUSH23 0xF53626083560AFDE1F4DE8E5C550AD9D393D4ED8085EC0 COINBASE PUSH16 0x53DF16ECA39064736F6C634300081E00 CALLER "
				},
				"gasEstimates": {
					"creation": {
						"codeDepositCost": "1268000",
						"executionCost": "infinite",
						"totalCost": "infinite"
					},
					"external": {
						"": "infinite",
						"activeOffer()": "188",
						"buyTPTWithOffer()": "210",
						"getPurchase(address,uint256)": "infinite",
						"getPurchaseCount(address)": "5087",
						"getThisStepPrice()": "4816",
						"getUserAddress(uint256)": "2924",
						"getUserId(address)": "2875",
						"getUserTPTBalance(address)": "5121",
						"grantPointsById(address,uint256)": "infinite",
						"owner()": "2552",
						"setTPTPrice(uint8,uint256)": "25036",
						"setThisStep(uint8)": "26914",
						"thisStep()": "2538",
						"totalUsers()": "2469",
						"tptPrice(uint8)": "2849",
						"userId(address)": "2825",
						"users(uint256)": "infinite",
						"withdrawAll(address)": "infinite"
					},
					"internal": {
						"buyTPT(bool)": "infinite"
					}
				},
				"methodIdentifiers": {
					"activeOffer()": "419dd841",
					"buyTPTWithOffer()": "4c957dca",
					"getPurchase(address,uint256)": "2a2a92cc",
					"getPurchaseCount(address)": "31bbf555",
					"getThisStepPrice()": "672cbe1a",
					"getUserAddress(uint256)": "90d976e2",
					"getUserId(address)": "2b956ff7",
					"getUserTPTBalance(address)": "fdbb6696",
					"grantPointsById(address,uint256)": "ca90d6e6",
					"owner()": "8da5cb5b",
					"setTPTPrice(uint8,uint256)": "a2f5546e",
					"setThisStep(uint8)": "7ce8a08e",
					"thisStep()": "ae243031",
					"totalUsers()": "bff1f9e1",
					"tptPrice(uint8)": "556a7579",
					"userId(address)": "376fe102",
					"users(uint256)": "365b98b2",
					"withdrawAll(address)": "fa09e630"
				}
			},
			"storageLayout": {
				"storage": [
					{
						"astId": 17,
						"contract": "contracts/PTPPreSale.sol:TPTPreSale",
						"label": "owner",
						"offset": 0,
						"slot": "0",
						"type": "t_address"
					},
					{
						"astId": 19,
						"contract": "contracts/PTPPreSale.sol:TPTPreSale",
						"label": "locked",
						"offset": 20,
						"slot": "0",
						"type": "t_bool"
					},
					{
						"astId": 21,
						"contract": "contracts/PTPPreSale.sol:TPTPreSale",
						"label": "thisStep",
						"offset": 21,
						"slot": "0",
						"type": "t_uint8"
					},
					{
						"astId": 25,
						"contract": "contracts/PTPPreSale.sol:TPTPreSale",
						"label": "tptPrice",
						"offset": 0,
						"slot": "1",
						"type": "t_mapping(t_uint8,t_uint256)"
					},
					{
						"astId": 28,
						"contract": "contracts/PTPPreSale.sol:TPTPreSale",
						"label": "iBNBPrice",
						"offset": 0,
						"slot": "2",
						"type": "t_contract(IBNBPrice)12"
					},
					{
						"astId": 30,
						"contract": "contracts/PTPPreSale.sol:TPTPreSale",
						"label": "totalUsers",
						"offset": 0,
						"slot": "3",
						"type": "t_uint256"
					},
					{
						"astId": 54,
						"contract": "contracts/PTPPreSale.sol:TPTPreSale",
						"label": "userId",
						"offset": 0,
						"slot": "4",
						"type": "t_mapping(t_address,t_uint256)"
					},
					{
						"astId": 59,
						"contract": "contracts/PTPPreSale.sol:TPTPreSale",
						"label": "users",
						"offset": 0,
						"slot": "5",
						"type": "t_mapping(t_uint256,t_struct(UserInfo)50_storage)"
					}
				],
				"types": {
					"t_address": {
						"encoding": "inplace",
						"label": "address",
						"numberOfBytes": "20"
					},
					"t_array(t_struct(Purchase)39_storage)dyn_storage": {
						"base": "t_struct(Purchase)39_storage",
						"encoding": "dynamic_array",
						"label": "struct TPTPreSale.Purchase[]",
						"numberOfBytes": "32"
					},
					"t_bool": {
						"encoding": "inplace",
						"label": "bool",
						"numberOfBytes": "1"
					},
					"t_contract(IBNBPrice)12": {
						"encoding": "inplace",
						"label": "contract IBNBPrice",
						"numberOfBytes": "20"
					},
					"t_mapping(t_address,t_uint256)": {
						"encoding": "mapping",
						"key": "t_address",
						"label": "mapping(address => uint256)",
						"numberOfBytes": "32",
						"value": "t_uint256"
					},
					"t_mapping(t_uint256,t_struct(UserInfo)50_storage)": {
						"encoding": "mapping",
						"key": "t_uint256",
						"label": "mapping(uint256 => struct TPTPreSale.UserInfo)",
						"numberOfBytes": "32",
						"value": "t_struct(UserInfo)50_storage"
					},
					"t_mapping(t_uint8,t_uint256)": {
						"encoding": "mapping",
						"key": "t_uint8",
						"label": "mapping(uint8 => uint256)",
						"numberOfBytes": "32",
						"value": "t_uint256"
					},
					"t_struct(Purchase)39_storage": {
						"encoding": "inplace",
						"label": "struct TPTPreSale.Purchase",
						"members": [
							{
								"astId": 32,
								"contract": "contracts/PTPPreSale.sol:TPTPreSale",
								"label": "timestamp",
								"offset": 0,
								"slot": "0",
								"type": "t_uint256"
							},
							{
								"astId": 34,
								"contract": "contracts/PTPPreSale.sol:TPTPreSale",
								"label": "bnbAmount",
								"offset": 0,
								"slot": "1",
								"type": "t_uint256"
							},
							{
								"astId": 36,
								"contract": "contracts/PTPPreSale.sol:TPTPreSale",
								"label": "tptAmount",
								"offset": 0,
								"slot": "2",
								"type": "t_uint256"
							},
							{
								"astId": 38,
								"contract": "contracts/PTPPreSale.sol:TPTPreSale",
								"label": "step",
								"offset": 0,
								"slot": "3",
								"type": "t_uint8"
							}
						],
						"numberOfBytes": "128"
					},
					"t_struct(UserInfo)50_storage": {
						"encoding": "inplace",
						"label": "struct TPTPreSale.UserInfo",
						"members": [
							{
								"astId": 41,
								"contract": "contracts/PTPPreSale.sol:TPTPreSale",
								"label": "walletAddress",
								"offset": 0,
								"slot": "0",
								"type": "t_address"
							},
							{
								"astId": 43,
								"contract": "contracts/PTPPreSale.sol:TPTPreSale",
								"label": "tptBalance",
								"offset": 0,
								"slot": "1",
								"type": "t_uint256"
							},
							{
								"astId": 45,
								"contract": "contracts/PTPPreSale.sol:TPTPreSale",
								"label": "hasOffer",
								"offset": 0,
								"slot": "2",
								"type": "t_bool"
							},
							{
								"astId": 49,
								"contract": "contracts/PTPPreSale.sol:TPTPreSale",
								"label": "purchaseList",
								"offset": 0,
								"slot": "3",
								"type": "t_array(t_struct(Purchase)39_storage)dyn_storage"
							}
						],
						"numberOfBytes": "128"
					},
					"t_uint256": {
						"encoding": "inplace",
						"label": "uint256",
						"numberOfBytes": "32"
					},
					"t_uint8": {
						"encoding": "inplace",
						"label": "uint8",
						"numberOfBytes": "1"
					}
				}
			},
			"userdoc": {
				"kind": "user",
				"methods": {},
				"version": 1
			}
		}
	}
}