{
	"contracts/TPTPreSale.sol": {
		"TPTPreSale": {
			"abi": [
				{
					"inputs": [
						{
							"internalType": "address payable",
							"name": "_priceContract",
							"type": "address"
						}
					],
					"stateMutability": "nonpayable",
					"type": "constructor"
				},
				{
					"stateMutability": "payable",
					"type": "fallback"
				},
				{
					"inputs": [],
					"name": "getPriceMode",
					"outputs": [
						{
							"internalType": "string",
							"name": "",
							"type": "string"
						}
					],
					"stateMutability": "view",
					"type": "function"
				},
				{
					"inputs": [
						{
							"internalType": "address",
							"name": "_userAddress",
							"type": "address"
						},
						{
							"internalType": "uint256",
							"name": "index",
							"type": "uint256"
						}
					],
					"name": "getPurchase",
					"outputs": [
						{
							"components": [
								{
									"internalType": "uint256",
									"name": "timestamp",
									"type": "uint256"
								},
								{
									"internalType": "uint256",
									"name": "bnbAmount",
									"type": "uint256"
								},
								{
									"internalType": "uint256",
									"name": "tptAmount",
									"type": "uint256"
								},
								{
									"internalType": "uint8",
									"name": "step",
									"type": "uint8"
								}
							],
							"internalType": "struct TPTPreSale.Purchase",
							"name": "",
							"type": "tuple"
						}
					],
					"stateMutability": "view",
					"type": "function"
				},
				{
					"inputs": [
						{
							"internalType": "address",
							"name": "_userAddress",
							"type": "address"
						}
					],
					"name": "getPurchaseCount",
					"outputs": [
						{
							"internalType": "uint256",
							"name": "",
							"type": "uint256"
						}
					],
					"stateMutability": "view",
					"type": "function"
				},
				{
					"inputs": [],
					"name": "getThisStepPrice",
					"outputs": [
						{
							"internalType": "uint256",
							"name": "",
							"type": "uint256"
						}
					],
					"stateMutability": "view",
					"type": "function"
				},
				{
					"inputs": [
						{
							"internalType": "uint256",
							"name": "id",
							"type": "uint256"
						}
					],
					"name": "getUser",
					"outputs": [
						{
							"components": [
								{
									"internalType": "address",
									"name": "walletAddress",
									"type": "address"
								},
								{
									"internalType": "uint256",
									"name": "tptBalance",
									"type": "uint256"
								},
								{
									"internalType": "bool",
									"name": "hasOffer",
									"type": "bool"
								},
								{
									"components": [
										{
											"internalType": "uint256",
											"name": "timestamp",
											"type": "uint256"
										},
										{
											"internalType": "uint256",
											"name": "bnbAmount",
											"type": "uint256"
										},
										{
											"internalType": "uint256",
											"name": "tptAmount",
											"type": "uint256"
										},
										{
											"internalType": "uint8",
											"name": "step",
											"type": "uint8"
										}
									],
									"internalType": "struct TPTPreSale.Purchase[]",
									"name": "purchaseList",
									"type": "tuple[]"
								}
							],
							"internalType": "struct TPTPreSale.UserInfo",
							"name": "",
							"type": "tuple"
						}
					],
					"stateMutability": "view",
					"type": "function"
				},
				{
					"inputs": [
						{
							"internalType": "address",
							"name": "user",
							"type": "address"
						}
					],
					"name": "getUserId",
					"outputs": [
						{
							"internalType": "uint256",
							"name": "",
							"type": "uint256"
						}
					],
					"stateMutability": "view",
					"type": "function"
				},
				{
					"inputs": [
						{
							"internalType": "address",
							"name": "_userAddress",
							"type": "address"
						}
					],
					"name": "getUserTPTBalance",
					"outputs": [
						{
							"internalType": "uint256",
							"name": "",
							"type": "uint256"
						}
					],
					"stateMutability": "view",
					"type": "function"
				},
				{
					"inputs": [
						{
							"internalType": "address",
							"name": "_userAddress",
							"type": "address"
						},
						{
							"internalType": "uint256",
							"name": "_value",
							"type": "uint256"
						}
					],
					"name": "grantPointsById",
					"outputs": [],
					"stateMutability": "nonpayable",
					"type": "function"
				},
				{
					"inputs": [],
					"name": "owner",
					"outputs": [
						{
							"internalType": "address",
							"name": "",
							"type": "address"
						}
					],
					"stateMutability": "view",
					"type": "function"
				},
				{
					"inputs": [
						{
							"internalType": "address payable",
							"name": "_priceContract",
							"type": "address"
						}
					],
					"name": "setBNBPriceAddress",
					"outputs": [],
					"stateMutability": "nonpayable",
					"type": "function"
				},
				{
					"inputs": [],
					"name": "setPriceMode",
					"outputs": [],
					"stateMutability": "nonpayable",
					"type": "function"
				},
				{
					"inputs": [
						{
							"internalType": "uint8",
							"name": "_step",
							"type": "uint8"
						},
						{
							"internalType": "uint256",
							"name": "_price",
							"type": "uint256"
						}
					],
					"name": "setTPTPrice",
					"outputs": [],
					"stateMutability": "nonpayable",
					"type": "function"
				},
				{
					"inputs": [
						{
							"internalType": "uint8",
							"name": "_step",
							"type": "uint8"
						}
					],
					"name": "setThisStep",
					"outputs": [],
					"stateMutability": "nonpayable",
					"type": "function"
				},
				{
					"inputs": [],
					"name": "thisStep",
					"outputs": [
						{
							"internalType": "uint8",
							"name": "",
							"type": "uint8"
						}
					],
					"stateMutability": "view",
					"type": "function"
				},
				{
					"inputs": [],
					"name": "totalUsers",
					"outputs": [
						{
							"internalType": "uint256",
							"name": "",
							"type": "uint256"
						}
					],
					"stateMutability": "view",
					"type": "function"
				},
				{
					"inputs": [
						{
							"internalType": "uint8",
							"name": "",
							"type": "uint8"
						}
					],
					"name": "tptStepPrice",
					"outputs": [
						{
							"internalType": "uint256",
							"name": "",
							"type": "uint256"
						}
					],
					"stateMutability": "view",
					"type": "function"
				},
				{
					"inputs": [
						{
							"internalType": "address payable",
							"name": "_to",
							"type": "address"
						}
					],
					"name": "withdrawAll",
					"outputs": [],
					"stateMutability": "nonpayable",
					"type": "function"
				},
				{
					"stateMutability": "payable",
					"type": "receive"
				}
			],
			"devdoc": {
				"kind": "dev",
				"methods": {},
				"version": 1
			},
			"evm": {
				"assembly": "    /* \"contracts/TPTPreSale.sol\":85:5219  contract TPTPreSale {... */\n  mstore(0x40, 0x80)\n    /* \"contracts/TPTPreSale.sol\":1122:1344  constructor(address payable _priceContract) {... */\n  callvalue\n  dup1\n  iszero\n  tag_1\n  jumpi\n  revert(0x00, 0x00)\ntag_1:\n  pop\n  mload(0x40)\n  sub(codesize, bytecodeSize)\n  dup1\n  bytecodeSize\n  dup4\n  codecopy\n  dup2\n  dup2\n  add\n  0x40\n  mstore\n  dup2\n  add\n  swap1\n  tag_2\n  swap2\n  swap1\n  tag_3\n  jump\t// in\ntag_2:\n    /* \"contracts/TPTPreSale.sol\":1184:1194  msg.sender */\n  caller\n    /* \"contracts/TPTPreSale.sol\":1176:1181  owner */\n  0x01\n  0x00\n    /* \"contracts/TPTPreSale.sol\":1176:1194  owner = msg.sender */\n  0x0100\n  exp\n  dup2\n  sload\n  dup2\n  0xffffffffffffffffffffffffffffffffffffffff\n  mul\n  not\n  and\n  swap1\n  dup4\n  0xffffffffffffffffffffffffffffffffffffffff\n  and\n  mul\n  or\n  swap1\n  sstore\n  pop\n    /* \"contracts/TPTPreSale.sol\":1215:1216  0 */\n  0x00\n    /* \"contracts/TPTPreSale.sol\":1204:1212  thisStep */\n  0x01\n  0x15\n    /* \"contracts/TPTPreSale.sol\":1204:1216  thisStep = 0 */\n  0x0100\n  exp\n  dup2\n  sload\n  dup2\n  0xff\n  mul\n  not\n  and\n  swap1\n  dup4\n  0xff\n  and\n  mul\n  or\n  swap1\n  sstore\n  pop\n    /* \"contracts/TPTPreSale.sol\":1242:1256  _priceContract */\n  dup1\n    /* \"contracts/TPTPreSale.sol\":1226:1239  priceContract */\n  0x00\n  0x00\n    /* \"contracts/TPTPreSale.sol\":1226:1256  priceContract = _priceContract */\n  0x0100\n  exp\n  dup2\n  sload\n  dup2\n  0xffffffffffffffffffffffffffffffffffffffff\n  mul\n  not\n  and\n  swap1\n  dup4\n  0xffffffffffffffffffffffffffffffffffffffff\n  and\n  mul\n  or\n  swap1\n  sstore\n  pop\n    /* \"contracts/TPTPreSale.sol\":1280:1281  1 */\n  0x01\n    /* \"contracts/TPTPreSale.sol\":1266:1277  getPriceTax */\n  0x03\n    /* \"contracts/TPTPreSale.sol\":1266:1281  getPriceTax = 1 */\n  dup2\n  swap1\n  sstore\n  pop\n    /* \"contracts/TPTPreSale.sol\":1320:1322  10 */\n  0x0a\n    /* \"contracts/TPTPreSale.sol\":1307:1317  minRequire */\n  0x04\n    /* \"contracts/TPTPreSale.sol\":1307:1322  minRequire = 10 */\n  dup2\n  swap1\n  sstore\n  pop\n    /* \"contracts/TPTPreSale.sol\":1122:1344  constructor(address payable _priceContract) {... */\n  pop\n    /* \"contracts/TPTPreSale.sol\":85:5219  contract TPTPreSale {... */\n  jump(tag_6)\n    /* \"#utility.yul\":88:205   */\ntag_8:\n    /* \"#utility.yul\":197:198   */\n  0x00\n    /* \"#utility.yul\":194:195   */\n  0x00\n    /* \"#utility.yul\":187:199   */\n  revert\n    /* \"#utility.yul\":334:460   */\ntag_10:\n    /* \"#utility.yul\":371:378   */\n  0x00\n    /* \"#utility.yul\":411:453   */\n  0xffffffffffffffffffffffffffffffffffffffff\n    /* \"#utility.yul\":404:409   */\n  dup3\n    /* \"#utility.yul\":400:454   */\n  and\n    /* \"#utility.yul\":389:454   */\n  swap1\n  pop\n    /* \"#utility.yul\":334:460   */\n  swap2\n  swap1\n  pop\n  jump\t// out\n    /* \"#utility.yul\":466:570   */\ntag_11:\n    /* \"#utility.yul\":511:518   */\n  0x00\n    /* \"#utility.yul\":540:564   */\n  tag_20\n    /* \"#utility.yul\":558:563   */\n  dup3\n    /* \"#utility.yul\":540:564   */\n  tag_10\n  jump\t// in\ntag_20:\n    /* \"#utility.yul\":529:564   */\n  swap1\n  pop\n    /* \"#utility.yul\":466:570   */\n  swap2\n  swap1\n  pop\n  jump\t// out\n    /* \"#utility.yul\":576:714   */\ntag_12:\n    /* \"#utility.yul\":657:689   */\n  tag_22\n    /* \"#utility.yul\":683:688   */\n  dup2\n    /* \"#utility.yul\":657:689   */\n  tag_11\n  jump\t// in\ntag_22:\n    /* \"#utility.yul\":650:655   */\n  dup2\n    /* \"#utility.yul\":647:690   */\n  eq\n    /* \"#utility.yul\":637:708   */\n  tag_23\n  jumpi\n    /* \"#utility.yul\":704:705   */\n  0x00\n    /* \"#utility.yul\":701:702   */\n  0x00\n    /* \"#utility.yul\":694:706   */\n  revert\n    /* \"#utility.yul\":637:708   */\ntag_23:\n    /* \"#utility.yul\":576:714   */\n  pop\n  jump\t// out\n    /* \"#utility.yul\":720:879   */\ntag_13:\n    /* \"#utility.yul\":785:790   */\n  0x00\n    /* \"#utility.yul\":816:822   */\n  dup2\n    /* \"#utility.yul\":810:823   */\n  mload\n    /* \"#utility.yul\":801:823   */\n  swap1\n  pop\n    /* \"#utility.yul\":832:873   */\n  tag_25\n    /* \"#utility.yul\":867:872   */\n  dup2\n    /* \"#utility.yul\":832:873   */\n  tag_12\n  jump\t// in\ntag_25:\n    /* \"#utility.yul\":720:879   */\n  swap3\n  swap2\n  pop\n  pop\n  jump\t// out\n    /* \"#utility.yul\":885:1252   */\ntag_3:\n    /* \"#utility.yul\":963:969   */\n  0x00\n    /* \"#utility.yul\":1012:1014   */\n  0x20\n    /* \"#utility.yul\":1000:1009   */\n  dup3\n    /* \"#utility.yul\":991:998   */\n  dup5\n    /* \"#utility.yul\":987:1010   */\n  sub\n    /* \"#utility.yul\":983:1015   */\n  slt\n    /* \"#utility.yul\":980:1099   */\n  iszero\n  tag_27\n  jumpi\n    /* \"#utility.yul\":1018:1097   */\n  tag_28\n  tag_8\n  jump\t// in\ntag_28:\n    /* \"#utility.yul\":980:1099   */\ntag_27:\n    /* \"#utility.yul\":1138:1139   */\n  0x00\n    /* \"#utility.yul\":1163:1235   */\n  tag_29\n    /* \"#utility.yul\":1227:1234   */\n  dup5\n    /* \"#utility.yul\":1218:1224   */\n  dup3\n    /* \"#utility.yul\":1207:1216   */\n  dup6\n    /* \"#utility.yul\":1203:1225   */\n  add\n    /* \"#utility.yul\":1163:1235   */\n  tag_13\n  jump\t// in\ntag_29:\n    /* \"#utility.yul\":1153:1235   */\n  swap2\n  pop\n    /* \"#utility.yul\":1109:1245   */\n  pop\n    /* \"#utility.yul\":885:1252   */\n  swap3\n  swap2\n  pop\n  pop\n  jump\t// out\n    /* \"contracts/TPTPreSale.sol\":85:5219  contract TPTPreSale {... */\ntag_6:\n  dataSize(sub_0)\n  dup1\n  dataOffset(sub_0)\n  0x00\n  codecopy\n  0x00\n  return\nstop\n\nsub_0: assembly {\n        /* \"contracts/TPTPreSale.sol\":85:5219  contract TPTPreSale {... */\n      mstore(0x40, 0x80)\n      jumpi(tag_1, lt(calldatasize, 0x04))\n      shr(0xe0, calldataload(0x00))\n      dup1\n      0xa2f5546e\n      gt\n      tag_20\n      jumpi\n      dup1\n      0xbff1f9e1\n      gt\n      tag_21\n      jumpi\n      dup1\n      0xbff1f9e1\n      eq\n      tag_15\n      jumpi\n      dup1\n      0xca90d6e6\n      eq\n      tag_16\n      jumpi\n      dup1\n      0xfa09e630\n      eq\n      tag_17\n      jumpi\n      dup1\n      0xfdbb6696\n      eq\n      tag_18\n      jumpi\n      dup1\n      0xffbe653d\n      eq\n      tag_19\n      jumpi\n      jump(tag_2)\n    tag_21:\n      dup1\n      0xa2f5546e\n      eq\n      tag_11\n      jumpi\n      dup1\n      0xae243031\n      eq\n      tag_12\n      jumpi\n      dup1\n      0xaf6b5558\n      eq\n      tag_13\n      jumpi\n      dup1\n      0xb0467deb\n      eq\n      tag_14\n      jumpi\n      jump(tag_2)\n    tag_20:\n      dup1\n      0x54eb7ebe\n      gt\n      tag_22\n      jumpi\n      dup1\n      0x54eb7ebe\n      eq\n      tag_7\n      jumpi\n      dup1\n      0x672cbe1a\n      eq\n      tag_8\n      jumpi\n      dup1\n      0x7ce8a08e\n      eq\n      tag_9\n      jumpi\n      dup1\n      0x8da5cb5b\n      eq\n      tag_10\n      jumpi\n      jump(tag_2)\n    tag_22:\n      dup1\n      0x2a2a92cc\n      eq\n      tag_3\n      jumpi\n      dup1\n      0x2b956ff7\n      eq\n      tag_4\n      jumpi\n      dup1\n      0x31bbf555\n      eq\n      tag_5\n      jumpi\n      dup1\n      0x487cb6b0\n      eq\n      tag_6\n      jumpi\n      jump(tag_2)\n    tag_1:\n      jumpi(tag_2, calldatasize)\n        /* \"contracts/TPTPreSale.sol\":1854:1864  minRequire */\n      sload(0x04)\n        /* \"contracts/TPTPreSale.sol\":1841:1850  msg.value */\n      callvalue\n        /* \"contracts/TPTPreSale.sol\":1841:1864  msg.value >= minRequire */\n      lt\n      iszero\n        /* \"contracts/TPTPreSale.sol\":1833:1893  require(msg.value >= minRequire, \"Send more BNB to buy TPT\") */\n      tag_25\n      jumpi\n      mload(0x40)\n      0x08c379a000000000000000000000000000000000000000000000000000000000\n      dup2\n      mstore\n      0x04\n      add\n      tag_26\n      swap1\n      tag_27\n      jump\t// in\n    tag_26:\n      mload(0x40)\n      dup1\n      swap2\n      sub\n      swap1\n      revert\n    tag_25:\n        /* \"contracts/TPTPreSale.sol\":1904:1913  bool sent */\n      0x00\n        /* \"contracts/TPTPreSale.sol\":1919:1932  priceContract */\n      0x00\n      0x00\n      swap1\n      sload\n      swap1\n      0x0100\n      exp\n      swap1\n      div\n      0xffffffffffffffffffffffffffffffffffffffff\n      and\n        /* \"contracts/TPTPreSale.sol\":1919:1937  priceContract.call */\n      0xffffffffffffffffffffffffffffffffffffffff\n      and\n        /* \"contracts/TPTPreSale.sol\":1945:1956  getPriceTax */\n      sload(0x03)\n        /* \"contracts/TPTPreSale.sol\":1919:1961  priceContract.call{value: getPriceTax}(\"\") */\n      mload(0x40)\n      tag_28\n      swap1\n      tag_29\n      jump\t// in\n    tag_28:\n      0x00\n      mload(0x40)\n      dup1\n      dup4\n      sub\n      dup2\n      dup6\n      dup8\n      gas\n      call\n      swap3\n      pop\n      pop\n      pop\n      returndatasize\n      dup1\n      0x00\n      dup2\n      eq\n      tag_32\n      jumpi\n      mload(0x40)\n      swap2\n      pop\n      and(add(returndatasize, 0x3f), not(0x1f))\n      dup3\n      add\n      0x40\n      mstore\n      returndatasize\n      dup3\n      mstore\n      returndatasize\n      0x00\n      0x20\n      dup5\n      add\n      returndatacopy\n      jump(tag_31)\n    tag_32:\n      0x60\n      swap2\n      pop\n    tag_31:\n      pop\n        /* \"contracts/TPTPreSale.sol\":1903:1961  (bool sent, ) = priceContract.call{value: getPriceTax}(\"\") */\n      pop\n      swap1\n      pop\n        /* \"contracts/TPTPreSale.sol\":1979:1983  sent */\n      dup1\n        /* \"contracts/TPTPreSale.sol\":1971:2003  require(sent, \"Transfer failed\") */\n      tag_33\n      jumpi\n      mload(0x40)\n      0x08c379a000000000000000000000000000000000000000000000000000000000\n      dup2\n      mstore\n      0x04\n      add\n      tag_34\n      swap1\n      tag_35\n      jump\t// in\n    tag_34:\n      mload(0x40)\n      dup1\n      swap2\n      sub\n      swap1\n      revert\n    tag_33:\n        /* \"contracts/TPTPreSale.sol\":2014:2027  buyTPT(false) */\n      tag_36\n        /* \"contracts/TPTPreSale.sol\":2021:2026  false */\n      0x00\n        /* \"contracts/TPTPreSale.sol\":2014:2020  buyTPT */\n      tag_37\n        /* \"contracts/TPTPreSale.sol\":2014:2027  buyTPT(false) */\n      jump\t// in\n    tag_36:\n        /* \"contracts/TPTPreSale.sol\":1823:2034  {... */\n      stop\n        /* \"contracts/TPTPreSale.sol\":85:5219  contract TPTPreSale {... */\n    tag_2:\n        /* \"contracts/TPTPreSale.sol\":1409:1419  minRequire */\n      sload(0x04)\n        /* \"contracts/TPTPreSale.sol\":1396:1405  msg.value */\n      callvalue\n        /* \"contracts/TPTPreSale.sol\":1396:1419  msg.value >= minRequire */\n      lt\n      iszero\n        /* \"contracts/TPTPreSale.sol\":1388:1448  require(msg.value >= minRequire, \"Send more BNB to buy TPT\") */\n      tag_40\n      jumpi\n      mload(0x40)\n      0x08c379a000000000000000000000000000000000000000000000000000000000\n      dup2\n      mstore\n      0x04\n      add\n      tag_41\n      swap1\n      tag_27\n      jump\t// in\n    tag_41:\n      mload(0x40)\n      dup1\n      swap2\n      sub\n      swap1\n      revert\n    tag_40:\n        /* \"contracts/TPTPreSale.sol\":1485:1487  32 */\n      0x20\n        /* \"contracts/TPTPreSale.sol\":1466:1474  msg.data */\n      0x00\n      calldatasize\n        /* \"contracts/TPTPreSale.sol\":1466:1481  msg.data.length */\n      swap1\n      pop\n        /* \"contracts/TPTPreSale.sol\":1466:1487  msg.data.length >= 32 */\n      lt\n      iszero\n        /* \"contracts/TPTPreSale.sol\":1458:1511  require(msg.data.length >= 32, \"Invalid data length\") */\n      tag_42\n      jumpi\n      mload(0x40)\n      0x08c379a000000000000000000000000000000000000000000000000000000000\n      dup2\n      mstore\n      0x04\n      add\n      tag_43\n      swap1\n      tag_44\n      jump\t// in\n    tag_43:\n      mload(0x40)\n      dup1\n      swap2\n      sub\n      swap1\n      revert\n    tag_42:\n        /* \"contracts/TPTPreSale.sol\":1536:1544  msg.data */\n      0x00\n      calldatasize\n        /* \"contracts/TPTPreSale.sol\":1525:1553  abi.decode(msg.data, (bool)) */\n      dup2\n      add\n      swap1\n      tag_45\n      swap2\n      swap1\n      tag_46\n      jump\t// in\n    tag_45:\n        /* \"contracts/TPTPreSale.sol\":1521:1628  if (abi.decode(msg.data, (bool))) {... */\n      iszero\n      tag_47\n      jumpi\n        /* \"contracts/TPTPreSale.sol\":1590:1594  5e16 */\n      0xb1a2bc2ec50000\n        /* \"contracts/TPTPreSale.sol\":1577:1586  msg.value */\n      callvalue\n        /* \"contracts/TPTPreSale.sol\":1577:1594  msg.value == 5e16 */\n      eq\n        /* \"contracts/TPTPreSale.sol\":1569:1617  require(msg.value == 5e16, \"send just 0.05 bnb\") */\n      tag_48\n      jumpi\n      mload(0x40)\n      0x08c379a000000000000000000000000000000000000000000000000000000000\n      dup2\n      mstore\n      0x04\n      add\n      tag_49\n      swap1\n      tag_50\n      jump\t// in\n    tag_49:\n      mload(0x40)\n      dup1\n      swap2\n      sub\n      swap1\n      revert\n    tag_48:\n        /* \"contracts/TPTPreSale.sol\":1521:1628  if (abi.decode(msg.data, (bool))) {... */\n    tag_47:\n        /* \"contracts/TPTPreSale.sol\":1638:1647  bool sent */\n      0x00\n        /* \"contracts/TPTPreSale.sol\":1653:1666  priceContract */\n      0x00\n      0x00\n      swap1\n      sload\n      swap1\n      0x0100\n      exp\n      swap1\n      div\n      0xffffffffffffffffffffffffffffffffffffffff\n      and\n        /* \"contracts/TPTPreSale.sol\":1653:1671  priceContract.call */\n      0xffffffffffffffffffffffffffffffffffffffff\n      and\n        /* \"contracts/TPTPreSale.sol\":1679:1690  getPriceTax */\n      sload(0x03)\n        /* \"contracts/TPTPreSale.sol\":1653:1695  priceContract.call{value: getPriceTax}(\"\") */\n      mload(0x40)\n      tag_51\n      swap1\n      tag_29\n      jump\t// in\n    tag_51:\n      0x00\n      mload(0x40)\n      dup1\n      dup4\n      sub\n      dup2\n      dup6\n      dup8\n      gas\n      call\n      swap3\n      pop\n      pop\n      pop\n      returndatasize\n      dup1\n      0x00\n      dup2\n      eq\n      tag_54\n      jumpi\n      mload(0x40)\n      swap2\n      pop\n      and(add(returndatasize, 0x3f), not(0x1f))\n      dup3\n      add\n      0x40\n      mstore\n      returndatasize\n      dup3\n      mstore\n      returndatasize\n      0x00\n      0x20\n      dup5\n      add\n      returndatacopy\n      jump(tag_53)\n    tag_54:\n      0x60\n      swap2\n      pop\n    tag_53:\n      pop\n        /* \"contracts/TPTPreSale.sol\":1637:1695  (bool sent, ) = priceContract.call{value: getPriceTax}(\"\") */\n      pop\n      swap1\n      pop\n        /* \"contracts/TPTPreSale.sol\":1713:1717  sent */\n      dup1\n        /* \"contracts/TPTPreSale.sol\":1705:1737  require(sent, \"Transfer failed\") */\n      tag_55\n      jumpi\n      mload(0x40)\n      0x08c379a000000000000000000000000000000000000000000000000000000000\n      dup2\n      mstore\n      0x04\n      add\n      tag_56\n      swap1\n      tag_35\n      jump\t// in\n    tag_56:\n      mload(0x40)\n      dup1\n      swap2\n      sub\n      swap1\n      revert\n    tag_55:\n        /* \"contracts/TPTPreSale.sol\":1747:1783  buyTPT(abi.decode(msg.data, (bool))) */\n      tag_57\n        /* \"contracts/TPTPreSale.sol\":1765:1773  msg.data */\n      0x00\n      calldatasize\n        /* \"contracts/TPTPreSale.sol\":1754:1782  abi.decode(msg.data, (bool)) */\n      dup2\n      add\n      swap1\n      tag_58\n      swap2\n      swap1\n      tag_46\n      jump\t// in\n    tag_58:\n        /* \"contracts/TPTPreSale.sol\":1747:1753  buyTPT */\n      tag_37\n        /* \"contracts/TPTPreSale.sol\":1747:1783  buyTPT(abi.decode(msg.data, (bool))) */\n      jump\t// in\n    tag_57:\n        /* \"contracts/TPTPreSale.sol\":1378:1790  {... */\n      stop\n        /* \"contracts/TPTPreSale.sol\":4233:4439  function getPurchase(address _userAddress, uint256 index)... */\n    tag_3:\n      callvalue\n      dup1\n      iszero\n      tag_59\n      jumpi\n      revert(0x00, 0x00)\n    tag_59:\n      pop\n      tag_60\n      0x04\n      dup1\n      calldatasize\n      sub\n      dup2\n      add\n      swap1\n      tag_61\n      swap2\n      swap1\n      tag_62\n      jump\t// in\n    tag_61:\n      tag_63\n      jump\t// in\n    tag_60:\n      mload(0x40)\n      tag_64\n      swap2\n      swap1\n      tag_65\n      jump\t// in\n    tag_64:\n      mload(0x40)\n      dup1\n      swap2\n      sub\n      swap1\n      return\n        /* \"contracts/TPTPreSale.sol\":4445:4546  function getUserId(address user) external view returns (uint256) {... */\n    tag_4:\n      callvalue\n      dup1\n      iszero\n      tag_66\n      jumpi\n      revert(0x00, 0x00)\n    tag_66:\n      pop\n      tag_67\n      0x04\n      dup1\n      calldatasize\n      sub\n      dup2\n      add\n      swap1\n      tag_68\n      swap2\n      swap1\n      tag_69\n      jump\t// in\n    tag_68:\n      tag_70\n      jump\t// in\n    tag_67:\n      mload(0x40)\n      tag_71\n      swap2\n      swap1\n      tag_72\n      jump\t// in\n    tag_71:\n      mload(0x40)\n      dup1\n      swap2\n      sub\n      swap1\n      return\n        /* \"contracts/TPTPreSale.sol\":4048:4227  function getPurchaseCount(address _userAddress)... */\n    tag_5:\n      callvalue\n      dup1\n      iszero\n      tag_73\n      jumpi\n      revert(0x00, 0x00)\n    tag_73:\n      pop\n      tag_74\n      0x04\n      dup1\n      calldatasize\n      sub\n      dup2\n      add\n      swap1\n      tag_75\n      swap2\n      swap1\n      tag_69\n      jump\t// in\n    tag_75:\n      tag_76\n      jump\t// in\n    tag_74:\n      mload(0x40)\n      tag_77\n      swap2\n      swap1\n      tag_72\n      jump\t// in\n    tag_77:\n      mload(0x40)\n      dup1\n      swap2\n      sub\n      swap1\n      return\n        /* \"contracts/TPTPreSale.sol\":2040:2134  function setPriceMode() public onlyOwner {... */\n    tag_6:\n      callvalue\n      dup1\n      iszero\n      tag_78\n      jumpi\n      revert(0x00, 0x00)\n    tag_78:\n      pop\n      tag_79\n      tag_80\n      jump\t// in\n    tag_79:\n      stop\n        /* \"contracts/TPTPreSale.sol\":2140:2276  function getPriceMode() public view onlyOwner returns (string memory) {... */\n    tag_7:\n      callvalue\n      dup1\n      iszero\n      tag_81\n      jumpi\n      revert(0x00, 0x00)\n    tag_81:\n      pop\n      tag_82\n      tag_83\n      jump\t// in\n    tag_82:\n      mload(0x40)\n      tag_84\n      swap2\n      swap1\n      tag_85\n      jump\t// in\n    tag_84:\n      mload(0x40)\n      dup1\n      swap2\n      sub\n      swap1\n      return\n        /* \"contracts/TPTPreSale.sol\":3764:3868  function getThisStepPrice() public view returns (uint256) {... */\n    tag_8:\n      callvalue\n      dup1\n      iszero\n      tag_86\n      jumpi\n      revert(0x00, 0x00)\n    tag_86:\n      pop\n      tag_87\n      tag_88\n      jump\t// in\n    tag_87:\n      mload(0x40)\n      tag_89\n      swap2\n      swap1\n      tag_72\n      jump\t// in\n    tag_89:\n      mload(0x40)\n      dup1\n      swap2\n      sub\n      swap1\n      return\n        /* \"contracts/TPTPreSale.sol\":3556:3640  function setThisStep(uint8 _step) public onlyOwner {... */\n    tag_9:\n      callvalue\n      dup1\n      iszero\n      tag_90\n      jumpi\n      revert(0x00, 0x00)\n    tag_90:\n      pop\n      tag_91\n      0x04\n      dup1\n      calldatasize\n      sub\n      dup2\n      add\n      swap1\n      tag_92\n      swap2\n      swap1\n      tag_93\n      jump\t// in\n    tag_92:\n      tag_94\n      jump\t// in\n    tag_91:\n      stop\n        /* \"contracts/TPTPreSale.sol\":155:175  address public owner */\n    tag_10:\n      callvalue\n      dup1\n      iszero\n      tag_95\n      jumpi\n      revert(0x00, 0x00)\n    tag_95:\n      pop\n      tag_96\n      tag_97\n      jump\t// in\n    tag_96:\n      mload(0x40)\n      tag_98\n      swap2\n      swap1\n      tag_99\n      jump\t// in\n    tag_98:\n      mload(0x40)\n      dup1\n      swap2\n      sub\n      swap1\n      return\n        /* \"contracts/TPTPreSale.sol\":3646:3758  function setTPTPrice(uint8 _step, uint256 _price) public onlyOwner {... */\n    tag_11:\n      callvalue\n      dup1\n      iszero\n      tag_100\n      jumpi\n      revert(0x00, 0x00)\n    tag_100:\n      pop\n      tag_101\n      0x04\n      dup1\n      calldatasize\n      sub\n      dup2\n      add\n      swap1\n      tag_102\n      swap2\n      swap1\n      tag_103\n      jump\t// in\n    tag_102:\n      tag_104\n      jump\t// in\n    tag_101:\n      stop\n        /* \"contracts/TPTPreSale.sol\":207:228  uint8 public thisStep */\n    tag_12:\n      callvalue\n      dup1\n      iszero\n      tag_105\n      jumpi\n      revert(0x00, 0x00)\n    tag_105:\n      pop\n      tag_106\n      tag_107\n      jump\t// in\n    tag_106:\n      mload(0x40)\n      tag_108\n      swap2\n      swap1\n      tag_109\n      jump\t// in\n    tag_108:\n      mload(0x40)\n      dup1\n      swap2\n      sub\n      swap1\n      return\n        /* \"contracts/TPTPreSale.sol\":5073:5217  function setBNBPriceAddress(address payable _priceContract)... */\n    tag_13:\n      callvalue\n      dup1\n      iszero\n      tag_110\n      jumpi\n      revert(0x00, 0x00)\n    tag_110:\n      pop\n      tag_111\n      0x04\n      dup1\n      calldatasize\n      sub\n      dup2\n      add\n      swap1\n      tag_112\n      swap2\n      swap1\n      tag_113\n      jump\t// in\n    tag_112:\n      tag_114\n      jump\t// in\n    tag_111:\n      stop\n        /* \"contracts/TPTPreSale.sol\":4552:4654  function getUser(uint256 id) external view returns (UserInfo memory) {... */\n    tag_14:\n      callvalue\n      dup1\n      iszero\n      tag_115\n      jumpi\n      revert(0x00, 0x00)\n    tag_115:\n      pop\n      tag_116\n      0x04\n      dup1\n      calldatasize\n      sub\n      dup2\n      add\n      swap1\n      tag_117\n      swap2\n      swap1\n      tag_118\n      jump\t// in\n    tag_117:\n      tag_119\n      jump\t// in\n    tag_116:\n      mload(0x40)\n      tag_120\n      swap2\n      swap1\n      tag_121\n      jump\t// in\n    tag_120:\n      mload(0x40)\n      dup1\n      swap2\n      sub\n      swap1\n      return\n        /* \"contracts/TPTPreSale.sol\":372:397  uint256 public totalUsers */\n    tag_15:\n      callvalue\n      dup1\n      iszero\n      tag_122\n      jumpi\n      revert(0x00, 0x00)\n    tag_122:\n      pop\n      tag_123\n      tag_124\n      jump\t// in\n    tag_123:\n      mload(0x40)\n      tag_125\n      swap2\n      swap1\n      tag_72\n      jump\t// in\n    tag_125:\n      mload(0x40)\n      dup1\n      swap2\n      sub\n      swap1\n      return\n        /* \"contracts/TPTPreSale.sol\":4837:5067  function grantPointsById(address _userAddress, uint256 _value)... */\n    tag_16:\n      callvalue\n      dup1\n      iszero\n      tag_126\n      jumpi\n      revert(0x00, 0x00)\n    tag_126:\n      pop\n      tag_127\n      0x04\n      dup1\n      calldatasize\n      sub\n      dup2\n      add\n      swap1\n      tag_128\n      swap2\n      swap1\n      tag_62\n      jump\t// in\n    tag_128:\n      tag_129\n      jump\t// in\n    tag_127:\n      stop\n        /* \"contracts/TPTPreSale.sol\":3874:4042  function withdrawAll(address payable _to) external onlyOwner {... */\n    tag_17:\n      callvalue\n      dup1\n      iszero\n      tag_130\n      jumpi\n      revert(0x00, 0x00)\n    tag_130:\n      pop\n      tag_131\n      0x04\n      dup1\n      calldatasize\n      sub\n      dup2\n      add\n      swap1\n      tag_132\n      swap2\n      swap1\n      tag_113\n      jump\t// in\n    tag_132:\n      tag_133\n      jump\t// in\n    tag_131:\n      stop\n        /* \"contracts/TPTPreSale.sol\":4660:4831  function getUserTPTBalance(address _userAddress)... */\n    tag_18:\n      callvalue\n      dup1\n      iszero\n      tag_134\n      jumpi\n      revert(0x00, 0x00)\n    tag_134:\n      pop\n      tag_135\n      0x04\n      dup1\n      calldatasize\n      sub\n      dup2\n      add\n      swap1\n      tag_136\n      swap2\n      swap1\n      tag_69\n      jump\t// in\n    tag_136:\n      tag_137\n      jump\t// in\n    tag_135:\n      mload(0x40)\n      tag_138\n      swap2\n      swap1\n      tag_72\n      jump\t// in\n    tag_138:\n      mload(0x40)\n      dup1\n      swap2\n      sub\n      swap1\n      return\n        /* \"contracts/TPTPreSale.sol\":234:279  mapping(uint8 => uint256) public tptStepPrice */\n    tag_19:\n      callvalue\n      dup1\n      iszero\n      tag_139\n      jumpi\n      revert(0x00, 0x00)\n    tag_139:\n      pop\n      tag_140\n      0x04\n      dup1\n      calldatasize\n      sub\n      dup2\n      add\n      swap1\n      tag_141\n      swap2\n      swap1\n      tag_93\n      jump\t// in\n    tag_141:\n      tag_142\n      jump\t// in\n    tag_140:\n      mload(0x40)\n      tag_143\n      swap2\n      swap1\n      tag_72\n      jump\t// in\n    tag_143:\n      mload(0x40)\n      dup1\n      swap2\n      sub\n      swap1\n      return\n        /* \"contracts/TPTPreSale.sol\":2428:3550  function buyTPT(bool _useOffer) internal pauseable reentrancy {... */\n    tag_37:\n        /* \"contracts/TPTPreSale.sol\":925:926  0 */\n      0x00\n        /* \"contracts/TPTPreSale.sol\":913:921  thisStep */\n      0x01\n      0x15\n      swap1\n      sload\n      swap1\n      0x0100\n      exp\n      swap1\n      div\n      0xff\n      and\n        /* \"contracts/TPTPreSale.sol\":913:926  thisStep != 0 */\n      0xff\n      and\n      sub\n        /* \"contracts/TPTPreSale.sol\":905:946  require(thisStep != 0, \"Contract Paused\") */\n      tag_145\n      jumpi\n      mload(0x40)\n      0x08c379a000000000000000000000000000000000000000000000000000000000\n      dup2\n      mstore\n      0x04\n      add\n      tag_146\n      swap1\n      tag_147\n      jump\t// in\n    tag_146:\n      mload(0x40)\n      dup1\n      swap2\n      sub\n      swap1\n      revert\n    tag_145:\n        /* \"contracts/TPTPreSale.sol\":1020:1024  true */\n      0x01\n        /* \"contracts/TPTPreSale.sol\":1010:1024  locked != true */\n      iszero\n      iszero\n        /* \"contracts/TPTPreSale.sol\":1010:1016  locked */\n      0x01\n      0x14\n      swap1\n      sload\n      swap1\n      0x0100\n      exp\n      swap1\n      div\n      0xff\n      and\n        /* \"contracts/TPTPreSale.sol\":1010:1024  locked != true */\n      iszero\n      iszero\n      sub\n        /* \"contracts/TPTPreSale.sol\":1002:1051  require(locked != true, \"No Reentrancy,pls wait\") */\n      tag_149\n      jumpi\n      mload(0x40)\n      0x08c379a000000000000000000000000000000000000000000000000000000000\n      dup2\n      mstore\n      0x04\n      add\n      tag_150\n      swap1\n      tag_151\n      jump\t// in\n    tag_150:\n      mload(0x40)\n      dup1\n      swap2\n      sub\n      swap1\n      revert\n    tag_149:\n        /* \"contracts/TPTPreSale.sol\":1070:1074  true */\n      0x01\n        /* \"contracts/TPTPreSale.sol\":1061:1067  locked */\n      dup1\n      0x14\n        /* \"contracts/TPTPreSale.sol\":1061:1074  locked = true */\n      0x0100\n      exp\n      dup2\n      sload\n      dup2\n      0xff\n      mul\n      not\n      and\n      swap1\n      dup4\n      iszero\n      iszero\n      mul\n      or\n      swap1\n      sstore\n      pop\n        /* \"contracts/TPTPreSale.sol\":2526:2527  0 */\n      0x00\n        /* \"contracts/TPTPreSale.sol\":2504:2510  userId */\n      0x06\n        /* \"contracts/TPTPreSale.sol\":2504:2522  userId[msg.sender] */\n      0x00\n        /* \"contracts/TPTPreSale.sol\":2511:2521  msg.sender */\n      caller\n        /* \"contracts/TPTPreSale.sol\":2504:2522  userId[msg.sender] */\n      0xffffffffffffffffffffffffffffffffffffffff\n      and\n      0xffffffffffffffffffffffffffffffffffffffff\n      and\n      dup2\n      mstore\n      0x20\n      add\n      swap1\n      dup2\n      mstore\n      0x20\n      add\n      0x00\n      keccak256\n      sload\n        /* \"contracts/TPTPreSale.sol\":2504:2527  userId[msg.sender] == 0 */\n      sub\n        /* \"contracts/TPTPreSale.sol\":2500:2879  if (userId[msg.sender] == 0) {... */\n      tag_153\n      jumpi\n        /* \"contracts/TPTPreSale.sol\":2543:2553  totalUsers */\n      0x05\n      0x00\n        /* \"contracts/TPTPreSale.sol\":2543:2555  totalUsers++ */\n      dup2\n      sload\n      dup1\n      swap3\n      swap2\n      swap1\n      tag_154\n      swap1\n      tag_155\n      jump\t// in\n    tag_154:\n      swap2\n      swap1\n      pop\n      sstore\n      pop\n        /* \"contracts/TPTPreSale.sol\":2590:2600  totalUsers */\n      sload(0x05)\n        /* \"contracts/TPTPreSale.sol\":2569:2575  userId */\n      0x06\n        /* \"contracts/TPTPreSale.sol\":2569:2587  userId[msg.sender] */\n      0x00\n        /* \"contracts/TPTPreSale.sol\":2576:2586  msg.sender */\n      caller\n        /* \"contracts/TPTPreSale.sol\":2569:2587  userId[msg.sender] */\n      0xffffffffffffffffffffffffffffffffffffffff\n      and\n      0xffffffffffffffffffffffffffffffffffffffff\n      and\n      dup2\n      mstore\n      0x20\n      add\n      swap1\n      dup2\n      mstore\n      0x20\n      add\n      0x00\n      keccak256\n        /* \"contracts/TPTPreSale.sol\":2569:2600  userId[msg.sender] = totalUsers */\n      dup2\n      swap1\n      sstore\n      pop\n        /* \"contracts/TPTPreSale.sol\":2615:2640  UserInfo storage userInfo */\n      0x00\n        /* \"contracts/TPTPreSale.sol\":2643:2648  users */\n      0x07\n        /* \"contracts/TPTPreSale.sol\":2643:2668  users[userId[msg.sender]] */\n      0x00\n        /* \"contracts/TPTPreSale.sol\":2649:2655  userId */\n      0x06\n        /* \"contracts/TPTPreSale.sol\":2649:2667  userId[msg.sender] */\n      0x00\n        /* \"contracts/TPTPreSale.sol\":2656:2666  msg.sender */\n      caller\n        /* \"contracts/TPTPreSale.sol\":2649:2667  userId[msg.sender] */\n      0xffffffffffffffffffffffffffffffffffffffff\n      and\n      0xffffffffffffffffffffffffffffffffffffffff\n      and\n      dup2\n      mstore\n      0x20\n      add\n      swap1\n      dup2\n      mstore\n      0x20\n      add\n      0x00\n      keccak256\n      sload\n        /* \"contracts/TPTPreSale.sol\":2643:2668  users[userId[msg.sender]] */\n      dup2\n      mstore\n      0x20\n      add\n      swap1\n      dup2\n      mstore\n      0x20\n      add\n      0x00\n      keccak256\n        /* \"contracts/TPTPreSale.sol\":2615:2668  UserInfo storage userInfo = users[userId[msg.sender]] */\n      swap1\n      pop\n        /* \"contracts/TPTPreSale.sol\":2707:2717  msg.sender */\n      caller\n        /* \"contracts/TPTPreSale.sol\":2682:2690  userInfo */\n      dup2\n        /* \"contracts/TPTPreSale.sol\":2682:2704  userInfo.walletAddress */\n      0x00\n      add\n      0x00\n        /* \"contracts/TPTPreSale.sol\":2682:2717  userInfo.walletAddress = msg.sender */\n      0x0100\n      exp\n      dup2\n      sload\n      dup2\n      0xffffffffffffffffffffffffffffffffffffffff\n      mul\n      not\n      and\n      swap1\n      dup4\n      0xffffffffffffffffffffffffffffffffffffffff\n      and\n      mul\n      or\n      swap1\n      sstore\n      pop\n        /* \"contracts/TPTPreSale.sol\":2753:2754  0 */\n      0x00\n        /* \"contracts/TPTPreSale.sol\":2731:2739  userInfo */\n      dup2\n        /* \"contracts/TPTPreSale.sol\":2731:2750  userInfo.tptBalance */\n      0x01\n      add\n        /* \"contracts/TPTPreSale.sol\":2731:2754  userInfo.tptBalance = 0 */\n      dup2\n      swap1\n      sstore\n      pop\n        /* \"contracts/TPTPreSale.sol\":2788:2792  true */\n      0x01\n        /* \"contracts/TPTPreSale.sol\":2768:2776  userInfo */\n      dup2\n        /* \"contracts/TPTPreSale.sol\":2768:2785  userInfo.hasOffer */\n      0x02\n      add\n      0x00\n        /* \"contracts/TPTPreSale.sol\":2768:2792  userInfo.hasOffer = true */\n      0x0100\n      exp\n      dup2\n      sload\n      dup2\n      0xff\n      mul\n      not\n      and\n      swap1\n      dup4\n      iszero\n      iszero\n      mul\n      or\n      swap1\n      sstore\n      pop\n        /* \"contracts/TPTPreSale.sol\":2860:2868  userInfo */\n      dup1\n        /* \"contracts/TPTPreSale.sol\":2832:2837  users */\n      0x07\n        /* \"contracts/TPTPreSale.sol\":2832:2857  users[userId[msg.sender]] */\n      0x00\n        /* \"contracts/TPTPreSale.sol\":2838:2844  userId */\n      0x06\n        /* \"contracts/TPTPreSale.sol\":2838:2856  userId[msg.sender] */\n      0x00\n        /* \"contracts/TPTPreSale.sol\":2845:2855  msg.sender */\n      caller\n        /* \"contracts/TPTPreSale.sol\":2838:2856  userId[msg.sender] */\n      0xffffffffffffffffffffffffffffffffffffffff\n      and\n      0xffffffffffffffffffffffffffffffffffffffff\n      and\n      dup2\n      mstore\n      0x20\n      add\n      swap1\n      dup2\n      mstore\n      0x20\n      add\n      0x00\n      keccak256\n      sload\n        /* \"contracts/TPTPreSale.sol\":2832:2857  users[userId[msg.sender]] */\n      dup2\n      mstore\n      0x20\n      add\n      swap1\n      dup2\n      mstore\n      0x20\n      add\n      0x00\n      keccak256\n        /* \"contracts/TPTPreSale.sol\":2832:2868  users[userId[msg.sender]] = userInfo */\n      0x00\n      dup3\n      add\n      0x00\n      swap1\n      sload\n      swap1\n      0x0100\n      exp\n      swap1\n      div\n      0xffffffffffffffffffffffffffffffffffffffff\n      and\n      dup2\n      0x00\n      add\n      exp(0x0100, 0x00)\n      dup2\n      sload\n      dup2\n      0xffffffffffffffffffffffffffffffffffffffff\n      mul\n      not\n      and\n      swap1\n      dup4\n      0xffffffffffffffffffffffffffffffffffffffff\n      and\n      mul\n      or\n      swap1\n      sstore\n      pop\n      0x01\n      dup3\n      add\n      sload\n      dup2\n      0x01\n      add\n      sstore\n      0x02\n      dup3\n      add\n      0x00\n      swap1\n      sload\n      swap1\n      0x0100\n      exp\n      swap1\n      div\n      0xff\n      and\n      dup2\n      0x02\n      add\n      exp(0x0100, 0x00)\n      dup2\n      sload\n      dup2\n      0xff\n      mul\n      not\n      and\n      swap1\n      dup4\n      iszero\n      iszero\n      mul\n      or\n      swap1\n      sstore\n      pop\n      0x03\n      dup3\n      add\n      dup2\n      0x03\n      add\n      swap1\n      dup1\n      sload\n      tag_156\n      swap3\n      swap2\n      swap1\n      tag_157\n      jump\t// in\n    tag_156:\n      pop\n      swap1\n      pop\n      pop\n        /* \"contracts/TPTPreSale.sol\":2529:2879  {... */\n      pop\n        /* \"contracts/TPTPreSale.sol\":2500:2879  if (userId[msg.sender] == 0) {... */\n    tag_153:\n        /* \"contracts/TPTPreSale.sol\":2888:2907  uint256 usdBnbPrice */\n      0x00\n        /* \"contracts/TPTPreSale.sol\":2920:2933  priceContract */\n      0x00\n      0x00\n      swap1\n      sload\n      swap1\n      0x0100\n      exp\n      swap1\n      div\n      0xffffffffffffffffffffffffffffffffffffffff\n      and\n        /* \"contracts/TPTPreSale.sol\":2910:2946  IBNBPrice(priceContract).viewAverage */\n      0xffffffffffffffffffffffffffffffffffffffff\n      and\n      0xe03d1632\n        /* \"contracts/TPTPreSale.sol\":2910:2948  IBNBPrice(priceContract).viewAverage() */\n      mload(0x40)\n      dup2\n      0xffffffff\n      and\n      0xe0\n      shl\n      dup2\n      mstore\n      0x04\n      add\n      0x20\n      mload(0x40)\n      dup1\n      dup4\n      sub\n      dup2\n      dup7\n      gas\n      staticcall\n      iszero\n      dup1\n      iszero\n      tag_159\n      jumpi\n      returndatacopy(0x00, 0x00, returndatasize)\n      revert(0x00, returndatasize)\n    tag_159:\n      pop\n      pop\n      pop\n      pop\n      mload(0x40)\n      returndatasize\n      not(0x1f)\n      0x1f\n      dup3\n      add\n      and\n      dup3\n      add\n      dup1\n      0x40\n      mstore\n      pop\n      dup2\n      add\n      swap1\n      tag_160\n      swap2\n      swap1\n      tag_161\n      jump\t// in\n    tag_160:\n        /* \"contracts/TPTPreSale.sol\":2888:2948  uint256 usdBnbPrice = IBNBPrice(priceContract).viewAverage() */\n      swap1\n      pop\n        /* \"contracts/TPTPreSale.sol\":2958:2972  uint256 amount */\n      0x00\n        /* \"contracts/TPTPreSale.sol\":2986:2995  _useOffer */\n      dup3\n        /* \"contracts/TPTPreSale.sol\":2982:3357  if (_useOffer) {... */\n      iszero\n      tag_162\n      jumpi\n        /* \"contracts/TPTPreSale.sol\":3019:3024  users */\n      0x07\n        /* \"contracts/TPTPreSale.sol\":3019:3044  users[userId[msg.sender]] */\n      0x00\n        /* \"contracts/TPTPreSale.sol\":3025:3031  userId */\n      0x06\n        /* \"contracts/TPTPreSale.sol\":3025:3043  userId[msg.sender] */\n      0x00\n        /* \"contracts/TPTPreSale.sol\":3032:3042  msg.sender */\n      caller\n        /* \"contracts/TPTPreSale.sol\":3025:3043  userId[msg.sender] */\n      0xffffffffffffffffffffffffffffffffffffffff\n      and\n      0xffffffffffffffffffffffffffffffffffffffff\n      and\n      dup2\n      mstore\n      0x20\n      add\n      swap1\n      dup2\n      mstore\n      0x20\n      add\n      0x00\n      keccak256\n      sload\n        /* \"contracts/TPTPreSale.sol\":3019:3044  users[userId[msg.sender]] */\n      dup2\n      mstore\n      0x20\n      add\n      swap1\n      dup2\n      mstore\n      0x20\n      add\n      0x00\n      keccak256\n        /* \"contracts/TPTPreSale.sol\":3019:3053  users[userId[msg.sender]].hasOffer */\n      0x02\n      add\n      0x00\n      swap1\n      sload\n      swap1\n      0x0100\n      exp\n      swap1\n      div\n      0xff\n      and\n        /* \"contracts/TPTPreSale.sol\":3011:3071  require(users[userId[msg.sender]].hasOffer, \"no offer more\") */\n      tag_163\n      jumpi\n      mload(0x40)\n      0x08c379a000000000000000000000000000000000000000000000000000000000\n      dup2\n      mstore\n      0x04\n      add\n      tag_164\n      swap1\n      tag_165\n      jump\t// in\n    tag_164:\n      mload(0x40)\n      dup1\n      swap2\n      sub\n      swap1\n      revert\n    tag_163:\n        /* \"contracts/TPTPreSale.sol\":3190:3191  2 */\n      0x02\n        /* \"contracts/TPTPreSale.sol\":3148:3160  tptStepPrice */\n      dup1\n        /* \"contracts/TPTPreSale.sol\":3148:3170  tptStepPrice[thisStep] */\n      0x00\n        /* \"contracts/TPTPreSale.sol\":3161:3169  thisStep */\n      0x01\n      0x15\n      swap1\n      sload\n      swap1\n      0x0100\n      exp\n      swap1\n      div\n      0xff\n      and\n        /* \"contracts/TPTPreSale.sol\":3148:3170  tptStepPrice[thisStep] */\n      0xff\n      and\n      0xff\n      and\n      dup2\n      mstore\n      0x20\n      add\n      swap1\n      dup2\n      mstore\n      0x20\n      add\n      0x00\n      keccak256\n      sload\n        /* \"contracts/TPTPreSale.sol\":3133:3144  usdBnbPrice */\n      dup4\n        /* \"contracts/TPTPreSale.sol\":3125:3129  1e18 */\n      0x0de0b6b3a7640000\n        /* \"contracts/TPTPreSale.sol\":3113:3122  msg.value */\n      callvalue\n        /* \"contracts/TPTPreSale.sol\":3113:3129  msg.value * 1e18 */\n      tag_166\n      swap2\n      swap1\n      tag_167\n      jump\t// in\n    tag_166:\n        /* \"contracts/TPTPreSale.sol\":3112:3144  (msg.value * 1e18) / usdBnbPrice */\n      tag_168\n      swap2\n      swap1\n      tag_169\n      jump\t// in\n    tag_168:\n        /* \"contracts/TPTPreSale.sol\":3111:3170  ((msg.value * 1e18) / usdBnbPrice) / tptStepPrice[thisStep] */\n      tag_170\n      swap2\n      swap1\n      tag_169\n      jump\t// in\n    tag_170:\n        /* \"contracts/TPTPreSale.sol\":3110:3191  (((msg.value * 1e18) / usdBnbPrice) / tptStepPrice[thisStep]) *... */\n      tag_171\n      swap2\n      swap1\n      tag_167\n      jump\t// in\n    tag_171:\n        /* \"contracts/TPTPreSale.sol\":3085:3191  amount =... */\n      swap1\n      pop\n        /* \"contracts/TPTPreSale.sol\":3242:3247  false */\n      0x00\n        /* \"contracts/TPTPreSale.sol\":3205:3210  users */\n      0x07\n        /* \"contracts/TPTPreSale.sol\":3205:3230  users[userId[msg.sender]] */\n      0x00\n        /* \"contracts/TPTPreSale.sol\":3211:3217  userId */\n      0x06\n        /* \"contracts/TPTPreSale.sol\":3211:3229  userId[msg.sender] */\n      0x00\n        /* \"contracts/TPTPreSale.sol\":3218:3228  msg.sender */\n      caller\n        /* \"contracts/TPTPreSale.sol\":3211:3229  userId[msg.sender] */\n      0xffffffffffffffffffffffffffffffffffffffff\n      and\n      0xffffffffffffffffffffffffffffffffffffffff\n      and\n      dup2\n      mstore\n      0x20\n      add\n      swap1\n      dup2\n      mstore\n      0x20\n      add\n      0x00\n      keccak256\n      sload\n        /* \"contracts/TPTPreSale.sol\":3205:3230  users[userId[msg.sender]] */\n      dup2\n      mstore\n      0x20\n      add\n      swap1\n      dup2\n      mstore\n      0x20\n      add\n      0x00\n      keccak256\n        /* \"contracts/TPTPreSale.sol\":3205:3239  users[userId[msg.sender]].hasOffer */\n      0x02\n      add\n      0x00\n        /* \"contracts/TPTPreSale.sol\":3205:3247  users[userId[msg.sender]].hasOffer = false */\n      0x0100\n      exp\n      dup2\n      sload\n      dup2\n      0xff\n      mul\n      not\n      and\n      swap1\n      dup4\n      iszero\n      iszero\n      mul\n      or\n      swap1\n      sstore\n      pop\n        /* \"contracts/TPTPreSale.sol\":2982:3357  if (_useOffer) {... */\n      jump(tag_172)\n    tag_162:\n        /* \"contracts/TPTPreSale.sol\":3324:3336  tptStepPrice */\n      0x02\n        /* \"contracts/TPTPreSale.sol\":3324:3346  tptStepPrice[thisStep] */\n      0x00\n        /* \"contracts/TPTPreSale.sol\":3337:3345  thisStep */\n      0x01\n      0x15\n      swap1\n      sload\n      swap1\n      0x0100\n      exp\n      swap1\n      div\n      0xff\n      and\n        /* \"contracts/TPTPreSale.sol\":3324:3346  tptStepPrice[thisStep] */\n      0xff\n      and\n      0xff\n      and\n      dup2\n      mstore\n      0x20\n      add\n      swap1\n      dup2\n      mstore\n      0x20\n      add\n      0x00\n      keccak256\n      sload\n        /* \"contracts/TPTPreSale.sol\":3309:3320  usdBnbPrice */\n      dup3\n        /* \"contracts/TPTPreSale.sol\":3301:3305  1e18 */\n      0x0de0b6b3a7640000\n        /* \"contracts/TPTPreSale.sol\":3289:3298  msg.value */\n      callvalue\n        /* \"contracts/TPTPreSale.sol\":3289:3305  msg.value * 1e18 */\n      tag_173\n      swap2\n      swap1\n      tag_167\n      jump\t// in\n    tag_173:\n        /* \"contracts/TPTPreSale.sol\":3288:3320  (msg.value * 1e18) / usdBnbPrice */\n      tag_174\n      swap2\n      swap1\n      tag_169\n      jump\t// in\n    tag_174:\n        /* \"contracts/TPTPreSale.sol\":3287:3346  ((msg.value * 1e18) / usdBnbPrice) / tptStepPrice[thisStep] */\n      tag_175\n      swap2\n      swap1\n      tag_169\n      jump\t// in\n    tag_175:\n        /* \"contracts/TPTPreSale.sol\":3278:3346  amount = ((msg.value * 1e18) / usdBnbPrice) / tptStepPrice[thisStep] */\n      swap1\n      pop\n        /* \"contracts/TPTPreSale.sol\":2982:3357  if (_useOffer) {... */\n    tag_172:\n        /* \"contracts/TPTPreSale.sol\":3406:3412  amount */\n      dup1\n        /* \"contracts/TPTPreSale.sol\":3366:3371  users */\n      0x07\n        /* \"contracts/TPTPreSale.sol\":3366:3391  users[userId[msg.sender]] */\n      0x00\n        /* \"contracts/TPTPreSale.sol\":3372:3378  userId */\n      0x06\n        /* \"contracts/TPTPreSale.sol\":3372:3390  userId[msg.sender] */\n      0x00\n        /* \"contracts/TPTPreSale.sol\":3379:3389  msg.sender */\n      caller\n        /* \"contracts/TPTPreSale.sol\":3372:3390  userId[msg.sender] */\n      0xffffffffffffffffffffffffffffffffffffffff\n      and\n      0xffffffffffffffffffffffffffffffffffffffff\n      and\n      dup2\n      mstore\n      0x20\n      add\n      swap1\n      dup2\n      mstore\n      0x20\n      add\n      0x00\n      keccak256\n      sload\n        /* \"contracts/TPTPreSale.sol\":3366:3391  users[userId[msg.sender]] */\n      dup2\n      mstore\n      0x20\n      add\n      swap1\n      dup2\n      mstore\n      0x20\n      add\n      0x00\n      keccak256\n        /* \"contracts/TPTPreSale.sol\":3366:3402  users[userId[msg.sender]].tptBalance */\n      0x01\n      add\n      0x00\n        /* \"contracts/TPTPreSale.sol\":3366:3412  users[userId[msg.sender]].tptBalance += amount */\n      dup3\n      dup3\n      sload\n      tag_176\n      swap2\n      swap1\n      tag_177\n      jump\t// in\n    tag_176:\n      swap3\n      pop\n      pop\n      dup2\n      swap1\n      sstore\n      pop\n        /* \"contracts/TPTPreSale.sol\":3422:3427  users */\n      0x07\n        /* \"contracts/TPTPreSale.sol\":3422:3447  users[userId[msg.sender]] */\n      0x00\n        /* \"contracts/TPTPreSale.sol\":3428:3434  userId */\n      0x06\n        /* \"contracts/TPTPreSale.sol\":3428:3446  userId[msg.sender] */\n      0x00\n        /* \"contracts/TPTPreSale.sol\":3435:3445  msg.sender */\n      caller\n        /* \"contracts/TPTPreSale.sol\":3428:3446  userId[msg.sender] */\n      0xffffffffffffffffffffffffffffffffffffffff\n      and\n      0xffffffffffffffffffffffffffffffffffffffff\n      and\n      dup2\n      mstore\n      0x20\n      add\n      swap1\n      dup2\n      mstore\n      0x20\n      add\n      0x00\n      keccak256\n      sload\n        /* \"contracts/TPTPreSale.sol\":3422:3447  users[userId[msg.sender]] */\n      dup2\n      mstore\n      0x20\n      add\n      swap1\n      dup2\n      mstore\n      0x20\n      add\n      0x00\n      keccak256\n        /* \"contracts/TPTPreSale.sol\":3422:3460  users[userId[msg.sender]].purchaseList */\n      0x03\n      add\n        /* \"contracts/TPTPreSale.sol\":3479:3533  Purchase(block.timestamp, msg.value, amount, thisStep) */\n      mload(0x40)\n      dup1\n      0x80\n      add\n      0x40\n      mstore\n      dup1\n        /* \"contracts/TPTPreSale.sol\":3488:3503  block.timestamp */\n      timestamp\n        /* \"contracts/TPTPreSale.sol\":3479:3533  Purchase(block.timestamp, msg.value, amount, thisStep) */\n      dup2\n      mstore\n      0x20\n      add\n        /* \"contracts/TPTPreSale.sol\":3505:3514  msg.value */\n      callvalue\n        /* \"contracts/TPTPreSale.sol\":3479:3533  Purchase(block.timestamp, msg.value, amount, thisStep) */\n      dup2\n      mstore\n      0x20\n      add\n        /* \"contracts/TPTPreSale.sol\":3516:3522  amount */\n      dup4\n        /* \"contracts/TPTPreSale.sol\":3479:3533  Purchase(block.timestamp, msg.value, amount, thisStep) */\n      dup2\n      mstore\n      0x20\n      add\n        /* \"contracts/TPTPreSale.sol\":3524:3532  thisStep */\n      0x01\n      0x15\n      swap1\n      sload\n      swap1\n      0x0100\n      exp\n      swap1\n      div\n      0xff\n      and\n        /* \"contracts/TPTPreSale.sol\":3479:3533  Purchase(block.timestamp, msg.value, amount, thisStep) */\n      0xff\n      and\n      dup2\n      mstore\n      pop\n        /* \"contracts/TPTPreSale.sol\":3422:3543  users[userId[msg.sender]].purchaseList.push(... */\n      swap1\n      dup1\n      0x01\n      dup2\n      sload\n      add\n      dup1\n      dup3\n      sstore\n      dup1\n      swap2\n      pop\n      pop\n      0x01\n      swap1\n      sub\n      swap1\n      0x00\n      mstore\n      keccak256(0x00, 0x20)\n      swap1\n      0x04\n      mul\n      add\n      0x00\n      swap1\n      swap2\n      swap1\n      swap2\n      swap1\n      swap2\n      pop\n      0x00\n      dup3\n      add\n      mload\n      dup2\n      0x00\n      add\n      sstore\n      0x20\n      dup3\n      add\n      mload\n      dup2\n      0x01\n      add\n      sstore\n      0x40\n      dup3\n      add\n      mload\n      dup2\n      0x02\n      add\n      sstore\n      0x60\n      dup3\n      add\n      mload\n      dup2\n      0x03\n      add\n      exp(0x0100, 0x00)\n      dup2\n      sload\n      dup2\n      0xff\n      mul\n      not\n      and\n      swap1\n      dup4\n      0xff\n      and\n      mul\n      or\n      swap1\n      sstore\n      pop\n      pop\n      pop\n        /* \"contracts/TPTPreSale.sol\":2490:3550  {... */\n      pop\n      pop\n        /* \"contracts/TPTPreSale.sol\":1104:1109  false */\n      0x00\n        /* \"contracts/TPTPreSale.sol\":1095:1101  locked */\n      0x01\n      0x14\n        /* \"contracts/TPTPreSale.sol\":1095:1109  locked = false */\n      0x0100\n      exp\n      dup2\n      sload\n      dup2\n      0xff\n      mul\n      not\n      and\n      swap1\n      dup4\n      iszero\n      iszero\n      mul\n      or\n      swap1\n      sstore\n      pop\n        /* \"contracts/TPTPreSale.sol\":2428:3550  function buyTPT(bool _useOffer) internal pauseable reentrancy {... */\n      pop\n      jump\t// out\n        /* \"contracts/TPTPreSale.sol\":4233:4439  function getPurchase(address _userAddress, uint256 index)... */\n    tag_63:\n        /* \"contracts/TPTPreSale.sol\":4338:4353  Purchase memory */\n      tag_179\n      tag_180\n      jump\t// in\n    tag_179:\n        /* \"contracts/TPTPreSale.sol\":4385:4390  users */\n      0x07\n        /* \"contracts/TPTPreSale.sol\":4385:4412  users[userId[_userAddress]] */\n      0x00\n        /* \"contracts/TPTPreSale.sol\":4391:4397  userId */\n      0x06\n        /* \"contracts/TPTPreSale.sol\":4391:4411  userId[_userAddress] */\n      0x00\n        /* \"contracts/TPTPreSale.sol\":4398:4410  _userAddress */\n      dup7\n        /* \"contracts/TPTPreSale.sol\":4391:4411  userId[_userAddress] */\n      0xffffffffffffffffffffffffffffffffffffffff\n      and\n      0xffffffffffffffffffffffffffffffffffffffff\n      and\n      dup2\n      mstore\n      0x20\n      add\n      swap1\n      dup2\n      mstore\n      0x20\n      add\n      0x00\n      keccak256\n      sload\n        /* \"contracts/TPTPreSale.sol\":4385:4412  users[userId[_userAddress]] */\n      dup2\n      mstore\n      0x20\n      add\n      swap1\n      dup2\n      mstore\n      0x20\n      add\n      0x00\n      keccak256\n        /* \"contracts/TPTPreSale.sol\":4385:4425  users[userId[_userAddress]].purchaseList */\n      0x03\n      add\n        /* \"contracts/TPTPreSale.sol\":4426:4431  index */\n      dup3\n        /* \"contracts/TPTPreSale.sol\":4385:4432  users[userId[_userAddress]].purchaseList[index] */\n      dup2\n      sload\n      dup2\n      lt\n      tag_182\n      jumpi\n      tag_183\n      tag_184\n      jump\t// in\n    tag_183:\n    tag_182:\n      swap1\n      0x00\n      mstore\n      keccak256(0x00, 0x20)\n      swap1\n      0x04\n      mul\n      add\n        /* \"contracts/TPTPreSale.sol\":4378:4432  return users[userId[_userAddress]].purchaseList[index] */\n      mload(0x40)\n      dup1\n      0x80\n      add\n      0x40\n      mstore\n      swap1\n      dup2\n      0x00\n      dup3\n      add\n      sload\n      dup2\n      mstore\n      0x20\n      add\n      0x01\n      dup3\n      add\n      sload\n      dup2\n      mstore\n      0x20\n      add\n      0x02\n      dup3\n      add\n      sload\n      dup2\n      mstore\n      0x20\n      add\n      0x03\n      dup3\n      add\n      0x00\n      swap1\n      sload\n      swap1\n      0x0100\n      exp\n      swap1\n      div\n      0xff\n      and\n      0xff\n      and\n      0xff\n      and\n      dup2\n      mstore\n      pop\n      pop\n      swap1\n      pop\n        /* \"contracts/TPTPreSale.sol\":4233:4439  function getPurchase(address _userAddress, uint256 index)... */\n      swap3\n      swap2\n      pop\n      pop\n      jump\t// out\n        /* \"contracts/TPTPreSale.sol\":4445:4546  function getUserId(address user) external view returns (uint256) {... */\n    tag_70:\n        /* \"contracts/TPTPreSale.sol\":4501:4508  uint256 */\n      0x00\n        /* \"contracts/TPTPreSale.sol\":4527:4533  userId */\n      0x06\n        /* \"contracts/TPTPreSale.sol\":4527:4539  userId[user] */\n      0x00\n        /* \"contracts/TPTPreSale.sol\":4534:4538  user */\n      dup4\n        /* \"contracts/TPTPreSale.sol\":4527:4539  userId[user] */\n      0xffffffffffffffffffffffffffffffffffffffff\n      and\n      0xffffffffffffffffffffffffffffffffffffffff\n      and\n      dup2\n      mstore\n      0x20\n      add\n      swap1\n      dup2\n      mstore\n      0x20\n      add\n      0x00\n      keccak256\n      sload\n        /* \"contracts/TPTPreSale.sol\":4520:4539  return userId[user] */\n      swap1\n      pop\n        /* \"contracts/TPTPreSale.sol\":4445:4546  function getUserId(address user) external view returns (uint256) {... */\n      swap2\n      swap1\n      pop\n      jump\t// out\n        /* \"contracts/TPTPreSale.sol\":4048:4227  function getPurchaseCount(address _userAddress)... */\n    tag_76:\n        /* \"contracts/TPTPreSale.sol\":4143:4150  uint256 */\n      0x00\n        /* \"contracts/TPTPreSale.sol\":4173:4178  users */\n      0x07\n        /* \"contracts/TPTPreSale.sol\":4173:4200  users[userId[_userAddress]] */\n      0x00\n        /* \"contracts/TPTPreSale.sol\":4179:4185  userId */\n      0x06\n        /* \"contracts/TPTPreSale.sol\":4179:4199  userId[_userAddress] */\n      0x00\n        /* \"contracts/TPTPreSale.sol\":4186:4198  _userAddress */\n      dup6\n        /* \"contracts/TPTPreSale.sol\":4179:4199  userId[_userAddress] */\n      0xffffffffffffffffffffffffffffffffffffffff\n      and\n      0xffffffffffffffffffffffffffffffffffffffff\n      and\n      dup2\n      mstore\n      0x20\n      add\n      swap1\n      dup2\n      mstore\n      0x20\n      add\n      0x00\n      keccak256\n      sload\n        /* \"contracts/TPTPreSale.sol\":4173:4200  users[userId[_userAddress]] */\n      dup2\n      mstore\n      0x20\n      add\n      swap1\n      dup2\n      mstore\n      0x20\n      add\n      0x00\n      keccak256\n        /* \"contracts/TPTPreSale.sol\":4173:4213  users[userId[_userAddress]].purchaseList */\n      0x03\n      add\n        /* \"contracts/TPTPreSale.sol\":4173:4220  users[userId[_userAddress]].purchaseList.length */\n      dup1\n      sload\n      swap1\n      pop\n        /* \"contracts/TPTPreSale.sol\":4166:4220  return users[userId[_userAddress]].purchaseList.length */\n      swap1\n      pop\n        /* \"contracts/TPTPreSale.sol\":4048:4227  function getPurchaseCount(address _userAddress)... */\n      swap2\n      swap1\n      pop\n      jump\t// out\n        /* \"contracts/TPTPreSale.sol\":2040:2134  function setPriceMode() public onlyOwner {... */\n    tag_80:\n        /* \"contracts/TPTPreSale.sol\":830:835  owner */\n      0x01\n      0x00\n      swap1\n      sload\n      swap1\n      0x0100\n      exp\n      swap1\n      div\n      0xffffffffffffffffffffffffffffffffffffffff\n      and\n        /* \"contracts/TPTPreSale.sol\":816:835  msg.sender == owner */\n      0xffffffffffffffffffffffffffffffffffffffff\n      and\n        /* \"contracts/TPTPreSale.sol\":816:826  msg.sender */\n      caller\n        /* \"contracts/TPTPreSale.sol\":816:835  msg.sender == owner */\n      0xffffffffffffffffffffffffffffffffffffffff\n      and\n      eq\n        /* \"contracts/TPTPreSale.sol\":808:850  require(msg.sender == owner, \"Only owner\") */\n      tag_189\n      jumpi\n      mload(0x40)\n      0x08c379a000000000000000000000000000000000000000000000000000000000\n      dup2\n      mstore\n      0x04\n      add\n      tag_190\n      swap1\n      tag_191\n      jump\t// in\n    tag_190:\n      mload(0x40)\n      dup1\n      swap2\n      sub\n      swap1\n      revert\n    tag_189:\n        /* \"contracts/TPTPreSale.sol\":2101:2114  priceContract */\n      0x00\n      0x00\n      swap1\n      sload\n      swap1\n      0x0100\n      exp\n      swap1\n      div\n      0xffffffffffffffffffffffffffffffffffffffff\n      and\n        /* \"contracts/TPTPreSale.sol\":2091:2125  IBNBPrice(priceContract).setEqMode */\n      0xffffffffffffffffffffffffffffffffffffffff\n      and\n      0x65a6cc2e\n        /* \"contracts/TPTPreSale.sol\":2091:2127  IBNBPrice(priceContract).setEqMode() */\n      mload(0x40)\n      dup2\n      0xffffffff\n      and\n      0xe0\n      shl\n      dup2\n      mstore\n      0x04\n      add\n      0x00\n      mload(0x40)\n      dup1\n      dup4\n      sub\n      dup2\n      0x00\n      dup8\n      dup1\n      extcodesize\n      iszero\n      dup1\n      iszero\n      tag_193\n      jumpi\n      revert(0x00, 0x00)\n    tag_193:\n      pop\n      gas\n      call\n      iszero\n      dup1\n      iszero\n      tag_195\n      jumpi\n      returndatacopy(0x00, 0x00, returndatasize)\n      revert(0x00, returndatasize)\n    tag_195:\n      pop\n      pop\n      pop\n      pop\n        /* \"contracts/TPTPreSale.sol\":2040:2134  function setPriceMode() public onlyOwner {... */\n      jump\t// out\n        /* \"contracts/TPTPreSale.sol\":2140:2276  function getPriceMode() public view onlyOwner returns (string memory) {... */\n    tag_83:\n        /* \"contracts/TPTPreSale.sol\":2195:2208  string memory */\n      0x60\n        /* \"contracts/TPTPreSale.sol\":830:835  owner */\n      0x01\n      0x00\n      swap1\n      sload\n      swap1\n      0x0100\n      exp\n      swap1\n      div\n      0xffffffffffffffffffffffffffffffffffffffff\n      and\n        /* \"contracts/TPTPreSale.sol\":816:835  msg.sender == owner */\n      0xffffffffffffffffffffffffffffffffffffffff\n      and\n        /* \"contracts/TPTPreSale.sol\":816:826  msg.sender */\n      caller\n        /* \"contracts/TPTPreSale.sol\":816:835  msg.sender == owner */\n      0xffffffffffffffffffffffffffffffffffffffff\n      and\n      eq\n        /* \"contracts/TPTPreSale.sol\":808:850  require(msg.sender == owner, \"Only owner\") */\n      tag_197\n      jumpi\n      mload(0x40)\n      0x08c379a000000000000000000000000000000000000000000000000000000000\n      dup2\n      mstore\n      0x04\n      add\n      tag_198\n      swap1\n      tag_191\n      jump\t// in\n    tag_198:\n      mload(0x40)\n      dup1\n      swap2\n      sub\n      swap1\n      revert\n    tag_197:\n        /* \"contracts/TPTPreSale.sol\":2237:2250  priceContract */\n      0x00\n      0x00\n      swap1\n      sload\n      swap1\n      0x0100\n      exp\n      swap1\n      div\n      0xffffffffffffffffffffffffffffffffffffffff\n      and\n        /* \"contracts/TPTPreSale.sol\":2227:2267  IBNBPrice(priceContract).getEqModeString */\n      0xffffffffffffffffffffffffffffffffffffffff\n      and\n      0xa1c6a405\n        /* \"contracts/TPTPreSale.sol\":2227:2269  IBNBPrice(priceContract).getEqModeString() */\n      mload(0x40)\n      dup2\n      0xffffffff\n      and\n      0xe0\n      shl\n      dup2\n      mstore\n      0x04\n      add\n      0x00\n      mload(0x40)\n      dup1\n      dup4\n      sub\n      dup2\n      dup7\n      gas\n      staticcall\n      iszero\n      dup1\n      iszero\n      tag_201\n      jumpi\n      returndatacopy(0x00, 0x00, returndatasize)\n      revert(0x00, returndatasize)\n    tag_201:\n      pop\n      pop\n      pop\n      pop\n      mload(0x40)\n      returndatasize\n      0x00\n      dup3\n      returndatacopy\n      returndatasize\n      not(0x1f)\n      0x1f\n      dup3\n      add\n      and\n      dup3\n      add\n      dup1\n      0x40\n      mstore\n      pop\n      dup2\n      add\n      swap1\n      tag_202\n      swap2\n      swap1\n      tag_203\n      jump\t// in\n    tag_202:\n        /* \"contracts/TPTPreSale.sol\":2220:2269  return IBNBPrice(priceContract).getEqModeString() */\n      swap1\n      pop\n        /* \"contracts/TPTPreSale.sol\":2140:2276  function getPriceMode() public view onlyOwner returns (string memory) {... */\n      swap1\n      jump\t// out\n        /* \"contracts/TPTPreSale.sol\":3764:3868  function getThisStepPrice() public view returns (uint256) {... */\n    tag_88:\n        /* \"contracts/TPTPreSale.sol\":3813:3820  uint256 */\n      0x00\n        /* \"contracts/TPTPreSale.sol\":3839:3851  tptStepPrice */\n      0x02\n        /* \"contracts/TPTPreSale.sol\":3839:3861  tptStepPrice[thisStep] */\n      0x00\n        /* \"contracts/TPTPreSale.sol\":3852:3860  thisStep */\n      0x01\n      0x15\n      swap1\n      sload\n      swap1\n      0x0100\n      exp\n      swap1\n      div\n      0xff\n      and\n        /* \"contracts/TPTPreSale.sol\":3839:3861  tptStepPrice[thisStep] */\n      0xff\n      and\n      0xff\n      and\n      dup2\n      mstore\n      0x20\n      add\n      swap1\n      dup2\n      mstore\n      0x20\n      add\n      0x00\n      keccak256\n      sload\n        /* \"contracts/TPTPreSale.sol\":3832:3861  return tptStepPrice[thisStep] */\n      swap1\n      pop\n        /* \"contracts/TPTPreSale.sol\":3764:3868  function getThisStepPrice() public view returns (uint256) {... */\n      swap1\n      jump\t// out\n        /* \"contracts/TPTPreSale.sol\":3556:3640  function setThisStep(uint8 _step) public onlyOwner {... */\n    tag_94:\n        /* \"contracts/TPTPreSale.sol\":830:835  owner */\n      0x01\n      0x00\n      swap1\n      sload\n      swap1\n      0x0100\n      exp\n      swap1\n      div\n      0xffffffffffffffffffffffffffffffffffffffff\n      and\n        /* \"contracts/TPTPreSale.sol\":816:835  msg.sender == owner */\n      0xffffffffffffffffffffffffffffffffffffffff\n      and\n        /* \"contracts/TPTPreSale.sol\":816:826  msg.sender */\n      caller\n        /* \"contracts/TPTPreSale.sol\":816:835  msg.sender == owner */\n      0xffffffffffffffffffffffffffffffffffffffff\n      and\n      eq\n        /* \"contracts/TPTPreSale.sol\":808:850  require(msg.sender == owner, \"Only owner\") */\n      tag_206\n      jumpi\n      mload(0x40)\n      0x08c379a000000000000000000000000000000000000000000000000000000000\n      dup2\n      mstore\n      0x04\n      add\n      tag_207\n      swap1\n      tag_191\n      jump\t// in\n    tag_207:\n      mload(0x40)\n      dup1\n      swap2\n      sub\n      swap1\n      revert\n    tag_206:\n        /* \"contracts/TPTPreSale.sol\":3628:3633  _step */\n      dup1\n        /* \"contracts/TPTPreSale.sol\":3617:3625  thisStep */\n      0x01\n      0x15\n        /* \"contracts/TPTPreSale.sol\":3617:3633  thisStep = _step */\n      0x0100\n      exp\n      dup2\n      sload\n      dup2\n      0xff\n      mul\n      not\n      and\n      swap1\n      dup4\n      0xff\n      and\n      mul\n      or\n      swap1\n      sstore\n      pop\n        /* \"contracts/TPTPreSale.sol\":3556:3640  function setThisStep(uint8 _step) public onlyOwner {... */\n      pop\n      jump\t// out\n        /* \"contracts/TPTPreSale.sol\":155:175  address public owner */\n    tag_97:\n      0x01\n      0x00\n      swap1\n      sload\n      swap1\n      0x0100\n      exp\n      swap1\n      div\n      0xffffffffffffffffffffffffffffffffffffffff\n      and\n      dup2\n      jump\t// out\n        /* \"contracts/TPTPreSale.sol\":3646:3758  function setTPTPrice(uint8 _step, uint256 _price) public onlyOwner {... */\n    tag_104:\n        /* \"contracts/TPTPreSale.sol\":830:835  owner */\n      0x01\n      0x00\n      swap1\n      sload\n      swap1\n      0x0100\n      exp\n      swap1\n      div\n      0xffffffffffffffffffffffffffffffffffffffff\n      and\n        /* \"contracts/TPTPreSale.sol\":816:835  msg.sender == owner */\n      0xffffffffffffffffffffffffffffffffffffffff\n      and\n        /* \"contracts/TPTPreSale.sol\":816:826  msg.sender */\n      caller\n        /* \"contracts/TPTPreSale.sol\":816:835  msg.sender == owner */\n      0xffffffffffffffffffffffffffffffffffffffff\n      and\n      eq\n        /* \"contracts/TPTPreSale.sol\":808:850  require(msg.sender == owner, \"Only owner\") */\n      tag_210\n      jumpi\n      mload(0x40)\n      0x08c379a000000000000000000000000000000000000000000000000000000000\n      dup2\n      mstore\n      0x04\n      add\n      tag_211\n      swap1\n      tag_191\n      jump\t// in\n    tag_211:\n      mload(0x40)\n      dup1\n      swap2\n      sub\n      swap1\n      revert\n    tag_210:\n        /* \"contracts/TPTPreSale.sol\":3745:3751  _price */\n      dup1\n        /* \"contracts/TPTPreSale.sol\":3723:3735  tptStepPrice */\n      0x02\n        /* \"contracts/TPTPreSale.sol\":3723:3742  tptStepPrice[_step] */\n      0x00\n        /* \"contracts/TPTPreSale.sol\":3736:3741  _step */\n      dup5\n        /* \"contracts/TPTPreSale.sol\":3723:3742  tptStepPrice[_step] */\n      0xff\n      and\n      0xff\n      and\n      dup2\n      mstore\n      0x20\n      add\n      swap1\n      dup2\n      mstore\n      0x20\n      add\n      0x00\n      keccak256\n        /* \"contracts/TPTPreSale.sol\":3723:3751  tptStepPrice[_step] = _price */\n      dup2\n      swap1\n      sstore\n      pop\n        /* \"contracts/TPTPreSale.sol\":3646:3758  function setTPTPrice(uint8 _step, uint256 _price) public onlyOwner {... */\n      pop\n      pop\n      jump\t// out\n        /* \"contracts/TPTPreSale.sol\":207:228  uint8 public thisStep */\n    tag_107:\n      0x01\n      0x15\n      swap1\n      sload\n      swap1\n      0x0100\n      exp\n      swap1\n      div\n      0xff\n      and\n      dup2\n      jump\t// out\n        /* \"contracts/TPTPreSale.sol\":5073:5217  function setBNBPriceAddress(address payable _priceContract)... */\n    tag_114:\n        /* \"contracts/TPTPreSale.sol\":830:835  owner */\n      0x01\n      0x00\n      swap1\n      sload\n      swap1\n      0x0100\n      exp\n      swap1\n      div\n      0xffffffffffffffffffffffffffffffffffffffff\n      and\n        /* \"contracts/TPTPreSale.sol\":816:835  msg.sender == owner */\n      0xffffffffffffffffffffffffffffffffffffffff\n      and\n        /* \"contracts/TPTPreSale.sol\":816:826  msg.sender */\n      caller\n        /* \"contracts/TPTPreSale.sol\":816:835  msg.sender == owner */\n      0xffffffffffffffffffffffffffffffffffffffff\n      and\n      eq\n        /* \"contracts/TPTPreSale.sol\":808:850  require(msg.sender == owner, \"Only owner\") */\n      tag_214\n      jumpi\n      mload(0x40)\n      0x08c379a000000000000000000000000000000000000000000000000000000000\n      dup2\n      mstore\n      0x04\n      add\n      tag_215\n      swap1\n      tag_191\n      jump\t// in\n    tag_215:\n      mload(0x40)\n      dup1\n      swap2\n      sub\n      swap1\n      revert\n    tag_214:\n        /* \"contracts/TPTPreSale.sol\":5196:5210  _priceContract */\n      dup1\n        /* \"contracts/TPTPreSale.sol\":5180:5193  priceContract */\n      0x00\n      0x00\n        /* \"contracts/TPTPreSale.sol\":5180:5210  priceContract = _priceContract */\n      0x0100\n      exp\n      dup2\n      sload\n      dup2\n      0xffffffffffffffffffffffffffffffffffffffff\n      mul\n      not\n      and\n      swap1\n      dup4\n      0xffffffffffffffffffffffffffffffffffffffff\n      and\n      mul\n      or\n      swap1\n      sstore\n      pop\n        /* \"contracts/TPTPreSale.sol\":5073:5217  function setBNBPriceAddress(address payable _priceContract)... */\n      pop\n      jump\t// out\n        /* \"contracts/TPTPreSale.sol\":4552:4654  function getUser(uint256 id) external view returns (UserInfo memory) {... */\n    tag_119:\n        /* \"contracts/TPTPreSale.sol\":4604:4619  UserInfo memory */\n      tag_217\n      tag_218\n      jump\t// in\n    tag_217:\n        /* \"contracts/TPTPreSale.sol\":4638:4643  users */\n      0x07\n        /* \"contracts/TPTPreSale.sol\":4638:4647  users[id] */\n      0x00\n        /* \"contracts/TPTPreSale.sol\":4644:4646  id */\n      dup4\n        /* \"contracts/TPTPreSale.sol\":4638:4647  users[id] */\n      dup2\n      mstore\n      0x20\n      add\n      swap1\n      dup2\n      mstore\n      0x20\n      add\n      0x00\n      keccak256\n        /* \"contracts/TPTPreSale.sol\":4631:4647  return users[id] */\n      mload(0x40)\n      dup1\n      0x80\n      add\n      0x40\n      mstore\n      swap1\n      dup2\n      0x00\n      dup3\n      add\n      0x00\n      swap1\n      sload\n      swap1\n      0x0100\n      exp\n      swap1\n      div\n      0xffffffffffffffffffffffffffffffffffffffff\n      and\n      0xffffffffffffffffffffffffffffffffffffffff\n      and\n      0xffffffffffffffffffffffffffffffffffffffff\n      and\n      dup2\n      mstore\n      0x20\n      add\n      0x01\n      dup3\n      add\n      sload\n      dup2\n      mstore\n      0x20\n      add\n      0x02\n      dup3\n      add\n      0x00\n      swap1\n      sload\n      swap1\n      0x0100\n      exp\n      swap1\n      div\n      0xff\n      and\n      iszero\n      iszero\n      iszero\n      iszero\n      dup2\n      mstore\n      0x20\n      add\n      0x03\n      dup3\n      add\n      dup1\n      sload\n      dup1\n      0x20\n      mul\n      0x20\n      add\n      mload(0x40)\n      swap1\n      dup2\n      add\n      0x40\n      mstore\n      dup1\n      swap3\n      swap2\n      swap1\n      dup2\n      dup2\n      mstore\n      0x20\n      add\n      0x00\n      swap1\n    tag_220:\n      dup3\n      dup3\n      lt\n      iszero\n      tag_221\n      jumpi\n      dup4\n      dup3\n      swap1\n      0x00\n      mstore\n      keccak256(0x00, 0x20)\n      swap1\n      0x04\n      mul\n      add\n      mload(0x40)\n      dup1\n      0x80\n      add\n      0x40\n      mstore\n      swap1\n      dup2\n      0x00\n      dup3\n      add\n      sload\n      dup2\n      mstore\n      0x20\n      add\n      0x01\n      dup3\n      add\n      sload\n      dup2\n      mstore\n      0x20\n      add\n      0x02\n      dup3\n      add\n      sload\n      dup2\n      mstore\n      0x20\n      add\n      0x03\n      dup3\n      add\n      0x00\n      swap1\n      sload\n      swap1\n      0x0100\n      exp\n      swap1\n      div\n      0xff\n      and\n      0xff\n      and\n      0xff\n      and\n      dup2\n      mstore\n      pop\n      pop\n      dup2\n      mstore\n      0x20\n      add\n      swap1\n      0x01\n      add\n      swap1\n      jump(tag_220)\n    tag_221:\n      pop\n      pop\n      pop\n      pop\n      dup2\n      mstore\n      pop\n      pop\n      swap1\n      pop\n        /* \"contracts/TPTPreSale.sol\":4552:4654  function getUser(uint256 id) external view returns (UserInfo memory) {... */\n      swap2\n      swap1\n      pop\n      jump\t// out\n        /* \"contracts/TPTPreSale.sol\":372:397  uint256 public totalUsers */\n    tag_124:\n      sload(0x05)\n      dup2\n      jump\t// out\n        /* \"contracts/TPTPreSale.sol\":4837:5067  function grantPointsById(address _userAddress, uint256 _value)... */\n    tag_129:\n        /* \"contracts/TPTPreSale.sol\":830:835  owner */\n      0x01\n      0x00\n      swap1\n      sload\n      swap1\n      0x0100\n      exp\n      swap1\n      div\n      0xffffffffffffffffffffffffffffffffffffffff\n      and\n        /* \"contracts/TPTPreSale.sol\":816:835  msg.sender == owner */\n      0xffffffffffffffffffffffffffffffffffffffff\n      and\n        /* \"contracts/TPTPreSale.sol\":816:826  msg.sender */\n      caller\n        /* \"contracts/TPTPreSale.sol\":816:835  msg.sender == owner */\n      0xffffffffffffffffffffffffffffffffffffffff\n      and\n      eq\n        /* \"contracts/TPTPreSale.sol\":808:850  require(msg.sender == owner, \"Only owner\") */\n      tag_224\n      jumpi\n      mload(0x40)\n      0x08c379a000000000000000000000000000000000000000000000000000000000\n      dup2\n      mstore\n      0x04\n      add\n      tag_225\n      swap1\n      tag_191\n      jump\t// in\n    tag_225:\n      mload(0x40)\n      dup1\n      swap2\n      sub\n      swap1\n      revert\n    tag_224:\n        /* \"contracts/TPTPreSale.sol\":4981:4982  0 */\n      0x00\n        /* \"contracts/TPTPreSale.sol\":4957:4963  userId */\n      0x06\n        /* \"contracts/TPTPreSale.sol\":4957:4977  userId[_userAddress] */\n      0x00\n        /* \"contracts/TPTPreSale.sol\":4964:4976  _userAddress */\n      dup5\n        /* \"contracts/TPTPreSale.sol\":4957:4977  userId[_userAddress] */\n      0xffffffffffffffffffffffffffffffffffffffff\n      and\n      0xffffffffffffffffffffffffffffffffffffffff\n      and\n      dup2\n      mstore\n      0x20\n      add\n      swap1\n      dup2\n      mstore\n      0x20\n      add\n      0x00\n      keccak256\n      sload\n        /* \"contracts/TPTPreSale.sol\":4957:4982  userId[_userAddress] != 0 */\n      sub\n        /* \"contracts/TPTPreSale.sol\":4949:5002  require(userId[_userAddress] != 0, \"Invalid user ID\") */\n      tag_227\n      jumpi\n      mload(0x40)\n      0x08c379a000000000000000000000000000000000000000000000000000000000\n      dup2\n      mstore\n      0x04\n      add\n      tag_228\n      swap1\n      tag_229\n      jump\t// in\n    tag_228:\n      mload(0x40)\n      dup1\n      swap2\n      sub\n      swap1\n      revert\n    tag_227:\n        /* \"contracts/TPTPreSale.sol\":5054:5060  _value */\n      dup1\n        /* \"contracts/TPTPreSale.sol\":5012:5017  users */\n      0x07\n        /* \"contracts/TPTPreSale.sol\":5012:5039  users[userId[_userAddress]] */\n      0x00\n        /* \"contracts/TPTPreSale.sol\":5018:5024  userId */\n      0x06\n        /* \"contracts/TPTPreSale.sol\":5018:5038  userId[_userAddress] */\n      0x00\n        /* \"contracts/TPTPreSale.sol\":5025:5037  _userAddress */\n      dup7\n        /* \"contracts/TPTPreSale.sol\":5018:5038  userId[_userAddress] */\n      0xffffffffffffffffffffffffffffffffffffffff\n      and\n      0xffffffffffffffffffffffffffffffffffffffff\n      and\n      dup2\n      mstore\n      0x20\n      add\n      swap1\n      dup2\n      mstore\n      0x20\n      add\n      0x00\n      keccak256\n      sload\n        /* \"contracts/TPTPreSale.sol\":5012:5039  users[userId[_userAddress]] */\n      dup2\n      mstore\n      0x20\n      add\n      swap1\n      dup2\n      mstore\n      0x20\n      add\n      0x00\n      keccak256\n        /* \"contracts/TPTPreSale.sol\":5012:5050  users[userId[_userAddress]].tptBalance */\n      0x01\n      add\n      0x00\n        /* \"contracts/TPTPreSale.sol\":5012:5060  users[userId[_userAddress]].tptBalance += _value */\n      dup3\n      dup3\n      sload\n      tag_230\n      swap2\n      swap1\n      tag_177\n      jump\t// in\n    tag_230:\n      swap3\n      pop\n      pop\n      dup2\n      swap1\n      sstore\n      pop\n        /* \"contracts/TPTPreSale.sol\":4837:5067  function grantPointsById(address _userAddress, uint256 _value)... */\n      pop\n      pop\n      jump\t// out\n        /* \"contracts/TPTPreSale.sol\":3874:4042  function withdrawAll(address payable _to) external onlyOwner {... */\n    tag_133:\n        /* \"contracts/TPTPreSale.sol\":830:835  owner */\n      0x01\n      0x00\n      swap1\n      sload\n      swap1\n      0x0100\n      exp\n      swap1\n      div\n      0xffffffffffffffffffffffffffffffffffffffff\n      and\n        /* \"contracts/TPTPreSale.sol\":816:835  msg.sender == owner */\n      0xffffffffffffffffffffffffffffffffffffffff\n      and\n        /* \"contracts/TPTPreSale.sol\":816:826  msg.sender */\n      caller\n        /* \"contracts/TPTPreSale.sol\":816:835  msg.sender == owner */\n      0xffffffffffffffffffffffffffffffffffffffff\n      and\n      eq\n        /* \"contracts/TPTPreSale.sol\":808:850  require(msg.sender == owner, \"Only owner\") */\n      tag_232\n      jumpi\n      mload(0x40)\n      0x08c379a000000000000000000000000000000000000000000000000000000000\n      dup2\n      mstore\n      0x04\n      add\n      tag_233\n      swap1\n      tag_191\n      jump\t// in\n    tag_233:\n      mload(0x40)\n      dup1\n      swap2\n      sub\n      swap1\n      revert\n    tag_232:\n        /* \"contracts/TPTPreSale.sol\":3968:3969  0 */\n      0x00\n        /* \"contracts/TPTPreSale.sol\":3953:3970  _to != address(0) */\n      0xffffffffffffffffffffffffffffffffffffffff\n      and\n        /* \"contracts/TPTPreSale.sol\":3953:3956  _to */\n      dup2\n        /* \"contracts/TPTPreSale.sol\":3953:3970  _to != address(0) */\n      0xffffffffffffffffffffffffffffffffffffffff\n      and\n      sub\n        /* \"contracts/TPTPreSale.sol\":3945:3990  require(_to != address(0), \"Invalid address\") */\n      tag_235\n      jumpi\n      mload(0x40)\n      0x08c379a000000000000000000000000000000000000000000000000000000000\n      dup2\n      mstore\n      0x04\n      add\n      tag_236\n      swap1\n      tag_237\n      jump\t// in\n    tag_236:\n      mload(0x40)\n      dup1\n      swap2\n      sub\n      swap1\n      revert\n    tag_235:\n        /* \"contracts/TPTPreSale.sol\":4000:4003  _to */\n      dup1\n        /* \"contracts/TPTPreSale.sol\":4000:4012  _to.transfer */\n      0xffffffffffffffffffffffffffffffffffffffff\n      and\n        /* \"contracts/TPTPreSale.sol\":4000:4035  _to.transfer(address(this).balance) */\n      0x08fc\n        /* \"contracts/TPTPreSale.sol\":4013:4034  address(this).balance */\n      selfbalance\n        /* \"contracts/TPTPreSale.sol\":4000:4035  _to.transfer(address(this).balance) */\n      swap1\n      dup2\n      iszero\n      mul\n      swap1\n      mload(0x40)\n      0x00\n      mload(0x40)\n      dup1\n      dup4\n      sub\n      dup2\n      dup6\n      dup9\n      dup9\n      call\n      swap4\n      pop\n      pop\n      pop\n      pop\n      iszero\n      dup1\n      iszero\n      tag_239\n      jumpi\n      returndatacopy(0x00, 0x00, returndatasize)\n      revert(0x00, returndatasize)\n    tag_239:\n      pop\n        /* \"contracts/TPTPreSale.sol\":3874:4042  function withdrawAll(address payable _to) external onlyOwner {... */\n      pop\n      jump\t// out\n        /* \"contracts/TPTPreSale.sol\":4660:4831  function getUserTPTBalance(address _userAddress)... */\n    tag_137:\n        /* \"contracts/TPTPreSale.sol\":4756:4763  uint256 */\n      0x00\n        /* \"contracts/TPTPreSale.sol\":4786:4791  users */\n      0x07\n        /* \"contracts/TPTPreSale.sol\":4786:4813  users[userId[_userAddress]] */\n      0x00\n        /* \"contracts/TPTPreSale.sol\":4792:4798  userId */\n      0x06\n        /* \"contracts/TPTPreSale.sol\":4792:4812  userId[_userAddress] */\n      0x00\n        /* \"contracts/TPTPreSale.sol\":4799:4811  _userAddress */\n      dup6\n        /* \"contracts/TPTPreSale.sol\":4792:4812  userId[_userAddress] */\n      0xffffffffffffffffffffffffffffffffffffffff\n      and\n      0xffffffffffffffffffffffffffffffffffffffff\n      and\n      dup2\n      mstore\n      0x20\n      add\n      swap1\n      dup2\n      mstore\n      0x20\n      add\n      0x00\n      keccak256\n      sload\n        /* \"contracts/TPTPreSale.sol\":4786:4813  users[userId[_userAddress]] */\n      dup2\n      mstore\n      0x20\n      add\n      swap1\n      dup2\n      mstore\n      0x20\n      add\n      0x00\n      keccak256\n        /* \"contracts/TPTPreSale.sol\":4786:4824  users[userId[_userAddress]].tptBalance */\n      0x01\n      add\n      sload\n        /* \"contracts/TPTPreSale.sol\":4779:4824  return users[userId[_userAddress]].tptBalance */\n      swap1\n      pop\n        /* \"contracts/TPTPreSale.sol\":4660:4831  function getUserTPTBalance(address _userAddress)... */\n      swap2\n      swap1\n      pop\n      jump\t// out\n        /* \"contracts/TPTPreSale.sol\":234:279  mapping(uint8 => uint256) public tptStepPrice */\n    tag_142:\n      mstore(0x20, 0x02)\n      dup1\n      0x00\n      mstore\n      keccak256(0x00, 0x40)\n      0x00\n      swap2\n      pop\n      swap1\n      pop\n      sload\n      dup2\n      jump\t// out\n    tag_157:\n      dup3\n      dup1\n      sload\n      dup3\n      dup3\n      sstore\n      swap1\n      0x00\n      mstore\n      keccak256(0x00, 0x20)\n      swap1\n      0x04\n      mul\n      dup2\n      add\n      swap3\n      dup3\n      iszero\n      tag_241\n      jumpi\n      0x00\n      mstore\n      keccak256(0x00, 0x20)\n      swap2\n      0x04\n      mul\n      dup3\n      add\n    tag_242:\n      dup3\n      dup2\n      gt\n      iszero\n      tag_243\n      jumpi\n      dup3\n      dup3\n      0x00\n      dup3\n      add\n      sload\n      dup2\n      0x00\n      add\n      sstore\n      0x01\n      dup3\n      add\n      sload\n      dup2\n      0x01\n      add\n      sstore\n      0x02\n      dup3\n      add\n      sload\n      dup2\n      0x02\n      add\n      sstore\n      0x03\n      dup3\n      add\n      0x00\n      swap1\n      sload\n      swap1\n      0x0100\n      exp\n      swap1\n      div\n      0xff\n      and\n      dup2\n      0x03\n      add\n      exp(0x0100, 0x00)\n      dup2\n      sload\n      dup2\n      0xff\n      mul\n      not\n      and\n      swap1\n      dup4\n      0xff\n      and\n      mul\n      or\n      swap1\n      sstore\n      pop\n      pop\n      pop\n      swap2\n      0x04\n      add\n      swap2\n      swap1\n      0x04\n      add\n      swap1\n      jump(tag_242)\n    tag_243:\n    tag_241:\n      pop\n      swap1\n      pop\n      tag_244\n      swap2\n      swap1\n      tag_245\n      jump\t// in\n    tag_244:\n      pop\n      swap1\n      jump\t// out\n    tag_180:\n      mload(0x40)\n      dup1\n      0x80\n      add\n      0x40\n      mstore\n      dup1\n      0x00\n      dup2\n      mstore\n      0x20\n      add\n      0x00\n      dup2\n      mstore\n      0x20\n      add\n      0x00\n      dup2\n      mstore\n      0x20\n      add\n      and(0xff, 0x00)\n      dup2\n      mstore\n      pop\n      swap1\n      jump\t// out\n    tag_218:\n      mload(0x40)\n      dup1\n      0x80\n      add\n      0x40\n      mstore\n      dup1\n      and(0xffffffffffffffffffffffffffffffffffffffff, 0x00)\n      dup2\n      mstore\n      0x20\n      add\n      0x00\n      dup2\n      mstore\n      0x20\n      add\n      iszero(iszero(0x00))\n      dup2\n      mstore\n      0x20\n      add\n      0x60\n      dup2\n      mstore\n      pop\n      swap1\n      jump\t// out\n    tag_245:\n    tag_246:\n      dup1\n      dup3\n      gt\n      iszero\n      tag_247\n      jumpi\n      0x00\n      0x00\n      dup3\n      add\n      0x00\n      swap1\n      sstore\n      0x01\n      dup3\n      add\n      0x00\n      swap1\n      sstore\n      0x02\n      dup3\n      add\n      0x00\n      swap1\n      sstore\n      0x03\n      dup3\n      add\n      exp(0x0100, 0x00)\n      dup2\n      sload\n      swap1\n      0xff\n      mul\n      not\n      and\n      swap1\n      sstore\n      pop\n      0x04\n      add\n      jump(tag_246)\n    tag_247:\n      pop\n      swap1\n      jump\t// out\n        /* \"#utility.yul\":7:176   */\n    tag_248:\n        /* \"#utility.yul\":91:102   */\n      0x00\n        /* \"#utility.yul\":125:131   */\n      dup3\n        /* \"#utility.yul\":120:123   */\n      dup3\n        /* \"#utility.yul\":113:132   */\n      mstore\n        /* \"#utility.yul\":165:169   */\n      0x20\n        /* \"#utility.yul\":160:163   */\n      dup3\n        /* \"#utility.yul\":156:170   */\n      add\n        /* \"#utility.yul\":141:170   */\n      swap1\n      pop\n        /* \"#utility.yul\":7:176   */\n      swap3\n      swap2\n      pop\n      pop\n      jump\t// out\n        /* \"#utility.yul\":182:356   */\n    tag_249:\n        /* \"#utility.yul\":322:348   */\n      0x53656e64206d6f726520424e4220746f20627579205450540000000000000000\n        /* \"#utility.yul\":318:319   */\n      0x00\n        /* \"#utility.yul\":310:316   */\n      dup3\n        /* \"#utility.yul\":306:320   */\n      add\n        /* \"#utility.yul\":299:349   */\n      mstore\n        /* \"#utility.yul\":182:356   */\n      pop\n      jump\t// out\n        /* \"#utility.yul\":362:728   */\n    tag_250:\n        /* \"#utility.yul\":504:507   */\n      0x00\n        /* \"#utility.yul\":525:592   */\n      tag_326\n        /* \"#utility.yul\":589:591   */\n      0x18\n        /* \"#utility.yul\":584:587   */\n      dup4\n        /* \"#utility.yul\":525:592   */\n      tag_248\n      jump\t// in\n    tag_326:\n        /* \"#utility.yul\":518:592   */\n      swap2\n      pop\n        /* \"#utility.yul\":601:694   */\n      tag_327\n        /* \"#utility.yul\":690:693   */\n      dup3\n        /* \"#utility.yul\":601:694   */\n      tag_249\n      jump\t// in\n    tag_327:\n        /* \"#utility.yul\":719:721   */\n      0x20\n        /* \"#utility.yul\":714:717   */\n      dup3\n        /* \"#utility.yul\":710:722   */\n      add\n        /* \"#utility.yul\":703:722   */\n      swap1\n      pop\n        /* \"#utility.yul\":362:728   */\n      swap2\n      swap1\n      pop\n      jump\t// out\n        /* \"#utility.yul\":734:1153   */\n    tag_27:\n        /* \"#utility.yul\":900:904   */\n      0x00\n        /* \"#utility.yul\":938:940   */\n      0x20\n        /* \"#utility.yul\":927:936   */\n      dup3\n        /* \"#utility.yul\":923:941   */\n      add\n        /* \"#utility.yul\":915:941   */\n      swap1\n      pop\n        /* \"#utility.yul\":987:996   */\n      dup2\n        /* \"#utility.yul\":981:985   */\n      dup2\n        /* \"#utility.yul\":977:997   */\n      sub\n        /* \"#utility.yul\":973:974   */\n      0x00\n        /* \"#utility.yul\":962:971   */\n      dup4\n        /* \"#utility.yul\":958:975   */\n      add\n        /* \"#utility.yul\":951:998   */\n      mstore\n        /* \"#utility.yul\":1015:1146   */\n      tag_329\n        /* \"#utility.yul\":1141:1145   */\n      dup2\n        /* \"#utility.yul\":1015:1146   */\n      tag_250\n      jump\t// in\n    tag_329:\n        /* \"#utility.yul\":1007:1146   */\n      swap1\n      pop\n        /* \"#utility.yul\":734:1153   */\n      swap2\n      swap1\n      pop\n      jump\t// out\n        /* \"#utility.yul\":1159:1306   */\n    tag_251:\n        /* \"#utility.yul\":1260:1271   */\n      0x00\n        /* \"#utility.yul\":1297:1300   */\n      dup2\n        /* \"#utility.yul\":1282:1300   */\n      swap1\n      pop\n        /* \"#utility.yul\":1159:1306   */\n      swap3\n      swap2\n      pop\n      pop\n      jump\t// out\n        /* \"#utility.yul\":1312:1426   */\n    tag_252:\n      pop\n      jump\t// out\n        /* \"#utility.yul\":1432:1830   */\n    tag_253:\n        /* \"#utility.yul\":1591:1594   */\n      0x00\n        /* \"#utility.yul\":1612:1695   */\n      tag_333\n        /* \"#utility.yul\":1693:1694   */\n      0x00\n        /* \"#utility.yul\":1688:1691   */\n      dup4\n        /* \"#utility.yul\":1612:1695   */\n      tag_251\n      jump\t// in\n    tag_333:\n        /* \"#utility.yul\":1605:1695   */\n      swap2\n      pop\n        /* \"#utility.yul\":1704:1797   */\n      tag_334\n        /* \"#utility.yul\":1793:1796   */\n      dup3\n        /* \"#utility.yul\":1704:1797   */\n      tag_252\n      jump\t// in\n    tag_334:\n        /* \"#utility.yul\":1822:1823   */\n      0x00\n        /* \"#utility.yul\":1817:1820   */\n      dup3\n        /* \"#utility.yul\":1813:1824   */\n      add\n        /* \"#utility.yul\":1806:1824   */\n      swap1\n      pop\n        /* \"#utility.yul\":1432:1830   */\n      swap2\n      swap1\n      pop\n      jump\t// out\n        /* \"#utility.yul\":1836:2215   */\n    tag_29:\n        /* \"#utility.yul\":2020:2023   */\n      0x00\n        /* \"#utility.yul\":2042:2189   */\n      tag_336\n        /* \"#utility.yul\":2185:2188   */\n      dup3\n        /* \"#utility.yul\":2042:2189   */\n      tag_253\n      jump\t// in\n    tag_336:\n        /* \"#utility.yul\":2035:2189   */\n      swap2\n      pop\n        /* \"#utility.yul\":2206:2209   */\n      dup2\n        /* \"#utility.yul\":2199:2209   */\n      swap1\n      pop\n        /* \"#utility.yul\":1836:2215   */\n      swap2\n      swap1\n      pop\n      jump\t// out\n        /* \"#utility.yul\":2221:2386   */\n    tag_254:\n        /* \"#utility.yul\":2361:2378   */\n      0x5472616e73666572206661696c65640000000000000000000000000000000000\n        /* \"#utility.yul\":2357:2358   */\n      0x00\n        /* \"#utility.yul\":2349:2355   */\n      dup3\n        /* \"#utility.yul\":2345:2359   */\n      add\n        /* \"#utility.yul\":2338:2379   */\n      mstore\n        /* \"#utility.yul\":2221:2386   */\n      pop\n      jump\t// out\n        /* \"#utility.yul\":2392:2758   */\n    tag_255:\n        /* \"#utility.yul\":2534:2537   */\n      0x00\n        /* \"#utility.yul\":2555:2622   */\n      tag_339\n        /* \"#utility.yul\":2619:2621   */\n      0x0f\n        /* \"#utility.yul\":2614:2617   */\n      dup4\n        /* \"#utility.yul\":2555:2622   */\n      tag_248\n      jump\t// in\n    tag_339:\n        /* \"#utility.yul\":2548:2622   */\n      swap2\n      pop\n        /* \"#utility.yul\":2631:2724   */\n      tag_340\n        /* \"#utility.yul\":2720:2723   */\n      dup3\n        /* \"#utility.yul\":2631:2724   */\n      tag_254\n      jump\t// in\n    tag_340:\n        /* \"#utility.yul\":2749:2751   */\n      0x20\n        /* \"#utility.yul\":2744:2747   */\n      dup3\n        /* \"#utility.yul\":2740:2752   */\n      add\n        /* \"#utility.yul\":2733:2752   */\n      swap1\n      pop\n        /* \"#utility.yul\":2392:2758   */\n      swap2\n      swap1\n      pop\n      jump\t// out\n        /* \"#utility.yul\":2764:3183   */\n    tag_35:\n        /* \"#utility.yul\":2930:2934   */\n      0x00\n        /* \"#utility.yul\":2968:2970   */\n      0x20\n        /* \"#utility.yul\":2957:2966   */\n      dup3\n        /* \"#utility.yul\":2953:2971   */\n      add\n        /* \"#utility.yul\":2945:2971   */\n      swap1\n      pop\n        /* \"#utility.yul\":3017:3026   */\n      dup2\n        /* \"#utility.yul\":3011:3015   */\n      dup2\n        /* \"#utility.yul\":3007:3027   */\n      sub\n        /* \"#utility.yul\":3003:3004   */\n      0x00\n        /* \"#utility.yul\":2992:3001   */\n      dup4\n        /* \"#utility.yul\":2988:3005   */\n      add\n        /* \"#utility.yul\":2981:3028   */\n      mstore\n        /* \"#utility.yul\":3045:3176   */\n      tag_342\n        /* \"#utility.yul\":3171:3175   */\n      dup2\n        /* \"#utility.yul\":3045:3176   */\n      tag_255\n      jump\t// in\n    tag_342:\n        /* \"#utility.yul\":3037:3176   */\n      swap1\n      pop\n        /* \"#utility.yul\":2764:3183   */\n      swap2\n      swap1\n      pop\n      jump\t// out\n        /* \"#utility.yul\":3189:3358   */\n    tag_256:\n        /* \"#utility.yul\":3329:3350   */\n      0x496e76616c69642064617461206c656e67746800000000000000000000000000\n        /* \"#utility.yul\":3325:3326   */\n      0x00\n        /* \"#utility.yul\":3317:3323   */\n      dup3\n        /* \"#utility.yul\":3313:3327   */\n      add\n        /* \"#utility.yul\":3306:3351   */\n      mstore\n        /* \"#utility.yul\":3189:3358   */\n      pop\n      jump\t// out\n        /* \"#utility.yul\":3364:3730   */\n    tag_257:\n        /* \"#utility.yul\":3506:3509   */\n      0x00\n        /* \"#utility.yul\":3527:3594   */\n      tag_345\n        /* \"#utility.yul\":3591:3593   */\n      0x13\n        /* \"#utility.yul\":3586:3589   */\n      dup4\n        /* \"#utility.yul\":3527:3594   */\n      tag_248\n      jump\t// in\n    tag_345:\n        /* \"#utility.yul\":3520:3594   */\n      swap2\n      pop\n        /* \"#utility.yul\":3603:3696   */\n      tag_346\n        /* \"#utility.yul\":3692:3695   */\n      dup3\n        /* \"#utility.yul\":3603:3696   */\n      tag_256\n      jump\t// in\n    tag_346:\n        /* \"#utility.yul\":3721:3723   */\n      0x20\n        /* \"#utility.yul\":3716:3719   */\n      dup3\n        /* \"#utility.yul\":3712:3724   */\n      add\n        /* \"#utility.yul\":3705:3724   */\n      swap1\n      pop\n        /* \"#utility.yul\":3364:3730   */\n      swap2\n      swap1\n      pop\n      jump\t// out\n        /* \"#utility.yul\":3736:4155   */\n    tag_44:\n        /* \"#utility.yul\":3902:3906   */\n      0x00\n        /* \"#utility.yul\":3940:3942   */\n      0x20\n        /* \"#utility.yul\":3929:3938   */\n      dup3\n        /* \"#utility.yul\":3925:3943   */\n      add\n        /* \"#utility.yul\":3917:3943   */\n      swap1\n      pop\n        /* \"#utility.yul\":3989:3998   */\n      dup2\n        /* \"#utility.yul\":3983:3987   */\n      dup2\n        /* \"#utility.yul\":3979:3999   */\n      sub\n        /* \"#utility.yul\":3975:3976   */\n      0x00\n        /* \"#utility.yul\":3964:3973   */\n      dup4\n        /* \"#utility.yul\":3960:3977   */\n      add\n        /* \"#utility.yul\":3953:4000   */\n      mstore\n        /* \"#utility.yul\":4017:4148   */\n      tag_348\n        /* \"#utility.yul\":4143:4147   */\n      dup2\n        /* \"#utility.yul\":4017:4148   */\n      tag_257\n      jump\t// in\n    tag_348:\n        /* \"#utility.yul\":4009:4148   */\n      swap1\n      pop\n        /* \"#utility.yul\":3736:4155   */\n      swap2\n      swap1\n      pop\n      jump\t// out\n        /* \"#utility.yul\":4161:4236   */\n    tag_258:\n        /* \"#utility.yul\":4194:4200   */\n      0x00\n        /* \"#utility.yul\":4227:4229   */\n      0x40\n        /* \"#utility.yul\":4221:4230   */\n      mload\n        /* \"#utility.yul\":4211:4230   */\n      swap1\n      pop\n        /* \"#utility.yul\":4161:4236   */\n      swap1\n      jump\t// out\n        /* \"#utility.yul\":4242:4359   */\n    tag_259:\n        /* \"#utility.yul\":4351:4352   */\n      0x00\n        /* \"#utility.yul\":4348:4349   */\n      0x00\n        /* \"#utility.yul\":4341:4353   */\n      revert\n        /* \"#utility.yul\":4365:4482   */\n    tag_260:\n        /* \"#utility.yul\":4474:4475   */\n      0x00\n        /* \"#utility.yul\":4471:4472   */\n      0x00\n        /* \"#utility.yul\":4464:4476   */\n      revert\n        /* \"#utility.yul\":4488:4578   */\n    tag_261:\n        /* \"#utility.yul\":4522:4529   */\n      0x00\n        /* \"#utility.yul\":4565:4570   */\n      dup2\n        /* \"#utility.yul\":4558:4571   */\n      iszero\n        /* \"#utility.yul\":4551:4572   */\n      iszero\n        /* \"#utility.yul\":4540:4572   */\n      swap1\n      pop\n        /* \"#utility.yul\":4488:4578   */\n      swap2\n      swap1\n      pop\n      jump\t// out\n        /* \"#utility.yul\":4584:4700   */\n    tag_262:\n        /* \"#utility.yul\":4654:4675   */\n      tag_354\n        /* \"#utility.yul\":4669:4674   */\n      dup2\n        /* \"#utility.yul\":4654:4675   */\n      tag_261\n      jump\t// in\n    tag_354:\n        /* \"#utility.yul\":4647:4652   */\n      dup2\n        /* \"#utility.yul\":4644:4676   */\n      eq\n        /* \"#utility.yul\":4634:4694   */\n      tag_355\n      jumpi\n        /* \"#utility.yul\":4690:4691   */\n      0x00\n        /* \"#utility.yul\":4687:4688   */\n      0x00\n        /* \"#utility.yul\":4680:4692   */\n      revert\n        /* \"#utility.yul\":4634:4694   */\n    tag_355:\n        /* \"#utility.yul\":4584:4700   */\n      pop\n      jump\t// out\n        /* \"#utility.yul\":4706:4839   */\n    tag_263:\n        /* \"#utility.yul\":4749:4754   */\n      0x00\n        /* \"#utility.yul\":4787:4793   */\n      dup2\n        /* \"#utility.yul\":4774:4794   */\n      calldataload\n        /* \"#utility.yul\":4765:4794   */\n      swap1\n      pop\n        /* \"#utility.yul\":4803:4833   */\n      tag_357\n        /* \"#utility.yul\":4827:4832   */\n      dup2\n        /* \"#utility.yul\":4803:4833   */\n      tag_262\n      jump\t// in\n    tag_357:\n        /* \"#utility.yul\":4706:4839   */\n      swap3\n      swap2\n      pop\n      pop\n      jump\t// out\n        /* \"#utility.yul\":4845:5168   */\n    tag_46:\n        /* \"#utility.yul\":4901:4907   */\n      0x00\n        /* \"#utility.yul\":4950:4952   */\n      0x20\n        /* \"#utility.yul\":4938:4947   */\n      dup3\n        /* \"#utility.yul\":4929:4936   */\n      dup5\n        /* \"#utility.yul\":4925:4948   */\n      sub\n        /* \"#utility.yul\":4921:4953   */\n      slt\n        /* \"#utility.yul\":4918:5037   */\n      iszero\n      tag_359\n      jumpi\n        /* \"#utility.yul\":4956:5035   */\n      tag_360\n      tag_259\n      jump\t// in\n    tag_360:\n        /* \"#utility.yul\":4918:5037   */\n    tag_359:\n        /* \"#utility.yul\":5076:5077   */\n      0x00\n        /* \"#utility.yul\":5101:5151   */\n      tag_361\n        /* \"#utility.yul\":5143:5150   */\n      dup5\n        /* \"#utility.yul\":5134:5140   */\n      dup3\n        /* \"#utility.yul\":5123:5132   */\n      dup6\n        /* \"#utility.yul\":5119:5141   */\n      add\n        /* \"#utility.yul\":5101:5151   */\n      tag_263\n      jump\t// in\n    tag_361:\n        /* \"#utility.yul\":5091:5151   */\n      swap2\n      pop\n        /* \"#utility.yul\":5047:5161   */\n      pop\n        /* \"#utility.yul\":4845:5168   */\n      swap3\n      swap2\n      pop\n      pop\n      jump\t// out\n        /* \"#utility.yul\":5174:5342   */\n    tag_264:\n        /* \"#utility.yul\":5314:5334   */\n      0x73656e64206a75737420302e303520626e620000000000000000000000000000\n        /* \"#utility.yul\":5310:5311   */\n      0x00\n        /* \"#utility.yul\":5302:5308   */\n      dup3\n        /* \"#utility.yul\":5298:5312   */\n      add\n        /* \"#utility.yul\":5291:5335   */\n      mstore\n        /* \"#utility.yul\":5174:5342   */\n      pop\n      jump\t// out\n        /* \"#utility.yul\":5348:5714   */\n    tag_265:\n        /* \"#utility.yul\":5490:5493   */\n      0x00\n        /* \"#utility.yul\":5511:5578   */\n      tag_364\n        /* \"#utility.yul\":5575:5577   */\n      0x12\n        /* \"#utility.yul\":5570:5573   */\n      dup4\n        /* \"#utility.yul\":5511:5578   */\n      tag_248\n      jump\t// in\n    tag_364:\n        /* \"#utility.yul\":5504:5578   */\n      swap2\n      pop\n        /* \"#utility.yul\":5587:5680   */\n      tag_365\n        /* \"#utility.yul\":5676:5679   */\n      dup3\n        /* \"#utility.yul\":5587:5680   */\n      tag_264\n      jump\t// in\n    tag_365:\n        /* \"#utility.yul\":5705:5707   */\n      0x20\n        /* \"#utility.yul\":5700:5703   */\n      dup3\n        /* \"#utility.yul\":5696:5708   */\n      add\n        /* \"#utility.yul\":5689:5708   */\n      swap1\n      pop\n        /* \"#utility.yul\":5348:5714   */\n      swap2\n      swap1\n      pop\n      jump\t// out\n        /* \"#utility.yul\":5720:6139   */\n    tag_50:\n        /* \"#utility.yul\":5886:5890   */\n      0x00\n        /* \"#utility.yul\":5924:5926   */\n      0x20\n        /* \"#utility.yul\":5913:5922   */\n      dup3\n        /* \"#utility.yul\":5909:5927   */\n      add\n        /* \"#utility.yul\":5901:5927   */\n      swap1\n      pop\n        /* \"#utility.yul\":5973:5982   */\n      dup2\n        /* \"#utility.yul\":5967:5971   */\n      dup2\n        /* \"#utility.yul\":5963:5983   */\n      sub\n        /* \"#utility.yul\":5959:5960   */\n      0x00\n        /* \"#utility.yul\":5948:5957   */\n      dup4\n        /* \"#utility.yul\":5944:5961   */\n      add\n        /* \"#utility.yul\":5937:5984   */\n      mstore\n        /* \"#utility.yul\":6001:6132   */\n      tag_367\n        /* \"#utility.yul\":6127:6131   */\n      dup2\n        /* \"#utility.yul\":6001:6132   */\n      tag_265\n      jump\t// in\n    tag_367:\n        /* \"#utility.yul\":5993:6132   */\n      swap1\n      pop\n        /* \"#utility.yul\":5720:6139   */\n      swap2\n      swap1\n      pop\n      jump\t// out\n        /* \"#utility.yul\":6145:6271   */\n    tag_266:\n        /* \"#utility.yul\":6182:6189   */\n      0x00\n        /* \"#utility.yul\":6222:6264   */\n      0xffffffffffffffffffffffffffffffffffffffff\n        /* \"#utility.yul\":6215:6220   */\n      dup3\n        /* \"#utility.yul\":6211:6265   */\n      and\n        /* \"#utility.yul\":6200:6265   */\n      swap1\n      pop\n        /* \"#utility.yul\":6145:6271   */\n      swap2\n      swap1\n      pop\n      jump\t// out\n        /* \"#utility.yul\":6277:6373   */\n    tag_267:\n        /* \"#utility.yul\":6314:6321   */\n      0x00\n        /* \"#utility.yul\":6343:6367   */\n      tag_370\n        /* \"#utility.yul\":6361:6366   */\n      dup3\n        /* \"#utility.yul\":6343:6367   */\n      tag_266\n      jump\t// in\n    tag_370:\n        /* \"#utility.yul\":6332:6367   */\n      swap1\n      pop\n        /* \"#utility.yul\":6277:6373   */\n      swap2\n      swap1\n      pop\n      jump\t// out\n        /* \"#utility.yul\":6379:6501   */\n    tag_268:\n        /* \"#utility.yul\":6452:6476   */\n      tag_372\n        /* \"#utility.yul\":6470:6475   */\n      dup2\n        /* \"#utility.yul\":6452:6476   */\n      tag_267\n      jump\t// in\n    tag_372:\n        /* \"#utility.yul\":6445:6450   */\n      dup2\n        /* \"#utility.yul\":6442:6477   */\n      eq\n        /* \"#utility.yul\":6432:6495   */\n      tag_373\n      jumpi\n        /* \"#utility.yul\":6491:6492   */\n      0x00\n        /* \"#utility.yul\":6488:6489   */\n      0x00\n        /* \"#utility.yul\":6481:6493   */\n      revert\n        /* \"#utility.yul\":6432:6495   */\n    tag_373:\n        /* \"#utility.yul\":6379:6501   */\n      pop\n      jump\t// out\n        /* \"#utility.yul\":6507:6646   */\n    tag_269:\n        /* \"#utility.yul\":6553:6558   */\n      0x00\n        /* \"#utility.yul\":6591:6597   */\n      dup2\n        /* \"#utility.yul\":6578:6598   */\n      calldataload\n        /* \"#utility.yul\":6569:6598   */\n      swap1\n      pop\n        /* \"#utility.yul\":6607:6640   */\n      tag_375\n        /* \"#utility.yul\":6634:6639   */\n      dup2\n        /* \"#utility.yul\":6607:6640   */\n      tag_268\n      jump\t// in\n    tag_375:\n        /* \"#utility.yul\":6507:6646   */\n      swap3\n      swap2\n      pop\n      pop\n      jump\t// out\n        /* \"#utility.yul\":6652:6729   */\n    tag_270:\n        /* \"#utility.yul\":6689:6696   */\n      0x00\n        /* \"#utility.yul\":6718:6723   */\n      dup2\n        /* \"#utility.yul\":6707:6723   */\n      swap1\n      pop\n        /* \"#utility.yul\":6652:6729   */\n      swap2\n      swap1\n      pop\n      jump\t// out\n        /* \"#utility.yul\":6735:6857   */\n    tag_271:\n        /* \"#utility.yul\":6808:6832   */\n      tag_378\n        /* \"#utility.yul\":6826:6831   */\n      dup2\n        /* \"#utility.yul\":6808:6832   */\n      tag_270\n      jump\t// in\n    tag_378:\n        /* \"#utility.yul\":6801:6806   */\n      dup2\n        /* \"#utility.yul\":6798:6833   */\n      eq\n        /* \"#utility.yul\":6788:6851   */\n      tag_379\n      jumpi\n        /* \"#utility.yul\":6847:6848   */\n      0x00\n        /* \"#utility.yul\":6844:6845   */\n      0x00\n        /* \"#utility.yul\":6837:6849   */\n      revert\n        /* \"#utility.yul\":6788:6851   */\n    tag_379:\n        /* \"#utility.yul\":6735:6857   */\n      pop\n      jump\t// out\n        /* \"#utility.yul\":6863:7002   */\n    tag_272:\n        /* \"#utility.yul\":6909:6914   */\n      0x00\n        /* \"#utility.yul\":6947:6953   */\n      dup2\n        /* \"#utility.yul\":6934:6954   */\n      calldataload\n        /* \"#utility.yul\":6925:6954   */\n      swap1\n      pop\n        /* \"#utility.yul\":6963:6996   */\n      tag_381\n        /* \"#utility.yul\":6990:6995   */\n      dup2\n        /* \"#utility.yul\":6963:6996   */\n      tag_271\n      jump\t// in\n    tag_381:\n        /* \"#utility.yul\":6863:7002   */\n      swap3\n      swap2\n      pop\n      pop\n      jump\t// out\n        /* \"#utility.yul\":7008:7482   */\n    tag_62:\n        /* \"#utility.yul\":7076:7082   */\n      0x00\n        /* \"#utility.yul\":7084:7090   */\n      0x00\n        /* \"#utility.yul\":7133:7135   */\n      0x40\n        /* \"#utility.yul\":7121:7130   */\n      dup4\n        /* \"#utility.yul\":7112:7119   */\n      dup6\n        /* \"#utility.yul\":7108:7131   */\n      sub\n        /* \"#utility.yul\":7104:7136   */\n      slt\n        /* \"#utility.yul\":7101:7220   */\n      iszero\n      tag_383\n      jumpi\n        /* \"#utility.yul\":7139:7218   */\n      tag_384\n      tag_259\n      jump\t// in\n    tag_384:\n        /* \"#utility.yul\":7101:7220   */\n    tag_383:\n        /* \"#utility.yul\":7259:7260   */\n      0x00\n        /* \"#utility.yul\":7284:7337   */\n      tag_385\n        /* \"#utility.yul\":7329:7336   */\n      dup6\n        /* \"#utility.yul\":7320:7326   */\n      dup3\n        /* \"#utility.yul\":7309:7318   */\n      dup7\n        /* \"#utility.yul\":7305:7327   */\n      add\n        /* \"#utility.yul\":7284:7337   */\n      tag_269\n      jump\t// in\n    tag_385:\n        /* \"#utility.yul\":7274:7337   */\n      swap3\n      pop\n        /* \"#utility.yul\":7230:7347   */\n      pop\n        /* \"#utility.yul\":7386:7388   */\n      0x20\n        /* \"#utility.yul\":7412:7465   */\n      tag_386\n        /* \"#utility.yul\":7457:7464   */\n      dup6\n        /* \"#utility.yul\":7448:7454   */\n      dup3\n        /* \"#utility.yul\":7437:7446   */\n      dup7\n        /* \"#utility.yul\":7433:7455   */\n      add\n        /* \"#utility.yul\":7412:7465   */\n      tag_272\n      jump\t// in\n    tag_386:\n        /* \"#utility.yul\":7402:7465   */\n      swap2\n      pop\n        /* \"#utility.yul\":7357:7475   */\n      pop\n        /* \"#utility.yul\":7008:7482   */\n      swap3\n      pop\n      swap3\n      swap1\n      pop\n      jump\t// out\n        /* \"#utility.yul\":7488:7596   */\n    tag_273:\n        /* \"#utility.yul\":7565:7589   */\n      tag_388\n        /* \"#utility.yul\":7583:7588   */\n      dup2\n        /* \"#utility.yul\":7565:7589   */\n      tag_270\n      jump\t// in\n    tag_388:\n        /* \"#utility.yul\":7560:7563   */\n      dup3\n        /* \"#utility.yul\":7553:7590   */\n      mstore\n        /* \"#utility.yul\":7488:7596   */\n      pop\n      pop\n      jump\t// out\n        /* \"#utility.yul\":7602:7688   */\n    tag_274:\n        /* \"#utility.yul\":7637:7644   */\n      0x00\n        /* \"#utility.yul\":7677:7681   */\n      0xff\n        /* \"#utility.yul\":7670:7675   */\n      dup3\n        /* \"#utility.yul\":7666:7682   */\n      and\n        /* \"#utility.yul\":7655:7682   */\n      swap1\n      pop\n        /* \"#utility.yul\":7602:7688   */\n      swap2\n      swap1\n      pop\n      jump\t// out\n        /* \"#utility.yul\":7694:7796   */\n    tag_275:\n        /* \"#utility.yul\":7767:7789   */\n      tag_391\n        /* \"#utility.yul\":7783:7788   */\n      dup2\n        /* \"#utility.yul\":7767:7789   */\n      tag_274\n      jump\t// in\n    tag_391:\n        /* \"#utility.yul\":7762:7765   */\n      dup3\n        /* \"#utility.yul\":7755:7790   */\n      mstore\n        /* \"#utility.yul\":7694:7796   */\n      pop\n      pop\n      jump\t// out\n        /* \"#utility.yul\":7866:8730   */\n    tag_276:\n        /* \"#utility.yul\":8011:8015   */\n      0x80\n        /* \"#utility.yul\":8006:8009   */\n      dup3\n        /* \"#utility.yul\":8002:8016   */\n      add\n        /* \"#utility.yul\":8103:8107   */\n      0x00\n        /* \"#utility.yul\":8096:8101   */\n      dup3\n        /* \"#utility.yul\":8092:8108   */\n      add\n        /* \"#utility.yul\":8086:8109   */\n      mload\n        /* \"#utility.yul\":8122:8185   */\n      tag_393\n        /* \"#utility.yul\":8179:8183   */\n      0x00\n        /* \"#utility.yul\":8174:8177   */\n      dup6\n        /* \"#utility.yul\":8170:8184   */\n      add\n        /* \"#utility.yul\":8156:8168   */\n      dup3\n        /* \"#utility.yul\":8122:8185   */\n      tag_273\n      jump\t// in\n    tag_393:\n        /* \"#utility.yul\":8026:8195   */\n      pop\n        /* \"#utility.yul\":8282:8286   */\n      0x20\n        /* \"#utility.yul\":8275:8280   */\n      dup3\n        /* \"#utility.yul\":8271:8287   */\n      add\n        /* \"#utility.yul\":8265:8288   */\n      mload\n        /* \"#utility.yul\":8301:8364   */\n      tag_394\n        /* \"#utility.yul\":8358:8362   */\n      0x20\n        /* \"#utility.yul\":8353:8356   */\n      dup6\n        /* \"#utility.yul\":8349:8363   */\n      add\n        /* \"#utility.yul\":8335:8347   */\n      dup3\n        /* \"#utility.yul\":8301:8364   */\n      tag_273\n      jump\t// in\n    tag_394:\n        /* \"#utility.yul\":8205:8374   */\n      pop\n        /* \"#utility.yul\":8461:8465   */\n      0x40\n        /* \"#utility.yul\":8454:8459   */\n      dup3\n        /* \"#utility.yul\":8450:8466   */\n      add\n        /* \"#utility.yul\":8444:8467   */\n      mload\n        /* \"#utility.yul\":8480:8543   */\n      tag_395\n        /* \"#utility.yul\":8537:8541   */\n      0x40\n        /* \"#utility.yul\":8532:8535   */\n      dup6\n        /* \"#utility.yul\":8528:8542   */\n      add\n        /* \"#utility.yul\":8514:8526   */\n      dup3\n        /* \"#utility.yul\":8480:8543   */\n      tag_273\n      jump\t// in\n    tag_395:\n        /* \"#utility.yul\":8384:8553   */\n      pop\n        /* \"#utility.yul\":8635:8639   */\n      0x60\n        /* \"#utility.yul\":8628:8633   */\n      dup3\n        /* \"#utility.yul\":8624:8640   */\n      add\n        /* \"#utility.yul\":8618:8641   */\n      mload\n        /* \"#utility.yul\":8654:8713   */\n      tag_396\n        /* \"#utility.yul\":8707:8711   */\n      0x60\n        /* \"#utility.yul\":8702:8705   */\n      dup6\n        /* \"#utility.yul\":8698:8712   */\n      add\n        /* \"#utility.yul\":8684:8696   */\n      dup3\n        /* \"#utility.yul\":8654:8713   */\n      tag_275\n      jump\t// in\n    tag_396:\n        /* \"#utility.yul\":8563:8723   */\n      pop\n        /* \"#utility.yul\":7980:8730   */\n      pop\n        /* \"#utility.yul\":7866:8730   */\n      pop\n      pop\n      jump\t// out\n        /* \"#utility.yul\":8736:9055   */\n    tag_65:\n        /* \"#utility.yul\":8877:8881   */\n      0x00\n        /* \"#utility.yul\":8915:8918   */\n      0x80\n        /* \"#utility.yul\":8904:8913   */\n      dup3\n        /* \"#utility.yul\":8900:8919   */\n      add\n        /* \"#utility.yul\":8892:8919   */\n      swap1\n      pop\n        /* \"#utility.yul\":8929:9048   */\n      tag_398\n        /* \"#utility.yul\":9045:9046   */\n      0x00\n        /* \"#utility.yul\":9034:9043   */\n      dup4\n        /* \"#utility.yul\":9030:9047   */\n      add\n        /* \"#utility.yul\":9021:9027   */\n      dup5\n        /* \"#utility.yul\":8929:9048   */\n      tag_276\n      jump\t// in\n    tag_398:\n        /* \"#utility.yul\":8736:9055   */\n      swap3\n      swap2\n      pop\n      pop\n      jump\t// out\n        /* \"#utility.yul\":9061:9390   */\n    tag_69:\n        /* \"#utility.yul\":9120:9126   */\n      0x00\n        /* \"#utility.yul\":9169:9171   */\n      0x20\n        /* \"#utility.yul\":9157:9166   */\n      dup3\n        /* \"#utility.yul\":9148:9155   */\n      dup5\n        /* \"#utility.yul\":9144:9167   */\n      sub\n        /* \"#utility.yul\":9140:9172   */\n      slt\n        /* \"#utility.yul\":9137:9256   */\n      iszero\n      tag_400\n      jumpi\n        /* \"#utility.yul\":9175:9254   */\n      tag_401\n      tag_259\n      jump\t// in\n    tag_401:\n        /* \"#utility.yul\":9137:9256   */\n    tag_400:\n        /* \"#utility.yul\":9295:9296   */\n      0x00\n        /* \"#utility.yul\":9320:9373   */\n      tag_402\n        /* \"#utility.yul\":9365:9372   */\n      dup5\n        /* \"#utility.yul\":9356:9362   */\n      dup3\n        /* \"#utility.yul\":9345:9354   */\n      dup6\n        /* \"#utility.yul\":9341:9363   */\n      add\n        /* \"#utility.yul\":9320:9373   */\n      tag_269\n      jump\t// in\n    tag_402:\n        /* \"#utility.yul\":9310:9373   */\n      swap2\n      pop\n        /* \"#utility.yul\":9266:9383   */\n      pop\n        /* \"#utility.yul\":9061:9390   */\n      swap3\n      swap2\n      pop\n      pop\n      jump\t// out\n        /* \"#utility.yul\":9396:9514   */\n    tag_277:\n        /* \"#utility.yul\":9483:9507   */\n      tag_404\n        /* \"#utility.yul\":9501:9506   */\n      dup2\n        /* \"#utility.yul\":9483:9507   */\n      tag_270\n      jump\t// in\n    tag_404:\n        /* \"#utility.yul\":9478:9481   */\n      dup3\n        /* \"#utility.yul\":9471:9508   */\n      mstore\n        /* \"#utility.yul\":9396:9514   */\n      pop\n      pop\n      jump\t// out\n        /* \"#utility.yul\":9520:9742   */\n    tag_72:\n        /* \"#utility.yul\":9613:9617   */\n      0x00\n        /* \"#utility.yul\":9651:9653   */\n      0x20\n        /* \"#utility.yul\":9640:9649   */\n      dup3\n        /* \"#utility.yul\":9636:9654   */\n      add\n        /* \"#utility.yul\":9628:9654   */\n      swap1\n      pop\n        /* \"#utility.yul\":9664:9735   */\n      tag_406\n        /* \"#utility.yul\":9732:9733   */\n      0x00\n        /* \"#utility.yul\":9721:9730   */\n      dup4\n        /* \"#utility.yul\":9717:9734   */\n      add\n        /* \"#utility.yul\":9708:9714   */\n      dup5\n        /* \"#utility.yul\":9664:9735   */\n      tag_277\n      jump\t// in\n    tag_406:\n        /* \"#utility.yul\":9520:9742   */\n      swap3\n      swap2\n      pop\n      pop\n      jump\t// out\n        /* \"#utility.yul\":9748:9847   */\n    tag_278:\n        /* \"#utility.yul\":9800:9806   */\n      0x00\n        /* \"#utility.yul\":9834:9839   */\n      dup2\n        /* \"#utility.yul\":9828:9840   */\n      mload\n        /* \"#utility.yul\":9818:9840   */\n      swap1\n      pop\n        /* \"#utility.yul\":9748:9847   */\n      swap2\n      swap1\n      pop\n      jump\t// out\n        /* \"#utility.yul\":9853:9992   */\n    tag_279:\n        /* \"#utility.yul\":9942:9948   */\n      dup3\n        /* \"#utility.yul\":9937:9940   */\n      dup2\n        /* \"#utility.yul\":9932:9935   */\n      dup4\n        /* \"#utility.yul\":9926:9949   */\n      mcopy\n        /* \"#utility.yul\":9983:9984   */\n      0x00\n        /* \"#utility.yul\":9974:9980   */\n      dup4\n        /* \"#utility.yul\":9969:9972   */\n      dup4\n        /* \"#utility.yul\":9965:9981   */\n      add\n        /* \"#utility.yul\":9958:9985   */\n      mstore\n        /* \"#utility.yul\":9853:9992   */\n      pop\n      pop\n      pop\n      jump\t// out\n        /* \"#utility.yul\":9998:10100   */\n    tag_280:\n        /* \"#utility.yul\":10039:10045   */\n      0x00\n        /* \"#utility.yul\":10090:10092   */\n      0x1f\n        /* \"#utility.yul\":10086:10093   */\n      not\n        /* \"#utility.yul\":10081:10083   */\n      0x1f\n        /* \"#utility.yul\":10074:10079   */\n      dup4\n        /* \"#utility.yul\":10070:10084   */\n      add\n        /* \"#utility.yul\":10066:10094   */\n      and\n        /* \"#utility.yul\":10056:10094   */\n      swap1\n      pop\n        /* \"#utility.yul\":9998:10100   */\n      swap2\n      swap1\n      pop\n      jump\t// out\n        /* \"#utility.yul\":10106:10483   */\n    tag_281:\n        /* \"#utility.yul\":10194:10197   */\n      0x00\n        /* \"#utility.yul\":10222:10261   */\n      tag_411\n        /* \"#utility.yul\":10255:10260   */\n      dup3\n        /* \"#utility.yul\":10222:10261   */\n      tag_278\n      jump\t// in\n    tag_411:\n        /* \"#utility.yul\":10277:10348   */\n      tag_412\n        /* \"#utility.yul\":10341:10347   */\n      dup2\n        /* \"#utility.yul\":10336:10339   */\n      dup6\n        /* \"#utility.yul\":10277:10348   */\n      tag_248\n      jump\t// in\n    tag_412:\n        /* \"#utility.yul\":10270:10348   */\n      swap4\n      pop\n        /* \"#utility.yul\":10357:10422   */\n      tag_413\n        /* \"#utility.yul\":10415:10421   */\n      dup2\n        /* \"#utility.yul\":10410:10413   */\n      dup6\n        /* \"#utility.yul\":10403:10407   */\n      0x20\n        /* \"#utility.yul\":10396:10401   */\n      dup7\n        /* \"#utility.yul\":10392:10408   */\n      add\n        /* \"#utility.yul\":10357:10422   */\n      tag_279\n      jump\t// in\n    tag_413:\n        /* \"#utility.yul\":10447:10476   */\n      tag_414\n        /* \"#utility.yul\":10469:10475   */\n      dup2\n        /* \"#utility.yul\":10447:10476   */\n      tag_280\n      jump\t// in\n    tag_414:\n        /* \"#utility.yul\":10442:10445   */\n      dup5\n        /* \"#utility.yul\":10438:10477   */\n      add\n        /* \"#utility.yul\":10431:10477   */\n      swap2\n      pop\n        /* \"#utility.yul\":10198:10483   */\n      pop\n        /* \"#utility.yul\":10106:10483   */\n      swap3\n      swap2\n      pop\n      pop\n      jump\t// out\n        /* \"#utility.yul\":10489:10802   */\n    tag_85:\n        /* \"#utility.yul\":10602:10606   */\n      0x00\n        /* \"#utility.yul\":10640:10642   */\n      0x20\n        /* \"#utility.yul\":10629:10638   */\n      dup3\n        /* \"#utility.yul\":10625:10643   */\n      add\n        /* \"#utility.yul\":10617:10643   */\n      swap1\n      pop\n        /* \"#utility.yul\":10689:10698   */\n      dup2\n        /* \"#utility.yul\":10683:10687   */\n      dup2\n        /* \"#utility.yul\":10679:10699   */\n      sub\n        /* \"#utility.yul\":10675:10676   */\n      0x00\n        /* \"#utility.yul\":10664:10673   */\n      dup4\n        /* \"#utility.yul\":10660:10677   */\n      add\n        /* \"#utility.yul\":10653:10700   */\n      mstore\n        /* \"#utility.yul\":10717:10795   */\n      tag_416\n        /* \"#utility.yul\":10790:10794   */\n      dup2\n        /* \"#utility.yul\":10781:10787   */\n      dup5\n        /* \"#utility.yul\":10717:10795   */\n      tag_281\n      jump\t// in\n    tag_416:\n        /* \"#utility.yul\":10709:10795   */\n      swap1\n      pop\n        /* \"#utility.yul\":10489:10802   */\n      swap3\n      swap2\n      pop\n      pop\n      jump\t// out\n        /* \"#utility.yul\":10808:10926   */\n    tag_282:\n        /* \"#utility.yul\":10879:10901   */\n      tag_418\n        /* \"#utility.yul\":10895:10900   */\n      dup2\n        /* \"#utility.yul\":10879:10901   */\n      tag_274\n      jump\t// in\n    tag_418:\n        /* \"#utility.yul\":10872:10877   */\n      dup2\n        /* \"#utility.yul\":10869:10902   */\n      eq\n        /* \"#utility.yul\":10859:10920   */\n      tag_419\n      jumpi\n        /* \"#utility.yul\":10916:10917   */\n      0x00\n        /* \"#utility.yul\":10913:10914   */\n      0x00\n        /* \"#utility.yul\":10906:10918   */\n      revert\n        /* \"#utility.yul\":10859:10920   */\n    tag_419:\n        /* \"#utility.yul\":10808:10926   */\n      pop\n      jump\t// out\n        /* \"#utility.yul\":10932:11067   */\n    tag_283:\n        /* \"#utility.yul\":10976:10981   */\n      0x00\n        /* \"#utility.yul\":11014:11020   */\n      dup2\n        /* \"#utility.yul\":11001:11021   */\n      calldataload\n        /* \"#utility.yul\":10992:11021   */\n      swap1\n      pop\n        /* \"#utility.yul\":11030:11061   */\n      tag_421\n        /* \"#utility.yul\":11055:11060   */\n      dup2\n        /* \"#utility.yul\":11030:11061   */\n      tag_282\n      jump\t// in\n    tag_421:\n        /* \"#utility.yul\":10932:11067   */\n      swap3\n      swap2\n      pop\n      pop\n      jump\t// out\n        /* \"#utility.yul\":11073:11398   */\n    tag_93:\n        /* \"#utility.yul\":11130:11136   */\n      0x00\n        /* \"#utility.yul\":11179:11181   */\n      0x20\n        /* \"#utility.yul\":11167:11176   */\n      dup3\n        /* \"#utility.yul\":11158:11165   */\n      dup5\n        /* \"#utility.yul\":11154:11177   */\n      sub\n        /* \"#utility.yul\":11150:11182   */\n      slt\n        /* \"#utility.yul\":11147:11266   */\n      iszero\n      tag_423\n      jumpi\n        /* \"#utility.yul\":11185:11264   */\n      tag_424\n      tag_259\n      jump\t// in\n    tag_424:\n        /* \"#utility.yul\":11147:11266   */\n    tag_423:\n        /* \"#utility.yul\":11305:11306   */\n      0x00\n        /* \"#utility.yul\":11330:11381   */\n      tag_425\n        /* \"#utility.yul\":11373:11380   */\n      dup5\n        /* \"#utility.yul\":11364:11370   */\n      dup3\n        /* \"#utility.yul\":11353:11362   */\n      dup6\n        /* \"#utility.yul\":11349:11371   */\n      add\n        /* \"#utility.yul\":11330:11381   */\n      tag_283\n      jump\t// in\n    tag_425:\n        /* \"#utility.yul\":11320:11381   */\n      swap2\n      pop\n        /* \"#utility.yul\":11276:11391   */\n      pop\n        /* \"#utility.yul\":11073:11398   */\n      swap3\n      swap2\n      pop\n      pop\n      jump\t// out\n        /* \"#utility.yul\":11404:11522   */\n    tag_284:\n        /* \"#utility.yul\":11491:11515   */\n      tag_427\n        /* \"#utility.yul\":11509:11514   */\n      dup2\n        /* \"#utility.yul\":11491:11515   */\n      tag_267\n      jump\t// in\n    tag_427:\n        /* \"#utility.yul\":11486:11489   */\n      dup3\n        /* \"#utility.yul\":11479:11516   */\n      mstore\n        /* \"#utility.yul\":11404:11522   */\n      pop\n      pop\n      jump\t// out\n        /* \"#utility.yul\":11528:11750   */\n    tag_99:\n        /* \"#utility.yul\":11621:11625   */\n      0x00\n        /* \"#utility.yul\":11659:11661   */\n      0x20\n        /* \"#utility.yul\":11648:11657   */\n      dup3\n        /* \"#utility.yul\":11644:11662   */\n      add\n        /* \"#utility.yul\":11636:11662   */\n      swap1\n      pop\n        /* \"#utility.yul\":11672:11743   */\n      tag_429\n        /* \"#utility.yul\":11740:11741   */\n      0x00\n        /* \"#utility.yul\":11729:11738   */\n      dup4\n        /* \"#utility.yul\":11725:11742   */\n      add\n        /* \"#utility.yul\":11716:11722   */\n      dup5\n        /* \"#utility.yul\":11672:11743   */\n      tag_284\n      jump\t// in\n    tag_429:\n        /* \"#utility.yul\":11528:11750   */\n      swap3\n      swap2\n      pop\n      pop\n      jump\t// out\n        /* \"#utility.yul\":11756:12226   */\n    tag_103:\n        /* \"#utility.yul\":11822:11828   */\n      0x00\n        /* \"#utility.yul\":11830:11836   */\n      0x00\n        /* \"#utility.yul\":11879:11881   */\n      0x40\n        /* \"#utility.yul\":11867:11876   */\n      dup4\n        /* \"#utility.yul\":11858:11865   */\n      dup6\n        /* \"#utility.yul\":11854:11877   */\n      sub\n        /* \"#utility.yul\":11850:11882   */\n      slt\n        /* \"#utility.yul\":11847:11966   */\n      iszero\n      tag_431\n      jumpi\n        /* \"#utility.yul\":11885:11964   */\n      tag_432\n      tag_259\n      jump\t// in\n    tag_432:\n        /* \"#utility.yul\":11847:11966   */\n    tag_431:\n        /* \"#utility.yul\":12005:12006   */\n      0x00\n        /* \"#utility.yul\":12030:12081   */\n      tag_433\n        /* \"#utility.yul\":12073:12080   */\n      dup6\n        /* \"#utility.yul\":12064:12070   */\n      dup3\n        /* \"#utility.yul\":12053:12062   */\n      dup7\n        /* \"#utility.yul\":12049:12071   */\n      add\n        /* \"#utility.yul\":12030:12081   */\n      tag_283\n      jump\t// in\n    tag_433:\n        /* \"#utility.yul\":12020:12081   */\n      swap3\n      pop\n        /* \"#utility.yul\":11976:12091   */\n      pop\n        /* \"#utility.yul\":12130:12132   */\n      0x20\n        /* \"#utility.yul\":12156:12209   */\n      tag_434\n        /* \"#utility.yul\":12201:12208   */\n      dup6\n        /* \"#utility.yul\":12192:12198   */\n      dup3\n        /* \"#utility.yul\":12181:12190   */\n      dup7\n        /* \"#utility.yul\":12177:12199   */\n      add\n        /* \"#utility.yul\":12156:12209   */\n      tag_272\n      jump\t// in\n    tag_434:\n        /* \"#utility.yul\":12146:12209   */\n      swap2\n      pop\n        /* \"#utility.yul\":12101:12219   */\n      pop\n        /* \"#utility.yul\":11756:12226   */\n      swap3\n      pop\n      swap3\n      swap1\n      pop\n      jump\t// out\n        /* \"#utility.yul\":12232:12344   */\n    tag_285:\n        /* \"#utility.yul\":12315:12337   */\n      tag_436\n        /* \"#utility.yul\":12331:12336   */\n      dup2\n        /* \"#utility.yul\":12315:12337   */\n      tag_274\n      jump\t// in\n    tag_436:\n        /* \"#utility.yul\":12310:12313   */\n      dup3\n        /* \"#utility.yul\":12303:12338   */\n      mstore\n        /* \"#utility.yul\":12232:12344   */\n      pop\n      pop\n      jump\t// out\n        /* \"#utility.yul\":12350:12564   */\n    tag_109:\n        /* \"#utility.yul\":12439:12443   */\n      0x00\n        /* \"#utility.yul\":12477:12479   */\n      0x20\n        /* \"#utility.yul\":12466:12475   */\n      dup3\n        /* \"#utility.yul\":12462:12480   */\n      add\n        /* \"#utility.yul\":12454:12480   */\n      swap1\n      pop\n        /* \"#utility.yul\":12490:12557   */\n      tag_438\n        /* \"#utility.yul\":12554:12555   */\n      0x00\n        /* \"#utility.yul\":12543:12552   */\n      dup4\n        /* \"#utility.yul\":12539:12556   */\n      add\n        /* \"#utility.yul\":12530:12536   */\n      dup5\n        /* \"#utility.yul\":12490:12557   */\n      tag_285\n      jump\t// in\n    tag_438:\n        /* \"#utility.yul\":12350:12564   */\n      swap3\n      swap2\n      pop\n      pop\n      jump\t// out\n        /* \"#utility.yul\":12570:12674   */\n    tag_286:\n        /* \"#utility.yul\":12615:12622   */\n      0x00\n        /* \"#utility.yul\":12644:12668   */\n      tag_440\n        /* \"#utility.yul\":12662:12667   */\n      dup3\n        /* \"#utility.yul\":12644:12668   */\n      tag_266\n      jump\t// in\n    tag_440:\n        /* \"#utility.yul\":12633:12668   */\n      swap1\n      pop\n        /* \"#utility.yul\":12570:12674   */\n      swap2\n      swap1\n      pop\n      jump\t// out\n        /* \"#utility.yul\":12680:12818   */\n    tag_287:\n        /* \"#utility.yul\":12761:12793   */\n      tag_442\n        /* \"#utility.yul\":12787:12792   */\n      dup2\n        /* \"#utility.yul\":12761:12793   */\n      tag_286\n      jump\t// in\n    tag_442:\n        /* \"#utility.yul\":12754:12759   */\n      dup2\n        /* \"#utility.yul\":12751:12794   */\n      eq\n        /* \"#utility.yul\":12741:12812   */\n      tag_443\n      jumpi\n        /* \"#utility.yul\":12808:12809   */\n      0x00\n        /* \"#utility.yul\":12805:12806   */\n      0x00\n        /* \"#utility.yul\":12798:12810   */\n      revert\n        /* \"#utility.yul\":12741:12812   */\n    tag_443:\n        /* \"#utility.yul\":12680:12818   */\n      pop\n      jump\t// out\n        /* \"#utility.yul\":12824:12979   */\n    tag_288:\n        /* \"#utility.yul\":12878:12883   */\n      0x00\n        /* \"#utility.yul\":12916:12922   */\n      dup2\n        /* \"#utility.yul\":12903:12923   */\n      calldataload\n        /* \"#utility.yul\":12894:12923   */\n      swap1\n      pop\n        /* \"#utility.yul\":12932:12973   */\n      tag_445\n        /* \"#utility.yul\":12967:12972   */\n      dup2\n        /* \"#utility.yul\":12932:12973   */\n      tag_287\n      jump\t// in\n    tag_445:\n        /* \"#utility.yul\":12824:12979   */\n      swap3\n      swap2\n      pop\n      pop\n      jump\t// out\n        /* \"#utility.yul\":12985:13330   */\n    tag_113:\n        /* \"#utility.yul\":13052:13058   */\n      0x00\n        /* \"#utility.yul\":13101:13103   */\n      0x20\n        /* \"#utility.yul\":13089:13098   */\n      dup3\n        /* \"#utility.yul\":13080:13087   */\n      dup5\n        /* \"#utility.yul\":13076:13099   */\n      sub\n        /* \"#utility.yul\":13072:13104   */\n      slt\n        /* \"#utility.yul\":13069:13188   */\n      iszero\n      tag_447\n      jumpi\n        /* \"#utility.yul\":13107:13186   */\n      tag_448\n      tag_259\n      jump\t// in\n    tag_448:\n        /* \"#utility.yul\":13069:13188   */\n    tag_447:\n        /* \"#utility.yul\":13227:13228   */\n      0x00\n        /* \"#utility.yul\":13252:13313   */\n      tag_449\n        /* \"#utility.yul\":13305:13312   */\n      dup5\n        /* \"#utility.yul\":13296:13302   */\n      dup3\n        /* \"#utility.yul\":13285:13294   */\n      dup6\n        /* \"#utility.yul\":13281:13303   */\n      add\n        /* \"#utility.yul\":13252:13313   */\n      tag_288\n      jump\t// in\n    tag_449:\n        /* \"#utility.yul\":13242:13313   */\n      swap2\n      pop\n        /* \"#utility.yul\":13198:13323   */\n      pop\n        /* \"#utility.yul\":12985:13330   */\n      swap3\n      swap2\n      pop\n      pop\n      jump\t// out\n        /* \"#utility.yul\":13336:13665   */\n    tag_118:\n        /* \"#utility.yul\":13395:13401   */\n      0x00\n        /* \"#utility.yul\":13444:13446   */\n      0x20\n        /* \"#utility.yul\":13432:13441   */\n      dup3\n        /* \"#utility.yul\":13423:13430   */\n      dup5\n        /* \"#utility.yul\":13419:13442   */\n      sub\n        /* \"#utility.yul\":13415:13447   */\n      slt\n        /* \"#utility.yul\":13412:13531   */\n      iszero\n      tag_451\n      jumpi\n        /* \"#utility.yul\":13450:13529   */\n      tag_452\n      tag_259\n      jump\t// in\n    tag_452:\n        /* \"#utility.yul\":13412:13531   */\n    tag_451:\n        /* \"#utility.yul\":13570:13571   */\n      0x00\n        /* \"#utility.yul\":13595:13648   */\n      tag_453\n        /* \"#utility.yul\":13640:13647   */\n      dup5\n        /* \"#utility.yul\":13631:13637   */\n      dup3\n        /* \"#utility.yul\":13620:13629   */\n      dup6\n        /* \"#utility.yul\":13616:13638   */\n      add\n        /* \"#utility.yul\":13595:13648   */\n      tag_272\n      jump\t// in\n    tag_453:\n        /* \"#utility.yul\":13585:13648   */\n      swap2\n      pop\n        /* \"#utility.yul\":13541:13658   */\n      pop\n        /* \"#utility.yul\":13336:13665   */\n      swap3\n      swap2\n      pop\n      pop\n      jump\t// out\n        /* \"#utility.yul\":13671:13779   */\n    tag_289:\n        /* \"#utility.yul\":13748:13772   */\n      tag_455\n        /* \"#utility.yul\":13766:13771   */\n      dup2\n        /* \"#utility.yul\":13748:13772   */\n      tag_267\n      jump\t// in\n    tag_455:\n        /* \"#utility.yul\":13743:13746   */\n      dup3\n        /* \"#utility.yul\":13736:13773   */\n      mstore\n        /* \"#utility.yul\":13671:13779   */\n      pop\n      pop\n      jump\t// out\n        /* \"#utility.yul\":13785:13884   */\n    tag_290:\n        /* \"#utility.yul\":13856:13877   */\n      tag_457\n        /* \"#utility.yul\":13871:13876   */\n      dup2\n        /* \"#utility.yul\":13856:13877   */\n      tag_261\n      jump\t// in\n    tag_457:\n        /* \"#utility.yul\":13851:13854   */\n      dup3\n        /* \"#utility.yul\":13844:13878   */\n      mstore\n        /* \"#utility.yul\":13785:13884   */\n      pop\n      pop\n      jump\t// out\n        /* \"#utility.yul\":13890:14028   */\n    tag_291:\n        /* \"#utility.yul\":13981:13987   */\n      0x00\n        /* \"#utility.yul\":14015:14020   */\n      dup2\n        /* \"#utility.yul\":14009:14021   */\n      mload\n        /* \"#utility.yul\":13999:14021   */\n      swap1\n      pop\n        /* \"#utility.yul\":13890:14028   */\n      swap2\n      swap1\n      pop\n      jump\t// out\n        /* \"#utility.yul\":14034:14232   */\n    tag_292:\n        /* \"#utility.yul\":14147:14158   */\n      0x00\n        /* \"#utility.yul\":14181:14187   */\n      dup3\n        /* \"#utility.yul\":14176:14179   */\n      dup3\n        /* \"#utility.yul\":14169:14188   */\n      mstore\n        /* \"#utility.yul\":14221:14225   */\n      0x20\n        /* \"#utility.yul\":14216:14219   */\n      dup3\n        /* \"#utility.yul\":14212:14226   */\n      add\n        /* \"#utility.yul\":14197:14226   */\n      swap1\n      pop\n        /* \"#utility.yul\":14034:14232   */\n      swap3\n      swap2\n      pop\n      pop\n      jump\t// out\n        /* \"#utility.yul\":14238:14394   */\n    tag_293:\n        /* \"#utility.yul\":14329:14333   */\n      0x00\n        /* \"#utility.yul\":14352:14355   */\n      dup2\n        /* \"#utility.yul\":14344:14355   */\n      swap1\n      pop\n        /* \"#utility.yul\":14382:14386   */\n      0x20\n        /* \"#utility.yul\":14377:14380   */\n      dup3\n        /* \"#utility.yul\":14373:14387   */\n      add\n        /* \"#utility.yul\":14365:14387   */\n      swap1\n      pop\n        /* \"#utility.yul\":14238:14394   */\n      swap2\n      swap1\n      pop\n      jump\t// out\n        /* \"#utility.yul\":14464:15318   */\n    tag_294:\n        /* \"#utility.yul\":14599:14603   */\n      0x80\n        /* \"#utility.yul\":14594:14597   */\n      dup3\n        /* \"#utility.yul\":14590:14604   */\n      add\n        /* \"#utility.yul\":14691:14695   */\n      0x00\n        /* \"#utility.yul\":14684:14689   */\n      dup3\n        /* \"#utility.yul\":14680:14696   */\n      add\n        /* \"#utility.yul\":14674:14697   */\n      mload\n        /* \"#utility.yul\":14710:14773   */\n      tag_462\n        /* \"#utility.yul\":14767:14771   */\n      0x00\n        /* \"#utility.yul\":14762:14765   */\n      dup6\n        /* \"#utility.yul\":14758:14772   */\n      add\n        /* \"#utility.yul\":14744:14756   */\n      dup3\n        /* \"#utility.yul\":14710:14773   */\n      tag_273\n      jump\t// in\n    tag_462:\n        /* \"#utility.yul\":14614:14783   */\n      pop\n        /* \"#utility.yul\":14870:14874   */\n      0x20\n        /* \"#utility.yul\":14863:14868   */\n      dup3\n        /* \"#utility.yul\":14859:14875   */\n      add\n        /* \"#utility.yul\":14853:14876   */\n      mload\n        /* \"#utility.yul\":14889:14952   */\n      tag_463\n        /* \"#utility.yul\":14946:14950   */\n      0x20\n        /* \"#utility.yul\":14941:14944   */\n      dup6\n        /* \"#utility.yul\":14937:14951   */\n      add\n        /* \"#utility.yul\":14923:14935   */\n      dup3\n        /* \"#utility.yul\":14889:14952   */\n      tag_273\n      jump\t// in\n    tag_463:\n        /* \"#utility.yul\":14793:14962   */\n      pop\n        /* \"#utility.yul\":15049:15053   */\n      0x40\n        /* \"#utility.yul\":15042:15047   */\n      dup3\n        /* \"#utility.yul\":15038:15054   */\n      add\n        /* \"#utility.yul\":15032:15055   */\n      mload\n        /* \"#utility.yul\":15068:15131   */\n      tag_464\n        /* \"#utility.yul\":15125:15129   */\n      0x40\n        /* \"#utility.yul\":15120:15123   */\n      dup6\n        /* \"#utility.yul\":15116:15130   */\n      add\n        /* \"#utility.yul\":15102:15114   */\n      dup3\n        /* \"#utility.yul\":15068:15131   */\n      tag_273\n      jump\t// in\n    tag_464:\n        /* \"#utility.yul\":14972:15141   */\n      pop\n        /* \"#utility.yul\":15223:15227   */\n      0x60\n        /* \"#utility.yul\":15216:15221   */\n      dup3\n        /* \"#utility.yul\":15212:15228   */\n      add\n        /* \"#utility.yul\":15206:15229   */\n      mload\n        /* \"#utility.yul\":15242:15301   */\n      tag_465\n        /* \"#utility.yul\":15295:15299   */\n      0x60\n        /* \"#utility.yul\":15290:15293   */\n      dup6\n        /* \"#utility.yul\":15286:15300   */\n      add\n        /* \"#utility.yul\":15272:15284   */\n      dup3\n        /* \"#utility.yul\":15242:15301   */\n      tag_275\n      jump\t// in\n    tag_465:\n        /* \"#utility.yul\":15151:15311   */\n      pop\n        /* \"#utility.yul\":14568:15318   */\n      pop\n        /* \"#utility.yul\":14464:15318   */\n      pop\n      pop\n      jump\t// out\n        /* \"#utility.yul\":15324:15599   */\n    tag_295:\n        /* \"#utility.yul\":15441:15451   */\n      0x00\n        /* \"#utility.yul\":15462:15556   */\n      tag_467\n        /* \"#utility.yul\":15552:15555   */\n      dup4\n        /* \"#utility.yul\":15544:15550   */\n      dup4\n        /* \"#utility.yul\":15462:15556   */\n      tag_294\n      jump\t// in\n    tag_467:\n        /* \"#utility.yul\":15588:15592   */\n      0x80\n        /* \"#utility.yul\":15583:15586   */\n      dup4\n        /* \"#utility.yul\":15579:15593   */\n      add\n        /* \"#utility.yul\":15565:15593   */\n      swap1\n      pop\n        /* \"#utility.yul\":15324:15599   */\n      swap3\n      swap2\n      pop\n      pop\n      jump\t// out\n        /* \"#utility.yul\":15605:15742   */\n    tag_296:\n        /* \"#utility.yul\":15699:15703   */\n      0x00\n        /* \"#utility.yul\":15731:15735   */\n      0x20\n        /* \"#utility.yul\":15726:15729   */\n      dup3\n        /* \"#utility.yul\":15722:15736   */\n      add\n        /* \"#utility.yul\":15714:15736   */\n      swap1\n      pop\n        /* \"#utility.yul\":15605:15742   */\n      swap2\n      swap1\n      pop\n      jump\t// out\n        /* \"#utility.yul\":15816:16720   */\n    tag_297:\n        /* \"#utility.yul\":15973:15976   */\n      0x00\n        /* \"#utility.yul\":16002:16080   */\n      tag_470\n        /* \"#utility.yul\":16074:16079   */\n      dup3\n        /* \"#utility.yul\":16002:16080   */\n      tag_291\n      jump\t// in\n    tag_470:\n        /* \"#utility.yul\":16096:16196   */\n      tag_471\n        /* \"#utility.yul\":16189:16195   */\n      dup2\n        /* \"#utility.yul\":16184:16187   */\n      dup6\n        /* \"#utility.yul\":16096:16196   */\n      tag_292\n      jump\t// in\n    tag_471:\n        /* \"#utility.yul\":16089:16196   */\n      swap4\n      pop\n        /* \"#utility.yul\":16220:16300   */\n      tag_472\n        /* \"#utility.yul\":16294:16299   */\n      dup4\n        /* \"#utility.yul\":16220:16300   */\n      tag_293\n      jump\t// in\n    tag_472:\n        /* \"#utility.yul\":16323:16330   */\n      dup1\n        /* \"#utility.yul\":16354:16355   */\n      0x00\n        /* \"#utility.yul\":16339:16695   */\n    tag_473:\n        /* \"#utility.yul\":16364:16370   */\n      dup4\n        /* \"#utility.yul\":16361:16362   */\n      dup2\n        /* \"#utility.yul\":16358:16371   */\n      lt\n        /* \"#utility.yul\":16339:16695   */\n      iszero\n      tag_475\n      jumpi\n        /* \"#utility.yul\":16440:16446   */\n      dup2\n        /* \"#utility.yul\":16434:16447   */\n      mload\n        /* \"#utility.yul\":16467:16578   */\n      tag_476\n        /* \"#utility.yul\":16574:16577   */\n      dup9\n        /* \"#utility.yul\":16559:16572   */\n      dup3\n        /* \"#utility.yul\":16467:16578   */\n      tag_295\n      jump\t// in\n    tag_476:\n        /* \"#utility.yul\":16460:16578   */\n      swap8\n      pop\n        /* \"#utility.yul\":16601:16685   */\n      tag_477\n        /* \"#utility.yul\":16678:16684   */\n      dup4\n        /* \"#utility.yul\":16601:16685   */\n      tag_296\n      jump\t// in\n    tag_477:\n        /* \"#utility.yul\":16591:16685   */\n      swap3\n      pop\n        /* \"#utility.yul\":16399:16695   */\n      pop\n        /* \"#utility.yul\":16386:16387   */\n      0x01\n        /* \"#utility.yul\":16383:16384   */\n      dup2\n        /* \"#utility.yul\":16379:16388   */\n      add\n        /* \"#utility.yul\":16374:16388   */\n      swap1\n      pop\n        /* \"#utility.yul\":16339:16695   */\n      jump(tag_473)\n    tag_475:\n        /* \"#utility.yul\":16343:16357   */\n      pop\n        /* \"#utility.yul\":16711:16714   */\n      dup6\n        /* \"#utility.yul\":16704:16714   */\n      swap4\n      pop\n        /* \"#utility.yul\":15978:16720   */\n      pop\n      pop\n      pop\n        /* \"#utility.yul\":15816:16720   */\n      swap3\n      swap2\n      pop\n      pop\n      jump\t// out\n        /* \"#utility.yul\":16790:17841   */\n    tag_298:\n        /* \"#utility.yul\":16907:16910   */\n      0x00\n        /* \"#utility.yul\":16943:16947   */\n      0x80\n        /* \"#utility.yul\":16938:16941   */\n      dup4\n        /* \"#utility.yul\":16934:16948   */\n      add\n        /* \"#utility.yul\":17039:17043   */\n      0x00\n        /* \"#utility.yul\":17032:17037   */\n      dup4\n        /* \"#utility.yul\":17028:17044   */\n      add\n        /* \"#utility.yul\":17022:17045   */\n      mload\n        /* \"#utility.yul\":17058:17121   */\n      tag_479\n        /* \"#utility.yul\":17115:17119   */\n      0x00\n        /* \"#utility.yul\":17110:17113   */\n      dup7\n        /* \"#utility.yul\":17106:17120   */\n      add\n        /* \"#utility.yul\":17092:17104   */\n      dup3\n        /* \"#utility.yul\":17058:17121   */\n      tag_289\n      jump\t// in\n    tag_479:\n        /* \"#utility.yul\":16958:17131   */\n      pop\n        /* \"#utility.yul\":17219:17223   */\n      0x20\n        /* \"#utility.yul\":17212:17217   */\n      dup4\n        /* \"#utility.yul\":17208:17224   */\n      add\n        /* \"#utility.yul\":17202:17225   */\n      mload\n        /* \"#utility.yul\":17238:17301   */\n      tag_480\n        /* \"#utility.yul\":17295:17299   */\n      0x20\n        /* \"#utility.yul\":17290:17293   */\n      dup7\n        /* \"#utility.yul\":17286:17300   */\n      add\n        /* \"#utility.yul\":17272:17284   */\n      dup3\n        /* \"#utility.yul\":17238:17301   */\n      tag_273\n      jump\t// in\n    tag_480:\n        /* \"#utility.yul\":17141:17311   */\n      pop\n        /* \"#utility.yul\":17397:17401   */\n      0x40\n        /* \"#utility.yul\":17390:17395   */\n      dup4\n        /* \"#utility.yul\":17386:17402   */\n      add\n        /* \"#utility.yul\":17380:17403   */\n      mload\n        /* \"#utility.yul\":17416:17473   */\n      tag_481\n        /* \"#utility.yul\":17467:17471   */\n      0x40\n        /* \"#utility.yul\":17462:17465   */\n      dup7\n        /* \"#utility.yul\":17458:17472   */\n      add\n        /* \"#utility.yul\":17444:17456   */\n      dup3\n        /* \"#utility.yul\":17416:17473   */\n      tag_290\n      jump\t// in\n    tag_481:\n        /* \"#utility.yul\":17321:17483   */\n      pop\n        /* \"#utility.yul\":17573:17577   */\n      0x60\n        /* \"#utility.yul\":17566:17571   */\n      dup4\n        /* \"#utility.yul\":17562:17578   */\n      add\n        /* \"#utility.yul\":17556:17579   */\n      mload\n        /* \"#utility.yul\":17626:17629   */\n      dup5\n        /* \"#utility.yul\":17620:17624   */\n      dup3\n        /* \"#utility.yul\":17616:17630   */\n      sub\n        /* \"#utility.yul\":17609:17613   */\n      0x60\n        /* \"#utility.yul\":17604:17607   */\n      dup7\n        /* \"#utility.yul\":17600:17614   */\n      add\n        /* \"#utility.yul\":17593:17631   */\n      mstore\n        /* \"#utility.yul\":17652:17803   */\n      tag_482\n        /* \"#utility.yul\":17798:17802   */\n      dup3\n        /* \"#utility.yul\":17784:17796   */\n      dup3\n        /* \"#utility.yul\":17652:17803   */\n      tag_297\n      jump\t// in\n    tag_482:\n        /* \"#utility.yul\":17644:17803   */\n      swap2\n      pop\n        /* \"#utility.yul\":17493:17814   */\n      pop\n        /* \"#utility.yul\":17831:17835   */\n      dup1\n        /* \"#utility.yul\":17824:17835   */\n      swap2\n      pop\n        /* \"#utility.yul\":16912:17841   */\n      pop\n        /* \"#utility.yul\":16790:17841   */\n      swap3\n      swap2\n      pop\n      pop\n      jump\t// out\n        /* \"#utility.yul\":17847:18216   */\n    tag_121:\n        /* \"#utility.yul\":17988:17992   */\n      0x00\n        /* \"#utility.yul\":18026:18028   */\n      0x20\n        /* \"#utility.yul\":18015:18024   */\n      dup3\n        /* \"#utility.yul\":18011:18029   */\n      add\n        /* \"#utility.yul\":18003:18029   */\n      swap1\n      pop\n        /* \"#utility.yul\":18075:18084   */\n      dup2\n        /* \"#utility.yul\":18069:18073   */\n      dup2\n        /* \"#utility.yul\":18065:18085   */\n      sub\n        /* \"#utility.yul\":18061:18062   */\n      0x00\n        /* \"#utility.yul\":18050:18059   */\n      dup4\n        /* \"#utility.yul\":18046:18063   */\n      add\n        /* \"#utility.yul\":18039:18086   */\n      mstore\n        /* \"#utility.yul\":18103:18209   */\n      tag_484\n        /* \"#utility.yul\":18204:18208   */\n      dup2\n        /* \"#utility.yul\":18195:18201   */\n      dup5\n        /* \"#utility.yul\":18103:18209   */\n      tag_298\n      jump\t// in\n    tag_484:\n        /* \"#utility.yul\":18095:18209   */\n      swap1\n      pop\n        /* \"#utility.yul\":17847:18216   */\n      swap3\n      swap2\n      pop\n      pop\n      jump\t// out\n        /* \"#utility.yul\":18222:18387   */\n    tag_299:\n        /* \"#utility.yul\":18362:18379   */\n      0x436f6e7472616374205061757365640000000000000000000000000000000000\n        /* \"#utility.yul\":18358:18359   */\n      0x00\n        /* \"#utility.yul\":18350:18356   */\n      dup3\n        /* \"#utility.yul\":18346:18360   */\n      add\n        /* \"#utility.yul\":18339:18380   */\n      mstore\n        /* \"#utility.yul\":18222:18387   */\n      pop\n      jump\t// out\n        /* \"#utility.yul\":18393:18759   */\n    tag_300:\n        /* \"#utility.yul\":18535:18538   */\n      0x00\n        /* \"#utility.yul\":18556:18623   */\n      tag_487\n        /* \"#utility.yul\":18620:18622   */\n      0x0f\n        /* \"#utility.yul\":18615:18618   */\n      dup4\n        /* \"#utility.yul\":18556:18623   */\n      tag_248\n      jump\t// in\n    tag_487:\n        /* \"#utility.yul\":18549:18623   */\n      swap2\n      pop\n        /* \"#utility.yul\":18632:18725   */\n      tag_488\n        /* \"#utility.yul\":18721:18724   */\n      dup3\n        /* \"#utility.yul\":18632:18725   */\n      tag_299\n      jump\t// in\n    tag_488:\n        /* \"#utility.yul\":18750:18752   */\n      0x20\n        /* \"#utility.yul\":18745:18748   */\n      dup3\n        /* \"#utility.yul\":18741:18753   */\n      add\n        /* \"#utility.yul\":18734:18753   */\n      swap1\n      pop\n        /* \"#utility.yul\":18393:18759   */\n      swap2\n      swap1\n      pop\n      jump\t// out\n        /* \"#utility.yul\":18765:19184   */\n    tag_147:\n        /* \"#utility.yul\":18931:18935   */\n      0x00\n        /* \"#utility.yul\":18969:18971   */\n      0x20\n        /* \"#utility.yul\":18958:18967   */\n      dup3\n        /* \"#utility.yul\":18954:18972   */\n      add\n        /* \"#utility.yul\":18946:18972   */\n      swap1\n      pop\n        /* \"#utility.yul\":19018:19027   */\n      dup2\n        /* \"#utility.yul\":19012:19016   */\n      dup2\n        /* \"#utility.yul\":19008:19028   */\n      sub\n        /* \"#utility.yul\":19004:19005   */\n      0x00\n        /* \"#utility.yul\":18993:19002   */\n      dup4\n        /* \"#utility.yul\":18989:19006   */\n      add\n        /* \"#utility.yul\":18982:19029   */\n      mstore\n        /* \"#utility.yul\":19046:19177   */\n      tag_490\n        /* \"#utility.yul\":19172:19176   */\n      dup2\n        /* \"#utility.yul\":19046:19177   */\n      tag_300\n      jump\t// in\n    tag_490:\n        /* \"#utility.yul\":19038:19177   */\n      swap1\n      pop\n        /* \"#utility.yul\":18765:19184   */\n      swap2\n      swap1\n      pop\n      jump\t// out\n        /* \"#utility.yul\":19190:19362   */\n    tag_301:\n        /* \"#utility.yul\":19330:19354   */\n      0x4e6f205265656e7472616e63792c706c73207761697400000000000000000000\n        /* \"#utility.yul\":19326:19327   */\n      0x00\n        /* \"#utility.yul\":19318:19324   */\n      dup3\n        /* \"#utility.yul\":19314:19328   */\n      add\n        /* \"#utility.yul\":19307:19355   */\n      mstore\n        /* \"#utility.yul\":19190:19362   */\n      pop\n      jump\t// out\n        /* \"#utility.yul\":19368:19734   */\n    tag_302:\n        /* \"#utility.yul\":19510:19513   */\n      0x00\n        /* \"#utility.yul\":19531:19598   */\n      tag_493\n        /* \"#utility.yul\":19595:19597   */\n      0x16\n        /* \"#utility.yul\":19590:19593   */\n      dup4\n        /* \"#utility.yul\":19531:19598   */\n      tag_248\n      jump\t// in\n    tag_493:\n        /* \"#utility.yul\":19524:19598   */\n      swap2\n      pop\n        /* \"#utility.yul\":19607:19700   */\n      tag_494\n        /* \"#utility.yul\":19696:19699   */\n      dup3\n        /* \"#utility.yul\":19607:19700   */\n      tag_301\n      jump\t// in\n    tag_494:\n        /* \"#utility.yul\":19725:19727   */\n      0x20\n        /* \"#utility.yul\":19720:19723   */\n      dup3\n        /* \"#utility.yul\":19716:19728   */\n      add\n        /* \"#utility.yul\":19709:19728   */\n      swap1\n      pop\n        /* \"#utility.yul\":19368:19734   */\n      swap2\n      swap1\n      pop\n      jump\t// out\n        /* \"#utility.yul\":19740:20159   */\n    tag_151:\n        /* \"#utility.yul\":19906:19910   */\n      0x00\n        /* \"#utility.yul\":19944:19946   */\n      0x20\n        /* \"#utility.yul\":19933:19942   */\n      dup3\n        /* \"#utility.yul\":19929:19947   */\n      add\n        /* \"#utility.yul\":19921:19947   */\n      swap1\n      pop\n        /* \"#utility.yul\":19993:20002   */\n      dup2\n        /* \"#utility.yul\":19987:19991   */\n      dup2\n        /* \"#utility.yul\":19983:20003   */\n      sub\n        /* \"#utility.yul\":19979:19980   */\n      0x00\n        /* \"#utility.yul\":19968:19977   */\n      dup4\n        /* \"#utility.yul\":19964:19981   */\n      add\n        /* \"#utility.yul\":19957:20004   */\n      mstore\n        /* \"#utility.yul\":20021:20152   */\n      tag_496\n        /* \"#utility.yul\":20147:20151   */\n      dup2\n        /* \"#utility.yul\":20021:20152   */\n      tag_302\n      jump\t// in\n    tag_496:\n        /* \"#utility.yul\":20013:20152   */\n      swap1\n      pop\n        /* \"#utility.yul\":19740:20159   */\n      swap2\n      swap1\n      pop\n      jump\t// out\n        /* \"#utility.yul\":20165:20345   */\n    tag_303:\n        /* \"#utility.yul\":20213:20290   */\n      0x4e487b7100000000000000000000000000000000000000000000000000000000\n        /* \"#utility.yul\":20210:20211   */\n      0x00\n        /* \"#utility.yul\":20203:20291   */\n      mstore\n        /* \"#utility.yul\":20310:20314   */\n      0x11\n        /* \"#utility.yul\":20307:20308   */\n      0x04\n        /* \"#utility.yul\":20300:20315   */\n      mstore\n        /* \"#utility.yul\":20334:20338   */\n      0x24\n        /* \"#utility.yul\":20331:20332   */\n      0x00\n        /* \"#utility.yul\":20324:20339   */\n      revert\n        /* \"#utility.yul\":20351:20584   */\n    tag_155:\n        /* \"#utility.yul\":20390:20393   */\n      0x00\n        /* \"#utility.yul\":20413:20437   */\n      tag_499\n        /* \"#utility.yul\":20431:20436   */\n      dup3\n        /* \"#utility.yul\":20413:20437   */\n      tag_270\n      jump\t// in\n    tag_499:\n        /* \"#utility.yul\":20404:20437   */\n      swap2\n      pop\n        /* \"#utility.yul\":20459:20525   */\n      0xffffffffffffffffffffffffffffffffffffffffffffffffffffffffffffffff\n        /* \"#utility.yul\":20452:20457   */\n      dup3\n        /* \"#utility.yul\":20449:20526   */\n      sub\n        /* \"#utility.yul\":20446:20549   */\n      tag_500\n      jumpi\n        /* \"#utility.yul\":20529:20547   */\n      tag_501\n      tag_303\n      jump\t// in\n    tag_501:\n        /* \"#utility.yul\":20446:20549   */\n    tag_500:\n        /* \"#utility.yul\":20576:20577   */\n      0x01\n        /* \"#utility.yul\":20569:20574   */\n      dup3\n        /* \"#utility.yul\":20565:20578   */\n      add\n        /* \"#utility.yul\":20558:20578   */\n      swap1\n      pop\n        /* \"#utility.yul\":20351:20584   */\n      swap2\n      swap1\n      pop\n      jump\t// out\n        /* \"#utility.yul\":20590:20733   */\n    tag_304:\n        /* \"#utility.yul\":20647:20652   */\n      0x00\n        /* \"#utility.yul\":20678:20684   */\n      dup2\n        /* \"#utility.yul\":20672:20685   */\n      mload\n        /* \"#utility.yul\":20663:20685   */\n      swap1\n      pop\n        /* \"#utility.yul\":20694:20727   */\n      tag_503\n        /* \"#utility.yul\":20721:20726   */\n      dup2\n        /* \"#utility.yul\":20694:20727   */\n      tag_271\n      jump\t// in\n    tag_503:\n        /* \"#utility.yul\":20590:20733   */\n      swap3\n      swap2\n      pop\n      pop\n      jump\t// out\n        /* \"#utility.yul\":20739:21090   */\n    tag_161:\n        /* \"#utility.yul\":20809:20815   */\n      0x00\n        /* \"#utility.yul\":20858:20860   */\n      0x20\n        /* \"#utility.yul\":20846:20855   */\n      dup3\n        /* \"#utility.yul\":20837:20844   */\n      dup5\n        /* \"#utility.yul\":20833:20856   */\n      sub\n        /* \"#utility.yul\":20829:20861   */\n      slt\n        /* \"#utility.yul\":20826:20945   */\n      iszero\n      tag_505\n      jumpi\n        /* \"#utility.yul\":20864:20943   */\n      tag_506\n      tag_259\n      jump\t// in\n    tag_506:\n        /* \"#utility.yul\":20826:20945   */\n    tag_505:\n        /* \"#utility.yul\":20984:20985   */\n      0x00\n        /* \"#utility.yul\":21009:21073   */\n      tag_507\n        /* \"#utility.yul\":21065:21072   */\n      dup5\n        /* \"#utility.yul\":21056:21062   */\n      dup3\n        /* \"#utility.yul\":21045:21054   */\n      dup6\n        /* \"#utility.yul\":21041:21063   */\n      add\n        /* \"#utility.yul\":21009:21073   */\n      tag_304\n      jump\t// in\n    tag_507:\n        /* \"#utility.yul\":20999:21073   */\n      swap2\n      pop\n        /* \"#utility.yul\":20955:21083   */\n      pop\n        /* \"#utility.yul\":20739:21090   */\n      swap3\n      swap2\n      pop\n      pop\n      jump\t// out\n        /* \"#utility.yul\":21096:21259   */\n    tag_305:\n        /* \"#utility.yul\":21236:21251   */\n      0x6e6f206f66666572206d6f726500000000000000000000000000000000000000\n        /* \"#utility.yul\":21232:21233   */\n      0x00\n        /* \"#utility.yul\":21224:21230   */\n      dup3\n        /* \"#utility.yul\":21220:21234   */\n      add\n        /* \"#utility.yul\":21213:21252   */\n      mstore\n        /* \"#utility.yul\":21096:21259   */\n      pop\n      jump\t// out\n        /* \"#utility.yul\":21265:21631   */\n    tag_306:\n        /* \"#utility.yul\":21407:21410   */\n      0x00\n        /* \"#utility.yul\":21428:21495   */\n      tag_510\n        /* \"#utility.yul\":21492:21494   */\n      0x0d\n        /* \"#utility.yul\":21487:21490   */\n      dup4\n        /* \"#utility.yul\":21428:21495   */\n      tag_248\n      jump\t// in\n    tag_510:\n        /* \"#utility.yul\":21421:21495   */\n      swap2\n      pop\n        /* \"#utility.yul\":21504:21597   */\n      tag_511\n        /* \"#utility.yul\":21593:21596   */\n      dup3\n        /* \"#utility.yul\":21504:21597   */\n      tag_305\n      jump\t// in\n    tag_511:\n        /* \"#utility.yul\":21622:21624   */\n      0x20\n        /* \"#utility.yul\":21617:21620   */\n      dup3\n        /* \"#utility.yul\":21613:21625   */\n      add\n        /* \"#utility.yul\":21606:21625   */\n      swap1\n      pop\n        /* \"#utility.yul\":21265:21631   */\n      swap2\n      swap1\n      pop\n      jump\t// out\n        /* \"#utility.yul\":21637:22056   */\n    tag_165:\n        /* \"#utility.yul\":21803:21807   */\n      0x00\n        /* \"#utility.yul\":21841:21843   */\n      0x20\n        /* \"#utility.yul\":21830:21839   */\n      dup3\n        /* \"#utility.yul\":21826:21844   */\n      add\n        /* \"#utility.yul\":21818:21844   */\n      swap1\n      pop\n        /* \"#utility.yul\":21890:21899   */\n      dup2\n        /* \"#utility.yul\":21884:21888   */\n      dup2\n        /* \"#utility.yul\":21880:21900   */\n      sub\n        /* \"#utility.yul\":21876:21877   */\n      0x00\n        /* \"#utility.yul\":21865:21874   */\n      dup4\n        /* \"#utility.yul\":21861:21878   */\n      add\n        /* \"#utility.yul\":21854:21901   */\n      mstore\n        /* \"#utility.yul\":21918:22049   */\n      tag_513\n        /* \"#utility.yul\":22044:22048   */\n      dup2\n        /* \"#utility.yul\":21918:22049   */\n      tag_306\n      jump\t// in\n    tag_513:\n        /* \"#utility.yul\":21910:22049   */\n      swap1\n      pop\n        /* \"#utility.yul\":21637:22056   */\n      swap2\n      swap1\n      pop\n      jump\t// out\n        /* \"#utility.yul\":22062:22472   */\n    tag_167:\n        /* \"#utility.yul\":22102:22109   */\n      0x00\n        /* \"#utility.yul\":22125:22145   */\n      tag_515\n        /* \"#utility.yul\":22143:22144   */\n      dup3\n        /* \"#utility.yul\":22125:22145   */\n      tag_270\n      jump\t// in\n    tag_515:\n        /* \"#utility.yul\":22120:22145   */\n      swap2\n      pop\n        /* \"#utility.yul\":22159:22179   */\n      tag_516\n        /* \"#utility.yul\":22177:22178   */\n      dup4\n        /* \"#utility.yul\":22159:22179   */\n      tag_270\n      jump\t// in\n    tag_516:\n        /* \"#utility.yul\":22154:22179   */\n      swap3\n      pop\n        /* \"#utility.yul\":22214:22215   */\n      dup3\n        /* \"#utility.yul\":22211:22212   */\n      dup3\n        /* \"#utility.yul\":22207:22216   */\n      mul\n        /* \"#utility.yul\":22236:22266   */\n      tag_517\n        /* \"#utility.yul\":22254:22265   */\n      dup2\n        /* \"#utility.yul\":22236:22266   */\n      tag_270\n      jump\t// in\n    tag_517:\n        /* \"#utility.yul\":22225:22266   */\n      swap2\n      pop\n        /* \"#utility.yul\":22415:22416   */\n      dup3\n        /* \"#utility.yul\":22406:22413   */\n      dup3\n        /* \"#utility.yul\":22402:22417   */\n      div\n        /* \"#utility.yul\":22399:22400   */\n      dup5\n        /* \"#utility.yul\":22396:22418   */\n      eq\n        /* \"#utility.yul\":22376:22377   */\n      dup4\n        /* \"#utility.yul\":22369:22378   */\n      iszero\n        /* \"#utility.yul\":22349:22432   */\n      or\n        /* \"#utility.yul\":22326:22465   */\n      tag_518\n      jumpi\n        /* \"#utility.yul\":22445:22463   */\n      tag_519\n      tag_303\n      jump\t// in\n    tag_519:\n        /* \"#utility.yul\":22326:22465   */\n    tag_518:\n        /* \"#utility.yul\":22110:22472   */\n      pop\n        /* \"#utility.yul\":22062:22472   */\n      swap3\n      swap2\n      pop\n      pop\n      jump\t// out\n        /* \"#utility.yul\":22478:22658   */\n    tag_307:\n        /* \"#utility.yul\":22526:22603   */\n      0x4e487b7100000000000000000000000000000000000000000000000000000000\n        /* \"#utility.yul\":22523:22524   */\n      0x00\n        /* \"#utility.yul\":22516:22604   */\n      mstore\n        /* \"#utility.yul\":22623:22627   */\n      0x12\n        /* \"#utility.yul\":22620:22621   */\n      0x04\n        /* \"#utility.yul\":22613:22628   */\n      mstore\n        /* \"#utility.yul\":22647:22651   */\n      0x24\n        /* \"#utility.yul\":22644:22645   */\n      0x00\n        /* \"#utility.yul\":22637:22652   */\n      revert\n        /* \"#utility.yul\":22664:22849   */\n    tag_169:\n        /* \"#utility.yul\":22704:22705   */\n      0x00\n        /* \"#utility.yul\":22721:22741   */\n      tag_522\n        /* \"#utility.yul\":22739:22740   */\n      dup3\n        /* \"#utility.yul\":22721:22741   */\n      tag_270\n      jump\t// in\n    tag_522:\n        /* \"#utility.yul\":22716:22741   */\n      swap2\n      pop\n        /* \"#utility.yul\":22755:22775   */\n      tag_523\n        /* \"#utility.yul\":22773:22774   */\n      dup4\n        /* \"#utility.yul\":22755:22775   */\n      tag_270\n      jump\t// in\n    tag_523:\n        /* \"#utility.yul\":22750:22775   */\n      swap3\n      pop\n        /* \"#utility.yul\":22794:22795   */\n      dup3\n        /* \"#utility.yul\":22784:22819   */\n      tag_524\n      jumpi\n        /* \"#utility.yul\":22799:22817   */\n      tag_525\n      tag_307\n      jump\t// in\n    tag_525:\n        /* \"#utility.yul\":22784:22819   */\n    tag_524:\n        /* \"#utility.yul\":22841:22842   */\n      dup3\n        /* \"#utility.yul\":22838:22839   */\n      dup3\n        /* \"#utility.yul\":22834:22843   */\n      div\n        /* \"#utility.yul\":22829:22843   */\n      swap1\n      pop\n        /* \"#utility.yul\":22664:22849   */\n      swap3\n      swap2\n      pop\n      pop\n      jump\t// out\n        /* \"#utility.yul\":22855:23046   */\n    tag_177:\n        /* \"#utility.yul\":22895:22898   */\n      0x00\n        /* \"#utility.yul\":22914:22934   */\n      tag_527\n        /* \"#utility.yul\":22932:22933   */\n      dup3\n        /* \"#utility.yul\":22914:22934   */\n      tag_270\n      jump\t// in\n    tag_527:\n        /* \"#utility.yul\":22909:22934   */\n      swap2\n      pop\n        /* \"#utility.yul\":22948:22968   */\n      tag_528\n        /* \"#utility.yul\":22966:22967   */\n      dup4\n        /* \"#utility.yul\":22948:22968   */\n      tag_270\n      jump\t// in\n    tag_528:\n        /* \"#utility.yul\":22943:22968   */\n      swap3\n      pop\n        /* \"#utility.yul\":22991:22992   */\n      dup3\n        /* \"#utility.yul\":22988:22989   */\n      dup3\n        /* \"#utility.yul\":22984:22993   */\n      add\n        /* \"#utility.yul\":22977:22993   */\n      swap1\n      pop\n        /* \"#utility.yul\":23012:23015   */\n      dup1\n        /* \"#utility.yul\":23009:23010   */\n      dup3\n        /* \"#utility.yul\":23006:23016   */\n      gt\n        /* \"#utility.yul\":23003:23039   */\n      iszero\n      tag_529\n      jumpi\n        /* \"#utility.yul\":23019:23037   */\n      tag_530\n      tag_303\n      jump\t// in\n    tag_530:\n        /* \"#utility.yul\":23003:23039   */\n    tag_529:\n        /* \"#utility.yul\":22855:23046   */\n      swap3\n      swap2\n      pop\n      pop\n      jump\t// out\n        /* \"#utility.yul\":23052:23232   */\n    tag_184:\n        /* \"#utility.yul\":23100:23177   */\n      0x4e487b7100000000000000000000000000000000000000000000000000000000\n        /* \"#utility.yul\":23097:23098   */\n      0x00\n        /* \"#utility.yul\":23090:23178   */\n      mstore\n        /* \"#utility.yul\":23197:23201   */\n      0x32\n        /* \"#utility.yul\":23194:23195   */\n      0x04\n        /* \"#utility.yul\":23187:23202   */\n      mstore\n        /* \"#utility.yul\":23221:23225   */\n      0x24\n        /* \"#utility.yul\":23218:23219   */\n      0x00\n        /* \"#utility.yul\":23211:23226   */\n      revert\n        /* \"#utility.yul\":23238:23398   */\n    tag_308:\n        /* \"#utility.yul\":23378:23390   */\n      0x4f6e6c79206f776e657200000000000000000000000000000000000000000000\n        /* \"#utility.yul\":23374:23375   */\n      0x00\n        /* \"#utility.yul\":23366:23372   */\n      dup3\n        /* \"#utility.yul\":23362:23376   */\n      add\n        /* \"#utility.yul\":23355:23391   */\n      mstore\n        /* \"#utility.yul\":23238:23398   */\n      pop\n      jump\t// out\n        /* \"#utility.yul\":23404:23770   */\n    tag_309:\n        /* \"#utility.yul\":23546:23549   */\n      0x00\n        /* \"#utility.yul\":23567:23634   */\n      tag_534\n        /* \"#utility.yul\":23631:23633   */\n      0x0a\n        /* \"#utility.yul\":23626:23629   */\n      dup4\n        /* \"#utility.yul\":23567:23634   */\n      tag_248\n      jump\t// in\n    tag_534:\n        /* \"#utility.yul\":23560:23634   */\n      swap2\n      pop\n        /* \"#utility.yul\":23643:23736   */\n      tag_535\n        /* \"#utility.yul\":23732:23735   */\n      dup3\n        /* \"#utility.yul\":23643:23736   */\n      tag_308\n      jump\t// in\n    tag_535:\n        /* \"#utility.yul\":23761:23763   */\n      0x20\n        /* \"#utility.yul\":23756:23759   */\n      dup3\n        /* \"#utility.yul\":23752:23764   */\n      add\n        /* \"#utility.yul\":23745:23764   */\n      swap1\n      pop\n        /* \"#utility.yul\":23404:23770   */\n      swap2\n      swap1\n      pop\n      jump\t// out\n        /* \"#utility.yul\":23776:24195   */\n    tag_191:\n        /* \"#utility.yul\":23942:23946   */\n      0x00\n        /* \"#utility.yul\":23980:23982   */\n      0x20\n        /* \"#utility.yul\":23969:23978   */\n      dup3\n        /* \"#utility.yul\":23965:23983   */\n      add\n        /* \"#utility.yul\":23957:23983   */\n      swap1\n      pop\n        /* \"#utility.yul\":24029:24038   */\n      dup2\n        /* \"#utility.yul\":24023:24027   */\n      dup2\n        /* \"#utility.yul\":24019:24039   */\n      sub\n        /* \"#utility.yul\":24015:24016   */\n      0x00\n        /* \"#utility.yul\":24004:24013   */\n      dup4\n        /* \"#utility.yul\":24000:24017   */\n      add\n        /* \"#utility.yul\":23993:24040   */\n      mstore\n        /* \"#utility.yul\":24057:24188   */\n      tag_537\n        /* \"#utility.yul\":24183:24187   */\n      dup2\n        /* \"#utility.yul\":24057:24188   */\n      tag_309\n      jump\t// in\n    tag_537:\n        /* \"#utility.yul\":24049:24188   */\n      swap1\n      pop\n        /* \"#utility.yul\":23776:24195   */\n      swap2\n      swap1\n      pop\n      jump\t// out\n        /* \"#utility.yul\":24201:24318   */\n    tag_310:\n        /* \"#utility.yul\":24310:24311   */\n      0x00\n        /* \"#utility.yul\":24307:24308   */\n      0x00\n        /* \"#utility.yul\":24300:24312   */\n      revert\n        /* \"#utility.yul\":24324:24441   */\n    tag_311:\n        /* \"#utility.yul\":24433:24434   */\n      0x00\n        /* \"#utility.yul\":24430:24431   */\n      0x00\n        /* \"#utility.yul\":24423:24435   */\n      revert\n        /* \"#utility.yul\":24447:24627   */\n    tag_312:\n        /* \"#utility.yul\":24495:24572   */\n      0x4e487b7100000000000000000000000000000000000000000000000000000000\n        /* \"#utility.yul\":24492:24493   */\n      0x00\n        /* \"#utility.yul\":24485:24573   */\n      mstore\n        /* \"#utility.yul\":24592:24596   */\n      0x41\n        /* \"#utility.yul\":24589:24590   */\n      0x04\n        /* \"#utility.yul\":24582:24597   */\n      mstore\n        /* \"#utility.yul\":24616:24620   */\n      0x24\n        /* \"#utility.yul\":24613:24614   */\n      0x00\n        /* \"#utility.yul\":24606:24621   */\n      revert\n        /* \"#utility.yul\":24633:24914   */\n    tag_313:\n        /* \"#utility.yul\":24716:24743   */\n      tag_542\n        /* \"#utility.yul\":24738:24742   */\n      dup3\n        /* \"#utility.yul\":24716:24743   */\n      tag_280\n      jump\t// in\n    tag_542:\n        /* \"#utility.yul\":24708:24714   */\n      dup2\n        /* \"#utility.yul\":24704:24744   */\n      add\n        /* \"#utility.yul\":24846:24852   */\n      dup2\n        /* \"#utility.yul\":24834:24844   */\n      dup2\n        /* \"#utility.yul\":24831:24853   */\n      lt\n        /* \"#utility.yul\":24810:24828   */\n      0xffffffffffffffff\n        /* \"#utility.yul\":24798:24808   */\n      dup3\n        /* \"#utility.yul\":24795:24829   */\n      gt\n        /* \"#utility.yul\":24792:24854   */\n      or\n        /* \"#utility.yul\":24789:24877   */\n      iszero\n      tag_543\n      jumpi\n        /* \"#utility.yul\":24857:24875   */\n      tag_544\n      tag_312\n      jump\t// in\n    tag_544:\n        /* \"#utility.yul\":24789:24877   */\n    tag_543:\n        /* \"#utility.yul\":24897:24907   */\n      dup1\n        /* \"#utility.yul\":24893:24895   */\n      0x40\n        /* \"#utility.yul\":24886:24908   */\n      mstore\n        /* \"#utility.yul\":24676:24914   */\n      pop\n        /* \"#utility.yul\":24633:24914   */\n      pop\n      pop\n      jump\t// out\n        /* \"#utility.yul\":24920:25049   */\n    tag_314:\n        /* \"#utility.yul\":24954:24960   */\n      0x00\n        /* \"#utility.yul\":24981:25001   */\n      tag_546\n      tag_258\n      jump\t// in\n    tag_546:\n        /* \"#utility.yul\":24971:25001   */\n      swap1\n      pop\n        /* \"#utility.yul\":25010:25043   */\n      tag_547\n        /* \"#utility.yul\":25038:25042   */\n      dup3\n        /* \"#utility.yul\":25030:25036   */\n      dup3\n        /* \"#utility.yul\":25010:25043   */\n      tag_313\n      jump\t// in\n    tag_547:\n        /* \"#utility.yul\":24920:25049   */\n      swap2\n      swap1\n      pop\n      jump\t// out\n        /* \"#utility.yul\":25055:25363   */\n    tag_315:\n        /* \"#utility.yul\":25117:25121   */\n      0x00\n        /* \"#utility.yul\":25207:25225   */\n      0xffffffffffffffff\n        /* \"#utility.yul\":25199:25205   */\n      dup3\n        /* \"#utility.yul\":25196:25226   */\n      gt\n        /* \"#utility.yul\":25193:25249   */\n      iszero\n      tag_549\n      jumpi\n        /* \"#utility.yul\":25229:25247   */\n      tag_550\n      tag_312\n      jump\t// in\n    tag_550:\n        /* \"#utility.yul\":25193:25249   */\n    tag_549:\n        /* \"#utility.yul\":25267:25296   */\n      tag_551\n        /* \"#utility.yul\":25289:25295   */\n      dup3\n        /* \"#utility.yul\":25267:25296   */\n      tag_280\n      jump\t// in\n    tag_551:\n        /* \"#utility.yul\":25259:25296   */\n      swap1\n      pop\n        /* \"#utility.yul\":25351:25355   */\n      0x20\n        /* \"#utility.yul\":25345:25349   */\n      dup2\n        /* \"#utility.yul\":25341:25356   */\n      add\n        /* \"#utility.yul\":25333:25356   */\n      swap1\n      pop\n        /* \"#utility.yul\":25055:25363   */\n      swap2\n      swap1\n      pop\n      jump\t// out\n        /* \"#utility.yul\":25369:25803   */\n    tag_316:\n        /* \"#utility.yul\":25458:25463   */\n      0x00\n        /* \"#utility.yul\":25483:25549   */\n      tag_553\n        /* \"#utility.yul\":25499:25548   */\n      tag_554\n        /* \"#utility.yul\":25541:25547   */\n      dup5\n        /* \"#utility.yul\":25499:25548   */\n      tag_315\n      jump\t// in\n    tag_554:\n        /* \"#utility.yul\":25483:25549   */\n      tag_314\n      jump\t// in\n    tag_553:\n        /* \"#utility.yul\":25474:25549   */\n      swap1\n      pop\n        /* \"#utility.yul\":25572:25578   */\n      dup3\n        /* \"#utility.yul\":25565:25570   */\n      dup2\n        /* \"#utility.yul\":25558:25579   */\n      mstore\n        /* \"#utility.yul\":25610:25614   */\n      0x20\n        /* \"#utility.yul\":25603:25608   */\n      dup2\n        /* \"#utility.yul\":25599:25615   */\n      add\n        /* \"#utility.yul\":25648:25651   */\n      dup5\n        /* \"#utility.yul\":25639:25645   */\n      dup5\n        /* \"#utility.yul\":25634:25637   */\n      dup5\n        /* \"#utility.yul\":25630:25646   */\n      add\n        /* \"#utility.yul\":25627:25652   */\n      gt\n        /* \"#utility.yul\":25624:25736   */\n      iszero\n      tag_555\n      jumpi\n        /* \"#utility.yul\":25655:25734   */\n      tag_556\n      tag_311\n      jump\t// in\n    tag_556:\n        /* \"#utility.yul\":25624:25736   */\n    tag_555:\n        /* \"#utility.yul\":25745:25797   */\n      tag_557\n        /* \"#utility.yul\":25790:25796   */\n      dup5\n        /* \"#utility.yul\":25785:25788   */\n      dup3\n        /* \"#utility.yul\":25780:25783   */\n      dup6\n        /* \"#utility.yul\":25745:25797   */\n      tag_279\n      jump\t// in\n    tag_557:\n        /* \"#utility.yul\":25464:25803   */\n      pop\n        /* \"#utility.yul\":25369:25803   */\n      swap4\n      swap3\n      pop\n      pop\n      pop\n      jump\t// out\n        /* \"#utility.yul\":25823:26178   */\n    tag_317:\n        /* \"#utility.yul\":25890:25895   */\n      0x00\n        /* \"#utility.yul\":25939:25942   */\n      dup3\n        /* \"#utility.yul\":25932:25936   */\n      0x1f\n        /* \"#utility.yul\":25924:25930   */\n      dup4\n        /* \"#utility.yul\":25920:25937   */\n      add\n        /* \"#utility.yul\":25916:25943   */\n      slt\n        /* \"#utility.yul\":25906:26028   */\n      tag_559\n      jumpi\n        /* \"#utility.yul\":25947:26026   */\n      tag_560\n      tag_310\n      jump\t// in\n    tag_560:\n        /* \"#utility.yul\":25906:26028   */\n    tag_559:\n        /* \"#utility.yul\":26057:26063   */\n      dup2\n        /* \"#utility.yul\":26051:26064   */\n      mload\n        /* \"#utility.yul\":26082:26172   */\n      tag_561\n        /* \"#utility.yul\":26168:26171   */\n      dup5\n        /* \"#utility.yul\":26160:26166   */\n      dup3\n        /* \"#utility.yul\":26153:26157   */\n      0x20\n        /* \"#utility.yul\":26145:26151   */\n      dup7\n        /* \"#utility.yul\":26141:26158   */\n      add\n        /* \"#utility.yul\":26082:26172   */\n      tag_316\n      jump\t// in\n    tag_561:\n        /* \"#utility.yul\":26073:26172   */\n      swap2\n      pop\n        /* \"#utility.yul\":25896:26178   */\n      pop\n        /* \"#utility.yul\":25823:26178   */\n      swap3\n      swap2\n      pop\n      pop\n      jump\t// out\n        /* \"#utility.yul\":26184:26708   */\n    tag_203:\n        /* \"#utility.yul\":26264:26270   */\n      0x00\n        /* \"#utility.yul\":26313:26315   */\n      0x20\n        /* \"#utility.yul\":26301:26310   */\n      dup3\n        /* \"#utility.yul\":26292:26299   */\n      dup5\n        /* \"#utility.yul\":26288:26311   */\n      sub\n        /* \"#utility.yul\":26284:26316   */\n      slt\n        /* \"#utility.yul\":26281:26400   */\n      iszero\n      tag_563\n      jumpi\n        /* \"#utility.yul\":26319:26398   */\n      tag_564\n      tag_259\n      jump\t// in\n    tag_564:\n        /* \"#utility.yul\":26281:26400   */\n    tag_563:\n        /* \"#utility.yul\":26460:26461   */\n      0x00\n        /* \"#utility.yul\":26449:26458   */\n      dup3\n        /* \"#utility.yul\":26445:26462   */\n      add\n        /* \"#utility.yul\":26439:26463   */\n      mload\n        /* \"#utility.yul\":26490:26508   */\n      0xffffffffffffffff\n        /* \"#utility.yul\":26482:26488   */\n      dup2\n        /* \"#utility.yul\":26479:26509   */\n      gt\n        /* \"#utility.yul\":26476:26593   */\n      iszero\n      tag_565\n      jumpi\n        /* \"#utility.yul\":26512:26591   */\n      tag_566\n      tag_260\n      jump\t// in\n    tag_566:\n        /* \"#utility.yul\":26476:26593   */\n    tag_565:\n        /* \"#utility.yul\":26617:26691   */\n      tag_567\n        /* \"#utility.yul\":26683:26690   */\n      dup5\n        /* \"#utility.yul\":26674:26680   */\n      dup3\n        /* \"#utility.yul\":26663:26672   */\n      dup6\n        /* \"#utility.yul\":26659:26681   */\n      add\n        /* \"#utility.yul\":26617:26691   */\n      tag_317\n      jump\t// in\n    tag_567:\n        /* \"#utility.yul\":26607:26691   */\n      swap2\n      pop\n        /* \"#utility.yul\":26410:26701   */\n      pop\n        /* \"#utility.yul\":26184:26708   */\n      swap3\n      swap2\n      pop\n      pop\n      jump\t// out\n        /* \"#utility.yul\":26714:26879   */\n    tag_318:\n        /* \"#utility.yul\":26854:26871   */\n      0x496e76616c696420757365722049440000000000000000000000000000000000\n        /* \"#utility.yul\":26850:26851   */\n      0x00\n        /* \"#utility.yul\":26842:26848   */\n      dup3\n        /* \"#utility.yul\":26838:26852   */\n      add\n        /* \"#utility.yul\":26831:26872   */\n      mstore\n        /* \"#utility.yul\":26714:26879   */\n      pop\n      jump\t// out\n        /* \"#utility.yul\":26885:27251   */\n    tag_319:\n        /* \"#utility.yul\":27027:27030   */\n      0x00\n        /* \"#utility.yul\":27048:27115   */\n      tag_570\n        /* \"#utility.yul\":27112:27114   */\n      0x0f\n        /* \"#utility.yul\":27107:27110   */\n      dup4\n        /* \"#utility.yul\":27048:27115   */\n      tag_248\n      jump\t// in\n    tag_570:\n        /* \"#utility.yul\":27041:27115   */\n      swap2\n      pop\n        /* \"#utility.yul\":27124:27217   */\n      tag_571\n        /* \"#utility.yul\":27213:27216   */\n      dup3\n        /* \"#utility.yul\":27124:27217   */\n      tag_318\n      jump\t// in\n    tag_571:\n        /* \"#utility.yul\":27242:27244   */\n      0x20\n        /* \"#utility.yul\":27237:27240   */\n      dup3\n        /* \"#utility.yul\":27233:27245   */\n      add\n        /* \"#utility.yul\":27226:27245   */\n      swap1\n      pop\n        /* \"#utility.yul\":26885:27251   */\n      swap2\n      swap1\n      pop\n      jump\t// out\n        /* \"#utility.yul\":27257:27676   */\n    tag_229:\n        /* \"#utility.yul\":27423:27427   */\n      0x00\n        /* \"#utility.yul\":27461:27463   */\n      0x20\n        /* \"#utility.yul\":27450:27459   */\n      dup3\n        /* \"#utility.yul\":27446:27464   */\n      add\n        /* \"#utility.yul\":27438:27464   */\n      swap1\n      pop\n        /* \"#utility.yul\":27510:27519   */\n      dup2\n        /* \"#utility.yul\":27504:27508   */\n      dup2\n        /* \"#utility.yul\":27500:27520   */\n      sub\n        /* \"#utility.yul\":27496:27497   */\n      0x00\n        /* \"#utility.yul\":27485:27494   */\n      dup4\n        /* \"#utility.yul\":27481:27498   */\n      add\n        /* \"#utility.yul\":27474:27521   */\n      mstore\n        /* \"#utility.yul\":27538:27669   */\n      tag_573\n        /* \"#utility.yul\":27664:27668   */\n      dup2\n        /* \"#utility.yul\":27538:27669   */\n      tag_319\n      jump\t// in\n    tag_573:\n        /* \"#utility.yul\":27530:27669   */\n      swap1\n      pop\n        /* \"#utility.yul\":27257:27676   */\n      swap2\n      swap1\n      pop\n      jump\t// out\n        /* \"#utility.yul\":27682:27847   */\n    tag_320:\n        /* \"#utility.yul\":27822:27839   */\n      0x496e76616c696420616464726573730000000000000000000000000000000000\n        /* \"#utility.yul\":27818:27819   */\n      0x00\n        /* \"#utility.yul\":27810:27816   */\n      dup3\n        /* \"#utility.yul\":27806:27820   */\n      add\n        /* \"#utility.yul\":27799:27840   */\n      mstore\n        /* \"#utility.yul\":27682:27847   */\n      pop\n      jump\t// out\n        /* \"#utility.yul\":27853:28219   */\n    tag_321:\n        /* \"#utility.yul\":27995:27998   */\n      0x00\n        /* \"#utility.yul\":28016:28083   */\n      tag_576\n        /* \"#utility.yul\":28080:28082   */\n      0x0f\n        /* \"#utility.yul\":28075:28078   */\n      dup4\n        /* \"#utility.yul\":28016:28083   */\n      tag_248\n      jump\t// in\n    tag_576:\n        /* \"#utility.yul\":28009:28083   */\n      swap2\n      pop\n        /* \"#utility.yul\":28092:28185   */\n      tag_577\n        /* \"#utility.yul\":28181:28184   */\n      dup3\n        /* \"#utility.yul\":28092:28185   */\n      tag_320\n      jump\t// in\n    tag_577:\n        /* \"#utility.yul\":28210:28212   */\n      0x20\n        /* \"#utility.yul\":28205:28208   */\n      dup3\n        /* \"#utility.yul\":28201:28213   */\n      add\n        /* \"#utility.yul\":28194:28213   */\n      swap1\n      pop\n        /* \"#utility.yul\":27853:28219   */\n      swap2\n      swap1\n      pop\n      jump\t// out\n        /* \"#utility.yul\":28225:28644   */\n    tag_237:\n        /* \"#utility.yul\":28391:28395   */\n      0x00\n        /* \"#utility.yul\":28429:28431   */\n      0x20\n        /* \"#utility.yul\":28418:28427   */\n      dup3\n        /* \"#utility.yul\":28414:28432   */\n      add\n        /* \"#utility.yul\":28406:28432   */\n      swap1\n      pop\n        /* \"#utility.yul\":28478:28487   */\n      dup2\n        /* \"#utility.yul\":28472:28476   */\n      dup2\n        /* \"#utility.yul\":28468:28488   */\n      sub\n        /* \"#utility.yul\":28464:28465   */\n      0x00\n        /* \"#utility.yul\":28453:28462   */\n      dup4\n        /* \"#utility.yul\":28449:28466   */\n      add\n        /* \"#utility.yul\":28442:28489   */\n      mstore\n        /* \"#utility.yul\":28506:28637   */\n      tag_579\n        /* \"#utility.yul\":28632:28636   */\n      dup2\n        /* \"#utility.yul\":28506:28637   */\n      tag_321\n      jump\t// in\n    tag_579:\n        /* \"#utility.yul\":28498:28637   */\n      swap1\n      pop\n        /* \"#utility.yul\":28225:28644   */\n      swap2\n      swap1\n      pop\n      jump\t// out\n\n    auxdata: 0xa264697066735822122049fa3ebc19d14f294844b7747631aaf754ea7f552806593b7f55c085fb79798c64736f6c634300081e0033\n}\n",
				"bytecode": {
					"linkReferences": {},
					"object": "608060405234801561000f575f5ffd5b506040516128893803806128898339818101604052810190610031919061013f565b3360015f6101000a81548173ffffffffffffffffffffffffffffffffffffffff021916908373ffffffffffffffffffffffffffffffffffffffff1602179055505f600160156101000a81548160ff021916908360ff160217905550805f5f6101000a81548173ffffffffffffffffffffffffffffffffffffffff021916908373ffffffffffffffffffffffffffffffffffffffff1602179055506001600381905550600a6004819055505061016a565b5f5ffd5b5f73ffffffffffffffffffffffffffffffffffffffff82169050919050565b5f61010e826100e5565b9050919050565b61011e81610104565b8114610128575f5ffd5b50565b5f8151905061013981610115565b92915050565b5f60208284031215610154576101536100e1565b5b5f6101618482850161012b565b91505092915050565b612712806101775f395ff3fe608060405260043610610101575f3560e01c8063a2f5546e11610094578063bff1f9e111610063578063bff1f9e114610613578063ca90d6e61461063d578063fa09e63014610665578063fdbb66961461068d578063ffbe653d146106c957610220565b8063a2f5546e1461055d578063ae24303114610585578063af6b5558146105af578063b0467deb146105d757610220565b806354eb7ebe116100d057806354eb7ebe146104b7578063672cbe1a146104e15780637ce8a08e1461050b5780638da5cb5b1461053357610220565b80632a2a92cc146103ed5780632b956ff71461042957806331bbf55514610465578063487cb6b0146104a157610220565b366102205760045434101561014b576040517f08c379a000000000000000000000000000000000000000000000000000000000815260040161014290611a0d565b60405180910390fd5b5f5f5f9054906101000a900473ffffffffffffffffffffffffffffffffffffffff1673ffffffffffffffffffffffffffffffffffffffff1660035460405161019290611a58565b5f6040518083038185875af1925050503d805f81146101cc576040519150601f19603f3d011682016040523d82523d5f602084013e6101d1565b606091505b5050905080610215576040517f08c379a000000000000000000000000000000000000000000000000000000000815260040161020c90611ab6565b60405180910390fd5b61021e5f610705565b005b600454341015610265576040517f08c379a000000000000000000000000000000000000000000000000000000000815260040161025c90611a0d565b60405180910390fd5b60205f36905010156102ac576040517f08c379a00000000000000000000000000000000000000000000000000000000081526004016102a390611b1e565b60405180910390fd5b5f368101906102bb9190611b82565b1561030a5766b1a2bc2ec500003414610309576040517f08c379a000000000000000000000000000000000000000000000000000000000815260040161030090611bf7565b60405180910390fd5b5b5f5f5f9054906101000a900473ffffffffffffffffffffffffffffffffffffffff1673ffffffffffffffffffffffffffffffffffffffff1660035460405161035190611a58565b5f6040518083038185875af1925050503d805f811461038b576040519150601f19603f3d011682016040523d82523d5f602084013e610390565b606091505b50509050806103d4576040517f08c379a00000000000000000000000000000000000000000000000000000000081526004016103cb90611ab6565b60405180910390fd5b6103eb5f368101906103e69190611b82565b610705565b005b3480156103f8575f5ffd5b50610413600480360381019061040e9190611ca2565b610de1565b6040516104209190611d5d565b60405180910390f35b348015610434575f5ffd5b5061044f600480360381019061044a9190611d76565b610ea4565b60405161045c9190611db0565b60405180910390f35b348015610470575f5ffd5b5061048b60048036038101906104869190611d76565b610eea565b6040516104989190611db0565b60405180910390f35b3480156104ac575f5ffd5b506104b5610f47565b005b3480156104c2575f5ffd5b506104cb611053565b6040516104d89190611e29565b60405180910390f35b3480156104ec575f5ffd5b506104f5611179565b6040516105029190611db0565b60405180910390f35b348015610516575f5ffd5b50610531600480360381019061052c9190611e73565b6111a6565b005b34801561053e575f5ffd5b50610547611253565b6040516105549190611ead565b60405180910390f35b348015610568575f5ffd5b50610583600480360381019061057e9190611ec6565b611278565b005b348015610590575f5ffd5b50610599611327565b6040516105a69190611f13565b60405180910390f35b3480156105ba575f5ffd5b506105d560048036038101906105d09190611f67565b61133a565b005b3480156105e2575f5ffd5b506105fd60048036038101906105f89190611f92565b61140b565b60405161060a9190612136565b60405180910390f35b34801561061e575f5ffd5b50610627611543565b6040516106349190611db0565b60405180910390f35b348015610648575f5ffd5b50610663600480360381019061065e9190611ca2565b611549565b005b348015610670575f5ffd5b5061068b60048036038101906106869190611f67565b6116c2565b005b348015610698575f5ffd5b506106b360048036038101906106ae9190611d76565b611806565b6040516106c09190611db0565b60405180910390f35b3480156106d4575f5ffd5b506106ef60048036038101906106ea9190611e73565b611860565b6040516106fc9190611db0565b60405180910390f35b5f600160159054906101000a900460ff1660ff1603610759576040517f08c379a0000000000000000000000000000000000000000000000000000000008152600401610750906121a0565b60405180910390fd5b60011515600160149054906101000a900460ff161515036107af576040517f08c379a00000000000000000000000000000000000000000000000000000000081526004016107a690612208565b60405180910390fd5b60018060146101000a81548160ff0219169083151502179055505f60065f3373ffffffffffffffffffffffffffffffffffffffff1673ffffffffffffffffffffffffffffffffffffffff1681526020019081526020015f205403610a225760055f81548092919061081f90612253565b919050555060055460065f3373ffffffffffffffffffffffffffffffffffffffff1673ffffffffffffffffffffffffffffffffffffffff1681526020019081526020015f20819055505f60075f60065f3373ffffffffffffffffffffffffffffffffffffffff1673ffffffffffffffffffffffffffffffffffffffff1681526020019081526020015f205481526020019081526020015f20905033815f015f6101000a81548173ffffffffffffffffffffffffffffffffffffffff021916908373ffffffffffffffffffffffffffffffffffffffff1602179055505f81600101819055506001816002015f6101000a81548160ff0219169083151502179055508060075f60065f3373ffffffffffffffffffffffffffffffffffffffff1673ffffffffffffffffffffffffffffffffffffffff1681526020019081526020015f205481526020019081526020015f205f82015f9054906101000a900473ffffffffffffffffffffffffffffffffffffffff16815f015f6101000a81548173ffffffffffffffffffffffffffffffffffffffff021916908373ffffffffffffffffffffffffffffffffffffffff16021790555060018201548160010155600282015f9054906101000a900460ff16816002015f6101000a81548160ff0219169083151502179055506003820181600301908054610a1c929190611875565b50905050505b5f5f5f9054906101000a900473ffffffffffffffffffffffffffffffffffffffff1673ffffffffffffffffffffffffffffffffffffffff1663e03d16326040518163ffffffff1660e01b8152600401602060405180830381865afa158015610a8c573d5f5f3e3d5ffd5b505050506040513d601f19601f82011682018060405250810190610ab091906122ae565b90505f8215610c205760075f60065f3373ffffffffffffffffffffffffffffffffffffffff1673ffffffffffffffffffffffffffffffffffffffff1681526020019081526020015f205481526020019081526020015f206002015f9054906101000a900460ff16610b56576040517f08c379a0000000000000000000000000000000000000000000000000000000008152600401610b4d90612323565b60405180910390fd5b6002805f600160159054906101000a900460ff1660ff1660ff1681526020019081526020015f205483670de0b6b3a764000034610b939190612341565b610b9d91906123af565b610ba791906123af565b610bb19190612341565b90505f60075f60065f3373ffffffffffffffffffffffffffffffffffffffff1673ffffffffffffffffffffffffffffffffffffffff1681526020019081526020015f205481526020019081526020015f206002015f6101000a81548160ff021916908315150217905550610c73565b60025f600160159054906101000a900460ff1660ff1660ff1681526020019081526020015f205482670de0b6b3a764000034610c5c9190612341565b610c6691906123af565b610c7091906123af565b90505b8060075f60065f3373ffffffffffffffffffffffffffffffffffffffff1673ffffffffffffffffffffffffffffffffffffffff1681526020019081526020015f205481526020019081526020015f206001015f828254610cd391906123df565b9250508190555060075f60065f3373ffffffffffffffffffffffffffffffffffffffff1673ffffffffffffffffffffffffffffffffffffffff1681526020019081526020015f205481526020019081526020015f206003016040518060800160405280428152602001348152602001838152602001600160159054906101000a900460ff1660ff16815250908060018154018082558091505060019003905f5260205f2090600402015f909190919091505f820151815f015560208201518160010155604082015181600201556060820151816003015f6101000a81548160ff021916908360ff160217905550505050505f600160146101000a81548160ff02191690831515021790555050565b610de9611911565b60075f60065f8673ffffffffffffffffffffffffffffffffffffffff1673ffffffffffffffffffffffffffffffffffffffff1681526020019081526020015f205481526020019081526020015f206003018281548110610e4c57610e4b612412565b5b905f5260205f2090600402016040518060800160405290815f82015481526020016001820154815260200160028201548152602001600382015f9054906101000a900460ff1660ff1660ff1681525050905092915050565b5f60065f8373ffffffffffffffffffffffffffffffffffffffff1673ffffffffffffffffffffffffffffffffffffffff1681526020019081526020015f20549050919050565b5f60075f60065f8573ffffffffffffffffffffffffffffffffffffffff1673ffffffffffffffffffffffffffffffffffffffff1681526020019081526020015f205481526020019081526020015f20600301805490509050919050565b60015f9054906101000a900473ffffffffffffffffffffffffffffffffffffffff1673ffffffffffffffffffffffffffffffffffffffff163373ffffffffffffffffffffffffffffffffffffffff1614610fd6576040517f08c379a0000000000000000000000000000000000000000000000000000000008152600401610fcd90612489565b60405180910390fd5b5f5f9054906101000a900473ffffffffffffffffffffffffffffffffffffffff1673ffffffffffffffffffffffffffffffffffffffff166365a6cc2e6040518163ffffffff1660e01b81526004015f604051808303815f87803b15801561103b575f5ffd5b505af115801561104d573d5f5f3e3d5ffd5b50505050565b606060015f9054906101000a900473ffffffffffffffffffffffffffffffffffffffff1673ffffffffffffffffffffffffffffffffffffffff163373ffffffffffffffffffffffffffffffffffffffff16146110e4576040517f08c379a00000000000000000000000000000000000000000000000000000000081526004016110db90612489565b60405180910390fd5b5f5f9054906101000a900473ffffffffffffffffffffffffffffffffffffffff1673ffffffffffffffffffffffffffffffffffffffff1663a1c6a4056040518163ffffffff1660e01b81526004015f60405180830381865afa15801561114c573d5f5f3e3d5ffd5b505050506040513d5f823e3d601f19601f8201168201806040525081019061117491906125c5565b905090565b5f60025f600160159054906101000a900460ff1660ff1660ff1681526020019081526020015f2054905090565b60015f9054906101000a900473ffffffffffffffffffffffffffffffffffffffff1673ffffffffffffffffffffffffffffffffffffffff163373ffffffffffffffffffffffffffffffffffffffff1614611235576040517f08c379a000000000000000000000000000000000000000000000000000000000815260040161122c90612489565b60405180910390fd5b80600160156101000a81548160ff021916908360ff16021790555050565b60015f9054906101000a900473ffffffffffffffffffffffffffffffffffffffff1681565b60015f9054906101000a900473ffffffffffffffffffffffffffffffffffffffff1673ffffffffffffffffffffffffffffffffffffffff163373ffffffffffffffffffffffffffffffffffffffff1614611307576040517f08c379a00000000000000000000000000000000000000000000000000000000081526004016112fe90612489565b60405180910390fd5b8060025f8460ff1660ff1681526020019081526020015f20819055505050565b600160159054906101000a900460ff1681565b60015f9054906101000a900473ffffffffffffffffffffffffffffffffffffffff1673ffffffffffffffffffffffffffffffffffffffff163373ffffffffffffffffffffffffffffffffffffffff16146113c9576040517f08c379a00000000000000000000000000000000000000000000000000000000081526004016113c090612489565b60405180910390fd5b805f5f6101000a81548173ffffffffffffffffffffffffffffffffffffffff021916908373ffffffffffffffffffffffffffffffffffffffff16021790555050565b611413611938565b60075f8381526020019081526020015f206040518060800160405290815f82015f9054906101000a900473ffffffffffffffffffffffffffffffffffffffff1673ffffffffffffffffffffffffffffffffffffffff1673ffffffffffffffffffffffffffffffffffffffff16815260200160018201548152602001600282015f9054906101000a900460ff1615151515815260200160038201805480602002602001604051908101604052809291908181526020015f905b82821015611534578382905f5260205f2090600402016040518060800160405290815f82015481526020016001820154815260200160028201548152602001600382015f9054906101000a900460ff1660ff1660ff1681525050815260200190600101906114cb565b50505050815250509050919050565b60055481565b60015f9054906101000a900473ffffffffffffffffffffffffffffffffffffffff1673ffffffffffffffffffffffffffffffffffffffff163373ffffffffffffffffffffffffffffffffffffffff16146115d8576040517f08c379a00000000000000000000000000000000000000000000000000000000081526004016115cf90612489565b60405180910390fd5b5f60065f8473ffffffffffffffffffffffffffffffffffffffff1673ffffffffffffffffffffffffffffffffffffffff1681526020019081526020015f205403611657576040517f08c379a000000000000000000000000000000000000000000000000000000000815260040161164e90612656565b60405180910390fd5b8060075f60065f8673ffffffffffffffffffffffffffffffffffffffff1673ffffffffffffffffffffffffffffffffffffffff1681526020019081526020015f205481526020019081526020015f206001015f8282546116b791906123df565b925050819055505050565b60015f9054906101000a900473ffffffffffffffffffffffffffffffffffffffff1673ffffffffffffffffffffffffffffffffffffffff163373ffffffffffffffffffffffffffffffffffffffff1614611751576040517f08c379a000000000000000000000000000000000000000000000000000000000815260040161174890612489565b60405180910390fd5b5f73ffffffffffffffffffffffffffffffffffffffff168173ffffffffffffffffffffffffffffffffffffffff16036117bf576040517f08c379a00000000000000000000000000000000000000000000000000000000081526004016117b6906126be565b60405180910390fd5b8073ffffffffffffffffffffffffffffffffffffffff166108fc4790811502906040515f60405180830381858888f19350505050158015611802573d5f5f3e3d5ffd5b5050565b5f60075f60065f8573ffffffffffffffffffffffffffffffffffffffff1673ffffffffffffffffffffffffffffffffffffffff1681526020019081526020015f205481526020019081526020015f20600101549050919050565b6002602052805f5260405f205f915090505481565b828054828255905f5260205f20906004028101928215611900575f5260205f209160040282015b828111156118ff5782825f820154815f01556001820154816001015560028201548160020155600382015f9054906101000a900460ff16816003015f6101000a81548160ff021916908360ff16021790555050509160040191906004019061189c565b5b50905061190d9190611975565b5090565b60405180608001604052805f81526020015f81526020015f81526020015f60ff1681525090565b60405180608001604052805f73ffffffffffffffffffffffffffffffffffffffff1681526020015f81526020015f15158152602001606081525090565b5b808211156119af575f5f82015f9055600182015f9055600282015f9055600382015f6101000a81549060ff021916905550600401611976565b5090565b5f82825260208201905092915050565b7f53656e64206d6f726520424e4220746f206275792054505400000000000000005f82015250565b5f6119f76018836119b3565b9150611a02826119c3565b602082019050919050565b5f6020820190508181035f830152611a24816119eb565b9050919050565b5f81905092915050565b50565b5f611a435f83611a2b565b9150611a4e82611a35565b5f82019050919050565b5f611a6282611a38565b9150819050919050565b7f5472616e73666572206661696c656400000000000000000000000000000000005f82015250565b5f611aa0600f836119b3565b9150611aab82611a6c565b602082019050919050565b5f6020820190508181035f830152611acd81611a94565b9050919050565b7f496e76616c69642064617461206c656e677468000000000000000000000000005f82015250565b5f611b086013836119b3565b9150611b1382611ad4565b602082019050919050565b5f6020820190508181035f830152611b3581611afc565b9050919050565b5f604051905090565b5f5ffd5b5f5ffd5b5f8115159050919050565b611b6181611b4d565b8114611b6b575f5ffd5b50565b5f81359050611b7c81611b58565b92915050565b5f60208284031215611b9757611b96611b45565b5b5f611ba484828501611b6e565b91505092915050565b7f73656e64206a75737420302e303520626e6200000000000000000000000000005f82015250565b5f611be16012836119b3565b9150611bec82611bad565b602082019050919050565b5f6020820190508181035f830152611c0e81611bd5565b9050919050565b5f73ffffffffffffffffffffffffffffffffffffffff82169050919050565b5f611c3e82611c15565b9050919050565b611c4e81611c34565b8114611c58575f5ffd5b50565b5f81359050611c6981611c45565b92915050565b5f819050919050565b611c8181611c6f565b8114611c8b575f5ffd5b50565b5f81359050611c9c81611c78565b92915050565b5f5f60408385031215611cb857611cb7611b45565b5b5f611cc585828601611c5b565b9250506020611cd685828601611c8e565b9150509250929050565b611ce981611c6f565b82525050565b5f60ff82169050919050565b611d0481611cef565b82525050565b608082015f820151611d1e5f850182611ce0565b506020820151611d316020850182611ce0565b506040820151611d446040850182611ce0565b506060820151611d576060850182611cfb565b50505050565b5f608082019050611d705f830184611d0a565b92915050565b5f60208284031215611d8b57611d8a611b45565b5b5f611d9884828501611c5b565b91505092915050565b611daa81611c6f565b82525050565b5f602082019050611dc35f830184611da1565b92915050565b5f81519050919050565b8281835e5f83830152505050565b5f601f19601f8301169050919050565b5f611dfb82611dc9565b611e0581856119b3565b9350611e15818560208601611dd3565b611e1e81611de1565b840191505092915050565b5f6020820190508181035f830152611e418184611df1565b905092915050565b611e5281611cef565b8114611e5c575f5ffd5b50565b5f81359050611e6d81611e49565b92915050565b5f60208284031215611e8857611e87611b45565b5b5f611e9584828501611e5f565b91505092915050565b611ea781611c34565b82525050565b5f602082019050611ec05f830184611e9e565b92915050565b5f5f60408385031215611edc57611edb611b45565b5b5f611ee985828601611e5f565b9250506020611efa85828601611c8e565b9150509250929050565b611f0d81611cef565b82525050565b5f602082019050611f265f830184611f04565b92915050565b5f611f3682611c15565b9050919050565b611f4681611f2c565b8114611f50575f5ffd5b50565b5f81359050611f6181611f3d565b92915050565b5f60208284031215611f7c57611f7b611b45565b5b5f611f8984828501611f53565b91505092915050565b5f60208284031215611fa757611fa6611b45565b5b5f611fb484828501611c8e565b91505092915050565b611fc681611c34565b82525050565b611fd581611b4d565b82525050565b5f81519050919050565b5f82825260208201905092915050565b5f819050602082019050919050565b608082015f8201516120185f850182611ce0565b50602082015161202b6020850182611ce0565b50604082015161203e6040850182611ce0565b5060608201516120516060850182611cfb565b50505050565b5f6120628383612004565b60808301905092915050565b5f602082019050919050565b5f61208482611fdb565b61208e8185611fe5565b935061209983611ff5565b805f5b838110156120c95781516120b08882612057565b97506120bb8361206e565b92505060018101905061209c565b5085935050505092915050565b5f608083015f8301516120eb5f860182611fbd565b5060208301516120fe6020860182611ce0565b5060408301516121116040860182611fcc565b5060608301518482036060860152612129828261207a565b9150508091505092915050565b5f6020820190508181035f83015261214e81846120d6565b905092915050565b7f436f6e74726163742050617573656400000000000000000000000000000000005f82015250565b5f61218a600f836119b3565b915061219582612156565b602082019050919050565b5f6020820190508181035f8301526121b78161217e565b9050919050565b7f4e6f205265656e7472616e63792c706c732077616974000000000000000000005f82015250565b5f6121f26016836119b3565b91506121fd826121be565b602082019050919050565b5f6020820190508181035f83015261221f816121e6565b9050919050565b7f4e487b71000000000000000000000000000000000000000000000000000000005f52601160045260245ffd5b5f61225d82611c6f565b91507fffffffffffffffffffffffffffffffffffffffffffffffffffffffffffffffff820361228f5761228e612226565b5b600182019050919050565b5f815190506122a881611c78565b92915050565b5f602082840312156122c3576122c2611b45565b5b5f6122d08482850161229a565b91505092915050565b7f6e6f206f66666572206d6f7265000000000000000000000000000000000000005f82015250565b5f61230d600d836119b3565b9150612318826122d9565b602082019050919050565b5f6020820190508181035f83015261233a81612301565b9050919050565b5f61234b82611c6f565b915061235683611c6f565b925082820261236481611c6f565b9150828204841483151761237b5761237a612226565b5b5092915050565b7f4e487b71000000000000000000000000000000000000000000000000000000005f52601260045260245ffd5b5f6123b982611c6f565b91506123c483611c6f565b9250826123d4576123d3612382565b5b828204905092915050565b5f6123e982611c6f565b91506123f483611c6f565b925082820190508082111561240c5761240b612226565b5b92915050565b7f4e487b71000000000000000000000000000000000000000000000000000000005f52603260045260245ffd5b7f4f6e6c79206f776e6572000000000000000000000000000000000000000000005f82015250565b5f612473600a836119b3565b915061247e8261243f565b602082019050919050565b5f6020820190508181035f8301526124a081612467565b9050919050565b5f5ffd5b5f5ffd5b7f4e487b71000000000000000000000000000000000000000000000000000000005f52604160045260245ffd5b6124e582611de1565b810181811067ffffffffffffffff82111715612504576125036124af565b5b80604052505050565b5f612516611b3c565b905061252282826124dc565b919050565b5f67ffffffffffffffff821115612541576125406124af565b5b61254a82611de1565b9050602081019050919050565b5f61256961256484612527565b61250d565b905082815260208101848484011115612585576125846124ab565b5b612590848285611dd3565b509392505050565b5f82601f8301126125ac576125ab6124a7565b5b81516125bc848260208601612557565b91505092915050565b5f602082840312156125da576125d9611b45565b5b5f82015167ffffffffffffffff8111156125f7576125f6611b49565b5b61260384828501612598565b91505092915050565b7f496e76616c6964207573657220494400000000000000000000000000000000005f82015250565b5f612640600f836119b3565b915061264b8261260c565b602082019050919050565b5f6020820190508181035f83015261266d81612634565b9050919050565b7f496e76616c6964206164647265737300000000000000000000000000000000005f82015250565b5f6126a8600f836119b3565b91506126b382612674565b602082019050919050565b5f6020820190508181035f8301526126d58161269c565b905091905056fea264697066735822122049fa3ebc19d14f294844b7747631aaf754ea7f552806593b7f55c085fb79798c64736f6c634300081e0033",
					"opcodes": "PUSH1 0x80 PUSH1 0x40 MSTORE CALLVALUE DUP1 ISZERO PUSH2 0xF JUMPI PUSH0 PUSH0 REVERT JUMPDEST POP PUSH1 0x40 MLOAD PUSH2 0x2889 CODESIZE SUB DUP1 PUSH2 0x2889 DUP4 CODECOPY DUP2 DUP2 ADD PUSH1 0x40 MSTORE DUP2 ADD SWAP1 PUSH2 0x31 SWAP2 SWAP1 PUSH2 0x13F JUMP JUMPDEST CALLER PUSH1 0x1 PUSH0 PUSH2 0x100 EXP DUP2 SLOAD DUP2 PUSH20 0xFFFFFFFFFFFFFFFFFFFFFFFFFFFFFFFFFFFFFFFF MUL NOT AND SWAP1 DUP4 PUSH20 0xFFFFFFFFFFFFFFFFFFFFFFFFFFFFFFFFFFFFFFFF AND MUL OR SWAP1 SSTORE POP PUSH0 PUSH1 0x1 PUSH1 0x15 PUSH2 0x100 EXP DUP2 SLOAD DUP2 PUSH1 0xFF MUL NOT AND SWAP1 DUP4 PUSH1 0xFF AND MUL OR SWAP1 SSTORE POP DUP1 PUSH0 PUSH0 PUSH2 0x100 EXP DUP2 SLOAD DUP2 PUSH20 0xFFFFFFFFFFFFFFFFFFFFFFFFFFFFFFFFFFFFFFFF MUL NOT AND SWAP1 DUP4 PUSH20 0xFFFFFFFFFFFFFFFFFFFFFFFFFFFFFFFFFFFFFFFF AND MUL OR SWAP1 SSTORE POP PUSH1 0x1 PUSH1 0x3 DUP2 SWAP1 SSTORE POP PUSH1 0xA PUSH1 0x4 DUP2 SWAP1 SSTORE POP POP PUSH2 0x16A JUMP JUMPDEST PUSH0 PUSH0 REVERT JUMPDEST PUSH0 PUSH20 0xFFFFFFFFFFFFFFFFFFFFFFFFFFFFFFFFFFFFFFFF DUP3 AND SWAP1 POP SWAP2 SWAP1 POP JUMP JUMPDEST PUSH0 PUSH2 0x10E DUP3 PUSH2 0xE5 JUMP JUMPDEST SWAP1 POP SWAP2 SWAP1 POP JUMP JUMPDEST PUSH2 0x11E DUP2 PUSH2 0x104 JUMP JUMPDEST DUP2 EQ PUSH2 0x128 JUMPI PUSH0 PUSH0 REVERT JUMPDEST POP JUMP JUMPDEST PUSH0 DUP2 MLOAD SWAP1 POP PUSH2 0x139 DUP2 PUSH2 0x115 JUMP JUMPDEST SWAP3 SWAP2 POP POP JUMP JUMPDEST PUSH0 PUSH1 0x20 DUP3 DUP5 SUB SLT ISZERO PUSH2 0x154 JUMPI PUSH2 0x153 PUSH2 0xE1 JUMP JUMPDEST JUMPDEST PUSH0 PUSH2 0x161 DUP5 DUP3 DUP6 ADD PUSH2 0x12B JUMP JUMPDEST SWAP2 POP POP SWAP3 SWAP2 POP POP JUMP JUMPDEST PUSH2 0x2712 DUP1 PUSH2 0x177 PUSH0 CODECOPY PUSH0 RETURN INVALID PUSH1 0x80 PUSH1 0x40 MSTORE PUSH1 0x4 CALLDATASIZE LT PUSH2 0x101 JUMPI PUSH0 CALLDATALOAD PUSH1 0xE0 SHR DUP1 PUSH4 0xA2F5546E GT PUSH2 0x94 JUMPI DUP1 PUSH4 0xBFF1F9E1 GT PUSH2 0x63 JUMPI DUP1 PUSH4 0xBFF1F9E1 EQ PUSH2 0x613 JUMPI DUP1 PUSH4 0xCA90D6E6 EQ PUSH2 0x63D JUMPI DUP1 PUSH4 0xFA09E630 EQ PUSH2 0x665 JUMPI DUP1 PUSH4 0xFDBB6696 EQ PUSH2 0x68D JUMPI DUP1 PUSH4 0xFFBE653D EQ PUSH2 0x6C9 JUMPI PUSH2 0x220 JUMP JUMPDEST DUP1 PUSH4 0xA2F5546E EQ PUSH2 0x55D JUMPI DUP1 PUSH4 0xAE243031 EQ PUSH2 0x585 JUMPI DUP1 PUSH4 0xAF6B5558 EQ PUSH2 0x5AF JUMPI DUP1 PUSH4 0xB0467DEB EQ PUSH2 0x5D7 JUMPI PUSH2 0x220 JUMP JUMPDEST DUP1 PUSH4 0x54EB7EBE GT PUSH2 0xD0 JUMPI DUP1 PUSH4 0x54EB7EBE EQ PUSH2 0x4B7 JUMPI DUP1 PUSH4 0x672CBE1A EQ PUSH2 0x4E1 JUMPI DUP1 PUSH4 0x7CE8A08E EQ PUSH2 0x50B JUMPI DUP1 PUSH4 0x8DA5CB5B EQ PUSH2 0x533 JUMPI PUSH2 0x220 JUMP JUMPDEST DUP1 PUSH4 0x2A2A92CC EQ PUSH2 0x3ED JUMPI DUP1 PUSH4 0x2B956FF7 EQ PUSH2 0x429 JUMPI DUP1 PUSH4 0x31BBF555 EQ PUSH2 0x465 JUMPI DUP1 PUSH4 0x487CB6B0 EQ PUSH2 0x4A1 JUMPI PUSH2 0x220 JUMP JUMPDEST CALLDATASIZE PUSH2 0x220 JUMPI PUSH1 0x4 SLOAD CALLVALUE LT ISZERO PUSH2 0x14B JUMPI PUSH1 0x40 MLOAD PUSH32 0x8C379A000000000000000000000000000000000000000000000000000000000 DUP2 MSTORE PUSH1 0x4 ADD PUSH2 0x142 SWAP1 PUSH2 0x1A0D JUMP JUMPDEST PUSH1 0x40 MLOAD DUP1 SWAP2 SUB SWAP1 REVERT JUMPDEST PUSH0 PUSH0 PUSH0 SWAP1 SLOAD SWAP1 PUSH2 0x100 EXP SWAP1 DIV PUSH20 0xFFFFFFFFFFFFFFFFFFFFFFFFFFFFFFFFFFFFFFFF AND PUSH20 0xFFFFFFFFFFFFFFFFFFFFFFFFFFFFFFFFFFFFFFFF AND PUSH1 0x3 SLOAD PUSH1 0x40 MLOAD PUSH2 0x192 SWAP1 PUSH2 0x1A58 JUMP JUMPDEST PUSH0 PUSH1 0x40 MLOAD DUP1 DUP4 SUB DUP2 DUP6 DUP8 GAS CALL SWAP3 POP POP POP RETURNDATASIZE DUP1 PUSH0 DUP2 EQ PUSH2 0x1CC JUMPI PUSH1 0x40 MLOAD SWAP2 POP PUSH1 0x1F NOT PUSH1 0x3F RETURNDATASIZE ADD AND DUP3 ADD PUSH1 0x40 MSTORE RETURNDATASIZE DUP3 MSTORE RETURNDATASIZE PUSH0 PUSH1 0x20 DUP5 ADD RETURNDATACOPY PUSH2 0x1D1 JUMP JUMPDEST PUSH1 0x60 SWAP2 POP JUMPDEST POP POP SWAP1 POP DUP1 PUSH2 0x215 JUMPI PUSH1 0x40 MLOAD PUSH32 0x8C379A000000000000000000000000000000000000000000000000000000000 DUP2 MSTORE PUSH1 0x4 ADD PUSH2 0x20C SWAP1 PUSH2 0x1AB6 JUMP JUMPDEST PUSH1 0x40 MLOAD DUP1 SWAP2 SUB SWAP1 REVERT JUMPDEST PUSH2 0x21E PUSH0 PUSH2 0x705 JUMP JUMPDEST STOP JUMPDEST PUSH1 0x4 SLOAD CALLVALUE LT ISZERO PUSH2 0x265 JUMPI PUSH1 0x40 MLOAD PUSH32 0x8C379A000000000000000000000000000000000000000000000000000000000 DUP2 MSTORE PUSH1 0x4 ADD PUSH2 0x25C SWAP1 PUSH2 0x1A0D JUMP JUMPDEST PUSH1 0x40 MLOAD DUP1 SWAP2 SUB SWAP1 REVERT JUMPDEST PUSH1 0x20 PUSH0 CALLDATASIZE SWAP1 POP LT ISZERO PUSH2 0x2AC JUMPI PUSH1 0x40 MLOAD PUSH32 0x8C379A000000000000000000000000000000000000000000000000000000000 DUP2 MSTORE PUSH1 0x4 ADD PUSH2 0x2A3 SWAP1 PUSH2 0x1B1E JUMP JUMPDEST PUSH1 0x40 MLOAD DUP1 SWAP2 SUB SWAP1 REVERT JUMPDEST PUSH0 CALLDATASIZE DUP2 ADD SWAP1 PUSH2 0x2BB SWAP2 SWAP1 PUSH2 0x1B82 JUMP JUMPDEST ISZERO PUSH2 0x30A JUMPI PUSH7 0xB1A2BC2EC50000 CALLVALUE EQ PUSH2 0x309 JUMPI PUSH1 0x40 MLOAD PUSH32 0x8C379A000000000000000000000000000000000000000000000000000000000 DUP2 MSTORE PUSH1 0x4 ADD PUSH2 0x300 SWAP1 PUSH2 0x1BF7 JUMP JUMPDEST PUSH1 0x40 MLOAD DUP1 SWAP2 SUB SWAP1 REVERT JUMPDEST JUMPDEST PUSH0 PUSH0 PUSH0 SWAP1 SLOAD SWAP1 PUSH2 0x100 EXP SWAP1 DIV PUSH20 0xFFFFFFFFFFFFFFFFFFFFFFFFFFFFFFFFFFFFFFFF AND PUSH20 0xFFFFFFFFFFFFFFFFFFFFFFFFFFFFFFFFFFFFFFFF AND PUSH1 0x3 SLOAD PUSH1 0x40 MLOAD PUSH2 0x351 SWAP1 PUSH2 0x1A58 JUMP JUMPDEST PUSH0 PUSH1 0x40 MLOAD DUP1 DUP4 SUB DUP2 DUP6 DUP8 GAS CALL SWAP3 POP POP POP RETURNDATASIZE DUP1 PUSH0 DUP2 EQ PUSH2 0x38B JUMPI PUSH1 0x40 MLOAD SWAP2 POP PUSH1 0x1F NOT PUSH1 0x3F RETURNDATASIZE ADD AND DUP3 ADD PUSH1 0x40 MSTORE RETURNDATASIZE DUP3 MSTORE RETURNDATASIZE PUSH0 PUSH1 0x20 DUP5 ADD RETURNDATACOPY PUSH2 0x390 JUMP JUMPDEST PUSH1 0x60 SWAP2 POP JUMPDEST POP POP SWAP1 POP DUP1 PUSH2 0x3D4 JUMPI PUSH1 0x40 MLOAD PUSH32 0x8C379A000000000000000000000000000000000000000000000000000000000 DUP2 MSTORE PUSH1 0x4 ADD PUSH2 0x3CB SWAP1 PUSH2 0x1AB6 JUMP JUMPDEST PUSH1 0x40 MLOAD DUP1 SWAP2 SUB SWAP1 REVERT JUMPDEST PUSH2 0x3EB PUSH0 CALLDATASIZE DUP2 ADD SWAP1 PUSH2 0x3E6 SWAP2 SWAP1 PUSH2 0x1B82 JUMP JUMPDEST PUSH2 0x705 JUMP JUMPDEST STOP JUMPDEST CALLVALUE DUP1 ISZERO PUSH2 0x3F8 JUMPI PUSH0 PUSH0 REVERT JUMPDEST POP PUSH2 0x413 PUSH1 0x4 DUP1 CALLDATASIZE SUB DUP2 ADD SWAP1 PUSH2 0x40E SWAP2 SWAP1 PUSH2 0x1CA2 JUMP JUMPDEST PUSH2 0xDE1 JUMP JUMPDEST PUSH1 0x40 MLOAD PUSH2 0x420 SWAP2 SWAP1 PUSH2 0x1D5D JUMP JUMPDEST PUSH1 0x40 MLOAD DUP1 SWAP2 SUB SWAP1 RETURN JUMPDEST CALLVALUE DUP1 ISZERO PUSH2 0x434 JUMPI PUSH0 PUSH0 REVERT JUMPDEST POP PUSH2 0x44F PUSH1 0x4 DUP1 CALLDATASIZE SUB DUP2 ADD SWAP1 PUSH2 0x44A SWAP2 SWAP1 PUSH2 0x1D76 JUMP JUMPDEST PUSH2 0xEA4 JUMP JUMPDEST PUSH1 0x40 MLOAD PUSH2 0x45C SWAP2 SWAP1 PUSH2 0x1DB0 JUMP JUMPDEST PUSH1 0x40 MLOAD DUP1 SWAP2 SUB SWAP1 RETURN JUMPDEST CALLVALUE DUP1 ISZERO PUSH2 0x470 JUMPI PUSH0 PUSH0 REVERT JUMPDEST POP PUSH2 0x48B PUSH1 0x4 DUP1 CALLDATASIZE SUB DUP2 ADD SWAP1 PUSH2 0x486 SWAP2 SWAP1 PUSH2 0x1D76 JUMP JUMPDEST PUSH2 0xEEA JUMP JUMPDEST PUSH1 0x40 MLOAD PUSH2 0x498 SWAP2 SWAP1 PUSH2 0x1DB0 JUMP JUMPDEST PUSH1 0x40 MLOAD DUP1 SWAP2 SUB SWAP1 RETURN JUMPDEST CALLVALUE DUP1 ISZERO PUSH2 0x4AC JUMPI PUSH0 PUSH0 REVERT JUMPDEST POP PUSH2 0x4B5 PUSH2 0xF47 JUMP JUMPDEST STOP JUMPDEST CALLVALUE DUP1 ISZERO PUSH2 0x4C2 JUMPI PUSH0 PUSH0 REVERT JUMPDEST POP PUSH2 0x4CB PUSH2 0x1053 JUMP JUMPDEST PUSH1 0x40 MLOAD PUSH2 0x4D8 SWAP2 SWAP1 PUSH2 0x1E29 JUMP JUMPDEST PUSH1 0x40 MLOAD DUP1 SWAP2 SUB SWAP1 RETURN JUMPDEST CALLVALUE DUP1 ISZERO PUSH2 0x4EC JUMPI PUSH0 PUSH0 REVERT JUMPDEST POP PUSH2 0x4F5 PUSH2 0x1179 JUMP JUMPDEST PUSH1 0x40 MLOAD PUSH2 0x502 SWAP2 SWAP1 PUSH2 0x1DB0 JUMP JUMPDEST PUSH1 0x40 MLOAD DUP1 SWAP2 SUB SWAP1 RETURN JUMPDEST CALLVALUE DUP1 ISZERO PUSH2 0x516 JUMPI PUSH0 PUSH0 REVERT JUMPDEST POP PUSH2 0x531 PUSH1 0x4 DUP1 CALLDATASIZE SUB DUP2 ADD SWAP1 PUSH2 0x52C SWAP2 SWAP1 PUSH2 0x1E73 JUMP JUMPDEST PUSH2 0x11A6 JUMP JUMPDEST STOP JUMPDEST CALLVALUE DUP1 ISZERO PUSH2 0x53E JUMPI PUSH0 PUSH0 REVERT JUMPDEST POP PUSH2 0x547 PUSH2 0x1253 JUMP JUMPDEST PUSH1 0x40 MLOAD PUSH2 0x554 SWAP2 SWAP1 PUSH2 0x1EAD JUMP JUMPDEST PUSH1 0x40 MLOAD DUP1 SWAP2 SUB SWAP1 RETURN JUMPDEST CALLVALUE DUP1 ISZERO PUSH2 0x568 JUMPI PUSH0 PUSH0 REVERT JUMPDEST POP PUSH2 0x583 PUSH1 0x4 DUP1 CALLDATASIZE SUB DUP2 ADD SWAP1 PUSH2 0x57E SWAP2 SWAP1 PUSH2 0x1EC6 JUMP JUMPDEST PUSH2 0x1278 JUMP JUMPDEST STOP JUMPDEST CALLVALUE DUP1 ISZERO PUSH2 0x590 JUMPI PUSH0 PUSH0 REVERT JUMPDEST POP PUSH2 0x599 PUSH2 0x1327 JUMP JUMPDEST PUSH1 0x40 MLOAD PUSH2 0x5A6 SWAP2 SWAP1 PUSH2 0x1F13 JUMP JUMPDEST PUSH1 0x40 MLOAD DUP1 SWAP2 SUB SWAP1 RETURN JUMPDEST CALLVALUE DUP1 ISZERO PUSH2 0x5BA JUMPI PUSH0 PUSH0 REVERT JUMPDEST POP PUSH2 0x5D5 PUSH1 0x4 DUP1 CALLDATASIZE SUB DUP2 ADD SWAP1 PUSH2 0x5D0 SWAP2 SWAP1 PUSH2 0x1F67 JUMP JUMPDEST PUSH2 0x133A JUMP JUMPDEST STOP JUMPDEST CALLVALUE DUP1 ISZERO PUSH2 0x5E2 JUMPI PUSH0 PUSH0 REVERT JUMPDEST POP PUSH2 0x5FD PUSH1 0x4 DUP1 CALLDATASIZE SUB DUP2 ADD SWAP1 PUSH2 0x5F8 SWAP2 SWAP1 PUSH2 0x1F92 JUMP JUMPDEST PUSH2 0x140B JUMP JUMPDEST PUSH1 0x40 MLOAD PUSH2 0x60A SWAP2 SWAP1 PUSH2 0x2136 JUMP JUMPDEST PUSH1 0x40 MLOAD DUP1 SWAP2 SUB SWAP1 RETURN JUMPDEST CALLVALUE DUP1 ISZERO PUSH2 0x61E JUMPI PUSH0 PUSH0 REVERT JUMPDEST POP PUSH2 0x627 PUSH2 0x1543 JUMP JUMPDEST PUSH1 0x40 MLOAD PUSH2 0x634 SWAP2 SWAP1 PUSH2 0x1DB0 JUMP JUMPDEST PUSH1 0x40 MLOAD DUP1 SWAP2 SUB SWAP1 RETURN JUMPDEST CALLVALUE DUP1 ISZERO PUSH2 0x648 JUMPI PUSH0 PUSH0 REVERT JUMPDEST POP PUSH2 0x663 PUSH1 0x4 DUP1 CALLDATASIZE SUB DUP2 ADD SWAP1 PUSH2 0x65E SWAP2 SWAP1 PUSH2 0x1CA2 JUMP JUMPDEST PUSH2 0x1549 JUMP JUMPDEST STOP JUMPDEST CALLVALUE DUP1 ISZERO PUSH2 0x670 JUMPI PUSH0 PUSH0 REVERT JUMPDEST POP PUSH2 0x68B PUSH1 0x4 DUP1 CALLDATASIZE SUB DUP2 ADD SWAP1 PUSH2 0x686 SWAP2 SWAP1 PUSH2 0x1F67 JUMP JUMPDEST PUSH2 0x16C2 JUMP JUMPDEST STOP JUMPDEST CALLVALUE DUP1 ISZERO PUSH2 0x698 JUMPI PUSH0 PUSH0 REVERT JUMPDEST POP PUSH2 0x6B3 PUSH1 0x4 DUP1 CALLDATASIZE SUB DUP2 ADD SWAP1 PUSH2 0x6AE SWAP2 SWAP1 PUSH2 0x1D76 JUMP JUMPDEST PUSH2 0x1806 JUMP JUMPDEST PUSH1 0x40 MLOAD PUSH2 0x6C0 SWAP2 SWAP1 PUSH2 0x1DB0 JUMP JUMPDEST PUSH1 0x40 MLOAD DUP1 SWAP2 SUB SWAP1 RETURN JUMPDEST CALLVALUE DUP1 ISZERO PUSH2 0x6D4 JUMPI PUSH0 PUSH0 REVERT JUMPDEST POP PUSH2 0x6EF PUSH1 0x4 DUP1 CALLDATASIZE SUB DUP2 ADD SWAP1 PUSH2 0x6EA SWAP2 SWAP1 PUSH2 0x1E73 JUMP JUMPDEST PUSH2 0x1860 JUMP JUMPDEST PUSH1 0x40 MLOAD PUSH2 0x6FC SWAP2 SWAP1 PUSH2 0x1DB0 JUMP JUMPDEST PUSH1 0x40 MLOAD DUP1 SWAP2 SUB SWAP1 RETURN JUMPDEST PUSH0 PUSH1 0x1 PUSH1 0x15 SWAP1 SLOAD SWAP1 PUSH2 0x100 EXP SWAP1 DIV PUSH1 0xFF AND PUSH1 0xFF AND SUB PUSH2 0x759 JUMPI PUSH1 0x40 MLOAD PUSH32 0x8C379A000000000000000000000000000000000000000000000000000000000 DUP2 MSTORE PUSH1 0x4 ADD PUSH2 0x750 SWAP1 PUSH2 0x21A0 JUMP JUMPDEST PUSH1 0x40 MLOAD DUP1 SWAP2 SUB SWAP1 REVERT JUMPDEST PUSH1 0x1 ISZERO ISZERO PUSH1 0x1 PUSH1 0x14 SWAP1 SLOAD SWAP1 PUSH2 0x100 EXP SWAP1 DIV PUSH1 0xFF AND ISZERO ISZERO SUB PUSH2 0x7AF JUMPI PUSH1 0x40 MLOAD PUSH32 0x8C379A000000000000000000000000000000000000000000000000000000000 DUP2 MSTORE PUSH1 0x4 ADD PUSH2 0x7A6 SWAP1 PUSH2 0x2208 JUMP JUMPDEST PUSH1 0x40 MLOAD DUP1 SWAP2 SUB SWAP1 REVERT JUMPDEST PUSH1 0x1 DUP1 PUSH1 0x14 PUSH2 0x100 EXP DUP2 SLOAD DUP2 PUSH1 0xFF MUL NOT AND SWAP1 DUP4 ISZERO ISZERO MUL OR SWAP1 SSTORE POP PUSH0 PUSH1 0x6 PUSH0 CALLER PUSH20 0xFFFFFFFFFFFFFFFFFFFFFFFFFFFFFFFFFFFFFFFF AND PUSH20 0xFFFFFFFFFFFFFFFFFFFFFFFFFFFFFFFFFFFFFFFF AND DUP2 MSTORE PUSH1 0x20 ADD SWAP1 DUP2 MSTORE PUSH1 0x20 ADD PUSH0 KECCAK256 SLOAD SUB PUSH2 0xA22 JUMPI PUSH1 0x5 PUSH0 DUP2 SLOAD DUP1 SWAP3 SWAP2 SWAP1 PUSH2 0x81F SWAP1 PUSH2 0x2253 JUMP JUMPDEST SWAP2 SWAP1 POP SSTORE POP PUSH1 0x5 SLOAD PUSH1 0x6 PUSH0 CALLER PUSH20 0xFFFFFFFFFFFFFFFFFFFFFFFFFFFFFFFFFFFFFFFF AND PUSH20 0xFFFFFFFFFFFFFFFFFFFFFFFFFFFFFFFFFFFFFFFF AND DUP2 MSTORE PUSH1 0x20 ADD SWAP1 DUP2 MSTORE PUSH1 0x20 ADD PUSH0 KECCAK256 DUP2 SWAP1 SSTORE POP PUSH0 PUSH1 0x7 PUSH0 PUSH1 0x6 PUSH0 CALLER PUSH20 0xFFFFFFFFFFFFFFFFFFFFFFFFFFFFFFFFFFFFFFFF AND PUSH20 0xFFFFFFFFFFFFFFFFFFFFFFFFFFFFFFFFFFFFFFFF AND DUP2 MSTORE PUSH1 0x20 ADD SWAP1 DUP2 MSTORE PUSH1 0x20 ADD PUSH0 KECCAK256 SLOAD DUP2 MSTORE PUSH1 0x20 ADD SWAP1 DUP2 MSTORE PUSH1 0x20 ADD PUSH0 KECCAK256 SWAP1 POP CALLER DUP2 PUSH0 ADD PUSH0 PUSH2 0x100 EXP DUP2 SLOAD DUP2 PUSH20 0xFFFFFFFFFFFFFFFFFFFFFFFFFFFFFFFFFFFFFFFF MUL NOT AND SWAP1 DUP4 PUSH20 0xFFFFFFFFFFFFFFFFFFFFFFFFFFFFFFFFFFFFFFFF AND MUL OR SWAP1 SSTORE POP PUSH0 DUP2 PUSH1 0x1 ADD DUP2 SWAP1 SSTORE POP PUSH1 0x1 DUP2 PUSH1 0x2 ADD PUSH0 PUSH2 0x100 EXP DUP2 SLOAD DUP2 PUSH1 0xFF MUL NOT AND SWAP1 DUP4 ISZERO ISZERO MUL OR SWAP1 SSTORE POP DUP1 PUSH1 0x7 PUSH0 PUSH1 0x6 PUSH0 CALLER PUSH20 0xFFFFFFFFFFFFFFFFFFFFFFFFFFFFFFFFFFFFFFFF AND PUSH20 0xFFFFFFFFFFFFFFFFFFFFFFFFFFFFFFFFFFFFFFFF AND DUP2 MSTORE PUSH1 0x20 ADD SWAP1 DUP2 MSTORE PUSH1 0x20 ADD PUSH0 KECCAK256 SLOAD DUP2 MSTORE PUSH1 0x20 ADD SWAP1 DUP2 MSTORE PUSH1 0x20 ADD PUSH0 KECCAK256 PUSH0 DUP3 ADD PUSH0 SWAP1 SLOAD SWAP1 PUSH2 0x100 EXP SWAP1 DIV PUSH20 0xFFFFFFFFFFFFFFFFFFFFFFFFFFFFFFFFFFFFFFFF AND DUP2 PUSH0 ADD PUSH0 PUSH2 0x100 EXP DUP2 SLOAD DUP2 PUSH20 0xFFFFFFFFFFFFFFFFFFFFFFFFFFFFFFFFFFFFFFFF MUL NOT AND SWAP1 DUP4 PUSH20 0xFFFFFFFFFFFFFFFFFFFFFFFFFFFFFFFFFFFFFFFF AND MUL OR SWAP1 SSTORE POP PUSH1 0x1 DUP3 ADD SLOAD DUP2 PUSH1 0x1 ADD SSTORE PUSH1 0x2 DUP3 ADD PUSH0 SWAP1 SLOAD SWAP1 PUSH2 0x100 EXP SWAP1 DIV PUSH1 0xFF AND DUP2 PUSH1 0x2 ADD PUSH0 PUSH2 0x100 EXP DUP2 SLOAD DUP2 PUSH1 0xFF MUL NOT AND SWAP1 DUP4 ISZERO ISZERO MUL OR SWAP1 SSTORE POP PUSH1 0x3 DUP3 ADD DUP2 PUSH1 0x3 ADD SWAP1 DUP1 SLOAD PUSH2 0xA1C SWAP3 SWAP2 SWAP1 PUSH2 0x1875 JUMP JUMPDEST POP SWAP1 POP POP POP JUMPDEST PUSH0 PUSH0 PUSH0 SWAP1 SLOAD SWAP1 PUSH2 0x100 EXP SWAP1 DIV PUSH20 0xFFFFFFFFFFFFFFFFFFFFFFFFFFFFFFFFFFFFFFFF AND PUSH20 0xFFFFFFFFFFFFFFFFFFFFFFFFFFFFFFFFFFFFFFFF AND PUSH4 0xE03D1632 PUSH1 0x40 MLOAD DUP2 PUSH4 0xFFFFFFFF AND PUSH1 0xE0 SHL DUP2 MSTORE PUSH1 0x4 ADD PUSH1 0x20 PUSH1 0x40 MLOAD DUP1 DUP4 SUB DUP2 DUP7 GAS STATICCALL ISZERO DUP1 ISZERO PUSH2 0xA8C JUMPI RETURNDATASIZE PUSH0 PUSH0 RETURNDATACOPY RETURNDATASIZE PUSH0 REVERT JUMPDEST POP POP POP POP PUSH1 0x40 MLOAD RETURNDATASIZE PUSH1 0x1F NOT PUSH1 0x1F DUP3 ADD AND DUP3 ADD DUP1 PUSH1 0x40 MSTORE POP DUP2 ADD SWAP1 PUSH2 0xAB0 SWAP2 SWAP1 PUSH2 0x22AE JUMP JUMPDEST SWAP1 POP PUSH0 DUP3 ISZERO PUSH2 0xC20 JUMPI PUSH1 0x7 PUSH0 PUSH1 0x6 PUSH0 CALLER PUSH20 0xFFFFFFFFFFFFFFFFFFFFFFFFFFFFFFFFFFFFFFFF AND PUSH20 0xFFFFFFFFFFFFFFFFFFFFFFFFFFFFFFFFFFFFFFFF AND DUP2 MSTORE PUSH1 0x20 ADD SWAP1 DUP2 MSTORE PUSH1 0x20 ADD PUSH0 KECCAK256 SLOAD DUP2 MSTORE PUSH1 0x20 ADD SWAP1 DUP2 MSTORE PUSH1 0x20 ADD PUSH0 KECCAK256 PUSH1 0x2 ADD PUSH0 SWAP1 SLOAD SWAP1 PUSH2 0x100 EXP SWAP1 DIV PUSH1 0xFF AND PUSH2 0xB56 JUMPI PUSH1 0x40 MLOAD PUSH32 0x8C379A000000000000000000000000000000000000000000000000000000000 DUP2 MSTORE PUSH1 0x4 ADD PUSH2 0xB4D SWAP1 PUSH2 0x2323 JUMP JUMPDEST PUSH1 0x40 MLOAD DUP1 SWAP2 SUB SWAP1 REVERT JUMPDEST PUSH1 0x2 DUP1 PUSH0 PUSH1 0x1 PUSH1 0x15 SWAP1 SLOAD SWAP1 PUSH2 0x100 EXP SWAP1 DIV PUSH1 0xFF AND PUSH1 0xFF AND PUSH1 0xFF AND DUP2 MSTORE PUSH1 0x20 ADD SWAP1 DUP2 MSTORE PUSH1 0x20 ADD PUSH0 KECCAK256 SLOAD DUP4 PUSH8 0xDE0B6B3A7640000 CALLVALUE PUSH2 0xB93 SWAP2 SWAP1 PUSH2 0x2341 JUMP JUMPDEST PUSH2 0xB9D SWAP2 SWAP1 PUSH2 0x23AF JUMP JUMPDEST PUSH2 0xBA7 SWAP2 SWAP1 PUSH2 0x23AF JUMP JUMPDEST PUSH2 0xBB1 SWAP2 SWAP1 PUSH2 0x2341 JUMP JUMPDEST SWAP1 POP PUSH0 PUSH1 0x7 PUSH0 PUSH1 0x6 PUSH0 CALLER PUSH20 0xFFFFFFFFFFFFFFFFFFFFFFFFFFFFFFFFFFFFFFFF AND PUSH20 0xFFFFFFFFFFFFFFFFFFFFFFFFFFFFFFFFFFFFFFFF AND DUP2 MSTORE PUSH1 0x20 ADD SWAP1 DUP2 MSTORE PUSH1 0x20 ADD PUSH0 KECCAK256 SLOAD DUP2 MSTORE PUSH1 0x20 ADD SWAP1 DUP2 MSTORE PUSH1 0x20 ADD PUSH0 KECCAK256 PUSH1 0x2 ADD PUSH0 PUSH2 0x100 EXP DUP2 SLOAD DUP2 PUSH1 0xFF MUL NOT AND SWAP1 DUP4 ISZERO ISZERO MUL OR SWAP1 SSTORE POP PUSH2 0xC73 JUMP JUMPDEST PUSH1 0x2 PUSH0 PUSH1 0x1 PUSH1 0x15 SWAP1 SLOAD SWAP1 PUSH2 0x100 EXP SWAP1 DIV PUSH1 0xFF AND PUSH1 0xFF AND PUSH1 0xFF AND DUP2 MSTORE PUSH1 0x20 ADD SWAP1 DUP2 MSTORE PUSH1 0x20 ADD PUSH0 KECCAK256 SLOAD DUP3 PUSH8 0xDE0B6B3A7640000 CALLVALUE PUSH2 0xC5C SWAP2 SWAP1 PUSH2 0x2341 JUMP JUMPDEST PUSH2 0xC66 SWAP2 SWAP1 PUSH2 0x23AF JUMP JUMPDEST PUSH2 0xC70 SWAP2 SWAP1 PUSH2 0x23AF JUMP JUMPDEST SWAP1 POP JUMPDEST DUP1 PUSH1 0x7 PUSH0 PUSH1 0x6 PUSH0 CALLER PUSH20 0xFFFFFFFFFFFFFFFFFFFFFFFFFFFFFFFFFFFFFFFF AND PUSH20 0xFFFFFFFFFFFFFFFFFFFFFFFFFFFFFFFFFFFFFFFF AND DUP2 MSTORE PUSH1 0x20 ADD SWAP1 DUP2 MSTORE PUSH1 0x20 ADD PUSH0 KECCAK256 SLOAD DUP2 MSTORE PUSH1 0x20 ADD SWAP1 DUP2 MSTORE PUSH1 0x20 ADD PUSH0 KECCAK256 PUSH1 0x1 ADD PUSH0 DUP3 DUP3 SLOAD PUSH2 0xCD3 SWAP2 SWAP1 PUSH2 0x23DF JUMP JUMPDEST SWAP3 POP POP DUP2 SWAP1 SSTORE POP PUSH1 0x7 PUSH0 PUSH1 0x6 PUSH0 CALLER PUSH20 0xFFFFFFFFFFFFFFFFFFFFFFFFFFFFFFFFFFFFFFFF AND PUSH20 0xFFFFFFFFFFFFFFFFFFFFFFFFFFFFFFFFFFFFFFFF AND DUP2 MSTORE PUSH1 0x20 ADD SWAP1 DUP2 MSTORE PUSH1 0x20 ADD PUSH0 KECCAK256 SLOAD DUP2 MSTORE PUSH1 0x20 ADD SWAP1 DUP2 MSTORE PUSH1 0x20 ADD PUSH0 KECCAK256 PUSH1 0x3 ADD PUSH1 0x40 MLOAD DUP1 PUSH1 0x80 ADD PUSH1 0x40 MSTORE DUP1 TIMESTAMP DUP2 MSTORE PUSH1 0x20 ADD CALLVALUE DUP2 MSTORE PUSH1 0x20 ADD DUP4 DUP2 MSTORE PUSH1 0x20 ADD PUSH1 0x1 PUSH1 0x15 SWAP1 SLOAD SWAP1 PUSH2 0x100 EXP SWAP1 DIV PUSH1 0xFF AND PUSH1 0xFF AND DUP2 MSTORE POP SWAP1 DUP1 PUSH1 0x1 DUP2 SLOAD ADD DUP1 DUP3 SSTORE DUP1 SWAP2 POP POP PUSH1 0x1 SWAP1 SUB SWAP1 PUSH0 MSTORE PUSH1 0x20 PUSH0 KECCAK256 SWAP1 PUSH1 0x4 MUL ADD PUSH0 SWAP1 SWAP2 SWAP1 SWAP2 SWAP1 SWAP2 POP PUSH0 DUP3 ADD MLOAD DUP2 PUSH0 ADD SSTORE PUSH1 0x20 DUP3 ADD MLOAD DUP2 PUSH1 0x1 ADD SSTORE PUSH1 0x40 DUP3 ADD MLOAD DUP2 PUSH1 0x2 ADD SSTORE PUSH1 0x60 DUP3 ADD MLOAD DUP2 PUSH1 0x3 ADD PUSH0 PUSH2 0x100 EXP DUP2 SLOAD DUP2 PUSH1 0xFF MUL NOT AND SWAP1 DUP4 PUSH1 0xFF AND MUL OR SWAP1 SSTORE POP POP POP POP POP PUSH0 PUSH1 0x1 PUSH1 0x14 PUSH2 0x100 EXP DUP2 SLOAD DUP2 PUSH1 0xFF MUL NOT AND SWAP1 DUP4 ISZERO ISZERO MUL OR SWAP1 SSTORE POP POP JUMP JUMPDEST PUSH2 0xDE9 PUSH2 0x1911 JUMP JUMPDEST PUSH1 0x7 PUSH0 PUSH1 0x6 PUSH0 DUP7 PUSH20 0xFFFFFFFFFFFFFFFFFFFFFFFFFFFFFFFFFFFFFFFF AND PUSH20 0xFFFFFFFFFFFFFFFFFFFFFFFFFFFFFFFFFFFFFFFF AND DUP2 MSTORE PUSH1 0x20 ADD SWAP1 DUP2 MSTORE PUSH1 0x20 ADD PUSH0 KECCAK256 SLOAD DUP2 MSTORE PUSH1 0x20 ADD SWAP1 DUP2 MSTORE PUSH1 0x20 ADD PUSH0 KECCAK256 PUSH1 0x3 ADD DUP3 DUP2 SLOAD DUP2 LT PUSH2 0xE4C JUMPI PUSH2 0xE4B PUSH2 0x2412 JUMP JUMPDEST JUMPDEST SWAP1 PUSH0 MSTORE PUSH1 0x20 PUSH0 KECCAK256 SWAP1 PUSH1 0x4 MUL ADD PUSH1 0x40 MLOAD DUP1 PUSH1 0x80 ADD PUSH1 0x40 MSTORE SWAP1 DUP2 PUSH0 DUP3 ADD SLOAD DUP2 MSTORE PUSH1 0x20 ADD PUSH1 0x1 DUP3 ADD SLOAD DUP2 MSTORE PUSH1 0x20 ADD PUSH1 0x2 DUP3 ADD SLOAD DUP2 MSTORE PUSH1 0x20 ADD PUSH1 0x3 DUP3 ADD PUSH0 SWAP1 SLOAD SWAP1 PUSH2 0x100 EXP SWAP1 DIV PUSH1 0xFF AND PUSH1 0xFF AND PUSH1 0xFF AND DUP2 MSTORE POP POP SWAP1 POP SWAP3 SWAP2 POP POP JUMP JUMPDEST PUSH0 PUSH1 0x6 PUSH0 DUP4 PUSH20 0xFFFFFFFFFFFFFFFFFFFFFFFFFFFFFFFFFFFFFFFF AND PUSH20 0xFFFFFFFFFFFFFFFFFFFFFFFFFFFFFFFFFFFFFFFF AND DUP2 MSTORE PUSH1 0x20 ADD SWAP1 DUP2 MSTORE PUSH1 0x20 ADD PUSH0 KECCAK256 SLOAD SWAP1 POP SWAP2 SWAP1 POP JUMP JUMPDEST PUSH0 PUSH1 0x7 PUSH0 PUSH1 0x6 PUSH0 DUP6 PUSH20 0xFFFFFFFFFFFFFFFFFFFFFFFFFFFFFFFFFFFFFFFF AND PUSH20 0xFFFFFFFFFFFFFFFFFFFFFFFFFFFFFFFFFFFFFFFF AND DUP2 MSTORE PUSH1 0x20 ADD SWAP1 DUP2 MSTORE PUSH1 0x20 ADD PUSH0 KECCAK256 SLOAD DUP2 MSTORE PUSH1 0x20 ADD SWAP1 DUP2 MSTORE PUSH1 0x20 ADD PUSH0 KECCAK256 PUSH1 0x3 ADD DUP1 SLOAD SWAP1 POP SWAP1 POP SWAP2 SWAP1 POP JUMP JUMPDEST PUSH1 0x1 PUSH0 SWAP1 SLOAD SWAP1 PUSH2 0x100 EXP SWAP1 DIV PUSH20 0xFFFFFFFFFFFFFFFFFFFFFFFFFFFFFFFFFFFFFFFF AND PUSH20 0xFFFFFFFFFFFFFFFFFFFFFFFFFFFFFFFFFFFFFFFF AND CALLER PUSH20 0xFFFFFFFFFFFFFFFFFFFFFFFFFFFFFFFFFFFFFFFF AND EQ PUSH2 0xFD6 JUMPI PUSH1 0x40 MLOAD PUSH32 0x8C379A000000000000000000000000000000000000000000000000000000000 DUP2 MSTORE PUSH1 0x4 ADD PUSH2 0xFCD SWAP1 PUSH2 0x2489 JUMP JUMPDEST PUSH1 0x40 MLOAD DUP1 SWAP2 SUB SWAP1 REVERT JUMPDEST PUSH0 PUSH0 SWAP1 SLOAD SWAP1 PUSH2 0x100 EXP SWAP1 DIV PUSH20 0xFFFFFFFFFFFFFFFFFFFFFFFFFFFFFFFFFFFFFFFF AND PUSH20 0xFFFFFFFFFFFFFFFFFFFFFFFFFFFFFFFFFFFFFFFF AND PUSH4 0x65A6CC2E PUSH1 0x40 MLOAD DUP2 PUSH4 0xFFFFFFFF AND PUSH1 0xE0 SHL DUP2 MSTORE PUSH1 0x4 ADD PUSH0 PUSH1 0x40 MLOAD DUP1 DUP4 SUB DUP2 PUSH0 DUP8 DUP1 EXTCODESIZE ISZERO DUP1 ISZERO PUSH2 0x103B JUMPI PUSH0 PUSH0 REVERT JUMPDEST POP GAS CALL ISZERO DUP1 ISZERO PUSH2 0x104D JUMPI RETURNDATASIZE PUSH0 PUSH0 RETURNDATACOPY RETURNDATASIZE PUSH0 REVERT JUMPDEST POP POP POP POP JUMP JUMPDEST PUSH1 0x60 PUSH1 0x1 PUSH0 SWAP1 SLOAD SWAP1 PUSH2 0x100 EXP SWAP1 DIV PUSH20 0xFFFFFFFFFFFFFFFFFFFFFFFFFFFFFFFFFFFFFFFF AND PUSH20 0xFFFFFFFFFFFFFFFFFFFFFFFFFFFFFFFFFFFFFFFF AND CALLER PUSH20 0xFFFFFFFFFFFFFFFFFFFFFFFFFFFFFFFFFFFFFFFF AND EQ PUSH2 0x10E4 JUMPI PUSH1 0x40 MLOAD PUSH32 0x8C379A000000000000000000000000000000000000000000000000000000000 DUP2 MSTORE PUSH1 0x4 ADD PUSH2 0x10DB SWAP1 PUSH2 0x2489 JUMP JUMPDEST PUSH1 0x40 MLOAD DUP1 SWAP2 SUB SWAP1 REVERT JUMPDEST PUSH0 PUSH0 SWAP1 SLOAD SWAP1 PUSH2 0x100 EXP SWAP1 DIV PUSH20 0xFFFFFFFFFFFFFFFFFFFFFFFFFFFFFFFFFFFFFFFF AND PUSH20 0xFFFFFFFFFFFFFFFFFFFFFFFFFFFFFFFFFFFFFFFF AND PUSH4 0xA1C6A405 PUSH1 0x40 MLOAD DUP2 PUSH4 0xFFFFFFFF AND PUSH1 0xE0 SHL DUP2 MSTORE PUSH1 0x4 ADD PUSH0 PUSH1 0x40 MLOAD DUP1 DUP4 SUB DUP2 DUP7 GAS STATICCALL ISZERO DUP1 ISZERO PUSH2 0x114C JUMPI RETURNDATASIZE PUSH0 PUSH0 RETURNDATACOPY RETURNDATASIZE PUSH0 REVERT JUMPDEST POP POP POP POP PUSH1 0x40 MLOAD RETURNDATASIZE PUSH0 DUP3 RETURNDATACOPY RETURNDATASIZE PUSH1 0x1F NOT PUSH1 0x1F DUP3 ADD AND DUP3 ADD DUP1 PUSH1 0x40 MSTORE POP DUP2 ADD SWAP1 PUSH2 0x1174 SWAP2 SWAP1 PUSH2 0x25C5 JUMP JUMPDEST SWAP1 POP SWAP1 JUMP JUMPDEST PUSH0 PUSH1 0x2 PUSH0 PUSH1 0x1 PUSH1 0x15 SWAP1 SLOAD SWAP1 PUSH2 0x100 EXP SWAP1 DIV PUSH1 0xFF AND PUSH1 0xFF AND PUSH1 0xFF AND DUP2 MSTORE PUSH1 0x20 ADD SWAP1 DUP2 MSTORE PUSH1 0x20 ADD PUSH0 KECCAK256 SLOAD SWAP1 POP SWAP1 JUMP JUMPDEST PUSH1 0x1 PUSH0 SWAP1 SLOAD SWAP1 PUSH2 0x100 EXP SWAP1 DIV PUSH20 0xFFFFFFFFFFFFFFFFFFFFFFFFFFFFFFFFFFFFFFFF AND PUSH20 0xFFFFFFFFFFFFFFFFFFFFFFFFFFFFFFFFFFFFFFFF AND CALLER PUSH20 0xFFFFFFFFFFFFFFFFFFFFFFFFFFFFFFFFFFFFFFFF AND EQ PUSH2 0x1235 JUMPI PUSH1 0x40 MLOAD PUSH32 0x8C379A000000000000000000000000000000000000000000000000000000000 DUP2 MSTORE PUSH1 0x4 ADD PUSH2 0x122C SWAP1 PUSH2 0x2489 JUMP JUMPDEST PUSH1 0x40 MLOAD DUP1 SWAP2 SUB SWAP1 REVERT JUMPDEST DUP1 PUSH1 0x1 PUSH1 0x15 PUSH2 0x100 EXP DUP2 SLOAD DUP2 PUSH1 0xFF MUL NOT AND SWAP1 DUP4 PUSH1 0xFF AND MUL OR SWAP1 SSTORE POP POP JUMP JUMPDEST PUSH1 0x1 PUSH0 SWAP1 SLOAD SWAP1 PUSH2 0x100 EXP SWAP1 DIV PUSH20 0xFFFFFFFFFFFFFFFFFFFFFFFFFFFFFFFFFFFFFFFF AND DUP2 JUMP JUMPDEST PUSH1 0x1 PUSH0 SWAP1 SLOAD SWAP1 PUSH2 0x100 EXP SWAP1 DIV PUSH20 0xFFFFFFFFFFFFFFFFFFFFFFFFFFFFFFFFFFFFFFFF AND PUSH20 0xFFFFFFFFFFFFFFFFFFFFFFFFFFFFFFFFFFFFFFFF AND CALLER PUSH20 0xFFFFFFFFFFFFFFFFFFFFFFFFFFFFFFFFFFFFFFFF AND EQ PUSH2 0x1307 JUMPI PUSH1 0x40 MLOAD PUSH32 0x8C379A000000000000000000000000000000000000000000000000000000000 DUP2 MSTORE PUSH1 0x4 ADD PUSH2 0x12FE SWAP1 PUSH2 0x2489 JUMP JUMPDEST PUSH1 0x40 MLOAD DUP1 SWAP2 SUB SWAP1 REVERT JUMPDEST DUP1 PUSH1 0x2 PUSH0 DUP5 PUSH1 0xFF AND PUSH1 0xFF AND DUP2 MSTORE PUSH1 0x20 ADD SWAP1 DUP2 MSTORE PUSH1 0x20 ADD PUSH0 KECCAK256 DUP2 SWAP1 SSTORE POP POP POP JUMP JUMPDEST PUSH1 0x1 PUSH1 0x15 SWAP1 SLOAD SWAP1 PUSH2 0x100 EXP SWAP1 DIV PUSH1 0xFF AND DUP2 JUMP JUMPDEST PUSH1 0x1 PUSH0 SWAP1 SLOAD SWAP1 PUSH2 0x100 EXP SWAP1 DIV PUSH20 0xFFFFFFFFFFFFFFFFFFFFFFFFFFFFFFFFFFFFFFFF AND PUSH20 0xFFFFFFFFFFFFFFFFFFFFFFFFFFFFFFFFFFFFFFFF AND CALLER PUSH20 0xFFFFFFFFFFFFFFFFFFFFFFFFFFFFFFFFFFFFFFFF AND EQ PUSH2 0x13C9 JUMPI PUSH1 0x40 MLOAD PUSH32 0x8C379A000000000000000000000000000000000000000000000000000000000 DUP2 MSTORE PUSH1 0x4 ADD PUSH2 0x13C0 SWAP1 PUSH2 0x2489 JUMP JUMPDEST PUSH1 0x40 MLOAD DUP1 SWAP2 SUB SWAP1 REVERT JUMPDEST DUP1 PUSH0 PUSH0 PUSH2 0x100 EXP DUP2 SLOAD DUP2 PUSH20 0xFFFFFFFFFFFFFFFFFFFFFFFFFFFFFFFFFFFFFFFF MUL NOT AND SWAP1 DUP4 PUSH20 0xFFFFFFFFFFFFFFFFFFFFFFFFFFFFFFFFFFFFFFFF AND MUL OR SWAP1 SSTORE POP POP JUMP JUMPDEST PUSH2 0x1413 PUSH2 0x1938 JUMP JUMPDEST PUSH1 0x7 PUSH0 DUP4 DUP2 MSTORE PUSH1 0x20 ADD SWAP1 DUP2 MSTORE PUSH1 0x20 ADD PUSH0 KECCAK256 PUSH1 0x40 MLOAD DUP1 PUSH1 0x80 ADD PUSH1 0x40 MSTORE SWAP1 DUP2 PUSH0 DUP3 ADD PUSH0 SWAP1 SLOAD SWAP1 PUSH2 0x100 EXP SWAP1 DIV PUSH20 0xFFFFFFFFFFFFFFFFFFFFFFFFFFFFFFFFFFFFFFFF AND PUSH20 0xFFFFFFFFFFFFFFFFFFFFFFFFFFFFFFFFFFFFFFFF AND PUSH20 0xFFFFFFFFFFFFFFFFFFFFFFFFFFFFFFFFFFFFFFFF AND DUP2 MSTORE PUSH1 0x20 ADD PUSH1 0x1 DUP3 ADD SLOAD DUP2 MSTORE PUSH1 0x20 ADD PUSH1 0x2 DUP3 ADD PUSH0 SWAP1 SLOAD SWAP1 PUSH2 0x100 EXP SWAP1 DIV PUSH1 0xFF AND ISZERO ISZERO ISZERO ISZERO DUP2 MSTORE PUSH1 0x20 ADD PUSH1 0x3 DUP3 ADD DUP1 SLOAD DUP1 PUSH1 0x20 MUL PUSH1 0x20 ADD PUSH1 0x40 MLOAD SWAP1 DUP2 ADD PUSH1 0x40 MSTORE DUP1 SWAP3 SWAP2 SWAP1 DUP2 DUP2 MSTORE PUSH1 0x20 ADD PUSH0 SWAP1 JUMPDEST DUP3 DUP3 LT ISZERO PUSH2 0x1534 JUMPI DUP4 DUP3 SWAP1 PUSH0 MSTORE PUSH1 0x20 PUSH0 KECCAK256 SWAP1 PUSH1 0x4 MUL ADD PUSH1 0x40 MLOAD DUP1 PUSH1 0x80 ADD PUSH1 0x40 MSTORE SWAP1 DUP2 PUSH0 DUP3 ADD SLOAD DUP2 MSTORE PUSH1 0x20 ADD PUSH1 0x1 DUP3 ADD SLOAD DUP2 MSTORE PUSH1 0x20 ADD PUSH1 0x2 DUP3 ADD SLOAD DUP2 MSTORE PUSH1 0x20 ADD PUSH1 0x3 DUP3 ADD PUSH0 SWAP1 SLOAD SWAP1 PUSH2 0x100 EXP SWAP1 DIV PUSH1 0xFF AND PUSH1 0xFF AND PUSH1 0xFF AND DUP2 MSTORE POP POP DUP2 MSTORE PUSH1 0x20 ADD SWAP1 PUSH1 0x1 ADD SWAP1 PUSH2 0x14CB JUMP JUMPDEST POP POP POP POP DUP2 MSTORE POP POP SWAP1 POP SWAP2 SWAP1 POP JUMP JUMPDEST PUSH1 0x5 SLOAD DUP2 JUMP JUMPDEST PUSH1 0x1 PUSH0 SWAP1 SLOAD SWAP1 PUSH2 0x100 EXP SWAP1 DIV PUSH20 0xFFFFFFFFFFFFFFFFFFFFFFFFFFFFFFFFFFFFFFFF AND PUSH20 0xFFFFFFFFFFFFFFFFFFFFFFFFFFFFFFFFFFFFFFFF AND CALLER PUSH20 0xFFFFFFFFFFFFFFFFFFFFFFFFFFFFFFFFFFFFFFFF AND EQ PUSH2 0x15D8 JUMPI PUSH1 0x40 MLOAD PUSH32 0x8C379A000000000000000000000000000000000000000000000000000000000 DUP2 MSTORE PUSH1 0x4 ADD PUSH2 0x15CF SWAP1 PUSH2 0x2489 JUMP JUMPDEST PUSH1 0x40 MLOAD DUP1 SWAP2 SUB SWAP1 REVERT JUMPDEST PUSH0 PUSH1 0x6 PUSH0 DUP5 PUSH20 0xFFFFFFFFFFFFFFFFFFFFFFFFFFFFFFFFFFFFFFFF AND PUSH20 0xFFFFFFFFFFFFFFFFFFFFFFFFFFFFFFFFFFFFFFFF AND DUP2 MSTORE PUSH1 0x20 ADD SWAP1 DUP2 MSTORE PUSH1 0x20 ADD PUSH0 KECCAK256 SLOAD SUB PUSH2 0x1657 JUMPI PUSH1 0x40 MLOAD PUSH32 0x8C379A000000000000000000000000000000000000000000000000000000000 DUP2 MSTORE PUSH1 0x4 ADD PUSH2 0x164E SWAP1 PUSH2 0x2656 JUMP JUMPDEST PUSH1 0x40 MLOAD DUP1 SWAP2 SUB SWAP1 REVERT JUMPDEST DUP1 PUSH1 0x7 PUSH0 PUSH1 0x6 PUSH0 DUP7 PUSH20 0xFFFFFFFFFFFFFFFFFFFFFFFFFFFFFFFFFFFFFFFF AND PUSH20 0xFFFFFFFFFFFFFFFFFFFFFFFFFFFFFFFFFFFFFFFF AND DUP2 MSTORE PUSH1 0x20 ADD SWAP1 DUP2 MSTORE PUSH1 0x20 ADD PUSH0 KECCAK256 SLOAD DUP2 MSTORE PUSH1 0x20 ADD SWAP1 DUP2 MSTORE PUSH1 0x20 ADD PUSH0 KECCAK256 PUSH1 0x1 ADD PUSH0 DUP3 DUP3 SLOAD PUSH2 0x16B7 SWAP2 SWAP1 PUSH2 0x23DF JUMP JUMPDEST SWAP3 POP POP DUP2 SWAP1 SSTORE POP POP POP JUMP JUMPDEST PUSH1 0x1 PUSH0 SWAP1 SLOAD SWAP1 PUSH2 0x100 EXP SWAP1 DIV PUSH20 0xFFFFFFFFFFFFFFFFFFFFFFFFFFFFFFFFFFFFFFFF AND PUSH20 0xFFFFFFFFFFFFFFFFFFFFFFFFFFFFFFFFFFFFFFFF AND CALLER PUSH20 0xFFFFFFFFFFFFFFFFFFFFFFFFFFFFFFFFFFFFFFFF AND EQ PUSH2 0x1751 JUMPI PUSH1 0x40 MLOAD PUSH32 0x8C379A000000000000000000000000000000000000000000000000000000000 DUP2 MSTORE PUSH1 0x4 ADD PUSH2 0x1748 SWAP1 PUSH2 0x2489 JUMP JUMPDEST PUSH1 0x40 MLOAD DUP1 SWAP2 SUB SWAP1 REVERT JUMPDEST PUSH0 PUSH20 0xFFFFFFFFFFFFFFFFFFFFFFFFFFFFFFFFFFFFFFFF AND DUP2 PUSH20 0xFFFFFFFFFFFFFFFFFFFFFFFFFFFFFFFFFFFFFFFF AND SUB PUSH2 0x17BF JUMPI PUSH1 0x40 MLOAD PUSH32 0x8C379A000000000000000000000000000000000000000000000000000000000 DUP2 MSTORE PUSH1 0x4 ADD PUSH2 0x17B6 SWAP1 PUSH2 0x26BE JUMP JUMPDEST PUSH1 0x40 MLOAD DUP1 SWAP2 SUB SWAP1 REVERT JUMPDEST DUP1 PUSH20 0xFFFFFFFFFFFFFFFFFFFFFFFFFFFFFFFFFFFFFFFF AND PUSH2 0x8FC SELFBALANCE SWAP1 DUP2 ISZERO MUL SWAP1 PUSH1 0x40 MLOAD PUSH0 PUSH1 0x40 MLOAD DUP1 DUP4 SUB DUP2 DUP6 DUP9 DUP9 CALL SWAP4 POP POP POP POP ISZERO DUP1 ISZERO PUSH2 0x1802 JUMPI RETURNDATASIZE PUSH0 PUSH0 RETURNDATACOPY RETURNDATASIZE PUSH0 REVERT JUMPDEST POP POP JUMP JUMPDEST PUSH0 PUSH1 0x7 PUSH0 PUSH1 0x6 PUSH0 DUP6 PUSH20 0xFFFFFFFFFFFFFFFFFFFFFFFFFFFFFFFFFFFFFFFF AND PUSH20 0xFFFFFFFFFFFFFFFFFFFFFFFFFFFFFFFFFFFFFFFF AND DUP2 MSTORE PUSH1 0x20 ADD SWAP1 DUP2 MSTORE PUSH1 0x20 ADD PUSH0 KECCAK256 SLOAD DUP2 MSTORE PUSH1 0x20 ADD SWAP1 DUP2 MSTORE PUSH1 0x20 ADD PUSH0 KECCAK256 PUSH1 0x1 ADD SLOAD SWAP1 POP SWAP2 SWAP1 POP JUMP JUMPDEST PUSH1 0x2 PUSH1 0x20 MSTORE DUP1 PUSH0 MSTORE PUSH1 0x40 PUSH0 KECCAK256 PUSH0 SWAP2 POP SWAP1 POP SLOAD DUP2 JUMP JUMPDEST DUP3 DUP1 SLOAD DUP3 DUP3 SSTORE SWAP1 PUSH0 MSTORE PUSH1 0x20 PUSH0 KECCAK256 SWAP1 PUSH1 0x4 MUL DUP2 ADD SWAP3 DUP3 ISZERO PUSH2 0x1900 JUMPI PUSH0 MSTORE PUSH1 0x20 PUSH0 KECCAK256 SWAP2 PUSH1 0x4 MUL DUP3 ADD JUMPDEST DUP3 DUP2 GT ISZERO PUSH2 0x18FF JUMPI DUP3 DUP3 PUSH0 DUP3 ADD SLOAD DUP2 PUSH0 ADD SSTORE PUSH1 0x1 DUP3 ADD SLOAD DUP2 PUSH1 0x1 ADD SSTORE PUSH1 0x2 DUP3 ADD SLOAD DUP2 PUSH1 0x2 ADD SSTORE PUSH1 0x3 DUP3 ADD PUSH0 SWAP1 SLOAD SWAP1 PUSH2 0x100 EXP SWAP1 DIV PUSH1 0xFF AND DUP2 PUSH1 0x3 ADD PUSH0 PUSH2 0x100 EXP DUP2 SLOAD DUP2 PUSH1 0xFF MUL NOT AND SWAP1 DUP4 PUSH1 0xFF AND MUL OR SWAP1 SSTORE POP POP POP SWAP2 PUSH1 0x4 ADD SWAP2 SWAP1 PUSH1 0x4 ADD SWAP1 PUSH2 0x189C JUMP JUMPDEST JUMPDEST POP SWAP1 POP PUSH2 0x190D SWAP2 SWAP1 PUSH2 0x1975 JUMP JUMPDEST POP SWAP1 JUMP JUMPDEST PUSH1 0x40 MLOAD DUP1 PUSH1 0x80 ADD PUSH1 0x40 MSTORE DUP1 PUSH0 DUP2 MSTORE PUSH1 0x20 ADD PUSH0 DUP2 MSTORE PUSH1 0x20 ADD PUSH0 DUP2 MSTORE PUSH1 0x20 ADD PUSH0 PUSH1 0xFF AND DUP2 MSTORE POP SWAP1 JUMP JUMPDEST PUSH1 0x40 MLOAD DUP1 PUSH1 0x80 ADD PUSH1 0x40 MSTORE DUP1 PUSH0 PUSH20 0xFFFFFFFFFFFFFFFFFFFFFFFFFFFFFFFFFFFFFFFF AND DUP2 MSTORE PUSH1 0x20 ADD PUSH0 DUP2 MSTORE PUSH1 0x20 ADD PUSH0 ISZERO ISZERO DUP2 MSTORE PUSH1 0x20 ADD PUSH1 0x60 DUP2 MSTORE POP SWAP1 JUMP JUMPDEST JUMPDEST DUP1 DUP3 GT ISZERO PUSH2 0x19AF JUMPI PUSH0 PUSH0 DUP3 ADD PUSH0 SWAP1 SSTORE PUSH1 0x1 DUP3 ADD PUSH0 SWAP1 SSTORE PUSH1 0x2 DUP3 ADD PUSH0 SWAP1 SSTORE PUSH1 0x3 DUP3 ADD PUSH0 PUSH2 0x100 EXP DUP2 SLOAD SWAP1 PUSH1 0xFF MUL NOT AND SWAP1 SSTORE POP PUSH1 0x4 ADD PUSH2 0x1976 JUMP JUMPDEST POP SWAP1 JUMP JUMPDEST PUSH0 DUP3 DUP3 MSTORE PUSH1 0x20 DUP3 ADD SWAP1 POP SWAP3 SWAP2 POP POP JUMP JUMPDEST PUSH32 0x53656E64206D6F726520424E4220746F20627579205450540000000000000000 PUSH0 DUP3 ADD MSTORE POP JUMP JUMPDEST PUSH0 PUSH2 0x19F7 PUSH1 0x18 DUP4 PUSH2 0x19B3 JUMP JUMPDEST SWAP2 POP PUSH2 0x1A02 DUP3 PUSH2 0x19C3 JUMP JUMPDEST PUSH1 0x20 DUP3 ADD SWAP1 POP SWAP2 SWAP1 POP JUMP JUMPDEST PUSH0 PUSH1 0x20 DUP3 ADD SWAP1 POP DUP2 DUP2 SUB PUSH0 DUP4 ADD MSTORE PUSH2 0x1A24 DUP2 PUSH2 0x19EB JUMP JUMPDEST SWAP1 POP SWAP2 SWAP1 POP JUMP JUMPDEST PUSH0 DUP2 SWAP1 POP SWAP3 SWAP2 POP POP JUMP JUMPDEST POP JUMP JUMPDEST PUSH0 PUSH2 0x1A43 PUSH0 DUP4 PUSH2 0x1A2B JUMP JUMPDEST SWAP2 POP PUSH2 0x1A4E DUP3 PUSH2 0x1A35 JUMP JUMPDEST PUSH0 DUP3 ADD SWAP1 POP SWAP2 SWAP1 POP JUMP JUMPDEST PUSH0 PUSH2 0x1A62 DUP3 PUSH2 0x1A38 JUMP JUMPDEST SWAP2 POP DUP2 SWAP1 POP SWAP2 SWAP1 POP JUMP JUMPDEST PUSH32 0x5472616E73666572206661696C65640000000000000000000000000000000000 PUSH0 DUP3 ADD MSTORE POP JUMP JUMPDEST PUSH0 PUSH2 0x1AA0 PUSH1 0xF DUP4 PUSH2 0x19B3 JUMP JUMPDEST SWAP2 POP PUSH2 0x1AAB DUP3 PUSH2 0x1A6C JUMP JUMPDEST PUSH1 0x20 DUP3 ADD SWAP1 POP SWAP2 SWAP1 POP JUMP JUMPDEST PUSH0 PUSH1 0x20 DUP3 ADD SWAP1 POP DUP2 DUP2 SUB PUSH0 DUP4 ADD MSTORE PUSH2 0x1ACD DUP2 PUSH2 0x1A94 JUMP JUMPDEST SWAP1 POP SWAP2 SWAP1 POP JUMP JUMPDEST PUSH32 0x496E76616C69642064617461206C656E67746800000000000000000000000000 PUSH0 DUP3 ADD MSTORE POP JUMP JUMPDEST PUSH0 PUSH2 0x1B08 PUSH1 0x13 DUP4 PUSH2 0x19B3 JUMP JUMPDEST SWAP2 POP PUSH2 0x1B13 DUP3 PUSH2 0x1AD4 JUMP JUMPDEST PUSH1 0x20 DUP3 ADD SWAP1 POP SWAP2 SWAP1 POP JUMP JUMPDEST PUSH0 PUSH1 0x20 DUP3 ADD SWAP1 POP DUP2 DUP2 SUB PUSH0 DUP4 ADD MSTORE PUSH2 0x1B35 DUP2 PUSH2 0x1AFC JUMP JUMPDEST SWAP1 POP SWAP2 SWAP1 POP JUMP JUMPDEST PUSH0 PUSH1 0x40 MLOAD SWAP1 POP SWAP1 JUMP JUMPDEST PUSH0 PUSH0 REVERT JUMPDEST PUSH0 PUSH0 REVERT JUMPDEST PUSH0 DUP2 ISZERO ISZERO SWAP1 POP SWAP2 SWAP1 POP JUMP JUMPDEST PUSH2 0x1B61 DUP2 PUSH2 0x1B4D JUMP JUMPDEST DUP2 EQ PUSH2 0x1B6B JUMPI PUSH0 PUSH0 REVERT JUMPDEST POP JUMP JUMPDEST PUSH0 DUP2 CALLDATALOAD SWAP1 POP PUSH2 0x1B7C DUP2 PUSH2 0x1B58 JUMP JUMPDEST SWAP3 SWAP2 POP POP JUMP JUMPDEST PUSH0 PUSH1 0x20 DUP3 DUP5 SUB SLT ISZERO PUSH2 0x1B97 JUMPI PUSH2 0x1B96 PUSH2 0x1B45 JUMP JUMPDEST JUMPDEST PUSH0 PUSH2 0x1BA4 DUP5 DUP3 DUP6 ADD PUSH2 0x1B6E JUMP JUMPDEST SWAP2 POP POP SWAP3 SWAP2 POP POP JUMP JUMPDEST PUSH32 0x73656E64206A75737420302E303520626E620000000000000000000000000000 PUSH0 DUP3 ADD MSTORE POP JUMP JUMPDEST PUSH0 PUSH2 0x1BE1 PUSH1 0x12 DUP4 PUSH2 0x19B3 JUMP JUMPDEST SWAP2 POP PUSH2 0x1BEC DUP3 PUSH2 0x1BAD JUMP JUMPDEST PUSH1 0x20 DUP3 ADD SWAP1 POP SWAP2 SWAP1 POP JUMP JUMPDEST PUSH0 PUSH1 0x20 DUP3 ADD SWAP1 POP DUP2 DUP2 SUB PUSH0 DUP4 ADD MSTORE PUSH2 0x1C0E DUP2 PUSH2 0x1BD5 JUMP JUMPDEST SWAP1 POP SWAP2 SWAP1 POP JUMP JUMPDEST PUSH0 PUSH20 0xFFFFFFFFFFFFFFFFFFFFFFFFFFFFFFFFFFFFFFFF DUP3 AND SWAP1 POP SWAP2 SWAP1 POP JUMP JUMPDEST PUSH0 PUSH2 0x1C3E DUP3 PUSH2 0x1C15 JUMP JUMPDEST SWAP1 POP SWAP2 SWAP1 POP JUMP JUMPDEST PUSH2 0x1C4E DUP2 PUSH2 0x1C34 JUMP JUMPDEST DUP2 EQ PUSH2 0x1C58 JUMPI PUSH0 PUSH0 REVERT JUMPDEST POP JUMP JUMPDEST PUSH0 DUP2 CALLDATALOAD SWAP1 POP PUSH2 0x1C69 DUP2 PUSH2 0x1C45 JUMP JUMPDEST SWAP3 SWAP2 POP POP JUMP JUMPDEST PUSH0 DUP2 SWAP1 POP SWAP2 SWAP1 POP JUMP JUMPDEST PUSH2 0x1C81 DUP2 PUSH2 0x1C6F JUMP JUMPDEST DUP2 EQ PUSH2 0x1C8B JUMPI PUSH0 PUSH0 REVERT JUMPDEST POP JUMP JUMPDEST PUSH0 DUP2 CALLDATALOAD SWAP1 POP PUSH2 0x1C9C DUP2 PUSH2 0x1C78 JUMP JUMPDEST SWAP3 SWAP2 POP POP JUMP JUMPDEST PUSH0 PUSH0 PUSH1 0x40 DUP4 DUP6 SUB SLT ISZERO PUSH2 0x1CB8 JUMPI PUSH2 0x1CB7 PUSH2 0x1B45 JUMP JUMPDEST JUMPDEST PUSH0 PUSH2 0x1CC5 DUP6 DUP3 DUP7 ADD PUSH2 0x1C5B JUMP JUMPDEST SWAP3 POP POP PUSH1 0x20 PUSH2 0x1CD6 DUP6 DUP3 DUP7 ADD PUSH2 0x1C8E JUMP JUMPDEST SWAP2 POP POP SWAP3 POP SWAP3 SWAP1 POP JUMP JUMPDEST PUSH2 0x1CE9 DUP2 PUSH2 0x1C6F JUMP JUMPDEST DUP3 MSTORE POP POP JUMP JUMPDEST PUSH0 PUSH1 0xFF DUP3 AND SWAP1 POP SWAP2 SWAP1 POP JUMP JUMPDEST PUSH2 0x1D04 DUP2 PUSH2 0x1CEF JUMP JUMPDEST DUP3 MSTORE POP POP JUMP JUMPDEST PUSH1 0x80 DUP3 ADD PUSH0 DUP3 ADD MLOAD PUSH2 0x1D1E PUSH0 DUP6 ADD DUP3 PUSH2 0x1CE0 JUMP JUMPDEST POP PUSH1 0x20 DUP3 ADD MLOAD PUSH2 0x1D31 PUSH1 0x20 DUP6 ADD DUP3 PUSH2 0x1CE0 JUMP JUMPDEST POP PUSH1 0x40 DUP3 ADD MLOAD PUSH2 0x1D44 PUSH1 0x40 DUP6 ADD DUP3 PUSH2 0x1CE0 JUMP JUMPDEST POP PUSH1 0x60 DUP3 ADD MLOAD PUSH2 0x1D57 PUSH1 0x60 DUP6 ADD DUP3 PUSH2 0x1CFB JUMP JUMPDEST POP POP POP POP JUMP JUMPDEST PUSH0 PUSH1 0x80 DUP3 ADD SWAP1 POP PUSH2 0x1D70 PUSH0 DUP4 ADD DUP5 PUSH2 0x1D0A JUMP JUMPDEST SWAP3 SWAP2 POP POP JUMP JUMPDEST PUSH0 PUSH1 0x20 DUP3 DUP5 SUB SLT ISZERO PUSH2 0x1D8B JUMPI PUSH2 0x1D8A PUSH2 0x1B45 JUMP JUMPDEST JUMPDEST PUSH0 PUSH2 0x1D98 DUP5 DUP3 DUP6 ADD PUSH2 0x1C5B JUMP JUMPDEST SWAP2 POP POP SWAP3 SWAP2 POP POP JUMP JUMPDEST PUSH2 0x1DAA DUP2 PUSH2 0x1C6F JUMP JUMPDEST DUP3 MSTORE POP POP JUMP JUMPDEST PUSH0 PUSH1 0x20 DUP3 ADD SWAP1 POP PUSH2 0x1DC3 PUSH0 DUP4 ADD DUP5 PUSH2 0x1DA1 JUMP JUMPDEST SWAP3 SWAP2 POP POP JUMP JUMPDEST PUSH0 DUP2 MLOAD SWAP1 POP SWAP2 SWAP1 POP JUMP JUMPDEST DUP3 DUP2 DUP4 MCOPY PUSH0 DUP4 DUP4 ADD MSTORE POP POP POP JUMP JUMPDEST PUSH0 PUSH1 0x1F NOT PUSH1 0x1F DUP4 ADD AND SWAP1 POP SWAP2 SWAP1 POP JUMP JUMPDEST PUSH0 PUSH2 0x1DFB DUP3 PUSH2 0x1DC9 JUMP JUMPDEST PUSH2 0x1E05 DUP2 DUP6 PUSH2 0x19B3 JUMP JUMPDEST SWAP4 POP PUSH2 0x1E15 DUP2 DUP6 PUSH1 0x20 DUP7 ADD PUSH2 0x1DD3 JUMP JUMPDEST PUSH2 0x1E1E DUP2 PUSH2 0x1DE1 JUMP JUMPDEST DUP5 ADD SWAP2 POP POP SWAP3 SWAP2 POP POP JUMP JUMPDEST PUSH0 PUSH1 0x20 DUP3 ADD SWAP1 POP DUP2 DUP2 SUB PUSH0 DUP4 ADD MSTORE PUSH2 0x1E41 DUP2 DUP5 PUSH2 0x1DF1 JUMP JUMPDEST SWAP1 POP SWAP3 SWAP2 POP POP JUMP JUMPDEST PUSH2 0x1E52 DUP2 PUSH2 0x1CEF JUMP JUMPDEST DUP2 EQ PUSH2 0x1E5C JUMPI PUSH0 PUSH0 REVERT JUMPDEST POP JUMP JUMPDEST PUSH0 DUP2 CALLDATALOAD SWAP1 POP PUSH2 0x1E6D DUP2 PUSH2 0x1E49 JUMP JUMPDEST SWAP3 SWAP2 POP POP JUMP JUMPDEST PUSH0 PUSH1 0x20 DUP3 DUP5 SUB SLT ISZERO PUSH2 0x1E88 JUMPI PUSH2 0x1E87 PUSH2 0x1B45 JUMP JUMPDEST JUMPDEST PUSH0 PUSH2 0x1E95 DUP5 DUP3 DUP6 ADD PUSH2 0x1E5F JUMP JUMPDEST SWAP2 POP POP SWAP3 SWAP2 POP POP JUMP JUMPDEST PUSH2 0x1EA7 DUP2 PUSH2 0x1C34 JUMP JUMPDEST DUP3 MSTORE POP POP JUMP JUMPDEST PUSH0 PUSH1 0x20 DUP3 ADD SWAP1 POP PUSH2 0x1EC0 PUSH0 DUP4 ADD DUP5 PUSH2 0x1E9E JUMP JUMPDEST SWAP3 SWAP2 POP POP JUMP JUMPDEST PUSH0 PUSH0 PUSH1 0x40 DUP4 DUP6 SUB SLT ISZERO PUSH2 0x1EDC JUMPI PUSH2 0x1EDB PUSH2 0x1B45 JUMP JUMPDEST JUMPDEST PUSH0 PUSH2 0x1EE9 DUP6 DUP3 DUP7 ADD PUSH2 0x1E5F JUMP JUMPDEST SWAP3 POP POP PUSH1 0x20 PUSH2 0x1EFA DUP6 DUP3 DUP7 ADD PUSH2 0x1C8E JUMP JUMPDEST SWAP2 POP POP SWAP3 POP SWAP3 SWAP1 POP JUMP JUMPDEST PUSH2 0x1F0D DUP2 PUSH2 0x1CEF JUMP JUMPDEST DUP3 MSTORE POP POP JUMP JUMPDEST PUSH0 PUSH1 0x20 DUP3 ADD SWAP1 POP PUSH2 0x1F26 PUSH0 DUP4 ADD DUP5 PUSH2 0x1F04 JUMP JUMPDEST SWAP3 SWAP2 POP POP JUMP JUMPDEST PUSH0 PUSH2 0x1F36 DUP3 PUSH2 0x1C15 JUMP JUMPDEST SWAP1 POP SWAP2 SWAP1 POP JUMP JUMPDEST PUSH2 0x1F46 DUP2 PUSH2 0x1F2C JUMP JUMPDEST DUP2 EQ PUSH2 0x1F50 JUMPI PUSH0 PUSH0 REVERT JUMPDEST POP JUMP JUMPDEST PUSH0 DUP2 CALLDATALOAD SWAP1 POP PUSH2 0x1F61 DUP2 PUSH2 0x1F3D JUMP JUMPDEST SWAP3 SWAP2 POP POP JUMP JUMPDEST PUSH0 PUSH1 0x20 DUP3 DUP5 SUB SLT ISZERO PUSH2 0x1F7C JUMPI PUSH2 0x1F7B PUSH2 0x1B45 JUMP JUMPDEST JUMPDEST PUSH0 PUSH2 0x1F89 DUP5 DUP3 DUP6 ADD PUSH2 0x1F53 JUMP JUMPDEST SWAP2 POP POP SWAP3 SWAP2 POP POP JUMP JUMPDEST PUSH0 PUSH1 0x20 DUP3 DUP5 SUB SLT ISZERO PUSH2 0x1FA7 JUMPI PUSH2 0x1FA6 PUSH2 0x1B45 JUMP JUMPDEST JUMPDEST PUSH0 PUSH2 0x1FB4 DUP5 DUP3 DUP6 ADD PUSH2 0x1C8E JUMP JUMPDEST SWAP2 POP POP SWAP3 SWAP2 POP POP JUMP JUMPDEST PUSH2 0x1FC6 DUP2 PUSH2 0x1C34 JUMP JUMPDEST DUP3 MSTORE POP POP JUMP JUMPDEST PUSH2 0x1FD5 DUP2 PUSH2 0x1B4D JUMP JUMPDEST DUP3 MSTORE POP POP JUMP JUMPDEST PUSH0 DUP2 MLOAD SWAP1 POP SWAP2 SWAP1 POP JUMP JUMPDEST PUSH0 DUP3 DUP3 MSTORE PUSH1 0x20 DUP3 ADD SWAP1 POP SWAP3 SWAP2 POP POP JUMP JUMPDEST PUSH0 DUP2 SWAP1 POP PUSH1 0x20 DUP3 ADD SWAP1 POP SWAP2 SWAP1 POP JUMP JUMPDEST PUSH1 0x80 DUP3 ADD PUSH0 DUP3 ADD MLOAD PUSH2 0x2018 PUSH0 DUP6 ADD DUP3 PUSH2 0x1CE0 JUMP JUMPDEST POP PUSH1 0x20 DUP3 ADD MLOAD PUSH2 0x202B PUSH1 0x20 DUP6 ADD DUP3 PUSH2 0x1CE0 JUMP JUMPDEST POP PUSH1 0x40 DUP3 ADD MLOAD PUSH2 0x203E PUSH1 0x40 DUP6 ADD DUP3 PUSH2 0x1CE0 JUMP JUMPDEST POP PUSH1 0x60 DUP3 ADD MLOAD PUSH2 0x2051 PUSH1 0x60 DUP6 ADD DUP3 PUSH2 0x1CFB JUMP JUMPDEST POP POP POP POP JUMP JUMPDEST PUSH0 PUSH2 0x2062 DUP4 DUP4 PUSH2 0x2004 JUMP JUMPDEST PUSH1 0x80 DUP4 ADD SWAP1 POP SWAP3 SWAP2 POP POP JUMP JUMPDEST PUSH0 PUSH1 0x20 DUP3 ADD SWAP1 POP SWAP2 SWAP1 POP JUMP JUMPDEST PUSH0 PUSH2 0x2084 DUP3 PUSH2 0x1FDB JUMP JUMPDEST PUSH2 0x208E DUP2 DUP6 PUSH2 0x1FE5 JUMP JUMPDEST SWAP4 POP PUSH2 0x2099 DUP4 PUSH2 0x1FF5 JUMP JUMPDEST DUP1 PUSH0 JUMPDEST DUP4 DUP2 LT ISZERO PUSH2 0x20C9 JUMPI DUP2 MLOAD PUSH2 0x20B0 DUP9 DUP3 PUSH2 0x2057 JUMP JUMPDEST SWAP8 POP PUSH2 0x20BB DUP4 PUSH2 0x206E JUMP JUMPDEST SWAP3 POP POP PUSH1 0x1 DUP2 ADD SWAP1 POP PUSH2 0x209C JUMP JUMPDEST POP DUP6 SWAP4 POP POP POP POP SWAP3 SWAP2 POP POP JUMP JUMPDEST PUSH0 PUSH1 0x80 DUP4 ADD PUSH0 DUP4 ADD MLOAD PUSH2 0x20EB PUSH0 DUP7 ADD DUP3 PUSH2 0x1FBD JUMP JUMPDEST POP PUSH1 0x20 DUP4 ADD MLOAD PUSH2 0x20FE PUSH1 0x20 DUP7 ADD DUP3 PUSH2 0x1CE0 JUMP JUMPDEST POP PUSH1 0x40 DUP4 ADD MLOAD PUSH2 0x2111 PUSH1 0x40 DUP7 ADD DUP3 PUSH2 0x1FCC JUMP JUMPDEST POP PUSH1 0x60 DUP4 ADD MLOAD DUP5 DUP3 SUB PUSH1 0x60 DUP7 ADD MSTORE PUSH2 0x2129 DUP3 DUP3 PUSH2 0x207A JUMP JUMPDEST SWAP2 POP POP DUP1 SWAP2 POP POP SWAP3 SWAP2 POP POP JUMP JUMPDEST PUSH0 PUSH1 0x20 DUP3 ADD SWAP1 POP DUP2 DUP2 SUB PUSH0 DUP4 ADD MSTORE PUSH2 0x214E DUP2 DUP5 PUSH2 0x20D6 JUMP JUMPDEST SWAP1 POP SWAP3 SWAP2 POP POP JUMP JUMPDEST PUSH32 0x436F6E7472616374205061757365640000000000000000000000000000000000 PUSH0 DUP3 ADD MSTORE POP JUMP JUMPDEST PUSH0 PUSH2 0x218A PUSH1 0xF DUP4 PUSH2 0x19B3 JUMP JUMPDEST SWAP2 POP PUSH2 0x2195 DUP3 PUSH2 0x2156 JUMP JUMPDEST PUSH1 0x20 DUP3 ADD SWAP1 POP SWAP2 SWAP1 POP JUMP JUMPDEST PUSH0 PUSH1 0x20 DUP3 ADD SWAP1 POP DUP2 DUP2 SUB PUSH0 DUP4 ADD MSTORE PUSH2 0x21B7 DUP2 PUSH2 0x217E JUMP JUMPDEST SWAP1 POP SWAP2 SWAP1 POP JUMP JUMPDEST PUSH32 0x4E6F205265656E7472616E63792C706C73207761697400000000000000000000 PUSH0 DUP3 ADD MSTORE POP JUMP JUMPDEST PUSH0 PUSH2 0x21F2 PUSH1 0x16 DUP4 PUSH2 0x19B3 JUMP JUMPDEST SWAP2 POP PUSH2 0x21FD DUP3 PUSH2 0x21BE JUMP JUMPDEST PUSH1 0x20 DUP3 ADD SWAP1 POP SWAP2 SWAP1 POP JUMP JUMPDEST PUSH0 PUSH1 0x20 DUP3 ADD SWAP1 POP DUP2 DUP2 SUB PUSH0 DUP4 ADD MSTORE PUSH2 0x221F DUP2 PUSH2 0x21E6 JUMP JUMPDEST SWAP1 POP SWAP2 SWAP1 POP JUMP JUMPDEST PUSH32 0x4E487B7100000000000000000000000000000000000000000000000000000000 PUSH0 MSTORE PUSH1 0x11 PUSH1 0x4 MSTORE PUSH1 0x24 PUSH0 REVERT JUMPDEST PUSH0 PUSH2 0x225D DUP3 PUSH2 0x1C6F JUMP JUMPDEST SWAP2 POP PUSH32 0xFFFFFFFFFFFFFFFFFFFFFFFFFFFFFFFFFFFFFFFFFFFFFFFFFFFFFFFFFFFFFFFF DUP3 SUB PUSH2 0x228F JUMPI PUSH2 0x228E PUSH2 0x2226 JUMP JUMPDEST JUMPDEST PUSH1 0x1 DUP3 ADD SWAP1 POP SWAP2 SWAP1 POP JUMP JUMPDEST PUSH0 DUP2 MLOAD SWAP1 POP PUSH2 0x22A8 DUP2 PUSH2 0x1C78 JUMP JUMPDEST SWAP3 SWAP2 POP POP JUMP JUMPDEST PUSH0 PUSH1 0x20 DUP3 DUP5 SUB SLT ISZERO PUSH2 0x22C3 JUMPI PUSH2 0x22C2 PUSH2 0x1B45 JUMP JUMPDEST JUMPDEST PUSH0 PUSH2 0x22D0 DUP5 DUP3 DUP6 ADD PUSH2 0x229A JUMP JUMPDEST SWAP2 POP POP SWAP3 SWAP2 POP POP JUMP JUMPDEST PUSH32 0x6E6F206F66666572206D6F726500000000000000000000000000000000000000 PUSH0 DUP3 ADD MSTORE POP JUMP JUMPDEST PUSH0 PUSH2 0x230D PUSH1 0xD DUP4 PUSH2 0x19B3 JUMP JUMPDEST SWAP2 POP PUSH2 0x2318 DUP3 PUSH2 0x22D9 JUMP JUMPDEST PUSH1 0x20 DUP3 ADD SWAP1 POP SWAP2 SWAP1 POP JUMP JUMPDEST PUSH0 PUSH1 0x20 DUP3 ADD SWAP1 POP DUP2 DUP2 SUB PUSH0 DUP4 ADD MSTORE PUSH2 0x233A DUP2 PUSH2 0x2301 JUMP JUMPDEST SWAP1 POP SWAP2 SWAP1 POP JUMP JUMPDEST PUSH0 PUSH2 0x234B DUP3 PUSH2 0x1C6F JUMP JUMPDEST SWAP2 POP PUSH2 0x2356 DUP4 PUSH2 0x1C6F JUMP JUMPDEST SWAP3 POP DUP3 DUP3 MUL PUSH2 0x2364 DUP2 PUSH2 0x1C6F JUMP JUMPDEST SWAP2 POP DUP3 DUP3 DIV DUP5 EQ DUP4 ISZERO OR PUSH2 0x237B JUMPI PUSH2 0x237A PUSH2 0x2226 JUMP JUMPDEST JUMPDEST POP SWAP3 SWAP2 POP POP JUMP JUMPDEST PUSH32 0x4E487B7100000000000000000000000000000000000000000000000000000000 PUSH0 MSTORE PUSH1 0x12 PUSH1 0x4 MSTORE PUSH1 0x24 PUSH0 REVERT JUMPDEST PUSH0 PUSH2 0x23B9 DUP3 PUSH2 0x1C6F JUMP JUMPDEST SWAP2 POP PUSH2 0x23C4 DUP4 PUSH2 0x1C6F JUMP JUMPDEST SWAP3 POP DUP3 PUSH2 0x23D4 JUMPI PUSH2 0x23D3 PUSH2 0x2382 JUMP JUMPDEST JUMPDEST DUP3 DUP3 DIV SWAP1 POP SWAP3 SWAP2 POP POP JUMP JUMPDEST PUSH0 PUSH2 0x23E9 DUP3 PUSH2 0x1C6F JUMP JUMPDEST SWAP2 POP PUSH2 0x23F4 DUP4 PUSH2 0x1C6F JUMP JUMPDEST SWAP3 POP DUP3 DUP3 ADD SWAP1 POP DUP1 DUP3 GT ISZERO PUSH2 0x240C JUMPI PUSH2 0x240B PUSH2 0x2226 JUMP JUMPDEST JUMPDEST SWAP3 SWAP2 POP POP JUMP JUMPDEST PUSH32 0x4E487B7100000000000000000000000000000000000000000000000000000000 PUSH0 MSTORE PUSH1 0x32 PUSH1 0x4 MSTORE PUSH1 0x24 PUSH0 REVERT JUMPDEST PUSH32 0x4F6E6C79206F776E657200000000000000000000000000000000000000000000 PUSH0 DUP3 ADD MSTORE POP JUMP JUMPDEST PUSH0 PUSH2 0x2473 PUSH1 0xA DUP4 PUSH2 0x19B3 JUMP JUMPDEST SWAP2 POP PUSH2 0x247E DUP3 PUSH2 0x243F JUMP JUMPDEST PUSH1 0x20 DUP3 ADD SWAP1 POP SWAP2 SWAP1 POP JUMP JUMPDEST PUSH0 PUSH1 0x20 DUP3 ADD SWAP1 POP DUP2 DUP2 SUB PUSH0 DUP4 ADD MSTORE PUSH2 0x24A0 DUP2 PUSH2 0x2467 JUMP JUMPDEST SWAP1 POP SWAP2 SWAP1 POP JUMP JUMPDEST PUSH0 PUSH0 REVERT JUMPDEST PUSH0 PUSH0 REVERT JUMPDEST PUSH32 0x4E487B7100000000000000000000000000000000000000000000000000000000 PUSH0 MSTORE PUSH1 0x41 PUSH1 0x4 MSTORE PUSH1 0x24 PUSH0 REVERT JUMPDEST PUSH2 0x24E5 DUP3 PUSH2 0x1DE1 JUMP JUMPDEST DUP2 ADD DUP2 DUP2 LT PUSH8 0xFFFFFFFFFFFFFFFF DUP3 GT OR ISZERO PUSH2 0x2504 JUMPI PUSH2 0x2503 PUSH2 0x24AF JUMP JUMPDEST JUMPDEST DUP1 PUSH1 0x40 MSTORE POP POP POP JUMP JUMPDEST PUSH0 PUSH2 0x2516 PUSH2 0x1B3C JUMP JUMPDEST SWAP1 POP PUSH2 0x2522 DUP3 DUP3 PUSH2 0x24DC JUMP JUMPDEST SWAP2 SWAP1 POP JUMP JUMPDEST PUSH0 PUSH8 0xFFFFFFFFFFFFFFFF DUP3 GT ISZERO PUSH2 0x2541 JUMPI PUSH2 0x2540 PUSH2 0x24AF JUMP JUMPDEST JUMPDEST PUSH2 0x254A DUP3 PUSH2 0x1DE1 JUMP JUMPDEST SWAP1 POP PUSH1 0x20 DUP2 ADD SWAP1 POP SWAP2 SWAP1 POP JUMP JUMPDEST PUSH0 PUSH2 0x2569 PUSH2 0x2564 DUP5 PUSH2 0x2527 JUMP JUMPDEST PUSH2 0x250D JUMP JUMPDEST SWAP1 POP DUP3 DUP2 MSTORE PUSH1 0x20 DUP2 ADD DUP5 DUP5 DUP5 ADD GT ISZERO PUSH2 0x2585 JUMPI PUSH2 0x2584 PUSH2 0x24AB JUMP JUMPDEST JUMPDEST PUSH2 0x2590 DUP5 DUP3 DUP6 PUSH2 0x1DD3 JUMP JUMPDEST POP SWAP4 SWAP3 POP POP POP JUMP JUMPDEST PUSH0 DUP3 PUSH1 0x1F DUP4 ADD SLT PUSH2 0x25AC JUMPI PUSH2 0x25AB PUSH2 0x24A7 JUMP JUMPDEST JUMPDEST DUP2 MLOAD PUSH2 0x25BC DUP5 DUP3 PUSH1 0x20 DUP7 ADD PUSH2 0x2557 JUMP JUMPDEST SWAP2 POP POP SWAP3 SWAP2 POP POP JUMP JUMPDEST PUSH0 PUSH1 0x20 DUP3 DUP5 SUB SLT ISZERO PUSH2 0x25DA JUMPI PUSH2 0x25D9 PUSH2 0x1B45 JUMP JUMPDEST JUMPDEST PUSH0 DUP3 ADD MLOAD PUSH8 0xFFFFFFFFFFFFFFFF DUP2 GT ISZERO PUSH2 0x25F7 JUMPI PUSH2 0x25F6 PUSH2 0x1B49 JUMP JUMPDEST JUMPDEST PUSH2 0x2603 DUP5 DUP3 DUP6 ADD PUSH2 0x2598 JUMP JUMPDEST SWAP2 POP POP SWAP3 SWAP2 POP POP JUMP JUMPDEST PUSH32 0x496E76616C696420757365722049440000000000000000000000000000000000 PUSH0 DUP3 ADD MSTORE POP JUMP JUMPDEST PUSH0 PUSH2 0x2640 PUSH1 0xF DUP4 PUSH2 0x19B3 JUMP JUMPDEST SWAP2 POP PUSH2 0x264B DUP3 PUSH2 0x260C JUMP JUMPDEST PUSH1 0x20 DUP3 ADD SWAP1 POP SWAP2 SWAP1 POP JUMP JUMPDEST PUSH0 PUSH1 0x20 DUP3 ADD SWAP1 POP DUP2 DUP2 SUB PUSH0 DUP4 ADD MSTORE PUSH2 0x266D DUP2 PUSH2 0x2634 JUMP JUMPDEST SWAP1 POP SWAP2 SWAP1 POP JUMP JUMPDEST PUSH32 0x496E76616C696420616464726573730000000000000000000000000000000000 PUSH0 DUP3 ADD MSTORE POP JUMP JUMPDEST PUSH0 PUSH2 0x26A8 PUSH1 0xF DUP4 PUSH2 0x19B3 JUMP JUMPDEST SWAP2 POP PUSH2 0x26B3 DUP3 PUSH2 0x2674 JUMP JUMPDEST PUSH1 0x20 DUP3 ADD SWAP1 POP SWAP2 SWAP1 POP JUMP JUMPDEST PUSH0 PUSH1 0x20 DUP3 ADD SWAP1 POP DUP2 DUP2 SUB PUSH0 DUP4 ADD MSTORE PUSH2 0x26D5 DUP2 PUSH2 0x269C JUMP JUMPDEST SWAP1 POP SWAP2 SWAP1 POP JUMP INVALID LOG2 PUSH5 0x6970667358 0x22 SLT KECCAK256 BLOBHASH STATICCALL RETURNDATACOPY 0xBC NOT DATALOADN 0x4F29 BASEFEE PREVRANDAO 0xB7 PUSH21 0x7631AAF754EA7F552806593B7F55C085FB79798C64 PUSH20 0x6F6C634300081E00330000000000000000000000 "
				},
				"gasEstimates": {
					"creation": {
						"codeDepositCost": "2000400",
						"executionCost": "infinite",
						"totalCost": "infinite"
					},
					"external": {
						"": "infinite",
						"getPriceMode()": "infinite",
						"getPurchase(address,uint256)": "infinite",
						"getPurchaseCount(address)": "5087",
						"getThisStepPrice()": "4751",
						"getUser(uint256)": "infinite",
						"getUserId(address)": "2875",
						"getUserTPTBalance(address)": "5099",
						"grantPointsById(address,uint256)": "infinite",
						"owner()": "2597",
						"setBNBPriceAddress(address)": "26950",
						"setPriceMode()": "infinite",
						"setTPTPrice(uint8,uint256)": "24971",
						"setThisStep(uint8)": "26960",
						"thisStep()": "2562",
						"totalUsers()": "2447",
						"tptStepPrice(uint8)": "2870",
						"withdrawAll(address)": "infinite"
					},
					"internal": {
						"buyTPT(bool)": "infinite"
					}
				},
				"methodIdentifiers": {
					"getPriceMode()": "54eb7ebe",
					"getPurchase(address,uint256)": "2a2a92cc",
					"getPurchaseCount(address)": "31bbf555",
					"getThisStepPrice()": "672cbe1a",
					"getUser(uint256)": "b0467deb",
					"getUserId(address)": "2b956ff7",
					"getUserTPTBalance(address)": "fdbb6696",
					"grantPointsById(address,uint256)": "ca90d6e6",
					"owner()": "8da5cb5b",
					"setBNBPriceAddress(address)": "af6b5558",
					"setPriceMode()": "487cb6b0",
					"setTPTPrice(uint8,uint256)": "a2f5546e",
					"setThisStep(uint8)": "7ce8a08e",
					"thisStep()": "ae243031",
					"totalUsers()": "bff1f9e1",
					"tptStepPrice(uint8)": "ffbe653d",
					"withdrawAll(address)": "fa09e630"
				}
			},
			"storageLayout": {
				"storage": [
					{
						"astId": 44,
						"contract": "contracts/TPTPreSale.sol:TPTPreSale",
						"label": "priceContract",
						"offset": 0,
						"slot": "0",
						"type": "t_address_payable"
					},
					{
						"astId": 46,
						"contract": "contracts/TPTPreSale.sol:TPTPreSale",
						"label": "owner",
						"offset": 0,
						"slot": "1",
						"type": "t_address"
					},
					{
						"astId": 48,
						"contract": "contracts/TPTPreSale.sol:TPTPreSale",
						"label": "locked",
						"offset": 20,
						"slot": "1",
						"type": "t_bool"
					},
					{
						"astId": 50,
						"contract": "contracts/TPTPreSale.sol:TPTPreSale",
						"label": "thisStep",
						"offset": 21,
						"slot": "1",
						"type": "t_uint8"
					},
					{
						"astId": 54,
						"contract": "contracts/TPTPreSale.sol:TPTPreSale",
						"label": "tptStepPrice",
						"offset": 0,
						"slot": "2",
						"type": "t_mapping(t_uint8,t_uint256)"
					},
					{
						"astId": 56,
						"contract": "contracts/TPTPreSale.sol:TPTPreSale",
						"label": "getPriceTax",
						"offset": 0,
						"slot": "3",
						"type": "t_uint256"
					},
					{
						"astId": 58,
						"contract": "contracts/TPTPreSale.sol:TPTPreSale",
						"label": "minRequire",
						"offset": 0,
						"slot": "4",
						"type": "t_uint256"
					},
					{
						"astId": 60,
						"contract": "contracts/TPTPreSale.sol:TPTPreSale",
						"label": "totalUsers",
						"offset": 0,
						"slot": "5",
						"type": "t_uint256"
					},
					{
						"astId": 84,
						"contract": "contracts/TPTPreSale.sol:TPTPreSale",
						"label": "userId",
						"offset": 0,
						"slot": "6",
						"type": "t_mapping(t_address,t_uint256)"
					},
					{
						"astId": 89,
						"contract": "contracts/TPTPreSale.sol:TPTPreSale",
						"label": "users",
						"offset": 0,
						"slot": "7",
						"type": "t_mapping(t_uint256,t_struct(UserInfo)80_storage)"
					}
				],
				"types": {
					"t_address": {
						"encoding": "inplace",
						"label": "address",
						"numberOfBytes": "20"
					},
					"t_address_payable": {
						"encoding": "inplace",
						"label": "address payable",
						"numberOfBytes": "20"
					},
					"t_array(t_struct(Purchase)69_storage)dyn_storage": {
						"base": "t_struct(Purchase)69_storage",
						"encoding": "dynamic_array",
						"label": "struct TPTPreSale.Purchase[]",
						"numberOfBytes": "32"
					},
					"t_bool": {
						"encoding": "inplace",
						"label": "bool",
						"numberOfBytes": "1"
					},
					"t_mapping(t_address,t_uint256)": {
						"encoding": "mapping",
						"key": "t_address",
						"label": "mapping(address => uint256)",
						"numberOfBytes": "32",
						"value": "t_uint256"
					},
					"t_mapping(t_uint256,t_struct(UserInfo)80_storage)": {
						"encoding": "mapping",
						"key": "t_uint256",
						"label": "mapping(uint256 => struct TPTPreSale.UserInfo)",
						"numberOfBytes": "32",
						"value": "t_struct(UserInfo)80_storage"
					},
					"t_mapping(t_uint8,t_uint256)": {
						"encoding": "mapping",
						"key": "t_uint8",
						"label": "mapping(uint8 => uint256)",
						"numberOfBytes": "32",
						"value": "t_uint256"
					},
					"t_struct(Purchase)69_storage": {
						"encoding": "inplace",
						"label": "struct TPTPreSale.Purchase",
						"members": [
							{
								"astId": 62,
								"contract": "contracts/TPTPreSale.sol:TPTPreSale",
								"label": "timestamp",
								"offset": 0,
								"slot": "0",
								"type": "t_uint256"
							},
							{
								"astId": 64,
								"contract": "contracts/TPTPreSale.sol:TPTPreSale",
								"label": "bnbAmount",
								"offset": 0,
								"slot": "1",
								"type": "t_uint256"
							},
							{
								"astId": 66,
								"contract": "contracts/TPTPreSale.sol:TPTPreSale",
								"label": "tptAmount",
								"offset": 0,
								"slot": "2",
								"type": "t_uint256"
							},
							{
								"astId": 68,
								"contract": "contracts/TPTPreSale.sol:TPTPreSale",
								"label": "step",
								"offset": 0,
								"slot": "3",
								"type": "t_uint8"
							}
						],
						"numberOfBytes": "128"
					},
					"t_struct(UserInfo)80_storage": {
						"encoding": "inplace",
						"label": "struct TPTPreSale.UserInfo",
						"members": [
							{
								"astId": 71,
								"contract": "contracts/TPTPreSale.sol:TPTPreSale",
								"label": "walletAddress",
								"offset": 0,
								"slot": "0",
								"type": "t_address"
							},
							{
								"astId": 73,
								"contract": "contracts/TPTPreSale.sol:TPTPreSale",
								"label": "tptBalance",
								"offset": 0,
								"slot": "1",
								"type": "t_uint256"
							},
							{
								"astId": 75,
								"contract": "contracts/TPTPreSale.sol:TPTPreSale",
								"label": "hasOffer",
								"offset": 0,
								"slot": "2",
								"type": "t_bool"
							},
							{
								"astId": 79,
								"contract": "contracts/TPTPreSale.sol:TPTPreSale",
								"label": "purchaseList",
								"offset": 0,
								"slot": "3",
								"type": "t_array(t_struct(Purchase)69_storage)dyn_storage"
							}
						],
						"numberOfBytes": "128"
					},
					"t_uint256": {
						"encoding": "inplace",
						"label": "uint256",
						"numberOfBytes": "32"
					},
					"t_uint8": {
						"encoding": "inplace",
						"label": "uint8",
						"numberOfBytes": "1"
					}
				}
			},
			"userdoc": {
				"kind": "user",
				"methods": {},
				"version": 1
			}
		}
	}
}