{
	"contracts/PTPPreSale.sol": {
		"TPTPreSale": {
			"abi": [
				{
					"inputs": [
						{
							"internalType": "uint256",
							"name": "_initialPointPrice",
							"type": "uint256"
						}
					],
					"stateMutability": "nonpayable",
					"type": "constructor"
				},
				{
					"inputs": [],
					"name": "activeOffer",
					"outputs": [],
					"stateMutability": "nonpayable",
					"type": "function"
				},
				{
					"inputs": [],
					"name": "buyTPT",
					"outputs": [],
					"stateMutability": "payable",
					"type": "function"
				},
				{
					"inputs": [],
					"name": "buyTPTWithOffer",
					"outputs": [],
					"stateMutability": "nonpayable",
					"type": "function"
				},
				{
					"inputs": [
						{
							"internalType": "address",
							"name": "user",
							"type": "address"
						},
						{
							"internalType": "uint256",
							"name": "index",
							"type": "uint256"
						}
					],
					"name": "getPurchase",
					"outputs": [
						{
							"internalType": "uint256",
							"name": "timestamp",
							"type": "uint256"
						},
						{
							"internalType": "uint256",
							"name": "bnbAmount",
							"type": "uint256"
						},
						{
							"internalType": "uint256",
							"name": "tptAmount",
							"type": "uint256"
						}
					],
					"stateMutability": "view",
					"type": "function"
				},
				{
					"inputs": [
						{
							"internalType": "address",
							"name": "user",
							"type": "address"
						}
					],
					"name": "getPurchaseCount",
					"outputs": [
						{
							"internalType": "uint256",
							"name": "",
							"type": "uint256"
						}
					],
					"stateMutability": "view",
					"type": "function"
				},
				{
					"inputs": [
						{
							"internalType": "uint256",
							"name": "id",
							"type": "uint256"
						}
					],
					"name": "getUserAddress",
					"outputs": [
						{
							"internalType": "address",
							"name": "",
							"type": "address"
						}
					],
					"stateMutability": "view",
					"type": "function"
				},
				{
					"inputs": [
						{
							"internalType": "address",
							"name": "user",
							"type": "address"
						}
					],
					"name": "getUserId",
					"outputs": [
						{
							"internalType": "uint256",
							"name": "",
							"type": "uint256"
						}
					],
					"stateMutability": "view",
					"type": "function"
				},
				{
					"inputs": [
						{
							"internalType": "address",
							"name": "user",
							"type": "address"
						}
					],
					"name": "getUserPoints",
					"outputs": [
						{
							"internalType": "uint256",
							"name": "",
							"type": "uint256"
						}
					],
					"stateMutability": "view",
					"type": "function"
				},
				{
					"inputs": [
						{
							"internalType": "uint256",
							"name": "id",
							"type": "uint256"
						},
						{
							"internalType": "uint256",
							"name": "points",
							"type": "uint256"
						}
					],
					"name": "grantPointsById",
					"outputs": [],
					"stateMutability": "nonpayable",
					"type": "function"
				},
				{
					"inputs": [],
					"name": "owner",
					"outputs": [
						{
							"internalType": "address",
							"name": "",
							"type": "address"
						}
					],
					"stateMutability": "view",
					"type": "function"
				},
				{
					"inputs": [],
					"name": "purchaseWithOffer",
					"outputs": [],
					"stateMutability": "payable",
					"type": "function"
				},
				{
					"inputs": [
						{
							"internalType": "address",
							"name": "",
							"type": "address"
						},
						{
							"internalType": "uint256",
							"name": "",
							"type": "uint256"
						}
					],
					"name": "purchases",
					"outputs": [
						{
							"internalType": "uint256",
							"name": "timestamp",
							"type": "uint256"
						},
						{
							"internalType": "uint256",
							"name": "bnbAmount",
							"type": "uint256"
						},
						{
							"internalType": "uint256",
							"name": "tptAmount",
							"type": "uint256"
						}
					],
					"stateMutability": "view",
					"type": "function"
				},
				{
					"inputs": [
						{
							"internalType": "uint256",
							"name": "_newPrice",
							"type": "uint256"
						}
					],
					"name": "setPointPrice",
					"outputs": [],
					"stateMutability": "nonpayable",
					"type": "function"
				},
				{
					"inputs": [],
					"name": "totalUsers",
					"outputs": [
						{
							"internalType": "uint256",
							"name": "",
							"type": "uint256"
						}
					],
					"stateMutability": "view",
					"type": "function"
				},
				{
					"inputs": [],
					"name": "tptPrice",
					"outputs": [
						{
							"internalType": "uint256",
							"name": "",
							"type": "uint256"
						}
					],
					"stateMutability": "view",
					"type": "function"
				},
				{
					"inputs": [
						{
							"internalType": "uint256",
							"name": "",
							"type": "uint256"
						}
					],
					"name": "userAddressById",
					"outputs": [
						{
							"internalType": "address",
							"name": "",
							"type": "address"
						}
					],
					"stateMutability": "view",
					"type": "function"
				},
				{
					"inputs": [
						{
							"internalType": "address",
							"name": "",
							"type": "address"
						}
					],
					"name": "userId",
					"outputs": [
						{
							"internalType": "uint256",
							"name": "",
							"type": "uint256"
						}
					],
					"stateMutability": "view",
					"type": "function"
				},
				{
					"inputs": [
						{
							"internalType": "address",
							"name": "",
							"type": "address"
						}
					],
					"name": "userTPTBalance",
					"outputs": [
						{
							"internalType": "uint256",
							"name": "",
							"type": "uint256"
						}
					],
					"stateMutability": "view",
					"type": "function"
				},
				{
					"inputs": [
						{
							"internalType": "address payable",
							"name": "_to",
							"type": "address"
						}
					],
					"name": "withdrawAll",
					"outputs": [],
					"stateMutability": "nonpayable",
					"type": "function"
				},
				{
					"stateMutability": "payable",
					"type": "receive"
				}
			],
			"devdoc": {
				"kind": "dev",
				"methods": {},
				"version": 1
			},
			"evm": {
				"assembly": "    /* \"contracts/PTPPreSale.sol\":61:3558  contract TPTPreSale {... */\n  mstore(0x40, 0x80)\n    /* \"contracts/PTPPreSale.sol\":951:1068  constructor(uint256 _initialPointPrice) {... */\n  callvalue\n  dup1\n  iszero\n  tag_1\n  jumpi\n  0x00\n  dup1\n  revert\ntag_1:\n  pop\n  mload(0x40)\n  sub(codesize, bytecodeSize)\n  dup1\n  bytecodeSize\n  dup4\n  codecopy\n  dup2\n  dup2\n  add\n  0x40\n  mstore\n  dup2\n  add\n  swap1\n  tag_2\n  swap2\n  swap1\n  tag_3\n  jump\t// in\ntag_2:\n    /* \"contracts/PTPPreSale.sol\":1010:1020  msg.sender */\n  caller\n    /* \"contracts/PTPPreSale.sol\":1002:1007  owner */\n  0x00\n  dup1\n    /* \"contracts/PTPPreSale.sol\":1002:1020  owner = msg.sender */\n  0x0100\n  exp\n  dup2\n  sload\n  dup2\n  0xffffffffffffffffffffffffffffffffffffffff\n  mul\n  not\n  and\n  swap1\n  dup4\n  0xffffffffffffffffffffffffffffffffffffffff\n  and\n  mul\n  or\n  swap1\n  sstore\n  pop\n    /* \"contracts/PTPPreSale.sol\":1042:1060  _initialPointPrice */\n  dup1\n    /* \"contracts/PTPPreSale.sol\":1031:1039  tptPrice */\n  0x01\n    /* \"contracts/PTPPreSale.sol\":1031:1060  tptPrice = _initialPointPrice */\n  dup2\n  swap1\n  sstore\n  pop\n    /* \"contracts/PTPPreSale.sol\":951:1068  constructor(uint256 _initialPointPrice) {... */\n  pop\n    /* \"contracts/PTPPreSale.sol\":61:3558  contract TPTPreSale {... */\n  jump(tag_6)\n    /* \"#utility.yul\":88:205   */\ntag_8:\n    /* \"#utility.yul\":197:198   */\n  0x00\n    /* \"#utility.yul\":194:195   */\n  dup1\n    /* \"#utility.yul\":187:199   */\n  revert\n    /* \"#utility.yul\":334:411   */\ntag_10:\n    /* \"#utility.yul\":371:378   */\n  0x00\n    /* \"#utility.yul\":400:405   */\n  dup2\n    /* \"#utility.yul\":389:405   */\n  swap1\n  pop\n    /* \"#utility.yul\":334:411   */\n  swap2\n  swap1\n  pop\n  jump\t// out\n    /* \"#utility.yul\":417:539   */\ntag_11:\n    /* \"#utility.yul\":490:514   */\n  tag_19\n    /* \"#utility.yul\":508:513   */\n  dup2\n    /* \"#utility.yul\":490:514   */\n  tag_10\n  jump\t// in\ntag_19:\n    /* \"#utility.yul\":483:488   */\n  dup2\n    /* \"#utility.yul\":480:515   */\n  eq\n    /* \"#utility.yul\":470:533   */\n  tag_20\n  jumpi\n    /* \"#utility.yul\":529:530   */\n  0x00\n    /* \"#utility.yul\":526:527   */\n  dup1\n    /* \"#utility.yul\":519:531   */\n  revert\n    /* \"#utility.yul\":470:533   */\ntag_20:\n    /* \"#utility.yul\":417:539   */\n  pop\n  jump\t// out\n    /* \"#utility.yul\":545:688   */\ntag_12:\n    /* \"#utility.yul\":602:607   */\n  0x00\n    /* \"#utility.yul\":633:639   */\n  dup2\n    /* \"#utility.yul\":627:640   */\n  mload\n    /* \"#utility.yul\":618:640   */\n  swap1\n  pop\n    /* \"#utility.yul\":649:682   */\n  tag_22\n    /* \"#utility.yul\":676:681   */\n  dup2\n    /* \"#utility.yul\":649:682   */\n  tag_11\n  jump\t// in\ntag_22:\n    /* \"#utility.yul\":545:688   */\n  swap3\n  swap2\n  pop\n  pop\n  jump\t// out\n    /* \"#utility.yul\":694:1045   */\ntag_3:\n    /* \"#utility.yul\":764:770   */\n  0x00\n    /* \"#utility.yul\":813:815   */\n  0x20\n    /* \"#utility.yul\":801:810   */\n  dup3\n    /* \"#utility.yul\":792:799   */\n  dup5\n    /* \"#utility.yul\":788:811   */\n  sub\n    /* \"#utility.yul\":784:816   */\n  slt\n    /* \"#utility.yul\":781:900   */\n  iszero\n  tag_24\n  jumpi\n    /* \"#utility.yul\":819:898   */\n  tag_25\n  tag_8\n  jump\t// in\ntag_25:\n    /* \"#utility.yul\":781:900   */\ntag_24:\n    /* \"#utility.yul\":939:940   */\n  0x00\n    /* \"#utility.yul\":964:1028   */\n  tag_26\n    /* \"#utility.yul\":1020:1027   */\n  dup5\n    /* \"#utility.yul\":1011:1017   */\n  dup3\n    /* \"#utility.yul\":1000:1009   */\n  dup6\n    /* \"#utility.yul\":996:1018   */\n  add\n    /* \"#utility.yul\":964:1028   */\n  tag_12\n  jump\t// in\ntag_26:\n    /* \"#utility.yul\":954:1028   */\n  swap2\n  pop\n    /* \"#utility.yul\":910:1038   */\n  pop\n    /* \"#utility.yul\":694:1045   */\n  swap3\n  swap2\n  pop\n  pop\n  jump\t// out\n    /* \"contracts/PTPPreSale.sol\":61:3558  contract TPTPreSale {... */\ntag_6:\n  dataSize(sub_0)\n  dup1\n  dataOffset(sub_0)\n  0x00\n  codecopy\n  0x00\n  return\nstop\n\nsub_0: assembly {\n        /* \"contracts/PTPPreSale.sol\":61:3558  contract TPTPreSale {... */\n      mstore(0x40, 0x80)\n      jumpi(tag_1, lt(calldatasize, 0x04))\n      shr(0xe0, calldataload(0x00))\n      dup1\n      0x4aed47cf\n      gt\n      tag_22\n      jumpi\n      dup1\n      0x90d976e2\n      gt\n      tag_23\n      jumpi\n      dup1\n      0x90d976e2\n      eq\n      tag_17\n      jumpi\n      dup1\n      0xaeefe31f\n      eq\n      tag_18\n      jumpi\n      dup1\n      0xbff1f9e1\n      eq\n      tag_19\n      jumpi\n      dup1\n      0xc58aefcc\n      eq\n      tag_20\n      jumpi\n      dup1\n      0xfa09e630\n      eq\n      tag_21\n      jumpi\n      jump(tag_2)\n    tag_23:\n      dup1\n      0x4aed47cf\n      eq\n      tag_12\n      jumpi\n      dup1\n      0x4c957dca\n      eq\n      tag_13\n      jumpi\n      dup1\n      0x52d3f849\n      eq\n      tag_14\n      jumpi\n      dup1\n      0x53077e63\n      eq\n      tag_15\n      jumpi\n      dup1\n      0x8da5cb5b\n      eq\n      tag_16\n      jumpi\n      jump(tag_2)\n    tag_22:\n      dup1\n      0x2f089afc\n      gt\n      tag_24\n      jumpi\n      dup1\n      0x2f089afc\n      eq\n      tag_7\n      jumpi\n      dup1\n      0x31bbf555\n      eq\n      tag_8\n      jumpi\n      dup1\n      0x3234b650\n      eq\n      tag_9\n      jumpi\n      dup1\n      0x376fe102\n      eq\n      tag_10\n      jumpi\n      dup1\n      0x419dd841\n      eq\n      tag_11\n      jumpi\n      jump(tag_2)\n    tag_24:\n      dup1\n      0x0625a1cf\n      eq\n      tag_3\n      jumpi\n      dup1\n      0x217a1f1a\n      eq\n      tag_4\n      jumpi\n      dup1\n      0x2a2a92cc\n      eq\n      tag_5\n      jumpi\n      dup1\n      0x2b956ff7\n      eq\n      tag_6\n      jumpi\n      jump(tag_2)\n    tag_1:\n      jumpi(tag_2, calldatasize)\n        /* \"contracts/PTPPreSale.sol\":3539:3547  buyTPT() */\n      tag_27\n        /* \"contracts/PTPPreSale.sol\":3539:3545  buyTPT */\n      tag_28\n        /* \"contracts/PTPPreSale.sol\":3539:3547  buyTPT() */\n      jump\t// in\n    tag_27:\n        /* \"contracts/PTPPreSale.sol\":61:3558  contract TPTPreSale {... */\n      stop\n    tag_2:\n      0x00\n      dup1\n      revert\n        /* \"contracts/PTPPreSale.sol\":1323:1868  function buyTPT() public payable {... */\n    tag_3:\n      tag_29\n      tag_28\n      jump\t// in\n    tag_29:\n      stop\n        /* \"contracts/PTPPreSale.sol\":123:146  uint256 public tptPrice */\n    tag_4:\n      callvalue\n      dup1\n      iszero\n      tag_30\n      jumpi\n      0x00\n      dup1\n      revert\n    tag_30:\n      pop\n      tag_31\n      tag_32\n      jump\t// in\n    tag_31:\n      mload(0x40)\n      tag_33\n      swap2\n      swap1\n      tag_34\n      jump\t// in\n    tag_33:\n      mload(0x40)\n      dup1\n      swap2\n      sub\n      swap1\n      return\n        /* \"contracts/PTPPreSale.sol\":2215:2460  function getPurchase(address user, uint index) external view returns (uint256 timestamp, uint256 bnbAmount, uint256 tptAmount) {... */\n    tag_5:\n      callvalue\n      dup1\n      iszero\n      tag_35\n      jumpi\n      0x00\n      dup1\n      revert\n    tag_35:\n      pop\n      tag_36\n      0x04\n      dup1\n      calldatasize\n      sub\n      dup2\n      add\n      swap1\n      tag_37\n      swap2\n      swap1\n      tag_38\n      jump\t// in\n    tag_37:\n      tag_39\n      jump\t// in\n    tag_36:\n      mload(0x40)\n      tag_40\n      swap4\n      swap3\n      swap2\n      swap1\n      tag_41\n      jump\t// in\n    tag_40:\n      mload(0x40)\n      dup1\n      swap2\n      sub\n      swap1\n      return\n        /* \"contracts/PTPPreSale.sol\":2508:2611  function getUserId(address user) external view returns (uint256) {... */\n    tag_6:\n      callvalue\n      dup1\n      iszero\n      tag_42\n      jumpi\n      0x00\n      dup1\n      revert\n    tag_42:\n      pop\n      tag_43\n      0x04\n      dup1\n      calldatasize\n      sub\n      dup2\n      add\n      swap1\n      tag_44\n      swap2\n      swap1\n      tag_45\n      jump\t// in\n    tag_44:\n      tag_46\n      jump\t// in\n    tag_43:\n      mload(0x40)\n      tag_47\n      swap2\n      swap1\n      tag_34\n      jump\t// in\n    tag_47:\n      mload(0x40)\n      dup1\n      swap2\n      sub\n      swap1\n      return\n        /* \"contracts/PTPPreSale.sol\":1076:1176  function setPointPrice(uint256 _newPrice) external onlyOwner {... */\n    tag_7:\n      callvalue\n      dup1\n      iszero\n      tag_48\n      jumpi\n      0x00\n      dup1\n      revert\n    tag_48:\n      pop\n      tag_49\n      0x04\n      dup1\n      calldatasize\n      sub\n      dup2\n      add\n      swap1\n      tag_50\n      swap2\n      swap1\n      tag_51\n      jump\t// in\n    tag_50:\n      tag_52\n      jump\t// in\n    tag_49:\n      stop\n        /* \"contracts/PTPPreSale.sol\":2087:2207  function getPurchaseCount(address user) external view returns (uint256) {... */\n    tag_8:\n      callvalue\n      dup1\n      iszero\n      tag_53\n      jumpi\n      0x00\n      dup1\n      revert\n    tag_53:\n      pop\n      tag_54\n      0x04\n      dup1\n      calldatasize\n      sub\n      dup2\n      add\n      swap1\n      tag_55\n      swap2\n      swap1\n      tag_45\n      jump\t// in\n    tag_55:\n      tag_56\n      jump\t// in\n    tag_54:\n      mload(0x40)\n      tag_57\n      swap2\n      swap1\n      tag_34\n      jump\t// in\n    tag_57:\n      mload(0x40)\n      dup1\n      swap2\n      sub\n      swap1\n      return\n        /* \"contracts/PTPPreSale.sol\":3413:3489  function purchaseWithOffer() public payable {... */\n    tag_9:\n      tag_58\n      tag_59\n      jump\t// in\n    tag_58:\n      stop\n        /* \"contracts/PTPPreSale.sol\":548:589  mapping(address => uint256) public userId */\n    tag_10:\n      callvalue\n      dup1\n      iszero\n      tag_60\n      jumpi\n      0x00\n      dup1\n      revert\n    tag_60:\n      pop\n      tag_61\n      0x04\n      dup1\n      calldatasize\n      sub\n      dup2\n      add\n      swap1\n      tag_62\n      swap2\n      swap1\n      tag_45\n      jump\t// in\n    tag_62:\n      tag_63\n      jump\t// in\n    tag_61:\n      mload(0x40)\n      tag_64\n      swap2\n      swap1\n      tag_34\n      jump\t// in\n    tag_64:\n      mload(0x40)\n      dup1\n      swap2\n      sub\n      swap1\n      return\n        /* \"contracts/PTPPreSale.sol\":3355:3405  function activeOffer() public {... */\n    tag_11:\n      callvalue\n      dup1\n      iszero\n      tag_65\n      jumpi\n      0x00\n      dup1\n      revert\n    tag_65:\n      pop\n      tag_66\n      tag_67\n      jump\t// in\n    tag_66:\n      stop\n        /* \"contracts/PTPPreSale.sol\":621:671  mapping(uint256 => address) public userAddressById */\n    tag_12:\n      callvalue\n      dup1\n      iszero\n      tag_68\n      jumpi\n      0x00\n      dup1\n      revert\n    tag_68:\n      pop\n      tag_69\n      0x04\n      dup1\n      calldatasize\n      sub\n      dup2\n      add\n      swap1\n      tag_70\n      swap2\n      swap1\n      tag_51\n      jump\t// in\n    tag_70:\n      tag_71\n      jump\t// in\n    tag_69:\n      mload(0x40)\n      tag_72\n      swap2\n      swap1\n      tag_73\n      jump\t// in\n    tag_72:\n      mload(0x40)\n      dup1\n      swap2\n      sub\n      swap1\n      return\n        /* \"contracts/PTPPreSale.sol\":3307:3343  function buyTPTWithOffer() public {} */\n    tag_13:\n      callvalue\n      dup1\n      iszero\n      tag_74\n      jumpi\n      0x00\n      dup1\n      revert\n    tag_74:\n      pop\n      tag_75\n      tag_76\n      jump\t// in\n    tag_75:\n      stop\n        /* \"contracts/PTPPreSale.sol\":464:511  mapping(address => Purchase[]) public purchases */\n    tag_14:\n      callvalue\n      dup1\n      iszero\n      tag_77\n      jumpi\n      0x00\n      dup1\n      revert\n    tag_77:\n      pop\n      tag_78\n      0x04\n      dup1\n      calldatasize\n      sub\n      dup2\n      add\n      swap1\n      tag_79\n      swap2\n      swap1\n      tag_38\n      jump\t// in\n    tag_79:\n      tag_80\n      jump\t// in\n    tag_78:\n      mload(0x40)\n      tag_81\n      swap4\n      swap3\n      swap2\n      swap1\n      tag_41\n      jump\t// in\n    tag_81:\n      mload(0x40)\n      dup1\n      swap2\n      sub\n      swap1\n      return\n        /* \"contracts/PTPPreSale.sol\":3070:3293  function grantPointsById(uint256 id, uint256 points) external onlyOwner {... */\n    tag_15:\n      callvalue\n      dup1\n      iszero\n      tag_82\n      jumpi\n      0x00\n      dup1\n      revert\n    tag_82:\n      pop\n      tag_83\n      0x04\n      dup1\n      calldatasize\n      sub\n      dup2\n      add\n      swap1\n      tag_84\n      swap2\n      swap1\n      tag_85\n      jump\t// in\n    tag_84:\n      tag_86\n      jump\t// in\n    tag_83:\n      stop\n        /* \"contracts/PTPPreSale.sol\":90:110  address public owner */\n    tag_16:\n      callvalue\n      dup1\n      iszero\n      tag_87\n      jumpi\n      0x00\n      dup1\n      revert\n    tag_87:\n      pop\n      tag_88\n      tag_89\n      jump\t// in\n    tag_88:\n      mload(0x40)\n      tag_90\n      swap2\n      swap1\n      tag_73\n      jump\t// in\n    tag_90:\n      mload(0x40)\n      dup1\n      swap2\n      sub\n      swap1\n      return\n        /* \"contracts/PTPPreSale.sol\":2670:2783  function getUserAddress(uint256 id) external view returns (address) {... */\n    tag_17:\n      callvalue\n      dup1\n      iszero\n      tag_91\n      jumpi\n      0x00\n      dup1\n      revert\n    tag_91:\n      pop\n      tag_92\n      0x04\n      dup1\n      calldatasize\n      sub\n      dup2\n      add\n      swap1\n      tag_93\n      swap2\n      swap1\n      tag_51\n      jump\t// in\n    tag_93:\n      tag_94\n      jump\t// in\n    tag_92:\n      mload(0x40)\n      tag_95\n      swap2\n      swap1\n      tag_73\n      jump\t// in\n    tag_95:\n      mload(0x40)\n      dup1\n      swap2\n      sub\n      swap1\n      return\n        /* \"contracts/PTPPreSale.sol\":2836:2951  function getUserPoints(address user) external view returns (uint256) {... */\n    tag_18:\n      callvalue\n      dup1\n      iszero\n      tag_96\n      jumpi\n      0x00\n      dup1\n      revert\n    tag_96:\n      pop\n      tag_97\n      0x04\n      dup1\n      calldatasize\n      sub\n      dup2\n      add\n      swap1\n      tag_98\n      swap2\n      swap1\n      tag_45\n      jump\t// in\n    tag_98:\n      tag_99\n      jump\t// in\n    tag_97:\n      mload(0x40)\n      tag_100\n      swap2\n      swap1\n      tag_34\n      jump\t// in\n    tag_100:\n      mload(0x40)\n      dup1\n      swap2\n      sub\n      swap1\n      return\n        /* \"contracts/PTPPreSale.sol\":708:733  uint256 public totalUsers */\n    tag_19:\n      callvalue\n      dup1\n      iszero\n      tag_101\n      jumpi\n      0x00\n      dup1\n      revert\n    tag_101:\n      pop\n      tag_102\n      tag_103\n      jump\t// in\n    tag_102:\n      mload(0x40)\n      tag_104\n      swap2\n      swap1\n      tag_34\n      jump\t// in\n    tag_104:\n      mload(0x40)\n      dup1\n      swap2\n      sub\n      swap1\n      return\n        /* \"contracts/PTPPreSale.sol\":791:840  mapping(address => uint256) public userTPTBalance */\n    tag_20:\n      callvalue\n      dup1\n      iszero\n      tag_105\n      jumpi\n      0x00\n      dup1\n      revert\n    tag_105:\n      pop\n      tag_106\n      0x04\n      dup1\n      calldatasize\n      sub\n      dup2\n      add\n      swap1\n      tag_107\n      swap2\n      swap1\n      tag_45\n      jump\t// in\n    tag_107:\n      tag_108\n      jump\t// in\n    tag_106:\n      mload(0x40)\n      tag_109\n      swap2\n      swap1\n      tag_34\n      jump\t// in\n    tag_109:\n      mload(0x40)\n      dup1\n      swap2\n      sub\n      swap1\n      return\n        /* \"contracts/PTPPreSale.sol\":1908:2079  function withdrawAll(address payable _to) external onlyOwner {... */\n    tag_21:\n      callvalue\n      dup1\n      iszero\n      tag_110\n      jumpi\n      0x00\n      dup1\n      revert\n    tag_110:\n      pop\n      tag_111\n      0x04\n      dup1\n      calldatasize\n      sub\n      dup2\n      add\n      swap1\n      tag_112\n      swap2\n      swap1\n      tag_113\n      jump\t// in\n    tag_112:\n      tag_114\n      jump\t// in\n    tag_111:\n      stop\n        /* \"contracts/PTPPreSale.sol\":1323:1868  function buyTPT() public payable {... */\n    tag_28:\n        /* \"contracts/PTPPreSale.sol\":1387:1388  0 */\n      0x00\n        /* \"contracts/PTPPreSale.sol\":1375:1384  msg.value */\n      callvalue\n        /* \"contracts/PTPPreSale.sol\":1375:1388  msg.value > 0 */\n      gt\n        /* \"contracts/PTPPreSale.sol\":1367:1412  require(msg.value > 0, \"Send BNB to buy TPT\") */\n      tag_116\n      jumpi\n      mload(0x40)\n      0x08c379a000000000000000000000000000000000000000000000000000000000\n      dup2\n      mstore\n      0x04\n      add\n      tag_117\n      swap1\n      tag_118\n      jump\t// in\n    tag_117:\n      mload(0x40)\n      dup1\n      swap2\n      sub\n      swap1\n      revert\n    tag_116:\n        /* \"contracts/PTPPreSale.sol\":1429:1446  uint256 tptAmount */\n      0x00\n        /* \"contracts/PTPPreSale.sol\":1468:1476  tptPrice */\n      sload(0x01)\n        /* \"contracts/PTPPreSale.sol\":1461:1465  1e18 */\n      0x0de0b6b3a7640000\n        /* \"contracts/PTPPreSale.sol\":1449:1458  msg.value */\n      callvalue\n        /* \"contracts/PTPPreSale.sol\":1449:1465  msg.value * 1e18 */\n      tag_119\n      swap2\n      swap1\n      tag_120\n      jump\t// in\n    tag_119:\n        /* \"contracts/PTPPreSale.sol\":1449:1476  msg.value * 1e18 / tptPrice */\n      tag_121\n      swap2\n      swap1\n      tag_122\n      jump\t// in\n    tag_121:\n        /* \"contracts/PTPPreSale.sol\":1429:1476  uint256 tptAmount = msg.value * 1e18 / tptPrice */\n      swap1\n      pop\n        /* \"contracts/PTPPreSale.sol\":1580:1581  0 */\n      0x00\n        /* \"contracts/PTPPreSale.sol\":1558:1564  userId */\n      0x03\n        /* \"contracts/PTPPreSale.sol\":1558:1576  userId[msg.sender] */\n      0x00\n        /* \"contracts/PTPPreSale.sol\":1565:1575  msg.sender */\n      caller\n        /* \"contracts/PTPPreSale.sol\":1558:1576  userId[msg.sender] */\n      0xffffffffffffffffffffffffffffffffffffffff\n      and\n      0xffffffffffffffffffffffffffffffffffffffff\n      and\n      dup2\n      mstore\n      0x20\n      add\n      swap1\n      dup2\n      mstore\n      0x20\n      add\n      0x00\n      keccak256\n      sload\n        /* \"contracts/PTPPreSale.sol\":1558:1581  userId[msg.sender] == 0 */\n      sub\n        /* \"contracts/PTPPreSale.sol\":1554:1723  if (userId[msg.sender] == 0) {... */\n      tag_123\n      jumpi\n        /* \"contracts/PTPPreSale.sol\":1598:1608  totalUsers */\n      0x05\n      0x00\n        /* \"contracts/PTPPreSale.sol\":1598:1610  totalUsers++ */\n      dup2\n      sload\n      dup1\n      swap3\n      swap2\n      swap1\n      tag_124\n      swap1\n      tag_125\n      jump\t// in\n    tag_124:\n      swap2\n      swap1\n      pop\n      sstore\n      pop\n        /* \"contracts/PTPPreSale.sol\":1646:1656  totalUsers */\n      sload(0x05)\n        /* \"contracts/PTPPreSale.sol\":1625:1631  userId */\n      0x03\n        /* \"contracts/PTPPreSale.sol\":1625:1643  userId[msg.sender] */\n      0x00\n        /* \"contracts/PTPPreSale.sol\":1632:1642  msg.sender */\n      caller\n        /* \"contracts/PTPPreSale.sol\":1625:1643  userId[msg.sender] */\n      0xffffffffffffffffffffffffffffffffffffffff\n      and\n      0xffffffffffffffffffffffffffffffffffffffff\n      and\n      dup2\n      mstore\n      0x20\n      add\n      swap1\n      dup2\n      mstore\n      0x20\n      add\n      0x00\n      keccak256\n        /* \"contracts/PTPPreSale.sol\":1625:1656  userId[msg.sender] = totalUsers */\n      dup2\n      swap1\n      sstore\n      pop\n        /* \"contracts/PTPPreSale.sol\":1701:1711  msg.sender */\n      caller\n        /* \"contracts/PTPPreSale.sol\":1671:1686  userAddressById */\n      0x04\n        /* \"contracts/PTPPreSale.sol\":1671:1698  userAddressById[totalUsers] */\n      0x00\n        /* \"contracts/PTPPreSale.sol\":1687:1697  totalUsers */\n      sload(0x05)\n        /* \"contracts/PTPPreSale.sol\":1671:1698  userAddressById[totalUsers] */\n      dup2\n      mstore\n      0x20\n      add\n      swap1\n      dup2\n      mstore\n      0x20\n      add\n      0x00\n      keccak256\n      0x00\n        /* \"contracts/PTPPreSale.sol\":1671:1711  userAddressById[totalUsers] = msg.sender */\n      0x0100\n      exp\n      dup2\n      sload\n      dup2\n      0xffffffffffffffffffffffffffffffffffffffff\n      mul\n      not\n      and\n      swap1\n      dup4\n      0xffffffffffffffffffffffffffffffffffffffff\n      and\n      mul\n      or\n      swap1\n      sstore\n      pop\n        /* \"contracts/PTPPreSale.sol\":1554:1723  if (userId[msg.sender] == 0) {... */\n    tag_123:\n        /* \"contracts/PTPPreSale.sol\":1765:1774  tptAmount */\n      dup1\n        /* \"contracts/PTPPreSale.sol\":1735:1749  userTPTBalance */\n      0x06\n        /* \"contracts/PTPPreSale.sol\":1735:1761  userTPTBalance[msg.sender] */\n      0x00\n        /* \"contracts/PTPPreSale.sol\":1750:1760  msg.sender */\n      caller\n        /* \"contracts/PTPPreSale.sol\":1735:1761  userTPTBalance[msg.sender] */\n      0xffffffffffffffffffffffffffffffffffffffff\n      and\n      0xffffffffffffffffffffffffffffffffffffffff\n      and\n      dup2\n      mstore\n      0x20\n      add\n      swap1\n      dup2\n      mstore\n      0x20\n      add\n      0x00\n      keccak256\n      0x00\n        /* \"contracts/PTPPreSale.sol\":1735:1774  userTPTBalance[msg.sender] += tptAmount */\n      dup3\n      dup3\n      sload\n      tag_126\n      swap2\n      swap1\n      tag_127\n      jump\t// in\n    tag_126:\n      swap3\n      pop\n      pop\n      dup2\n      swap1\n      sstore\n      pop\n        /* \"contracts/PTPPreSale.sol\":1785:1794  purchases */\n      0x02\n        /* \"contracts/PTPPreSale.sol\":1785:1806  purchases[msg.sender] */\n      0x00\n        /* \"contracts/PTPPreSale.sol\":1795:1805  msg.sender */\n      caller\n        /* \"contracts/PTPPreSale.sol\":1785:1806  purchases[msg.sender] */\n      0xffffffffffffffffffffffffffffffffffffffff\n      and\n      0xffffffffffffffffffffffffffffffffffffffff\n      and\n      dup2\n      mstore\n      0x20\n      add\n      swap1\n      dup2\n      mstore\n      0x20\n      add\n      0x00\n      keccak256\n        /* \"contracts/PTPPreSale.sol\":1812:1859  Purchase(block.timestamp, msg.value, tptAmount) */\n      mload(0x40)\n      dup1\n      0x60\n      add\n      0x40\n      mstore\n      dup1\n        /* \"contracts/PTPPreSale.sol\":1821:1836  block.timestamp */\n      timestamp\n        /* \"contracts/PTPPreSale.sol\":1812:1859  Purchase(block.timestamp, msg.value, tptAmount) */\n      dup2\n      mstore\n      0x20\n      add\n        /* \"contracts/PTPPreSale.sol\":1838:1847  msg.value */\n      callvalue\n        /* \"contracts/PTPPreSale.sol\":1812:1859  Purchase(block.timestamp, msg.value, tptAmount) */\n      dup2\n      mstore\n      0x20\n      add\n        /* \"contracts/PTPPreSale.sol\":1849:1858  tptAmount */\n      dup4\n        /* \"contracts/PTPPreSale.sol\":1812:1859  Purchase(block.timestamp, msg.value, tptAmount) */\n      dup2\n      mstore\n      pop\n        /* \"contracts/PTPPreSale.sol\":1785:1860  purchases[msg.sender].push(Purchase(block.timestamp, msg.value, tptAmount)) */\n      swap1\n      dup1\n      0x01\n      dup2\n      sload\n      add\n      dup1\n      dup3\n      sstore\n      dup1\n      swap2\n      pop\n      pop\n      0x01\n      swap1\n      sub\n      swap1\n      0x00\n      mstore\n      keccak256(0x00, 0x20)\n      swap1\n      0x03\n      mul\n      add\n      0x00\n      swap1\n      swap2\n      swap1\n      swap2\n      swap1\n      swap2\n      pop\n      0x00\n      dup3\n      add\n      mload\n      dup2\n      0x00\n      add\n      sstore\n      0x20\n      dup3\n      add\n      mload\n      dup2\n      0x01\n      add\n      sstore\n      0x40\n      dup3\n      add\n      mload\n      dup2\n      0x02\n      add\n      sstore\n      pop\n      pop\n        /* \"contracts/PTPPreSale.sol\":1356:1868  {... */\n      pop\n        /* \"contracts/PTPPreSale.sol\":1323:1868  function buyTPT() public payable {... */\n      jump\t// out\n        /* \"contracts/PTPPreSale.sol\":123:146  uint256 public tptPrice */\n    tag_32:\n      sload(0x01)\n      dup2\n      jump\t// out\n        /* \"contracts/PTPPreSale.sol\":2215:2460  function getPurchase(address user, uint index) external view returns (uint256 timestamp, uint256 bnbAmount, uint256 tptAmount) {... */\n    tag_39:\n        /* \"contracts/PTPPreSale.sol\":2285:2302  uint256 timestamp */\n      0x00\n        /* \"contracts/PTPPreSale.sol\":2304:2321  uint256 bnbAmount */\n      dup1\n        /* \"contracts/PTPPreSale.sol\":2323:2340  uint256 tptAmount */\n      0x00\n        /* \"contracts/PTPPreSale.sol\":2353:2370  Purchase memory p */\n      dup1\n        /* \"contracts/PTPPreSale.sol\":2373:2382  purchases */\n      0x02\n        /* \"contracts/PTPPreSale.sol\":2373:2388  purchases[user] */\n      0x00\n        /* \"contracts/PTPPreSale.sol\":2383:2387  user */\n      dup8\n        /* \"contracts/PTPPreSale.sol\":2373:2388  purchases[user] */\n      0xffffffffffffffffffffffffffffffffffffffff\n      and\n      0xffffffffffffffffffffffffffffffffffffffff\n      and\n      dup2\n      mstore\n      0x20\n      add\n      swap1\n      dup2\n      mstore\n      0x20\n      add\n      0x00\n      keccak256\n        /* \"contracts/PTPPreSale.sol\":2389:2394  index */\n      dup6\n        /* \"contracts/PTPPreSale.sol\":2373:2395  purchases[user][index] */\n      dup2\n      sload\n      dup2\n      lt\n      tag_130\n      jumpi\n      tag_131\n      tag_132\n      jump\t// in\n    tag_131:\n    tag_130:\n      swap1\n      0x00\n      mstore\n      keccak256(0x00, 0x20)\n      swap1\n      0x03\n      mul\n      add\n        /* \"contracts/PTPPreSale.sol\":2353:2395  Purchase memory p = purchases[user][index] */\n      mload(0x40)\n      dup1\n      0x60\n      add\n      0x40\n      mstore\n      swap1\n      dup2\n      0x00\n      dup3\n      add\n      sload\n      dup2\n      mstore\n      0x20\n      add\n      0x01\n      dup3\n      add\n      sload\n      dup2\n      mstore\n      0x20\n      add\n      0x02\n      dup3\n      add\n      sload\n      dup2\n      mstore\n      pop\n      pop\n      swap1\n      pop\n        /* \"contracts/PTPPreSale.sol\":2414:2415  p */\n      dup1\n        /* \"contracts/PTPPreSale.sol\":2414:2425  p.timestamp */\n      0x00\n      add\n      mload\n        /* \"contracts/PTPPreSale.sol\":2427:2428  p */\n      dup2\n        /* \"contracts/PTPPreSale.sol\":2427:2438  p.bnbAmount */\n      0x20\n      add\n      mload\n        /* \"contracts/PTPPreSale.sol\":2440:2441  p */\n      dup3\n        /* \"contracts/PTPPreSale.sol\":2440:2451  p.tptAmount */\n      0x40\n      add\n      mload\n        /* \"contracts/PTPPreSale.sol\":2406:2452  return (p.timestamp, p.bnbAmount, p.tptAmount) */\n      swap4\n      pop\n      swap4\n      pop\n      swap4\n      pop\n      pop\n        /* \"contracts/PTPPreSale.sol\":2215:2460  function getPurchase(address user, uint index) external view returns (uint256 timestamp, uint256 bnbAmount, uint256 tptAmount) {... */\n      swap3\n      pop\n      swap3\n      pop\n      swap3\n      jump\t// out\n        /* \"contracts/PTPPreSale.sol\":2508:2611  function getUserId(address user) external view returns (uint256) {... */\n    tag_46:\n        /* \"contracts/PTPPreSale.sol\":2564:2571  uint256 */\n      0x00\n        /* \"contracts/PTPPreSale.sol\":2591:2597  userId */\n      0x03\n        /* \"contracts/PTPPreSale.sol\":2591:2603  userId[user] */\n      0x00\n        /* \"contracts/PTPPreSale.sol\":2598:2602  user */\n      dup4\n        /* \"contracts/PTPPreSale.sol\":2591:2603  userId[user] */\n      0xffffffffffffffffffffffffffffffffffffffff\n      and\n      0xffffffffffffffffffffffffffffffffffffffff\n      and\n      dup2\n      mstore\n      0x20\n      add\n      swap1\n      dup2\n      mstore\n      0x20\n      add\n      0x00\n      keccak256\n      sload\n        /* \"contracts/PTPPreSale.sol\":2584:2603  return userId[user] */\n      swap1\n      pop\n        /* \"contracts/PTPPreSale.sol\":2508:2611  function getUserId(address user) external view returns (uint256) {... */\n      swap2\n      swap1\n      pop\n      jump\t// out\n        /* \"contracts/PTPPreSale.sol\":1076:1176  function setPointPrice(uint256 _newPrice) external onlyOwner {... */\n    tag_52:\n        /* \"contracts/PTPPreSale.sol\":903:908  owner */\n      0x00\n      dup1\n      sload\n      swap1\n      0x0100\n      exp\n      swap1\n      div\n      0xffffffffffffffffffffffffffffffffffffffff\n      and\n        /* \"contracts/PTPPreSale.sol\":889:908  msg.sender == owner */\n      0xffffffffffffffffffffffffffffffffffffffff\n      and\n        /* \"contracts/PTPPreSale.sol\":889:899  msg.sender */\n      caller\n        /* \"contracts/PTPPreSale.sol\":889:908  msg.sender == owner */\n      0xffffffffffffffffffffffffffffffffffffffff\n      and\n      eq\n        /* \"contracts/PTPPreSale.sol\":881:923  require(msg.sender == owner, \"Only owner\") */\n      tag_136\n      jumpi\n      mload(0x40)\n      0x08c379a000000000000000000000000000000000000000000000000000000000\n      dup2\n      mstore\n      0x04\n      add\n      tag_137\n      swap1\n      tag_138\n      jump\t// in\n    tag_137:\n      mload(0x40)\n      dup1\n      swap2\n      sub\n      swap1\n      revert\n    tag_136:\n        /* \"contracts/PTPPreSale.sol\":1159:1168  _newPrice */\n      dup1\n        /* \"contracts/PTPPreSale.sol\":1148:1156  tptPrice */\n      0x01\n        /* \"contracts/PTPPreSale.sol\":1148:1168  tptPrice = _newPrice */\n      dup2\n      swap1\n      sstore\n      pop\n        /* \"contracts/PTPPreSale.sol\":1076:1176  function setPointPrice(uint256 _newPrice) external onlyOwner {... */\n      pop\n      jump\t// out\n        /* \"contracts/PTPPreSale.sol\":2087:2207  function getPurchaseCount(address user) external view returns (uint256) {... */\n    tag_56:\n        /* \"contracts/PTPPreSale.sol\":2150:2157  uint256 */\n      0x00\n        /* \"contracts/PTPPreSale.sol\":2177:2186  purchases */\n      0x02\n        /* \"contracts/PTPPreSale.sol\":2177:2192  purchases[user] */\n      0x00\n        /* \"contracts/PTPPreSale.sol\":2187:2191  user */\n      dup4\n        /* \"contracts/PTPPreSale.sol\":2177:2192  purchases[user] */\n      0xffffffffffffffffffffffffffffffffffffffff\n      and\n      0xffffffffffffffffffffffffffffffffffffffff\n      and\n      dup2\n      mstore\n      0x20\n      add\n      swap1\n      dup2\n      mstore\n      0x20\n      add\n      0x00\n      keccak256\n        /* \"contracts/PTPPreSale.sol\":2177:2199  purchases[user].length */\n      dup1\n      sload\n      swap1\n      pop\n        /* \"contracts/PTPPreSale.sol\":2170:2199  return purchases[user].length */\n      swap1\n      pop\n        /* \"contracts/PTPPreSale.sol\":2087:2207  function getPurchaseCount(address user) external view returns (uint256) {... */\n      swap2\n      swap1\n      pop\n      jump\t// out\n        /* \"contracts/PTPPreSale.sol\":3413:3489  function purchaseWithOffer() public payable {... */\n    tag_59:\n        /* \"contracts/PTPPreSale.sol\":3468:3481  activeOffer() */\n      tag_142\n        /* \"contracts/PTPPreSale.sol\":3468:3479  activeOffer */\n      tag_67\n        /* \"contracts/PTPPreSale.sol\":3468:3481  activeOffer() */\n      jump\t// in\n    tag_142:\n        /* \"contracts/PTPPreSale.sol\":3413:3489  function purchaseWithOffer() public payable {... */\n      jump\t// out\n        /* \"contracts/PTPPreSale.sol\":548:589  mapping(address => uint256) public userId */\n    tag_63:\n      mstore(0x20, 0x03)\n      dup1\n      0x00\n      mstore\n      keccak256(0x00, 0x40)\n      0x00\n      swap2\n      pop\n      swap1\n      pop\n      sload\n      dup2\n      jump\t// out\n        /* \"contracts/PTPPreSale.sol\":3355:3405  function activeOffer() public {... */\n    tag_67:\n      jump\t// out\n        /* \"contracts/PTPPreSale.sol\":621:671  mapping(uint256 => address) public userAddressById */\n    tag_71:\n      mstore(0x20, 0x04)\n      dup1\n      0x00\n      mstore\n      keccak256(0x00, 0x40)\n      0x00\n      swap2\n      pop\n      sload\n      swap1\n      0x0100\n      exp\n      swap1\n      div\n      0xffffffffffffffffffffffffffffffffffffffff\n      and\n      dup2\n      jump\t// out\n        /* \"contracts/PTPPreSale.sol\":3307:3343  function buyTPTWithOffer() public {} */\n    tag_76:\n      jump\t// out\n        /* \"contracts/PTPPreSale.sol\":464:511  mapping(address => Purchase[]) public purchases */\n    tag_80:\n      mstore(0x20, 0x02)\n      dup2\n      0x00\n      mstore\n      keccak256(0x00, 0x40)\n      dup2\n      dup2\n      sload\n      dup2\n      lt\n      tag_145\n      jumpi\n      0x00\n      dup1\n      revert\n    tag_145:\n      swap1\n      0x00\n      mstore\n      keccak256(0x00, 0x20)\n      swap1\n      0x03\n      mul\n      add\n      0x00\n      swap2\n      pop\n      swap2\n      pop\n      pop\n      dup1\n      0x00\n      add\n      sload\n      swap1\n      dup1\n      0x01\n      add\n      sload\n      swap1\n      dup1\n      0x02\n      add\n      sload\n      swap1\n      pop\n      dup4\n      jump\t// out\n        /* \"contracts/PTPPreSale.sol\":3070:3293  function grantPointsById(uint256 id, uint256 points) external onlyOwner {... */\n    tag_86:\n        /* \"contracts/PTPPreSale.sol\":903:908  owner */\n      0x00\n      dup1\n      sload\n      swap1\n      0x0100\n      exp\n      swap1\n      div\n      0xffffffffffffffffffffffffffffffffffffffff\n      and\n        /* \"contracts/PTPPreSale.sol\":889:908  msg.sender == owner */\n      0xffffffffffffffffffffffffffffffffffffffff\n      and\n        /* \"contracts/PTPPreSale.sol\":889:899  msg.sender */\n      caller\n        /* \"contracts/PTPPreSale.sol\":889:908  msg.sender == owner */\n      0xffffffffffffffffffffffffffffffffffffffff\n      and\n      eq\n        /* \"contracts/PTPPreSale.sol\":881:923  require(msg.sender == owner, \"Only owner\") */\n      tag_148\n      jumpi\n      mload(0x40)\n      0x08c379a000000000000000000000000000000000000000000000000000000000\n      dup2\n      mstore\n      0x04\n      add\n      tag_149\n      swap1\n      tag_138\n      jump\t// in\n    tag_149:\n      mload(0x40)\n      dup1\n      swap2\n      sub\n      swap1\n      revert\n    tag_148:\n        /* \"contracts/PTPPreSale.sol\":3153:3165  address user */\n      0x00\n        /* \"contracts/PTPPreSale.sol\":3168:3183  userAddressById */\n      0x04\n        /* \"contracts/PTPPreSale.sol\":3168:3187  userAddressById[id] */\n      0x00\n        /* \"contracts/PTPPreSale.sol\":3184:3186  id */\n      dup5\n        /* \"contracts/PTPPreSale.sol\":3168:3187  userAddressById[id] */\n      dup2\n      mstore\n      0x20\n      add\n      swap1\n      dup2\n      mstore\n      0x20\n      add\n      0x00\n      keccak256\n      0x00\n      swap1\n      sload\n      swap1\n      0x0100\n      exp\n      swap1\n      div\n      0xffffffffffffffffffffffffffffffffffffffff\n      and\n        /* \"contracts/PTPPreSale.sol\":3153:3187  address user = userAddressById[id] */\n      swap1\n      pop\n        /* \"contracts/PTPPreSale.sol\":3222:3223  0 */\n      0x00\n        /* \"contracts/PTPPreSale.sol\":3206:3224  user != address(0) */\n      0xffffffffffffffffffffffffffffffffffffffff\n      and\n        /* \"contracts/PTPPreSale.sol\":3206:3210  user */\n      dup2\n        /* \"contracts/PTPPreSale.sol\":3206:3224  user != address(0) */\n      0xffffffffffffffffffffffffffffffffffffffff\n      and\n      sub\n        /* \"contracts/PTPPreSale.sol\":3198:3244  require(user != address(0), \"Invalid user ID\") */\n      tag_151\n      jumpi\n      mload(0x40)\n      0x08c379a000000000000000000000000000000000000000000000000000000000\n      dup2\n      mstore\n      0x04\n      add\n      tag_152\n      swap1\n      tag_153\n      jump\t// in\n    tag_152:\n      mload(0x40)\n      dup1\n      swap2\n      sub\n      swap1\n      revert\n    tag_151:\n        /* \"contracts/PTPPreSale.sol\":3279:3285  points */\n      dup2\n        /* \"contracts/PTPPreSale.sol\":3255:3269  userTPTBalance */\n      0x06\n        /* \"contracts/PTPPreSale.sol\":3255:3275  userTPTBalance[user] */\n      0x00\n        /* \"contracts/PTPPreSale.sol\":3270:3274  user */\n      dup4\n        /* \"contracts/PTPPreSale.sol\":3255:3275  userTPTBalance[user] */\n      0xffffffffffffffffffffffffffffffffffffffff\n      and\n      0xffffffffffffffffffffffffffffffffffffffff\n      and\n      dup2\n      mstore\n      0x20\n      add\n      swap1\n      dup2\n      mstore\n      0x20\n      add\n      0x00\n      keccak256\n      0x00\n        /* \"contracts/PTPPreSale.sol\":3255:3285  userTPTBalance[user] += points */\n      dup3\n      dup3\n      sload\n      tag_154\n      swap2\n      swap1\n      tag_127\n      jump\t// in\n    tag_154:\n      swap3\n      pop\n      pop\n      dup2\n      swap1\n      sstore\n      pop\n        /* \"contracts/PTPPreSale.sol\":3142:3293  {... */\n      pop\n        /* \"contracts/PTPPreSale.sol\":3070:3293  function grantPointsById(uint256 id, uint256 points) external onlyOwner {... */\n      pop\n      pop\n      jump\t// out\n        /* \"contracts/PTPPreSale.sol\":90:110  address public owner */\n    tag_89:\n      0x00\n      dup1\n      sload\n      swap1\n      0x0100\n      exp\n      swap1\n      div\n      0xffffffffffffffffffffffffffffffffffffffff\n      and\n      dup2\n      jump\t// out\n        /* \"contracts/PTPPreSale.sol\":2670:2783  function getUserAddress(uint256 id) external view returns (address) {... */\n    tag_94:\n        /* \"contracts/PTPPreSale.sol\":2729:2736  address */\n      0x00\n        /* \"contracts/PTPPreSale.sol\":2756:2771  userAddressById */\n      0x04\n        /* \"contracts/PTPPreSale.sol\":2756:2775  userAddressById[id] */\n      0x00\n        /* \"contracts/PTPPreSale.sol\":2772:2774  id */\n      dup4\n        /* \"contracts/PTPPreSale.sol\":2756:2775  userAddressById[id] */\n      dup2\n      mstore\n      0x20\n      add\n      swap1\n      dup2\n      mstore\n      0x20\n      add\n      0x00\n      keccak256\n      0x00\n      swap1\n      sload\n      swap1\n      0x0100\n      exp\n      swap1\n      div\n      0xffffffffffffffffffffffffffffffffffffffff\n      and\n        /* \"contracts/PTPPreSale.sol\":2749:2775  return userAddressById[id] */\n      swap1\n      pop\n        /* \"contracts/PTPPreSale.sol\":2670:2783  function getUserAddress(uint256 id) external view returns (address) {... */\n      swap2\n      swap1\n      pop\n      jump\t// out\n        /* \"contracts/PTPPreSale.sol\":2836:2951  function getUserPoints(address user) external view returns (uint256) {... */\n    tag_99:\n        /* \"contracts/PTPPreSale.sol\":2896:2903  uint256 */\n      0x00\n        /* \"contracts/PTPPreSale.sol\":2923:2937  userTPTBalance */\n      0x06\n        /* \"contracts/PTPPreSale.sol\":2923:2943  userTPTBalance[user] */\n      0x00\n        /* \"contracts/PTPPreSale.sol\":2938:2942  user */\n      dup4\n        /* \"contracts/PTPPreSale.sol\":2923:2943  userTPTBalance[user] */\n      0xffffffffffffffffffffffffffffffffffffffff\n      and\n      0xffffffffffffffffffffffffffffffffffffffff\n      and\n      dup2\n      mstore\n      0x20\n      add\n      swap1\n      dup2\n      mstore\n      0x20\n      add\n      0x00\n      keccak256\n      sload\n        /* \"contracts/PTPPreSale.sol\":2916:2943  return userTPTBalance[user] */\n      swap1\n      pop\n        /* \"contracts/PTPPreSale.sol\":2836:2951  function getUserPoints(address user) external view returns (uint256) {... */\n      swap2\n      swap1\n      pop\n      jump\t// out\n        /* \"contracts/PTPPreSale.sol\":708:733  uint256 public totalUsers */\n    tag_103:\n      sload(0x05)\n      dup2\n      jump\t// out\n        /* \"contracts/PTPPreSale.sol\":791:840  mapping(address => uint256) public userTPTBalance */\n    tag_108:\n      mstore(0x20, 0x06)\n      dup1\n      0x00\n      mstore\n      keccak256(0x00, 0x40)\n      0x00\n      swap2\n      pop\n      swap1\n      pop\n      sload\n      dup2\n      jump\t// out\n        /* \"contracts/PTPPreSale.sol\":1908:2079  function withdrawAll(address payable _to) external onlyOwner {... */\n    tag_114:\n        /* \"contracts/PTPPreSale.sol\":903:908  owner */\n      0x00\n      dup1\n      sload\n      swap1\n      0x0100\n      exp\n      swap1\n      div\n      0xffffffffffffffffffffffffffffffffffffffff\n      and\n        /* \"contracts/PTPPreSale.sol\":889:908  msg.sender == owner */\n      0xffffffffffffffffffffffffffffffffffffffff\n      and\n        /* \"contracts/PTPPreSale.sol\":889:899  msg.sender */\n      caller\n        /* \"contracts/PTPPreSale.sol\":889:908  msg.sender == owner */\n      0xffffffffffffffffffffffffffffffffffffffff\n      and\n      eq\n        /* \"contracts/PTPPreSale.sol\":881:923  require(msg.sender == owner, \"Only owner\") */\n      tag_158\n      jumpi\n      mload(0x40)\n      0x08c379a000000000000000000000000000000000000000000000000000000000\n      dup2\n      mstore\n      0x04\n      add\n      tag_159\n      swap1\n      tag_138\n      jump\t// in\n    tag_159:\n      mload(0x40)\n      dup1\n      swap2\n      sub\n      swap1\n      revert\n    tag_158:\n        /* \"contracts/PTPPreSale.sol\":2003:2004  0 */\n      0x00\n        /* \"contracts/PTPPreSale.sol\":1988:2005  _to != address(0) */\n      0xffffffffffffffffffffffffffffffffffffffff\n      and\n        /* \"contracts/PTPPreSale.sol\":1988:1991  _to */\n      dup2\n        /* \"contracts/PTPPreSale.sol\":1988:2005  _to != address(0) */\n      0xffffffffffffffffffffffffffffffffffffffff\n      and\n      sub\n        /* \"contracts/PTPPreSale.sol\":1980:2025  require(_to != address(0), \"Invalid address\") */\n      tag_161\n      jumpi\n      mload(0x40)\n      0x08c379a000000000000000000000000000000000000000000000000000000000\n      dup2\n      mstore\n      0x04\n      add\n      tag_162\n      swap1\n      tag_163\n      jump\t// in\n    tag_162:\n      mload(0x40)\n      dup1\n      swap2\n      sub\n      swap1\n      revert\n    tag_161:\n        /* \"contracts/PTPPreSale.sol\":2036:2039  _to */\n      dup1\n        /* \"contracts/PTPPreSale.sol\":2036:2048  _to.transfer */\n      0xffffffffffffffffffffffffffffffffffffffff\n      and\n        /* \"contracts/PTPPreSale.sol\":2036:2071  _to.transfer(address(this).balance) */\n      0x08fc\n        /* \"contracts/PTPPreSale.sol\":2049:2070  address(this).balance */\n      selfbalance\n        /* \"contracts/PTPPreSale.sol\":2036:2071  _to.transfer(address(this).balance) */\n      swap1\n      dup2\n      iszero\n      mul\n      swap1\n      mload(0x40)\n      0x00\n      mload(0x40)\n      dup1\n      dup4\n      sub\n      dup2\n      dup6\n      dup9\n      dup9\n      call\n      swap4\n      pop\n      pop\n      pop\n      pop\n      iszero\n      dup1\n      iszero\n      tag_165\n      jumpi\n      returndatasize\n      0x00\n      dup1\n      returndatacopy\n      revert(0x00, returndatasize)\n    tag_165:\n      pop\n        /* \"contracts/PTPPreSale.sol\":1908:2079  function withdrawAll(address payable _to) external onlyOwner {... */\n      pop\n      jump\t// out\n        /* \"#utility.yul\":7:84   */\n    tag_166:\n        /* \"#utility.yul\":44:51   */\n      0x00\n        /* \"#utility.yul\":73:78   */\n      dup2\n        /* \"#utility.yul\":62:78   */\n      swap1\n      pop\n        /* \"#utility.yul\":7:84   */\n      swap2\n      swap1\n      pop\n      jump\t// out\n        /* \"#utility.yul\":90:208   */\n    tag_167:\n        /* \"#utility.yul\":177:201   */\n      tag_195\n        /* \"#utility.yul\":195:200   */\n      dup2\n        /* \"#utility.yul\":177:201   */\n      tag_166\n      jump\t// in\n    tag_195:\n        /* \"#utility.yul\":172:175   */\n      dup3\n        /* \"#utility.yul\":165:202   */\n      mstore\n        /* \"#utility.yul\":90:208   */\n      pop\n      pop\n      jump\t// out\n        /* \"#utility.yul\":214:436   */\n    tag_34:\n        /* \"#utility.yul\":307:311   */\n      0x00\n        /* \"#utility.yul\":345:347   */\n      0x20\n        /* \"#utility.yul\":334:343   */\n      dup3\n        /* \"#utility.yul\":330:348   */\n      add\n        /* \"#utility.yul\":322:348   */\n      swap1\n      pop\n        /* \"#utility.yul\":358:429   */\n      tag_197\n        /* \"#utility.yul\":426:427   */\n      0x00\n        /* \"#utility.yul\":415:424   */\n      dup4\n        /* \"#utility.yul\":411:428   */\n      add\n        /* \"#utility.yul\":402:408   */\n      dup5\n        /* \"#utility.yul\":358:429   */\n      tag_167\n      jump\t// in\n    tag_197:\n        /* \"#utility.yul\":214:436   */\n      swap3\n      swap2\n      pop\n      pop\n      jump\t// out\n        /* \"#utility.yul\":523:640   */\n    tag_169:\n        /* \"#utility.yul\":632:633   */\n      0x00\n        /* \"#utility.yul\":629:630   */\n      dup1\n        /* \"#utility.yul\":622:634   */\n      revert\n        /* \"#utility.yul\":769:895   */\n    tag_171:\n        /* \"#utility.yul\":806:813   */\n      0x00\n        /* \"#utility.yul\":846:888   */\n      0xffffffffffffffffffffffffffffffffffffffff\n        /* \"#utility.yul\":839:844   */\n      dup3\n        /* \"#utility.yul\":835:889   */\n      and\n        /* \"#utility.yul\":824:889   */\n      swap1\n      pop\n        /* \"#utility.yul\":769:895   */\n      swap2\n      swap1\n      pop\n      jump\t// out\n        /* \"#utility.yul\":901:997   */\n    tag_172:\n        /* \"#utility.yul\":938:945   */\n      0x00\n        /* \"#utility.yul\":967:991   */\n      tag_203\n        /* \"#utility.yul\":985:990   */\n      dup3\n        /* \"#utility.yul\":967:991   */\n      tag_171\n      jump\t// in\n    tag_203:\n        /* \"#utility.yul\":956:991   */\n      swap1\n      pop\n        /* \"#utility.yul\":901:997   */\n      swap2\n      swap1\n      pop\n      jump\t// out\n        /* \"#utility.yul\":1003:1125   */\n    tag_173:\n        /* \"#utility.yul\":1076:1100   */\n      tag_205\n        /* \"#utility.yul\":1094:1099   */\n      dup2\n        /* \"#utility.yul\":1076:1100   */\n      tag_172\n      jump\t// in\n    tag_205:\n        /* \"#utility.yul\":1069:1074   */\n      dup2\n        /* \"#utility.yul\":1066:1101   */\n      eq\n        /* \"#utility.yul\":1056:1119   */\n      tag_206\n      jumpi\n        /* \"#utility.yul\":1115:1116   */\n      0x00\n        /* \"#utility.yul\":1112:1113   */\n      dup1\n        /* \"#utility.yul\":1105:1117   */\n      revert\n        /* \"#utility.yul\":1056:1119   */\n    tag_206:\n        /* \"#utility.yul\":1003:1125   */\n      pop\n      jump\t// out\n        /* \"#utility.yul\":1131:1270   */\n    tag_174:\n        /* \"#utility.yul\":1177:1182   */\n      0x00\n        /* \"#utility.yul\":1215:1221   */\n      dup2\n        /* \"#utility.yul\":1202:1222   */\n      calldataload\n        /* \"#utility.yul\":1193:1222   */\n      swap1\n      pop\n        /* \"#utility.yul\":1231:1264   */\n      tag_208\n        /* \"#utility.yul\":1258:1263   */\n      dup2\n        /* \"#utility.yul\":1231:1264   */\n      tag_173\n      jump\t// in\n    tag_208:\n        /* \"#utility.yul\":1131:1270   */\n      swap3\n      swap2\n      pop\n      pop\n      jump\t// out\n        /* \"#utility.yul\":1276:1398   */\n    tag_175:\n        /* \"#utility.yul\":1349:1373   */\n      tag_210\n        /* \"#utility.yul\":1367:1372   */\n      dup2\n        /* \"#utility.yul\":1349:1373   */\n      tag_166\n      jump\t// in\n    tag_210:\n        /* \"#utility.yul\":1342:1347   */\n      dup2\n        /* \"#utility.yul\":1339:1374   */\n      eq\n        /* \"#utility.yul\":1329:1392   */\n      tag_211\n      jumpi\n        /* \"#utility.yul\":1388:1389   */\n      0x00\n        /* \"#utility.yul\":1385:1386   */\n      dup1\n        /* \"#utility.yul\":1378:1390   */\n      revert\n        /* \"#utility.yul\":1329:1392   */\n    tag_211:\n        /* \"#utility.yul\":1276:1398   */\n      pop\n      jump\t// out\n        /* \"#utility.yul\":1404:1543   */\n    tag_176:\n        /* \"#utility.yul\":1450:1455   */\n      0x00\n        /* \"#utility.yul\":1488:1494   */\n      dup2\n        /* \"#utility.yul\":1475:1495   */\n      calldataload\n        /* \"#utility.yul\":1466:1495   */\n      swap1\n      pop\n        /* \"#utility.yul\":1504:1537   */\n      tag_213\n        /* \"#utility.yul\":1531:1536   */\n      dup2\n        /* \"#utility.yul\":1504:1537   */\n      tag_175\n      jump\t// in\n    tag_213:\n        /* \"#utility.yul\":1404:1543   */\n      swap3\n      swap2\n      pop\n      pop\n      jump\t// out\n        /* \"#utility.yul\":1549:2023   */\n    tag_38:\n        /* \"#utility.yul\":1617:1623   */\n      0x00\n        /* \"#utility.yul\":1625:1631   */\n      dup1\n        /* \"#utility.yul\":1674:1676   */\n      0x40\n        /* \"#utility.yul\":1662:1671   */\n      dup4\n        /* \"#utility.yul\":1653:1660   */\n      dup6\n        /* \"#utility.yul\":1649:1672   */\n      sub\n        /* \"#utility.yul\":1645:1677   */\n      slt\n        /* \"#utility.yul\":1642:1761   */\n      iszero\n      tag_215\n      jumpi\n        /* \"#utility.yul\":1680:1759   */\n      tag_216\n      tag_169\n      jump\t// in\n    tag_216:\n        /* \"#utility.yul\":1642:1761   */\n    tag_215:\n        /* \"#utility.yul\":1800:1801   */\n      0x00\n        /* \"#utility.yul\":1825:1878   */\n      tag_217\n        /* \"#utility.yul\":1870:1877   */\n      dup6\n        /* \"#utility.yul\":1861:1867   */\n      dup3\n        /* \"#utility.yul\":1850:1859   */\n      dup7\n        /* \"#utility.yul\":1846:1868   */\n      add\n        /* \"#utility.yul\":1825:1878   */\n      tag_174\n      jump\t// in\n    tag_217:\n        /* \"#utility.yul\":1815:1878   */\n      swap3\n      pop\n        /* \"#utility.yul\":1771:1888   */\n      pop\n        /* \"#utility.yul\":1927:1929   */\n      0x20\n        /* \"#utility.yul\":1953:2006   */\n      tag_218\n        /* \"#utility.yul\":1998:2005   */\n      dup6\n        /* \"#utility.yul\":1989:1995   */\n      dup3\n        /* \"#utility.yul\":1978:1987   */\n      dup7\n        /* \"#utility.yul\":1974:1996   */\n      add\n        /* \"#utility.yul\":1953:2006   */\n      tag_176\n      jump\t// in\n    tag_218:\n        /* \"#utility.yul\":1943:2006   */\n      swap2\n      pop\n        /* \"#utility.yul\":1898:2016   */\n      pop\n        /* \"#utility.yul\":1549:2023   */\n      swap3\n      pop\n      swap3\n      swap1\n      pop\n      jump\t// out\n        /* \"#utility.yul\":2029:2471   */\n    tag_41:\n        /* \"#utility.yul\":2178:2182   */\n      0x00\n        /* \"#utility.yul\":2216:2218   */\n      0x60\n        /* \"#utility.yul\":2205:2214   */\n      dup3\n        /* \"#utility.yul\":2201:2219   */\n      add\n        /* \"#utility.yul\":2193:2219   */\n      swap1\n      pop\n        /* \"#utility.yul\":2229:2300   */\n      tag_220\n        /* \"#utility.yul\":2297:2298   */\n      0x00\n        /* \"#utility.yul\":2286:2295   */\n      dup4\n        /* \"#utility.yul\":2282:2299   */\n      add\n        /* \"#utility.yul\":2273:2279   */\n      dup7\n        /* \"#utility.yul\":2229:2300   */\n      tag_167\n      jump\t// in\n    tag_220:\n        /* \"#utility.yul\":2310:2382   */\n      tag_221\n        /* \"#utility.yul\":2378:2380   */\n      0x20\n        /* \"#utility.yul\":2367:2376   */\n      dup4\n        /* \"#utility.yul\":2363:2381   */\n      add\n        /* \"#utility.yul\":2354:2360   */\n      dup6\n        /* \"#utility.yul\":2310:2382   */\n      tag_167\n      jump\t// in\n    tag_221:\n        /* \"#utility.yul\":2392:2464   */\n      tag_222\n        /* \"#utility.yul\":2460:2462   */\n      0x40\n        /* \"#utility.yul\":2449:2458   */\n      dup4\n        /* \"#utility.yul\":2445:2463   */\n      add\n        /* \"#utility.yul\":2436:2442   */\n      dup5\n        /* \"#utility.yul\":2392:2464   */\n      tag_167\n      jump\t// in\n    tag_222:\n        /* \"#utility.yul\":2029:2471   */\n      swap5\n      swap4\n      pop\n      pop\n      pop\n      pop\n      jump\t// out\n        /* \"#utility.yul\":2477:2806   */\n    tag_45:\n        /* \"#utility.yul\":2536:2542   */\n      0x00\n        /* \"#utility.yul\":2585:2587   */\n      0x20\n        /* \"#utility.yul\":2573:2582   */\n      dup3\n        /* \"#utility.yul\":2564:2571   */\n      dup5\n        /* \"#utility.yul\":2560:2583   */\n      sub\n        /* \"#utility.yul\":2556:2588   */\n      slt\n        /* \"#utility.yul\":2553:2672   */\n      iszero\n      tag_224\n      jumpi\n        /* \"#utility.yul\":2591:2670   */\n      tag_225\n      tag_169\n      jump\t// in\n    tag_225:\n        /* \"#utility.yul\":2553:2672   */\n    tag_224:\n        /* \"#utility.yul\":2711:2712   */\n      0x00\n        /* \"#utility.yul\":2736:2789   */\n      tag_226\n        /* \"#utility.yul\":2781:2788   */\n      dup5\n        /* \"#utility.yul\":2772:2778   */\n      dup3\n        /* \"#utility.yul\":2761:2770   */\n      dup6\n        /* \"#utility.yul\":2757:2779   */\n      add\n        /* \"#utility.yul\":2736:2789   */\n      tag_174\n      jump\t// in\n    tag_226:\n        /* \"#utility.yul\":2726:2789   */\n      swap2\n      pop\n        /* \"#utility.yul\":2682:2799   */\n      pop\n        /* \"#utility.yul\":2477:2806   */\n      swap3\n      swap2\n      pop\n      pop\n      jump\t// out\n        /* \"#utility.yul\":2812:3141   */\n    tag_51:\n        /* \"#utility.yul\":2871:2877   */\n      0x00\n        /* \"#utility.yul\":2920:2922   */\n      0x20\n        /* \"#utility.yul\":2908:2917   */\n      dup3\n        /* \"#utility.yul\":2899:2906   */\n      dup5\n        /* \"#utility.yul\":2895:2918   */\n      sub\n        /* \"#utility.yul\":2891:2923   */\n      slt\n        /* \"#utility.yul\":2888:3007   */\n      iszero\n      tag_228\n      jumpi\n        /* \"#utility.yul\":2926:3005   */\n      tag_229\n      tag_169\n      jump\t// in\n    tag_229:\n        /* \"#utility.yul\":2888:3007   */\n    tag_228:\n        /* \"#utility.yul\":3046:3047   */\n      0x00\n        /* \"#utility.yul\":3071:3124   */\n      tag_230\n        /* \"#utility.yul\":3116:3123   */\n      dup5\n        /* \"#utility.yul\":3107:3113   */\n      dup3\n        /* \"#utility.yul\":3096:3105   */\n      dup6\n        /* \"#utility.yul\":3092:3114   */\n      add\n        /* \"#utility.yul\":3071:3124   */\n      tag_176\n      jump\t// in\n    tag_230:\n        /* \"#utility.yul\":3061:3124   */\n      swap2\n      pop\n        /* \"#utility.yul\":3017:3134   */\n      pop\n        /* \"#utility.yul\":2812:3141   */\n      swap3\n      swap2\n      pop\n      pop\n      jump\t// out\n        /* \"#utility.yul\":3147:3265   */\n    tag_177:\n        /* \"#utility.yul\":3234:3258   */\n      tag_232\n        /* \"#utility.yul\":3252:3257   */\n      dup2\n        /* \"#utility.yul\":3234:3258   */\n      tag_172\n      jump\t// in\n    tag_232:\n        /* \"#utility.yul\":3229:3232   */\n      dup3\n        /* \"#utility.yul\":3222:3259   */\n      mstore\n        /* \"#utility.yul\":3147:3265   */\n      pop\n      pop\n      jump\t// out\n        /* \"#utility.yul\":3271:3493   */\n    tag_73:\n        /* \"#utility.yul\":3364:3368   */\n      0x00\n        /* \"#utility.yul\":3402:3404   */\n      0x20\n        /* \"#utility.yul\":3391:3400   */\n      dup3\n        /* \"#utility.yul\":3387:3405   */\n      add\n        /* \"#utility.yul\":3379:3405   */\n      swap1\n      pop\n        /* \"#utility.yul\":3415:3486   */\n      tag_234\n        /* \"#utility.yul\":3483:3484   */\n      0x00\n        /* \"#utility.yul\":3472:3481   */\n      dup4\n        /* \"#utility.yul\":3468:3485   */\n      add\n        /* \"#utility.yul\":3459:3465   */\n      dup5\n        /* \"#utility.yul\":3415:3486   */\n      tag_177\n      jump\t// in\n    tag_234:\n        /* \"#utility.yul\":3271:3493   */\n      swap3\n      swap2\n      pop\n      pop\n      jump\t// out\n        /* \"#utility.yul\":3499:3973   */\n    tag_85:\n        /* \"#utility.yul\":3567:3573   */\n      0x00\n        /* \"#utility.yul\":3575:3581   */\n      dup1\n        /* \"#utility.yul\":3624:3626   */\n      0x40\n        /* \"#utility.yul\":3612:3621   */\n      dup4\n        /* \"#utility.yul\":3603:3610   */\n      dup6\n        /* \"#utility.yul\":3599:3622   */\n      sub\n        /* \"#utility.yul\":3595:3627   */\n      slt\n        /* \"#utility.yul\":3592:3711   */\n      iszero\n      tag_236\n      jumpi\n        /* \"#utility.yul\":3630:3709   */\n      tag_237\n      tag_169\n      jump\t// in\n    tag_237:\n        /* \"#utility.yul\":3592:3711   */\n    tag_236:\n        /* \"#utility.yul\":3750:3751   */\n      0x00\n        /* \"#utility.yul\":3775:3828   */\n      tag_238\n        /* \"#utility.yul\":3820:3827   */\n      dup6\n        /* \"#utility.yul\":3811:3817   */\n      dup3\n        /* \"#utility.yul\":3800:3809   */\n      dup7\n        /* \"#utility.yul\":3796:3818   */\n      add\n        /* \"#utility.yul\":3775:3828   */\n      tag_176\n      jump\t// in\n    tag_238:\n        /* \"#utility.yul\":3765:3828   */\n      swap3\n      pop\n        /* \"#utility.yul\":3721:3838   */\n      pop\n        /* \"#utility.yul\":3877:3879   */\n      0x20\n        /* \"#utility.yul\":3903:3956   */\n      tag_239\n        /* \"#utility.yul\":3948:3955   */\n      dup6\n        /* \"#utility.yul\":3939:3945   */\n      dup3\n        /* \"#utility.yul\":3928:3937   */\n      dup7\n        /* \"#utility.yul\":3924:3946   */\n      add\n        /* \"#utility.yul\":3903:3956   */\n      tag_176\n      jump\t// in\n    tag_239:\n        /* \"#utility.yul\":3893:3956   */\n      swap2\n      pop\n        /* \"#utility.yul\":3848:3966   */\n      pop\n        /* \"#utility.yul\":3499:3973   */\n      swap3\n      pop\n      swap3\n      swap1\n      pop\n      jump\t// out\n        /* \"#utility.yul\":3979:4083   */\n    tag_178:\n        /* \"#utility.yul\":4024:4031   */\n      0x00\n        /* \"#utility.yul\":4053:4077   */\n      tag_241\n        /* \"#utility.yul\":4071:4076   */\n      dup3\n        /* \"#utility.yul\":4053:4077   */\n      tag_171\n      jump\t// in\n    tag_241:\n        /* \"#utility.yul\":4042:4077   */\n      swap1\n      pop\n        /* \"#utility.yul\":3979:4083   */\n      swap2\n      swap1\n      pop\n      jump\t// out\n        /* \"#utility.yul\":4089:4227   */\n    tag_179:\n        /* \"#utility.yul\":4170:4202   */\n      tag_243\n        /* \"#utility.yul\":4196:4201   */\n      dup2\n        /* \"#utility.yul\":4170:4202   */\n      tag_178\n      jump\t// in\n    tag_243:\n        /* \"#utility.yul\":4163:4168   */\n      dup2\n        /* \"#utility.yul\":4160:4203   */\n      eq\n        /* \"#utility.yul\":4150:4221   */\n      tag_244\n      jumpi\n        /* \"#utility.yul\":4217:4218   */\n      0x00\n        /* \"#utility.yul\":4214:4215   */\n      dup1\n        /* \"#utility.yul\":4207:4219   */\n      revert\n        /* \"#utility.yul\":4150:4221   */\n    tag_244:\n        /* \"#utility.yul\":4089:4227   */\n      pop\n      jump\t// out\n        /* \"#utility.yul\":4233:4388   */\n    tag_180:\n        /* \"#utility.yul\":4287:4292   */\n      0x00\n        /* \"#utility.yul\":4325:4331   */\n      dup2\n        /* \"#utility.yul\":4312:4332   */\n      calldataload\n        /* \"#utility.yul\":4303:4332   */\n      swap1\n      pop\n        /* \"#utility.yul\":4341:4382   */\n      tag_246\n        /* \"#utility.yul\":4376:4381   */\n      dup2\n        /* \"#utility.yul\":4341:4382   */\n      tag_179\n      jump\t// in\n    tag_246:\n        /* \"#utility.yul\":4233:4388   */\n      swap3\n      swap2\n      pop\n      pop\n      jump\t// out\n        /* \"#utility.yul\":4394:4739   */\n    tag_113:\n        /* \"#utility.yul\":4461:4467   */\n      0x00\n        /* \"#utility.yul\":4510:4512   */\n      0x20\n        /* \"#utility.yul\":4498:4507   */\n      dup3\n        /* \"#utility.yul\":4489:4496   */\n      dup5\n        /* \"#utility.yul\":4485:4508   */\n      sub\n        /* \"#utility.yul\":4481:4513   */\n      slt\n        /* \"#utility.yul\":4478:4597   */\n      iszero\n      tag_248\n      jumpi\n        /* \"#utility.yul\":4516:4595   */\n      tag_249\n      tag_169\n      jump\t// in\n    tag_249:\n        /* \"#utility.yul\":4478:4597   */\n    tag_248:\n        /* \"#utility.yul\":4636:4637   */\n      0x00\n        /* \"#utility.yul\":4661:4722   */\n      tag_250\n        /* \"#utility.yul\":4714:4721   */\n      dup5\n        /* \"#utility.yul\":4705:4711   */\n      dup3\n        /* \"#utility.yul\":4694:4703   */\n      dup6\n        /* \"#utility.yul\":4690:4712   */\n      add\n        /* \"#utility.yul\":4661:4722   */\n      tag_180\n      jump\t// in\n    tag_250:\n        /* \"#utility.yul\":4651:4722   */\n      swap2\n      pop\n        /* \"#utility.yul\":4607:4732   */\n      pop\n        /* \"#utility.yul\":4394:4739   */\n      swap3\n      swap2\n      pop\n      pop\n      jump\t// out\n        /* \"#utility.yul\":4745:4914   */\n    tag_181:\n        /* \"#utility.yul\":4829:4840   */\n      0x00\n        /* \"#utility.yul\":4863:4869   */\n      dup3\n        /* \"#utility.yul\":4858:4861   */\n      dup3\n        /* \"#utility.yul\":4851:4870   */\n      mstore\n        /* \"#utility.yul\":4903:4907   */\n      0x20\n        /* \"#utility.yul\":4898:4901   */\n      dup3\n        /* \"#utility.yul\":4894:4908   */\n      add\n        /* \"#utility.yul\":4879:4908   */\n      swap1\n      pop\n        /* \"#utility.yul\":4745:4914   */\n      swap3\n      swap2\n      pop\n      pop\n      jump\t// out\n        /* \"#utility.yul\":4920:5089   */\n    tag_182:\n        /* \"#utility.yul\":5060:5081   */\n      0x53656e6420424e4220746f206275792054505400000000000000000000000000\n        /* \"#utility.yul\":5056:5057   */\n      0x00\n        /* \"#utility.yul\":5048:5054   */\n      dup3\n        /* \"#utility.yul\":5044:5058   */\n      add\n        /* \"#utility.yul\":5037:5082   */\n      mstore\n        /* \"#utility.yul\":4920:5089   */\n      pop\n      jump\t// out\n        /* \"#utility.yul\":5095:5461   */\n    tag_183:\n        /* \"#utility.yul\":5237:5240   */\n      0x00\n        /* \"#utility.yul\":5258:5325   */\n      tag_254\n        /* \"#utility.yul\":5322:5324   */\n      0x13\n        /* \"#utility.yul\":5317:5320   */\n      dup4\n        /* \"#utility.yul\":5258:5325   */\n      tag_181\n      jump\t// in\n    tag_254:\n        /* \"#utility.yul\":5251:5325   */\n      swap2\n      pop\n        /* \"#utility.yul\":5334:5427   */\n      tag_255\n        /* \"#utility.yul\":5423:5426   */\n      dup3\n        /* \"#utility.yul\":5334:5427   */\n      tag_182\n      jump\t// in\n    tag_255:\n        /* \"#utility.yul\":5452:5454   */\n      0x20\n        /* \"#utility.yul\":5447:5450   */\n      dup3\n        /* \"#utility.yul\":5443:5455   */\n      add\n        /* \"#utility.yul\":5436:5455   */\n      swap1\n      pop\n        /* \"#utility.yul\":5095:5461   */\n      swap2\n      swap1\n      pop\n      jump\t// out\n        /* \"#utility.yul\":5467:5886   */\n    tag_118:\n        /* \"#utility.yul\":5633:5637   */\n      0x00\n        /* \"#utility.yul\":5671:5673   */\n      0x20\n        /* \"#utility.yul\":5660:5669   */\n      dup3\n        /* \"#utility.yul\":5656:5674   */\n      add\n        /* \"#utility.yul\":5648:5674   */\n      swap1\n      pop\n        /* \"#utility.yul\":5720:5729   */\n      dup2\n        /* \"#utility.yul\":5714:5718   */\n      dup2\n        /* \"#utility.yul\":5710:5730   */\n      sub\n        /* \"#utility.yul\":5706:5707   */\n      0x00\n        /* \"#utility.yul\":5695:5704   */\n      dup4\n        /* \"#utility.yul\":5691:5708   */\n      add\n        /* \"#utility.yul\":5684:5731   */\n      mstore\n        /* \"#utility.yul\":5748:5879   */\n      tag_257\n        /* \"#utility.yul\":5874:5878   */\n      dup2\n        /* \"#utility.yul\":5748:5879   */\n      tag_183\n      jump\t// in\n    tag_257:\n        /* \"#utility.yul\":5740:5879   */\n      swap1\n      pop\n        /* \"#utility.yul\":5467:5886   */\n      swap2\n      swap1\n      pop\n      jump\t// out\n        /* \"#utility.yul\":5892:6072   */\n    tag_184:\n        /* \"#utility.yul\":5940:6017   */\n      0x4e487b7100000000000000000000000000000000000000000000000000000000\n        /* \"#utility.yul\":5937:5938   */\n      0x00\n        /* \"#utility.yul\":5930:6018   */\n      mstore\n        /* \"#utility.yul\":6037:6041   */\n      0x11\n        /* \"#utility.yul\":6034:6035   */\n      0x04\n        /* \"#utility.yul\":6027:6042   */\n      mstore\n        /* \"#utility.yul\":6061:6065   */\n      0x24\n        /* \"#utility.yul\":6058:6059   */\n      0x00\n        /* \"#utility.yul\":6051:6066   */\n      revert\n        /* \"#utility.yul\":6078:6488   */\n    tag_120:\n        /* \"#utility.yul\":6118:6125   */\n      0x00\n        /* \"#utility.yul\":6141:6161   */\n      tag_260\n        /* \"#utility.yul\":6159:6160   */\n      dup3\n        /* \"#utility.yul\":6141:6161   */\n      tag_166\n      jump\t// in\n    tag_260:\n        /* \"#utility.yul\":6136:6161   */\n      swap2\n      pop\n        /* \"#utility.yul\":6175:6195   */\n      tag_261\n        /* \"#utility.yul\":6193:6194   */\n      dup4\n        /* \"#utility.yul\":6175:6195   */\n      tag_166\n      jump\t// in\n    tag_261:\n        /* \"#utility.yul\":6170:6195   */\n      swap3\n      pop\n        /* \"#utility.yul\":6230:6231   */\n      dup3\n        /* \"#utility.yul\":6227:6228   */\n      dup3\n        /* \"#utility.yul\":6223:6232   */\n      mul\n        /* \"#utility.yul\":6252:6282   */\n      tag_262\n        /* \"#utility.yul\":6270:6281   */\n      dup2\n        /* \"#utility.yul\":6252:6282   */\n      tag_166\n      jump\t// in\n    tag_262:\n        /* \"#utility.yul\":6241:6282   */\n      swap2\n      pop\n        /* \"#utility.yul\":6431:6432   */\n      dup3\n        /* \"#utility.yul\":6422:6429   */\n      dup3\n        /* \"#utility.yul\":6418:6433   */\n      div\n        /* \"#utility.yul\":6415:6416   */\n      dup5\n        /* \"#utility.yul\":6412:6434   */\n      eq\n        /* \"#utility.yul\":6392:6393   */\n      dup4\n        /* \"#utility.yul\":6385:6394   */\n      iszero\n        /* \"#utility.yul\":6365:6448   */\n      or\n        /* \"#utility.yul\":6342:6481   */\n      tag_263\n      jumpi\n        /* \"#utility.yul\":6461:6479   */\n      tag_264\n      tag_184\n      jump\t// in\n    tag_264:\n        /* \"#utility.yul\":6342:6481   */\n    tag_263:\n        /* \"#utility.yul\":6126:6488   */\n      pop\n        /* \"#utility.yul\":6078:6488   */\n      swap3\n      swap2\n      pop\n      pop\n      jump\t// out\n        /* \"#utility.yul\":6494:6674   */\n    tag_185:\n        /* \"#utility.yul\":6542:6619   */\n      0x4e487b7100000000000000000000000000000000000000000000000000000000\n        /* \"#utility.yul\":6539:6540   */\n      0x00\n        /* \"#utility.yul\":6532:6620   */\n      mstore\n        /* \"#utility.yul\":6639:6643   */\n      0x12\n        /* \"#utility.yul\":6636:6637   */\n      0x04\n        /* \"#utility.yul\":6629:6644   */\n      mstore\n        /* \"#utility.yul\":6663:6667   */\n      0x24\n        /* \"#utility.yul\":6660:6661   */\n      0x00\n        /* \"#utility.yul\":6653:6668   */\n      revert\n        /* \"#utility.yul\":6680:6865   */\n    tag_122:\n        /* \"#utility.yul\":6720:6721   */\n      0x00\n        /* \"#utility.yul\":6737:6757   */\n      tag_267\n        /* \"#utility.yul\":6755:6756   */\n      dup3\n        /* \"#utility.yul\":6737:6757   */\n      tag_166\n      jump\t// in\n    tag_267:\n        /* \"#utility.yul\":6732:6757   */\n      swap2\n      pop\n        /* \"#utility.yul\":6771:6791   */\n      tag_268\n        /* \"#utility.yul\":6789:6790   */\n      dup4\n        /* \"#utility.yul\":6771:6791   */\n      tag_166\n      jump\t// in\n    tag_268:\n        /* \"#utility.yul\":6766:6791   */\n      swap3\n      pop\n        /* \"#utility.yul\":6810:6811   */\n      dup3\n        /* \"#utility.yul\":6800:6835   */\n      tag_269\n      jumpi\n        /* \"#utility.yul\":6815:6833   */\n      tag_270\n      tag_185\n      jump\t// in\n    tag_270:\n        /* \"#utility.yul\":6800:6835   */\n    tag_269:\n        /* \"#utility.yul\":6857:6858   */\n      dup3\n        /* \"#utility.yul\":6854:6855   */\n      dup3\n        /* \"#utility.yul\":6850:6859   */\n      div\n        /* \"#utility.yul\":6845:6859   */\n      swap1\n      pop\n        /* \"#utility.yul\":6680:6865   */\n      swap3\n      swap2\n      pop\n      pop\n      jump\t// out\n        /* \"#utility.yul\":6871:7104   */\n    tag_125:\n        /* \"#utility.yul\":6910:6913   */\n      0x00\n        /* \"#utility.yul\":6933:6957   */\n      tag_272\n        /* \"#utility.yul\":6951:6956   */\n      dup3\n        /* \"#utility.yul\":6933:6957   */\n      tag_166\n      jump\t// in\n    tag_272:\n        /* \"#utility.yul\":6924:6957   */\n      swap2\n      pop\n        /* \"#utility.yul\":6979:7045   */\n      0xffffffffffffffffffffffffffffffffffffffffffffffffffffffffffffffff\n        /* \"#utility.yul\":6972:6977   */\n      dup3\n        /* \"#utility.yul\":6969:7046   */\n      sub\n        /* \"#utility.yul\":6966:7069   */\n      tag_273\n      jumpi\n        /* \"#utility.yul\":7049:7067   */\n      tag_274\n      tag_184\n      jump\t// in\n    tag_274:\n        /* \"#utility.yul\":6966:7069   */\n    tag_273:\n        /* \"#utility.yul\":7096:7097   */\n      0x01\n        /* \"#utility.yul\":7089:7094   */\n      dup3\n        /* \"#utility.yul\":7085:7098   */\n      add\n        /* \"#utility.yul\":7078:7098   */\n      swap1\n      pop\n        /* \"#utility.yul\":6871:7104   */\n      swap2\n      swap1\n      pop\n      jump\t// out\n        /* \"#utility.yul\":7110:7301   */\n    tag_127:\n        /* \"#utility.yul\":7150:7153   */\n      0x00\n        /* \"#utility.yul\":7169:7189   */\n      tag_276\n        /* \"#utility.yul\":7187:7188   */\n      dup3\n        /* \"#utility.yul\":7169:7189   */\n      tag_166\n      jump\t// in\n    tag_276:\n        /* \"#utility.yul\":7164:7189   */\n      swap2\n      pop\n        /* \"#utility.yul\":7203:7223   */\n      tag_277\n        /* \"#utility.yul\":7221:7222   */\n      dup4\n        /* \"#utility.yul\":7203:7223   */\n      tag_166\n      jump\t// in\n    tag_277:\n        /* \"#utility.yul\":7198:7223   */\n      swap3\n      pop\n        /* \"#utility.yul\":7246:7247   */\n      dup3\n        /* \"#utility.yul\":7243:7244   */\n      dup3\n        /* \"#utility.yul\":7239:7248   */\n      add\n        /* \"#utility.yul\":7232:7248   */\n      swap1\n      pop\n        /* \"#utility.yul\":7267:7270   */\n      dup1\n        /* \"#utility.yul\":7264:7265   */\n      dup3\n        /* \"#utility.yul\":7261:7271   */\n      gt\n        /* \"#utility.yul\":7258:7294   */\n      iszero\n      tag_278\n      jumpi\n        /* \"#utility.yul\":7274:7292   */\n      tag_279\n      tag_184\n      jump\t// in\n    tag_279:\n        /* \"#utility.yul\":7258:7294   */\n    tag_278:\n        /* \"#utility.yul\":7110:7301   */\n      swap3\n      swap2\n      pop\n      pop\n      jump\t// out\n        /* \"#utility.yul\":7307:7487   */\n    tag_132:\n        /* \"#utility.yul\":7355:7432   */\n      0x4e487b7100000000000000000000000000000000000000000000000000000000\n        /* \"#utility.yul\":7352:7353   */\n      0x00\n        /* \"#utility.yul\":7345:7433   */\n      mstore\n        /* \"#utility.yul\":7452:7456   */\n      0x32\n        /* \"#utility.yul\":7449:7450   */\n      0x04\n        /* \"#utility.yul\":7442:7457   */\n      mstore\n        /* \"#utility.yul\":7476:7480   */\n      0x24\n        /* \"#utility.yul\":7473:7474   */\n      0x00\n        /* \"#utility.yul\":7466:7481   */\n      revert\n        /* \"#utility.yul\":7493:7653   */\n    tag_186:\n        /* \"#utility.yul\":7633:7645   */\n      0x4f6e6c79206f776e657200000000000000000000000000000000000000000000\n        /* \"#utility.yul\":7629:7630   */\n      0x00\n        /* \"#utility.yul\":7621:7627   */\n      dup3\n        /* \"#utility.yul\":7617:7631   */\n      add\n        /* \"#utility.yul\":7610:7646   */\n      mstore\n        /* \"#utility.yul\":7493:7653   */\n      pop\n      jump\t// out\n        /* \"#utility.yul\":7659:8025   */\n    tag_187:\n        /* \"#utility.yul\":7801:7804   */\n      0x00\n        /* \"#utility.yul\":7822:7889   */\n      tag_283\n        /* \"#utility.yul\":7886:7888   */\n      0x0a\n        /* \"#utility.yul\":7881:7884   */\n      dup4\n        /* \"#utility.yul\":7822:7889   */\n      tag_181\n      jump\t// in\n    tag_283:\n        /* \"#utility.yul\":7815:7889   */\n      swap2\n      pop\n        /* \"#utility.yul\":7898:7991   */\n      tag_284\n        /* \"#utility.yul\":7987:7990   */\n      dup3\n        /* \"#utility.yul\":7898:7991   */\n      tag_186\n      jump\t// in\n    tag_284:\n        /* \"#utility.yul\":8016:8018   */\n      0x20\n        /* \"#utility.yul\":8011:8014   */\n      dup3\n        /* \"#utility.yul\":8007:8019   */\n      add\n        /* \"#utility.yul\":8000:8019   */\n      swap1\n      pop\n        /* \"#utility.yul\":7659:8025   */\n      swap2\n      swap1\n      pop\n      jump\t// out\n        /* \"#utility.yul\":8031:8450   */\n    tag_138:\n        /* \"#utility.yul\":8197:8201   */\n      0x00\n        /* \"#utility.yul\":8235:8237   */\n      0x20\n        /* \"#utility.yul\":8224:8233   */\n      dup3\n        /* \"#utility.yul\":8220:8238   */\n      add\n        /* \"#utility.yul\":8212:8238   */\n      swap1\n      pop\n        /* \"#utility.yul\":8284:8293   */\n      dup2\n        /* \"#utility.yul\":8278:8282   */\n      dup2\n        /* \"#utility.yul\":8274:8294   */\n      sub\n        /* \"#utility.yul\":8270:8271   */\n      0x00\n        /* \"#utility.yul\":8259:8268   */\n      dup4\n        /* \"#utility.yul\":8255:8272   */\n      add\n        /* \"#utility.yul\":8248:8295   */\n      mstore\n        /* \"#utility.yul\":8312:8443   */\n      tag_286\n        /* \"#utility.yul\":8438:8442   */\n      dup2\n        /* \"#utility.yul\":8312:8443   */\n      tag_187\n      jump\t// in\n    tag_286:\n        /* \"#utility.yul\":8304:8443   */\n      swap1\n      pop\n        /* \"#utility.yul\":8031:8450   */\n      swap2\n      swap1\n      pop\n      jump\t// out\n        /* \"#utility.yul\":8456:8621   */\n    tag_188:\n        /* \"#utility.yul\":8596:8613   */\n      0x496e76616c696420757365722049440000000000000000000000000000000000\n        /* \"#utility.yul\":8592:8593   */\n      0x00\n        /* \"#utility.yul\":8584:8590   */\n      dup3\n        /* \"#utility.yul\":8580:8594   */\n      add\n        /* \"#utility.yul\":8573:8614   */\n      mstore\n        /* \"#utility.yul\":8456:8621   */\n      pop\n      jump\t// out\n        /* \"#utility.yul\":8627:8993   */\n    tag_189:\n        /* \"#utility.yul\":8769:8772   */\n      0x00\n        /* \"#utility.yul\":8790:8857   */\n      tag_289\n        /* \"#utility.yul\":8854:8856   */\n      0x0f\n        /* \"#utility.yul\":8849:8852   */\n      dup4\n        /* \"#utility.yul\":8790:8857   */\n      tag_181\n      jump\t// in\n    tag_289:\n        /* \"#utility.yul\":8783:8857   */\n      swap2\n      pop\n        /* \"#utility.yul\":8866:8959   */\n      tag_290\n        /* \"#utility.yul\":8955:8958   */\n      dup3\n        /* \"#utility.yul\":8866:8959   */\n      tag_188\n      jump\t// in\n    tag_290:\n        /* \"#utility.yul\":8984:8986   */\n      0x20\n        /* \"#utility.yul\":8979:8982   */\n      dup3\n        /* \"#utility.yul\":8975:8987   */\n      add\n        /* \"#utility.yul\":8968:8987   */\n      swap1\n      pop\n        /* \"#utility.yul\":8627:8993   */\n      swap2\n      swap1\n      pop\n      jump\t// out\n        /* \"#utility.yul\":8999:9418   */\n    tag_153:\n        /* \"#utility.yul\":9165:9169   */\n      0x00\n        /* \"#utility.yul\":9203:9205   */\n      0x20\n        /* \"#utility.yul\":9192:9201   */\n      dup3\n        /* \"#utility.yul\":9188:9206   */\n      add\n        /* \"#utility.yul\":9180:9206   */\n      swap1\n      pop\n        /* \"#utility.yul\":9252:9261   */\n      dup2\n        /* \"#utility.yul\":9246:9250   */\n      dup2\n        /* \"#utility.yul\":9242:9262   */\n      sub\n        /* \"#utility.yul\":9238:9239   */\n      0x00\n        /* \"#utility.yul\":9227:9236   */\n      dup4\n        /* \"#utility.yul\":9223:9240   */\n      add\n        /* \"#utility.yul\":9216:9263   */\n      mstore\n        /* \"#utility.yul\":9280:9411   */\n      tag_292\n        /* \"#utility.yul\":9406:9410   */\n      dup2\n        /* \"#utility.yul\":9280:9411   */\n      tag_189\n      jump\t// in\n    tag_292:\n        /* \"#utility.yul\":9272:9411   */\n      swap1\n      pop\n        /* \"#utility.yul\":8999:9418   */\n      swap2\n      swap1\n      pop\n      jump\t// out\n        /* \"#utility.yul\":9424:9589   */\n    tag_190:\n        /* \"#utility.yul\":9564:9581   */\n      0x496e76616c696420616464726573730000000000000000000000000000000000\n        /* \"#utility.yul\":9560:9561   */\n      0x00\n        /* \"#utility.yul\":9552:9558   */\n      dup3\n        /* \"#utility.yul\":9548:9562   */\n      add\n        /* \"#utility.yul\":9541:9582   */\n      mstore\n        /* \"#utility.yul\":9424:9589   */\n      pop\n      jump\t// out\n        /* \"#utility.yul\":9595:9961   */\n    tag_191:\n        /* \"#utility.yul\":9737:9740   */\n      0x00\n        /* \"#utility.yul\":9758:9825   */\n      tag_295\n        /* \"#utility.yul\":9822:9824   */\n      0x0f\n        /* \"#utility.yul\":9817:9820   */\n      dup4\n        /* \"#utility.yul\":9758:9825   */\n      tag_181\n      jump\t// in\n    tag_295:\n        /* \"#utility.yul\":9751:9825   */\n      swap2\n      pop\n        /* \"#utility.yul\":9834:9927   */\n      tag_296\n        /* \"#utility.yul\":9923:9926   */\n      dup3\n        /* \"#utility.yul\":9834:9927   */\n      tag_190\n      jump\t// in\n    tag_296:\n        /* \"#utility.yul\":9952:9954   */\n      0x20\n        /* \"#utility.yul\":9947:9950   */\n      dup3\n        /* \"#utility.yul\":9943:9955   */\n      add\n        /* \"#utility.yul\":9936:9955   */\n      swap1\n      pop\n        /* \"#utility.yul\":9595:9961   */\n      swap2\n      swap1\n      pop\n      jump\t// out\n        /* \"#utility.yul\":9967:10386   */\n    tag_163:\n        /* \"#utility.yul\":10133:10137   */\n      0x00\n        /* \"#utility.yul\":10171:10173   */\n      0x20\n        /* \"#utility.yul\":10160:10169   */\n      dup3\n        /* \"#utility.yul\":10156:10174   */\n      add\n        /* \"#utility.yul\":10148:10174   */\n      swap1\n      pop\n        /* \"#utility.yul\":10220:10229   */\n      dup2\n        /* \"#utility.yul\":10214:10218   */\n      dup2\n        /* \"#utility.yul\":10210:10230   */\n      sub\n        /* \"#utility.yul\":10206:10207   */\n      0x00\n        /* \"#utility.yul\":10195:10204   */\n      dup4\n        /* \"#utility.yul\":10191:10208   */\n      add\n        /* \"#utility.yul\":10184:10231   */\n      mstore\n        /* \"#utility.yul\":10248:10379   */\n      tag_298\n        /* \"#utility.yul\":10374:10378   */\n      dup2\n        /* \"#utility.yul\":10248:10379   */\n      tag_191\n      jump\t// in\n    tag_298:\n        /* \"#utility.yul\":10240:10379   */\n      swap1\n      pop\n        /* \"#utility.yul\":9967:10386   */\n      swap2\n      swap1\n      pop\n      jump\t// out\n\n    auxdata: 0xa264697066735822122002c762bcb18a34da68ee53a9234496fd315992ba526a2cb5c72d7491edd29bed64736f6c63430008140033\n}\n",
				"bytecode": {
					"linkReferences": {},
					"object": "608060405234801562000010575f80fd5b5060405162001356380380620013568339818101604052810190620000369190620000bf565b335f806101000a81548173ffffffffffffffffffffffffffffffffffffffff021916908373ffffffffffffffffffffffffffffffffffffffff1602179055508060018190555050620000ef565b5f80fd5b5f819050919050565b6200009b8162000087565b8114620000a6575f80fd5b50565b5f81519050620000b98162000090565b92915050565b5f60208284031215620000d757620000d662000083565b5b5f620000e684828501620000a9565b91505092915050565b61125980620000fd5f395ff3fe608060405260043610610117575f3560e01c80634aed47cf1161009f57806390d976e21161006357806390d976e21461037a578063aeefe31f146103b6578063bff1f9e1146103f2578063c58aefcc1461041c578063fa09e6301461045857610126565b80634aed47cf146102985780634c957dca146102d457806352d3f849146102ea57806353077e63146103285780638da5cb5b1461035057610126565b80632f089afc116100e65780632f089afc146101d857806331bbf555146102005780633234b6501461023c578063376fe10214610246578063419dd8411461028257610126565b80630625a1cf1461012a578063217a1f1a146101345780632a2a92cc1461015e5780632b956ff71461019c57610126565b3661012657610124610480565b005b5f80fd5b610132610480565b005b34801561013f575f80fd5b506101486106c9565b6040516101559190610ccb565b60405180910390f35b348015610169575f80fd5b50610184600480360381019061017f9190610d6c565b6106cf565b60405161019393929190610daa565b60405180910390f35b3480156101a7575f80fd5b506101c260048036038101906101bd9190610ddf565b610774565b6040516101cf9190610ccb565b60405180910390f35b3480156101e3575f80fd5b506101fe60048036038101906101f99190610e0a565b6107ba565b005b34801561020b575f80fd5b5061022660048036038101906102219190610ddf565b610851565b6040516102339190610ccb565b60405180910390f35b61024461089a565b005b348015610251575f80fd5b5061026c60048036038101906102679190610ddf565b6108a4565b6040516102799190610ccb565b60405180910390f35b34801561028d575f80fd5b506102966108b9565b005b3480156102a3575f80fd5b506102be60048036038101906102b99190610e0a565b6108bb565b6040516102cb9190610e44565b60405180910390f35b3480156102df575f80fd5b506102e86108eb565b005b3480156102f5575f80fd5b50610310600480360381019061030b9190610d6c565b6108ed565b60405161031f93929190610daa565b60405180910390f35b348015610333575f80fd5b5061034e60048036038101906103499190610e5d565b61092d565b005b34801561035b575f80fd5b50610364610ab4565b6040516103719190610e44565b60405180910390f35b348015610385575f80fd5b506103a0600480360381019061039b9190610e0a565b610ad7565b6040516103ad9190610e44565b60405180910390f35b3480156103c1575f80fd5b506103dc60048036038101906103d79190610ddf565b610b10565b6040516103e99190610ccb565b60405180910390f35b3480156103fd575f80fd5b50610406610b56565b6040516104139190610ccb565b60405180910390f35b348015610427575f80fd5b50610442600480360381019061043d9190610ddf565b610b5c565b60405161044f9190610ccb565b60405180910390f35b348015610463575f80fd5b5061047e60048036038101906104799190610ed6565b610b71565b005b5f34116104c2576040517f08c379a00000000000000000000000000000000000000000000000000000000081526004016104b990610f5b565b60405180910390fd5b5f600154670de0b6b3a7640000346104da9190610fa6565b6104e49190611014565b90505f60035f3373ffffffffffffffffffffffffffffffffffffffff1673ffffffffffffffffffffffffffffffffffffffff1681526020019081526020015f2054036105d75760055f81548092919061053c90611044565b919050555060055460035f3373ffffffffffffffffffffffffffffffffffffffff1673ffffffffffffffffffffffffffffffffffffffff1681526020019081526020015f20819055503360045f60055481526020019081526020015f205f6101000a81548173ffffffffffffffffffffffffffffffffffffffff021916908373ffffffffffffffffffffffffffffffffffffffff1602179055505b8060065f3373ffffffffffffffffffffffffffffffffffffffff1673ffffffffffffffffffffffffffffffffffffffff1681526020019081526020015f205f828254610623919061108b565b9250508190555060025f3373ffffffffffffffffffffffffffffffffffffffff1673ffffffffffffffffffffffffffffffffffffffff1681526020019081526020015f20604051806060016040528042815260200134815260200183815250908060018154018082558091505060019003905f5260205f2090600302015f909190919091505f820151815f01556020820151816001015560408201518160020155505050565b60015481565b5f805f8060025f8773ffffffffffffffffffffffffffffffffffffffff1673ffffffffffffffffffffffffffffffffffffffff1681526020019081526020015f208581548110610722576107216110be565b5b905f5260205f2090600302016040518060600160405290815f8201548152602001600182015481526020016002820154815250509050805f015181602001518260400151935093509350509250925092565b5f60035f8373ffffffffffffffffffffffffffffffffffffffff1673ffffffffffffffffffffffffffffffffffffffff1681526020019081526020015f20549050919050565b5f8054906101000a900473ffffffffffffffffffffffffffffffffffffffff1673ffffffffffffffffffffffffffffffffffffffff163373ffffffffffffffffffffffffffffffffffffffff1614610847576040517f08c379a000000000000000000000000000000000000000000000000000000000815260040161083e90611135565b60405180910390fd5b8060018190555050565b5f60025f8373ffffffffffffffffffffffffffffffffffffffff1673ffffffffffffffffffffffffffffffffffffffff1681526020019081526020015f20805490509050919050565b6108a26108b9565b565b6003602052805f5260405f205f915090505481565b565b6004602052805f5260405f205f915054906101000a900473ffffffffffffffffffffffffffffffffffffffff1681565b565b6002602052815f5260405f208181548110610906575f80fd5b905f5260205f2090600302015f9150915050805f0154908060010154908060020154905083565b5f8054906101000a900473ffffffffffffffffffffffffffffffffffffffff1673ffffffffffffffffffffffffffffffffffffffff163373ffffffffffffffffffffffffffffffffffffffff16146109ba576040517f08c379a00000000000000000000000000000000000000000000000000000000081526004016109b190611135565b60405180910390fd5b5f60045f8481526020019081526020015f205f9054906101000a900473ffffffffffffffffffffffffffffffffffffffff1690505f73ffffffffffffffffffffffffffffffffffffffff168173ffffffffffffffffffffffffffffffffffffffff1603610a5c576040517f08c379a0000000000000000000000000000000000000000000000000000000008152600401610a539061119d565b60405180910390fd5b8160065f8373ffffffffffffffffffffffffffffffffffffffff1673ffffffffffffffffffffffffffffffffffffffff1681526020019081526020015f205f828254610aa8919061108b565b92505081905550505050565b5f8054906101000a900473ffffffffffffffffffffffffffffffffffffffff1681565b5f60045f8381526020019081526020015f205f9054906101000a900473ffffffffffffffffffffffffffffffffffffffff169050919050565b5f60065f8373ffffffffffffffffffffffffffffffffffffffff1673ffffffffffffffffffffffffffffffffffffffff1681526020019081526020015f20549050919050565b60055481565b6006602052805f5260405f205f915090505481565b5f8054906101000a900473ffffffffffffffffffffffffffffffffffffffff1673ffffffffffffffffffffffffffffffffffffffff163373ffffffffffffffffffffffffffffffffffffffff1614610bfe576040517f08c379a0000000000000000000000000000000000000000000000000000000008152600401610bf590611135565b60405180910390fd5b5f73ffffffffffffffffffffffffffffffffffffffff168173ffffffffffffffffffffffffffffffffffffffff1603610c6c576040517f08c379a0000000000000000000000000000000000000000000000000000000008152600401610c6390611205565b60405180910390fd5b8073ffffffffffffffffffffffffffffffffffffffff166108fc4790811502906040515f60405180830381858888f19350505050158015610caf573d5f803e3d5ffd5b5050565b5f819050919050565b610cc581610cb3565b82525050565b5f602082019050610cde5f830184610cbc565b92915050565b5f80fd5b5f73ffffffffffffffffffffffffffffffffffffffff82169050919050565b5f610d1182610ce8565b9050919050565b610d2181610d07565b8114610d2b575f80fd5b50565b5f81359050610d3c81610d18565b92915050565b610d4b81610cb3565b8114610d55575f80fd5b50565b5f81359050610d6681610d42565b92915050565b5f8060408385031215610d8257610d81610ce4565b5b5f610d8f85828601610d2e565b9250506020610da085828601610d58565b9150509250929050565b5f606082019050610dbd5f830186610cbc565b610dca6020830185610cbc565b610dd76040830184610cbc565b949350505050565b5f60208284031215610df457610df3610ce4565b5b5f610e0184828501610d2e565b91505092915050565b5f60208284031215610e1f57610e1e610ce4565b5b5f610e2c84828501610d58565b91505092915050565b610e3e81610d07565b82525050565b5f602082019050610e575f830184610e35565b92915050565b5f8060408385031215610e7357610e72610ce4565b5b5f610e8085828601610d58565b9250506020610e9185828601610d58565b9150509250929050565b5f610ea582610ce8565b9050919050565b610eb581610e9b565b8114610ebf575f80fd5b50565b5f81359050610ed081610eac565b92915050565b5f60208284031215610eeb57610eea610ce4565b5b5f610ef884828501610ec2565b91505092915050565b5f82825260208201905092915050565b7f53656e6420424e4220746f2062757920545054000000000000000000000000005f82015250565b5f610f45601383610f01565b9150610f5082610f11565b602082019050919050565b5f6020820190508181035f830152610f7281610f39565b9050919050565b7f4e487b71000000000000000000000000000000000000000000000000000000005f52601160045260245ffd5b5f610fb082610cb3565b9150610fbb83610cb3565b9250828202610fc981610cb3565b91508282048414831517610fe057610fdf610f79565b5b5092915050565b7f4e487b71000000000000000000000000000000000000000000000000000000005f52601260045260245ffd5b5f61101e82610cb3565b915061102983610cb3565b92508261103957611038610fe7565b5b828204905092915050565b5f61104e82610cb3565b91507fffffffffffffffffffffffffffffffffffffffffffffffffffffffffffffffff82036110805761107f610f79565b5b600182019050919050565b5f61109582610cb3565b91506110a083610cb3565b92508282019050808211156110b8576110b7610f79565b5b92915050565b7f4e487b71000000000000000000000000000000000000000000000000000000005f52603260045260245ffd5b7f4f6e6c79206f776e6572000000000000000000000000000000000000000000005f82015250565b5f61111f600a83610f01565b915061112a826110eb565b602082019050919050565b5f6020820190508181035f83015261114c81611113565b9050919050565b7f496e76616c6964207573657220494400000000000000000000000000000000005f82015250565b5f611187600f83610f01565b915061119282611153565b602082019050919050565b5f6020820190508181035f8301526111b48161117b565b9050919050565b7f496e76616c6964206164647265737300000000000000000000000000000000005f82015250565b5f6111ef600f83610f01565b91506111fa826111bb565b602082019050919050565b5f6020820190508181035f83015261121c816111e3565b905091905056fea264697066735822122002c762bcb18a34da68ee53a9234496fd315992ba526a2cb5c72d7491edd29bed64736f6c63430008140033",
					"opcodes": "PUSH1 0x80 PUSH1 0x40 MSTORE CALLVALUE DUP1 ISZERO PUSH3 0x10 JUMPI PUSH0 DUP1 REVERT JUMPDEST POP PUSH1 0x40 MLOAD PUSH3 0x1356 CODESIZE SUB DUP1 PUSH3 0x1356 DUP4 CODECOPY DUP2 DUP2 ADD PUSH1 0x40 MSTORE DUP2 ADD SWAP1 PUSH3 0x36 SWAP2 SWAP1 PUSH3 0xBF JUMP JUMPDEST CALLER PUSH0 DUP1 PUSH2 0x100 EXP DUP2 SLOAD DUP2 PUSH20 0xFFFFFFFFFFFFFFFFFFFFFFFFFFFFFFFFFFFFFFFF MUL NOT AND SWAP1 DUP4 PUSH20 0xFFFFFFFFFFFFFFFFFFFFFFFFFFFFFFFFFFFFFFFF AND MUL OR SWAP1 SSTORE POP DUP1 PUSH1 0x1 DUP2 SWAP1 SSTORE POP POP PUSH3 0xEF JUMP JUMPDEST PUSH0 DUP1 REVERT JUMPDEST PUSH0 DUP2 SWAP1 POP SWAP2 SWAP1 POP JUMP JUMPDEST PUSH3 0x9B DUP2 PUSH3 0x87 JUMP JUMPDEST DUP2 EQ PUSH3 0xA6 JUMPI PUSH0 DUP1 REVERT JUMPDEST POP JUMP JUMPDEST PUSH0 DUP2 MLOAD SWAP1 POP PUSH3 0xB9 DUP2 PUSH3 0x90 JUMP JUMPDEST SWAP3 SWAP2 POP POP JUMP JUMPDEST PUSH0 PUSH1 0x20 DUP3 DUP5 SUB SLT ISZERO PUSH3 0xD7 JUMPI PUSH3 0xD6 PUSH3 0x83 JUMP JUMPDEST JUMPDEST PUSH0 PUSH3 0xE6 DUP5 DUP3 DUP6 ADD PUSH3 0xA9 JUMP JUMPDEST SWAP2 POP POP SWAP3 SWAP2 POP POP JUMP JUMPDEST PUSH2 0x1259 DUP1 PUSH3 0xFD PUSH0 CODECOPY PUSH0 RETURN INVALID PUSH1 0x80 PUSH1 0x40 MSTORE PUSH1 0x4 CALLDATASIZE LT PUSH2 0x117 JUMPI PUSH0 CALLDATALOAD PUSH1 0xE0 SHR DUP1 PUSH4 0x4AED47CF GT PUSH2 0x9F JUMPI DUP1 PUSH4 0x90D976E2 GT PUSH2 0x63 JUMPI DUP1 PUSH4 0x90D976E2 EQ PUSH2 0x37A JUMPI DUP1 PUSH4 0xAEEFE31F EQ PUSH2 0x3B6 JUMPI DUP1 PUSH4 0xBFF1F9E1 EQ PUSH2 0x3F2 JUMPI DUP1 PUSH4 0xC58AEFCC EQ PUSH2 0x41C JUMPI DUP1 PUSH4 0xFA09E630 EQ PUSH2 0x458 JUMPI PUSH2 0x126 JUMP JUMPDEST DUP1 PUSH4 0x4AED47CF EQ PUSH2 0x298 JUMPI DUP1 PUSH4 0x4C957DCA EQ PUSH2 0x2D4 JUMPI DUP1 PUSH4 0x52D3F849 EQ PUSH2 0x2EA JUMPI DUP1 PUSH4 0x53077E63 EQ PUSH2 0x328 JUMPI DUP1 PUSH4 0x8DA5CB5B EQ PUSH2 0x350 JUMPI PUSH2 0x126 JUMP JUMPDEST DUP1 PUSH4 0x2F089AFC GT PUSH2 0xE6 JUMPI DUP1 PUSH4 0x2F089AFC EQ PUSH2 0x1D8 JUMPI DUP1 PUSH4 0x31BBF555 EQ PUSH2 0x200 JUMPI DUP1 PUSH4 0x3234B650 EQ PUSH2 0x23C JUMPI DUP1 PUSH4 0x376FE102 EQ PUSH2 0x246 JUMPI DUP1 PUSH4 0x419DD841 EQ PUSH2 0x282 JUMPI PUSH2 0x126 JUMP JUMPDEST DUP1 PUSH4 0x625A1CF EQ PUSH2 0x12A JUMPI DUP1 PUSH4 0x217A1F1A EQ PUSH2 0x134 JUMPI DUP1 PUSH4 0x2A2A92CC EQ PUSH2 0x15E JUMPI DUP1 PUSH4 0x2B956FF7 EQ PUSH2 0x19C JUMPI PUSH2 0x126 JUMP JUMPDEST CALLDATASIZE PUSH2 0x126 JUMPI PUSH2 0x124 PUSH2 0x480 JUMP JUMPDEST STOP JUMPDEST PUSH0 DUP1 REVERT JUMPDEST PUSH2 0x132 PUSH2 0x480 JUMP JUMPDEST STOP JUMPDEST CALLVALUE DUP1 ISZERO PUSH2 0x13F JUMPI PUSH0 DUP1 REVERT JUMPDEST POP PUSH2 0x148 PUSH2 0x6C9 JUMP JUMPDEST PUSH1 0x40 MLOAD PUSH2 0x155 SWAP2 SWAP1 PUSH2 0xCCB JUMP JUMPDEST PUSH1 0x40 MLOAD DUP1 SWAP2 SUB SWAP1 RETURN JUMPDEST CALLVALUE DUP1 ISZERO PUSH2 0x169 JUMPI PUSH0 DUP1 REVERT JUMPDEST POP PUSH2 0x184 PUSH1 0x4 DUP1 CALLDATASIZE SUB DUP2 ADD SWAP1 PUSH2 0x17F SWAP2 SWAP1 PUSH2 0xD6C JUMP JUMPDEST PUSH2 0x6CF JUMP JUMPDEST PUSH1 0x40 MLOAD PUSH2 0x193 SWAP4 SWAP3 SWAP2 SWAP1 PUSH2 0xDAA JUMP JUMPDEST PUSH1 0x40 MLOAD DUP1 SWAP2 SUB SWAP1 RETURN JUMPDEST CALLVALUE DUP1 ISZERO PUSH2 0x1A7 JUMPI PUSH0 DUP1 REVERT JUMPDEST POP PUSH2 0x1C2 PUSH1 0x4 DUP1 CALLDATASIZE SUB DUP2 ADD SWAP1 PUSH2 0x1BD SWAP2 SWAP1 PUSH2 0xDDF JUMP JUMPDEST PUSH2 0x774 JUMP JUMPDEST PUSH1 0x40 MLOAD PUSH2 0x1CF SWAP2 SWAP1 PUSH2 0xCCB JUMP JUMPDEST PUSH1 0x40 MLOAD DUP1 SWAP2 SUB SWAP1 RETURN JUMPDEST CALLVALUE DUP1 ISZERO PUSH2 0x1E3 JUMPI PUSH0 DUP1 REVERT JUMPDEST POP PUSH2 0x1FE PUSH1 0x4 DUP1 CALLDATASIZE SUB DUP2 ADD SWAP1 PUSH2 0x1F9 SWAP2 SWAP1 PUSH2 0xE0A JUMP JUMPDEST PUSH2 0x7BA JUMP JUMPDEST STOP JUMPDEST CALLVALUE DUP1 ISZERO PUSH2 0x20B JUMPI PUSH0 DUP1 REVERT JUMPDEST POP PUSH2 0x226 PUSH1 0x4 DUP1 CALLDATASIZE SUB DUP2 ADD SWAP1 PUSH2 0x221 SWAP2 SWAP1 PUSH2 0xDDF JUMP JUMPDEST PUSH2 0x851 JUMP JUMPDEST PUSH1 0x40 MLOAD PUSH2 0x233 SWAP2 SWAP1 PUSH2 0xCCB JUMP JUMPDEST PUSH1 0x40 MLOAD DUP1 SWAP2 SUB SWAP1 RETURN JUMPDEST PUSH2 0x244 PUSH2 0x89A JUMP JUMPDEST STOP JUMPDEST CALLVALUE DUP1 ISZERO PUSH2 0x251 JUMPI PUSH0 DUP1 REVERT JUMPDEST POP PUSH2 0x26C PUSH1 0x4 DUP1 CALLDATASIZE SUB DUP2 ADD SWAP1 PUSH2 0x267 SWAP2 SWAP1 PUSH2 0xDDF JUMP JUMPDEST PUSH2 0x8A4 JUMP JUMPDEST PUSH1 0x40 MLOAD PUSH2 0x279 SWAP2 SWAP1 PUSH2 0xCCB JUMP JUMPDEST PUSH1 0x40 MLOAD DUP1 SWAP2 SUB SWAP1 RETURN JUMPDEST CALLVALUE DUP1 ISZERO PUSH2 0x28D JUMPI PUSH0 DUP1 REVERT JUMPDEST POP PUSH2 0x296 PUSH2 0x8B9 JUMP JUMPDEST STOP JUMPDEST CALLVALUE DUP1 ISZERO PUSH2 0x2A3 JUMPI PUSH0 DUP1 REVERT JUMPDEST POP PUSH2 0x2BE PUSH1 0x4 DUP1 CALLDATASIZE SUB DUP2 ADD SWAP1 PUSH2 0x2B9 SWAP2 SWAP1 PUSH2 0xE0A JUMP JUMPDEST PUSH2 0x8BB JUMP JUMPDEST PUSH1 0x40 MLOAD PUSH2 0x2CB SWAP2 SWAP1 PUSH2 0xE44 JUMP JUMPDEST PUSH1 0x40 MLOAD DUP1 SWAP2 SUB SWAP1 RETURN JUMPDEST CALLVALUE DUP1 ISZERO PUSH2 0x2DF JUMPI PUSH0 DUP1 REVERT JUMPDEST POP PUSH2 0x2E8 PUSH2 0x8EB JUMP JUMPDEST STOP JUMPDEST CALLVALUE DUP1 ISZERO PUSH2 0x2F5 JUMPI PUSH0 DUP1 REVERT JUMPDEST POP PUSH2 0x310 PUSH1 0x4 DUP1 CALLDATASIZE SUB DUP2 ADD SWAP1 PUSH2 0x30B SWAP2 SWAP1 PUSH2 0xD6C JUMP JUMPDEST PUSH2 0x8ED JUMP JUMPDEST PUSH1 0x40 MLOAD PUSH2 0x31F SWAP4 SWAP3 SWAP2 SWAP1 PUSH2 0xDAA JUMP JUMPDEST PUSH1 0x40 MLOAD DUP1 SWAP2 SUB SWAP1 RETURN JUMPDEST CALLVALUE DUP1 ISZERO PUSH2 0x333 JUMPI PUSH0 DUP1 REVERT JUMPDEST POP PUSH2 0x34E PUSH1 0x4 DUP1 CALLDATASIZE SUB DUP2 ADD SWAP1 PUSH2 0x349 SWAP2 SWAP1 PUSH2 0xE5D JUMP JUMPDEST PUSH2 0x92D JUMP JUMPDEST STOP JUMPDEST CALLVALUE DUP1 ISZERO PUSH2 0x35B JUMPI PUSH0 DUP1 REVERT JUMPDEST POP PUSH2 0x364 PUSH2 0xAB4 JUMP JUMPDEST PUSH1 0x40 MLOAD PUSH2 0x371 SWAP2 SWAP1 PUSH2 0xE44 JUMP JUMPDEST PUSH1 0x40 MLOAD DUP1 SWAP2 SUB SWAP1 RETURN JUMPDEST CALLVALUE DUP1 ISZERO PUSH2 0x385 JUMPI PUSH0 DUP1 REVERT JUMPDEST POP PUSH2 0x3A0 PUSH1 0x4 DUP1 CALLDATASIZE SUB DUP2 ADD SWAP1 PUSH2 0x39B SWAP2 SWAP1 PUSH2 0xE0A JUMP JUMPDEST PUSH2 0xAD7 JUMP JUMPDEST PUSH1 0x40 MLOAD PUSH2 0x3AD SWAP2 SWAP1 PUSH2 0xE44 JUMP JUMPDEST PUSH1 0x40 MLOAD DUP1 SWAP2 SUB SWAP1 RETURN JUMPDEST CALLVALUE DUP1 ISZERO PUSH2 0x3C1 JUMPI PUSH0 DUP1 REVERT JUMPDEST POP PUSH2 0x3DC PUSH1 0x4 DUP1 CALLDATASIZE SUB DUP2 ADD SWAP1 PUSH2 0x3D7 SWAP2 SWAP1 PUSH2 0xDDF JUMP JUMPDEST PUSH2 0xB10 JUMP JUMPDEST PUSH1 0x40 MLOAD PUSH2 0x3E9 SWAP2 SWAP1 PUSH2 0xCCB JUMP JUMPDEST PUSH1 0x40 MLOAD DUP1 SWAP2 SUB SWAP1 RETURN JUMPDEST CALLVALUE DUP1 ISZERO PUSH2 0x3FD JUMPI PUSH0 DUP1 REVERT JUMPDEST POP PUSH2 0x406 PUSH2 0xB56 JUMP JUMPDEST PUSH1 0x40 MLOAD PUSH2 0x413 SWAP2 SWAP1 PUSH2 0xCCB JUMP JUMPDEST PUSH1 0x40 MLOAD DUP1 SWAP2 SUB SWAP1 RETURN JUMPDEST CALLVALUE DUP1 ISZERO PUSH2 0x427 JUMPI PUSH0 DUP1 REVERT JUMPDEST POP PUSH2 0x442 PUSH1 0x4 DUP1 CALLDATASIZE SUB DUP2 ADD SWAP1 PUSH2 0x43D SWAP2 SWAP1 PUSH2 0xDDF JUMP JUMPDEST PUSH2 0xB5C JUMP JUMPDEST PUSH1 0x40 MLOAD PUSH2 0x44F SWAP2 SWAP1 PUSH2 0xCCB JUMP JUMPDEST PUSH1 0x40 MLOAD DUP1 SWAP2 SUB SWAP1 RETURN JUMPDEST CALLVALUE DUP1 ISZERO PUSH2 0x463 JUMPI PUSH0 DUP1 REVERT JUMPDEST POP PUSH2 0x47E PUSH1 0x4 DUP1 CALLDATASIZE SUB DUP2 ADD SWAP1 PUSH2 0x479 SWAP2 SWAP1 PUSH2 0xED6 JUMP JUMPDEST PUSH2 0xB71 JUMP JUMPDEST STOP JUMPDEST PUSH0 CALLVALUE GT PUSH2 0x4C2 JUMPI PUSH1 0x40 MLOAD PUSH32 0x8C379A000000000000000000000000000000000000000000000000000000000 DUP2 MSTORE PUSH1 0x4 ADD PUSH2 0x4B9 SWAP1 PUSH2 0xF5B JUMP JUMPDEST PUSH1 0x40 MLOAD DUP1 SWAP2 SUB SWAP1 REVERT JUMPDEST PUSH0 PUSH1 0x1 SLOAD PUSH8 0xDE0B6B3A7640000 CALLVALUE PUSH2 0x4DA SWAP2 SWAP1 PUSH2 0xFA6 JUMP JUMPDEST PUSH2 0x4E4 SWAP2 SWAP1 PUSH2 0x1014 JUMP JUMPDEST SWAP1 POP PUSH0 PUSH1 0x3 PUSH0 CALLER PUSH20 0xFFFFFFFFFFFFFFFFFFFFFFFFFFFFFFFFFFFFFFFF AND PUSH20 0xFFFFFFFFFFFFFFFFFFFFFFFFFFFFFFFFFFFFFFFF AND DUP2 MSTORE PUSH1 0x20 ADD SWAP1 DUP2 MSTORE PUSH1 0x20 ADD PUSH0 KECCAK256 SLOAD SUB PUSH2 0x5D7 JUMPI PUSH1 0x5 PUSH0 DUP2 SLOAD DUP1 SWAP3 SWAP2 SWAP1 PUSH2 0x53C SWAP1 PUSH2 0x1044 JUMP JUMPDEST SWAP2 SWAP1 POP SSTORE POP PUSH1 0x5 SLOAD PUSH1 0x3 PUSH0 CALLER PUSH20 0xFFFFFFFFFFFFFFFFFFFFFFFFFFFFFFFFFFFFFFFF AND PUSH20 0xFFFFFFFFFFFFFFFFFFFFFFFFFFFFFFFFFFFFFFFF AND DUP2 MSTORE PUSH1 0x20 ADD SWAP1 DUP2 MSTORE PUSH1 0x20 ADD PUSH0 KECCAK256 DUP2 SWAP1 SSTORE POP CALLER PUSH1 0x4 PUSH0 PUSH1 0x5 SLOAD DUP2 MSTORE PUSH1 0x20 ADD SWAP1 DUP2 MSTORE PUSH1 0x20 ADD PUSH0 KECCAK256 PUSH0 PUSH2 0x100 EXP DUP2 SLOAD DUP2 PUSH20 0xFFFFFFFFFFFFFFFFFFFFFFFFFFFFFFFFFFFFFFFF MUL NOT AND SWAP1 DUP4 PUSH20 0xFFFFFFFFFFFFFFFFFFFFFFFFFFFFFFFFFFFFFFFF AND MUL OR SWAP1 SSTORE POP JUMPDEST DUP1 PUSH1 0x6 PUSH0 CALLER PUSH20 0xFFFFFFFFFFFFFFFFFFFFFFFFFFFFFFFFFFFFFFFF AND PUSH20 0xFFFFFFFFFFFFFFFFFFFFFFFFFFFFFFFFFFFFFFFF AND DUP2 MSTORE PUSH1 0x20 ADD SWAP1 DUP2 MSTORE PUSH1 0x20 ADD PUSH0 KECCAK256 PUSH0 DUP3 DUP3 SLOAD PUSH2 0x623 SWAP2 SWAP1 PUSH2 0x108B JUMP JUMPDEST SWAP3 POP POP DUP2 SWAP1 SSTORE POP PUSH1 0x2 PUSH0 CALLER PUSH20 0xFFFFFFFFFFFFFFFFFFFFFFFFFFFFFFFFFFFFFFFF AND PUSH20 0xFFFFFFFFFFFFFFFFFFFFFFFFFFFFFFFFFFFFFFFF AND DUP2 MSTORE PUSH1 0x20 ADD SWAP1 DUP2 MSTORE PUSH1 0x20 ADD PUSH0 KECCAK256 PUSH1 0x40 MLOAD DUP1 PUSH1 0x60 ADD PUSH1 0x40 MSTORE DUP1 TIMESTAMP DUP2 MSTORE PUSH1 0x20 ADD CALLVALUE DUP2 MSTORE PUSH1 0x20 ADD DUP4 DUP2 MSTORE POP SWAP1 DUP1 PUSH1 0x1 DUP2 SLOAD ADD DUP1 DUP3 SSTORE DUP1 SWAP2 POP POP PUSH1 0x1 SWAP1 SUB SWAP1 PUSH0 MSTORE PUSH1 0x20 PUSH0 KECCAK256 SWAP1 PUSH1 0x3 MUL ADD PUSH0 SWAP1 SWAP2 SWAP1 SWAP2 SWAP1 SWAP2 POP PUSH0 DUP3 ADD MLOAD DUP2 PUSH0 ADD SSTORE PUSH1 0x20 DUP3 ADD MLOAD DUP2 PUSH1 0x1 ADD SSTORE PUSH1 0x40 DUP3 ADD MLOAD DUP2 PUSH1 0x2 ADD SSTORE POP POP POP JUMP JUMPDEST PUSH1 0x1 SLOAD DUP2 JUMP JUMPDEST PUSH0 DUP1 PUSH0 DUP1 PUSH1 0x2 PUSH0 DUP8 PUSH20 0xFFFFFFFFFFFFFFFFFFFFFFFFFFFFFFFFFFFFFFFF AND PUSH20 0xFFFFFFFFFFFFFFFFFFFFFFFFFFFFFFFFFFFFFFFF AND DUP2 MSTORE PUSH1 0x20 ADD SWAP1 DUP2 MSTORE PUSH1 0x20 ADD PUSH0 KECCAK256 DUP6 DUP2 SLOAD DUP2 LT PUSH2 0x722 JUMPI PUSH2 0x721 PUSH2 0x10BE JUMP JUMPDEST JUMPDEST SWAP1 PUSH0 MSTORE PUSH1 0x20 PUSH0 KECCAK256 SWAP1 PUSH1 0x3 MUL ADD PUSH1 0x40 MLOAD DUP1 PUSH1 0x60 ADD PUSH1 0x40 MSTORE SWAP1 DUP2 PUSH0 DUP3 ADD SLOAD DUP2 MSTORE PUSH1 0x20 ADD PUSH1 0x1 DUP3 ADD SLOAD DUP2 MSTORE PUSH1 0x20 ADD PUSH1 0x2 DUP3 ADD SLOAD DUP2 MSTORE POP POP SWAP1 POP DUP1 PUSH0 ADD MLOAD DUP2 PUSH1 0x20 ADD MLOAD DUP3 PUSH1 0x40 ADD MLOAD SWAP4 POP SWAP4 POP SWAP4 POP POP SWAP3 POP SWAP3 POP SWAP3 JUMP JUMPDEST PUSH0 PUSH1 0x3 PUSH0 DUP4 PUSH20 0xFFFFFFFFFFFFFFFFFFFFFFFFFFFFFFFFFFFFFFFF AND PUSH20 0xFFFFFFFFFFFFFFFFFFFFFFFFFFFFFFFFFFFFFFFF AND DUP2 MSTORE PUSH1 0x20 ADD SWAP1 DUP2 MSTORE PUSH1 0x20 ADD PUSH0 KECCAK256 SLOAD SWAP1 POP SWAP2 SWAP1 POP JUMP JUMPDEST PUSH0 DUP1 SLOAD SWAP1 PUSH2 0x100 EXP SWAP1 DIV PUSH20 0xFFFFFFFFFFFFFFFFFFFFFFFFFFFFFFFFFFFFFFFF AND PUSH20 0xFFFFFFFFFFFFFFFFFFFFFFFFFFFFFFFFFFFFFFFF AND CALLER PUSH20 0xFFFFFFFFFFFFFFFFFFFFFFFFFFFFFFFFFFFFFFFF AND EQ PUSH2 0x847 JUMPI PUSH1 0x40 MLOAD PUSH32 0x8C379A000000000000000000000000000000000000000000000000000000000 DUP2 MSTORE PUSH1 0x4 ADD PUSH2 0x83E SWAP1 PUSH2 0x1135 JUMP JUMPDEST PUSH1 0x40 MLOAD DUP1 SWAP2 SUB SWAP1 REVERT JUMPDEST DUP1 PUSH1 0x1 DUP2 SWAP1 SSTORE POP POP JUMP JUMPDEST PUSH0 PUSH1 0x2 PUSH0 DUP4 PUSH20 0xFFFFFFFFFFFFFFFFFFFFFFFFFFFFFFFFFFFFFFFF AND PUSH20 0xFFFFFFFFFFFFFFFFFFFFFFFFFFFFFFFFFFFFFFFF AND DUP2 MSTORE PUSH1 0x20 ADD SWAP1 DUP2 MSTORE PUSH1 0x20 ADD PUSH0 KECCAK256 DUP1 SLOAD SWAP1 POP SWAP1 POP SWAP2 SWAP1 POP JUMP JUMPDEST PUSH2 0x8A2 PUSH2 0x8B9 JUMP JUMPDEST JUMP JUMPDEST PUSH1 0x3 PUSH1 0x20 MSTORE DUP1 PUSH0 MSTORE PUSH1 0x40 PUSH0 KECCAK256 PUSH0 SWAP2 POP SWAP1 POP SLOAD DUP2 JUMP JUMPDEST JUMP JUMPDEST PUSH1 0x4 PUSH1 0x20 MSTORE DUP1 PUSH0 MSTORE PUSH1 0x40 PUSH0 KECCAK256 PUSH0 SWAP2 POP SLOAD SWAP1 PUSH2 0x100 EXP SWAP1 DIV PUSH20 0xFFFFFFFFFFFFFFFFFFFFFFFFFFFFFFFFFFFFFFFF AND DUP2 JUMP JUMPDEST JUMP JUMPDEST PUSH1 0x2 PUSH1 0x20 MSTORE DUP2 PUSH0 MSTORE PUSH1 0x40 PUSH0 KECCAK256 DUP2 DUP2 SLOAD DUP2 LT PUSH2 0x906 JUMPI PUSH0 DUP1 REVERT JUMPDEST SWAP1 PUSH0 MSTORE PUSH1 0x20 PUSH0 KECCAK256 SWAP1 PUSH1 0x3 MUL ADD PUSH0 SWAP2 POP SWAP2 POP POP DUP1 PUSH0 ADD SLOAD SWAP1 DUP1 PUSH1 0x1 ADD SLOAD SWAP1 DUP1 PUSH1 0x2 ADD SLOAD SWAP1 POP DUP4 JUMP JUMPDEST PUSH0 DUP1 SLOAD SWAP1 PUSH2 0x100 EXP SWAP1 DIV PUSH20 0xFFFFFFFFFFFFFFFFFFFFFFFFFFFFFFFFFFFFFFFF AND PUSH20 0xFFFFFFFFFFFFFFFFFFFFFFFFFFFFFFFFFFFFFFFF AND CALLER PUSH20 0xFFFFFFFFFFFFFFFFFFFFFFFFFFFFFFFFFFFFFFFF AND EQ PUSH2 0x9BA JUMPI PUSH1 0x40 MLOAD PUSH32 0x8C379A000000000000000000000000000000000000000000000000000000000 DUP2 MSTORE PUSH1 0x4 ADD PUSH2 0x9B1 SWAP1 PUSH2 0x1135 JUMP JUMPDEST PUSH1 0x40 MLOAD DUP1 SWAP2 SUB SWAP1 REVERT JUMPDEST PUSH0 PUSH1 0x4 PUSH0 DUP5 DUP2 MSTORE PUSH1 0x20 ADD SWAP1 DUP2 MSTORE PUSH1 0x20 ADD PUSH0 KECCAK256 PUSH0 SWAP1 SLOAD SWAP1 PUSH2 0x100 EXP SWAP1 DIV PUSH20 0xFFFFFFFFFFFFFFFFFFFFFFFFFFFFFFFFFFFFFFFF AND SWAP1 POP PUSH0 PUSH20 0xFFFFFFFFFFFFFFFFFFFFFFFFFFFFFFFFFFFFFFFF AND DUP2 PUSH20 0xFFFFFFFFFFFFFFFFFFFFFFFFFFFFFFFFFFFFFFFF AND SUB PUSH2 0xA5C JUMPI PUSH1 0x40 MLOAD PUSH32 0x8C379A000000000000000000000000000000000000000000000000000000000 DUP2 MSTORE PUSH1 0x4 ADD PUSH2 0xA53 SWAP1 PUSH2 0x119D JUMP JUMPDEST PUSH1 0x40 MLOAD DUP1 SWAP2 SUB SWAP1 REVERT JUMPDEST DUP2 PUSH1 0x6 PUSH0 DUP4 PUSH20 0xFFFFFFFFFFFFFFFFFFFFFFFFFFFFFFFFFFFFFFFF AND PUSH20 0xFFFFFFFFFFFFFFFFFFFFFFFFFFFFFFFFFFFFFFFF AND DUP2 MSTORE PUSH1 0x20 ADD SWAP1 DUP2 MSTORE PUSH1 0x20 ADD PUSH0 KECCAK256 PUSH0 DUP3 DUP3 SLOAD PUSH2 0xAA8 SWAP2 SWAP1 PUSH2 0x108B JUMP JUMPDEST SWAP3 POP POP DUP2 SWAP1 SSTORE POP POP POP POP JUMP JUMPDEST PUSH0 DUP1 SLOAD SWAP1 PUSH2 0x100 EXP SWAP1 DIV PUSH20 0xFFFFFFFFFFFFFFFFFFFFFFFFFFFFFFFFFFFFFFFF AND DUP2 JUMP JUMPDEST PUSH0 PUSH1 0x4 PUSH0 DUP4 DUP2 MSTORE PUSH1 0x20 ADD SWAP1 DUP2 MSTORE PUSH1 0x20 ADD PUSH0 KECCAK256 PUSH0 SWAP1 SLOAD SWAP1 PUSH2 0x100 EXP SWAP1 DIV PUSH20 0xFFFFFFFFFFFFFFFFFFFFFFFFFFFFFFFFFFFFFFFF AND SWAP1 POP SWAP2 SWAP1 POP JUMP JUMPDEST PUSH0 PUSH1 0x6 PUSH0 DUP4 PUSH20 0xFFFFFFFFFFFFFFFFFFFFFFFFFFFFFFFFFFFFFFFF AND PUSH20 0xFFFFFFFFFFFFFFFFFFFFFFFFFFFFFFFFFFFFFFFF AND DUP2 MSTORE PUSH1 0x20 ADD SWAP1 DUP2 MSTORE PUSH1 0x20 ADD PUSH0 KECCAK256 SLOAD SWAP1 POP SWAP2 SWAP1 POP JUMP JUMPDEST PUSH1 0x5 SLOAD DUP2 JUMP JUMPDEST PUSH1 0x6 PUSH1 0x20 MSTORE DUP1 PUSH0 MSTORE PUSH1 0x40 PUSH0 KECCAK256 PUSH0 SWAP2 POP SWAP1 POP SLOAD DUP2 JUMP JUMPDEST PUSH0 DUP1 SLOAD SWAP1 PUSH2 0x100 EXP SWAP1 DIV PUSH20 0xFFFFFFFFFFFFFFFFFFFFFFFFFFFFFFFFFFFFFFFF AND PUSH20 0xFFFFFFFFFFFFFFFFFFFFFFFFFFFFFFFFFFFFFFFF AND CALLER PUSH20 0xFFFFFFFFFFFFFFFFFFFFFFFFFFFFFFFFFFFFFFFF AND EQ PUSH2 0xBFE JUMPI PUSH1 0x40 MLOAD PUSH32 0x8C379A000000000000000000000000000000000000000000000000000000000 DUP2 MSTORE PUSH1 0x4 ADD PUSH2 0xBF5 SWAP1 PUSH2 0x1135 JUMP JUMPDEST PUSH1 0x40 MLOAD DUP1 SWAP2 SUB SWAP1 REVERT JUMPDEST PUSH0 PUSH20 0xFFFFFFFFFFFFFFFFFFFFFFFFFFFFFFFFFFFFFFFF AND DUP2 PUSH20 0xFFFFFFFFFFFFFFFFFFFFFFFFFFFFFFFFFFFFFFFF AND SUB PUSH2 0xC6C JUMPI PUSH1 0x40 MLOAD PUSH32 0x8C379A000000000000000000000000000000000000000000000000000000000 DUP2 MSTORE PUSH1 0x4 ADD PUSH2 0xC63 SWAP1 PUSH2 0x1205 JUMP JUMPDEST PUSH1 0x40 MLOAD DUP1 SWAP2 SUB SWAP1 REVERT JUMPDEST DUP1 PUSH20 0xFFFFFFFFFFFFFFFFFFFFFFFFFFFFFFFFFFFFFFFF AND PUSH2 0x8FC SELFBALANCE SWAP1 DUP2 ISZERO MUL SWAP1 PUSH1 0x40 MLOAD PUSH0 PUSH1 0x40 MLOAD DUP1 DUP4 SUB DUP2 DUP6 DUP9 DUP9 CALL SWAP4 POP POP POP POP ISZERO DUP1 ISZERO PUSH2 0xCAF JUMPI RETURNDATASIZE PUSH0 DUP1 RETURNDATACOPY RETURNDATASIZE PUSH0 REVERT JUMPDEST POP POP JUMP JUMPDEST PUSH0 DUP2 SWAP1 POP SWAP2 SWAP1 POP JUMP JUMPDEST PUSH2 0xCC5 DUP2 PUSH2 0xCB3 JUMP JUMPDEST DUP3 MSTORE POP POP JUMP JUMPDEST PUSH0 PUSH1 0x20 DUP3 ADD SWAP1 POP PUSH2 0xCDE PUSH0 DUP4 ADD DUP5 PUSH2 0xCBC JUMP JUMPDEST SWAP3 SWAP2 POP POP JUMP JUMPDEST PUSH0 DUP1 REVERT JUMPDEST PUSH0 PUSH20 0xFFFFFFFFFFFFFFFFFFFFFFFFFFFFFFFFFFFFFFFF DUP3 AND SWAP1 POP SWAP2 SWAP1 POP JUMP JUMPDEST PUSH0 PUSH2 0xD11 DUP3 PUSH2 0xCE8 JUMP JUMPDEST SWAP1 POP SWAP2 SWAP1 POP JUMP JUMPDEST PUSH2 0xD21 DUP2 PUSH2 0xD07 JUMP JUMPDEST DUP2 EQ PUSH2 0xD2B JUMPI PUSH0 DUP1 REVERT JUMPDEST POP JUMP JUMPDEST PUSH0 DUP2 CALLDATALOAD SWAP1 POP PUSH2 0xD3C DUP2 PUSH2 0xD18 JUMP JUMPDEST SWAP3 SWAP2 POP POP JUMP JUMPDEST PUSH2 0xD4B DUP2 PUSH2 0xCB3 JUMP JUMPDEST DUP2 EQ PUSH2 0xD55 JUMPI PUSH0 DUP1 REVERT JUMPDEST POP JUMP JUMPDEST PUSH0 DUP2 CALLDATALOAD SWAP1 POP PUSH2 0xD66 DUP2 PUSH2 0xD42 JUMP JUMPDEST SWAP3 SWAP2 POP POP JUMP JUMPDEST PUSH0 DUP1 PUSH1 0x40 DUP4 DUP6 SUB SLT ISZERO PUSH2 0xD82 JUMPI PUSH2 0xD81 PUSH2 0xCE4 JUMP JUMPDEST JUMPDEST PUSH0 PUSH2 0xD8F DUP6 DUP3 DUP7 ADD PUSH2 0xD2E JUMP JUMPDEST SWAP3 POP POP PUSH1 0x20 PUSH2 0xDA0 DUP6 DUP3 DUP7 ADD PUSH2 0xD58 JUMP JUMPDEST SWAP2 POP POP SWAP3 POP SWAP3 SWAP1 POP JUMP JUMPDEST PUSH0 PUSH1 0x60 DUP3 ADD SWAP1 POP PUSH2 0xDBD PUSH0 DUP4 ADD DUP7 PUSH2 0xCBC JUMP JUMPDEST PUSH2 0xDCA PUSH1 0x20 DUP4 ADD DUP6 PUSH2 0xCBC JUMP JUMPDEST PUSH2 0xDD7 PUSH1 0x40 DUP4 ADD DUP5 PUSH2 0xCBC JUMP JUMPDEST SWAP5 SWAP4 POP POP POP POP JUMP JUMPDEST PUSH0 PUSH1 0x20 DUP3 DUP5 SUB SLT ISZERO PUSH2 0xDF4 JUMPI PUSH2 0xDF3 PUSH2 0xCE4 JUMP JUMPDEST JUMPDEST PUSH0 PUSH2 0xE01 DUP5 DUP3 DUP6 ADD PUSH2 0xD2E JUMP JUMPDEST SWAP2 POP POP SWAP3 SWAP2 POP POP JUMP JUMPDEST PUSH0 PUSH1 0x20 DUP3 DUP5 SUB SLT ISZERO PUSH2 0xE1F JUMPI PUSH2 0xE1E PUSH2 0xCE4 JUMP JUMPDEST JUMPDEST PUSH0 PUSH2 0xE2C DUP5 DUP3 DUP6 ADD PUSH2 0xD58 JUMP JUMPDEST SWAP2 POP POP SWAP3 SWAP2 POP POP JUMP JUMPDEST PUSH2 0xE3E DUP2 PUSH2 0xD07 JUMP JUMPDEST DUP3 MSTORE POP POP JUMP JUMPDEST PUSH0 PUSH1 0x20 DUP3 ADD SWAP1 POP PUSH2 0xE57 PUSH0 DUP4 ADD DUP5 PUSH2 0xE35 JUMP JUMPDEST SWAP3 SWAP2 POP POP JUMP JUMPDEST PUSH0 DUP1 PUSH1 0x40 DUP4 DUP6 SUB SLT ISZERO PUSH2 0xE73 JUMPI PUSH2 0xE72 PUSH2 0xCE4 JUMP JUMPDEST JUMPDEST PUSH0 PUSH2 0xE80 DUP6 DUP3 DUP7 ADD PUSH2 0xD58 JUMP JUMPDEST SWAP3 POP POP PUSH1 0x20 PUSH2 0xE91 DUP6 DUP3 DUP7 ADD PUSH2 0xD58 JUMP JUMPDEST SWAP2 POP POP SWAP3 POP SWAP3 SWAP1 POP JUMP JUMPDEST PUSH0 PUSH2 0xEA5 DUP3 PUSH2 0xCE8 JUMP JUMPDEST SWAP1 POP SWAP2 SWAP1 POP JUMP JUMPDEST PUSH2 0xEB5 DUP2 PUSH2 0xE9B JUMP JUMPDEST DUP2 EQ PUSH2 0xEBF JUMPI PUSH0 DUP1 REVERT JUMPDEST POP JUMP JUMPDEST PUSH0 DUP2 CALLDATALOAD SWAP1 POP PUSH2 0xED0 DUP2 PUSH2 0xEAC JUMP JUMPDEST SWAP3 SWAP2 POP POP JUMP JUMPDEST PUSH0 PUSH1 0x20 DUP3 DUP5 SUB SLT ISZERO PUSH2 0xEEB JUMPI PUSH2 0xEEA PUSH2 0xCE4 JUMP JUMPDEST JUMPDEST PUSH0 PUSH2 0xEF8 DUP5 DUP3 DUP6 ADD PUSH2 0xEC2 JUMP JUMPDEST SWAP2 POP POP SWAP3 SWAP2 POP POP JUMP JUMPDEST PUSH0 DUP3 DUP3 MSTORE PUSH1 0x20 DUP3 ADD SWAP1 POP SWAP3 SWAP2 POP POP JUMP JUMPDEST PUSH32 0x53656E6420424E4220746F206275792054505400000000000000000000000000 PUSH0 DUP3 ADD MSTORE POP JUMP JUMPDEST PUSH0 PUSH2 0xF45 PUSH1 0x13 DUP4 PUSH2 0xF01 JUMP JUMPDEST SWAP2 POP PUSH2 0xF50 DUP3 PUSH2 0xF11 JUMP JUMPDEST PUSH1 0x20 DUP3 ADD SWAP1 POP SWAP2 SWAP1 POP JUMP JUMPDEST PUSH0 PUSH1 0x20 DUP3 ADD SWAP1 POP DUP2 DUP2 SUB PUSH0 DUP4 ADD MSTORE PUSH2 0xF72 DUP2 PUSH2 0xF39 JUMP JUMPDEST SWAP1 POP SWAP2 SWAP1 POP JUMP JUMPDEST PUSH32 0x4E487B7100000000000000000000000000000000000000000000000000000000 PUSH0 MSTORE PUSH1 0x11 PUSH1 0x4 MSTORE PUSH1 0x24 PUSH0 REVERT JUMPDEST PUSH0 PUSH2 0xFB0 DUP3 PUSH2 0xCB3 JUMP JUMPDEST SWAP2 POP PUSH2 0xFBB DUP4 PUSH2 0xCB3 JUMP JUMPDEST SWAP3 POP DUP3 DUP3 MUL PUSH2 0xFC9 DUP2 PUSH2 0xCB3 JUMP JUMPDEST SWAP2 POP DUP3 DUP3 DIV DUP5 EQ DUP4 ISZERO OR PUSH2 0xFE0 JUMPI PUSH2 0xFDF PUSH2 0xF79 JUMP JUMPDEST JUMPDEST POP SWAP3 SWAP2 POP POP JUMP JUMPDEST PUSH32 0x4E487B7100000000000000000000000000000000000000000000000000000000 PUSH0 MSTORE PUSH1 0x12 PUSH1 0x4 MSTORE PUSH1 0x24 PUSH0 REVERT JUMPDEST PUSH0 PUSH2 0x101E DUP3 PUSH2 0xCB3 JUMP JUMPDEST SWAP2 POP PUSH2 0x1029 DUP4 PUSH2 0xCB3 JUMP JUMPDEST SWAP3 POP DUP3 PUSH2 0x1039 JUMPI PUSH2 0x1038 PUSH2 0xFE7 JUMP JUMPDEST JUMPDEST DUP3 DUP3 DIV SWAP1 POP SWAP3 SWAP2 POP POP JUMP JUMPDEST PUSH0 PUSH2 0x104E DUP3 PUSH2 0xCB3 JUMP JUMPDEST SWAP2 POP PUSH32 0xFFFFFFFFFFFFFFFFFFFFFFFFFFFFFFFFFFFFFFFFFFFFFFFFFFFFFFFFFFFFFFFF DUP3 SUB PUSH2 0x1080 JUMPI PUSH2 0x107F PUSH2 0xF79 JUMP JUMPDEST JUMPDEST PUSH1 0x1 DUP3 ADD SWAP1 POP SWAP2 SWAP1 POP JUMP JUMPDEST PUSH0 PUSH2 0x1095 DUP3 PUSH2 0xCB3 JUMP JUMPDEST SWAP2 POP PUSH2 0x10A0 DUP4 PUSH2 0xCB3 JUMP JUMPDEST SWAP3 POP DUP3 DUP3 ADD SWAP1 POP DUP1 DUP3 GT ISZERO PUSH2 0x10B8 JUMPI PUSH2 0x10B7 PUSH2 0xF79 JUMP JUMPDEST JUMPDEST SWAP3 SWAP2 POP POP JUMP JUMPDEST PUSH32 0x4E487B7100000000000000000000000000000000000000000000000000000000 PUSH0 MSTORE PUSH1 0x32 PUSH1 0x4 MSTORE PUSH1 0x24 PUSH0 REVERT JUMPDEST PUSH32 0x4F6E6C79206F776E657200000000000000000000000000000000000000000000 PUSH0 DUP3 ADD MSTORE POP JUMP JUMPDEST PUSH0 PUSH2 0x111F PUSH1 0xA DUP4 PUSH2 0xF01 JUMP JUMPDEST SWAP2 POP PUSH2 0x112A DUP3 PUSH2 0x10EB JUMP JUMPDEST PUSH1 0x20 DUP3 ADD SWAP1 POP SWAP2 SWAP1 POP JUMP JUMPDEST PUSH0 PUSH1 0x20 DUP3 ADD SWAP1 POP DUP2 DUP2 SUB PUSH0 DUP4 ADD MSTORE PUSH2 0x114C DUP2 PUSH2 0x1113 JUMP JUMPDEST SWAP1 POP SWAP2 SWAP1 POP JUMP JUMPDEST PUSH32 0x496E76616C696420757365722049440000000000000000000000000000000000 PUSH0 DUP3 ADD MSTORE POP JUMP JUMPDEST PUSH0 PUSH2 0x1187 PUSH1 0xF DUP4 PUSH2 0xF01 JUMP JUMPDEST SWAP2 POP PUSH2 0x1192 DUP3 PUSH2 0x1153 JUMP JUMPDEST PUSH1 0x20 DUP3 ADD SWAP1 POP SWAP2 SWAP1 POP JUMP JUMPDEST PUSH0 PUSH1 0x20 DUP3 ADD SWAP1 POP DUP2 DUP2 SUB PUSH0 DUP4 ADD MSTORE PUSH2 0x11B4 DUP2 PUSH2 0x117B JUMP JUMPDEST SWAP1 POP SWAP2 SWAP1 POP JUMP JUMPDEST PUSH32 0x496E76616C696420616464726573730000000000000000000000000000000000 PUSH0 DUP3 ADD MSTORE POP JUMP JUMPDEST PUSH0 PUSH2 0x11EF PUSH1 0xF DUP4 PUSH2 0xF01 JUMP JUMPDEST SWAP2 POP PUSH2 0x11FA DUP3 PUSH2 0x11BB JUMP JUMPDEST PUSH1 0x20 DUP3 ADD SWAP1 POP SWAP2 SWAP1 POP JUMP JUMPDEST PUSH0 PUSH1 0x20 DUP3 ADD SWAP1 POP DUP2 DUP2 SUB PUSH0 DUP4 ADD MSTORE PUSH2 0x121C DUP2 PUSH2 0x11E3 JUMP JUMPDEST SWAP1 POP SWAP2 SWAP1 POP JUMP INVALID LOG2 PUSH5 0x6970667358 0x22 SLT KECCAK256 MUL 0xC7 PUSH3 0xBCB18A CALLVALUE 0xDA PUSH9 0xEE53A9234496FD3159 SWAP3 0xBA MSTORE PUSH11 0x2CB5C72D7491EDD29BED64 PUSH20 0x6F6C634300081400330000000000000000000000 "
				},
				"gasEstimates": {
					"creation": {
						"codeDepositCost": "939400",
						"executionCost": "infinite",
						"totalCost": "infinite"
					},
					"external": {
						"activeOffer()": "254",
						"buyTPT()": "infinite",
						"buyTPTWithOffer()": "188",
						"getPurchase(address,uint256)": "infinite",
						"getPurchaseCount(address)": "2882",
						"getUserAddress(uint256)": "2874",
						"getUserId(address)": "2919",
						"getUserPoints(address)": "2873",
						"grantPointsById(uint256,uint256)": "infinite",
						"owner()": "2616",
						"purchaseWithOffer()": "210",
						"purchases(address,uint256)": "infinite",
						"setPointPrice(uint256)": "24704",
						"totalUsers()": "2491",
						"tptPrice()": "2471",
						"userAddressById(uint256)": "2850",
						"userId(address)": "2891",
						"userTPTBalance(address)": "2890",
						"withdrawAll(address)": "infinite"
					}
				},
				"methodIdentifiers": {
					"activeOffer()": "419dd841",
					"buyTPT()": "0625a1cf",
					"buyTPTWithOffer()": "4c957dca",
					"getPurchase(address,uint256)": "2a2a92cc",
					"getPurchaseCount(address)": "31bbf555",
					"getUserAddress(uint256)": "90d976e2",
					"getUserId(address)": "2b956ff7",
					"getUserPoints(address)": "aeefe31f",
					"grantPointsById(uint256,uint256)": "53077e63",
					"owner()": "8da5cb5b",
					"purchaseWithOffer()": "3234b650",
					"purchases(address,uint256)": "52d3f849",
					"setPointPrice(uint256)": "2f089afc",
					"totalUsers()": "bff1f9e1",
					"tptPrice()": "217a1f1a",
					"userAddressById(uint256)": "4aed47cf",
					"userId(address)": "376fe102",
					"userTPTBalance(address)": "c58aefcc",
					"withdrawAll(address)": "fa09e630"
				}
			},
			"storageLayout": {
				"storage": [
					{
						"astId": 3,
						"contract": "contracts/PTPPreSale.sol:TPTPreSale",
						"label": "owner",
						"offset": 0,
						"slot": "0",
						"type": "t_address"
					},
					{
						"astId": 5,
						"contract": "contracts/PTPPreSale.sol:TPTPreSale",
						"label": "tptPrice",
						"offset": 0,
						"slot": "1",
						"type": "t_uint256"
					},
					{
						"astId": 29,
						"contract": "contracts/PTPPreSale.sol:TPTPreSale",
						"label": "purchases",
						"offset": 0,
						"slot": "2",
						"type": "t_mapping(t_address,t_array(t_struct(Purchase)12_storage)dyn_storage)"
					},
					{
						"astId": 33,
						"contract": "contracts/PTPPreSale.sol:TPTPreSale",
						"label": "userId",
						"offset": 0,
						"slot": "3",
						"type": "t_mapping(t_address,t_uint256)"
					},
					{
						"astId": 37,
						"contract": "contracts/PTPPreSale.sol:TPTPreSale",
						"label": "userAddressById",
						"offset": 0,
						"slot": "4",
						"type": "t_mapping(t_uint256,t_address)"
					},
					{
						"astId": 39,
						"contract": "contracts/PTPPreSale.sol:TPTPreSale",
						"label": "totalUsers",
						"offset": 0,
						"slot": "5",
						"type": "t_uint256"
					},
					{
						"astId": 43,
						"contract": "contracts/PTPPreSale.sol:TPTPreSale",
						"label": "userTPTBalance",
						"offset": 0,
						"slot": "6",
						"type": "t_mapping(t_address,t_uint256)"
					}
				],
				"types": {
					"t_address": {
						"encoding": "inplace",
						"label": "address",
						"numberOfBytes": "20"
					},
					"t_array(t_struct(Purchase)12_storage)dyn_storage": {
						"base": "t_struct(Purchase)12_storage",
						"encoding": "dynamic_array",
						"label": "struct TPTPreSale.Purchase[]",
						"numberOfBytes": "32"
					},
					"t_mapping(t_address,t_array(t_struct(Purchase)12_storage)dyn_storage)": {
						"encoding": "mapping",
						"key": "t_address",
						"label": "mapping(address => struct TPTPreSale.Purchase[])",
						"numberOfBytes": "32",
						"value": "t_array(t_struct(Purchase)12_storage)dyn_storage"
					},
					"t_mapping(t_address,t_uint256)": {
						"encoding": "mapping",
						"key": "t_address",
						"label": "mapping(address => uint256)",
						"numberOfBytes": "32",
						"value": "t_uint256"
					},
					"t_mapping(t_uint256,t_address)": {
						"encoding": "mapping",
						"key": "t_uint256",
						"label": "mapping(uint256 => address)",
						"numberOfBytes": "32",
						"value": "t_address"
					},
					"t_struct(Purchase)12_storage": {
						"encoding": "inplace",
						"label": "struct TPTPreSale.Purchase",
						"members": [
							{
								"astId": 7,
								"contract": "contracts/PTPPreSale.sol:TPTPreSale",
								"label": "timestamp",
								"offset": 0,
								"slot": "0",
								"type": "t_uint256"
							},
							{
								"astId": 9,
								"contract": "contracts/PTPPreSale.sol:TPTPreSale",
								"label": "bnbAmount",
								"offset": 0,
								"slot": "1",
								"type": "t_uint256"
							},
							{
								"astId": 11,
								"contract": "contracts/PTPPreSale.sol:TPTPreSale",
								"label": "tptAmount",
								"offset": 0,
								"slot": "2",
								"type": "t_uint256"
							}
						],
						"numberOfBytes": "96"
					},
					"t_uint256": {
						"encoding": "inplace",
						"label": "uint256",
						"numberOfBytes": "32"
					}
				}
			},
			"userdoc": {
				"kind": "user",
				"methods": {},
				"version": 1
			}
		}
	}
}