{
	"contracts/BNBPrice.sol": {
		"BNBPrice": {
			"abi": [
				{
					"inputs": [],
					"stateMutability": "nonpayable",
					"type": "constructor"
				},
				{
					"anonymous": false,
					"inputs": [
						{
							"indexed": false,
							"internalType": "address",
							"name": "caller",
							"type": "address"
						},
						{
							"indexed": false,
							"internalType": "uint256",
							"name": "tickPrice",
							"type": "uint256"
						}
					],
					"name": "callAverage",
					"type": "event"
				},
				{
					"inputs": [
						{
							"internalType": "address",
							"name": "_factory",
							"type": "address"
						},
						{
							"internalType": "uint24",
							"name": "_fee",
							"type": "uint24"
						}
					],
					"name": "addPoolUSD",
					"outputs": [],
					"stateMutability": "nonpayable",
					"type": "function"
				},
				{
					"inputs": [],
					"name": "bnb",
					"outputs": [
						{
							"internalType": "address",
							"name": "",
							"type": "address"
						}
					],
					"stateMutability": "view",
					"type": "function"
				},
				{
					"inputs": [
						{
							"internalType": "uint8",
							"name": "index",
							"type": "uint8"
						}
					],
					"name": "bnbToUsd",
					"outputs": [
						{
							"internalType": "uint256",
							"name": "price",
							"type": "uint256"
						}
					],
					"stateMutability": "view",
					"type": "function"
				},
				{
					"inputs": [
						{
							"internalType": "address payable",
							"name": "_newOwner",
							"type": "address"
						}
					],
					"name": "changeOwner",
					"outputs": [],
					"stateMutability": "nonpayable",
					"type": "function"
				},
				{
					"inputs": [],
					"name": "claimTax",
					"outputs": [],
					"stateMutability": "nonpayable",
					"type": "function"
				},
				{
					"inputs": [
						{
							"internalType": "address",
							"name": "",
							"type": "address"
						}
					],
					"name": "eqMode",
					"outputs": [
						{
							"internalType": "bool",
							"name": "",
							"type": "bool"
						}
					],
					"stateMutability": "view",
					"type": "function"
				},
				{
					"inputs": [],
					"name": "getEqMode",
					"outputs": [
						{
							"internalType": "bool",
							"name": "",
							"type": "bool"
						}
					],
					"stateMutability": "view",
					"type": "function"
				},
				{
					"inputs": [],
					"name": "getEqModeString",
					"outputs": [
						{
							"internalType": "string",
							"name": "",
							"type": "string"
						}
					],
					"stateMutability": "view",
					"type": "function"
				},
				{
					"inputs": [
						{
							"internalType": "address",
							"name": "",
							"type": "address"
						}
					],
					"name": "lastPrice",
					"outputs": [
						{
							"internalType": "uint256",
							"name": "",
							"type": "uint256"
						}
					],
					"stateMutability": "view",
					"type": "function"
				},
				{
					"inputs": [],
					"name": "lastPriceStatic",
					"outputs": [
						{
							"internalType": "uint256",
							"name": "",
							"type": "uint256"
						}
					],
					"stateMutability": "view",
					"type": "function"
				},
				{
					"inputs": [],
					"name": "owner",
					"outputs": [
						{
							"internalType": "address payable",
							"name": "",
							"type": "address"
						}
					],
					"stateMutability": "view",
					"type": "function"
				},
				{
					"inputs": [],
					"name": "poolsLenght",
					"outputs": [
						{
							"internalType": "uint256",
							"name": "",
							"type": "uint256"
						}
					],
					"stateMutability": "view",
					"type": "function"
				},
				{
					"inputs": [
						{
							"internalType": "uint256",
							"name": "",
							"type": "uint256"
						}
					],
					"name": "poolsUSD",
					"outputs": [
						{
							"internalType": "address",
							"name": "",
							"type": "address"
						}
					],
					"stateMutability": "view",
					"type": "function"
				},
				{
					"inputs": [
						{
							"internalType": "uint8",
							"name": "index",
							"type": "uint8"
						}
					],
					"name": "removePoolUSD",
					"outputs": [],
					"stateMutability": "nonpayable",
					"type": "function"
				},
				{
					"inputs": [
						{
							"internalType": "address",
							"name": "_bnb",
							"type": "address"
						}
					],
					"name": "setBnbAddress",
					"outputs": [],
					"stateMutability": "nonpayable",
					"type": "function"
				},
				{
					"inputs": [],
					"name": "setEqMode",
					"outputs": [],
					"stateMutability": "nonpayable",
					"type": "function"
				},
				{
					"inputs": [
						{
							"internalType": "uint256",
							"name": "_tax",
							"type": "uint256"
						}
					],
					"name": "setTax",
					"outputs": [],
					"stateMutability": "nonpayable",
					"type": "function"
				},
				{
					"inputs": [
						{
							"internalType": "address",
							"name": "_usd",
							"type": "address"
						}
					],
					"name": "setUsdAddress",
					"outputs": [],
					"stateMutability": "nonpayable",
					"type": "function"
				},
				{
					"inputs": [],
					"name": "usd",
					"outputs": [
						{
							"internalType": "address",
							"name": "",
							"type": "address"
						}
					],
					"stateMutability": "view",
					"type": "function"
				},
				{
					"inputs": [
						{
							"internalType": "uint8",
							"name": "index",
							"type": "uint8"
						}
					],
					"name": "usdToBnb",
					"outputs": [
						{
							"internalType": "uint256",
							"name": "price",
							"type": "uint256"
						}
					],
					"stateMutability": "view",
					"type": "function"
				},
				{
					"inputs": [],
					"name": "viewAverage",
					"outputs": [
						{
							"internalType": "uint256",
							"name": "",
							"type": "uint256"
						}
					],
					"stateMutability": "view",
					"type": "function"
				},
				{
					"inputs": [],
					"name": "viewAverageStatic",
					"outputs": [
						{
							"internalType": "uint256",
							"name": "",
							"type": "uint256"
						}
					],
					"stateMutability": "view",
					"type": "function"
				},
				{
					"stateMutability": "payable",
					"type": "receive"
				}
			],
			"devdoc": {
				"kind": "dev",
				"methods": {},
				"version": 1
			},
			"evm": {
				"assembly": "    /* \"contracts/BNBPrice.sol\":284:4296  contract BNBPrice{\r... */\n  mstore(0x40, 0x80)\n    /* \"contracts/BNBPrice.sol\":698:911  constructor(){\r... */\n  callvalue\n  dup1\n  iszero\n  tag_1\n  jumpi\n  0x00\n  dup1\n  revert\ntag_1:\n  pop\n    /* \"contracts/BNBPrice.sol\":738:748  msg.sender */\n  caller\n    /* \"contracts/BNBPrice.sol\":722:727  owner */\n  0x03\n  0x00\n    /* \"contracts/BNBPrice.sol\":722:749  owner = payable(msg.sender) */\n  0x0100\n  exp\n  dup2\n  sload\n  dup2\n  0xffffffffffffffffffffffffffffffffffffffff\n  mul\n  not\n  and\n  swap1\n  dup4\n  0xffffffffffffffffffffffffffffffffffffffff\n  and\n  mul\n  or\n  swap1\n  sstore\n  pop\n    /* \"contracts/BNBPrice.sol\":766:808  0xbb4CdB9CBd36B01bD1cBaEBF2De08d9173bc095c */\n  0xbb4cdb9cbd36b01bd1cbaebf2de08d9173bc095c\n    /* \"contracts/BNBPrice.sol\":760:763  bnb */\n  0x01\n  0x00\n    /* \"contracts/BNBPrice.sol\":760:808  bnb = 0xbb4CdB9CBd36B01bD1cBaEBF2De08d9173bc095c */\n  0x0100\n  exp\n  dup2\n  sload\n  dup2\n  0xffffffffffffffffffffffffffffffffffffffff\n  mul\n  not\n  and\n  swap1\n  dup4\n  0xffffffffffffffffffffffffffffffffffffffff\n  and\n  mul\n  or\n  swap1\n  sstore\n  pop\n    /* \"contracts/BNBPrice.sol\":825:867  0x55d398326f99059fF775485246999027B3197955 */\n  0x55d398326f99059ff775485246999027b3197955\n    /* \"contracts/BNBPrice.sol\":819:822  usd */\n  0x02\n  0x00\n    /* \"contracts/BNBPrice.sol\":819:867  usd = 0x55d398326f99059fF775485246999027B3197955 */\n  0x0100\n  exp\n  dup2\n  sload\n  dup2\n  0xffffffffffffffffffffffffffffffffffffffff\n  mul\n  not\n  and\n  swap1\n  dup4\n  0xffffffffffffffffffffffffffffffffffffffff\n  and\n  mul\n  or\n  swap1\n  sstore\n  pop\n    /* \"contracts/BNBPrice.sol\":884:885  1 */\n  0x01\n    /* \"contracts/BNBPrice.sol\":878:881  tax */\n  0x07\n    /* \"contracts/BNBPrice.sol\":878:885  tax = 1 */\n  dup2\n  swap1\n  sstore\n  pop\n    /* \"contracts/BNBPrice.sol\":284:4296  contract BNBPrice{\r... */\n  dataSize(sub_0)\n  dup1\n  dataOffset(sub_0)\n  0x00\n  codecopy\n  0x00\n  return\nstop\n\nsub_0: assembly {\n        /* \"contracts/BNBPrice.sol\":284:4296  contract BNBPrice{\r... */\n      mstore(0x40, 0x80)\n      jumpi(tag_1, lt(calldatasize, 0x04))\n      shr(0xe0, calldataload(0x00))\n      dup1\n      0x67b51834\n      gt\n      tag_25\n      jumpi\n      dup1\n      0xa6f9dae1\n      gt\n      tag_26\n      jumpi\n      dup1\n      0xa6f9dae1\n      eq\n      tag_19\n      jumpi\n      dup1\n      0xc0404fa7\n      eq\n      tag_20\n      jumpi\n      dup1\n      0xd63a6ccd\n      eq\n      tag_21\n      jumpi\n      dup1\n      0xe03d1632\n      eq\n      tag_22\n      jumpi\n      dup1\n      0xf5a6ba2e\n      eq\n      tag_23\n      jumpi\n      dup1\n      0xf74b28c1\n      eq\n      tag_24\n      jumpi\n      jump(tag_2)\n    tag_26:\n      dup1\n      0x67b51834\n      eq\n      tag_14\n      jumpi\n      dup1\n      0x6c7474da\n      eq\n      tag_15\n      jumpi\n      dup1\n      0x6d201e8b\n      eq\n      tag_16\n      jumpi\n      dup1\n      0x8da5cb5b\n      eq\n      tag_17\n      jumpi\n      dup1\n      0xa1c6a405\n      eq\n      tag_18\n      jumpi\n      jump(tag_2)\n    tag_25:\n      dup1\n      0x3b907d14\n      gt\n      tag_27\n      jumpi\n      dup1\n      0x3b907d14\n      eq\n      tag_8\n      jumpi\n      dup1\n      0x448883d7\n      eq\n      tag_9\n      jumpi\n      dup1\n      0x49a876e4\n      eq\n      tag_10\n      jumpi\n      dup1\n      0x4d899b32\n      eq\n      tag_11\n      jumpi\n      dup1\n      0x5e59c8ce\n      eq\n      tag_12\n      jumpi\n      dup1\n      0x65a6cc2e\n      eq\n      tag_13\n      jumpi\n      jump(tag_2)\n    tag_27:\n      dup1\n      0x026f0dbe\n      eq\n      tag_3\n      jumpi\n      dup1\n      0x09cf28da\n      eq\n      tag_4\n      jumpi\n      dup1\n      0x14b085a4\n      eq\n      tag_5\n      jumpi\n      dup1\n      0x2e5bb6ff\n      eq\n      tag_6\n      jumpi\n      dup1\n      0x32a6013c\n      eq\n      tag_7\n      jumpi\n      jump(tag_2)\n    tag_1:\n      jumpi(tag_2, calldatasize)\n        /* \"contracts/BNBPrice.sol\":3720:3723  tax */\n      sload(0x07)\n        /* \"contracts/BNBPrice.sol\":3707:3716  msg.value */\n      callvalue\n        /* \"contracts/BNBPrice.sol\":3707:3723  msg.value >= tax */\n      lt\n      iszero\n        /* \"contracts/BNBPrice.sol\":3699:3738  require(msg.value >= tax , \"Value Low\") */\n      tag_30\n      jumpi\n      mload(0x40)\n      0x08c379a000000000000000000000000000000000000000000000000000000000\n      dup2\n      mstore\n      0x04\n      add\n      dup1\n      dup1\n      0x20\n      add\n      dup3\n      dup2\n      sub\n      dup3\n      mstore\n      0x09\n      dup2\n      mstore\n      0x20\n      add\n      dup1\n      0x56616c7565204c6f770000000000000000000000000000000000000000000000\n      dup2\n      mstore\n      pop\n      0x20\n      add\n      swap2\n      pop\n      pop\n      mload(0x40)\n      dup1\n      swap2\n      sub\n      swap1\n      revert\n    tag_30:\n        /* \"contracts/BNBPrice.sol\":3749:3762  uint256 price */\n      0x00\n        /* \"contracts/BNBPrice.sol\":3765:3793  _average(eqMode[msg.sender]) */\n      tag_31\n        /* \"contracts/BNBPrice.sol\":3774:3780  eqMode */\n      0x05\n        /* \"contracts/BNBPrice.sol\":3774:3792  eqMode[msg.sender] */\n      0x00\n        /* \"contracts/BNBPrice.sol\":3781:3791  msg.sender */\n      caller\n        /* \"contracts/BNBPrice.sol\":3774:3792  eqMode[msg.sender] */\n      0xffffffffffffffffffffffffffffffffffffffff\n      and\n      0xffffffffffffffffffffffffffffffffffffffff\n      and\n      dup2\n      mstore\n      0x20\n      add\n      swap1\n      dup2\n      mstore\n      0x20\n      add\n      0x00\n      keccak256\n      0x00\n      swap1\n      sload\n      swap1\n      0x0100\n      exp\n      swap1\n      div\n      0xff\n      and\n        /* \"contracts/BNBPrice.sol\":3765:3773  _average */\n      tag_32\n        /* \"contracts/BNBPrice.sol\":3765:3793  _average(eqMode[msg.sender]) */\n      jump\t// in\n    tag_31:\n        /* \"contracts/BNBPrice.sol\":3749:3793  uint256 price = _average(eqMode[msg.sender]) */\n      swap1\n      pop\n        /* \"contracts/BNBPrice.sol\":3828:3833  price */\n      dup1\n        /* \"contracts/BNBPrice.sol\":3804:3813  lastPrice */\n      0x06\n        /* \"contracts/BNBPrice.sol\":3804:3825  lastPrice[msg.sender] */\n      0x00\n        /* \"contracts/BNBPrice.sol\":3814:3824  msg.sender */\n      caller\n        /* \"contracts/BNBPrice.sol\":3804:3825  lastPrice[msg.sender] */\n      0xffffffffffffffffffffffffffffffffffffffff\n      and\n      0xffffffffffffffffffffffffffffffffffffffff\n      and\n      dup2\n      mstore\n      0x20\n      add\n      swap1\n      dup2\n      mstore\n      0x20\n      add\n      0x00\n      keccak256\n        /* \"contracts/BNBPrice.sol\":3804:3833  lastPrice[msg.sender] = price */\n      dup2\n      swap1\n      sstore\n      pop\n        /* \"contracts/BNBPrice.sol\":3862:3867  price */\n      dup1\n        /* \"contracts/BNBPrice.sol\":3844:3859  lastPriceStatic */\n      0x00\n        /* \"contracts/BNBPrice.sol\":3844:3867  lastPriceStatic = price */\n      dup2\n      swap1\n      sstore\n      pop\n        /* \"contracts/BNBPrice.sol\":3661:3875  receive() external payable {\r... */\n      pop\n        /* \"contracts/BNBPrice.sol\":284:4296  contract BNBPrice{\r... */\n      stop\n    tag_2:\n      0x00\n      dup1\n      revert\n        /* \"contracts/BNBPrice.sol\":2986:3077  function getEqMode() public view returns (bool){\r... */\n    tag_3:\n      callvalue\n      dup1\n      iszero\n      tag_33\n      jumpi\n      0x00\n      dup1\n      revert\n    tag_33:\n      pop\n      tag_34\n      tag_35\n      jump\t// in\n    tag_34:\n      mload(0x40)\n      dup1\n      dup3\n      iszero\n      iszero\n      dup2\n      mstore\n      0x20\n      add\n      swap2\n      pop\n      pop\n      mload(0x40)\n      dup1\n      swap2\n      sub\n      swap1\n      return\n        /* \"contracts/BNBPrice.sol\":4057:4212  function viewAverageStatic() external view returns(uint){\r... */\n    tag_4:\n      callvalue\n      dup1\n      iszero\n      tag_36\n      jumpi\n      0x00\n      dup1\n      revert\n    tag_36:\n      pop\n      tag_37\n      tag_38\n      jump\t// in\n    tag_37:\n      mload(0x40)\n      dup1\n      dup3\n      dup2\n      mstore\n      0x20\n      add\n      swap2\n      pop\n      pop\n      mload(0x40)\n      dup1\n      swap2\n      sub\n      swap1\n      return\n        /* \"contracts/BNBPrice.sol\":459:499  mapping( address => bool ) public eqMode */\n    tag_5:\n      callvalue\n      dup1\n      iszero\n      tag_39\n      jumpi\n      0x00\n      dup1\n      revert\n    tag_39:\n      pop\n      tag_40\n      0x04\n      dup1\n      calldatasize\n      sub\n      0x20\n      dup2\n      lt\n      iszero\n      tag_41\n      jumpi\n      0x00\n      dup1\n      revert\n    tag_41:\n      dup2\n      add\n      swap1\n      dup1\n      dup1\n      calldataload\n      0xffffffffffffffffffffffffffffffffffffffff\n      and\n      swap1\n      0x20\n      add\n      swap1\n      swap3\n      swap2\n      swap1\n      pop\n      pop\n      pop\n      tag_42\n      jump\t// in\n    tag_40:\n      mload(0x40)\n      dup1\n      dup3\n      iszero\n      iszero\n      dup2\n      mstore\n      0x20\n      add\n      swap2\n      pop\n      pop\n      mload(0x40)\n      dup1\n      swap2\n      sub\n      swap1\n      return\n        /* \"contracts/BNBPrice.sol\":4220:4293  function setTax(uint _tax) public onlyOwner {\r... */\n    tag_6:\n      callvalue\n      dup1\n      iszero\n      tag_43\n      jumpi\n      0x00\n      dup1\n      revert\n    tag_43:\n      pop\n      tag_44\n      0x04\n      dup1\n      calldatasize\n      sub\n      0x20\n      dup2\n      lt\n      iszero\n      tag_45\n      jumpi\n      0x00\n      dup1\n      revert\n    tag_45:\n      dup2\n      add\n      swap1\n      dup1\n      dup1\n      calldataload\n      swap1\n      0x20\n      add\n      swap1\n      swap3\n      swap2\n      swap1\n      pop\n      pop\n      pop\n      tag_46\n      jump\t// in\n    tag_44:\n      stop\n        /* \"contracts/BNBPrice.sol\":1367:1512  function removePoolUSD(uint8 index) external onlyOwner{\r... */\n    tag_7:\n      callvalue\n      dup1\n      iszero\n      tag_47\n      jumpi\n      0x00\n      dup1\n      revert\n    tag_47:\n      pop\n      tag_48\n      0x04\n      dup1\n      calldatasize\n      sub\n      0x20\n      dup2\n      lt\n      iszero\n      tag_49\n      jumpi\n      0x00\n      dup1\n      revert\n    tag_49:\n      dup2\n      add\n      swap1\n      dup1\n      dup1\n      calldataload\n      0xff\n      and\n      swap1\n      0x20\n      add\n      swap1\n      swap3\n      swap2\n      swap1\n      pop\n      pop\n      pop\n      tag_50\n      jump\t// in\n    tag_48:\n      stop\n        /* \"contracts/BNBPrice.sol\":2709:2791  function setBnbAddress(address _bnb) public onlyOwner{\r... */\n    tag_8:\n      callvalue\n      dup1\n      iszero\n      tag_51\n      jumpi\n      0x00\n      dup1\n      revert\n    tag_51:\n      pop\n      tag_52\n      0x04\n      dup1\n      calldatasize\n      sub\n      0x20\n      dup2\n      lt\n      iszero\n      tag_53\n      jumpi\n      0x00\n      dup1\n      revert\n    tag_53:\n      dup2\n      add\n      swap1\n      dup1\n      dup1\n      calldataload\n      0xffffffffffffffffffffffffffffffffffffffff\n      and\n      swap1\n      0x20\n      add\n      swap1\n      swap3\n      swap2\n      swap1\n      pop\n      pop\n      pop\n      tag_54\n      jump\t// in\n    tag_52:\n      stop\n        /* \"contracts/BNBPrice.sol\":3488:3651  function claimTax() external onlyOwner {\r... */\n    tag_9:\n      callvalue\n      dup1\n      iszero\n      tag_55\n      jumpi\n      0x00\n      dup1\n      revert\n    tag_55:\n      pop\n      tag_56\n      tag_57\n      jump\t// in\n    tag_56:\n      stop\n        /* \"contracts/BNBPrice.sol\":342:360  address public bnb */\n    tag_10:\n      callvalue\n      dup1\n      iszero\n      tag_58\n      jumpi\n      0x00\n      dup1\n      revert\n    tag_58:\n      pop\n      tag_59\n      tag_60\n      jump\t// in\n    tag_59:\n      mload(0x40)\n      dup1\n      dup3\n      0xffffffffffffffffffffffffffffffffffffffff\n      and\n      dup2\n      mstore\n      0x20\n      add\n      swap2\n      pop\n      pop\n      mload(0x40)\n      dup1\n      swap2\n      sub\n      swap1\n      return\n        /* \"contracts/BNBPrice.sol\":308:335  uint public lastPriceStatic */\n    tag_11:\n      callvalue\n      dup1\n      iszero\n      tag_61\n      jumpi\n      0x00\n      dup1\n      revert\n    tag_61:\n      pop\n      tag_62\n      tag_63\n      jump\t// in\n    tag_62:\n      mload(0x40)\n      dup1\n      dup3\n      dup2\n      mstore\n      0x20\n      add\n      swap2\n      pop\n      pop\n      mload(0x40)\n      dup1\n      swap2\n      sub\n      swap1\n      return\n        /* \"contracts/BNBPrice.sol\":2799:2881  function setUsdAddress(address _usd) public onlyOwner{\r... */\n    tag_12:\n      callvalue\n      dup1\n      iszero\n      tag_64\n      jumpi\n      0x00\n      dup1\n      revert\n    tag_64:\n      pop\n      tag_65\n      0x04\n      dup1\n      calldatasize\n      sub\n      0x20\n      dup2\n      lt\n      iszero\n      tag_66\n      jumpi\n      0x00\n      dup1\n      revert\n    tag_66:\n      dup2\n      add\n      swap1\n      dup1\n      dup1\n      calldataload\n      0xffffffffffffffffffffffffffffffffffffffff\n      and\n      swap1\n      0x20\n      add\n      swap1\n      swap3\n      swap2\n      swap1\n      pop\n      pop\n      pop\n      tag_67\n      jump\t// in\n    tag_65:\n      stop\n        /* \"contracts/BNBPrice.sol\":2889:2976  function setEqMode() public {\r... */\n    tag_13:\n      callvalue\n      dup1\n      iszero\n      tag_68\n      jumpi\n      0x00\n      dup1\n      revert\n    tag_68:\n      pop\n      tag_69\n      tag_70\n      jump\t// in\n    tag_69:\n      stop\n        /* \"contracts/BNBPrice.sol\":1067:1359  function addPoolUSD(address _factory, uint24 _fee) external onlyOwner {\r... */\n    tag_14:\n      callvalue\n      dup1\n      iszero\n      tag_71\n      jumpi\n      0x00\n      dup1\n      revert\n    tag_71:\n      pop\n      tag_72\n      0x04\n      dup1\n      calldatasize\n      sub\n      0x40\n      dup2\n      lt\n      iszero\n      tag_73\n      jumpi\n      0x00\n      dup1\n      revert\n    tag_73:\n      dup2\n      add\n      swap1\n      dup1\n      dup1\n      calldataload\n      0xffffffffffffffffffffffffffffffffffffffff\n      and\n      swap1\n      0x20\n      add\n      swap1\n      swap3\n      swap2\n      swap1\n      dup1\n      calldataload\n      0xffffff\n      and\n      swap1\n      0x20\n      add\n      swap1\n      swap3\n      swap2\n      swap1\n      pop\n      pop\n      pop\n      tag_74\n      jump\t// in\n    tag_72:\n      stop\n        /* \"contracts/BNBPrice.sol\":1773:2015  function bnbToUsd(uint8 index) external view  returns (uint price){\r... */\n    tag_15:\n      callvalue\n      dup1\n      iszero\n      tag_75\n      jumpi\n      0x00\n      dup1\n      revert\n    tag_75:\n      pop\n      tag_76\n      0x04\n      dup1\n      calldatasize\n      sub\n      0x20\n      dup2\n      lt\n      iszero\n      tag_77\n      jumpi\n      0x00\n      dup1\n      revert\n    tag_77:\n      dup2\n      add\n      swap1\n      dup1\n      dup1\n      calldataload\n      0xff\n      and\n      swap1\n      0x20\n      add\n      swap1\n      swap3\n      swap2\n      swap1\n      pop\n      pop\n      pop\n      tag_78\n      jump\t// in\n    tag_76:\n      mload(0x40)\n      dup1\n      dup3\n      dup2\n      mstore\n      0x20\n      add\n      swap2\n      pop\n      pop\n      mload(0x40)\n      dup1\n      swap2\n      sub\n      swap1\n      return\n        /* \"contracts/BNBPrice.sol\":427:452  address[] public poolsUSD */\n    tag_16:\n      callvalue\n      dup1\n      iszero\n      tag_79\n      jumpi\n      0x00\n      dup1\n      revert\n    tag_79:\n      pop\n      tag_80\n      0x04\n      dup1\n      calldatasize\n      sub\n      0x20\n      dup2\n      lt\n      iszero\n      tag_81\n      jumpi\n      0x00\n      dup1\n      revert\n    tag_81:\n      dup2\n      add\n      swap1\n      dup1\n      dup1\n      calldataload\n      swap1\n      0x20\n      add\n      swap1\n      swap3\n      swap2\n      swap1\n      pop\n      pop\n      pop\n      tag_82\n      jump\t// in\n    tag_80:\n      mload(0x40)\n      dup1\n      dup3\n      0xffffffffffffffffffffffffffffffffffffffff\n      and\n      dup2\n      mstore\n      0x20\n      add\n      swap2\n      pop\n      pop\n      mload(0x40)\n      dup1\n      swap2\n      sub\n      swap1\n      return\n        /* \"contracts/BNBPrice.sol\":392:420  address payable public owner */\n    tag_17:\n      callvalue\n      dup1\n      iszero\n      tag_83\n      jumpi\n      0x00\n      dup1\n      revert\n    tag_83:\n      pop\n      tag_84\n      tag_85\n      jump\t// in\n    tag_84:\n      mload(0x40)\n      dup1\n      dup3\n      0xffffffffffffffffffffffffffffffffffffffff\n      and\n      dup2\n      mstore\n      0x20\n      add\n      swap2\n      pop\n      pop\n      mload(0x40)\n      dup1\n      swap2\n      sub\n      swap1\n      return\n        /* \"contracts/BNBPrice.sol\":3203:3367  function getEqModeString() public view returns( string memory) {\r... */\n    tag_18:\n      callvalue\n      dup1\n      iszero\n      tag_86\n      jumpi\n      0x00\n      dup1\n      revert\n    tag_86:\n      pop\n      tag_87\n      tag_88\n      jump\t// in\n    tag_87:\n      mload(0x40)\n      dup1\n      dup1\n      0x20\n      add\n      dup3\n      dup2\n      sub\n      dup3\n      mstore\n      dup4\n      dup2\n      dup2\n      mload\n      dup2\n      mstore\n      0x20\n      add\n      swap2\n      pop\n      dup1\n      mload\n      swap1\n      0x20\n      add\n      swap1\n      dup1\n      dup4\n      dup4\n      0x00\n    tag_89:\n      dup4\n      dup2\n      lt\n      iszero\n      tag_91\n      jumpi\n      dup1\n      dup3\n      add\n      mload\n      dup2\n      dup5\n      add\n      mstore\n      0x20\n      dup2\n      add\n      swap1\n      pop\n      jump(tag_89)\n    tag_91:\n      pop\n      pop\n      pop\n      pop\n      swap1\n      pop\n      swap1\n      dup2\n      add\n      swap1\n      0x1f\n      and\n      dup1\n      iszero\n      tag_92\n      jumpi\n      dup1\n      dup3\n      sub\n      dup1\n      mload\n      0x01\n      dup4\n      0x20\n      sub\n      0x0100\n      exp\n      sub\n      not\n      and\n      dup2\n      mstore\n      0x20\n      add\n      swap2\n      pop\n    tag_92:\n      pop\n      swap3\n      pop\n      pop\n      pop\n      mload(0x40)\n      dup1\n      swap2\n      sub\n      swap1\n      return\n        /* \"contracts/BNBPrice.sol\":3375:3478  function changeOwner(address payable _newOwner) public onlyOwner {\r... */\n    tag_19:\n      callvalue\n      dup1\n      iszero\n      tag_93\n      jumpi\n      0x00\n      dup1\n      revert\n    tag_93:\n      pop\n      tag_94\n      0x04\n      dup1\n      calldatasize\n      sub\n      0x20\n      dup2\n      lt\n      iszero\n      tag_95\n      jumpi\n      0x00\n      dup1\n      revert\n    tag_95:\n      dup2\n      add\n      swap1\n      dup1\n      dup1\n      calldataload\n      0xffffffffffffffffffffffffffffffffffffffff\n      and\n      swap1\n      0x20\n      add\n      swap1\n      swap3\n      swap2\n      swap1\n      pop\n      pop\n      pop\n      tag_96\n      jump\t// in\n    tag_94:\n      stop\n        /* \"contracts/BNBPrice.sol\":1520:1763  function usdToBnb(uint8 index) external view  returns (uint price){\r... */\n    tag_20:\n      callvalue\n      dup1\n      iszero\n      tag_97\n      jumpi\n      0x00\n      dup1\n      revert\n    tag_97:\n      pop\n      tag_98\n      0x04\n      dup1\n      calldatasize\n      sub\n      0x20\n      dup2\n      lt\n      iszero\n      tag_99\n      jumpi\n      0x00\n      dup1\n      revert\n    tag_99:\n      dup2\n      add\n      swap1\n      dup1\n      dup1\n      calldataload\n      0xff\n      and\n      swap1\n      0x20\n      add\n      swap1\n      swap3\n      swap2\n      swap1\n      pop\n      pop\n      pop\n      tag_100\n      jump\t// in\n    tag_98:\n      mload(0x40)\n      dup1\n      dup3\n      dup2\n      mstore\n      0x20\n      add\n      swap2\n      pop\n      pop\n      mload(0x40)\n      dup1\n      swap2\n      sub\n      swap1\n      return\n        /* \"contracts/BNBPrice.sol\":367:385  address public usd */\n    tag_21:\n      callvalue\n      dup1\n      iszero\n      tag_101\n      jumpi\n      0x00\n      dup1\n      revert\n    tag_101:\n      pop\n      tag_102\n      tag_103\n      jump\t// in\n    tag_102:\n      mload(0x40)\n      dup1\n      dup3\n      0xffffffffffffffffffffffffffffffffffffffff\n      and\n      dup2\n      mstore\n      0x20\n      add\n      swap2\n      pop\n      pop\n      mload(0x40)\n      dup1\n      swap2\n      sub\n      swap1\n      return\n        /* \"contracts/BNBPrice.sol\":3883:4049  function viewAverage() external view returns (uint256) {\r... */\n    tag_22:\n      callvalue\n      dup1\n      iszero\n      tag_104\n      jumpi\n      0x00\n      dup1\n      revert\n    tag_104:\n      pop\n      tag_105\n      tag_106\n      jump\t// in\n    tag_105:\n      mload(0x40)\n      dup1\n      dup3\n      dup2\n      mstore\n      0x20\n      add\n      swap2\n      pop\n      pop\n      mload(0x40)\n      dup1\n      swap2\n      sub\n      swap1\n      return\n        /* \"contracts/BNBPrice.sol\":545:589  mapping(address => uint256) public lastPrice */\n    tag_23:\n      callvalue\n      dup1\n      iszero\n      tag_107\n      jumpi\n      0x00\n      dup1\n      revert\n    tag_107:\n      pop\n      tag_108\n      0x04\n      dup1\n      calldatasize\n      sub\n      0x20\n      dup2\n      lt\n      iszero\n      tag_109\n      jumpi\n      0x00\n      dup1\n      revert\n    tag_109:\n      dup2\n      add\n      swap1\n      dup1\n      dup1\n      calldataload\n      0xffffffffffffffffffffffffffffffffffffffff\n      and\n      swap1\n      0x20\n      add\n      swap1\n      swap3\n      swap2\n      swap1\n      pop\n      pop\n      pop\n      tag_110\n      jump\t// in\n    tag_108:\n      mload(0x40)\n      dup1\n      dup3\n      dup2\n      mstore\n      0x20\n      add\n      swap2\n      pop\n      pop\n      mload(0x40)\n      dup1\n      swap2\n      sub\n      swap1\n      return\n        /* \"contracts/BNBPrice.sol\":3085:3195  function poolsLenght() public view returns(uint){\r... */\n    tag_24:\n      callvalue\n      dup1\n      iszero\n      tag_111\n      jumpi\n      0x00\n      dup1\n      revert\n    tag_111:\n      pop\n      tag_112\n      tag_113\n      jump\t// in\n    tag_112:\n      mload(0x40)\n      dup1\n      dup3\n      dup2\n      mstore\n      0x20\n      add\n      swap2\n      pop\n      pop\n      mload(0x40)\n      dup1\n      swap2\n      sub\n      swap1\n      return\n        /* \"contracts/BNBPrice.sol\":2033:2701  function _average(bool _mode) internal view returns (uint256 average) {\r... */\n    tag_32:\n        /* \"contracts/BNBPrice.sol\":2086:2101  uint256 average */\n      0x00\n        /* \"contracts/BNBPrice.sol\":2114:2128  uint256 prices */\n      dup1\n        /* \"contracts/BNBPrice.sol\":2139:2155  uint8 validCount */\n      0x00\n        /* \"contracts/BNBPrice.sol\":2173:2180  uint8 i */\n      dup1\n        /* \"contracts/BNBPrice.sol\":2183:2184  0 */\n      0x00\n        /* \"contracts/BNBPrice.sol\":2173:2184  uint8 i = 0 */\n      swap1\n      pop\n        /* \"contracts/BNBPrice.sol\":2168:2600  for (uint8 i = 0; i < poolsUSD.length; i++) {\r... */\n    tag_115:\n        /* \"contracts/BNBPrice.sol\":2190:2198  poolsUSD */\n      0x04\n        /* \"contracts/BNBPrice.sol\":2190:2205  poolsUSD.length */\n      dup1\n      sload\n      swap1\n      pop\n        /* \"contracts/BNBPrice.sol\":2186:2187  i */\n      dup2\n        /* \"contracts/BNBPrice.sol\":2186:2205  i < poolsUSD.length */\n      0xff\n      and\n      lt\n        /* \"contracts/BNBPrice.sol\":2168:2600  for (uint8 i = 0; i < poolsUSD.length; i++) {\r... */\n      iszero\n      tag_116\n      jumpi\n        /* \"contracts/BNBPrice.sol\":2230:2240  int24 tick */\n      0x00\n        /* \"contracts/BNBPrice.sol\":2264:2272  poolsUSD */\n      0x04\n        /* \"contracts/BNBPrice.sol\":2273:2274  i */\n      dup3\n        /* \"contracts/BNBPrice.sol\":2264:2275  poolsUSD[i] */\n      0xff\n      and\n      dup2\n      sload\n      dup2\n      lt\n      tag_118\n      jumpi\n      invalid\n    tag_118:\n      swap1\n      0x00\n      mstore\n      keccak256(0x00, 0x20)\n      add\n      0x00\n      swap1\n      sload\n      swap1\n      0x0100\n      exp\n      swap1\n      div\n      0xffffffffffffffffffffffffffffffffffffffff\n      and\n        /* \"contracts/BNBPrice.sol\":2249:2282  IPancakeV3Pool(poolsUSD[i]).slot0 */\n      0xffffffffffffffffffffffffffffffffffffffff\n      and\n      0x3850c7bd\n        /* \"contracts/BNBPrice.sol\":2249:2284  IPancakeV3Pool(poolsUSD[i]).slot0() */\n      mload(0x40)\n      dup2\n      0xffffffff\n      and\n      0xe0\n      shl\n      dup2\n      mstore\n      0x04\n      add\n      0xe0\n      mload(0x40)\n      dup1\n      dup4\n      sub\n      dup2\n      dup7\n      dup1\n      extcodesize\n      iszero\n      dup1\n      iszero\n      tag_120\n      jumpi\n      0x00\n      dup1\n      revert\n    tag_120:\n      pop\n      gas\n      staticcall\n      iszero\n      dup1\n      iszero\n      tag_122\n      jumpi\n      returndatasize\n      0x00\n      dup1\n      returndatacopy\n      revert(0x00, returndatasize)\n    tag_122:\n      pop\n      pop\n      pop\n      pop\n      mload(0x40)\n      returndatasize\n      0xe0\n      dup2\n      lt\n      iszero\n      tag_123\n      jumpi\n      0x00\n      dup1\n      revert\n    tag_123:\n      dup2\n      add\n      swap1\n      dup1\n      dup1\n      mload\n      swap1\n      0x20\n      add\n      swap1\n      swap3\n      swap2\n      swap1\n      dup1\n      mload\n      swap1\n      0x20\n      add\n      swap1\n      swap3\n      swap2\n      swap1\n      dup1\n      mload\n      swap1\n      0x20\n      add\n      swap1\n      swap3\n      swap2\n      swap1\n      dup1\n      mload\n      swap1\n      0x20\n      add\n      swap1\n      swap3\n      swap2\n      swap1\n      dup1\n      mload\n      swap1\n      0x20\n      add\n      swap1\n      swap3\n      swap2\n      swap1\n      dup1\n      mload\n      swap1\n      0x20\n      add\n      swap1\n      swap3\n      swap2\n      swap1\n      dup1\n      mload\n      swap1\n      0x20\n      add\n      swap1\n      swap3\n      swap2\n      swap1\n      pop\n      pop\n      pop\n        /* \"contracts/BNBPrice.sol\":2227:2284  (, int24 tick,,,,,) = IPancakeV3Pool(poolsUSD[i]).slot0() */\n      pop\n      pop\n      pop\n      pop\n      pop\n      swap2\n      pop\n      pop\n        /* \"contracts/BNBPrice.sol\":2299:2312  uint256 price */\n      0x00\n        /* \"contracts/BNBPrice.sol\":2315:2476  OracleLibrary.getQuoteAtTick(\r... */\n      tag_124\n        /* \"contracts/BNBPrice.sol\":2362:2366  tick */\n      dup3\n        /* \"contracts/BNBPrice.sol\":2385:2389  1e18 */\n      0x0de0b6b3a7640000\n        /* \"contracts/BNBPrice.sol\":2408:2413  _mode */\n      dup10\n        /* \"contracts/BNBPrice.sol\":2408:2425  _mode ? usd : bnb */\n      tag_125\n      jumpi\n        /* \"contracts/BNBPrice.sol\":2422:2425  bnb */\n      0x01\n      0x00\n      swap1\n      sload\n      swap1\n      0x0100\n      exp\n      swap1\n      div\n      0xffffffffffffffffffffffffffffffffffffffff\n      and\n        /* \"contracts/BNBPrice.sol\":2408:2425  _mode ? usd : bnb */\n      jump(tag_126)\n    tag_125:\n        /* \"contracts/BNBPrice.sol\":2416:2419  usd */\n      0x02\n      0x00\n      swap1\n      sload\n      swap1\n      0x0100\n      exp\n      swap1\n      div\n      0xffffffffffffffffffffffffffffffffffffffff\n      and\n        /* \"contracts/BNBPrice.sol\":2408:2425  _mode ? usd : bnb */\n    tag_126:\n        /* \"contracts/BNBPrice.sol\":2444:2449  _mode */\n      dup11\n        /* \"contracts/BNBPrice.sol\":2444:2461  _mode ? bnb : usd */\n      tag_127\n      jumpi\n        /* \"contracts/BNBPrice.sol\":2458:2461  usd */\n      0x02\n      0x00\n      swap1\n      sload\n      swap1\n      0x0100\n      exp\n      swap1\n      div\n      0xffffffffffffffffffffffffffffffffffffffff\n      and\n        /* \"contracts/BNBPrice.sol\":2444:2461  _mode ? bnb : usd */\n      jump(tag_128)\n    tag_127:\n        /* \"contracts/BNBPrice.sol\":2452:2455  bnb */\n      0x01\n      0x00\n      swap1\n      sload\n      swap1\n      0x0100\n      exp\n      swap1\n      div\n      0xffffffffffffffffffffffffffffffffffffffff\n      and\n        /* \"contracts/BNBPrice.sol\":2444:2461  _mode ? bnb : usd */\n    tag_128:\n        /* \"contracts/BNBPrice.sol\":2315:2343  OracleLibrary.getQuoteAtTick */\n      tag_129\n        /* \"contracts/BNBPrice.sol\":2315:2476  OracleLibrary.getQuoteAtTick(\r... */\n      jump\t// in\n    tag_124:\n        /* \"contracts/BNBPrice.sol\":2299:2476  uint256 price = OracleLibrary.getQuoteAtTick(\r... */\n      swap1\n      pop\n        /* \"contracts/BNBPrice.sol\":2505:2506  0 */\n      0x00\n        /* \"contracts/BNBPrice.sol\":2497:2502  price */\n      dup2\n        /* \"contracts/BNBPrice.sol\":2497:2506  price > 0 */\n      gt\n        /* \"contracts/BNBPrice.sol\":2493:2589  if (price > 0) {\r... */\n      iszero\n      tag_130\n      jumpi\n        /* \"contracts/BNBPrice.sol\":2537:2542  price */\n      dup1\n        /* \"contracts/BNBPrice.sol\":2527:2542  prices += price */\n      dup6\n      add\n      swap5\n      pop\n        /* \"contracts/BNBPrice.sol\":2561:2573  validCount++ */\n      dup4\n      dup1\n      0x01\n      add\n      swap5\n      pop\n      pop\n        /* \"contracts/BNBPrice.sol\":2493:2589  if (price > 0) {\r... */\n    tag_130:\n        /* \"contracts/BNBPrice.sol\":2168:2600  for (uint8 i = 0; i < poolsUSD.length; i++) {\r... */\n      pop\n      pop\n        /* \"contracts/BNBPrice.sol\":2207:2210  i++ */\n      dup1\n      dup1\n      0x01\n      add\n      swap2\n      pop\n      pop\n        /* \"contracts/BNBPrice.sol\":2168:2600  for (uint8 i = 0; i < poolsUSD.length; i++) {\r... */\n      jump(tag_115)\n    tag_116:\n      pop\n        /* \"contracts/BNBPrice.sol\":2633:2634  0 */\n      0x00\n        /* \"contracts/BNBPrice.sol\":2620:2630  validCount */\n      dup2\n        /* \"contracts/BNBPrice.sol\":2620:2634  validCount > 0 */\n      0xff\n      and\n      gt\n        /* \"contracts/BNBPrice.sol\":2612:2653  require(validCount > 0, \"No price found\") */\n      tag_131\n      jumpi\n      mload(0x40)\n      0x08c379a000000000000000000000000000000000000000000000000000000000\n      dup2\n      mstore\n      0x04\n      add\n      dup1\n      dup1\n      0x20\n      add\n      dup3\n      dup2\n      sub\n      dup3\n      mstore\n      0x0e\n      dup2\n      mstore\n      0x20\n      add\n      dup1\n      0x4e6f20707269636520666f756e64000000000000000000000000000000000000\n      dup2\n      mstore\n      pop\n      0x20\n      add\n      swap2\n      pop\n      pop\n      mload(0x40)\n      dup1\n      swap2\n      sub\n      swap1\n      revert\n    tag_131:\n        /* \"contracts/BNBPrice.sol\":2683:2693  validCount */\n      dup1\n        /* \"contracts/BNBPrice.sol\":2674:2693  prices / validCount */\n      0xff\n      and\n        /* \"contracts/BNBPrice.sol\":2674:2680  prices */\n      dup3\n        /* \"contracts/BNBPrice.sol\":2674:2693  prices / validCount */\n      dup2\n      tag_132\n      jumpi\n      invalid\n    tag_132:\n      div\n        /* \"contracts/BNBPrice.sol\":2664:2693  average = prices / validCount */\n      swap3\n      pop\n        /* \"contracts/BNBPrice.sol\":2033:2701  function _average(bool _mode) internal view returns (uint256 average) {\r... */\n      pop\n      pop\n      swap2\n      swap1\n      pop\n      jump\t// out\n        /* \"contracts/BNBPrice.sol\":2986:3077  function getEqMode() public view returns (bool){\r... */\n    tag_35:\n        /* \"contracts/BNBPrice.sol\":3028:3032  bool */\n      0x00\n        /* \"contracts/BNBPrice.sol\":3051:3057  eqMode */\n      0x05\n        /* \"contracts/BNBPrice.sol\":3051:3069  eqMode[msg.sender] */\n      0x00\n        /* \"contracts/BNBPrice.sol\":3058:3068  msg.sender */\n      caller\n        /* \"contracts/BNBPrice.sol\":3051:3069  eqMode[msg.sender] */\n      0xffffffffffffffffffffffffffffffffffffffff\n      and\n      0xffffffffffffffffffffffffffffffffffffffff\n      and\n      dup2\n      mstore\n      0x20\n      add\n      swap1\n      dup2\n      mstore\n      0x20\n      add\n      0x00\n      keccak256\n      0x00\n      swap1\n      sload\n      swap1\n      0x0100\n      exp\n      swap1\n      div\n      0xff\n      and\n        /* \"contracts/BNBPrice.sol\":3044:3069  return eqMode[msg.sender] */\n      swap1\n      pop\n        /* \"contracts/BNBPrice.sol\":2986:3077  function getEqMode() public view returns (bool){\r... */\n      swap1\n      jump\t// out\n        /* \"contracts/BNBPrice.sol\":4057:4212  function viewAverageStatic() external view returns(uint){\r... */\n    tag_38:\n        /* \"contracts/BNBPrice.sol\":4108:4112  uint */\n      0x00\n        /* \"contracts/BNBPrice.sol\":4150:4151  0 */\n      dup1\n        /* \"contracts/BNBPrice.sol\":4132:4147  lastPriceStatic */\n      sload(0x00)\n        /* \"contracts/BNBPrice.sol\":4132:4151  lastPriceStatic > 0 */\n      gt\n        /* \"contracts/BNBPrice.sol\":4124:4171  require(lastPriceStatic > 0, \"No stored price\") */\n      tag_135\n      jumpi\n      mload(0x40)\n      0x08c379a000000000000000000000000000000000000000000000000000000000\n      dup2\n      mstore\n      0x04\n      add\n      dup1\n      dup1\n      0x20\n      add\n      dup3\n      dup2\n      sub\n      dup3\n      mstore\n      0x0f\n      dup2\n      mstore\n      0x20\n      add\n      dup1\n      0x4e6f2073746f7265642070726963650000000000000000000000000000000000\n      dup2\n      mstore\n      pop\n      0x20\n      add\n      swap2\n      pop\n      pop\n      mload(0x40)\n      dup1\n      swap2\n      sub\n      swap1\n      revert\n    tag_135:\n        /* \"contracts/BNBPrice.sol\":4189:4204  lastPriceStatic */\n      sload(0x00)\n        /* \"contracts/BNBPrice.sol\":4182:4204  return lastPriceStatic */\n      swap1\n      pop\n        /* \"contracts/BNBPrice.sol\":4057:4212  function viewAverageStatic() external view returns(uint){\r... */\n      swap1\n      jump\t// out\n        /* \"contracts/BNBPrice.sol\":459:499  mapping( address => bool ) public eqMode */\n    tag_42:\n      mstore(0x20, 0x05)\n      dup1\n      0x00\n      mstore\n      keccak256(0x00, 0x40)\n      0x00\n      swap2\n      pop\n      sload\n      swap1\n      0x0100\n      exp\n      swap1\n      div\n      0xff\n      and\n      dup2\n      jump\t// out\n        /* \"contracts/BNBPrice.sol\":4220:4293  function setTax(uint _tax) public onlyOwner {\r... */\n    tag_46:\n        /* \"contracts/BNBPrice.sol\":970:975  owner */\n      0x03\n      0x00\n      swap1\n      sload\n      swap1\n      0x0100\n      exp\n      swap1\n      div\n      0xffffffffffffffffffffffffffffffffffffffff\n      and\n        /* \"contracts/BNBPrice.sol\":956:975  msg.sender == owner */\n      0xffffffffffffffffffffffffffffffffffffffff\n      and\n        /* \"contracts/BNBPrice.sol\":956:966  msg.sender */\n      caller\n        /* \"contracts/BNBPrice.sol\":956:975  msg.sender == owner */\n      0xffffffffffffffffffffffffffffffffffffffff\n      and\n      eq\n        /* \"contracts/BNBPrice.sol\":948:976  require(msg.sender == owner) */\n      tag_137\n      jumpi\n      0x00\n      dup1\n      revert\n    tag_137:\n        /* \"contracts/BNBPrice.sol\":4281:4285  _tax */\n      dup1\n        /* \"contracts/BNBPrice.sol\":4275:4278  tax */\n      0x07\n        /* \"contracts/BNBPrice.sol\":4275:4285  tax = _tax */\n      dup2\n      swap1\n      sstore\n      pop\n        /* \"contracts/BNBPrice.sol\":4220:4293  function setTax(uint _tax) public onlyOwner {\r... */\n      pop\n      jump\t// out\n        /* \"contracts/BNBPrice.sol\":1367:1512  function removePoolUSD(uint8 index) external onlyOwner{\r... */\n    tag_50:\n        /* \"contracts/BNBPrice.sol\":970:975  owner */\n      0x03\n      0x00\n      swap1\n      sload\n      swap1\n      0x0100\n      exp\n      swap1\n      div\n      0xffffffffffffffffffffffffffffffffffffffff\n      and\n        /* \"contracts/BNBPrice.sol\":956:975  msg.sender == owner */\n      0xffffffffffffffffffffffffffffffffffffffff\n      and\n        /* \"contracts/BNBPrice.sol\":956:966  msg.sender */\n      caller\n        /* \"contracts/BNBPrice.sol\":956:975  msg.sender == owner */\n      0xffffffffffffffffffffffffffffffffffffffff\n      and\n      eq\n        /* \"contracts/BNBPrice.sol\":948:976  require(msg.sender == owner) */\n      tag_140\n      jumpi\n      0x00\n      dup1\n      revert\n    tag_140:\n        /* \"contracts/BNBPrice.sol\":1450:1458  poolsUSD */\n      0x04\n        /* \"contracts/BNBPrice.sol\":1477:1478  1 */\n      0x01\n        /* \"contracts/BNBPrice.sol\":1459:1467  poolsUSD */\n      0x04\n        /* \"contracts/BNBPrice.sol\":1459:1474  poolsUSD.length */\n      dup1\n      sload\n      swap1\n      pop\n        /* \"contracts/BNBPrice.sol\":1459:1478  poolsUSD.length - 1 */\n      sub\n        /* \"contracts/BNBPrice.sol\":1450:1479  poolsUSD[poolsUSD.length - 1] */\n      dup2\n      sload\n      dup2\n      lt\n      tag_142\n      jumpi\n      invalid\n    tag_142:\n      swap1\n      0x00\n      mstore\n      keccak256(0x00, 0x20)\n      add\n      0x00\n      swap1\n      sload\n      swap1\n      0x0100\n      exp\n      swap1\n      div\n      0xffffffffffffffffffffffffffffffffffffffff\n      and\n        /* \"contracts/BNBPrice.sol\":1432:1440  poolsUSD */\n      0x04\n        /* \"contracts/BNBPrice.sol\":1441:1446  index */\n      dup3\n        /* \"contracts/BNBPrice.sol\":1432:1447  poolsUSD[index] */\n      0xff\n      and\n      dup2\n      sload\n      dup2\n      lt\n      tag_144\n      jumpi\n      invalid\n    tag_144:\n      swap1\n      0x00\n      mstore\n      keccak256(0x00, 0x20)\n      add\n      0x00\n        /* \"contracts/BNBPrice.sol\":1432:1479  poolsUSD[index] = poolsUSD[poolsUSD.length - 1] */\n      0x0100\n      exp\n      dup2\n      sload\n      dup2\n      0xffffffffffffffffffffffffffffffffffffffff\n      mul\n      not\n      and\n      swap1\n      dup4\n      0xffffffffffffffffffffffffffffffffffffffff\n      and\n      mul\n      or\n      swap1\n      sstore\n      pop\n        /* \"contracts/BNBPrice.sol\":1490:1498  poolsUSD */\n      0x04\n        /* \"contracts/BNBPrice.sol\":1490:1504  poolsUSD.pop() */\n      dup1\n      sload\n      dup1\n      tag_146\n      jumpi\n      invalid\n    tag_146:\n      0x01\n      swap1\n      sub\n      dup2\n      dup2\n      swap1\n      0x00\n      mstore\n      keccak256(0x00, 0x20)\n      add\n      exp(0x0100, 0x00)\n      dup2\n      sload\n      swap1\n      0xffffffffffffffffffffffffffffffffffffffff\n      mul\n      not\n      and\n      swap1\n      sstore\n      swap1\n      sstore\n        /* \"contracts/BNBPrice.sol\":1367:1512  function removePoolUSD(uint8 index) external onlyOwner{\r... */\n      pop\n      jump\t// out\n        /* \"contracts/BNBPrice.sol\":2709:2791  function setBnbAddress(address _bnb) public onlyOwner{\r... */\n    tag_54:\n        /* \"contracts/BNBPrice.sol\":970:975  owner */\n      0x03\n      0x00\n      swap1\n      sload\n      swap1\n      0x0100\n      exp\n      swap1\n      div\n      0xffffffffffffffffffffffffffffffffffffffff\n      and\n        /* \"contracts/BNBPrice.sol\":956:975  msg.sender == owner */\n      0xffffffffffffffffffffffffffffffffffffffff\n      and\n        /* \"contracts/BNBPrice.sol\":956:966  msg.sender */\n      caller\n        /* \"contracts/BNBPrice.sol\":956:975  msg.sender == owner */\n      0xffffffffffffffffffffffffffffffffffffffff\n      and\n      eq\n        /* \"contracts/BNBPrice.sol\":948:976  require(msg.sender == owner) */\n      tag_149\n      jumpi\n      0x00\n      dup1\n      revert\n    tag_149:\n        /* \"contracts/BNBPrice.sol\":2779:2783  _bnb */\n      dup1\n        /* \"contracts/BNBPrice.sol\":2773:2776  bnb */\n      0x01\n      0x00\n        /* \"contracts/BNBPrice.sol\":2773:2783  bnb = _bnb */\n      0x0100\n      exp\n      dup2\n      sload\n      dup2\n      0xffffffffffffffffffffffffffffffffffffffff\n      mul\n      not\n      and\n      swap1\n      dup4\n      0xffffffffffffffffffffffffffffffffffffffff\n      and\n      mul\n      or\n      swap1\n      sstore\n      pop\n        /* \"contracts/BNBPrice.sol\":2709:2791  function setBnbAddress(address _bnb) public onlyOwner{\r... */\n      pop\n      jump\t// out\n        /* \"contracts/BNBPrice.sol\":3488:3651  function claimTax() external onlyOwner {\r... */\n    tag_57:\n        /* \"contracts/BNBPrice.sol\":970:975  owner */\n      0x03\n      0x00\n      swap1\n      sload\n      swap1\n      0x0100\n      exp\n      swap1\n      div\n      0xffffffffffffffffffffffffffffffffffffffff\n      and\n        /* \"contracts/BNBPrice.sol\":956:975  msg.sender == owner */\n      0xffffffffffffffffffffffffffffffffffffffff\n      and\n        /* \"contracts/BNBPrice.sol\":956:966  msg.sender */\n      caller\n        /* \"contracts/BNBPrice.sol\":956:975  msg.sender == owner */\n      0xffffffffffffffffffffffffffffffffffffffff\n      and\n      eq\n        /* \"contracts/BNBPrice.sol\":948:976  require(msg.sender == owner) */\n      tag_152\n      jumpi\n      0x00\n      dup1\n      revert\n    tag_152:\n        /* \"contracts/BNBPrice.sol\":3571:3572  0 */\n      0x00\n        /* \"contracts/BNBPrice.sol\":3546:3567  address(this).balance */\n      selfbalance\n        /* \"contracts/BNBPrice.sol\":3546:3572  address(this).balance >= 0 */\n      lt\n      iszero\n        /* \"contracts/BNBPrice.sol\":3538:3595  require(address(this).balance >= 0, \"Not enough balance\") */\n      tag_154\n      jumpi\n      mload(0x40)\n      0x08c379a000000000000000000000000000000000000000000000000000000000\n      dup2\n      mstore\n      0x04\n      add\n      dup1\n      dup1\n      0x20\n      add\n      dup3\n      dup2\n      sub\n      dup3\n      mstore\n      0x12\n      dup2\n      mstore\n      0x20\n      add\n      dup1\n      0x4e6f7420656e6f7567682062616c616e63650000000000000000000000000000\n      dup2\n      mstore\n      pop\n      0x20\n      add\n      swap2\n      pop\n      pop\n      mload(0x40)\n      dup1\n      swap2\n      sub\n      swap1\n      revert\n    tag_154:\n        /* \"contracts/BNBPrice.sol\":3606:3611  owner */\n      0x03\n      0x00\n      swap1\n      sload\n      swap1\n      0x0100\n      exp\n      swap1\n      div\n      0xffffffffffffffffffffffffffffffffffffffff\n      and\n        /* \"contracts/BNBPrice.sol\":3606:3620  owner.transfer */\n      0xffffffffffffffffffffffffffffffffffffffff\n      and\n        /* \"contracts/BNBPrice.sol\":3606:3643  owner.transfer(address(this).balance) */\n      0x08fc\n        /* \"contracts/BNBPrice.sol\":3621:3642  address(this).balance */\n      selfbalance\n        /* \"contracts/BNBPrice.sol\":3606:3643  owner.transfer(address(this).balance) */\n      swap1\n      dup2\n      iszero\n      mul\n      swap1\n      mload(0x40)\n      0x00\n      mload(0x40)\n      dup1\n      dup4\n      sub\n      dup2\n      dup6\n      dup9\n      dup9\n      call\n      swap4\n      pop\n      pop\n      pop\n      pop\n      iszero\n      dup1\n      iszero\n      tag_156\n      jumpi\n      returndatasize\n      0x00\n      dup1\n      returndatacopy\n      revert(0x00, returndatasize)\n    tag_156:\n      pop\n        /* \"contracts/BNBPrice.sol\":3488:3651  function claimTax() external onlyOwner {\r... */\n      jump\t// out\n        /* \"contracts/BNBPrice.sol\":342:360  address public bnb */\n    tag_60:\n      0x01\n      0x00\n      swap1\n      sload\n      swap1\n      0x0100\n      exp\n      swap1\n      div\n      0xffffffffffffffffffffffffffffffffffffffff\n      and\n      dup2\n      jump\t// out\n        /* \"contracts/BNBPrice.sol\":308:335  uint public lastPriceStatic */\n    tag_63:\n      sload(0x00)\n      dup2\n      jump\t// out\n        /* \"contracts/BNBPrice.sol\":2799:2881  function setUsdAddress(address _usd) public onlyOwner{\r... */\n    tag_67:\n        /* \"contracts/BNBPrice.sol\":970:975  owner */\n      0x03\n      0x00\n      swap1\n      sload\n      swap1\n      0x0100\n      exp\n      swap1\n      div\n      0xffffffffffffffffffffffffffffffffffffffff\n      and\n        /* \"contracts/BNBPrice.sol\":956:975  msg.sender == owner */\n      0xffffffffffffffffffffffffffffffffffffffff\n      and\n        /* \"contracts/BNBPrice.sol\":956:966  msg.sender */\n      caller\n        /* \"contracts/BNBPrice.sol\":956:975  msg.sender == owner */\n      0xffffffffffffffffffffffffffffffffffffffff\n      and\n      eq\n        /* \"contracts/BNBPrice.sol\":948:976  require(msg.sender == owner) */\n      tag_158\n      jumpi\n      0x00\n      dup1\n      revert\n    tag_158:\n        /* \"contracts/BNBPrice.sol\":2869:2873  _usd */\n      dup1\n        /* \"contracts/BNBPrice.sol\":2863:2866  usd */\n      0x02\n      0x00\n        /* \"contracts/BNBPrice.sol\":2863:2873  usd = _usd */\n      0x0100\n      exp\n      dup2\n      sload\n      dup2\n      0xffffffffffffffffffffffffffffffffffffffff\n      mul\n      not\n      and\n      swap1\n      dup4\n      0xffffffffffffffffffffffffffffffffffffffff\n      and\n      mul\n      or\n      swap1\n      sstore\n      pop\n        /* \"contracts/BNBPrice.sol\":2799:2881  function setUsdAddress(address _usd) public onlyOwner{\r... */\n      pop\n      jump\t// out\n        /* \"contracts/BNBPrice.sol\":2889:2976  function setEqMode() public {\r... */\n    tag_70:\n        /* \"contracts/BNBPrice.sol\":2950:2956  eqMode */\n      0x05\n        /* \"contracts/BNBPrice.sol\":2950:2968  eqMode[msg.sender] */\n      0x00\n        /* \"contracts/BNBPrice.sol\":2957:2967  msg.sender */\n      caller\n        /* \"contracts/BNBPrice.sol\":2950:2968  eqMode[msg.sender] */\n      0xffffffffffffffffffffffffffffffffffffffff\n      and\n      0xffffffffffffffffffffffffffffffffffffffff\n      and\n      dup2\n      mstore\n      0x20\n      add\n      swap1\n      dup2\n      mstore\n      0x20\n      add\n      0x00\n      keccak256\n      0x00\n      swap1\n      sload\n      swap1\n      0x0100\n      exp\n      swap1\n      div\n      0xff\n      and\n        /* \"contracts/BNBPrice.sol\":2949:2968  !eqMode[msg.sender] */\n      iszero\n        /* \"contracts/BNBPrice.sol\":2928:2934  eqMode */\n      0x05\n        /* \"contracts/BNBPrice.sol\":2928:2946  eqMode[msg.sender] */\n      0x00\n        /* \"contracts/BNBPrice.sol\":2935:2945  msg.sender */\n      caller\n        /* \"contracts/BNBPrice.sol\":2928:2946  eqMode[msg.sender] */\n      0xffffffffffffffffffffffffffffffffffffffff\n      and\n      0xffffffffffffffffffffffffffffffffffffffff\n      and\n      dup2\n      mstore\n      0x20\n      add\n      swap1\n      dup2\n      mstore\n      0x20\n      add\n      0x00\n      keccak256\n      0x00\n        /* \"contracts/BNBPrice.sol\":2928:2968  eqMode[msg.sender] = !eqMode[msg.sender] */\n      0x0100\n      exp\n      dup2\n      sload\n      dup2\n      0xff\n      mul\n      not\n      and\n      swap1\n      dup4\n      iszero\n      iszero\n      mul\n      or\n      swap1\n      sstore\n      pop\n        /* \"contracts/BNBPrice.sol\":2889:2976  function setEqMode() public {\r... */\n      jump\t// out\n        /* \"contracts/BNBPrice.sol\":1067:1359  function addPoolUSD(address _factory, uint24 _fee) external onlyOwner {\r... */\n    tag_74:\n        /* \"contracts/BNBPrice.sol\":970:975  owner */\n      0x03\n      0x00\n      swap1\n      sload\n      swap1\n      0x0100\n      exp\n      swap1\n      div\n      0xffffffffffffffffffffffffffffffffffffffff\n      and\n        /* \"contracts/BNBPrice.sol\":956:975  msg.sender == owner */\n      0xffffffffffffffffffffffffffffffffffffffff\n      and\n        /* \"contracts/BNBPrice.sol\":956:966  msg.sender */\n      caller\n        /* \"contracts/BNBPrice.sol\":956:975  msg.sender == owner */\n      0xffffffffffffffffffffffffffffffffffffffff\n      and\n      eq\n        /* \"contracts/BNBPrice.sol\":948:976  require(msg.sender == owner) */\n      tag_162\n      jumpi\n      0x00\n      dup1\n      revert\n    tag_162:\n        /* \"contracts/BNBPrice.sol\":1148:1160  address pool */\n      0x00\n        /* \"contracts/BNBPrice.sol\":1181:1189  _factory */\n      dup3\n        /* \"contracts/BNBPrice.sol\":1163:1198  IPancakeV3Factory(_factory).getPool */\n      0xffffffffffffffffffffffffffffffffffffffff\n      and\n      0x1698ee82\n        /* \"contracts/BNBPrice.sol\":1213:1216  usd */\n      0x02\n      0x00\n      swap1\n      sload\n      swap1\n      0x0100\n      exp\n      swap1\n      div\n      0xffffffffffffffffffffffffffffffffffffffff\n      and\n        /* \"contracts/BNBPrice.sol\":1231:1234  bnb */\n      0x01\n      0x00\n      swap1\n      sload\n      swap1\n      0x0100\n      exp\n      swap1\n      div\n      0xffffffffffffffffffffffffffffffffffffffff\n      and\n        /* \"contracts/BNBPrice.sol\":1249:1253  _fee */\n      dup6\n        /* \"contracts/BNBPrice.sol\":1163:1264  IPancakeV3Factory(_factory).getPool(\r... */\n      mload(0x40)\n      dup5\n      0xffffffff\n      and\n      0xe0\n      shl\n      dup2\n      mstore\n      0x04\n      add\n      dup1\n      dup5\n      0xffffffffffffffffffffffffffffffffffffffff\n      and\n      dup2\n      mstore\n      0x20\n      add\n      dup4\n      0xffffffffffffffffffffffffffffffffffffffff\n      and\n      dup2\n      mstore\n      0x20\n      add\n      dup3\n      0xffffff\n      and\n      dup2\n      mstore\n      0x20\n      add\n      swap4\n      pop\n      pop\n      pop\n      pop\n      0x20\n      mload(0x40)\n      dup1\n      dup4\n      sub\n      dup2\n      dup7\n      dup1\n      extcodesize\n      iszero\n      dup1\n      iszero\n      tag_164\n      jumpi\n      0x00\n      dup1\n      revert\n    tag_164:\n      pop\n      gas\n      staticcall\n      iszero\n      dup1\n      iszero\n      tag_166\n      jumpi\n      returndatasize\n      0x00\n      dup1\n      returndatacopy\n      revert(0x00, returndatasize)\n    tag_166:\n      pop\n      pop\n      pop\n      pop\n      mload(0x40)\n      returndatasize\n      0x20\n      dup2\n      lt\n      iszero\n      tag_167\n      jumpi\n      0x00\n      dup1\n      revert\n    tag_167:\n      dup2\n      add\n      swap1\n      dup1\n      dup1\n      mload\n      swap1\n      0x20\n      add\n      swap1\n      swap3\n      swap2\n      swap1\n      pop\n      pop\n      pop\n        /* \"contracts/BNBPrice.sol\":1148:1264  address pool = IPancakeV3Factory(_factory).getPool(\r... */\n      swap1\n      pop\n        /* \"contracts/BNBPrice.sol\":1299:1300  0 */\n      0x00\n        /* \"contracts/BNBPrice.sol\":1283:1301  pool != address(0) */\n      0xffffffffffffffffffffffffffffffffffffffff\n      and\n        /* \"contracts/BNBPrice.sol\":1283:1287  pool */\n      dup2\n        /* \"contracts/BNBPrice.sol\":1283:1301  pool != address(0) */\n      0xffffffffffffffffffffffffffffffffffffffff\n      and\n      eq\n      iszero\n        /* \"contracts/BNBPrice.sol\":1275:1321  require(pool != address(0) , \"Pool Not Found\") */\n      tag_168\n      jumpi\n      mload(0x40)\n      0x08c379a000000000000000000000000000000000000000000000000000000000\n      dup2\n      mstore\n      0x04\n      add\n      dup1\n      dup1\n      0x20\n      add\n      dup3\n      dup2\n      sub\n      dup3\n      mstore\n      0x0e\n      dup2\n      mstore\n      0x20\n      add\n      dup1\n      0x506f6f6c204e6f7420466f756e64000000000000000000000000000000000000\n      dup2\n      mstore\n      pop\n      0x20\n      add\n      swap2\n      pop\n      pop\n      mload(0x40)\n      dup1\n      swap2\n      sub\n      swap1\n      revert\n    tag_168:\n        /* \"contracts/BNBPrice.sol\":1332:1340  poolsUSD */\n      0x04\n        /* \"contracts/BNBPrice.sol\":1346:1350  pool */\n      dup2\n        /* \"contracts/BNBPrice.sol\":1332:1351  poolsUSD.push(pool) */\n      swap1\n      dup1\n      0x01\n      dup2\n      sload\n      add\n      dup1\n      dup3\n      sstore\n      dup1\n      swap2\n      pop\n      pop\n      0x01\n      swap1\n      sub\n      swap1\n      0x00\n      mstore\n      keccak256(0x00, 0x20)\n      add\n      0x00\n      swap1\n      swap2\n      swap1\n      swap2\n      swap1\n      swap2\n      0x0100\n      exp\n      dup2\n      sload\n      dup2\n      0xffffffffffffffffffffffffffffffffffffffff\n      mul\n      not\n      and\n      swap1\n      dup4\n      0xffffffffffffffffffffffffffffffffffffffff\n      and\n      mul\n      or\n      swap1\n      sstore\n      pop\n        /* \"contracts/BNBPrice.sol\":987:988  _ */\n      pop\n        /* \"contracts/BNBPrice.sol\":1067:1359  function addPoolUSD(address _factory, uint24 _fee) external onlyOwner {\r... */\n      pop\n      pop\n      jump\t// out\n        /* \"contracts/BNBPrice.sol\":1773:2015  function bnbToUsd(uint8 index) external view  returns (uint price){\r... */\n    tag_78:\n        /* \"contracts/BNBPrice.sol\":1828:1838  uint price */\n      0x00\n        /* \"contracts/BNBPrice.sol\":1852:1862  int24 tick */\n      dup1\n        /* \"contracts/BNBPrice.sol\":1886:1894  poolsUSD */\n      0x04\n        /* \"contracts/BNBPrice.sol\":1895:1900  index */\n      dup4\n        /* \"contracts/BNBPrice.sol\":1886:1901  poolsUSD[index] */\n      0xff\n      and\n      dup2\n      sload\n      dup2\n      lt\n      tag_171\n      jumpi\n      invalid\n    tag_171:\n      swap1\n      0x00\n      mstore\n      keccak256(0x00, 0x20)\n      add\n      0x00\n      swap1\n      sload\n      swap1\n      0x0100\n      exp\n      swap1\n      div\n      0xffffffffffffffffffffffffffffffffffffffff\n      and\n        /* \"contracts/BNBPrice.sol\":1871:1908  IPancakeV3Pool(poolsUSD[index]).slot0 */\n      0xffffffffffffffffffffffffffffffffffffffff\n      and\n      0x3850c7bd\n        /* \"contracts/BNBPrice.sol\":1871:1910  IPancakeV3Pool(poolsUSD[index]).slot0() */\n      mload(0x40)\n      dup2\n      0xffffffff\n      and\n      0xe0\n      shl\n      dup2\n      mstore\n      0x04\n      add\n      0xe0\n      mload(0x40)\n      dup1\n      dup4\n      sub\n      dup2\n      dup7\n      dup1\n      extcodesize\n      iszero\n      dup1\n      iszero\n      tag_173\n      jumpi\n      0x00\n      dup1\n      revert\n    tag_173:\n      pop\n      gas\n      staticcall\n      iszero\n      dup1\n      iszero\n      tag_175\n      jumpi\n      returndatasize\n      0x00\n      dup1\n      returndatacopy\n      revert(0x00, returndatasize)\n    tag_175:\n      pop\n      pop\n      pop\n      pop\n      mload(0x40)\n      returndatasize\n      0xe0\n      dup2\n      lt\n      iszero\n      tag_176\n      jumpi\n      0x00\n      dup1\n      revert\n    tag_176:\n      dup2\n      add\n      swap1\n      dup1\n      dup1\n      mload\n      swap1\n      0x20\n      add\n      swap1\n      swap3\n      swap2\n      swap1\n      dup1\n      mload\n      swap1\n      0x20\n      add\n      swap1\n      swap3\n      swap2\n      swap1\n      dup1\n      mload\n      swap1\n      0x20\n      add\n      swap1\n      swap3\n      swap2\n      swap1\n      dup1\n      mload\n      swap1\n      0x20\n      add\n      swap1\n      swap3\n      swap2\n      swap1\n      dup1\n      mload\n      swap1\n      0x20\n      add\n      swap1\n      swap3\n      swap2\n      swap1\n      dup1\n      mload\n      swap1\n      0x20\n      add\n      swap1\n      swap3\n      swap2\n      swap1\n      dup1\n      mload\n      swap1\n      0x20\n      add\n      swap1\n      swap3\n      swap2\n      swap1\n      pop\n      pop\n      pop\n        /* \"contracts/BNBPrice.sol\":1850:1910  (,int24 tick,,,,,) = IPancakeV3Pool(poolsUSD[index]).slot0() */\n      pop\n      pop\n      pop\n      pop\n      pop\n      swap2\n      pop\n      pop\n        /* \"contracts/BNBPrice.sol\":1929:2007  OracleLibrary.getQuoteAtTick(\r... */\n      tag_177\n        /* \"contracts/BNBPrice.sol\":1972:1976  tick */\n      dup2\n        /* \"contracts/BNBPrice.sol\":1978:1982  1e18 */\n      0x0de0b6b3a7640000\n        /* \"contracts/BNBPrice.sol\":1984:1987  bnb */\n      0x01\n      0x00\n      swap1\n      sload\n      swap1\n      0x0100\n      exp\n      swap1\n      div\n      0xffffffffffffffffffffffffffffffffffffffff\n      and\n        /* \"contracts/BNBPrice.sol\":1989:1992  usd */\n      0x02\n      0x00\n      swap1\n      sload\n      swap1\n      0x0100\n      exp\n      swap1\n      div\n      0xffffffffffffffffffffffffffffffffffffffff\n      and\n        /* \"contracts/BNBPrice.sol\":1929:1957  OracleLibrary.getQuoteAtTick */\n      tag_129\n        /* \"contracts/BNBPrice.sol\":1929:2007  OracleLibrary.getQuoteAtTick(\r... */\n      jump\t// in\n    tag_177:\n        /* \"contracts/BNBPrice.sol\":1921:2007  price = OracleLibrary.getQuoteAtTick(\r... */\n      swap2\n      pop\n        /* \"contracts/BNBPrice.sol\":1773:2015  function bnbToUsd(uint8 index) external view  returns (uint price){\r... */\n      pop\n      swap2\n      swap1\n      pop\n      jump\t// out\n        /* \"contracts/BNBPrice.sol\":427:452  address[] public poolsUSD */\n    tag_82:\n      0x04\n      dup2\n      dup2\n      sload\n      dup2\n      lt\n      tag_178\n      jumpi\n      0x00\n      dup1\n      revert\n    tag_178:\n      swap1\n      0x00\n      mstore\n      keccak256(0x00, 0x20)\n      add\n      0x00\n      swap2\n      pop\n      sload\n      swap1\n      0x0100\n      exp\n      swap1\n      div\n      0xffffffffffffffffffffffffffffffffffffffff\n      and\n      dup2\n      jump\t// out\n        /* \"contracts/BNBPrice.sol\":392:420  address payable public owner */\n    tag_85:\n      0x03\n      0x00\n      swap1\n      sload\n      swap1\n      0x0100\n      exp\n      swap1\n      div\n      0xffffffffffffffffffffffffffffffffffffffff\n      and\n      dup2\n      jump\t// out\n        /* \"contracts/BNBPrice.sol\":3203:3367  function getEqModeString() public view returns( string memory) {\r... */\n    tag_88:\n        /* \"contracts/BNBPrice.sol\":3251:3264  string memory */\n      0x60\n        /* \"contracts/BNBPrice.sol\":3277:3293  string memory em */\n      0x00\n        /* \"contracts/BNBPrice.sol\":3296:3302  eqMode */\n      0x05\n        /* \"contracts/BNBPrice.sol\":3296:3314  eqMode[msg.sender] */\n      0x00\n        /* \"contracts/BNBPrice.sol\":3303:3313  msg.sender */\n      caller\n        /* \"contracts/BNBPrice.sol\":3296:3314  eqMode[msg.sender] */\n      0xffffffffffffffffffffffffffffffffffffffff\n      and\n      0xffffffffffffffffffffffffffffffffffffffff\n      and\n      dup2\n      mstore\n      0x20\n      add\n      swap1\n      dup2\n      mstore\n      0x20\n      add\n      0x00\n      keccak256\n      0x00\n      swap1\n      sload\n      swap1\n      0x0100\n      exp\n      swap1\n      div\n      0xff\n      and\n        /* \"contracts/BNBPrice.sol\":3296:3339  eqMode[msg.sender] ?  \"USDTBNB\" : \"BNBUSDT\" */\n      tag_181\n      jumpi\n      mload(0x40)\n      dup1\n      0x40\n      add\n      0x40\n      mstore\n      dup1\n      0x07\n      dup2\n      mstore\n      0x20\n      add\n      0x424e425553445400000000000000000000000000000000000000000000000000\n      dup2\n      mstore\n      pop\n      jump(tag_182)\n    tag_181:\n      mload(0x40)\n      dup1\n      0x40\n      add\n      0x40\n      mstore\n      dup1\n      0x07\n      dup2\n      mstore\n      0x20\n      add\n      0x55534454424e4200000000000000000000000000000000000000000000000000\n      dup2\n      mstore\n      pop\n    tag_182:\n        /* \"contracts/BNBPrice.sol\":3277:3339  string memory em = eqMode[msg.sender] ?  \"USDTBNB\" : \"BNBUSDT\" */\n      swap1\n      pop\n        /* \"contracts/BNBPrice.sol\":3357:3359  em */\n      dup1\n        /* \"contracts/BNBPrice.sol\":3350:3359  return em */\n      swap2\n      pop\n      pop\n        /* \"contracts/BNBPrice.sol\":3203:3367  function getEqModeString() public view returns( string memory) {\r... */\n      swap1\n      jump\t// out\n        /* \"contracts/BNBPrice.sol\":3375:3478  function changeOwner(address payable _newOwner) public onlyOwner {\r... */\n    tag_96:\n        /* \"contracts/BNBPrice.sol\":970:975  owner */\n      0x03\n      0x00\n      swap1\n      sload\n      swap1\n      0x0100\n      exp\n      swap1\n      div\n      0xffffffffffffffffffffffffffffffffffffffff\n      and\n        /* \"contracts/BNBPrice.sol\":956:975  msg.sender == owner */\n      0xffffffffffffffffffffffffffffffffffffffff\n      and\n        /* \"contracts/BNBPrice.sol\":956:966  msg.sender */\n      caller\n        /* \"contracts/BNBPrice.sol\":956:975  msg.sender == owner */\n      0xffffffffffffffffffffffffffffffffffffffff\n      and\n      eq\n        /* \"contracts/BNBPrice.sol\":948:976  require(msg.sender == owner) */\n      tag_184\n      jumpi\n      0x00\n      dup1\n      revert\n    tag_184:\n        /* \"contracts/BNBPrice.sol\":3459:3468  _newOwner */\n      dup1\n        /* \"contracts/BNBPrice.sol\":3451:3456  owner */\n      0x03\n      0x00\n        /* \"contracts/BNBPrice.sol\":3451:3468  owner = _newOwner */\n      0x0100\n      exp\n      dup2\n      sload\n      dup2\n      0xffffffffffffffffffffffffffffffffffffffff\n      mul\n      not\n      and\n      swap1\n      dup4\n      0xffffffffffffffffffffffffffffffffffffffff\n      and\n      mul\n      or\n      swap1\n      sstore\n      pop\n        /* \"contracts/BNBPrice.sol\":3375:3478  function changeOwner(address payable _newOwner) public onlyOwner {\r... */\n      pop\n      jump\t// out\n        /* \"contracts/BNBPrice.sol\":1520:1763  function usdToBnb(uint8 index) external view  returns (uint price){\r... */\n    tag_100:\n        /* \"contracts/BNBPrice.sol\":1575:1585  uint price */\n      0x00\n        /* \"contracts/BNBPrice.sol\":1599:1609  int24 tick */\n      dup1\n        /* \"contracts/BNBPrice.sol\":1633:1641  poolsUSD */\n      0x04\n        /* \"contracts/BNBPrice.sol\":1642:1647  index */\n      dup4\n        /* \"contracts/BNBPrice.sol\":1633:1648  poolsUSD[index] */\n      0xff\n      and\n      dup2\n      sload\n      dup2\n      lt\n      tag_187\n      jumpi\n      invalid\n    tag_187:\n      swap1\n      0x00\n      mstore\n      keccak256(0x00, 0x20)\n      add\n      0x00\n      swap1\n      sload\n      swap1\n      0x0100\n      exp\n      swap1\n      div\n      0xffffffffffffffffffffffffffffffffffffffff\n      and\n        /* \"contracts/BNBPrice.sol\":1618:1655  IPancakeV3Pool(poolsUSD[index]).slot0 */\n      0xffffffffffffffffffffffffffffffffffffffff\n      and\n      0x3850c7bd\n        /* \"contracts/BNBPrice.sol\":1618:1657  IPancakeV3Pool(poolsUSD[index]).slot0() */\n      mload(0x40)\n      dup2\n      0xffffffff\n      and\n      0xe0\n      shl\n      dup2\n      mstore\n      0x04\n      add\n      0xe0\n      mload(0x40)\n      dup1\n      dup4\n      sub\n      dup2\n      dup7\n      dup1\n      extcodesize\n      iszero\n      dup1\n      iszero\n      tag_189\n      jumpi\n      0x00\n      dup1\n      revert\n    tag_189:\n      pop\n      gas\n      staticcall\n      iszero\n      dup1\n      iszero\n      tag_191\n      jumpi\n      returndatasize\n      0x00\n      dup1\n      returndatacopy\n      revert(0x00, returndatasize)\n    tag_191:\n      pop\n      pop\n      pop\n      pop\n      mload(0x40)\n      returndatasize\n      0xe0\n      dup2\n      lt\n      iszero\n      tag_192\n      jumpi\n      0x00\n      dup1\n      revert\n    tag_192:\n      dup2\n      add\n      swap1\n      dup1\n      dup1\n      mload\n      swap1\n      0x20\n      add\n      swap1\n      swap3\n      swap2\n      swap1\n      dup1\n      mload\n      swap1\n      0x20\n      add\n      swap1\n      swap3\n      swap2\n      swap1\n      dup1\n      mload\n      swap1\n      0x20\n      add\n      swap1\n      swap3\n      swap2\n      swap1\n      dup1\n      mload\n      swap1\n      0x20\n      add\n      swap1\n      swap3\n      swap2\n      swap1\n      dup1\n      mload\n      swap1\n      0x20\n      add\n      swap1\n      swap3\n      swap2\n      swap1\n      dup1\n      mload\n      swap1\n      0x20\n      add\n      swap1\n      swap3\n      swap2\n      swap1\n      dup1\n      mload\n      swap1\n      0x20\n      add\n      swap1\n      swap3\n      swap2\n      swap1\n      pop\n      pop\n      pop\n        /* \"contracts/BNBPrice.sol\":1597:1657  (,int24 tick,,,,,) = IPancakeV3Pool(poolsUSD[index]).slot0() */\n      pop\n      pop\n      pop\n      pop\n      pop\n      swap2\n      pop\n      pop\n        /* \"contracts/BNBPrice.sol\":1676:1754  OracleLibrary.getQuoteAtTick(\r... */\n      tag_193\n        /* \"contracts/BNBPrice.sol\":1719:1723  tick */\n      dup2\n        /* \"contracts/BNBPrice.sol\":1725:1729  1e18 */\n      0x0de0b6b3a7640000\n        /* \"contracts/BNBPrice.sol\":1731:1734  usd */\n      0x02\n      0x00\n      swap1\n      sload\n      swap1\n      0x0100\n      exp\n      swap1\n      div\n      0xffffffffffffffffffffffffffffffffffffffff\n      and\n        /* \"contracts/BNBPrice.sol\":1736:1739  bnb */\n      0x01\n      0x00\n      swap1\n      sload\n      swap1\n      0x0100\n      exp\n      swap1\n      div\n      0xffffffffffffffffffffffffffffffffffffffff\n      and\n        /* \"contracts/BNBPrice.sol\":1676:1704  OracleLibrary.getQuoteAtTick */\n      tag_129\n        /* \"contracts/BNBPrice.sol\":1676:1754  OracleLibrary.getQuoteAtTick(\r... */\n      jump\t// in\n    tag_193:\n        /* \"contracts/BNBPrice.sol\":1668:1754  price = OracleLibrary.getQuoteAtTick(\r... */\n      swap2\n      pop\n        /* \"contracts/BNBPrice.sol\":1520:1763  function usdToBnb(uint8 index) external view  returns (uint price){\r... */\n      pop\n      swap2\n      swap1\n      pop\n      jump\t// out\n        /* \"contracts/BNBPrice.sol\":367:385  address public usd */\n    tag_103:\n      0x02\n      0x00\n      swap1\n      sload\n      swap1\n      0x0100\n      exp\n      swap1\n      div\n      0xffffffffffffffffffffffffffffffffffffffff\n      and\n      dup2\n      jump\t// out\n        /* \"contracts/BNBPrice.sol\":3883:4049  function viewAverage() external view returns (uint256) {\r... */\n    tag_106:\n        /* \"contracts/BNBPrice.sol\":3929:3936  uint256 */\n      0x00\n        /* \"contracts/BNBPrice.sol\":3981:3982  0 */\n      dup1\n        /* \"contracts/BNBPrice.sol\":3957:3966  lastPrice */\n      0x06\n        /* \"contracts/BNBPrice.sol\":3957:3978  lastPrice[msg.sender] */\n      0x00\n        /* \"contracts/BNBPrice.sol\":3967:3977  msg.sender */\n      caller\n        /* \"contracts/BNBPrice.sol\":3957:3978  lastPrice[msg.sender] */\n      0xffffffffffffffffffffffffffffffffffffffff\n      and\n      0xffffffffffffffffffffffffffffffffffffffff\n      and\n      dup2\n      mstore\n      0x20\n      add\n      swap1\n      dup2\n      mstore\n      0x20\n      add\n      0x00\n      keccak256\n      sload\n        /* \"contracts/BNBPrice.sol\":3957:3982  lastPrice[msg.sender] > 0 */\n      gt\n        /* \"contracts/BNBPrice.sol\":3949:4002  require(lastPrice[msg.sender] > 0, \"No stored price\") */\n      tag_195\n      jumpi\n      mload(0x40)\n      0x08c379a000000000000000000000000000000000000000000000000000000000\n      dup2\n      mstore\n      0x04\n      add\n      dup1\n      dup1\n      0x20\n      add\n      dup3\n      dup2\n      sub\n      dup3\n      mstore\n      0x0f\n      dup2\n      mstore\n      0x20\n      add\n      dup1\n      0x4e6f2073746f7265642070726963650000000000000000000000000000000000\n      dup2\n      mstore\n      pop\n      0x20\n      add\n      swap2\n      pop\n      pop\n      mload(0x40)\n      dup1\n      swap2\n      sub\n      swap1\n      revert\n    tag_195:\n        /* \"contracts/BNBPrice.sol\":4020:4029  lastPrice */\n      0x06\n        /* \"contracts/BNBPrice.sol\":4020:4041  lastPrice[msg.sender] */\n      0x00\n        /* \"contracts/BNBPrice.sol\":4030:4040  msg.sender */\n      caller\n        /* \"contracts/BNBPrice.sol\":4020:4041  lastPrice[msg.sender] */\n      0xffffffffffffffffffffffffffffffffffffffff\n      and\n      0xffffffffffffffffffffffffffffffffffffffff\n      and\n      dup2\n      mstore\n      0x20\n      add\n      swap1\n      dup2\n      mstore\n      0x20\n      add\n      0x00\n      keccak256\n      sload\n        /* \"contracts/BNBPrice.sol\":4013:4041  return lastPrice[msg.sender] */\n      swap1\n      pop\n        /* \"contracts/BNBPrice.sol\":3883:4049  function viewAverage() external view returns (uint256) {\r... */\n      swap1\n      jump\t// out\n        /* \"contracts/BNBPrice.sol\":545:589  mapping(address => uint256) public lastPrice */\n    tag_110:\n      mstore(0x20, 0x06)\n      dup1\n      0x00\n      mstore\n      keccak256(0x00, 0x40)\n      0x00\n      swap2\n      pop\n      swap1\n      pop\n      sload\n      dup2\n      jump\t// out\n        /* \"contracts/BNBPrice.sol\":3085:3195  function poolsLenght() public view returns(uint){\r... */\n    tag_113:\n        /* \"contracts/BNBPrice.sol\":3128:3132  uint */\n      0x00\n        /* \"contracts/BNBPrice.sol\":3140:3150  uint count */\n      dup1\n        /* \"contracts/BNBPrice.sol\":3153:3161  poolsUSD */\n      0x04\n        /* \"contracts/BNBPrice.sol\":3153:3168  poolsUSD.length */\n      dup1\n      sload\n      swap1\n      pop\n        /* \"contracts/BNBPrice.sol\":3140:3168  uint count = poolsUSD.length */\n      swap1\n      pop\n        /* \"contracts/BNBPrice.sol\":3182:3187  count */\n      dup1\n        /* \"contracts/BNBPrice.sol\":3175:3187  return count */\n      swap2\n      pop\n      pop\n        /* \"contracts/BNBPrice.sol\":3085:3195  function poolsLenght() public view returns(uint){\r... */\n      swap1\n      jump\t// out\n        /* \"@pancakeswap/v3-periphery/contracts/libraries/OracleLibrary.sol\":2632:3587  function getQuoteAtTick(... */\n    tag_129:\n        /* \"@pancakeswap/v3-periphery/contracts/libraries/OracleLibrary.sol\":2788:2807  uint256 quoteAmount */\n      0x00\n        /* \"@pancakeswap/v3-periphery/contracts/libraries/OracleLibrary.sol\":2819:2839  uint160 sqrtRatioX96 */\n      dup1\n        /* \"@pancakeswap/v3-periphery/contracts/libraries/OracleLibrary.sol\":2842:2875  TickMath.getSqrtRatioAtTick(tick) */\n      tag_198\n        /* \"@pancakeswap/v3-periphery/contracts/libraries/OracleLibrary.sol\":2870:2874  tick */\n      dup7\n        /* \"@pancakeswap/v3-periphery/contracts/libraries/OracleLibrary.sol\":2842:2869  TickMath.getSqrtRatioAtTick */\n      tag_199\n        /* \"@pancakeswap/v3-periphery/contracts/libraries/OracleLibrary.sol\":2842:2875  TickMath.getSqrtRatioAtTick(tick) */\n      jump\t// in\n    tag_198:\n        /* \"@pancakeswap/v3-periphery/contracts/libraries/OracleLibrary.sol\":2819:2875  uint160 sqrtRatioX96 = TickMath.getSqrtRatioAtTick(tick) */\n      swap1\n      pop\n        /* \"@pancakeswap/v3-periphery/contracts/libraries/OracleLibrary.sol\":3010:3027  type(uint128).max */\n      0xffffffffffffffffffffffffffffffff\n        /* \"@pancakeswap/v3-periphery/contracts/libraries/OracleLibrary.sol\":2994:3027  sqrtRatioX96 <= type(uint128).max */\n      dup1\n      and\n        /* \"@pancakeswap/v3-periphery/contracts/libraries/OracleLibrary.sol\":2994:3006  sqrtRatioX96 */\n      dup2\n        /* \"@pancakeswap/v3-periphery/contracts/libraries/OracleLibrary.sol\":2994:3027  sqrtRatioX96 <= type(uint128).max */\n      0xffffffffffffffffffffffffffffffffffffffff\n      and\n      gt\n        /* \"@pancakeswap/v3-periphery/contracts/libraries/OracleLibrary.sol\":2990:3581  if (sqrtRatioX96 <= type(uint128).max) {... */\n      tag_200\n      jumpi\n        /* \"@pancakeswap/v3-periphery/contracts/libraries/OracleLibrary.sol\":3043:3060  uint256 ratioX192 */\n      0x00\n        /* \"@pancakeswap/v3-periphery/contracts/libraries/OracleLibrary.sol\":3087:3099  sqrtRatioX96 */\n      dup2\n        /* \"@pancakeswap/v3-periphery/contracts/libraries/OracleLibrary.sol\":3063:3099  uint256(sqrtRatioX96) * sqrtRatioX96 */\n      0xffffffffffffffffffffffffffffffffffffffff\n      and\n        /* \"@pancakeswap/v3-periphery/contracts/libraries/OracleLibrary.sol\":3071:3083  sqrtRatioX96 */\n      dup3\n        /* \"@pancakeswap/v3-periphery/contracts/libraries/OracleLibrary.sol\":3063:3084  uint256(sqrtRatioX96) */\n      0xffffffffffffffffffffffffffffffffffffffff\n      and\n        /* \"@pancakeswap/v3-periphery/contracts/libraries/OracleLibrary.sol\":3063:3099  uint256(sqrtRatioX96) * sqrtRatioX96 */\n      mul\n        /* \"@pancakeswap/v3-periphery/contracts/libraries/OracleLibrary.sol\":3043:3099  uint256 ratioX192 = uint256(sqrtRatioX96) * sqrtRatioX96 */\n      swap1\n      pop\n        /* \"@pancakeswap/v3-periphery/contracts/libraries/OracleLibrary.sol\":3139:3149  quoteToken */\n      dup4\n        /* \"@pancakeswap/v3-periphery/contracts/libraries/OracleLibrary.sol\":3127:3149  baseToken < quoteToken */\n      0xffffffffffffffffffffffffffffffffffffffff\n      and\n        /* \"@pancakeswap/v3-periphery/contracts/libraries/OracleLibrary.sol\":3127:3136  baseToken */\n      dup6\n        /* \"@pancakeswap/v3-periphery/contracts/libraries/OracleLibrary.sol\":3127:3149  baseToken < quoteToken */\n      0xffffffffffffffffffffffffffffffffffffffff\n      and\n      lt\n        /* \"@pancakeswap/v3-periphery/contracts/libraries/OracleLibrary.sol\":3127:3283  baseToken < quoteToken... */\n      tag_201\n      jumpi\n        /* \"@pancakeswap/v3-periphery/contracts/libraries/OracleLibrary.sol\":3235:3283  FullMath.mulDiv(1 << 192, baseAmount, ratioX192) */\n      tag_202\n        /* \"@pancakeswap/v3-periphery/contracts/libraries/OracleLibrary.sol\":3251:3259  1 << 192 */\n      0x01000000000000000000000000000000000000000000000000\n        /* \"@pancakeswap/v3-periphery/contracts/libraries/OracleLibrary.sol\":3261:3271  baseAmount */\n      dup8\n        /* \"@pancakeswap/v3-periphery/contracts/libraries/OracleLibrary.sol\":3235:3283  FullMath.mulDiv(1 << 192, baseAmount, ratioX192) */\n      0xffffffffffffffffffffffffffffffff\n      and\n        /* \"@pancakeswap/v3-periphery/contracts/libraries/OracleLibrary.sol\":3273:3282  ratioX192 */\n      dup4\n        /* \"@pancakeswap/v3-periphery/contracts/libraries/OracleLibrary.sol\":3235:3250  FullMath.mulDiv */\n      tag_203\n        /* \"@pancakeswap/v3-periphery/contracts/libraries/OracleLibrary.sol\":3235:3283  FullMath.mulDiv(1 << 192, baseAmount, ratioX192) */\n      jump\t// in\n    tag_202:\n        /* \"@pancakeswap/v3-periphery/contracts/libraries/OracleLibrary.sol\":3127:3283  baseToken < quoteToken... */\n      jump(tag_204)\n    tag_201:\n        /* \"@pancakeswap/v3-periphery/contracts/libraries/OracleLibrary.sol\":3168:3216  FullMath.mulDiv(ratioX192, baseAmount, 1 << 192) */\n      tag_205\n        /* \"@pancakeswap/v3-periphery/contracts/libraries/OracleLibrary.sol\":3184:3193  ratioX192 */\n      dup2\n        /* \"@pancakeswap/v3-periphery/contracts/libraries/OracleLibrary.sol\":3195:3205  baseAmount */\n      dup8\n        /* \"@pancakeswap/v3-periphery/contracts/libraries/OracleLibrary.sol\":3168:3216  FullMath.mulDiv(ratioX192, baseAmount, 1 << 192) */\n      0xffffffffffffffffffffffffffffffff\n      and\n        /* \"@pancakeswap/v3-periphery/contracts/libraries/OracleLibrary.sol\":3207:3215  1 << 192 */\n      0x01000000000000000000000000000000000000000000000000\n        /* \"@pancakeswap/v3-periphery/contracts/libraries/OracleLibrary.sol\":3168:3183  FullMath.mulDiv */\n      tag_203\n        /* \"@pancakeswap/v3-periphery/contracts/libraries/OracleLibrary.sol\":3168:3216  FullMath.mulDiv(ratioX192, baseAmount, 1 << 192) */\n      jump\t// in\n    tag_205:\n        /* \"@pancakeswap/v3-periphery/contracts/libraries/OracleLibrary.sol\":3127:3283  baseToken < quoteToken... */\n    tag_204:\n        /* \"@pancakeswap/v3-periphery/contracts/libraries/OracleLibrary.sol\":3113:3283  quoteAmount = baseToken < quoteToken... */\n      swap3\n      pop\n        /* \"@pancakeswap/v3-periphery/contracts/libraries/OracleLibrary.sol\":2990:3581  if (sqrtRatioX96 <= type(uint128).max) {... */\n      pop\n      jump(tag_206)\n    tag_200:\n        /* \"@pancakeswap/v3-periphery/contracts/libraries/OracleLibrary.sol\":3314:3331  uint256 ratioX128 */\n      0x00\n        /* \"@pancakeswap/v3-periphery/contracts/libraries/OracleLibrary.sol\":3334:3386  FullMath.mulDiv(sqrtRatioX96, sqrtRatioX96, 1 << 64) */\n      tag_207\n        /* \"@pancakeswap/v3-periphery/contracts/libraries/OracleLibrary.sol\":3350:3362  sqrtRatioX96 */\n      dup3\n        /* \"@pancakeswap/v3-periphery/contracts/libraries/OracleLibrary.sol\":3334:3386  FullMath.mulDiv(sqrtRatioX96, sqrtRatioX96, 1 << 64) */\n      0xffffffffffffffffffffffffffffffffffffffff\n      and\n        /* \"@pancakeswap/v3-periphery/contracts/libraries/OracleLibrary.sol\":3364:3376  sqrtRatioX96 */\n      dup4\n        /* \"@pancakeswap/v3-periphery/contracts/libraries/OracleLibrary.sol\":3334:3386  FullMath.mulDiv(sqrtRatioX96, sqrtRatioX96, 1 << 64) */\n      0xffffffffffffffffffffffffffffffffffffffff\n      and\n        /* \"@pancakeswap/v3-periphery/contracts/libraries/OracleLibrary.sol\":3378:3385  1 << 64 */\n      0x010000000000000000\n        /* \"@pancakeswap/v3-periphery/contracts/libraries/OracleLibrary.sol\":3334:3349  FullMath.mulDiv */\n      tag_203\n        /* \"@pancakeswap/v3-periphery/contracts/libraries/OracleLibrary.sol\":3334:3386  FullMath.mulDiv(sqrtRatioX96, sqrtRatioX96, 1 << 64) */\n      jump\t// in\n    tag_207:\n        /* \"@pancakeswap/v3-periphery/contracts/libraries/OracleLibrary.sol\":3314:3386  uint256 ratioX128 = FullMath.mulDiv(sqrtRatioX96, sqrtRatioX96, 1 << 64) */\n      swap1\n      pop\n        /* \"@pancakeswap/v3-periphery/contracts/libraries/OracleLibrary.sol\":3426:3436  quoteToken */\n      dup4\n        /* \"@pancakeswap/v3-periphery/contracts/libraries/OracleLibrary.sol\":3414:3436  baseToken < quoteToken */\n      0xffffffffffffffffffffffffffffffffffffffff\n      and\n        /* \"@pancakeswap/v3-periphery/contracts/libraries/OracleLibrary.sol\":3414:3423  baseToken */\n      dup6\n        /* \"@pancakeswap/v3-periphery/contracts/libraries/OracleLibrary.sol\":3414:3436  baseToken < quoteToken */\n      0xffffffffffffffffffffffffffffffffffffffff\n      and\n      lt\n        /* \"@pancakeswap/v3-periphery/contracts/libraries/OracleLibrary.sol\":3414:3570  baseToken < quoteToken... */\n      tag_208\n      jumpi\n        /* \"@pancakeswap/v3-periphery/contracts/libraries/OracleLibrary.sol\":3522:3570  FullMath.mulDiv(1 << 128, baseAmount, ratioX128) */\n      tag_209\n        /* \"@pancakeswap/v3-periphery/contracts/libraries/OracleLibrary.sol\":3538:3546  1 << 128 */\n      0x0100000000000000000000000000000000\n        /* \"@pancakeswap/v3-periphery/contracts/libraries/OracleLibrary.sol\":3548:3558  baseAmount */\n      dup8\n        /* \"@pancakeswap/v3-periphery/contracts/libraries/OracleLibrary.sol\":3522:3570  FullMath.mulDiv(1 << 128, baseAmount, ratioX128) */\n      0xffffffffffffffffffffffffffffffff\n      and\n        /* \"@pancakeswap/v3-periphery/contracts/libraries/OracleLibrary.sol\":3560:3569  ratioX128 */\n      dup4\n        /* \"@pancakeswap/v3-periphery/contracts/libraries/OracleLibrary.sol\":3522:3537  FullMath.mulDiv */\n      tag_203\n        /* \"@pancakeswap/v3-periphery/contracts/libraries/OracleLibrary.sol\":3522:3570  FullMath.mulDiv(1 << 128, baseAmount, ratioX128) */\n      jump\t// in\n    tag_209:\n        /* \"@pancakeswap/v3-periphery/contracts/libraries/OracleLibrary.sol\":3414:3570  baseToken < quoteToken... */\n      jump(tag_210)\n    tag_208:\n        /* \"@pancakeswap/v3-periphery/contracts/libraries/OracleLibrary.sol\":3455:3503  FullMath.mulDiv(ratioX128, baseAmount, 1 << 128) */\n      tag_211\n        /* \"@pancakeswap/v3-periphery/contracts/libraries/OracleLibrary.sol\":3471:3480  ratioX128 */\n      dup2\n        /* \"@pancakeswap/v3-periphery/contracts/libraries/OracleLibrary.sol\":3482:3492  baseAmount */\n      dup8\n        /* \"@pancakeswap/v3-periphery/contracts/libraries/OracleLibrary.sol\":3455:3503  FullMath.mulDiv(ratioX128, baseAmount, 1 << 128) */\n      0xffffffffffffffffffffffffffffffff\n      and\n        /* \"@pancakeswap/v3-periphery/contracts/libraries/OracleLibrary.sol\":3494:3502  1 << 128 */\n      0x0100000000000000000000000000000000\n        /* \"@pancakeswap/v3-periphery/contracts/libraries/OracleLibrary.sol\":3455:3470  FullMath.mulDiv */\n      tag_203\n        /* \"@pancakeswap/v3-periphery/contracts/libraries/OracleLibrary.sol\":3455:3503  FullMath.mulDiv(ratioX128, baseAmount, 1 << 128) */\n      jump\t// in\n    tag_211:\n        /* \"@pancakeswap/v3-periphery/contracts/libraries/OracleLibrary.sol\":3414:3570  baseToken < quoteToken... */\n    tag_210:\n        /* \"@pancakeswap/v3-periphery/contracts/libraries/OracleLibrary.sol\":3400:3570  quoteAmount = baseToken < quoteToken... */\n      swap3\n      pop\n        /* \"@pancakeswap/v3-periphery/contracts/libraries/OracleLibrary.sol\":2990:3581  if (sqrtRatioX96 <= type(uint128).max) {... */\n      pop\n    tag_206:\n        /* \"@pancakeswap/v3-periphery/contracts/libraries/OracleLibrary.sol\":2632:3587  function getQuoteAtTick(... */\n      pop\n      swap5\n      swap4\n      pop\n      pop\n      pop\n      pop\n      jump\t// out\n        /* \"@pancakeswap/v3-core/contracts/libraries/TickMath.sol\":1362:3942  function getSqrtRatioAtTick(int24 tick) internal pure returns (uint160 sqrtPriceX96) {... */\n    tag_199:\n        /* \"@pancakeswap/v3-core/contracts/libraries/TickMath.sol\":1425:1445  uint160 sqrtPriceX96 */\n      0x00\n        /* \"@pancakeswap/v3-core/contracts/libraries/TickMath.sol\":1457:1472  uint256 absTick */\n      dup1\n        /* \"@pancakeswap/v3-core/contracts/libraries/TickMath.sol\":1482:1483  0 */\n      0x00\n        /* \"@pancakeswap/v3-core/contracts/libraries/TickMath.sol\":1475:1479  tick */\n      dup4\n        /* \"@pancakeswap/v3-core/contracts/libraries/TickMath.sol\":1475:1483  tick < 0 */\n      0x02\n      signextend\n      slt\n        /* \"@pancakeswap/v3-core/contracts/libraries/TickMath.sol\":1475:1532  tick < 0 ? uint256(-int256(tick)) : uint256(int256(tick)) */\n      tag_213\n      jumpi\n        /* \"@pancakeswap/v3-core/contracts/libraries/TickMath.sol\":1526:1530  tick */\n      dup3\n        /* \"@pancakeswap/v3-core/contracts/libraries/TickMath.sol\":1519:1531  int256(tick) */\n      0x02\n      signextend\n        /* \"@pancakeswap/v3-core/contracts/libraries/TickMath.sol\":1475:1532  tick < 0 ? uint256(-int256(tick)) : uint256(int256(tick)) */\n      jump(tag_214)\n    tag_213:\n        /* \"@pancakeswap/v3-core/contracts/libraries/TickMath.sol\":1502:1506  tick */\n      dup3\n        /* \"@pancakeswap/v3-core/contracts/libraries/TickMath.sol\":1495:1507  int256(tick) */\n      0x02\n      signextend\n        /* \"@pancakeswap/v3-core/contracts/libraries/TickMath.sol\":1494:1507  -int256(tick) */\n      0x00\n      sub\n        /* \"@pancakeswap/v3-core/contracts/libraries/TickMath.sol\":1475:1532  tick < 0 ? uint256(-int256(tick)) : uint256(int256(tick)) */\n    tag_214:\n        /* \"@pancakeswap/v3-core/contracts/libraries/TickMath.sol\":1457:1532  uint256 absTick = tick < 0 ? uint256(-int256(tick)) : uint256(int256(tick)) */\n      swap1\n      pop\n        /* \"@pancakeswap/v3-core/contracts/libraries/TickMath.sol\":484:491  -887272 */\n      0xfffffffffffffffffffffffffffffffffffffffffffffffffffffffffff27618\n        /* \"@pancakeswap/v3-core/contracts/libraries/TickMath.sol\":644:653  -MIN_TICK */\n      0x00\n      sub\n        /* \"@pancakeswap/v3-core/contracts/libraries/TickMath.sol\":1561:1578  uint256(MAX_TICK) */\n      0x02\n      signextend\n        /* \"@pancakeswap/v3-core/contracts/libraries/TickMath.sol\":1550:1557  absTick */\n      dup2\n        /* \"@pancakeswap/v3-core/contracts/libraries/TickMath.sol\":1550:1578  absTick <= uint256(MAX_TICK) */\n      gt\n      iszero\n        /* \"@pancakeswap/v3-core/contracts/libraries/TickMath.sol\":1542:1584  require(absTick <= uint256(MAX_TICK), 'T') */\n      tag_215\n      jumpi\n      mload(0x40)\n      0x08c379a000000000000000000000000000000000000000000000000000000000\n      dup2\n      mstore\n      0x04\n      add\n      dup1\n      dup1\n      0x20\n      add\n      dup3\n      dup2\n      sub\n      dup3\n      mstore\n      0x01\n      dup2\n      mstore\n      0x20\n      add\n      dup1\n      0x5400000000000000000000000000000000000000000000000000000000000000\n      dup2\n      mstore\n      pop\n      0x20\n      add\n      swap2\n      pop\n      pop\n      mload(0x40)\n      dup1\n      swap2\n      sub\n      swap1\n      revert\n    tag_215:\n        /* \"@pancakeswap/v3-core/contracts/libraries/TickMath.sol\":1595:1608  uint256 ratio */\n      0x00\n        /* \"@pancakeswap/v3-core/contracts/libraries/TickMath.sol\":1628:1629  0 */\n      dup1\n        /* \"@pancakeswap/v3-core/contracts/libraries/TickMath.sol\":1621:1624  0x1 */\n      0x01\n        /* \"@pancakeswap/v3-core/contracts/libraries/TickMath.sol\":1611:1618  absTick */\n      dup4\n        /* \"@pancakeswap/v3-core/contracts/libraries/TickMath.sol\":1611:1624  absTick & 0x1 */\n      and\n        /* \"@pancakeswap/v3-core/contracts/libraries/TickMath.sol\":1611:1629  absTick & 0x1 != 0 */\n      eq\n      iszero\n        /* \"@pancakeswap/v3-core/contracts/libraries/TickMath.sol\":1611:1704  absTick & 0x1 != 0 ? 0xfffcb933bd6fad37aa2d162d1a594001 : 0x100000000000000000000000000000000 */\n      tag_216\n      jumpi\n        /* \"@pancakeswap/v3-core/contracts/libraries/TickMath.sol\":1669:1704  0x100000000000000000000000000000000 */\n      0x0100000000000000000000000000000000\n        /* \"@pancakeswap/v3-core/contracts/libraries/TickMath.sol\":1611:1704  absTick & 0x1 != 0 ? 0xfffcb933bd6fad37aa2d162d1a594001 : 0x100000000000000000000000000000000 */\n      jump(tag_217)\n    tag_216:\n        /* \"@pancakeswap/v3-core/contracts/libraries/TickMath.sol\":1632:1666  0xfffcb933bd6fad37aa2d162d1a594001 */\n      0xfffcb933bd6fad37aa2d162d1a594001\n        /* \"@pancakeswap/v3-core/contracts/libraries/TickMath.sol\":1611:1704  absTick & 0x1 != 0 ? 0xfffcb933bd6fad37aa2d162d1a594001 : 0x100000000000000000000000000000000 */\n    tag_217:\n        /* \"@pancakeswap/v3-core/contracts/libraries/TickMath.sol\":1595:1704  uint256 ratio = absTick & 0x1 != 0 ? 0xfffcb933bd6fad37aa2d162d1a594001 : 0x100000000000000000000000000000000 */\n      0xffffffffffffffffffffffffffffffffff\n      and\n      swap1\n      pop\n        /* \"@pancakeswap/v3-core/contracts/libraries/TickMath.sol\":1735:1736  0 */\n      0x00\n        /* \"@pancakeswap/v3-core/contracts/libraries/TickMath.sol\":1728:1731  0x2 */\n      0x02\n        /* \"@pancakeswap/v3-core/contracts/libraries/TickMath.sol\":1718:1725  absTick */\n      dup4\n        /* \"@pancakeswap/v3-core/contracts/libraries/TickMath.sol\":1718:1731  absTick & 0x2 */\n      and\n        /* \"@pancakeswap/v3-core/contracts/libraries/TickMath.sol\":1718:1736  absTick & 0x2 != 0 */\n      eq\n        /* \"@pancakeswap/v3-core/contracts/libraries/TickMath.sol\":1714:1797  if (absTick & 0x2 != 0) ratio = (ratio * 0xfff97272373d413259a46990580e213a) >> 128 */\n      tag_218\n      jumpi\n        /* \"@pancakeswap/v3-core/contracts/libraries/TickMath.sol\":1794:1797  128 */\n      0x80\n        /* \"@pancakeswap/v3-core/contracts/libraries/TickMath.sol\":1755:1789  0xfff97272373d413259a46990580e213a */\n      0xfff97272373d413259a46990580e213a\n        /* \"@pancakeswap/v3-core/contracts/libraries/TickMath.sol\":1747:1752  ratio */\n      dup3\n        /* \"@pancakeswap/v3-core/contracts/libraries/TickMath.sol\":1747:1789  ratio * 0xfff97272373d413259a46990580e213a */\n      mul\n        /* \"@pancakeswap/v3-core/contracts/libraries/TickMath.sol\":1746:1797  (ratio * 0xfff97272373d413259a46990580e213a) >> 128 */\n      swap1\n      shr\n        /* \"@pancakeswap/v3-core/contracts/libraries/TickMath.sol\":1738:1797  ratio = (ratio * 0xfff97272373d413259a46990580e213a) >> 128 */\n      swap1\n      pop\n        /* \"@pancakeswap/v3-core/contracts/libraries/TickMath.sol\":1714:1797  if (absTick & 0x2 != 0) ratio = (ratio * 0xfff97272373d413259a46990580e213a) >> 128 */\n    tag_218:\n        /* \"@pancakeswap/v3-core/contracts/libraries/TickMath.sol\":1828:1829  0 */\n      0x00\n        /* \"@pancakeswap/v3-core/contracts/libraries/TickMath.sol\":1821:1824  0x4 */\n      0x04\n        /* \"@pancakeswap/v3-core/contracts/libraries/TickMath.sol\":1811:1818  absTick */\n      dup4\n        /* \"@pancakeswap/v3-core/contracts/libraries/TickMath.sol\":1811:1824  absTick & 0x4 */\n      and\n        /* \"@pancakeswap/v3-core/contracts/libraries/TickMath.sol\":1811:1829  absTick & 0x4 != 0 */\n      eq\n        /* \"@pancakeswap/v3-core/contracts/libraries/TickMath.sol\":1807:1890  if (absTick & 0x4 != 0) ratio = (ratio * 0xfff2e50f5f656932ef12357cf3c7fdcc) >> 128 */\n      tag_219\n      jumpi\n        /* \"@pancakeswap/v3-core/contracts/libraries/TickMath.sol\":1887:1890  128 */\n      0x80\n        /* \"@pancakeswap/v3-core/contracts/libraries/TickMath.sol\":1848:1882  0xfff2e50f5f656932ef12357cf3c7fdcc */\n      0xfff2e50f5f656932ef12357cf3c7fdcc\n        /* \"@pancakeswap/v3-core/contracts/libraries/TickMath.sol\":1840:1845  ratio */\n      dup3\n        /* \"@pancakeswap/v3-core/contracts/libraries/TickMath.sol\":1840:1882  ratio * 0xfff2e50f5f656932ef12357cf3c7fdcc */\n      mul\n        /* \"@pancakeswap/v3-core/contracts/libraries/TickMath.sol\":1839:1890  (ratio * 0xfff2e50f5f656932ef12357cf3c7fdcc) >> 128 */\n      swap1\n      shr\n        /* \"@pancakeswap/v3-core/contracts/libraries/TickMath.sol\":1831:1890  ratio = (ratio * 0xfff2e50f5f656932ef12357cf3c7fdcc) >> 128 */\n      swap1\n      pop\n        /* \"@pancakeswap/v3-core/contracts/libraries/TickMath.sol\":1807:1890  if (absTick & 0x4 != 0) ratio = (ratio * 0xfff2e50f5f656932ef12357cf3c7fdcc) >> 128 */\n    tag_219:\n        /* \"@pancakeswap/v3-core/contracts/libraries/TickMath.sol\":1921:1922  0 */\n      0x00\n        /* \"@pancakeswap/v3-core/contracts/libraries/TickMath.sol\":1914:1917  0x8 */\n      0x08\n        /* \"@pancakeswap/v3-core/contracts/libraries/TickMath.sol\":1904:1911  absTick */\n      dup4\n        /* \"@pancakeswap/v3-core/contracts/libraries/TickMath.sol\":1904:1917  absTick & 0x8 */\n      and\n        /* \"@pancakeswap/v3-core/contracts/libraries/TickMath.sol\":1904:1922  absTick & 0x8 != 0 */\n      eq\n        /* \"@pancakeswap/v3-core/contracts/libraries/TickMath.sol\":1900:1983  if (absTick & 0x8 != 0) ratio = (ratio * 0xffe5caca7e10e4e61c3624eaa0941cd0) >> 128 */\n      tag_220\n      jumpi\n        /* \"@pancakeswap/v3-core/contracts/libraries/TickMath.sol\":1980:1983  128 */\n      0x80\n        /* \"@pancakeswap/v3-core/contracts/libraries/TickMath.sol\":1941:1975  0xffe5caca7e10e4e61c3624eaa0941cd0 */\n      0xffe5caca7e10e4e61c3624eaa0941cd0\n        /* \"@pancakeswap/v3-core/contracts/libraries/TickMath.sol\":1933:1938  ratio */\n      dup3\n        /* \"@pancakeswap/v3-core/contracts/libraries/TickMath.sol\":1933:1975  ratio * 0xffe5caca7e10e4e61c3624eaa0941cd0 */\n      mul\n        /* \"@pancakeswap/v3-core/contracts/libraries/TickMath.sol\":1932:1983  (ratio * 0xffe5caca7e10e4e61c3624eaa0941cd0) >> 128 */\n      swap1\n      shr\n        /* \"@pancakeswap/v3-core/contracts/libraries/TickMath.sol\":1924:1983  ratio = (ratio * 0xffe5caca7e10e4e61c3624eaa0941cd0) >> 128 */\n      swap1\n      pop\n        /* \"@pancakeswap/v3-core/contracts/libraries/TickMath.sol\":1900:1983  if (absTick & 0x8 != 0) ratio = (ratio * 0xffe5caca7e10e4e61c3624eaa0941cd0) >> 128 */\n    tag_220:\n        /* \"@pancakeswap/v3-core/contracts/libraries/TickMath.sol\":2015:2016  0 */\n      0x00\n        /* \"@pancakeswap/v3-core/contracts/libraries/TickMath.sol\":2007:2011  0x10 */\n      0x10\n        /* \"@pancakeswap/v3-core/contracts/libraries/TickMath.sol\":1997:2004  absTick */\n      dup4\n        /* \"@pancakeswap/v3-core/contracts/libraries/TickMath.sol\":1997:2011  absTick & 0x10 */\n      and\n        /* \"@pancakeswap/v3-core/contracts/libraries/TickMath.sol\":1997:2016  absTick & 0x10 != 0 */\n      eq\n        /* \"@pancakeswap/v3-core/contracts/libraries/TickMath.sol\":1993:2077  if (absTick & 0x10 != 0) ratio = (ratio * 0xffcb9843d60f6159c9db58835c926644) >> 128 */\n      tag_221\n      jumpi\n        /* \"@pancakeswap/v3-core/contracts/libraries/TickMath.sol\":2074:2077  128 */\n      0x80\n        /* \"@pancakeswap/v3-core/contracts/libraries/TickMath.sol\":2035:2069  0xffcb9843d60f6159c9db58835c926644 */\n      0xffcb9843d60f6159c9db58835c926644\n        /* \"@pancakeswap/v3-core/contracts/libraries/TickMath.sol\":2027:2032  ratio */\n      dup3\n        /* \"@pancakeswap/v3-core/contracts/libraries/TickMath.sol\":2027:2069  ratio * 0xffcb9843d60f6159c9db58835c926644 */\n      mul\n        /* \"@pancakeswap/v3-core/contracts/libraries/TickMath.sol\":2026:2077  (ratio * 0xffcb9843d60f6159c9db58835c926644) >> 128 */\n      swap1\n      shr\n        /* \"@pancakeswap/v3-core/contracts/libraries/TickMath.sol\":2018:2077  ratio = (ratio * 0xffcb9843d60f6159c9db58835c926644) >> 128 */\n      swap1\n      pop\n        /* \"@pancakeswap/v3-core/contracts/libraries/TickMath.sol\":1993:2077  if (absTick & 0x10 != 0) ratio = (ratio * 0xffcb9843d60f6159c9db58835c926644) >> 128 */\n    tag_221:\n        /* \"@pancakeswap/v3-core/contracts/libraries/TickMath.sol\":2109:2110  0 */\n      0x00\n        /* \"@pancakeswap/v3-core/contracts/libraries/TickMath.sol\":2101:2105  0x20 */\n      0x20\n        /* \"@pancakeswap/v3-core/contracts/libraries/TickMath.sol\":2091:2098  absTick */\n      dup4\n        /* \"@pancakeswap/v3-core/contracts/libraries/TickMath.sol\":2091:2105  absTick & 0x20 */\n      and\n        /* \"@pancakeswap/v3-core/contracts/libraries/TickMath.sol\":2091:2110  absTick & 0x20 != 0 */\n      eq\n        /* \"@pancakeswap/v3-core/contracts/libraries/TickMath.sol\":2087:2171  if (absTick & 0x20 != 0) ratio = (ratio * 0xff973b41fa98c081472e6896dfb254c0) >> 128 */\n      tag_222\n      jumpi\n        /* \"@pancakeswap/v3-core/contracts/libraries/TickMath.sol\":2168:2171  128 */\n      0x80\n        /* \"@pancakeswap/v3-core/contracts/libraries/TickMath.sol\":2129:2163  0xff973b41fa98c081472e6896dfb254c0 */\n      0xff973b41fa98c081472e6896dfb254c0\n        /* \"@pancakeswap/v3-core/contracts/libraries/TickMath.sol\":2121:2126  ratio */\n      dup3\n        /* \"@pancakeswap/v3-core/contracts/libraries/TickMath.sol\":2121:2163  ratio * 0xff973b41fa98c081472e6896dfb254c0 */\n      mul\n        /* \"@pancakeswap/v3-core/contracts/libraries/TickMath.sol\":2120:2171  (ratio * 0xff973b41fa98c081472e6896dfb254c0) >> 128 */\n      swap1\n      shr\n        /* \"@pancakeswap/v3-core/contracts/libraries/TickMath.sol\":2112:2171  ratio = (ratio * 0xff973b41fa98c081472e6896dfb254c0) >> 128 */\n      swap1\n      pop\n        /* \"@pancakeswap/v3-core/contracts/libraries/TickMath.sol\":2087:2171  if (absTick & 0x20 != 0) ratio = (ratio * 0xff973b41fa98c081472e6896dfb254c0) >> 128 */\n    tag_222:\n        /* \"@pancakeswap/v3-core/contracts/libraries/TickMath.sol\":2203:2204  0 */\n      0x00\n        /* \"@pancakeswap/v3-core/contracts/libraries/TickMath.sol\":2195:2199  0x40 */\n      0x40\n        /* \"@pancakeswap/v3-core/contracts/libraries/TickMath.sol\":2185:2192  absTick */\n      dup4\n        /* \"@pancakeswap/v3-core/contracts/libraries/TickMath.sol\":2185:2199  absTick & 0x40 */\n      and\n        /* \"@pancakeswap/v3-core/contracts/libraries/TickMath.sol\":2185:2204  absTick & 0x40 != 0 */\n      eq\n        /* \"@pancakeswap/v3-core/contracts/libraries/TickMath.sol\":2181:2265  if (absTick & 0x40 != 0) ratio = (ratio * 0xff2ea16466c96a3843ec78b326b52861) >> 128 */\n      tag_223\n      jumpi\n        /* \"@pancakeswap/v3-core/contracts/libraries/TickMath.sol\":2262:2265  128 */\n      0x80\n        /* \"@pancakeswap/v3-core/contracts/libraries/TickMath.sol\":2223:2257  0xff2ea16466c96a3843ec78b326b52861 */\n      0xff2ea16466c96a3843ec78b326b52861\n        /* \"@pancakeswap/v3-core/contracts/libraries/TickMath.sol\":2215:2220  ratio */\n      dup3\n        /* \"@pancakeswap/v3-core/contracts/libraries/TickMath.sol\":2215:2257  ratio * 0xff2ea16466c96a3843ec78b326b52861 */\n      mul\n        /* \"@pancakeswap/v3-core/contracts/libraries/TickMath.sol\":2214:2265  (ratio * 0xff2ea16466c96a3843ec78b326b52861) >> 128 */\n      swap1\n      shr\n        /* \"@pancakeswap/v3-core/contracts/libraries/TickMath.sol\":2206:2265  ratio = (ratio * 0xff2ea16466c96a3843ec78b326b52861) >> 128 */\n      swap1\n      pop\n        /* \"@pancakeswap/v3-core/contracts/libraries/TickMath.sol\":2181:2265  if (absTick & 0x40 != 0) ratio = (ratio * 0xff2ea16466c96a3843ec78b326b52861) >> 128 */\n    tag_223:\n        /* \"@pancakeswap/v3-core/contracts/libraries/TickMath.sol\":2297:2298  0 */\n      0x00\n        /* \"@pancakeswap/v3-core/contracts/libraries/TickMath.sol\":2289:2293  0x80 */\n      0x80\n        /* \"@pancakeswap/v3-core/contracts/libraries/TickMath.sol\":2279:2286  absTick */\n      dup4\n        /* \"@pancakeswap/v3-core/contracts/libraries/TickMath.sol\":2279:2293  absTick & 0x80 */\n      and\n        /* \"@pancakeswap/v3-core/contracts/libraries/TickMath.sol\":2279:2298  absTick & 0x80 != 0 */\n      eq\n        /* \"@pancakeswap/v3-core/contracts/libraries/TickMath.sol\":2275:2359  if (absTick & 0x80 != 0) ratio = (ratio * 0xfe5dee046a99a2a811c461f1969c3053) >> 128 */\n      tag_224\n      jumpi\n        /* \"@pancakeswap/v3-core/contracts/libraries/TickMath.sol\":2356:2359  128 */\n      0x80\n        /* \"@pancakeswap/v3-core/contracts/libraries/TickMath.sol\":2317:2351  0xfe5dee046a99a2a811c461f1969c3053 */\n      0xfe5dee046a99a2a811c461f1969c3053\n        /* \"@pancakeswap/v3-core/contracts/libraries/TickMath.sol\":2309:2314  ratio */\n      dup3\n        /* \"@pancakeswap/v3-core/contracts/libraries/TickMath.sol\":2309:2351  ratio * 0xfe5dee046a99a2a811c461f1969c3053 */\n      mul\n        /* \"@pancakeswap/v3-core/contracts/libraries/TickMath.sol\":2308:2359  (ratio * 0xfe5dee046a99a2a811c461f1969c3053) >> 128 */\n      swap1\n      shr\n        /* \"@pancakeswap/v3-core/contracts/libraries/TickMath.sol\":2300:2359  ratio = (ratio * 0xfe5dee046a99a2a811c461f1969c3053) >> 128 */\n      swap1\n      pop\n        /* \"@pancakeswap/v3-core/contracts/libraries/TickMath.sol\":2275:2359  if (absTick & 0x80 != 0) ratio = (ratio * 0xfe5dee046a99a2a811c461f1969c3053) >> 128 */\n    tag_224:\n        /* \"@pancakeswap/v3-core/contracts/libraries/TickMath.sol\":2392:2393  0 */\n      0x00\n        /* \"@pancakeswap/v3-core/contracts/libraries/TickMath.sol\":2383:2388  0x100 */\n      0x0100\n        /* \"@pancakeswap/v3-core/contracts/libraries/TickMath.sol\":2373:2380  absTick */\n      dup4\n        /* \"@pancakeswap/v3-core/contracts/libraries/TickMath.sol\":2373:2388  absTick & 0x100 */\n      and\n        /* \"@pancakeswap/v3-core/contracts/libraries/TickMath.sol\":2373:2393  absTick & 0x100 != 0 */\n      eq\n        /* \"@pancakeswap/v3-core/contracts/libraries/TickMath.sol\":2369:2454  if (absTick & 0x100 != 0) ratio = (ratio * 0xfcbe86c7900a88aedcffc83b479aa3a4) >> 128 */\n      tag_225\n      jumpi\n        /* \"@pancakeswap/v3-core/contracts/libraries/TickMath.sol\":2451:2454  128 */\n      0x80\n        /* \"@pancakeswap/v3-core/contracts/libraries/TickMath.sol\":2412:2446  0xfcbe86c7900a88aedcffc83b479aa3a4 */\n      0xfcbe86c7900a88aedcffc83b479aa3a4\n        /* \"@pancakeswap/v3-core/contracts/libraries/TickMath.sol\":2404:2409  ratio */\n      dup3\n        /* \"@pancakeswap/v3-core/contracts/libraries/TickMath.sol\":2404:2446  ratio * 0xfcbe86c7900a88aedcffc83b479aa3a4 */\n      mul\n        /* \"@pancakeswap/v3-core/contracts/libraries/TickMath.sol\":2403:2454  (ratio * 0xfcbe86c7900a88aedcffc83b479aa3a4) >> 128 */\n      swap1\n      shr\n        /* \"@pancakeswap/v3-core/contracts/libraries/TickMath.sol\":2395:2454  ratio = (ratio * 0xfcbe86c7900a88aedcffc83b479aa3a4) >> 128 */\n      swap1\n      pop\n        /* \"@pancakeswap/v3-core/contracts/libraries/TickMath.sol\":2369:2454  if (absTick & 0x100 != 0) ratio = (ratio * 0xfcbe86c7900a88aedcffc83b479aa3a4) >> 128 */\n    tag_225:\n        /* \"@pancakeswap/v3-core/contracts/libraries/TickMath.sol\":2487:2488  0 */\n      0x00\n        /* \"@pancakeswap/v3-core/contracts/libraries/TickMath.sol\":2478:2483  0x200 */\n      0x0200\n        /* \"@pancakeswap/v3-core/contracts/libraries/TickMath.sol\":2468:2475  absTick */\n      dup4\n        /* \"@pancakeswap/v3-core/contracts/libraries/TickMath.sol\":2468:2483  absTick & 0x200 */\n      and\n        /* \"@pancakeswap/v3-core/contracts/libraries/TickMath.sol\":2468:2488  absTick & 0x200 != 0 */\n      eq\n        /* \"@pancakeswap/v3-core/contracts/libraries/TickMath.sol\":2464:2549  if (absTick & 0x200 != 0) ratio = (ratio * 0xf987a7253ac413176f2b074cf7815e54) >> 128 */\n      tag_226\n      jumpi\n        /* \"@pancakeswap/v3-core/contracts/libraries/TickMath.sol\":2546:2549  128 */\n      0x80\n        /* \"@pancakeswap/v3-core/contracts/libraries/TickMath.sol\":2507:2541  0xf987a7253ac413176f2b074cf7815e54 */\n      0xf987a7253ac413176f2b074cf7815e54\n        /* \"@pancakeswap/v3-core/contracts/libraries/TickMath.sol\":2499:2504  ratio */\n      dup3\n        /* \"@pancakeswap/v3-core/contracts/libraries/TickMath.sol\":2499:2541  ratio * 0xf987a7253ac413176f2b074cf7815e54 */\n      mul\n        /* \"@pancakeswap/v3-core/contracts/libraries/TickMath.sol\":2498:2549  (ratio * 0xf987a7253ac413176f2b074cf7815e54) >> 128 */\n      swap1\n      shr\n        /* \"@pancakeswap/v3-core/contracts/libraries/TickMath.sol\":2490:2549  ratio = (ratio * 0xf987a7253ac413176f2b074cf7815e54) >> 128 */\n      swap1\n      pop\n        /* \"@pancakeswap/v3-core/contracts/libraries/TickMath.sol\":2464:2549  if (absTick & 0x200 != 0) ratio = (ratio * 0xf987a7253ac413176f2b074cf7815e54) >> 128 */\n    tag_226:\n        /* \"@pancakeswap/v3-core/contracts/libraries/TickMath.sol\":2582:2583  0 */\n      0x00\n        /* \"@pancakeswap/v3-core/contracts/libraries/TickMath.sol\":2573:2578  0x400 */\n      0x0400\n        /* \"@pancakeswap/v3-core/contracts/libraries/TickMath.sol\":2563:2570  absTick */\n      dup4\n        /* \"@pancakeswap/v3-core/contracts/libraries/TickMath.sol\":2563:2578  absTick & 0x400 */\n      and\n        /* \"@pancakeswap/v3-core/contracts/libraries/TickMath.sol\":2563:2583  absTick & 0x400 != 0 */\n      eq\n        /* \"@pancakeswap/v3-core/contracts/libraries/TickMath.sol\":2559:2644  if (absTick & 0x400 != 0) ratio = (ratio * 0xf3392b0822b70005940c7a398e4b70f3) >> 128 */\n      tag_227\n      jumpi\n        /* \"@pancakeswap/v3-core/contracts/libraries/TickMath.sol\":2641:2644  128 */\n      0x80\n        /* \"@pancakeswap/v3-core/contracts/libraries/TickMath.sol\":2602:2636  0xf3392b0822b70005940c7a398e4b70f3 */\n      0xf3392b0822b70005940c7a398e4b70f3\n        /* \"@pancakeswap/v3-core/contracts/libraries/TickMath.sol\":2594:2599  ratio */\n      dup3\n        /* \"@pancakeswap/v3-core/contracts/libraries/TickMath.sol\":2594:2636  ratio * 0xf3392b0822b70005940c7a398e4b70f3 */\n      mul\n        /* \"@pancakeswap/v3-core/contracts/libraries/TickMath.sol\":2593:2644  (ratio * 0xf3392b0822b70005940c7a398e4b70f3) >> 128 */\n      swap1\n      shr\n        /* \"@pancakeswap/v3-core/contracts/libraries/TickMath.sol\":2585:2644  ratio = (ratio * 0xf3392b0822b70005940c7a398e4b70f3) >> 128 */\n      swap1\n      pop\n        /* \"@pancakeswap/v3-core/contracts/libraries/TickMath.sol\":2559:2644  if (absTick & 0x400 != 0) ratio = (ratio * 0xf3392b0822b70005940c7a398e4b70f3) >> 128 */\n    tag_227:\n        /* \"@pancakeswap/v3-core/contracts/libraries/TickMath.sol\":2677:2678  0 */\n      0x00\n        /* \"@pancakeswap/v3-core/contracts/libraries/TickMath.sol\":2668:2673  0x800 */\n      0x0800\n        /* \"@pancakeswap/v3-core/contracts/libraries/TickMath.sol\":2658:2665  absTick */\n      dup4\n        /* \"@pancakeswap/v3-core/contracts/libraries/TickMath.sol\":2658:2673  absTick & 0x800 */\n      and\n        /* \"@pancakeswap/v3-core/contracts/libraries/TickMath.sol\":2658:2678  absTick & 0x800 != 0 */\n      eq\n        /* \"@pancakeswap/v3-core/contracts/libraries/TickMath.sol\":2654:2739  if (absTick & 0x800 != 0) ratio = (ratio * 0xe7159475a2c29b7443b29c7fa6e889d9) >> 128 */\n      tag_228\n      jumpi\n        /* \"@pancakeswap/v3-core/contracts/libraries/TickMath.sol\":2736:2739  128 */\n      0x80\n        /* \"@pancakeswap/v3-core/contracts/libraries/TickMath.sol\":2697:2731  0xe7159475a2c29b7443b29c7fa6e889d9 */\n      0xe7159475a2c29b7443b29c7fa6e889d9\n        /* \"@pancakeswap/v3-core/contracts/libraries/TickMath.sol\":2689:2694  ratio */\n      dup3\n        /* \"@pancakeswap/v3-core/contracts/libraries/TickMath.sol\":2689:2731  ratio * 0xe7159475a2c29b7443b29c7fa6e889d9 */\n      mul\n        /* \"@pancakeswap/v3-core/contracts/libraries/TickMath.sol\":2688:2739  (ratio * 0xe7159475a2c29b7443b29c7fa6e889d9) >> 128 */\n      swap1\n      shr\n        /* \"@pancakeswap/v3-core/contracts/libraries/TickMath.sol\":2680:2739  ratio = (ratio * 0xe7159475a2c29b7443b29c7fa6e889d9) >> 128 */\n      swap1\n      pop\n        /* \"@pancakeswap/v3-core/contracts/libraries/TickMath.sol\":2654:2739  if (absTick & 0x800 != 0) ratio = (ratio * 0xe7159475a2c29b7443b29c7fa6e889d9) >> 128 */\n    tag_228:\n        /* \"@pancakeswap/v3-core/contracts/libraries/TickMath.sol\":2773:2774  0 */\n      0x00\n        /* \"@pancakeswap/v3-core/contracts/libraries/TickMath.sol\":2763:2769  0x1000 */\n      0x1000\n        /* \"@pancakeswap/v3-core/contracts/libraries/TickMath.sol\":2753:2760  absTick */\n      dup4\n        /* \"@pancakeswap/v3-core/contracts/libraries/TickMath.sol\":2753:2769  absTick & 0x1000 */\n      and\n        /* \"@pancakeswap/v3-core/contracts/libraries/TickMath.sol\":2753:2774  absTick & 0x1000 != 0 */\n      eq\n        /* \"@pancakeswap/v3-core/contracts/libraries/TickMath.sol\":2749:2835  if (absTick & 0x1000 != 0) ratio = (ratio * 0xd097f3bdfd2022b8845ad8f792aa5825) >> 128 */\n      tag_229\n      jumpi\n        /* \"@pancakeswap/v3-core/contracts/libraries/TickMath.sol\":2832:2835  128 */\n      0x80\n        /* \"@pancakeswap/v3-core/contracts/libraries/TickMath.sol\":2793:2827  0xd097f3bdfd2022b8845ad8f792aa5825 */\n      0xd097f3bdfd2022b8845ad8f792aa5825\n        /* \"@pancakeswap/v3-core/contracts/libraries/TickMath.sol\":2785:2790  ratio */\n      dup3\n        /* \"@pancakeswap/v3-core/contracts/libraries/TickMath.sol\":2785:2827  ratio * 0xd097f3bdfd2022b8845ad8f792aa5825 */\n      mul\n        /* \"@pancakeswap/v3-core/contracts/libraries/TickMath.sol\":2784:2835  (ratio * 0xd097f3bdfd2022b8845ad8f792aa5825) >> 128 */\n      swap1\n      shr\n        /* \"@pancakeswap/v3-core/contracts/libraries/TickMath.sol\":2776:2835  ratio = (ratio * 0xd097f3bdfd2022b8845ad8f792aa5825) >> 128 */\n      swap1\n      pop\n        /* \"@pancakeswap/v3-core/contracts/libraries/TickMath.sol\":2749:2835  if (absTick & 0x1000 != 0) ratio = (ratio * 0xd097f3bdfd2022b8845ad8f792aa5825) >> 128 */\n    tag_229:\n        /* \"@pancakeswap/v3-core/contracts/libraries/TickMath.sol\":2869:2870  0 */\n      0x00\n        /* \"@pancakeswap/v3-core/contracts/libraries/TickMath.sol\":2859:2865  0x2000 */\n      0x2000\n        /* \"@pancakeswap/v3-core/contracts/libraries/TickMath.sol\":2849:2856  absTick */\n      dup4\n        /* \"@pancakeswap/v3-core/contracts/libraries/TickMath.sol\":2849:2865  absTick & 0x2000 */\n      and\n        /* \"@pancakeswap/v3-core/contracts/libraries/TickMath.sol\":2849:2870  absTick & 0x2000 != 0 */\n      eq\n        /* \"@pancakeswap/v3-core/contracts/libraries/TickMath.sol\":2845:2931  if (absTick & 0x2000 != 0) ratio = (ratio * 0xa9f746462d870fdf8a65dc1f90e061e5) >> 128 */\n      tag_230\n      jumpi\n        /* \"@pancakeswap/v3-core/contracts/libraries/TickMath.sol\":2928:2931  128 */\n      0x80\n        /* \"@pancakeswap/v3-core/contracts/libraries/TickMath.sol\":2889:2923  0xa9f746462d870fdf8a65dc1f90e061e5 */\n      0xa9f746462d870fdf8a65dc1f90e061e5\n        /* \"@pancakeswap/v3-core/contracts/libraries/TickMath.sol\":2881:2886  ratio */\n      dup3\n        /* \"@pancakeswap/v3-core/contracts/libraries/TickMath.sol\":2881:2923  ratio * 0xa9f746462d870fdf8a65dc1f90e061e5 */\n      mul\n        /* \"@pancakeswap/v3-core/contracts/libraries/TickMath.sol\":2880:2931  (ratio * 0xa9f746462d870fdf8a65dc1f90e061e5) >> 128 */\n      swap1\n      shr\n        /* \"@pancakeswap/v3-core/contracts/libraries/TickMath.sol\":2872:2931  ratio = (ratio * 0xa9f746462d870fdf8a65dc1f90e061e5) >> 128 */\n      swap1\n      pop\n        /* \"@pancakeswap/v3-core/contracts/libraries/TickMath.sol\":2845:2931  if (absTick & 0x2000 != 0) ratio = (ratio * 0xa9f746462d870fdf8a65dc1f90e061e5) >> 128 */\n    tag_230:\n        /* \"@pancakeswap/v3-core/contracts/libraries/TickMath.sol\":2965:2966  0 */\n      0x00\n        /* \"@pancakeswap/v3-core/contracts/libraries/TickMath.sol\":2955:2961  0x4000 */\n      0x4000\n        /* \"@pancakeswap/v3-core/contracts/libraries/TickMath.sol\":2945:2952  absTick */\n      dup4\n        /* \"@pancakeswap/v3-core/contracts/libraries/TickMath.sol\":2945:2961  absTick & 0x4000 */\n      and\n        /* \"@pancakeswap/v3-core/contracts/libraries/TickMath.sol\":2945:2966  absTick & 0x4000 != 0 */\n      eq\n        /* \"@pancakeswap/v3-core/contracts/libraries/TickMath.sol\":2941:3027  if (absTick & 0x4000 != 0) ratio = (ratio * 0x70d869a156d2a1b890bb3df62baf32f7) >> 128 */\n      tag_231\n      jumpi\n        /* \"@pancakeswap/v3-core/contracts/libraries/TickMath.sol\":3024:3027  128 */\n      0x80\n        /* \"@pancakeswap/v3-core/contracts/libraries/TickMath.sol\":2985:3019  0x70d869a156d2a1b890bb3df62baf32f7 */\n      0x70d869a156d2a1b890bb3df62baf32f7\n        /* \"@pancakeswap/v3-core/contracts/libraries/TickMath.sol\":2977:2982  ratio */\n      dup3\n        /* \"@pancakeswap/v3-core/contracts/libraries/TickMath.sol\":2977:3019  ratio * 0x70d869a156d2a1b890bb3df62baf32f7 */\n      mul\n        /* \"@pancakeswap/v3-core/contracts/libraries/TickMath.sol\":2976:3027  (ratio * 0x70d869a156d2a1b890bb3df62baf32f7) >> 128 */\n      swap1\n      shr\n        /* \"@pancakeswap/v3-core/contracts/libraries/TickMath.sol\":2968:3027  ratio = (ratio * 0x70d869a156d2a1b890bb3df62baf32f7) >> 128 */\n      swap1\n      pop\n        /* \"@pancakeswap/v3-core/contracts/libraries/TickMath.sol\":2941:3027  if (absTick & 0x4000 != 0) ratio = (ratio * 0x70d869a156d2a1b890bb3df62baf32f7) >> 128 */\n    tag_231:\n        /* \"@pancakeswap/v3-core/contracts/libraries/TickMath.sol\":3061:3062  0 */\n      0x00\n        /* \"@pancakeswap/v3-core/contracts/libraries/TickMath.sol\":3051:3057  0x8000 */\n      0x8000\n        /* \"@pancakeswap/v3-core/contracts/libraries/TickMath.sol\":3041:3048  absTick */\n      dup4\n        /* \"@pancakeswap/v3-core/contracts/libraries/TickMath.sol\":3041:3057  absTick & 0x8000 */\n      and\n        /* \"@pancakeswap/v3-core/contracts/libraries/TickMath.sol\":3041:3062  absTick & 0x8000 != 0 */\n      eq\n        /* \"@pancakeswap/v3-core/contracts/libraries/TickMath.sol\":3037:3123  if (absTick & 0x8000 != 0) ratio = (ratio * 0x31be135f97d08fd981231505542fcfa6) >> 128 */\n      tag_232\n      jumpi\n        /* \"@pancakeswap/v3-core/contracts/libraries/TickMath.sol\":3120:3123  128 */\n      0x80\n        /* \"@pancakeswap/v3-core/contracts/libraries/TickMath.sol\":3081:3115  0x31be135f97d08fd981231505542fcfa6 */\n      0x31be135f97d08fd981231505542fcfa6\n        /* \"@pancakeswap/v3-core/contracts/libraries/TickMath.sol\":3073:3078  ratio */\n      dup3\n        /* \"@pancakeswap/v3-core/contracts/libraries/TickMath.sol\":3073:3115  ratio * 0x31be135f97d08fd981231505542fcfa6 */\n      mul\n        /* \"@pancakeswap/v3-core/contracts/libraries/TickMath.sol\":3072:3123  (ratio * 0x31be135f97d08fd981231505542fcfa6) >> 128 */\n      swap1\n      shr\n        /* \"@pancakeswap/v3-core/contracts/libraries/TickMath.sol\":3064:3123  ratio = (ratio * 0x31be135f97d08fd981231505542fcfa6) >> 128 */\n      swap1\n      pop\n        /* \"@pancakeswap/v3-core/contracts/libraries/TickMath.sol\":3037:3123  if (absTick & 0x8000 != 0) ratio = (ratio * 0x31be135f97d08fd981231505542fcfa6) >> 128 */\n    tag_232:\n        /* \"@pancakeswap/v3-core/contracts/libraries/TickMath.sol\":3158:3159  0 */\n      0x00\n        /* \"@pancakeswap/v3-core/contracts/libraries/TickMath.sol\":3147:3154  0x10000 */\n      0x010000\n        /* \"@pancakeswap/v3-core/contracts/libraries/TickMath.sol\":3137:3144  absTick */\n      dup4\n        /* \"@pancakeswap/v3-core/contracts/libraries/TickMath.sol\":3137:3154  absTick & 0x10000 */\n      and\n        /* \"@pancakeswap/v3-core/contracts/libraries/TickMath.sol\":3137:3159  absTick & 0x10000 != 0 */\n      eq\n        /* \"@pancakeswap/v3-core/contracts/libraries/TickMath.sol\":3133:3219  if (absTick & 0x10000 != 0) ratio = (ratio * 0x9aa508b5b7a84e1c677de54f3e99bc9) >> 128 */\n      tag_233\n      jumpi\n        /* \"@pancakeswap/v3-core/contracts/libraries/TickMath.sol\":3216:3219  128 */\n      0x80\n        /* \"@pancakeswap/v3-core/contracts/libraries/TickMath.sol\":3178:3211  0x9aa508b5b7a84e1c677de54f3e99bc9 */\n      0x09aa508b5b7a84e1c677de54f3e99bc9\n        /* \"@pancakeswap/v3-core/contracts/libraries/TickMath.sol\":3170:3175  ratio */\n      dup3\n        /* \"@pancakeswap/v3-core/contracts/libraries/TickMath.sol\":3170:3211  ratio * 0x9aa508b5b7a84e1c677de54f3e99bc9 */\n      mul\n        /* \"@pancakeswap/v3-core/contracts/libraries/TickMath.sol\":3169:3219  (ratio * 0x9aa508b5b7a84e1c677de54f3e99bc9) >> 128 */\n      swap1\n      shr\n        /* \"@pancakeswap/v3-core/contracts/libraries/TickMath.sol\":3161:3219  ratio = (ratio * 0x9aa508b5b7a84e1c677de54f3e99bc9) >> 128 */\n      swap1\n      pop\n        /* \"@pancakeswap/v3-core/contracts/libraries/TickMath.sol\":3133:3219  if (absTick & 0x10000 != 0) ratio = (ratio * 0x9aa508b5b7a84e1c677de54f3e99bc9) >> 128 */\n    tag_233:\n        /* \"@pancakeswap/v3-core/contracts/libraries/TickMath.sol\":3254:3255  0 */\n      0x00\n        /* \"@pancakeswap/v3-core/contracts/libraries/TickMath.sol\":3243:3250  0x20000 */\n      0x020000\n        /* \"@pancakeswap/v3-core/contracts/libraries/TickMath.sol\":3233:3240  absTick */\n      dup4\n        /* \"@pancakeswap/v3-core/contracts/libraries/TickMath.sol\":3233:3250  absTick & 0x20000 */\n      and\n        /* \"@pancakeswap/v3-core/contracts/libraries/TickMath.sol\":3233:3255  absTick & 0x20000 != 0 */\n      eq\n        /* \"@pancakeswap/v3-core/contracts/libraries/TickMath.sol\":3229:3314  if (absTick & 0x20000 != 0) ratio = (ratio * 0x5d6af8dedb81196699c329225ee604) >> 128 */\n      tag_234\n      jumpi\n        /* \"@pancakeswap/v3-core/contracts/libraries/TickMath.sol\":3311:3314  128 */\n      0x80\n        /* \"@pancakeswap/v3-core/contracts/libraries/TickMath.sol\":3274:3306  0x5d6af8dedb81196699c329225ee604 */\n      0x5d6af8dedb81196699c329225ee604\n        /* \"@pancakeswap/v3-core/contracts/libraries/TickMath.sol\":3266:3271  ratio */\n      dup3\n        /* \"@pancakeswap/v3-core/contracts/libraries/TickMath.sol\":3266:3306  ratio * 0x5d6af8dedb81196699c329225ee604 */\n      mul\n        /* \"@pancakeswap/v3-core/contracts/libraries/TickMath.sol\":3265:3314  (ratio * 0x5d6af8dedb81196699c329225ee604) >> 128 */\n      swap1\n      shr\n        /* \"@pancakeswap/v3-core/contracts/libraries/TickMath.sol\":3257:3314  ratio = (ratio * 0x5d6af8dedb81196699c329225ee604) >> 128 */\n      swap1\n      pop\n        /* \"@pancakeswap/v3-core/contracts/libraries/TickMath.sol\":3229:3314  if (absTick & 0x20000 != 0) ratio = (ratio * 0x5d6af8dedb81196699c329225ee604) >> 128 */\n    tag_234:\n        /* \"@pancakeswap/v3-core/contracts/libraries/TickMath.sol\":3349:3350  0 */\n      0x00\n        /* \"@pancakeswap/v3-core/contracts/libraries/TickMath.sol\":3338:3345  0x40000 */\n      0x040000\n        /* \"@pancakeswap/v3-core/contracts/libraries/TickMath.sol\":3328:3335  absTick */\n      dup4\n        /* \"@pancakeswap/v3-core/contracts/libraries/TickMath.sol\":3328:3345  absTick & 0x40000 */\n      and\n        /* \"@pancakeswap/v3-core/contracts/libraries/TickMath.sol\":3328:3350  absTick & 0x40000 != 0 */\n      eq\n        /* \"@pancakeswap/v3-core/contracts/libraries/TickMath.sol\":3324:3407  if (absTick & 0x40000 != 0) ratio = (ratio * 0x2216e584f5fa1ea926041bedfe98) >> 128 */\n      tag_235\n      jumpi\n        /* \"@pancakeswap/v3-core/contracts/libraries/TickMath.sol\":3404:3407  128 */\n      0x80\n        /* \"@pancakeswap/v3-core/contracts/libraries/TickMath.sol\":3369:3399  0x2216e584f5fa1ea926041bedfe98 */\n      0x2216e584f5fa1ea926041bedfe98\n        /* \"@pancakeswap/v3-core/contracts/libraries/TickMath.sol\":3361:3366  ratio */\n      dup3\n        /* \"@pancakeswap/v3-core/contracts/libraries/TickMath.sol\":3361:3399  ratio * 0x2216e584f5fa1ea926041bedfe98 */\n      mul\n        /* \"@pancakeswap/v3-core/contracts/libraries/TickMath.sol\":3360:3407  (ratio * 0x2216e584f5fa1ea926041bedfe98) >> 128 */\n      swap1\n      shr\n        /* \"@pancakeswap/v3-core/contracts/libraries/TickMath.sol\":3352:3407  ratio = (ratio * 0x2216e584f5fa1ea926041bedfe98) >> 128 */\n      swap1\n      pop\n        /* \"@pancakeswap/v3-core/contracts/libraries/TickMath.sol\":3324:3407  if (absTick & 0x40000 != 0) ratio = (ratio * 0x2216e584f5fa1ea926041bedfe98) >> 128 */\n    tag_235:\n        /* \"@pancakeswap/v3-core/contracts/libraries/TickMath.sol\":3442:3443  0 */\n      0x00\n        /* \"@pancakeswap/v3-core/contracts/libraries/TickMath.sol\":3431:3438  0x80000 */\n      0x080000\n        /* \"@pancakeswap/v3-core/contracts/libraries/TickMath.sol\":3421:3428  absTick */\n      dup4\n        /* \"@pancakeswap/v3-core/contracts/libraries/TickMath.sol\":3421:3438  absTick & 0x80000 */\n      and\n        /* \"@pancakeswap/v3-core/contracts/libraries/TickMath.sol\":3421:3443  absTick & 0x80000 != 0 */\n      eq\n        /* \"@pancakeswap/v3-core/contracts/libraries/TickMath.sol\":3417:3495  if (absTick & 0x80000 != 0) ratio = (ratio * 0x48a170391f7dc42444e8fa2) >> 128 */\n      tag_236\n      jumpi\n        /* \"@pancakeswap/v3-core/contracts/libraries/TickMath.sol\":3492:3495  128 */\n      0x80\n        /* \"@pancakeswap/v3-core/contracts/libraries/TickMath.sol\":3462:3487  0x48a170391f7dc42444e8fa2 */\n      0x048a170391f7dc42444e8fa2\n        /* \"@pancakeswap/v3-core/contracts/libraries/TickMath.sol\":3454:3459  ratio */\n      dup3\n        /* \"@pancakeswap/v3-core/contracts/libraries/TickMath.sol\":3454:3487  ratio * 0x48a170391f7dc42444e8fa2 */\n      mul\n        /* \"@pancakeswap/v3-core/contracts/libraries/TickMath.sol\":3453:3495  (ratio * 0x48a170391f7dc42444e8fa2) >> 128 */\n      swap1\n      shr\n        /* \"@pancakeswap/v3-core/contracts/libraries/TickMath.sol\":3445:3495  ratio = (ratio * 0x48a170391f7dc42444e8fa2) >> 128 */\n      swap1\n      pop\n        /* \"@pancakeswap/v3-core/contracts/libraries/TickMath.sol\":3417:3495  if (absTick & 0x80000 != 0) ratio = (ratio * 0x48a170391f7dc42444e8fa2) >> 128 */\n    tag_236:\n        /* \"@pancakeswap/v3-core/contracts/libraries/TickMath.sol\":3517:3518  0 */\n      0x00\n        /* \"@pancakeswap/v3-core/contracts/libraries/TickMath.sol\":3510:3514  tick */\n      dup5\n        /* \"@pancakeswap/v3-core/contracts/libraries/TickMath.sol\":3510:3518  tick > 0 */\n      0x02\n      signextend\n      sgt\n        /* \"@pancakeswap/v3-core/contracts/libraries/TickMath.sol\":3506:3553  if (tick > 0) ratio = type(uint256).max / ratio */\n      iszero\n      tag_237\n      jumpi\n        /* \"@pancakeswap/v3-core/contracts/libraries/TickMath.sol\":3548:3553  ratio */\n      dup1\n        /* \"@pancakeswap/v3-core/contracts/libraries/TickMath.sol\":3528:3545  type(uint256).max */\n      0xffffffffffffffffffffffffffffffffffffffffffffffffffffffffffffffff\n        /* \"@pancakeswap/v3-core/contracts/libraries/TickMath.sol\":3528:3553  type(uint256).max / ratio */\n      dup2\n      tag_238\n      jumpi\n      invalid\n    tag_238:\n      div\n        /* \"@pancakeswap/v3-core/contracts/libraries/TickMath.sol\":3520:3553  ratio = type(uint256).max / ratio */\n      swap1\n      pop\n        /* \"@pancakeswap/v3-core/contracts/libraries/TickMath.sol\":3506:3553  if (tick > 0) ratio = type(uint256).max / ratio */\n    tag_237:\n        /* \"@pancakeswap/v3-core/contracts/libraries/TickMath.sol\":3924:3925  0 */\n      0x00\n        /* \"@pancakeswap/v3-core/contracts/libraries/TickMath.sol\":3912:3919  1 << 32 */\n      0x0100000000\n        /* \"@pancakeswap/v3-core/contracts/libraries/TickMath.sol\":3903:3908  ratio */\n      dup3\n        /* \"@pancakeswap/v3-core/contracts/libraries/TickMath.sol\":3903:3920  ratio % (1 << 32) */\n      dup2\n      tag_239\n      jumpi\n      invalid\n    tag_239:\n      mod\n        /* \"@pancakeswap/v3-core/contracts/libraries/TickMath.sol\":3903:3925  ratio % (1 << 32) == 0 */\n      eq\n        /* \"@pancakeswap/v3-core/contracts/libraries/TickMath.sol\":3903:3933  ratio % (1 << 32) == 0 ? 0 : 1 */\n      tag_240\n      jumpi\n        /* \"@pancakeswap/v3-core/contracts/libraries/TickMath.sol\":3932:3933  1 */\n      0x01\n        /* \"@pancakeswap/v3-core/contracts/libraries/TickMath.sol\":3903:3933  ratio % (1 << 32) == 0 ? 0 : 1 */\n      jump(tag_241)\n    tag_240:\n        /* \"@pancakeswap/v3-core/contracts/libraries/TickMath.sol\":3928:3929  0 */\n      0x00\n        /* \"@pancakeswap/v3-core/contracts/libraries/TickMath.sol\":3903:3933  ratio % (1 << 32) == 0 ? 0 : 1 */\n    tag_241:\n        /* \"@pancakeswap/v3-core/contracts/libraries/TickMath.sol\":3886:3934  (ratio >> 32) + (ratio % (1 << 32) == 0 ? 0 : 1) */\n      0xff\n      and\n        /* \"@pancakeswap/v3-core/contracts/libraries/TickMath.sol\":3896:3898  32 */\n      0x20\n        /* \"@pancakeswap/v3-core/contracts/libraries/TickMath.sol\":3887:3892  ratio */\n      dup3\n        /* \"@pancakeswap/v3-core/contracts/libraries/TickMath.sol\":3887:3898  ratio >> 32 */\n      swap1\n      shr\n        /* \"@pancakeswap/v3-core/contracts/libraries/TickMath.sol\":3886:3934  (ratio >> 32) + (ratio % (1 << 32) == 0 ? 0 : 1) */\n      add\n        /* \"@pancakeswap/v3-core/contracts/libraries/TickMath.sol\":3863:3935  sqrtPriceX96 = uint160((ratio >> 32) + (ratio % (1 << 32) == 0 ? 0 : 1)) */\n      swap3\n      pop\n        /* \"@pancakeswap/v3-core/contracts/libraries/TickMath.sol\":1362:3942  function getSqrtRatioAtTick(int24 tick) internal pure returns (uint160 sqrtPriceX96) {... */\n      pop\n      pop\n      swap2\n      swap1\n      pop\n      jump\t// out\n        /* \"@pancakeswap/v3-core/contracts/libraries/FullMath.sol\":762:4538  function mulDiv(... */\n    tag_203:\n        /* \"@pancakeswap/v3-core/contracts/libraries/FullMath.sol\":874:888  uint256 result */\n      0x00\n        /* \"@pancakeswap/v3-core/contracts/libraries/FullMath.sol\":1203:1216  uint256 prod0 */\n      dup1\n        /* \"@pancakeswap/v3-core/contracts/libraries/FullMath.sol\":1271:1284  uint256 prod1 */\n      0x00\n        /* \"@pancakeswap/v3-core/contracts/libraries/FullMath.sol\":1388:1389  0 */\n      dup1\n        /* \"@pancakeswap/v3-core/contracts/libraries/FullMath.sol\":1384:1390  not(0) */\n      not\n        /* \"@pancakeswap/v3-core/contracts/libraries/FullMath.sol\":1381:1382  b */\n      dup6\n        /* \"@pancakeswap/v3-core/contracts/libraries/FullMath.sol\":1378:1379  a */\n      dup8\n        /* \"@pancakeswap/v3-core/contracts/libraries/FullMath.sol\":1371:1391  mulmod(a, b, not(0)) */\n      mulmod\n        /* \"@pancakeswap/v3-core/contracts/libraries/FullMath.sol\":1420:1421  b */\n      dup6\n        /* \"@pancakeswap/v3-core/contracts/libraries/FullMath.sol\":1417:1418  a */\n      dup8\n        /* \"@pancakeswap/v3-core/contracts/libraries/FullMath.sol\":1413:1422  mul(a, b) */\n      mul\n        /* \"@pancakeswap/v3-core/contracts/libraries/FullMath.sol\":1404:1422  prod0 := mul(a, b) */\n      swap3\n      pop\n        /* \"@pancakeswap/v3-core/contracts/libraries/FullMath.sol\":1471:1476  prod0 */\n      dup3\n        /* \"@pancakeswap/v3-core/contracts/libraries/FullMath.sol\":1467:1469  mm */\n      dup2\n        /* \"@pancakeswap/v3-core/contracts/libraries/FullMath.sol\":1464:1477  lt(mm, prod0) */\n      lt\n        /* \"@pancakeswap/v3-core/contracts/libraries/FullMath.sol\":1456:1461  prod0 */\n      dup4\n        /* \"@pancakeswap/v3-core/contracts/libraries/FullMath.sol\":1452:1454  mm */\n      dup3\n        /* \"@pancakeswap/v3-core/contracts/libraries/FullMath.sol\":1448:1462  sub(mm, prod0) */\n      sub\n        /* \"@pancakeswap/v3-core/contracts/libraries/FullMath.sol\":1444:1478  sub(sub(mm, prod0), lt(mm, prod0)) */\n      sub\n        /* \"@pancakeswap/v3-core/contracts/libraries/FullMath.sol\":1435:1478  prod1 := sub(sub(mm, prod0), lt(mm, prod0)) */\n      swap2\n      pop\n        /* \"@pancakeswap/v3-core/contracts/libraries/FullMath.sol\":1347:1488  {... */\n      pop\n        /* \"@pancakeswap/v3-core/contracts/libraries/FullMath.sol\":1569:1570  0 */\n      0x00\n        /* \"@pancakeswap/v3-core/contracts/libraries/FullMath.sol\":1560:1565  prod1 */\n      dup2\n        /* \"@pancakeswap/v3-core/contracts/libraries/FullMath.sol\":1560:1570  prod1 == 0 */\n      eq\n        /* \"@pancakeswap/v3-core/contracts/libraries/FullMath.sol\":1556:1735  if (prod1 == 0) {... */\n      iszero\n      tag_243\n      jumpi\n        /* \"@pancakeswap/v3-core/contracts/libraries/FullMath.sol\":1608:1609  0 */\n      0x00\n        /* \"@pancakeswap/v3-core/contracts/libraries/FullMath.sol\":1594:1605  denominator */\n      dup5\n        /* \"@pancakeswap/v3-core/contracts/libraries/FullMath.sol\":1594:1609  denominator > 0 */\n      gt\n        /* \"@pancakeswap/v3-core/contracts/libraries/FullMath.sol\":1586:1610  require(denominator > 0) */\n      tag_244\n      jumpi\n      0x00\n      dup1\n      revert\n    tag_244:\n        /* \"@pancakeswap/v3-core/contracts/libraries/FullMath.sol\":1672:1683  denominator */\n      dup4\n        /* \"@pancakeswap/v3-core/contracts/libraries/FullMath.sol\":1665:1670  prod0 */\n      dup3\n        /* \"@pancakeswap/v3-core/contracts/libraries/FullMath.sol\":1661:1684  div(prod0, denominator) */\n      div\n        /* \"@pancakeswap/v3-core/contracts/libraries/FullMath.sol\":1651:1684  result := div(prod0, denominator) */\n      swap3\n      pop\n        /* \"@pancakeswap/v3-core/contracts/libraries/FullMath.sol\":1711:1724  return result */\n      pop\n      pop\n      jump(tag_242)\n        /* \"@pancakeswap/v3-core/contracts/libraries/FullMath.sol\":1556:1735  if (prod1 == 0) {... */\n    tag_243:\n        /* \"@pancakeswap/v3-core/contracts/libraries/FullMath.sol\":1862:1867  prod1 */\n      dup1\n        /* \"@pancakeswap/v3-core/contracts/libraries/FullMath.sol\":1848:1859  denominator */\n      dup5\n        /* \"@pancakeswap/v3-core/contracts/libraries/FullMath.sol\":1848:1867  denominator > prod1 */\n      gt\n        /* \"@pancakeswap/v3-core/contracts/libraries/FullMath.sol\":1840:1868  require(denominator > prod1) */\n      tag_245\n      jumpi\n      0x00\n      dup1\n      revert\n    tag_245:\n        /* \"@pancakeswap/v3-core/contracts/libraries/FullMath.sol\":2145:2162  uint256 remainder */\n      0x00\n        /* \"@pancakeswap/v3-core/contracts/libraries/FullMath.sol\":2221:2232  denominator */\n      dup5\n        /* \"@pancakeswap/v3-core/contracts/libraries/FullMath.sol\":2218:2219  b */\n      dup7\n        /* \"@pancakeswap/v3-core/contracts/libraries/FullMath.sol\":2215:2216  a */\n      dup9\n        /* \"@pancakeswap/v3-core/contracts/libraries/FullMath.sol\":2208:2233  mulmod(a, b, denominator) */\n      mulmod\n        /* \"@pancakeswap/v3-core/contracts/libraries/FullMath.sol\":2195:2233  remainder := mulmod(a, b, denominator) */\n      swap1\n      pop\n        /* \"@pancakeswap/v3-core/contracts/libraries/FullMath.sol\":2364:2369  prod0 */\n      dup3\n        /* \"@pancakeswap/v3-core/contracts/libraries/FullMath.sol\":2353:2362  remainder */\n      dup2\n        /* \"@pancakeswap/v3-core/contracts/libraries/FullMath.sol\":2350:2370  gt(remainder, prod0) */\n      gt\n        /* \"@pancakeswap/v3-core/contracts/libraries/FullMath.sol\":2343:2348  prod1 */\n      dup3\n        /* \"@pancakeswap/v3-core/contracts/libraries/FullMath.sol\":2339:2371  sub(prod1, gt(remainder, prod0)) */\n      sub\n        /* \"@pancakeswap/v3-core/contracts/libraries/FullMath.sol\":2330:2371  prod1 := sub(prod1, gt(remainder, prod0)) */\n      swap2\n      pop\n        /* \"@pancakeswap/v3-core/contracts/libraries/FullMath.sol\":2404:2413  remainder */\n      dup1\n        /* \"@pancakeswap/v3-core/contracts/libraries/FullMath.sol\":2397:2402  prod0 */\n      dup4\n        /* \"@pancakeswap/v3-core/contracts/libraries/FullMath.sol\":2393:2414  sub(prod0, remainder) */\n      sub\n        /* \"@pancakeswap/v3-core/contracts/libraries/FullMath.sol\":2384:2414  prod0 := sub(prod0, remainder) */\n      swap3\n      pop\n        /* \"@pancakeswap/v3-core/contracts/libraries/FullMath.sol\":2573:2585  uint256 twos */\n      0x00\n        /* \"@pancakeswap/v3-core/contracts/libraries/FullMath.sol\":2603:2614  denominator */\n      dup6\n        /* \"@pancakeswap/v3-core/contracts/libraries/FullMath.sol\":2589:2600  denominator */\n      dup7\n        /* \"@pancakeswap/v3-core/contracts/libraries/FullMath.sol\":2588:2600  -denominator */\n      0x00\n      sub\n        /* \"@pancakeswap/v3-core/contracts/libraries/FullMath.sol\":2588:2614  -denominator & denominator */\n      and\n        /* \"@pancakeswap/v3-core/contracts/libraries/FullMath.sol\":2573:2614  uint256 twos = -denominator & denominator */\n      swap1\n      pop\n        /* \"@pancakeswap/v3-core/contracts/libraries/FullMath.sol\":2725:2729  twos */\n      dup1\n        /* \"@pancakeswap/v3-core/contracts/libraries/FullMath.sol\":2712:2723  denominator */\n      dup7\n        /* \"@pancakeswap/v3-core/contracts/libraries/FullMath.sol\":2708:2730  div(denominator, twos) */\n      div\n        /* \"@pancakeswap/v3-core/contracts/libraries/FullMath.sol\":2693:2730  denominator := div(denominator, twos) */\n      swap6\n      pop\n        /* \"@pancakeswap/v3-core/contracts/libraries/FullMath.sol\":2847:2851  twos */\n      dup1\n        /* \"@pancakeswap/v3-core/contracts/libraries/FullMath.sol\":2840:2845  prod0 */\n      dup5\n        /* \"@pancakeswap/v3-core/contracts/libraries/FullMath.sol\":2836:2852  div(prod0, twos) */\n      div\n        /* \"@pancakeswap/v3-core/contracts/libraries/FullMath.sol\":2827:2852  prod0 := div(prod0, twos) */\n      swap4\n      pop\n        /* \"@pancakeswap/v3-core/contracts/libraries/FullMath.sol\":3101:3102  1 */\n      0x01\n        /* \"@pancakeswap/v3-core/contracts/libraries/FullMath.sol\":3094:3098  twos */\n      dup2\n        /* \"@pancakeswap/v3-core/contracts/libraries/FullMath.sol\":3087:3091  twos */\n      dup3\n        /* \"@pancakeswap/v3-core/contracts/libraries/FullMath.sol\":3084:3085  0 */\n      0x00\n        /* \"@pancakeswap/v3-core/contracts/libraries/FullMath.sol\":3080:3092  sub(0, twos) */\n      sub\n        /* \"@pancakeswap/v3-core/contracts/libraries/FullMath.sol\":3076:3099  div(sub(0, twos), twos) */\n      div\n        /* \"@pancakeswap/v3-core/contracts/libraries/FullMath.sol\":3072:3103  add(div(sub(0, twos), twos), 1) */\n      add\n        /* \"@pancakeswap/v3-core/contracts/libraries/FullMath.sol\":3064:3103  twos := add(div(sub(0, twos), twos), 1) */\n      swap1\n      pop\n        /* \"@pancakeswap/v3-core/contracts/libraries/FullMath.sol\":3139:3143  twos */\n      dup1\n        /* \"@pancakeswap/v3-core/contracts/libraries/FullMath.sol\":3131:3136  prod1 */\n      dup4\n        /* \"@pancakeswap/v3-core/contracts/libraries/FullMath.sol\":3131:3143  prod1 * twos */\n      mul\n        /* \"@pancakeswap/v3-core/contracts/libraries/FullMath.sol\":3122:3143  prod0 |= prod1 * twos */\n      dup5\n      or\n      swap4\n      pop\n        /* \"@pancakeswap/v3-core/contracts/libraries/FullMath.sol\":3477:3488  uint256 inv */\n      0x00\n        /* \"@pancakeswap/v3-core/contracts/libraries/FullMath.sol\":3511:3512  2 */\n      0x02\n        /* \"@pancakeswap/v3-core/contracts/libraries/FullMath.sol\":3496:3507  denominator */\n      dup8\n        /* \"@pancakeswap/v3-core/contracts/libraries/FullMath.sol\":3492:3493  3 */\n      0x03\n        /* \"@pancakeswap/v3-core/contracts/libraries/FullMath.sol\":3492:3507  3 * denominator */\n      mul\n        /* \"@pancakeswap/v3-core/contracts/libraries/FullMath.sol\":3491:3512  (3 * denominator) ^ 2 */\n      xor\n        /* \"@pancakeswap/v3-core/contracts/libraries/FullMath.sol\":3477:3512  uint256 inv = (3 * denominator) ^ 2 */\n      swap1\n      pop\n        /* \"@pancakeswap/v3-core/contracts/libraries/FullMath.sol\":3752:3755  inv */\n      dup1\n        /* \"@pancakeswap/v3-core/contracts/libraries/FullMath.sol\":3738:3749  denominator */\n      dup8\n        /* \"@pancakeswap/v3-core/contracts/libraries/FullMath.sol\":3738:3755  denominator * inv */\n      mul\n        /* \"@pancakeswap/v3-core/contracts/libraries/FullMath.sol\":3734:3735  2 */\n      0x02\n        /* \"@pancakeswap/v3-core/contracts/libraries/FullMath.sol\":3734:3755  2 - denominator * inv */\n      sub\n        /* \"@pancakeswap/v3-core/contracts/libraries/FullMath.sol\":3727:3755  inv *= 2 - denominator * inv */\n      dup2\n      mul\n      swap1\n      pop\n        /* \"@pancakeswap/v3-core/contracts/libraries/FullMath.sol\":3810:3813  inv */\n      dup1\n        /* \"@pancakeswap/v3-core/contracts/libraries/FullMath.sol\":3796:3807  denominator */\n      dup8\n        /* \"@pancakeswap/v3-core/contracts/libraries/FullMath.sol\":3796:3813  denominator * inv */\n      mul\n        /* \"@pancakeswap/v3-core/contracts/libraries/FullMath.sol\":3792:3793  2 */\n      0x02\n        /* \"@pancakeswap/v3-core/contracts/libraries/FullMath.sol\":3792:3813  2 - denominator * inv */\n      sub\n        /* \"@pancakeswap/v3-core/contracts/libraries/FullMath.sol\":3785:3813  inv *= 2 - denominator * inv */\n      dup2\n      mul\n      swap1\n      pop\n        /* \"@pancakeswap/v3-core/contracts/libraries/FullMath.sol\":3869:3872  inv */\n      dup1\n        /* \"@pancakeswap/v3-core/contracts/libraries/FullMath.sol\":3855:3866  denominator */\n      dup8\n        /* \"@pancakeswap/v3-core/contracts/libraries/FullMath.sol\":3855:3872  denominator * inv */\n      mul\n        /* \"@pancakeswap/v3-core/contracts/libraries/FullMath.sol\":3851:3852  2 */\n      0x02\n        /* \"@pancakeswap/v3-core/contracts/libraries/FullMath.sol\":3851:3872  2 - denominator * inv */\n      sub\n        /* \"@pancakeswap/v3-core/contracts/libraries/FullMath.sol\":3844:3872  inv *= 2 - denominator * inv */\n      dup2\n      mul\n      swap1\n      pop\n        /* \"@pancakeswap/v3-core/contracts/libraries/FullMath.sol\":3928:3931  inv */\n      dup1\n        /* \"@pancakeswap/v3-core/contracts/libraries/FullMath.sol\":3914:3925  denominator */\n      dup8\n        /* \"@pancakeswap/v3-core/contracts/libraries/FullMath.sol\":3914:3931  denominator * inv */\n      mul\n        /* \"@pancakeswap/v3-core/contracts/libraries/FullMath.sol\":3910:3911  2 */\n      0x02\n        /* \"@pancakeswap/v3-core/contracts/libraries/FullMath.sol\":3910:3931  2 - denominator * inv */\n      sub\n        /* \"@pancakeswap/v3-core/contracts/libraries/FullMath.sol\":3903:3931  inv *= 2 - denominator * inv */\n      dup2\n      mul\n      swap1\n      pop\n        /* \"@pancakeswap/v3-core/contracts/libraries/FullMath.sol\":3987:3990  inv */\n      dup1\n        /* \"@pancakeswap/v3-core/contracts/libraries/FullMath.sol\":3973:3984  denominator */\n      dup8\n        /* \"@pancakeswap/v3-core/contracts/libraries/FullMath.sol\":3973:3990  denominator * inv */\n      mul\n        /* \"@pancakeswap/v3-core/contracts/libraries/FullMath.sol\":3969:3970  2 */\n      0x02\n        /* \"@pancakeswap/v3-core/contracts/libraries/FullMath.sol\":3969:3990  2 - denominator * inv */\n      sub\n        /* \"@pancakeswap/v3-core/contracts/libraries/FullMath.sol\":3962:3990  inv *= 2 - denominator * inv */\n      dup2\n      mul\n      swap1\n      pop\n        /* \"@pancakeswap/v3-core/contracts/libraries/FullMath.sol\":4047:4050  inv */\n      dup1\n        /* \"@pancakeswap/v3-core/contracts/libraries/FullMath.sol\":4033:4044  denominator */\n      dup8\n        /* \"@pancakeswap/v3-core/contracts/libraries/FullMath.sol\":4033:4050  denominator * inv */\n      mul\n        /* \"@pancakeswap/v3-core/contracts/libraries/FullMath.sol\":4029:4030  2 */\n      0x02\n        /* \"@pancakeswap/v3-core/contracts/libraries/FullMath.sol\":4029:4050  2 - denominator * inv */\n      sub\n        /* \"@pancakeswap/v3-core/contracts/libraries/FullMath.sol\":4022:4050  inv *= 2 - denominator * inv */\n      dup2\n      mul\n      swap1\n      pop\n        /* \"@pancakeswap/v3-core/contracts/libraries/FullMath.sol\":4505:4508  inv */\n      dup1\n        /* \"@pancakeswap/v3-core/contracts/libraries/FullMath.sol\":4497:4502  prod0 */\n      dup6\n        /* \"@pancakeswap/v3-core/contracts/libraries/FullMath.sol\":4497:4508  prod0 * inv */\n      mul\n        /* \"@pancakeswap/v3-core/contracts/libraries/FullMath.sol\":4488:4508  result = prod0 * inv */\n      swap6\n      pop\n        /* \"@pancakeswap/v3-core/contracts/libraries/FullMath.sol\":4518:4531  return result */\n      pop\n      pop\n      pop\n      pop\n      pop\n        /* \"@pancakeswap/v3-core/contracts/libraries/FullMath.sol\":762:4538  function mulDiv(... */\n    tag_242:\n      swap4\n      swap3\n      pop\n      pop\n      pop\n      jump\t// out\n\n    auxdata: 0xa26469706673582212202a74913e8bb9c0df56838a359fc279825fbfdaeb6b855599d5bb1db4d9db629064736f6c63430007060033\n}\n",
				"bytecode": {
					"linkReferences": {},
					"object": "608060405234801561001057600080fd5b5033600360006101000a81548173ffffffffffffffffffffffffffffffffffffffff021916908373ffffffffffffffffffffffffffffffffffffffff16021790555073bb4cdb9cbd36b01bd1cbaebf2de08d9173bc095c600160006101000a81548173ffffffffffffffffffffffffffffffffffffffff021916908373ffffffffffffffffffffffffffffffffffffffff1602179055507355d398326f99059ff775485246999027b3197955600260006101000a81548173ffffffffffffffffffffffffffffffffffffffff021916908373ffffffffffffffffffffffffffffffffffffffff1602179055506001600781905550612069806101136000396000f3fe6080604052600436106101395760003560e01c806367b51834116100ab578063a6f9dae11161006f578063a6f9dae1146106be578063c0404fa71461070f578063d63a6ccd14610761578063e03d1632146107a2578063f5a6ba2e146107cd578063f74b28c1146108325761025d565b806367b51834146104d65780636c7474da146105365780636d201e8b146105885780638da5cb5b146105ed578063a1c6a4051461062e5761025d565b80633b907d14116100fd5780633b907d141461039a578063448883d7146103eb57806349a876e4146104025780634d899b32146104435780635e59c8ce1461046e57806365a6cc2e146104bf5761025d565b8063026f0dbe1461026257806309cf28da1461028f57806314b085a4146102ba5780632e5bb6ff1461032157806332a6013c1461035c5761025d565b3661025d576007543410156101b6576040517f08c379a00000000000000000000000000000000000000000000000000000000081526004018080602001828103825260098152602001807f56616c7565204c6f77000000000000000000000000000000000000000000000081525060200191505060405180910390fd5b600061020d600560003373ffffffffffffffffffffffffffffffffffffffff1673ffffffffffffffffffffffffffffffffffffffff16815260200190815260200160002060009054906101000a900460ff1661085d565b905080600660003373ffffffffffffffffffffffffffffffffffffffff1673ffffffffffffffffffffffffffffffffffffffff168152602001908152602001600020819055508060008190555050005b600080fd5b34801561026e57600080fd5b50610277610ae7565b60405180821515815260200191505060405180910390f35b34801561029b57600080fd5b506102a4610b3b565b6040518082815260200191505060405180910390f35b3480156102c657600080fd5b50610309600480360360208110156102dd57600080fd5b81019080803573ffffffffffffffffffffffffffffffffffffffff169060200190929190505050610bbc565b60405180821515815260200191505060405180910390f35b34801561032d57600080fd5b5061035a6004803603602081101561034457600080fd5b8101908080359060200190929190505050610bdc565b005b34801561036857600080fd5b506103986004803603602081101561037f57600080fd5b81019080803560ff169060200190929190505050610c40565b005b3480156103a657600080fd5b506103e9600480360360208110156103bd57600080fd5b81019080803573ffffffffffffffffffffffffffffffffffffffff169060200190929190505050610d75565b005b3480156103f757600080fd5b50610400610e13565b005b34801561040e57600080fd5b50610417610f4f565b604051808273ffffffffffffffffffffffffffffffffffffffff16815260200191505060405180910390f35b34801561044f57600080fd5b50610458610f75565b6040518082815260200191505060405180910390f35b34801561047a57600080fd5b506104bd6004803603602081101561049157600080fd5b81019080803573ffffffffffffffffffffffffffffffffffffffff169060200190929190505050610f7b565b005b3480156104cb57600080fd5b506104d4611019565b005b3480156104e257600080fd5b50610534600480360360408110156104f957600080fd5b81019080803573ffffffffffffffffffffffffffffffffffffffff169060200190929190803562ffffff1690602001909291905050506110bf565b005b34801561054257600080fd5b506105726004803603602081101561055957600080fd5b81019080803560ff169060200190929190505050611339565b6040518082815260200191505060405180910390f35b34801561059457600080fd5b506105c1600480360360208110156105ab57600080fd5b810190808035906020019092919050505061149b565b604051808273ffffffffffffffffffffffffffffffffffffffff16815260200191505060405180910390f35b3480156105f957600080fd5b506106026114da565b604051808273ffffffffffffffffffffffffffffffffffffffff16815260200191505060405180910390f35b34801561063a57600080fd5b50610643611500565b6040518080602001828103825283818151815260200191508051906020019080838360005b83811015610683578082015181840152602081019050610668565b50505050905090810190601f1680156106b05780820380516001836020036101000a031916815260200191505b509250505060405180910390f35b3480156106ca57600080fd5b5061070d600480360360208110156106e157600080fd5b81019080803573ffffffffffffffffffffffffffffffffffffffff1690602001909291905050506115d0565b005b34801561071b57600080fd5b5061074b6004803603602081101561073257600080fd5b81019080803560ff16906020019092919050505061166e565b6040518082815260200191505060405180910390f35b34801561076d57600080fd5b506107766117d0565b604051808273ffffffffffffffffffffffffffffffffffffffff16815260200191505060405180910390f35b3480156107ae57600080fd5b506107b76117f6565b6040518082815260200191505060405180910390f35b3480156107d957600080fd5b5061081c600480360360208110156107f057600080fd5b81019080803573ffffffffffffffffffffffffffffffffffffffff1690602001909291905050506118f1565b6040518082815260200191505060405180910390f35b34801561083e57600080fd5b50610847611909565b6040518082815260200191505060405180910390f35b600080600080600090505b6004805490508160ff161015610a5757600060048260ff168154811061088a57fe5b9060005260206000200160009054906101000a900473ffffffffffffffffffffffffffffffffffffffff1673ffffffffffffffffffffffffffffffffffffffff16633850c7bd6040518163ffffffff1660e01b815260040160e06040518083038186803b1580156108fa57600080fd5b505afa15801561090e573d6000803e3d6000fd5b505050506040513d60e081101561092457600080fd5b810190808051906020019092919080519060200190929190805190602001909291908051906020019092919080519060200190929190805190602001909291908051906020019092919050505050505050509150506000610a2f82670de0b6b3a7640000896109b557600160009054906101000a900473ffffffffffffffffffffffffffffffffffffffff166109d9565b600260009054906101000a900473ffffffffffffffffffffffffffffffffffffffff165b8a610a0657600260009054906101000a900473ffffffffffffffffffffffffffffffffffffffff16610a2a565b600160009054906101000a900473ffffffffffffffffffffffffffffffffffffffff165b61191b565b90506000811115610a4857808501945083806001019450505b50508080600101915050610868565b5060008160ff1611610ad1576040517f08c379a000000000000000000000000000000000000000000000000000000000815260040180806020018281038252600e8152602001807f4e6f20707269636520666f756e6400000000000000000000000000000000000081525060200191505060405180910390fd5b8060ff168281610add57fe5b0492505050919050565b6000600560003373ffffffffffffffffffffffffffffffffffffffff1673ffffffffffffffffffffffffffffffffffffffff16815260200190815260200160002060009054906101000a900460ff16905090565b60008060005411610bb4576040517f08c379a000000000000000000000000000000000000000000000000000000000815260040180806020018281038252600f8152602001807f4e6f2073746f726564207072696365000000000000000000000000000000000081525060200191505060405180910390fd5b600054905090565b60056020528060005260406000206000915054906101000a900460ff1681565b600360009054906101000a900473ffffffffffffffffffffffffffffffffffffffff1673ffffffffffffffffffffffffffffffffffffffff163373ffffffffffffffffffffffffffffffffffffffff1614610c3657600080fd5b8060078190555050565b600360009054906101000a900473ffffffffffffffffffffffffffffffffffffffff1673ffffffffffffffffffffffffffffffffffffffff163373ffffffffffffffffffffffffffffffffffffffff1614610c9a57600080fd5b600460016004805490500381548110610caf57fe5b9060005260206000200160009054906101000a900473ffffffffffffffffffffffffffffffffffffffff1660048260ff1681548110610cea57fe5b9060005260206000200160006101000a81548173ffffffffffffffffffffffffffffffffffffffff021916908373ffffffffffffffffffffffffffffffffffffffff1602179055506004805480610d3d57fe5b6001900381819060005260206000200160006101000a81549073ffffffffffffffffffffffffffffffffffffffff0219169055905550565b600360009054906101000a900473ffffffffffffffffffffffffffffffffffffffff1673ffffffffffffffffffffffffffffffffffffffff163373ffffffffffffffffffffffffffffffffffffffff1614610dcf57600080fd5b80600160006101000a81548173ffffffffffffffffffffffffffffffffffffffff021916908373ffffffffffffffffffffffffffffffffffffffff16021790555050565b600360009054906101000a900473ffffffffffffffffffffffffffffffffffffffff1673ffffffffffffffffffffffffffffffffffffffff163373ffffffffffffffffffffffffffffffffffffffff1614610e6d57600080fd5b6000471015610ee4576040517f08c379a00000000000000000000000000000000000000000000000000000000081526004018080602001828103825260128152602001807f4e6f7420656e6f7567682062616c616e6365000000000000000000000000000081525060200191505060405180910390fd5b600360009054906101000a900473ffffffffffffffffffffffffffffffffffffffff1673ffffffffffffffffffffffffffffffffffffffff166108fc479081150290604051600060405180830381858888f19350505050158015610f4c573d6000803e3d6000fd5b50565b600160009054906101000a900473ffffffffffffffffffffffffffffffffffffffff1681565b60005481565b600360009054906101000a900473ffffffffffffffffffffffffffffffffffffffff1673ffffffffffffffffffffffffffffffffffffffff163373ffffffffffffffffffffffffffffffffffffffff1614610fd557600080fd5b80600260006101000a81548173ffffffffffffffffffffffffffffffffffffffff021916908373ffffffffffffffffffffffffffffffffffffffff16021790555050565b600560003373ffffffffffffffffffffffffffffffffffffffff1673ffffffffffffffffffffffffffffffffffffffff16815260200190815260200160002060009054906101000a900460ff1615600560003373ffffffffffffffffffffffffffffffffffffffff1673ffffffffffffffffffffffffffffffffffffffff16815260200190815260200160002060006101000a81548160ff021916908315150217905550565b600360009054906101000a900473ffffffffffffffffffffffffffffffffffffffff1673ffffffffffffffffffffffffffffffffffffffff163373ffffffffffffffffffffffffffffffffffffffff161461111957600080fd5b60008273ffffffffffffffffffffffffffffffffffffffff16631698ee82600260009054906101000a900473ffffffffffffffffffffffffffffffffffffffff16600160009054906101000a900473ffffffffffffffffffffffffffffffffffffffff16856040518463ffffffff1660e01b8152600401808473ffffffffffffffffffffffffffffffffffffffff1681526020018373ffffffffffffffffffffffffffffffffffffffff1681526020018262ffffff168152602001935050505060206040518083038186803b1580156111f157600080fd5b505afa158015611205573d6000803e3d6000fd5b505050506040513d602081101561121b57600080fd5b81019080805190602001909291905050509050600073ffffffffffffffffffffffffffffffffffffffff168173ffffffffffffffffffffffffffffffffffffffff1614156112d1576040517f08c379a000000000000000000000000000000000000000000000000000000000815260040180806020018281038252600e8152602001807f506f6f6c204e6f7420466f756e6400000000000000000000000000000000000081525060200191505060405180910390fd5b6004819080600181540180825580915050600190039060005260206000200160009091909190916101000a81548173ffffffffffffffffffffffffffffffffffffffff021916908373ffffffffffffffffffffffffffffffffffffffff160217905550505050565b60008060048360ff168154811061134c57fe5b9060005260206000200160009054906101000a900473ffffffffffffffffffffffffffffffffffffffff1673ffffffffffffffffffffffffffffffffffffffff16633850c7bd6040518163ffffffff1660e01b815260040160e06040518083038186803b1580156113bc57600080fd5b505afa1580156113d0573d6000803e3d6000fd5b505050506040513d60e08110156113e657600080fd5b8101908080519060200190929190805190602001909291908051906020019092919080519060200190929190805190602001909291908051906020019092919080519060200190929190505050505050505091505061149381670de0b6b3a7640000600160009054906101000a900473ffffffffffffffffffffffffffffffffffffffff16600260009054906101000a900473ffffffffffffffffffffffffffffffffffffffff1661191b565b915050919050565b600481815481106114ab57600080fd5b906000526020600020016000915054906101000a900473ffffffffffffffffffffffffffffffffffffffff1681565b600360009054906101000a900473ffffffffffffffffffffffffffffffffffffffff1681565b60606000600560003373ffffffffffffffffffffffffffffffffffffffff1673ffffffffffffffffffffffffffffffffffffffff16815260200190815260200160002060009054906101000a900460ff16611590576040518060400160405280600781526020017f424e4255534454000000000000000000000000000000000000000000000000008152506115c7565b6040518060400160405280600781526020017f55534454424e42000000000000000000000000000000000000000000000000008152505b90508091505090565b600360009054906101000a900473ffffffffffffffffffffffffffffffffffffffff1673ffffffffffffffffffffffffffffffffffffffff163373ffffffffffffffffffffffffffffffffffffffff161461162a57600080fd5b80600360006101000a81548173ffffffffffffffffffffffffffffffffffffffff021916908373ffffffffffffffffffffffffffffffffffffffff16021790555050565b60008060048360ff168154811061168157fe5b9060005260206000200160009054906101000a900473ffffffffffffffffffffffffffffffffffffffff1673ffffffffffffffffffffffffffffffffffffffff16633850c7bd6040518163ffffffff1660e01b815260040160e06040518083038186803b1580156116f157600080fd5b505afa158015611705573d6000803e3d6000fd5b505050506040513d60e081101561171b57600080fd5b810190808051906020019092919080519060200190929190805190602001909291908051906020019092919080519060200190929190805190602001909291908051906020019092919050505050505050509150506117c881670de0b6b3a7640000600260009054906101000a900473ffffffffffffffffffffffffffffffffffffffff16600160009054906101000a900473ffffffffffffffffffffffffffffffffffffffff1661191b565b915050919050565b600260009054906101000a900473ffffffffffffffffffffffffffffffffffffffff1681565b600080600660003373ffffffffffffffffffffffffffffffffffffffff1673ffffffffffffffffffffffffffffffffffffffff16815260200190815260200160002054116118ac576040517f08c379a000000000000000000000000000000000000000000000000000000000815260040180806020018281038252600f8152602001807f4e6f2073746f726564207072696365000000000000000000000000000000000081525060200191505060405180910390fd5b600660003373ffffffffffffffffffffffffffffffffffffffff1673ffffffffffffffffffffffffffffffffffffffff16815260200190815260200160002054905090565b60066020528060005260406000206000915090505481565b60008060048054905090508091505090565b60008061192786611b1e565b90506fffffffffffffffffffffffffffffffff80168173ffffffffffffffffffffffffffffffffffffffff1611611a385760008173ffffffffffffffffffffffffffffffffffffffff168273ffffffffffffffffffffffffffffffffffffffff160290508373ffffffffffffffffffffffffffffffffffffffff168573ffffffffffffffffffffffffffffffffffffffff16106119f9576119f47801000000000000000000000000000000000000000000000000876fffffffffffffffffffffffffffffffff1683611f59565b611a30565b611a2f81876fffffffffffffffffffffffffffffffff167801000000000000000000000000000000000000000000000000611f59565b5b925050611b15565b6000611a7a8273ffffffffffffffffffffffffffffffffffffffff168373ffffffffffffffffffffffffffffffffffffffff1668010000000000000000611f59565b90508373ffffffffffffffffffffffffffffffffffffffff168573ffffffffffffffffffffffffffffffffffffffff1610611ae257611add700100000000000000000000000000000000876fffffffffffffffffffffffffffffffff1683611f59565b611b11565b611b1081876fffffffffffffffffffffffffffffffff16700100000000000000000000000000000000611f59565b5b9250505b50949350505050565b60008060008360020b12611b35578260020b611b3d565b8260020b6000035b90507ffffffffffffffffffffffffffffffffffffffffffffffffffffffffffff2761860000360020b811115611bdb576040517f08c379a00000000000000000000000000000000000000000000000000000000081526004018080602001828103825260018152602001807f540000000000000000000000000000000000000000000000000000000000000081525060200191505060405180910390fd5b600080600183161415611bff57700100000000000000000000000000000000611c11565b6ffffcb933bd6fad37aa2d162d1a5940015b70ffffffffffffffffffffffffffffffffff16905060006002831614611c4b5760806ffff97272373d413259a46990580e213a8202901c90505b60006004831614611c705760806ffff2e50f5f656932ef12357cf3c7fdcc8202901c90505b60006008831614611c955760806fffe5caca7e10e4e61c3624eaa0941cd08202901c90505b60006010831614611cba5760806fffcb9843d60f6159c9db58835c9266448202901c90505b60006020831614611cdf5760806fff973b41fa98c081472e6896dfb254c08202901c90505b60006040831614611d045760806fff2ea16466c96a3843ec78b326b528618202901c90505b60006080831614611d295760806ffe5dee046a99a2a811c461f1969c30538202901c90505b6000610100831614611d4f5760806ffcbe86c7900a88aedcffc83b479aa3a48202901c90505b6000610200831614611d755760806ff987a7253ac413176f2b074cf7815e548202901c90505b6000610400831614611d9b5760806ff3392b0822b70005940c7a398e4b70f38202901c90505b6000610800831614611dc15760806fe7159475a2c29b7443b29c7fa6e889d98202901c90505b6000611000831614611de75760806fd097f3bdfd2022b8845ad8f792aa58258202901c90505b6000612000831614611e0d5760806fa9f746462d870fdf8a65dc1f90e061e58202901c90505b6000614000831614611e335760806f70d869a156d2a1b890bb3df62baf32f78202901c90505b6000618000831614611e595760806f31be135f97d08fd981231505542fcfa68202901c90505b600062010000831614611e805760806f09aa508b5b7a84e1c677de54f3e99bc98202901c90505b600062020000831614611ea65760806e5d6af8dedb81196699c329225ee6048202901c90505b600062040000831614611ecb5760806d2216e584f5fa1ea926041bedfe988202901c90505b600062080000831614611eee5760806b048a170391f7dc42444e8fa28202901c90505b60008460020b1315611f2757807fffffffffffffffffffffffffffffffffffffffffffffffffffffffffffffffff81611f2357fe5b0490505b60006401000000008281611f3757fe5b0614611f44576001611f47565b60005b60ff16602082901c0192505050919050565b600080600080198587098587029250828110838203039150506000811415611f945760008411611f8857600080fd5b8382049250505061202c565b808411611fa057600080fd5b600084868809905082811182039150808303925060008586600003169050808604955080840493506001818260000304019050808302841793506000600287600302189050808702600203810290508087026002038102905080870260020381029050808702600203810290508087026002038102905080870260020381029050808502955050505050505b939250505056fea26469706673582212202a74913e8bb9c0df56838a359fc279825fbfdaeb6b855599d5bb1db4d9db629064736f6c63430007060033",
					"opcodes": "PUSH1 0x80 PUSH1 0x40 MSTORE CALLVALUE DUP1 ISZERO PUSH2 0x10 JUMPI PUSH1 0x0 DUP1 REVERT JUMPDEST POP CALLER PUSH1 0x3 PUSH1 0x0 PUSH2 0x100 EXP DUP2 SLOAD DUP2 PUSH20 0xFFFFFFFFFFFFFFFFFFFFFFFFFFFFFFFFFFFFFFFF MUL NOT AND SWAP1 DUP4 PUSH20 0xFFFFFFFFFFFFFFFFFFFFFFFFFFFFFFFFFFFFFFFF AND MUL OR SWAP1 SSTORE POP PUSH20 0xBB4CDB9CBD36B01BD1CBAEBF2DE08D9173BC095C PUSH1 0x1 PUSH1 0x0 PUSH2 0x100 EXP DUP2 SLOAD DUP2 PUSH20 0xFFFFFFFFFFFFFFFFFFFFFFFFFFFFFFFFFFFFFFFF MUL NOT AND SWAP1 DUP4 PUSH20 0xFFFFFFFFFFFFFFFFFFFFFFFFFFFFFFFFFFFFFFFF AND MUL OR SWAP1 SSTORE POP PUSH20 0x55D398326F99059FF775485246999027B3197955 PUSH1 0x2 PUSH1 0x0 PUSH2 0x100 EXP DUP2 SLOAD DUP2 PUSH20 0xFFFFFFFFFFFFFFFFFFFFFFFFFFFFFFFFFFFFFFFF MUL NOT AND SWAP1 DUP4 PUSH20 0xFFFFFFFFFFFFFFFFFFFFFFFFFFFFFFFFFFFFFFFF AND MUL OR SWAP1 SSTORE POP PUSH1 0x1 PUSH1 0x7 DUP2 SWAP1 SSTORE POP PUSH2 0x2069 DUP1 PUSH2 0x113 PUSH1 0x0 CODECOPY PUSH1 0x0 RETURN INVALID PUSH1 0x80 PUSH1 0x40 MSTORE PUSH1 0x4 CALLDATASIZE LT PUSH2 0x139 JUMPI PUSH1 0x0 CALLDATALOAD PUSH1 0xE0 SHR DUP1 PUSH4 0x67B51834 GT PUSH2 0xAB JUMPI DUP1 PUSH4 0xA6F9DAE1 GT PUSH2 0x6F JUMPI DUP1 PUSH4 0xA6F9DAE1 EQ PUSH2 0x6BE JUMPI DUP1 PUSH4 0xC0404FA7 EQ PUSH2 0x70F JUMPI DUP1 PUSH4 0xD63A6CCD EQ PUSH2 0x761 JUMPI DUP1 PUSH4 0xE03D1632 EQ PUSH2 0x7A2 JUMPI DUP1 PUSH4 0xF5A6BA2E EQ PUSH2 0x7CD JUMPI DUP1 PUSH4 0xF74B28C1 EQ PUSH2 0x832 JUMPI PUSH2 0x25D JUMP JUMPDEST DUP1 PUSH4 0x67B51834 EQ PUSH2 0x4D6 JUMPI DUP1 PUSH4 0x6C7474DA EQ PUSH2 0x536 JUMPI DUP1 PUSH4 0x6D201E8B EQ PUSH2 0x588 JUMPI DUP1 PUSH4 0x8DA5CB5B EQ PUSH2 0x5ED JUMPI DUP1 PUSH4 0xA1C6A405 EQ PUSH2 0x62E JUMPI PUSH2 0x25D JUMP JUMPDEST DUP1 PUSH4 0x3B907D14 GT PUSH2 0xFD JUMPI DUP1 PUSH4 0x3B907D14 EQ PUSH2 0x39A JUMPI DUP1 PUSH4 0x448883D7 EQ PUSH2 0x3EB JUMPI DUP1 PUSH4 0x49A876E4 EQ PUSH2 0x402 JUMPI DUP1 PUSH4 0x4D899B32 EQ PUSH2 0x443 JUMPI DUP1 PUSH4 0x5E59C8CE EQ PUSH2 0x46E JUMPI DUP1 PUSH4 0x65A6CC2E EQ PUSH2 0x4BF JUMPI PUSH2 0x25D JUMP JUMPDEST DUP1 PUSH4 0x26F0DBE EQ PUSH2 0x262 JUMPI DUP1 PUSH4 0x9CF28DA EQ PUSH2 0x28F JUMPI DUP1 PUSH4 0x14B085A4 EQ PUSH2 0x2BA JUMPI DUP1 PUSH4 0x2E5BB6FF EQ PUSH2 0x321 JUMPI DUP1 PUSH4 0x32A6013C EQ PUSH2 0x35C JUMPI PUSH2 0x25D JUMP JUMPDEST CALLDATASIZE PUSH2 0x25D JUMPI PUSH1 0x7 SLOAD CALLVALUE LT ISZERO PUSH2 0x1B6 JUMPI PUSH1 0x40 MLOAD PUSH32 0x8C379A000000000000000000000000000000000000000000000000000000000 DUP2 MSTORE PUSH1 0x4 ADD DUP1 DUP1 PUSH1 0x20 ADD DUP3 DUP2 SUB DUP3 MSTORE PUSH1 0x9 DUP2 MSTORE PUSH1 0x20 ADD DUP1 PUSH32 0x56616C7565204C6F770000000000000000000000000000000000000000000000 DUP2 MSTORE POP PUSH1 0x20 ADD SWAP2 POP POP PUSH1 0x40 MLOAD DUP1 SWAP2 SUB SWAP1 REVERT JUMPDEST PUSH1 0x0 PUSH2 0x20D PUSH1 0x5 PUSH1 0x0 CALLER PUSH20 0xFFFFFFFFFFFFFFFFFFFFFFFFFFFFFFFFFFFFFFFF AND PUSH20 0xFFFFFFFFFFFFFFFFFFFFFFFFFFFFFFFFFFFFFFFF AND DUP2 MSTORE PUSH1 0x20 ADD SWAP1 DUP2 MSTORE PUSH1 0x20 ADD PUSH1 0x0 KECCAK256 PUSH1 0x0 SWAP1 SLOAD SWAP1 PUSH2 0x100 EXP SWAP1 DIV PUSH1 0xFF AND PUSH2 0x85D JUMP JUMPDEST SWAP1 POP DUP1 PUSH1 0x6 PUSH1 0x0 CALLER PUSH20 0xFFFFFFFFFFFFFFFFFFFFFFFFFFFFFFFFFFFFFFFF AND PUSH20 0xFFFFFFFFFFFFFFFFFFFFFFFFFFFFFFFFFFFFFFFF AND DUP2 MSTORE PUSH1 0x20 ADD SWAP1 DUP2 MSTORE PUSH1 0x20 ADD PUSH1 0x0 KECCAK256 DUP2 SWAP1 SSTORE POP DUP1 PUSH1 0x0 DUP2 SWAP1 SSTORE POP POP STOP JUMPDEST PUSH1 0x0 DUP1 REVERT JUMPDEST CALLVALUE DUP1 ISZERO PUSH2 0x26E JUMPI PUSH1 0x0 DUP1 REVERT JUMPDEST POP PUSH2 0x277 PUSH2 0xAE7 JUMP JUMPDEST PUSH1 0x40 MLOAD DUP1 DUP3 ISZERO ISZERO DUP2 MSTORE PUSH1 0x20 ADD SWAP2 POP POP PUSH1 0x40 MLOAD DUP1 SWAP2 SUB SWAP1 RETURN JUMPDEST CALLVALUE DUP1 ISZERO PUSH2 0x29B JUMPI PUSH1 0x0 DUP1 REVERT JUMPDEST POP PUSH2 0x2A4 PUSH2 0xB3B JUMP JUMPDEST PUSH1 0x40 MLOAD DUP1 DUP3 DUP2 MSTORE PUSH1 0x20 ADD SWAP2 POP POP PUSH1 0x40 MLOAD DUP1 SWAP2 SUB SWAP1 RETURN JUMPDEST CALLVALUE DUP1 ISZERO PUSH2 0x2C6 JUMPI PUSH1 0x0 DUP1 REVERT JUMPDEST POP PUSH2 0x309 PUSH1 0x4 DUP1 CALLDATASIZE SUB PUSH1 0x20 DUP2 LT ISZERO PUSH2 0x2DD JUMPI PUSH1 0x0 DUP1 REVERT JUMPDEST DUP2 ADD SWAP1 DUP1 DUP1 CALLDATALOAD PUSH20 0xFFFFFFFFFFFFFFFFFFFFFFFFFFFFFFFFFFFFFFFF AND SWAP1 PUSH1 0x20 ADD SWAP1 SWAP3 SWAP2 SWAP1 POP POP POP PUSH2 0xBBC JUMP JUMPDEST PUSH1 0x40 MLOAD DUP1 DUP3 ISZERO ISZERO DUP2 MSTORE PUSH1 0x20 ADD SWAP2 POP POP PUSH1 0x40 MLOAD DUP1 SWAP2 SUB SWAP1 RETURN JUMPDEST CALLVALUE DUP1 ISZERO PUSH2 0x32D JUMPI PUSH1 0x0 DUP1 REVERT JUMPDEST POP PUSH2 0x35A PUSH1 0x4 DUP1 CALLDATASIZE SUB PUSH1 0x20 DUP2 LT ISZERO PUSH2 0x344 JUMPI PUSH1 0x0 DUP1 REVERT JUMPDEST DUP2 ADD SWAP1 DUP1 DUP1 CALLDATALOAD SWAP1 PUSH1 0x20 ADD SWAP1 SWAP3 SWAP2 SWAP1 POP POP POP PUSH2 0xBDC JUMP JUMPDEST STOP JUMPDEST CALLVALUE DUP1 ISZERO PUSH2 0x368 JUMPI PUSH1 0x0 DUP1 REVERT JUMPDEST POP PUSH2 0x398 PUSH1 0x4 DUP1 CALLDATASIZE SUB PUSH1 0x20 DUP2 LT ISZERO PUSH2 0x37F JUMPI PUSH1 0x0 DUP1 REVERT JUMPDEST DUP2 ADD SWAP1 DUP1 DUP1 CALLDATALOAD PUSH1 0xFF AND SWAP1 PUSH1 0x20 ADD SWAP1 SWAP3 SWAP2 SWAP1 POP POP POP PUSH2 0xC40 JUMP JUMPDEST STOP JUMPDEST CALLVALUE DUP1 ISZERO PUSH2 0x3A6 JUMPI PUSH1 0x0 DUP1 REVERT JUMPDEST POP PUSH2 0x3E9 PUSH1 0x4 DUP1 CALLDATASIZE SUB PUSH1 0x20 DUP2 LT ISZERO PUSH2 0x3BD JUMPI PUSH1 0x0 DUP1 REVERT JUMPDEST DUP2 ADD SWAP1 DUP1 DUP1 CALLDATALOAD PUSH20 0xFFFFFFFFFFFFFFFFFFFFFFFFFFFFFFFFFFFFFFFF AND SWAP1 PUSH1 0x20 ADD SWAP1 SWAP3 SWAP2 SWAP1 POP POP POP PUSH2 0xD75 JUMP JUMPDEST STOP JUMPDEST CALLVALUE DUP1 ISZERO PUSH2 0x3F7 JUMPI PUSH1 0x0 DUP1 REVERT JUMPDEST POP PUSH2 0x400 PUSH2 0xE13 JUMP JUMPDEST STOP JUMPDEST CALLVALUE DUP1 ISZERO PUSH2 0x40E JUMPI PUSH1 0x0 DUP1 REVERT JUMPDEST POP PUSH2 0x417 PUSH2 0xF4F JUMP JUMPDEST PUSH1 0x40 MLOAD DUP1 DUP3 PUSH20 0xFFFFFFFFFFFFFFFFFFFFFFFFFFFFFFFFFFFFFFFF AND DUP2 MSTORE PUSH1 0x20 ADD SWAP2 POP POP PUSH1 0x40 MLOAD DUP1 SWAP2 SUB SWAP1 RETURN JUMPDEST CALLVALUE DUP1 ISZERO PUSH2 0x44F JUMPI PUSH1 0x0 DUP1 REVERT JUMPDEST POP PUSH2 0x458 PUSH2 0xF75 JUMP JUMPDEST PUSH1 0x40 MLOAD DUP1 DUP3 DUP2 MSTORE PUSH1 0x20 ADD SWAP2 POP POP PUSH1 0x40 MLOAD DUP1 SWAP2 SUB SWAP1 RETURN JUMPDEST CALLVALUE DUP1 ISZERO PUSH2 0x47A JUMPI PUSH1 0x0 DUP1 REVERT JUMPDEST POP PUSH2 0x4BD PUSH1 0x4 DUP1 CALLDATASIZE SUB PUSH1 0x20 DUP2 LT ISZERO PUSH2 0x491 JUMPI PUSH1 0x0 DUP1 REVERT JUMPDEST DUP2 ADD SWAP1 DUP1 DUP1 CALLDATALOAD PUSH20 0xFFFFFFFFFFFFFFFFFFFFFFFFFFFFFFFFFFFFFFFF AND SWAP1 PUSH1 0x20 ADD SWAP1 SWAP3 SWAP2 SWAP1 POP POP POP PUSH2 0xF7B JUMP JUMPDEST STOP JUMPDEST CALLVALUE DUP1 ISZERO PUSH2 0x4CB JUMPI PUSH1 0x0 DUP1 REVERT JUMPDEST POP PUSH2 0x4D4 PUSH2 0x1019 JUMP JUMPDEST STOP JUMPDEST CALLVALUE DUP1 ISZERO PUSH2 0x4E2 JUMPI PUSH1 0x0 DUP1 REVERT JUMPDEST POP PUSH2 0x534 PUSH1 0x4 DUP1 CALLDATASIZE SUB PUSH1 0x40 DUP2 LT ISZERO PUSH2 0x4F9 JUMPI PUSH1 0x0 DUP1 REVERT JUMPDEST DUP2 ADD SWAP1 DUP1 DUP1 CALLDATALOAD PUSH20 0xFFFFFFFFFFFFFFFFFFFFFFFFFFFFFFFFFFFFFFFF AND SWAP1 PUSH1 0x20 ADD SWAP1 SWAP3 SWAP2 SWAP1 DUP1 CALLDATALOAD PUSH3 0xFFFFFF AND SWAP1 PUSH1 0x20 ADD SWAP1 SWAP3 SWAP2 SWAP1 POP POP POP PUSH2 0x10BF JUMP JUMPDEST STOP JUMPDEST CALLVALUE DUP1 ISZERO PUSH2 0x542 JUMPI PUSH1 0x0 DUP1 REVERT JUMPDEST POP PUSH2 0x572 PUSH1 0x4 DUP1 CALLDATASIZE SUB PUSH1 0x20 DUP2 LT ISZERO PUSH2 0x559 JUMPI PUSH1 0x0 DUP1 REVERT JUMPDEST DUP2 ADD SWAP1 DUP1 DUP1 CALLDATALOAD PUSH1 0xFF AND SWAP1 PUSH1 0x20 ADD SWAP1 SWAP3 SWAP2 SWAP1 POP POP POP PUSH2 0x1339 JUMP JUMPDEST PUSH1 0x40 MLOAD DUP1 DUP3 DUP2 MSTORE PUSH1 0x20 ADD SWAP2 POP POP PUSH1 0x40 MLOAD DUP1 SWAP2 SUB SWAP1 RETURN JUMPDEST CALLVALUE DUP1 ISZERO PUSH2 0x594 JUMPI PUSH1 0x0 DUP1 REVERT JUMPDEST POP PUSH2 0x5C1 PUSH1 0x4 DUP1 CALLDATASIZE SUB PUSH1 0x20 DUP2 LT ISZERO PUSH2 0x5AB JUMPI PUSH1 0x0 DUP1 REVERT JUMPDEST DUP2 ADD SWAP1 DUP1 DUP1 CALLDATALOAD SWAP1 PUSH1 0x20 ADD SWAP1 SWAP3 SWAP2 SWAP1 POP POP POP PUSH2 0x149B JUMP JUMPDEST PUSH1 0x40 MLOAD DUP1 DUP3 PUSH20 0xFFFFFFFFFFFFFFFFFFFFFFFFFFFFFFFFFFFFFFFF AND DUP2 MSTORE PUSH1 0x20 ADD SWAP2 POP POP PUSH1 0x40 MLOAD DUP1 SWAP2 SUB SWAP1 RETURN JUMPDEST CALLVALUE DUP1 ISZERO PUSH2 0x5F9 JUMPI PUSH1 0x0 DUP1 REVERT JUMPDEST POP PUSH2 0x602 PUSH2 0x14DA JUMP JUMPDEST PUSH1 0x40 MLOAD DUP1 DUP3 PUSH20 0xFFFFFFFFFFFFFFFFFFFFFFFFFFFFFFFFFFFFFFFF AND DUP2 MSTORE PUSH1 0x20 ADD SWAP2 POP POP PUSH1 0x40 MLOAD DUP1 SWAP2 SUB SWAP1 RETURN JUMPDEST CALLVALUE DUP1 ISZERO PUSH2 0x63A JUMPI PUSH1 0x0 DUP1 REVERT JUMPDEST POP PUSH2 0x643 PUSH2 0x1500 JUMP JUMPDEST PUSH1 0x40 MLOAD DUP1 DUP1 PUSH1 0x20 ADD DUP3 DUP2 SUB DUP3 MSTORE DUP4 DUP2 DUP2 MLOAD DUP2 MSTORE PUSH1 0x20 ADD SWAP2 POP DUP1 MLOAD SWAP1 PUSH1 0x20 ADD SWAP1 DUP1 DUP4 DUP4 PUSH1 0x0 JUMPDEST DUP4 DUP2 LT ISZERO PUSH2 0x683 JUMPI DUP1 DUP3 ADD MLOAD DUP2 DUP5 ADD MSTORE PUSH1 0x20 DUP2 ADD SWAP1 POP PUSH2 0x668 JUMP JUMPDEST POP POP POP POP SWAP1 POP SWAP1 DUP2 ADD SWAP1 PUSH1 0x1F AND DUP1 ISZERO PUSH2 0x6B0 JUMPI DUP1 DUP3 SUB DUP1 MLOAD PUSH1 0x1 DUP4 PUSH1 0x20 SUB PUSH2 0x100 EXP SUB NOT AND DUP2 MSTORE PUSH1 0x20 ADD SWAP2 POP JUMPDEST POP SWAP3 POP POP POP PUSH1 0x40 MLOAD DUP1 SWAP2 SUB SWAP1 RETURN JUMPDEST CALLVALUE DUP1 ISZERO PUSH2 0x6CA JUMPI PUSH1 0x0 DUP1 REVERT JUMPDEST POP PUSH2 0x70D PUSH1 0x4 DUP1 CALLDATASIZE SUB PUSH1 0x20 DUP2 LT ISZERO PUSH2 0x6E1 JUMPI PUSH1 0x0 DUP1 REVERT JUMPDEST DUP2 ADD SWAP1 DUP1 DUP1 CALLDATALOAD PUSH20 0xFFFFFFFFFFFFFFFFFFFFFFFFFFFFFFFFFFFFFFFF AND SWAP1 PUSH1 0x20 ADD SWAP1 SWAP3 SWAP2 SWAP1 POP POP POP PUSH2 0x15D0 JUMP JUMPDEST STOP JUMPDEST CALLVALUE DUP1 ISZERO PUSH2 0x71B JUMPI PUSH1 0x0 DUP1 REVERT JUMPDEST POP PUSH2 0x74B PUSH1 0x4 DUP1 CALLDATASIZE SUB PUSH1 0x20 DUP2 LT ISZERO PUSH2 0x732 JUMPI PUSH1 0x0 DUP1 REVERT JUMPDEST DUP2 ADD SWAP1 DUP1 DUP1 CALLDATALOAD PUSH1 0xFF AND SWAP1 PUSH1 0x20 ADD SWAP1 SWAP3 SWAP2 SWAP1 POP POP POP PUSH2 0x166E JUMP JUMPDEST PUSH1 0x40 MLOAD DUP1 DUP3 DUP2 MSTORE PUSH1 0x20 ADD SWAP2 POP POP PUSH1 0x40 MLOAD DUP1 SWAP2 SUB SWAP1 RETURN JUMPDEST CALLVALUE DUP1 ISZERO PUSH2 0x76D JUMPI PUSH1 0x0 DUP1 REVERT JUMPDEST POP PUSH2 0x776 PUSH2 0x17D0 JUMP JUMPDEST PUSH1 0x40 MLOAD DUP1 DUP3 PUSH20 0xFFFFFFFFFFFFFFFFFFFFFFFFFFFFFFFFFFFFFFFF AND DUP2 MSTORE PUSH1 0x20 ADD SWAP2 POP POP PUSH1 0x40 MLOAD DUP1 SWAP2 SUB SWAP1 RETURN JUMPDEST CALLVALUE DUP1 ISZERO PUSH2 0x7AE JUMPI PUSH1 0x0 DUP1 REVERT JUMPDEST POP PUSH2 0x7B7 PUSH2 0x17F6 JUMP JUMPDEST PUSH1 0x40 MLOAD DUP1 DUP3 DUP2 MSTORE PUSH1 0x20 ADD SWAP2 POP POP PUSH1 0x40 MLOAD DUP1 SWAP2 SUB SWAP1 RETURN JUMPDEST CALLVALUE DUP1 ISZERO PUSH2 0x7D9 JUMPI PUSH1 0x0 DUP1 REVERT JUMPDEST POP PUSH2 0x81C PUSH1 0x4 DUP1 CALLDATASIZE SUB PUSH1 0x20 DUP2 LT ISZERO PUSH2 0x7F0 JUMPI PUSH1 0x0 DUP1 REVERT JUMPDEST DUP2 ADD SWAP1 DUP1 DUP1 CALLDATALOAD PUSH20 0xFFFFFFFFFFFFFFFFFFFFFFFFFFFFFFFFFFFFFFFF AND SWAP1 PUSH1 0x20 ADD SWAP1 SWAP3 SWAP2 SWAP1 POP POP POP PUSH2 0x18F1 JUMP JUMPDEST PUSH1 0x40 MLOAD DUP1 DUP3 DUP2 MSTORE PUSH1 0x20 ADD SWAP2 POP POP PUSH1 0x40 MLOAD DUP1 SWAP2 SUB SWAP1 RETURN JUMPDEST CALLVALUE DUP1 ISZERO PUSH2 0x83E JUMPI PUSH1 0x0 DUP1 REVERT JUMPDEST POP PUSH2 0x847 PUSH2 0x1909 JUMP JUMPDEST PUSH1 0x40 MLOAD DUP1 DUP3 DUP2 MSTORE PUSH1 0x20 ADD SWAP2 POP POP PUSH1 0x40 MLOAD DUP1 SWAP2 SUB SWAP1 RETURN JUMPDEST PUSH1 0x0 DUP1 PUSH1 0x0 DUP1 PUSH1 0x0 SWAP1 POP JUMPDEST PUSH1 0x4 DUP1 SLOAD SWAP1 POP DUP2 PUSH1 0xFF AND LT ISZERO PUSH2 0xA57 JUMPI PUSH1 0x0 PUSH1 0x4 DUP3 PUSH1 0xFF AND DUP2 SLOAD DUP2 LT PUSH2 0x88A JUMPI INVALID JUMPDEST SWAP1 PUSH1 0x0 MSTORE PUSH1 0x20 PUSH1 0x0 KECCAK256 ADD PUSH1 0x0 SWAP1 SLOAD SWAP1 PUSH2 0x100 EXP SWAP1 DIV PUSH20 0xFFFFFFFFFFFFFFFFFFFFFFFFFFFFFFFFFFFFFFFF AND PUSH20 0xFFFFFFFFFFFFFFFFFFFFFFFFFFFFFFFFFFFFFFFF AND PUSH4 0x3850C7BD PUSH1 0x40 MLOAD DUP2 PUSH4 0xFFFFFFFF AND PUSH1 0xE0 SHL DUP2 MSTORE PUSH1 0x4 ADD PUSH1 0xE0 PUSH1 0x40 MLOAD DUP1 DUP4 SUB DUP2 DUP7 DUP1 EXTCODESIZE ISZERO DUP1 ISZERO PUSH2 0x8FA JUMPI PUSH1 0x0 DUP1 REVERT JUMPDEST POP GAS STATICCALL ISZERO DUP1 ISZERO PUSH2 0x90E JUMPI RETURNDATASIZE PUSH1 0x0 DUP1 RETURNDATACOPY RETURNDATASIZE PUSH1 0x0 REVERT JUMPDEST POP POP POP POP PUSH1 0x40 MLOAD RETURNDATASIZE PUSH1 0xE0 DUP2 LT ISZERO PUSH2 0x924 JUMPI PUSH1 0x0 DUP1 REVERT JUMPDEST DUP2 ADD SWAP1 DUP1 DUP1 MLOAD SWAP1 PUSH1 0x20 ADD SWAP1 SWAP3 SWAP2 SWAP1 DUP1 MLOAD SWAP1 PUSH1 0x20 ADD SWAP1 SWAP3 SWAP2 SWAP1 DUP1 MLOAD SWAP1 PUSH1 0x20 ADD SWAP1 SWAP3 SWAP2 SWAP1 DUP1 MLOAD SWAP1 PUSH1 0x20 ADD SWAP1 SWAP3 SWAP2 SWAP1 DUP1 MLOAD SWAP1 PUSH1 0x20 ADD SWAP1 SWAP3 SWAP2 SWAP1 DUP1 MLOAD SWAP1 PUSH1 0x20 ADD SWAP1 SWAP3 SWAP2 SWAP1 DUP1 MLOAD SWAP1 PUSH1 0x20 ADD SWAP1 SWAP3 SWAP2 SWAP1 POP POP POP POP POP POP POP POP SWAP2 POP POP PUSH1 0x0 PUSH2 0xA2F DUP3 PUSH8 0xDE0B6B3A7640000 DUP10 PUSH2 0x9B5 JUMPI PUSH1 0x1 PUSH1 0x0 SWAP1 SLOAD SWAP1 PUSH2 0x100 EXP SWAP1 DIV PUSH20 0xFFFFFFFFFFFFFFFFFFFFFFFFFFFFFFFFFFFFFFFF AND PUSH2 0x9D9 JUMP JUMPDEST PUSH1 0x2 PUSH1 0x0 SWAP1 SLOAD SWAP1 PUSH2 0x100 EXP SWAP1 DIV PUSH20 0xFFFFFFFFFFFFFFFFFFFFFFFFFFFFFFFFFFFFFFFF AND JUMPDEST DUP11 PUSH2 0xA06 JUMPI PUSH1 0x2 PUSH1 0x0 SWAP1 SLOAD SWAP1 PUSH2 0x100 EXP SWAP1 DIV PUSH20 0xFFFFFFFFFFFFFFFFFFFFFFFFFFFFFFFFFFFFFFFF AND PUSH2 0xA2A JUMP JUMPDEST PUSH1 0x1 PUSH1 0x0 SWAP1 SLOAD SWAP1 PUSH2 0x100 EXP SWAP1 DIV PUSH20 0xFFFFFFFFFFFFFFFFFFFFFFFFFFFFFFFFFFFFFFFF AND JUMPDEST PUSH2 0x191B JUMP JUMPDEST SWAP1 POP PUSH1 0x0 DUP2 GT ISZERO PUSH2 0xA48 JUMPI DUP1 DUP6 ADD SWAP5 POP DUP4 DUP1 PUSH1 0x1 ADD SWAP5 POP POP JUMPDEST POP POP DUP1 DUP1 PUSH1 0x1 ADD SWAP2 POP POP PUSH2 0x868 JUMP JUMPDEST POP PUSH1 0x0 DUP2 PUSH1 0xFF AND GT PUSH2 0xAD1 JUMPI PUSH1 0x40 MLOAD PUSH32 0x8C379A000000000000000000000000000000000000000000000000000000000 DUP2 MSTORE PUSH1 0x4 ADD DUP1 DUP1 PUSH1 0x20 ADD DUP3 DUP2 SUB DUP3 MSTORE PUSH1 0xE DUP2 MSTORE PUSH1 0x20 ADD DUP1 PUSH32 0x4E6F20707269636520666F756E64000000000000000000000000000000000000 DUP2 MSTORE POP PUSH1 0x20 ADD SWAP2 POP POP PUSH1 0x40 MLOAD DUP1 SWAP2 SUB SWAP1 REVERT JUMPDEST DUP1 PUSH1 0xFF AND DUP3 DUP2 PUSH2 0xADD JUMPI INVALID JUMPDEST DIV SWAP3 POP POP POP SWAP2 SWAP1 POP JUMP JUMPDEST PUSH1 0x0 PUSH1 0x5 PUSH1 0x0 CALLER PUSH20 0xFFFFFFFFFFFFFFFFFFFFFFFFFFFFFFFFFFFFFFFF AND PUSH20 0xFFFFFFFFFFFFFFFFFFFFFFFFFFFFFFFFFFFFFFFF AND DUP2 MSTORE PUSH1 0x20 ADD SWAP1 DUP2 MSTORE PUSH1 0x20 ADD PUSH1 0x0 KECCAK256 PUSH1 0x0 SWAP1 SLOAD SWAP1 PUSH2 0x100 EXP SWAP1 DIV PUSH1 0xFF AND SWAP1 POP SWAP1 JUMP JUMPDEST PUSH1 0x0 DUP1 PUSH1 0x0 SLOAD GT PUSH2 0xBB4 JUMPI PUSH1 0x40 MLOAD PUSH32 0x8C379A000000000000000000000000000000000000000000000000000000000 DUP2 MSTORE PUSH1 0x4 ADD DUP1 DUP1 PUSH1 0x20 ADD DUP3 DUP2 SUB DUP3 MSTORE PUSH1 0xF DUP2 MSTORE PUSH1 0x20 ADD DUP1 PUSH32 0x4E6F2073746F7265642070726963650000000000000000000000000000000000 DUP2 MSTORE POP PUSH1 0x20 ADD SWAP2 POP POP PUSH1 0x40 MLOAD DUP1 SWAP2 SUB SWAP1 REVERT JUMPDEST PUSH1 0x0 SLOAD SWAP1 POP SWAP1 JUMP JUMPDEST PUSH1 0x5 PUSH1 0x20 MSTORE DUP1 PUSH1 0x0 MSTORE PUSH1 0x40 PUSH1 0x0 KECCAK256 PUSH1 0x0 SWAP2 POP SLOAD SWAP1 PUSH2 0x100 EXP SWAP1 DIV PUSH1 0xFF AND DUP2 JUMP JUMPDEST PUSH1 0x3 PUSH1 0x0 SWAP1 SLOAD SWAP1 PUSH2 0x100 EXP SWAP1 DIV PUSH20 0xFFFFFFFFFFFFFFFFFFFFFFFFFFFFFFFFFFFFFFFF AND PUSH20 0xFFFFFFFFFFFFFFFFFFFFFFFFFFFFFFFFFFFFFFFF AND CALLER PUSH20 0xFFFFFFFFFFFFFFFFFFFFFFFFFFFFFFFFFFFFFFFF AND EQ PUSH2 0xC36 JUMPI PUSH1 0x0 DUP1 REVERT JUMPDEST DUP1 PUSH1 0x7 DUP2 SWAP1 SSTORE POP POP JUMP JUMPDEST PUSH1 0x3 PUSH1 0x0 SWAP1 SLOAD SWAP1 PUSH2 0x100 EXP SWAP1 DIV PUSH20 0xFFFFFFFFFFFFFFFFFFFFFFFFFFFFFFFFFFFFFFFF AND PUSH20 0xFFFFFFFFFFFFFFFFFFFFFFFFFFFFFFFFFFFFFFFF AND CALLER PUSH20 0xFFFFFFFFFFFFFFFFFFFFFFFFFFFFFFFFFFFFFFFF AND EQ PUSH2 0xC9A JUMPI PUSH1 0x0 DUP1 REVERT JUMPDEST PUSH1 0x4 PUSH1 0x1 PUSH1 0x4 DUP1 SLOAD SWAP1 POP SUB DUP2 SLOAD DUP2 LT PUSH2 0xCAF JUMPI INVALID JUMPDEST SWAP1 PUSH1 0x0 MSTORE PUSH1 0x20 PUSH1 0x0 KECCAK256 ADD PUSH1 0x0 SWAP1 SLOAD SWAP1 PUSH2 0x100 EXP SWAP1 DIV PUSH20 0xFFFFFFFFFFFFFFFFFFFFFFFFFFFFFFFFFFFFFFFF AND PUSH1 0x4 DUP3 PUSH1 0xFF AND DUP2 SLOAD DUP2 LT PUSH2 0xCEA JUMPI INVALID JUMPDEST SWAP1 PUSH1 0x0 MSTORE PUSH1 0x20 PUSH1 0x0 KECCAK256 ADD PUSH1 0x0 PUSH2 0x100 EXP DUP2 SLOAD DUP2 PUSH20 0xFFFFFFFFFFFFFFFFFFFFFFFFFFFFFFFFFFFFFFFF MUL NOT AND SWAP1 DUP4 PUSH20 0xFFFFFFFFFFFFFFFFFFFFFFFFFFFFFFFFFFFFFFFF AND MUL OR SWAP1 SSTORE POP PUSH1 0x4 DUP1 SLOAD DUP1 PUSH2 0xD3D JUMPI INVALID JUMPDEST PUSH1 0x1 SWAP1 SUB DUP2 DUP2 SWAP1 PUSH1 0x0 MSTORE PUSH1 0x20 PUSH1 0x0 KECCAK256 ADD PUSH1 0x0 PUSH2 0x100 EXP DUP2 SLOAD SWAP1 PUSH20 0xFFFFFFFFFFFFFFFFFFFFFFFFFFFFFFFFFFFFFFFF MUL NOT AND SWAP1 SSTORE SWAP1 SSTORE POP JUMP JUMPDEST PUSH1 0x3 PUSH1 0x0 SWAP1 SLOAD SWAP1 PUSH2 0x100 EXP SWAP1 DIV PUSH20 0xFFFFFFFFFFFFFFFFFFFFFFFFFFFFFFFFFFFFFFFF AND PUSH20 0xFFFFFFFFFFFFFFFFFFFFFFFFFFFFFFFFFFFFFFFF AND CALLER PUSH20 0xFFFFFFFFFFFFFFFFFFFFFFFFFFFFFFFFFFFFFFFF AND EQ PUSH2 0xDCF JUMPI PUSH1 0x0 DUP1 REVERT JUMPDEST DUP1 PUSH1 0x1 PUSH1 0x0 PUSH2 0x100 EXP DUP2 SLOAD DUP2 PUSH20 0xFFFFFFFFFFFFFFFFFFFFFFFFFFFFFFFFFFFFFFFF MUL NOT AND SWAP1 DUP4 PUSH20 0xFFFFFFFFFFFFFFFFFFFFFFFFFFFFFFFFFFFFFFFF AND MUL OR SWAP1 SSTORE POP POP JUMP JUMPDEST PUSH1 0x3 PUSH1 0x0 SWAP1 SLOAD SWAP1 PUSH2 0x100 EXP SWAP1 DIV PUSH20 0xFFFFFFFFFFFFFFFFFFFFFFFFFFFFFFFFFFFFFFFF AND PUSH20 0xFFFFFFFFFFFFFFFFFFFFFFFFFFFFFFFFFFFFFFFF AND CALLER PUSH20 0xFFFFFFFFFFFFFFFFFFFFFFFFFFFFFFFFFFFFFFFF AND EQ PUSH2 0xE6D JUMPI PUSH1 0x0 DUP1 REVERT JUMPDEST PUSH1 0x0 SELFBALANCE LT ISZERO PUSH2 0xEE4 JUMPI PUSH1 0x40 MLOAD PUSH32 0x8C379A000000000000000000000000000000000000000000000000000000000 DUP2 MSTORE PUSH1 0x4 ADD DUP1 DUP1 PUSH1 0x20 ADD DUP3 DUP2 SUB DUP3 MSTORE PUSH1 0x12 DUP2 MSTORE PUSH1 0x20 ADD DUP1 PUSH32 0x4E6F7420656E6F7567682062616C616E63650000000000000000000000000000 DUP2 MSTORE POP PUSH1 0x20 ADD SWAP2 POP POP PUSH1 0x40 MLOAD DUP1 SWAP2 SUB SWAP1 REVERT JUMPDEST PUSH1 0x3 PUSH1 0x0 SWAP1 SLOAD SWAP1 PUSH2 0x100 EXP SWAP1 DIV PUSH20 0xFFFFFFFFFFFFFFFFFFFFFFFFFFFFFFFFFFFFFFFF AND PUSH20 0xFFFFFFFFFFFFFFFFFFFFFFFFFFFFFFFFFFFFFFFF AND PUSH2 0x8FC SELFBALANCE SWAP1 DUP2 ISZERO MUL SWAP1 PUSH1 0x40 MLOAD PUSH1 0x0 PUSH1 0x40 MLOAD DUP1 DUP4 SUB DUP2 DUP6 DUP9 DUP9 CALL SWAP4 POP POP POP POP ISZERO DUP1 ISZERO PUSH2 0xF4C JUMPI RETURNDATASIZE PUSH1 0x0 DUP1 RETURNDATACOPY RETURNDATASIZE PUSH1 0x0 REVERT JUMPDEST POP JUMP JUMPDEST PUSH1 0x1 PUSH1 0x0 SWAP1 SLOAD SWAP1 PUSH2 0x100 EXP SWAP1 DIV PUSH20 0xFFFFFFFFFFFFFFFFFFFFFFFFFFFFFFFFFFFFFFFF AND DUP2 JUMP JUMPDEST PUSH1 0x0 SLOAD DUP2 JUMP JUMPDEST PUSH1 0x3 PUSH1 0x0 SWAP1 SLOAD SWAP1 PUSH2 0x100 EXP SWAP1 DIV PUSH20 0xFFFFFFFFFFFFFFFFFFFFFFFFFFFFFFFFFFFFFFFF AND PUSH20 0xFFFFFFFFFFFFFFFFFFFFFFFFFFFFFFFFFFFFFFFF AND CALLER PUSH20 0xFFFFFFFFFFFFFFFFFFFFFFFFFFFFFFFFFFFFFFFF AND EQ PUSH2 0xFD5 JUMPI PUSH1 0x0 DUP1 REVERT JUMPDEST DUP1 PUSH1 0x2 PUSH1 0x0 PUSH2 0x100 EXP DUP2 SLOAD DUP2 PUSH20 0xFFFFFFFFFFFFFFFFFFFFFFFFFFFFFFFFFFFFFFFF MUL NOT AND SWAP1 DUP4 PUSH20 0xFFFFFFFFFFFFFFFFFFFFFFFFFFFFFFFFFFFFFFFF AND MUL OR SWAP1 SSTORE POP POP JUMP JUMPDEST PUSH1 0x5 PUSH1 0x0 CALLER PUSH20 0xFFFFFFFFFFFFFFFFFFFFFFFFFFFFFFFFFFFFFFFF AND PUSH20 0xFFFFFFFFFFFFFFFFFFFFFFFFFFFFFFFFFFFFFFFF AND DUP2 MSTORE PUSH1 0x20 ADD SWAP1 DUP2 MSTORE PUSH1 0x20 ADD PUSH1 0x0 KECCAK256 PUSH1 0x0 SWAP1 SLOAD SWAP1 PUSH2 0x100 EXP SWAP1 DIV PUSH1 0xFF AND ISZERO PUSH1 0x5 PUSH1 0x0 CALLER PUSH20 0xFFFFFFFFFFFFFFFFFFFFFFFFFFFFFFFFFFFFFFFF AND PUSH20 0xFFFFFFFFFFFFFFFFFFFFFFFFFFFFFFFFFFFFFFFF AND DUP2 MSTORE PUSH1 0x20 ADD SWAP1 DUP2 MSTORE PUSH1 0x20 ADD PUSH1 0x0 KECCAK256 PUSH1 0x0 PUSH2 0x100 EXP DUP2 SLOAD DUP2 PUSH1 0xFF MUL NOT AND SWAP1 DUP4 ISZERO ISZERO MUL OR SWAP1 SSTORE POP JUMP JUMPDEST PUSH1 0x3 PUSH1 0x0 SWAP1 SLOAD SWAP1 PUSH2 0x100 EXP SWAP1 DIV PUSH20 0xFFFFFFFFFFFFFFFFFFFFFFFFFFFFFFFFFFFFFFFF AND PUSH20 0xFFFFFFFFFFFFFFFFFFFFFFFFFFFFFFFFFFFFFFFF AND CALLER PUSH20 0xFFFFFFFFFFFFFFFFFFFFFFFFFFFFFFFFFFFFFFFF AND EQ PUSH2 0x1119 JUMPI PUSH1 0x0 DUP1 REVERT JUMPDEST PUSH1 0x0 DUP3 PUSH20 0xFFFFFFFFFFFFFFFFFFFFFFFFFFFFFFFFFFFFFFFF AND PUSH4 0x1698EE82 PUSH1 0x2 PUSH1 0x0 SWAP1 SLOAD SWAP1 PUSH2 0x100 EXP SWAP1 DIV PUSH20 0xFFFFFFFFFFFFFFFFFFFFFFFFFFFFFFFFFFFFFFFF AND PUSH1 0x1 PUSH1 0x0 SWAP1 SLOAD SWAP1 PUSH2 0x100 EXP SWAP1 DIV PUSH20 0xFFFFFFFFFFFFFFFFFFFFFFFFFFFFFFFFFFFFFFFF AND DUP6 PUSH1 0x40 MLOAD DUP5 PUSH4 0xFFFFFFFF AND PUSH1 0xE0 SHL DUP2 MSTORE PUSH1 0x4 ADD DUP1 DUP5 PUSH20 0xFFFFFFFFFFFFFFFFFFFFFFFFFFFFFFFFFFFFFFFF AND DUP2 MSTORE PUSH1 0x20 ADD DUP4 PUSH20 0xFFFFFFFFFFFFFFFFFFFFFFFFFFFFFFFFFFFFFFFF AND DUP2 MSTORE PUSH1 0x20 ADD DUP3 PUSH3 0xFFFFFF AND DUP2 MSTORE PUSH1 0x20 ADD SWAP4 POP POP POP POP PUSH1 0x20 PUSH1 0x40 MLOAD DUP1 DUP4 SUB DUP2 DUP7 DUP1 EXTCODESIZE ISZERO DUP1 ISZERO PUSH2 0x11F1 JUMPI PUSH1 0x0 DUP1 REVERT JUMPDEST POP GAS STATICCALL ISZERO DUP1 ISZERO PUSH2 0x1205 JUMPI RETURNDATASIZE PUSH1 0x0 DUP1 RETURNDATACOPY RETURNDATASIZE PUSH1 0x0 REVERT JUMPDEST POP POP POP POP PUSH1 0x40 MLOAD RETURNDATASIZE PUSH1 0x20 DUP2 LT ISZERO PUSH2 0x121B JUMPI PUSH1 0x0 DUP1 REVERT JUMPDEST DUP2 ADD SWAP1 DUP1 DUP1 MLOAD SWAP1 PUSH1 0x20 ADD SWAP1 SWAP3 SWAP2 SWAP1 POP POP POP SWAP1 POP PUSH1 0x0 PUSH20 0xFFFFFFFFFFFFFFFFFFFFFFFFFFFFFFFFFFFFFFFF AND DUP2 PUSH20 0xFFFFFFFFFFFFFFFFFFFFFFFFFFFFFFFFFFFFFFFF AND EQ ISZERO PUSH2 0x12D1 JUMPI PUSH1 0x40 MLOAD PUSH32 0x8C379A000000000000000000000000000000000000000000000000000000000 DUP2 MSTORE PUSH1 0x4 ADD DUP1 DUP1 PUSH1 0x20 ADD DUP3 DUP2 SUB DUP3 MSTORE PUSH1 0xE DUP2 MSTORE PUSH1 0x20 ADD DUP1 PUSH32 0x506F6F6C204E6F7420466F756E64000000000000000000000000000000000000 DUP2 MSTORE POP PUSH1 0x20 ADD SWAP2 POP POP PUSH1 0x40 MLOAD DUP1 SWAP2 SUB SWAP1 REVERT JUMPDEST PUSH1 0x4 DUP2 SWAP1 DUP1 PUSH1 0x1 DUP2 SLOAD ADD DUP1 DUP3 SSTORE DUP1 SWAP2 POP POP PUSH1 0x1 SWAP1 SUB SWAP1 PUSH1 0x0 MSTORE PUSH1 0x20 PUSH1 0x0 KECCAK256 ADD PUSH1 0x0 SWAP1 SWAP2 SWAP1 SWAP2 SWAP1 SWAP2 PUSH2 0x100 EXP DUP2 SLOAD DUP2 PUSH20 0xFFFFFFFFFFFFFFFFFFFFFFFFFFFFFFFFFFFFFFFF MUL NOT AND SWAP1 DUP4 PUSH20 0xFFFFFFFFFFFFFFFFFFFFFFFFFFFFFFFFFFFFFFFF AND MUL OR SWAP1 SSTORE POP POP POP POP JUMP JUMPDEST PUSH1 0x0 DUP1 PUSH1 0x4 DUP4 PUSH1 0xFF AND DUP2 SLOAD DUP2 LT PUSH2 0x134C JUMPI INVALID JUMPDEST SWAP1 PUSH1 0x0 MSTORE PUSH1 0x20 PUSH1 0x0 KECCAK256 ADD PUSH1 0x0 SWAP1 SLOAD SWAP1 PUSH2 0x100 EXP SWAP1 DIV PUSH20 0xFFFFFFFFFFFFFFFFFFFFFFFFFFFFFFFFFFFFFFFF AND PUSH20 0xFFFFFFFFFFFFFFFFFFFFFFFFFFFFFFFFFFFFFFFF AND PUSH4 0x3850C7BD PUSH1 0x40 MLOAD DUP2 PUSH4 0xFFFFFFFF AND PUSH1 0xE0 SHL DUP2 MSTORE PUSH1 0x4 ADD PUSH1 0xE0 PUSH1 0x40 MLOAD DUP1 DUP4 SUB DUP2 DUP7 DUP1 EXTCODESIZE ISZERO DUP1 ISZERO PUSH2 0x13BC JUMPI PUSH1 0x0 DUP1 REVERT JUMPDEST POP GAS STATICCALL ISZERO DUP1 ISZERO PUSH2 0x13D0 JUMPI RETURNDATASIZE PUSH1 0x0 DUP1 RETURNDATACOPY RETURNDATASIZE PUSH1 0x0 REVERT JUMPDEST POP POP POP POP PUSH1 0x40 MLOAD RETURNDATASIZE PUSH1 0xE0 DUP2 LT ISZERO PUSH2 0x13E6 JUMPI PUSH1 0x0 DUP1 REVERT JUMPDEST DUP2 ADD SWAP1 DUP1 DUP1 MLOAD SWAP1 PUSH1 0x20 ADD SWAP1 SWAP3 SWAP2 SWAP1 DUP1 MLOAD SWAP1 PUSH1 0x20 ADD SWAP1 SWAP3 SWAP2 SWAP1 DUP1 MLOAD SWAP1 PUSH1 0x20 ADD SWAP1 SWAP3 SWAP2 SWAP1 DUP1 MLOAD SWAP1 PUSH1 0x20 ADD SWAP1 SWAP3 SWAP2 SWAP1 DUP1 MLOAD SWAP1 PUSH1 0x20 ADD SWAP1 SWAP3 SWAP2 SWAP1 DUP1 MLOAD SWAP1 PUSH1 0x20 ADD SWAP1 SWAP3 SWAP2 SWAP1 DUP1 MLOAD SWAP1 PUSH1 0x20 ADD SWAP1 SWAP3 SWAP2 SWAP1 POP POP POP POP POP POP POP POP SWAP2 POP POP PUSH2 0x1493 DUP2 PUSH8 0xDE0B6B3A7640000 PUSH1 0x1 PUSH1 0x0 SWAP1 SLOAD SWAP1 PUSH2 0x100 EXP SWAP1 DIV PUSH20 0xFFFFFFFFFFFFFFFFFFFFFFFFFFFFFFFFFFFFFFFF AND PUSH1 0x2 PUSH1 0x0 SWAP1 SLOAD SWAP1 PUSH2 0x100 EXP SWAP1 DIV PUSH20 0xFFFFFFFFFFFFFFFFFFFFFFFFFFFFFFFFFFFFFFFF AND PUSH2 0x191B JUMP JUMPDEST SWAP2 POP POP SWAP2 SWAP1 POP JUMP JUMPDEST PUSH1 0x4 DUP2 DUP2 SLOAD DUP2 LT PUSH2 0x14AB JUMPI PUSH1 0x0 DUP1 REVERT JUMPDEST SWAP1 PUSH1 0x0 MSTORE PUSH1 0x20 PUSH1 0x0 KECCAK256 ADD PUSH1 0x0 SWAP2 POP SLOAD SWAP1 PUSH2 0x100 EXP SWAP1 DIV PUSH20 0xFFFFFFFFFFFFFFFFFFFFFFFFFFFFFFFFFFFFFFFF AND DUP2 JUMP JUMPDEST PUSH1 0x3 PUSH1 0x0 SWAP1 SLOAD SWAP1 PUSH2 0x100 EXP SWAP1 DIV PUSH20 0xFFFFFFFFFFFFFFFFFFFFFFFFFFFFFFFFFFFFFFFF AND DUP2 JUMP JUMPDEST PUSH1 0x60 PUSH1 0x0 PUSH1 0x5 PUSH1 0x0 CALLER PUSH20 0xFFFFFFFFFFFFFFFFFFFFFFFFFFFFFFFFFFFFFFFF AND PUSH20 0xFFFFFFFFFFFFFFFFFFFFFFFFFFFFFFFFFFFFFFFF AND DUP2 MSTORE PUSH1 0x20 ADD SWAP1 DUP2 MSTORE PUSH1 0x20 ADD PUSH1 0x0 KECCAK256 PUSH1 0x0 SWAP1 SLOAD SWAP1 PUSH2 0x100 EXP SWAP1 DIV PUSH1 0xFF AND PUSH2 0x1590 JUMPI PUSH1 0x40 MLOAD DUP1 PUSH1 0x40 ADD PUSH1 0x40 MSTORE DUP1 PUSH1 0x7 DUP2 MSTORE PUSH1 0x20 ADD PUSH32 0x424E425553445400000000000000000000000000000000000000000000000000 DUP2 MSTORE POP PUSH2 0x15C7 JUMP JUMPDEST PUSH1 0x40 MLOAD DUP1 PUSH1 0x40 ADD PUSH1 0x40 MSTORE DUP1 PUSH1 0x7 DUP2 MSTORE PUSH1 0x20 ADD PUSH32 0x55534454424E4200000000000000000000000000000000000000000000000000 DUP2 MSTORE POP JUMPDEST SWAP1 POP DUP1 SWAP2 POP POP SWAP1 JUMP JUMPDEST PUSH1 0x3 PUSH1 0x0 SWAP1 SLOAD SWAP1 PUSH2 0x100 EXP SWAP1 DIV PUSH20 0xFFFFFFFFFFFFFFFFFFFFFFFFFFFFFFFFFFFFFFFF AND PUSH20 0xFFFFFFFFFFFFFFFFFFFFFFFFFFFFFFFFFFFFFFFF AND CALLER PUSH20 0xFFFFFFFFFFFFFFFFFFFFFFFFFFFFFFFFFFFFFFFF AND EQ PUSH2 0x162A JUMPI PUSH1 0x0 DUP1 REVERT JUMPDEST DUP1 PUSH1 0x3 PUSH1 0x0 PUSH2 0x100 EXP DUP2 SLOAD DUP2 PUSH20 0xFFFFFFFFFFFFFFFFFFFFFFFFFFFFFFFFFFFFFFFF MUL NOT AND SWAP1 DUP4 PUSH20 0xFFFFFFFFFFFFFFFFFFFFFFFFFFFFFFFFFFFFFFFF AND MUL OR SWAP1 SSTORE POP POP JUMP JUMPDEST PUSH1 0x0 DUP1 PUSH1 0x4 DUP4 PUSH1 0xFF AND DUP2 SLOAD DUP2 LT PUSH2 0x1681 JUMPI INVALID JUMPDEST SWAP1 PUSH1 0x0 MSTORE PUSH1 0x20 PUSH1 0x0 KECCAK256 ADD PUSH1 0x0 SWAP1 SLOAD SWAP1 PUSH2 0x100 EXP SWAP1 DIV PUSH20 0xFFFFFFFFFFFFFFFFFFFFFFFFFFFFFFFFFFFFFFFF AND PUSH20 0xFFFFFFFFFFFFFFFFFFFFFFFFFFFFFFFFFFFFFFFF AND PUSH4 0x3850C7BD PUSH1 0x40 MLOAD DUP2 PUSH4 0xFFFFFFFF AND PUSH1 0xE0 SHL DUP2 MSTORE PUSH1 0x4 ADD PUSH1 0xE0 PUSH1 0x40 MLOAD DUP1 DUP4 SUB DUP2 DUP7 DUP1 EXTCODESIZE ISZERO DUP1 ISZERO PUSH2 0x16F1 JUMPI PUSH1 0x0 DUP1 REVERT JUMPDEST POP GAS STATICCALL ISZERO DUP1 ISZERO PUSH2 0x1705 JUMPI RETURNDATASIZE PUSH1 0x0 DUP1 RETURNDATACOPY RETURNDATASIZE PUSH1 0x0 REVERT JUMPDEST POP POP POP POP PUSH1 0x40 MLOAD RETURNDATASIZE PUSH1 0xE0 DUP2 LT ISZERO PUSH2 0x171B JUMPI PUSH1 0x0 DUP1 REVERT JUMPDEST DUP2 ADD SWAP1 DUP1 DUP1 MLOAD SWAP1 PUSH1 0x20 ADD SWAP1 SWAP3 SWAP2 SWAP1 DUP1 MLOAD SWAP1 PUSH1 0x20 ADD SWAP1 SWAP3 SWAP2 SWAP1 DUP1 MLOAD SWAP1 PUSH1 0x20 ADD SWAP1 SWAP3 SWAP2 SWAP1 DUP1 MLOAD SWAP1 PUSH1 0x20 ADD SWAP1 SWAP3 SWAP2 SWAP1 DUP1 MLOAD SWAP1 PUSH1 0x20 ADD SWAP1 SWAP3 SWAP2 SWAP1 DUP1 MLOAD SWAP1 PUSH1 0x20 ADD SWAP1 SWAP3 SWAP2 SWAP1 DUP1 MLOAD SWAP1 PUSH1 0x20 ADD SWAP1 SWAP3 SWAP2 SWAP1 POP POP POP POP POP POP POP POP SWAP2 POP POP PUSH2 0x17C8 DUP2 PUSH8 0xDE0B6B3A7640000 PUSH1 0x2 PUSH1 0x0 SWAP1 SLOAD SWAP1 PUSH2 0x100 EXP SWAP1 DIV PUSH20 0xFFFFFFFFFFFFFFFFFFFFFFFFFFFFFFFFFFFFFFFF AND PUSH1 0x1 PUSH1 0x0 SWAP1 SLOAD SWAP1 PUSH2 0x100 EXP SWAP1 DIV PUSH20 0xFFFFFFFFFFFFFFFFFFFFFFFFFFFFFFFFFFFFFFFF AND PUSH2 0x191B JUMP JUMPDEST SWAP2 POP POP SWAP2 SWAP1 POP JUMP JUMPDEST PUSH1 0x2 PUSH1 0x0 SWAP1 SLOAD SWAP1 PUSH2 0x100 EXP SWAP1 DIV PUSH20 0xFFFFFFFFFFFFFFFFFFFFFFFFFFFFFFFFFFFFFFFF AND DUP2 JUMP JUMPDEST PUSH1 0x0 DUP1 PUSH1 0x6 PUSH1 0x0 CALLER PUSH20 0xFFFFFFFFFFFFFFFFFFFFFFFFFFFFFFFFFFFFFFFF AND PUSH20 0xFFFFFFFFFFFFFFFFFFFFFFFFFFFFFFFFFFFFFFFF AND DUP2 MSTORE PUSH1 0x20 ADD SWAP1 DUP2 MSTORE PUSH1 0x20 ADD PUSH1 0x0 KECCAK256 SLOAD GT PUSH2 0x18AC JUMPI PUSH1 0x40 MLOAD PUSH32 0x8C379A000000000000000000000000000000000000000000000000000000000 DUP2 MSTORE PUSH1 0x4 ADD DUP1 DUP1 PUSH1 0x20 ADD DUP3 DUP2 SUB DUP3 MSTORE PUSH1 0xF DUP2 MSTORE PUSH1 0x20 ADD DUP1 PUSH32 0x4E6F2073746F7265642070726963650000000000000000000000000000000000 DUP2 MSTORE POP PUSH1 0x20 ADD SWAP2 POP POP PUSH1 0x40 MLOAD DUP1 SWAP2 SUB SWAP1 REVERT JUMPDEST PUSH1 0x6 PUSH1 0x0 CALLER PUSH20 0xFFFFFFFFFFFFFFFFFFFFFFFFFFFFFFFFFFFFFFFF AND PUSH20 0xFFFFFFFFFFFFFFFFFFFFFFFFFFFFFFFFFFFFFFFF AND DUP2 MSTORE PUSH1 0x20 ADD SWAP1 DUP2 MSTORE PUSH1 0x20 ADD PUSH1 0x0 KECCAK256 SLOAD SWAP1 POP SWAP1 JUMP JUMPDEST PUSH1 0x6 PUSH1 0x20 MSTORE DUP1 PUSH1 0x0 MSTORE PUSH1 0x40 PUSH1 0x0 KECCAK256 PUSH1 0x0 SWAP2 POP SWAP1 POP SLOAD DUP2 JUMP JUMPDEST PUSH1 0x0 DUP1 PUSH1 0x4 DUP1 SLOAD SWAP1 POP SWAP1 POP DUP1 SWAP2 POP POP SWAP1 JUMP JUMPDEST PUSH1 0x0 DUP1 PUSH2 0x1927 DUP7 PUSH2 0x1B1E JUMP JUMPDEST SWAP1 POP PUSH16 0xFFFFFFFFFFFFFFFFFFFFFFFFFFFFFFFF DUP1 AND DUP2 PUSH20 0xFFFFFFFFFFFFFFFFFFFFFFFFFFFFFFFFFFFFFFFF AND GT PUSH2 0x1A38 JUMPI PUSH1 0x0 DUP2 PUSH20 0xFFFFFFFFFFFFFFFFFFFFFFFFFFFFFFFFFFFFFFFF AND DUP3 PUSH20 0xFFFFFFFFFFFFFFFFFFFFFFFFFFFFFFFFFFFFFFFF AND MUL SWAP1 POP DUP4 PUSH20 0xFFFFFFFFFFFFFFFFFFFFFFFFFFFFFFFFFFFFFFFF AND DUP6 PUSH20 0xFFFFFFFFFFFFFFFFFFFFFFFFFFFFFFFFFFFFFFFF AND LT PUSH2 0x19F9 JUMPI PUSH2 0x19F4 PUSH25 0x1000000000000000000000000000000000000000000000000 DUP8 PUSH16 0xFFFFFFFFFFFFFFFFFFFFFFFFFFFFFFFF AND DUP4 PUSH2 0x1F59 JUMP JUMPDEST PUSH2 0x1A30 JUMP JUMPDEST PUSH2 0x1A2F DUP2 DUP8 PUSH16 0xFFFFFFFFFFFFFFFFFFFFFFFFFFFFFFFF AND PUSH25 0x1000000000000000000000000000000000000000000000000 PUSH2 0x1F59 JUMP JUMPDEST JUMPDEST SWAP3 POP POP PUSH2 0x1B15 JUMP JUMPDEST PUSH1 0x0 PUSH2 0x1A7A DUP3 PUSH20 0xFFFFFFFFFFFFFFFFFFFFFFFFFFFFFFFFFFFFFFFF AND DUP4 PUSH20 0xFFFFFFFFFFFFFFFFFFFFFFFFFFFFFFFFFFFFFFFF AND PUSH9 0x10000000000000000 PUSH2 0x1F59 JUMP JUMPDEST SWAP1 POP DUP4 PUSH20 0xFFFFFFFFFFFFFFFFFFFFFFFFFFFFFFFFFFFFFFFF AND DUP6 PUSH20 0xFFFFFFFFFFFFFFFFFFFFFFFFFFFFFFFFFFFFFFFF AND LT PUSH2 0x1AE2 JUMPI PUSH2 0x1ADD PUSH17 0x100000000000000000000000000000000 DUP8 PUSH16 0xFFFFFFFFFFFFFFFFFFFFFFFFFFFFFFFF AND DUP4 PUSH2 0x1F59 JUMP JUMPDEST PUSH2 0x1B11 JUMP JUMPDEST PUSH2 0x1B10 DUP2 DUP8 PUSH16 0xFFFFFFFFFFFFFFFFFFFFFFFFFFFFFFFF AND PUSH17 0x100000000000000000000000000000000 PUSH2 0x1F59 JUMP JUMPDEST JUMPDEST SWAP3 POP POP JUMPDEST POP SWAP5 SWAP4 POP POP POP POP JUMP JUMPDEST PUSH1 0x0 DUP1 PUSH1 0x0 DUP4 PUSH1 0x2 SIGNEXTEND SLT PUSH2 0x1B35 JUMPI DUP3 PUSH1 0x2 SIGNEXTEND PUSH2 0x1B3D JUMP JUMPDEST DUP3 PUSH1 0x2 SIGNEXTEND PUSH1 0x0 SUB JUMPDEST SWAP1 POP PUSH32 0xFFFFFFFFFFFFFFFFFFFFFFFFFFFFFFFFFFFFFFFFFFFFFFFFFFFFFFFFFFF27618 PUSH1 0x0 SUB PUSH1 0x2 SIGNEXTEND DUP2 GT ISZERO PUSH2 0x1BDB JUMPI PUSH1 0x40 MLOAD PUSH32 0x8C379A000000000000000000000000000000000000000000000000000000000 DUP2 MSTORE PUSH1 0x4 ADD DUP1 DUP1 PUSH1 0x20 ADD DUP3 DUP2 SUB DUP3 MSTORE PUSH1 0x1 DUP2 MSTORE PUSH1 0x20 ADD DUP1 PUSH32 0x5400000000000000000000000000000000000000000000000000000000000000 DUP2 MSTORE POP PUSH1 0x20 ADD SWAP2 POP POP PUSH1 0x40 MLOAD DUP1 SWAP2 SUB SWAP1 REVERT JUMPDEST PUSH1 0x0 DUP1 PUSH1 0x1 DUP4 AND EQ ISZERO PUSH2 0x1BFF JUMPI PUSH17 0x100000000000000000000000000000000 PUSH2 0x1C11 JUMP JUMPDEST PUSH16 0xFFFCB933BD6FAD37AA2D162D1A594001 JUMPDEST PUSH17 0xFFFFFFFFFFFFFFFFFFFFFFFFFFFFFFFFFF AND SWAP1 POP PUSH1 0x0 PUSH1 0x2 DUP4 AND EQ PUSH2 0x1C4B JUMPI PUSH1 0x80 PUSH16 0xFFF97272373D413259A46990580E213A DUP3 MUL SWAP1 SHR SWAP1 POP JUMPDEST PUSH1 0x0 PUSH1 0x4 DUP4 AND EQ PUSH2 0x1C70 JUMPI PUSH1 0x80 PUSH16 0xFFF2E50F5F656932EF12357CF3C7FDCC DUP3 MUL SWAP1 SHR SWAP1 POP JUMPDEST PUSH1 0x0 PUSH1 0x8 DUP4 AND EQ PUSH2 0x1C95 JUMPI PUSH1 0x80 PUSH16 0xFFE5CACA7E10E4E61C3624EAA0941CD0 DUP3 MUL SWAP1 SHR SWAP1 POP JUMPDEST PUSH1 0x0 PUSH1 0x10 DUP4 AND EQ PUSH2 0x1CBA JUMPI PUSH1 0x80 PUSH16 0xFFCB9843D60F6159C9DB58835C926644 DUP3 MUL SWAP1 SHR SWAP1 POP JUMPDEST PUSH1 0x0 PUSH1 0x20 DUP4 AND EQ PUSH2 0x1CDF JUMPI PUSH1 0x80 PUSH16 0xFF973B41FA98C081472E6896DFB254C0 DUP3 MUL SWAP1 SHR SWAP1 POP JUMPDEST PUSH1 0x0 PUSH1 0x40 DUP4 AND EQ PUSH2 0x1D04 JUMPI PUSH1 0x80 PUSH16 0xFF2EA16466C96A3843EC78B326B52861 DUP3 MUL SWAP1 SHR SWAP1 POP JUMPDEST PUSH1 0x0 PUSH1 0x80 DUP4 AND EQ PUSH2 0x1D29 JUMPI PUSH1 0x80 PUSH16 0xFE5DEE046A99A2A811C461F1969C3053 DUP3 MUL SWAP1 SHR SWAP1 POP JUMPDEST PUSH1 0x0 PUSH2 0x100 DUP4 AND EQ PUSH2 0x1D4F JUMPI PUSH1 0x80 PUSH16 0xFCBE86C7900A88AEDCFFC83B479AA3A4 DUP3 MUL SWAP1 SHR SWAP1 POP JUMPDEST PUSH1 0x0 PUSH2 0x200 DUP4 AND EQ PUSH2 0x1D75 JUMPI PUSH1 0x80 PUSH16 0xF987A7253AC413176F2B074CF7815E54 DUP3 MUL SWAP1 SHR SWAP1 POP JUMPDEST PUSH1 0x0 PUSH2 0x400 DUP4 AND EQ PUSH2 0x1D9B JUMPI PUSH1 0x80 PUSH16 0xF3392B0822B70005940C7A398E4B70F3 DUP3 MUL SWAP1 SHR SWAP1 POP JUMPDEST PUSH1 0x0 PUSH2 0x800 DUP4 AND EQ PUSH2 0x1DC1 JUMPI PUSH1 0x80 PUSH16 0xE7159475A2C29B7443B29C7FA6E889D9 DUP3 MUL SWAP1 SHR SWAP1 POP JUMPDEST PUSH1 0x0 PUSH2 0x1000 DUP4 AND EQ PUSH2 0x1DE7 JUMPI PUSH1 0x80 PUSH16 0xD097F3BDFD2022B8845AD8F792AA5825 DUP3 MUL SWAP1 SHR SWAP1 POP JUMPDEST PUSH1 0x0 PUSH2 0x2000 DUP4 AND EQ PUSH2 0x1E0D JUMPI PUSH1 0x80 PUSH16 0xA9F746462D870FDF8A65DC1F90E061E5 DUP3 MUL SWAP1 SHR SWAP1 POP JUMPDEST PUSH1 0x0 PUSH2 0x4000 DUP4 AND EQ PUSH2 0x1E33 JUMPI PUSH1 0x80 PUSH16 0x70D869A156D2A1B890BB3DF62BAF32F7 DUP3 MUL SWAP1 SHR SWAP1 POP JUMPDEST PUSH1 0x0 PUSH2 0x8000 DUP4 AND EQ PUSH2 0x1E59 JUMPI PUSH1 0x80 PUSH16 0x31BE135F97D08FD981231505542FCFA6 DUP3 MUL SWAP1 SHR SWAP1 POP JUMPDEST PUSH1 0x0 PUSH3 0x10000 DUP4 AND EQ PUSH2 0x1E80 JUMPI PUSH1 0x80 PUSH16 0x9AA508B5B7A84E1C677DE54F3E99BC9 DUP3 MUL SWAP1 SHR SWAP1 POP JUMPDEST PUSH1 0x0 PUSH3 0x20000 DUP4 AND EQ PUSH2 0x1EA6 JUMPI PUSH1 0x80 PUSH15 0x5D6AF8DEDB81196699C329225EE604 DUP3 MUL SWAP1 SHR SWAP1 POP JUMPDEST PUSH1 0x0 PUSH3 0x40000 DUP4 AND EQ PUSH2 0x1ECB JUMPI PUSH1 0x80 PUSH14 0x2216E584F5FA1EA926041BEDFE98 DUP3 MUL SWAP1 SHR SWAP1 POP JUMPDEST PUSH1 0x0 PUSH3 0x80000 DUP4 AND EQ PUSH2 0x1EEE JUMPI PUSH1 0x80 PUSH12 0x48A170391F7DC42444E8FA2 DUP3 MUL SWAP1 SHR SWAP1 POP JUMPDEST PUSH1 0x0 DUP5 PUSH1 0x2 SIGNEXTEND SGT ISZERO PUSH2 0x1F27 JUMPI DUP1 PUSH32 0xFFFFFFFFFFFFFFFFFFFFFFFFFFFFFFFFFFFFFFFFFFFFFFFFFFFFFFFFFFFFFFFF DUP2 PUSH2 0x1F23 JUMPI INVALID JUMPDEST DIV SWAP1 POP JUMPDEST PUSH1 0x0 PUSH5 0x100000000 DUP3 DUP2 PUSH2 0x1F37 JUMPI INVALID JUMPDEST MOD EQ PUSH2 0x1F44 JUMPI PUSH1 0x1 PUSH2 0x1F47 JUMP JUMPDEST PUSH1 0x0 JUMPDEST PUSH1 0xFF AND PUSH1 0x20 DUP3 SWAP1 SHR ADD SWAP3 POP POP POP SWAP2 SWAP1 POP JUMP JUMPDEST PUSH1 0x0 DUP1 PUSH1 0x0 DUP1 NOT DUP6 DUP8 MULMOD DUP6 DUP8 MUL SWAP3 POP DUP3 DUP2 LT DUP4 DUP3 SUB SUB SWAP2 POP POP PUSH1 0x0 DUP2 EQ ISZERO PUSH2 0x1F94 JUMPI PUSH1 0x0 DUP5 GT PUSH2 0x1F88 JUMPI PUSH1 0x0 DUP1 REVERT JUMPDEST DUP4 DUP3 DIV SWAP3 POP POP POP PUSH2 0x202C JUMP JUMPDEST DUP1 DUP5 GT PUSH2 0x1FA0 JUMPI PUSH1 0x0 DUP1 REVERT JUMPDEST PUSH1 0x0 DUP5 DUP7 DUP9 MULMOD SWAP1 POP DUP3 DUP2 GT DUP3 SUB SWAP2 POP DUP1 DUP4 SUB SWAP3 POP PUSH1 0x0 DUP6 DUP7 PUSH1 0x0 SUB AND SWAP1 POP DUP1 DUP7 DIV SWAP6 POP DUP1 DUP5 DIV SWAP4 POP PUSH1 0x1 DUP2 DUP3 PUSH1 0x0 SUB DIV ADD SWAP1 POP DUP1 DUP4 MUL DUP5 OR SWAP4 POP PUSH1 0x0 PUSH1 0x2 DUP8 PUSH1 0x3 MUL XOR SWAP1 POP DUP1 DUP8 MUL PUSH1 0x2 SUB DUP2 MUL SWAP1 POP DUP1 DUP8 MUL PUSH1 0x2 SUB DUP2 MUL SWAP1 POP DUP1 DUP8 MUL PUSH1 0x2 SUB DUP2 MUL SWAP1 POP DUP1 DUP8 MUL PUSH1 0x2 SUB DUP2 MUL SWAP1 POP DUP1 DUP8 MUL PUSH1 0x2 SUB DUP2 MUL SWAP1 POP DUP1 DUP8 MUL PUSH1 0x2 SUB DUP2 MUL SWAP1 POP DUP1 DUP6 MUL SWAP6 POP POP POP POP POP POP JUMPDEST SWAP4 SWAP3 POP POP POP JUMP INVALID LOG2 PUSH5 0x6970667358 0x22 SLT KECCAK256 0x2A PUSH21 0x913E8BB9C0DF56838A359FC279825FBFDAEB6B8555 SWAP10 0xD5 0xBB SAR 0xB4 0xD9 0xDB PUSH3 0x906473 PUSH16 0x6C634300070600330000000000000000 "
				},
				"gasEstimates": {
					"creation": {
						"codeDepositCost": "1659400",
						"executionCost": "84357",
						"totalCost": "1743757"
					},
					"external": {
						"addPoolUSD(address,uint24)": "infinite",
						"bnb()": "1114",
						"bnbToUsd(uint8)": "infinite",
						"changeOwner(address)": "21993",
						"claimTax()": "infinite",
						"eqMode(address)": "1268",
						"getEqMode()": "1168",
						"getEqModeString()": "infinite",
						"lastPrice(address)": "1279",
						"lastPriceStatic()": "1094",
						"owner()": "1136",
						"poolsLenght()": "1166",
						"poolsUSD(uint256)": "2078",
						"removePoolUSD(uint8)": "67233",
						"setBnbAddress(address)": "21994",
						"setEqMode()": "22161",
						"setTax(uint256)": "21202",
						"setUsdAddress(address)": "22082",
						"usd()": "1113",
						"usdToBnb(uint8)": "infinite",
						"viewAverage()": "2102",
						"viewAverageStatic()": "1882"
					},
					"internal": {
						"_average(bool)": "infinite"
					}
				},
				"methodIdentifiers": {
					"addPoolUSD(address,uint24)": "67b51834",
					"bnb()": "49a876e4",
					"bnbToUsd(uint8)": "6c7474da",
					"changeOwner(address)": "a6f9dae1",
					"claimTax()": "448883d7",
					"eqMode(address)": "14b085a4",
					"getEqMode()": "026f0dbe",
					"getEqModeString()": "a1c6a405",
					"lastPrice(address)": "f5a6ba2e",
					"lastPriceStatic()": "4d899b32",
					"owner()": "8da5cb5b",
					"poolsLenght()": "f74b28c1",
					"poolsUSD(uint256)": "6d201e8b",
					"removePoolUSD(uint8)": "32a6013c",
					"setBnbAddress(address)": "3b907d14",
					"setEqMode()": "65a6cc2e",
					"setTax(uint256)": "2e5bb6ff",
					"setUsdAddress(address)": "5e59c8ce",
					"usd()": "d63a6ccd",
					"usdToBnb(uint8)": "c0404fa7",
					"viewAverage()": "e03d1632",
					"viewAverageStatic()": "09cf28da"
				}
			},
			"storageLayout": {
				"storage": [
					{
						"astId": 1926,
						"contract": "contracts/BNBPrice.sol:BNBPrice",
						"label": "lastPriceStatic",
						"offset": 0,
						"slot": "0",
						"type": "t_uint256"
					},
					{
						"astId": 1928,
						"contract": "contracts/BNBPrice.sol:BNBPrice",
						"label": "bnb",
						"offset": 0,
						"slot": "1",
						"type": "t_address"
					},
					{
						"astId": 1930,
						"contract": "contracts/BNBPrice.sol:BNBPrice",
						"label": "usd",
						"offset": 0,
						"slot": "2",
						"type": "t_address"
					},
					{
						"astId": 1932,
						"contract": "contracts/BNBPrice.sol:BNBPrice",
						"label": "owner",
						"offset": 0,
						"slot": "3",
						"type": "t_address_payable"
					},
					{
						"astId": 1935,
						"contract": "contracts/BNBPrice.sol:BNBPrice",
						"label": "poolsUSD",
						"offset": 0,
						"slot": "4",
						"type": "t_array(t_address)dyn_storage"
					},
					{
						"astId": 1939,
						"contract": "contracts/BNBPrice.sol:BNBPrice",
						"label": "eqMode",
						"offset": 0,
						"slot": "5",
						"type": "t_mapping(t_address,t_bool)"
					},
					{
						"astId": 1943,
						"contract": "contracts/BNBPrice.sol:BNBPrice",
						"label": "lastPrice",
						"offset": 0,
						"slot": "6",
						"type": "t_mapping(t_address,t_uint256)"
					},
					{
						"astId": 1945,
						"contract": "contracts/BNBPrice.sol:BNBPrice",
						"label": "tax",
						"offset": 0,
						"slot": "7",
						"type": "t_uint256"
					}
				],
				"types": {
					"t_address": {
						"encoding": "inplace",
						"label": "address",
						"numberOfBytes": "20"
					},
					"t_address_payable": {
						"encoding": "inplace",
						"label": "address payable",
						"numberOfBytes": "20"
					},
					"t_array(t_address)dyn_storage": {
						"base": "t_address",
						"encoding": "dynamic_array",
						"label": "address[]",
						"numberOfBytes": "32"
					},
					"t_bool": {
						"encoding": "inplace",
						"label": "bool",
						"numberOfBytes": "1"
					},
					"t_mapping(t_address,t_bool)": {
						"encoding": "mapping",
						"key": "t_address",
						"label": "mapping(address => bool)",
						"numberOfBytes": "32",
						"value": "t_bool"
					},
					"t_mapping(t_address,t_uint256)": {
						"encoding": "mapping",
						"key": "t_address",
						"label": "mapping(address => uint256)",
						"numberOfBytes": "32",
						"value": "t_uint256"
					},
					"t_uint256": {
						"encoding": "inplace",
						"label": "uint256",
						"numberOfBytes": "32"
					}
				}
			},
			"userdoc": {
				"kind": "user",
				"methods": {},
				"version": 1
			}
		}
	}
}