{
	"contracts/BNBPrice.sol": {
		"BNBPrice": {
			"abi": [
				{
					"inputs": [],
					"stateMutability": "nonpayable",
					"type": "constructor"
				},
				{
					"anonymous": false,
					"inputs": [
						{
							"indexed": false,
							"internalType": "address",
							"name": "caller",
							"type": "address"
						},
						{
							"indexed": false,
							"internalType": "uint256",
							"name": "tickPrice",
							"type": "uint256"
						}
					],
					"name": "callAverage",
					"type": "event"
				},
				{
					"inputs": [
						{
							"internalType": "address",
							"name": "_factory",
							"type": "address"
						},
						{
							"internalType": "uint24",
							"name": "_fee",
							"type": "uint24"
						}
					],
					"name": "addPoolUSD",
					"outputs": [],
					"stateMutability": "nonpayable",
					"type": "function"
				},
				{
					"inputs": [],
					"name": "bnb",
					"outputs": [
						{
							"internalType": "address",
							"name": "",
							"type": "address"
						}
					],
					"stateMutability": "view",
					"type": "function"
				},
				{
					"inputs": [
						{
							"internalType": "uint8",
							"name": "index",
							"type": "uint8"
						}
					],
					"name": "bnbToUsd",
					"outputs": [
						{
							"internalType": "uint256",
							"name": "price",
							"type": "uint256"
						}
					],
					"stateMutability": "view",
					"type": "function"
				},
				{
					"inputs": [
						{
							"internalType": "address payable",
							"name": "_newOwner",
							"type": "address"
						}
					],
					"name": "changeOwner",
					"outputs": [],
					"stateMutability": "nonpayable",
					"type": "function"
				},
				{
					"inputs": [],
					"name": "claimTax",
					"outputs": [],
					"stateMutability": "nonpayable",
					"type": "function"
				},
				{
					"inputs": [],
					"name": "countReceive",
					"outputs": [
						{
							"internalType": "uint256",
							"name": "",
							"type": "uint256"
						}
					],
					"stateMutability": "view",
					"type": "function"
				},
				{
					"inputs": [
						{
							"internalType": "address",
							"name": "",
							"type": "address"
						}
					],
					"name": "eqMode",
					"outputs": [
						{
							"internalType": "bool",
							"name": "",
							"type": "bool"
						}
					],
					"stateMutability": "view",
					"type": "function"
				},
				{
					"inputs": [],
					"name": "getEqMode",
					"outputs": [
						{
							"internalType": "bool",
							"name": "",
							"type": "bool"
						}
					],
					"stateMutability": "view",
					"type": "function"
				},
				{
					"inputs": [],
					"name": "getEqModeString",
					"outputs": [
						{
							"internalType": "string",
							"name": "",
							"type": "string"
						}
					],
					"stateMutability": "view",
					"type": "function"
				},
				{
					"inputs": [
						{
							"internalType": "address",
							"name": "",
							"type": "address"
						}
					],
					"name": "lastPrice",
					"outputs": [
						{
							"internalType": "uint256",
							"name": "",
							"type": "uint256"
						}
					],
					"stateMutability": "view",
					"type": "function"
				},
				{
					"inputs": [],
					"name": "owner",
					"outputs": [
						{
							"internalType": "address payable",
							"name": "",
							"type": "address"
						}
					],
					"stateMutability": "view",
					"type": "function"
				},
				{
					"inputs": [],
					"name": "poolsLenght",
					"outputs": [
						{
							"internalType": "uint256",
							"name": "",
							"type": "uint256"
						}
					],
					"stateMutability": "view",
					"type": "function"
				},
				{
					"inputs": [
						{
							"internalType": "uint256",
							"name": "",
							"type": "uint256"
						}
					],
					"name": "poolsUSD",
					"outputs": [
						{
							"internalType": "address",
							"name": "",
							"type": "address"
						}
					],
					"stateMutability": "view",
					"type": "function"
				},
				{
					"inputs": [
						{
							"internalType": "uint8",
							"name": "index",
							"type": "uint8"
						}
					],
					"name": "removePoolUSD",
					"outputs": [],
					"stateMutability": "nonpayable",
					"type": "function"
				},
				{
					"inputs": [
						{
							"internalType": "address",
							"name": "_bnb",
							"type": "address"
						}
					],
					"name": "setBnbAddress",
					"outputs": [],
					"stateMutability": "nonpayable",
					"type": "function"
				},
				{
					"inputs": [],
					"name": "setEqMode",
					"outputs": [],
					"stateMutability": "nonpayable",
					"type": "function"
				},
				{
					"inputs": [
						{
							"internalType": "uint256",
							"name": "_tax",
							"type": "uint256"
						}
					],
					"name": "setTax",
					"outputs": [],
					"stateMutability": "nonpayable",
					"type": "function"
				},
				{
					"inputs": [
						{
							"internalType": "address",
							"name": "_usd",
							"type": "address"
						}
					],
					"name": "setUsdAddress",
					"outputs": [],
					"stateMutability": "nonpayable",
					"type": "function"
				},
				{
					"inputs": [],
					"name": "usd",
					"outputs": [
						{
							"internalType": "address",
							"name": "",
							"type": "address"
						}
					],
					"stateMutability": "view",
					"type": "function"
				},
				{
					"inputs": [
						{
							"internalType": "uint8",
							"name": "index",
							"type": "uint8"
						}
					],
					"name": "usdToBnb",
					"outputs": [
						{
							"internalType": "uint256",
							"name": "price",
							"type": "uint256"
						}
					],
					"stateMutability": "view",
					"type": "function"
				},
				{
					"inputs": [],
					"name": "viewAverage",
					"outputs": [
						{
							"internalType": "uint256",
							"name": "",
							"type": "uint256"
						}
					],
					"stateMutability": "view",
					"type": "function"
				},
				{
					"stateMutability": "payable",
					"type": "receive"
				}
			],
			"devdoc": {
				"kind": "dev",
				"methods": {},
				"version": 1
			},
			"evm": {
				"assembly": "    /* \"contracts/BNBPrice.sol\":284:4123  contract BNBPrice{\r... */\n  mstore(0x40, 0x80)\n    /* \"contracts/BNBPrice.sol\":695:912  constructor(){\r... */\n  callvalue\n  dup1\n  iszero\n  tag_1\n  jumpi\n  0x00\n  dup1\n  revert\ntag_1:\n  pop\n    /* \"contracts/BNBPrice.sol\":735:745  msg.sender */\n  caller\n    /* \"contracts/BNBPrice.sol\":719:724  owner */\n  0x02\n  0x00\n    /* \"contracts/BNBPrice.sol\":719:746  owner = payable(msg.sender) */\n  0x0100\n  exp\n  dup2\n  sload\n  dup2\n  0xffffffffffffffffffffffffffffffffffffffff\n  mul\n  not\n  and\n  swap1\n  dup4\n  0xffffffffffffffffffffffffffffffffffffffff\n  and\n  mul\n  or\n  swap1\n  sstore\n  pop\n    /* \"contracts/BNBPrice.sol\":763:805  0xbb4CdB9CBd36B01bD1cBaEBF2De08d9173bc095c */\n  0xbb4cdb9cbd36b01bd1cbaebf2de08d9173bc095c\n    /* \"contracts/BNBPrice.sol\":757:760  bnb */\n  0x00\n  dup1\n    /* \"contracts/BNBPrice.sol\":757:805  bnb = 0xbb4CdB9CBd36B01bD1cBaEBF2De08d9173bc095c */\n  0x0100\n  exp\n  dup2\n  sload\n  dup2\n  0xffffffffffffffffffffffffffffffffffffffff\n  mul\n  not\n  and\n  swap1\n  dup4\n  0xffffffffffffffffffffffffffffffffffffffff\n  and\n  mul\n  or\n  swap1\n  sstore\n  pop\n    /* \"contracts/BNBPrice.sol\":822:864  0x55d398326f99059fF775485246999027B3197955 */\n  0x55d398326f99059ff775485246999027b3197955\n    /* \"contracts/BNBPrice.sol\":816:819  usd */\n  0x01\n  0x00\n    /* \"contracts/BNBPrice.sol\":816:864  usd = 0x55d398326f99059fF775485246999027B3197955 */\n  0x0100\n  exp\n  dup2\n  sload\n  dup2\n  0xffffffffffffffffffffffffffffffffffffffff\n  mul\n  not\n  and\n  swap1\n  dup4\n  0xffffffffffffffffffffffffffffffffffffffff\n  and\n  mul\n  or\n  swap1\n  sstore\n  pop\n    /* \"contracts/BNBPrice.sol\":881:886  60e12 */\n  0x3691d6afc000\n    /* \"contracts/BNBPrice.sol\":875:878  tax */\n  0x06\n    /* \"contracts/BNBPrice.sol\":875:886  tax = 60e12 */\n  dup2\n  swap1\n  sstore\n  pop\n    /* \"contracts/BNBPrice.sol\":284:4123  contract BNBPrice{\r... */\n  dataSize(sub_0)\n  dup1\n  dataOffset(sub_0)\n  0x00\n  codecopy\n  0x00\n  return\nstop\n\nsub_0: assembly {\n        /* \"contracts/BNBPrice.sol\":284:4123  contract BNBPrice{\r... */\n      mstore(0x40, 0x80)\n      jumpi(tag_1, lt(calldatasize, 0x04))\n      shr(0xe0, calldataload(0x00))\n      dup1\n      0x6c7474da\n      gt\n      tag_24\n      jumpi\n      dup1\n      0xa6f9dae1\n      gt\n      tag_25\n      jumpi\n      dup1\n      0xa6f9dae1\n      eq\n      tag_18\n      jumpi\n      dup1\n      0xc0404fa7\n      eq\n      tag_19\n      jumpi\n      dup1\n      0xd63a6ccd\n      eq\n      tag_20\n      jumpi\n      dup1\n      0xe03d1632\n      eq\n      tag_21\n      jumpi\n      dup1\n      0xf5a6ba2e\n      eq\n      tag_22\n      jumpi\n      dup1\n      0xf74b28c1\n      eq\n      tag_23\n      jumpi\n      jump(tag_2)\n    tag_25:\n      dup1\n      0x6c7474da\n      eq\n      tag_13\n      jumpi\n      dup1\n      0x6d201e8b\n      eq\n      tag_14\n      jumpi\n      dup1\n      0x724ba2c1\n      eq\n      tag_15\n      jumpi\n      dup1\n      0x8da5cb5b\n      eq\n      tag_16\n      jumpi\n      dup1\n      0xa1c6a405\n      eq\n      tag_17\n      jumpi\n      jump(tag_2)\n    tag_24:\n      dup1\n      0x448883d7\n      gt\n      tag_26\n      jumpi\n      dup1\n      0x448883d7\n      eq\n      tag_8\n      jumpi\n      dup1\n      0x49a876e4\n      eq\n      tag_9\n      jumpi\n      dup1\n      0x5e59c8ce\n      eq\n      tag_10\n      jumpi\n      dup1\n      0x65a6cc2e\n      eq\n      tag_11\n      jumpi\n      dup1\n      0x67b51834\n      eq\n      tag_12\n      jumpi\n      jump(tag_2)\n    tag_26:\n      dup1\n      0x026f0dbe\n      eq\n      tag_3\n      jumpi\n      dup1\n      0x14b085a4\n      eq\n      tag_4\n      jumpi\n      dup1\n      0x2e5bb6ff\n      eq\n      tag_5\n      jumpi\n      dup1\n      0x32a6013c\n      eq\n      tag_6\n      jumpi\n      dup1\n      0x3b907d14\n      eq\n      tag_7\n      jumpi\n      jump(tag_2)\n    tag_1:\n      jumpi(tag_2, calldatasize)\n        /* \"contracts/BNBPrice.sol\":3721:3724  tax */\n      sload(0x06)\n        /* \"contracts/BNBPrice.sol\":3708:3717  msg.value */\n      callvalue\n        /* \"contracts/BNBPrice.sol\":3708:3724  msg.value >= tax */\n      lt\n      iszero\n        /* \"contracts/BNBPrice.sol\":3700:3739  require(msg.value >= tax , \"Value Low\") */\n      tag_29\n      jumpi\n      mload(0x40)\n      0x08c379a000000000000000000000000000000000000000000000000000000000\n      dup2\n      mstore\n      0x04\n      add\n      dup1\n      dup1\n      0x20\n      add\n      dup3\n      dup2\n      sub\n      dup3\n      mstore\n      0x09\n      dup2\n      mstore\n      0x20\n      add\n      dup1\n      0x56616c7565204c6f770000000000000000000000000000000000000000000000\n      dup2\n      mstore\n      pop\n      0x20\n      add\n      swap2\n      pop\n      pop\n      mload(0x40)\n      dup1\n      swap2\n      sub\n      swap1\n      revert\n    tag_29:\n        /* \"contracts/BNBPrice.sol\":3750:3763  uint256 price */\n      0x00\n        /* \"contracts/BNBPrice.sol\":3766:3794  _average(eqMode[msg.sender]) */\n      tag_30\n        /* \"contracts/BNBPrice.sol\":3775:3781  eqMode */\n      0x04\n        /* \"contracts/BNBPrice.sol\":3775:3793  eqMode[msg.sender] */\n      0x00\n        /* \"contracts/BNBPrice.sol\":3782:3792  msg.sender */\n      caller\n        /* \"contracts/BNBPrice.sol\":3775:3793  eqMode[msg.sender] */\n      0xffffffffffffffffffffffffffffffffffffffff\n      and\n      0xffffffffffffffffffffffffffffffffffffffff\n      and\n      dup2\n      mstore\n      0x20\n      add\n      swap1\n      dup2\n      mstore\n      0x20\n      add\n      0x00\n      keccak256\n      0x00\n      swap1\n      sload\n      swap1\n      0x0100\n      exp\n      swap1\n      div\n      0xff\n      and\n        /* \"contracts/BNBPrice.sol\":3766:3774  _average */\n      tag_31\n        /* \"contracts/BNBPrice.sol\":3766:3794  _average(eqMode[msg.sender]) */\n      jump\t// in\n    tag_30:\n        /* \"contracts/BNBPrice.sol\":3750:3794  uint256 price = _average(eqMode[msg.sender]) */\n      swap1\n      pop\n        /* \"contracts/BNBPrice.sol\":3829:3834  price */\n      dup1\n        /* \"contracts/BNBPrice.sol\":3805:3814  lastPrice */\n      0x05\n        /* \"contracts/BNBPrice.sol\":3805:3826  lastPrice[msg.sender] */\n      0x00\n        /* \"contracts/BNBPrice.sol\":3815:3825  msg.sender */\n      caller\n        /* \"contracts/BNBPrice.sol\":3805:3826  lastPrice[msg.sender] */\n      0xffffffffffffffffffffffffffffffffffffffff\n      and\n      0xffffffffffffffffffffffffffffffffffffffff\n      and\n      dup2\n      mstore\n      0x20\n      add\n      swap1\n      dup2\n      mstore\n      0x20\n      add\n      0x00\n      keccak256\n        /* \"contracts/BNBPrice.sol\":3805:3834  lastPrice[msg.sender] = price */\n      dup2\n      swap1\n      sstore\n      pop\n        /* \"contracts/BNBPrice.sol\":3845:3857  countReceive */\n      0x07\n      0x00\n        /* \"contracts/BNBPrice.sol\":3845:3859  countReceive++ */\n      dup2\n      sload\n      dup1\n      swap3\n      swap2\n      swap1\n      0x01\n      add\n      swap2\n      swap1\n      pop\n      sstore\n      pop\n        /* \"contracts/BNBPrice.sol\":3662:3867  receive() external payable {\r... */\n      pop\n        /* \"contracts/BNBPrice.sol\":284:4123  contract BNBPrice{\r... */\n      stop\n    tag_2:\n      0x00\n      dup1\n      revert\n        /* \"contracts/BNBPrice.sol\":2987:3078  function getEqMode() public view returns (bool){\r... */\n    tag_3:\n      callvalue\n      dup1\n      iszero\n      tag_32\n      jumpi\n      0x00\n      dup1\n      revert\n    tag_32:\n      pop\n      tag_33\n      tag_34\n      jump\t// in\n    tag_33:\n      mload(0x40)\n      dup1\n      dup3\n      iszero\n      iszero\n      dup2\n      mstore\n      0x20\n      add\n      swap2\n      pop\n      pop\n      mload(0x40)\n      dup1\n      swap2\n      sub\n      swap1\n      return\n        /* \"contracts/BNBPrice.sol\":425:465  mapping( address => bool ) public eqMode */\n    tag_4:\n      callvalue\n      dup1\n      iszero\n      tag_35\n      jumpi\n      0x00\n      dup1\n      revert\n    tag_35:\n      pop\n      tag_36\n      0x04\n      dup1\n      calldatasize\n      sub\n      0x20\n      dup2\n      lt\n      iszero\n      tag_37\n      jumpi\n      0x00\n      dup1\n      revert\n    tag_37:\n      dup2\n      add\n      swap1\n      dup1\n      dup1\n      calldataload\n      0xffffffffffffffffffffffffffffffffffffffff\n      and\n      swap1\n      0x20\n      add\n      swap1\n      swap3\n      swap2\n      swap1\n      pop\n      pop\n      pop\n      tag_38\n      jump\t// in\n    tag_36:\n      mload(0x40)\n      dup1\n      dup3\n      iszero\n      iszero\n      dup2\n      mstore\n      0x20\n      add\n      swap2\n      pop\n      pop\n      mload(0x40)\n      dup1\n      swap2\n      sub\n      swap1\n      return\n        /* \"contracts/BNBPrice.sol\":4047:4120  function setTax(uint _tax) public onlyOwner {\r... */\n    tag_5:\n      callvalue\n      dup1\n      iszero\n      tag_39\n      jumpi\n      0x00\n      dup1\n      revert\n    tag_39:\n      pop\n      tag_40\n      0x04\n      dup1\n      calldatasize\n      sub\n      0x20\n      dup2\n      lt\n      iszero\n      tag_41\n      jumpi\n      0x00\n      dup1\n      revert\n    tag_41:\n      dup2\n      add\n      swap1\n      dup1\n      dup1\n      calldataload\n      swap1\n      0x20\n      add\n      swap1\n      swap3\n      swap2\n      swap1\n      pop\n      pop\n      pop\n      tag_42\n      jump\t// in\n    tag_40:\n      stop\n        /* \"contracts/BNBPrice.sol\":1368:1513  function removePoolUSD(uint8 index) external onlyOwner{\r... */\n    tag_6:\n      callvalue\n      dup1\n      iszero\n      tag_43\n      jumpi\n      0x00\n      dup1\n      revert\n    tag_43:\n      pop\n      tag_44\n      0x04\n      dup1\n      calldatasize\n      sub\n      0x20\n      dup2\n      lt\n      iszero\n      tag_45\n      jumpi\n      0x00\n      dup1\n      revert\n    tag_45:\n      dup2\n      add\n      swap1\n      dup1\n      dup1\n      calldataload\n      0xff\n      and\n      swap1\n      0x20\n      add\n      swap1\n      swap3\n      swap2\n      swap1\n      pop\n      pop\n      pop\n      tag_46\n      jump\t// in\n    tag_44:\n      stop\n        /* \"contracts/BNBPrice.sol\":2710:2792  function setBnbAddress(address _bnb) public onlyOwner{\r... */\n    tag_7:\n      callvalue\n      dup1\n      iszero\n      tag_47\n      jumpi\n      0x00\n      dup1\n      revert\n    tag_47:\n      pop\n      tag_48\n      0x04\n      dup1\n      calldatasize\n      sub\n      0x20\n      dup2\n      lt\n      iszero\n      tag_49\n      jumpi\n      0x00\n      dup1\n      revert\n    tag_49:\n      dup2\n      add\n      swap1\n      dup1\n      dup1\n      calldataload\n      0xffffffffffffffffffffffffffffffffffffffff\n      and\n      swap1\n      0x20\n      add\n      swap1\n      swap3\n      swap2\n      swap1\n      pop\n      pop\n      pop\n      tag_50\n      jump\t// in\n    tag_48:\n      stop\n        /* \"contracts/BNBPrice.sol\":3489:3652  function claimTax() external onlyOwner {\r... */\n    tag_8:\n      callvalue\n      dup1\n      iszero\n      tag_51\n      jumpi\n      0x00\n      dup1\n      revert\n    tag_51:\n      pop\n      tag_52\n      tag_53\n      jump\t// in\n    tag_52:\n      stop\n        /* \"contracts/BNBPrice.sol\":308:326  address public bnb */\n    tag_9:\n      callvalue\n      dup1\n      iszero\n      tag_54\n      jumpi\n      0x00\n      dup1\n      revert\n    tag_54:\n      pop\n      tag_55\n      tag_56\n      jump\t// in\n    tag_55:\n      mload(0x40)\n      dup1\n      dup3\n      0xffffffffffffffffffffffffffffffffffffffff\n      and\n      dup2\n      mstore\n      0x20\n      add\n      swap2\n      pop\n      pop\n      mload(0x40)\n      dup1\n      swap2\n      sub\n      swap1\n      return\n        /* \"contracts/BNBPrice.sol\":2800:2882  function setUsdAddress(address _usd) public onlyOwner{\r... */\n    tag_10:\n      callvalue\n      dup1\n      iszero\n      tag_57\n      jumpi\n      0x00\n      dup1\n      revert\n    tag_57:\n      pop\n      tag_58\n      0x04\n      dup1\n      calldatasize\n      sub\n      0x20\n      dup2\n      lt\n      iszero\n      tag_59\n      jumpi\n      0x00\n      dup1\n      revert\n    tag_59:\n      dup2\n      add\n      swap1\n      dup1\n      dup1\n      calldataload\n      0xffffffffffffffffffffffffffffffffffffffff\n      and\n      swap1\n      0x20\n      add\n      swap1\n      swap3\n      swap2\n      swap1\n      pop\n      pop\n      pop\n      tag_60\n      jump\t// in\n    tag_58:\n      stop\n        /* \"contracts/BNBPrice.sol\":2890:2977  function setEqMode() public {\r... */\n    tag_11:\n      callvalue\n      dup1\n      iszero\n      tag_61\n      jumpi\n      0x00\n      dup1\n      revert\n    tag_61:\n      pop\n      tag_62\n      tag_63\n      jump\t// in\n    tag_62:\n      stop\n        /* \"contracts/BNBPrice.sol\":1068:1360  function addPoolUSD(address _factory, uint24 _fee) external onlyOwner {\r... */\n    tag_12:\n      callvalue\n      dup1\n      iszero\n      tag_64\n      jumpi\n      0x00\n      dup1\n      revert\n    tag_64:\n      pop\n      tag_65\n      0x04\n      dup1\n      calldatasize\n      sub\n      0x40\n      dup2\n      lt\n      iszero\n      tag_66\n      jumpi\n      0x00\n      dup1\n      revert\n    tag_66:\n      dup2\n      add\n      swap1\n      dup1\n      dup1\n      calldataload\n      0xffffffffffffffffffffffffffffffffffffffff\n      and\n      swap1\n      0x20\n      add\n      swap1\n      swap3\n      swap2\n      swap1\n      dup1\n      calldataload\n      0xffffff\n      and\n      swap1\n      0x20\n      add\n      swap1\n      swap3\n      swap2\n      swap1\n      pop\n      pop\n      pop\n      tag_67\n      jump\t// in\n    tag_65:\n      stop\n        /* \"contracts/BNBPrice.sol\":1774:2016  function bnbToUsd(uint8 index) external view  returns (uint price){\r... */\n    tag_13:\n      callvalue\n      dup1\n      iszero\n      tag_68\n      jumpi\n      0x00\n      dup1\n      revert\n    tag_68:\n      pop\n      tag_69\n      0x04\n      dup1\n      calldatasize\n      sub\n      0x20\n      dup2\n      lt\n      iszero\n      tag_70\n      jumpi\n      0x00\n      dup1\n      revert\n    tag_70:\n      dup2\n      add\n      swap1\n      dup1\n      dup1\n      calldataload\n      0xff\n      and\n      swap1\n      0x20\n      add\n      swap1\n      swap3\n      swap2\n      swap1\n      pop\n      pop\n      pop\n      tag_71\n      jump\t// in\n    tag_69:\n      mload(0x40)\n      dup1\n      dup3\n      dup2\n      mstore\n      0x20\n      add\n      swap2\n      pop\n      pop\n      mload(0x40)\n      dup1\n      swap2\n      sub\n      swap1\n      return\n        /* \"contracts/BNBPrice.sol\":393:418  address[] public poolsUSD */\n    tag_14:\n      callvalue\n      dup1\n      iszero\n      tag_72\n      jumpi\n      0x00\n      dup1\n      revert\n    tag_72:\n      pop\n      tag_73\n      0x04\n      dup1\n      calldatasize\n      sub\n      0x20\n      dup2\n      lt\n      iszero\n      tag_74\n      jumpi\n      0x00\n      dup1\n      revert\n    tag_74:\n      dup2\n      add\n      swap1\n      dup1\n      dup1\n      calldataload\n      swap1\n      0x20\n      add\n      swap1\n      swap3\n      swap2\n      swap1\n      pop\n      pop\n      pop\n      tag_75\n      jump\t// in\n    tag_73:\n      mload(0x40)\n      dup1\n      dup3\n      0xffffffffffffffffffffffffffffffffffffffff\n      and\n      dup2\n      mstore\n      0x20\n      add\n      swap2\n      pop\n      pop\n      mload(0x40)\n      dup1\n      swap2\n      sub\n      swap1\n      return\n        /* \"contracts/BNBPrice.sol\":603:627  uint public countReceive */\n    tag_15:\n      callvalue\n      dup1\n      iszero\n      tag_76\n      jumpi\n      0x00\n      dup1\n      revert\n    tag_76:\n      pop\n      tag_77\n      tag_78\n      jump\t// in\n    tag_77:\n      mload(0x40)\n      dup1\n      dup3\n      dup2\n      mstore\n      0x20\n      add\n      swap2\n      pop\n      pop\n      mload(0x40)\n      dup1\n      swap2\n      sub\n      swap1\n      return\n        /* \"contracts/BNBPrice.sol\":358:386  address payable public owner */\n    tag_16:\n      callvalue\n      dup1\n      iszero\n      tag_79\n      jumpi\n      0x00\n      dup1\n      revert\n    tag_79:\n      pop\n      tag_80\n      tag_81\n      jump\t// in\n    tag_80:\n      mload(0x40)\n      dup1\n      dup3\n      0xffffffffffffffffffffffffffffffffffffffff\n      and\n      dup2\n      mstore\n      0x20\n      add\n      swap2\n      pop\n      pop\n      mload(0x40)\n      dup1\n      swap2\n      sub\n      swap1\n      return\n        /* \"contracts/BNBPrice.sol\":3204:3368  function getEqModeString() public view returns( string memory) {\r... */\n    tag_17:\n      callvalue\n      dup1\n      iszero\n      tag_82\n      jumpi\n      0x00\n      dup1\n      revert\n    tag_82:\n      pop\n      tag_83\n      tag_84\n      jump\t// in\n    tag_83:\n      mload(0x40)\n      dup1\n      dup1\n      0x20\n      add\n      dup3\n      dup2\n      sub\n      dup3\n      mstore\n      dup4\n      dup2\n      dup2\n      mload\n      dup2\n      mstore\n      0x20\n      add\n      swap2\n      pop\n      dup1\n      mload\n      swap1\n      0x20\n      add\n      swap1\n      dup1\n      dup4\n      dup4\n      0x00\n    tag_85:\n      dup4\n      dup2\n      lt\n      iszero\n      tag_87\n      jumpi\n      dup1\n      dup3\n      add\n      mload\n      dup2\n      dup5\n      add\n      mstore\n      0x20\n      dup2\n      add\n      swap1\n      pop\n      jump(tag_85)\n    tag_87:\n      pop\n      pop\n      pop\n      pop\n      swap1\n      pop\n      swap1\n      dup2\n      add\n      swap1\n      0x1f\n      and\n      dup1\n      iszero\n      tag_88\n      jumpi\n      dup1\n      dup3\n      sub\n      dup1\n      mload\n      0x01\n      dup4\n      0x20\n      sub\n      0x0100\n      exp\n      sub\n      not\n      and\n      dup2\n      mstore\n      0x20\n      add\n      swap2\n      pop\n    tag_88:\n      pop\n      swap3\n      pop\n      pop\n      pop\n      mload(0x40)\n      dup1\n      swap2\n      sub\n      swap1\n      return\n        /* \"contracts/BNBPrice.sol\":3376:3479  function changeOwner(address payable _newOwner) public onlyOwner {\r... */\n    tag_18:\n      callvalue\n      dup1\n      iszero\n      tag_89\n      jumpi\n      0x00\n      dup1\n      revert\n    tag_89:\n      pop\n      tag_90\n      0x04\n      dup1\n      calldatasize\n      sub\n      0x20\n      dup2\n      lt\n      iszero\n      tag_91\n      jumpi\n      0x00\n      dup1\n      revert\n    tag_91:\n      dup2\n      add\n      swap1\n      dup1\n      dup1\n      calldataload\n      0xffffffffffffffffffffffffffffffffffffffff\n      and\n      swap1\n      0x20\n      add\n      swap1\n      swap3\n      swap2\n      swap1\n      pop\n      pop\n      pop\n      tag_92\n      jump\t// in\n    tag_90:\n      stop\n        /* \"contracts/BNBPrice.sol\":1521:1764  function usdToBnb(uint8 index) external view  returns (uint price){\r... */\n    tag_19:\n      callvalue\n      dup1\n      iszero\n      tag_93\n      jumpi\n      0x00\n      dup1\n      revert\n    tag_93:\n      pop\n      tag_94\n      0x04\n      dup1\n      calldatasize\n      sub\n      0x20\n      dup2\n      lt\n      iszero\n      tag_95\n      jumpi\n      0x00\n      dup1\n      revert\n    tag_95:\n      dup2\n      add\n      swap1\n      dup1\n      dup1\n      calldataload\n      0xff\n      and\n      swap1\n      0x20\n      add\n      swap1\n      swap3\n      swap2\n      swap1\n      pop\n      pop\n      pop\n      tag_96\n      jump\t// in\n    tag_94:\n      mload(0x40)\n      dup1\n      dup3\n      dup2\n      mstore\n      0x20\n      add\n      swap2\n      pop\n      pop\n      mload(0x40)\n      dup1\n      swap2\n      sub\n      swap1\n      return\n        /* \"contracts/BNBPrice.sol\":333:351  address public usd */\n    tag_20:\n      callvalue\n      dup1\n      iszero\n      tag_97\n      jumpi\n      0x00\n      dup1\n      revert\n    tag_97:\n      pop\n      tag_98\n      tag_99\n      jump\t// in\n    tag_98:\n      mload(0x40)\n      dup1\n      dup3\n      0xffffffffffffffffffffffffffffffffffffffff\n      and\n      dup2\n      mstore\n      0x20\n      add\n      swap2\n      pop\n      pop\n      mload(0x40)\n      dup1\n      swap2\n      sub\n      swap1\n      return\n        /* \"contracts/BNBPrice.sol\":3875:4041  function viewAverage() external view returns (uint256) {\r... */\n    tag_21:\n      callvalue\n      dup1\n      iszero\n      tag_100\n      jumpi\n      0x00\n      dup1\n      revert\n    tag_100:\n      pop\n      tag_101\n      tag_102\n      jump\t// in\n    tag_101:\n      mload(0x40)\n      dup1\n      dup3\n      dup2\n      mstore\n      0x20\n      add\n      swap2\n      pop\n      pop\n      mload(0x40)\n      dup1\n      swap2\n      sub\n      swap1\n      return\n        /* \"contracts/BNBPrice.sol\":511:555  mapping(address => uint256) public lastPrice */\n    tag_22:\n      callvalue\n      dup1\n      iszero\n      tag_103\n      jumpi\n      0x00\n      dup1\n      revert\n    tag_103:\n      pop\n      tag_104\n      0x04\n      dup1\n      calldatasize\n      sub\n      0x20\n      dup2\n      lt\n      iszero\n      tag_105\n      jumpi\n      0x00\n      dup1\n      revert\n    tag_105:\n      dup2\n      add\n      swap1\n      dup1\n      dup1\n      calldataload\n      0xffffffffffffffffffffffffffffffffffffffff\n      and\n      swap1\n      0x20\n      add\n      swap1\n      swap3\n      swap2\n      swap1\n      pop\n      pop\n      pop\n      tag_106\n      jump\t// in\n    tag_104:\n      mload(0x40)\n      dup1\n      dup3\n      dup2\n      mstore\n      0x20\n      add\n      swap2\n      pop\n      pop\n      mload(0x40)\n      dup1\n      swap2\n      sub\n      swap1\n      return\n        /* \"contracts/BNBPrice.sol\":3086:3196  function poolsLenght() public view returns(uint){\r... */\n    tag_23:\n      callvalue\n      dup1\n      iszero\n      tag_107\n      jumpi\n      0x00\n      dup1\n      revert\n    tag_107:\n      pop\n      tag_108\n      tag_109\n      jump\t// in\n    tag_108:\n      mload(0x40)\n      dup1\n      dup3\n      dup2\n      mstore\n      0x20\n      add\n      swap2\n      pop\n      pop\n      mload(0x40)\n      dup1\n      swap2\n      sub\n      swap1\n      return\n        /* \"contracts/BNBPrice.sol\":2034:2702  function _average(bool _mode) internal view returns (uint256 average) {\r... */\n    tag_31:\n        /* \"contracts/BNBPrice.sol\":2087:2102  uint256 average */\n      0x00\n        /* \"contracts/BNBPrice.sol\":2115:2129  uint256 prices */\n      dup1\n        /* \"contracts/BNBPrice.sol\":2140:2156  uint8 validCount */\n      0x00\n        /* \"contracts/BNBPrice.sol\":2174:2181  uint8 i */\n      dup1\n        /* \"contracts/BNBPrice.sol\":2184:2185  0 */\n      0x00\n        /* \"contracts/BNBPrice.sol\":2174:2185  uint8 i = 0 */\n      swap1\n      pop\n        /* \"contracts/BNBPrice.sol\":2169:2601  for (uint8 i = 0; i < poolsUSD.length; i++) {\r... */\n    tag_111:\n        /* \"contracts/BNBPrice.sol\":2191:2199  poolsUSD */\n      0x03\n        /* \"contracts/BNBPrice.sol\":2191:2206  poolsUSD.length */\n      dup1\n      sload\n      swap1\n      pop\n        /* \"contracts/BNBPrice.sol\":2187:2188  i */\n      dup2\n        /* \"contracts/BNBPrice.sol\":2187:2206  i < poolsUSD.length */\n      0xff\n      and\n      lt\n        /* \"contracts/BNBPrice.sol\":2169:2601  for (uint8 i = 0; i < poolsUSD.length; i++) {\r... */\n      iszero\n      tag_112\n      jumpi\n        /* \"contracts/BNBPrice.sol\":2231:2241  int24 tick */\n      0x00\n        /* \"contracts/BNBPrice.sol\":2265:2273  poolsUSD */\n      0x03\n        /* \"contracts/BNBPrice.sol\":2274:2275  i */\n      dup3\n        /* \"contracts/BNBPrice.sol\":2265:2276  poolsUSD[i] */\n      0xff\n      and\n      dup2\n      sload\n      dup2\n      lt\n      tag_114\n      jumpi\n      invalid\n    tag_114:\n      swap1\n      0x00\n      mstore\n      keccak256(0x00, 0x20)\n      add\n      0x00\n      swap1\n      sload\n      swap1\n      0x0100\n      exp\n      swap1\n      div\n      0xffffffffffffffffffffffffffffffffffffffff\n      and\n        /* \"contracts/BNBPrice.sol\":2250:2283  IPancakeV3Pool(poolsUSD[i]).slot0 */\n      0xffffffffffffffffffffffffffffffffffffffff\n      and\n      0x3850c7bd\n        /* \"contracts/BNBPrice.sol\":2250:2285  IPancakeV3Pool(poolsUSD[i]).slot0() */\n      mload(0x40)\n      dup2\n      0xffffffff\n      and\n      0xe0\n      shl\n      dup2\n      mstore\n      0x04\n      add\n      0xe0\n      mload(0x40)\n      dup1\n      dup4\n      sub\n      dup2\n      dup7\n      dup1\n      extcodesize\n      iszero\n      dup1\n      iszero\n      tag_116\n      jumpi\n      0x00\n      dup1\n      revert\n    tag_116:\n      pop\n      gas\n      staticcall\n      iszero\n      dup1\n      iszero\n      tag_118\n      jumpi\n      returndatasize\n      0x00\n      dup1\n      returndatacopy\n      revert(0x00, returndatasize)\n    tag_118:\n      pop\n      pop\n      pop\n      pop\n      mload(0x40)\n      returndatasize\n      0xe0\n      dup2\n      lt\n      iszero\n      tag_119\n      jumpi\n      0x00\n      dup1\n      revert\n    tag_119:\n      dup2\n      add\n      swap1\n      dup1\n      dup1\n      mload\n      swap1\n      0x20\n      add\n      swap1\n      swap3\n      swap2\n      swap1\n      dup1\n      mload\n      swap1\n      0x20\n      add\n      swap1\n      swap3\n      swap2\n      swap1\n      dup1\n      mload\n      swap1\n      0x20\n      add\n      swap1\n      swap3\n      swap2\n      swap1\n      dup1\n      mload\n      swap1\n      0x20\n      add\n      swap1\n      swap3\n      swap2\n      swap1\n      dup1\n      mload\n      swap1\n      0x20\n      add\n      swap1\n      swap3\n      swap2\n      swap1\n      dup1\n      mload\n      swap1\n      0x20\n      add\n      swap1\n      swap3\n      swap2\n      swap1\n      dup1\n      mload\n      swap1\n      0x20\n      add\n      swap1\n      swap3\n      swap2\n      swap1\n      pop\n      pop\n      pop\n        /* \"contracts/BNBPrice.sol\":2228:2285  (, int24 tick,,,,,) = IPancakeV3Pool(poolsUSD[i]).slot0() */\n      pop\n      pop\n      pop\n      pop\n      pop\n      swap2\n      pop\n      pop\n        /* \"contracts/BNBPrice.sol\":2300:2313  uint256 price */\n      0x00\n        /* \"contracts/BNBPrice.sol\":2316:2477  OracleLibrary.getQuoteAtTick(\r... */\n      tag_120\n        /* \"contracts/BNBPrice.sol\":2363:2367  tick */\n      dup3\n        /* \"contracts/BNBPrice.sol\":2386:2390  1e18 */\n      0x0de0b6b3a7640000\n        /* \"contracts/BNBPrice.sol\":2409:2414  _mode */\n      dup10\n        /* \"contracts/BNBPrice.sol\":2409:2426  _mode ? usd : bnb */\n      tag_121\n      jumpi\n        /* \"contracts/BNBPrice.sol\":2423:2426  bnb */\n      0x00\n      dup1\n      sload\n      swap1\n      0x0100\n      exp\n      swap1\n      div\n      0xffffffffffffffffffffffffffffffffffffffff\n      and\n        /* \"contracts/BNBPrice.sol\":2409:2426  _mode ? usd : bnb */\n      jump(tag_122)\n    tag_121:\n        /* \"contracts/BNBPrice.sol\":2417:2420  usd */\n      0x01\n      0x00\n      swap1\n      sload\n      swap1\n      0x0100\n      exp\n      swap1\n      div\n      0xffffffffffffffffffffffffffffffffffffffff\n      and\n        /* \"contracts/BNBPrice.sol\":2409:2426  _mode ? usd : bnb */\n    tag_122:\n        /* \"contracts/BNBPrice.sol\":2445:2450  _mode */\n      dup11\n        /* \"contracts/BNBPrice.sol\":2445:2462  _mode ? bnb : usd */\n      tag_123\n      jumpi\n        /* \"contracts/BNBPrice.sol\":2459:2462  usd */\n      0x01\n      0x00\n      swap1\n      sload\n      swap1\n      0x0100\n      exp\n      swap1\n      div\n      0xffffffffffffffffffffffffffffffffffffffff\n      and\n        /* \"contracts/BNBPrice.sol\":2445:2462  _mode ? bnb : usd */\n      jump(tag_124)\n    tag_123:\n        /* \"contracts/BNBPrice.sol\":2453:2456  bnb */\n      0x00\n      dup1\n      sload\n      swap1\n      0x0100\n      exp\n      swap1\n      div\n      0xffffffffffffffffffffffffffffffffffffffff\n      and\n        /* \"contracts/BNBPrice.sol\":2445:2462  _mode ? bnb : usd */\n    tag_124:\n        /* \"contracts/BNBPrice.sol\":2316:2344  OracleLibrary.getQuoteAtTick */\n      tag_125\n        /* \"contracts/BNBPrice.sol\":2316:2477  OracleLibrary.getQuoteAtTick(\r... */\n      jump\t// in\n    tag_120:\n        /* \"contracts/BNBPrice.sol\":2300:2477  uint256 price = OracleLibrary.getQuoteAtTick(\r... */\n      swap1\n      pop\n        /* \"contracts/BNBPrice.sol\":2506:2507  0 */\n      0x00\n        /* \"contracts/BNBPrice.sol\":2498:2503  price */\n      dup2\n        /* \"contracts/BNBPrice.sol\":2498:2507  price > 0 */\n      gt\n        /* \"contracts/BNBPrice.sol\":2494:2590  if (price > 0) {\r... */\n      iszero\n      tag_126\n      jumpi\n        /* \"contracts/BNBPrice.sol\":2538:2543  price */\n      dup1\n        /* \"contracts/BNBPrice.sol\":2528:2543  prices += price */\n      dup6\n      add\n      swap5\n      pop\n        /* \"contracts/BNBPrice.sol\":2562:2574  validCount++ */\n      dup4\n      dup1\n      0x01\n      add\n      swap5\n      pop\n      pop\n        /* \"contracts/BNBPrice.sol\":2494:2590  if (price > 0) {\r... */\n    tag_126:\n        /* \"contracts/BNBPrice.sol\":2169:2601  for (uint8 i = 0; i < poolsUSD.length; i++) {\r... */\n      pop\n      pop\n        /* \"contracts/BNBPrice.sol\":2208:2211  i++ */\n      dup1\n      dup1\n      0x01\n      add\n      swap2\n      pop\n      pop\n        /* \"contracts/BNBPrice.sol\":2169:2601  for (uint8 i = 0; i < poolsUSD.length; i++) {\r... */\n      jump(tag_111)\n    tag_112:\n      pop\n        /* \"contracts/BNBPrice.sol\":2634:2635  0 */\n      0x00\n        /* \"contracts/BNBPrice.sol\":2621:2631  validCount */\n      dup2\n        /* \"contracts/BNBPrice.sol\":2621:2635  validCount > 0 */\n      0xff\n      and\n      gt\n        /* \"contracts/BNBPrice.sol\":2613:2654  require(validCount > 0, \"No price found\") */\n      tag_127\n      jumpi\n      mload(0x40)\n      0x08c379a000000000000000000000000000000000000000000000000000000000\n      dup2\n      mstore\n      0x04\n      add\n      dup1\n      dup1\n      0x20\n      add\n      dup3\n      dup2\n      sub\n      dup3\n      mstore\n      0x0e\n      dup2\n      mstore\n      0x20\n      add\n      dup1\n      0x4e6f20707269636520666f756e64000000000000000000000000000000000000\n      dup2\n      mstore\n      pop\n      0x20\n      add\n      swap2\n      pop\n      pop\n      mload(0x40)\n      dup1\n      swap2\n      sub\n      swap1\n      revert\n    tag_127:\n        /* \"contracts/BNBPrice.sol\":2684:2694  validCount */\n      dup1\n        /* \"contracts/BNBPrice.sol\":2675:2694  prices / validCount */\n      0xff\n      and\n        /* \"contracts/BNBPrice.sol\":2675:2681  prices */\n      dup3\n        /* \"contracts/BNBPrice.sol\":2675:2694  prices / validCount */\n      dup2\n      tag_128\n      jumpi\n      invalid\n    tag_128:\n      div\n        /* \"contracts/BNBPrice.sol\":2665:2694  average = prices / validCount */\n      swap3\n      pop\n        /* \"contracts/BNBPrice.sol\":2034:2702  function _average(bool _mode) internal view returns (uint256 average) {\r... */\n      pop\n      pop\n      swap2\n      swap1\n      pop\n      jump\t// out\n        /* \"contracts/BNBPrice.sol\":2987:3078  function getEqMode() public view returns (bool){\r... */\n    tag_34:\n        /* \"contracts/BNBPrice.sol\":3029:3033  bool */\n      0x00\n        /* \"contracts/BNBPrice.sol\":3052:3058  eqMode */\n      0x04\n        /* \"contracts/BNBPrice.sol\":3052:3070  eqMode[msg.sender] */\n      0x00\n        /* \"contracts/BNBPrice.sol\":3059:3069  msg.sender */\n      caller\n        /* \"contracts/BNBPrice.sol\":3052:3070  eqMode[msg.sender] */\n      0xffffffffffffffffffffffffffffffffffffffff\n      and\n      0xffffffffffffffffffffffffffffffffffffffff\n      and\n      dup2\n      mstore\n      0x20\n      add\n      swap1\n      dup2\n      mstore\n      0x20\n      add\n      0x00\n      keccak256\n      0x00\n      swap1\n      sload\n      swap1\n      0x0100\n      exp\n      swap1\n      div\n      0xff\n      and\n        /* \"contracts/BNBPrice.sol\":3045:3070  return eqMode[msg.sender] */\n      swap1\n      pop\n        /* \"contracts/BNBPrice.sol\":2987:3078  function getEqMode() public view returns (bool){\r... */\n      swap1\n      jump\t// out\n        /* \"contracts/BNBPrice.sol\":425:465  mapping( address => bool ) public eqMode */\n    tag_38:\n      mstore(0x20, 0x04)\n      dup1\n      0x00\n      mstore\n      keccak256(0x00, 0x40)\n      0x00\n      swap2\n      pop\n      sload\n      swap1\n      0x0100\n      exp\n      swap1\n      div\n      0xff\n      and\n      dup2\n      jump\t// out\n        /* \"contracts/BNBPrice.sol\":4047:4120  function setTax(uint _tax) public onlyOwner {\r... */\n    tag_42:\n        /* \"contracts/BNBPrice.sol\":971:976  owner */\n      0x02\n      0x00\n      swap1\n      sload\n      swap1\n      0x0100\n      exp\n      swap1\n      div\n      0xffffffffffffffffffffffffffffffffffffffff\n      and\n        /* \"contracts/BNBPrice.sol\":957:976  msg.sender == owner */\n      0xffffffffffffffffffffffffffffffffffffffff\n      and\n        /* \"contracts/BNBPrice.sol\":957:967  msg.sender */\n      caller\n        /* \"contracts/BNBPrice.sol\":957:976  msg.sender == owner */\n      0xffffffffffffffffffffffffffffffffffffffff\n      and\n      eq\n        /* \"contracts/BNBPrice.sol\":949:977  require(msg.sender == owner) */\n      tag_131\n      jumpi\n      0x00\n      dup1\n      revert\n    tag_131:\n        /* \"contracts/BNBPrice.sol\":4108:4112  _tax */\n      dup1\n        /* \"contracts/BNBPrice.sol\":4102:4105  tax */\n      0x06\n        /* \"contracts/BNBPrice.sol\":4102:4112  tax = _tax */\n      dup2\n      swap1\n      sstore\n      pop\n        /* \"contracts/BNBPrice.sol\":4047:4120  function setTax(uint _tax) public onlyOwner {\r... */\n      pop\n      jump\t// out\n        /* \"contracts/BNBPrice.sol\":1368:1513  function removePoolUSD(uint8 index) external onlyOwner{\r... */\n    tag_46:\n        /* \"contracts/BNBPrice.sol\":971:976  owner */\n      0x02\n      0x00\n      swap1\n      sload\n      swap1\n      0x0100\n      exp\n      swap1\n      div\n      0xffffffffffffffffffffffffffffffffffffffff\n      and\n        /* \"contracts/BNBPrice.sol\":957:976  msg.sender == owner */\n      0xffffffffffffffffffffffffffffffffffffffff\n      and\n        /* \"contracts/BNBPrice.sol\":957:967  msg.sender */\n      caller\n        /* \"contracts/BNBPrice.sol\":957:976  msg.sender == owner */\n      0xffffffffffffffffffffffffffffffffffffffff\n      and\n      eq\n        /* \"contracts/BNBPrice.sol\":949:977  require(msg.sender == owner) */\n      tag_134\n      jumpi\n      0x00\n      dup1\n      revert\n    tag_134:\n        /* \"contracts/BNBPrice.sol\":1451:1459  poolsUSD */\n      0x03\n        /* \"contracts/BNBPrice.sol\":1478:1479  1 */\n      0x01\n        /* \"contracts/BNBPrice.sol\":1460:1468  poolsUSD */\n      0x03\n        /* \"contracts/BNBPrice.sol\":1460:1475  poolsUSD.length */\n      dup1\n      sload\n      swap1\n      pop\n        /* \"contracts/BNBPrice.sol\":1460:1479  poolsUSD.length - 1 */\n      sub\n        /* \"contracts/BNBPrice.sol\":1451:1480  poolsUSD[poolsUSD.length - 1] */\n      dup2\n      sload\n      dup2\n      lt\n      tag_136\n      jumpi\n      invalid\n    tag_136:\n      swap1\n      0x00\n      mstore\n      keccak256(0x00, 0x20)\n      add\n      0x00\n      swap1\n      sload\n      swap1\n      0x0100\n      exp\n      swap1\n      div\n      0xffffffffffffffffffffffffffffffffffffffff\n      and\n        /* \"contracts/BNBPrice.sol\":1433:1441  poolsUSD */\n      0x03\n        /* \"contracts/BNBPrice.sol\":1442:1447  index */\n      dup3\n        /* \"contracts/BNBPrice.sol\":1433:1448  poolsUSD[index] */\n      0xff\n      and\n      dup2\n      sload\n      dup2\n      lt\n      tag_138\n      jumpi\n      invalid\n    tag_138:\n      swap1\n      0x00\n      mstore\n      keccak256(0x00, 0x20)\n      add\n      0x00\n        /* \"contracts/BNBPrice.sol\":1433:1480  poolsUSD[index] = poolsUSD[poolsUSD.length - 1] */\n      0x0100\n      exp\n      dup2\n      sload\n      dup2\n      0xffffffffffffffffffffffffffffffffffffffff\n      mul\n      not\n      and\n      swap1\n      dup4\n      0xffffffffffffffffffffffffffffffffffffffff\n      and\n      mul\n      or\n      swap1\n      sstore\n      pop\n        /* \"contracts/BNBPrice.sol\":1491:1499  poolsUSD */\n      0x03\n        /* \"contracts/BNBPrice.sol\":1491:1505  poolsUSD.pop() */\n      dup1\n      sload\n      dup1\n      tag_140\n      jumpi\n      invalid\n    tag_140:\n      0x01\n      swap1\n      sub\n      dup2\n      dup2\n      swap1\n      0x00\n      mstore\n      keccak256(0x00, 0x20)\n      add\n      exp(0x0100, 0x00)\n      dup2\n      sload\n      swap1\n      0xffffffffffffffffffffffffffffffffffffffff\n      mul\n      not\n      and\n      swap1\n      sstore\n      swap1\n      sstore\n        /* \"contracts/BNBPrice.sol\":1368:1513  function removePoolUSD(uint8 index) external onlyOwner{\r... */\n      pop\n      jump\t// out\n        /* \"contracts/BNBPrice.sol\":2710:2792  function setBnbAddress(address _bnb) public onlyOwner{\r... */\n    tag_50:\n        /* \"contracts/BNBPrice.sol\":971:976  owner */\n      0x02\n      0x00\n      swap1\n      sload\n      swap1\n      0x0100\n      exp\n      swap1\n      div\n      0xffffffffffffffffffffffffffffffffffffffff\n      and\n        /* \"contracts/BNBPrice.sol\":957:976  msg.sender == owner */\n      0xffffffffffffffffffffffffffffffffffffffff\n      and\n        /* \"contracts/BNBPrice.sol\":957:967  msg.sender */\n      caller\n        /* \"contracts/BNBPrice.sol\":957:976  msg.sender == owner */\n      0xffffffffffffffffffffffffffffffffffffffff\n      and\n      eq\n        /* \"contracts/BNBPrice.sol\":949:977  require(msg.sender == owner) */\n      tag_143\n      jumpi\n      0x00\n      dup1\n      revert\n    tag_143:\n        /* \"contracts/BNBPrice.sol\":2780:2784  _bnb */\n      dup1\n        /* \"contracts/BNBPrice.sol\":2774:2777  bnb */\n      0x00\n      dup1\n        /* \"contracts/BNBPrice.sol\":2774:2784  bnb = _bnb */\n      0x0100\n      exp\n      dup2\n      sload\n      dup2\n      0xffffffffffffffffffffffffffffffffffffffff\n      mul\n      not\n      and\n      swap1\n      dup4\n      0xffffffffffffffffffffffffffffffffffffffff\n      and\n      mul\n      or\n      swap1\n      sstore\n      pop\n        /* \"contracts/BNBPrice.sol\":2710:2792  function setBnbAddress(address _bnb) public onlyOwner{\r... */\n      pop\n      jump\t// out\n        /* \"contracts/BNBPrice.sol\":3489:3652  function claimTax() external onlyOwner {\r... */\n    tag_53:\n        /* \"contracts/BNBPrice.sol\":971:976  owner */\n      0x02\n      0x00\n      swap1\n      sload\n      swap1\n      0x0100\n      exp\n      swap1\n      div\n      0xffffffffffffffffffffffffffffffffffffffff\n      and\n        /* \"contracts/BNBPrice.sol\":957:976  msg.sender == owner */\n      0xffffffffffffffffffffffffffffffffffffffff\n      and\n        /* \"contracts/BNBPrice.sol\":957:967  msg.sender */\n      caller\n        /* \"contracts/BNBPrice.sol\":957:976  msg.sender == owner */\n      0xffffffffffffffffffffffffffffffffffffffff\n      and\n      eq\n        /* \"contracts/BNBPrice.sol\":949:977  require(msg.sender == owner) */\n      tag_146\n      jumpi\n      0x00\n      dup1\n      revert\n    tag_146:\n        /* \"contracts/BNBPrice.sol\":3572:3573  0 */\n      0x00\n        /* \"contracts/BNBPrice.sol\":3547:3568  address(this).balance */\n      selfbalance\n        /* \"contracts/BNBPrice.sol\":3547:3573  address(this).balance >= 0 */\n      lt\n      iszero\n        /* \"contracts/BNBPrice.sol\":3539:3596  require(address(this).balance >= 0, \"Not enough balance\") */\n      tag_148\n      jumpi\n      mload(0x40)\n      0x08c379a000000000000000000000000000000000000000000000000000000000\n      dup2\n      mstore\n      0x04\n      add\n      dup1\n      dup1\n      0x20\n      add\n      dup3\n      dup2\n      sub\n      dup3\n      mstore\n      0x12\n      dup2\n      mstore\n      0x20\n      add\n      dup1\n      0x4e6f7420656e6f7567682062616c616e63650000000000000000000000000000\n      dup2\n      mstore\n      pop\n      0x20\n      add\n      swap2\n      pop\n      pop\n      mload(0x40)\n      dup1\n      swap2\n      sub\n      swap1\n      revert\n    tag_148:\n        /* \"contracts/BNBPrice.sol\":3607:3612  owner */\n      0x02\n      0x00\n      swap1\n      sload\n      swap1\n      0x0100\n      exp\n      swap1\n      div\n      0xffffffffffffffffffffffffffffffffffffffff\n      and\n        /* \"contracts/BNBPrice.sol\":3607:3621  owner.transfer */\n      0xffffffffffffffffffffffffffffffffffffffff\n      and\n        /* \"contracts/BNBPrice.sol\":3607:3644  owner.transfer(address(this).balance) */\n      0x08fc\n        /* \"contracts/BNBPrice.sol\":3622:3643  address(this).balance */\n      selfbalance\n        /* \"contracts/BNBPrice.sol\":3607:3644  owner.transfer(address(this).balance) */\n      swap1\n      dup2\n      iszero\n      mul\n      swap1\n      mload(0x40)\n      0x00\n      mload(0x40)\n      dup1\n      dup4\n      sub\n      dup2\n      dup6\n      dup9\n      dup9\n      call\n      swap4\n      pop\n      pop\n      pop\n      pop\n      iszero\n      dup1\n      iszero\n      tag_150\n      jumpi\n      returndatasize\n      0x00\n      dup1\n      returndatacopy\n      revert(0x00, returndatasize)\n    tag_150:\n      pop\n        /* \"contracts/BNBPrice.sol\":3489:3652  function claimTax() external onlyOwner {\r... */\n      jump\t// out\n        /* \"contracts/BNBPrice.sol\":308:326  address public bnb */\n    tag_56:\n      0x00\n      dup1\n      sload\n      swap1\n      0x0100\n      exp\n      swap1\n      div\n      0xffffffffffffffffffffffffffffffffffffffff\n      and\n      dup2\n      jump\t// out\n        /* \"contracts/BNBPrice.sol\":2800:2882  function setUsdAddress(address _usd) public onlyOwner{\r... */\n    tag_60:\n        /* \"contracts/BNBPrice.sol\":971:976  owner */\n      0x02\n      0x00\n      swap1\n      sload\n      swap1\n      0x0100\n      exp\n      swap1\n      div\n      0xffffffffffffffffffffffffffffffffffffffff\n      and\n        /* \"contracts/BNBPrice.sol\":957:976  msg.sender == owner */\n      0xffffffffffffffffffffffffffffffffffffffff\n      and\n        /* \"contracts/BNBPrice.sol\":957:967  msg.sender */\n      caller\n        /* \"contracts/BNBPrice.sol\":957:976  msg.sender == owner */\n      0xffffffffffffffffffffffffffffffffffffffff\n      and\n      eq\n        /* \"contracts/BNBPrice.sol\":949:977  require(msg.sender == owner) */\n      tag_152\n      jumpi\n      0x00\n      dup1\n      revert\n    tag_152:\n        /* \"contracts/BNBPrice.sol\":2870:2874  _usd */\n      dup1\n        /* \"contracts/BNBPrice.sol\":2864:2867  usd */\n      0x01\n      0x00\n        /* \"contracts/BNBPrice.sol\":2864:2874  usd = _usd */\n      0x0100\n      exp\n      dup2\n      sload\n      dup2\n      0xffffffffffffffffffffffffffffffffffffffff\n      mul\n      not\n      and\n      swap1\n      dup4\n      0xffffffffffffffffffffffffffffffffffffffff\n      and\n      mul\n      or\n      swap1\n      sstore\n      pop\n        /* \"contracts/BNBPrice.sol\":2800:2882  function setUsdAddress(address _usd) public onlyOwner{\r... */\n      pop\n      jump\t// out\n        /* \"contracts/BNBPrice.sol\":2890:2977  function setEqMode() public {\r... */\n    tag_63:\n        /* \"contracts/BNBPrice.sol\":2951:2957  eqMode */\n      0x04\n        /* \"contracts/BNBPrice.sol\":2951:2969  eqMode[msg.sender] */\n      0x00\n        /* \"contracts/BNBPrice.sol\":2958:2968  msg.sender */\n      caller\n        /* \"contracts/BNBPrice.sol\":2951:2969  eqMode[msg.sender] */\n      0xffffffffffffffffffffffffffffffffffffffff\n      and\n      0xffffffffffffffffffffffffffffffffffffffff\n      and\n      dup2\n      mstore\n      0x20\n      add\n      swap1\n      dup2\n      mstore\n      0x20\n      add\n      0x00\n      keccak256\n      0x00\n      swap1\n      sload\n      swap1\n      0x0100\n      exp\n      swap1\n      div\n      0xff\n      and\n        /* \"contracts/BNBPrice.sol\":2950:2969  !eqMode[msg.sender] */\n      iszero\n        /* \"contracts/BNBPrice.sol\":2929:2935  eqMode */\n      0x04\n        /* \"contracts/BNBPrice.sol\":2929:2947  eqMode[msg.sender] */\n      0x00\n        /* \"contracts/BNBPrice.sol\":2936:2946  msg.sender */\n      caller\n        /* \"contracts/BNBPrice.sol\":2929:2947  eqMode[msg.sender] */\n      0xffffffffffffffffffffffffffffffffffffffff\n      and\n      0xffffffffffffffffffffffffffffffffffffffff\n      and\n      dup2\n      mstore\n      0x20\n      add\n      swap1\n      dup2\n      mstore\n      0x20\n      add\n      0x00\n      keccak256\n      0x00\n        /* \"contracts/BNBPrice.sol\":2929:2969  eqMode[msg.sender] = !eqMode[msg.sender] */\n      0x0100\n      exp\n      dup2\n      sload\n      dup2\n      0xff\n      mul\n      not\n      and\n      swap1\n      dup4\n      iszero\n      iszero\n      mul\n      or\n      swap1\n      sstore\n      pop\n        /* \"contracts/BNBPrice.sol\":2890:2977  function setEqMode() public {\r... */\n      jump\t// out\n        /* \"contracts/BNBPrice.sol\":1068:1360  function addPoolUSD(address _factory, uint24 _fee) external onlyOwner {\r... */\n    tag_67:\n        /* \"contracts/BNBPrice.sol\":971:976  owner */\n      0x02\n      0x00\n      swap1\n      sload\n      swap1\n      0x0100\n      exp\n      swap1\n      div\n      0xffffffffffffffffffffffffffffffffffffffff\n      and\n        /* \"contracts/BNBPrice.sol\":957:976  msg.sender == owner */\n      0xffffffffffffffffffffffffffffffffffffffff\n      and\n        /* \"contracts/BNBPrice.sol\":957:967  msg.sender */\n      caller\n        /* \"contracts/BNBPrice.sol\":957:976  msg.sender == owner */\n      0xffffffffffffffffffffffffffffffffffffffff\n      and\n      eq\n        /* \"contracts/BNBPrice.sol\":949:977  require(msg.sender == owner) */\n      tag_156\n      jumpi\n      0x00\n      dup1\n      revert\n    tag_156:\n        /* \"contracts/BNBPrice.sol\":1149:1161  address pool */\n      0x00\n        /* \"contracts/BNBPrice.sol\":1182:1190  _factory */\n      dup3\n        /* \"contracts/BNBPrice.sol\":1164:1199  IPancakeV3Factory(_factory).getPool */\n      0xffffffffffffffffffffffffffffffffffffffff\n      and\n      0x1698ee82\n        /* \"contracts/BNBPrice.sol\":1214:1217  usd */\n      0x01\n      0x00\n      swap1\n      sload\n      swap1\n      0x0100\n      exp\n      swap1\n      div\n      0xffffffffffffffffffffffffffffffffffffffff\n      and\n        /* \"contracts/BNBPrice.sol\":1232:1235  bnb */\n      0x00\n      dup1\n      sload\n      swap1\n      0x0100\n      exp\n      swap1\n      div\n      0xffffffffffffffffffffffffffffffffffffffff\n      and\n        /* \"contracts/BNBPrice.sol\":1250:1254  _fee */\n      dup6\n        /* \"contracts/BNBPrice.sol\":1164:1265  IPancakeV3Factory(_factory).getPool(\r... */\n      mload(0x40)\n      dup5\n      0xffffffff\n      and\n      0xe0\n      shl\n      dup2\n      mstore\n      0x04\n      add\n      dup1\n      dup5\n      0xffffffffffffffffffffffffffffffffffffffff\n      and\n      dup2\n      mstore\n      0x20\n      add\n      dup4\n      0xffffffffffffffffffffffffffffffffffffffff\n      and\n      dup2\n      mstore\n      0x20\n      add\n      dup3\n      0xffffff\n      and\n      dup2\n      mstore\n      0x20\n      add\n      swap4\n      pop\n      pop\n      pop\n      pop\n      0x20\n      mload(0x40)\n      dup1\n      dup4\n      sub\n      dup2\n      dup7\n      dup1\n      extcodesize\n      iszero\n      dup1\n      iszero\n      tag_158\n      jumpi\n      0x00\n      dup1\n      revert\n    tag_158:\n      pop\n      gas\n      staticcall\n      iszero\n      dup1\n      iszero\n      tag_160\n      jumpi\n      returndatasize\n      0x00\n      dup1\n      returndatacopy\n      revert(0x00, returndatasize)\n    tag_160:\n      pop\n      pop\n      pop\n      pop\n      mload(0x40)\n      returndatasize\n      0x20\n      dup2\n      lt\n      iszero\n      tag_161\n      jumpi\n      0x00\n      dup1\n      revert\n    tag_161:\n      dup2\n      add\n      swap1\n      dup1\n      dup1\n      mload\n      swap1\n      0x20\n      add\n      swap1\n      swap3\n      swap2\n      swap1\n      pop\n      pop\n      pop\n        /* \"contracts/BNBPrice.sol\":1149:1265  address pool = IPancakeV3Factory(_factory).getPool(\r... */\n      swap1\n      pop\n        /* \"contracts/BNBPrice.sol\":1300:1301  0 */\n      0x00\n        /* \"contracts/BNBPrice.sol\":1284:1302  pool != address(0) */\n      0xffffffffffffffffffffffffffffffffffffffff\n      and\n        /* \"contracts/BNBPrice.sol\":1284:1288  pool */\n      dup2\n        /* \"contracts/BNBPrice.sol\":1284:1302  pool != address(0) */\n      0xffffffffffffffffffffffffffffffffffffffff\n      and\n      eq\n      iszero\n        /* \"contracts/BNBPrice.sol\":1276:1322  require(pool != address(0) , \"Pool Not Found\") */\n      tag_162\n      jumpi\n      mload(0x40)\n      0x08c379a000000000000000000000000000000000000000000000000000000000\n      dup2\n      mstore\n      0x04\n      add\n      dup1\n      dup1\n      0x20\n      add\n      dup3\n      dup2\n      sub\n      dup3\n      mstore\n      0x0e\n      dup2\n      mstore\n      0x20\n      add\n      dup1\n      0x506f6f6c204e6f7420466f756e64000000000000000000000000000000000000\n      dup2\n      mstore\n      pop\n      0x20\n      add\n      swap2\n      pop\n      pop\n      mload(0x40)\n      dup1\n      swap2\n      sub\n      swap1\n      revert\n    tag_162:\n        /* \"contracts/BNBPrice.sol\":1333:1341  poolsUSD */\n      0x03\n        /* \"contracts/BNBPrice.sol\":1347:1351  pool */\n      dup2\n        /* \"contracts/BNBPrice.sol\":1333:1352  poolsUSD.push(pool) */\n      swap1\n      dup1\n      0x01\n      dup2\n      sload\n      add\n      dup1\n      dup3\n      sstore\n      dup1\n      swap2\n      pop\n      pop\n      0x01\n      swap1\n      sub\n      swap1\n      0x00\n      mstore\n      keccak256(0x00, 0x20)\n      add\n      0x00\n      swap1\n      swap2\n      swap1\n      swap2\n      swap1\n      swap2\n      0x0100\n      exp\n      dup2\n      sload\n      dup2\n      0xffffffffffffffffffffffffffffffffffffffff\n      mul\n      not\n      and\n      swap1\n      dup4\n      0xffffffffffffffffffffffffffffffffffffffff\n      and\n      mul\n      or\n      swap1\n      sstore\n      pop\n        /* \"contracts/BNBPrice.sol\":988:989  _ */\n      pop\n        /* \"contracts/BNBPrice.sol\":1068:1360  function addPoolUSD(address _factory, uint24 _fee) external onlyOwner {\r... */\n      pop\n      pop\n      jump\t// out\n        /* \"contracts/BNBPrice.sol\":1774:2016  function bnbToUsd(uint8 index) external view  returns (uint price){\r... */\n    tag_71:\n        /* \"contracts/BNBPrice.sol\":1829:1839  uint price */\n      0x00\n        /* \"contracts/BNBPrice.sol\":1853:1863  int24 tick */\n      dup1\n        /* \"contracts/BNBPrice.sol\":1887:1895  poolsUSD */\n      0x03\n        /* \"contracts/BNBPrice.sol\":1896:1901  index */\n      dup4\n        /* \"contracts/BNBPrice.sol\":1887:1902  poolsUSD[index] */\n      0xff\n      and\n      dup2\n      sload\n      dup2\n      lt\n      tag_165\n      jumpi\n      invalid\n    tag_165:\n      swap1\n      0x00\n      mstore\n      keccak256(0x00, 0x20)\n      add\n      0x00\n      swap1\n      sload\n      swap1\n      0x0100\n      exp\n      swap1\n      div\n      0xffffffffffffffffffffffffffffffffffffffff\n      and\n        /* \"contracts/BNBPrice.sol\":1872:1909  IPancakeV3Pool(poolsUSD[index]).slot0 */\n      0xffffffffffffffffffffffffffffffffffffffff\n      and\n      0x3850c7bd\n        /* \"contracts/BNBPrice.sol\":1872:1911  IPancakeV3Pool(poolsUSD[index]).slot0() */\n      mload(0x40)\n      dup2\n      0xffffffff\n      and\n      0xe0\n      shl\n      dup2\n      mstore\n      0x04\n      add\n      0xe0\n      mload(0x40)\n      dup1\n      dup4\n      sub\n      dup2\n      dup7\n      dup1\n      extcodesize\n      iszero\n      dup1\n      iszero\n      tag_167\n      jumpi\n      0x00\n      dup1\n      revert\n    tag_167:\n      pop\n      gas\n      staticcall\n      iszero\n      dup1\n      iszero\n      tag_169\n      jumpi\n      returndatasize\n      0x00\n      dup1\n      returndatacopy\n      revert(0x00, returndatasize)\n    tag_169:\n      pop\n      pop\n      pop\n      pop\n      mload(0x40)\n      returndatasize\n      0xe0\n      dup2\n      lt\n      iszero\n      tag_170\n      jumpi\n      0x00\n      dup1\n      revert\n    tag_170:\n      dup2\n      add\n      swap1\n      dup1\n      dup1\n      mload\n      swap1\n      0x20\n      add\n      swap1\n      swap3\n      swap2\n      swap1\n      dup1\n      mload\n      swap1\n      0x20\n      add\n      swap1\n      swap3\n      swap2\n      swap1\n      dup1\n      mload\n      swap1\n      0x20\n      add\n      swap1\n      swap3\n      swap2\n      swap1\n      dup1\n      mload\n      swap1\n      0x20\n      add\n      swap1\n      swap3\n      swap2\n      swap1\n      dup1\n      mload\n      swap1\n      0x20\n      add\n      swap1\n      swap3\n      swap2\n      swap1\n      dup1\n      mload\n      swap1\n      0x20\n      add\n      swap1\n      swap3\n      swap2\n      swap1\n      dup1\n      mload\n      swap1\n      0x20\n      add\n      swap1\n      swap3\n      swap2\n      swap1\n      pop\n      pop\n      pop\n        /* \"contracts/BNBPrice.sol\":1851:1911  (,int24 tick,,,,,) = IPancakeV3Pool(poolsUSD[index]).slot0() */\n      pop\n      pop\n      pop\n      pop\n      pop\n      swap2\n      pop\n      pop\n        /* \"contracts/BNBPrice.sol\":1930:2008  OracleLibrary.getQuoteAtTick(\r... */\n      tag_171\n        /* \"contracts/BNBPrice.sol\":1973:1977  tick */\n      dup2\n        /* \"contracts/BNBPrice.sol\":1979:1983  1e18 */\n      0x0de0b6b3a7640000\n        /* \"contracts/BNBPrice.sol\":1985:1988  bnb */\n      0x00\n      dup1\n      sload\n      swap1\n      0x0100\n      exp\n      swap1\n      div\n      0xffffffffffffffffffffffffffffffffffffffff\n      and\n        /* \"contracts/BNBPrice.sol\":1990:1993  usd */\n      0x01\n      0x00\n      swap1\n      sload\n      swap1\n      0x0100\n      exp\n      swap1\n      div\n      0xffffffffffffffffffffffffffffffffffffffff\n      and\n        /* \"contracts/BNBPrice.sol\":1930:1958  OracleLibrary.getQuoteAtTick */\n      tag_125\n        /* \"contracts/BNBPrice.sol\":1930:2008  OracleLibrary.getQuoteAtTick(\r... */\n      jump\t// in\n    tag_171:\n        /* \"contracts/BNBPrice.sol\":1922:2008  price = OracleLibrary.getQuoteAtTick(\r... */\n      swap2\n      pop\n        /* \"contracts/BNBPrice.sol\":1774:2016  function bnbToUsd(uint8 index) external view  returns (uint price){\r... */\n      pop\n      swap2\n      swap1\n      pop\n      jump\t// out\n        /* \"contracts/BNBPrice.sol\":393:418  address[] public poolsUSD */\n    tag_75:\n      0x03\n      dup2\n      dup2\n      sload\n      dup2\n      lt\n      tag_172\n      jumpi\n      0x00\n      dup1\n      revert\n    tag_172:\n      swap1\n      0x00\n      mstore\n      keccak256(0x00, 0x20)\n      add\n      0x00\n      swap2\n      pop\n      sload\n      swap1\n      0x0100\n      exp\n      swap1\n      div\n      0xffffffffffffffffffffffffffffffffffffffff\n      and\n      dup2\n      jump\t// out\n        /* \"contracts/BNBPrice.sol\":603:627  uint public countReceive */\n    tag_78:\n      sload(0x07)\n      dup2\n      jump\t// out\n        /* \"contracts/BNBPrice.sol\":358:386  address payable public owner */\n    tag_81:\n      0x02\n      0x00\n      swap1\n      sload\n      swap1\n      0x0100\n      exp\n      swap1\n      div\n      0xffffffffffffffffffffffffffffffffffffffff\n      and\n      dup2\n      jump\t// out\n        /* \"contracts/BNBPrice.sol\":3204:3368  function getEqModeString() public view returns( string memory) {\r... */\n    tag_84:\n        /* \"contracts/BNBPrice.sol\":3252:3265  string memory */\n      0x60\n        /* \"contracts/BNBPrice.sol\":3278:3294  string memory em */\n      0x00\n        /* \"contracts/BNBPrice.sol\":3297:3303  eqMode */\n      0x04\n        /* \"contracts/BNBPrice.sol\":3297:3315  eqMode[msg.sender] */\n      0x00\n        /* \"contracts/BNBPrice.sol\":3304:3314  msg.sender */\n      caller\n        /* \"contracts/BNBPrice.sol\":3297:3315  eqMode[msg.sender] */\n      0xffffffffffffffffffffffffffffffffffffffff\n      and\n      0xffffffffffffffffffffffffffffffffffffffff\n      and\n      dup2\n      mstore\n      0x20\n      add\n      swap1\n      dup2\n      mstore\n      0x20\n      add\n      0x00\n      keccak256\n      0x00\n      swap1\n      sload\n      swap1\n      0x0100\n      exp\n      swap1\n      div\n      0xff\n      and\n        /* \"contracts/BNBPrice.sol\":3297:3340  eqMode[msg.sender] ?  \"USDTBNB\" : \"BNBUSDT\" */\n      tag_175\n      jumpi\n      mload(0x40)\n      dup1\n      0x40\n      add\n      0x40\n      mstore\n      dup1\n      0x07\n      dup2\n      mstore\n      0x20\n      add\n      0x424e425553445400000000000000000000000000000000000000000000000000\n      dup2\n      mstore\n      pop\n      jump(tag_176)\n    tag_175:\n      mload(0x40)\n      dup1\n      0x40\n      add\n      0x40\n      mstore\n      dup1\n      0x07\n      dup2\n      mstore\n      0x20\n      add\n      0x55534454424e4200000000000000000000000000000000000000000000000000\n      dup2\n      mstore\n      pop\n    tag_176:\n        /* \"contracts/BNBPrice.sol\":3278:3340  string memory em = eqMode[msg.sender] ?  \"USDTBNB\" : \"BNBUSDT\" */\n      swap1\n      pop\n        /* \"contracts/BNBPrice.sol\":3358:3360  em */\n      dup1\n        /* \"contracts/BNBPrice.sol\":3351:3360  return em */\n      swap2\n      pop\n      pop\n        /* \"contracts/BNBPrice.sol\":3204:3368  function getEqModeString() public view returns( string memory) {\r... */\n      swap1\n      jump\t// out\n        /* \"contracts/BNBPrice.sol\":3376:3479  function changeOwner(address payable _newOwner) public onlyOwner {\r... */\n    tag_92:\n        /* \"contracts/BNBPrice.sol\":971:976  owner */\n      0x02\n      0x00\n      swap1\n      sload\n      swap1\n      0x0100\n      exp\n      swap1\n      div\n      0xffffffffffffffffffffffffffffffffffffffff\n      and\n        /* \"contracts/BNBPrice.sol\":957:976  msg.sender == owner */\n      0xffffffffffffffffffffffffffffffffffffffff\n      and\n        /* \"contracts/BNBPrice.sol\":957:967  msg.sender */\n      caller\n        /* \"contracts/BNBPrice.sol\":957:976  msg.sender == owner */\n      0xffffffffffffffffffffffffffffffffffffffff\n      and\n      eq\n        /* \"contracts/BNBPrice.sol\":949:977  require(msg.sender == owner) */\n      tag_178\n      jumpi\n      0x00\n      dup1\n      revert\n    tag_178:\n        /* \"contracts/BNBPrice.sol\":3460:3469  _newOwner */\n      dup1\n        /* \"contracts/BNBPrice.sol\":3452:3457  owner */\n      0x02\n      0x00\n        /* \"contracts/BNBPrice.sol\":3452:3469  owner = _newOwner */\n      0x0100\n      exp\n      dup2\n      sload\n      dup2\n      0xffffffffffffffffffffffffffffffffffffffff\n      mul\n      not\n      and\n      swap1\n      dup4\n      0xffffffffffffffffffffffffffffffffffffffff\n      and\n      mul\n      or\n      swap1\n      sstore\n      pop\n        /* \"contracts/BNBPrice.sol\":3376:3479  function changeOwner(address payable _newOwner) public onlyOwner {\r... */\n      pop\n      jump\t// out\n        /* \"contracts/BNBPrice.sol\":1521:1764  function usdToBnb(uint8 index) external view  returns (uint price){\r... */\n    tag_96:\n        /* \"contracts/BNBPrice.sol\":1576:1586  uint price */\n      0x00\n        /* \"contracts/BNBPrice.sol\":1600:1610  int24 tick */\n      dup1\n        /* \"contracts/BNBPrice.sol\":1634:1642  poolsUSD */\n      0x03\n        /* \"contracts/BNBPrice.sol\":1643:1648  index */\n      dup4\n        /* \"contracts/BNBPrice.sol\":1634:1649  poolsUSD[index] */\n      0xff\n      and\n      dup2\n      sload\n      dup2\n      lt\n      tag_181\n      jumpi\n      invalid\n    tag_181:\n      swap1\n      0x00\n      mstore\n      keccak256(0x00, 0x20)\n      add\n      0x00\n      swap1\n      sload\n      swap1\n      0x0100\n      exp\n      swap1\n      div\n      0xffffffffffffffffffffffffffffffffffffffff\n      and\n        /* \"contracts/BNBPrice.sol\":1619:1656  IPancakeV3Pool(poolsUSD[index]).slot0 */\n      0xffffffffffffffffffffffffffffffffffffffff\n      and\n      0x3850c7bd\n        /* \"contracts/BNBPrice.sol\":1619:1658  IPancakeV3Pool(poolsUSD[index]).slot0() */\n      mload(0x40)\n      dup2\n      0xffffffff\n      and\n      0xe0\n      shl\n      dup2\n      mstore\n      0x04\n      add\n      0xe0\n      mload(0x40)\n      dup1\n      dup4\n      sub\n      dup2\n      dup7\n      dup1\n      extcodesize\n      iszero\n      dup1\n      iszero\n      tag_183\n      jumpi\n      0x00\n      dup1\n      revert\n    tag_183:\n      pop\n      gas\n      staticcall\n      iszero\n      dup1\n      iszero\n      tag_185\n      jumpi\n      returndatasize\n      0x00\n      dup1\n      returndatacopy\n      revert(0x00, returndatasize)\n    tag_185:\n      pop\n      pop\n      pop\n      pop\n      mload(0x40)\n      returndatasize\n      0xe0\n      dup2\n      lt\n      iszero\n      tag_186\n      jumpi\n      0x00\n      dup1\n      revert\n    tag_186:\n      dup2\n      add\n      swap1\n      dup1\n      dup1\n      mload\n      swap1\n      0x20\n      add\n      swap1\n      swap3\n      swap2\n      swap1\n      dup1\n      mload\n      swap1\n      0x20\n      add\n      swap1\n      swap3\n      swap2\n      swap1\n      dup1\n      mload\n      swap1\n      0x20\n      add\n      swap1\n      swap3\n      swap2\n      swap1\n      dup1\n      mload\n      swap1\n      0x20\n      add\n      swap1\n      swap3\n      swap2\n      swap1\n      dup1\n      mload\n      swap1\n      0x20\n      add\n      swap1\n      swap3\n      swap2\n      swap1\n      dup1\n      mload\n      swap1\n      0x20\n      add\n      swap1\n      swap3\n      swap2\n      swap1\n      dup1\n      mload\n      swap1\n      0x20\n      add\n      swap1\n      swap3\n      swap2\n      swap1\n      pop\n      pop\n      pop\n        /* \"contracts/BNBPrice.sol\":1598:1658  (,int24 tick,,,,,) = IPancakeV3Pool(poolsUSD[index]).slot0() */\n      pop\n      pop\n      pop\n      pop\n      pop\n      swap2\n      pop\n      pop\n        /* \"contracts/BNBPrice.sol\":1677:1755  OracleLibrary.getQuoteAtTick(\r... */\n      tag_187\n        /* \"contracts/BNBPrice.sol\":1720:1724  tick */\n      dup2\n        /* \"contracts/BNBPrice.sol\":1726:1730  1e18 */\n      0x0de0b6b3a7640000\n        /* \"contracts/BNBPrice.sol\":1732:1735  usd */\n      0x01\n      0x00\n      swap1\n      sload\n      swap1\n      0x0100\n      exp\n      swap1\n      div\n      0xffffffffffffffffffffffffffffffffffffffff\n      and\n        /* \"contracts/BNBPrice.sol\":1737:1740  bnb */\n      0x00\n      dup1\n      sload\n      swap1\n      0x0100\n      exp\n      swap1\n      div\n      0xffffffffffffffffffffffffffffffffffffffff\n      and\n        /* \"contracts/BNBPrice.sol\":1677:1705  OracleLibrary.getQuoteAtTick */\n      tag_125\n        /* \"contracts/BNBPrice.sol\":1677:1755  OracleLibrary.getQuoteAtTick(\r... */\n      jump\t// in\n    tag_187:\n        /* \"contracts/BNBPrice.sol\":1669:1755  price = OracleLibrary.getQuoteAtTick(\r... */\n      swap2\n      pop\n        /* \"contracts/BNBPrice.sol\":1521:1764  function usdToBnb(uint8 index) external view  returns (uint price){\r... */\n      pop\n      swap2\n      swap1\n      pop\n      jump\t// out\n        /* \"contracts/BNBPrice.sol\":333:351  address public usd */\n    tag_99:\n      0x01\n      0x00\n      swap1\n      sload\n      swap1\n      0x0100\n      exp\n      swap1\n      div\n      0xffffffffffffffffffffffffffffffffffffffff\n      and\n      dup2\n      jump\t// out\n        /* \"contracts/BNBPrice.sol\":3875:4041  function viewAverage() external view returns (uint256) {\r... */\n    tag_102:\n        /* \"contracts/BNBPrice.sol\":3921:3928  uint256 */\n      0x00\n        /* \"contracts/BNBPrice.sol\":3973:3974  0 */\n      dup1\n        /* \"contracts/BNBPrice.sol\":3949:3958  lastPrice */\n      0x05\n        /* \"contracts/BNBPrice.sol\":3949:3970  lastPrice[msg.sender] */\n      0x00\n        /* \"contracts/BNBPrice.sol\":3959:3969  msg.sender */\n      caller\n        /* \"contracts/BNBPrice.sol\":3949:3970  lastPrice[msg.sender] */\n      0xffffffffffffffffffffffffffffffffffffffff\n      and\n      0xffffffffffffffffffffffffffffffffffffffff\n      and\n      dup2\n      mstore\n      0x20\n      add\n      swap1\n      dup2\n      mstore\n      0x20\n      add\n      0x00\n      keccak256\n      sload\n        /* \"contracts/BNBPrice.sol\":3949:3974  lastPrice[msg.sender] > 0 */\n      gt\n        /* \"contracts/BNBPrice.sol\":3941:3994  require(lastPrice[msg.sender] > 0, \"No stored price\") */\n      tag_189\n      jumpi\n      mload(0x40)\n      0x08c379a000000000000000000000000000000000000000000000000000000000\n      dup2\n      mstore\n      0x04\n      add\n      dup1\n      dup1\n      0x20\n      add\n      dup3\n      dup2\n      sub\n      dup3\n      mstore\n      0x0f\n      dup2\n      mstore\n      0x20\n      add\n      dup1\n      0x4e6f2073746f7265642070726963650000000000000000000000000000000000\n      dup2\n      mstore\n      pop\n      0x20\n      add\n      swap2\n      pop\n      pop\n      mload(0x40)\n      dup1\n      swap2\n      sub\n      swap1\n      revert\n    tag_189:\n        /* \"contracts/BNBPrice.sol\":4012:4021  lastPrice */\n      0x05\n        /* \"contracts/BNBPrice.sol\":4012:4033  lastPrice[msg.sender] */\n      0x00\n        /* \"contracts/BNBPrice.sol\":4022:4032  msg.sender */\n      caller\n        /* \"contracts/BNBPrice.sol\":4012:4033  lastPrice[msg.sender] */\n      0xffffffffffffffffffffffffffffffffffffffff\n      and\n      0xffffffffffffffffffffffffffffffffffffffff\n      and\n      dup2\n      mstore\n      0x20\n      add\n      swap1\n      dup2\n      mstore\n      0x20\n      add\n      0x00\n      keccak256\n      sload\n        /* \"contracts/BNBPrice.sol\":4005:4033  return lastPrice[msg.sender] */\n      swap1\n      pop\n        /* \"contracts/BNBPrice.sol\":3875:4041  function viewAverage() external view returns (uint256) {\r... */\n      swap1\n      jump\t// out\n        /* \"contracts/BNBPrice.sol\":511:555  mapping(address => uint256) public lastPrice */\n    tag_106:\n      mstore(0x20, 0x05)\n      dup1\n      0x00\n      mstore\n      keccak256(0x00, 0x40)\n      0x00\n      swap2\n      pop\n      swap1\n      pop\n      sload\n      dup2\n      jump\t// out\n        /* \"contracts/BNBPrice.sol\":3086:3196  function poolsLenght() public view returns(uint){\r... */\n    tag_109:\n        /* \"contracts/BNBPrice.sol\":3129:3133  uint */\n      0x00\n        /* \"contracts/BNBPrice.sol\":3141:3151  uint count */\n      dup1\n        /* \"contracts/BNBPrice.sol\":3154:3162  poolsUSD */\n      0x03\n        /* \"contracts/BNBPrice.sol\":3154:3169  poolsUSD.length */\n      dup1\n      sload\n      swap1\n      pop\n        /* \"contracts/BNBPrice.sol\":3141:3169  uint count = poolsUSD.length */\n      swap1\n      pop\n        /* \"contracts/BNBPrice.sol\":3183:3188  count */\n      dup1\n        /* \"contracts/BNBPrice.sol\":3176:3188  return count */\n      swap2\n      pop\n      pop\n        /* \"contracts/BNBPrice.sol\":3086:3196  function poolsLenght() public view returns(uint){\r... */\n      swap1\n      jump\t// out\n        /* \"@pancakeswap/v3-periphery/contracts/libraries/OracleLibrary.sol\":2632:3587  function getQuoteAtTick(... */\n    tag_125:\n        /* \"@pancakeswap/v3-periphery/contracts/libraries/OracleLibrary.sol\":2788:2807  uint256 quoteAmount */\n      0x00\n        /* \"@pancakeswap/v3-periphery/contracts/libraries/OracleLibrary.sol\":2819:2839  uint160 sqrtRatioX96 */\n      dup1\n        /* \"@pancakeswap/v3-periphery/contracts/libraries/OracleLibrary.sol\":2842:2875  TickMath.getSqrtRatioAtTick(tick) */\n      tag_192\n        /* \"@pancakeswap/v3-periphery/contracts/libraries/OracleLibrary.sol\":2870:2874  tick */\n      dup7\n        /* \"@pancakeswap/v3-periphery/contracts/libraries/OracleLibrary.sol\":2842:2869  TickMath.getSqrtRatioAtTick */\n      tag_193\n        /* \"@pancakeswap/v3-periphery/contracts/libraries/OracleLibrary.sol\":2842:2875  TickMath.getSqrtRatioAtTick(tick) */\n      jump\t// in\n    tag_192:\n        /* \"@pancakeswap/v3-periphery/contracts/libraries/OracleLibrary.sol\":2819:2875  uint160 sqrtRatioX96 = TickMath.getSqrtRatioAtTick(tick) */\n      swap1\n      pop\n        /* \"@pancakeswap/v3-periphery/contracts/libraries/OracleLibrary.sol\":3010:3027  type(uint128).max */\n      0xffffffffffffffffffffffffffffffff\n        /* \"@pancakeswap/v3-periphery/contracts/libraries/OracleLibrary.sol\":2994:3027  sqrtRatioX96 <= type(uint128).max */\n      dup1\n      and\n        /* \"@pancakeswap/v3-periphery/contracts/libraries/OracleLibrary.sol\":2994:3006  sqrtRatioX96 */\n      dup2\n        /* \"@pancakeswap/v3-periphery/contracts/libraries/OracleLibrary.sol\":2994:3027  sqrtRatioX96 <= type(uint128).max */\n      0xffffffffffffffffffffffffffffffffffffffff\n      and\n      gt\n        /* \"@pancakeswap/v3-periphery/contracts/libraries/OracleLibrary.sol\":2990:3581  if (sqrtRatioX96 <= type(uint128).max) {... */\n      tag_194\n      jumpi\n        /* \"@pancakeswap/v3-periphery/contracts/libraries/OracleLibrary.sol\":3043:3060  uint256 ratioX192 */\n      0x00\n        /* \"@pancakeswap/v3-periphery/contracts/libraries/OracleLibrary.sol\":3087:3099  sqrtRatioX96 */\n      dup2\n        /* \"@pancakeswap/v3-periphery/contracts/libraries/OracleLibrary.sol\":3063:3099  uint256(sqrtRatioX96) * sqrtRatioX96 */\n      0xffffffffffffffffffffffffffffffffffffffff\n      and\n        /* \"@pancakeswap/v3-periphery/contracts/libraries/OracleLibrary.sol\":3071:3083  sqrtRatioX96 */\n      dup3\n        /* \"@pancakeswap/v3-periphery/contracts/libraries/OracleLibrary.sol\":3063:3084  uint256(sqrtRatioX96) */\n      0xffffffffffffffffffffffffffffffffffffffff\n      and\n        /* \"@pancakeswap/v3-periphery/contracts/libraries/OracleLibrary.sol\":3063:3099  uint256(sqrtRatioX96) * sqrtRatioX96 */\n      mul\n        /* \"@pancakeswap/v3-periphery/contracts/libraries/OracleLibrary.sol\":3043:3099  uint256 ratioX192 = uint256(sqrtRatioX96) * sqrtRatioX96 */\n      swap1\n      pop\n        /* \"@pancakeswap/v3-periphery/contracts/libraries/OracleLibrary.sol\":3139:3149  quoteToken */\n      dup4\n        /* \"@pancakeswap/v3-periphery/contracts/libraries/OracleLibrary.sol\":3127:3149  baseToken < quoteToken */\n      0xffffffffffffffffffffffffffffffffffffffff\n      and\n        /* \"@pancakeswap/v3-periphery/contracts/libraries/OracleLibrary.sol\":3127:3136  baseToken */\n      dup6\n        /* \"@pancakeswap/v3-periphery/contracts/libraries/OracleLibrary.sol\":3127:3149  baseToken < quoteToken */\n      0xffffffffffffffffffffffffffffffffffffffff\n      and\n      lt\n        /* \"@pancakeswap/v3-periphery/contracts/libraries/OracleLibrary.sol\":3127:3283  baseToken < quoteToken... */\n      tag_195\n      jumpi\n        /* \"@pancakeswap/v3-periphery/contracts/libraries/OracleLibrary.sol\":3235:3283  FullMath.mulDiv(1 << 192, baseAmount, ratioX192) */\n      tag_196\n        /* \"@pancakeswap/v3-periphery/contracts/libraries/OracleLibrary.sol\":3251:3259  1 << 192 */\n      0x01000000000000000000000000000000000000000000000000\n        /* \"@pancakeswap/v3-periphery/contracts/libraries/OracleLibrary.sol\":3261:3271  baseAmount */\n      dup8\n        /* \"@pancakeswap/v3-periphery/contracts/libraries/OracleLibrary.sol\":3235:3283  FullMath.mulDiv(1 << 192, baseAmount, ratioX192) */\n      0xffffffffffffffffffffffffffffffff\n      and\n        /* \"@pancakeswap/v3-periphery/contracts/libraries/OracleLibrary.sol\":3273:3282  ratioX192 */\n      dup4\n        /* \"@pancakeswap/v3-periphery/contracts/libraries/OracleLibrary.sol\":3235:3250  FullMath.mulDiv */\n      tag_197\n        /* \"@pancakeswap/v3-periphery/contracts/libraries/OracleLibrary.sol\":3235:3283  FullMath.mulDiv(1 << 192, baseAmount, ratioX192) */\n      jump\t// in\n    tag_196:\n        /* \"@pancakeswap/v3-periphery/contracts/libraries/OracleLibrary.sol\":3127:3283  baseToken < quoteToken... */\n      jump(tag_198)\n    tag_195:\n        /* \"@pancakeswap/v3-periphery/contracts/libraries/OracleLibrary.sol\":3168:3216  FullMath.mulDiv(ratioX192, baseAmount, 1 << 192) */\n      tag_199\n        /* \"@pancakeswap/v3-periphery/contracts/libraries/OracleLibrary.sol\":3184:3193  ratioX192 */\n      dup2\n        /* \"@pancakeswap/v3-periphery/contracts/libraries/OracleLibrary.sol\":3195:3205  baseAmount */\n      dup8\n        /* \"@pancakeswap/v3-periphery/contracts/libraries/OracleLibrary.sol\":3168:3216  FullMath.mulDiv(ratioX192, baseAmount, 1 << 192) */\n      0xffffffffffffffffffffffffffffffff\n      and\n        /* \"@pancakeswap/v3-periphery/contracts/libraries/OracleLibrary.sol\":3207:3215  1 << 192 */\n      0x01000000000000000000000000000000000000000000000000\n        /* \"@pancakeswap/v3-periphery/contracts/libraries/OracleLibrary.sol\":3168:3183  FullMath.mulDiv */\n      tag_197\n        /* \"@pancakeswap/v3-periphery/contracts/libraries/OracleLibrary.sol\":3168:3216  FullMath.mulDiv(ratioX192, baseAmount, 1 << 192) */\n      jump\t// in\n    tag_199:\n        /* \"@pancakeswap/v3-periphery/contracts/libraries/OracleLibrary.sol\":3127:3283  baseToken < quoteToken... */\n    tag_198:\n        /* \"@pancakeswap/v3-periphery/contracts/libraries/OracleLibrary.sol\":3113:3283  quoteAmount = baseToken < quoteToken... */\n      swap3\n      pop\n        /* \"@pancakeswap/v3-periphery/contracts/libraries/OracleLibrary.sol\":2990:3581  if (sqrtRatioX96 <= type(uint128).max) {... */\n      pop\n      jump(tag_200)\n    tag_194:\n        /* \"@pancakeswap/v3-periphery/contracts/libraries/OracleLibrary.sol\":3314:3331  uint256 ratioX128 */\n      0x00\n        /* \"@pancakeswap/v3-periphery/contracts/libraries/OracleLibrary.sol\":3334:3386  FullMath.mulDiv(sqrtRatioX96, sqrtRatioX96, 1 << 64) */\n      tag_201\n        /* \"@pancakeswap/v3-periphery/contracts/libraries/OracleLibrary.sol\":3350:3362  sqrtRatioX96 */\n      dup3\n        /* \"@pancakeswap/v3-periphery/contracts/libraries/OracleLibrary.sol\":3334:3386  FullMath.mulDiv(sqrtRatioX96, sqrtRatioX96, 1 << 64) */\n      0xffffffffffffffffffffffffffffffffffffffff\n      and\n        /* \"@pancakeswap/v3-periphery/contracts/libraries/OracleLibrary.sol\":3364:3376  sqrtRatioX96 */\n      dup4\n        /* \"@pancakeswap/v3-periphery/contracts/libraries/OracleLibrary.sol\":3334:3386  FullMath.mulDiv(sqrtRatioX96, sqrtRatioX96, 1 << 64) */\n      0xffffffffffffffffffffffffffffffffffffffff\n      and\n        /* \"@pancakeswap/v3-periphery/contracts/libraries/OracleLibrary.sol\":3378:3385  1 << 64 */\n      0x010000000000000000\n        /* \"@pancakeswap/v3-periphery/contracts/libraries/OracleLibrary.sol\":3334:3349  FullMath.mulDiv */\n      tag_197\n        /* \"@pancakeswap/v3-periphery/contracts/libraries/OracleLibrary.sol\":3334:3386  FullMath.mulDiv(sqrtRatioX96, sqrtRatioX96, 1 << 64) */\n      jump\t// in\n    tag_201:\n        /* \"@pancakeswap/v3-periphery/contracts/libraries/OracleLibrary.sol\":3314:3386  uint256 ratioX128 = FullMath.mulDiv(sqrtRatioX96, sqrtRatioX96, 1 << 64) */\n      swap1\n      pop\n        /* \"@pancakeswap/v3-periphery/contracts/libraries/OracleLibrary.sol\":3426:3436  quoteToken */\n      dup4\n        /* \"@pancakeswap/v3-periphery/contracts/libraries/OracleLibrary.sol\":3414:3436  baseToken < quoteToken */\n      0xffffffffffffffffffffffffffffffffffffffff\n      and\n        /* \"@pancakeswap/v3-periphery/contracts/libraries/OracleLibrary.sol\":3414:3423  baseToken */\n      dup6\n        /* \"@pancakeswap/v3-periphery/contracts/libraries/OracleLibrary.sol\":3414:3436  baseToken < quoteToken */\n      0xffffffffffffffffffffffffffffffffffffffff\n      and\n      lt\n        /* \"@pancakeswap/v3-periphery/contracts/libraries/OracleLibrary.sol\":3414:3570  baseToken < quoteToken... */\n      tag_202\n      jumpi\n        /* \"@pancakeswap/v3-periphery/contracts/libraries/OracleLibrary.sol\":3522:3570  FullMath.mulDiv(1 << 128, baseAmount, ratioX128) */\n      tag_203\n        /* \"@pancakeswap/v3-periphery/contracts/libraries/OracleLibrary.sol\":3538:3546  1 << 128 */\n      0x0100000000000000000000000000000000\n        /* \"@pancakeswap/v3-periphery/contracts/libraries/OracleLibrary.sol\":3548:3558  baseAmount */\n      dup8\n        /* \"@pancakeswap/v3-periphery/contracts/libraries/OracleLibrary.sol\":3522:3570  FullMath.mulDiv(1 << 128, baseAmount, ratioX128) */\n      0xffffffffffffffffffffffffffffffff\n      and\n        /* \"@pancakeswap/v3-periphery/contracts/libraries/OracleLibrary.sol\":3560:3569  ratioX128 */\n      dup4\n        /* \"@pancakeswap/v3-periphery/contracts/libraries/OracleLibrary.sol\":3522:3537  FullMath.mulDiv */\n      tag_197\n        /* \"@pancakeswap/v3-periphery/contracts/libraries/OracleLibrary.sol\":3522:3570  FullMath.mulDiv(1 << 128, baseAmount, ratioX128) */\n      jump\t// in\n    tag_203:\n        /* \"@pancakeswap/v3-periphery/contracts/libraries/OracleLibrary.sol\":3414:3570  baseToken < quoteToken... */\n      jump(tag_204)\n    tag_202:\n        /* \"@pancakeswap/v3-periphery/contracts/libraries/OracleLibrary.sol\":3455:3503  FullMath.mulDiv(ratioX128, baseAmount, 1 << 128) */\n      tag_205\n        /* \"@pancakeswap/v3-periphery/contracts/libraries/OracleLibrary.sol\":3471:3480  ratioX128 */\n      dup2\n        /* \"@pancakeswap/v3-periphery/contracts/libraries/OracleLibrary.sol\":3482:3492  baseAmount */\n      dup8\n        /* \"@pancakeswap/v3-periphery/contracts/libraries/OracleLibrary.sol\":3455:3503  FullMath.mulDiv(ratioX128, baseAmount, 1 << 128) */\n      0xffffffffffffffffffffffffffffffff\n      and\n        /* \"@pancakeswap/v3-periphery/contracts/libraries/OracleLibrary.sol\":3494:3502  1 << 128 */\n      0x0100000000000000000000000000000000\n        /* \"@pancakeswap/v3-periphery/contracts/libraries/OracleLibrary.sol\":3455:3470  FullMath.mulDiv */\n      tag_197\n        /* \"@pancakeswap/v3-periphery/contracts/libraries/OracleLibrary.sol\":3455:3503  FullMath.mulDiv(ratioX128, baseAmount, 1 << 128) */\n      jump\t// in\n    tag_205:\n        /* \"@pancakeswap/v3-periphery/contracts/libraries/OracleLibrary.sol\":3414:3570  baseToken < quoteToken... */\n    tag_204:\n        /* \"@pancakeswap/v3-periphery/contracts/libraries/OracleLibrary.sol\":3400:3570  quoteAmount = baseToken < quoteToken... */\n      swap3\n      pop\n        /* \"@pancakeswap/v3-periphery/contracts/libraries/OracleLibrary.sol\":2990:3581  if (sqrtRatioX96 <= type(uint128).max) {... */\n      pop\n    tag_200:\n        /* \"@pancakeswap/v3-periphery/contracts/libraries/OracleLibrary.sol\":2632:3587  function getQuoteAtTick(... */\n      pop\n      swap5\n      swap4\n      pop\n      pop\n      pop\n      pop\n      jump\t// out\n        /* \"@pancakeswap/v3-core/contracts/libraries/TickMath.sol\":1362:3942  function getSqrtRatioAtTick(int24 tick) internal pure returns (uint160 sqrtPriceX96) {... */\n    tag_193:\n        /* \"@pancakeswap/v3-core/contracts/libraries/TickMath.sol\":1425:1445  uint160 sqrtPriceX96 */\n      0x00\n        /* \"@pancakeswap/v3-core/contracts/libraries/TickMath.sol\":1457:1472  uint256 absTick */\n      dup1\n        /* \"@pancakeswap/v3-core/contracts/libraries/TickMath.sol\":1482:1483  0 */\n      0x00\n        /* \"@pancakeswap/v3-core/contracts/libraries/TickMath.sol\":1475:1479  tick */\n      dup4\n        /* \"@pancakeswap/v3-core/contracts/libraries/TickMath.sol\":1475:1483  tick < 0 */\n      0x02\n      signextend\n      slt\n        /* \"@pancakeswap/v3-core/contracts/libraries/TickMath.sol\":1475:1532  tick < 0 ? uint256(-int256(tick)) : uint256(int256(tick)) */\n      tag_207\n      jumpi\n        /* \"@pancakeswap/v3-core/contracts/libraries/TickMath.sol\":1526:1530  tick */\n      dup3\n        /* \"@pancakeswap/v3-core/contracts/libraries/TickMath.sol\":1519:1531  int256(tick) */\n      0x02\n      signextend\n        /* \"@pancakeswap/v3-core/contracts/libraries/TickMath.sol\":1475:1532  tick < 0 ? uint256(-int256(tick)) : uint256(int256(tick)) */\n      jump(tag_208)\n    tag_207:\n        /* \"@pancakeswap/v3-core/contracts/libraries/TickMath.sol\":1502:1506  tick */\n      dup3\n        /* \"@pancakeswap/v3-core/contracts/libraries/TickMath.sol\":1495:1507  int256(tick) */\n      0x02\n      signextend\n        /* \"@pancakeswap/v3-core/contracts/libraries/TickMath.sol\":1494:1507  -int256(tick) */\n      0x00\n      sub\n        /* \"@pancakeswap/v3-core/contracts/libraries/TickMath.sol\":1475:1532  tick < 0 ? uint256(-int256(tick)) : uint256(int256(tick)) */\n    tag_208:\n        /* \"@pancakeswap/v3-core/contracts/libraries/TickMath.sol\":1457:1532  uint256 absTick = tick < 0 ? uint256(-int256(tick)) : uint256(int256(tick)) */\n      swap1\n      pop\n        /* \"@pancakeswap/v3-core/contracts/libraries/TickMath.sol\":484:491  -887272 */\n      0xfffffffffffffffffffffffffffffffffffffffffffffffffffffffffff27618\n        /* \"@pancakeswap/v3-core/contracts/libraries/TickMath.sol\":644:653  -MIN_TICK */\n      0x00\n      sub\n        /* \"@pancakeswap/v3-core/contracts/libraries/TickMath.sol\":1561:1578  uint256(MAX_TICK) */\n      0x02\n      signextend\n        /* \"@pancakeswap/v3-core/contracts/libraries/TickMath.sol\":1550:1557  absTick */\n      dup2\n        /* \"@pancakeswap/v3-core/contracts/libraries/TickMath.sol\":1550:1578  absTick <= uint256(MAX_TICK) */\n      gt\n      iszero\n        /* \"@pancakeswap/v3-core/contracts/libraries/TickMath.sol\":1542:1584  require(absTick <= uint256(MAX_TICK), 'T') */\n      tag_209\n      jumpi\n      mload(0x40)\n      0x08c379a000000000000000000000000000000000000000000000000000000000\n      dup2\n      mstore\n      0x04\n      add\n      dup1\n      dup1\n      0x20\n      add\n      dup3\n      dup2\n      sub\n      dup3\n      mstore\n      0x01\n      dup2\n      mstore\n      0x20\n      add\n      dup1\n      0x5400000000000000000000000000000000000000000000000000000000000000\n      dup2\n      mstore\n      pop\n      0x20\n      add\n      swap2\n      pop\n      pop\n      mload(0x40)\n      dup1\n      swap2\n      sub\n      swap1\n      revert\n    tag_209:\n        /* \"@pancakeswap/v3-core/contracts/libraries/TickMath.sol\":1595:1608  uint256 ratio */\n      0x00\n        /* \"@pancakeswap/v3-core/contracts/libraries/TickMath.sol\":1628:1629  0 */\n      dup1\n        /* \"@pancakeswap/v3-core/contracts/libraries/TickMath.sol\":1621:1624  0x1 */\n      0x01\n        /* \"@pancakeswap/v3-core/contracts/libraries/TickMath.sol\":1611:1618  absTick */\n      dup4\n        /* \"@pancakeswap/v3-core/contracts/libraries/TickMath.sol\":1611:1624  absTick & 0x1 */\n      and\n        /* \"@pancakeswap/v3-core/contracts/libraries/TickMath.sol\":1611:1629  absTick & 0x1 != 0 */\n      eq\n      iszero\n        /* \"@pancakeswap/v3-core/contracts/libraries/TickMath.sol\":1611:1704  absTick & 0x1 != 0 ? 0xfffcb933bd6fad37aa2d162d1a594001 : 0x100000000000000000000000000000000 */\n      tag_210\n      jumpi\n        /* \"@pancakeswap/v3-core/contracts/libraries/TickMath.sol\":1669:1704  0x100000000000000000000000000000000 */\n      0x0100000000000000000000000000000000\n        /* \"@pancakeswap/v3-core/contracts/libraries/TickMath.sol\":1611:1704  absTick & 0x1 != 0 ? 0xfffcb933bd6fad37aa2d162d1a594001 : 0x100000000000000000000000000000000 */\n      jump(tag_211)\n    tag_210:\n        /* \"@pancakeswap/v3-core/contracts/libraries/TickMath.sol\":1632:1666  0xfffcb933bd6fad37aa2d162d1a594001 */\n      0xfffcb933bd6fad37aa2d162d1a594001\n        /* \"@pancakeswap/v3-core/contracts/libraries/TickMath.sol\":1611:1704  absTick & 0x1 != 0 ? 0xfffcb933bd6fad37aa2d162d1a594001 : 0x100000000000000000000000000000000 */\n    tag_211:\n        /* \"@pancakeswap/v3-core/contracts/libraries/TickMath.sol\":1595:1704  uint256 ratio = absTick & 0x1 != 0 ? 0xfffcb933bd6fad37aa2d162d1a594001 : 0x100000000000000000000000000000000 */\n      0xffffffffffffffffffffffffffffffffff\n      and\n      swap1\n      pop\n        /* \"@pancakeswap/v3-core/contracts/libraries/TickMath.sol\":1735:1736  0 */\n      0x00\n        /* \"@pancakeswap/v3-core/contracts/libraries/TickMath.sol\":1728:1731  0x2 */\n      0x02\n        /* \"@pancakeswap/v3-core/contracts/libraries/TickMath.sol\":1718:1725  absTick */\n      dup4\n        /* \"@pancakeswap/v3-core/contracts/libraries/TickMath.sol\":1718:1731  absTick & 0x2 */\n      and\n        /* \"@pancakeswap/v3-core/contracts/libraries/TickMath.sol\":1718:1736  absTick & 0x2 != 0 */\n      eq\n        /* \"@pancakeswap/v3-core/contracts/libraries/TickMath.sol\":1714:1797  if (absTick & 0x2 != 0) ratio = (ratio * 0xfff97272373d413259a46990580e213a) >> 128 */\n      tag_212\n      jumpi\n        /* \"@pancakeswap/v3-core/contracts/libraries/TickMath.sol\":1794:1797  128 */\n      0x80\n        /* \"@pancakeswap/v3-core/contracts/libraries/TickMath.sol\":1755:1789  0xfff97272373d413259a46990580e213a */\n      0xfff97272373d413259a46990580e213a\n        /* \"@pancakeswap/v3-core/contracts/libraries/TickMath.sol\":1747:1752  ratio */\n      dup3\n        /* \"@pancakeswap/v3-core/contracts/libraries/TickMath.sol\":1747:1789  ratio * 0xfff97272373d413259a46990580e213a */\n      mul\n        /* \"@pancakeswap/v3-core/contracts/libraries/TickMath.sol\":1746:1797  (ratio * 0xfff97272373d413259a46990580e213a) >> 128 */\n      swap1\n      shr\n        /* \"@pancakeswap/v3-core/contracts/libraries/TickMath.sol\":1738:1797  ratio = (ratio * 0xfff97272373d413259a46990580e213a) >> 128 */\n      swap1\n      pop\n        /* \"@pancakeswap/v3-core/contracts/libraries/TickMath.sol\":1714:1797  if (absTick & 0x2 != 0) ratio = (ratio * 0xfff97272373d413259a46990580e213a) >> 128 */\n    tag_212:\n        /* \"@pancakeswap/v3-core/contracts/libraries/TickMath.sol\":1828:1829  0 */\n      0x00\n        /* \"@pancakeswap/v3-core/contracts/libraries/TickMath.sol\":1821:1824  0x4 */\n      0x04\n        /* \"@pancakeswap/v3-core/contracts/libraries/TickMath.sol\":1811:1818  absTick */\n      dup4\n        /* \"@pancakeswap/v3-core/contracts/libraries/TickMath.sol\":1811:1824  absTick & 0x4 */\n      and\n        /* \"@pancakeswap/v3-core/contracts/libraries/TickMath.sol\":1811:1829  absTick & 0x4 != 0 */\n      eq\n        /* \"@pancakeswap/v3-core/contracts/libraries/TickMath.sol\":1807:1890  if (absTick & 0x4 != 0) ratio = (ratio * 0xfff2e50f5f656932ef12357cf3c7fdcc) >> 128 */\n      tag_213\n      jumpi\n        /* \"@pancakeswap/v3-core/contracts/libraries/TickMath.sol\":1887:1890  128 */\n      0x80\n        /* \"@pancakeswap/v3-core/contracts/libraries/TickMath.sol\":1848:1882  0xfff2e50f5f656932ef12357cf3c7fdcc */\n      0xfff2e50f5f656932ef12357cf3c7fdcc\n        /* \"@pancakeswap/v3-core/contracts/libraries/TickMath.sol\":1840:1845  ratio */\n      dup3\n        /* \"@pancakeswap/v3-core/contracts/libraries/TickMath.sol\":1840:1882  ratio * 0xfff2e50f5f656932ef12357cf3c7fdcc */\n      mul\n        /* \"@pancakeswap/v3-core/contracts/libraries/TickMath.sol\":1839:1890  (ratio * 0xfff2e50f5f656932ef12357cf3c7fdcc) >> 128 */\n      swap1\n      shr\n        /* \"@pancakeswap/v3-core/contracts/libraries/TickMath.sol\":1831:1890  ratio = (ratio * 0xfff2e50f5f656932ef12357cf3c7fdcc) >> 128 */\n      swap1\n      pop\n        /* \"@pancakeswap/v3-core/contracts/libraries/TickMath.sol\":1807:1890  if (absTick & 0x4 != 0) ratio = (ratio * 0xfff2e50f5f656932ef12357cf3c7fdcc) >> 128 */\n    tag_213:\n        /* \"@pancakeswap/v3-core/contracts/libraries/TickMath.sol\":1921:1922  0 */\n      0x00\n        /* \"@pancakeswap/v3-core/contracts/libraries/TickMath.sol\":1914:1917  0x8 */\n      0x08\n        /* \"@pancakeswap/v3-core/contracts/libraries/TickMath.sol\":1904:1911  absTick */\n      dup4\n        /* \"@pancakeswap/v3-core/contracts/libraries/TickMath.sol\":1904:1917  absTick & 0x8 */\n      and\n        /* \"@pancakeswap/v3-core/contracts/libraries/TickMath.sol\":1904:1922  absTick & 0x8 != 0 */\n      eq\n        /* \"@pancakeswap/v3-core/contracts/libraries/TickMath.sol\":1900:1983  if (absTick & 0x8 != 0) ratio = (ratio * 0xffe5caca7e10e4e61c3624eaa0941cd0) >> 128 */\n      tag_214\n      jumpi\n        /* \"@pancakeswap/v3-core/contracts/libraries/TickMath.sol\":1980:1983  128 */\n      0x80\n        /* \"@pancakeswap/v3-core/contracts/libraries/TickMath.sol\":1941:1975  0xffe5caca7e10e4e61c3624eaa0941cd0 */\n      0xffe5caca7e10e4e61c3624eaa0941cd0\n        /* \"@pancakeswap/v3-core/contracts/libraries/TickMath.sol\":1933:1938  ratio */\n      dup3\n        /* \"@pancakeswap/v3-core/contracts/libraries/TickMath.sol\":1933:1975  ratio * 0xffe5caca7e10e4e61c3624eaa0941cd0 */\n      mul\n        /* \"@pancakeswap/v3-core/contracts/libraries/TickMath.sol\":1932:1983  (ratio * 0xffe5caca7e10e4e61c3624eaa0941cd0) >> 128 */\n      swap1\n      shr\n        /* \"@pancakeswap/v3-core/contracts/libraries/TickMath.sol\":1924:1983  ratio = (ratio * 0xffe5caca7e10e4e61c3624eaa0941cd0) >> 128 */\n      swap1\n      pop\n        /* \"@pancakeswap/v3-core/contracts/libraries/TickMath.sol\":1900:1983  if (absTick & 0x8 != 0) ratio = (ratio * 0xffe5caca7e10e4e61c3624eaa0941cd0) >> 128 */\n    tag_214:\n        /* \"@pancakeswap/v3-core/contracts/libraries/TickMath.sol\":2015:2016  0 */\n      0x00\n        /* \"@pancakeswap/v3-core/contracts/libraries/TickMath.sol\":2007:2011  0x10 */\n      0x10\n        /* \"@pancakeswap/v3-core/contracts/libraries/TickMath.sol\":1997:2004  absTick */\n      dup4\n        /* \"@pancakeswap/v3-core/contracts/libraries/TickMath.sol\":1997:2011  absTick & 0x10 */\n      and\n        /* \"@pancakeswap/v3-core/contracts/libraries/TickMath.sol\":1997:2016  absTick & 0x10 != 0 */\n      eq\n        /* \"@pancakeswap/v3-core/contracts/libraries/TickMath.sol\":1993:2077  if (absTick & 0x10 != 0) ratio = (ratio * 0xffcb9843d60f6159c9db58835c926644) >> 128 */\n      tag_215\n      jumpi\n        /* \"@pancakeswap/v3-core/contracts/libraries/TickMath.sol\":2074:2077  128 */\n      0x80\n        /* \"@pancakeswap/v3-core/contracts/libraries/TickMath.sol\":2035:2069  0xffcb9843d60f6159c9db58835c926644 */\n      0xffcb9843d60f6159c9db58835c926644\n        /* \"@pancakeswap/v3-core/contracts/libraries/TickMath.sol\":2027:2032  ratio */\n      dup3\n        /* \"@pancakeswap/v3-core/contracts/libraries/TickMath.sol\":2027:2069  ratio * 0xffcb9843d60f6159c9db58835c926644 */\n      mul\n        /* \"@pancakeswap/v3-core/contracts/libraries/TickMath.sol\":2026:2077  (ratio * 0xffcb9843d60f6159c9db58835c926644) >> 128 */\n      swap1\n      shr\n        /* \"@pancakeswap/v3-core/contracts/libraries/TickMath.sol\":2018:2077  ratio = (ratio * 0xffcb9843d60f6159c9db58835c926644) >> 128 */\n      swap1\n      pop\n        /* \"@pancakeswap/v3-core/contracts/libraries/TickMath.sol\":1993:2077  if (absTick & 0x10 != 0) ratio = (ratio * 0xffcb9843d60f6159c9db58835c926644) >> 128 */\n    tag_215:\n        /* \"@pancakeswap/v3-core/contracts/libraries/TickMath.sol\":2109:2110  0 */\n      0x00\n        /* \"@pancakeswap/v3-core/contracts/libraries/TickMath.sol\":2101:2105  0x20 */\n      0x20\n        /* \"@pancakeswap/v3-core/contracts/libraries/TickMath.sol\":2091:2098  absTick */\n      dup4\n        /* \"@pancakeswap/v3-core/contracts/libraries/TickMath.sol\":2091:2105  absTick & 0x20 */\n      and\n        /* \"@pancakeswap/v3-core/contracts/libraries/TickMath.sol\":2091:2110  absTick & 0x20 != 0 */\n      eq\n        /* \"@pancakeswap/v3-core/contracts/libraries/TickMath.sol\":2087:2171  if (absTick & 0x20 != 0) ratio = (ratio * 0xff973b41fa98c081472e6896dfb254c0) >> 128 */\n      tag_216\n      jumpi\n        /* \"@pancakeswap/v3-core/contracts/libraries/TickMath.sol\":2168:2171  128 */\n      0x80\n        /* \"@pancakeswap/v3-core/contracts/libraries/TickMath.sol\":2129:2163  0xff973b41fa98c081472e6896dfb254c0 */\n      0xff973b41fa98c081472e6896dfb254c0\n        /* \"@pancakeswap/v3-core/contracts/libraries/TickMath.sol\":2121:2126  ratio */\n      dup3\n        /* \"@pancakeswap/v3-core/contracts/libraries/TickMath.sol\":2121:2163  ratio * 0xff973b41fa98c081472e6896dfb254c0 */\n      mul\n        /* \"@pancakeswap/v3-core/contracts/libraries/TickMath.sol\":2120:2171  (ratio * 0xff973b41fa98c081472e6896dfb254c0) >> 128 */\n      swap1\n      shr\n        /* \"@pancakeswap/v3-core/contracts/libraries/TickMath.sol\":2112:2171  ratio = (ratio * 0xff973b41fa98c081472e6896dfb254c0) >> 128 */\n      swap1\n      pop\n        /* \"@pancakeswap/v3-core/contracts/libraries/TickMath.sol\":2087:2171  if (absTick & 0x20 != 0) ratio = (ratio * 0xff973b41fa98c081472e6896dfb254c0) >> 128 */\n    tag_216:\n        /* \"@pancakeswap/v3-core/contracts/libraries/TickMath.sol\":2203:2204  0 */\n      0x00\n        /* \"@pancakeswap/v3-core/contracts/libraries/TickMath.sol\":2195:2199  0x40 */\n      0x40\n        /* \"@pancakeswap/v3-core/contracts/libraries/TickMath.sol\":2185:2192  absTick */\n      dup4\n        /* \"@pancakeswap/v3-core/contracts/libraries/TickMath.sol\":2185:2199  absTick & 0x40 */\n      and\n        /* \"@pancakeswap/v3-core/contracts/libraries/TickMath.sol\":2185:2204  absTick & 0x40 != 0 */\n      eq\n        /* \"@pancakeswap/v3-core/contracts/libraries/TickMath.sol\":2181:2265  if (absTick & 0x40 != 0) ratio = (ratio * 0xff2ea16466c96a3843ec78b326b52861) >> 128 */\n      tag_217\n      jumpi\n        /* \"@pancakeswap/v3-core/contracts/libraries/TickMath.sol\":2262:2265  128 */\n      0x80\n        /* \"@pancakeswap/v3-core/contracts/libraries/TickMath.sol\":2223:2257  0xff2ea16466c96a3843ec78b326b52861 */\n      0xff2ea16466c96a3843ec78b326b52861\n        /* \"@pancakeswap/v3-core/contracts/libraries/TickMath.sol\":2215:2220  ratio */\n      dup3\n        /* \"@pancakeswap/v3-core/contracts/libraries/TickMath.sol\":2215:2257  ratio * 0xff2ea16466c96a3843ec78b326b52861 */\n      mul\n        /* \"@pancakeswap/v3-core/contracts/libraries/TickMath.sol\":2214:2265  (ratio * 0xff2ea16466c96a3843ec78b326b52861) >> 128 */\n      swap1\n      shr\n        /* \"@pancakeswap/v3-core/contracts/libraries/TickMath.sol\":2206:2265  ratio = (ratio * 0xff2ea16466c96a3843ec78b326b52861) >> 128 */\n      swap1\n      pop\n        /* \"@pancakeswap/v3-core/contracts/libraries/TickMath.sol\":2181:2265  if (absTick & 0x40 != 0) ratio = (ratio * 0xff2ea16466c96a3843ec78b326b52861) >> 128 */\n    tag_217:\n        /* \"@pancakeswap/v3-core/contracts/libraries/TickMath.sol\":2297:2298  0 */\n      0x00\n        /* \"@pancakeswap/v3-core/contracts/libraries/TickMath.sol\":2289:2293  0x80 */\n      0x80\n        /* \"@pancakeswap/v3-core/contracts/libraries/TickMath.sol\":2279:2286  absTick */\n      dup4\n        /* \"@pancakeswap/v3-core/contracts/libraries/TickMath.sol\":2279:2293  absTick & 0x80 */\n      and\n        /* \"@pancakeswap/v3-core/contracts/libraries/TickMath.sol\":2279:2298  absTick & 0x80 != 0 */\n      eq\n        /* \"@pancakeswap/v3-core/contracts/libraries/TickMath.sol\":2275:2359  if (absTick & 0x80 != 0) ratio = (ratio * 0xfe5dee046a99a2a811c461f1969c3053) >> 128 */\n      tag_218\n      jumpi\n        /* \"@pancakeswap/v3-core/contracts/libraries/TickMath.sol\":2356:2359  128 */\n      0x80\n        /* \"@pancakeswap/v3-core/contracts/libraries/TickMath.sol\":2317:2351  0xfe5dee046a99a2a811c461f1969c3053 */\n      0xfe5dee046a99a2a811c461f1969c3053\n        /* \"@pancakeswap/v3-core/contracts/libraries/TickMath.sol\":2309:2314  ratio */\n      dup3\n        /* \"@pancakeswap/v3-core/contracts/libraries/TickMath.sol\":2309:2351  ratio * 0xfe5dee046a99a2a811c461f1969c3053 */\n      mul\n        /* \"@pancakeswap/v3-core/contracts/libraries/TickMath.sol\":2308:2359  (ratio * 0xfe5dee046a99a2a811c461f1969c3053) >> 128 */\n      swap1\n      shr\n        /* \"@pancakeswap/v3-core/contracts/libraries/TickMath.sol\":2300:2359  ratio = (ratio * 0xfe5dee046a99a2a811c461f1969c3053) >> 128 */\n      swap1\n      pop\n        /* \"@pancakeswap/v3-core/contracts/libraries/TickMath.sol\":2275:2359  if (absTick & 0x80 != 0) ratio = (ratio * 0xfe5dee046a99a2a811c461f1969c3053) >> 128 */\n    tag_218:\n        /* \"@pancakeswap/v3-core/contracts/libraries/TickMath.sol\":2392:2393  0 */\n      0x00\n        /* \"@pancakeswap/v3-core/contracts/libraries/TickMath.sol\":2383:2388  0x100 */\n      0x0100\n        /* \"@pancakeswap/v3-core/contracts/libraries/TickMath.sol\":2373:2380  absTick */\n      dup4\n        /* \"@pancakeswap/v3-core/contracts/libraries/TickMath.sol\":2373:2388  absTick & 0x100 */\n      and\n        /* \"@pancakeswap/v3-core/contracts/libraries/TickMath.sol\":2373:2393  absTick & 0x100 != 0 */\n      eq\n        /* \"@pancakeswap/v3-core/contracts/libraries/TickMath.sol\":2369:2454  if (absTick & 0x100 != 0) ratio = (ratio * 0xfcbe86c7900a88aedcffc83b479aa3a4) >> 128 */\n      tag_219\n      jumpi\n        /* \"@pancakeswap/v3-core/contracts/libraries/TickMath.sol\":2451:2454  128 */\n      0x80\n        /* \"@pancakeswap/v3-core/contracts/libraries/TickMath.sol\":2412:2446  0xfcbe86c7900a88aedcffc83b479aa3a4 */\n      0xfcbe86c7900a88aedcffc83b479aa3a4\n        /* \"@pancakeswap/v3-core/contracts/libraries/TickMath.sol\":2404:2409  ratio */\n      dup3\n        /* \"@pancakeswap/v3-core/contracts/libraries/TickMath.sol\":2404:2446  ratio * 0xfcbe86c7900a88aedcffc83b479aa3a4 */\n      mul\n        /* \"@pancakeswap/v3-core/contracts/libraries/TickMath.sol\":2403:2454  (ratio * 0xfcbe86c7900a88aedcffc83b479aa3a4) >> 128 */\n      swap1\n      shr\n        /* \"@pancakeswap/v3-core/contracts/libraries/TickMath.sol\":2395:2454  ratio = (ratio * 0xfcbe86c7900a88aedcffc83b479aa3a4) >> 128 */\n      swap1\n      pop\n        /* \"@pancakeswap/v3-core/contracts/libraries/TickMath.sol\":2369:2454  if (absTick & 0x100 != 0) ratio = (ratio * 0xfcbe86c7900a88aedcffc83b479aa3a4) >> 128 */\n    tag_219:\n        /* \"@pancakeswap/v3-core/contracts/libraries/TickMath.sol\":2487:2488  0 */\n      0x00\n        /* \"@pancakeswap/v3-core/contracts/libraries/TickMath.sol\":2478:2483  0x200 */\n      0x0200\n        /* \"@pancakeswap/v3-core/contracts/libraries/TickMath.sol\":2468:2475  absTick */\n      dup4\n        /* \"@pancakeswap/v3-core/contracts/libraries/TickMath.sol\":2468:2483  absTick & 0x200 */\n      and\n        /* \"@pancakeswap/v3-core/contracts/libraries/TickMath.sol\":2468:2488  absTick & 0x200 != 0 */\n      eq\n        /* \"@pancakeswap/v3-core/contracts/libraries/TickMath.sol\":2464:2549  if (absTick & 0x200 != 0) ratio = (ratio * 0xf987a7253ac413176f2b074cf7815e54) >> 128 */\n      tag_220\n      jumpi\n        /* \"@pancakeswap/v3-core/contracts/libraries/TickMath.sol\":2546:2549  128 */\n      0x80\n        /* \"@pancakeswap/v3-core/contracts/libraries/TickMath.sol\":2507:2541  0xf987a7253ac413176f2b074cf7815e54 */\n      0xf987a7253ac413176f2b074cf7815e54\n        /* \"@pancakeswap/v3-core/contracts/libraries/TickMath.sol\":2499:2504  ratio */\n      dup3\n        /* \"@pancakeswap/v3-core/contracts/libraries/TickMath.sol\":2499:2541  ratio * 0xf987a7253ac413176f2b074cf7815e54 */\n      mul\n        /* \"@pancakeswap/v3-core/contracts/libraries/TickMath.sol\":2498:2549  (ratio * 0xf987a7253ac413176f2b074cf7815e54) >> 128 */\n      swap1\n      shr\n        /* \"@pancakeswap/v3-core/contracts/libraries/TickMath.sol\":2490:2549  ratio = (ratio * 0xf987a7253ac413176f2b074cf7815e54) >> 128 */\n      swap1\n      pop\n        /* \"@pancakeswap/v3-core/contracts/libraries/TickMath.sol\":2464:2549  if (absTick & 0x200 != 0) ratio = (ratio * 0xf987a7253ac413176f2b074cf7815e54) >> 128 */\n    tag_220:\n        /* \"@pancakeswap/v3-core/contracts/libraries/TickMath.sol\":2582:2583  0 */\n      0x00\n        /* \"@pancakeswap/v3-core/contracts/libraries/TickMath.sol\":2573:2578  0x400 */\n      0x0400\n        /* \"@pancakeswap/v3-core/contracts/libraries/TickMath.sol\":2563:2570  absTick */\n      dup4\n        /* \"@pancakeswap/v3-core/contracts/libraries/TickMath.sol\":2563:2578  absTick & 0x400 */\n      and\n        /* \"@pancakeswap/v3-core/contracts/libraries/TickMath.sol\":2563:2583  absTick & 0x400 != 0 */\n      eq\n        /* \"@pancakeswap/v3-core/contracts/libraries/TickMath.sol\":2559:2644  if (absTick & 0x400 != 0) ratio = (ratio * 0xf3392b0822b70005940c7a398e4b70f3) >> 128 */\n      tag_221\n      jumpi\n        /* \"@pancakeswap/v3-core/contracts/libraries/TickMath.sol\":2641:2644  128 */\n      0x80\n        /* \"@pancakeswap/v3-core/contracts/libraries/TickMath.sol\":2602:2636  0xf3392b0822b70005940c7a398e4b70f3 */\n      0xf3392b0822b70005940c7a398e4b70f3\n        /* \"@pancakeswap/v3-core/contracts/libraries/TickMath.sol\":2594:2599  ratio */\n      dup3\n        /* \"@pancakeswap/v3-core/contracts/libraries/TickMath.sol\":2594:2636  ratio * 0xf3392b0822b70005940c7a398e4b70f3 */\n      mul\n        /* \"@pancakeswap/v3-core/contracts/libraries/TickMath.sol\":2593:2644  (ratio * 0xf3392b0822b70005940c7a398e4b70f3) >> 128 */\n      swap1\n      shr\n        /* \"@pancakeswap/v3-core/contracts/libraries/TickMath.sol\":2585:2644  ratio = (ratio * 0xf3392b0822b70005940c7a398e4b70f3) >> 128 */\n      swap1\n      pop\n        /* \"@pancakeswap/v3-core/contracts/libraries/TickMath.sol\":2559:2644  if (absTick & 0x400 != 0) ratio = (ratio * 0xf3392b0822b70005940c7a398e4b70f3) >> 128 */\n    tag_221:\n        /* \"@pancakeswap/v3-core/contracts/libraries/TickMath.sol\":2677:2678  0 */\n      0x00\n        /* \"@pancakeswap/v3-core/contracts/libraries/TickMath.sol\":2668:2673  0x800 */\n      0x0800\n        /* \"@pancakeswap/v3-core/contracts/libraries/TickMath.sol\":2658:2665  absTick */\n      dup4\n        /* \"@pancakeswap/v3-core/contracts/libraries/TickMath.sol\":2658:2673  absTick & 0x800 */\n      and\n        /* \"@pancakeswap/v3-core/contracts/libraries/TickMath.sol\":2658:2678  absTick & 0x800 != 0 */\n      eq\n        /* \"@pancakeswap/v3-core/contracts/libraries/TickMath.sol\":2654:2739  if (absTick & 0x800 != 0) ratio = (ratio * 0xe7159475a2c29b7443b29c7fa6e889d9) >> 128 */\n      tag_222\n      jumpi\n        /* \"@pancakeswap/v3-core/contracts/libraries/TickMath.sol\":2736:2739  128 */\n      0x80\n        /* \"@pancakeswap/v3-core/contracts/libraries/TickMath.sol\":2697:2731  0xe7159475a2c29b7443b29c7fa6e889d9 */\n      0xe7159475a2c29b7443b29c7fa6e889d9\n        /* \"@pancakeswap/v3-core/contracts/libraries/TickMath.sol\":2689:2694  ratio */\n      dup3\n        /* \"@pancakeswap/v3-core/contracts/libraries/TickMath.sol\":2689:2731  ratio * 0xe7159475a2c29b7443b29c7fa6e889d9 */\n      mul\n        /* \"@pancakeswap/v3-core/contracts/libraries/TickMath.sol\":2688:2739  (ratio * 0xe7159475a2c29b7443b29c7fa6e889d9) >> 128 */\n      swap1\n      shr\n        /* \"@pancakeswap/v3-core/contracts/libraries/TickMath.sol\":2680:2739  ratio = (ratio * 0xe7159475a2c29b7443b29c7fa6e889d9) >> 128 */\n      swap1\n      pop\n        /* \"@pancakeswap/v3-core/contracts/libraries/TickMath.sol\":2654:2739  if (absTick & 0x800 != 0) ratio = (ratio * 0xe7159475a2c29b7443b29c7fa6e889d9) >> 128 */\n    tag_222:\n        /* \"@pancakeswap/v3-core/contracts/libraries/TickMath.sol\":2773:2774  0 */\n      0x00\n        /* \"@pancakeswap/v3-core/contracts/libraries/TickMath.sol\":2763:2769  0x1000 */\n      0x1000\n        /* \"@pancakeswap/v3-core/contracts/libraries/TickMath.sol\":2753:2760  absTick */\n      dup4\n        /* \"@pancakeswap/v3-core/contracts/libraries/TickMath.sol\":2753:2769  absTick & 0x1000 */\n      and\n        /* \"@pancakeswap/v3-core/contracts/libraries/TickMath.sol\":2753:2774  absTick & 0x1000 != 0 */\n      eq\n        /* \"@pancakeswap/v3-core/contracts/libraries/TickMath.sol\":2749:2835  if (absTick & 0x1000 != 0) ratio = (ratio * 0xd097f3bdfd2022b8845ad8f792aa5825) >> 128 */\n      tag_223\n      jumpi\n        /* \"@pancakeswap/v3-core/contracts/libraries/TickMath.sol\":2832:2835  128 */\n      0x80\n        /* \"@pancakeswap/v3-core/contracts/libraries/TickMath.sol\":2793:2827  0xd097f3bdfd2022b8845ad8f792aa5825 */\n      0xd097f3bdfd2022b8845ad8f792aa5825\n        /* \"@pancakeswap/v3-core/contracts/libraries/TickMath.sol\":2785:2790  ratio */\n      dup3\n        /* \"@pancakeswap/v3-core/contracts/libraries/TickMath.sol\":2785:2827  ratio * 0xd097f3bdfd2022b8845ad8f792aa5825 */\n      mul\n        /* \"@pancakeswap/v3-core/contracts/libraries/TickMath.sol\":2784:2835  (ratio * 0xd097f3bdfd2022b8845ad8f792aa5825) >> 128 */\n      swap1\n      shr\n        /* \"@pancakeswap/v3-core/contracts/libraries/TickMath.sol\":2776:2835  ratio = (ratio * 0xd097f3bdfd2022b8845ad8f792aa5825) >> 128 */\n      swap1\n      pop\n        /* \"@pancakeswap/v3-core/contracts/libraries/TickMath.sol\":2749:2835  if (absTick & 0x1000 != 0) ratio = (ratio * 0xd097f3bdfd2022b8845ad8f792aa5825) >> 128 */\n    tag_223:\n        /* \"@pancakeswap/v3-core/contracts/libraries/TickMath.sol\":2869:2870  0 */\n      0x00\n        /* \"@pancakeswap/v3-core/contracts/libraries/TickMath.sol\":2859:2865  0x2000 */\n      0x2000\n        /* \"@pancakeswap/v3-core/contracts/libraries/TickMath.sol\":2849:2856  absTick */\n      dup4\n        /* \"@pancakeswap/v3-core/contracts/libraries/TickMath.sol\":2849:2865  absTick & 0x2000 */\n      and\n        /* \"@pancakeswap/v3-core/contracts/libraries/TickMath.sol\":2849:2870  absTick & 0x2000 != 0 */\n      eq\n        /* \"@pancakeswap/v3-core/contracts/libraries/TickMath.sol\":2845:2931  if (absTick & 0x2000 != 0) ratio = (ratio * 0xa9f746462d870fdf8a65dc1f90e061e5) >> 128 */\n      tag_224\n      jumpi\n        /* \"@pancakeswap/v3-core/contracts/libraries/TickMath.sol\":2928:2931  128 */\n      0x80\n        /* \"@pancakeswap/v3-core/contracts/libraries/TickMath.sol\":2889:2923  0xa9f746462d870fdf8a65dc1f90e061e5 */\n      0xa9f746462d870fdf8a65dc1f90e061e5\n        /* \"@pancakeswap/v3-core/contracts/libraries/TickMath.sol\":2881:2886  ratio */\n      dup3\n        /* \"@pancakeswap/v3-core/contracts/libraries/TickMath.sol\":2881:2923  ratio * 0xa9f746462d870fdf8a65dc1f90e061e5 */\n      mul\n        /* \"@pancakeswap/v3-core/contracts/libraries/TickMath.sol\":2880:2931  (ratio * 0xa9f746462d870fdf8a65dc1f90e061e5) >> 128 */\n      swap1\n      shr\n        /* \"@pancakeswap/v3-core/contracts/libraries/TickMath.sol\":2872:2931  ratio = (ratio * 0xa9f746462d870fdf8a65dc1f90e061e5) >> 128 */\n      swap1\n      pop\n        /* \"@pancakeswap/v3-core/contracts/libraries/TickMath.sol\":2845:2931  if (absTick & 0x2000 != 0) ratio = (ratio * 0xa9f746462d870fdf8a65dc1f90e061e5) >> 128 */\n    tag_224:\n        /* \"@pancakeswap/v3-core/contracts/libraries/TickMath.sol\":2965:2966  0 */\n      0x00\n        /* \"@pancakeswap/v3-core/contracts/libraries/TickMath.sol\":2955:2961  0x4000 */\n      0x4000\n        /* \"@pancakeswap/v3-core/contracts/libraries/TickMath.sol\":2945:2952  absTick */\n      dup4\n        /* \"@pancakeswap/v3-core/contracts/libraries/TickMath.sol\":2945:2961  absTick & 0x4000 */\n      and\n        /* \"@pancakeswap/v3-core/contracts/libraries/TickMath.sol\":2945:2966  absTick & 0x4000 != 0 */\n      eq\n        /* \"@pancakeswap/v3-core/contracts/libraries/TickMath.sol\":2941:3027  if (absTick & 0x4000 != 0) ratio = (ratio * 0x70d869a156d2a1b890bb3df62baf32f7) >> 128 */\n      tag_225\n      jumpi\n        /* \"@pancakeswap/v3-core/contracts/libraries/TickMath.sol\":3024:3027  128 */\n      0x80\n        /* \"@pancakeswap/v3-core/contracts/libraries/TickMath.sol\":2985:3019  0x70d869a156d2a1b890bb3df62baf32f7 */\n      0x70d869a156d2a1b890bb3df62baf32f7\n        /* \"@pancakeswap/v3-core/contracts/libraries/TickMath.sol\":2977:2982  ratio */\n      dup3\n        /* \"@pancakeswap/v3-core/contracts/libraries/TickMath.sol\":2977:3019  ratio * 0x70d869a156d2a1b890bb3df62baf32f7 */\n      mul\n        /* \"@pancakeswap/v3-core/contracts/libraries/TickMath.sol\":2976:3027  (ratio * 0x70d869a156d2a1b890bb3df62baf32f7) >> 128 */\n      swap1\n      shr\n        /* \"@pancakeswap/v3-core/contracts/libraries/TickMath.sol\":2968:3027  ratio = (ratio * 0x70d869a156d2a1b890bb3df62baf32f7) >> 128 */\n      swap1\n      pop\n        /* \"@pancakeswap/v3-core/contracts/libraries/TickMath.sol\":2941:3027  if (absTick & 0x4000 != 0) ratio = (ratio * 0x70d869a156d2a1b890bb3df62baf32f7) >> 128 */\n    tag_225:\n        /* \"@pancakeswap/v3-core/contracts/libraries/TickMath.sol\":3061:3062  0 */\n      0x00\n        /* \"@pancakeswap/v3-core/contracts/libraries/TickMath.sol\":3051:3057  0x8000 */\n      0x8000\n        /* \"@pancakeswap/v3-core/contracts/libraries/TickMath.sol\":3041:3048  absTick */\n      dup4\n        /* \"@pancakeswap/v3-core/contracts/libraries/TickMath.sol\":3041:3057  absTick & 0x8000 */\n      and\n        /* \"@pancakeswap/v3-core/contracts/libraries/TickMath.sol\":3041:3062  absTick & 0x8000 != 0 */\n      eq\n        /* \"@pancakeswap/v3-core/contracts/libraries/TickMath.sol\":3037:3123  if (absTick & 0x8000 != 0) ratio = (ratio * 0x31be135f97d08fd981231505542fcfa6) >> 128 */\n      tag_226\n      jumpi\n        /* \"@pancakeswap/v3-core/contracts/libraries/TickMath.sol\":3120:3123  128 */\n      0x80\n        /* \"@pancakeswap/v3-core/contracts/libraries/TickMath.sol\":3081:3115  0x31be135f97d08fd981231505542fcfa6 */\n      0x31be135f97d08fd981231505542fcfa6\n        /* \"@pancakeswap/v3-core/contracts/libraries/TickMath.sol\":3073:3078  ratio */\n      dup3\n        /* \"@pancakeswap/v3-core/contracts/libraries/TickMath.sol\":3073:3115  ratio * 0x31be135f97d08fd981231505542fcfa6 */\n      mul\n        /* \"@pancakeswap/v3-core/contracts/libraries/TickMath.sol\":3072:3123  (ratio * 0x31be135f97d08fd981231505542fcfa6) >> 128 */\n      swap1\n      shr\n        /* \"@pancakeswap/v3-core/contracts/libraries/TickMath.sol\":3064:3123  ratio = (ratio * 0x31be135f97d08fd981231505542fcfa6) >> 128 */\n      swap1\n      pop\n        /* \"@pancakeswap/v3-core/contracts/libraries/TickMath.sol\":3037:3123  if (absTick & 0x8000 != 0) ratio = (ratio * 0x31be135f97d08fd981231505542fcfa6) >> 128 */\n    tag_226:\n        /* \"@pancakeswap/v3-core/contracts/libraries/TickMath.sol\":3158:3159  0 */\n      0x00\n        /* \"@pancakeswap/v3-core/contracts/libraries/TickMath.sol\":3147:3154  0x10000 */\n      0x010000\n        /* \"@pancakeswap/v3-core/contracts/libraries/TickMath.sol\":3137:3144  absTick */\n      dup4\n        /* \"@pancakeswap/v3-core/contracts/libraries/TickMath.sol\":3137:3154  absTick & 0x10000 */\n      and\n        /* \"@pancakeswap/v3-core/contracts/libraries/TickMath.sol\":3137:3159  absTick & 0x10000 != 0 */\n      eq\n        /* \"@pancakeswap/v3-core/contracts/libraries/TickMath.sol\":3133:3219  if (absTick & 0x10000 != 0) ratio = (ratio * 0x9aa508b5b7a84e1c677de54f3e99bc9) >> 128 */\n      tag_227\n      jumpi\n        /* \"@pancakeswap/v3-core/contracts/libraries/TickMath.sol\":3216:3219  128 */\n      0x80\n        /* \"@pancakeswap/v3-core/contracts/libraries/TickMath.sol\":3178:3211  0x9aa508b5b7a84e1c677de54f3e99bc9 */\n      0x09aa508b5b7a84e1c677de54f3e99bc9\n        /* \"@pancakeswap/v3-core/contracts/libraries/TickMath.sol\":3170:3175  ratio */\n      dup3\n        /* \"@pancakeswap/v3-core/contracts/libraries/TickMath.sol\":3170:3211  ratio * 0x9aa508b5b7a84e1c677de54f3e99bc9 */\n      mul\n        /* \"@pancakeswap/v3-core/contracts/libraries/TickMath.sol\":3169:3219  (ratio * 0x9aa508b5b7a84e1c677de54f3e99bc9) >> 128 */\n      swap1\n      shr\n        /* \"@pancakeswap/v3-core/contracts/libraries/TickMath.sol\":3161:3219  ratio = (ratio * 0x9aa508b5b7a84e1c677de54f3e99bc9) >> 128 */\n      swap1\n      pop\n        /* \"@pancakeswap/v3-core/contracts/libraries/TickMath.sol\":3133:3219  if (absTick & 0x10000 != 0) ratio = (ratio * 0x9aa508b5b7a84e1c677de54f3e99bc9) >> 128 */\n    tag_227:\n        /* \"@pancakeswap/v3-core/contracts/libraries/TickMath.sol\":3254:3255  0 */\n      0x00\n        /* \"@pancakeswap/v3-core/contracts/libraries/TickMath.sol\":3243:3250  0x20000 */\n      0x020000\n        /* \"@pancakeswap/v3-core/contracts/libraries/TickMath.sol\":3233:3240  absTick */\n      dup4\n        /* \"@pancakeswap/v3-core/contracts/libraries/TickMath.sol\":3233:3250  absTick & 0x20000 */\n      and\n        /* \"@pancakeswap/v3-core/contracts/libraries/TickMath.sol\":3233:3255  absTick & 0x20000 != 0 */\n      eq\n        /* \"@pancakeswap/v3-core/contracts/libraries/TickMath.sol\":3229:3314  if (absTick & 0x20000 != 0) ratio = (ratio * 0x5d6af8dedb81196699c329225ee604) >> 128 */\n      tag_228\n      jumpi\n        /* \"@pancakeswap/v3-core/contracts/libraries/TickMath.sol\":3311:3314  128 */\n      0x80\n        /* \"@pancakeswap/v3-core/contracts/libraries/TickMath.sol\":3274:3306  0x5d6af8dedb81196699c329225ee604 */\n      0x5d6af8dedb81196699c329225ee604\n        /* \"@pancakeswap/v3-core/contracts/libraries/TickMath.sol\":3266:3271  ratio */\n      dup3\n        /* \"@pancakeswap/v3-core/contracts/libraries/TickMath.sol\":3266:3306  ratio * 0x5d6af8dedb81196699c329225ee604 */\n      mul\n        /* \"@pancakeswap/v3-core/contracts/libraries/TickMath.sol\":3265:3314  (ratio * 0x5d6af8dedb81196699c329225ee604) >> 128 */\n      swap1\n      shr\n        /* \"@pancakeswap/v3-core/contracts/libraries/TickMath.sol\":3257:3314  ratio = (ratio * 0x5d6af8dedb81196699c329225ee604) >> 128 */\n      swap1\n      pop\n        /* \"@pancakeswap/v3-core/contracts/libraries/TickMath.sol\":3229:3314  if (absTick & 0x20000 != 0) ratio = (ratio * 0x5d6af8dedb81196699c329225ee604) >> 128 */\n    tag_228:\n        /* \"@pancakeswap/v3-core/contracts/libraries/TickMath.sol\":3349:3350  0 */\n      0x00\n        /* \"@pancakeswap/v3-core/contracts/libraries/TickMath.sol\":3338:3345  0x40000 */\n      0x040000\n        /* \"@pancakeswap/v3-core/contracts/libraries/TickMath.sol\":3328:3335  absTick */\n      dup4\n        /* \"@pancakeswap/v3-core/contracts/libraries/TickMath.sol\":3328:3345  absTick & 0x40000 */\n      and\n        /* \"@pancakeswap/v3-core/contracts/libraries/TickMath.sol\":3328:3350  absTick & 0x40000 != 0 */\n      eq\n        /* \"@pancakeswap/v3-core/contracts/libraries/TickMath.sol\":3324:3407  if (absTick & 0x40000 != 0) ratio = (ratio * 0x2216e584f5fa1ea926041bedfe98) >> 128 */\n      tag_229\n      jumpi\n        /* \"@pancakeswap/v3-core/contracts/libraries/TickMath.sol\":3404:3407  128 */\n      0x80\n        /* \"@pancakeswap/v3-core/contracts/libraries/TickMath.sol\":3369:3399  0x2216e584f5fa1ea926041bedfe98 */\n      0x2216e584f5fa1ea926041bedfe98\n        /* \"@pancakeswap/v3-core/contracts/libraries/TickMath.sol\":3361:3366  ratio */\n      dup3\n        /* \"@pancakeswap/v3-core/contracts/libraries/TickMath.sol\":3361:3399  ratio * 0x2216e584f5fa1ea926041bedfe98 */\n      mul\n        /* \"@pancakeswap/v3-core/contracts/libraries/TickMath.sol\":3360:3407  (ratio * 0x2216e584f5fa1ea926041bedfe98) >> 128 */\n      swap1\n      shr\n        /* \"@pancakeswap/v3-core/contracts/libraries/TickMath.sol\":3352:3407  ratio = (ratio * 0x2216e584f5fa1ea926041bedfe98) >> 128 */\n      swap1\n      pop\n        /* \"@pancakeswap/v3-core/contracts/libraries/TickMath.sol\":3324:3407  if (absTick & 0x40000 != 0) ratio = (ratio * 0x2216e584f5fa1ea926041bedfe98) >> 128 */\n    tag_229:\n        /* \"@pancakeswap/v3-core/contracts/libraries/TickMath.sol\":3442:3443  0 */\n      0x00\n        /* \"@pancakeswap/v3-core/contracts/libraries/TickMath.sol\":3431:3438  0x80000 */\n      0x080000\n        /* \"@pancakeswap/v3-core/contracts/libraries/TickMath.sol\":3421:3428  absTick */\n      dup4\n        /* \"@pancakeswap/v3-core/contracts/libraries/TickMath.sol\":3421:3438  absTick & 0x80000 */\n      and\n        /* \"@pancakeswap/v3-core/contracts/libraries/TickMath.sol\":3421:3443  absTick & 0x80000 != 0 */\n      eq\n        /* \"@pancakeswap/v3-core/contracts/libraries/TickMath.sol\":3417:3495  if (absTick & 0x80000 != 0) ratio = (ratio * 0x48a170391f7dc42444e8fa2) >> 128 */\n      tag_230\n      jumpi\n        /* \"@pancakeswap/v3-core/contracts/libraries/TickMath.sol\":3492:3495  128 */\n      0x80\n        /* \"@pancakeswap/v3-core/contracts/libraries/TickMath.sol\":3462:3487  0x48a170391f7dc42444e8fa2 */\n      0x048a170391f7dc42444e8fa2\n        /* \"@pancakeswap/v3-core/contracts/libraries/TickMath.sol\":3454:3459  ratio */\n      dup3\n        /* \"@pancakeswap/v3-core/contracts/libraries/TickMath.sol\":3454:3487  ratio * 0x48a170391f7dc42444e8fa2 */\n      mul\n        /* \"@pancakeswap/v3-core/contracts/libraries/TickMath.sol\":3453:3495  (ratio * 0x48a170391f7dc42444e8fa2) >> 128 */\n      swap1\n      shr\n        /* \"@pancakeswap/v3-core/contracts/libraries/TickMath.sol\":3445:3495  ratio = (ratio * 0x48a170391f7dc42444e8fa2) >> 128 */\n      swap1\n      pop\n        /* \"@pancakeswap/v3-core/contracts/libraries/TickMath.sol\":3417:3495  if (absTick & 0x80000 != 0) ratio = (ratio * 0x48a170391f7dc42444e8fa2) >> 128 */\n    tag_230:\n        /* \"@pancakeswap/v3-core/contracts/libraries/TickMath.sol\":3517:3518  0 */\n      0x00\n        /* \"@pancakeswap/v3-core/contracts/libraries/TickMath.sol\":3510:3514  tick */\n      dup5\n        /* \"@pancakeswap/v3-core/contracts/libraries/TickMath.sol\":3510:3518  tick > 0 */\n      0x02\n      signextend\n      sgt\n        /* \"@pancakeswap/v3-core/contracts/libraries/TickMath.sol\":3506:3553  if (tick > 0) ratio = type(uint256).max / ratio */\n      iszero\n      tag_231\n      jumpi\n        /* \"@pancakeswap/v3-core/contracts/libraries/TickMath.sol\":3548:3553  ratio */\n      dup1\n        /* \"@pancakeswap/v3-core/contracts/libraries/TickMath.sol\":3528:3545  type(uint256).max */\n      0xffffffffffffffffffffffffffffffffffffffffffffffffffffffffffffffff\n        /* \"@pancakeswap/v3-core/contracts/libraries/TickMath.sol\":3528:3553  type(uint256).max / ratio */\n      dup2\n      tag_232\n      jumpi\n      invalid\n    tag_232:\n      div\n        /* \"@pancakeswap/v3-core/contracts/libraries/TickMath.sol\":3520:3553  ratio = type(uint256).max / ratio */\n      swap1\n      pop\n        /* \"@pancakeswap/v3-core/contracts/libraries/TickMath.sol\":3506:3553  if (tick > 0) ratio = type(uint256).max / ratio */\n    tag_231:\n        /* \"@pancakeswap/v3-core/contracts/libraries/TickMath.sol\":3924:3925  0 */\n      0x00\n        /* \"@pancakeswap/v3-core/contracts/libraries/TickMath.sol\":3912:3919  1 << 32 */\n      0x0100000000\n        /* \"@pancakeswap/v3-core/contracts/libraries/TickMath.sol\":3903:3908  ratio */\n      dup3\n        /* \"@pancakeswap/v3-core/contracts/libraries/TickMath.sol\":3903:3920  ratio % (1 << 32) */\n      dup2\n      tag_233\n      jumpi\n      invalid\n    tag_233:\n      mod\n        /* \"@pancakeswap/v3-core/contracts/libraries/TickMath.sol\":3903:3925  ratio % (1 << 32) == 0 */\n      eq\n        /* \"@pancakeswap/v3-core/contracts/libraries/TickMath.sol\":3903:3933  ratio % (1 << 32) == 0 ? 0 : 1 */\n      tag_234\n      jumpi\n        /* \"@pancakeswap/v3-core/contracts/libraries/TickMath.sol\":3932:3933  1 */\n      0x01\n        /* \"@pancakeswap/v3-core/contracts/libraries/TickMath.sol\":3903:3933  ratio % (1 << 32) == 0 ? 0 : 1 */\n      jump(tag_235)\n    tag_234:\n        /* \"@pancakeswap/v3-core/contracts/libraries/TickMath.sol\":3928:3929  0 */\n      0x00\n        /* \"@pancakeswap/v3-core/contracts/libraries/TickMath.sol\":3903:3933  ratio % (1 << 32) == 0 ? 0 : 1 */\n    tag_235:\n        /* \"@pancakeswap/v3-core/contracts/libraries/TickMath.sol\":3886:3934  (ratio >> 32) + (ratio % (1 << 32) == 0 ? 0 : 1) */\n      0xff\n      and\n        /* \"@pancakeswap/v3-core/contracts/libraries/TickMath.sol\":3896:3898  32 */\n      0x20\n        /* \"@pancakeswap/v3-core/contracts/libraries/TickMath.sol\":3887:3892  ratio */\n      dup3\n        /* \"@pancakeswap/v3-core/contracts/libraries/TickMath.sol\":3887:3898  ratio >> 32 */\n      swap1\n      shr\n        /* \"@pancakeswap/v3-core/contracts/libraries/TickMath.sol\":3886:3934  (ratio >> 32) + (ratio % (1 << 32) == 0 ? 0 : 1) */\n      add\n        /* \"@pancakeswap/v3-core/contracts/libraries/TickMath.sol\":3863:3935  sqrtPriceX96 = uint160((ratio >> 32) + (ratio % (1 << 32) == 0 ? 0 : 1)) */\n      swap3\n      pop\n        /* \"@pancakeswap/v3-core/contracts/libraries/TickMath.sol\":1362:3942  function getSqrtRatioAtTick(int24 tick) internal pure returns (uint160 sqrtPriceX96) {... */\n      pop\n      pop\n      swap2\n      swap1\n      pop\n      jump\t// out\n        /* \"@pancakeswap/v3-core/contracts/libraries/FullMath.sol\":762:4538  function mulDiv(... */\n    tag_197:\n        /* \"@pancakeswap/v3-core/contracts/libraries/FullMath.sol\":874:888  uint256 result */\n      0x00\n        /* \"@pancakeswap/v3-core/contracts/libraries/FullMath.sol\":1203:1216  uint256 prod0 */\n      dup1\n        /* \"@pancakeswap/v3-core/contracts/libraries/FullMath.sol\":1271:1284  uint256 prod1 */\n      0x00\n        /* \"@pancakeswap/v3-core/contracts/libraries/FullMath.sol\":1388:1389  0 */\n      dup1\n        /* \"@pancakeswap/v3-core/contracts/libraries/FullMath.sol\":1384:1390  not(0) */\n      not\n        /* \"@pancakeswap/v3-core/contracts/libraries/FullMath.sol\":1381:1382  b */\n      dup6\n        /* \"@pancakeswap/v3-core/contracts/libraries/FullMath.sol\":1378:1379  a */\n      dup8\n        /* \"@pancakeswap/v3-core/contracts/libraries/FullMath.sol\":1371:1391  mulmod(a, b, not(0)) */\n      mulmod\n        /* \"@pancakeswap/v3-core/contracts/libraries/FullMath.sol\":1420:1421  b */\n      dup6\n        /* \"@pancakeswap/v3-core/contracts/libraries/FullMath.sol\":1417:1418  a */\n      dup8\n        /* \"@pancakeswap/v3-core/contracts/libraries/FullMath.sol\":1413:1422  mul(a, b) */\n      mul\n        /* \"@pancakeswap/v3-core/contracts/libraries/FullMath.sol\":1404:1422  prod0 := mul(a, b) */\n      swap3\n      pop\n        /* \"@pancakeswap/v3-core/contracts/libraries/FullMath.sol\":1471:1476  prod0 */\n      dup3\n        /* \"@pancakeswap/v3-core/contracts/libraries/FullMath.sol\":1467:1469  mm */\n      dup2\n        /* \"@pancakeswap/v3-core/contracts/libraries/FullMath.sol\":1464:1477  lt(mm, prod0) */\n      lt\n        /* \"@pancakeswap/v3-core/contracts/libraries/FullMath.sol\":1456:1461  prod0 */\n      dup4\n        /* \"@pancakeswap/v3-core/contracts/libraries/FullMath.sol\":1452:1454  mm */\n      dup3\n        /* \"@pancakeswap/v3-core/contracts/libraries/FullMath.sol\":1448:1462  sub(mm, prod0) */\n      sub\n        /* \"@pancakeswap/v3-core/contracts/libraries/FullMath.sol\":1444:1478  sub(sub(mm, prod0), lt(mm, prod0)) */\n      sub\n        /* \"@pancakeswap/v3-core/contracts/libraries/FullMath.sol\":1435:1478  prod1 := sub(sub(mm, prod0), lt(mm, prod0)) */\n      swap2\n      pop\n        /* \"@pancakeswap/v3-core/contracts/libraries/FullMath.sol\":1347:1488  {... */\n      pop\n        /* \"@pancakeswap/v3-core/contracts/libraries/FullMath.sol\":1569:1570  0 */\n      0x00\n        /* \"@pancakeswap/v3-core/contracts/libraries/FullMath.sol\":1560:1565  prod1 */\n      dup2\n        /* \"@pancakeswap/v3-core/contracts/libraries/FullMath.sol\":1560:1570  prod1 == 0 */\n      eq\n        /* \"@pancakeswap/v3-core/contracts/libraries/FullMath.sol\":1556:1735  if (prod1 == 0) {... */\n      iszero\n      tag_237\n      jumpi\n        /* \"@pancakeswap/v3-core/contracts/libraries/FullMath.sol\":1608:1609  0 */\n      0x00\n        /* \"@pancakeswap/v3-core/contracts/libraries/FullMath.sol\":1594:1605  denominator */\n      dup5\n        /* \"@pancakeswap/v3-core/contracts/libraries/FullMath.sol\":1594:1609  denominator > 0 */\n      gt\n        /* \"@pancakeswap/v3-core/contracts/libraries/FullMath.sol\":1586:1610  require(denominator > 0) */\n      tag_238\n      jumpi\n      0x00\n      dup1\n      revert\n    tag_238:\n        /* \"@pancakeswap/v3-core/contracts/libraries/FullMath.sol\":1672:1683  denominator */\n      dup4\n        /* \"@pancakeswap/v3-core/contracts/libraries/FullMath.sol\":1665:1670  prod0 */\n      dup3\n        /* \"@pancakeswap/v3-core/contracts/libraries/FullMath.sol\":1661:1684  div(prod0, denominator) */\n      div\n        /* \"@pancakeswap/v3-core/contracts/libraries/FullMath.sol\":1651:1684  result := div(prod0, denominator) */\n      swap3\n      pop\n        /* \"@pancakeswap/v3-core/contracts/libraries/FullMath.sol\":1711:1724  return result */\n      pop\n      pop\n      jump(tag_236)\n        /* \"@pancakeswap/v3-core/contracts/libraries/FullMath.sol\":1556:1735  if (prod1 == 0) {... */\n    tag_237:\n        /* \"@pancakeswap/v3-core/contracts/libraries/FullMath.sol\":1862:1867  prod1 */\n      dup1\n        /* \"@pancakeswap/v3-core/contracts/libraries/FullMath.sol\":1848:1859  denominator */\n      dup5\n        /* \"@pancakeswap/v3-core/contracts/libraries/FullMath.sol\":1848:1867  denominator > prod1 */\n      gt\n        /* \"@pancakeswap/v3-core/contracts/libraries/FullMath.sol\":1840:1868  require(denominator > prod1) */\n      tag_239\n      jumpi\n      0x00\n      dup1\n      revert\n    tag_239:\n        /* \"@pancakeswap/v3-core/contracts/libraries/FullMath.sol\":2145:2162  uint256 remainder */\n      0x00\n        /* \"@pancakeswap/v3-core/contracts/libraries/FullMath.sol\":2221:2232  denominator */\n      dup5\n        /* \"@pancakeswap/v3-core/contracts/libraries/FullMath.sol\":2218:2219  b */\n      dup7\n        /* \"@pancakeswap/v3-core/contracts/libraries/FullMath.sol\":2215:2216  a */\n      dup9\n        /* \"@pancakeswap/v3-core/contracts/libraries/FullMath.sol\":2208:2233  mulmod(a, b, denominator) */\n      mulmod\n        /* \"@pancakeswap/v3-core/contracts/libraries/FullMath.sol\":2195:2233  remainder := mulmod(a, b, denominator) */\n      swap1\n      pop\n        /* \"@pancakeswap/v3-core/contracts/libraries/FullMath.sol\":2364:2369  prod0 */\n      dup3\n        /* \"@pancakeswap/v3-core/contracts/libraries/FullMath.sol\":2353:2362  remainder */\n      dup2\n        /* \"@pancakeswap/v3-core/contracts/libraries/FullMath.sol\":2350:2370  gt(remainder, prod0) */\n      gt\n        /* \"@pancakeswap/v3-core/contracts/libraries/FullMath.sol\":2343:2348  prod1 */\n      dup3\n        /* \"@pancakeswap/v3-core/contracts/libraries/FullMath.sol\":2339:2371  sub(prod1, gt(remainder, prod0)) */\n      sub\n        /* \"@pancakeswap/v3-core/contracts/libraries/FullMath.sol\":2330:2371  prod1 := sub(prod1, gt(remainder, prod0)) */\n      swap2\n      pop\n        /* \"@pancakeswap/v3-core/contracts/libraries/FullMath.sol\":2404:2413  remainder */\n      dup1\n        /* \"@pancakeswap/v3-core/contracts/libraries/FullMath.sol\":2397:2402  prod0 */\n      dup4\n        /* \"@pancakeswap/v3-core/contracts/libraries/FullMath.sol\":2393:2414  sub(prod0, remainder) */\n      sub\n        /* \"@pancakeswap/v3-core/contracts/libraries/FullMath.sol\":2384:2414  prod0 := sub(prod0, remainder) */\n      swap3\n      pop\n        /* \"@pancakeswap/v3-core/contracts/libraries/FullMath.sol\":2573:2585  uint256 twos */\n      0x00\n        /* \"@pancakeswap/v3-core/contracts/libraries/FullMath.sol\":2603:2614  denominator */\n      dup6\n        /* \"@pancakeswap/v3-core/contracts/libraries/FullMath.sol\":2589:2600  denominator */\n      dup7\n        /* \"@pancakeswap/v3-core/contracts/libraries/FullMath.sol\":2588:2600  -denominator */\n      0x00\n      sub\n        /* \"@pancakeswap/v3-core/contracts/libraries/FullMath.sol\":2588:2614  -denominator & denominator */\n      and\n        /* \"@pancakeswap/v3-core/contracts/libraries/FullMath.sol\":2573:2614  uint256 twos = -denominator & denominator */\n      swap1\n      pop\n        /* \"@pancakeswap/v3-core/contracts/libraries/FullMath.sol\":2725:2729  twos */\n      dup1\n        /* \"@pancakeswap/v3-core/contracts/libraries/FullMath.sol\":2712:2723  denominator */\n      dup7\n        /* \"@pancakeswap/v3-core/contracts/libraries/FullMath.sol\":2708:2730  div(denominator, twos) */\n      div\n        /* \"@pancakeswap/v3-core/contracts/libraries/FullMath.sol\":2693:2730  denominator := div(denominator, twos) */\n      swap6\n      pop\n        /* \"@pancakeswap/v3-core/contracts/libraries/FullMath.sol\":2847:2851  twos */\n      dup1\n        /* \"@pancakeswap/v3-core/contracts/libraries/FullMath.sol\":2840:2845  prod0 */\n      dup5\n        /* \"@pancakeswap/v3-core/contracts/libraries/FullMath.sol\":2836:2852  div(prod0, twos) */\n      div\n        /* \"@pancakeswap/v3-core/contracts/libraries/FullMath.sol\":2827:2852  prod0 := div(prod0, twos) */\n      swap4\n      pop\n        /* \"@pancakeswap/v3-core/contracts/libraries/FullMath.sol\":3101:3102  1 */\n      0x01\n        /* \"@pancakeswap/v3-core/contracts/libraries/FullMath.sol\":3094:3098  twos */\n      dup2\n        /* \"@pancakeswap/v3-core/contracts/libraries/FullMath.sol\":3087:3091  twos */\n      dup3\n        /* \"@pancakeswap/v3-core/contracts/libraries/FullMath.sol\":3084:3085  0 */\n      0x00\n        /* \"@pancakeswap/v3-core/contracts/libraries/FullMath.sol\":3080:3092  sub(0, twos) */\n      sub\n        /* \"@pancakeswap/v3-core/contracts/libraries/FullMath.sol\":3076:3099  div(sub(0, twos), twos) */\n      div\n        /* \"@pancakeswap/v3-core/contracts/libraries/FullMath.sol\":3072:3103  add(div(sub(0, twos), twos), 1) */\n      add\n        /* \"@pancakeswap/v3-core/contracts/libraries/FullMath.sol\":3064:3103  twos := add(div(sub(0, twos), twos), 1) */\n      swap1\n      pop\n        /* \"@pancakeswap/v3-core/contracts/libraries/FullMath.sol\":3139:3143  twos */\n      dup1\n        /* \"@pancakeswap/v3-core/contracts/libraries/FullMath.sol\":3131:3136  prod1 */\n      dup4\n        /* \"@pancakeswap/v3-core/contracts/libraries/FullMath.sol\":3131:3143  prod1 * twos */\n      mul\n        /* \"@pancakeswap/v3-core/contracts/libraries/FullMath.sol\":3122:3143  prod0 |= prod1 * twos */\n      dup5\n      or\n      swap4\n      pop\n        /* \"@pancakeswap/v3-core/contracts/libraries/FullMath.sol\":3477:3488  uint256 inv */\n      0x00\n        /* \"@pancakeswap/v3-core/contracts/libraries/FullMath.sol\":3511:3512  2 */\n      0x02\n        /* \"@pancakeswap/v3-core/contracts/libraries/FullMath.sol\":3496:3507  denominator */\n      dup8\n        /* \"@pancakeswap/v3-core/contracts/libraries/FullMath.sol\":3492:3493  3 */\n      0x03\n        /* \"@pancakeswap/v3-core/contracts/libraries/FullMath.sol\":3492:3507  3 * denominator */\n      mul\n        /* \"@pancakeswap/v3-core/contracts/libraries/FullMath.sol\":3491:3512  (3 * denominator) ^ 2 */\n      xor\n        /* \"@pancakeswap/v3-core/contracts/libraries/FullMath.sol\":3477:3512  uint256 inv = (3 * denominator) ^ 2 */\n      swap1\n      pop\n        /* \"@pancakeswap/v3-core/contracts/libraries/FullMath.sol\":3752:3755  inv */\n      dup1\n        /* \"@pancakeswap/v3-core/contracts/libraries/FullMath.sol\":3738:3749  denominator */\n      dup8\n        /* \"@pancakeswap/v3-core/contracts/libraries/FullMath.sol\":3738:3755  denominator * inv */\n      mul\n        /* \"@pancakeswap/v3-core/contracts/libraries/FullMath.sol\":3734:3735  2 */\n      0x02\n        /* \"@pancakeswap/v3-core/contracts/libraries/FullMath.sol\":3734:3755  2 - denominator * inv */\n      sub\n        /* \"@pancakeswap/v3-core/contracts/libraries/FullMath.sol\":3727:3755  inv *= 2 - denominator * inv */\n      dup2\n      mul\n      swap1\n      pop\n        /* \"@pancakeswap/v3-core/contracts/libraries/FullMath.sol\":3810:3813  inv */\n      dup1\n        /* \"@pancakeswap/v3-core/contracts/libraries/FullMath.sol\":3796:3807  denominator */\n      dup8\n        /* \"@pancakeswap/v3-core/contracts/libraries/FullMath.sol\":3796:3813  denominator * inv */\n      mul\n        /* \"@pancakeswap/v3-core/contracts/libraries/FullMath.sol\":3792:3793  2 */\n      0x02\n        /* \"@pancakeswap/v3-core/contracts/libraries/FullMath.sol\":3792:3813  2 - denominator * inv */\n      sub\n        /* \"@pancakeswap/v3-core/contracts/libraries/FullMath.sol\":3785:3813  inv *= 2 - denominator * inv */\n      dup2\n      mul\n      swap1\n      pop\n        /* \"@pancakeswap/v3-core/contracts/libraries/FullMath.sol\":3869:3872  inv */\n      dup1\n        /* \"@pancakeswap/v3-core/contracts/libraries/FullMath.sol\":3855:3866  denominator */\n      dup8\n        /* \"@pancakeswap/v3-core/contracts/libraries/FullMath.sol\":3855:3872  denominator * inv */\n      mul\n        /* \"@pancakeswap/v3-core/contracts/libraries/FullMath.sol\":3851:3852  2 */\n      0x02\n        /* \"@pancakeswap/v3-core/contracts/libraries/FullMath.sol\":3851:3872  2 - denominator * inv */\n      sub\n        /* \"@pancakeswap/v3-core/contracts/libraries/FullMath.sol\":3844:3872  inv *= 2 - denominator * inv */\n      dup2\n      mul\n      swap1\n      pop\n        /* \"@pancakeswap/v3-core/contracts/libraries/FullMath.sol\":3928:3931  inv */\n      dup1\n        /* \"@pancakeswap/v3-core/contracts/libraries/FullMath.sol\":3914:3925  denominator */\n      dup8\n        /* \"@pancakeswap/v3-core/contracts/libraries/FullMath.sol\":3914:3931  denominator * inv */\n      mul\n        /* \"@pancakeswap/v3-core/contracts/libraries/FullMath.sol\":3910:3911  2 */\n      0x02\n        /* \"@pancakeswap/v3-core/contracts/libraries/FullMath.sol\":3910:3931  2 - denominator * inv */\n      sub\n        /* \"@pancakeswap/v3-core/contracts/libraries/FullMath.sol\":3903:3931  inv *= 2 - denominator * inv */\n      dup2\n      mul\n      swap1\n      pop\n        /* \"@pancakeswap/v3-core/contracts/libraries/FullMath.sol\":3987:3990  inv */\n      dup1\n        /* \"@pancakeswap/v3-core/contracts/libraries/FullMath.sol\":3973:3984  denominator */\n      dup8\n        /* \"@pancakeswap/v3-core/contracts/libraries/FullMath.sol\":3973:3990  denominator * inv */\n      mul\n        /* \"@pancakeswap/v3-core/contracts/libraries/FullMath.sol\":3969:3970  2 */\n      0x02\n        /* \"@pancakeswap/v3-core/contracts/libraries/FullMath.sol\":3969:3990  2 - denominator * inv */\n      sub\n        /* \"@pancakeswap/v3-core/contracts/libraries/FullMath.sol\":3962:3990  inv *= 2 - denominator * inv */\n      dup2\n      mul\n      swap1\n      pop\n        /* \"@pancakeswap/v3-core/contracts/libraries/FullMath.sol\":4047:4050  inv */\n      dup1\n        /* \"@pancakeswap/v3-core/contracts/libraries/FullMath.sol\":4033:4044  denominator */\n      dup8\n        /* \"@pancakeswap/v3-core/contracts/libraries/FullMath.sol\":4033:4050  denominator * inv */\n      mul\n        /* \"@pancakeswap/v3-core/contracts/libraries/FullMath.sol\":4029:4030  2 */\n      0x02\n        /* \"@pancakeswap/v3-core/contracts/libraries/FullMath.sol\":4029:4050  2 - denominator * inv */\n      sub\n        /* \"@pancakeswap/v3-core/contracts/libraries/FullMath.sol\":4022:4050  inv *= 2 - denominator * inv */\n      dup2\n      mul\n      swap1\n      pop\n        /* \"@pancakeswap/v3-core/contracts/libraries/FullMath.sol\":4505:4508  inv */\n      dup1\n        /* \"@pancakeswap/v3-core/contracts/libraries/FullMath.sol\":4497:4502  prod0 */\n      dup6\n        /* \"@pancakeswap/v3-core/contracts/libraries/FullMath.sol\":4497:4508  prod0 * inv */\n      mul\n        /* \"@pancakeswap/v3-core/contracts/libraries/FullMath.sol\":4488:4508  result = prod0 * inv */\n      swap6\n      pop\n        /* \"@pancakeswap/v3-core/contracts/libraries/FullMath.sol\":4518:4531  return result */\n      pop\n      pop\n      pop\n      pop\n      pop\n        /* \"@pancakeswap/v3-core/contracts/libraries/FullMath.sol\":762:4538  function mulDiv(... */\n    tag_236:\n      swap4\n      swap3\n      pop\n      pop\n      pop\n      jump\t// out\n\n    auxdata: 0xa2646970667358221220c4f56f60a65b337469b9685be7c364c4290c4534da0fd32ecbba15d14a1b9bb464736f6c63430007060033\n}\n",
				"bytecode": {
					"linkReferences": {},
					"object": "608060405234801561001057600080fd5b5033600260006101000a81548173ffffffffffffffffffffffffffffffffffffffff021916908373ffffffffffffffffffffffffffffffffffffffff16021790555073bb4cdb9cbd36b01bd1cbaebf2de08d9173bc095c6000806101000a81548173ffffffffffffffffffffffffffffffffffffffff021916908373ffffffffffffffffffffffffffffffffffffffff1602179055507355d398326f99059ff775485246999027b3197955600160006101000a81548173ffffffffffffffffffffffffffffffffffffffff021916908373ffffffffffffffffffffffffffffffffffffffff160217905550653691d6afc000600681905550611fb0806101176000396000f3fe60806040526004361061012e5760003560e01c80636c7474da116100ab578063a6f9dae11161006f578063a6f9dae114610693578063c0404fa7146106e4578063d63a6ccd14610736578063e03d163214610777578063f5a6ba2e146107a2578063f74b28c1146108075761025d565b80636c7474da146104e05780636d201e8b14610532578063724ba2c1146105975780638da5cb5b146105c2578063a1c6a405146106035761025d565b8063448883d7116100f2578063448883d7146103c057806349a876e4146103d75780635e59c8ce1461041857806365a6cc2e1461046957806367b51834146104805761025d565b8063026f0dbe1461026257806314b085a41461028f5780632e5bb6ff146102f657806332a6013c146103315780633b907d141461036f5761025d565b3661025d576006543410156101ab576040517f08c379a00000000000000000000000000000000000000000000000000000000081526004018080602001828103825260098152602001807f56616c7565204c6f77000000000000000000000000000000000000000000000081525060200191505060405180910390fd5b6000610202600460003373ffffffffffffffffffffffffffffffffffffffff1673ffffffffffffffffffffffffffffffffffffffff16815260200190815260200160002060009054906101000a900460ff16610832565b905080600560003373ffffffffffffffffffffffffffffffffffffffff1673ffffffffffffffffffffffffffffffffffffffff1681526020019081526020016000208190555060076000815480929190600101919050555050005b600080fd5b34801561026e57600080fd5b50610277610ab8565b60405180821515815260200191505060405180910390f35b34801561029b57600080fd5b506102de600480360360208110156102b257600080fd5b81019080803573ffffffffffffffffffffffffffffffffffffffff169060200190929190505050610b0c565b60405180821515815260200191505060405180910390f35b34801561030257600080fd5b5061032f6004803603602081101561031957600080fd5b8101908080359060200190929190505050610b2c565b005b34801561033d57600080fd5b5061036d6004803603602081101561035457600080fd5b81019080803560ff169060200190929190505050610b90565b005b34801561037b57600080fd5b506103be6004803603602081101561039257600080fd5b81019080803573ffffffffffffffffffffffffffffffffffffffff169060200190929190505050610cc5565b005b3480156103cc57600080fd5b506103d5610d62565b005b3480156103e357600080fd5b506103ec610e9e565b604051808273ffffffffffffffffffffffffffffffffffffffff16815260200191505060405180910390f35b34801561042457600080fd5b506104676004803603602081101561043b57600080fd5b81019080803573ffffffffffffffffffffffffffffffffffffffff169060200190929190505050610ec2565b005b34801561047557600080fd5b5061047e610f60565b005b34801561048c57600080fd5b506104de600480360360408110156104a357600080fd5b81019080803573ffffffffffffffffffffffffffffffffffffffff169060200190929190803562ffffff169060200190929190505050611006565b005b3480156104ec57600080fd5b5061051c6004803603602081101561050357600080fd5b81019080803560ff16906020019092919050505061127e565b6040518082815260200191505060405180910390f35b34801561053e57600080fd5b5061056b6004803603602081101561055557600080fd5b81019080803590602001909291905050506113de565b604051808273ffffffffffffffffffffffffffffffffffffffff16815260200191505060405180910390f35b3480156105a357600080fd5b506105ac61141d565b6040518082815260200191505060405180910390f35b3480156105ce57600080fd5b506105d7611423565b604051808273ffffffffffffffffffffffffffffffffffffffff16815260200191505060405180910390f35b34801561060f57600080fd5b50610618611449565b6040518080602001828103825283818151815260200191508051906020019080838360005b8381101561065857808201518184015260208101905061063d565b50505050905090810190601f1680156106855780820380516001836020036101000a031916815260200191505b509250505060405180910390f35b34801561069f57600080fd5b506106e2600480360360208110156106b657600080fd5b81019080803573ffffffffffffffffffffffffffffffffffffffff169060200190929190505050611519565b005b3480156106f057600080fd5b506107206004803603602081101561070757600080fd5b81019080803560ff1690602001909291905050506115b7565b6040518082815260200191505060405180910390f35b34801561074257600080fd5b5061074b611717565b604051808273ffffffffffffffffffffffffffffffffffffffff16815260200191505060405180910390f35b34801561078357600080fd5b5061078c61173d565b6040518082815260200191505060405180910390f35b3480156107ae57600080fd5b506107f1600480360360208110156107c557600080fd5b81019080803573ffffffffffffffffffffffffffffffffffffffff169060200190929190505050611838565b6040518082815260200191505060405180910390f35b34801561081357600080fd5b5061081c611850565b6040518082815260200191505060405180910390f35b600080600080600090505b6003805490508160ff161015610a2857600060038260ff168154811061085f57fe5b9060005260206000200160009054906101000a900473ffffffffffffffffffffffffffffffffffffffff1673ffffffffffffffffffffffffffffffffffffffff16633850c7bd6040518163ffffffff1660e01b815260040160e06040518083038186803b1580156108cf57600080fd5b505afa1580156108e3573d6000803e3d6000fd5b505050506040513d60e08110156108f957600080fd5b810190808051906020019092919080519060200190929190805190602001909291908051906020019092919080519060200190929190805190602001909291908051906020019092919050505050505050509150506000610a0082670de0b6b3a7640000896109885760008054906101000a900473ffffffffffffffffffffffffffffffffffffffff166109ac565b600160009054906101000a900473ffffffffffffffffffffffffffffffffffffffff165b8a6109d957600160009054906101000a900473ffffffffffffffffffffffffffffffffffffffff166109fb565b60008054906101000a900473ffffffffffffffffffffffffffffffffffffffff165b611862565b90506000811115610a1957808501945083806001019450505b5050808060010191505061083d565b5060008160ff1611610aa2576040517f08c379a000000000000000000000000000000000000000000000000000000000815260040180806020018281038252600e8152602001807f4e6f20707269636520666f756e6400000000000000000000000000000000000081525060200191505060405180910390fd5b8060ff168281610aae57fe5b0492505050919050565b6000600460003373ffffffffffffffffffffffffffffffffffffffff1673ffffffffffffffffffffffffffffffffffffffff16815260200190815260200160002060009054906101000a900460ff16905090565b60046020528060005260406000206000915054906101000a900460ff1681565b600260009054906101000a900473ffffffffffffffffffffffffffffffffffffffff1673ffffffffffffffffffffffffffffffffffffffff163373ffffffffffffffffffffffffffffffffffffffff1614610b8657600080fd5b8060068190555050565b600260009054906101000a900473ffffffffffffffffffffffffffffffffffffffff1673ffffffffffffffffffffffffffffffffffffffff163373ffffffffffffffffffffffffffffffffffffffff1614610bea57600080fd5b600360016003805490500381548110610bff57fe5b9060005260206000200160009054906101000a900473ffffffffffffffffffffffffffffffffffffffff1660038260ff1681548110610c3a57fe5b9060005260206000200160006101000a81548173ffffffffffffffffffffffffffffffffffffffff021916908373ffffffffffffffffffffffffffffffffffffffff1602179055506003805480610c8d57fe5b6001900381819060005260206000200160006101000a81549073ffffffffffffffffffffffffffffffffffffffff0219169055905550565b600260009054906101000a900473ffffffffffffffffffffffffffffffffffffffff1673ffffffffffffffffffffffffffffffffffffffff163373ffffffffffffffffffffffffffffffffffffffff1614610d1f57600080fd5b806000806101000a81548173ffffffffffffffffffffffffffffffffffffffff021916908373ffffffffffffffffffffffffffffffffffffffff16021790555050565b600260009054906101000a900473ffffffffffffffffffffffffffffffffffffffff1673ffffffffffffffffffffffffffffffffffffffff163373ffffffffffffffffffffffffffffffffffffffff1614610dbc57600080fd5b6000471015610e33576040517f08c379a00000000000000000000000000000000000000000000000000000000081526004018080602001828103825260128152602001807f4e6f7420656e6f7567682062616c616e6365000000000000000000000000000081525060200191505060405180910390fd5b600260009054906101000a900473ffffffffffffffffffffffffffffffffffffffff1673ffffffffffffffffffffffffffffffffffffffff166108fc479081150290604051600060405180830381858888f19350505050158015610e9b573d6000803e3d6000fd5b50565b60008054906101000a900473ffffffffffffffffffffffffffffffffffffffff1681565b600260009054906101000a900473ffffffffffffffffffffffffffffffffffffffff1673ffffffffffffffffffffffffffffffffffffffff163373ffffffffffffffffffffffffffffffffffffffff1614610f1c57600080fd5b80600160006101000a81548173ffffffffffffffffffffffffffffffffffffffff021916908373ffffffffffffffffffffffffffffffffffffffff16021790555050565b600460003373ffffffffffffffffffffffffffffffffffffffff1673ffffffffffffffffffffffffffffffffffffffff16815260200190815260200160002060009054906101000a900460ff1615600460003373ffffffffffffffffffffffffffffffffffffffff1673ffffffffffffffffffffffffffffffffffffffff16815260200190815260200160002060006101000a81548160ff021916908315150217905550565b600260009054906101000a900473ffffffffffffffffffffffffffffffffffffffff1673ffffffffffffffffffffffffffffffffffffffff163373ffffffffffffffffffffffffffffffffffffffff161461106057600080fd5b60008273ffffffffffffffffffffffffffffffffffffffff16631698ee82600160009054906101000a900473ffffffffffffffffffffffffffffffffffffffff1660008054906101000a900473ffffffffffffffffffffffffffffffffffffffff16856040518463ffffffff1660e01b8152600401808473ffffffffffffffffffffffffffffffffffffffff1681526020018373ffffffffffffffffffffffffffffffffffffffff1681526020018262ffffff168152602001935050505060206040518083038186803b15801561113657600080fd5b505afa15801561114a573d6000803e3d6000fd5b505050506040513d602081101561116057600080fd5b81019080805190602001909291905050509050600073ffffffffffffffffffffffffffffffffffffffff168173ffffffffffffffffffffffffffffffffffffffff161415611216576040517f08c379a000000000000000000000000000000000000000000000000000000000815260040180806020018281038252600e8152602001807f506f6f6c204e6f7420466f756e6400000000000000000000000000000000000081525060200191505060405180910390fd5b6003819080600181540180825580915050600190039060005260206000200160009091909190916101000a81548173ffffffffffffffffffffffffffffffffffffffff021916908373ffffffffffffffffffffffffffffffffffffffff160217905550505050565b60008060038360ff168154811061129157fe5b9060005260206000200160009054906101000a900473ffffffffffffffffffffffffffffffffffffffff1673ffffffffffffffffffffffffffffffffffffffff16633850c7bd6040518163ffffffff1660e01b815260040160e06040518083038186803b15801561130157600080fd5b505afa158015611315573d6000803e3d6000fd5b505050506040513d60e081101561132b57600080fd5b810190808051906020019092919080519060200190929190805190602001909291908051906020019092919080519060200190929190805190602001909291908051906020019092919050505050505050509150506113d681670de0b6b3a764000060008054906101000a900473ffffffffffffffffffffffffffffffffffffffff16600160009054906101000a900473ffffffffffffffffffffffffffffffffffffffff16611862565b915050919050565b600381815481106113ee57600080fd5b906000526020600020016000915054906101000a900473ffffffffffffffffffffffffffffffffffffffff1681565b60075481565b600260009054906101000a900473ffffffffffffffffffffffffffffffffffffffff1681565b60606000600460003373ffffffffffffffffffffffffffffffffffffffff1673ffffffffffffffffffffffffffffffffffffffff16815260200190815260200160002060009054906101000a900460ff166114d9576040518060400160405280600781526020017f424e425553445400000000000000000000000000000000000000000000000000815250611510565b6040518060400160405280600781526020017f55534454424e42000000000000000000000000000000000000000000000000008152505b90508091505090565b600260009054906101000a900473ffffffffffffffffffffffffffffffffffffffff1673ffffffffffffffffffffffffffffffffffffffff163373ffffffffffffffffffffffffffffffffffffffff161461157357600080fd5b80600260006101000a81548173ffffffffffffffffffffffffffffffffffffffff021916908373ffffffffffffffffffffffffffffffffffffffff16021790555050565b60008060038360ff16815481106115ca57fe5b9060005260206000200160009054906101000a900473ffffffffffffffffffffffffffffffffffffffff1673ffffffffffffffffffffffffffffffffffffffff16633850c7bd6040518163ffffffff1660e01b815260040160e06040518083038186803b15801561163a57600080fd5b505afa15801561164e573d6000803e3d6000fd5b505050506040513d60e081101561166457600080fd5b8101908080519060200190929190805190602001909291908051906020019092919080519060200190929190805190602001909291908051906020019092919080519060200190929190505050505050505091505061170f81670de0b6b3a7640000600160009054906101000a900473ffffffffffffffffffffffffffffffffffffffff1660008054906101000a900473ffffffffffffffffffffffffffffffffffffffff16611862565b915050919050565b600160009054906101000a900473ffffffffffffffffffffffffffffffffffffffff1681565b600080600560003373ffffffffffffffffffffffffffffffffffffffff1673ffffffffffffffffffffffffffffffffffffffff16815260200190815260200160002054116117f3576040517f08c379a000000000000000000000000000000000000000000000000000000000815260040180806020018281038252600f8152602001807f4e6f2073746f726564207072696365000000000000000000000000000000000081525060200191505060405180910390fd5b600560003373ffffffffffffffffffffffffffffffffffffffff1673ffffffffffffffffffffffffffffffffffffffff16815260200190815260200160002054905090565b60056020528060005260406000206000915090505481565b60008060038054905090508091505090565b60008061186e86611a65565b90506fffffffffffffffffffffffffffffffff80168173ffffffffffffffffffffffffffffffffffffffff161161197f5760008173ffffffffffffffffffffffffffffffffffffffff168273ffffffffffffffffffffffffffffffffffffffff160290508373ffffffffffffffffffffffffffffffffffffffff168573ffffffffffffffffffffffffffffffffffffffff16106119405761193b7801000000000000000000000000000000000000000000000000876fffffffffffffffffffffffffffffffff1683611ea0565b611977565b61197681876fffffffffffffffffffffffffffffffff167801000000000000000000000000000000000000000000000000611ea0565b5b925050611a5c565b60006119c18273ffffffffffffffffffffffffffffffffffffffff168373ffffffffffffffffffffffffffffffffffffffff1668010000000000000000611ea0565b90508373ffffffffffffffffffffffffffffffffffffffff168573ffffffffffffffffffffffffffffffffffffffff1610611a2957611a24700100000000000000000000000000000000876fffffffffffffffffffffffffffffffff1683611ea0565b611a58565b611a5781876fffffffffffffffffffffffffffffffff16700100000000000000000000000000000000611ea0565b5b9250505b50949350505050565b60008060008360020b12611a7c578260020b611a84565b8260020b6000035b90507ffffffffffffffffffffffffffffffffffffffffffffffffffffffffffff2761860000360020b811115611b22576040517f08c379a00000000000000000000000000000000000000000000000000000000081526004018080602001828103825260018152602001807f540000000000000000000000000000000000000000000000000000000000000081525060200191505060405180910390fd5b600080600183161415611b4657700100000000000000000000000000000000611b58565b6ffffcb933bd6fad37aa2d162d1a5940015b70ffffffffffffffffffffffffffffffffff16905060006002831614611b925760806ffff97272373d413259a46990580e213a8202901c90505b60006004831614611bb75760806ffff2e50f5f656932ef12357cf3c7fdcc8202901c90505b60006008831614611bdc5760806fffe5caca7e10e4e61c3624eaa0941cd08202901c90505b60006010831614611c015760806fffcb9843d60f6159c9db58835c9266448202901c90505b60006020831614611c265760806fff973b41fa98c081472e6896dfb254c08202901c90505b60006040831614611c4b5760806fff2ea16466c96a3843ec78b326b528618202901c90505b60006080831614611c705760806ffe5dee046a99a2a811c461f1969c30538202901c90505b6000610100831614611c965760806ffcbe86c7900a88aedcffc83b479aa3a48202901c90505b6000610200831614611cbc5760806ff987a7253ac413176f2b074cf7815e548202901c90505b6000610400831614611ce25760806ff3392b0822b70005940c7a398e4b70f38202901c90505b6000610800831614611d085760806fe7159475a2c29b7443b29c7fa6e889d98202901c90505b6000611000831614611d2e5760806fd097f3bdfd2022b8845ad8f792aa58258202901c90505b6000612000831614611d545760806fa9f746462d870fdf8a65dc1f90e061e58202901c90505b6000614000831614611d7a5760806f70d869a156d2a1b890bb3df62baf32f78202901c90505b6000618000831614611da05760806f31be135f97d08fd981231505542fcfa68202901c90505b600062010000831614611dc75760806f09aa508b5b7a84e1c677de54f3e99bc98202901c90505b600062020000831614611ded5760806e5d6af8dedb81196699c329225ee6048202901c90505b600062040000831614611e125760806d2216e584f5fa1ea926041bedfe988202901c90505b600062080000831614611e355760806b048a170391f7dc42444e8fa28202901c90505b60008460020b1315611e6e57807fffffffffffffffffffffffffffffffffffffffffffffffffffffffffffffffff81611e6a57fe5b0490505b60006401000000008281611e7e57fe5b0614611e8b576001611e8e565b60005b60ff16602082901c0192505050919050565b600080600080198587098587029250828110838203039150506000811415611edb5760008411611ecf57600080fd5b83820492505050611f73565b808411611ee757600080fd5b600084868809905082811182039150808303925060008586600003169050808604955080840493506001818260000304019050808302841793506000600287600302189050808702600203810290508087026002038102905080870260020381029050808702600203810290508087026002038102905080870260020381029050808502955050505050505b939250505056fea2646970667358221220c4f56f60a65b337469b9685be7c364c4290c4534da0fd32ecbba15d14a1b9bb464736f6c63430007060033",
					"opcodes": "PUSH1 0x80 PUSH1 0x40 MSTORE CALLVALUE DUP1 ISZERO PUSH2 0x10 JUMPI PUSH1 0x0 DUP1 REVERT JUMPDEST POP CALLER PUSH1 0x2 PUSH1 0x0 PUSH2 0x100 EXP DUP2 SLOAD DUP2 PUSH20 0xFFFFFFFFFFFFFFFFFFFFFFFFFFFFFFFFFFFFFFFF MUL NOT AND SWAP1 DUP4 PUSH20 0xFFFFFFFFFFFFFFFFFFFFFFFFFFFFFFFFFFFFFFFF AND MUL OR SWAP1 SSTORE POP PUSH20 0xBB4CDB9CBD36B01BD1CBAEBF2DE08D9173BC095C PUSH1 0x0 DUP1 PUSH2 0x100 EXP DUP2 SLOAD DUP2 PUSH20 0xFFFFFFFFFFFFFFFFFFFFFFFFFFFFFFFFFFFFFFFF MUL NOT AND SWAP1 DUP4 PUSH20 0xFFFFFFFFFFFFFFFFFFFFFFFFFFFFFFFFFFFFFFFF AND MUL OR SWAP1 SSTORE POP PUSH20 0x55D398326F99059FF775485246999027B3197955 PUSH1 0x1 PUSH1 0x0 PUSH2 0x100 EXP DUP2 SLOAD DUP2 PUSH20 0xFFFFFFFFFFFFFFFFFFFFFFFFFFFFFFFFFFFFFFFF MUL NOT AND SWAP1 DUP4 PUSH20 0xFFFFFFFFFFFFFFFFFFFFFFFFFFFFFFFFFFFFFFFF AND MUL OR SWAP1 SSTORE POP PUSH6 0x3691D6AFC000 PUSH1 0x6 DUP2 SWAP1 SSTORE POP PUSH2 0x1FB0 DUP1 PUSH2 0x117 PUSH1 0x0 CODECOPY PUSH1 0x0 RETURN INVALID PUSH1 0x80 PUSH1 0x40 MSTORE PUSH1 0x4 CALLDATASIZE LT PUSH2 0x12E JUMPI PUSH1 0x0 CALLDATALOAD PUSH1 0xE0 SHR DUP1 PUSH4 0x6C7474DA GT PUSH2 0xAB JUMPI DUP1 PUSH4 0xA6F9DAE1 GT PUSH2 0x6F JUMPI DUP1 PUSH4 0xA6F9DAE1 EQ PUSH2 0x693 JUMPI DUP1 PUSH4 0xC0404FA7 EQ PUSH2 0x6E4 JUMPI DUP1 PUSH4 0xD63A6CCD EQ PUSH2 0x736 JUMPI DUP1 PUSH4 0xE03D1632 EQ PUSH2 0x777 JUMPI DUP1 PUSH4 0xF5A6BA2E EQ PUSH2 0x7A2 JUMPI DUP1 PUSH4 0xF74B28C1 EQ PUSH2 0x807 JUMPI PUSH2 0x25D JUMP JUMPDEST DUP1 PUSH4 0x6C7474DA EQ PUSH2 0x4E0 JUMPI DUP1 PUSH4 0x6D201E8B EQ PUSH2 0x532 JUMPI DUP1 PUSH4 0x724BA2C1 EQ PUSH2 0x597 JUMPI DUP1 PUSH4 0x8DA5CB5B EQ PUSH2 0x5C2 JUMPI DUP1 PUSH4 0xA1C6A405 EQ PUSH2 0x603 JUMPI PUSH2 0x25D JUMP JUMPDEST DUP1 PUSH4 0x448883D7 GT PUSH2 0xF2 JUMPI DUP1 PUSH4 0x448883D7 EQ PUSH2 0x3C0 JUMPI DUP1 PUSH4 0x49A876E4 EQ PUSH2 0x3D7 JUMPI DUP1 PUSH4 0x5E59C8CE EQ PUSH2 0x418 JUMPI DUP1 PUSH4 0x65A6CC2E EQ PUSH2 0x469 JUMPI DUP1 PUSH4 0x67B51834 EQ PUSH2 0x480 JUMPI PUSH2 0x25D JUMP JUMPDEST DUP1 PUSH4 0x26F0DBE EQ PUSH2 0x262 JUMPI DUP1 PUSH4 0x14B085A4 EQ PUSH2 0x28F JUMPI DUP1 PUSH4 0x2E5BB6FF EQ PUSH2 0x2F6 JUMPI DUP1 PUSH4 0x32A6013C EQ PUSH2 0x331 JUMPI DUP1 PUSH4 0x3B907D14 EQ PUSH2 0x36F JUMPI PUSH2 0x25D JUMP JUMPDEST CALLDATASIZE PUSH2 0x25D JUMPI PUSH1 0x6 SLOAD CALLVALUE LT ISZERO PUSH2 0x1AB JUMPI PUSH1 0x40 MLOAD PUSH32 0x8C379A000000000000000000000000000000000000000000000000000000000 DUP2 MSTORE PUSH1 0x4 ADD DUP1 DUP1 PUSH1 0x20 ADD DUP3 DUP2 SUB DUP3 MSTORE PUSH1 0x9 DUP2 MSTORE PUSH1 0x20 ADD DUP1 PUSH32 0x56616C7565204C6F770000000000000000000000000000000000000000000000 DUP2 MSTORE POP PUSH1 0x20 ADD SWAP2 POP POP PUSH1 0x40 MLOAD DUP1 SWAP2 SUB SWAP1 REVERT JUMPDEST PUSH1 0x0 PUSH2 0x202 PUSH1 0x4 PUSH1 0x0 CALLER PUSH20 0xFFFFFFFFFFFFFFFFFFFFFFFFFFFFFFFFFFFFFFFF AND PUSH20 0xFFFFFFFFFFFFFFFFFFFFFFFFFFFFFFFFFFFFFFFF AND DUP2 MSTORE PUSH1 0x20 ADD SWAP1 DUP2 MSTORE PUSH1 0x20 ADD PUSH1 0x0 KECCAK256 PUSH1 0x0 SWAP1 SLOAD SWAP1 PUSH2 0x100 EXP SWAP1 DIV PUSH1 0xFF AND PUSH2 0x832 JUMP JUMPDEST SWAP1 POP DUP1 PUSH1 0x5 PUSH1 0x0 CALLER PUSH20 0xFFFFFFFFFFFFFFFFFFFFFFFFFFFFFFFFFFFFFFFF AND PUSH20 0xFFFFFFFFFFFFFFFFFFFFFFFFFFFFFFFFFFFFFFFF AND DUP2 MSTORE PUSH1 0x20 ADD SWAP1 DUP2 MSTORE PUSH1 0x20 ADD PUSH1 0x0 KECCAK256 DUP2 SWAP1 SSTORE POP PUSH1 0x7 PUSH1 0x0 DUP2 SLOAD DUP1 SWAP3 SWAP2 SWAP1 PUSH1 0x1 ADD SWAP2 SWAP1 POP SSTORE POP POP STOP JUMPDEST PUSH1 0x0 DUP1 REVERT JUMPDEST CALLVALUE DUP1 ISZERO PUSH2 0x26E JUMPI PUSH1 0x0 DUP1 REVERT JUMPDEST POP PUSH2 0x277 PUSH2 0xAB8 JUMP JUMPDEST PUSH1 0x40 MLOAD DUP1 DUP3 ISZERO ISZERO DUP2 MSTORE PUSH1 0x20 ADD SWAP2 POP POP PUSH1 0x40 MLOAD DUP1 SWAP2 SUB SWAP1 RETURN JUMPDEST CALLVALUE DUP1 ISZERO PUSH2 0x29B JUMPI PUSH1 0x0 DUP1 REVERT JUMPDEST POP PUSH2 0x2DE PUSH1 0x4 DUP1 CALLDATASIZE SUB PUSH1 0x20 DUP2 LT ISZERO PUSH2 0x2B2 JUMPI PUSH1 0x0 DUP1 REVERT JUMPDEST DUP2 ADD SWAP1 DUP1 DUP1 CALLDATALOAD PUSH20 0xFFFFFFFFFFFFFFFFFFFFFFFFFFFFFFFFFFFFFFFF AND SWAP1 PUSH1 0x20 ADD SWAP1 SWAP3 SWAP2 SWAP1 POP POP POP PUSH2 0xB0C JUMP JUMPDEST PUSH1 0x40 MLOAD DUP1 DUP3 ISZERO ISZERO DUP2 MSTORE PUSH1 0x20 ADD SWAP2 POP POP PUSH1 0x40 MLOAD DUP1 SWAP2 SUB SWAP1 RETURN JUMPDEST CALLVALUE DUP1 ISZERO PUSH2 0x302 JUMPI PUSH1 0x0 DUP1 REVERT JUMPDEST POP PUSH2 0x32F PUSH1 0x4 DUP1 CALLDATASIZE SUB PUSH1 0x20 DUP2 LT ISZERO PUSH2 0x319 JUMPI PUSH1 0x0 DUP1 REVERT JUMPDEST DUP2 ADD SWAP1 DUP1 DUP1 CALLDATALOAD SWAP1 PUSH1 0x20 ADD SWAP1 SWAP3 SWAP2 SWAP1 POP POP POP PUSH2 0xB2C JUMP JUMPDEST STOP JUMPDEST CALLVALUE DUP1 ISZERO PUSH2 0x33D JUMPI PUSH1 0x0 DUP1 REVERT JUMPDEST POP PUSH2 0x36D PUSH1 0x4 DUP1 CALLDATASIZE SUB PUSH1 0x20 DUP2 LT ISZERO PUSH2 0x354 JUMPI PUSH1 0x0 DUP1 REVERT JUMPDEST DUP2 ADD SWAP1 DUP1 DUP1 CALLDATALOAD PUSH1 0xFF AND SWAP1 PUSH1 0x20 ADD SWAP1 SWAP3 SWAP2 SWAP1 POP POP POP PUSH2 0xB90 JUMP JUMPDEST STOP JUMPDEST CALLVALUE DUP1 ISZERO PUSH2 0x37B JUMPI PUSH1 0x0 DUP1 REVERT JUMPDEST POP PUSH2 0x3BE PUSH1 0x4 DUP1 CALLDATASIZE SUB PUSH1 0x20 DUP2 LT ISZERO PUSH2 0x392 JUMPI PUSH1 0x0 DUP1 REVERT JUMPDEST DUP2 ADD SWAP1 DUP1 DUP1 CALLDATALOAD PUSH20 0xFFFFFFFFFFFFFFFFFFFFFFFFFFFFFFFFFFFFFFFF AND SWAP1 PUSH1 0x20 ADD SWAP1 SWAP3 SWAP2 SWAP1 POP POP POP PUSH2 0xCC5 JUMP JUMPDEST STOP JUMPDEST CALLVALUE DUP1 ISZERO PUSH2 0x3CC JUMPI PUSH1 0x0 DUP1 REVERT JUMPDEST POP PUSH2 0x3D5 PUSH2 0xD62 JUMP JUMPDEST STOP JUMPDEST CALLVALUE DUP1 ISZERO PUSH2 0x3E3 JUMPI PUSH1 0x0 DUP1 REVERT JUMPDEST POP PUSH2 0x3EC PUSH2 0xE9E JUMP JUMPDEST PUSH1 0x40 MLOAD DUP1 DUP3 PUSH20 0xFFFFFFFFFFFFFFFFFFFFFFFFFFFFFFFFFFFFFFFF AND DUP2 MSTORE PUSH1 0x20 ADD SWAP2 POP POP PUSH1 0x40 MLOAD DUP1 SWAP2 SUB SWAP1 RETURN JUMPDEST CALLVALUE DUP1 ISZERO PUSH2 0x424 JUMPI PUSH1 0x0 DUP1 REVERT JUMPDEST POP PUSH2 0x467 PUSH1 0x4 DUP1 CALLDATASIZE SUB PUSH1 0x20 DUP2 LT ISZERO PUSH2 0x43B JUMPI PUSH1 0x0 DUP1 REVERT JUMPDEST DUP2 ADD SWAP1 DUP1 DUP1 CALLDATALOAD PUSH20 0xFFFFFFFFFFFFFFFFFFFFFFFFFFFFFFFFFFFFFFFF AND SWAP1 PUSH1 0x20 ADD SWAP1 SWAP3 SWAP2 SWAP1 POP POP POP PUSH2 0xEC2 JUMP JUMPDEST STOP JUMPDEST CALLVALUE DUP1 ISZERO PUSH2 0x475 JUMPI PUSH1 0x0 DUP1 REVERT JUMPDEST POP PUSH2 0x47E PUSH2 0xF60 JUMP JUMPDEST STOP JUMPDEST CALLVALUE DUP1 ISZERO PUSH2 0x48C JUMPI PUSH1 0x0 DUP1 REVERT JUMPDEST POP PUSH2 0x4DE PUSH1 0x4 DUP1 CALLDATASIZE SUB PUSH1 0x40 DUP2 LT ISZERO PUSH2 0x4A3 JUMPI PUSH1 0x0 DUP1 REVERT JUMPDEST DUP2 ADD SWAP1 DUP1 DUP1 CALLDATALOAD PUSH20 0xFFFFFFFFFFFFFFFFFFFFFFFFFFFFFFFFFFFFFFFF AND SWAP1 PUSH1 0x20 ADD SWAP1 SWAP3 SWAP2 SWAP1 DUP1 CALLDATALOAD PUSH3 0xFFFFFF AND SWAP1 PUSH1 0x20 ADD SWAP1 SWAP3 SWAP2 SWAP1 POP POP POP PUSH2 0x1006 JUMP JUMPDEST STOP JUMPDEST CALLVALUE DUP1 ISZERO PUSH2 0x4EC JUMPI PUSH1 0x0 DUP1 REVERT JUMPDEST POP PUSH2 0x51C PUSH1 0x4 DUP1 CALLDATASIZE SUB PUSH1 0x20 DUP2 LT ISZERO PUSH2 0x503 JUMPI PUSH1 0x0 DUP1 REVERT JUMPDEST DUP2 ADD SWAP1 DUP1 DUP1 CALLDATALOAD PUSH1 0xFF AND SWAP1 PUSH1 0x20 ADD SWAP1 SWAP3 SWAP2 SWAP1 POP POP POP PUSH2 0x127E JUMP JUMPDEST PUSH1 0x40 MLOAD DUP1 DUP3 DUP2 MSTORE PUSH1 0x20 ADD SWAP2 POP POP PUSH1 0x40 MLOAD DUP1 SWAP2 SUB SWAP1 RETURN JUMPDEST CALLVALUE DUP1 ISZERO PUSH2 0x53E JUMPI PUSH1 0x0 DUP1 REVERT JUMPDEST POP PUSH2 0x56B PUSH1 0x4 DUP1 CALLDATASIZE SUB PUSH1 0x20 DUP2 LT ISZERO PUSH2 0x555 JUMPI PUSH1 0x0 DUP1 REVERT JUMPDEST DUP2 ADD SWAP1 DUP1 DUP1 CALLDATALOAD SWAP1 PUSH1 0x20 ADD SWAP1 SWAP3 SWAP2 SWAP1 POP POP POP PUSH2 0x13DE JUMP JUMPDEST PUSH1 0x40 MLOAD DUP1 DUP3 PUSH20 0xFFFFFFFFFFFFFFFFFFFFFFFFFFFFFFFFFFFFFFFF AND DUP2 MSTORE PUSH1 0x20 ADD SWAP2 POP POP PUSH1 0x40 MLOAD DUP1 SWAP2 SUB SWAP1 RETURN JUMPDEST CALLVALUE DUP1 ISZERO PUSH2 0x5A3 JUMPI PUSH1 0x0 DUP1 REVERT JUMPDEST POP PUSH2 0x5AC PUSH2 0x141D JUMP JUMPDEST PUSH1 0x40 MLOAD DUP1 DUP3 DUP2 MSTORE PUSH1 0x20 ADD SWAP2 POP POP PUSH1 0x40 MLOAD DUP1 SWAP2 SUB SWAP1 RETURN JUMPDEST CALLVALUE DUP1 ISZERO PUSH2 0x5CE JUMPI PUSH1 0x0 DUP1 REVERT JUMPDEST POP PUSH2 0x5D7 PUSH2 0x1423 JUMP JUMPDEST PUSH1 0x40 MLOAD DUP1 DUP3 PUSH20 0xFFFFFFFFFFFFFFFFFFFFFFFFFFFFFFFFFFFFFFFF AND DUP2 MSTORE PUSH1 0x20 ADD SWAP2 POP POP PUSH1 0x40 MLOAD DUP1 SWAP2 SUB SWAP1 RETURN JUMPDEST CALLVALUE DUP1 ISZERO PUSH2 0x60F JUMPI PUSH1 0x0 DUP1 REVERT JUMPDEST POP PUSH2 0x618 PUSH2 0x1449 JUMP JUMPDEST PUSH1 0x40 MLOAD DUP1 DUP1 PUSH1 0x20 ADD DUP3 DUP2 SUB DUP3 MSTORE DUP4 DUP2 DUP2 MLOAD DUP2 MSTORE PUSH1 0x20 ADD SWAP2 POP DUP1 MLOAD SWAP1 PUSH1 0x20 ADD SWAP1 DUP1 DUP4 DUP4 PUSH1 0x0 JUMPDEST DUP4 DUP2 LT ISZERO PUSH2 0x658 JUMPI DUP1 DUP3 ADD MLOAD DUP2 DUP5 ADD MSTORE PUSH1 0x20 DUP2 ADD SWAP1 POP PUSH2 0x63D JUMP JUMPDEST POP POP POP POP SWAP1 POP SWAP1 DUP2 ADD SWAP1 PUSH1 0x1F AND DUP1 ISZERO PUSH2 0x685 JUMPI DUP1 DUP3 SUB DUP1 MLOAD PUSH1 0x1 DUP4 PUSH1 0x20 SUB PUSH2 0x100 EXP SUB NOT AND DUP2 MSTORE PUSH1 0x20 ADD SWAP2 POP JUMPDEST POP SWAP3 POP POP POP PUSH1 0x40 MLOAD DUP1 SWAP2 SUB SWAP1 RETURN JUMPDEST CALLVALUE DUP1 ISZERO PUSH2 0x69F JUMPI PUSH1 0x0 DUP1 REVERT JUMPDEST POP PUSH2 0x6E2 PUSH1 0x4 DUP1 CALLDATASIZE SUB PUSH1 0x20 DUP2 LT ISZERO PUSH2 0x6B6 JUMPI PUSH1 0x0 DUP1 REVERT JUMPDEST DUP2 ADD SWAP1 DUP1 DUP1 CALLDATALOAD PUSH20 0xFFFFFFFFFFFFFFFFFFFFFFFFFFFFFFFFFFFFFFFF AND SWAP1 PUSH1 0x20 ADD SWAP1 SWAP3 SWAP2 SWAP1 POP POP POP PUSH2 0x1519 JUMP JUMPDEST STOP JUMPDEST CALLVALUE DUP1 ISZERO PUSH2 0x6F0 JUMPI PUSH1 0x0 DUP1 REVERT JUMPDEST POP PUSH2 0x720 PUSH1 0x4 DUP1 CALLDATASIZE SUB PUSH1 0x20 DUP2 LT ISZERO PUSH2 0x707 JUMPI PUSH1 0x0 DUP1 REVERT JUMPDEST DUP2 ADD SWAP1 DUP1 DUP1 CALLDATALOAD PUSH1 0xFF AND SWAP1 PUSH1 0x20 ADD SWAP1 SWAP3 SWAP2 SWAP1 POP POP POP PUSH2 0x15B7 JUMP JUMPDEST PUSH1 0x40 MLOAD DUP1 DUP3 DUP2 MSTORE PUSH1 0x20 ADD SWAP2 POP POP PUSH1 0x40 MLOAD DUP1 SWAP2 SUB SWAP1 RETURN JUMPDEST CALLVALUE DUP1 ISZERO PUSH2 0x742 JUMPI PUSH1 0x0 DUP1 REVERT JUMPDEST POP PUSH2 0x74B PUSH2 0x1717 JUMP JUMPDEST PUSH1 0x40 MLOAD DUP1 DUP3 PUSH20 0xFFFFFFFFFFFFFFFFFFFFFFFFFFFFFFFFFFFFFFFF AND DUP2 MSTORE PUSH1 0x20 ADD SWAP2 POP POP PUSH1 0x40 MLOAD DUP1 SWAP2 SUB SWAP1 RETURN JUMPDEST CALLVALUE DUP1 ISZERO PUSH2 0x783 JUMPI PUSH1 0x0 DUP1 REVERT JUMPDEST POP PUSH2 0x78C PUSH2 0x173D JUMP JUMPDEST PUSH1 0x40 MLOAD DUP1 DUP3 DUP2 MSTORE PUSH1 0x20 ADD SWAP2 POP POP PUSH1 0x40 MLOAD DUP1 SWAP2 SUB SWAP1 RETURN JUMPDEST CALLVALUE DUP1 ISZERO PUSH2 0x7AE JUMPI PUSH1 0x0 DUP1 REVERT JUMPDEST POP PUSH2 0x7F1 PUSH1 0x4 DUP1 CALLDATASIZE SUB PUSH1 0x20 DUP2 LT ISZERO PUSH2 0x7C5 JUMPI PUSH1 0x0 DUP1 REVERT JUMPDEST DUP2 ADD SWAP1 DUP1 DUP1 CALLDATALOAD PUSH20 0xFFFFFFFFFFFFFFFFFFFFFFFFFFFFFFFFFFFFFFFF AND SWAP1 PUSH1 0x20 ADD SWAP1 SWAP3 SWAP2 SWAP1 POP POP POP PUSH2 0x1838 JUMP JUMPDEST PUSH1 0x40 MLOAD DUP1 DUP3 DUP2 MSTORE PUSH1 0x20 ADD SWAP2 POP POP PUSH1 0x40 MLOAD DUP1 SWAP2 SUB SWAP1 RETURN JUMPDEST CALLVALUE DUP1 ISZERO PUSH2 0x813 JUMPI PUSH1 0x0 DUP1 REVERT JUMPDEST POP PUSH2 0x81C PUSH2 0x1850 JUMP JUMPDEST PUSH1 0x40 MLOAD DUP1 DUP3 DUP2 MSTORE PUSH1 0x20 ADD SWAP2 POP POP PUSH1 0x40 MLOAD DUP1 SWAP2 SUB SWAP1 RETURN JUMPDEST PUSH1 0x0 DUP1 PUSH1 0x0 DUP1 PUSH1 0x0 SWAP1 POP JUMPDEST PUSH1 0x3 DUP1 SLOAD SWAP1 POP DUP2 PUSH1 0xFF AND LT ISZERO PUSH2 0xA28 JUMPI PUSH1 0x0 PUSH1 0x3 DUP3 PUSH1 0xFF AND DUP2 SLOAD DUP2 LT PUSH2 0x85F JUMPI INVALID JUMPDEST SWAP1 PUSH1 0x0 MSTORE PUSH1 0x20 PUSH1 0x0 KECCAK256 ADD PUSH1 0x0 SWAP1 SLOAD SWAP1 PUSH2 0x100 EXP SWAP1 DIV PUSH20 0xFFFFFFFFFFFFFFFFFFFFFFFFFFFFFFFFFFFFFFFF AND PUSH20 0xFFFFFFFFFFFFFFFFFFFFFFFFFFFFFFFFFFFFFFFF AND PUSH4 0x3850C7BD PUSH1 0x40 MLOAD DUP2 PUSH4 0xFFFFFFFF AND PUSH1 0xE0 SHL DUP2 MSTORE PUSH1 0x4 ADD PUSH1 0xE0 PUSH1 0x40 MLOAD DUP1 DUP4 SUB DUP2 DUP7 DUP1 EXTCODESIZE ISZERO DUP1 ISZERO PUSH2 0x8CF JUMPI PUSH1 0x0 DUP1 REVERT JUMPDEST POP GAS STATICCALL ISZERO DUP1 ISZERO PUSH2 0x8E3 JUMPI RETURNDATASIZE PUSH1 0x0 DUP1 RETURNDATACOPY RETURNDATASIZE PUSH1 0x0 REVERT JUMPDEST POP POP POP POP PUSH1 0x40 MLOAD RETURNDATASIZE PUSH1 0xE0 DUP2 LT ISZERO PUSH2 0x8F9 JUMPI PUSH1 0x0 DUP1 REVERT JUMPDEST DUP2 ADD SWAP1 DUP1 DUP1 MLOAD SWAP1 PUSH1 0x20 ADD SWAP1 SWAP3 SWAP2 SWAP1 DUP1 MLOAD SWAP1 PUSH1 0x20 ADD SWAP1 SWAP3 SWAP2 SWAP1 DUP1 MLOAD SWAP1 PUSH1 0x20 ADD SWAP1 SWAP3 SWAP2 SWAP1 DUP1 MLOAD SWAP1 PUSH1 0x20 ADD SWAP1 SWAP3 SWAP2 SWAP1 DUP1 MLOAD SWAP1 PUSH1 0x20 ADD SWAP1 SWAP3 SWAP2 SWAP1 DUP1 MLOAD SWAP1 PUSH1 0x20 ADD SWAP1 SWAP3 SWAP2 SWAP1 DUP1 MLOAD SWAP1 PUSH1 0x20 ADD SWAP1 SWAP3 SWAP2 SWAP1 POP POP POP POP POP POP POP POP SWAP2 POP POP PUSH1 0x0 PUSH2 0xA00 DUP3 PUSH8 0xDE0B6B3A7640000 DUP10 PUSH2 0x988 JUMPI PUSH1 0x0 DUP1 SLOAD SWAP1 PUSH2 0x100 EXP SWAP1 DIV PUSH20 0xFFFFFFFFFFFFFFFFFFFFFFFFFFFFFFFFFFFFFFFF AND PUSH2 0x9AC JUMP JUMPDEST PUSH1 0x1 PUSH1 0x0 SWAP1 SLOAD SWAP1 PUSH2 0x100 EXP SWAP1 DIV PUSH20 0xFFFFFFFFFFFFFFFFFFFFFFFFFFFFFFFFFFFFFFFF AND JUMPDEST DUP11 PUSH2 0x9D9 JUMPI PUSH1 0x1 PUSH1 0x0 SWAP1 SLOAD SWAP1 PUSH2 0x100 EXP SWAP1 DIV PUSH20 0xFFFFFFFFFFFFFFFFFFFFFFFFFFFFFFFFFFFFFFFF AND PUSH2 0x9FB JUMP JUMPDEST PUSH1 0x0 DUP1 SLOAD SWAP1 PUSH2 0x100 EXP SWAP1 DIV PUSH20 0xFFFFFFFFFFFFFFFFFFFFFFFFFFFFFFFFFFFFFFFF AND JUMPDEST PUSH2 0x1862 JUMP JUMPDEST SWAP1 POP PUSH1 0x0 DUP2 GT ISZERO PUSH2 0xA19 JUMPI DUP1 DUP6 ADD SWAP5 POP DUP4 DUP1 PUSH1 0x1 ADD SWAP5 POP POP JUMPDEST POP POP DUP1 DUP1 PUSH1 0x1 ADD SWAP2 POP POP PUSH2 0x83D JUMP JUMPDEST POP PUSH1 0x0 DUP2 PUSH1 0xFF AND GT PUSH2 0xAA2 JUMPI PUSH1 0x40 MLOAD PUSH32 0x8C379A000000000000000000000000000000000000000000000000000000000 DUP2 MSTORE PUSH1 0x4 ADD DUP1 DUP1 PUSH1 0x20 ADD DUP3 DUP2 SUB DUP3 MSTORE PUSH1 0xE DUP2 MSTORE PUSH1 0x20 ADD DUP1 PUSH32 0x4E6F20707269636520666F756E64000000000000000000000000000000000000 DUP2 MSTORE POP PUSH1 0x20 ADD SWAP2 POP POP PUSH1 0x40 MLOAD DUP1 SWAP2 SUB SWAP1 REVERT JUMPDEST DUP1 PUSH1 0xFF AND DUP3 DUP2 PUSH2 0xAAE JUMPI INVALID JUMPDEST DIV SWAP3 POP POP POP SWAP2 SWAP1 POP JUMP JUMPDEST PUSH1 0x0 PUSH1 0x4 PUSH1 0x0 CALLER PUSH20 0xFFFFFFFFFFFFFFFFFFFFFFFFFFFFFFFFFFFFFFFF AND PUSH20 0xFFFFFFFFFFFFFFFFFFFFFFFFFFFFFFFFFFFFFFFF AND DUP2 MSTORE PUSH1 0x20 ADD SWAP1 DUP2 MSTORE PUSH1 0x20 ADD PUSH1 0x0 KECCAK256 PUSH1 0x0 SWAP1 SLOAD SWAP1 PUSH2 0x100 EXP SWAP1 DIV PUSH1 0xFF AND SWAP1 POP SWAP1 JUMP JUMPDEST PUSH1 0x4 PUSH1 0x20 MSTORE DUP1 PUSH1 0x0 MSTORE PUSH1 0x40 PUSH1 0x0 KECCAK256 PUSH1 0x0 SWAP2 POP SLOAD SWAP1 PUSH2 0x100 EXP SWAP1 DIV PUSH1 0xFF AND DUP2 JUMP JUMPDEST PUSH1 0x2 PUSH1 0x0 SWAP1 SLOAD SWAP1 PUSH2 0x100 EXP SWAP1 DIV PUSH20 0xFFFFFFFFFFFFFFFFFFFFFFFFFFFFFFFFFFFFFFFF AND PUSH20 0xFFFFFFFFFFFFFFFFFFFFFFFFFFFFFFFFFFFFFFFF AND CALLER PUSH20 0xFFFFFFFFFFFFFFFFFFFFFFFFFFFFFFFFFFFFFFFF AND EQ PUSH2 0xB86 JUMPI PUSH1 0x0 DUP1 REVERT JUMPDEST DUP1 PUSH1 0x6 DUP2 SWAP1 SSTORE POP POP JUMP JUMPDEST PUSH1 0x2 PUSH1 0x0 SWAP1 SLOAD SWAP1 PUSH2 0x100 EXP SWAP1 DIV PUSH20 0xFFFFFFFFFFFFFFFFFFFFFFFFFFFFFFFFFFFFFFFF AND PUSH20 0xFFFFFFFFFFFFFFFFFFFFFFFFFFFFFFFFFFFFFFFF AND CALLER PUSH20 0xFFFFFFFFFFFFFFFFFFFFFFFFFFFFFFFFFFFFFFFF AND EQ PUSH2 0xBEA JUMPI PUSH1 0x0 DUP1 REVERT JUMPDEST PUSH1 0x3 PUSH1 0x1 PUSH1 0x3 DUP1 SLOAD SWAP1 POP SUB DUP2 SLOAD DUP2 LT PUSH2 0xBFF JUMPI INVALID JUMPDEST SWAP1 PUSH1 0x0 MSTORE PUSH1 0x20 PUSH1 0x0 KECCAK256 ADD PUSH1 0x0 SWAP1 SLOAD SWAP1 PUSH2 0x100 EXP SWAP1 DIV PUSH20 0xFFFFFFFFFFFFFFFFFFFFFFFFFFFFFFFFFFFFFFFF AND PUSH1 0x3 DUP3 PUSH1 0xFF AND DUP2 SLOAD DUP2 LT PUSH2 0xC3A JUMPI INVALID JUMPDEST SWAP1 PUSH1 0x0 MSTORE PUSH1 0x20 PUSH1 0x0 KECCAK256 ADD PUSH1 0x0 PUSH2 0x100 EXP DUP2 SLOAD DUP2 PUSH20 0xFFFFFFFFFFFFFFFFFFFFFFFFFFFFFFFFFFFFFFFF MUL NOT AND SWAP1 DUP4 PUSH20 0xFFFFFFFFFFFFFFFFFFFFFFFFFFFFFFFFFFFFFFFF AND MUL OR SWAP1 SSTORE POP PUSH1 0x3 DUP1 SLOAD DUP1 PUSH2 0xC8D JUMPI INVALID JUMPDEST PUSH1 0x1 SWAP1 SUB DUP2 DUP2 SWAP1 PUSH1 0x0 MSTORE PUSH1 0x20 PUSH1 0x0 KECCAK256 ADD PUSH1 0x0 PUSH2 0x100 EXP DUP2 SLOAD SWAP1 PUSH20 0xFFFFFFFFFFFFFFFFFFFFFFFFFFFFFFFFFFFFFFFF MUL NOT AND SWAP1 SSTORE SWAP1 SSTORE POP JUMP JUMPDEST PUSH1 0x2 PUSH1 0x0 SWAP1 SLOAD SWAP1 PUSH2 0x100 EXP SWAP1 DIV PUSH20 0xFFFFFFFFFFFFFFFFFFFFFFFFFFFFFFFFFFFFFFFF AND PUSH20 0xFFFFFFFFFFFFFFFFFFFFFFFFFFFFFFFFFFFFFFFF AND CALLER PUSH20 0xFFFFFFFFFFFFFFFFFFFFFFFFFFFFFFFFFFFFFFFF AND EQ PUSH2 0xD1F JUMPI PUSH1 0x0 DUP1 REVERT JUMPDEST DUP1 PUSH1 0x0 DUP1 PUSH2 0x100 EXP DUP2 SLOAD DUP2 PUSH20 0xFFFFFFFFFFFFFFFFFFFFFFFFFFFFFFFFFFFFFFFF MUL NOT AND SWAP1 DUP4 PUSH20 0xFFFFFFFFFFFFFFFFFFFFFFFFFFFFFFFFFFFFFFFF AND MUL OR SWAP1 SSTORE POP POP JUMP JUMPDEST PUSH1 0x2 PUSH1 0x0 SWAP1 SLOAD SWAP1 PUSH2 0x100 EXP SWAP1 DIV PUSH20 0xFFFFFFFFFFFFFFFFFFFFFFFFFFFFFFFFFFFFFFFF AND PUSH20 0xFFFFFFFFFFFFFFFFFFFFFFFFFFFFFFFFFFFFFFFF AND CALLER PUSH20 0xFFFFFFFFFFFFFFFFFFFFFFFFFFFFFFFFFFFFFFFF AND EQ PUSH2 0xDBC JUMPI PUSH1 0x0 DUP1 REVERT JUMPDEST PUSH1 0x0 SELFBALANCE LT ISZERO PUSH2 0xE33 JUMPI PUSH1 0x40 MLOAD PUSH32 0x8C379A000000000000000000000000000000000000000000000000000000000 DUP2 MSTORE PUSH1 0x4 ADD DUP1 DUP1 PUSH1 0x20 ADD DUP3 DUP2 SUB DUP3 MSTORE PUSH1 0x12 DUP2 MSTORE PUSH1 0x20 ADD DUP1 PUSH32 0x4E6F7420656E6F7567682062616C616E63650000000000000000000000000000 DUP2 MSTORE POP PUSH1 0x20 ADD SWAP2 POP POP PUSH1 0x40 MLOAD DUP1 SWAP2 SUB SWAP1 REVERT JUMPDEST PUSH1 0x2 PUSH1 0x0 SWAP1 SLOAD SWAP1 PUSH2 0x100 EXP SWAP1 DIV PUSH20 0xFFFFFFFFFFFFFFFFFFFFFFFFFFFFFFFFFFFFFFFF AND PUSH20 0xFFFFFFFFFFFFFFFFFFFFFFFFFFFFFFFFFFFFFFFF AND PUSH2 0x8FC SELFBALANCE SWAP1 DUP2 ISZERO MUL SWAP1 PUSH1 0x40 MLOAD PUSH1 0x0 PUSH1 0x40 MLOAD DUP1 DUP4 SUB DUP2 DUP6 DUP9 DUP9 CALL SWAP4 POP POP POP POP ISZERO DUP1 ISZERO PUSH2 0xE9B JUMPI RETURNDATASIZE PUSH1 0x0 DUP1 RETURNDATACOPY RETURNDATASIZE PUSH1 0x0 REVERT JUMPDEST POP JUMP JUMPDEST PUSH1 0x0 DUP1 SLOAD SWAP1 PUSH2 0x100 EXP SWAP1 DIV PUSH20 0xFFFFFFFFFFFFFFFFFFFFFFFFFFFFFFFFFFFFFFFF AND DUP2 JUMP JUMPDEST PUSH1 0x2 PUSH1 0x0 SWAP1 SLOAD SWAP1 PUSH2 0x100 EXP SWAP1 DIV PUSH20 0xFFFFFFFFFFFFFFFFFFFFFFFFFFFFFFFFFFFFFFFF AND PUSH20 0xFFFFFFFFFFFFFFFFFFFFFFFFFFFFFFFFFFFFFFFF AND CALLER PUSH20 0xFFFFFFFFFFFFFFFFFFFFFFFFFFFFFFFFFFFFFFFF AND EQ PUSH2 0xF1C JUMPI PUSH1 0x0 DUP1 REVERT JUMPDEST DUP1 PUSH1 0x1 PUSH1 0x0 PUSH2 0x100 EXP DUP2 SLOAD DUP2 PUSH20 0xFFFFFFFFFFFFFFFFFFFFFFFFFFFFFFFFFFFFFFFF MUL NOT AND SWAP1 DUP4 PUSH20 0xFFFFFFFFFFFFFFFFFFFFFFFFFFFFFFFFFFFFFFFF AND MUL OR SWAP1 SSTORE POP POP JUMP JUMPDEST PUSH1 0x4 PUSH1 0x0 CALLER PUSH20 0xFFFFFFFFFFFFFFFFFFFFFFFFFFFFFFFFFFFFFFFF AND PUSH20 0xFFFFFFFFFFFFFFFFFFFFFFFFFFFFFFFFFFFFFFFF AND DUP2 MSTORE PUSH1 0x20 ADD SWAP1 DUP2 MSTORE PUSH1 0x20 ADD PUSH1 0x0 KECCAK256 PUSH1 0x0 SWAP1 SLOAD SWAP1 PUSH2 0x100 EXP SWAP1 DIV PUSH1 0xFF AND ISZERO PUSH1 0x4 PUSH1 0x0 CALLER PUSH20 0xFFFFFFFFFFFFFFFFFFFFFFFFFFFFFFFFFFFFFFFF AND PUSH20 0xFFFFFFFFFFFFFFFFFFFFFFFFFFFFFFFFFFFFFFFF AND DUP2 MSTORE PUSH1 0x20 ADD SWAP1 DUP2 MSTORE PUSH1 0x20 ADD PUSH1 0x0 KECCAK256 PUSH1 0x0 PUSH2 0x100 EXP DUP2 SLOAD DUP2 PUSH1 0xFF MUL NOT AND SWAP1 DUP4 ISZERO ISZERO MUL OR SWAP1 SSTORE POP JUMP JUMPDEST PUSH1 0x2 PUSH1 0x0 SWAP1 SLOAD SWAP1 PUSH2 0x100 EXP SWAP1 DIV PUSH20 0xFFFFFFFFFFFFFFFFFFFFFFFFFFFFFFFFFFFFFFFF AND PUSH20 0xFFFFFFFFFFFFFFFFFFFFFFFFFFFFFFFFFFFFFFFF AND CALLER PUSH20 0xFFFFFFFFFFFFFFFFFFFFFFFFFFFFFFFFFFFFFFFF AND EQ PUSH2 0x1060 JUMPI PUSH1 0x0 DUP1 REVERT JUMPDEST PUSH1 0x0 DUP3 PUSH20 0xFFFFFFFFFFFFFFFFFFFFFFFFFFFFFFFFFFFFFFFF AND PUSH4 0x1698EE82 PUSH1 0x1 PUSH1 0x0 SWAP1 SLOAD SWAP1 PUSH2 0x100 EXP SWAP1 DIV PUSH20 0xFFFFFFFFFFFFFFFFFFFFFFFFFFFFFFFFFFFFFFFF AND PUSH1 0x0 DUP1 SLOAD SWAP1 PUSH2 0x100 EXP SWAP1 DIV PUSH20 0xFFFFFFFFFFFFFFFFFFFFFFFFFFFFFFFFFFFFFFFF AND DUP6 PUSH1 0x40 MLOAD DUP5 PUSH4 0xFFFFFFFF AND PUSH1 0xE0 SHL DUP2 MSTORE PUSH1 0x4 ADD DUP1 DUP5 PUSH20 0xFFFFFFFFFFFFFFFFFFFFFFFFFFFFFFFFFFFFFFFF AND DUP2 MSTORE PUSH1 0x20 ADD DUP4 PUSH20 0xFFFFFFFFFFFFFFFFFFFFFFFFFFFFFFFFFFFFFFFF AND DUP2 MSTORE PUSH1 0x20 ADD DUP3 PUSH3 0xFFFFFF AND DUP2 MSTORE PUSH1 0x20 ADD SWAP4 POP POP POP POP PUSH1 0x20 PUSH1 0x40 MLOAD DUP1 DUP4 SUB DUP2 DUP7 DUP1 EXTCODESIZE ISZERO DUP1 ISZERO PUSH2 0x1136 JUMPI PUSH1 0x0 DUP1 REVERT JUMPDEST POP GAS STATICCALL ISZERO DUP1 ISZERO PUSH2 0x114A JUMPI RETURNDATASIZE PUSH1 0x0 DUP1 RETURNDATACOPY RETURNDATASIZE PUSH1 0x0 REVERT JUMPDEST POP POP POP POP PUSH1 0x40 MLOAD RETURNDATASIZE PUSH1 0x20 DUP2 LT ISZERO PUSH2 0x1160 JUMPI PUSH1 0x0 DUP1 REVERT JUMPDEST DUP2 ADD SWAP1 DUP1 DUP1 MLOAD SWAP1 PUSH1 0x20 ADD SWAP1 SWAP3 SWAP2 SWAP1 POP POP POP SWAP1 POP PUSH1 0x0 PUSH20 0xFFFFFFFFFFFFFFFFFFFFFFFFFFFFFFFFFFFFFFFF AND DUP2 PUSH20 0xFFFFFFFFFFFFFFFFFFFFFFFFFFFFFFFFFFFFFFFF AND EQ ISZERO PUSH2 0x1216 JUMPI PUSH1 0x40 MLOAD PUSH32 0x8C379A000000000000000000000000000000000000000000000000000000000 DUP2 MSTORE PUSH1 0x4 ADD DUP1 DUP1 PUSH1 0x20 ADD DUP3 DUP2 SUB DUP3 MSTORE PUSH1 0xE DUP2 MSTORE PUSH1 0x20 ADD DUP1 PUSH32 0x506F6F6C204E6F7420466F756E64000000000000000000000000000000000000 DUP2 MSTORE POP PUSH1 0x20 ADD SWAP2 POP POP PUSH1 0x40 MLOAD DUP1 SWAP2 SUB SWAP1 REVERT JUMPDEST PUSH1 0x3 DUP2 SWAP1 DUP1 PUSH1 0x1 DUP2 SLOAD ADD DUP1 DUP3 SSTORE DUP1 SWAP2 POP POP PUSH1 0x1 SWAP1 SUB SWAP1 PUSH1 0x0 MSTORE PUSH1 0x20 PUSH1 0x0 KECCAK256 ADD PUSH1 0x0 SWAP1 SWAP2 SWAP1 SWAP2 SWAP1 SWAP2 PUSH2 0x100 EXP DUP2 SLOAD DUP2 PUSH20 0xFFFFFFFFFFFFFFFFFFFFFFFFFFFFFFFFFFFFFFFF MUL NOT AND SWAP1 DUP4 PUSH20 0xFFFFFFFFFFFFFFFFFFFFFFFFFFFFFFFFFFFFFFFF AND MUL OR SWAP1 SSTORE POP POP POP POP JUMP JUMPDEST PUSH1 0x0 DUP1 PUSH1 0x3 DUP4 PUSH1 0xFF AND DUP2 SLOAD DUP2 LT PUSH2 0x1291 JUMPI INVALID JUMPDEST SWAP1 PUSH1 0x0 MSTORE PUSH1 0x20 PUSH1 0x0 KECCAK256 ADD PUSH1 0x0 SWAP1 SLOAD SWAP1 PUSH2 0x100 EXP SWAP1 DIV PUSH20 0xFFFFFFFFFFFFFFFFFFFFFFFFFFFFFFFFFFFFFFFF AND PUSH20 0xFFFFFFFFFFFFFFFFFFFFFFFFFFFFFFFFFFFFFFFF AND PUSH4 0x3850C7BD PUSH1 0x40 MLOAD DUP2 PUSH4 0xFFFFFFFF AND PUSH1 0xE0 SHL DUP2 MSTORE PUSH1 0x4 ADD PUSH1 0xE0 PUSH1 0x40 MLOAD DUP1 DUP4 SUB DUP2 DUP7 DUP1 EXTCODESIZE ISZERO DUP1 ISZERO PUSH2 0x1301 JUMPI PUSH1 0x0 DUP1 REVERT JUMPDEST POP GAS STATICCALL ISZERO DUP1 ISZERO PUSH2 0x1315 JUMPI RETURNDATASIZE PUSH1 0x0 DUP1 RETURNDATACOPY RETURNDATASIZE PUSH1 0x0 REVERT JUMPDEST POP POP POP POP PUSH1 0x40 MLOAD RETURNDATASIZE PUSH1 0xE0 DUP2 LT ISZERO PUSH2 0x132B JUMPI PUSH1 0x0 DUP1 REVERT JUMPDEST DUP2 ADD SWAP1 DUP1 DUP1 MLOAD SWAP1 PUSH1 0x20 ADD SWAP1 SWAP3 SWAP2 SWAP1 DUP1 MLOAD SWAP1 PUSH1 0x20 ADD SWAP1 SWAP3 SWAP2 SWAP1 DUP1 MLOAD SWAP1 PUSH1 0x20 ADD SWAP1 SWAP3 SWAP2 SWAP1 DUP1 MLOAD SWAP1 PUSH1 0x20 ADD SWAP1 SWAP3 SWAP2 SWAP1 DUP1 MLOAD SWAP1 PUSH1 0x20 ADD SWAP1 SWAP3 SWAP2 SWAP1 DUP1 MLOAD SWAP1 PUSH1 0x20 ADD SWAP1 SWAP3 SWAP2 SWAP1 DUP1 MLOAD SWAP1 PUSH1 0x20 ADD SWAP1 SWAP3 SWAP2 SWAP1 POP POP POP POP POP POP POP POP SWAP2 POP POP PUSH2 0x13D6 DUP2 PUSH8 0xDE0B6B3A7640000 PUSH1 0x0 DUP1 SLOAD SWAP1 PUSH2 0x100 EXP SWAP1 DIV PUSH20 0xFFFFFFFFFFFFFFFFFFFFFFFFFFFFFFFFFFFFFFFF AND PUSH1 0x1 PUSH1 0x0 SWAP1 SLOAD SWAP1 PUSH2 0x100 EXP SWAP1 DIV PUSH20 0xFFFFFFFFFFFFFFFFFFFFFFFFFFFFFFFFFFFFFFFF AND PUSH2 0x1862 JUMP JUMPDEST SWAP2 POP POP SWAP2 SWAP1 POP JUMP JUMPDEST PUSH1 0x3 DUP2 DUP2 SLOAD DUP2 LT PUSH2 0x13EE JUMPI PUSH1 0x0 DUP1 REVERT JUMPDEST SWAP1 PUSH1 0x0 MSTORE PUSH1 0x20 PUSH1 0x0 KECCAK256 ADD PUSH1 0x0 SWAP2 POP SLOAD SWAP1 PUSH2 0x100 EXP SWAP1 DIV PUSH20 0xFFFFFFFFFFFFFFFFFFFFFFFFFFFFFFFFFFFFFFFF AND DUP2 JUMP JUMPDEST PUSH1 0x7 SLOAD DUP2 JUMP JUMPDEST PUSH1 0x2 PUSH1 0x0 SWAP1 SLOAD SWAP1 PUSH2 0x100 EXP SWAP1 DIV PUSH20 0xFFFFFFFFFFFFFFFFFFFFFFFFFFFFFFFFFFFFFFFF AND DUP2 JUMP JUMPDEST PUSH1 0x60 PUSH1 0x0 PUSH1 0x4 PUSH1 0x0 CALLER PUSH20 0xFFFFFFFFFFFFFFFFFFFFFFFFFFFFFFFFFFFFFFFF AND PUSH20 0xFFFFFFFFFFFFFFFFFFFFFFFFFFFFFFFFFFFFFFFF AND DUP2 MSTORE PUSH1 0x20 ADD SWAP1 DUP2 MSTORE PUSH1 0x20 ADD PUSH1 0x0 KECCAK256 PUSH1 0x0 SWAP1 SLOAD SWAP1 PUSH2 0x100 EXP SWAP1 DIV PUSH1 0xFF AND PUSH2 0x14D9 JUMPI PUSH1 0x40 MLOAD DUP1 PUSH1 0x40 ADD PUSH1 0x40 MSTORE DUP1 PUSH1 0x7 DUP2 MSTORE PUSH1 0x20 ADD PUSH32 0x424E425553445400000000000000000000000000000000000000000000000000 DUP2 MSTORE POP PUSH2 0x1510 JUMP JUMPDEST PUSH1 0x40 MLOAD DUP1 PUSH1 0x40 ADD PUSH1 0x40 MSTORE DUP1 PUSH1 0x7 DUP2 MSTORE PUSH1 0x20 ADD PUSH32 0x55534454424E4200000000000000000000000000000000000000000000000000 DUP2 MSTORE POP JUMPDEST SWAP1 POP DUP1 SWAP2 POP POP SWAP1 JUMP JUMPDEST PUSH1 0x2 PUSH1 0x0 SWAP1 SLOAD SWAP1 PUSH2 0x100 EXP SWAP1 DIV PUSH20 0xFFFFFFFFFFFFFFFFFFFFFFFFFFFFFFFFFFFFFFFF AND PUSH20 0xFFFFFFFFFFFFFFFFFFFFFFFFFFFFFFFFFFFFFFFF AND CALLER PUSH20 0xFFFFFFFFFFFFFFFFFFFFFFFFFFFFFFFFFFFFFFFF AND EQ PUSH2 0x1573 JUMPI PUSH1 0x0 DUP1 REVERT JUMPDEST DUP1 PUSH1 0x2 PUSH1 0x0 PUSH2 0x100 EXP DUP2 SLOAD DUP2 PUSH20 0xFFFFFFFFFFFFFFFFFFFFFFFFFFFFFFFFFFFFFFFF MUL NOT AND SWAP1 DUP4 PUSH20 0xFFFFFFFFFFFFFFFFFFFFFFFFFFFFFFFFFFFFFFFF AND MUL OR SWAP1 SSTORE POP POP JUMP JUMPDEST PUSH1 0x0 DUP1 PUSH1 0x3 DUP4 PUSH1 0xFF AND DUP2 SLOAD DUP2 LT PUSH2 0x15CA JUMPI INVALID JUMPDEST SWAP1 PUSH1 0x0 MSTORE PUSH1 0x20 PUSH1 0x0 KECCAK256 ADD PUSH1 0x0 SWAP1 SLOAD SWAP1 PUSH2 0x100 EXP SWAP1 DIV PUSH20 0xFFFFFFFFFFFFFFFFFFFFFFFFFFFFFFFFFFFFFFFF AND PUSH20 0xFFFFFFFFFFFFFFFFFFFFFFFFFFFFFFFFFFFFFFFF AND PUSH4 0x3850C7BD PUSH1 0x40 MLOAD DUP2 PUSH4 0xFFFFFFFF AND PUSH1 0xE0 SHL DUP2 MSTORE PUSH1 0x4 ADD PUSH1 0xE0 PUSH1 0x40 MLOAD DUP1 DUP4 SUB DUP2 DUP7 DUP1 EXTCODESIZE ISZERO DUP1 ISZERO PUSH2 0x163A JUMPI PUSH1 0x0 DUP1 REVERT JUMPDEST POP GAS STATICCALL ISZERO DUP1 ISZERO PUSH2 0x164E JUMPI RETURNDATASIZE PUSH1 0x0 DUP1 RETURNDATACOPY RETURNDATASIZE PUSH1 0x0 REVERT JUMPDEST POP POP POP POP PUSH1 0x40 MLOAD RETURNDATASIZE PUSH1 0xE0 DUP2 LT ISZERO PUSH2 0x1664 JUMPI PUSH1 0x0 DUP1 REVERT JUMPDEST DUP2 ADD SWAP1 DUP1 DUP1 MLOAD SWAP1 PUSH1 0x20 ADD SWAP1 SWAP3 SWAP2 SWAP1 DUP1 MLOAD SWAP1 PUSH1 0x20 ADD SWAP1 SWAP3 SWAP2 SWAP1 DUP1 MLOAD SWAP1 PUSH1 0x20 ADD SWAP1 SWAP3 SWAP2 SWAP1 DUP1 MLOAD SWAP1 PUSH1 0x20 ADD SWAP1 SWAP3 SWAP2 SWAP1 DUP1 MLOAD SWAP1 PUSH1 0x20 ADD SWAP1 SWAP3 SWAP2 SWAP1 DUP1 MLOAD SWAP1 PUSH1 0x20 ADD SWAP1 SWAP3 SWAP2 SWAP1 DUP1 MLOAD SWAP1 PUSH1 0x20 ADD SWAP1 SWAP3 SWAP2 SWAP1 POP POP POP POP POP POP POP POP SWAP2 POP POP PUSH2 0x170F DUP2 PUSH8 0xDE0B6B3A7640000 PUSH1 0x1 PUSH1 0x0 SWAP1 SLOAD SWAP1 PUSH2 0x100 EXP SWAP1 DIV PUSH20 0xFFFFFFFFFFFFFFFFFFFFFFFFFFFFFFFFFFFFFFFF AND PUSH1 0x0 DUP1 SLOAD SWAP1 PUSH2 0x100 EXP SWAP1 DIV PUSH20 0xFFFFFFFFFFFFFFFFFFFFFFFFFFFFFFFFFFFFFFFF AND PUSH2 0x1862 JUMP JUMPDEST SWAP2 POP POP SWAP2 SWAP1 POP JUMP JUMPDEST PUSH1 0x1 PUSH1 0x0 SWAP1 SLOAD SWAP1 PUSH2 0x100 EXP SWAP1 DIV PUSH20 0xFFFFFFFFFFFFFFFFFFFFFFFFFFFFFFFFFFFFFFFF AND DUP2 JUMP JUMPDEST PUSH1 0x0 DUP1 PUSH1 0x5 PUSH1 0x0 CALLER PUSH20 0xFFFFFFFFFFFFFFFFFFFFFFFFFFFFFFFFFFFFFFFF AND PUSH20 0xFFFFFFFFFFFFFFFFFFFFFFFFFFFFFFFFFFFFFFFF AND DUP2 MSTORE PUSH1 0x20 ADD SWAP1 DUP2 MSTORE PUSH1 0x20 ADD PUSH1 0x0 KECCAK256 SLOAD GT PUSH2 0x17F3 JUMPI PUSH1 0x40 MLOAD PUSH32 0x8C379A000000000000000000000000000000000000000000000000000000000 DUP2 MSTORE PUSH1 0x4 ADD DUP1 DUP1 PUSH1 0x20 ADD DUP3 DUP2 SUB DUP3 MSTORE PUSH1 0xF DUP2 MSTORE PUSH1 0x20 ADD DUP1 PUSH32 0x4E6F2073746F7265642070726963650000000000000000000000000000000000 DUP2 MSTORE POP PUSH1 0x20 ADD SWAP2 POP POP PUSH1 0x40 MLOAD DUP1 SWAP2 SUB SWAP1 REVERT JUMPDEST PUSH1 0x5 PUSH1 0x0 CALLER PUSH20 0xFFFFFFFFFFFFFFFFFFFFFFFFFFFFFFFFFFFFFFFF AND PUSH20 0xFFFFFFFFFFFFFFFFFFFFFFFFFFFFFFFFFFFFFFFF AND DUP2 MSTORE PUSH1 0x20 ADD SWAP1 DUP2 MSTORE PUSH1 0x20 ADD PUSH1 0x0 KECCAK256 SLOAD SWAP1 POP SWAP1 JUMP JUMPDEST PUSH1 0x5 PUSH1 0x20 MSTORE DUP1 PUSH1 0x0 MSTORE PUSH1 0x40 PUSH1 0x0 KECCAK256 PUSH1 0x0 SWAP2 POP SWAP1 POP SLOAD DUP2 JUMP JUMPDEST PUSH1 0x0 DUP1 PUSH1 0x3 DUP1 SLOAD SWAP1 POP SWAP1 POP DUP1 SWAP2 POP POP SWAP1 JUMP JUMPDEST PUSH1 0x0 DUP1 PUSH2 0x186E DUP7 PUSH2 0x1A65 JUMP JUMPDEST SWAP1 POP PUSH16 0xFFFFFFFFFFFFFFFFFFFFFFFFFFFFFFFF DUP1 AND DUP2 PUSH20 0xFFFFFFFFFFFFFFFFFFFFFFFFFFFFFFFFFFFFFFFF AND GT PUSH2 0x197F JUMPI PUSH1 0x0 DUP2 PUSH20 0xFFFFFFFFFFFFFFFFFFFFFFFFFFFFFFFFFFFFFFFF AND DUP3 PUSH20 0xFFFFFFFFFFFFFFFFFFFFFFFFFFFFFFFFFFFFFFFF AND MUL SWAP1 POP DUP4 PUSH20 0xFFFFFFFFFFFFFFFFFFFFFFFFFFFFFFFFFFFFFFFF AND DUP6 PUSH20 0xFFFFFFFFFFFFFFFFFFFFFFFFFFFFFFFFFFFFFFFF AND LT PUSH2 0x1940 JUMPI PUSH2 0x193B PUSH25 0x1000000000000000000000000000000000000000000000000 DUP8 PUSH16 0xFFFFFFFFFFFFFFFFFFFFFFFFFFFFFFFF AND DUP4 PUSH2 0x1EA0 JUMP JUMPDEST PUSH2 0x1977 JUMP JUMPDEST PUSH2 0x1976 DUP2 DUP8 PUSH16 0xFFFFFFFFFFFFFFFFFFFFFFFFFFFFFFFF AND PUSH25 0x1000000000000000000000000000000000000000000000000 PUSH2 0x1EA0 JUMP JUMPDEST JUMPDEST SWAP3 POP POP PUSH2 0x1A5C JUMP JUMPDEST PUSH1 0x0 PUSH2 0x19C1 DUP3 PUSH20 0xFFFFFFFFFFFFFFFFFFFFFFFFFFFFFFFFFFFFFFFF AND DUP4 PUSH20 0xFFFFFFFFFFFFFFFFFFFFFFFFFFFFFFFFFFFFFFFF AND PUSH9 0x10000000000000000 PUSH2 0x1EA0 JUMP JUMPDEST SWAP1 POP DUP4 PUSH20 0xFFFFFFFFFFFFFFFFFFFFFFFFFFFFFFFFFFFFFFFF AND DUP6 PUSH20 0xFFFFFFFFFFFFFFFFFFFFFFFFFFFFFFFFFFFFFFFF AND LT PUSH2 0x1A29 JUMPI PUSH2 0x1A24 PUSH17 0x100000000000000000000000000000000 DUP8 PUSH16 0xFFFFFFFFFFFFFFFFFFFFFFFFFFFFFFFF AND DUP4 PUSH2 0x1EA0 JUMP JUMPDEST PUSH2 0x1A58 JUMP JUMPDEST PUSH2 0x1A57 DUP2 DUP8 PUSH16 0xFFFFFFFFFFFFFFFFFFFFFFFFFFFFFFFF AND PUSH17 0x100000000000000000000000000000000 PUSH2 0x1EA0 JUMP JUMPDEST JUMPDEST SWAP3 POP POP JUMPDEST POP SWAP5 SWAP4 POP POP POP POP JUMP JUMPDEST PUSH1 0x0 DUP1 PUSH1 0x0 DUP4 PUSH1 0x2 SIGNEXTEND SLT PUSH2 0x1A7C JUMPI DUP3 PUSH1 0x2 SIGNEXTEND PUSH2 0x1A84 JUMP JUMPDEST DUP3 PUSH1 0x2 SIGNEXTEND PUSH1 0x0 SUB JUMPDEST SWAP1 POP PUSH32 0xFFFFFFFFFFFFFFFFFFFFFFFFFFFFFFFFFFFFFFFFFFFFFFFFFFFFFFFFFFF27618 PUSH1 0x0 SUB PUSH1 0x2 SIGNEXTEND DUP2 GT ISZERO PUSH2 0x1B22 JUMPI PUSH1 0x40 MLOAD PUSH32 0x8C379A000000000000000000000000000000000000000000000000000000000 DUP2 MSTORE PUSH1 0x4 ADD DUP1 DUP1 PUSH1 0x20 ADD DUP3 DUP2 SUB DUP3 MSTORE PUSH1 0x1 DUP2 MSTORE PUSH1 0x20 ADD DUP1 PUSH32 0x5400000000000000000000000000000000000000000000000000000000000000 DUP2 MSTORE POP PUSH1 0x20 ADD SWAP2 POP POP PUSH1 0x40 MLOAD DUP1 SWAP2 SUB SWAP1 REVERT JUMPDEST PUSH1 0x0 DUP1 PUSH1 0x1 DUP4 AND EQ ISZERO PUSH2 0x1B46 JUMPI PUSH17 0x100000000000000000000000000000000 PUSH2 0x1B58 JUMP JUMPDEST PUSH16 0xFFFCB933BD6FAD37AA2D162D1A594001 JUMPDEST PUSH17 0xFFFFFFFFFFFFFFFFFFFFFFFFFFFFFFFFFF AND SWAP1 POP PUSH1 0x0 PUSH1 0x2 DUP4 AND EQ PUSH2 0x1B92 JUMPI PUSH1 0x80 PUSH16 0xFFF97272373D413259A46990580E213A DUP3 MUL SWAP1 SHR SWAP1 POP JUMPDEST PUSH1 0x0 PUSH1 0x4 DUP4 AND EQ PUSH2 0x1BB7 JUMPI PUSH1 0x80 PUSH16 0xFFF2E50F5F656932EF12357CF3C7FDCC DUP3 MUL SWAP1 SHR SWAP1 POP JUMPDEST PUSH1 0x0 PUSH1 0x8 DUP4 AND EQ PUSH2 0x1BDC JUMPI PUSH1 0x80 PUSH16 0xFFE5CACA7E10E4E61C3624EAA0941CD0 DUP3 MUL SWAP1 SHR SWAP1 POP JUMPDEST PUSH1 0x0 PUSH1 0x10 DUP4 AND EQ PUSH2 0x1C01 JUMPI PUSH1 0x80 PUSH16 0xFFCB9843D60F6159C9DB58835C926644 DUP3 MUL SWAP1 SHR SWAP1 POP JUMPDEST PUSH1 0x0 PUSH1 0x20 DUP4 AND EQ PUSH2 0x1C26 JUMPI PUSH1 0x80 PUSH16 0xFF973B41FA98C081472E6896DFB254C0 DUP3 MUL SWAP1 SHR SWAP1 POP JUMPDEST PUSH1 0x0 PUSH1 0x40 DUP4 AND EQ PUSH2 0x1C4B JUMPI PUSH1 0x80 PUSH16 0xFF2EA16466C96A3843EC78B326B52861 DUP3 MUL SWAP1 SHR SWAP1 POP JUMPDEST PUSH1 0x0 PUSH1 0x80 DUP4 AND EQ PUSH2 0x1C70 JUMPI PUSH1 0x80 PUSH16 0xFE5DEE046A99A2A811C461F1969C3053 DUP3 MUL SWAP1 SHR SWAP1 POP JUMPDEST PUSH1 0x0 PUSH2 0x100 DUP4 AND EQ PUSH2 0x1C96 JUMPI PUSH1 0x80 PUSH16 0xFCBE86C7900A88AEDCFFC83B479AA3A4 DUP3 MUL SWAP1 SHR SWAP1 POP JUMPDEST PUSH1 0x0 PUSH2 0x200 DUP4 AND EQ PUSH2 0x1CBC JUMPI PUSH1 0x80 PUSH16 0xF987A7253AC413176F2B074CF7815E54 DUP3 MUL SWAP1 SHR SWAP1 POP JUMPDEST PUSH1 0x0 PUSH2 0x400 DUP4 AND EQ PUSH2 0x1CE2 JUMPI PUSH1 0x80 PUSH16 0xF3392B0822B70005940C7A398E4B70F3 DUP3 MUL SWAP1 SHR SWAP1 POP JUMPDEST PUSH1 0x0 PUSH2 0x800 DUP4 AND EQ PUSH2 0x1D08 JUMPI PUSH1 0x80 PUSH16 0xE7159475A2C29B7443B29C7FA6E889D9 DUP3 MUL SWAP1 SHR SWAP1 POP JUMPDEST PUSH1 0x0 PUSH2 0x1000 DUP4 AND EQ PUSH2 0x1D2E JUMPI PUSH1 0x80 PUSH16 0xD097F3BDFD2022B8845AD8F792AA5825 DUP3 MUL SWAP1 SHR SWAP1 POP JUMPDEST PUSH1 0x0 PUSH2 0x2000 DUP4 AND EQ PUSH2 0x1D54 JUMPI PUSH1 0x80 PUSH16 0xA9F746462D870FDF8A65DC1F90E061E5 DUP3 MUL SWAP1 SHR SWAP1 POP JUMPDEST PUSH1 0x0 PUSH2 0x4000 DUP4 AND EQ PUSH2 0x1D7A JUMPI PUSH1 0x80 PUSH16 0x70D869A156D2A1B890BB3DF62BAF32F7 DUP3 MUL SWAP1 SHR SWAP1 POP JUMPDEST PUSH1 0x0 PUSH2 0x8000 DUP4 AND EQ PUSH2 0x1DA0 JUMPI PUSH1 0x80 PUSH16 0x31BE135F97D08FD981231505542FCFA6 DUP3 MUL SWAP1 SHR SWAP1 POP JUMPDEST PUSH1 0x0 PUSH3 0x10000 DUP4 AND EQ PUSH2 0x1DC7 JUMPI PUSH1 0x80 PUSH16 0x9AA508B5B7A84E1C677DE54F3E99BC9 DUP3 MUL SWAP1 SHR SWAP1 POP JUMPDEST PUSH1 0x0 PUSH3 0x20000 DUP4 AND EQ PUSH2 0x1DED JUMPI PUSH1 0x80 PUSH15 0x5D6AF8DEDB81196699C329225EE604 DUP3 MUL SWAP1 SHR SWAP1 POP JUMPDEST PUSH1 0x0 PUSH3 0x40000 DUP4 AND EQ PUSH2 0x1E12 JUMPI PUSH1 0x80 PUSH14 0x2216E584F5FA1EA926041BEDFE98 DUP3 MUL SWAP1 SHR SWAP1 POP JUMPDEST PUSH1 0x0 PUSH3 0x80000 DUP4 AND EQ PUSH2 0x1E35 JUMPI PUSH1 0x80 PUSH12 0x48A170391F7DC42444E8FA2 DUP3 MUL SWAP1 SHR SWAP1 POP JUMPDEST PUSH1 0x0 DUP5 PUSH1 0x2 SIGNEXTEND SGT ISZERO PUSH2 0x1E6E JUMPI DUP1 PUSH32 0xFFFFFFFFFFFFFFFFFFFFFFFFFFFFFFFFFFFFFFFFFFFFFFFFFFFFFFFFFFFFFFFF DUP2 PUSH2 0x1E6A JUMPI INVALID JUMPDEST DIV SWAP1 POP JUMPDEST PUSH1 0x0 PUSH5 0x100000000 DUP3 DUP2 PUSH2 0x1E7E JUMPI INVALID JUMPDEST MOD EQ PUSH2 0x1E8B JUMPI PUSH1 0x1 PUSH2 0x1E8E JUMP JUMPDEST PUSH1 0x0 JUMPDEST PUSH1 0xFF AND PUSH1 0x20 DUP3 SWAP1 SHR ADD SWAP3 POP POP POP SWAP2 SWAP1 POP JUMP JUMPDEST PUSH1 0x0 DUP1 PUSH1 0x0 DUP1 NOT DUP6 DUP8 MULMOD DUP6 DUP8 MUL SWAP3 POP DUP3 DUP2 LT DUP4 DUP3 SUB SUB SWAP2 POP POP PUSH1 0x0 DUP2 EQ ISZERO PUSH2 0x1EDB JUMPI PUSH1 0x0 DUP5 GT PUSH2 0x1ECF JUMPI PUSH1 0x0 DUP1 REVERT JUMPDEST DUP4 DUP3 DIV SWAP3 POP POP POP PUSH2 0x1F73 JUMP JUMPDEST DUP1 DUP5 GT PUSH2 0x1EE7 JUMPI PUSH1 0x0 DUP1 REVERT JUMPDEST PUSH1 0x0 DUP5 DUP7 DUP9 MULMOD SWAP1 POP DUP3 DUP2 GT DUP3 SUB SWAP2 POP DUP1 DUP4 SUB SWAP3 POP PUSH1 0x0 DUP6 DUP7 PUSH1 0x0 SUB AND SWAP1 POP DUP1 DUP7 DIV SWAP6 POP DUP1 DUP5 DIV SWAP4 POP PUSH1 0x1 DUP2 DUP3 PUSH1 0x0 SUB DIV ADD SWAP1 POP DUP1 DUP4 MUL DUP5 OR SWAP4 POP PUSH1 0x0 PUSH1 0x2 DUP8 PUSH1 0x3 MUL XOR SWAP1 POP DUP1 DUP8 MUL PUSH1 0x2 SUB DUP2 MUL SWAP1 POP DUP1 DUP8 MUL PUSH1 0x2 SUB DUP2 MUL SWAP1 POP DUP1 DUP8 MUL PUSH1 0x2 SUB DUP2 MUL SWAP1 POP DUP1 DUP8 MUL PUSH1 0x2 SUB DUP2 MUL SWAP1 POP DUP1 DUP8 MUL PUSH1 0x2 SUB DUP2 MUL SWAP1 POP DUP1 DUP8 MUL PUSH1 0x2 SUB DUP2 MUL SWAP1 POP DUP1 DUP6 MUL SWAP6 POP POP POP POP POP POP JUMPDEST SWAP4 SWAP3 POP POP POP JUMP INVALID LOG2 PUSH5 0x6970667358 0x22 SLT KECCAK256 0xC4 CREATE2 PUSH16 0x60A65B337469B9685BE7C364C4290C45 CALLVALUE 0xDA 0xF 0xD3 0x2E 0xCB 0xBA ISZERO 0xD1 0x4A SHL SWAP12 0xB4 PUSH5 0x736F6C6343 STOP SMOD MOD STOP CALLER "
				},
				"gasEstimates": {
					"creation": {
						"codeDepositCost": "1622400",
						"executionCost": "84315",
						"totalCost": "1706715"
					},
					"external": {
						"addPoolUSD(address,uint24)": "infinite",
						"bnb()": "1089",
						"bnbToUsd(uint8)": "infinite",
						"changeOwner(address)": "21993",
						"claimTax()": "infinite",
						"countReceive()": "1072",
						"eqMode(address)": "1246",
						"getEqMode()": "1168",
						"getEqModeString()": "infinite",
						"lastPrice(address)": "1279",
						"owner()": "1136",
						"poolsLenght()": "1166",
						"poolsUSD(uint256)": "2056",
						"removePoolUSD(uint8)": "67211",
						"setBnbAddress(address)": "22083",
						"setEqMode()": "22117",
						"setTax(uint256)": "21180",
						"setUsdAddress(address)": "22038",
						"usd()": "1113",
						"usdToBnb(uint8)": "infinite",
						"viewAverage()": "2102"
					},
					"internal": {
						"_average(bool)": "infinite"
					}
				},
				"methodIdentifiers": {
					"addPoolUSD(address,uint24)": "67b51834",
					"bnb()": "49a876e4",
					"bnbToUsd(uint8)": "6c7474da",
					"changeOwner(address)": "a6f9dae1",
					"claimTax()": "448883d7",
					"countReceive()": "724ba2c1",
					"eqMode(address)": "14b085a4",
					"getEqMode()": "026f0dbe",
					"getEqModeString()": "a1c6a405",
					"lastPrice(address)": "f5a6ba2e",
					"owner()": "8da5cb5b",
					"poolsLenght()": "f74b28c1",
					"poolsUSD(uint256)": "6d201e8b",
					"removePoolUSD(uint8)": "32a6013c",
					"setBnbAddress(address)": "3b907d14",
					"setEqMode()": "65a6cc2e",
					"setTax(uint256)": "2e5bb6ff",
					"setUsdAddress(address)": "5e59c8ce",
					"usd()": "d63a6ccd",
					"usdToBnb(uint8)": "c0404fa7",
					"viewAverage()": "e03d1632"
				}
			},
			"storageLayout": {
				"storage": [
					{
						"astId": 1926,
						"contract": "contracts/BNBPrice.sol:BNBPrice",
						"label": "bnb",
						"offset": 0,
						"slot": "0",
						"type": "t_address"
					},
					{
						"astId": 1928,
						"contract": "contracts/BNBPrice.sol:BNBPrice",
						"label": "usd",
						"offset": 0,
						"slot": "1",
						"type": "t_address"
					},
					{
						"astId": 1930,
						"contract": "contracts/BNBPrice.sol:BNBPrice",
						"label": "owner",
						"offset": 0,
						"slot": "2",
						"type": "t_address_payable"
					},
					{
						"astId": 1933,
						"contract": "contracts/BNBPrice.sol:BNBPrice",
						"label": "poolsUSD",
						"offset": 0,
						"slot": "3",
						"type": "t_array(t_address)dyn_storage"
					},
					{
						"astId": 1937,
						"contract": "contracts/BNBPrice.sol:BNBPrice",
						"label": "eqMode",
						"offset": 0,
						"slot": "4",
						"type": "t_mapping(t_address,t_bool)"
					},
					{
						"astId": 1941,
						"contract": "contracts/BNBPrice.sol:BNBPrice",
						"label": "lastPrice",
						"offset": 0,
						"slot": "5",
						"type": "t_mapping(t_address,t_uint256)"
					},
					{
						"astId": 1943,
						"contract": "contracts/BNBPrice.sol:BNBPrice",
						"label": "tax",
						"offset": 0,
						"slot": "6",
						"type": "t_uint256"
					},
					{
						"astId": 1945,
						"contract": "contracts/BNBPrice.sol:BNBPrice",
						"label": "countReceive",
						"offset": 0,
						"slot": "7",
						"type": "t_uint256"
					}
				],
				"types": {
					"t_address": {
						"encoding": "inplace",
						"label": "address",
						"numberOfBytes": "20"
					},
					"t_address_payable": {
						"encoding": "inplace",
						"label": "address payable",
						"numberOfBytes": "20"
					},
					"t_array(t_address)dyn_storage": {
						"base": "t_address",
						"encoding": "dynamic_array",
						"label": "address[]",
						"numberOfBytes": "32"
					},
					"t_bool": {
						"encoding": "inplace",
						"label": "bool",
						"numberOfBytes": "1"
					},
					"t_mapping(t_address,t_bool)": {
						"encoding": "mapping",
						"key": "t_address",
						"label": "mapping(address => bool)",
						"numberOfBytes": "32",
						"value": "t_bool"
					},
					"t_mapping(t_address,t_uint256)": {
						"encoding": "mapping",
						"key": "t_address",
						"label": "mapping(address => uint256)",
						"numberOfBytes": "32",
						"value": "t_uint256"
					},
					"t_uint256": {
						"encoding": "inplace",
						"label": "uint256",
						"numberOfBytes": "32"
					}
				}
			},
			"userdoc": {
				"kind": "user",
				"methods": {},
				"version": 1
			}
		}
	}
}