{
	"contracts/PTPPreSale.sol": {
		"TPTPreSale": {
			"abi": [
				{
					"inputs": [
						{
							"internalType": "address payable",
							"name": "_priceContract",
							"type": "address"
						}
					],
					"stateMutability": "nonpayable",
					"type": "constructor"
				},
				{
					"inputs": [],
					"name": "getPrice",
					"outputs": [
						{
							"internalType": "uint256",
							"name": "",
							"type": "uint256"
						}
					],
					"stateMutability": "payable",
					"type": "function"
				},
				{
					"inputs": [],
					"name": "owner",
					"outputs": [
						{
							"internalType": "address",
							"name": "",
							"type": "address"
						}
					],
					"stateMutability": "view",
					"type": "function"
				},
				{
					"inputs": [],
					"name": "priceContract",
					"outputs": [
						{
							"internalType": "address payable",
							"name": "",
							"type": "address"
						}
					],
					"stateMutability": "view",
					"type": "function"
				},
				{
					"inputs": [],
					"name": "thisStep",
					"outputs": [
						{
							"internalType": "uint8",
							"name": "",
							"type": "uint8"
						}
					],
					"stateMutability": "view",
					"type": "function"
				},
				{
					"inputs": [],
					"name": "totalUsers",
					"outputs": [
						{
							"internalType": "uint256",
							"name": "",
							"type": "uint256"
						}
					],
					"stateMutability": "view",
					"type": "function"
				},
				{
					"inputs": [
						{
							"internalType": "uint8",
							"name": "",
							"type": "uint8"
						}
					],
					"name": "tptPrice",
					"outputs": [
						{
							"internalType": "uint256",
							"name": "",
							"type": "uint256"
						}
					],
					"stateMutability": "view",
					"type": "function"
				},
				{
					"inputs": [
						{
							"internalType": "address",
							"name": "",
							"type": "address"
						}
					],
					"name": "userId",
					"outputs": [
						{
							"internalType": "uint256",
							"name": "",
							"type": "uint256"
						}
					],
					"stateMutability": "view",
					"type": "function"
				},
				{
					"inputs": [
						{
							"internalType": "uint256",
							"name": "",
							"type": "uint256"
						}
					],
					"name": "users",
					"outputs": [
						{
							"internalType": "address",
							"name": "walletAddress",
							"type": "address"
						},
						{
							"internalType": "uint256",
							"name": "tptBalance",
							"type": "uint256"
						},
						{
							"internalType": "bool",
							"name": "hasOffer",
							"type": "bool"
						}
					],
					"stateMutability": "view",
					"type": "function"
				}
			],
			"devdoc": {
				"kind": "dev",
				"methods": {},
				"version": 1
			},
			"evm": {
				"assembly": "    /* \"contracts/PTPPreSale.sol\":90:5293  contract TPTPreSale {... */\n  mstore(0x40, 0x80)\n    /* \"contracts/PTPPreSale.sol\":1131:1278  constructor( address payable _priceContract ) {... */\n  callvalue\n  dup1\n  iszero\n  tag_1\n  jumpi\n  revert(0x00, 0x00)\ntag_1:\n  pop\n  mload(0x40)\n  sub(codesize, bytecodeSize)\n  dup1\n  bytecodeSize\n  dup4\n  codecopy\n  dup2\n  dup2\n  add\n  0x40\n  mstore\n  dup2\n  add\n  swap1\n  tag_2\n  swap2\n  swap1\n  tag_3\n  jump\t// in\ntag_2:\n    /* \"contracts/PTPPreSale.sol\":1196:1206  msg.sender */\n  caller\n    /* \"contracts/PTPPreSale.sol\":1188:1193  owner */\n  0x01\n  0x00\n    /* \"contracts/PTPPreSale.sol\":1188:1206  owner = msg.sender */\n  0x0100\n  exp\n  dup2\n  sload\n  dup2\n  0xffffffffffffffffffffffffffffffffffffffff\n  mul\n  not\n  and\n  swap1\n  dup4\n  0xffffffffffffffffffffffffffffffffffffffff\n  and\n  mul\n  or\n  swap1\n  sstore\n  pop\n    /* \"contracts/PTPPreSale.sol\":1228:1229  0 */\n  0x00\n    /* \"contracts/PTPPreSale.sol\":1217:1225  thisStep */\n  0x01\n  0x15\n    /* \"contracts/PTPPreSale.sol\":1217:1229  thisStep = 0 */\n  0x0100\n  exp\n  dup2\n  sload\n  dup2\n  0xff\n  mul\n  not\n  and\n  swap1\n  dup4\n  0xff\n  and\n  mul\n  or\n  swap1\n  sstore\n  pop\n    /* \"contracts/PTPPreSale.sol\":1256:1270  _priceContract */\n  dup1\n    /* \"contracts/PTPPreSale.sol\":1240:1253  priceContract */\n  0x00\n  0x00\n    /* \"contracts/PTPPreSale.sol\":1240:1270  priceContract = _priceContract */\n  0x0100\n  exp\n  dup2\n  sload\n  dup2\n  0xffffffffffffffffffffffffffffffffffffffff\n  mul\n  not\n  and\n  swap1\n  dup4\n  0xffffffffffffffffffffffffffffffffffffffff\n  and\n  mul\n  or\n  swap1\n  sstore\n  pop\n    /* \"contracts/PTPPreSale.sol\":1131:1278  constructor( address payable _priceContract ) {... */\n  pop\n    /* \"contracts/PTPPreSale.sol\":90:5293  contract TPTPreSale {... */\n  jump(tag_6)\n    /* \"#utility.yul\":88:205   */\ntag_8:\n    /* \"#utility.yul\":197:198   */\n  0x00\n    /* \"#utility.yul\":194:195   */\n  0x00\n    /* \"#utility.yul\":187:199   */\n  revert\n    /* \"#utility.yul\":334:460   */\ntag_10:\n    /* \"#utility.yul\":371:378   */\n  0x00\n    /* \"#utility.yul\":411:453   */\n  0xffffffffffffffffffffffffffffffffffffffff\n    /* \"#utility.yul\":404:409   */\n  dup3\n    /* \"#utility.yul\":400:454   */\n  and\n    /* \"#utility.yul\":389:454   */\n  swap1\n  pop\n    /* \"#utility.yul\":334:460   */\n  swap2\n  swap1\n  pop\n  jump\t// out\n    /* \"#utility.yul\":466:570   */\ntag_11:\n    /* \"#utility.yul\":511:518   */\n  0x00\n    /* \"#utility.yul\":540:564   */\n  tag_20\n    /* \"#utility.yul\":558:563   */\n  dup3\n    /* \"#utility.yul\":540:564   */\n  tag_10\n  jump\t// in\ntag_20:\n    /* \"#utility.yul\":529:564   */\n  swap1\n  pop\n    /* \"#utility.yul\":466:570   */\n  swap2\n  swap1\n  pop\n  jump\t// out\n    /* \"#utility.yul\":576:714   */\ntag_12:\n    /* \"#utility.yul\":657:689   */\n  tag_22\n    /* \"#utility.yul\":683:688   */\n  dup2\n    /* \"#utility.yul\":657:689   */\n  tag_11\n  jump\t// in\ntag_22:\n    /* \"#utility.yul\":650:655   */\n  dup2\n    /* \"#utility.yul\":647:690   */\n  eq\n    /* \"#utility.yul\":637:708   */\n  tag_23\n  jumpi\n    /* \"#utility.yul\":704:705   */\n  0x00\n    /* \"#utility.yul\":701:702   */\n  0x00\n    /* \"#utility.yul\":694:706   */\n  revert\n    /* \"#utility.yul\":637:708   */\ntag_23:\n    /* \"#utility.yul\":576:714   */\n  pop\n  jump\t// out\n    /* \"#utility.yul\":720:879   */\ntag_13:\n    /* \"#utility.yul\":785:790   */\n  0x00\n    /* \"#utility.yul\":816:822   */\n  dup2\n    /* \"#utility.yul\":810:823   */\n  mload\n    /* \"#utility.yul\":801:823   */\n  swap1\n  pop\n    /* \"#utility.yul\":832:873   */\n  tag_25\n    /* \"#utility.yul\":867:872   */\n  dup2\n    /* \"#utility.yul\":832:873   */\n  tag_12\n  jump\t// in\ntag_25:\n    /* \"#utility.yul\":720:879   */\n  swap3\n  swap2\n  pop\n  pop\n  jump\t// out\n    /* \"#utility.yul\":885:1252   */\ntag_3:\n    /* \"#utility.yul\":963:969   */\n  0x00\n    /* \"#utility.yul\":1012:1014   */\n  0x20\n    /* \"#utility.yul\":1000:1009   */\n  dup3\n    /* \"#utility.yul\":991:998   */\n  dup5\n    /* \"#utility.yul\":987:1010   */\n  sub\n    /* \"#utility.yul\":983:1015   */\n  slt\n    /* \"#utility.yul\":980:1099   */\n  iszero\n  tag_27\n  jumpi\n    /* \"#utility.yul\":1018:1097   */\n  tag_28\n  tag_8\n  jump\t// in\ntag_28:\n    /* \"#utility.yul\":980:1099   */\ntag_27:\n    /* \"#utility.yul\":1138:1139   */\n  0x00\n    /* \"#utility.yul\":1163:1235   */\n  tag_29\n    /* \"#utility.yul\":1227:1234   */\n  dup5\n    /* \"#utility.yul\":1218:1224   */\n  dup3\n    /* \"#utility.yul\":1207:1216   */\n  dup6\n    /* \"#utility.yul\":1203:1225   */\n  add\n    /* \"#utility.yul\":1163:1235   */\n  tag_13\n  jump\t// in\ntag_29:\n    /* \"#utility.yul\":1153:1235   */\n  swap2\n  pop\n    /* \"#utility.yul\":1109:1245   */\n  pop\n    /* \"#utility.yul\":885:1252   */\n  swap3\n  swap2\n  pop\n  pop\n  jump\t// out\n    /* \"contracts/PTPPreSale.sol\":90:5293  contract TPTPreSale {... */\ntag_6:\n  dataSize(sub_0)\n  dup1\n  dataOffset(sub_0)\n  0x00\n  codecopy\n  0x00\n  return\nstop\n\nsub_0: assembly {\n        /* \"contracts/PTPPreSale.sol\":90:5293  contract TPTPreSale {... */\n      mstore(0x40, 0x80)\n      jumpi(tag_1, lt(calldatasize, 0x04))\n      shr(0xe0, calldataload(0x00))\n      dup1\n      0x98d5fdca\n      gt\n      tag_10\n      jumpi\n      dup1\n      0x98d5fdca\n      eq\n      tag_6\n      jumpi\n      dup1\n      0xae243031\n      eq\n      tag_7\n      jumpi\n      dup1\n      0xae372ec1\n      eq\n      tag_8\n      jumpi\n      dup1\n      0xbff1f9e1\n      eq\n      tag_9\n      jumpi\n      jump(tag_1)\n    tag_10:\n      dup1\n      0x365b98b2\n      eq\n      tag_2\n      jumpi\n      dup1\n      0x376fe102\n      eq\n      tag_3\n      jumpi\n      dup1\n      0x556a7579\n      eq\n      tag_4\n      jumpi\n      dup1\n      0x8da5cb5b\n      eq\n      tag_5\n      jumpi\n    tag_1:\n      revert(0x00, 0x00)\n        /* \"contracts/PTPPreSale.sol\":724:765  mapping(uint256 => UserInfo) public users */\n    tag_2:\n      callvalue\n      dup1\n      iszero\n      tag_11\n      jumpi\n      revert(0x00, 0x00)\n    tag_11:\n      pop\n      tag_12\n      0x04\n      dup1\n      calldatasize\n      sub\n      dup2\n      add\n      swap1\n      tag_13\n      swap2\n      swap1\n      tag_14\n      jump\t// in\n    tag_13:\n      tag_15\n      jump\t// in\n    tag_12:\n      mload(0x40)\n      tag_16\n      swap4\n      swap3\n      swap2\n      swap1\n      tag_17\n      jump\t// in\n    tag_16:\n      mload(0x40)\n      dup1\n      swap2\n      sub\n      swap1\n      return\n        /* \"contracts/PTPPreSale.sol\":676:717  mapping(address => uint256) public userId */\n    tag_3:\n      callvalue\n      dup1\n      iszero\n      tag_18\n      jumpi\n      revert(0x00, 0x00)\n    tag_18:\n      pop\n      tag_19\n      0x04\n      dup1\n      calldatasize\n      sub\n      dup2\n      add\n      swap1\n      tag_20\n      swap2\n      swap1\n      tag_21\n      jump\t// in\n    tag_20:\n      tag_22\n      jump\t// in\n    tag_19:\n      mload(0x40)\n      tag_23\n      swap2\n      swap1\n      tag_24\n      jump\t// in\n    tag_23:\n      mload(0x40)\n      dup1\n      swap2\n      sub\n      swap1\n      return\n        /* \"contracts/PTPPreSale.sol\":286:324  mapping(uint8 => uint) public tptPrice */\n    tag_4:\n      callvalue\n      dup1\n      iszero\n      tag_25\n      jumpi\n      revert(0x00, 0x00)\n    tag_25:\n      pop\n      tag_26\n      0x04\n      dup1\n      calldatasize\n      sub\n      dup2\n      add\n      swap1\n      tag_27\n      swap2\n      swap1\n      tag_28\n      jump\t// in\n    tag_27:\n      tag_29\n      jump\t// in\n    tag_26:\n      mload(0x40)\n      tag_30\n      swap2\n      swap1\n      tag_24\n      jump\t// in\n    tag_30:\n      mload(0x40)\n      dup1\n      swap2\n      sub\n      swap1\n      return\n        /* \"contracts/PTPPreSale.sol\":182:202  address public owner */\n    tag_5:\n      callvalue\n      dup1\n      iszero\n      tag_31\n      jumpi\n      revert(0x00, 0x00)\n    tag_31:\n      pop\n      tag_32\n      tag_33\n      jump\t// in\n    tag_32:\n      mload(0x40)\n      tag_34\n      swap2\n      swap1\n      tag_35\n      jump\t// in\n    tag_34:\n      mload(0x40)\n      dup1\n      swap2\n      sub\n      swap1\n      return\n        /* \"contracts/PTPPreSale.sol\":1290:1902  function getPrice() external payable returns (uint256) {... */\n    tag_6:\n      tag_36\n      tag_37\n      jump\t// in\n    tag_36:\n      mload(0x40)\n      tag_38\n      swap2\n      swap1\n      tag_24\n      jump\t// in\n    tag_38:\n      mload(0x40)\n      dup1\n      swap2\n      sub\n      swap1\n      return\n        /* \"contracts/PTPPreSale.sol\":258:279  uint8 public thisStep */\n    tag_7:\n      callvalue\n      dup1\n      iszero\n      tag_39\n      jumpi\n      revert(0x00, 0x00)\n    tag_39:\n      pop\n      tag_40\n      tag_41\n      jump\t// in\n    tag_40:\n      mload(0x40)\n      tag_42\n      swap2\n      swap1\n      tag_43\n      jump\t// in\n    tag_42:\n      mload(0x40)\n      dup1\n      swap2\n      sub\n      swap1\n      return\n        /* \"contracts/PTPPreSale.sol\":117:153  address payable public priceContract */\n    tag_8:\n      callvalue\n      dup1\n      iszero\n      tag_44\n      jumpi\n      revert(0x00, 0x00)\n    tag_44:\n      pop\n      tag_45\n      tag_46\n      jump\t// in\n    tag_45:\n      mload(0x40)\n      tag_47\n      swap2\n      swap1\n      tag_48\n      jump\t// in\n    tag_47:\n      mload(0x40)\n      dup1\n      swap2\n      sub\n      swap1\n      return\n        /* \"contracts/PTPPreSale.sol\":354:379  uint256 public totalUsers */\n    tag_9:\n      callvalue\n      dup1\n      iszero\n      tag_49\n      jumpi\n      revert(0x00, 0x00)\n    tag_49:\n      pop\n      tag_50\n      tag_51\n      jump\t// in\n    tag_50:\n      mload(0x40)\n      tag_52\n      swap2\n      swap1\n      tag_24\n      jump\t// in\n    tag_52:\n      mload(0x40)\n      dup1\n      swap2\n      sub\n      swap1\n      return\n        /* \"contracts/PTPPreSale.sol\":724:765  mapping(uint256 => UserInfo) public users */\n    tag_15:\n      mstore(0x20, 0x05)\n      dup1\n      0x00\n      mstore\n      keccak256(0x00, 0x40)\n      0x00\n      swap2\n      pop\n      swap1\n      pop\n      dup1\n      0x00\n      add\n      0x00\n      swap1\n      sload\n      swap1\n      0x0100\n      exp\n      swap1\n      div\n      0xffffffffffffffffffffffffffffffffffffffff\n      and\n      swap1\n      dup1\n      0x01\n      add\n      sload\n      swap1\n      dup1\n      0x02\n      add\n      0x00\n      swap1\n      sload\n      swap1\n      0x0100\n      exp\n      swap1\n      div\n      0xff\n      and\n      swap1\n      pop\n      dup4\n      jump\t// out\n        /* \"contracts/PTPPreSale.sol\":676:717  mapping(address => uint256) public userId */\n    tag_22:\n      mstore(0x20, 0x04)\n      dup1\n      0x00\n      mstore\n      keccak256(0x00, 0x40)\n      0x00\n      swap2\n      pop\n      swap1\n      pop\n      sload\n      dup2\n      jump\t// out\n        /* \"contracts/PTPPreSale.sol\":286:324  mapping(uint8 => uint) public tptPrice */\n    tag_29:\n      mstore(0x20, 0x02)\n      dup1\n      0x00\n      mstore\n      keccak256(0x00, 0x40)\n      0x00\n      swap2\n      pop\n      swap1\n      pop\n      sload\n      dup2\n      jump\t// out\n        /* \"contracts/PTPPreSale.sol\":182:202  address public owner */\n    tag_33:\n      0x01\n      0x00\n      swap1\n      sload\n      swap1\n      0x0100\n      exp\n      swap1\n      div\n      0xffffffffffffffffffffffffffffffffffffffff\n      and\n      dup2\n      jump\t// out\n        /* \"contracts/PTPPreSale.sol\":1290:1902  function getPrice() external payable returns (uint256) {... */\n    tag_37:\n        /* \"contracts/PTPPreSale.sol\":1336:1343  uint256 */\n      0x00\n        /* \"contracts/PTPPreSale.sol\":1377:1381  1e14 */\n      0x5af3107a4000\n        /* \"contracts/PTPPreSale.sol\":1364:1373  msg.value */\n      callvalue\n        /* \"contracts/PTPPreSale.sol\":1364:1381  msg.value >= 1e14 */\n      lt\n      iszero\n        /* \"contracts/PTPPreSale.sol\":1356:1402  require(msg.value >= 1e14, \"Insufficient BNB\") */\n      tag_54\n      jumpi\n      mload(0x40)\n      0x08c379a000000000000000000000000000000000000000000000000000000000\n      dup2\n      mstore\n      0x04\n      add\n      tag_55\n      swap1\n      tag_56\n      jump\t// in\n    tag_55:\n      mload(0x40)\n      dup1\n      swap2\n      sub\n      swap1\n      revert\n    tag_54:\n        /* \"contracts/PTPPreSale.sol\":1467:1476  bool sent */\n      0x00\n        /* \"contracts/PTPPreSale.sol\":1482:1495  priceContract */\n      0x00\n      0x00\n      swap1\n      sload\n      swap1\n      0x0100\n      exp\n      swap1\n      div\n      0xffffffffffffffffffffffffffffffffffffffff\n      and\n        /* \"contracts/PTPPreSale.sol\":1482:1500  priceContract.call */\n      0xffffffffffffffffffffffffffffffffffffffff\n      and\n        /* \"contracts/PTPPreSale.sol\":1508:1517  msg.value */\n      callvalue\n        /* \"contracts/PTPPreSale.sol\":1482:1522  priceContract.call{value: msg.value}(\"\") */\n      mload(0x40)\n      tag_57\n      swap1\n      tag_58\n      jump\t// in\n    tag_57:\n      0x00\n      mload(0x40)\n      dup1\n      dup4\n      sub\n      dup2\n      dup6\n      dup8\n      gas\n      call\n      swap3\n      pop\n      pop\n      pop\n      returndatasize\n      dup1\n      0x00\n      dup2\n      eq\n      tag_61\n      jumpi\n      mload(0x40)\n      swap2\n      pop\n      and(add(returndatasize, 0x3f), not(0x1f))\n      dup3\n      add\n      0x40\n      mstore\n      returndatasize\n      dup3\n      mstore\n      returndatasize\n      0x00\n      0x20\n      dup5\n      add\n      returndatacopy\n      jump(tag_60)\n    tag_61:\n      0x60\n      swap2\n      pop\n    tag_60:\n      pop\n        /* \"contracts/PTPPreSale.sol\":1466:1522  (bool sent, ) = priceContract.call{value: msg.value}(\"\") */\n      pop\n      swap1\n      pop\n        /* \"contracts/PTPPreSale.sol\":1541:1545  sent */\n      dup1\n        /* \"contracts/PTPPreSale.sol\":1533:1583  require(sent, \"Transfer to price contract failed\") */\n      tag_62\n      jumpi\n      mload(0x40)\n      0x08c379a000000000000000000000000000000000000000000000000000000000\n      dup2\n      mstore\n      0x04\n      add\n      tag_63\n      swap1\n      tag_64\n      jump\t// in\n    tag_63:\n      mload(0x40)\n      dup1\n      swap2\n      sub\n      swap1\n      revert\n    tag_62:\n        /* \"contracts/PTPPreSale.sol\":1653:1665  bool success */\n      0x00\n        /* \"contracts/PTPPreSale.sol\":1667:1684  bytes memory data */\n      0x00\n        /* \"contracts/PTPPreSale.sol\":1688:1701  priceContract */\n      0x00\n      0x00\n      swap1\n      sload\n      swap1\n      0x0100\n      exp\n      swap1\n      div\n      0xffffffffffffffffffffffffffffffffffffffff\n      and\n        /* \"contracts/PTPPreSale.sol\":1688:1712  priceContract.staticcall */\n      0xffffffffffffffffffffffffffffffffffffffff\n      and\n        /* \"contracts/PTPPreSale.sol\":1775:1785  msg.sender */\n      caller\n        /* \"contracts/PTPPreSale.sol\":1727:1786  abi.encodeWithSignature(\"viewAverage(address)\", msg.sender) */\n      add(0x24, mload(0x40))\n      tag_65\n      swap2\n      swap1\n      tag_35\n      jump\t// in\n    tag_65:\n      mload(0x40)\n      0x20\n      dup2\n      dup4\n      sub\n      sub\n      dup2\n      mstore\n      swap1\n      0x40\n      mstore\n      and(not(0xffffffffffffffffffffffffffffffffffffffffffffffffffffffff), 0xed9b8d5000000000000000000000000000000000000000000000000000000000)\n      0x20\n      dup3\n      add\n      dup1\n      mload\n      0xffffffffffffffffffffffffffffffffffffffffffffffffffffffff\n      dup4\n      dup2\n      dup4\n      and\n      or\n      dup4\n      mstore\n      pop\n      pop\n      pop\n      pop\n        /* \"contracts/PTPPreSale.sol\":1688:1797  priceContract.staticcall(... */\n      mload(0x40)\n      tag_66\n      swap2\n      swap1\n      tag_67\n      jump\t// in\n    tag_66:\n      0x00\n      mload(0x40)\n      dup1\n      dup4\n      sub\n      dup2\n      dup6\n      gas\n      staticcall\n      swap2\n      pop\n      pop\n      returndatasize\n      dup1\n      0x00\n      dup2\n      eq\n      tag_70\n      jumpi\n      mload(0x40)\n      swap2\n      pop\n      and(add(returndatasize, 0x3f), not(0x1f))\n      dup3\n      add\n      0x40\n      mstore\n      returndatasize\n      dup3\n      mstore\n      returndatasize\n      0x00\n      0x20\n      dup5\n      add\n      returndatacopy\n      jump(tag_69)\n    tag_70:\n      0x60\n      swap2\n      pop\n    tag_69:\n      pop\n        /* \"contracts/PTPPreSale.sol\":1652:1797  (bool success, bytes memory data) = priceContract.staticcall(... */\n      swap2\n      pop\n      swap2\n      pop\n        /* \"contracts/PTPPreSale.sol\":1816:1823  success */\n      dup2\n        /* \"contracts/PTPPreSale.sol\":1808:1847  require(success, \"Failed to get price\") */\n      tag_71\n      jumpi\n      mload(0x40)\n      0x08c379a000000000000000000000000000000000000000000000000000000000\n      dup2\n      mstore\n      0x04\n      add\n      tag_72\n      swap1\n      tag_73\n      jump\t// in\n    tag_72:\n      mload(0x40)\n      dup1\n      swap2\n      sub\n      swap1\n      revert\n    tag_71:\n        /* \"contracts/PTPPreSale.sol\":1878:1882  data */\n      dup1\n        /* \"contracts/PTPPreSale.sol\":1867:1894  abi.decode(data, (uint256)) */\n      dup1\n      0x20\n      add\n      swap1\n      mload\n      dup2\n      add\n      swap1\n      tag_74\n      swap2\n      swap1\n      tag_75\n      jump\t// in\n    tag_74:\n        /* \"contracts/PTPPreSale.sol\":1860:1894  return abi.decode(data, (uint256)) */\n      swap4\n      pop\n      pop\n      pop\n      pop\n        /* \"contracts/PTPPreSale.sol\":1290:1902  function getPrice() external payable returns (uint256) {... */\n      swap1\n      jump\t// out\n        /* \"contracts/PTPPreSale.sol\":258:279  uint8 public thisStep */\n    tag_41:\n      0x01\n      0x15\n      swap1\n      sload\n      swap1\n      0x0100\n      exp\n      swap1\n      div\n      0xff\n      and\n      dup2\n      jump\t// out\n        /* \"contracts/PTPPreSale.sol\":117:153  address payable public priceContract */\n    tag_46:\n      0x00\n      0x00\n      swap1\n      sload\n      swap1\n      0x0100\n      exp\n      swap1\n      div\n      0xffffffffffffffffffffffffffffffffffffffff\n      and\n      dup2\n      jump\t// out\n        /* \"contracts/PTPPreSale.sol\":354:379  uint256 public totalUsers */\n    tag_51:\n      sload(0x03)\n      dup2\n      jump\t// out\n        /* \"#utility.yul\":88:205   */\n    tag_77:\n        /* \"#utility.yul\":197:198   */\n      0x00\n        /* \"#utility.yul\":194:195   */\n      0x00\n        /* \"#utility.yul\":187:199   */\n      revert\n        /* \"#utility.yul\":334:411   */\n    tag_79:\n        /* \"#utility.yul\":371:378   */\n      0x00\n        /* \"#utility.yul\":400:405   */\n      dup2\n        /* \"#utility.yul\":389:405   */\n      swap1\n      pop\n        /* \"#utility.yul\":334:411   */\n      swap2\n      swap1\n      pop\n      jump\t// out\n        /* \"#utility.yul\":417:539   */\n    tag_80:\n        /* \"#utility.yul\":490:514   */\n      tag_116\n        /* \"#utility.yul\":508:513   */\n      dup2\n        /* \"#utility.yul\":490:514   */\n      tag_79\n      jump\t// in\n    tag_116:\n        /* \"#utility.yul\":483:488   */\n      dup2\n        /* \"#utility.yul\":480:515   */\n      eq\n        /* \"#utility.yul\":470:533   */\n      tag_117\n      jumpi\n        /* \"#utility.yul\":529:530   */\n      0x00\n        /* \"#utility.yul\":526:527   */\n      0x00\n        /* \"#utility.yul\":519:531   */\n      revert\n        /* \"#utility.yul\":470:533   */\n    tag_117:\n        /* \"#utility.yul\":417:539   */\n      pop\n      jump\t// out\n        /* \"#utility.yul\":545:684   */\n    tag_81:\n        /* \"#utility.yul\":591:596   */\n      0x00\n        /* \"#utility.yul\":629:635   */\n      dup2\n        /* \"#utility.yul\":616:636   */\n      calldataload\n        /* \"#utility.yul\":607:636   */\n      swap1\n      pop\n        /* \"#utility.yul\":645:678   */\n      tag_119\n        /* \"#utility.yul\":672:677   */\n      dup2\n        /* \"#utility.yul\":645:678   */\n      tag_80\n      jump\t// in\n    tag_119:\n        /* \"#utility.yul\":545:684   */\n      swap3\n      swap2\n      pop\n      pop\n      jump\t// out\n        /* \"#utility.yul\":690:1019   */\n    tag_14:\n        /* \"#utility.yul\":749:755   */\n      0x00\n        /* \"#utility.yul\":798:800   */\n      0x20\n        /* \"#utility.yul\":786:795   */\n      dup3\n        /* \"#utility.yul\":777:784   */\n      dup5\n        /* \"#utility.yul\":773:796   */\n      sub\n        /* \"#utility.yul\":769:801   */\n      slt\n        /* \"#utility.yul\":766:885   */\n      iszero\n      tag_121\n      jumpi\n        /* \"#utility.yul\":804:883   */\n      tag_122\n      tag_77\n      jump\t// in\n    tag_122:\n        /* \"#utility.yul\":766:885   */\n    tag_121:\n        /* \"#utility.yul\":924:925   */\n      0x00\n        /* \"#utility.yul\":949:1002   */\n      tag_123\n        /* \"#utility.yul\":994:1001   */\n      dup5\n        /* \"#utility.yul\":985:991   */\n      dup3\n        /* \"#utility.yul\":974:983   */\n      dup6\n        /* \"#utility.yul\":970:992   */\n      add\n        /* \"#utility.yul\":949:1002   */\n      tag_81\n      jump\t// in\n    tag_123:\n        /* \"#utility.yul\":939:1002   */\n      swap2\n      pop\n        /* \"#utility.yul\":895:1012   */\n      pop\n        /* \"#utility.yul\":690:1019   */\n      swap3\n      swap2\n      pop\n      pop\n      jump\t// out\n        /* \"#utility.yul\":1025:1151   */\n    tag_82:\n        /* \"#utility.yul\":1062:1069   */\n      0x00\n        /* \"#utility.yul\":1102:1144   */\n      0xffffffffffffffffffffffffffffffffffffffff\n        /* \"#utility.yul\":1095:1100   */\n      dup3\n        /* \"#utility.yul\":1091:1145   */\n      and\n        /* \"#utility.yul\":1080:1145   */\n      swap1\n      pop\n        /* \"#utility.yul\":1025:1151   */\n      swap2\n      swap1\n      pop\n      jump\t// out\n        /* \"#utility.yul\":1157:1253   */\n    tag_83:\n        /* \"#utility.yul\":1194:1201   */\n      0x00\n        /* \"#utility.yul\":1223:1247   */\n      tag_126\n        /* \"#utility.yul\":1241:1246   */\n      dup3\n        /* \"#utility.yul\":1223:1247   */\n      tag_82\n      jump\t// in\n    tag_126:\n        /* \"#utility.yul\":1212:1247   */\n      swap1\n      pop\n        /* \"#utility.yul\":1157:1253   */\n      swap2\n      swap1\n      pop\n      jump\t// out\n        /* \"#utility.yul\":1259:1377   */\n    tag_84:\n        /* \"#utility.yul\":1346:1370   */\n      tag_128\n        /* \"#utility.yul\":1364:1369   */\n      dup2\n        /* \"#utility.yul\":1346:1370   */\n      tag_83\n      jump\t// in\n    tag_128:\n        /* \"#utility.yul\":1341:1344   */\n      dup3\n        /* \"#utility.yul\":1334:1371   */\n      mstore\n        /* \"#utility.yul\":1259:1377   */\n      pop\n      pop\n      jump\t// out\n        /* \"#utility.yul\":1383:1501   */\n    tag_85:\n        /* \"#utility.yul\":1470:1494   */\n      tag_130\n        /* \"#utility.yul\":1488:1493   */\n      dup2\n        /* \"#utility.yul\":1470:1494   */\n      tag_79\n      jump\t// in\n    tag_130:\n        /* \"#utility.yul\":1465:1468   */\n      dup3\n        /* \"#utility.yul\":1458:1495   */\n      mstore\n        /* \"#utility.yul\":1383:1501   */\n      pop\n      pop\n      jump\t// out\n        /* \"#utility.yul\":1507:1597   */\n    tag_86:\n        /* \"#utility.yul\":1541:1548   */\n      0x00\n        /* \"#utility.yul\":1584:1589   */\n      dup2\n        /* \"#utility.yul\":1577:1590   */\n      iszero\n        /* \"#utility.yul\":1570:1591   */\n      iszero\n        /* \"#utility.yul\":1559:1591   */\n      swap1\n      pop\n        /* \"#utility.yul\":1507:1597   */\n      swap2\n      swap1\n      pop\n      jump\t// out\n        /* \"#utility.yul\":1603:1712   */\n    tag_87:\n        /* \"#utility.yul\":1684:1705   */\n      tag_133\n        /* \"#utility.yul\":1699:1704   */\n      dup2\n        /* \"#utility.yul\":1684:1705   */\n      tag_86\n      jump\t// in\n    tag_133:\n        /* \"#utility.yul\":1679:1682   */\n      dup3\n        /* \"#utility.yul\":1672:1706   */\n      mstore\n        /* \"#utility.yul\":1603:1712   */\n      pop\n      pop\n      jump\t// out\n        /* \"#utility.yul\":1718:2148   */\n    tag_17:\n        /* \"#utility.yul\":1861:1865   */\n      0x00\n        /* \"#utility.yul\":1899:1901   */\n      0x60\n        /* \"#utility.yul\":1888:1897   */\n      dup3\n        /* \"#utility.yul\":1884:1902   */\n      add\n        /* \"#utility.yul\":1876:1902   */\n      swap1\n      pop\n        /* \"#utility.yul\":1912:1983   */\n      tag_135\n        /* \"#utility.yul\":1980:1981   */\n      0x00\n        /* \"#utility.yul\":1969:1978   */\n      dup4\n        /* \"#utility.yul\":1965:1982   */\n      add\n        /* \"#utility.yul\":1956:1962   */\n      dup7\n        /* \"#utility.yul\":1912:1983   */\n      tag_84\n      jump\t// in\n    tag_135:\n        /* \"#utility.yul\":1993:2065   */\n      tag_136\n        /* \"#utility.yul\":2061:2063   */\n      0x20\n        /* \"#utility.yul\":2050:2059   */\n      dup4\n        /* \"#utility.yul\":2046:2064   */\n      add\n        /* \"#utility.yul\":2037:2043   */\n      dup6\n        /* \"#utility.yul\":1993:2065   */\n      tag_85\n      jump\t// in\n    tag_136:\n        /* \"#utility.yul\":2075:2141   */\n      tag_137\n        /* \"#utility.yul\":2137:2139   */\n      0x40\n        /* \"#utility.yul\":2126:2135   */\n      dup4\n        /* \"#utility.yul\":2122:2140   */\n      add\n        /* \"#utility.yul\":2113:2119   */\n      dup5\n        /* \"#utility.yul\":2075:2141   */\n      tag_87\n      jump\t// in\n    tag_137:\n        /* \"#utility.yul\":1718:2148   */\n      swap5\n      swap4\n      pop\n      pop\n      pop\n      pop\n      jump\t// out\n        /* \"#utility.yul\":2154:2276   */\n    tag_88:\n        /* \"#utility.yul\":2227:2251   */\n      tag_139\n        /* \"#utility.yul\":2245:2250   */\n      dup2\n        /* \"#utility.yul\":2227:2251   */\n      tag_83\n      jump\t// in\n    tag_139:\n        /* \"#utility.yul\":2220:2225   */\n      dup2\n        /* \"#utility.yul\":2217:2252   */\n      eq\n        /* \"#utility.yul\":2207:2270   */\n      tag_140\n      jumpi\n        /* \"#utility.yul\":2266:2267   */\n      0x00\n        /* \"#utility.yul\":2263:2264   */\n      0x00\n        /* \"#utility.yul\":2256:2268   */\n      revert\n        /* \"#utility.yul\":2207:2270   */\n    tag_140:\n        /* \"#utility.yul\":2154:2276   */\n      pop\n      jump\t// out\n        /* \"#utility.yul\":2282:2421   */\n    tag_89:\n        /* \"#utility.yul\":2328:2333   */\n      0x00\n        /* \"#utility.yul\":2366:2372   */\n      dup2\n        /* \"#utility.yul\":2353:2373   */\n      calldataload\n        /* \"#utility.yul\":2344:2373   */\n      swap1\n      pop\n        /* \"#utility.yul\":2382:2415   */\n      tag_142\n        /* \"#utility.yul\":2409:2414   */\n      dup2\n        /* \"#utility.yul\":2382:2415   */\n      tag_88\n      jump\t// in\n    tag_142:\n        /* \"#utility.yul\":2282:2421   */\n      swap3\n      swap2\n      pop\n      pop\n      jump\t// out\n        /* \"#utility.yul\":2427:2756   */\n    tag_21:\n        /* \"#utility.yul\":2486:2492   */\n      0x00\n        /* \"#utility.yul\":2535:2537   */\n      0x20\n        /* \"#utility.yul\":2523:2532   */\n      dup3\n        /* \"#utility.yul\":2514:2521   */\n      dup5\n        /* \"#utility.yul\":2510:2533   */\n      sub\n        /* \"#utility.yul\":2506:2538   */\n      slt\n        /* \"#utility.yul\":2503:2622   */\n      iszero\n      tag_144\n      jumpi\n        /* \"#utility.yul\":2541:2620   */\n      tag_145\n      tag_77\n      jump\t// in\n    tag_145:\n        /* \"#utility.yul\":2503:2622   */\n    tag_144:\n        /* \"#utility.yul\":2661:2662   */\n      0x00\n        /* \"#utility.yul\":2686:2739   */\n      tag_146\n        /* \"#utility.yul\":2731:2738   */\n      dup5\n        /* \"#utility.yul\":2722:2728   */\n      dup3\n        /* \"#utility.yul\":2711:2720   */\n      dup6\n        /* \"#utility.yul\":2707:2729   */\n      add\n        /* \"#utility.yul\":2686:2739   */\n      tag_89\n      jump\t// in\n    tag_146:\n        /* \"#utility.yul\":2676:2739   */\n      swap2\n      pop\n        /* \"#utility.yul\":2632:2749   */\n      pop\n        /* \"#utility.yul\":2427:2756   */\n      swap3\n      swap2\n      pop\n      pop\n      jump\t// out\n        /* \"#utility.yul\":2762:2984   */\n    tag_24:\n        /* \"#utility.yul\":2855:2859   */\n      0x00\n        /* \"#utility.yul\":2893:2895   */\n      0x20\n        /* \"#utility.yul\":2882:2891   */\n      dup3\n        /* \"#utility.yul\":2878:2896   */\n      add\n        /* \"#utility.yul\":2870:2896   */\n      swap1\n      pop\n        /* \"#utility.yul\":2906:2977   */\n      tag_148\n        /* \"#utility.yul\":2974:2975   */\n      0x00\n        /* \"#utility.yul\":2963:2972   */\n      dup4\n        /* \"#utility.yul\":2959:2976   */\n      add\n        /* \"#utility.yul\":2950:2956   */\n      dup5\n        /* \"#utility.yul\":2906:2977   */\n      tag_85\n      jump\t// in\n    tag_148:\n        /* \"#utility.yul\":2762:2984   */\n      swap3\n      swap2\n      pop\n      pop\n      jump\t// out\n        /* \"#utility.yul\":2990:3076   */\n    tag_90:\n        /* \"#utility.yul\":3025:3032   */\n      0x00\n        /* \"#utility.yul\":3065:3069   */\n      0xff\n        /* \"#utility.yul\":3058:3063   */\n      dup3\n        /* \"#utility.yul\":3054:3070   */\n      and\n        /* \"#utility.yul\":3043:3070   */\n      swap1\n      pop\n        /* \"#utility.yul\":2990:3076   */\n      swap2\n      swap1\n      pop\n      jump\t// out\n        /* \"#utility.yul\":3082:3200   */\n    tag_91:\n        /* \"#utility.yul\":3153:3175   */\n      tag_151\n        /* \"#utility.yul\":3169:3174   */\n      dup2\n        /* \"#utility.yul\":3153:3175   */\n      tag_90\n      jump\t// in\n    tag_151:\n        /* \"#utility.yul\":3146:3151   */\n      dup2\n        /* \"#utility.yul\":3143:3176   */\n      eq\n        /* \"#utility.yul\":3133:3194   */\n      tag_152\n      jumpi\n        /* \"#utility.yul\":3190:3191   */\n      0x00\n        /* \"#utility.yul\":3187:3188   */\n      0x00\n        /* \"#utility.yul\":3180:3192   */\n      revert\n        /* \"#utility.yul\":3133:3194   */\n    tag_152:\n        /* \"#utility.yul\":3082:3200   */\n      pop\n      jump\t// out\n        /* \"#utility.yul\":3206:3341   */\n    tag_92:\n        /* \"#utility.yul\":3250:3255   */\n      0x00\n        /* \"#utility.yul\":3288:3294   */\n      dup2\n        /* \"#utility.yul\":3275:3295   */\n      calldataload\n        /* \"#utility.yul\":3266:3295   */\n      swap1\n      pop\n        /* \"#utility.yul\":3304:3335   */\n      tag_154\n        /* \"#utility.yul\":3329:3334   */\n      dup2\n        /* \"#utility.yul\":3304:3335   */\n      tag_91\n      jump\t// in\n    tag_154:\n        /* \"#utility.yul\":3206:3341   */\n      swap3\n      swap2\n      pop\n      pop\n      jump\t// out\n        /* \"#utility.yul\":3347:3672   */\n    tag_28:\n        /* \"#utility.yul\":3404:3410   */\n      0x00\n        /* \"#utility.yul\":3453:3455   */\n      0x20\n        /* \"#utility.yul\":3441:3450   */\n      dup3\n        /* \"#utility.yul\":3432:3439   */\n      dup5\n        /* \"#utility.yul\":3428:3451   */\n      sub\n        /* \"#utility.yul\":3424:3456   */\n      slt\n        /* \"#utility.yul\":3421:3540   */\n      iszero\n      tag_156\n      jumpi\n        /* \"#utility.yul\":3459:3538   */\n      tag_157\n      tag_77\n      jump\t// in\n    tag_157:\n        /* \"#utility.yul\":3421:3540   */\n    tag_156:\n        /* \"#utility.yul\":3579:3580   */\n      0x00\n        /* \"#utility.yul\":3604:3655   */\n      tag_158\n        /* \"#utility.yul\":3647:3654   */\n      dup5\n        /* \"#utility.yul\":3638:3644   */\n      dup3\n        /* \"#utility.yul\":3627:3636   */\n      dup6\n        /* \"#utility.yul\":3623:3645   */\n      add\n        /* \"#utility.yul\":3604:3655   */\n      tag_92\n      jump\t// in\n    tag_158:\n        /* \"#utility.yul\":3594:3655   */\n      swap2\n      pop\n        /* \"#utility.yul\":3550:3665   */\n      pop\n        /* \"#utility.yul\":3347:3672   */\n      swap3\n      swap2\n      pop\n      pop\n      jump\t// out\n        /* \"#utility.yul\":3678:3900   */\n    tag_35:\n        /* \"#utility.yul\":3771:3775   */\n      0x00\n        /* \"#utility.yul\":3809:3811   */\n      0x20\n        /* \"#utility.yul\":3798:3807   */\n      dup3\n        /* \"#utility.yul\":3794:3812   */\n      add\n        /* \"#utility.yul\":3786:3812   */\n      swap1\n      pop\n        /* \"#utility.yul\":3822:3893   */\n      tag_160\n        /* \"#utility.yul\":3890:3891   */\n      0x00\n        /* \"#utility.yul\":3879:3888   */\n      dup4\n        /* \"#utility.yul\":3875:3892   */\n      add\n        /* \"#utility.yul\":3866:3872   */\n      dup5\n        /* \"#utility.yul\":3822:3893   */\n      tag_84\n      jump\t// in\n    tag_160:\n        /* \"#utility.yul\":3678:3900   */\n      swap3\n      swap2\n      pop\n      pop\n      jump\t// out\n        /* \"#utility.yul\":3906:4018   */\n    tag_93:\n        /* \"#utility.yul\":3989:4011   */\n      tag_162\n        /* \"#utility.yul\":4005:4010   */\n      dup2\n        /* \"#utility.yul\":3989:4011   */\n      tag_90\n      jump\t// in\n    tag_162:\n        /* \"#utility.yul\":3984:3987   */\n      dup3\n        /* \"#utility.yul\":3977:4012   */\n      mstore\n        /* \"#utility.yul\":3906:4018   */\n      pop\n      pop\n      jump\t// out\n        /* \"#utility.yul\":4024:4238   */\n    tag_43:\n        /* \"#utility.yul\":4113:4117   */\n      0x00\n        /* \"#utility.yul\":4151:4153   */\n      0x20\n        /* \"#utility.yul\":4140:4149   */\n      dup3\n        /* \"#utility.yul\":4136:4154   */\n      add\n        /* \"#utility.yul\":4128:4154   */\n      swap1\n      pop\n        /* \"#utility.yul\":4164:4231   */\n      tag_164\n        /* \"#utility.yul\":4228:4229   */\n      0x00\n        /* \"#utility.yul\":4217:4226   */\n      dup4\n        /* \"#utility.yul\":4213:4230   */\n      add\n        /* \"#utility.yul\":4204:4210   */\n      dup5\n        /* \"#utility.yul\":4164:4231   */\n      tag_93\n      jump\t// in\n    tag_164:\n        /* \"#utility.yul\":4024:4238   */\n      swap3\n      swap2\n      pop\n      pop\n      jump\t// out\n        /* \"#utility.yul\":4244:4348   */\n    tag_94:\n        /* \"#utility.yul\":4289:4296   */\n      0x00\n        /* \"#utility.yul\":4318:4342   */\n      tag_166\n        /* \"#utility.yul\":4336:4341   */\n      dup3\n        /* \"#utility.yul\":4318:4342   */\n      tag_82\n      jump\t// in\n    tag_166:\n        /* \"#utility.yul\":4307:4342   */\n      swap1\n      pop\n        /* \"#utility.yul\":4244:4348   */\n      swap2\n      swap1\n      pop\n      jump\t// out\n        /* \"#utility.yul\":4354:4496   */\n    tag_95:\n        /* \"#utility.yul\":4457:4489   */\n      tag_168\n        /* \"#utility.yul\":4483:4488   */\n      dup2\n        /* \"#utility.yul\":4457:4489   */\n      tag_94\n      jump\t// in\n    tag_168:\n        /* \"#utility.yul\":4452:4455   */\n      dup3\n        /* \"#utility.yul\":4445:4490   */\n      mstore\n        /* \"#utility.yul\":4354:4496   */\n      pop\n      pop\n      jump\t// out\n        /* \"#utility.yul\":4502:4756   */\n    tag_48:\n        /* \"#utility.yul\":4611:4615   */\n      0x00\n        /* \"#utility.yul\":4649:4651   */\n      0x20\n        /* \"#utility.yul\":4638:4647   */\n      dup3\n        /* \"#utility.yul\":4634:4652   */\n      add\n        /* \"#utility.yul\":4626:4652   */\n      swap1\n      pop\n        /* \"#utility.yul\":4662:4749   */\n      tag_170\n        /* \"#utility.yul\":4746:4747   */\n      0x00\n        /* \"#utility.yul\":4735:4744   */\n      dup4\n        /* \"#utility.yul\":4731:4748   */\n      add\n        /* \"#utility.yul\":4722:4728   */\n      dup5\n        /* \"#utility.yul\":4662:4749   */\n      tag_95\n      jump\t// in\n    tag_170:\n        /* \"#utility.yul\":4502:4756   */\n      swap3\n      swap2\n      pop\n      pop\n      jump\t// out\n        /* \"#utility.yul\":4762:4931   */\n    tag_96:\n        /* \"#utility.yul\":4846:4857   */\n      0x00\n        /* \"#utility.yul\":4880:4886   */\n      dup3\n        /* \"#utility.yul\":4875:4878   */\n      dup3\n        /* \"#utility.yul\":4868:4887   */\n      mstore\n        /* \"#utility.yul\":4920:4924   */\n      0x20\n        /* \"#utility.yul\":4915:4918   */\n      dup3\n        /* \"#utility.yul\":4911:4925   */\n      add\n        /* \"#utility.yul\":4896:4925   */\n      swap1\n      pop\n        /* \"#utility.yul\":4762:4931   */\n      swap3\n      swap2\n      pop\n      pop\n      jump\t// out\n        /* \"#utility.yul\":4937:5103   */\n    tag_97:\n        /* \"#utility.yul\":5077:5095   */\n      0x496e73756666696369656e7420424e4200000000000000000000000000000000\n        /* \"#utility.yul\":5073:5074   */\n      0x00\n        /* \"#utility.yul\":5065:5071   */\n      dup3\n        /* \"#utility.yul\":5061:5075   */\n      add\n        /* \"#utility.yul\":5054:5096   */\n      mstore\n        /* \"#utility.yul\":4937:5103   */\n      pop\n      jump\t// out\n        /* \"#utility.yul\":5109:5475   */\n    tag_98:\n        /* \"#utility.yul\":5251:5254   */\n      0x00\n        /* \"#utility.yul\":5272:5339   */\n      tag_174\n        /* \"#utility.yul\":5336:5338   */\n      0x10\n        /* \"#utility.yul\":5331:5334   */\n      dup4\n        /* \"#utility.yul\":5272:5339   */\n      tag_96\n      jump\t// in\n    tag_174:\n        /* \"#utility.yul\":5265:5339   */\n      swap2\n      pop\n        /* \"#utility.yul\":5348:5441   */\n      tag_175\n        /* \"#utility.yul\":5437:5440   */\n      dup3\n        /* \"#utility.yul\":5348:5441   */\n      tag_97\n      jump\t// in\n    tag_175:\n        /* \"#utility.yul\":5466:5468   */\n      0x20\n        /* \"#utility.yul\":5461:5464   */\n      dup3\n        /* \"#utility.yul\":5457:5469   */\n      add\n        /* \"#utility.yul\":5450:5469   */\n      swap1\n      pop\n        /* \"#utility.yul\":5109:5475   */\n      swap2\n      swap1\n      pop\n      jump\t// out\n        /* \"#utility.yul\":5481:5900   */\n    tag_56:\n        /* \"#utility.yul\":5647:5651   */\n      0x00\n        /* \"#utility.yul\":5685:5687   */\n      0x20\n        /* \"#utility.yul\":5674:5683   */\n      dup3\n        /* \"#utility.yul\":5670:5688   */\n      add\n        /* \"#utility.yul\":5662:5688   */\n      swap1\n      pop\n        /* \"#utility.yul\":5734:5743   */\n      dup2\n        /* \"#utility.yul\":5728:5732   */\n      dup2\n        /* \"#utility.yul\":5724:5744   */\n      sub\n        /* \"#utility.yul\":5720:5721   */\n      0x00\n        /* \"#utility.yul\":5709:5718   */\n      dup4\n        /* \"#utility.yul\":5705:5722   */\n      add\n        /* \"#utility.yul\":5698:5745   */\n      mstore\n        /* \"#utility.yul\":5762:5893   */\n      tag_177\n        /* \"#utility.yul\":5888:5892   */\n      dup2\n        /* \"#utility.yul\":5762:5893   */\n      tag_98\n      jump\t// in\n    tag_177:\n        /* \"#utility.yul\":5754:5893   */\n      swap1\n      pop\n        /* \"#utility.yul\":5481:5900   */\n      swap2\n      swap1\n      pop\n      jump\t// out\n        /* \"#utility.yul\":5906:6053   */\n    tag_99:\n        /* \"#utility.yul\":6007:6018   */\n      0x00\n        /* \"#utility.yul\":6044:6047   */\n      dup2\n        /* \"#utility.yul\":6029:6047   */\n      swap1\n      pop\n        /* \"#utility.yul\":5906:6053   */\n      swap3\n      swap2\n      pop\n      pop\n      jump\t// out\n        /* \"#utility.yul\":6059:6173   */\n    tag_100:\n      pop\n      jump\t// out\n        /* \"#utility.yul\":6179:6577   */\n    tag_101:\n        /* \"#utility.yul\":6338:6341   */\n      0x00\n        /* \"#utility.yul\":6359:6442   */\n      tag_181\n        /* \"#utility.yul\":6440:6441   */\n      0x00\n        /* \"#utility.yul\":6435:6438   */\n      dup4\n        /* \"#utility.yul\":6359:6442   */\n      tag_99\n      jump\t// in\n    tag_181:\n        /* \"#utility.yul\":6352:6442   */\n      swap2\n      pop\n        /* \"#utility.yul\":6451:6544   */\n      tag_182\n        /* \"#utility.yul\":6540:6543   */\n      dup3\n        /* \"#utility.yul\":6451:6544   */\n      tag_100\n      jump\t// in\n    tag_182:\n        /* \"#utility.yul\":6569:6570   */\n      0x00\n        /* \"#utility.yul\":6564:6567   */\n      dup3\n        /* \"#utility.yul\":6560:6571   */\n      add\n        /* \"#utility.yul\":6553:6571   */\n      swap1\n      pop\n        /* \"#utility.yul\":6179:6577   */\n      swap2\n      swap1\n      pop\n      jump\t// out\n        /* \"#utility.yul\":6583:6962   */\n    tag_58:\n        /* \"#utility.yul\":6767:6770   */\n      0x00\n        /* \"#utility.yul\":6789:6936   */\n      tag_184\n        /* \"#utility.yul\":6932:6935   */\n      dup3\n        /* \"#utility.yul\":6789:6936   */\n      tag_101\n      jump\t// in\n    tag_184:\n        /* \"#utility.yul\":6782:6936   */\n      swap2\n      pop\n        /* \"#utility.yul\":6953:6956   */\n      dup2\n        /* \"#utility.yul\":6946:6956   */\n      swap1\n      pop\n        /* \"#utility.yul\":6583:6962   */\n      swap2\n      swap1\n      pop\n      jump\t// out\n        /* \"#utility.yul\":6968:7188   */\n    tag_102:\n        /* \"#utility.yul\":7108:7142   */\n      0x5472616e7366657220746f20707269636520636f6e7472616374206661696c65\n        /* \"#utility.yul\":7104:7105   */\n      0x00\n        /* \"#utility.yul\":7096:7102   */\n      dup3\n        /* \"#utility.yul\":7092:7106   */\n      add\n        /* \"#utility.yul\":7085:7143   */\n      mstore\n        /* \"#utility.yul\":7177:7180   */\n      0x6400000000000000000000000000000000000000000000000000000000000000\n        /* \"#utility.yul\":7172:7174   */\n      0x20\n        /* \"#utility.yul\":7164:7170   */\n      dup3\n        /* \"#utility.yul\":7160:7175   */\n      add\n        /* \"#utility.yul\":7153:7181   */\n      mstore\n        /* \"#utility.yul\":6968:7188   */\n      pop\n      jump\t// out\n        /* \"#utility.yul\":7194:7560   */\n    tag_103:\n        /* \"#utility.yul\":7336:7339   */\n      0x00\n        /* \"#utility.yul\":7357:7424   */\n      tag_187\n        /* \"#utility.yul\":7421:7423   */\n      0x21\n        /* \"#utility.yul\":7416:7419   */\n      dup4\n        /* \"#utility.yul\":7357:7424   */\n      tag_96\n      jump\t// in\n    tag_187:\n        /* \"#utility.yul\":7350:7424   */\n      swap2\n      pop\n        /* \"#utility.yul\":7433:7526   */\n      tag_188\n        /* \"#utility.yul\":7522:7525   */\n      dup3\n        /* \"#utility.yul\":7433:7526   */\n      tag_102\n      jump\t// in\n    tag_188:\n        /* \"#utility.yul\":7551:7553   */\n      0x40\n        /* \"#utility.yul\":7546:7549   */\n      dup3\n        /* \"#utility.yul\":7542:7554   */\n      add\n        /* \"#utility.yul\":7535:7554   */\n      swap1\n      pop\n        /* \"#utility.yul\":7194:7560   */\n      swap2\n      swap1\n      pop\n      jump\t// out\n        /* \"#utility.yul\":7566:7985   */\n    tag_64:\n        /* \"#utility.yul\":7732:7736   */\n      0x00\n        /* \"#utility.yul\":7770:7772   */\n      0x20\n        /* \"#utility.yul\":7759:7768   */\n      dup3\n        /* \"#utility.yul\":7755:7773   */\n      add\n        /* \"#utility.yul\":7747:7773   */\n      swap1\n      pop\n        /* \"#utility.yul\":7819:7828   */\n      dup2\n        /* \"#utility.yul\":7813:7817   */\n      dup2\n        /* \"#utility.yul\":7809:7829   */\n      sub\n        /* \"#utility.yul\":7805:7806   */\n      0x00\n        /* \"#utility.yul\":7794:7803   */\n      dup4\n        /* \"#utility.yul\":7790:7807   */\n      add\n        /* \"#utility.yul\":7783:7830   */\n      mstore\n        /* \"#utility.yul\":7847:7978   */\n      tag_190\n        /* \"#utility.yul\":7973:7977   */\n      dup2\n        /* \"#utility.yul\":7847:7978   */\n      tag_103\n      jump\t// in\n    tag_190:\n        /* \"#utility.yul\":7839:7978   */\n      swap1\n      pop\n        /* \"#utility.yul\":7566:7985   */\n      swap2\n      swap1\n      pop\n      jump\t// out\n        /* \"#utility.yul\":7991:8089   */\n    tag_104:\n        /* \"#utility.yul\":8042:8048   */\n      0x00\n        /* \"#utility.yul\":8076:8081   */\n      dup2\n        /* \"#utility.yul\":8070:8082   */\n      mload\n        /* \"#utility.yul\":8060:8082   */\n      swap1\n      pop\n        /* \"#utility.yul\":7991:8089   */\n      swap2\n      swap1\n      pop\n      jump\t// out\n        /* \"#utility.yul\":8095:8234   */\n    tag_105:\n        /* \"#utility.yul\":8184:8190   */\n      dup3\n        /* \"#utility.yul\":8179:8182   */\n      dup2\n        /* \"#utility.yul\":8174:8177   */\n      dup4\n        /* \"#utility.yul\":8168:8191   */\n      mcopy\n        /* \"#utility.yul\":8225:8226   */\n      0x00\n        /* \"#utility.yul\":8216:8222   */\n      dup4\n        /* \"#utility.yul\":8211:8214   */\n      dup4\n        /* \"#utility.yul\":8207:8223   */\n      add\n        /* \"#utility.yul\":8200:8227   */\n      mstore\n        /* \"#utility.yul\":8095:8234   */\n      pop\n      pop\n      pop\n      jump\t// out\n        /* \"#utility.yul\":8240:8626   */\n    tag_106:\n        /* \"#utility.yul\":8344:8347   */\n      0x00\n        /* \"#utility.yul\":8372:8410   */\n      tag_194\n        /* \"#utility.yul\":8404:8409   */\n      dup3\n        /* \"#utility.yul\":8372:8410   */\n      tag_104\n      jump\t// in\n    tag_194:\n        /* \"#utility.yul\":8426:8514   */\n      tag_195\n        /* \"#utility.yul\":8507:8513   */\n      dup2\n        /* \"#utility.yul\":8502:8505   */\n      dup6\n        /* \"#utility.yul\":8426:8514   */\n      tag_99\n      jump\t// in\n    tag_195:\n        /* \"#utility.yul\":8419:8514   */\n      swap4\n      pop\n        /* \"#utility.yul\":8523:8588   */\n      tag_196\n        /* \"#utility.yul\":8581:8587   */\n      dup2\n        /* \"#utility.yul\":8576:8579   */\n      dup6\n        /* \"#utility.yul\":8569:8573   */\n      0x20\n        /* \"#utility.yul\":8562:8567   */\n      dup7\n        /* \"#utility.yul\":8558:8574   */\n      add\n        /* \"#utility.yul\":8523:8588   */\n      tag_105\n      jump\t// in\n    tag_196:\n        /* \"#utility.yul\":8613:8619   */\n      dup1\n        /* \"#utility.yul\":8608:8611   */\n      dup5\n        /* \"#utility.yul\":8604:8620   */\n      add\n        /* \"#utility.yul\":8597:8620   */\n      swap2\n      pop\n        /* \"#utility.yul\":8348:8626   */\n      pop\n        /* \"#utility.yul\":8240:8626   */\n      swap3\n      swap2\n      pop\n      pop\n      jump\t// out\n        /* \"#utility.yul\":8632:8903   */\n    tag_67:\n        /* \"#utility.yul\":8762:8765   */\n      0x00\n        /* \"#utility.yul\":8784:8877   */\n      tag_198\n        /* \"#utility.yul\":8873:8876   */\n      dup3\n        /* \"#utility.yul\":8864:8870   */\n      dup5\n        /* \"#utility.yul\":8784:8877   */\n      tag_106\n      jump\t// in\n    tag_198:\n        /* \"#utility.yul\":8777:8877   */\n      swap2\n      pop\n        /* \"#utility.yul\":8894:8897   */\n      dup2\n        /* \"#utility.yul\":8887:8897   */\n      swap1\n      pop\n        /* \"#utility.yul\":8632:8903   */\n      swap3\n      swap2\n      pop\n      pop\n      jump\t// out\n        /* \"#utility.yul\":8909:9078   */\n    tag_107:\n        /* \"#utility.yul\":9049:9070   */\n      0x4661696c656420746f2067657420707269636500000000000000000000000000\n        /* \"#utility.yul\":9045:9046   */\n      0x00\n        /* \"#utility.yul\":9037:9043   */\n      dup3\n        /* \"#utility.yul\":9033:9047   */\n      add\n        /* \"#utility.yul\":9026:9071   */\n      mstore\n        /* \"#utility.yul\":8909:9078   */\n      pop\n      jump\t// out\n        /* \"#utility.yul\":9084:9450   */\n    tag_108:\n        /* \"#utility.yul\":9226:9229   */\n      0x00\n        /* \"#utility.yul\":9247:9314   */\n      tag_201\n        /* \"#utility.yul\":9311:9313   */\n      0x13\n        /* \"#utility.yul\":9306:9309   */\n      dup4\n        /* \"#utility.yul\":9247:9314   */\n      tag_96\n      jump\t// in\n    tag_201:\n        /* \"#utility.yul\":9240:9314   */\n      swap2\n      pop\n        /* \"#utility.yul\":9323:9416   */\n      tag_202\n        /* \"#utility.yul\":9412:9415   */\n      dup3\n        /* \"#utility.yul\":9323:9416   */\n      tag_107\n      jump\t// in\n    tag_202:\n        /* \"#utility.yul\":9441:9443   */\n      0x20\n        /* \"#utility.yul\":9436:9439   */\n      dup3\n        /* \"#utility.yul\":9432:9444   */\n      add\n        /* \"#utility.yul\":9425:9444   */\n      swap1\n      pop\n        /* \"#utility.yul\":9084:9450   */\n      swap2\n      swap1\n      pop\n      jump\t// out\n        /* \"#utility.yul\":9456:9875   */\n    tag_73:\n        /* \"#utility.yul\":9622:9626   */\n      0x00\n        /* \"#utility.yul\":9660:9662   */\n      0x20\n        /* \"#utility.yul\":9649:9658   */\n      dup3\n        /* \"#utility.yul\":9645:9663   */\n      add\n        /* \"#utility.yul\":9637:9663   */\n      swap1\n      pop\n        /* \"#utility.yul\":9709:9718   */\n      dup2\n        /* \"#utility.yul\":9703:9707   */\n      dup2\n        /* \"#utility.yul\":9699:9719   */\n      sub\n        /* \"#utility.yul\":9695:9696   */\n      0x00\n        /* \"#utility.yul\":9684:9693   */\n      dup4\n        /* \"#utility.yul\":9680:9697   */\n      add\n        /* \"#utility.yul\":9673:9720   */\n      mstore\n        /* \"#utility.yul\":9737:9868   */\n      tag_204\n        /* \"#utility.yul\":9863:9867   */\n      dup2\n        /* \"#utility.yul\":9737:9868   */\n      tag_108\n      jump\t// in\n    tag_204:\n        /* \"#utility.yul\":9729:9868   */\n      swap1\n      pop\n        /* \"#utility.yul\":9456:9875   */\n      swap2\n      swap1\n      pop\n      jump\t// out\n        /* \"#utility.yul\":9881:10024   */\n    tag_109:\n        /* \"#utility.yul\":9938:9943   */\n      0x00\n        /* \"#utility.yul\":9969:9975   */\n      dup2\n        /* \"#utility.yul\":9963:9976   */\n      mload\n        /* \"#utility.yul\":9954:9976   */\n      swap1\n      pop\n        /* \"#utility.yul\":9985:10018   */\n      tag_206\n        /* \"#utility.yul\":10012:10017   */\n      dup2\n        /* \"#utility.yul\":9985:10018   */\n      tag_80\n      jump\t// in\n    tag_206:\n        /* \"#utility.yul\":9881:10024   */\n      swap3\n      swap2\n      pop\n      pop\n      jump\t// out\n        /* \"#utility.yul\":10030:10381   */\n    tag_75:\n        /* \"#utility.yul\":10100:10106   */\n      0x00\n        /* \"#utility.yul\":10149:10151   */\n      0x20\n        /* \"#utility.yul\":10137:10146   */\n      dup3\n        /* \"#utility.yul\":10128:10135   */\n      dup5\n        /* \"#utility.yul\":10124:10147   */\n      sub\n        /* \"#utility.yul\":10120:10152   */\n      slt\n        /* \"#utility.yul\":10117:10236   */\n      iszero\n      tag_208\n      jumpi\n        /* \"#utility.yul\":10155:10234   */\n      tag_209\n      tag_77\n      jump\t// in\n    tag_209:\n        /* \"#utility.yul\":10117:10236   */\n    tag_208:\n        /* \"#utility.yul\":10275:10276   */\n      0x00\n        /* \"#utility.yul\":10300:10364   */\n      tag_210\n        /* \"#utility.yul\":10356:10363   */\n      dup5\n        /* \"#utility.yul\":10347:10353   */\n      dup3\n        /* \"#utility.yul\":10336:10345   */\n      dup6\n        /* \"#utility.yul\":10332:10354   */\n      add\n        /* \"#utility.yul\":10300:10364   */\n      tag_109\n      jump\t// in\n    tag_210:\n        /* \"#utility.yul\":10290:10364   */\n      swap2\n      pop\n        /* \"#utility.yul\":10246:10374   */\n      pop\n        /* \"#utility.yul\":10030:10381   */\n      swap3\n      swap2\n      pop\n      pop\n      jump\t// out\n\n    auxdata: 0xa2646970667358221220e979ec539a9ad7ccb9d181407cdf3df7b74c7966c6eaaf5c513b52815ea3019664736f6c634300081e0033\n}\n",
				"bytecode": {
					"linkReferences": {},
					"object": "608060405234801561000f575f5ffd5b50604051610b8c380380610b8c8339818101604052810190610031919061012f565b3360015f6101000a81548173ffffffffffffffffffffffffffffffffffffffff021916908373ffffffffffffffffffffffffffffffffffffffff1602179055505f600160156101000a81548160ff021916908360ff160217905550805f5f6101000a81548173ffffffffffffffffffffffffffffffffffffffff021916908373ffffffffffffffffffffffffffffffffffffffff1602179055505061015a565b5f5ffd5b5f73ffffffffffffffffffffffffffffffffffffffff82169050919050565b5f6100fe826100d5565b9050919050565b61010e816100f4565b8114610118575f5ffd5b50565b5f8151905061012981610105565b92915050565b5f60208284031215610144576101436100d1565b5b5f6101518482850161011b565b91505092915050565b610a25806101675f395ff3fe60806040526004361061007a575f3560e01c806398d5fdca1161004d57806398d5fdca1461015e578063ae2430311461017c578063ae372ec1146101a6578063bff1f9e1146101d05761007a565b8063365b98b21461007e578063376fe102146100bc578063556a7579146100f85780638da5cb5b14610134575b5f5ffd5b348015610089575f5ffd5b506100a4600480360381019061009f9190610592565b6101fa565b6040516100b393929190610625565b60405180910390f35b3480156100c7575f5ffd5b506100e260048036038101906100dd9190610684565b61024b565b6040516100ef91906106af565b60405180910390f35b348015610103575f5ffd5b5061011e600480360381019061011991906106fe565b610260565b60405161012b91906106af565b60405180910390f35b34801561013f575f5ffd5b50610148610275565b6040516101559190610729565b60405180910390f35b61016661029a565b60405161017391906106af565b60405180910390f35b348015610187575f5ffd5b5061019061051e565b60405161019d9190610751565b60405180910390f35b3480156101b1575f5ffd5b506101ba610531565b6040516101c7919061078a565b60405180910390f35b3480156101db575f5ffd5b506101e4610555565b6040516101f191906106af565b60405180910390f35b6005602052805f5260405f205f91509050805f015f9054906101000a900473ffffffffffffffffffffffffffffffffffffffff1690806001015490806002015f9054906101000a900460ff16905083565b6004602052805f5260405f205f915090505481565b6002602052805f5260405f205f915090505481565b60015f9054906101000a900473ffffffffffffffffffffffffffffffffffffffff1681565b5f655af3107a40003410156102e4576040517f08c379a00000000000000000000000000000000000000000000000000000000081526004016102db906107fd565b60405180910390fd5b5f5f5f9054906101000a900473ffffffffffffffffffffffffffffffffffffffff1673ffffffffffffffffffffffffffffffffffffffff163460405161032990610848565b5f6040518083038185875af1925050503d805f8114610363576040519150601f19603f3d011682016040523d82523d5f602084013e610368565b606091505b50509050806103ac576040517f08c379a00000000000000000000000000000000000000000000000000000000081526004016103a3906108cc565b60405180910390fd5b5f5f5f5f9054906101000a900473ffffffffffffffffffffffffffffffffffffffff1673ffffffffffffffffffffffffffffffffffffffff16336040516024016103f69190610729565b6040516020818303038152906040527fed9b8d50000000000000000000000000000000000000000000000000000000007bffffffffffffffffffffffffffffffffffffffffffffffffffffffff19166020820180517bffffffffffffffffffffffffffffffffffffffffffffffffffffffff83818316178352505050506040516104809190610932565b5f60405180830381855afa9150503d805f81146104b8576040519150601f19603f3d011682016040523d82523d5f602084013e6104bd565b606091505b509150915081610502576040517f08c379a00000000000000000000000000000000000000000000000000000000081526004016104f990610992565b60405180910390fd5b8080602001905181019061051691906109c4565b935050505090565b600160159054906101000a900460ff1681565b5f5f9054906101000a900473ffffffffffffffffffffffffffffffffffffffff1681565b60035481565b5f5ffd5b5f819050919050565b6105718161055f565b811461057b575f5ffd5b50565b5f8135905061058c81610568565b92915050565b5f602082840312156105a7576105a661055b565b5b5f6105b48482850161057e565b91505092915050565b5f73ffffffffffffffffffffffffffffffffffffffff82169050919050565b5f6105e6826105bd565b9050919050565b6105f6816105dc565b82525050565b6106058161055f565b82525050565b5f8115159050919050565b61061f8161060b565b82525050565b5f6060820190506106385f8301866105ed565b61064560208301856105fc565b6106526040830184610616565b949350505050565b610663816105dc565b811461066d575f5ffd5b50565b5f8135905061067e8161065a565b92915050565b5f602082840312156106995761069861055b565b5b5f6106a684828501610670565b91505092915050565b5f6020820190506106c25f8301846105fc565b92915050565b5f60ff82169050919050565b6106dd816106c8565b81146106e7575f5ffd5b50565b5f813590506106f8816106d4565b92915050565b5f602082840312156107135761071261055b565b5b5f610720848285016106ea565b91505092915050565b5f60208201905061073c5f8301846105ed565b92915050565b61074b816106c8565b82525050565b5f6020820190506107645f830184610742565b92915050565b5f610774826105bd565b9050919050565b6107848161076a565b82525050565b5f60208201905061079d5f83018461077b565b92915050565b5f82825260208201905092915050565b7f496e73756666696369656e7420424e42000000000000000000000000000000005f82015250565b5f6107e76010836107a3565b91506107f2826107b3565b602082019050919050565b5f6020820190508181035f830152610814816107db565b9050919050565b5f81905092915050565b50565b5f6108335f8361081b565b915061083e82610825565b5f82019050919050565b5f61085282610828565b9150819050919050565b7f5472616e7366657220746f20707269636520636f6e7472616374206661696c655f8201527f6400000000000000000000000000000000000000000000000000000000000000602082015250565b5f6108b66021836107a3565b91506108c18261085c565b604082019050919050565b5f6020820190508181035f8301526108e3816108aa565b9050919050565b5f81519050919050565b8281835e5f83830152505050565b5f61090c826108ea565b610916818561081b565b93506109268185602086016108f4565b80840191505092915050565b5f61093d8284610902565b915081905092915050565b7f4661696c656420746f20676574207072696365000000000000000000000000005f82015250565b5f61097c6013836107a3565b915061098782610948565b602082019050919050565b5f6020820190508181035f8301526109a981610970565b9050919050565b5f815190506109be81610568565b92915050565b5f602082840312156109d9576109d861055b565b5b5f6109e6848285016109b0565b9150509291505056fea2646970667358221220e979ec539a9ad7ccb9d181407cdf3df7b74c7966c6eaaf5c513b52815ea3019664736f6c634300081e0033",
					"opcodes": "PUSH1 0x80 PUSH1 0x40 MSTORE CALLVALUE DUP1 ISZERO PUSH2 0xF JUMPI PUSH0 PUSH0 REVERT JUMPDEST POP PUSH1 0x40 MLOAD PUSH2 0xB8C CODESIZE SUB DUP1 PUSH2 0xB8C DUP4 CODECOPY DUP2 DUP2 ADD PUSH1 0x40 MSTORE DUP2 ADD SWAP1 PUSH2 0x31 SWAP2 SWAP1 PUSH2 0x12F JUMP JUMPDEST CALLER PUSH1 0x1 PUSH0 PUSH2 0x100 EXP DUP2 SLOAD DUP2 PUSH20 0xFFFFFFFFFFFFFFFFFFFFFFFFFFFFFFFFFFFFFFFF MUL NOT AND SWAP1 DUP4 PUSH20 0xFFFFFFFFFFFFFFFFFFFFFFFFFFFFFFFFFFFFFFFF AND MUL OR SWAP1 SSTORE POP PUSH0 PUSH1 0x1 PUSH1 0x15 PUSH2 0x100 EXP DUP2 SLOAD DUP2 PUSH1 0xFF MUL NOT AND SWAP1 DUP4 PUSH1 0xFF AND MUL OR SWAP1 SSTORE POP DUP1 PUSH0 PUSH0 PUSH2 0x100 EXP DUP2 SLOAD DUP2 PUSH20 0xFFFFFFFFFFFFFFFFFFFFFFFFFFFFFFFFFFFFFFFF MUL NOT AND SWAP1 DUP4 PUSH20 0xFFFFFFFFFFFFFFFFFFFFFFFFFFFFFFFFFFFFFFFF AND MUL OR SWAP1 SSTORE POP POP PUSH2 0x15A JUMP JUMPDEST PUSH0 PUSH0 REVERT JUMPDEST PUSH0 PUSH20 0xFFFFFFFFFFFFFFFFFFFFFFFFFFFFFFFFFFFFFFFF DUP3 AND SWAP1 POP SWAP2 SWAP1 POP JUMP JUMPDEST PUSH0 PUSH2 0xFE DUP3 PUSH2 0xD5 JUMP JUMPDEST SWAP1 POP SWAP2 SWAP1 POP JUMP JUMPDEST PUSH2 0x10E DUP2 PUSH2 0xF4 JUMP JUMPDEST DUP2 EQ PUSH2 0x118 JUMPI PUSH0 PUSH0 REVERT JUMPDEST POP JUMP JUMPDEST PUSH0 DUP2 MLOAD SWAP1 POP PUSH2 0x129 DUP2 PUSH2 0x105 JUMP JUMPDEST SWAP3 SWAP2 POP POP JUMP JUMPDEST PUSH0 PUSH1 0x20 DUP3 DUP5 SUB SLT ISZERO PUSH2 0x144 JUMPI PUSH2 0x143 PUSH2 0xD1 JUMP JUMPDEST JUMPDEST PUSH0 PUSH2 0x151 DUP5 DUP3 DUP6 ADD PUSH2 0x11B JUMP JUMPDEST SWAP2 POP POP SWAP3 SWAP2 POP POP JUMP JUMPDEST PUSH2 0xA25 DUP1 PUSH2 0x167 PUSH0 CODECOPY PUSH0 RETURN INVALID PUSH1 0x80 PUSH1 0x40 MSTORE PUSH1 0x4 CALLDATASIZE LT PUSH2 0x7A JUMPI PUSH0 CALLDATALOAD PUSH1 0xE0 SHR DUP1 PUSH4 0x98D5FDCA GT PUSH2 0x4D JUMPI DUP1 PUSH4 0x98D5FDCA EQ PUSH2 0x15E JUMPI DUP1 PUSH4 0xAE243031 EQ PUSH2 0x17C JUMPI DUP1 PUSH4 0xAE372EC1 EQ PUSH2 0x1A6 JUMPI DUP1 PUSH4 0xBFF1F9E1 EQ PUSH2 0x1D0 JUMPI PUSH2 0x7A JUMP JUMPDEST DUP1 PUSH4 0x365B98B2 EQ PUSH2 0x7E JUMPI DUP1 PUSH4 0x376FE102 EQ PUSH2 0xBC JUMPI DUP1 PUSH4 0x556A7579 EQ PUSH2 0xF8 JUMPI DUP1 PUSH4 0x8DA5CB5B EQ PUSH2 0x134 JUMPI JUMPDEST PUSH0 PUSH0 REVERT JUMPDEST CALLVALUE DUP1 ISZERO PUSH2 0x89 JUMPI PUSH0 PUSH0 REVERT JUMPDEST POP PUSH2 0xA4 PUSH1 0x4 DUP1 CALLDATASIZE SUB DUP2 ADD SWAP1 PUSH2 0x9F SWAP2 SWAP1 PUSH2 0x592 JUMP JUMPDEST PUSH2 0x1FA JUMP JUMPDEST PUSH1 0x40 MLOAD PUSH2 0xB3 SWAP4 SWAP3 SWAP2 SWAP1 PUSH2 0x625 JUMP JUMPDEST PUSH1 0x40 MLOAD DUP1 SWAP2 SUB SWAP1 RETURN JUMPDEST CALLVALUE DUP1 ISZERO PUSH2 0xC7 JUMPI PUSH0 PUSH0 REVERT JUMPDEST POP PUSH2 0xE2 PUSH1 0x4 DUP1 CALLDATASIZE SUB DUP2 ADD SWAP1 PUSH2 0xDD SWAP2 SWAP1 PUSH2 0x684 JUMP JUMPDEST PUSH2 0x24B JUMP JUMPDEST PUSH1 0x40 MLOAD PUSH2 0xEF SWAP2 SWAP1 PUSH2 0x6AF JUMP JUMPDEST PUSH1 0x40 MLOAD DUP1 SWAP2 SUB SWAP1 RETURN JUMPDEST CALLVALUE DUP1 ISZERO PUSH2 0x103 JUMPI PUSH0 PUSH0 REVERT JUMPDEST POP PUSH2 0x11E PUSH1 0x4 DUP1 CALLDATASIZE SUB DUP2 ADD SWAP1 PUSH2 0x119 SWAP2 SWAP1 PUSH2 0x6FE JUMP JUMPDEST PUSH2 0x260 JUMP JUMPDEST PUSH1 0x40 MLOAD PUSH2 0x12B SWAP2 SWAP1 PUSH2 0x6AF JUMP JUMPDEST PUSH1 0x40 MLOAD DUP1 SWAP2 SUB SWAP1 RETURN JUMPDEST CALLVALUE DUP1 ISZERO PUSH2 0x13F JUMPI PUSH0 PUSH0 REVERT JUMPDEST POP PUSH2 0x148 PUSH2 0x275 JUMP JUMPDEST PUSH1 0x40 MLOAD PUSH2 0x155 SWAP2 SWAP1 PUSH2 0x729 JUMP JUMPDEST PUSH1 0x40 MLOAD DUP1 SWAP2 SUB SWAP1 RETURN JUMPDEST PUSH2 0x166 PUSH2 0x29A JUMP JUMPDEST PUSH1 0x40 MLOAD PUSH2 0x173 SWAP2 SWAP1 PUSH2 0x6AF JUMP JUMPDEST PUSH1 0x40 MLOAD DUP1 SWAP2 SUB SWAP1 RETURN JUMPDEST CALLVALUE DUP1 ISZERO PUSH2 0x187 JUMPI PUSH0 PUSH0 REVERT JUMPDEST POP PUSH2 0x190 PUSH2 0x51E JUMP JUMPDEST PUSH1 0x40 MLOAD PUSH2 0x19D SWAP2 SWAP1 PUSH2 0x751 JUMP JUMPDEST PUSH1 0x40 MLOAD DUP1 SWAP2 SUB SWAP1 RETURN JUMPDEST CALLVALUE DUP1 ISZERO PUSH2 0x1B1 JUMPI PUSH0 PUSH0 REVERT JUMPDEST POP PUSH2 0x1BA PUSH2 0x531 JUMP JUMPDEST PUSH1 0x40 MLOAD PUSH2 0x1C7 SWAP2 SWAP1 PUSH2 0x78A JUMP JUMPDEST PUSH1 0x40 MLOAD DUP1 SWAP2 SUB SWAP1 RETURN JUMPDEST CALLVALUE DUP1 ISZERO PUSH2 0x1DB JUMPI PUSH0 PUSH0 REVERT JUMPDEST POP PUSH2 0x1E4 PUSH2 0x555 JUMP JUMPDEST PUSH1 0x40 MLOAD PUSH2 0x1F1 SWAP2 SWAP1 PUSH2 0x6AF JUMP JUMPDEST PUSH1 0x40 MLOAD DUP1 SWAP2 SUB SWAP1 RETURN JUMPDEST PUSH1 0x5 PUSH1 0x20 MSTORE DUP1 PUSH0 MSTORE PUSH1 0x40 PUSH0 KECCAK256 PUSH0 SWAP2 POP SWAP1 POP DUP1 PUSH0 ADD PUSH0 SWAP1 SLOAD SWAP1 PUSH2 0x100 EXP SWAP1 DIV PUSH20 0xFFFFFFFFFFFFFFFFFFFFFFFFFFFFFFFFFFFFFFFF AND SWAP1 DUP1 PUSH1 0x1 ADD SLOAD SWAP1 DUP1 PUSH1 0x2 ADD PUSH0 SWAP1 SLOAD SWAP1 PUSH2 0x100 EXP SWAP1 DIV PUSH1 0xFF AND SWAP1 POP DUP4 JUMP JUMPDEST PUSH1 0x4 PUSH1 0x20 MSTORE DUP1 PUSH0 MSTORE PUSH1 0x40 PUSH0 KECCAK256 PUSH0 SWAP2 POP SWAP1 POP SLOAD DUP2 JUMP JUMPDEST PUSH1 0x2 PUSH1 0x20 MSTORE DUP1 PUSH0 MSTORE PUSH1 0x40 PUSH0 KECCAK256 PUSH0 SWAP2 POP SWAP1 POP SLOAD DUP2 JUMP JUMPDEST PUSH1 0x1 PUSH0 SWAP1 SLOAD SWAP1 PUSH2 0x100 EXP SWAP1 DIV PUSH20 0xFFFFFFFFFFFFFFFFFFFFFFFFFFFFFFFFFFFFFFFF AND DUP2 JUMP JUMPDEST PUSH0 PUSH6 0x5AF3107A4000 CALLVALUE LT ISZERO PUSH2 0x2E4 JUMPI PUSH1 0x40 MLOAD PUSH32 0x8C379A000000000000000000000000000000000000000000000000000000000 DUP2 MSTORE PUSH1 0x4 ADD PUSH2 0x2DB SWAP1 PUSH2 0x7FD JUMP JUMPDEST PUSH1 0x40 MLOAD DUP1 SWAP2 SUB SWAP1 REVERT JUMPDEST PUSH0 PUSH0 PUSH0 SWAP1 SLOAD SWAP1 PUSH2 0x100 EXP SWAP1 DIV PUSH20 0xFFFFFFFFFFFFFFFFFFFFFFFFFFFFFFFFFFFFFFFF AND PUSH20 0xFFFFFFFFFFFFFFFFFFFFFFFFFFFFFFFFFFFFFFFF AND CALLVALUE PUSH1 0x40 MLOAD PUSH2 0x329 SWAP1 PUSH2 0x848 JUMP JUMPDEST PUSH0 PUSH1 0x40 MLOAD DUP1 DUP4 SUB DUP2 DUP6 DUP8 GAS CALL SWAP3 POP POP POP RETURNDATASIZE DUP1 PUSH0 DUP2 EQ PUSH2 0x363 JUMPI PUSH1 0x40 MLOAD SWAP2 POP PUSH1 0x1F NOT PUSH1 0x3F RETURNDATASIZE ADD AND DUP3 ADD PUSH1 0x40 MSTORE RETURNDATASIZE DUP3 MSTORE RETURNDATASIZE PUSH0 PUSH1 0x20 DUP5 ADD RETURNDATACOPY PUSH2 0x368 JUMP JUMPDEST PUSH1 0x60 SWAP2 POP JUMPDEST POP POP SWAP1 POP DUP1 PUSH2 0x3AC JUMPI PUSH1 0x40 MLOAD PUSH32 0x8C379A000000000000000000000000000000000000000000000000000000000 DUP2 MSTORE PUSH1 0x4 ADD PUSH2 0x3A3 SWAP1 PUSH2 0x8CC JUMP JUMPDEST PUSH1 0x40 MLOAD DUP1 SWAP2 SUB SWAP1 REVERT JUMPDEST PUSH0 PUSH0 PUSH0 PUSH0 SWAP1 SLOAD SWAP1 PUSH2 0x100 EXP SWAP1 DIV PUSH20 0xFFFFFFFFFFFFFFFFFFFFFFFFFFFFFFFFFFFFFFFF AND PUSH20 0xFFFFFFFFFFFFFFFFFFFFFFFFFFFFFFFFFFFFFFFF AND CALLER PUSH1 0x40 MLOAD PUSH1 0x24 ADD PUSH2 0x3F6 SWAP2 SWAP1 PUSH2 0x729 JUMP JUMPDEST PUSH1 0x40 MLOAD PUSH1 0x20 DUP2 DUP4 SUB SUB DUP2 MSTORE SWAP1 PUSH1 0x40 MSTORE PUSH32 0xED9B8D5000000000000000000000000000000000000000000000000000000000 PUSH28 0xFFFFFFFFFFFFFFFFFFFFFFFFFFFFFFFFFFFFFFFFFFFFFFFFFFFFFFFF NOT AND PUSH1 0x20 DUP3 ADD DUP1 MLOAD PUSH28 0xFFFFFFFFFFFFFFFFFFFFFFFFFFFFFFFFFFFFFFFFFFFFFFFFFFFFFFFF DUP4 DUP2 DUP4 AND OR DUP4 MSTORE POP POP POP POP PUSH1 0x40 MLOAD PUSH2 0x480 SWAP2 SWAP1 PUSH2 0x932 JUMP JUMPDEST PUSH0 PUSH1 0x40 MLOAD DUP1 DUP4 SUB DUP2 DUP6 GAS STATICCALL SWAP2 POP POP RETURNDATASIZE DUP1 PUSH0 DUP2 EQ PUSH2 0x4B8 JUMPI PUSH1 0x40 MLOAD SWAP2 POP PUSH1 0x1F NOT PUSH1 0x3F RETURNDATASIZE ADD AND DUP3 ADD PUSH1 0x40 MSTORE RETURNDATASIZE DUP3 MSTORE RETURNDATASIZE PUSH0 PUSH1 0x20 DUP5 ADD RETURNDATACOPY PUSH2 0x4BD JUMP JUMPDEST PUSH1 0x60 SWAP2 POP JUMPDEST POP SWAP2 POP SWAP2 POP DUP2 PUSH2 0x502 JUMPI PUSH1 0x40 MLOAD PUSH32 0x8C379A000000000000000000000000000000000000000000000000000000000 DUP2 MSTORE PUSH1 0x4 ADD PUSH2 0x4F9 SWAP1 PUSH2 0x992 JUMP JUMPDEST PUSH1 0x40 MLOAD DUP1 SWAP2 SUB SWAP1 REVERT JUMPDEST DUP1 DUP1 PUSH1 0x20 ADD SWAP1 MLOAD DUP2 ADD SWAP1 PUSH2 0x516 SWAP2 SWAP1 PUSH2 0x9C4 JUMP JUMPDEST SWAP4 POP POP POP POP SWAP1 JUMP JUMPDEST PUSH1 0x1 PUSH1 0x15 SWAP1 SLOAD SWAP1 PUSH2 0x100 EXP SWAP1 DIV PUSH1 0xFF AND DUP2 JUMP JUMPDEST PUSH0 PUSH0 SWAP1 SLOAD SWAP1 PUSH2 0x100 EXP SWAP1 DIV PUSH20 0xFFFFFFFFFFFFFFFFFFFFFFFFFFFFFFFFFFFFFFFF AND DUP2 JUMP JUMPDEST PUSH1 0x3 SLOAD DUP2 JUMP JUMPDEST PUSH0 PUSH0 REVERT JUMPDEST PUSH0 DUP2 SWAP1 POP SWAP2 SWAP1 POP JUMP JUMPDEST PUSH2 0x571 DUP2 PUSH2 0x55F JUMP JUMPDEST DUP2 EQ PUSH2 0x57B JUMPI PUSH0 PUSH0 REVERT JUMPDEST POP JUMP JUMPDEST PUSH0 DUP2 CALLDATALOAD SWAP1 POP PUSH2 0x58C DUP2 PUSH2 0x568 JUMP JUMPDEST SWAP3 SWAP2 POP POP JUMP JUMPDEST PUSH0 PUSH1 0x20 DUP3 DUP5 SUB SLT ISZERO PUSH2 0x5A7 JUMPI PUSH2 0x5A6 PUSH2 0x55B JUMP JUMPDEST JUMPDEST PUSH0 PUSH2 0x5B4 DUP5 DUP3 DUP6 ADD PUSH2 0x57E JUMP JUMPDEST SWAP2 POP POP SWAP3 SWAP2 POP POP JUMP JUMPDEST PUSH0 PUSH20 0xFFFFFFFFFFFFFFFFFFFFFFFFFFFFFFFFFFFFFFFF DUP3 AND SWAP1 POP SWAP2 SWAP1 POP JUMP JUMPDEST PUSH0 PUSH2 0x5E6 DUP3 PUSH2 0x5BD JUMP JUMPDEST SWAP1 POP SWAP2 SWAP1 POP JUMP JUMPDEST PUSH2 0x5F6 DUP2 PUSH2 0x5DC JUMP JUMPDEST DUP3 MSTORE POP POP JUMP JUMPDEST PUSH2 0x605 DUP2 PUSH2 0x55F JUMP JUMPDEST DUP3 MSTORE POP POP JUMP JUMPDEST PUSH0 DUP2 ISZERO ISZERO SWAP1 POP SWAP2 SWAP1 POP JUMP JUMPDEST PUSH2 0x61F DUP2 PUSH2 0x60B JUMP JUMPDEST DUP3 MSTORE POP POP JUMP JUMPDEST PUSH0 PUSH1 0x60 DUP3 ADD SWAP1 POP PUSH2 0x638 PUSH0 DUP4 ADD DUP7 PUSH2 0x5ED JUMP JUMPDEST PUSH2 0x645 PUSH1 0x20 DUP4 ADD DUP6 PUSH2 0x5FC JUMP JUMPDEST PUSH2 0x652 PUSH1 0x40 DUP4 ADD DUP5 PUSH2 0x616 JUMP JUMPDEST SWAP5 SWAP4 POP POP POP POP JUMP JUMPDEST PUSH2 0x663 DUP2 PUSH2 0x5DC JUMP JUMPDEST DUP2 EQ PUSH2 0x66D JUMPI PUSH0 PUSH0 REVERT JUMPDEST POP JUMP JUMPDEST PUSH0 DUP2 CALLDATALOAD SWAP1 POP PUSH2 0x67E DUP2 PUSH2 0x65A JUMP JUMPDEST SWAP3 SWAP2 POP POP JUMP JUMPDEST PUSH0 PUSH1 0x20 DUP3 DUP5 SUB SLT ISZERO PUSH2 0x699 JUMPI PUSH2 0x698 PUSH2 0x55B JUMP JUMPDEST JUMPDEST PUSH0 PUSH2 0x6A6 DUP5 DUP3 DUP6 ADD PUSH2 0x670 JUMP JUMPDEST SWAP2 POP POP SWAP3 SWAP2 POP POP JUMP JUMPDEST PUSH0 PUSH1 0x20 DUP3 ADD SWAP1 POP PUSH2 0x6C2 PUSH0 DUP4 ADD DUP5 PUSH2 0x5FC JUMP JUMPDEST SWAP3 SWAP2 POP POP JUMP JUMPDEST PUSH0 PUSH1 0xFF DUP3 AND SWAP1 POP SWAP2 SWAP1 POP JUMP JUMPDEST PUSH2 0x6DD DUP2 PUSH2 0x6C8 JUMP JUMPDEST DUP2 EQ PUSH2 0x6E7 JUMPI PUSH0 PUSH0 REVERT JUMPDEST POP JUMP JUMPDEST PUSH0 DUP2 CALLDATALOAD SWAP1 POP PUSH2 0x6F8 DUP2 PUSH2 0x6D4 JUMP JUMPDEST SWAP3 SWAP2 POP POP JUMP JUMPDEST PUSH0 PUSH1 0x20 DUP3 DUP5 SUB SLT ISZERO PUSH2 0x713 JUMPI PUSH2 0x712 PUSH2 0x55B JUMP JUMPDEST JUMPDEST PUSH0 PUSH2 0x720 DUP5 DUP3 DUP6 ADD PUSH2 0x6EA JUMP JUMPDEST SWAP2 POP POP SWAP3 SWAP2 POP POP JUMP JUMPDEST PUSH0 PUSH1 0x20 DUP3 ADD SWAP1 POP PUSH2 0x73C PUSH0 DUP4 ADD DUP5 PUSH2 0x5ED JUMP JUMPDEST SWAP3 SWAP2 POP POP JUMP JUMPDEST PUSH2 0x74B DUP2 PUSH2 0x6C8 JUMP JUMPDEST DUP3 MSTORE POP POP JUMP JUMPDEST PUSH0 PUSH1 0x20 DUP3 ADD SWAP1 POP PUSH2 0x764 PUSH0 DUP4 ADD DUP5 PUSH2 0x742 JUMP JUMPDEST SWAP3 SWAP2 POP POP JUMP JUMPDEST PUSH0 PUSH2 0x774 DUP3 PUSH2 0x5BD JUMP JUMPDEST SWAP1 POP SWAP2 SWAP1 POP JUMP JUMPDEST PUSH2 0x784 DUP2 PUSH2 0x76A JUMP JUMPDEST DUP3 MSTORE POP POP JUMP JUMPDEST PUSH0 PUSH1 0x20 DUP3 ADD SWAP1 POP PUSH2 0x79D PUSH0 DUP4 ADD DUP5 PUSH2 0x77B JUMP JUMPDEST SWAP3 SWAP2 POP POP JUMP JUMPDEST PUSH0 DUP3 DUP3 MSTORE PUSH1 0x20 DUP3 ADD SWAP1 POP SWAP3 SWAP2 POP POP JUMP JUMPDEST PUSH32 0x496E73756666696369656E7420424E4200000000000000000000000000000000 PUSH0 DUP3 ADD MSTORE POP JUMP JUMPDEST PUSH0 PUSH2 0x7E7 PUSH1 0x10 DUP4 PUSH2 0x7A3 JUMP JUMPDEST SWAP2 POP PUSH2 0x7F2 DUP3 PUSH2 0x7B3 JUMP JUMPDEST PUSH1 0x20 DUP3 ADD SWAP1 POP SWAP2 SWAP1 POP JUMP JUMPDEST PUSH0 PUSH1 0x20 DUP3 ADD SWAP1 POP DUP2 DUP2 SUB PUSH0 DUP4 ADD MSTORE PUSH2 0x814 DUP2 PUSH2 0x7DB JUMP JUMPDEST SWAP1 POP SWAP2 SWAP1 POP JUMP JUMPDEST PUSH0 DUP2 SWAP1 POP SWAP3 SWAP2 POP POP JUMP JUMPDEST POP JUMP JUMPDEST PUSH0 PUSH2 0x833 PUSH0 DUP4 PUSH2 0x81B JUMP JUMPDEST SWAP2 POP PUSH2 0x83E DUP3 PUSH2 0x825 JUMP JUMPDEST PUSH0 DUP3 ADD SWAP1 POP SWAP2 SWAP1 POP JUMP JUMPDEST PUSH0 PUSH2 0x852 DUP3 PUSH2 0x828 JUMP JUMPDEST SWAP2 POP DUP2 SWAP1 POP SWAP2 SWAP1 POP JUMP JUMPDEST PUSH32 0x5472616E7366657220746F20707269636520636F6E7472616374206661696C65 PUSH0 DUP3 ADD MSTORE PUSH32 0x6400000000000000000000000000000000000000000000000000000000000000 PUSH1 0x20 DUP3 ADD MSTORE POP JUMP JUMPDEST PUSH0 PUSH2 0x8B6 PUSH1 0x21 DUP4 PUSH2 0x7A3 JUMP JUMPDEST SWAP2 POP PUSH2 0x8C1 DUP3 PUSH2 0x85C JUMP JUMPDEST PUSH1 0x40 DUP3 ADD SWAP1 POP SWAP2 SWAP1 POP JUMP JUMPDEST PUSH0 PUSH1 0x20 DUP3 ADD SWAP1 POP DUP2 DUP2 SUB PUSH0 DUP4 ADD MSTORE PUSH2 0x8E3 DUP2 PUSH2 0x8AA JUMP JUMPDEST SWAP1 POP SWAP2 SWAP1 POP JUMP JUMPDEST PUSH0 DUP2 MLOAD SWAP1 POP SWAP2 SWAP1 POP JUMP JUMPDEST DUP3 DUP2 DUP4 MCOPY PUSH0 DUP4 DUP4 ADD MSTORE POP POP POP JUMP JUMPDEST PUSH0 PUSH2 0x90C DUP3 PUSH2 0x8EA JUMP JUMPDEST PUSH2 0x916 DUP2 DUP6 PUSH2 0x81B JUMP JUMPDEST SWAP4 POP PUSH2 0x926 DUP2 DUP6 PUSH1 0x20 DUP7 ADD PUSH2 0x8F4 JUMP JUMPDEST DUP1 DUP5 ADD SWAP2 POP POP SWAP3 SWAP2 POP POP JUMP JUMPDEST PUSH0 PUSH2 0x93D DUP3 DUP5 PUSH2 0x902 JUMP JUMPDEST SWAP2 POP DUP2 SWAP1 POP SWAP3 SWAP2 POP POP JUMP JUMPDEST PUSH32 0x4661696C656420746F2067657420707269636500000000000000000000000000 PUSH0 DUP3 ADD MSTORE POP JUMP JUMPDEST PUSH0 PUSH2 0x97C PUSH1 0x13 DUP4 PUSH2 0x7A3 JUMP JUMPDEST SWAP2 POP PUSH2 0x987 DUP3 PUSH2 0x948 JUMP JUMPDEST PUSH1 0x20 DUP3 ADD SWAP1 POP SWAP2 SWAP1 POP JUMP JUMPDEST PUSH0 PUSH1 0x20 DUP3 ADD SWAP1 POP DUP2 DUP2 SUB PUSH0 DUP4 ADD MSTORE PUSH2 0x9A9 DUP2 PUSH2 0x970 JUMP JUMPDEST SWAP1 POP SWAP2 SWAP1 POP JUMP JUMPDEST PUSH0 DUP2 MLOAD SWAP1 POP PUSH2 0x9BE DUP2 PUSH2 0x568 JUMP JUMPDEST SWAP3 SWAP2 POP POP JUMP JUMPDEST PUSH0 PUSH1 0x20 DUP3 DUP5 SUB SLT ISZERO PUSH2 0x9D9 JUMPI PUSH2 0x9D8 PUSH2 0x55B JUMP JUMPDEST JUMPDEST PUSH0 PUSH2 0x9E6 DUP5 DUP3 DUP6 ADD PUSH2 0x9B0 JUMP JUMPDEST SWAP2 POP POP SWAP3 SWAP2 POP POP JUMP INVALID LOG2 PUSH5 0x6970667358 0x22 SLT KECCAK256 0xE9 PUSH26 0xEC539A9AD7CCB9D181407CDF3DF7B74C7966C6EAAF5C513B5281 MCOPY LOG3 ADD SWAP7 PUSH5 0x736F6C6343 STOP ADDMOD 0x1E STOP CALLER "
				},
				"gasEstimates": {
					"creation": {
						"codeDepositCost": "519400",
						"executionCost": "infinite",
						"totalCost": "infinite"
					},
					"external": {
						"getPrice()": "infinite",
						"owner()": "2575",
						"priceContract()": "2551",
						"thisStep()": "2539",
						"totalUsers()": "2491",
						"tptPrice(uint8)": "2805",
						"userId(address)": "2825",
						"users(uint256)": "infinite"
					}
				},
				"methodIdentifiers": {
					"getPrice()": "98d5fdca",
					"owner()": "8da5cb5b",
					"priceContract()": "ae372ec1",
					"thisStep()": "ae243031",
					"totalUsers()": "bff1f9e1",
					"tptPrice(uint8)": "556a7579",
					"userId(address)": "376fe102",
					"users(uint256)": "365b98b2"
				}
			},
			"storageLayout": {
				"storage": [
					{
						"astId": 39,
						"contract": "contracts/PTPPreSale.sol:TPTPreSale",
						"label": "priceContract",
						"offset": 0,
						"slot": "0",
						"type": "t_address_payable"
					},
					{
						"astId": 41,
						"contract": "contracts/PTPPreSale.sol:TPTPreSale",
						"label": "owner",
						"offset": 0,
						"slot": "1",
						"type": "t_address"
					},
					{
						"astId": 43,
						"contract": "contracts/PTPPreSale.sol:TPTPreSale",
						"label": "locked",
						"offset": 20,
						"slot": "1",
						"type": "t_bool"
					},
					{
						"astId": 45,
						"contract": "contracts/PTPPreSale.sol:TPTPreSale",
						"label": "thisStep",
						"offset": 21,
						"slot": "1",
						"type": "t_uint8"
					},
					{
						"astId": 49,
						"contract": "contracts/PTPPreSale.sol:TPTPreSale",
						"label": "tptPrice",
						"offset": 0,
						"slot": "2",
						"type": "t_mapping(t_uint8,t_uint256)"
					},
					{
						"astId": 51,
						"contract": "contracts/PTPPreSale.sol:TPTPreSale",
						"label": "totalUsers",
						"offset": 0,
						"slot": "3",
						"type": "t_uint256"
					},
					{
						"astId": 75,
						"contract": "contracts/PTPPreSale.sol:TPTPreSale",
						"label": "userId",
						"offset": 0,
						"slot": "4",
						"type": "t_mapping(t_address,t_uint256)"
					},
					{
						"astId": 80,
						"contract": "contracts/PTPPreSale.sol:TPTPreSale",
						"label": "users",
						"offset": 0,
						"slot": "5",
						"type": "t_mapping(t_uint256,t_struct(UserInfo)71_storage)"
					}
				],
				"types": {
					"t_address": {
						"encoding": "inplace",
						"label": "address",
						"numberOfBytes": "20"
					},
					"t_address_payable": {
						"encoding": "inplace",
						"label": "address payable",
						"numberOfBytes": "20"
					},
					"t_array(t_struct(Purchase)60_storage)dyn_storage": {
						"base": "t_struct(Purchase)60_storage",
						"encoding": "dynamic_array",
						"label": "struct TPTPreSale.Purchase[]",
						"numberOfBytes": "32"
					},
					"t_bool": {
						"encoding": "inplace",
						"label": "bool",
						"numberOfBytes": "1"
					},
					"t_mapping(t_address,t_uint256)": {
						"encoding": "mapping",
						"key": "t_address",
						"label": "mapping(address => uint256)",
						"numberOfBytes": "32",
						"value": "t_uint256"
					},
					"t_mapping(t_uint256,t_struct(UserInfo)71_storage)": {
						"encoding": "mapping",
						"key": "t_uint256",
						"label": "mapping(uint256 => struct TPTPreSale.UserInfo)",
						"numberOfBytes": "32",
						"value": "t_struct(UserInfo)71_storage"
					},
					"t_mapping(t_uint8,t_uint256)": {
						"encoding": "mapping",
						"key": "t_uint8",
						"label": "mapping(uint8 => uint256)",
						"numberOfBytes": "32",
						"value": "t_uint256"
					},
					"t_struct(Purchase)60_storage": {
						"encoding": "inplace",
						"label": "struct TPTPreSale.Purchase",
						"members": [
							{
								"astId": 53,
								"contract": "contracts/PTPPreSale.sol:TPTPreSale",
								"label": "timestamp",
								"offset": 0,
								"slot": "0",
								"type": "t_uint256"
							},
							{
								"astId": 55,
								"contract": "contracts/PTPPreSale.sol:TPTPreSale",
								"label": "bnbAmount",
								"offset": 0,
								"slot": "1",
								"type": "t_uint256"
							},
							{
								"astId": 57,
								"contract": "contracts/PTPPreSale.sol:TPTPreSale",
								"label": "tptAmount",
								"offset": 0,
								"slot": "2",
								"type": "t_uint256"
							},
							{
								"astId": 59,
								"contract": "contracts/PTPPreSale.sol:TPTPreSale",
								"label": "step",
								"offset": 0,
								"slot": "3",
								"type": "t_uint8"
							}
						],
						"numberOfBytes": "128"
					},
					"t_struct(UserInfo)71_storage": {
						"encoding": "inplace",
						"label": "struct TPTPreSale.UserInfo",
						"members": [
							{
								"astId": 62,
								"contract": "contracts/PTPPreSale.sol:TPTPreSale",
								"label": "walletAddress",
								"offset": 0,
								"slot": "0",
								"type": "t_address"
							},
							{
								"astId": 64,
								"contract": "contracts/PTPPreSale.sol:TPTPreSale",
								"label": "tptBalance",
								"offset": 0,
								"slot": "1",
								"type": "t_uint256"
							},
							{
								"astId": 66,
								"contract": "contracts/PTPPreSale.sol:TPTPreSale",
								"label": "hasOffer",
								"offset": 0,
								"slot": "2",
								"type": "t_bool"
							},
							{
								"astId": 70,
								"contract": "contracts/PTPPreSale.sol:TPTPreSale",
								"label": "purchaseList",
								"offset": 0,
								"slot": "3",
								"type": "t_array(t_struct(Purchase)60_storage)dyn_storage"
							}
						],
						"numberOfBytes": "128"
					},
					"t_uint256": {
						"encoding": "inplace",
						"label": "uint256",
						"numberOfBytes": "32"
					},
					"t_uint8": {
						"encoding": "inplace",
						"label": "uint8",
						"numberOfBytes": "1"
					}
				}
			},
			"userdoc": {
				"kind": "user",
				"methods": {},
				"version": 1
			}
		}
	}
}