{
	"contracts/token/TPointi.sol": {
		"AdvancedToken": {
			"abi": [
				{
					"inputs": [],
					"stateMutability": "nonpayable",
					"type": "constructor"
				},
				{
					"anonymous": false,
					"inputs": [
						{
							"indexed": true,
							"internalType": "address",
							"name": "owner",
							"type": "address"
						},
						{
							"indexed": true,
							"internalType": "address",
							"name": "spender",
							"type": "address"
						},
						{
							"indexed": false,
							"internalType": "uint256",
							"name": "value",
							"type": "uint256"
						}
					],
					"name": "Approval",
					"type": "event"
				},
				{
					"anonymous": false,
					"inputs": [
						{
							"indexed": true,
							"internalType": "address",
							"name": "from",
							"type": "address"
						},
						{
							"indexed": true,
							"internalType": "address",
							"name": "to",
							"type": "address"
						},
						{
							"indexed": false,
							"internalType": "uint256",
							"name": "value",
							"type": "uint256"
						}
					],
					"name": "Transfer",
					"type": "event"
				},
				{
					"inputs": [
						{
							"internalType": "address[]",
							"name": "recipients",
							"type": "address[]"
						},
						{
							"internalType": "uint256[]",
							"name": "amounts",
							"type": "uint256[]"
						}
					],
					"name": "airdrop",
					"outputs": [],
					"stateMutability": "nonpayable",
					"type": "function"
				},
				{
					"inputs": [
						{
							"internalType": "address",
							"name": "owner",
							"type": "address"
						},
						{
							"internalType": "address",
							"name": "spender",
							"type": "address"
						}
					],
					"name": "allowance",
					"outputs": [
						{
							"internalType": "uint256",
							"name": "",
							"type": "uint256"
						}
					],
					"stateMutability": "view",
					"type": "function"
				},
				{
					"inputs": [
						{
							"internalType": "address",
							"name": "spender",
							"type": "address"
						},
						{
							"internalType": "uint256",
							"name": "amount",
							"type": "uint256"
						}
					],
					"name": "approve",
					"outputs": [
						{
							"internalType": "bool",
							"name": "",
							"type": "bool"
						}
					],
					"stateMutability": "nonpayable",
					"type": "function"
				},
				{
					"inputs": [
						{
							"internalType": "address",
							"name": "account",
							"type": "address"
						}
					],
					"name": "balanceOf",
					"outputs": [
						{
							"internalType": "uint256",
							"name": "",
							"type": "uint256"
						}
					],
					"stateMutability": "view",
					"type": "function"
				},
				{
					"inputs": [
						{
							"internalType": "uint256",
							"name": "amount",
							"type": "uint256"
						}
					],
					"name": "burn",
					"outputs": [],
					"stateMutability": "nonpayable",
					"type": "function"
				},
				{
					"inputs": [],
					"name": "decimals",
					"outputs": [
						{
							"internalType": "uint8",
							"name": "",
							"type": "uint8"
						}
					],
					"stateMutability": "view",
					"type": "function"
				},
				{
					"inputs": [],
					"name": "getOwner",
					"outputs": [
						{
							"internalType": "address",
							"name": "",
							"type": "address"
						}
					],
					"stateMutability": "view",
					"type": "function"
				},
				{
					"inputs": [],
					"name": "name",
					"outputs": [
						{
							"internalType": "string",
							"name": "",
							"type": "string"
						}
					],
					"stateMutability": "view",
					"type": "function"
				},
				{
					"inputs": [],
					"name": "symbol",
					"outputs": [
						{
							"internalType": "string",
							"name": "",
							"type": "string"
						}
					],
					"stateMutability": "view",
					"type": "function"
				},
				{
					"inputs": [],
					"name": "totalSupply",
					"outputs": [
						{
							"internalType": "uint256",
							"name": "",
							"type": "uint256"
						}
					],
					"stateMutability": "view",
					"type": "function"
				},
				{
					"inputs": [
						{
							"internalType": "address",
							"name": "to",
							"type": "address"
						},
						{
							"internalType": "uint256",
							"name": "amount",
							"type": "uint256"
						}
					],
					"name": "transfer",
					"outputs": [
						{
							"internalType": "bool",
							"name": "",
							"type": "bool"
						}
					],
					"stateMutability": "nonpayable",
					"type": "function"
				},
				{
					"inputs": [
						{
							"internalType": "address",
							"name": "from",
							"type": "address"
						},
						{
							"internalType": "address",
							"name": "to",
							"type": "address"
						},
						{
							"internalType": "uint256",
							"name": "amount",
							"type": "uint256"
						}
					],
					"name": "transferFrom",
					"outputs": [
						{
							"internalType": "bool",
							"name": "",
							"type": "bool"
						}
					],
					"stateMutability": "nonpayable",
					"type": "function"
				}
			],
			"devdoc": {
				"kind": "dev",
				"methods": {},
				"version": 1
			},
			"evm": {
				"assembly": "    /* \"contracts/token/TPointi.sol\":976:4205  contract AdvancedToken is IBEP20 {... */\n  mstore(0x40, 0x80)\n    /* \"contracts/token/TPointi.sol\":1016:1048  string private _name = \"tPointi\" */\n  mload(0x40)\n  dup1\n  0x40\n  add\n  0x40\n  mstore\n  dup1\n  0x07\n  dup2\n  mstore\n  0x20\n  add\n  0x74506f696e746900000000000000000000000000000000000000000000000000\n  dup2\n  mstore\n  pop\n  0x00\n  swap1\n  dup2\n  tag_1\n  swap2\n  swap1\n  tag_2\n  jump\t// in\ntag_1:\n  pop\n    /* \"contracts/token/TPointi.sol\":1055:1085  string private _symbol = \"TPT\" */\n  mload(0x40)\n  dup1\n  0x40\n  add\n  0x40\n  mstore\n  dup1\n  0x03\n  dup2\n  mstore\n  0x20\n  add\n  0x5450540000000000000000000000000000000000000000000000000000000000\n  dup2\n  mstore\n  pop\n  0x01\n  swap1\n  dup2\n  tag_3\n  swap2\n  swap1\n  tag_2\n  jump\t// in\ntag_3:\n  pop\n    /* \"contracts/token/TPointi.sol\":1118:1120  18 */\n  0x12\n    /* \"contracts/token/TPointi.sol\":1092:1120  uint8 private _decimals = 18 */\n  0x02\n  exp(0x0100, 0x00)\n  dup2\n  sload\n  dup2\n  0xff\n  mul\n  not\n  and\n  swap1\n  dup4\n  0xff\n  and\n  mul\n  or\n  swap1\n  sstore\n  pop\n    /* \"contracts/token/TPointi.sol\":1158:1179  100000000000 * 10**18 */\n  0x01431e0fae6d7217caa0000000\n    /* \"contracts/token/TPointi.sol\":1127:1179  uint256 private _totalSupply = 100000000000 * 10**18 */\n  0x03\n  sstore\n    /* \"contracts/token/TPointi.sol\":1452:1605  constructor() {... */\n  callvalue\n  dup1\n  iszero\n  tag_4\n  jumpi\n  0x00\n  dup1\n  revert\ntag_4:\n  pop\n    /* \"contracts/token/TPointi.sol\":1486:1496  msg.sender */\n  caller\n    /* \"contracts/token/TPointi.sol\":1477:1483  _owner */\n  0x04\n  0x00\n    /* \"contracts/token/TPointi.sol\":1477:1496  _owner = msg.sender */\n  0x0100\n  exp\n  dup2\n  sload\n  dup2\n  0xffffffffffffffffffffffffffffffffffffffff\n  mul\n  not\n  and\n  swap1\n  dup4\n  0xffffffffffffffffffffffffffffffffffffffff\n  and\n  mul\n  or\n  swap1\n  sstore\n  pop\n    /* \"contracts/token/TPointi.sol\":1527:1539  _totalSupply */\n  sload(0x03)\n    /* \"contracts/token/TPointi.sol\":1507:1516  _balances */\n  0x05\n    /* \"contracts/token/TPointi.sol\":1507:1524  _balances[_owner] */\n  0x00\n    /* \"contracts/token/TPointi.sol\":1517:1523  _owner */\n  0x04\n  0x00\n  swap1\n  sload\n  swap1\n  0x0100\n  exp\n  swap1\n  div\n  0xffffffffffffffffffffffffffffffffffffffff\n  and\n    /* \"contracts/token/TPointi.sol\":1507:1524  _balances[_owner] */\n  0xffffffffffffffffffffffffffffffffffffffff\n  and\n  0xffffffffffffffffffffffffffffffffffffffff\n  and\n  dup2\n  mstore\n  0x20\n  add\n  swap1\n  dup2\n  mstore\n  0x20\n  add\n  0x00\n  keccak256\n    /* \"contracts/token/TPointi.sol\":1507:1539  _balances[_owner] = _totalSupply */\n  dup2\n  swap1\n  sstore\n  pop\n    /* \"contracts/token/TPointi.sol\":1576:1582  _owner */\n  0x04\n  0x00\n  swap1\n  sload\n  swap1\n  0x0100\n  exp\n  swap1\n  div\n  0xffffffffffffffffffffffffffffffffffffffff\n  and\n    /* \"contracts/token/TPointi.sol\":1555:1597  Transfer(address(0), _owner, _totalSupply) */\n  0xffffffffffffffffffffffffffffffffffffffff\n  and\n    /* \"contracts/token/TPointi.sol\":1572:1573  0 */\n  0x00\n    /* \"contracts/token/TPointi.sol\":1555:1597  Transfer(address(0), _owner, _totalSupply) */\n  0xffffffffffffffffffffffffffffffffffffffff\n  and\n  0xddf252ad1be2c89b69c2b068fc378daa952ba7f163c4a11628f55a4df523b3ef\n    /* \"contracts/token/TPointi.sol\":1584:1596  _totalSupply */\n  sload(0x03)\n    /* \"contracts/token/TPointi.sol\":1555:1597  Transfer(address(0), _owner, _totalSupply) */\n  mload(0x40)\n  tag_7\n  swap2\n  swap1\n  tag_8\n  jump\t// in\ntag_7:\n  mload(0x40)\n  dup1\n  swap2\n  sub\n  swap1\n  log3\n    /* \"contracts/token/TPointi.sol\":976:4205  contract AdvancedToken is IBEP20 {... */\n  jump(tag_9)\n    /* \"#utility.yul\":7:106   */\ntag_10:\n    /* \"#utility.yul\":59:65   */\n  0x00\n    /* \"#utility.yul\":93:98   */\n  dup2\n    /* \"#utility.yul\":87:99   */\n  mload\n    /* \"#utility.yul\":77:99   */\n  swap1\n  pop\n    /* \"#utility.yul\":7:106   */\n  swap2\n  swap1\n  pop\n  jump\t// out\n    /* \"#utility.yul\":112:292   */\ntag_11:\n    /* \"#utility.yul\":160:237   */\n  0x4e487b7100000000000000000000000000000000000000000000000000000000\n    /* \"#utility.yul\":157:158   */\n  0x00\n    /* \"#utility.yul\":150:238   */\n  mstore\n    /* \"#utility.yul\":257:261   */\n  0x41\n    /* \"#utility.yul\":254:255   */\n  0x04\n    /* \"#utility.yul\":247:262   */\n  mstore\n    /* \"#utility.yul\":281:285   */\n  0x24\n    /* \"#utility.yul\":278:279   */\n  0x00\n    /* \"#utility.yul\":271:286   */\n  revert\n    /* \"#utility.yul\":298:478   */\ntag_12:\n    /* \"#utility.yul\":346:423   */\n  0x4e487b7100000000000000000000000000000000000000000000000000000000\n    /* \"#utility.yul\":343:344   */\n  0x00\n    /* \"#utility.yul\":336:424   */\n  mstore\n    /* \"#utility.yul\":443:447   */\n  0x22\n    /* \"#utility.yul\":440:441   */\n  0x04\n    /* \"#utility.yul\":433:448   */\n  mstore\n    /* \"#utility.yul\":467:471   */\n  0x24\n    /* \"#utility.yul\":464:465   */\n  0x00\n    /* \"#utility.yul\":457:472   */\n  revert\n    /* \"#utility.yul\":484:804   */\ntag_13:\n    /* \"#utility.yul\":528:534   */\n  0x00\n    /* \"#utility.yul\":565:566   */\n  0x02\n    /* \"#utility.yul\":559:563   */\n  dup3\n    /* \"#utility.yul\":555:567   */\n  div\n    /* \"#utility.yul\":545:567   */\n  swap1\n  pop\n    /* \"#utility.yul\":612:613   */\n  0x01\n    /* \"#utility.yul\":606:610   */\n  dup3\n    /* \"#utility.yul\":602:614   */\n  and\n    /* \"#utility.yul\":633:651   */\n  dup1\n    /* \"#utility.yul\":623:704   */\n  tag_36\n  jumpi\n    /* \"#utility.yul\":689:693   */\n  0x7f\n    /* \"#utility.yul\":681:687   */\n  dup3\n    /* \"#utility.yul\":677:694   */\n  and\n    /* \"#utility.yul\":667:694   */\n  swap2\n  pop\n    /* \"#utility.yul\":623:704   */\ntag_36:\n    /* \"#utility.yul\":751:753   */\n  0x20\n    /* \"#utility.yul\":743:749   */\n  dup3\n    /* \"#utility.yul\":740:754   */\n  lt\n    /* \"#utility.yul\":720:738   */\n  dup2\n    /* \"#utility.yul\":717:755   */\n  sub\n    /* \"#utility.yul\":714:798   */\n  tag_37\n  jumpi\n    /* \"#utility.yul\":770:788   */\n  tag_38\n  tag_12\n  jump\t// in\ntag_38:\n    /* \"#utility.yul\":714:798   */\ntag_37:\n    /* \"#utility.yul\":535:804   */\n  pop\n    /* \"#utility.yul\":484:804   */\n  swap2\n  swap1\n  pop\n  jump\t// out\n    /* \"#utility.yul\":810:951   */\ntag_14:\n    /* \"#utility.yul\":859:863   */\n  0x00\n    /* \"#utility.yul\":882:885   */\n  dup2\n    /* \"#utility.yul\":874:885   */\n  swap1\n  pop\n    /* \"#utility.yul\":905:908   */\n  dup2\n    /* \"#utility.yul\":902:903   */\n  0x00\n    /* \"#utility.yul\":895:909   */\n  mstore\n    /* \"#utility.yul\":939:943   */\n  0x20\n    /* \"#utility.yul\":936:937   */\n  0x00\n    /* \"#utility.yul\":926:944   */\n  keccak256\n    /* \"#utility.yul\":918:944   */\n  swap1\n  pop\n    /* \"#utility.yul\":810:951   */\n  swap2\n  swap1\n  pop\n  jump\t// out\n    /* \"#utility.yul\":957:1050   */\ntag_15:\n    /* \"#utility.yul\":994:1000   */\n  0x00\n    /* \"#utility.yul\":1041:1043   */\n  0x20\n    /* \"#utility.yul\":1036:1038   */\n  0x1f\n    /* \"#utility.yul\":1029:1034   */\n  dup4\n    /* \"#utility.yul\":1025:1039   */\n  add\n    /* \"#utility.yul\":1021:1044   */\n  div\n    /* \"#utility.yul\":1011:1044   */\n  swap1\n  pop\n    /* \"#utility.yul\":957:1050   */\n  swap2\n  swap1\n  pop\n  jump\t// out\n    /* \"#utility.yul\":1056:1163   */\ntag_16:\n    /* \"#utility.yul\":1100:1108   */\n  0x00\n    /* \"#utility.yul\":1150:1155   */\n  dup3\n    /* \"#utility.yul\":1144:1148   */\n  dup3\n    /* \"#utility.yul\":1140:1156   */\n  shl\n    /* \"#utility.yul\":1119:1156   */\n  swap1\n  pop\n    /* \"#utility.yul\":1056:1163   */\n  swap3\n  swap2\n  pop\n  pop\n  jump\t// out\n    /* \"#utility.yul\":1169:1562   */\ntag_17:\n    /* \"#utility.yul\":1238:1244   */\n  0x00\n    /* \"#utility.yul\":1288:1289   */\n  0x08\n    /* \"#utility.yul\":1276:1286   */\n  dup4\n    /* \"#utility.yul\":1272:1290   */\n  mul\n    /* \"#utility.yul\":1311:1408   */\n  tag_43\n    /* \"#utility.yul\":1341:1407   */\n  0xffffffffffffffffffffffffffffffffffffffffffffffffffffffffffffffff\n    /* \"#utility.yul\":1330:1339   */\n  dup3\n    /* \"#utility.yul\":1311:1408   */\n  tag_16\n  jump\t// in\ntag_43:\n    /* \"#utility.yul\":1429:1468   */\n  tag_44\n    /* \"#utility.yul\":1459:1467   */\n  dup7\n    /* \"#utility.yul\":1448:1457   */\n  dup4\n    /* \"#utility.yul\":1429:1468   */\n  tag_16\n  jump\t// in\ntag_44:\n    /* \"#utility.yul\":1417:1468   */\n  swap6\n  pop\n    /* \"#utility.yul\":1501:1505   */\n  dup1\n    /* \"#utility.yul\":1497:1506   */\n  not\n    /* \"#utility.yul\":1490:1495   */\n  dup5\n    /* \"#utility.yul\":1486:1507   */\n  and\n    /* \"#utility.yul\":1477:1507   */\n  swap4\n  pop\n    /* \"#utility.yul\":1550:1554   */\n  dup1\n    /* \"#utility.yul\":1540:1548   */\n  dup7\n    /* \"#utility.yul\":1536:1555   */\n  and\n    /* \"#utility.yul\":1529:1534   */\n  dup5\n    /* \"#utility.yul\":1526:1556   */\n  or\n    /* \"#utility.yul\":1516:1556   */\n  swap3\n  pop\n    /* \"#utility.yul\":1245:1562   */\n  pop\n  pop\n    /* \"#utility.yul\":1169:1562   */\n  swap4\n  swap3\n  pop\n  pop\n  pop\n  jump\t// out\n    /* \"#utility.yul\":1568:1645   */\ntag_18:\n    /* \"#utility.yul\":1605:1612   */\n  0x00\n    /* \"#utility.yul\":1634:1639   */\n  dup2\n    /* \"#utility.yul\":1623:1639   */\n  swap1\n  pop\n    /* \"#utility.yul\":1568:1645   */\n  swap2\n  swap1\n  pop\n  jump\t// out\n    /* \"#utility.yul\":1651:1711   */\ntag_19:\n    /* \"#utility.yul\":1679:1682   */\n  0x00\n    /* \"#utility.yul\":1700:1705   */\n  dup2\n    /* \"#utility.yul\":1693:1705   */\n  swap1\n  pop\n    /* \"#utility.yul\":1651:1711   */\n  swap2\n  swap1\n  pop\n  jump\t// out\n    /* \"#utility.yul\":1717:1859   */\ntag_20:\n    /* \"#utility.yul\":1767:1776   */\n  0x00\n    /* \"#utility.yul\":1800:1853   */\n  tag_48\n    /* \"#utility.yul\":1818:1852   */\n  tag_49\n    /* \"#utility.yul\":1827:1851   */\n  tag_50\n    /* \"#utility.yul\":1845:1850   */\n  dup5\n    /* \"#utility.yul\":1827:1851   */\n  tag_18\n  jump\t// in\ntag_50:\n    /* \"#utility.yul\":1818:1852   */\n  tag_19\n  jump\t// in\ntag_49:\n    /* \"#utility.yul\":1800:1853   */\n  tag_18\n  jump\t// in\ntag_48:\n    /* \"#utility.yul\":1787:1853   */\n  swap1\n  pop\n    /* \"#utility.yul\":1717:1859   */\n  swap2\n  swap1\n  pop\n  jump\t// out\n    /* \"#utility.yul\":1865:1940   */\ntag_21:\n    /* \"#utility.yul\":1908:1911   */\n  0x00\n    /* \"#utility.yul\":1929:1934   */\n  dup2\n    /* \"#utility.yul\":1922:1934   */\n  swap1\n  pop\n    /* \"#utility.yul\":1865:1940   */\n  swap2\n  swap1\n  pop\n  jump\t// out\n    /* \"#utility.yul\":1946:2215   */\ntag_22:\n    /* \"#utility.yul\":2056:2095   */\n  tag_53\n    /* \"#utility.yul\":2087:2094   */\n  dup4\n    /* \"#utility.yul\":2056:2095   */\n  tag_20\n  jump\t// in\ntag_53:\n    /* \"#utility.yul\":2117:2208   */\n  tag_54\n    /* \"#utility.yul\":2166:2207   */\n  tag_55\n    /* \"#utility.yul\":2190:2206   */\n  dup3\n    /* \"#utility.yul\":2166:2207   */\n  tag_21\n  jump\t// in\ntag_55:\n    /* \"#utility.yul\":2158:2164   */\n  dup5\n    /* \"#utility.yul\":2151:2155   */\n  dup5\n    /* \"#utility.yul\":2145:2156   */\n  sload\n    /* \"#utility.yul\":2117:2208   */\n  tag_17\n  jump\t// in\ntag_54:\n    /* \"#utility.yul\":2111:2115   */\n  dup3\n    /* \"#utility.yul\":2104:2209   */\n  sstore\n    /* \"#utility.yul\":2022:2215   */\n  pop\n    /* \"#utility.yul\":1946:2215   */\n  pop\n  pop\n  pop\n  jump\t// out\n    /* \"#utility.yul\":2221:2294   */\ntag_23:\n    /* \"#utility.yul\":2266:2269   */\n  0x00\n    /* \"#utility.yul\":2221:2294   */\n  swap1\n  jump\t// out\n    /* \"#utility.yul\":2300:2489   */\ntag_24:\n    /* \"#utility.yul\":2377:2409   */\n  tag_58\n  tag_23\n  jump\t// in\ntag_58:\n    /* \"#utility.yul\":2418:2483   */\n  tag_59\n    /* \"#utility.yul\":2476:2482   */\n  dup2\n    /* \"#utility.yul\":2468:2474   */\n  dup5\n    /* \"#utility.yul\":2462:2466   */\n  dup5\n    /* \"#utility.yul\":2418:2483   */\n  tag_22\n  jump\t// in\ntag_59:\n    /* \"#utility.yul\":2353:2489   */\n  pop\n    /* \"#utility.yul\":2300:2489   */\n  pop\n  pop\n  jump\t// out\n    /* \"#utility.yul\":2495:2681   */\ntag_25:\n    /* \"#utility.yul\":2555:2675   */\ntag_61:\n    /* \"#utility.yul\":2572:2575   */\n  dup2\n    /* \"#utility.yul\":2565:2570   */\n  dup2\n    /* \"#utility.yul\":2562:2576   */\n  lt\n    /* \"#utility.yul\":2555:2675   */\n  iszero\n  tag_63\n  jumpi\n    /* \"#utility.yul\":2626:2665   */\n  tag_64\n    /* \"#utility.yul\":2663:2664   */\n  0x00\n    /* \"#utility.yul\":2656:2661   */\n  dup3\n    /* \"#utility.yul\":2626:2665   */\n  tag_24\n  jump\t// in\ntag_64:\n    /* \"#utility.yul\":2599:2600   */\n  0x01\n    /* \"#utility.yul\":2592:2597   */\n  dup2\n    /* \"#utility.yul\":2588:2601   */\n  add\n    /* \"#utility.yul\":2579:2601   */\n  swap1\n  pop\n    /* \"#utility.yul\":2555:2675   */\n  jump(tag_61)\ntag_63:\n    /* \"#utility.yul\":2495:2681   */\n  pop\n  pop\n  jump\t// out\n    /* \"#utility.yul\":2687:3230   */\ntag_26:\n    /* \"#utility.yul\":2788:2790   */\n  0x1f\n    /* \"#utility.yul\":2783:2786   */\n  dup3\n    /* \"#utility.yul\":2780:2791   */\n  gt\n    /* \"#utility.yul\":2777:3223   */\n  iszero\n  tag_66\n  jumpi\n    /* \"#utility.yul\":2822:2860   */\n  tag_67\n    /* \"#utility.yul\":2854:2859   */\n  dup2\n    /* \"#utility.yul\":2822:2860   */\n  tag_14\n  jump\t// in\ntag_67:\n    /* \"#utility.yul\":2906:2935   */\n  tag_68\n    /* \"#utility.yul\":2924:2934   */\n  dup5\n    /* \"#utility.yul\":2906:2935   */\n  tag_15\n  jump\t// in\ntag_68:\n    /* \"#utility.yul\":2896:2904   */\n  dup2\n    /* \"#utility.yul\":2892:2936   */\n  add\n    /* \"#utility.yul\":3089:3091   */\n  0x20\n    /* \"#utility.yul\":3077:3087   */\n  dup6\n    /* \"#utility.yul\":3074:3092   */\n  lt\n    /* \"#utility.yul\":3071:3120   */\n  iszero\n  tag_69\n  jumpi\n    /* \"#utility.yul\":3110:3118   */\n  dup2\n    /* \"#utility.yul\":3095:3118   */\n  swap1\n  pop\n    /* \"#utility.yul\":3071:3120   */\ntag_69:\n    /* \"#utility.yul\":3133:3213   */\n  tag_70\n    /* \"#utility.yul\":3189:3211   */\n  tag_71\n    /* \"#utility.yul\":3207:3210   */\n  dup6\n    /* \"#utility.yul\":3189:3211   */\n  tag_15\n  jump\t// in\ntag_71:\n    /* \"#utility.yul\":3179:3187   */\n  dup4\n    /* \"#utility.yul\":3175:3212   */\n  add\n    /* \"#utility.yul\":3162:3173   */\n  dup3\n    /* \"#utility.yul\":3133:3213   */\n  tag_25\n  jump\t// in\ntag_70:\n    /* \"#utility.yul\":2792:3223   */\n  pop\n  pop\n    /* \"#utility.yul\":2777:3223   */\ntag_66:\n    /* \"#utility.yul\":2687:3230   */\n  pop\n  pop\n  pop\n  jump\t// out\n    /* \"#utility.yul\":3236:3353   */\ntag_27:\n    /* \"#utility.yul\":3290:3298   */\n  0x00\n    /* \"#utility.yul\":3340:3345   */\n  dup3\n    /* \"#utility.yul\":3334:3338   */\n  dup3\n    /* \"#utility.yul\":3330:3346   */\n  shr\n    /* \"#utility.yul\":3309:3346   */\n  swap1\n  pop\n    /* \"#utility.yul\":3236:3353   */\n  swap3\n  swap2\n  pop\n  pop\n  jump\t// out\n    /* \"#utility.yul\":3359:3528   */\ntag_28:\n    /* \"#utility.yul\":3403:3409   */\n  0x00\n    /* \"#utility.yul\":3436:3487   */\n  tag_74\n    /* \"#utility.yul\":3484:3485   */\n  0x00\n    /* \"#utility.yul\":3480:3486   */\n  not\n    /* \"#utility.yul\":3472:3477   */\n  dup5\n    /* \"#utility.yul\":3469:3470   */\n  0x08\n    /* \"#utility.yul\":3465:3478   */\n  mul\n    /* \"#utility.yul\":3436:3487   */\n  tag_27\n  jump\t// in\ntag_74:\n    /* \"#utility.yul\":3432:3488   */\n  not\n    /* \"#utility.yul\":3517:3521   */\n  dup1\n    /* \"#utility.yul\":3511:3515   */\n  dup4\n    /* \"#utility.yul\":3507:3522   */\n  and\n    /* \"#utility.yul\":3497:3522   */\n  swap2\n  pop\n    /* \"#utility.yul\":3410:3528   */\n  pop\n    /* \"#utility.yul\":3359:3528   */\n  swap3\n  swap2\n  pop\n  pop\n  jump\t// out\n    /* \"#utility.yul\":3533:3828   */\ntag_29:\n    /* \"#utility.yul\":3609:3613   */\n  0x00\n    /* \"#utility.yul\":3755:3784   */\n  tag_76\n    /* \"#utility.yul\":3780:3783   */\n  dup4\n    /* \"#utility.yul\":3774:3778   */\n  dup4\n    /* \"#utility.yul\":3755:3784   */\n  tag_28\n  jump\t// in\ntag_76:\n    /* \"#utility.yul\":3747:3784   */\n  swap2\n  pop\n    /* \"#utility.yul\":3817:3820   */\n  dup3\n    /* \"#utility.yul\":3814:3815   */\n  0x02\n    /* \"#utility.yul\":3810:3821   */\n  mul\n    /* \"#utility.yul\":3804:3808   */\n  dup3\n    /* \"#utility.yul\":3801:3822   */\n  or\n    /* \"#utility.yul\":3793:3822   */\n  swap1\n  pop\n    /* \"#utility.yul\":3533:3828   */\n  swap3\n  swap2\n  pop\n  pop\n  jump\t// out\n    /* \"#utility.yul\":3833:5228   */\ntag_2:\n    /* \"#utility.yul\":3950:3987   */\n  tag_78\n    /* \"#utility.yul\":3983:3986   */\n  dup3\n    /* \"#utility.yul\":3950:3987   */\n  tag_10\n  jump\t// in\ntag_78:\n    /* \"#utility.yul\":4052:4070   */\n  0xffffffffffffffff\n    /* \"#utility.yul\":4044:4050   */\n  dup2\n    /* \"#utility.yul\":4041:4071   */\n  gt\n    /* \"#utility.yul\":4038:4094   */\n  iszero\n  tag_79\n  jumpi\n    /* \"#utility.yul\":4074:4092   */\n  tag_80\n  tag_11\n  jump\t// in\ntag_80:\n    /* \"#utility.yul\":4038:4094   */\ntag_79:\n    /* \"#utility.yul\":4118:4156   */\n  tag_81\n    /* \"#utility.yul\":4150:4154   */\n  dup3\n    /* \"#utility.yul\":4144:4155   */\n  sload\n    /* \"#utility.yul\":4118:4156   */\n  tag_13\n  jump\t// in\ntag_81:\n    /* \"#utility.yul\":4203:4270   */\n  tag_82\n    /* \"#utility.yul\":4263:4269   */\n  dup3\n    /* \"#utility.yul\":4255:4261   */\n  dup3\n    /* \"#utility.yul\":4249:4253   */\n  dup6\n    /* \"#utility.yul\":4203:4270   */\n  tag_26\n  jump\t// in\ntag_82:\n    /* \"#utility.yul\":4297:4298   */\n  0x00\n    /* \"#utility.yul\":4321:4325   */\n  0x20\n    /* \"#utility.yul\":4308:4325   */\n  swap1\n  pop\n    /* \"#utility.yul\":4353:4355   */\n  0x1f\n    /* \"#utility.yul\":4345:4351   */\n  dup4\n    /* \"#utility.yul\":4342:4356   */\n  gt\n    /* \"#utility.yul\":4370:4371   */\n  0x01\n    /* \"#utility.yul\":4365:4983   */\n  dup2\n  eq\n  tag_84\n  jumpi\n    /* \"#utility.yul\":5027:5028   */\n  0x00\n    /* \"#utility.yul\":5044:5050   */\n  dup5\n    /* \"#utility.yul\":5041:5118   */\n  iszero\n  tag_85\n  jumpi\n    /* \"#utility.yul\":5093:5102   */\n  dup3\n    /* \"#utility.yul\":5088:5091   */\n  dup8\n    /* \"#utility.yul\":5084:5103   */\n  add\n    /* \"#utility.yul\":5078:5104   */\n  mload\n    /* \"#utility.yul\":5069:5104   */\n  swap1\n  pop\n    /* \"#utility.yul\":5041:5118   */\ntag_85:\n    /* \"#utility.yul\":5144:5211   */\n  tag_86\n    /* \"#utility.yul\":5204:5210   */\n  dup6\n    /* \"#utility.yul\":5197:5202   */\n  dup3\n    /* \"#utility.yul\":5144:5211   */\n  tag_29\n  jump\t// in\ntag_86:\n    /* \"#utility.yul\":5138:5142   */\n  dup7\n    /* \"#utility.yul\":5131:5212   */\n  sstore\n    /* \"#utility.yul\":5000:5222   */\n  pop\n    /* \"#utility.yul\":4335:5222   */\n  jump(tag_83)\n    /* \"#utility.yul\":4365:4983   */\ntag_84:\n    /* \"#utility.yul\":4417:4421   */\n  0x1f\n    /* \"#utility.yul\":4413:4422   */\n  not\n    /* \"#utility.yul\":4405:4411   */\n  dup5\n    /* \"#utility.yul\":4401:4423   */\n  and\n    /* \"#utility.yul\":4451:4488   */\n  tag_87\n    /* \"#utility.yul\":4483:4487   */\n  dup7\n    /* \"#utility.yul\":4451:4488   */\n  tag_14\n  jump\t// in\ntag_87:\n    /* \"#utility.yul\":4510:4511   */\n  0x00\n    /* \"#utility.yul\":4524:4732   */\ntag_88:\n    /* \"#utility.yul\":4538:4545   */\n  dup3\n    /* \"#utility.yul\":4535:4536   */\n  dup2\n    /* \"#utility.yul\":4532:4546   */\n  lt\n    /* \"#utility.yul\":4524:4732   */\n  iszero\n  tag_90\n  jumpi\n    /* \"#utility.yul\":4617:4626   */\n  dup5\n    /* \"#utility.yul\":4612:4615   */\n  dup10\n    /* \"#utility.yul\":4608:4627   */\n  add\n    /* \"#utility.yul\":4602:4628   */\n  mload\n    /* \"#utility.yul\":4594:4600   */\n  dup3\n    /* \"#utility.yul\":4587:4629   */\n  sstore\n    /* \"#utility.yul\":4668:4669   */\n  0x01\n    /* \"#utility.yul\":4660:4666   */\n  dup3\n    /* \"#utility.yul\":4656:4670   */\n  add\n    /* \"#utility.yul\":4646:4670   */\n  swap2\n  pop\n    /* \"#utility.yul\":4715:4717   */\n  0x20\n    /* \"#utility.yul\":4704:4713   */\n  dup6\n    /* \"#utility.yul\":4700:4718   */\n  add\n    /* \"#utility.yul\":4687:4718   */\n  swap5\n  pop\n    /* \"#utility.yul\":4561:4565   */\n  0x20\n    /* \"#utility.yul\":4558:4559   */\n  dup2\n    /* \"#utility.yul\":4554:4566   */\n  add\n    /* \"#utility.yul\":4549:4566   */\n  swap1\n  pop\n    /* \"#utility.yul\":4524:4732   */\n  jump(tag_88)\ntag_90:\n    /* \"#utility.yul\":4760:4766   */\n  dup7\n    /* \"#utility.yul\":4751:4758   */\n  dup4\n    /* \"#utility.yul\":4748:4767   */\n  lt\n    /* \"#utility.yul\":4745:4924   */\n  iszero\n  tag_91\n  jumpi\n    /* \"#utility.yul\":4818:4827   */\n  dup5\n    /* \"#utility.yul\":4813:4816   */\n  dup10\n    /* \"#utility.yul\":4809:4828   */\n  add\n    /* \"#utility.yul\":4803:4829   */\n  mload\n    /* \"#utility.yul\":4861:4909   */\n  tag_92\n    /* \"#utility.yul\":4903:4907   */\n  0x1f\n    /* \"#utility.yul\":4895:4901   */\n  dup10\n    /* \"#utility.yul\":4891:4908   */\n  and\n    /* \"#utility.yul\":4880:4889   */\n  dup3\n    /* \"#utility.yul\":4861:4909   */\n  tag_28\n  jump\t// in\ntag_92:\n    /* \"#utility.yul\":4853:4859   */\n  dup4\n    /* \"#utility.yul\":4846:4910   */\n  sstore\n    /* \"#utility.yul\":4768:4924   */\n  pop\n    /* \"#utility.yul\":4745:4924   */\ntag_91:\n    /* \"#utility.yul\":4970:4971   */\n  0x01\n    /* \"#utility.yul\":4966:4967   */\n  0x02\n    /* \"#utility.yul\":4958:4964   */\n  dup9\n    /* \"#utility.yul\":4954:4968   */\n  mul\n    /* \"#utility.yul\":4950:4972   */\n  add\n    /* \"#utility.yul\":4944:4948   */\n  dup9\n    /* \"#utility.yul\":4937:4973   */\n  sstore\n    /* \"#utility.yul\":4372:4983   */\n  pop\n  pop\n  pop\n    /* \"#utility.yul\":4335:5222   */\ntag_83:\n  pop\n    /* \"#utility.yul\":3925:5228   */\n  pop\n  pop\n  pop\n    /* \"#utility.yul\":3833:5228   */\n  pop\n  pop\n  jump\t// out\n    /* \"#utility.yul\":5234:5352   */\ntag_30:\n    /* \"#utility.yul\":5321:5345   */\n  tag_94\n    /* \"#utility.yul\":5339:5344   */\n  dup2\n    /* \"#utility.yul\":5321:5345   */\n  tag_18\n  jump\t// in\ntag_94:\n    /* \"#utility.yul\":5316:5319   */\n  dup3\n    /* \"#utility.yul\":5309:5346   */\n  mstore\n    /* \"#utility.yul\":5234:5352   */\n  pop\n  pop\n  jump\t// out\n    /* \"#utility.yul\":5358:5580   */\ntag_8:\n    /* \"#utility.yul\":5451:5455   */\n  0x00\n    /* \"#utility.yul\":5489:5491   */\n  0x20\n    /* \"#utility.yul\":5478:5487   */\n  dup3\n    /* \"#utility.yul\":5474:5492   */\n  add\n    /* \"#utility.yul\":5466:5492   */\n  swap1\n  pop\n    /* \"#utility.yul\":5502:5573   */\n  tag_96\n    /* \"#utility.yul\":5570:5571   */\n  0x00\n    /* \"#utility.yul\":5559:5568   */\n  dup4\n    /* \"#utility.yul\":5555:5572   */\n  add\n    /* \"#utility.yul\":5546:5552   */\n  dup5\n    /* \"#utility.yul\":5502:5573   */\n  tag_30\n  jump\t// in\ntag_96:\n    /* \"#utility.yul\":5358:5580   */\n  swap3\n  swap2\n  pop\n  pop\n  jump\t// out\n    /* \"contracts/token/TPointi.sol\":976:4205  contract AdvancedToken is IBEP20 {... */\ntag_9:\n  dataSize(sub_0)\n  dup1\n  dataOffset(sub_0)\n  0x00\n  codecopy\n  0x00\n  return\nstop\n\nsub_0: assembly {\n        /* \"contracts/token/TPointi.sol\":976:4205  contract AdvancedToken is IBEP20 {... */\n      mstore(0x40, 0x80)\n      callvalue\n      dup1\n      iszero\n      tag_1\n      jumpi\n      0x00\n      dup1\n      revert\n    tag_1:\n      pop\n      jumpi(tag_2, lt(calldatasize, 0x04))\n      shr(0xe0, calldataload(0x00))\n      dup1\n      0x67243482\n      gt\n      tag_15\n      jumpi\n      dup1\n      0x67243482\n      eq\n      tag_9\n      jumpi\n      dup1\n      0x70a08231\n      eq\n      tag_10\n      jumpi\n      dup1\n      0x893d20e8\n      eq\n      tag_11\n      jumpi\n      dup1\n      0x95d89b41\n      eq\n      tag_12\n      jumpi\n      dup1\n      0xa9059cbb\n      eq\n      tag_13\n      jumpi\n      dup1\n      0xdd62ed3e\n      eq\n      tag_14\n      jumpi\n      jump(tag_2)\n    tag_15:\n      dup1\n      0x06fdde03\n      eq\n      tag_3\n      jumpi\n      dup1\n      0x095ea7b3\n      eq\n      tag_4\n      jumpi\n      dup1\n      0x18160ddd\n      eq\n      tag_5\n      jumpi\n      dup1\n      0x23b872dd\n      eq\n      tag_6\n      jumpi\n      dup1\n      0x313ce567\n      eq\n      tag_7\n      jumpi\n      dup1\n      0x42966c68\n      eq\n      tag_8\n      jumpi\n    tag_2:\n      0x00\n      dup1\n      revert\n        /* \"contracts/token/TPointi.sol\":1642:1722  function name() external view override returns (string memory) { return _name; } */\n    tag_3:\n      tag_16\n      tag_17\n      jump\t// in\n    tag_16:\n      mload(0x40)\n      tag_18\n      swap2\n      swap1\n      tag_19\n      jump\t// in\n    tag_18:\n      mload(0x40)\n      dup1\n      swap2\n      sub\n      swap1\n      return\n        /* \"contracts/token/TPointi.sol\":2506:2665  function approve(address spender, uint256 amount) public override returns (bool) {... */\n    tag_4:\n      tag_20\n      0x04\n      dup1\n      calldatasize\n      sub\n      dup2\n      add\n      swap1\n      tag_21\n      swap2\n      swap1\n      tag_22\n      jump\t// in\n    tag_21:\n      tag_23\n      jump\t// in\n    tag_20:\n      mload(0x40)\n      tag_24\n      swap2\n      swap1\n      tag_25\n      jump\t// in\n    tag_24:\n      mload(0x40)\n      dup1\n      swap2\n      sub\n      swap1\n      return\n        /* \"contracts/token/TPointi.sol\":1904:1992  function totalSupply() external view override returns (uint256) { return _totalSupply; } */\n    tag_5:\n      tag_26\n      tag_27\n      jump\t// in\n    tag_26:\n      mload(0x40)\n      tag_28\n      swap2\n      swap1\n      tag_29\n      jump\t// in\n    tag_28:\n      mload(0x40)\n      dup1\n      swap2\n      sub\n      swap1\n      return\n        /* \"contracts/token/TPointi.sol\":2673:2913  function transferFrom(address from, address to, uint256 amount) public override  returns (bool){... */\n    tag_6:\n      tag_30\n      0x04\n      dup1\n      calldatasize\n      sub\n      dup2\n      add\n      swap1\n      tag_31\n      swap2\n      swap1\n      tag_32\n      jump\t// in\n    tag_31:\n      tag_33\n      jump\t// in\n    tag_30:\n      mload(0x40)\n      tag_34\n      swap2\n      swap1\n      tag_25\n      jump\t// in\n    tag_34:\n      mload(0x40)\n      dup1\n      swap2\n      sub\n      swap1\n      return\n        /* \"contracts/token/TPointi.sol\":1818:1898  function decimals() external view override returns (uint8) { return _decimals; } */\n    tag_7:\n      tag_35\n      tag_36\n      jump\t// in\n    tag_35:\n      mload(0x40)\n      tag_37\n      swap2\n      swap1\n      tag_38\n      jump\t// in\n    tag_37:\n      mload(0x40)\n      dup1\n      swap2\n      sub\n      swap1\n      return\n        /* \"contracts/token/TPointi.sol\":3595:3857  function burn(uint256 amount) external  {... */\n    tag_8:\n      tag_39\n      0x04\n      dup1\n      calldatasize\n      sub\n      dup2\n      add\n      swap1\n      tag_40\n      swap2\n      swap1\n      tag_41\n      jump\t// in\n    tag_40:\n      tag_42\n      jump\t// in\n    tag_39:\n      stop\n        /* \"contracts/token/TPointi.sol\":3881:4198  function airdrop(address[] calldata recipients, uint256[] calldata amounts) external onlyOwner {... */\n    tag_9:\n      tag_43\n      0x04\n      dup1\n      calldatasize\n      sub\n      dup2\n      add\n      swap1\n      tag_44\n      swap2\n      swap1\n      tag_45\n      jump\t// in\n    tag_44:\n      tag_46\n      jump\t// in\n    tag_43:\n      stop\n        /* \"contracts/token/TPointi.sol\":2083:2188  function balanceOf(address account) public view override returns (uint256) { return _balances[account]; } */\n    tag_10:\n      tag_47\n      0x04\n      dup1\n      calldatasize\n      sub\n      dup2\n      add\n      swap1\n      tag_48\n      swap2\n      swap1\n      tag_49\n      jump\t// in\n    tag_48:\n      tag_50\n      jump\t// in\n    tag_47:\n      mload(0x40)\n      tag_51\n      swap2\n      swap1\n      tag_29\n      jump\t// in\n    tag_51:\n      mload(0x40)\n      dup1\n      swap2\n      sub\n      swap1\n      return\n        /* \"contracts/token/TPointi.sol\":1998:2077  function getOwner() external view override returns (address) { return _owner; } */\n    tag_11:\n      tag_52\n      tag_53\n      jump\t// in\n    tag_52:\n      mload(0x40)\n      tag_54\n      swap2\n      swap1\n      tag_55\n      jump\t// in\n    tag_54:\n      mload(0x40)\n      dup1\n      swap2\n      sub\n      swap1\n      return\n        /* \"contracts/token/TPointi.sol\":1728:1812  function symbol() external view override returns (string memory) { return _symbol; } */\n    tag_12:\n      tag_56\n      tag_57\n      jump\t// in\n    tag_56:\n      mload(0x40)\n      tag_58\n      swap2\n      swap1\n      tag_19\n      jump\t// in\n    tag_58:\n      mload(0x40)\n      dup1\n      swap2\n      sub\n      swap1\n      return\n        /* \"contracts/token/TPointi.sol\":2196:2347  function transfer(address to, uint256 amount) public override returns (bool) {... */\n    tag_13:\n      tag_59\n      0x04\n      dup1\n      calldatasize\n      sub\n      dup2\n      add\n      swap1\n      tag_60\n      swap2\n      swap1\n      tag_22\n      jump\t// in\n    tag_60:\n      tag_61\n      jump\t// in\n    tag_59:\n      mload(0x40)\n      tag_62\n      swap2\n      swap1\n      tag_25\n      jump\t// in\n    tag_62:\n      mload(0x40)\n      dup1\n      swap2\n      sub\n      swap1\n      return\n        /* \"contracts/token/TPointi.sol\":2355:2498  function allowance(address owner, address spender) public view override returns (uint256) {... */\n    tag_14:\n      tag_63\n      0x04\n      dup1\n      calldatasize\n      sub\n      dup2\n      add\n      swap1\n      tag_64\n      swap2\n      swap1\n      tag_65\n      jump\t// in\n    tag_64:\n      tag_66\n      jump\t// in\n    tag_63:\n      mload(0x40)\n      tag_67\n      swap2\n      swap1\n      tag_29\n      jump\t// in\n    tag_67:\n      mload(0x40)\n      dup1\n      swap2\n      sub\n      swap1\n      return\n        /* \"contracts/token/TPointi.sol\":1642:1722  function name() external view override returns (string memory) { return _name; } */\n    tag_17:\n        /* \"contracts/token/TPointi.sol\":1690:1703  string memory */\n      0x60\n        /* \"contracts/token/TPointi.sol\":1714:1719  _name */\n      0x00\n        /* \"contracts/token/TPointi.sol\":1707:1719  return _name */\n      dup1\n      sload\n      tag_69\n      swap1\n      tag_70\n      jump\t// in\n    tag_69:\n      dup1\n      0x1f\n      add\n      0x20\n      dup1\n      swap2\n      div\n      mul\n      0x20\n      add\n      mload(0x40)\n      swap1\n      dup2\n      add\n      0x40\n      mstore\n      dup1\n      swap3\n      swap2\n      swap1\n      dup2\n      dup2\n      mstore\n      0x20\n      add\n      dup3\n      dup1\n      sload\n      tag_71\n      swap1\n      tag_70\n      jump\t// in\n    tag_71:\n      dup1\n      iszero\n      tag_72\n      jumpi\n      dup1\n      0x1f\n      lt\n      tag_73\n      jumpi\n      0x0100\n      dup1\n      dup4\n      sload\n      div\n      mul\n      dup4\n      mstore\n      swap2\n      0x20\n      add\n      swap2\n      jump(tag_72)\n    tag_73:\n      dup3\n      add\n      swap2\n      swap1\n      0x00\n      mstore\n      keccak256(0x00, 0x20)\n      swap1\n    tag_74:\n      dup2\n      sload\n      dup2\n      mstore\n      swap1\n      0x01\n      add\n      swap1\n      0x20\n      add\n      dup1\n      dup4\n      gt\n      tag_74\n      jumpi\n      dup3\n      swap1\n      sub\n      0x1f\n      and\n      dup3\n      add\n      swap2\n    tag_72:\n      pop\n      pop\n      pop\n      pop\n      pop\n      swap1\n      pop\n        /* \"contracts/token/TPointi.sol\":1642:1722  function name() external view override returns (string memory) { return _name; } */\n      swap1\n      jump\t// out\n        /* \"contracts/token/TPointi.sol\":2506:2665  function approve(address spender, uint256 amount) public override returns (bool) {... */\n    tag_23:\n        /* \"contracts/token/TPointi.sol\":2581:2585  bool */\n      0x00\n        /* \"contracts/token/TPointi.sol\":2598:2635  _approve(msg.sender, spender, amount) */\n      tag_76\n        /* \"contracts/token/TPointi.sol\":2607:2617  msg.sender */\n      caller\n        /* \"contracts/token/TPointi.sol\":2619:2626  spender */\n      dup5\n        /* \"contracts/token/TPointi.sol\":2628:2634  amount */\n      dup5\n        /* \"contracts/token/TPointi.sol\":2598:2606  _approve */\n      tag_77\n        /* \"contracts/token/TPointi.sol\":2598:2635  _approve(msg.sender, spender, amount) */\n      jump\t// in\n    tag_76:\n        /* \"contracts/token/TPointi.sol\":2653:2657  true */\n      0x01\n        /* \"contracts/token/TPointi.sol\":2646:2657  return true */\n      swap1\n      pop\n        /* \"contracts/token/TPointi.sol\":2506:2665  function approve(address spender, uint256 amount) public override returns (bool) {... */\n      swap3\n      swap2\n      pop\n      pop\n      jump\t// out\n        /* \"contracts/token/TPointi.sol\":1904:1992  function totalSupply() external view override returns (uint256) { return _totalSupply; } */\n    tag_27:\n        /* \"contracts/token/TPointi.sol\":1959:1966  uint256 */\n      0x00\n        /* \"contracts/token/TPointi.sol\":1977:1989  _totalSupply */\n      sload(0x03)\n        /* \"contracts/token/TPointi.sol\":1970:1989  return _totalSupply */\n      swap1\n      pop\n        /* \"contracts/token/TPointi.sol\":1904:1992  function totalSupply() external view override returns (uint256) { return _totalSupply; } */\n      swap1\n      jump\t// out\n        /* \"contracts/token/TPointi.sol\":2673:2913  function transferFrom(address from, address to, uint256 amount) public override  returns (bool){... */\n    tag_33:\n        /* \"contracts/token/TPointi.sol\":2763:2767  bool */\n      0x00\n        /* \"contracts/token/TPointi.sol\":2779:2806  _transfer(from, to, amount) */\n      tag_80\n        /* \"contracts/token/TPointi.sol\":2789:2793  from */\n      dup5\n        /* \"contracts/token/TPointi.sol\":2795:2797  to */\n      dup5\n        /* \"contracts/token/TPointi.sol\":2799:2805  amount */\n      dup5\n        /* \"contracts/token/TPointi.sol\":2779:2788  _transfer */\n      tag_81\n        /* \"contracts/token/TPointi.sol\":2779:2806  _transfer(from, to, amount) */\n      jump\t// in\n    tag_80:\n        /* \"contracts/token/TPointi.sol\":2817:2883  _approve(from, msg.sender, _allowances[from][msg.sender] - amount) */\n      tag_82\n        /* \"contracts/token/TPointi.sol\":2826:2830  from */\n      dup5\n        /* \"contracts/token/TPointi.sol\":2832:2842  msg.sender */\n      caller\n        /* \"contracts/token/TPointi.sol\":2876:2882  amount */\n      dup5\n        /* \"contracts/token/TPointi.sol\":2844:2855  _allowances */\n      0x06\n        /* \"contracts/token/TPointi.sol\":2844:2861  _allowances[from] */\n      0x00\n        /* \"contracts/token/TPointi.sol\":2856:2860  from */\n      dup10\n        /* \"contracts/token/TPointi.sol\":2844:2861  _allowances[from] */\n      0xffffffffffffffffffffffffffffffffffffffff\n      and\n      0xffffffffffffffffffffffffffffffffffffffff\n      and\n      dup2\n      mstore\n      0x20\n      add\n      swap1\n      dup2\n      mstore\n      0x20\n      add\n      0x00\n      keccak256\n        /* \"contracts/token/TPointi.sol\":2844:2873  _allowances[from][msg.sender] */\n      0x00\n        /* \"contracts/token/TPointi.sol\":2862:2872  msg.sender */\n      caller\n        /* \"contracts/token/TPointi.sol\":2844:2873  _allowances[from][msg.sender] */\n      0xffffffffffffffffffffffffffffffffffffffff\n      and\n      0xffffffffffffffffffffffffffffffffffffffff\n      and\n      dup2\n      mstore\n      0x20\n      add\n      swap1\n      dup2\n      mstore\n      0x20\n      add\n      0x00\n      keccak256\n      sload\n        /* \"contracts/token/TPointi.sol\":2844:2882  _allowances[from][msg.sender] - amount */\n      tag_83\n      swap2\n      swap1\n      tag_84\n      jump\t// in\n    tag_83:\n        /* \"contracts/token/TPointi.sol\":2817:2825  _approve */\n      tag_77\n        /* \"contracts/token/TPointi.sol\":2817:2883  _approve(from, msg.sender, _allowances[from][msg.sender] - amount) */\n      jump\t// in\n    tag_82:\n        /* \"contracts/token/TPointi.sol\":2901:2905  true */\n      0x01\n        /* \"contracts/token/TPointi.sol\":2894:2905  return true */\n      swap1\n      pop\n        /* \"contracts/token/TPointi.sol\":2673:2913  function transferFrom(address from, address to, uint256 amount) public override  returns (bool){... */\n      swap4\n      swap3\n      pop\n      pop\n      pop\n      jump\t// out\n        /* \"contracts/token/TPointi.sol\":1818:1898  function decimals() external view override returns (uint8) { return _decimals; } */\n    tag_36:\n        /* \"contracts/token/TPointi.sol\":1870:1875  uint8 */\n      0x00\n        /* \"contracts/token/TPointi.sol\":1886:1895  _decimals */\n      0x02\n      0x00\n      swap1\n      sload\n      swap1\n      0x0100\n      exp\n      swap1\n      div\n      0xff\n      and\n        /* \"contracts/token/TPointi.sol\":1879:1895  return _decimals */\n      swap1\n      pop\n        /* \"contracts/token/TPointi.sol\":1818:1898  function decimals() external view override returns (uint8) { return _decimals; } */\n      swap1\n      jump\t// out\n        /* \"contracts/token/TPointi.sol\":3595:3857  function burn(uint256 amount) external  {... */\n    tag_42:\n        /* \"contracts/token/TPointi.sol\":3679:3685  amount */\n      dup1\n        /* \"contracts/token/TPointi.sol\":3654:3663  _balances */\n      0x05\n        /* \"contracts/token/TPointi.sol\":3654:3675  _balances[msg.sender] */\n      0x00\n        /* \"contracts/token/TPointi.sol\":3664:3674  msg.sender */\n      caller\n        /* \"contracts/token/TPointi.sol\":3654:3675  _balances[msg.sender] */\n      0xffffffffffffffffffffffffffffffffffffffff\n      and\n      0xffffffffffffffffffffffffffffffffffffffff\n      and\n      dup2\n      mstore\n      0x20\n      add\n      swap1\n      dup2\n      mstore\n      0x20\n      add\n      0x00\n      keccak256\n      sload\n        /* \"contracts/token/TPointi.sol\":3654:3685  _balances[msg.sender] >= amount */\n      lt\n      iszero\n        /* \"contracts/token/TPointi.sol\":3646:3718  require(_balances[msg.sender] >= amount, \"Insufficient balance to burn\") */\n      tag_87\n      jumpi\n      mload(0x40)\n      0x08c379a000000000000000000000000000000000000000000000000000000000\n      dup2\n      mstore\n      0x04\n      add\n      tag_88\n      swap1\n      tag_89\n      jump\t// in\n    tag_88:\n      mload(0x40)\n      dup1\n      swap2\n      sub\n      swap1\n      revert\n    tag_87:\n        /* \"contracts/token/TPointi.sol\":3754:3760  amount */\n      dup1\n        /* \"contracts/token/TPointi.sol\":3729:3738  _balances */\n      0x05\n        /* \"contracts/token/TPointi.sol\":3729:3750  _balances[msg.sender] */\n      0x00\n        /* \"contracts/token/TPointi.sol\":3739:3749  msg.sender */\n      caller\n        /* \"contracts/token/TPointi.sol\":3729:3750  _balances[msg.sender] */\n      0xffffffffffffffffffffffffffffffffffffffff\n      and\n      0xffffffffffffffffffffffffffffffffffffffff\n      and\n      dup2\n      mstore\n      0x20\n      add\n      swap1\n      dup2\n      mstore\n      0x20\n      add\n      0x00\n      keccak256\n      0x00\n        /* \"contracts/token/TPointi.sol\":3729:3760  _balances[msg.sender] -= amount */\n      dup3\n      dup3\n      sload\n      tag_90\n      swap2\n      swap1\n      tag_84\n      jump\t// in\n    tag_90:\n      swap3\n      pop\n      pop\n      dup2\n      swap1\n      sstore\n      pop\n        /* \"contracts/token/TPointi.sol\":3787:3793  amount */\n      dup1\n        /* \"contracts/token/TPointi.sol\":3771:3783  _totalSupply */\n      0x03\n      0x00\n        /* \"contracts/token/TPointi.sol\":3771:3793  _totalSupply -= amount */\n      dup3\n      dup3\n      sload\n      tag_91\n      swap2\n      swap1\n      tag_84\n      jump\t// in\n    tag_91:\n      swap3\n      pop\n      pop\n      dup2\n      swap1\n      sstore\n      pop\n        /* \"contracts/token/TPointi.sol\":3838:3839  0 */\n      0x00\n        /* \"contracts/token/TPointi.sol\":3809:3849  Transfer(msg.sender, address(0), amount) */\n      0xffffffffffffffffffffffffffffffffffffffff\n      and\n        /* \"contracts/token/TPointi.sol\":3818:3828  msg.sender */\n      caller\n        /* \"contracts/token/TPointi.sol\":3809:3849  Transfer(msg.sender, address(0), amount) */\n      0xffffffffffffffffffffffffffffffffffffffff\n      and\n      0xddf252ad1be2c89b69c2b068fc378daa952ba7f163c4a11628f55a4df523b3ef\n        /* \"contracts/token/TPointi.sol\":3842:3848  amount */\n      dup4\n        /* \"contracts/token/TPointi.sol\":3809:3849  Transfer(msg.sender, address(0), amount) */\n      mload(0x40)\n      tag_92\n      swap2\n      swap1\n      tag_29\n      jump\t// in\n    tag_92:\n      mload(0x40)\n      dup1\n      swap2\n      sub\n      swap1\n      log3\n        /* \"contracts/token/TPointi.sol\":3595:3857  function burn(uint256 amount) external  {... */\n      pop\n      jump\t// out\n        /* \"contracts/token/TPointi.sol\":3881:4198  function airdrop(address[] calldata recipients, uint256[] calldata amounts) external onlyOwner {... */\n    tag_46:\n        /* \"contracts/token/TPointi.sol\":1401:1407  _owner */\n      0x04\n      0x00\n      swap1\n      sload\n      swap1\n      0x0100\n      exp\n      swap1\n      div\n      0xffffffffffffffffffffffffffffffffffffffff\n      and\n        /* \"contracts/token/TPointi.sol\":1387:1407  msg.sender == _owner */\n      0xffffffffffffffffffffffffffffffffffffffff\n      and\n        /* \"contracts/token/TPointi.sol\":1387:1397  msg.sender */\n      caller\n        /* \"contracts/token/TPointi.sol\":1387:1407  msg.sender == _owner */\n      0xffffffffffffffffffffffffffffffffffffffff\n      and\n      eq\n        /* \"contracts/token/TPointi.sol\":1379:1422  require(msg.sender == _owner, \"Only owner\") */\n      tag_94\n      jumpi\n      mload(0x40)\n      0x08c379a000000000000000000000000000000000000000000000000000000000\n      dup2\n      mstore\n      0x04\n      add\n      tag_95\n      swap1\n      tag_96\n      jump\t// in\n    tag_95:\n      mload(0x40)\n      dup1\n      swap2\n      sub\n      swap1\n      revert\n    tag_94:\n        /* \"contracts/token/TPointi.sol\":4016:4023  amounts */\n      dup2\n      dup2\n        /* \"contracts/token/TPointi.sol\":4016:4030  amounts.length */\n      swap1\n      pop\n        /* \"contracts/token/TPointi.sol\":3995:4005  recipients */\n      dup5\n      dup5\n        /* \"contracts/token/TPointi.sol\":3995:4012  recipients.length */\n      swap1\n      pop\n        /* \"contracts/token/TPointi.sol\":3995:4030  recipients.length == amounts.length */\n      eq\n        /* \"contracts/token/TPointi.sol\":3987:4057  require(recipients.length == amounts.length, \"Array lengths mismatch\") */\n      tag_98\n      jumpi\n      mload(0x40)\n      0x08c379a000000000000000000000000000000000000000000000000000000000\n      dup2\n      mstore\n      0x04\n      add\n      tag_99\n      swap1\n      tag_100\n      jump\t// in\n    tag_99:\n      mload(0x40)\n      dup1\n      swap2\n      sub\n      swap1\n      revert\n    tag_98:\n        /* \"contracts/token/TPointi.sol\":4073:4082  uint256 i */\n      0x00\n        /* \"contracts/token/TPointi.sol\":4068:4191  for (uint256 i = 0; i < recipients.length; i++) {... */\n    tag_101:\n        /* \"contracts/token/TPointi.sol\":4092:4102  recipients */\n      dup5\n      dup5\n        /* \"contracts/token/TPointi.sol\":4092:4109  recipients.length */\n      swap1\n      pop\n        /* \"contracts/token/TPointi.sol\":4088:4089  i */\n      dup2\n        /* \"contracts/token/TPointi.sol\":4088:4109  i < recipients.length */\n      lt\n        /* \"contracts/token/TPointi.sol\":4068:4191  for (uint256 i = 0; i < recipients.length; i++) {... */\n      iszero\n      tag_102\n      jumpi\n        /* \"contracts/token/TPointi.sol\":4131:4179  _transfer(msg.sender, recipients[i], amounts[i]) */\n      tag_104\n        /* \"contracts/token/TPointi.sol\":4141:4151  msg.sender */\n      caller\n        /* \"contracts/token/TPointi.sol\":4153:4163  recipients */\n      dup7\n      dup7\n        /* \"contracts/token/TPointi.sol\":4164:4165  i */\n      dup5\n        /* \"contracts/token/TPointi.sol\":4153:4166  recipients[i] */\n      dup2\n      dup2\n      lt\n      tag_105\n      jumpi\n      tag_106\n      tag_107\n      jump\t// in\n    tag_106:\n    tag_105:\n      swap1\n      pop\n      0x20\n      mul\n      add\n      0x20\n      dup2\n      add\n      swap1\n      tag_108\n      swap2\n      swap1\n      tag_49\n      jump\t// in\n    tag_108:\n        /* \"contracts/token/TPointi.sol\":4168:4175  amounts */\n      dup6\n      dup6\n        /* \"contracts/token/TPointi.sol\":4176:4177  i */\n      dup6\n        /* \"contracts/token/TPointi.sol\":4168:4178  amounts[i] */\n      dup2\n      dup2\n      lt\n      tag_109\n      jumpi\n      tag_110\n      tag_107\n      jump\t// in\n    tag_110:\n    tag_109:\n      swap1\n      pop\n      0x20\n      mul\n      add\n      calldataload\n        /* \"contracts/token/TPointi.sol\":4131:4140  _transfer */\n      tag_81\n        /* \"contracts/token/TPointi.sol\":4131:4179  _transfer(msg.sender, recipients[i], amounts[i]) */\n      jump\t// in\n    tag_104:\n        /* \"contracts/token/TPointi.sol\":4111:4114  i++ */\n      dup1\n      dup1\n      tag_111\n      swap1\n      tag_112\n      jump\t// in\n    tag_111:\n      swap2\n      pop\n      pop\n        /* \"contracts/token/TPointi.sol\":4068:4191  for (uint256 i = 0; i < recipients.length; i++) {... */\n      jump(tag_101)\n    tag_102:\n      pop\n        /* \"contracts/token/TPointi.sol\":3881:4198  function airdrop(address[] calldata recipients, uint256[] calldata amounts) external onlyOwner {... */\n      pop\n      pop\n      pop\n      pop\n      jump\t// out\n        /* \"contracts/token/TPointi.sol\":2083:2188  function balanceOf(address account) public view override returns (uint256) { return _balances[account]; } */\n    tag_50:\n        /* \"contracts/token/TPointi.sol\":2149:2156  uint256 */\n      0x00\n        /* \"contracts/token/TPointi.sol\":2167:2176  _balances */\n      0x05\n        /* \"contracts/token/TPointi.sol\":2167:2185  _balances[account] */\n      0x00\n        /* \"contracts/token/TPointi.sol\":2177:2184  account */\n      dup4\n        /* \"contracts/token/TPointi.sol\":2167:2185  _balances[account] */\n      0xffffffffffffffffffffffffffffffffffffffff\n      and\n      0xffffffffffffffffffffffffffffffffffffffff\n      and\n      dup2\n      mstore\n      0x20\n      add\n      swap1\n      dup2\n      mstore\n      0x20\n      add\n      0x00\n      keccak256\n      sload\n        /* \"contracts/token/TPointi.sol\":2160:2185  return _balances[account] */\n      swap1\n      pop\n        /* \"contracts/token/TPointi.sol\":2083:2188  function balanceOf(address account) public view override returns (uint256) { return _balances[account]; } */\n      swap2\n      swap1\n      pop\n      jump\t// out\n        /* \"contracts/token/TPointi.sol\":1998:2077  function getOwner() external view override returns (address) { return _owner; } */\n    tag_53:\n        /* \"contracts/token/TPointi.sol\":2050:2057  address */\n      0x00\n        /* \"contracts/token/TPointi.sol\":2068:2074  _owner */\n      0x04\n      0x00\n      swap1\n      sload\n      swap1\n      0x0100\n      exp\n      swap1\n      div\n      0xffffffffffffffffffffffffffffffffffffffff\n      and\n        /* \"contracts/token/TPointi.sol\":2061:2074  return _owner */\n      swap1\n      pop\n        /* \"contracts/token/TPointi.sol\":1998:2077  function getOwner() external view override returns (address) { return _owner; } */\n      swap1\n      jump\t// out\n        /* \"contracts/token/TPointi.sol\":1728:1812  function symbol() external view override returns (string memory) { return _symbol; } */\n    tag_57:\n        /* \"contracts/token/TPointi.sol\":1778:1791  string memory */\n      0x60\n        /* \"contracts/token/TPointi.sol\":1802:1809  _symbol */\n      0x01\n        /* \"contracts/token/TPointi.sol\":1795:1809  return _symbol */\n      dup1\n      sload\n      tag_116\n      swap1\n      tag_70\n      jump\t// in\n    tag_116:\n      dup1\n      0x1f\n      add\n      0x20\n      dup1\n      swap2\n      div\n      mul\n      0x20\n      add\n      mload(0x40)\n      swap1\n      dup2\n      add\n      0x40\n      mstore\n      dup1\n      swap3\n      swap2\n      swap1\n      dup2\n      dup2\n      mstore\n      0x20\n      add\n      dup3\n      dup1\n      sload\n      tag_117\n      swap1\n      tag_70\n      jump\t// in\n    tag_117:\n      dup1\n      iszero\n      tag_118\n      jumpi\n      dup1\n      0x1f\n      lt\n      tag_119\n      jumpi\n      0x0100\n      dup1\n      dup4\n      sload\n      div\n      mul\n      dup4\n      mstore\n      swap2\n      0x20\n      add\n      swap2\n      jump(tag_118)\n    tag_119:\n      dup3\n      add\n      swap2\n      swap1\n      0x00\n      mstore\n      keccak256(0x00, 0x20)\n      swap1\n    tag_120:\n      dup2\n      sload\n      dup2\n      mstore\n      swap1\n      0x01\n      add\n      swap1\n      0x20\n      add\n      dup1\n      dup4\n      gt\n      tag_120\n      jumpi\n      dup3\n      swap1\n      sub\n      0x1f\n      and\n      dup3\n      add\n      swap2\n    tag_118:\n      pop\n      pop\n      pop\n      pop\n      pop\n      swap1\n      pop\n        /* \"contracts/token/TPointi.sol\":1728:1812  function symbol() external view override returns (string memory) { return _symbol; } */\n      swap1\n      jump\t// out\n        /* \"contracts/token/TPointi.sol\":2196:2347  function transfer(address to, uint256 amount) public override returns (bool) {... */\n    tag_61:\n        /* \"contracts/token/TPointi.sol\":2267:2271  bool */\n      0x00\n        /* \"contracts/token/TPointi.sol\":2284:2317  _transfer(msg.sender, to, amount) */\n      tag_122\n        /* \"contracts/token/TPointi.sol\":2294:2304  msg.sender */\n      caller\n        /* \"contracts/token/TPointi.sol\":2306:2308  to */\n      dup5\n        /* \"contracts/token/TPointi.sol\":2310:2316  amount */\n      dup5\n        /* \"contracts/token/TPointi.sol\":2284:2293  _transfer */\n      tag_81\n        /* \"contracts/token/TPointi.sol\":2284:2317  _transfer(msg.sender, to, amount) */\n      jump\t// in\n    tag_122:\n        /* \"contracts/token/TPointi.sol\":2335:2339  true */\n      0x01\n        /* \"contracts/token/TPointi.sol\":2328:2339  return true */\n      swap1\n      pop\n        /* \"contracts/token/TPointi.sol\":2196:2347  function transfer(address to, uint256 amount) public override returns (bool) {... */\n      swap3\n      swap2\n      pop\n      pop\n      jump\t// out\n        /* \"contracts/token/TPointi.sol\":2355:2498  function allowance(address owner, address spender) public view override returns (uint256) {... */\n    tag_66:\n        /* \"contracts/token/TPointi.sol\":2436:2443  uint256 */\n      0x00\n        /* \"contracts/token/TPointi.sol\":2463:2474  _allowances */\n      0x06\n        /* \"contracts/token/TPointi.sol\":2463:2481  _allowances[owner] */\n      0x00\n        /* \"contracts/token/TPointi.sol\":2475:2480  owner */\n      dup5\n        /* \"contracts/token/TPointi.sol\":2463:2481  _allowances[owner] */\n      0xffffffffffffffffffffffffffffffffffffffff\n      and\n      0xffffffffffffffffffffffffffffffffffffffff\n      and\n      dup2\n      mstore\n      0x20\n      add\n      swap1\n      dup2\n      mstore\n      0x20\n      add\n      0x00\n      keccak256\n        /* \"contracts/token/TPointi.sol\":2463:2490  _allowances[owner][spender] */\n      0x00\n        /* \"contracts/token/TPointi.sol\":2482:2489  spender */\n      dup4\n        /* \"contracts/token/TPointi.sol\":2463:2490  _allowances[owner][spender] */\n      0xffffffffffffffffffffffffffffffffffffffff\n      and\n      0xffffffffffffffffffffffffffffffffffffffff\n      and\n      dup2\n      mstore\n      0x20\n      add\n      swap1\n      dup2\n      mstore\n      0x20\n      add\n      0x00\n      keccak256\n      sload\n        /* \"contracts/token/TPointi.sol\":2456:2490  return _allowances[owner][spender] */\n      swap1\n      pop\n        /* \"contracts/token/TPointi.sol\":2355:2498  function allowance(address owner, address spender) public view override returns (uint256) {... */\n      swap3\n      swap2\n      pop\n      pop\n      jump\t// out\n        /* \"contracts/token/TPointi.sol\":3304:3565  function _approve(address owner, address spender, uint256 amount) internal {... */\n    tag_77:\n        /* \"contracts/token/TPointi.sol\":3415:3416  0 */\n      0x00\n        /* \"contracts/token/TPointi.sol\":3398:3417  owner != address(0) */\n      0xffffffffffffffffffffffffffffffffffffffff\n      and\n        /* \"contracts/token/TPointi.sol\":3398:3403  owner */\n      dup4\n        /* \"contracts/token/TPointi.sol\":3398:3417  owner != address(0) */\n      0xffffffffffffffffffffffffffffffffffffffff\n      and\n      eq\n      iszero\n        /* \"contracts/token/TPointi.sol\":3398:3442  owner != address(0) && spender != address(0) */\n      dup1\n      iszero\n      tag_125\n      jumpi\n      pop\n        /* \"contracts/token/TPointi.sol\":3440:3441  0 */\n      0x00\n        /* \"contracts/token/TPointi.sol\":3421:3442  spender != address(0) */\n      0xffffffffffffffffffffffffffffffffffffffff\n      and\n        /* \"contracts/token/TPointi.sol\":3421:3428  spender */\n      dup3\n        /* \"contracts/token/TPointi.sol\":3421:3442  spender != address(0) */\n      0xffffffffffffffffffffffffffffffffffffffff\n      and\n      eq\n      iszero\n        /* \"contracts/token/TPointi.sol\":3398:3442  owner != address(0) && spender != address(0) */\n    tag_125:\n        /* \"contracts/token/TPointi.sol\":3390:3462  require(owner != address(0) && spender != address(0), \"Invalid address\") */\n      tag_126\n      jumpi\n      mload(0x40)\n      0x08c379a000000000000000000000000000000000000000000000000000000000\n      dup2\n      mstore\n      0x04\n      add\n      tag_127\n      swap1\n      tag_128\n      jump\t// in\n    tag_127:\n      mload(0x40)\n      dup1\n      swap2\n      sub\n      swap1\n      revert\n    tag_126:\n        /* \"contracts/token/TPointi.sol\":3503:3509  amount */\n      dup1\n        /* \"contracts/token/TPointi.sol\":3473:3484  _allowances */\n      0x06\n        /* \"contracts/token/TPointi.sol\":3473:3491  _allowances[owner] */\n      0x00\n        /* \"contracts/token/TPointi.sol\":3485:3490  owner */\n      dup6\n        /* \"contracts/token/TPointi.sol\":3473:3491  _allowances[owner] */\n      0xffffffffffffffffffffffffffffffffffffffff\n      and\n      0xffffffffffffffffffffffffffffffffffffffff\n      and\n      dup2\n      mstore\n      0x20\n      add\n      swap1\n      dup2\n      mstore\n      0x20\n      add\n      0x00\n      keccak256\n        /* \"contracts/token/TPointi.sol\":3473:3500  _allowances[owner][spender] */\n      0x00\n        /* \"contracts/token/TPointi.sol\":3492:3499  spender */\n      dup5\n        /* \"contracts/token/TPointi.sol\":3473:3500  _allowances[owner][spender] */\n      0xffffffffffffffffffffffffffffffffffffffff\n      and\n      0xffffffffffffffffffffffffffffffffffffffff\n      and\n      dup2\n      mstore\n      0x20\n      add\n      swap1\n      dup2\n      mstore\n      0x20\n      add\n      0x00\n      keccak256\n        /* \"contracts/token/TPointi.sol\":3473:3509  _allowances[owner][spender] = amount */\n      dup2\n      swap1\n      sstore\n      pop\n        /* \"contracts/token/TPointi.sol\":3541:3548  spender */\n      dup2\n        /* \"contracts/token/TPointi.sol\":3525:3557  Approval(owner, spender, amount) */\n      0xffffffffffffffffffffffffffffffffffffffff\n      and\n        /* \"contracts/token/TPointi.sol\":3534:3539  owner */\n      dup4\n        /* \"contracts/token/TPointi.sol\":3525:3557  Approval(owner, spender, amount) */\n      0xffffffffffffffffffffffffffffffffffffffff\n      and\n      0x8c5be1e5ebec7d5bd14f71427d1e84f3dd0314c0f7b2291e5b200ac8c7c3b925\n        /* \"contracts/token/TPointi.sol\":3550:3556  amount */\n      dup4\n        /* \"contracts/token/TPointi.sol\":3525:3557  Approval(owner, spender, amount) */\n      mload(0x40)\n      tag_129\n      swap2\n      swap1\n      tag_29\n      jump\t// in\n    tag_129:\n      mload(0x40)\n      dup1\n      swap2\n      sub\n      swap1\n      log3\n        /* \"contracts/token/TPointi.sol\":3304:3565  function _approve(address owner, address spender, uint256 amount) internal {... */\n      pop\n      pop\n      pop\n      jump\t// out\n        /* \"contracts/token/TPointi.sol\":2956:3296  function _transfer(address from, address to, uint256 amount) internal {... */\n    tag_81:\n        /* \"contracts/token/TPointi.sol\":3061:3062  0 */\n      0x00\n        /* \"contracts/token/TPointi.sol\":3045:3063  from != address(0) */\n      0xffffffffffffffffffffffffffffffffffffffff\n      and\n        /* \"contracts/token/TPointi.sol\":3045:3049  from */\n      dup4\n        /* \"contracts/token/TPointi.sol\":3045:3063  from != address(0) */\n      0xffffffffffffffffffffffffffffffffffffffff\n      and\n      eq\n      iszero\n        /* \"contracts/token/TPointi.sol\":3045:3083  from != address(0) && to != address(0) */\n      dup1\n      iszero\n      tag_131\n      jumpi\n      pop\n        /* \"contracts/token/TPointi.sol\":3081:3082  0 */\n      0x00\n        /* \"contracts/token/TPointi.sol\":3067:3083  to != address(0) */\n      0xffffffffffffffffffffffffffffffffffffffff\n      and\n        /* \"contracts/token/TPointi.sol\":3067:3069  to */\n      dup3\n        /* \"contracts/token/TPointi.sol\":3067:3083  to != address(0) */\n      0xffffffffffffffffffffffffffffffffffffffff\n      and\n      eq\n      iszero\n        /* \"contracts/token/TPointi.sol\":3045:3083  from != address(0) && to != address(0) */\n    tag_131:\n        /* \"contracts/token/TPointi.sol\":3037:3103  require(from != address(0) && to != address(0), \"Invalid address\") */\n      tag_132\n      jumpi\n      mload(0x40)\n      0x08c379a000000000000000000000000000000000000000000000000000000000\n      dup2\n      mstore\n      0x04\n      add\n      tag_133\n      swap1\n      tag_128\n      jump\t// in\n    tag_133:\n      mload(0x40)\n      dup1\n      swap2\n      sub\n      swap1\n      revert\n    tag_132:\n        /* \"contracts/token/TPointi.sol\":3141:3147  amount */\n      dup1\n        /* \"contracts/token/TPointi.sol\":3122:3131  _balances */\n      0x05\n        /* \"contracts/token/TPointi.sol\":3122:3137  _balances[from] */\n      0x00\n        /* \"contracts/token/TPointi.sol\":3132:3136  from */\n      dup6\n        /* \"contracts/token/TPointi.sol\":3122:3137  _balances[from] */\n      0xffffffffffffffffffffffffffffffffffffffff\n      and\n      0xffffffffffffffffffffffffffffffffffffffff\n      and\n      dup2\n      mstore\n      0x20\n      add\n      swap1\n      dup2\n      mstore\n      0x20\n      add\n      0x00\n      keccak256\n      sload\n        /* \"contracts/token/TPointi.sol\":3122:3147  _balances[from] >= amount */\n      lt\n      iszero\n        /* \"contracts/token/TPointi.sol\":3114:3172  require(_balances[from] >= amount, \"Insufficient balance\") */\n      tag_134\n      jumpi\n      mload(0x40)\n      0x08c379a000000000000000000000000000000000000000000000000000000000\n      dup2\n      mstore\n      0x04\n      add\n      tag_135\n      swap1\n      tag_136\n      jump\t// in\n    tag_135:\n      mload(0x40)\n      dup1\n      swap2\n      sub\n      swap1\n      revert\n    tag_134:\n        /* \"contracts/token/TPointi.sol\":3204:3210  amount */\n      dup1\n        /* \"contracts/token/TPointi.sol\":3185:3194  _balances */\n      0x05\n        /* \"contracts/token/TPointi.sol\":3185:3200  _balances[from] */\n      0x00\n        /* \"contracts/token/TPointi.sol\":3195:3199  from */\n      dup6\n        /* \"contracts/token/TPointi.sol\":3185:3200  _balances[from] */\n      0xffffffffffffffffffffffffffffffffffffffff\n      and\n      0xffffffffffffffffffffffffffffffffffffffff\n      and\n      dup2\n      mstore\n      0x20\n      add\n      swap1\n      dup2\n      mstore\n      0x20\n      add\n      0x00\n      keccak256\n      0x00\n        /* \"contracts/token/TPointi.sol\":3185:3210  _balances[from] -= amount */\n      dup3\n      dup3\n      sload\n      tag_137\n      swap2\n      swap1\n      tag_84\n      jump\t// in\n    tag_137:\n      swap3\n      pop\n      pop\n      dup2\n      swap1\n      sstore\n      pop\n        /* \"contracts/token/TPointi.sol\":3238:3244  amount */\n      dup1\n        /* \"contracts/token/TPointi.sol\":3221:3230  _balances */\n      0x05\n        /* \"contracts/token/TPointi.sol\":3221:3234  _balances[to] */\n      0x00\n        /* \"contracts/token/TPointi.sol\":3231:3233  to */\n      dup5\n        /* \"contracts/token/TPointi.sol\":3221:3234  _balances[to] */\n      0xffffffffffffffffffffffffffffffffffffffff\n      and\n      0xffffffffffffffffffffffffffffffffffffffff\n      and\n      dup2\n      mstore\n      0x20\n      add\n      swap1\n      dup2\n      mstore\n      0x20\n      add\n      0x00\n      keccak256\n      0x00\n        /* \"contracts/token/TPointi.sol\":3221:3244  _balances[to] += amount */\n      dup3\n      dup3\n      sload\n      tag_138\n      swap2\n      swap1\n      tag_139\n      jump\t// in\n    tag_138:\n      swap3\n      pop\n      pop\n      dup2\n      swap1\n      sstore\n      pop\n        /* \"contracts/token/TPointi.sol\":3277:3279  to */\n      dup2\n        /* \"contracts/token/TPointi.sol\":3262:3288  Transfer(from, to, amount) */\n      0xffffffffffffffffffffffffffffffffffffffff\n      and\n        /* \"contracts/token/TPointi.sol\":3271:3275  from */\n      dup4\n        /* \"contracts/token/TPointi.sol\":3262:3288  Transfer(from, to, amount) */\n      0xffffffffffffffffffffffffffffffffffffffff\n      and\n      0xddf252ad1be2c89b69c2b068fc378daa952ba7f163c4a11628f55a4df523b3ef\n        /* \"contracts/token/TPointi.sol\":3281:3287  amount */\n      dup4\n        /* \"contracts/token/TPointi.sol\":3262:3288  Transfer(from, to, amount) */\n      mload(0x40)\n      tag_140\n      swap2\n      swap1\n      tag_29\n      jump\t// in\n    tag_140:\n      mload(0x40)\n      dup1\n      swap2\n      sub\n      swap1\n      log3\n        /* \"contracts/token/TPointi.sol\":2956:3296  function _transfer(address from, address to, uint256 amount) internal {... */\n      pop\n      pop\n      pop\n      jump\t// out\n        /* \"#utility.yul\":7:106   */\n    tag_141:\n        /* \"#utility.yul\":59:65   */\n      0x00\n        /* \"#utility.yul\":93:98   */\n      dup2\n        /* \"#utility.yul\":87:99   */\n      mload\n        /* \"#utility.yul\":77:99   */\n      swap1\n      pop\n        /* \"#utility.yul\":7:106   */\n      swap2\n      swap1\n      pop\n      jump\t// out\n        /* \"#utility.yul\":112:281   */\n    tag_142:\n        /* \"#utility.yul\":196:207   */\n      0x00\n        /* \"#utility.yul\":230:236   */\n      dup3\n        /* \"#utility.yul\":225:228   */\n      dup3\n        /* \"#utility.yul\":218:237   */\n      mstore\n        /* \"#utility.yul\":270:274   */\n      0x20\n        /* \"#utility.yul\":265:268   */\n      dup3\n        /* \"#utility.yul\":261:275   */\n      add\n        /* \"#utility.yul\":246:275   */\n      swap1\n      pop\n        /* \"#utility.yul\":112:281   */\n      swap3\n      swap2\n      pop\n      pop\n      jump\t// out\n        /* \"#utility.yul\":287:533   */\n    tag_143:\n        /* \"#utility.yul\":368:369   */\n      0x00\n        /* \"#utility.yul\":378:491   */\n    tag_183:\n        /* \"#utility.yul\":392:398   */\n      dup4\n        /* \"#utility.yul\":389:390   */\n      dup2\n        /* \"#utility.yul\":386:399   */\n      lt\n        /* \"#utility.yul\":378:491   */\n      iszero\n      tag_185\n      jumpi\n        /* \"#utility.yul\":477:478   */\n      dup1\n        /* \"#utility.yul\":472:475   */\n      dup3\n        /* \"#utility.yul\":468:479   */\n      add\n        /* \"#utility.yul\":462:480   */\n      mload\n        /* \"#utility.yul\":458:459   */\n      dup2\n        /* \"#utility.yul\":453:456   */\n      dup5\n        /* \"#utility.yul\":449:460   */\n      add\n        /* \"#utility.yul\":442:481   */\n      mstore\n        /* \"#utility.yul\":414:416   */\n      0x20\n        /* \"#utility.yul\":411:412   */\n      dup2\n        /* \"#utility.yul\":407:417   */\n      add\n        /* \"#utility.yul\":402:417   */\n      swap1\n      pop\n        /* \"#utility.yul\":378:491   */\n      jump(tag_183)\n    tag_185:\n        /* \"#utility.yul\":525:526   */\n      0x00\n        /* \"#utility.yul\":516:522   */\n      dup5\n        /* \"#utility.yul\":511:514   */\n      dup5\n        /* \"#utility.yul\":507:523   */\n      add\n        /* \"#utility.yul\":500:527   */\n      mstore\n        /* \"#utility.yul\":349:533   */\n      pop\n        /* \"#utility.yul\":287:533   */\n      pop\n      pop\n      pop\n      jump\t// out\n        /* \"#utility.yul\":539:641   */\n    tag_144:\n        /* \"#utility.yul\":580:586   */\n      0x00\n        /* \"#utility.yul\":631:633   */\n      0x1f\n        /* \"#utility.yul\":627:634   */\n      not\n        /* \"#utility.yul\":622:624   */\n      0x1f\n        /* \"#utility.yul\":615:620   */\n      dup4\n        /* \"#utility.yul\":611:625   */\n      add\n        /* \"#utility.yul\":607:635   */\n      and\n        /* \"#utility.yul\":597:635   */\n      swap1\n      pop\n        /* \"#utility.yul\":539:641   */\n      swap2\n      swap1\n      pop\n      jump\t// out\n        /* \"#utility.yul\":647:1024   */\n    tag_145:\n        /* \"#utility.yul\":735:738   */\n      0x00\n        /* \"#utility.yul\":763:802   */\n      tag_188\n        /* \"#utility.yul\":796:801   */\n      dup3\n        /* \"#utility.yul\":763:802   */\n      tag_141\n      jump\t// in\n    tag_188:\n        /* \"#utility.yul\":818:889   */\n      tag_189\n        /* \"#utility.yul\":882:888   */\n      dup2\n        /* \"#utility.yul\":877:880   */\n      dup6\n        /* \"#utility.yul\":818:889   */\n      tag_142\n      jump\t// in\n    tag_189:\n        /* \"#utility.yul\":811:889   */\n      swap4\n      pop\n        /* \"#utility.yul\":898:963   */\n      tag_190\n        /* \"#utility.yul\":956:962   */\n      dup2\n        /* \"#utility.yul\":951:954   */\n      dup6\n        /* \"#utility.yul\":944:948   */\n      0x20\n        /* \"#utility.yul\":937:942   */\n      dup7\n        /* \"#utility.yul\":933:949   */\n      add\n        /* \"#utility.yul\":898:963   */\n      tag_143\n      jump\t// in\n    tag_190:\n        /* \"#utility.yul\":988:1017   */\n      tag_191\n        /* \"#utility.yul\":1010:1016   */\n      dup2\n        /* \"#utility.yul\":988:1017   */\n      tag_144\n      jump\t// in\n    tag_191:\n        /* \"#utility.yul\":983:986   */\n      dup5\n        /* \"#utility.yul\":979:1018   */\n      add\n        /* \"#utility.yul\":972:1018   */\n      swap2\n      pop\n        /* \"#utility.yul\":739:1024   */\n      pop\n        /* \"#utility.yul\":647:1024   */\n      swap3\n      swap2\n      pop\n      pop\n      jump\t// out\n        /* \"#utility.yul\":1030:1343   */\n    tag_19:\n        /* \"#utility.yul\":1143:1147   */\n      0x00\n        /* \"#utility.yul\":1181:1183   */\n      0x20\n        /* \"#utility.yul\":1170:1179   */\n      dup3\n        /* \"#utility.yul\":1166:1184   */\n      add\n        /* \"#utility.yul\":1158:1184   */\n      swap1\n      pop\n        /* \"#utility.yul\":1230:1239   */\n      dup2\n        /* \"#utility.yul\":1224:1228   */\n      dup2\n        /* \"#utility.yul\":1220:1240   */\n      sub\n        /* \"#utility.yul\":1216:1217   */\n      0x00\n        /* \"#utility.yul\":1205:1214   */\n      dup4\n        /* \"#utility.yul\":1201:1218   */\n      add\n        /* \"#utility.yul\":1194:1241   */\n      mstore\n        /* \"#utility.yul\":1258:1336   */\n      tag_193\n        /* \"#utility.yul\":1331:1335   */\n      dup2\n        /* \"#utility.yul\":1322:1328   */\n      dup5\n        /* \"#utility.yul\":1258:1336   */\n      tag_145\n      jump\t// in\n    tag_193:\n        /* \"#utility.yul\":1250:1336   */\n      swap1\n      pop\n        /* \"#utility.yul\":1030:1343   */\n      swap3\n      swap2\n      pop\n      pop\n      jump\t// out\n        /* \"#utility.yul\":1430:1547   */\n    tag_147:\n        /* \"#utility.yul\":1539:1540   */\n      0x00\n        /* \"#utility.yul\":1536:1537   */\n      dup1\n        /* \"#utility.yul\":1529:1541   */\n      revert\n        /* \"#utility.yul\":1553:1670   */\n    tag_148:\n        /* \"#utility.yul\":1662:1663   */\n      0x00\n        /* \"#utility.yul\":1659:1660   */\n      dup1\n        /* \"#utility.yul\":1652:1664   */\n      revert\n        /* \"#utility.yul\":1676:1802   */\n    tag_149:\n        /* \"#utility.yul\":1713:1720   */\n      0x00\n        /* \"#utility.yul\":1753:1795   */\n      0xffffffffffffffffffffffffffffffffffffffff\n        /* \"#utility.yul\":1746:1751   */\n      dup3\n        /* \"#utility.yul\":1742:1796   */\n      and\n        /* \"#utility.yul\":1731:1796   */\n      swap1\n      pop\n        /* \"#utility.yul\":1676:1802   */\n      swap2\n      swap1\n      pop\n      jump\t// out\n        /* \"#utility.yul\":1808:1904   */\n    tag_150:\n        /* \"#utility.yul\":1845:1852   */\n      0x00\n        /* \"#utility.yul\":1874:1898   */\n      tag_199\n        /* \"#utility.yul\":1892:1897   */\n      dup3\n        /* \"#utility.yul\":1874:1898   */\n      tag_149\n      jump\t// in\n    tag_199:\n        /* \"#utility.yul\":1863:1898   */\n      swap1\n      pop\n        /* \"#utility.yul\":1808:1904   */\n      swap2\n      swap1\n      pop\n      jump\t// out\n        /* \"#utility.yul\":1910:2032   */\n    tag_151:\n        /* \"#utility.yul\":1983:2007   */\n      tag_201\n        /* \"#utility.yul\":2001:2006   */\n      dup2\n        /* \"#utility.yul\":1983:2007   */\n      tag_150\n      jump\t// in\n    tag_201:\n        /* \"#utility.yul\":1976:1981   */\n      dup2\n        /* \"#utility.yul\":1973:2008   */\n      eq\n        /* \"#utility.yul\":1963:2026   */\n      tag_202\n      jumpi\n        /* \"#utility.yul\":2022:2023   */\n      0x00\n        /* \"#utility.yul\":2019:2020   */\n      dup1\n        /* \"#utility.yul\":2012:2024   */\n      revert\n        /* \"#utility.yul\":1963:2026   */\n    tag_202:\n        /* \"#utility.yul\":1910:2032   */\n      pop\n      jump\t// out\n        /* \"#utility.yul\":2038:2177   */\n    tag_152:\n        /* \"#utility.yul\":2084:2089   */\n      0x00\n        /* \"#utility.yul\":2122:2128   */\n      dup2\n        /* \"#utility.yul\":2109:2129   */\n      calldataload\n        /* \"#utility.yul\":2100:2129   */\n      swap1\n      pop\n        /* \"#utility.yul\":2138:2171   */\n      tag_204\n        /* \"#utility.yul\":2165:2170   */\n      dup2\n        /* \"#utility.yul\":2138:2171   */\n      tag_151\n      jump\t// in\n    tag_204:\n        /* \"#utility.yul\":2038:2177   */\n      swap3\n      swap2\n      pop\n      pop\n      jump\t// out\n        /* \"#utility.yul\":2183:2260   */\n    tag_153:\n        /* \"#utility.yul\":2220:2227   */\n      0x00\n        /* \"#utility.yul\":2249:2254   */\n      dup2\n        /* \"#utility.yul\":2238:2254   */\n      swap1\n      pop\n        /* \"#utility.yul\":2183:2260   */\n      swap2\n      swap1\n      pop\n      jump\t// out\n        /* \"#utility.yul\":2266:2388   */\n    tag_154:\n        /* \"#utility.yul\":2339:2363   */\n      tag_207\n        /* \"#utility.yul\":2357:2362   */\n      dup2\n        /* \"#utility.yul\":2339:2363   */\n      tag_153\n      jump\t// in\n    tag_207:\n        /* \"#utility.yul\":2332:2337   */\n      dup2\n        /* \"#utility.yul\":2329:2364   */\n      eq\n        /* \"#utility.yul\":2319:2382   */\n      tag_208\n      jumpi\n        /* \"#utility.yul\":2378:2379   */\n      0x00\n        /* \"#utility.yul\":2375:2376   */\n      dup1\n        /* \"#utility.yul\":2368:2380   */\n      revert\n        /* \"#utility.yul\":2319:2382   */\n    tag_208:\n        /* \"#utility.yul\":2266:2388   */\n      pop\n      jump\t// out\n        /* \"#utility.yul\":2394:2533   */\n    tag_155:\n        /* \"#utility.yul\":2440:2445   */\n      0x00\n        /* \"#utility.yul\":2478:2484   */\n      dup2\n        /* \"#utility.yul\":2465:2485   */\n      calldataload\n        /* \"#utility.yul\":2456:2485   */\n      swap1\n      pop\n        /* \"#utility.yul\":2494:2527   */\n      tag_210\n        /* \"#utility.yul\":2521:2526   */\n      dup2\n        /* \"#utility.yul\":2494:2527   */\n      tag_154\n      jump\t// in\n    tag_210:\n        /* \"#utility.yul\":2394:2533   */\n      swap3\n      swap2\n      pop\n      pop\n      jump\t// out\n        /* \"#utility.yul\":2539:3013   */\n    tag_22:\n        /* \"#utility.yul\":2607:2613   */\n      0x00\n        /* \"#utility.yul\":2615:2621   */\n      dup1\n        /* \"#utility.yul\":2664:2666   */\n      0x40\n        /* \"#utility.yul\":2652:2661   */\n      dup4\n        /* \"#utility.yul\":2643:2650   */\n      dup6\n        /* \"#utility.yul\":2639:2662   */\n      sub\n        /* \"#utility.yul\":2635:2667   */\n      slt\n        /* \"#utility.yul\":2632:2751   */\n      iszero\n      tag_212\n      jumpi\n        /* \"#utility.yul\":2670:2749   */\n      tag_213\n      tag_147\n      jump\t// in\n    tag_213:\n        /* \"#utility.yul\":2632:2751   */\n    tag_212:\n        /* \"#utility.yul\":2790:2791   */\n      0x00\n        /* \"#utility.yul\":2815:2868   */\n      tag_214\n        /* \"#utility.yul\":2860:2867   */\n      dup6\n        /* \"#utility.yul\":2851:2857   */\n      dup3\n        /* \"#utility.yul\":2840:2849   */\n      dup7\n        /* \"#utility.yul\":2836:2858   */\n      add\n        /* \"#utility.yul\":2815:2868   */\n      tag_152\n      jump\t// in\n    tag_214:\n        /* \"#utility.yul\":2805:2868   */\n      swap3\n      pop\n        /* \"#utility.yul\":2761:2878   */\n      pop\n        /* \"#utility.yul\":2917:2919   */\n      0x20\n        /* \"#utility.yul\":2943:2996   */\n      tag_215\n        /* \"#utility.yul\":2988:2995   */\n      dup6\n        /* \"#utility.yul\":2979:2985   */\n      dup3\n        /* \"#utility.yul\":2968:2977   */\n      dup7\n        /* \"#utility.yul\":2964:2986   */\n      add\n        /* \"#utility.yul\":2943:2996   */\n      tag_155\n      jump\t// in\n    tag_215:\n        /* \"#utility.yul\":2933:2996   */\n      swap2\n      pop\n        /* \"#utility.yul\":2888:3006   */\n      pop\n        /* \"#utility.yul\":2539:3013   */\n      swap3\n      pop\n      swap3\n      swap1\n      pop\n      jump\t// out\n        /* \"#utility.yul\":3019:3109   */\n    tag_156:\n        /* \"#utility.yul\":3053:3060   */\n      0x00\n        /* \"#utility.yul\":3096:3101   */\n      dup2\n        /* \"#utility.yul\":3089:3102   */\n      iszero\n        /* \"#utility.yul\":3082:3103   */\n      iszero\n        /* \"#utility.yul\":3071:3103   */\n      swap1\n      pop\n        /* \"#utility.yul\":3019:3109   */\n      swap2\n      swap1\n      pop\n      jump\t// out\n        /* \"#utility.yul\":3115:3224   */\n    tag_157:\n        /* \"#utility.yul\":3196:3217   */\n      tag_218\n        /* \"#utility.yul\":3211:3216   */\n      dup2\n        /* \"#utility.yul\":3196:3217   */\n      tag_156\n      jump\t// in\n    tag_218:\n        /* \"#utility.yul\":3191:3194   */\n      dup3\n        /* \"#utility.yul\":3184:3218   */\n      mstore\n        /* \"#utility.yul\":3115:3224   */\n      pop\n      pop\n      jump\t// out\n        /* \"#utility.yul\":3230:3440   */\n    tag_25:\n        /* \"#utility.yul\":3317:3321   */\n      0x00\n        /* \"#utility.yul\":3355:3357   */\n      0x20\n        /* \"#utility.yul\":3344:3353   */\n      dup3\n        /* \"#utility.yul\":3340:3358   */\n      add\n        /* \"#utility.yul\":3332:3358   */\n      swap1\n      pop\n        /* \"#utility.yul\":3368:3433   */\n      tag_220\n        /* \"#utility.yul\":3430:3431   */\n      0x00\n        /* \"#utility.yul\":3419:3428   */\n      dup4\n        /* \"#utility.yul\":3415:3432   */\n      add\n        /* \"#utility.yul\":3406:3412   */\n      dup5\n        /* \"#utility.yul\":3368:3433   */\n      tag_157\n      jump\t// in\n    tag_220:\n        /* \"#utility.yul\":3230:3440   */\n      swap3\n      swap2\n      pop\n      pop\n      jump\t// out\n        /* \"#utility.yul\":3446:3564   */\n    tag_158:\n        /* \"#utility.yul\":3533:3557   */\n      tag_222\n        /* \"#utility.yul\":3551:3556   */\n      dup2\n        /* \"#utility.yul\":3533:3557   */\n      tag_153\n      jump\t// in\n    tag_222:\n        /* \"#utility.yul\":3528:3531   */\n      dup3\n        /* \"#utility.yul\":3521:3558   */\n      mstore\n        /* \"#utility.yul\":3446:3564   */\n      pop\n      pop\n      jump\t// out\n        /* \"#utility.yul\":3570:3792   */\n    tag_29:\n        /* \"#utility.yul\":3663:3667   */\n      0x00\n        /* \"#utility.yul\":3701:3703   */\n      0x20\n        /* \"#utility.yul\":3690:3699   */\n      dup3\n        /* \"#utility.yul\":3686:3704   */\n      add\n        /* \"#utility.yul\":3678:3704   */\n      swap1\n      pop\n        /* \"#utility.yul\":3714:3785   */\n      tag_224\n        /* \"#utility.yul\":3782:3783   */\n      0x00\n        /* \"#utility.yul\":3771:3780   */\n      dup4\n        /* \"#utility.yul\":3767:3784   */\n      add\n        /* \"#utility.yul\":3758:3764   */\n      dup5\n        /* \"#utility.yul\":3714:3785   */\n      tag_158\n      jump\t// in\n    tag_224:\n        /* \"#utility.yul\":3570:3792   */\n      swap3\n      swap2\n      pop\n      pop\n      jump\t// out\n        /* \"#utility.yul\":3798:4417   */\n    tag_32:\n        /* \"#utility.yul\":3875:3881   */\n      0x00\n        /* \"#utility.yul\":3883:3889   */\n      dup1\n        /* \"#utility.yul\":3891:3897   */\n      0x00\n        /* \"#utility.yul\":3940:3942   */\n      0x60\n        /* \"#utility.yul\":3928:3937   */\n      dup5\n        /* \"#utility.yul\":3919:3926   */\n      dup7\n        /* \"#utility.yul\":3915:3938   */\n      sub\n        /* \"#utility.yul\":3911:3943   */\n      slt\n        /* \"#utility.yul\":3908:4027   */\n      iszero\n      tag_226\n      jumpi\n        /* \"#utility.yul\":3946:4025   */\n      tag_227\n      tag_147\n      jump\t// in\n    tag_227:\n        /* \"#utility.yul\":3908:4027   */\n    tag_226:\n        /* \"#utility.yul\":4066:4067   */\n      0x00\n        /* \"#utility.yul\":4091:4144   */\n      tag_228\n        /* \"#utility.yul\":4136:4143   */\n      dup7\n        /* \"#utility.yul\":4127:4133   */\n      dup3\n        /* \"#utility.yul\":4116:4125   */\n      dup8\n        /* \"#utility.yul\":4112:4134   */\n      add\n        /* \"#utility.yul\":4091:4144   */\n      tag_152\n      jump\t// in\n    tag_228:\n        /* \"#utility.yul\":4081:4144   */\n      swap4\n      pop\n        /* \"#utility.yul\":4037:4154   */\n      pop\n        /* \"#utility.yul\":4193:4195   */\n      0x20\n        /* \"#utility.yul\":4219:4272   */\n      tag_229\n        /* \"#utility.yul\":4264:4271   */\n      dup7\n        /* \"#utility.yul\":4255:4261   */\n      dup3\n        /* \"#utility.yul\":4244:4253   */\n      dup8\n        /* \"#utility.yul\":4240:4262   */\n      add\n        /* \"#utility.yul\":4219:4272   */\n      tag_152\n      jump\t// in\n    tag_229:\n        /* \"#utility.yul\":4209:4272   */\n      swap3\n      pop\n        /* \"#utility.yul\":4164:4282   */\n      pop\n        /* \"#utility.yul\":4321:4323   */\n      0x40\n        /* \"#utility.yul\":4347:4400   */\n      tag_230\n        /* \"#utility.yul\":4392:4399   */\n      dup7\n        /* \"#utility.yul\":4383:4389   */\n      dup3\n        /* \"#utility.yul\":4372:4381   */\n      dup8\n        /* \"#utility.yul\":4368:4390   */\n      add\n        /* \"#utility.yul\":4347:4400   */\n      tag_155\n      jump\t// in\n    tag_230:\n        /* \"#utility.yul\":4337:4400   */\n      swap2\n      pop\n        /* \"#utility.yul\":4292:4410   */\n      pop\n        /* \"#utility.yul\":3798:4417   */\n      swap3\n      pop\n      swap3\n      pop\n      swap3\n      jump\t// out\n        /* \"#utility.yul\":4423:4509   */\n    tag_159:\n        /* \"#utility.yul\":4458:4465   */\n      0x00\n        /* \"#utility.yul\":4498:4502   */\n      0xff\n        /* \"#utility.yul\":4491:4496   */\n      dup3\n        /* \"#utility.yul\":4487:4503   */\n      and\n        /* \"#utility.yul\":4476:4503   */\n      swap1\n      pop\n        /* \"#utility.yul\":4423:4509   */\n      swap2\n      swap1\n      pop\n      jump\t// out\n        /* \"#utility.yul\":4515:4627   */\n    tag_160:\n        /* \"#utility.yul\":4598:4620   */\n      tag_233\n        /* \"#utility.yul\":4614:4619   */\n      dup2\n        /* \"#utility.yul\":4598:4620   */\n      tag_159\n      jump\t// in\n    tag_233:\n        /* \"#utility.yul\":4593:4596   */\n      dup3\n        /* \"#utility.yul\":4586:4621   */\n      mstore\n        /* \"#utility.yul\":4515:4627   */\n      pop\n      pop\n      jump\t// out\n        /* \"#utility.yul\":4633:4847   */\n    tag_38:\n        /* \"#utility.yul\":4722:4726   */\n      0x00\n        /* \"#utility.yul\":4760:4762   */\n      0x20\n        /* \"#utility.yul\":4749:4758   */\n      dup3\n        /* \"#utility.yul\":4745:4763   */\n      add\n        /* \"#utility.yul\":4737:4763   */\n      swap1\n      pop\n        /* \"#utility.yul\":4773:4840   */\n      tag_235\n        /* \"#utility.yul\":4837:4838   */\n      0x00\n        /* \"#utility.yul\":4826:4835   */\n      dup4\n        /* \"#utility.yul\":4822:4839   */\n      add\n        /* \"#utility.yul\":4813:4819   */\n      dup5\n        /* \"#utility.yul\":4773:4840   */\n      tag_160\n      jump\t// in\n    tag_235:\n        /* \"#utility.yul\":4633:4847   */\n      swap3\n      swap2\n      pop\n      pop\n      jump\t// out\n        /* \"#utility.yul\":4853:5182   */\n    tag_41:\n        /* \"#utility.yul\":4912:4918   */\n      0x00\n        /* \"#utility.yul\":4961:4963   */\n      0x20\n        /* \"#utility.yul\":4949:4958   */\n      dup3\n        /* \"#utility.yul\":4940:4947   */\n      dup5\n        /* \"#utility.yul\":4936:4959   */\n      sub\n        /* \"#utility.yul\":4932:4964   */\n      slt\n        /* \"#utility.yul\":4929:5048   */\n      iszero\n      tag_237\n      jumpi\n        /* \"#utility.yul\":4967:5046   */\n      tag_238\n      tag_147\n      jump\t// in\n    tag_238:\n        /* \"#utility.yul\":4929:5048   */\n    tag_237:\n        /* \"#utility.yul\":5087:5088   */\n      0x00\n        /* \"#utility.yul\":5112:5165   */\n      tag_239\n        /* \"#utility.yul\":5157:5164   */\n      dup5\n        /* \"#utility.yul\":5148:5154   */\n      dup3\n        /* \"#utility.yul\":5137:5146   */\n      dup6\n        /* \"#utility.yul\":5133:5155   */\n      add\n        /* \"#utility.yul\":5112:5165   */\n      tag_155\n      jump\t// in\n    tag_239:\n        /* \"#utility.yul\":5102:5165   */\n      swap2\n      pop\n        /* \"#utility.yul\":5058:5175   */\n      pop\n        /* \"#utility.yul\":4853:5182   */\n      swap3\n      swap2\n      pop\n      pop\n      jump\t// out\n        /* \"#utility.yul\":5188:5305   */\n    tag_161:\n        /* \"#utility.yul\":5297:5298   */\n      0x00\n        /* \"#utility.yul\":5294:5295   */\n      dup1\n        /* \"#utility.yul\":5287:5299   */\n      revert\n        /* \"#utility.yul\":5311:5428   */\n    tag_162:\n        /* \"#utility.yul\":5420:5421   */\n      0x00\n        /* \"#utility.yul\":5417:5418   */\n      dup1\n        /* \"#utility.yul\":5410:5422   */\n      revert\n        /* \"#utility.yul\":5434:5551   */\n    tag_163:\n        /* \"#utility.yul\":5543:5544   */\n      0x00\n        /* \"#utility.yul\":5540:5541   */\n      dup1\n        /* \"#utility.yul\":5533:5545   */\n      revert\n        /* \"#utility.yul\":5574:6142   */\n    tag_164:\n        /* \"#utility.yul\":5647:5655   */\n      0x00\n        /* \"#utility.yul\":5657:5663   */\n      dup1\n        /* \"#utility.yul\":5707:5710   */\n      dup4\n        /* \"#utility.yul\":5700:5704   */\n      0x1f\n        /* \"#utility.yul\":5692:5698   */\n      dup5\n        /* \"#utility.yul\":5688:5705   */\n      add\n        /* \"#utility.yul\":5684:5711   */\n      slt\n        /* \"#utility.yul\":5674:5796   */\n      tag_244\n      jumpi\n        /* \"#utility.yul\":5715:5794   */\n      tag_245\n      tag_161\n      jump\t// in\n    tag_245:\n        /* \"#utility.yul\":5674:5796   */\n    tag_244:\n        /* \"#utility.yul\":5828:5834   */\n      dup3\n        /* \"#utility.yul\":5815:5835   */\n      calldataload\n        /* \"#utility.yul\":5805:5835   */\n      swap1\n      pop\n        /* \"#utility.yul\":5858:5876   */\n      0xffffffffffffffff\n        /* \"#utility.yul\":5850:5856   */\n      dup2\n        /* \"#utility.yul\":5847:5877   */\n      gt\n        /* \"#utility.yul\":5844:5961   */\n      iszero\n      tag_246\n      jumpi\n        /* \"#utility.yul\":5880:5959   */\n      tag_247\n      tag_162\n      jump\t// in\n    tag_247:\n        /* \"#utility.yul\":5844:5961   */\n    tag_246:\n        /* \"#utility.yul\":5994:5998   */\n      0x20\n        /* \"#utility.yul\":5986:5992   */\n      dup4\n        /* \"#utility.yul\":5982:5999   */\n      add\n        /* \"#utility.yul\":5970:5999   */\n      swap2\n      pop\n        /* \"#utility.yul\":6048:6051   */\n      dup4\n        /* \"#utility.yul\":6040:6044   */\n      0x20\n        /* \"#utility.yul\":6032:6038   */\n      dup3\n        /* \"#utility.yul\":6028:6045   */\n      mul\n        /* \"#utility.yul\":6018:6026   */\n      dup4\n        /* \"#utility.yul\":6014:6046   */\n      add\n        /* \"#utility.yul\":6011:6052   */\n      gt\n        /* \"#utility.yul\":6008:6136   */\n      iszero\n      tag_248\n      jumpi\n        /* \"#utility.yul\":6055:6134   */\n      tag_249\n      tag_163\n      jump\t// in\n    tag_249:\n        /* \"#utility.yul\":6008:6136   */\n    tag_248:\n        /* \"#utility.yul\":5574:6142   */\n      swap3\n      pop\n      swap3\n      swap1\n      pop\n      jump\t// out\n        /* \"#utility.yul\":6165:6733   */\n    tag_165:\n        /* \"#utility.yul\":6238:6246   */\n      0x00\n        /* \"#utility.yul\":6248:6254   */\n      dup1\n        /* \"#utility.yul\":6298:6301   */\n      dup4\n        /* \"#utility.yul\":6291:6295   */\n      0x1f\n        /* \"#utility.yul\":6283:6289   */\n      dup5\n        /* \"#utility.yul\":6279:6296   */\n      add\n        /* \"#utility.yul\":6275:6302   */\n      slt\n        /* \"#utility.yul\":6265:6387   */\n      tag_251\n      jumpi\n        /* \"#utility.yul\":6306:6385   */\n      tag_252\n      tag_161\n      jump\t// in\n    tag_252:\n        /* \"#utility.yul\":6265:6387   */\n    tag_251:\n        /* \"#utility.yul\":6419:6425   */\n      dup3\n        /* \"#utility.yul\":6406:6426   */\n      calldataload\n        /* \"#utility.yul\":6396:6426   */\n      swap1\n      pop\n        /* \"#utility.yul\":6449:6467   */\n      0xffffffffffffffff\n        /* \"#utility.yul\":6441:6447   */\n      dup2\n        /* \"#utility.yul\":6438:6468   */\n      gt\n        /* \"#utility.yul\":6435:6552   */\n      iszero\n      tag_253\n      jumpi\n        /* \"#utility.yul\":6471:6550   */\n      tag_254\n      tag_162\n      jump\t// in\n    tag_254:\n        /* \"#utility.yul\":6435:6552   */\n    tag_253:\n        /* \"#utility.yul\":6585:6589   */\n      0x20\n        /* \"#utility.yul\":6577:6583   */\n      dup4\n        /* \"#utility.yul\":6573:6590   */\n      add\n        /* \"#utility.yul\":6561:6590   */\n      swap2\n      pop\n        /* \"#utility.yul\":6639:6642   */\n      dup4\n        /* \"#utility.yul\":6631:6635   */\n      0x20\n        /* \"#utility.yul\":6623:6629   */\n      dup3\n        /* \"#utility.yul\":6619:6636   */\n      mul\n        /* \"#utility.yul\":6609:6617   */\n      dup4\n        /* \"#utility.yul\":6605:6637   */\n      add\n        /* \"#utility.yul\":6602:6643   */\n      gt\n        /* \"#utility.yul\":6599:6727   */\n      iszero\n      tag_255\n      jumpi\n        /* \"#utility.yul\":6646:6725   */\n      tag_256\n      tag_163\n      jump\t// in\n    tag_256:\n        /* \"#utility.yul\":6599:6727   */\n    tag_255:\n        /* \"#utility.yul\":6165:6733   */\n      swap3\n      pop\n      swap3\n      swap1\n      pop\n      jump\t// out\n        /* \"#utility.yul\":6739:7673   */\n    tag_45:\n        /* \"#utility.yul\":6861:6867   */\n      0x00\n        /* \"#utility.yul\":6869:6875   */\n      dup1\n        /* \"#utility.yul\":6877:6883   */\n      0x00\n        /* \"#utility.yul\":6885:6891   */\n      dup1\n        /* \"#utility.yul\":6934:6936   */\n      0x40\n        /* \"#utility.yul\":6922:6931   */\n      dup6\n        /* \"#utility.yul\":6913:6920   */\n      dup8\n        /* \"#utility.yul\":6909:6932   */\n      sub\n        /* \"#utility.yul\":6905:6937   */\n      slt\n        /* \"#utility.yul\":6902:7021   */\n      iszero\n      tag_258\n      jumpi\n        /* \"#utility.yul\":6940:7019   */\n      tag_259\n      tag_147\n      jump\t// in\n    tag_259:\n        /* \"#utility.yul\":6902:7021   */\n    tag_258:\n        /* \"#utility.yul\":7088:7089   */\n      0x00\n        /* \"#utility.yul\":7077:7086   */\n      dup6\n        /* \"#utility.yul\":7073:7090   */\n      add\n        /* \"#utility.yul\":7060:7091   */\n      calldataload\n        /* \"#utility.yul\":7118:7136   */\n      0xffffffffffffffff\n        /* \"#utility.yul\":7110:7116   */\n      dup2\n        /* \"#utility.yul\":7107:7137   */\n      gt\n        /* \"#utility.yul\":7104:7221   */\n      iszero\n      tag_260\n      jumpi\n        /* \"#utility.yul\":7140:7219   */\n      tag_261\n      tag_148\n      jump\t// in\n    tag_261:\n        /* \"#utility.yul\":7104:7221   */\n    tag_260:\n        /* \"#utility.yul\":7253:7333   */\n      tag_262\n        /* \"#utility.yul\":7325:7332   */\n      dup8\n        /* \"#utility.yul\":7316:7322   */\n      dup3\n        /* \"#utility.yul\":7305:7314   */\n      dup9\n        /* \"#utility.yul\":7301:7323   */\n      add\n        /* \"#utility.yul\":7253:7333   */\n      tag_164\n      jump\t// in\n    tag_262:\n        /* \"#utility.yul\":7235:7333   */\n      swap5\n      pop\n      swap5\n      pop\n        /* \"#utility.yul\":7031:7343   */\n      pop\n        /* \"#utility.yul\":7410:7412   */\n      0x20\n        /* \"#utility.yul\":7399:7408   */\n      dup6\n        /* \"#utility.yul\":7395:7413   */\n      add\n        /* \"#utility.yul\":7382:7414   */\n      calldataload\n        /* \"#utility.yul\":7441:7459   */\n      0xffffffffffffffff\n        /* \"#utility.yul\":7433:7439   */\n      dup2\n        /* \"#utility.yul\":7430:7460   */\n      gt\n        /* \"#utility.yul\":7427:7544   */\n      iszero\n      tag_263\n      jumpi\n        /* \"#utility.yul\":7463:7542   */\n      tag_264\n      tag_148\n      jump\t// in\n    tag_264:\n        /* \"#utility.yul\":7427:7544   */\n    tag_263:\n        /* \"#utility.yul\":7576:7656   */\n      tag_265\n        /* \"#utility.yul\":7648:7655   */\n      dup8\n        /* \"#utility.yul\":7639:7645   */\n      dup3\n        /* \"#utility.yul\":7628:7637   */\n      dup9\n        /* \"#utility.yul\":7624:7646   */\n      add\n        /* \"#utility.yul\":7576:7656   */\n      tag_165\n      jump\t// in\n    tag_265:\n        /* \"#utility.yul\":7558:7656   */\n      swap3\n      pop\n      swap3\n      pop\n        /* \"#utility.yul\":7353:7666   */\n      pop\n        /* \"#utility.yul\":6739:7673   */\n      swap3\n      swap6\n      swap2\n      swap5\n      pop\n      swap3\n      pop\n      jump\t// out\n        /* \"#utility.yul\":7679:8008   */\n    tag_49:\n        /* \"#utility.yul\":7738:7744   */\n      0x00\n        /* \"#utility.yul\":7787:7789   */\n      0x20\n        /* \"#utility.yul\":7775:7784   */\n      dup3\n        /* \"#utility.yul\":7766:7773   */\n      dup5\n        /* \"#utility.yul\":7762:7785   */\n      sub\n        /* \"#utility.yul\":7758:7790   */\n      slt\n        /* \"#utility.yul\":7755:7874   */\n      iszero\n      tag_267\n      jumpi\n        /* \"#utility.yul\":7793:7872   */\n      tag_268\n      tag_147\n      jump\t// in\n    tag_268:\n        /* \"#utility.yul\":7755:7874   */\n    tag_267:\n        /* \"#utility.yul\":7913:7914   */\n      0x00\n        /* \"#utility.yul\":7938:7991   */\n      tag_269\n        /* \"#utility.yul\":7983:7990   */\n      dup5\n        /* \"#utility.yul\":7974:7980   */\n      dup3\n        /* \"#utility.yul\":7963:7972   */\n      dup6\n        /* \"#utility.yul\":7959:7981   */\n      add\n        /* \"#utility.yul\":7938:7991   */\n      tag_152\n      jump\t// in\n    tag_269:\n        /* \"#utility.yul\":7928:7991   */\n      swap2\n      pop\n        /* \"#utility.yul\":7884:8001   */\n      pop\n        /* \"#utility.yul\":7679:8008   */\n      swap3\n      swap2\n      pop\n      pop\n      jump\t// out\n        /* \"#utility.yul\":8014:8132   */\n    tag_166:\n        /* \"#utility.yul\":8101:8125   */\n      tag_271\n        /* \"#utility.yul\":8119:8124   */\n      dup2\n        /* \"#utility.yul\":8101:8125   */\n      tag_150\n      jump\t// in\n    tag_271:\n        /* \"#utility.yul\":8096:8099   */\n      dup3\n        /* \"#utility.yul\":8089:8126   */\n      mstore\n        /* \"#utility.yul\":8014:8132   */\n      pop\n      pop\n      jump\t// out\n        /* \"#utility.yul\":8138:8360   */\n    tag_55:\n        /* \"#utility.yul\":8231:8235   */\n      0x00\n        /* \"#utility.yul\":8269:8271   */\n      0x20\n        /* \"#utility.yul\":8258:8267   */\n      dup3\n        /* \"#utility.yul\":8254:8272   */\n      add\n        /* \"#utility.yul\":8246:8272   */\n      swap1\n      pop\n        /* \"#utility.yul\":8282:8353   */\n      tag_273\n        /* \"#utility.yul\":8350:8351   */\n      0x00\n        /* \"#utility.yul\":8339:8348   */\n      dup4\n        /* \"#utility.yul\":8335:8352   */\n      add\n        /* \"#utility.yul\":8326:8332   */\n      dup5\n        /* \"#utility.yul\":8282:8353   */\n      tag_166\n      jump\t// in\n    tag_273:\n        /* \"#utility.yul\":8138:8360   */\n      swap3\n      swap2\n      pop\n      pop\n      jump\t// out\n        /* \"#utility.yul\":8366:8840   */\n    tag_65:\n        /* \"#utility.yul\":8434:8440   */\n      0x00\n        /* \"#utility.yul\":8442:8448   */\n      dup1\n        /* \"#utility.yul\":8491:8493   */\n      0x40\n        /* \"#utility.yul\":8479:8488   */\n      dup4\n        /* \"#utility.yul\":8470:8477   */\n      dup6\n        /* \"#utility.yul\":8466:8489   */\n      sub\n        /* \"#utility.yul\":8462:8494   */\n      slt\n        /* \"#utility.yul\":8459:8578   */\n      iszero\n      tag_275\n      jumpi\n        /* \"#utility.yul\":8497:8576   */\n      tag_276\n      tag_147\n      jump\t// in\n    tag_276:\n        /* \"#utility.yul\":8459:8578   */\n    tag_275:\n        /* \"#utility.yul\":8617:8618   */\n      0x00\n        /* \"#utility.yul\":8642:8695   */\n      tag_277\n        /* \"#utility.yul\":8687:8694   */\n      dup6\n        /* \"#utility.yul\":8678:8684   */\n      dup3\n        /* \"#utility.yul\":8667:8676   */\n      dup7\n        /* \"#utility.yul\":8663:8685   */\n      add\n        /* \"#utility.yul\":8642:8695   */\n      tag_152\n      jump\t// in\n    tag_277:\n        /* \"#utility.yul\":8632:8695   */\n      swap3\n      pop\n        /* \"#utility.yul\":8588:8705   */\n      pop\n        /* \"#utility.yul\":8744:8746   */\n      0x20\n        /* \"#utility.yul\":8770:8823   */\n      tag_278\n        /* \"#utility.yul\":8815:8822   */\n      dup6\n        /* \"#utility.yul\":8806:8812   */\n      dup3\n        /* \"#utility.yul\":8795:8804   */\n      dup7\n        /* \"#utility.yul\":8791:8813   */\n      add\n        /* \"#utility.yul\":8770:8823   */\n      tag_152\n      jump\t// in\n    tag_278:\n        /* \"#utility.yul\":8760:8823   */\n      swap2\n      pop\n        /* \"#utility.yul\":8715:8833   */\n      pop\n        /* \"#utility.yul\":8366:8840   */\n      swap3\n      pop\n      swap3\n      swap1\n      pop\n      jump\t// out\n        /* \"#utility.yul\":8846:9026   */\n    tag_167:\n        /* \"#utility.yul\":8894:8971   */\n      0x4e487b7100000000000000000000000000000000000000000000000000000000\n        /* \"#utility.yul\":8891:8892   */\n      0x00\n        /* \"#utility.yul\":8884:8972   */\n      mstore\n        /* \"#utility.yul\":8991:8995   */\n      0x22\n        /* \"#utility.yul\":8988:8989   */\n      0x04\n        /* \"#utility.yul\":8981:8996   */\n      mstore\n        /* \"#utility.yul\":9015:9019   */\n      0x24\n        /* \"#utility.yul\":9012:9013   */\n      0x00\n        /* \"#utility.yul\":9005:9020   */\n      revert\n        /* \"#utility.yul\":9032:9352   */\n    tag_70:\n        /* \"#utility.yul\":9076:9082   */\n      0x00\n        /* \"#utility.yul\":9113:9114   */\n      0x02\n        /* \"#utility.yul\":9107:9111   */\n      dup3\n        /* \"#utility.yul\":9103:9115   */\n      div\n        /* \"#utility.yul\":9093:9115   */\n      swap1\n      pop\n        /* \"#utility.yul\":9160:9161   */\n      0x01\n        /* \"#utility.yul\":9154:9158   */\n      dup3\n        /* \"#utility.yul\":9150:9162   */\n      and\n        /* \"#utility.yul\":9181:9199   */\n      dup1\n        /* \"#utility.yul\":9171:9252   */\n      tag_281\n      jumpi\n        /* \"#utility.yul\":9237:9241   */\n      0x7f\n        /* \"#utility.yul\":9229:9235   */\n      dup3\n        /* \"#utility.yul\":9225:9242   */\n      and\n        /* \"#utility.yul\":9215:9242   */\n      swap2\n      pop\n        /* \"#utility.yul\":9171:9252   */\n    tag_281:\n        /* \"#utility.yul\":9299:9301   */\n      0x20\n        /* \"#utility.yul\":9291:9297   */\n      dup3\n        /* \"#utility.yul\":9288:9302   */\n      lt\n        /* \"#utility.yul\":9268:9286   */\n      dup2\n        /* \"#utility.yul\":9265:9303   */\n      sub\n        /* \"#utility.yul\":9262:9346   */\n      tag_282\n      jumpi\n        /* \"#utility.yul\":9318:9336   */\n      tag_283\n      tag_167\n      jump\t// in\n    tag_283:\n        /* \"#utility.yul\":9262:9346   */\n    tag_282:\n        /* \"#utility.yul\":9083:9352   */\n      pop\n        /* \"#utility.yul\":9032:9352   */\n      swap2\n      swap1\n      pop\n      jump\t// out\n        /* \"#utility.yul\":9358:9538   */\n    tag_168:\n        /* \"#utility.yul\":9406:9483   */\n      0x4e487b7100000000000000000000000000000000000000000000000000000000\n        /* \"#utility.yul\":9403:9404   */\n      0x00\n        /* \"#utility.yul\":9396:9484   */\n      mstore\n        /* \"#utility.yul\":9503:9507   */\n      0x11\n        /* \"#utility.yul\":9500:9501   */\n      0x04\n        /* \"#utility.yul\":9493:9508   */\n      mstore\n        /* \"#utility.yul\":9527:9531   */\n      0x24\n        /* \"#utility.yul\":9524:9525   */\n      0x00\n        /* \"#utility.yul\":9517:9532   */\n      revert\n        /* \"#utility.yul\":9544:9738   */\n    tag_84:\n        /* \"#utility.yul\":9584:9588   */\n      0x00\n        /* \"#utility.yul\":9604:9624   */\n      tag_286\n        /* \"#utility.yul\":9622:9623   */\n      dup3\n        /* \"#utility.yul\":9604:9624   */\n      tag_153\n      jump\t// in\n    tag_286:\n        /* \"#utility.yul\":9599:9624   */\n      swap2\n      pop\n        /* \"#utility.yul\":9638:9658   */\n      tag_287\n        /* \"#utility.yul\":9656:9657   */\n      dup4\n        /* \"#utility.yul\":9638:9658   */\n      tag_153\n      jump\t// in\n    tag_287:\n        /* \"#utility.yul\":9633:9658   */\n      swap3\n      pop\n        /* \"#utility.yul\":9682:9683   */\n      dup3\n        /* \"#utility.yul\":9679:9680   */\n      dup3\n        /* \"#utility.yul\":9675:9684   */\n      sub\n        /* \"#utility.yul\":9667:9684   */\n      swap1\n      pop\n        /* \"#utility.yul\":9706:9707   */\n      dup2\n        /* \"#utility.yul\":9700:9704   */\n      dup2\n        /* \"#utility.yul\":9697:9708   */\n      gt\n        /* \"#utility.yul\":9694:9731   */\n      iszero\n      tag_288\n      jumpi\n        /* \"#utility.yul\":9711:9729   */\n      tag_289\n      tag_168\n      jump\t// in\n    tag_289:\n        /* \"#utility.yul\":9694:9731   */\n    tag_288:\n        /* \"#utility.yul\":9544:9738   */\n      swap3\n      swap2\n      pop\n      pop\n      jump\t// out\n        /* \"#utility.yul\":9744:9922   */\n    tag_169:\n        /* \"#utility.yul\":9884:9914   */\n      0x496e73756666696369656e742062616c616e636520746f206275726e00000000\n        /* \"#utility.yul\":9880:9881   */\n      0x00\n        /* \"#utility.yul\":9872:9878   */\n      dup3\n        /* \"#utility.yul\":9868:9882   */\n      add\n        /* \"#utility.yul\":9861:9915   */\n      mstore\n        /* \"#utility.yul\":9744:9922   */\n      pop\n      jump\t// out\n        /* \"#utility.yul\":9928:10294   */\n    tag_170:\n        /* \"#utility.yul\":10070:10073   */\n      0x00\n        /* \"#utility.yul\":10091:10158   */\n      tag_292\n        /* \"#utility.yul\":10155:10157   */\n      0x1c\n        /* \"#utility.yul\":10150:10153   */\n      dup4\n        /* \"#utility.yul\":10091:10158   */\n      tag_142\n      jump\t// in\n    tag_292:\n        /* \"#utility.yul\":10084:10158   */\n      swap2\n      pop\n        /* \"#utility.yul\":10167:10260   */\n      tag_293\n        /* \"#utility.yul\":10256:10259   */\n      dup3\n        /* \"#utility.yul\":10167:10260   */\n      tag_169\n      jump\t// in\n    tag_293:\n        /* \"#utility.yul\":10285:10287   */\n      0x20\n        /* \"#utility.yul\":10280:10283   */\n      dup3\n        /* \"#utility.yul\":10276:10288   */\n      add\n        /* \"#utility.yul\":10269:10288   */\n      swap1\n      pop\n        /* \"#utility.yul\":9928:10294   */\n      swap2\n      swap1\n      pop\n      jump\t// out\n        /* \"#utility.yul\":10300:10719   */\n    tag_89:\n        /* \"#utility.yul\":10466:10470   */\n      0x00\n        /* \"#utility.yul\":10504:10506   */\n      0x20\n        /* \"#utility.yul\":10493:10502   */\n      dup3\n        /* \"#utility.yul\":10489:10507   */\n      add\n        /* \"#utility.yul\":10481:10507   */\n      swap1\n      pop\n        /* \"#utility.yul\":10553:10562   */\n      dup2\n        /* \"#utility.yul\":10547:10551   */\n      dup2\n        /* \"#utility.yul\":10543:10563   */\n      sub\n        /* \"#utility.yul\":10539:10540   */\n      0x00\n        /* \"#utility.yul\":10528:10537   */\n      dup4\n        /* \"#utility.yul\":10524:10541   */\n      add\n        /* \"#utility.yul\":10517:10564   */\n      mstore\n        /* \"#utility.yul\":10581:10712   */\n      tag_295\n        /* \"#utility.yul\":10707:10711   */\n      dup2\n        /* \"#utility.yul\":10581:10712   */\n      tag_170\n      jump\t// in\n    tag_295:\n        /* \"#utility.yul\":10573:10712   */\n      swap1\n      pop\n        /* \"#utility.yul\":10300:10719   */\n      swap2\n      swap1\n      pop\n      jump\t// out\n        /* \"#utility.yul\":10725:10885   */\n    tag_171:\n        /* \"#utility.yul\":10865:10877   */\n      0x4f6e6c79206f776e657200000000000000000000000000000000000000000000\n        /* \"#utility.yul\":10861:10862   */\n      0x00\n        /* \"#utility.yul\":10853:10859   */\n      dup3\n        /* \"#utility.yul\":10849:10863   */\n      add\n        /* \"#utility.yul\":10842:10878   */\n      mstore\n        /* \"#utility.yul\":10725:10885   */\n      pop\n      jump\t// out\n        /* \"#utility.yul\":10891:11257   */\n    tag_172:\n        /* \"#utility.yul\":11033:11036   */\n      0x00\n        /* \"#utility.yul\":11054:11121   */\n      tag_298\n        /* \"#utility.yul\":11118:11120   */\n      0x0a\n        /* \"#utility.yul\":11113:11116   */\n      dup4\n        /* \"#utility.yul\":11054:11121   */\n      tag_142\n      jump\t// in\n    tag_298:\n        /* \"#utility.yul\":11047:11121   */\n      swap2\n      pop\n        /* \"#utility.yul\":11130:11223   */\n      tag_299\n        /* \"#utility.yul\":11219:11222   */\n      dup3\n        /* \"#utility.yul\":11130:11223   */\n      tag_171\n      jump\t// in\n    tag_299:\n        /* \"#utility.yul\":11248:11250   */\n      0x20\n        /* \"#utility.yul\":11243:11246   */\n      dup3\n        /* \"#utility.yul\":11239:11251   */\n      add\n        /* \"#utility.yul\":11232:11251   */\n      swap1\n      pop\n        /* \"#utility.yul\":10891:11257   */\n      swap2\n      swap1\n      pop\n      jump\t// out\n        /* \"#utility.yul\":11263:11682   */\n    tag_96:\n        /* \"#utility.yul\":11429:11433   */\n      0x00\n        /* \"#utility.yul\":11467:11469   */\n      0x20\n        /* \"#utility.yul\":11456:11465   */\n      dup3\n        /* \"#utility.yul\":11452:11470   */\n      add\n        /* \"#utility.yul\":11444:11470   */\n      swap1\n      pop\n        /* \"#utility.yul\":11516:11525   */\n      dup2\n        /* \"#utility.yul\":11510:11514   */\n      dup2\n        /* \"#utility.yul\":11506:11526   */\n      sub\n        /* \"#utility.yul\":11502:11503   */\n      0x00\n        /* \"#utility.yul\":11491:11500   */\n      dup4\n        /* \"#utility.yul\":11487:11504   */\n      add\n        /* \"#utility.yul\":11480:11527   */\n      mstore\n        /* \"#utility.yul\":11544:11675   */\n      tag_301\n        /* \"#utility.yul\":11670:11674   */\n      dup2\n        /* \"#utility.yul\":11544:11675   */\n      tag_172\n      jump\t// in\n    tag_301:\n        /* \"#utility.yul\":11536:11675   */\n      swap1\n      pop\n        /* \"#utility.yul\":11263:11682   */\n      swap2\n      swap1\n      pop\n      jump\t// out\n        /* \"#utility.yul\":11688:11860   */\n    tag_173:\n        /* \"#utility.yul\":11828:11852   */\n      0x4172726179206c656e67746873206d69736d6174636800000000000000000000\n        /* \"#utility.yul\":11824:11825   */\n      0x00\n        /* \"#utility.yul\":11816:11822   */\n      dup3\n        /* \"#utility.yul\":11812:11826   */\n      add\n        /* \"#utility.yul\":11805:11853   */\n      mstore\n        /* \"#utility.yul\":11688:11860   */\n      pop\n      jump\t// out\n        /* \"#utility.yul\":11866:12232   */\n    tag_174:\n        /* \"#utility.yul\":12008:12011   */\n      0x00\n        /* \"#utility.yul\":12029:12096   */\n      tag_304\n        /* \"#utility.yul\":12093:12095   */\n      0x16\n        /* \"#utility.yul\":12088:12091   */\n      dup4\n        /* \"#utility.yul\":12029:12096   */\n      tag_142\n      jump\t// in\n    tag_304:\n        /* \"#utility.yul\":12022:12096   */\n      swap2\n      pop\n        /* \"#utility.yul\":12105:12198   */\n      tag_305\n        /* \"#utility.yul\":12194:12197   */\n      dup3\n        /* \"#utility.yul\":12105:12198   */\n      tag_173\n      jump\t// in\n    tag_305:\n        /* \"#utility.yul\":12223:12225   */\n      0x20\n        /* \"#utility.yul\":12218:12221   */\n      dup3\n        /* \"#utility.yul\":12214:12226   */\n      add\n        /* \"#utility.yul\":12207:12226   */\n      swap1\n      pop\n        /* \"#utility.yul\":11866:12232   */\n      swap2\n      swap1\n      pop\n      jump\t// out\n        /* \"#utility.yul\":12238:12657   */\n    tag_100:\n        /* \"#utility.yul\":12404:12408   */\n      0x00\n        /* \"#utility.yul\":12442:12444   */\n      0x20\n        /* \"#utility.yul\":12431:12440   */\n      dup3\n        /* \"#utility.yul\":12427:12445   */\n      add\n        /* \"#utility.yul\":12419:12445   */\n      swap1\n      pop\n        /* \"#utility.yul\":12491:12500   */\n      dup2\n        /* \"#utility.yul\":12485:12489   */\n      dup2\n        /* \"#utility.yul\":12481:12501   */\n      sub\n        /* \"#utility.yul\":12477:12478   */\n      0x00\n        /* \"#utility.yul\":12466:12475   */\n      dup4\n        /* \"#utility.yul\":12462:12479   */\n      add\n        /* \"#utility.yul\":12455:12502   */\n      mstore\n        /* \"#utility.yul\":12519:12650   */\n      tag_307\n        /* \"#utility.yul\":12645:12649   */\n      dup2\n        /* \"#utility.yul\":12519:12650   */\n      tag_174\n      jump\t// in\n    tag_307:\n        /* \"#utility.yul\":12511:12650   */\n      swap1\n      pop\n        /* \"#utility.yul\":12238:12657   */\n      swap2\n      swap1\n      pop\n      jump\t// out\n        /* \"#utility.yul\":12663:12843   */\n    tag_107:\n        /* \"#utility.yul\":12711:12788   */\n      0x4e487b7100000000000000000000000000000000000000000000000000000000\n        /* \"#utility.yul\":12708:12709   */\n      0x00\n        /* \"#utility.yul\":12701:12789   */\n      mstore\n        /* \"#utility.yul\":12808:12812   */\n      0x32\n        /* \"#utility.yul\":12805:12806   */\n      0x04\n        /* \"#utility.yul\":12798:12813   */\n      mstore\n        /* \"#utility.yul\":12832:12836   */\n      0x24\n        /* \"#utility.yul\":12829:12830   */\n      0x00\n        /* \"#utility.yul\":12822:12837   */\n      revert\n        /* \"#utility.yul\":12849:13082   */\n    tag_112:\n        /* \"#utility.yul\":12888:12891   */\n      0x00\n        /* \"#utility.yul\":12911:12935   */\n      tag_310\n        /* \"#utility.yul\":12929:12934   */\n      dup3\n        /* \"#utility.yul\":12911:12935   */\n      tag_153\n      jump\t// in\n    tag_310:\n        /* \"#utility.yul\":12902:12935   */\n      swap2\n      pop\n        /* \"#utility.yul\":12957:13023   */\n      0xffffffffffffffffffffffffffffffffffffffffffffffffffffffffffffffff\n        /* \"#utility.yul\":12950:12955   */\n      dup3\n        /* \"#utility.yul\":12947:13024   */\n      sub\n        /* \"#utility.yul\":12944:13047   */\n      tag_311\n      jumpi\n        /* \"#utility.yul\":13027:13045   */\n      tag_312\n      tag_168\n      jump\t// in\n    tag_312:\n        /* \"#utility.yul\":12944:13047   */\n    tag_311:\n        /* \"#utility.yul\":13074:13075   */\n      0x01\n        /* \"#utility.yul\":13067:13072   */\n      dup3\n        /* \"#utility.yul\":13063:13076   */\n      add\n        /* \"#utility.yul\":13056:13076   */\n      swap1\n      pop\n        /* \"#utility.yul\":12849:13082   */\n      swap2\n      swap1\n      pop\n      jump\t// out\n        /* \"#utility.yul\":13088:13253   */\n    tag_175:\n        /* \"#utility.yul\":13228:13245   */\n      0x496e76616c696420616464726573730000000000000000000000000000000000\n        /* \"#utility.yul\":13224:13225   */\n      0x00\n        /* \"#utility.yul\":13216:13222   */\n      dup3\n        /* \"#utility.yul\":13212:13226   */\n      add\n        /* \"#utility.yul\":13205:13246   */\n      mstore\n        /* \"#utility.yul\":13088:13253   */\n      pop\n      jump\t// out\n        /* \"#utility.yul\":13259:13625   */\n    tag_176:\n        /* \"#utility.yul\":13401:13404   */\n      0x00\n        /* \"#utility.yul\":13422:13489   */\n      tag_315\n        /* \"#utility.yul\":13486:13488   */\n      0x0f\n        /* \"#utility.yul\":13481:13484   */\n      dup4\n        /* \"#utility.yul\":13422:13489   */\n      tag_142\n      jump\t// in\n    tag_315:\n        /* \"#utility.yul\":13415:13489   */\n      swap2\n      pop\n        /* \"#utility.yul\":13498:13591   */\n      tag_316\n        /* \"#utility.yul\":13587:13590   */\n      dup3\n        /* \"#utility.yul\":13498:13591   */\n      tag_175\n      jump\t// in\n    tag_316:\n        /* \"#utility.yul\":13616:13618   */\n      0x20\n        /* \"#utility.yul\":13611:13614   */\n      dup3\n        /* \"#utility.yul\":13607:13619   */\n      add\n        /* \"#utility.yul\":13600:13619   */\n      swap1\n      pop\n        /* \"#utility.yul\":13259:13625   */\n      swap2\n      swap1\n      pop\n      jump\t// out\n        /* \"#utility.yul\":13631:14050   */\n    tag_128:\n        /* \"#utility.yul\":13797:13801   */\n      0x00\n        /* \"#utility.yul\":13835:13837   */\n      0x20\n        /* \"#utility.yul\":13824:13833   */\n      dup3\n        /* \"#utility.yul\":13820:13838   */\n      add\n        /* \"#utility.yul\":13812:13838   */\n      swap1\n      pop\n        /* \"#utility.yul\":13884:13893   */\n      dup2\n        /* \"#utility.yul\":13878:13882   */\n      dup2\n        /* \"#utility.yul\":13874:13894   */\n      sub\n        /* \"#utility.yul\":13870:13871   */\n      0x00\n        /* \"#utility.yul\":13859:13868   */\n      dup4\n        /* \"#utility.yul\":13855:13872   */\n      add\n        /* \"#utility.yul\":13848:13895   */\n      mstore\n        /* \"#utility.yul\":13912:14043   */\n      tag_318\n        /* \"#utility.yul\":14038:14042   */\n      dup2\n        /* \"#utility.yul\":13912:14043   */\n      tag_176\n      jump\t// in\n    tag_318:\n        /* \"#utility.yul\":13904:14043   */\n      swap1\n      pop\n        /* \"#utility.yul\":13631:14050   */\n      swap2\n      swap1\n      pop\n      jump\t// out\n        /* \"#utility.yul\":14056:14226   */\n    tag_177:\n        /* \"#utility.yul\":14196:14218   */\n      0x496e73756666696369656e742062616c616e6365000000000000000000000000\n        /* \"#utility.yul\":14192:14193   */\n      0x00\n        /* \"#utility.yul\":14184:14190   */\n      dup3\n        /* \"#utility.yul\":14180:14194   */\n      add\n        /* \"#utility.yul\":14173:14219   */\n      mstore\n        /* \"#utility.yul\":14056:14226   */\n      pop\n      jump\t// out\n        /* \"#utility.yul\":14232:14598   */\n    tag_178:\n        /* \"#utility.yul\":14374:14377   */\n      0x00\n        /* \"#utility.yul\":14395:14462   */\n      tag_321\n        /* \"#utility.yul\":14459:14461   */\n      0x14\n        /* \"#utility.yul\":14454:14457   */\n      dup4\n        /* \"#utility.yul\":14395:14462   */\n      tag_142\n      jump\t// in\n    tag_321:\n        /* \"#utility.yul\":14388:14462   */\n      swap2\n      pop\n        /* \"#utility.yul\":14471:14564   */\n      tag_322\n        /* \"#utility.yul\":14560:14563   */\n      dup3\n        /* \"#utility.yul\":14471:14564   */\n      tag_177\n      jump\t// in\n    tag_322:\n        /* \"#utility.yul\":14589:14591   */\n      0x20\n        /* \"#utility.yul\":14584:14587   */\n      dup3\n        /* \"#utility.yul\":14580:14592   */\n      add\n        /* \"#utility.yul\":14573:14592   */\n      swap1\n      pop\n        /* \"#utility.yul\":14232:14598   */\n      swap2\n      swap1\n      pop\n      jump\t// out\n        /* \"#utility.yul\":14604:15023   */\n    tag_136:\n        /* \"#utility.yul\":14770:14774   */\n      0x00\n        /* \"#utility.yul\":14808:14810   */\n      0x20\n        /* \"#utility.yul\":14797:14806   */\n      dup3\n        /* \"#utility.yul\":14793:14811   */\n      add\n        /* \"#utility.yul\":14785:14811   */\n      swap1\n      pop\n        /* \"#utility.yul\":14857:14866   */\n      dup2\n        /* \"#utility.yul\":14851:14855   */\n      dup2\n        /* \"#utility.yul\":14847:14867   */\n      sub\n        /* \"#utility.yul\":14843:14844   */\n      0x00\n        /* \"#utility.yul\":14832:14841   */\n      dup4\n        /* \"#utility.yul\":14828:14845   */\n      add\n        /* \"#utility.yul\":14821:14868   */\n      mstore\n        /* \"#utility.yul\":14885:15016   */\n      tag_324\n        /* \"#utility.yul\":15011:15015   */\n      dup2\n        /* \"#utility.yul\":14885:15016   */\n      tag_178\n      jump\t// in\n    tag_324:\n        /* \"#utility.yul\":14877:15016   */\n      swap1\n      pop\n        /* \"#utility.yul\":14604:15023   */\n      swap2\n      swap1\n      pop\n      jump\t// out\n        /* \"#utility.yul\":15029:15220   */\n    tag_139:\n        /* \"#utility.yul\":15069:15072   */\n      0x00\n        /* \"#utility.yul\":15088:15108   */\n      tag_326\n        /* \"#utility.yul\":15106:15107   */\n      dup3\n        /* \"#utility.yul\":15088:15108   */\n      tag_153\n      jump\t// in\n    tag_326:\n        /* \"#utility.yul\":15083:15108   */\n      swap2\n      pop\n        /* \"#utility.yul\":15122:15142   */\n      tag_327\n        /* \"#utility.yul\":15140:15141   */\n      dup4\n        /* \"#utility.yul\":15122:15142   */\n      tag_153\n      jump\t// in\n    tag_327:\n        /* \"#utility.yul\":15117:15142   */\n      swap3\n      pop\n        /* \"#utility.yul\":15165:15166   */\n      dup3\n        /* \"#utility.yul\":15162:15163   */\n      dup3\n        /* \"#utility.yul\":15158:15167   */\n      add\n        /* \"#utility.yul\":15151:15167   */\n      swap1\n      pop\n        /* \"#utility.yul\":15186:15189   */\n      dup1\n        /* \"#utility.yul\":15183:15184   */\n      dup3\n        /* \"#utility.yul\":15180:15190   */\n      gt\n        /* \"#utility.yul\":15177:15213   */\n      iszero\n      tag_328\n      jumpi\n        /* \"#utility.yul\":15193:15211   */\n      tag_329\n      tag_168\n      jump\t// in\n    tag_329:\n        /* \"#utility.yul\":15177:15213   */\n    tag_328:\n        /* \"#utility.yul\":15029:15220   */\n      swap3\n      swap2\n      pop\n      pop\n      jump\t// out\n\n    auxdata: 0xa26469706673582212202758f02905da00b8f5ebca47342de4415309fc323777a7318e41342cb63882d264736f6c63430008140033\n}\n",
				"bytecode": {
					"linkReferences": {},
					"object": "60806040526040518060400160405280600781526020017f74506f696e7469000000000000000000000000000000000000000000000000008152505f908162000049919062000463565b506040518060400160405280600381526020017f54505400000000000000000000000000000000000000000000000000000000008152506001908162000090919062000463565b50601260025f6101000a81548160ff021916908360ff1602179055506c01431e0fae6d7217caa0000000600355348015620000c9575f80fd5b503360045f6101000a81548173ffffffffffffffffffffffffffffffffffffffff021916908373ffffffffffffffffffffffffffffffffffffffff16021790555060035460055f60045f9054906101000a900473ffffffffffffffffffffffffffffffffffffffff1673ffffffffffffffffffffffffffffffffffffffff1673ffffffffffffffffffffffffffffffffffffffff1681526020019081526020015f208190555060045f9054906101000a900473ffffffffffffffffffffffffffffffffffffffff1673ffffffffffffffffffffffffffffffffffffffff165f73ffffffffffffffffffffffffffffffffffffffff167fddf252ad1be2c89b69c2b068fc378daa952ba7f163c4a11628f55a4df523b3ef600354604051620001f1919062000558565b60405180910390a362000573565b5f81519050919050565b7f4e487b71000000000000000000000000000000000000000000000000000000005f52604160045260245ffd5b7f4e487b71000000000000000000000000000000000000000000000000000000005f52602260045260245ffd5b5f60028204905060018216806200027b57607f821691505b60208210810362000291576200029062000236565b5b50919050565b5f819050815f5260205f209050919050565b5f6020601f8301049050919050565b5f82821b905092915050565b5f60088302620002f57fffffffffffffffffffffffffffffffffffffffffffffffffffffffffffffffff82620002b8565b620003018683620002b8565b95508019841693508086168417925050509392505050565b5f819050919050565b5f819050919050565b5f6200034b620003456200033f8462000319565b62000322565b62000319565b9050919050565b5f819050919050565b62000366836200032b565b6200037e620003758262000352565b848454620002c4565b825550505050565b5f90565b6200039462000386565b620003a18184846200035b565b505050565b5b81811015620003c857620003bc5f826200038a565b600181019050620003a7565b5050565b601f8211156200041757620003e18162000297565b620003ec84620002a9565b81016020851015620003fc578190505b620004146200040b85620002a9565b830182620003a6565b50505b505050565b5f82821c905092915050565b5f620004395f19846008026200041c565b1980831691505092915050565b5f62000453838362000428565b9150826002028217905092915050565b6200046e82620001ff565b67ffffffffffffffff8111156200048a576200048962000209565b5b62000496825462000263565b620004a3828285620003cc565b5f60209050601f831160018114620004d9575f8415620004c4578287015190505b620004d0858262000446565b8655506200053f565b601f198416620004e98662000297565b5f5b828110156200051257848901518255600182019150602085019450602081019050620004eb565b868310156200053257848901516200052e601f89168262000428565b8355505b6001600288020188555050505b505050505050565b620005528162000319565b82525050565b5f6020820190506200056d5f83018462000547565b92915050565b6113c180620005815f395ff3fe608060405234801561000f575f80fd5b50600436106100b2575f3560e01c8063672434821161006f578063672434821461018c57806370a08231146101a8578063893d20e8146101d857806395d89b41146101f6578063a9059cbb14610214578063dd62ed3e14610244576100b2565b806306fdde03146100b6578063095ea7b3146100d457806318160ddd1461010457806323b872dd14610122578063313ce5671461015257806342966c6814610170575b5f80fd5b6100be610274565b6040516100cb9190610c5d565b60405180910390f35b6100ee60048036038101906100e99190610d12565b610303565b6040516100fb9190610d6a565b60405180910390f35b61010c610319565b6040516101199190610d92565b60405180910390f35b61013c60048036038101906101379190610dab565b610322565b6040516101499190610d6a565b60405180910390f35b61015a6103c7565b6040516101679190610e16565b60405180910390f35b61018a60048036038101906101859190610e2f565b6103dc565b005b6101a660048036038101906101a19190610f10565b61052f565b005b6101c260048036038101906101bd9190610f8e565b610678565b6040516101cf9190610d92565b60405180910390f35b6101e06106be565b6040516101ed9190610fc8565b60405180910390f35b6101fe6106e6565b60405161020b9190610c5d565b60405180910390f35b61022e60048036038101906102299190610d12565b610776565b60405161023b9190610d6a565b60405180910390f35b61025e60048036038101906102599190610fe1565b61078c565b60405161026b9190610d92565b60405180910390f35b60605f80546102829061104c565b80601f01602080910402602001604051908101604052809291908181526020018280546102ae9061104c565b80156102f95780601f106102d0576101008083540402835291602001916102f9565b820191905f5260205f20905b8154815290600101906020018083116102dc57829003601f168201915b5050505050905090565b5f61030f33848461080e565b6001905092915050565b5f600354905090565b5f61032e84848461099c565b6103bc84338460065f8973ffffffffffffffffffffffffffffffffffffffff1673ffffffffffffffffffffffffffffffffffffffff1681526020019081526020015f205f3373ffffffffffffffffffffffffffffffffffffffff1673ffffffffffffffffffffffffffffffffffffffff1681526020019081526020015f20546103b791906110a9565b61080e565b600190509392505050565b5f60025f9054906101000a900460ff16905090565b8060055f3373ffffffffffffffffffffffffffffffffffffffff1673ffffffffffffffffffffffffffffffffffffffff1681526020019081526020015f2054101561045c576040517f08c379a000000000000000000000000000000000000000000000000000000000815260040161045390611126565b60405180910390fd5b8060055f3373ffffffffffffffffffffffffffffffffffffffff1673ffffffffffffffffffffffffffffffffffffffff1681526020019081526020015f205f8282546104a891906110a9565b925050819055508060035f8282546104c091906110a9565b925050819055505f73ffffffffffffffffffffffffffffffffffffffff163373ffffffffffffffffffffffffffffffffffffffff167fddf252ad1be2c89b69c2b068fc378daa952ba7f163c4a11628f55a4df523b3ef836040516105249190610d92565b60405180910390a350565b60045f9054906101000a900473ffffffffffffffffffffffffffffffffffffffff1673ffffffffffffffffffffffffffffffffffffffff163373ffffffffffffffffffffffffffffffffffffffff16146105be576040517f08c379a00000000000000000000000000000000000000000000000000000000081526004016105b59061118e565b60405180910390fd5b818190508484905014610606576040517f08c379a00000000000000000000000000000000000000000000000000000000081526004016105fd906111f6565b60405180910390fd5b5f5b848490508110156106715761065e3386868481811061062a57610629611214565b5b905060200201602081019061063f9190610f8e565b85858581811061065257610651611214565b5b9050602002013561099c565b808061066990611241565b915050610608565b5050505050565b5f60055f8373ffffffffffffffffffffffffffffffffffffffff1673ffffffffffffffffffffffffffffffffffffffff1681526020019081526020015f20549050919050565b5f60045f9054906101000a900473ffffffffffffffffffffffffffffffffffffffff16905090565b6060600180546106f59061104c565b80601f01602080910402602001604051908101604052809291908181526020018280546107219061104c565b801561076c5780601f106107435761010080835404028352916020019161076c565b820191905f5260205f20905b81548152906001019060200180831161074f57829003601f168201915b5050505050905090565b5f61078233848461099c565b6001905092915050565b5f60065f8473ffffffffffffffffffffffffffffffffffffffff1673ffffffffffffffffffffffffffffffffffffffff1681526020019081526020015f205f8373ffffffffffffffffffffffffffffffffffffffff1673ffffffffffffffffffffffffffffffffffffffff1681526020019081526020015f2054905092915050565b5f73ffffffffffffffffffffffffffffffffffffffff168373ffffffffffffffffffffffffffffffffffffffff161415801561087657505f73ffffffffffffffffffffffffffffffffffffffff168273ffffffffffffffffffffffffffffffffffffffff1614155b6108b5576040517f08c379a00000000000000000000000000000000000000000000000000000000081526004016108ac906112d2565b60405180910390fd5b8060065f8573ffffffffffffffffffffffffffffffffffffffff1673ffffffffffffffffffffffffffffffffffffffff1681526020019081526020015f205f8473ffffffffffffffffffffffffffffffffffffffff1673ffffffffffffffffffffffffffffffffffffffff1681526020019081526020015f20819055508173ffffffffffffffffffffffffffffffffffffffff168373ffffffffffffffffffffffffffffffffffffffff167f8c5be1e5ebec7d5bd14f71427d1e84f3dd0314c0f7b2291e5b200ac8c7c3b9258360405161098f9190610d92565b60405180910390a3505050565b5f73ffffffffffffffffffffffffffffffffffffffff168373ffffffffffffffffffffffffffffffffffffffff1614158015610a0457505f73ffffffffffffffffffffffffffffffffffffffff168273ffffffffffffffffffffffffffffffffffffffff1614155b610a43576040517f08c379a0000000000000000000000000000000000000000000000000000000008152600401610a3a906112d2565b60405180910390fd5b8060055f8573ffffffffffffffffffffffffffffffffffffffff1673ffffffffffffffffffffffffffffffffffffffff1681526020019081526020015f20541015610ac3576040517f08c379a0000000000000000000000000000000000000000000000000000000008152600401610aba9061133a565b60405180910390fd5b8060055f8573ffffffffffffffffffffffffffffffffffffffff1673ffffffffffffffffffffffffffffffffffffffff1681526020019081526020015f205f828254610b0f91906110a9565b925050819055508060055f8473ffffffffffffffffffffffffffffffffffffffff1673ffffffffffffffffffffffffffffffffffffffff1681526020019081526020015f205f828254610b629190611358565b925050819055508173ffffffffffffffffffffffffffffffffffffffff168373ffffffffffffffffffffffffffffffffffffffff167fddf252ad1be2c89b69c2b068fc378daa952ba7f163c4a11628f55a4df523b3ef83604051610bc69190610d92565b60405180910390a3505050565b5f81519050919050565b5f82825260208201905092915050565b5f5b83811015610c0a578082015181840152602081019050610bef565b5f8484015250505050565b5f601f19601f8301169050919050565b5f610c2f82610bd3565b610c398185610bdd565b9350610c49818560208601610bed565b610c5281610c15565b840191505092915050565b5f6020820190508181035f830152610c758184610c25565b905092915050565b5f80fd5b5f80fd5b5f73ffffffffffffffffffffffffffffffffffffffff82169050919050565b5f610cae82610c85565b9050919050565b610cbe81610ca4565b8114610cc8575f80fd5b50565b5f81359050610cd981610cb5565b92915050565b5f819050919050565b610cf181610cdf565b8114610cfb575f80fd5b50565b5f81359050610d0c81610ce8565b92915050565b5f8060408385031215610d2857610d27610c7d565b5b5f610d3585828601610ccb565b9250506020610d4685828601610cfe565b9150509250929050565b5f8115159050919050565b610d6481610d50565b82525050565b5f602082019050610d7d5f830184610d5b565b92915050565b610d8c81610cdf565b82525050565b5f602082019050610da55f830184610d83565b92915050565b5f805f60608486031215610dc257610dc1610c7d565b5b5f610dcf86828701610ccb565b9350506020610de086828701610ccb565b9250506040610df186828701610cfe565b9150509250925092565b5f60ff82169050919050565b610e1081610dfb565b82525050565b5f602082019050610e295f830184610e07565b92915050565b5f60208284031215610e4457610e43610c7d565b5b5f610e5184828501610cfe565b91505092915050565b5f80fd5b5f80fd5b5f80fd5b5f8083601f840112610e7b57610e7a610e5a565b5b8235905067ffffffffffffffff811115610e9857610e97610e5e565b5b602083019150836020820283011115610eb457610eb3610e62565b5b9250929050565b5f8083601f840112610ed057610ecf610e5a565b5b8235905067ffffffffffffffff811115610eed57610eec610e5e565b5b602083019150836020820283011115610f0957610f08610e62565b5b9250929050565b5f805f8060408587031215610f2857610f27610c7d565b5b5f85013567ffffffffffffffff811115610f4557610f44610c81565b5b610f5187828801610e66565b9450945050602085013567ffffffffffffffff811115610f7457610f73610c81565b5b610f8087828801610ebb565b925092505092959194509250565b5f60208284031215610fa357610fa2610c7d565b5b5f610fb084828501610ccb565b91505092915050565b610fc281610ca4565b82525050565b5f602082019050610fdb5f830184610fb9565b92915050565b5f8060408385031215610ff757610ff6610c7d565b5b5f61100485828601610ccb565b925050602061101585828601610ccb565b9150509250929050565b7f4e487b71000000000000000000000000000000000000000000000000000000005f52602260045260245ffd5b5f600282049050600182168061106357607f821691505b6020821081036110765761107561101f565b5b50919050565b7f4e487b71000000000000000000000000000000000000000000000000000000005f52601160045260245ffd5b5f6110b382610cdf565b91506110be83610cdf565b92508282039050818111156110d6576110d561107c565b5b92915050565b7f496e73756666696369656e742062616c616e636520746f206275726e000000005f82015250565b5f611110601c83610bdd565b915061111b826110dc565b602082019050919050565b5f6020820190508181035f83015261113d81611104565b9050919050565b7f4f6e6c79206f776e6572000000000000000000000000000000000000000000005f82015250565b5f611178600a83610bdd565b915061118382611144565b602082019050919050565b5f6020820190508181035f8301526111a58161116c565b9050919050565b7f4172726179206c656e67746873206d69736d61746368000000000000000000005f82015250565b5f6111e0601683610bdd565b91506111eb826111ac565b602082019050919050565b5f6020820190508181035f83015261120d816111d4565b9050919050565b7f4e487b71000000000000000000000000000000000000000000000000000000005f52603260045260245ffd5b5f61124b82610cdf565b91507fffffffffffffffffffffffffffffffffffffffffffffffffffffffffffffffff820361127d5761127c61107c565b5b600182019050919050565b7f496e76616c6964206164647265737300000000000000000000000000000000005f82015250565b5f6112bc600f83610bdd565b91506112c782611288565b602082019050919050565b5f6020820190508181035f8301526112e9816112b0565b9050919050565b7f496e73756666696369656e742062616c616e63650000000000000000000000005f82015250565b5f611324601483610bdd565b915061132f826112f0565b602082019050919050565b5f6020820190508181035f83015261135181611318565b9050919050565b5f61136282610cdf565b915061136d83610cdf565b92508282019050808211156113855761138461107c565b5b9291505056fea26469706673582212202758f02905da00b8f5ebca47342de4415309fc323777a7318e41342cb63882d264736f6c63430008140033",
					"opcodes": "PUSH1 0x80 PUSH1 0x40 MSTORE PUSH1 0x40 MLOAD DUP1 PUSH1 0x40 ADD PUSH1 0x40 MSTORE DUP1 PUSH1 0x7 DUP2 MSTORE PUSH1 0x20 ADD PUSH32 0x74506F696E746900000000000000000000000000000000000000000000000000 DUP2 MSTORE POP PUSH0 SWAP1 DUP2 PUSH3 0x49 SWAP2 SWAP1 PUSH3 0x463 JUMP JUMPDEST POP PUSH1 0x40 MLOAD DUP1 PUSH1 0x40 ADD PUSH1 0x40 MSTORE DUP1 PUSH1 0x3 DUP2 MSTORE PUSH1 0x20 ADD PUSH32 0x5450540000000000000000000000000000000000000000000000000000000000 DUP2 MSTORE POP PUSH1 0x1 SWAP1 DUP2 PUSH3 0x90 SWAP2 SWAP1 PUSH3 0x463 JUMP JUMPDEST POP PUSH1 0x12 PUSH1 0x2 PUSH0 PUSH2 0x100 EXP DUP2 SLOAD DUP2 PUSH1 0xFF MUL NOT AND SWAP1 DUP4 PUSH1 0xFF AND MUL OR SWAP1 SSTORE POP PUSH13 0x1431E0FAE6D7217CAA0000000 PUSH1 0x3 SSTORE CALLVALUE DUP1 ISZERO PUSH3 0xC9 JUMPI PUSH0 DUP1 REVERT JUMPDEST POP CALLER PUSH1 0x4 PUSH0 PUSH2 0x100 EXP DUP2 SLOAD DUP2 PUSH20 0xFFFFFFFFFFFFFFFFFFFFFFFFFFFFFFFFFFFFFFFF MUL NOT AND SWAP1 DUP4 PUSH20 0xFFFFFFFFFFFFFFFFFFFFFFFFFFFFFFFFFFFFFFFF AND MUL OR SWAP1 SSTORE POP PUSH1 0x3 SLOAD PUSH1 0x5 PUSH0 PUSH1 0x4 PUSH0 SWAP1 SLOAD SWAP1 PUSH2 0x100 EXP SWAP1 DIV PUSH20 0xFFFFFFFFFFFFFFFFFFFFFFFFFFFFFFFFFFFFFFFF AND PUSH20 0xFFFFFFFFFFFFFFFFFFFFFFFFFFFFFFFFFFFFFFFF AND PUSH20 0xFFFFFFFFFFFFFFFFFFFFFFFFFFFFFFFFFFFFFFFF AND DUP2 MSTORE PUSH1 0x20 ADD SWAP1 DUP2 MSTORE PUSH1 0x20 ADD PUSH0 KECCAK256 DUP2 SWAP1 SSTORE POP PUSH1 0x4 PUSH0 SWAP1 SLOAD SWAP1 PUSH2 0x100 EXP SWAP1 DIV PUSH20 0xFFFFFFFFFFFFFFFFFFFFFFFFFFFFFFFFFFFFFFFF AND PUSH20 0xFFFFFFFFFFFFFFFFFFFFFFFFFFFFFFFFFFFFFFFF AND PUSH0 PUSH20 0xFFFFFFFFFFFFFFFFFFFFFFFFFFFFFFFFFFFFFFFF AND PUSH32 0xDDF252AD1BE2C89B69C2B068FC378DAA952BA7F163C4A11628F55A4DF523B3EF PUSH1 0x3 SLOAD PUSH1 0x40 MLOAD PUSH3 0x1F1 SWAP2 SWAP1 PUSH3 0x558 JUMP JUMPDEST PUSH1 0x40 MLOAD DUP1 SWAP2 SUB SWAP1 LOG3 PUSH3 0x573 JUMP JUMPDEST PUSH0 DUP2 MLOAD SWAP1 POP SWAP2 SWAP1 POP JUMP JUMPDEST PUSH32 0x4E487B7100000000000000000000000000000000000000000000000000000000 PUSH0 MSTORE PUSH1 0x41 PUSH1 0x4 MSTORE PUSH1 0x24 PUSH0 REVERT JUMPDEST PUSH32 0x4E487B7100000000000000000000000000000000000000000000000000000000 PUSH0 MSTORE PUSH1 0x22 PUSH1 0x4 MSTORE PUSH1 0x24 PUSH0 REVERT JUMPDEST PUSH0 PUSH1 0x2 DUP3 DIV SWAP1 POP PUSH1 0x1 DUP3 AND DUP1 PUSH3 0x27B JUMPI PUSH1 0x7F DUP3 AND SWAP2 POP JUMPDEST PUSH1 0x20 DUP3 LT DUP2 SUB PUSH3 0x291 JUMPI PUSH3 0x290 PUSH3 0x236 JUMP JUMPDEST JUMPDEST POP SWAP2 SWAP1 POP JUMP JUMPDEST PUSH0 DUP2 SWAP1 POP DUP2 PUSH0 MSTORE PUSH1 0x20 PUSH0 KECCAK256 SWAP1 POP SWAP2 SWAP1 POP JUMP JUMPDEST PUSH0 PUSH1 0x20 PUSH1 0x1F DUP4 ADD DIV SWAP1 POP SWAP2 SWAP1 POP JUMP JUMPDEST PUSH0 DUP3 DUP3 SHL SWAP1 POP SWAP3 SWAP2 POP POP JUMP JUMPDEST PUSH0 PUSH1 0x8 DUP4 MUL PUSH3 0x2F5 PUSH32 0xFFFFFFFFFFFFFFFFFFFFFFFFFFFFFFFFFFFFFFFFFFFFFFFFFFFFFFFFFFFFFFFF DUP3 PUSH3 0x2B8 JUMP JUMPDEST PUSH3 0x301 DUP7 DUP4 PUSH3 0x2B8 JUMP JUMPDEST SWAP6 POP DUP1 NOT DUP5 AND SWAP4 POP DUP1 DUP7 AND DUP5 OR SWAP3 POP POP POP SWAP4 SWAP3 POP POP POP JUMP JUMPDEST PUSH0 DUP2 SWAP1 POP SWAP2 SWAP1 POP JUMP JUMPDEST PUSH0 DUP2 SWAP1 POP SWAP2 SWAP1 POP JUMP JUMPDEST PUSH0 PUSH3 0x34B PUSH3 0x345 PUSH3 0x33F DUP5 PUSH3 0x319 JUMP JUMPDEST PUSH3 0x322 JUMP JUMPDEST PUSH3 0x319 JUMP JUMPDEST SWAP1 POP SWAP2 SWAP1 POP JUMP JUMPDEST PUSH0 DUP2 SWAP1 POP SWAP2 SWAP1 POP JUMP JUMPDEST PUSH3 0x366 DUP4 PUSH3 0x32B JUMP JUMPDEST PUSH3 0x37E PUSH3 0x375 DUP3 PUSH3 0x352 JUMP JUMPDEST DUP5 DUP5 SLOAD PUSH3 0x2C4 JUMP JUMPDEST DUP3 SSTORE POP POP POP POP JUMP JUMPDEST PUSH0 SWAP1 JUMP JUMPDEST PUSH3 0x394 PUSH3 0x386 JUMP JUMPDEST PUSH3 0x3A1 DUP2 DUP5 DUP5 PUSH3 0x35B JUMP JUMPDEST POP POP POP JUMP JUMPDEST JUMPDEST DUP2 DUP2 LT ISZERO PUSH3 0x3C8 JUMPI PUSH3 0x3BC PUSH0 DUP3 PUSH3 0x38A JUMP JUMPDEST PUSH1 0x1 DUP2 ADD SWAP1 POP PUSH3 0x3A7 JUMP JUMPDEST POP POP JUMP JUMPDEST PUSH1 0x1F DUP3 GT ISZERO PUSH3 0x417 JUMPI PUSH3 0x3E1 DUP2 PUSH3 0x297 JUMP JUMPDEST PUSH3 0x3EC DUP5 PUSH3 0x2A9 JUMP JUMPDEST DUP2 ADD PUSH1 0x20 DUP6 LT ISZERO PUSH3 0x3FC JUMPI DUP2 SWAP1 POP JUMPDEST PUSH3 0x414 PUSH3 0x40B DUP6 PUSH3 0x2A9 JUMP JUMPDEST DUP4 ADD DUP3 PUSH3 0x3A6 JUMP JUMPDEST POP POP JUMPDEST POP POP POP JUMP JUMPDEST PUSH0 DUP3 DUP3 SHR SWAP1 POP SWAP3 SWAP2 POP POP JUMP JUMPDEST PUSH0 PUSH3 0x439 PUSH0 NOT DUP5 PUSH1 0x8 MUL PUSH3 0x41C JUMP JUMPDEST NOT DUP1 DUP4 AND SWAP2 POP POP SWAP3 SWAP2 POP POP JUMP JUMPDEST PUSH0 PUSH3 0x453 DUP4 DUP4 PUSH3 0x428 JUMP JUMPDEST SWAP2 POP DUP3 PUSH1 0x2 MUL DUP3 OR SWAP1 POP SWAP3 SWAP2 POP POP JUMP JUMPDEST PUSH3 0x46E DUP3 PUSH3 0x1FF JUMP JUMPDEST PUSH8 0xFFFFFFFFFFFFFFFF DUP2 GT ISZERO PUSH3 0x48A JUMPI PUSH3 0x489 PUSH3 0x209 JUMP JUMPDEST JUMPDEST PUSH3 0x496 DUP3 SLOAD PUSH3 0x263 JUMP JUMPDEST PUSH3 0x4A3 DUP3 DUP3 DUP6 PUSH3 0x3CC JUMP JUMPDEST PUSH0 PUSH1 0x20 SWAP1 POP PUSH1 0x1F DUP4 GT PUSH1 0x1 DUP2 EQ PUSH3 0x4D9 JUMPI PUSH0 DUP5 ISZERO PUSH3 0x4C4 JUMPI DUP3 DUP8 ADD MLOAD SWAP1 POP JUMPDEST PUSH3 0x4D0 DUP6 DUP3 PUSH3 0x446 JUMP JUMPDEST DUP7 SSTORE POP PUSH3 0x53F JUMP JUMPDEST PUSH1 0x1F NOT DUP5 AND PUSH3 0x4E9 DUP7 PUSH3 0x297 JUMP JUMPDEST PUSH0 JUMPDEST DUP3 DUP2 LT ISZERO PUSH3 0x512 JUMPI DUP5 DUP10 ADD MLOAD DUP3 SSTORE PUSH1 0x1 DUP3 ADD SWAP2 POP PUSH1 0x20 DUP6 ADD SWAP5 POP PUSH1 0x20 DUP2 ADD SWAP1 POP PUSH3 0x4EB JUMP JUMPDEST DUP7 DUP4 LT ISZERO PUSH3 0x532 JUMPI DUP5 DUP10 ADD MLOAD PUSH3 0x52E PUSH1 0x1F DUP10 AND DUP3 PUSH3 0x428 JUMP JUMPDEST DUP4 SSTORE POP JUMPDEST PUSH1 0x1 PUSH1 0x2 DUP9 MUL ADD DUP9 SSTORE POP POP POP JUMPDEST POP POP POP POP POP POP JUMP JUMPDEST PUSH3 0x552 DUP2 PUSH3 0x319 JUMP JUMPDEST DUP3 MSTORE POP POP JUMP JUMPDEST PUSH0 PUSH1 0x20 DUP3 ADD SWAP1 POP PUSH3 0x56D PUSH0 DUP4 ADD DUP5 PUSH3 0x547 JUMP JUMPDEST SWAP3 SWAP2 POP POP JUMP JUMPDEST PUSH2 0x13C1 DUP1 PUSH3 0x581 PUSH0 CODECOPY PUSH0 RETURN INVALID PUSH1 0x80 PUSH1 0x40 MSTORE CALLVALUE DUP1 ISZERO PUSH2 0xF JUMPI PUSH0 DUP1 REVERT JUMPDEST POP PUSH1 0x4 CALLDATASIZE LT PUSH2 0xB2 JUMPI PUSH0 CALLDATALOAD PUSH1 0xE0 SHR DUP1 PUSH4 0x67243482 GT PUSH2 0x6F JUMPI DUP1 PUSH4 0x67243482 EQ PUSH2 0x18C JUMPI DUP1 PUSH4 0x70A08231 EQ PUSH2 0x1A8 JUMPI DUP1 PUSH4 0x893D20E8 EQ PUSH2 0x1D8 JUMPI DUP1 PUSH4 0x95D89B41 EQ PUSH2 0x1F6 JUMPI DUP1 PUSH4 0xA9059CBB EQ PUSH2 0x214 JUMPI DUP1 PUSH4 0xDD62ED3E EQ PUSH2 0x244 JUMPI PUSH2 0xB2 JUMP JUMPDEST DUP1 PUSH4 0x6FDDE03 EQ PUSH2 0xB6 JUMPI DUP1 PUSH4 0x95EA7B3 EQ PUSH2 0xD4 JUMPI DUP1 PUSH4 0x18160DDD EQ PUSH2 0x104 JUMPI DUP1 PUSH4 0x23B872DD EQ PUSH2 0x122 JUMPI DUP1 PUSH4 0x313CE567 EQ PUSH2 0x152 JUMPI DUP1 PUSH4 0x42966C68 EQ PUSH2 0x170 JUMPI JUMPDEST PUSH0 DUP1 REVERT JUMPDEST PUSH2 0xBE PUSH2 0x274 JUMP JUMPDEST PUSH1 0x40 MLOAD PUSH2 0xCB SWAP2 SWAP1 PUSH2 0xC5D JUMP JUMPDEST PUSH1 0x40 MLOAD DUP1 SWAP2 SUB SWAP1 RETURN JUMPDEST PUSH2 0xEE PUSH1 0x4 DUP1 CALLDATASIZE SUB DUP2 ADD SWAP1 PUSH2 0xE9 SWAP2 SWAP1 PUSH2 0xD12 JUMP JUMPDEST PUSH2 0x303 JUMP JUMPDEST PUSH1 0x40 MLOAD PUSH2 0xFB SWAP2 SWAP1 PUSH2 0xD6A JUMP JUMPDEST PUSH1 0x40 MLOAD DUP1 SWAP2 SUB SWAP1 RETURN JUMPDEST PUSH2 0x10C PUSH2 0x319 JUMP JUMPDEST PUSH1 0x40 MLOAD PUSH2 0x119 SWAP2 SWAP1 PUSH2 0xD92 JUMP JUMPDEST PUSH1 0x40 MLOAD DUP1 SWAP2 SUB SWAP1 RETURN JUMPDEST PUSH2 0x13C PUSH1 0x4 DUP1 CALLDATASIZE SUB DUP2 ADD SWAP1 PUSH2 0x137 SWAP2 SWAP1 PUSH2 0xDAB JUMP JUMPDEST PUSH2 0x322 JUMP JUMPDEST PUSH1 0x40 MLOAD PUSH2 0x149 SWAP2 SWAP1 PUSH2 0xD6A JUMP JUMPDEST PUSH1 0x40 MLOAD DUP1 SWAP2 SUB SWAP1 RETURN JUMPDEST PUSH2 0x15A PUSH2 0x3C7 JUMP JUMPDEST PUSH1 0x40 MLOAD PUSH2 0x167 SWAP2 SWAP1 PUSH2 0xE16 JUMP JUMPDEST PUSH1 0x40 MLOAD DUP1 SWAP2 SUB SWAP1 RETURN JUMPDEST PUSH2 0x18A PUSH1 0x4 DUP1 CALLDATASIZE SUB DUP2 ADD SWAP1 PUSH2 0x185 SWAP2 SWAP1 PUSH2 0xE2F JUMP JUMPDEST PUSH2 0x3DC JUMP JUMPDEST STOP JUMPDEST PUSH2 0x1A6 PUSH1 0x4 DUP1 CALLDATASIZE SUB DUP2 ADD SWAP1 PUSH2 0x1A1 SWAP2 SWAP1 PUSH2 0xF10 JUMP JUMPDEST PUSH2 0x52F JUMP JUMPDEST STOP JUMPDEST PUSH2 0x1C2 PUSH1 0x4 DUP1 CALLDATASIZE SUB DUP2 ADD SWAP1 PUSH2 0x1BD SWAP2 SWAP1 PUSH2 0xF8E JUMP JUMPDEST PUSH2 0x678 JUMP JUMPDEST PUSH1 0x40 MLOAD PUSH2 0x1CF SWAP2 SWAP1 PUSH2 0xD92 JUMP JUMPDEST PUSH1 0x40 MLOAD DUP1 SWAP2 SUB SWAP1 RETURN JUMPDEST PUSH2 0x1E0 PUSH2 0x6BE JUMP JUMPDEST PUSH1 0x40 MLOAD PUSH2 0x1ED SWAP2 SWAP1 PUSH2 0xFC8 JUMP JUMPDEST PUSH1 0x40 MLOAD DUP1 SWAP2 SUB SWAP1 RETURN JUMPDEST PUSH2 0x1FE PUSH2 0x6E6 JUMP JUMPDEST PUSH1 0x40 MLOAD PUSH2 0x20B SWAP2 SWAP1 PUSH2 0xC5D JUMP JUMPDEST PUSH1 0x40 MLOAD DUP1 SWAP2 SUB SWAP1 RETURN JUMPDEST PUSH2 0x22E PUSH1 0x4 DUP1 CALLDATASIZE SUB DUP2 ADD SWAP1 PUSH2 0x229 SWAP2 SWAP1 PUSH2 0xD12 JUMP JUMPDEST PUSH2 0x776 JUMP JUMPDEST PUSH1 0x40 MLOAD PUSH2 0x23B SWAP2 SWAP1 PUSH2 0xD6A JUMP JUMPDEST PUSH1 0x40 MLOAD DUP1 SWAP2 SUB SWAP1 RETURN JUMPDEST PUSH2 0x25E PUSH1 0x4 DUP1 CALLDATASIZE SUB DUP2 ADD SWAP1 PUSH2 0x259 SWAP2 SWAP1 PUSH2 0xFE1 JUMP JUMPDEST PUSH2 0x78C JUMP JUMPDEST PUSH1 0x40 MLOAD PUSH2 0x26B SWAP2 SWAP1 PUSH2 0xD92 JUMP JUMPDEST PUSH1 0x40 MLOAD DUP1 SWAP2 SUB SWAP1 RETURN JUMPDEST PUSH1 0x60 PUSH0 DUP1 SLOAD PUSH2 0x282 SWAP1 PUSH2 0x104C JUMP JUMPDEST DUP1 PUSH1 0x1F ADD PUSH1 0x20 DUP1 SWAP2 DIV MUL PUSH1 0x20 ADD PUSH1 0x40 MLOAD SWAP1 DUP2 ADD PUSH1 0x40 MSTORE DUP1 SWAP3 SWAP2 SWAP1 DUP2 DUP2 MSTORE PUSH1 0x20 ADD DUP3 DUP1 SLOAD PUSH2 0x2AE SWAP1 PUSH2 0x104C JUMP JUMPDEST DUP1 ISZERO PUSH2 0x2F9 JUMPI DUP1 PUSH1 0x1F LT PUSH2 0x2D0 JUMPI PUSH2 0x100 DUP1 DUP4 SLOAD DIV MUL DUP4 MSTORE SWAP2 PUSH1 0x20 ADD SWAP2 PUSH2 0x2F9 JUMP JUMPDEST DUP3 ADD SWAP2 SWAP1 PUSH0 MSTORE PUSH1 0x20 PUSH0 KECCAK256 SWAP1 JUMPDEST DUP2 SLOAD DUP2 MSTORE SWAP1 PUSH1 0x1 ADD SWAP1 PUSH1 0x20 ADD DUP1 DUP4 GT PUSH2 0x2DC JUMPI DUP3 SWAP1 SUB PUSH1 0x1F AND DUP3 ADD SWAP2 JUMPDEST POP POP POP POP POP SWAP1 POP SWAP1 JUMP JUMPDEST PUSH0 PUSH2 0x30F CALLER DUP5 DUP5 PUSH2 0x80E JUMP JUMPDEST PUSH1 0x1 SWAP1 POP SWAP3 SWAP2 POP POP JUMP JUMPDEST PUSH0 PUSH1 0x3 SLOAD SWAP1 POP SWAP1 JUMP JUMPDEST PUSH0 PUSH2 0x32E DUP5 DUP5 DUP5 PUSH2 0x99C JUMP JUMPDEST PUSH2 0x3BC DUP5 CALLER DUP5 PUSH1 0x6 PUSH0 DUP10 PUSH20 0xFFFFFFFFFFFFFFFFFFFFFFFFFFFFFFFFFFFFFFFF AND PUSH20 0xFFFFFFFFFFFFFFFFFFFFFFFFFFFFFFFFFFFFFFFF AND DUP2 MSTORE PUSH1 0x20 ADD SWAP1 DUP2 MSTORE PUSH1 0x20 ADD PUSH0 KECCAK256 PUSH0 CALLER PUSH20 0xFFFFFFFFFFFFFFFFFFFFFFFFFFFFFFFFFFFFFFFF AND PUSH20 0xFFFFFFFFFFFFFFFFFFFFFFFFFFFFFFFFFFFFFFFF AND DUP2 MSTORE PUSH1 0x20 ADD SWAP1 DUP2 MSTORE PUSH1 0x20 ADD PUSH0 KECCAK256 SLOAD PUSH2 0x3B7 SWAP2 SWAP1 PUSH2 0x10A9 JUMP JUMPDEST PUSH2 0x80E JUMP JUMPDEST PUSH1 0x1 SWAP1 POP SWAP4 SWAP3 POP POP POP JUMP JUMPDEST PUSH0 PUSH1 0x2 PUSH0 SWAP1 SLOAD SWAP1 PUSH2 0x100 EXP SWAP1 DIV PUSH1 0xFF AND SWAP1 POP SWAP1 JUMP JUMPDEST DUP1 PUSH1 0x5 PUSH0 CALLER PUSH20 0xFFFFFFFFFFFFFFFFFFFFFFFFFFFFFFFFFFFFFFFF AND PUSH20 0xFFFFFFFFFFFFFFFFFFFFFFFFFFFFFFFFFFFFFFFF AND DUP2 MSTORE PUSH1 0x20 ADD SWAP1 DUP2 MSTORE PUSH1 0x20 ADD PUSH0 KECCAK256 SLOAD LT ISZERO PUSH2 0x45C JUMPI PUSH1 0x40 MLOAD PUSH32 0x8C379A000000000000000000000000000000000000000000000000000000000 DUP2 MSTORE PUSH1 0x4 ADD PUSH2 0x453 SWAP1 PUSH2 0x1126 JUMP JUMPDEST PUSH1 0x40 MLOAD DUP1 SWAP2 SUB SWAP1 REVERT JUMPDEST DUP1 PUSH1 0x5 PUSH0 CALLER PUSH20 0xFFFFFFFFFFFFFFFFFFFFFFFFFFFFFFFFFFFFFFFF AND PUSH20 0xFFFFFFFFFFFFFFFFFFFFFFFFFFFFFFFFFFFFFFFF AND DUP2 MSTORE PUSH1 0x20 ADD SWAP1 DUP2 MSTORE PUSH1 0x20 ADD PUSH0 KECCAK256 PUSH0 DUP3 DUP3 SLOAD PUSH2 0x4A8 SWAP2 SWAP1 PUSH2 0x10A9 JUMP JUMPDEST SWAP3 POP POP DUP2 SWAP1 SSTORE POP DUP1 PUSH1 0x3 PUSH0 DUP3 DUP3 SLOAD PUSH2 0x4C0 SWAP2 SWAP1 PUSH2 0x10A9 JUMP JUMPDEST SWAP3 POP POP DUP2 SWAP1 SSTORE POP PUSH0 PUSH20 0xFFFFFFFFFFFFFFFFFFFFFFFFFFFFFFFFFFFFFFFF AND CALLER PUSH20 0xFFFFFFFFFFFFFFFFFFFFFFFFFFFFFFFFFFFFFFFF AND PUSH32 0xDDF252AD1BE2C89B69C2B068FC378DAA952BA7F163C4A11628F55A4DF523B3EF DUP4 PUSH1 0x40 MLOAD PUSH2 0x524 SWAP2 SWAP1 PUSH2 0xD92 JUMP JUMPDEST PUSH1 0x40 MLOAD DUP1 SWAP2 SUB SWAP1 LOG3 POP JUMP JUMPDEST PUSH1 0x4 PUSH0 SWAP1 SLOAD SWAP1 PUSH2 0x100 EXP SWAP1 DIV PUSH20 0xFFFFFFFFFFFFFFFFFFFFFFFFFFFFFFFFFFFFFFFF AND PUSH20 0xFFFFFFFFFFFFFFFFFFFFFFFFFFFFFFFFFFFFFFFF AND CALLER PUSH20 0xFFFFFFFFFFFFFFFFFFFFFFFFFFFFFFFFFFFFFFFF AND EQ PUSH2 0x5BE JUMPI PUSH1 0x40 MLOAD PUSH32 0x8C379A000000000000000000000000000000000000000000000000000000000 DUP2 MSTORE PUSH1 0x4 ADD PUSH2 0x5B5 SWAP1 PUSH2 0x118E JUMP JUMPDEST PUSH1 0x40 MLOAD DUP1 SWAP2 SUB SWAP1 REVERT JUMPDEST DUP2 DUP2 SWAP1 POP DUP5 DUP5 SWAP1 POP EQ PUSH2 0x606 JUMPI PUSH1 0x40 MLOAD PUSH32 0x8C379A000000000000000000000000000000000000000000000000000000000 DUP2 MSTORE PUSH1 0x4 ADD PUSH2 0x5FD SWAP1 PUSH2 0x11F6 JUMP JUMPDEST PUSH1 0x40 MLOAD DUP1 SWAP2 SUB SWAP1 REVERT JUMPDEST PUSH0 JUMPDEST DUP5 DUP5 SWAP1 POP DUP2 LT ISZERO PUSH2 0x671 JUMPI PUSH2 0x65E CALLER DUP7 DUP7 DUP5 DUP2 DUP2 LT PUSH2 0x62A JUMPI PUSH2 0x629 PUSH2 0x1214 JUMP JUMPDEST JUMPDEST SWAP1 POP PUSH1 0x20 MUL ADD PUSH1 0x20 DUP2 ADD SWAP1 PUSH2 0x63F SWAP2 SWAP1 PUSH2 0xF8E JUMP JUMPDEST DUP6 DUP6 DUP6 DUP2 DUP2 LT PUSH2 0x652 JUMPI PUSH2 0x651 PUSH2 0x1214 JUMP JUMPDEST JUMPDEST SWAP1 POP PUSH1 0x20 MUL ADD CALLDATALOAD PUSH2 0x99C JUMP JUMPDEST DUP1 DUP1 PUSH2 0x669 SWAP1 PUSH2 0x1241 JUMP JUMPDEST SWAP2 POP POP PUSH2 0x608 JUMP JUMPDEST POP POP POP POP POP JUMP JUMPDEST PUSH0 PUSH1 0x5 PUSH0 DUP4 PUSH20 0xFFFFFFFFFFFFFFFFFFFFFFFFFFFFFFFFFFFFFFFF AND PUSH20 0xFFFFFFFFFFFFFFFFFFFFFFFFFFFFFFFFFFFFFFFF AND DUP2 MSTORE PUSH1 0x20 ADD SWAP1 DUP2 MSTORE PUSH1 0x20 ADD PUSH0 KECCAK256 SLOAD SWAP1 POP SWAP2 SWAP1 POP JUMP JUMPDEST PUSH0 PUSH1 0x4 PUSH0 SWAP1 SLOAD SWAP1 PUSH2 0x100 EXP SWAP1 DIV PUSH20 0xFFFFFFFFFFFFFFFFFFFFFFFFFFFFFFFFFFFFFFFF AND SWAP1 POP SWAP1 JUMP JUMPDEST PUSH1 0x60 PUSH1 0x1 DUP1 SLOAD PUSH2 0x6F5 SWAP1 PUSH2 0x104C JUMP JUMPDEST DUP1 PUSH1 0x1F ADD PUSH1 0x20 DUP1 SWAP2 DIV MUL PUSH1 0x20 ADD PUSH1 0x40 MLOAD SWAP1 DUP2 ADD PUSH1 0x40 MSTORE DUP1 SWAP3 SWAP2 SWAP1 DUP2 DUP2 MSTORE PUSH1 0x20 ADD DUP3 DUP1 SLOAD PUSH2 0x721 SWAP1 PUSH2 0x104C JUMP JUMPDEST DUP1 ISZERO PUSH2 0x76C JUMPI DUP1 PUSH1 0x1F LT PUSH2 0x743 JUMPI PUSH2 0x100 DUP1 DUP4 SLOAD DIV MUL DUP4 MSTORE SWAP2 PUSH1 0x20 ADD SWAP2 PUSH2 0x76C JUMP JUMPDEST DUP3 ADD SWAP2 SWAP1 PUSH0 MSTORE PUSH1 0x20 PUSH0 KECCAK256 SWAP1 JUMPDEST DUP2 SLOAD DUP2 MSTORE SWAP1 PUSH1 0x1 ADD SWAP1 PUSH1 0x20 ADD DUP1 DUP4 GT PUSH2 0x74F JUMPI DUP3 SWAP1 SUB PUSH1 0x1F AND DUP3 ADD SWAP2 JUMPDEST POP POP POP POP POP SWAP1 POP SWAP1 JUMP JUMPDEST PUSH0 PUSH2 0x782 CALLER DUP5 DUP5 PUSH2 0x99C JUMP JUMPDEST PUSH1 0x1 SWAP1 POP SWAP3 SWAP2 POP POP JUMP JUMPDEST PUSH0 PUSH1 0x6 PUSH0 DUP5 PUSH20 0xFFFFFFFFFFFFFFFFFFFFFFFFFFFFFFFFFFFFFFFF AND PUSH20 0xFFFFFFFFFFFFFFFFFFFFFFFFFFFFFFFFFFFFFFFF AND DUP2 MSTORE PUSH1 0x20 ADD SWAP1 DUP2 MSTORE PUSH1 0x20 ADD PUSH0 KECCAK256 PUSH0 DUP4 PUSH20 0xFFFFFFFFFFFFFFFFFFFFFFFFFFFFFFFFFFFFFFFF AND PUSH20 0xFFFFFFFFFFFFFFFFFFFFFFFFFFFFFFFFFFFFFFFF AND DUP2 MSTORE PUSH1 0x20 ADD SWAP1 DUP2 MSTORE PUSH1 0x20 ADD PUSH0 KECCAK256 SLOAD SWAP1 POP SWAP3 SWAP2 POP POP JUMP JUMPDEST PUSH0 PUSH20 0xFFFFFFFFFFFFFFFFFFFFFFFFFFFFFFFFFFFFFFFF AND DUP4 PUSH20 0xFFFFFFFFFFFFFFFFFFFFFFFFFFFFFFFFFFFFFFFF AND EQ ISZERO DUP1 ISZERO PUSH2 0x876 JUMPI POP PUSH0 PUSH20 0xFFFFFFFFFFFFFFFFFFFFFFFFFFFFFFFFFFFFFFFF AND DUP3 PUSH20 0xFFFFFFFFFFFFFFFFFFFFFFFFFFFFFFFFFFFFFFFF AND EQ ISZERO JUMPDEST PUSH2 0x8B5 JUMPI PUSH1 0x40 MLOAD PUSH32 0x8C379A000000000000000000000000000000000000000000000000000000000 DUP2 MSTORE PUSH1 0x4 ADD PUSH2 0x8AC SWAP1 PUSH2 0x12D2 JUMP JUMPDEST PUSH1 0x40 MLOAD DUP1 SWAP2 SUB SWAP1 REVERT JUMPDEST DUP1 PUSH1 0x6 PUSH0 DUP6 PUSH20 0xFFFFFFFFFFFFFFFFFFFFFFFFFFFFFFFFFFFFFFFF AND PUSH20 0xFFFFFFFFFFFFFFFFFFFFFFFFFFFFFFFFFFFFFFFF AND DUP2 MSTORE PUSH1 0x20 ADD SWAP1 DUP2 MSTORE PUSH1 0x20 ADD PUSH0 KECCAK256 PUSH0 DUP5 PUSH20 0xFFFFFFFFFFFFFFFFFFFFFFFFFFFFFFFFFFFFFFFF AND PUSH20 0xFFFFFFFFFFFFFFFFFFFFFFFFFFFFFFFFFFFFFFFF AND DUP2 MSTORE PUSH1 0x20 ADD SWAP1 DUP2 MSTORE PUSH1 0x20 ADD PUSH0 KECCAK256 DUP2 SWAP1 SSTORE POP DUP2 PUSH20 0xFFFFFFFFFFFFFFFFFFFFFFFFFFFFFFFFFFFFFFFF AND DUP4 PUSH20 0xFFFFFFFFFFFFFFFFFFFFFFFFFFFFFFFFFFFFFFFF AND PUSH32 0x8C5BE1E5EBEC7D5BD14F71427D1E84F3DD0314C0F7B2291E5B200AC8C7C3B925 DUP4 PUSH1 0x40 MLOAD PUSH2 0x98F SWAP2 SWAP1 PUSH2 0xD92 JUMP JUMPDEST PUSH1 0x40 MLOAD DUP1 SWAP2 SUB SWAP1 LOG3 POP POP POP JUMP JUMPDEST PUSH0 PUSH20 0xFFFFFFFFFFFFFFFFFFFFFFFFFFFFFFFFFFFFFFFF AND DUP4 PUSH20 0xFFFFFFFFFFFFFFFFFFFFFFFFFFFFFFFFFFFFFFFF AND EQ ISZERO DUP1 ISZERO PUSH2 0xA04 JUMPI POP PUSH0 PUSH20 0xFFFFFFFFFFFFFFFFFFFFFFFFFFFFFFFFFFFFFFFF AND DUP3 PUSH20 0xFFFFFFFFFFFFFFFFFFFFFFFFFFFFFFFFFFFFFFFF AND EQ ISZERO JUMPDEST PUSH2 0xA43 JUMPI PUSH1 0x40 MLOAD PUSH32 0x8C379A000000000000000000000000000000000000000000000000000000000 DUP2 MSTORE PUSH1 0x4 ADD PUSH2 0xA3A SWAP1 PUSH2 0x12D2 JUMP JUMPDEST PUSH1 0x40 MLOAD DUP1 SWAP2 SUB SWAP1 REVERT JUMPDEST DUP1 PUSH1 0x5 PUSH0 DUP6 PUSH20 0xFFFFFFFFFFFFFFFFFFFFFFFFFFFFFFFFFFFFFFFF AND PUSH20 0xFFFFFFFFFFFFFFFFFFFFFFFFFFFFFFFFFFFFFFFF AND DUP2 MSTORE PUSH1 0x20 ADD SWAP1 DUP2 MSTORE PUSH1 0x20 ADD PUSH0 KECCAK256 SLOAD LT ISZERO PUSH2 0xAC3 JUMPI PUSH1 0x40 MLOAD PUSH32 0x8C379A000000000000000000000000000000000000000000000000000000000 DUP2 MSTORE PUSH1 0x4 ADD PUSH2 0xABA SWAP1 PUSH2 0x133A JUMP JUMPDEST PUSH1 0x40 MLOAD DUP1 SWAP2 SUB SWAP1 REVERT JUMPDEST DUP1 PUSH1 0x5 PUSH0 DUP6 PUSH20 0xFFFFFFFFFFFFFFFFFFFFFFFFFFFFFFFFFFFFFFFF AND PUSH20 0xFFFFFFFFFFFFFFFFFFFFFFFFFFFFFFFFFFFFFFFF AND DUP2 MSTORE PUSH1 0x20 ADD SWAP1 DUP2 MSTORE PUSH1 0x20 ADD PUSH0 KECCAK256 PUSH0 DUP3 DUP3 SLOAD PUSH2 0xB0F SWAP2 SWAP1 PUSH2 0x10A9 JUMP JUMPDEST SWAP3 POP POP DUP2 SWAP1 SSTORE POP DUP1 PUSH1 0x5 PUSH0 DUP5 PUSH20 0xFFFFFFFFFFFFFFFFFFFFFFFFFFFFFFFFFFFFFFFF AND PUSH20 0xFFFFFFFFFFFFFFFFFFFFFFFFFFFFFFFFFFFFFFFF AND DUP2 MSTORE PUSH1 0x20 ADD SWAP1 DUP2 MSTORE PUSH1 0x20 ADD PUSH0 KECCAK256 PUSH0 DUP3 DUP3 SLOAD PUSH2 0xB62 SWAP2 SWAP1 PUSH2 0x1358 JUMP JUMPDEST SWAP3 POP POP DUP2 SWAP1 SSTORE POP DUP2 PUSH20 0xFFFFFFFFFFFFFFFFFFFFFFFFFFFFFFFFFFFFFFFF AND DUP4 PUSH20 0xFFFFFFFFFFFFFFFFFFFFFFFFFFFFFFFFFFFFFFFF AND PUSH32 0xDDF252AD1BE2C89B69C2B068FC378DAA952BA7F163C4A11628F55A4DF523B3EF DUP4 PUSH1 0x40 MLOAD PUSH2 0xBC6 SWAP2 SWAP1 PUSH2 0xD92 JUMP JUMPDEST PUSH1 0x40 MLOAD DUP1 SWAP2 SUB SWAP1 LOG3 POP POP POP JUMP JUMPDEST PUSH0 DUP2 MLOAD SWAP1 POP SWAP2 SWAP1 POP JUMP JUMPDEST PUSH0 DUP3 DUP3 MSTORE PUSH1 0x20 DUP3 ADD SWAP1 POP SWAP3 SWAP2 POP POP JUMP JUMPDEST PUSH0 JUMPDEST DUP4 DUP2 LT ISZERO PUSH2 0xC0A JUMPI DUP1 DUP3 ADD MLOAD DUP2 DUP5 ADD MSTORE PUSH1 0x20 DUP2 ADD SWAP1 POP PUSH2 0xBEF JUMP JUMPDEST PUSH0 DUP5 DUP5 ADD MSTORE POP POP POP POP JUMP JUMPDEST PUSH0 PUSH1 0x1F NOT PUSH1 0x1F DUP4 ADD AND SWAP1 POP SWAP2 SWAP1 POP JUMP JUMPDEST PUSH0 PUSH2 0xC2F DUP3 PUSH2 0xBD3 JUMP JUMPDEST PUSH2 0xC39 DUP2 DUP6 PUSH2 0xBDD JUMP JUMPDEST SWAP4 POP PUSH2 0xC49 DUP2 DUP6 PUSH1 0x20 DUP7 ADD PUSH2 0xBED JUMP JUMPDEST PUSH2 0xC52 DUP2 PUSH2 0xC15 JUMP JUMPDEST DUP5 ADD SWAP2 POP POP SWAP3 SWAP2 POP POP JUMP JUMPDEST PUSH0 PUSH1 0x20 DUP3 ADD SWAP1 POP DUP2 DUP2 SUB PUSH0 DUP4 ADD MSTORE PUSH2 0xC75 DUP2 DUP5 PUSH2 0xC25 JUMP JUMPDEST SWAP1 POP SWAP3 SWAP2 POP POP JUMP JUMPDEST PUSH0 DUP1 REVERT JUMPDEST PUSH0 DUP1 REVERT JUMPDEST PUSH0 PUSH20 0xFFFFFFFFFFFFFFFFFFFFFFFFFFFFFFFFFFFFFFFF DUP3 AND SWAP1 POP SWAP2 SWAP1 POP JUMP JUMPDEST PUSH0 PUSH2 0xCAE DUP3 PUSH2 0xC85 JUMP JUMPDEST SWAP1 POP SWAP2 SWAP1 POP JUMP JUMPDEST PUSH2 0xCBE DUP2 PUSH2 0xCA4 JUMP JUMPDEST DUP2 EQ PUSH2 0xCC8 JUMPI PUSH0 DUP1 REVERT JUMPDEST POP JUMP JUMPDEST PUSH0 DUP2 CALLDATALOAD SWAP1 POP PUSH2 0xCD9 DUP2 PUSH2 0xCB5 JUMP JUMPDEST SWAP3 SWAP2 POP POP JUMP JUMPDEST PUSH0 DUP2 SWAP1 POP SWAP2 SWAP1 POP JUMP JUMPDEST PUSH2 0xCF1 DUP2 PUSH2 0xCDF JUMP JUMPDEST DUP2 EQ PUSH2 0xCFB JUMPI PUSH0 DUP1 REVERT JUMPDEST POP JUMP JUMPDEST PUSH0 DUP2 CALLDATALOAD SWAP1 POP PUSH2 0xD0C DUP2 PUSH2 0xCE8 JUMP JUMPDEST SWAP3 SWAP2 POP POP JUMP JUMPDEST PUSH0 DUP1 PUSH1 0x40 DUP4 DUP6 SUB SLT ISZERO PUSH2 0xD28 JUMPI PUSH2 0xD27 PUSH2 0xC7D JUMP JUMPDEST JUMPDEST PUSH0 PUSH2 0xD35 DUP6 DUP3 DUP7 ADD PUSH2 0xCCB JUMP JUMPDEST SWAP3 POP POP PUSH1 0x20 PUSH2 0xD46 DUP6 DUP3 DUP7 ADD PUSH2 0xCFE JUMP JUMPDEST SWAP2 POP POP SWAP3 POP SWAP3 SWAP1 POP JUMP JUMPDEST PUSH0 DUP2 ISZERO ISZERO SWAP1 POP SWAP2 SWAP1 POP JUMP JUMPDEST PUSH2 0xD64 DUP2 PUSH2 0xD50 JUMP JUMPDEST DUP3 MSTORE POP POP JUMP JUMPDEST PUSH0 PUSH1 0x20 DUP3 ADD SWAP1 POP PUSH2 0xD7D PUSH0 DUP4 ADD DUP5 PUSH2 0xD5B JUMP JUMPDEST SWAP3 SWAP2 POP POP JUMP JUMPDEST PUSH2 0xD8C DUP2 PUSH2 0xCDF JUMP JUMPDEST DUP3 MSTORE POP POP JUMP JUMPDEST PUSH0 PUSH1 0x20 DUP3 ADD SWAP1 POP PUSH2 0xDA5 PUSH0 DUP4 ADD DUP5 PUSH2 0xD83 JUMP JUMPDEST SWAP3 SWAP2 POP POP JUMP JUMPDEST PUSH0 DUP1 PUSH0 PUSH1 0x60 DUP5 DUP7 SUB SLT ISZERO PUSH2 0xDC2 JUMPI PUSH2 0xDC1 PUSH2 0xC7D JUMP JUMPDEST JUMPDEST PUSH0 PUSH2 0xDCF DUP7 DUP3 DUP8 ADD PUSH2 0xCCB JUMP JUMPDEST SWAP4 POP POP PUSH1 0x20 PUSH2 0xDE0 DUP7 DUP3 DUP8 ADD PUSH2 0xCCB JUMP JUMPDEST SWAP3 POP POP PUSH1 0x40 PUSH2 0xDF1 DUP7 DUP3 DUP8 ADD PUSH2 0xCFE JUMP JUMPDEST SWAP2 POP POP SWAP3 POP SWAP3 POP SWAP3 JUMP JUMPDEST PUSH0 PUSH1 0xFF DUP3 AND SWAP1 POP SWAP2 SWAP1 POP JUMP JUMPDEST PUSH2 0xE10 DUP2 PUSH2 0xDFB JUMP JUMPDEST DUP3 MSTORE POP POP JUMP JUMPDEST PUSH0 PUSH1 0x20 DUP3 ADD SWAP1 POP PUSH2 0xE29 PUSH0 DUP4 ADD DUP5 PUSH2 0xE07 JUMP JUMPDEST SWAP3 SWAP2 POP POP JUMP JUMPDEST PUSH0 PUSH1 0x20 DUP3 DUP5 SUB SLT ISZERO PUSH2 0xE44 JUMPI PUSH2 0xE43 PUSH2 0xC7D JUMP JUMPDEST JUMPDEST PUSH0 PUSH2 0xE51 DUP5 DUP3 DUP6 ADD PUSH2 0xCFE JUMP JUMPDEST SWAP2 POP POP SWAP3 SWAP2 POP POP JUMP JUMPDEST PUSH0 DUP1 REVERT JUMPDEST PUSH0 DUP1 REVERT JUMPDEST PUSH0 DUP1 REVERT JUMPDEST PUSH0 DUP1 DUP4 PUSH1 0x1F DUP5 ADD SLT PUSH2 0xE7B JUMPI PUSH2 0xE7A PUSH2 0xE5A JUMP JUMPDEST JUMPDEST DUP3 CALLDATALOAD SWAP1 POP PUSH8 0xFFFFFFFFFFFFFFFF DUP2 GT ISZERO PUSH2 0xE98 JUMPI PUSH2 0xE97 PUSH2 0xE5E JUMP JUMPDEST JUMPDEST PUSH1 0x20 DUP4 ADD SWAP2 POP DUP4 PUSH1 0x20 DUP3 MUL DUP4 ADD GT ISZERO PUSH2 0xEB4 JUMPI PUSH2 0xEB3 PUSH2 0xE62 JUMP JUMPDEST JUMPDEST SWAP3 POP SWAP3 SWAP1 POP JUMP JUMPDEST PUSH0 DUP1 DUP4 PUSH1 0x1F DUP5 ADD SLT PUSH2 0xED0 JUMPI PUSH2 0xECF PUSH2 0xE5A JUMP JUMPDEST JUMPDEST DUP3 CALLDATALOAD SWAP1 POP PUSH8 0xFFFFFFFFFFFFFFFF DUP2 GT ISZERO PUSH2 0xEED JUMPI PUSH2 0xEEC PUSH2 0xE5E JUMP JUMPDEST JUMPDEST PUSH1 0x20 DUP4 ADD SWAP2 POP DUP4 PUSH1 0x20 DUP3 MUL DUP4 ADD GT ISZERO PUSH2 0xF09 JUMPI PUSH2 0xF08 PUSH2 0xE62 JUMP JUMPDEST JUMPDEST SWAP3 POP SWAP3 SWAP1 POP JUMP JUMPDEST PUSH0 DUP1 PUSH0 DUP1 PUSH1 0x40 DUP6 DUP8 SUB SLT ISZERO PUSH2 0xF28 JUMPI PUSH2 0xF27 PUSH2 0xC7D JUMP JUMPDEST JUMPDEST PUSH0 DUP6 ADD CALLDATALOAD PUSH8 0xFFFFFFFFFFFFFFFF DUP2 GT ISZERO PUSH2 0xF45 JUMPI PUSH2 0xF44 PUSH2 0xC81 JUMP JUMPDEST JUMPDEST PUSH2 0xF51 DUP8 DUP3 DUP9 ADD PUSH2 0xE66 JUMP JUMPDEST SWAP5 POP SWAP5 POP POP PUSH1 0x20 DUP6 ADD CALLDATALOAD PUSH8 0xFFFFFFFFFFFFFFFF DUP2 GT ISZERO PUSH2 0xF74 JUMPI PUSH2 0xF73 PUSH2 0xC81 JUMP JUMPDEST JUMPDEST PUSH2 0xF80 DUP8 DUP3 DUP9 ADD PUSH2 0xEBB JUMP JUMPDEST SWAP3 POP SWAP3 POP POP SWAP3 SWAP6 SWAP2 SWAP5 POP SWAP3 POP JUMP JUMPDEST PUSH0 PUSH1 0x20 DUP3 DUP5 SUB SLT ISZERO PUSH2 0xFA3 JUMPI PUSH2 0xFA2 PUSH2 0xC7D JUMP JUMPDEST JUMPDEST PUSH0 PUSH2 0xFB0 DUP5 DUP3 DUP6 ADD PUSH2 0xCCB JUMP JUMPDEST SWAP2 POP POP SWAP3 SWAP2 POP POP JUMP JUMPDEST PUSH2 0xFC2 DUP2 PUSH2 0xCA4 JUMP JUMPDEST DUP3 MSTORE POP POP JUMP JUMPDEST PUSH0 PUSH1 0x20 DUP3 ADD SWAP1 POP PUSH2 0xFDB PUSH0 DUP4 ADD DUP5 PUSH2 0xFB9 JUMP JUMPDEST SWAP3 SWAP2 POP POP JUMP JUMPDEST PUSH0 DUP1 PUSH1 0x40 DUP4 DUP6 SUB SLT ISZERO PUSH2 0xFF7 JUMPI PUSH2 0xFF6 PUSH2 0xC7D JUMP JUMPDEST JUMPDEST PUSH0 PUSH2 0x1004 DUP6 DUP3 DUP7 ADD PUSH2 0xCCB JUMP JUMPDEST SWAP3 POP POP PUSH1 0x20 PUSH2 0x1015 DUP6 DUP3 DUP7 ADD PUSH2 0xCCB JUMP JUMPDEST SWAP2 POP POP SWAP3 POP SWAP3 SWAP1 POP JUMP JUMPDEST PUSH32 0x4E487B7100000000000000000000000000000000000000000000000000000000 PUSH0 MSTORE PUSH1 0x22 PUSH1 0x4 MSTORE PUSH1 0x24 PUSH0 REVERT JUMPDEST PUSH0 PUSH1 0x2 DUP3 DIV SWAP1 POP PUSH1 0x1 DUP3 AND DUP1 PUSH2 0x1063 JUMPI PUSH1 0x7F DUP3 AND SWAP2 POP JUMPDEST PUSH1 0x20 DUP3 LT DUP2 SUB PUSH2 0x1076 JUMPI PUSH2 0x1075 PUSH2 0x101F JUMP JUMPDEST JUMPDEST POP SWAP2 SWAP1 POP JUMP JUMPDEST PUSH32 0x4E487B7100000000000000000000000000000000000000000000000000000000 PUSH0 MSTORE PUSH1 0x11 PUSH1 0x4 MSTORE PUSH1 0x24 PUSH0 REVERT JUMPDEST PUSH0 PUSH2 0x10B3 DUP3 PUSH2 0xCDF JUMP JUMPDEST SWAP2 POP PUSH2 0x10BE DUP4 PUSH2 0xCDF JUMP JUMPDEST SWAP3 POP DUP3 DUP3 SUB SWAP1 POP DUP2 DUP2 GT ISZERO PUSH2 0x10D6 JUMPI PUSH2 0x10D5 PUSH2 0x107C JUMP JUMPDEST JUMPDEST SWAP3 SWAP2 POP POP JUMP JUMPDEST PUSH32 0x496E73756666696369656E742062616C616E636520746F206275726E00000000 PUSH0 DUP3 ADD MSTORE POP JUMP JUMPDEST PUSH0 PUSH2 0x1110 PUSH1 0x1C DUP4 PUSH2 0xBDD JUMP JUMPDEST SWAP2 POP PUSH2 0x111B DUP3 PUSH2 0x10DC JUMP JUMPDEST PUSH1 0x20 DUP3 ADD SWAP1 POP SWAP2 SWAP1 POP JUMP JUMPDEST PUSH0 PUSH1 0x20 DUP3 ADD SWAP1 POP DUP2 DUP2 SUB PUSH0 DUP4 ADD MSTORE PUSH2 0x113D DUP2 PUSH2 0x1104 JUMP JUMPDEST SWAP1 POP SWAP2 SWAP1 POP JUMP JUMPDEST PUSH32 0x4F6E6C79206F776E657200000000000000000000000000000000000000000000 PUSH0 DUP3 ADD MSTORE POP JUMP JUMPDEST PUSH0 PUSH2 0x1178 PUSH1 0xA DUP4 PUSH2 0xBDD JUMP JUMPDEST SWAP2 POP PUSH2 0x1183 DUP3 PUSH2 0x1144 JUMP JUMPDEST PUSH1 0x20 DUP3 ADD SWAP1 POP SWAP2 SWAP1 POP JUMP JUMPDEST PUSH0 PUSH1 0x20 DUP3 ADD SWAP1 POP DUP2 DUP2 SUB PUSH0 DUP4 ADD MSTORE PUSH2 0x11A5 DUP2 PUSH2 0x116C JUMP JUMPDEST SWAP1 POP SWAP2 SWAP1 POP JUMP JUMPDEST PUSH32 0x4172726179206C656E67746873206D69736D6174636800000000000000000000 PUSH0 DUP3 ADD MSTORE POP JUMP JUMPDEST PUSH0 PUSH2 0x11E0 PUSH1 0x16 DUP4 PUSH2 0xBDD JUMP JUMPDEST SWAP2 POP PUSH2 0x11EB DUP3 PUSH2 0x11AC JUMP JUMPDEST PUSH1 0x20 DUP3 ADD SWAP1 POP SWAP2 SWAP1 POP JUMP JUMPDEST PUSH0 PUSH1 0x20 DUP3 ADD SWAP1 POP DUP2 DUP2 SUB PUSH0 DUP4 ADD MSTORE PUSH2 0x120D DUP2 PUSH2 0x11D4 JUMP JUMPDEST SWAP1 POP SWAP2 SWAP1 POP JUMP JUMPDEST PUSH32 0x4E487B7100000000000000000000000000000000000000000000000000000000 PUSH0 MSTORE PUSH1 0x32 PUSH1 0x4 MSTORE PUSH1 0x24 PUSH0 REVERT JUMPDEST PUSH0 PUSH2 0x124B DUP3 PUSH2 0xCDF JUMP JUMPDEST SWAP2 POP PUSH32 0xFFFFFFFFFFFFFFFFFFFFFFFFFFFFFFFFFFFFFFFFFFFFFFFFFFFFFFFFFFFFFFFF DUP3 SUB PUSH2 0x127D JUMPI PUSH2 0x127C PUSH2 0x107C JUMP JUMPDEST JUMPDEST PUSH1 0x1 DUP3 ADD SWAP1 POP SWAP2 SWAP1 POP JUMP JUMPDEST PUSH32 0x496E76616C696420616464726573730000000000000000000000000000000000 PUSH0 DUP3 ADD MSTORE POP JUMP JUMPDEST PUSH0 PUSH2 0x12BC PUSH1 0xF DUP4 PUSH2 0xBDD JUMP JUMPDEST SWAP2 POP PUSH2 0x12C7 DUP3 PUSH2 0x1288 JUMP JUMPDEST PUSH1 0x20 DUP3 ADD SWAP1 POP SWAP2 SWAP1 POP JUMP JUMPDEST PUSH0 PUSH1 0x20 DUP3 ADD SWAP1 POP DUP2 DUP2 SUB PUSH0 DUP4 ADD MSTORE PUSH2 0x12E9 DUP2 PUSH2 0x12B0 JUMP JUMPDEST SWAP1 POP SWAP2 SWAP1 POP JUMP JUMPDEST PUSH32 0x496E73756666696369656E742062616C616E6365000000000000000000000000 PUSH0 DUP3 ADD MSTORE POP JUMP JUMPDEST PUSH0 PUSH2 0x1324 PUSH1 0x14 DUP4 PUSH2 0xBDD JUMP JUMPDEST SWAP2 POP PUSH2 0x132F DUP3 PUSH2 0x12F0 JUMP JUMPDEST PUSH1 0x20 DUP3 ADD SWAP1 POP SWAP2 SWAP1 POP JUMP JUMPDEST PUSH0 PUSH1 0x20 DUP3 ADD SWAP1 POP DUP2 DUP2 SUB PUSH0 DUP4 ADD MSTORE PUSH2 0x1351 DUP2 PUSH2 0x1318 JUMP JUMPDEST SWAP1 POP SWAP2 SWAP1 POP JUMP JUMPDEST PUSH0 PUSH2 0x1362 DUP3 PUSH2 0xCDF JUMP JUMPDEST SWAP2 POP PUSH2 0x136D DUP4 PUSH2 0xCDF JUMP JUMPDEST SWAP3 POP DUP3 DUP3 ADD SWAP1 POP DUP1 DUP3 GT ISZERO PUSH2 0x1385 JUMPI PUSH2 0x1384 PUSH2 0x107C JUMP JUMPDEST JUMPDEST SWAP3 SWAP2 POP POP JUMP INVALID LOG2 PUSH5 0x6970667358 0x22 SLT KECCAK256 0x27 PC CREATE 0x29 SDIV 0xDA STOP 0xB8 CREATE2 0xEB 0xCA SELFBALANCE CALLVALUE 0x2D 0xE4 COINBASE MSTORE8 MULMOD 0xFC ORIGIN CALLDATACOPY PUSH24 0xA7318E41342CB63882D264736F6C63430008140033000000 "
				},
				"gasEstimates": {
					"creation": {
						"codeDepositCost": "1011400",
						"executionCost": "infinite",
						"totalCost": "infinite"
					},
					"external": {
						"airdrop(address[],uint256[])": "infinite",
						"allowance(address,address)": "infinite",
						"approve(address,uint256)": "infinite",
						"balanceOf(address)": "2851",
						"burn(uint256)": "infinite",
						"decimals()": "2562",
						"getOwner()": "2559",
						"name()": "infinite",
						"symbol()": "infinite",
						"totalSupply()": "2477",
						"transfer(address,uint256)": "infinite",
						"transferFrom(address,address,uint256)": "infinite"
					},
					"internal": {
						"_approve(address,address,uint256)": "infinite",
						"_transfer(address,address,uint256)": "infinite"
					}
				},
				"methodIdentifiers": {
					"airdrop(address[],uint256[])": "67243482",
					"allowance(address,address)": "dd62ed3e",
					"approve(address,uint256)": "095ea7b3",
					"balanceOf(address)": "70a08231",
					"burn(uint256)": "42966c68",
					"decimals()": "313ce567",
					"getOwner()": "893d20e8",
					"name()": "06fdde03",
					"symbol()": "95d89b41",
					"totalSupply()": "18160ddd",
					"transfer(address,uint256)": "a9059cbb",
					"transferFrom(address,address,uint256)": "23b872dd"
				}
			},
			"storageLayout": {
				"storage": [
					{
						"astId": 93,
						"contract": "contracts/token/TPointi.sol:AdvancedToken",
						"label": "_name",
						"offset": 0,
						"slot": "0",
						"type": "t_string_storage"
					},
					{
						"astId": 96,
						"contract": "contracts/token/TPointi.sol:AdvancedToken",
						"label": "_symbol",
						"offset": 0,
						"slot": "1",
						"type": "t_string_storage"
					},
					{
						"astId": 99,
						"contract": "contracts/token/TPointi.sol:AdvancedToken",
						"label": "_decimals",
						"offset": 0,
						"slot": "2",
						"type": "t_uint8"
					},
					{
						"astId": 106,
						"contract": "contracts/token/TPointi.sol:AdvancedToken",
						"label": "_totalSupply",
						"offset": 0,
						"slot": "3",
						"type": "t_uint256"
					},
					{
						"astId": 108,
						"contract": "contracts/token/TPointi.sol:AdvancedToken",
						"label": "_owner",
						"offset": 0,
						"slot": "4",
						"type": "t_address"
					},
					{
						"astId": 112,
						"contract": "contracts/token/TPointi.sol:AdvancedToken",
						"label": "_balances",
						"offset": 0,
						"slot": "5",
						"type": "t_mapping(t_address,t_uint256)"
					},
					{
						"astId": 118,
						"contract": "contracts/token/TPointi.sol:AdvancedToken",
						"label": "_allowances",
						"offset": 0,
						"slot": "6",
						"type": "t_mapping(t_address,t_mapping(t_address,t_uint256))"
					}
				],
				"types": {
					"t_address": {
						"encoding": "inplace",
						"label": "address",
						"numberOfBytes": "20"
					},
					"t_mapping(t_address,t_mapping(t_address,t_uint256))": {
						"encoding": "mapping",
						"key": "t_address",
						"label": "mapping(address => mapping(address => uint256))",
						"numberOfBytes": "32",
						"value": "t_mapping(t_address,t_uint256)"
					},
					"t_mapping(t_address,t_uint256)": {
						"encoding": "mapping",
						"key": "t_address",
						"label": "mapping(address => uint256)",
						"numberOfBytes": "32",
						"value": "t_uint256"
					},
					"t_string_storage": {
						"encoding": "bytes",
						"label": "string",
						"numberOfBytes": "32"
					},
					"t_uint256": {
						"encoding": "inplace",
						"label": "uint256",
						"numberOfBytes": "32"
					},
					"t_uint8": {
						"encoding": "inplace",
						"label": "uint8",
						"numberOfBytes": "1"
					}
				}
			},
			"userdoc": {
				"kind": "user",
				"methods": {},
				"version": 1
			}
		}
	}
}