{
	"data": {
		"bytecode": {
			"linkReferences": {},
			"object": "608060405234801561000f575f5ffd5b50604051611da8380380611da88339818101604052810190610031919061012e565b335f5f6101000a81548173ffffffffffffffffffffffffffffffffffffffff021916908373ffffffffffffffffffffffffffffffffffffffff1602179055505f5f60156101000a81548160ff021916908360ff1602179055508060025f6101000a81548173ffffffffffffffffffffffffffffffffffffffff021916908373ffffffffffffffffffffffffffffffffffffffff16021790555050610159565b5f5ffd5b5f73ffffffffffffffffffffffffffffffffffffffff82169050919050565b5f6100fd826100d4565b9050919050565b61010d816100f3565b8114610117575f5ffd5b50565b5f8151905061012881610104565b92915050565b5f60208284031215610143576101426100d0565b5b5f6101508482850161011a565b91505092915050565b611c42806101665f395ff3fe60806040526004361061010c575f3560e01c806390d976e211610094578063bff1f9e111610063578063bff1f9e1146103d3578063ca90d6e6146103fd578063f2220c9e14610425578063fa09e63014610444578063fdbb66961461046c5761011c565b806390d976e21461031d57806395e5574814610359578063a2f5546e14610381578063ae243031146103a95761011c565b8063376fe102116100db578063376fe10214610229578063556a757914610265578063672cbe1a146102a15780637ce8a08e146102cb5780638da5cb5b146102f35761011c565b80632a2a92cc146101355780632b956ff71461017357806331bbf555146101af578063365b98b2146101eb5761011c565b3661011c5761011a5f6104a8565b005b6101335f3681019061012e9190611256565b6104a8565b005b348015610140575f5ffd5b5061015b6004803603810190610156919061130e565b6108b8565b60405161016a9392919061135b565b60405180910390f35b34801561017e575f5ffd5b5061019960048036038101906101949190611390565b61098d565b6040516101a691906113bb565b60405180910390f35b3480156101ba575f5ffd5b506101d560048036038101906101d09190611390565b6109d3565b6040516101e291906113bb565b60405180910390f35b3480156101f6575f5ffd5b50610211600480360381019061020c91906113d4565b610a30565b6040516102209392919061141d565b60405180910390f35b348015610234575f5ffd5b5061024f600480360381019061024a9190611390565b610a81565b60405161025c91906113bb565b60405180910390f35b348015610270575f5ffd5b5061028b60048036038101906102869190611488565b610a96565b60405161029891906113bb565b60405180910390f35b3480156102ac575f5ffd5b506102b5610aab565b6040516102c291906113bb565b60405180910390f35b3480156102d6575f5ffd5b506102f160048036038101906102ec9190611488565b610ad7565b005b3480156102fe575f5ffd5b50610307610b82565b60405161031491906114b3565b60405180910390f35b348015610328575f5ffd5b50610343600480360381019061033e91906113d4565b610ba6565b60405161035091906114b3565b60405180910390f35b348015610364575f5ffd5b5061037f600480360381019061037a9190611390565b610be1565b005b34801561038c575f5ffd5b506103a760048036038101906103a291906114cc565b610cb2565b005b3480156103b4575f5ffd5b506103bd610d60565b6040516103ca9190611519565b60405180910390f35b3480156103de575f5ffd5b506103e7610d72565b6040516103f491906113bb565b60405180910390f35b348015610408575f5ffd5b50610423600480360381019061041e919061130e565b610d78565b005b61042d610ef0565b60405161043b9291906115a2565b60405180910390f35b34801561044f575f5ffd5b5061046a6004803603810190610465919061160b565b610f99565b005b348015610477575f5ffd5b50610492600480360381019061048d9190611390565b6110dc565b60405161049f91906113bb565b60405180910390f35b5f5f60159054906101000a900460ff1660ff16036104fb576040517f08c379a00000000000000000000000000000000000000000000000000000000081526004016104f290611680565b60405180910390fd5b600115155f60149054906101000a900460ff16151503610550576040517f08c379a0000000000000000000000000000000000000000000000000000000008152600401610547906116e8565b60405180910390fd5b60015f60146101000a81548160ff02191690831515021790555066b1a2bc2ec500003410156105b4576040517f08c379a00000000000000000000000000000000000000000000000000000000081526004016105ab90611750565b60405180910390fd5b60205f36905010156105fb576040517f08c379a00000000000000000000000000000000000000000000000000000000081526004016105f2906117b8565b60405180910390fd5b5f8161065657600260015f5f60159054906101000a900460ff1660ff1660ff1681526020019081526020015f2054670de0b6b3a76400003461063d9190611803565b6106479190611871565b6106519190611803565b61069b565b60015f5f60159054906101000a900460ff1660ff1660ff1681526020019081526020015f2054670de0b6b3a7640000346106909190611803565b61069a9190611871565b5b90505f60045f3373ffffffffffffffffffffffffffffffffffffffff1673ffffffffffffffffffffffffffffffffffffffff1681526020019081526020015f2054036108805760035f8154809291906106f3906118a1565b919050555060035460045f3373ffffffffffffffffffffffffffffffffffffffff1673ffffffffffffffffffffffffffffffffffffffff1681526020019081526020015f20819055505f60055f60035481526020019081526020015f20905033815f015f6101000a81548173ffffffffffffffffffffffffffffffffffffffff021916908373ffffffffffffffffffffffffffffffffffffffff1602179055505f81600101819055506001816002015f6101000a81548160ff0219169083151502179055508060055f60035481526020019081526020015f205f82015f9054906101000a900473ffffffffffffffffffffffffffffffffffffffff16815f015f6101000a81548173ffffffffffffffffffffffffffffffffffffffff021916908373ffffffffffffffffffffffffffffffffffffffff16021790555060018201548160010155600282015f9054906101000a900460ff16816002015f6101000a81548160ff021916908315150217905550600382018160030190805461087a929190611136565b50905050505b8060055f60035481526020019081526020015f2060010181905550505f5f60146101000a81548160ff02191690831515021790555050565b5f5f5f5f60055f60045f8973ffffffffffffffffffffffffffffffffffffffff1673ffffffffffffffffffffffffffffffffffffffff1681526020019081526020015f205481526020019081526020015f20600301858154811061091f5761091e6118e8565b5b905f5260205f2090600402016040518060800160405290815f82015481526020016001820154815260200160028201548152602001600382015f9054906101000a900460ff1660ff1660ff16815250509050805f015181602001518260400151935093509350509250925092565b5f60045f8373ffffffffffffffffffffffffffffffffffffffff1673ffffffffffffffffffffffffffffffffffffffff1681526020019081526020015f20549050919050565b5f60055f60045f8573ffffffffffffffffffffffffffffffffffffffff1673ffffffffffffffffffffffffffffffffffffffff1681526020019081526020015f205481526020019081526020015f20600301805490509050919050565b6005602052805f5260405f205f91509050805f015f9054906101000a900473ffffffffffffffffffffffffffffffffffffffff1690806001015490806002015f9054906101000a900460ff16905083565b6004602052805f5260405f205f915090505481565b6001602052805f5260405f205f915090505481565b5f60015f5f60159054906101000a900460ff1660ff1660ff1681526020019081526020015f2054905090565b5f5f9054906101000a900473ffffffffffffffffffffffffffffffffffffffff1673ffffffffffffffffffffffffffffffffffffffff163373ffffffffffffffffffffffffffffffffffffffff1614610b65576040517f08c379a0000000000000000000000000000000000000000000000000000000008152600401610b5c9061195f565b60405180910390fd5b805f60156101000a81548160ff021916908360ff16021790555050565b5f5f9054906101000a900473ffffffffffffffffffffffffffffffffffffffff1681565b5f60055f8381526020019081526020015f205f015f9054906101000a900473ffffffffffffffffffffffffffffffffffffffff169050919050565b5f5f9054906101000a900473ffffffffffffffffffffffffffffffffffffffff1673ffffffffffffffffffffffffffffffffffffffff163373ffffffffffffffffffffffffffffffffffffffff1614610c6f576040517f08c379a0000000000000000000000000000000000000000000000000000000008152600401610c669061195f565b60405180910390fd5b8060025f6101000a81548173ffffffffffffffffffffffffffffffffffffffff021916908373ffffffffffffffffffffffffffffffffffffffff16021790555050565b5f5f9054906101000a900473ffffffffffffffffffffffffffffffffffffffff1673ffffffffffffffffffffffffffffffffffffffff163373ffffffffffffffffffffffffffffffffffffffff1614610d40576040517f08c379a0000000000000000000000000000000000000000000000000000000008152600401610d379061195f565b60405180910390fd5b8060015f8460ff1660ff1681526020019081526020015f20819055505050565b5f60159054906101000a900460ff1681565b60035481565b5f5f9054906101000a900473ffffffffffffffffffffffffffffffffffffffff1673ffffffffffffffffffffffffffffffffffffffff163373ffffffffffffffffffffffffffffffffffffffff1614610e06576040517f08c379a0000000000000000000000000000000000000000000000000000000008152600401610dfd9061195f565b60405180910390fd5b5f60045f8473ffffffffffffffffffffffffffffffffffffffff1673ffffffffffffffffffffffffffffffffffffffff1681526020019081526020015f205403610e85576040517f08c379a0000000000000000000000000000000000000000000000000000000008152600401610e7c906119c7565b60405180910390fd5b8060055f60045f8673ffffffffffffffffffffffffffffffffffffffff1673ffffffffffffffffffffffffffffffffffffffff1681526020019081526020015f205481526020019081526020015f206001015f828254610ee591906119e5565b925050819055505050565b5f606060025f9054906101000a900473ffffffffffffffffffffffffffffffffffffffff1673ffffffffffffffffffffffffffffffffffffffff166321055acb655af3107a40006040518263ffffffff1660e01b81526004015f6040518083038185885af1158015610f64573d5f5f3e3d5ffd5b50505050506040513d5f823e3d601f19601f82011682018060405250810190610f8d9190611b4a565b80925081935050509091565b5f5f9054906101000a900473ffffffffffffffffffffffffffffffffffffffff1673ffffffffffffffffffffffffffffffffffffffff163373ffffffffffffffffffffffffffffffffffffffff1614611027576040517f08c379a000000000000000000000000000000000000000000000000000000000815260040161101e9061195f565b60405180910390fd5b5f73ffffffffffffffffffffffffffffffffffffffff168173ffffffffffffffffffffffffffffffffffffffff1603611095576040517f08c379a000000000000000000000000000000000000000000000000000000000815260040161108c90611bee565b60405180910390fd5b8073ffffffffffffffffffffffffffffffffffffffff166108fc4790811502906040515f60405180830381858888f193505050501580156110d8573d5f5f3e3d5ffd5b5050565b5f60055f60045f8573ffffffffffffffffffffffffffffffffffffffff1673ffffffffffffffffffffffffffffffffffffffff1681526020019081526020015f205481526020019081526020015f20600101549050919050565b828054828255905f5260205f209060040281019282156111c1575f5260205f209160040282015b828111156111c05782825f820154815f01556001820154816001015560028201548160020155600382015f9054906101000a900460ff16816003015f6101000a81548160ff021916908360ff16021790555050509160040191906004019061115d565b5b5090506111ce91906111d2565b5090565b5b8082111561120c575f5f82015f9055600182015f9055600282015f9055600382015f6101000a81549060ff0219169055506004016111d3565b5090565b5f604051905090565b5f5ffd5b5f5ffd5b5f8115159050919050565b61123581611221565b811461123f575f5ffd5b50565b5f813590506112508161122c565b92915050565b5f6020828403121561126b5761126a611219565b5b5f61127884828501611242565b91505092915050565b5f73ffffffffffffffffffffffffffffffffffffffff82169050919050565b5f6112aa82611281565b9050919050565b6112ba816112a0565b81146112c4575f5ffd5b50565b5f813590506112d5816112b1565b92915050565b5f819050919050565b6112ed816112db565b81146112f7575f5ffd5b50565b5f81359050611308816112e4565b92915050565b5f5f6040838503121561132457611323611219565b5b5f611331858286016112c7565b9250506020611342858286016112fa565b9150509250929050565b611355816112db565b82525050565b5f60608201905061136e5f83018661134c565b61137b602083018561134c565b611388604083018461134c565b949350505050565b5f602082840312156113a5576113a4611219565b5b5f6113b2848285016112c7565b91505092915050565b5f6020820190506113ce5f83018461134c565b92915050565b5f602082840312156113e9576113e8611219565b5b5f6113f6848285016112fa565b91505092915050565b611408816112a0565b82525050565b61141781611221565b82525050565b5f6060820190506114305f8301866113ff565b61143d602083018561134c565b61144a604083018461140e565b949350505050565b5f60ff82169050919050565b61146781611452565b8114611471575f5ffd5b50565b5f813590506114828161145e565b92915050565b5f6020828403121561149d5761149c611219565b5b5f6114aa84828501611474565b91505092915050565b5f6020820190506114c65f8301846113ff565b92915050565b5f5f604083850312156114e2576114e1611219565b5b5f6114ef85828601611474565b9250506020611500858286016112fa565b9150509250929050565b61151381611452565b82525050565b5f60208201905061152c5f83018461150a565b92915050565b5f81519050919050565b5f82825260208201905092915050565b8281835e5f83830152505050565b5f601f19601f8301169050919050565b5f61157482611532565b61157e818561153c565b935061158e81856020860161154c565b6115978161155a565b840191505092915050565b5f6040820190506115b55f83018561134c565b81810360208301526115c7818461156a565b90509392505050565b5f6115da82611281565b9050919050565b6115ea816115d0565b81146115f4575f5ffd5b50565b5f81359050611605816115e1565b92915050565b5f602082840312156116205761161f611219565b5b5f61162d848285016115f7565b91505092915050565b7f436f6e74726163742050617573656400000000000000000000000000000000005f82015250565b5f61166a600f8361153c565b915061167582611636565b602082019050919050565b5f6020820190508181035f8301526116978161165e565b9050919050565b7f4e6f205265656e7472616e63792c706c732077616974000000000000000000005f82015250565b5f6116d260168361153c565b91506116dd8261169e565b602082019050919050565b5f6020820190508181035f8301526116ff816116c6565b9050919050565b7f53656e64206d6f726520424e4220746f206275792054505400000000000000005f82015250565b5f61173a60188361153c565b915061174582611706565b602082019050919050565b5f6020820190508181035f8301526117678161172e565b9050919050565b7f496e76616c69642064617461206c656e677468000000000000000000000000005f82015250565b5f6117a260138361153c565b91506117ad8261176e565b602082019050919050565b5f6020820190508181035f8301526117cf81611796565b9050919050565b7f4e487b71000000000000000000000000000000000000000000000000000000005f52601160045260245ffd5b5f61180d826112db565b9150611818836112db565b9250828202611826816112db565b9150828204841483151761183d5761183c6117d6565b5b5092915050565b7f4e487b71000000000000000000000000000000000000000000000000000000005f52601260045260245ffd5b5f61187b826112db565b9150611886836112db565b92508261189657611895611844565b5b828204905092915050565b5f6118ab826112db565b91507fffffffffffffffffffffffffffffffffffffffffffffffffffffffffffffffff82036118dd576118dc6117d6565b5b600182019050919050565b7f4e487b71000000000000000000000000000000000000000000000000000000005f52603260045260245ffd5b7f4f6e6c79206f776e6572000000000000000000000000000000000000000000005f82015250565b5f611949600a8361153c565b915061195482611915565b602082019050919050565b5f6020820190508181035f8301526119768161193d565b9050919050565b7f496e76616c6964207573657220494400000000000000000000000000000000005f82015250565b5f6119b1600f8361153c565b91506119bc8261197d565b602082019050919050565b5f6020820190508181035f8301526119de816119a5565b9050919050565b5f6119ef826112db565b91506119fa836112db565b9250828201905080821115611a1257611a116117d6565b5b92915050565b5f81519050611a26816112e4565b92915050565b5f5ffd5b5f5ffd5b7f4e487b71000000000000000000000000000000000000000000000000000000005f52604160045260245ffd5b611a6a8261155a565b810181811067ffffffffffffffff82111715611a8957611a88611a34565b5b80604052505050565b5f611a9b611210565b9050611aa78282611a61565b919050565b5f67ffffffffffffffff821115611ac657611ac5611a34565b5b611acf8261155a565b9050602081019050919050565b5f611aee611ae984611aac565b611a92565b905082815260208101848484011115611b0a57611b09611a30565b5b611b1584828561154c565b509392505050565b5f82601f830112611b3157611b30611a2c565b5b8151611b41848260208601611adc565b91505092915050565b5f5f60408385031215611b6057611b5f611219565b5b5f611b6d85828601611a18565b925050602083015167ffffffffffffffff811115611b8e57611b8d61121d565b5b611b9a85828601611b1d565b9150509250929050565b7f496e76616c6964206164647265737300000000000000000000000000000000005f82015250565b5f611bd8600f8361153c565b9150611be382611ba4565b602082019050919050565b5f6020820190508181035f830152611c0581611bcc565b905091905056fea2646970667358221220a98a4c7ac8124231484ce4d4fdae7e09bb5f3e795a17e4d8b7dd779d0048632164736f6c634300081e0033",
			"opcodes": "PUSH1 0x80 PUSH1 0x40 MSTORE CALLVALUE DUP1 ISZERO PUSH2 0xF JUMPI PUSH0 PUSH0 REVERT JUMPDEST POP PUSH1 0x40 MLOAD PUSH2 0x1DA8 CODESIZE SUB DUP1 PUSH2 0x1DA8 DUP4 CODECOPY DUP2 DUP2 ADD PUSH1 0x40 MSTORE DUP2 ADD SWAP1 PUSH2 0x31 SWAP2 SWAP1 PUSH2 0x12E JUMP JUMPDEST CALLER PUSH0 PUSH0 PUSH2 0x100 EXP DUP2 SLOAD DUP2 PUSH20 0xFFFFFFFFFFFFFFFFFFFFFFFFFFFFFFFFFFFFFFFF MUL NOT AND SWAP1 DUP4 PUSH20 0xFFFFFFFFFFFFFFFFFFFFFFFFFFFFFFFFFFFFFFFF AND MUL OR SWAP1 SSTORE POP PUSH0 PUSH0 PUSH1 0x15 PUSH2 0x100 EXP DUP2 SLOAD DUP2 PUSH1 0xFF MUL NOT AND SWAP1 DUP4 PUSH1 0xFF AND MUL OR SWAP1 SSTORE POP DUP1 PUSH1 0x2 PUSH0 PUSH2 0x100 EXP DUP2 SLOAD DUP2 PUSH20 0xFFFFFFFFFFFFFFFFFFFFFFFFFFFFFFFFFFFFFFFF MUL NOT AND SWAP1 DUP4 PUSH20 0xFFFFFFFFFFFFFFFFFFFFFFFFFFFFFFFFFFFFFFFF AND MUL OR SWAP1 SSTORE POP POP PUSH2 0x159 JUMP JUMPDEST PUSH0 PUSH0 REVERT JUMPDEST PUSH0 PUSH20 0xFFFFFFFFFFFFFFFFFFFFFFFFFFFFFFFFFFFFFFFF DUP3 AND SWAP1 POP SWAP2 SWAP1 POP JUMP JUMPDEST PUSH0 PUSH2 0xFD DUP3 PUSH2 0xD4 JUMP JUMPDEST SWAP1 POP SWAP2 SWAP1 POP JUMP JUMPDEST PUSH2 0x10D DUP2 PUSH2 0xF3 JUMP JUMPDEST DUP2 EQ PUSH2 0x117 JUMPI PUSH0 PUSH0 REVERT JUMPDEST POP JUMP JUMPDEST PUSH0 DUP2 MLOAD SWAP1 POP PUSH2 0x128 DUP2 PUSH2 0x104 JUMP JUMPDEST SWAP3 SWAP2 POP POP JUMP JUMPDEST PUSH0 PUSH1 0x20 DUP3 DUP5 SUB SLT ISZERO PUSH2 0x143 JUMPI PUSH2 0x142 PUSH2 0xD0 JUMP JUMPDEST JUMPDEST PUSH0 PUSH2 0x150 DUP5 DUP3 DUP6 ADD PUSH2 0x11A JUMP JUMPDEST SWAP2 POP POP SWAP3 SWAP2 POP POP JUMP JUMPDEST PUSH2 0x1C42 DUP1 PUSH2 0x166 PUSH0 CODECOPY PUSH0 RETURN INVALID PUSH1 0x80 PUSH1 0x40 MSTORE PUSH1 0x4 CALLDATASIZE LT PUSH2 0x10C JUMPI PUSH0 CALLDATALOAD PUSH1 0xE0 SHR DUP1 PUSH4 0x90D976E2 GT PUSH2 0x94 JUMPI DUP1 PUSH4 0xBFF1F9E1 GT PUSH2 0x63 JUMPI DUP1 PUSH4 0xBFF1F9E1 EQ PUSH2 0x3D3 JUMPI DUP1 PUSH4 0xCA90D6E6 EQ PUSH2 0x3FD JUMPI DUP1 PUSH4 0xF2220C9E EQ PUSH2 0x425 JUMPI DUP1 PUSH4 0xFA09E630 EQ PUSH2 0x444 JUMPI DUP1 PUSH4 0xFDBB6696 EQ PUSH2 0x46C JUMPI PUSH2 0x11C JUMP JUMPDEST DUP1 PUSH4 0x90D976E2 EQ PUSH2 0x31D JUMPI DUP1 PUSH4 0x95E55748 EQ PUSH2 0x359 JUMPI DUP1 PUSH4 0xA2F5546E EQ PUSH2 0x381 JUMPI DUP1 PUSH4 0xAE243031 EQ PUSH2 0x3A9 JUMPI PUSH2 0x11C JUMP JUMPDEST DUP1 PUSH4 0x376FE102 GT PUSH2 0xDB JUMPI DUP1 PUSH4 0x376FE102 EQ PUSH2 0x229 JUMPI DUP1 PUSH4 0x556A7579 EQ PUSH2 0x265 JUMPI DUP1 PUSH4 0x672CBE1A EQ PUSH2 0x2A1 JUMPI DUP1 PUSH4 0x7CE8A08E EQ PUSH2 0x2CB JUMPI DUP1 PUSH4 0x8DA5CB5B EQ PUSH2 0x2F3 JUMPI PUSH2 0x11C JUMP JUMPDEST DUP1 PUSH4 0x2A2A92CC EQ PUSH2 0x135 JUMPI DUP1 PUSH4 0x2B956FF7 EQ PUSH2 0x173 JUMPI DUP1 PUSH4 0x31BBF555 EQ PUSH2 0x1AF JUMPI DUP1 PUSH4 0x365B98B2 EQ PUSH2 0x1EB JUMPI PUSH2 0x11C JUMP JUMPDEST CALLDATASIZE PUSH2 0x11C JUMPI PUSH2 0x11A PUSH0 PUSH2 0x4A8 JUMP JUMPDEST STOP JUMPDEST PUSH2 0x133 PUSH0 CALLDATASIZE DUP2 ADD SWAP1 PUSH2 0x12E SWAP2 SWAP1 PUSH2 0x1256 JUMP JUMPDEST PUSH2 0x4A8 JUMP JUMPDEST STOP JUMPDEST CALLVALUE DUP1 ISZERO PUSH2 0x140 JUMPI PUSH0 PUSH0 REVERT JUMPDEST POP PUSH2 0x15B PUSH1 0x4 DUP1 CALLDATASIZE SUB DUP2 ADD SWAP1 PUSH2 0x156 SWAP2 SWAP1 PUSH2 0x130E JUMP JUMPDEST PUSH2 0x8B8 JUMP JUMPDEST PUSH1 0x40 MLOAD PUSH2 0x16A SWAP4 SWAP3 SWAP2 SWAP1 PUSH2 0x135B JUMP JUMPDEST PUSH1 0x40 MLOAD DUP1 SWAP2 SUB SWAP1 RETURN JUMPDEST CALLVALUE DUP1 ISZERO PUSH2 0x17E JUMPI PUSH0 PUSH0 REVERT JUMPDEST POP PUSH2 0x199 PUSH1 0x4 DUP1 CALLDATASIZE SUB DUP2 ADD SWAP1 PUSH2 0x194 SWAP2 SWAP1 PUSH2 0x1390 JUMP JUMPDEST PUSH2 0x98D JUMP JUMPDEST PUSH1 0x40 MLOAD PUSH2 0x1A6 SWAP2 SWAP1 PUSH2 0x13BB JUMP JUMPDEST PUSH1 0x40 MLOAD DUP1 SWAP2 SUB SWAP1 RETURN JUMPDEST CALLVALUE DUP1 ISZERO PUSH2 0x1BA JUMPI PUSH0 PUSH0 REVERT JUMPDEST POP PUSH2 0x1D5 PUSH1 0x4 DUP1 CALLDATASIZE SUB DUP2 ADD SWAP1 PUSH2 0x1D0 SWAP2 SWAP1 PUSH2 0x1390 JUMP JUMPDEST PUSH2 0x9D3 JUMP JUMPDEST PUSH1 0x40 MLOAD PUSH2 0x1E2 SWAP2 SWAP1 PUSH2 0x13BB JUMP JUMPDEST PUSH1 0x40 MLOAD DUP1 SWAP2 SUB SWAP1 RETURN JUMPDEST CALLVALUE DUP1 ISZERO PUSH2 0x1F6 JUMPI PUSH0 PUSH0 REVERT JUMPDEST POP PUSH2 0x211 PUSH1 0x4 DUP1 CALLDATASIZE SUB DUP2 ADD SWAP1 PUSH2 0x20C SWAP2 SWAP1 PUSH2 0x13D4 JUMP JUMPDEST PUSH2 0xA30 JUMP JUMPDEST PUSH1 0x40 MLOAD PUSH2 0x220 SWAP4 SWAP3 SWAP2 SWAP1 PUSH2 0x141D JUMP JUMPDEST PUSH1 0x40 MLOAD DUP1 SWAP2 SUB SWAP1 RETURN JUMPDEST CALLVALUE DUP1 ISZERO PUSH2 0x234 JUMPI PUSH0 PUSH0 REVERT JUMPDEST POP PUSH2 0x24F PUSH1 0x4 DUP1 CALLDATASIZE SUB DUP2 ADD SWAP1 PUSH2 0x24A SWAP2 SWAP1 PUSH2 0x1390 JUMP JUMPDEST PUSH2 0xA81 JUMP JUMPDEST PUSH1 0x40 MLOAD PUSH2 0x25C SWAP2 SWAP1 PUSH2 0x13BB JUMP JUMPDEST PUSH1 0x40 MLOAD DUP1 SWAP2 SUB SWAP1 RETURN JUMPDEST CALLVALUE DUP1 ISZERO PUSH2 0x270 JUMPI PUSH0 PUSH0 REVERT JUMPDEST POP PUSH2 0x28B PUSH1 0x4 DUP1 CALLDATASIZE SUB DUP2 ADD SWAP1 PUSH2 0x286 SWAP2 SWAP1 PUSH2 0x1488 JUMP JUMPDEST PUSH2 0xA96 JUMP JUMPDEST PUSH1 0x40 MLOAD PUSH2 0x298 SWAP2 SWAP1 PUSH2 0x13BB JUMP JUMPDEST PUSH1 0x40 MLOAD DUP1 SWAP2 SUB SWAP1 RETURN JUMPDEST CALLVALUE DUP1 ISZERO PUSH2 0x2AC JUMPI PUSH0 PUSH0 REVERT JUMPDEST POP PUSH2 0x2B5 PUSH2 0xAAB JUMP JUMPDEST PUSH1 0x40 MLOAD PUSH2 0x2C2 SWAP2 SWAP1 PUSH2 0x13BB JUMP JUMPDEST PUSH1 0x40 MLOAD DUP1 SWAP2 SUB SWAP1 RETURN JUMPDEST CALLVALUE DUP1 ISZERO PUSH2 0x2D6 JUMPI PUSH0 PUSH0 REVERT JUMPDEST POP PUSH2 0x2F1 PUSH1 0x4 DUP1 CALLDATASIZE SUB DUP2 ADD SWAP1 PUSH2 0x2EC SWAP2 SWAP1 PUSH2 0x1488 JUMP JUMPDEST PUSH2 0xAD7 JUMP JUMPDEST STOP JUMPDEST CALLVALUE DUP1 ISZERO PUSH2 0x2FE JUMPI PUSH0 PUSH0 REVERT JUMPDEST POP PUSH2 0x307 PUSH2 0xB82 JUMP JUMPDEST PUSH1 0x40 MLOAD PUSH2 0x314 SWAP2 SWAP1 PUSH2 0x14B3 JUMP JUMPDEST PUSH1 0x40 MLOAD DUP1 SWAP2 SUB SWAP1 RETURN JUMPDEST CALLVALUE DUP1 ISZERO PUSH2 0x328 JUMPI PUSH0 PUSH0 REVERT JUMPDEST POP PUSH2 0x343 PUSH1 0x4 DUP1 CALLDATASIZE SUB DUP2 ADD SWAP1 PUSH2 0x33E SWAP2 SWAP1 PUSH2 0x13D4 JUMP JUMPDEST PUSH2 0xBA6 JUMP JUMPDEST PUSH1 0x40 MLOAD PUSH2 0x350 SWAP2 SWAP1 PUSH2 0x14B3 JUMP JUMPDEST PUSH1 0x40 MLOAD DUP1 SWAP2 SUB SWAP1 RETURN JUMPDEST CALLVALUE DUP1 ISZERO PUSH2 0x364 JUMPI PUSH0 PUSH0 REVERT JUMPDEST POP PUSH2 0x37F PUSH1 0x4 DUP1 CALLDATASIZE SUB DUP2 ADD SWAP1 PUSH2 0x37A SWAP2 SWAP1 PUSH2 0x1390 JUMP JUMPDEST PUSH2 0xBE1 JUMP JUMPDEST STOP JUMPDEST CALLVALUE DUP1 ISZERO PUSH2 0x38C JUMPI PUSH0 PUSH0 REVERT JUMPDEST POP PUSH2 0x3A7 PUSH1 0x4 DUP1 CALLDATASIZE SUB DUP2 ADD SWAP1 PUSH2 0x3A2 SWAP2 SWAP1 PUSH2 0x14CC JUMP JUMPDEST PUSH2 0xCB2 JUMP JUMPDEST STOP JUMPDEST CALLVALUE DUP1 ISZERO PUSH2 0x3B4 JUMPI PUSH0 PUSH0 REVERT JUMPDEST POP PUSH2 0x3BD PUSH2 0xD60 JUMP JUMPDEST PUSH1 0x40 MLOAD PUSH2 0x3CA SWAP2 SWAP1 PUSH2 0x1519 JUMP JUMPDEST PUSH1 0x40 MLOAD DUP1 SWAP2 SUB SWAP1 RETURN JUMPDEST CALLVALUE DUP1 ISZERO PUSH2 0x3DE JUMPI PUSH0 PUSH0 REVERT JUMPDEST POP PUSH2 0x3E7 PUSH2 0xD72 JUMP JUMPDEST PUSH1 0x40 MLOAD PUSH2 0x3F4 SWAP2 SWAP1 PUSH2 0x13BB JUMP JUMPDEST PUSH1 0x40 MLOAD DUP1 SWAP2 SUB SWAP1 RETURN JUMPDEST CALLVALUE DUP1 ISZERO PUSH2 0x408 JUMPI PUSH0 PUSH0 REVERT JUMPDEST POP PUSH2 0x423 PUSH1 0x4 DUP1 CALLDATASIZE SUB DUP2 ADD SWAP1 PUSH2 0x41E SWAP2 SWAP1 PUSH2 0x130E JUMP JUMPDEST PUSH2 0xD78 JUMP JUMPDEST STOP JUMPDEST PUSH2 0x42D PUSH2 0xEF0 JUMP JUMPDEST PUSH1 0x40 MLOAD PUSH2 0x43B SWAP3 SWAP2 SWAP1 PUSH2 0x15A2 JUMP JUMPDEST PUSH1 0x40 MLOAD DUP1 SWAP2 SUB SWAP1 RETURN JUMPDEST CALLVALUE DUP1 ISZERO PUSH2 0x44F JUMPI PUSH0 PUSH0 REVERT JUMPDEST POP PUSH2 0x46A PUSH1 0x4 DUP1 CALLDATASIZE SUB DUP2 ADD SWAP1 PUSH2 0x465 SWAP2 SWAP1 PUSH2 0x160B JUMP JUMPDEST PUSH2 0xF99 JUMP JUMPDEST STOP JUMPDEST CALLVALUE DUP1 ISZERO PUSH2 0x477 JUMPI PUSH0 PUSH0 REVERT JUMPDEST POP PUSH2 0x492 PUSH1 0x4 DUP1 CALLDATASIZE SUB DUP2 ADD SWAP1 PUSH2 0x48D SWAP2 SWAP1 PUSH2 0x1390 JUMP JUMPDEST PUSH2 0x10DC JUMP JUMPDEST PUSH1 0x40 MLOAD PUSH2 0x49F SWAP2 SWAP1 PUSH2 0x13BB JUMP JUMPDEST PUSH1 0x40 MLOAD DUP1 SWAP2 SUB SWAP1 RETURN JUMPDEST PUSH0 PUSH0 PUSH1 0x15 SWAP1 SLOAD SWAP1 PUSH2 0x100 EXP SWAP1 DIV PUSH1 0xFF AND PUSH1 0xFF AND SUB PUSH2 0x4FB JUMPI PUSH1 0x40 MLOAD PUSH32 0x8C379A000000000000000000000000000000000000000000000000000000000 DUP2 MSTORE PUSH1 0x4 ADD PUSH2 0x4F2 SWAP1 PUSH2 0x1680 JUMP JUMPDEST PUSH1 0x40 MLOAD DUP1 SWAP2 SUB SWAP1 REVERT JUMPDEST PUSH1 0x1 ISZERO ISZERO PUSH0 PUSH1 0x14 SWAP1 SLOAD SWAP1 PUSH2 0x100 EXP SWAP1 DIV PUSH1 0xFF AND ISZERO ISZERO SUB PUSH2 0x550 JUMPI PUSH1 0x40 MLOAD PUSH32 0x8C379A000000000000000000000000000000000000000000000000000000000 DUP2 MSTORE PUSH1 0x4 ADD PUSH2 0x547 SWAP1 PUSH2 0x16E8 JUMP JUMPDEST PUSH1 0x40 MLOAD DUP1 SWAP2 SUB SWAP1 REVERT JUMPDEST PUSH1 0x1 PUSH0 PUSH1 0x14 PUSH2 0x100 EXP DUP2 SLOAD DUP2 PUSH1 0xFF MUL NOT AND SWAP1 DUP4 ISZERO ISZERO MUL OR SWAP1 SSTORE POP PUSH7 0xB1A2BC2EC50000 CALLVALUE LT ISZERO PUSH2 0x5B4 JUMPI PUSH1 0x40 MLOAD PUSH32 0x8C379A000000000000000000000000000000000000000000000000000000000 DUP2 MSTORE PUSH1 0x4 ADD PUSH2 0x5AB SWAP1 PUSH2 0x1750 JUMP JUMPDEST PUSH1 0x40 MLOAD DUP1 SWAP2 SUB SWAP1 REVERT JUMPDEST PUSH1 0x20 PUSH0 CALLDATASIZE SWAP1 POP LT ISZERO PUSH2 0x5FB JUMPI PUSH1 0x40 MLOAD PUSH32 0x8C379A000000000000000000000000000000000000000000000000000000000 DUP2 MSTORE PUSH1 0x4 ADD PUSH2 0x5F2 SWAP1 PUSH2 0x17B8 JUMP JUMPDEST PUSH1 0x40 MLOAD DUP1 SWAP2 SUB SWAP1 REVERT JUMPDEST PUSH0 DUP2 PUSH2 0x656 JUMPI PUSH1 0x2 PUSH1 0x1 PUSH0 PUSH0 PUSH1 0x15 SWAP1 SLOAD SWAP1 PUSH2 0x100 EXP SWAP1 DIV PUSH1 0xFF AND PUSH1 0xFF AND PUSH1 0xFF AND DUP2 MSTORE PUSH1 0x20 ADD SWAP1 DUP2 MSTORE PUSH1 0x20 ADD PUSH0 KECCAK256 SLOAD PUSH8 0xDE0B6B3A7640000 CALLVALUE PUSH2 0x63D SWAP2 SWAP1 PUSH2 0x1803 JUMP JUMPDEST PUSH2 0x647 SWAP2 SWAP1 PUSH2 0x1871 JUMP JUMPDEST PUSH2 0x651 SWAP2 SWAP1 PUSH2 0x1803 JUMP JUMPDEST PUSH2 0x69B JUMP JUMPDEST PUSH1 0x1 PUSH0 PUSH0 PUSH1 0x15 SWAP1 SLOAD SWAP1 PUSH2 0x100 EXP SWAP1 DIV PUSH1 0xFF AND PUSH1 0xFF AND PUSH1 0xFF AND DUP2 MSTORE PUSH1 0x20 ADD SWAP1 DUP2 MSTORE PUSH1 0x20 ADD PUSH0 KECCAK256 SLOAD PUSH8 0xDE0B6B3A7640000 CALLVALUE PUSH2 0x690 SWAP2 SWAP1 PUSH2 0x1803 JUMP JUMPDEST PUSH2 0x69A SWAP2 SWAP1 PUSH2 0x1871 JUMP JUMPDEST JUMPDEST SWAP1 POP PUSH0 PUSH1 0x4 PUSH0 CALLER PUSH20 0xFFFFFFFFFFFFFFFFFFFFFFFFFFFFFFFFFFFFFFFF AND PUSH20 0xFFFFFFFFFFFFFFFFFFFFFFFFFFFFFFFFFFFFFFFF AND DUP2 MSTORE PUSH1 0x20 ADD SWAP1 DUP2 MSTORE PUSH1 0x20 ADD PUSH0 KECCAK256 SLOAD SUB PUSH2 0x880 JUMPI PUSH1 0x3 PUSH0 DUP2 SLOAD DUP1 SWAP3 SWAP2 SWAP1 PUSH2 0x6F3 SWAP1 PUSH2 0x18A1 JUMP JUMPDEST SWAP2 SWAP1 POP SSTORE POP PUSH1 0x3 SLOAD PUSH1 0x4 PUSH0 CALLER PUSH20 0xFFFFFFFFFFFFFFFFFFFFFFFFFFFFFFFFFFFFFFFF AND PUSH20 0xFFFFFFFFFFFFFFFFFFFFFFFFFFFFFFFFFFFFFFFF AND DUP2 MSTORE PUSH1 0x20 ADD SWAP1 DUP2 MSTORE PUSH1 0x20 ADD PUSH0 KECCAK256 DUP2 SWAP1 SSTORE POP PUSH0 PUSH1 0x5 PUSH0 PUSH1 0x3 SLOAD DUP2 MSTORE PUSH1 0x20 ADD SWAP1 DUP2 MSTORE PUSH1 0x20 ADD PUSH0 KECCAK256 SWAP1 POP CALLER DUP2 PUSH0 ADD PUSH0 PUSH2 0x100 EXP DUP2 SLOAD DUP2 PUSH20 0xFFFFFFFFFFFFFFFFFFFFFFFFFFFFFFFFFFFFFFFF MUL NOT AND SWAP1 DUP4 PUSH20 0xFFFFFFFFFFFFFFFFFFFFFFFFFFFFFFFFFFFFFFFF AND MUL OR SWAP1 SSTORE POP PUSH0 DUP2 PUSH1 0x1 ADD DUP2 SWAP1 SSTORE POP PUSH1 0x1 DUP2 PUSH1 0x2 ADD PUSH0 PUSH2 0x100 EXP DUP2 SLOAD DUP2 PUSH1 0xFF MUL NOT AND SWAP1 DUP4 ISZERO ISZERO MUL OR SWAP1 SSTORE POP DUP1 PUSH1 0x5 PUSH0 PUSH1 0x3 SLOAD DUP2 MSTORE PUSH1 0x20 ADD SWAP1 DUP2 MSTORE PUSH1 0x20 ADD PUSH0 KECCAK256 PUSH0 DUP3 ADD PUSH0 SWAP1 SLOAD SWAP1 PUSH2 0x100 EXP SWAP1 DIV PUSH20 0xFFFFFFFFFFFFFFFFFFFFFFFFFFFFFFFFFFFFFFFF AND DUP2 PUSH0 ADD PUSH0 PUSH2 0x100 EXP DUP2 SLOAD DUP2 PUSH20 0xFFFFFFFFFFFFFFFFFFFFFFFFFFFFFFFFFFFFFFFF MUL NOT AND SWAP1 DUP4 PUSH20 0xFFFFFFFFFFFFFFFFFFFFFFFFFFFFFFFFFFFFFFFF AND MUL OR SWAP1 SSTORE POP PUSH1 0x1 DUP3 ADD SLOAD DUP2 PUSH1 0x1 ADD SSTORE PUSH1 0x2 DUP3 ADD PUSH0 SWAP1 SLOAD SWAP1 PUSH2 0x100 EXP SWAP1 DIV PUSH1 0xFF AND DUP2 PUSH1 0x2 ADD PUSH0 PUSH2 0x100 EXP DUP2 SLOAD DUP2 PUSH1 0xFF MUL NOT AND SWAP1 DUP4 ISZERO ISZERO MUL OR SWAP1 SSTORE POP PUSH1 0x3 DUP3 ADD DUP2 PUSH1 0x3 ADD SWAP1 DUP1 SLOAD PUSH2 0x87A SWAP3 SWAP2 SWAP1 PUSH2 0x1136 JUMP JUMPDEST POP SWAP1 POP POP POP JUMPDEST DUP1 PUSH1 0x5 PUSH0 PUSH1 0x3 SLOAD DUP2 MSTORE PUSH1 0x20 ADD SWAP1 DUP2 MSTORE PUSH1 0x20 ADD PUSH0 KECCAK256 PUSH1 0x1 ADD DUP2 SWAP1 SSTORE POP POP PUSH0 PUSH0 PUSH1 0x14 PUSH2 0x100 EXP DUP2 SLOAD DUP2 PUSH1 0xFF MUL NOT AND SWAP1 DUP4 ISZERO ISZERO MUL OR SWAP1 SSTORE POP POP JUMP JUMPDEST PUSH0 PUSH0 PUSH0 PUSH0 PUSH1 0x5 PUSH0 PUSH1 0x4 PUSH0 DUP10 PUSH20 0xFFFFFFFFFFFFFFFFFFFFFFFFFFFFFFFFFFFFFFFF AND PUSH20 0xFFFFFFFFFFFFFFFFFFFFFFFFFFFFFFFFFFFFFFFF AND DUP2 MSTORE PUSH1 0x20 ADD SWAP1 DUP2 MSTORE PUSH1 0x20 ADD PUSH0 KECCAK256 SLOAD DUP2 MSTORE PUSH1 0x20 ADD SWAP1 DUP2 MSTORE PUSH1 0x20 ADD PUSH0 KECCAK256 PUSH1 0x3 ADD DUP6 DUP2 SLOAD DUP2 LT PUSH2 0x91F JUMPI PUSH2 0x91E PUSH2 0x18E8 JUMP JUMPDEST JUMPDEST SWAP1 PUSH0 MSTORE PUSH1 0x20 PUSH0 KECCAK256 SWAP1 PUSH1 0x4 MUL ADD PUSH1 0x40 MLOAD DUP1 PUSH1 0x80 ADD PUSH1 0x40 MSTORE SWAP1 DUP2 PUSH0 DUP3 ADD SLOAD DUP2 MSTORE PUSH1 0x20 ADD PUSH1 0x1 DUP3 ADD SLOAD DUP2 MSTORE PUSH1 0x20 ADD PUSH1 0x2 DUP3 ADD SLOAD DUP2 MSTORE PUSH1 0x20 ADD PUSH1 0x3 DUP3 ADD PUSH0 SWAP1 SLOAD SWAP1 PUSH2 0x100 EXP SWAP1 DIV PUSH1 0xFF AND PUSH1 0xFF AND PUSH1 0xFF AND DUP2 MSTORE POP POP SWAP1 POP DUP1 PUSH0 ADD MLOAD DUP2 PUSH1 0x20 ADD MLOAD DUP3 PUSH1 0x40 ADD MLOAD SWAP4 POP SWAP4 POP SWAP4 POP POP SWAP3 POP SWAP3 POP SWAP3 JUMP JUMPDEST PUSH0 PUSH1 0x4 PUSH0 DUP4 PUSH20 0xFFFFFFFFFFFFFFFFFFFFFFFFFFFFFFFFFFFFFFFF AND PUSH20 0xFFFFFFFFFFFFFFFFFFFFFFFFFFFFFFFFFFFFFFFF AND DUP2 MSTORE PUSH1 0x20 ADD SWAP1 DUP2 MSTORE PUSH1 0x20 ADD PUSH0 KECCAK256 SLOAD SWAP1 POP SWAP2 SWAP1 POP JUMP JUMPDEST PUSH0 PUSH1 0x5 PUSH0 PUSH1 0x4 PUSH0 DUP6 PUSH20 0xFFFFFFFFFFFFFFFFFFFFFFFFFFFFFFFFFFFFFFFF AND PUSH20 0xFFFFFFFFFFFFFFFFFFFFFFFFFFFFFFFFFFFFFFFF AND DUP2 MSTORE PUSH1 0x20 ADD SWAP1 DUP2 MSTORE PUSH1 0x20 ADD PUSH0 KECCAK256 SLOAD DUP2 MSTORE PUSH1 0x20 ADD SWAP1 DUP2 MSTORE PUSH1 0x20 ADD PUSH0 KECCAK256 PUSH1 0x3 ADD DUP1 SLOAD SWAP1 POP SWAP1 POP SWAP2 SWAP1 POP JUMP JUMPDEST PUSH1 0x5 PUSH1 0x20 MSTORE DUP1 PUSH0 MSTORE PUSH1 0x40 PUSH0 KECCAK256 PUSH0 SWAP2 POP SWAP1 POP DUP1 PUSH0 ADD PUSH0 SWAP1 SLOAD SWAP1 PUSH2 0x100 EXP SWAP1 DIV PUSH20 0xFFFFFFFFFFFFFFFFFFFFFFFFFFFFFFFFFFFFFFFF AND SWAP1 DUP1 PUSH1 0x1 ADD SLOAD SWAP1 DUP1 PUSH1 0x2 ADD PUSH0 SWAP1 SLOAD SWAP1 PUSH2 0x100 EXP SWAP1 DIV PUSH1 0xFF AND SWAP1 POP DUP4 JUMP JUMPDEST PUSH1 0x4 PUSH1 0x20 MSTORE DUP1 PUSH0 MSTORE PUSH1 0x40 PUSH0 KECCAK256 PUSH0 SWAP2 POP SWAP1 POP SLOAD DUP2 JUMP JUMPDEST PUSH1 0x1 PUSH1 0x20 MSTORE DUP1 PUSH0 MSTORE PUSH1 0x40 PUSH0 KECCAK256 PUSH0 SWAP2 POP SWAP1 POP SLOAD DUP2 JUMP JUMPDEST PUSH0 PUSH1 0x1 PUSH0 PUSH0 PUSH1 0x15 SWAP1 SLOAD SWAP1 PUSH2 0x100 EXP SWAP1 DIV PUSH1 0xFF AND PUSH1 0xFF AND PUSH1 0xFF AND DUP2 MSTORE PUSH1 0x20 ADD SWAP1 DUP2 MSTORE PUSH1 0x20 ADD PUSH0 KECCAK256 SLOAD SWAP1 POP SWAP1 JUMP JUMPDEST PUSH0 PUSH0 SWAP1 SLOAD SWAP1 PUSH2 0x100 EXP SWAP1 DIV PUSH20 0xFFFFFFFFFFFFFFFFFFFFFFFFFFFFFFFFFFFFFFFF AND PUSH20 0xFFFFFFFFFFFFFFFFFFFFFFFFFFFFFFFFFFFFFFFF AND CALLER PUSH20 0xFFFFFFFFFFFFFFFFFFFFFFFFFFFFFFFFFFFFFFFF AND EQ PUSH2 0xB65 JUMPI PUSH1 0x40 MLOAD PUSH32 0x8C379A000000000000000000000000000000000000000000000000000000000 DUP2 MSTORE PUSH1 0x4 ADD PUSH2 0xB5C SWAP1 PUSH2 0x195F JUMP JUMPDEST PUSH1 0x40 MLOAD DUP1 SWAP2 SUB SWAP1 REVERT JUMPDEST DUP1 PUSH0 PUSH1 0x15 PUSH2 0x100 EXP DUP2 SLOAD DUP2 PUSH1 0xFF MUL NOT AND SWAP1 DUP4 PUSH1 0xFF AND MUL OR SWAP1 SSTORE POP POP JUMP JUMPDEST PUSH0 PUSH0 SWAP1 SLOAD SWAP1 PUSH2 0x100 EXP SWAP1 DIV PUSH20 0xFFFFFFFFFFFFFFFFFFFFFFFFFFFFFFFFFFFFFFFF AND DUP2 JUMP JUMPDEST PUSH0 PUSH1 0x5 PUSH0 DUP4 DUP2 MSTORE PUSH1 0x20 ADD SWAP1 DUP2 MSTORE PUSH1 0x20 ADD PUSH0 KECCAK256 PUSH0 ADD PUSH0 SWAP1 SLOAD SWAP1 PUSH2 0x100 EXP SWAP1 DIV PUSH20 0xFFFFFFFFFFFFFFFFFFFFFFFFFFFFFFFFFFFFFFFF AND SWAP1 POP SWAP2 SWAP1 POP JUMP JUMPDEST PUSH0 PUSH0 SWAP1 SLOAD SWAP1 PUSH2 0x100 EXP SWAP1 DIV PUSH20 0xFFFFFFFFFFFFFFFFFFFFFFFFFFFFFFFFFFFFFFFF AND PUSH20 0xFFFFFFFFFFFFFFFFFFFFFFFFFFFFFFFFFFFFFFFF AND CALLER PUSH20 0xFFFFFFFFFFFFFFFFFFFFFFFFFFFFFFFFFFFFFFFF AND EQ PUSH2 0xC6F JUMPI PUSH1 0x40 MLOAD PUSH32 0x8C379A000000000000000000000000000000000000000000000000000000000 DUP2 MSTORE PUSH1 0x4 ADD PUSH2 0xC66 SWAP1 PUSH2 0x195F JUMP JUMPDEST PUSH1 0x40 MLOAD DUP1 SWAP2 SUB SWAP1 REVERT JUMPDEST DUP1 PUSH1 0x2 PUSH0 PUSH2 0x100 EXP DUP2 SLOAD DUP2 PUSH20 0xFFFFFFFFFFFFFFFFFFFFFFFFFFFFFFFFFFFFFFFF MUL NOT AND SWAP1 DUP4 PUSH20 0xFFFFFFFFFFFFFFFFFFFFFFFFFFFFFFFFFFFFFFFF AND MUL OR SWAP1 SSTORE POP POP JUMP JUMPDEST PUSH0 PUSH0 SWAP1 SLOAD SWAP1 PUSH2 0x100 EXP SWAP1 DIV PUSH20 0xFFFFFFFFFFFFFFFFFFFFFFFFFFFFFFFFFFFFFFFF AND PUSH20 0xFFFFFFFFFFFFFFFFFFFFFFFFFFFFFFFFFFFFFFFF AND CALLER PUSH20 0xFFFFFFFFFFFFFFFFFFFFFFFFFFFFFFFFFFFFFFFF AND EQ PUSH2 0xD40 JUMPI PUSH1 0x40 MLOAD PUSH32 0x8C379A000000000000000000000000000000000000000000000000000000000 DUP2 MSTORE PUSH1 0x4 ADD PUSH2 0xD37 SWAP1 PUSH2 0x195F JUMP JUMPDEST PUSH1 0x40 MLOAD DUP1 SWAP2 SUB SWAP1 REVERT JUMPDEST DUP1 PUSH1 0x1 PUSH0 DUP5 PUSH1 0xFF AND PUSH1 0xFF AND DUP2 MSTORE PUSH1 0x20 ADD SWAP1 DUP2 MSTORE PUSH1 0x20 ADD PUSH0 KECCAK256 DUP2 SWAP1 SSTORE POP POP POP JUMP JUMPDEST PUSH0 PUSH1 0x15 SWAP1 SLOAD SWAP1 PUSH2 0x100 EXP SWAP1 DIV PUSH1 0xFF AND DUP2 JUMP JUMPDEST PUSH1 0x3 SLOAD DUP2 JUMP JUMPDEST PUSH0 PUSH0 SWAP1 SLOAD SWAP1 PUSH2 0x100 EXP SWAP1 DIV PUSH20 0xFFFFFFFFFFFFFFFFFFFFFFFFFFFFFFFFFFFFFFFF AND PUSH20 0xFFFFFFFFFFFFFFFFFFFFFFFFFFFFFFFFFFFFFFFF AND CALLER PUSH20 0xFFFFFFFFFFFFFFFFFFFFFFFFFFFFFFFFFFFFFFFF AND EQ PUSH2 0xE06 JUMPI PUSH1 0x40 MLOAD PUSH32 0x8C379A000000000000000000000000000000000000000000000000000000000 DUP2 MSTORE PUSH1 0x4 ADD PUSH2 0xDFD SWAP1 PUSH2 0x195F JUMP JUMPDEST PUSH1 0x40 MLOAD DUP1 SWAP2 SUB SWAP1 REVERT JUMPDEST PUSH0 PUSH1 0x4 PUSH0 DUP5 PUSH20 0xFFFFFFFFFFFFFFFFFFFFFFFFFFFFFFFFFFFFFFFF AND PUSH20 0xFFFFFFFFFFFFFFFFFFFFFFFFFFFFFFFFFFFFFFFF AND DUP2 MSTORE PUSH1 0x20 ADD SWAP1 DUP2 MSTORE PUSH1 0x20 ADD PUSH0 KECCAK256 SLOAD SUB PUSH2 0xE85 JUMPI PUSH1 0x40 MLOAD PUSH32 0x8C379A000000000000000000000000000000000000000000000000000000000 DUP2 MSTORE PUSH1 0x4 ADD PUSH2 0xE7C SWAP1 PUSH2 0x19C7 JUMP JUMPDEST PUSH1 0x40 MLOAD DUP1 SWAP2 SUB SWAP1 REVERT JUMPDEST DUP1 PUSH1 0x5 PUSH0 PUSH1 0x4 PUSH0 DUP7 PUSH20 0xFFFFFFFFFFFFFFFFFFFFFFFFFFFFFFFFFFFFFFFF AND PUSH20 0xFFFFFFFFFFFFFFFFFFFFFFFFFFFFFFFFFFFFFFFF AND DUP2 MSTORE PUSH1 0x20 ADD SWAP1 DUP2 MSTORE PUSH1 0x20 ADD PUSH0 KECCAK256 SLOAD DUP2 MSTORE PUSH1 0x20 ADD SWAP1 DUP2 MSTORE PUSH1 0x20 ADD PUSH0 KECCAK256 PUSH1 0x1 ADD PUSH0 DUP3 DUP3 SLOAD PUSH2 0xEE5 SWAP2 SWAP1 PUSH2 0x19E5 JUMP JUMPDEST SWAP3 POP POP DUP2 SWAP1 SSTORE POP POP POP JUMP JUMPDEST PUSH0 PUSH1 0x60 PUSH1 0x2 PUSH0 SWAP1 SLOAD SWAP1 PUSH2 0x100 EXP SWAP1 DIV PUSH20 0xFFFFFFFFFFFFFFFFFFFFFFFFFFFFFFFFFFFFFFFF AND PUSH20 0xFFFFFFFFFFFFFFFFFFFFFFFFFFFFFFFFFFFFFFFF AND PUSH4 0x21055ACB PUSH6 0x5AF3107A4000 PUSH1 0x40 MLOAD DUP3 PUSH4 0xFFFFFFFF AND PUSH1 0xE0 SHL DUP2 MSTORE PUSH1 0x4 ADD PUSH0 PUSH1 0x40 MLOAD DUP1 DUP4 SUB DUP2 DUP6 DUP9 GAS CALL ISZERO DUP1 ISZERO PUSH2 0xF64 JUMPI RETURNDATASIZE PUSH0 PUSH0 RETURNDATACOPY RETURNDATASIZE PUSH0 REVERT JUMPDEST POP POP POP POP POP PUSH1 0x40 MLOAD RETURNDATASIZE PUSH0 DUP3 RETURNDATACOPY RETURNDATASIZE PUSH1 0x1F NOT PUSH1 0x1F DUP3 ADD AND DUP3 ADD DUP1 PUSH1 0x40 MSTORE POP DUP2 ADD SWAP1 PUSH2 0xF8D SWAP2 SWAP1 PUSH2 0x1B4A JUMP JUMPDEST DUP1 SWAP3 POP DUP2 SWAP4 POP POP POP SWAP1 SWAP2 JUMP JUMPDEST PUSH0 PUSH0 SWAP1 SLOAD SWAP1 PUSH2 0x100 EXP SWAP1 DIV PUSH20 0xFFFFFFFFFFFFFFFFFFFFFFFFFFFFFFFFFFFFFFFF AND PUSH20 0xFFFFFFFFFFFFFFFFFFFFFFFFFFFFFFFFFFFFFFFF AND CALLER PUSH20 0xFFFFFFFFFFFFFFFFFFFFFFFFFFFFFFFFFFFFFFFF AND EQ PUSH2 0x1027 JUMPI PUSH1 0x40 MLOAD PUSH32 0x8C379A000000000000000000000000000000000000000000000000000000000 DUP2 MSTORE PUSH1 0x4 ADD PUSH2 0x101E SWAP1 PUSH2 0x195F JUMP JUMPDEST PUSH1 0x40 MLOAD DUP1 SWAP2 SUB SWAP1 REVERT JUMPDEST PUSH0 PUSH20 0xFFFFFFFFFFFFFFFFFFFFFFFFFFFFFFFFFFFFFFFF AND DUP2 PUSH20 0xFFFFFFFFFFFFFFFFFFFFFFFFFFFFFFFFFFFFFFFF AND SUB PUSH2 0x1095 JUMPI PUSH1 0x40 MLOAD PUSH32 0x8C379A000000000000000000000000000000000000000000000000000000000 DUP2 MSTORE PUSH1 0x4 ADD PUSH2 0x108C SWAP1 PUSH2 0x1BEE JUMP JUMPDEST PUSH1 0x40 MLOAD DUP1 SWAP2 SUB SWAP1 REVERT JUMPDEST DUP1 PUSH20 0xFFFFFFFFFFFFFFFFFFFFFFFFFFFFFFFFFFFFFFFF AND PUSH2 0x8FC SELFBALANCE SWAP1 DUP2 ISZERO MUL SWAP1 PUSH1 0x40 MLOAD PUSH0 PUSH1 0x40 MLOAD DUP1 DUP4 SUB DUP2 DUP6 DUP9 DUP9 CALL SWAP4 POP POP POP POP ISZERO DUP1 ISZERO PUSH2 0x10D8 JUMPI RETURNDATASIZE PUSH0 PUSH0 RETURNDATACOPY RETURNDATASIZE PUSH0 REVERT JUMPDEST POP POP JUMP JUMPDEST PUSH0 PUSH1 0x5 PUSH0 PUSH1 0x4 PUSH0 DUP6 PUSH20 0xFFFFFFFFFFFFFFFFFFFFFFFFFFFFFFFFFFFFFFFF AND PUSH20 0xFFFFFFFFFFFFFFFFFFFFFFFFFFFFFFFFFFFFFFFF AND DUP2 MSTORE PUSH1 0x20 ADD SWAP1 DUP2 MSTORE PUSH1 0x20 ADD PUSH0 KECCAK256 SLOAD DUP2 MSTORE PUSH1 0x20 ADD SWAP1 DUP2 MSTORE PUSH1 0x20 ADD PUSH0 KECCAK256 PUSH1 0x1 ADD SLOAD SWAP1 POP SWAP2 SWAP1 POP JUMP JUMPDEST DUP3 DUP1 SLOAD DUP3 DUP3 SSTORE SWAP1 PUSH0 MSTORE PUSH1 0x20 PUSH0 KECCAK256 SWAP1 PUSH1 0x4 MUL DUP2 ADD SWAP3 DUP3 ISZERO PUSH2 0x11C1 JUMPI PUSH0 MSTORE PUSH1 0x20 PUSH0 KECCAK256 SWAP2 PUSH1 0x4 MUL DUP3 ADD JUMPDEST DUP3 DUP2 GT ISZERO PUSH2 0x11C0 JUMPI DUP3 DUP3 PUSH0 DUP3 ADD SLOAD DUP2 PUSH0 ADD SSTORE PUSH1 0x1 DUP3 ADD SLOAD DUP2 PUSH1 0x1 ADD SSTORE PUSH1 0x2 DUP3 ADD SLOAD DUP2 PUSH1 0x2 ADD SSTORE PUSH1 0x3 DUP3 ADD PUSH0 SWAP1 SLOAD SWAP1 PUSH2 0x100 EXP SWAP1 DIV PUSH1 0xFF AND DUP2 PUSH1 0x3 ADD PUSH0 PUSH2 0x100 EXP DUP2 SLOAD DUP2 PUSH1 0xFF MUL NOT AND SWAP1 DUP4 PUSH1 0xFF AND MUL OR SWAP1 SSTORE POP POP POP SWAP2 PUSH1 0x4 ADD SWAP2 SWAP1 PUSH1 0x4 ADD SWAP1 PUSH2 0x115D JUMP JUMPDEST JUMPDEST POP SWAP1 POP PUSH2 0x11CE SWAP2 SWAP1 PUSH2 0x11D2 JUMP JUMPDEST POP SWAP1 JUMP JUMPDEST JUMPDEST DUP1 DUP3 GT ISZERO PUSH2 0x120C JUMPI PUSH0 PUSH0 DUP3 ADD PUSH0 SWAP1 SSTORE PUSH1 0x1 DUP3 ADD PUSH0 SWAP1 SSTORE PUSH1 0x2 DUP3 ADD PUSH0 SWAP1 SSTORE PUSH1 0x3 DUP3 ADD PUSH0 PUSH2 0x100 EXP DUP2 SLOAD SWAP1 PUSH1 0xFF MUL NOT AND SWAP1 SSTORE POP PUSH1 0x4 ADD PUSH2 0x11D3 JUMP JUMPDEST POP SWAP1 JUMP JUMPDEST PUSH0 PUSH1 0x40 MLOAD SWAP1 POP SWAP1 JUMP JUMPDEST PUSH0 PUSH0 REVERT JUMPDEST PUSH0 PUSH0 REVERT JUMPDEST PUSH0 DUP2 ISZERO ISZERO SWAP1 POP SWAP2 SWAP1 POP JUMP JUMPDEST PUSH2 0x1235 DUP2 PUSH2 0x1221 JUMP JUMPDEST DUP2 EQ PUSH2 0x123F JUMPI PUSH0 PUSH0 REVERT JUMPDEST POP JUMP JUMPDEST PUSH0 DUP2 CALLDATALOAD SWAP1 POP PUSH2 0x1250 DUP2 PUSH2 0x122C JUMP JUMPDEST SWAP3 SWAP2 POP POP JUMP JUMPDEST PUSH0 PUSH1 0x20 DUP3 DUP5 SUB SLT ISZERO PUSH2 0x126B JUMPI PUSH2 0x126A PUSH2 0x1219 JUMP JUMPDEST JUMPDEST PUSH0 PUSH2 0x1278 DUP5 DUP3 DUP6 ADD PUSH2 0x1242 JUMP JUMPDEST SWAP2 POP POP SWAP3 SWAP2 POP POP JUMP JUMPDEST PUSH0 PUSH20 0xFFFFFFFFFFFFFFFFFFFFFFFFFFFFFFFFFFFFFFFF DUP3 AND SWAP1 POP SWAP2 SWAP1 POP JUMP JUMPDEST PUSH0 PUSH2 0x12AA DUP3 PUSH2 0x1281 JUMP JUMPDEST SWAP1 POP SWAP2 SWAP1 POP JUMP JUMPDEST PUSH2 0x12BA DUP2 PUSH2 0x12A0 JUMP JUMPDEST DUP2 EQ PUSH2 0x12C4 JUMPI PUSH0 PUSH0 REVERT JUMPDEST POP JUMP JUMPDEST PUSH0 DUP2 CALLDATALOAD SWAP1 POP PUSH2 0x12D5 DUP2 PUSH2 0x12B1 JUMP JUMPDEST SWAP3 SWAP2 POP POP JUMP JUMPDEST PUSH0 DUP2 SWAP1 POP SWAP2 SWAP1 POP JUMP JUMPDEST PUSH2 0x12ED DUP2 PUSH2 0x12DB JUMP JUMPDEST DUP2 EQ PUSH2 0x12F7 JUMPI PUSH0 PUSH0 REVERT JUMPDEST POP JUMP JUMPDEST PUSH0 DUP2 CALLDATALOAD SWAP1 POP PUSH2 0x1308 DUP2 PUSH2 0x12E4 JUMP JUMPDEST SWAP3 SWAP2 POP POP JUMP JUMPDEST PUSH0 PUSH0 PUSH1 0x40 DUP4 DUP6 SUB SLT ISZERO PUSH2 0x1324 JUMPI PUSH2 0x1323 PUSH2 0x1219 JUMP JUMPDEST JUMPDEST PUSH0 PUSH2 0x1331 DUP6 DUP3 DUP7 ADD PUSH2 0x12C7 JUMP JUMPDEST SWAP3 POP POP PUSH1 0x20 PUSH2 0x1342 DUP6 DUP3 DUP7 ADD PUSH2 0x12FA JUMP JUMPDEST SWAP2 POP POP SWAP3 POP SWAP3 SWAP1 POP JUMP JUMPDEST PUSH2 0x1355 DUP2 PUSH2 0x12DB JUMP JUMPDEST DUP3 MSTORE POP POP JUMP JUMPDEST PUSH0 PUSH1 0x60 DUP3 ADD SWAP1 POP PUSH2 0x136E PUSH0 DUP4 ADD DUP7 PUSH2 0x134C JUMP JUMPDEST PUSH2 0x137B PUSH1 0x20 DUP4 ADD DUP6 PUSH2 0x134C JUMP JUMPDEST PUSH2 0x1388 PUSH1 0x40 DUP4 ADD DUP5 PUSH2 0x134C JUMP JUMPDEST SWAP5 SWAP4 POP POP POP POP JUMP JUMPDEST PUSH0 PUSH1 0x20 DUP3 DUP5 SUB SLT ISZERO PUSH2 0x13A5 JUMPI PUSH2 0x13A4 PUSH2 0x1219 JUMP JUMPDEST JUMPDEST PUSH0 PUSH2 0x13B2 DUP5 DUP3 DUP6 ADD PUSH2 0x12C7 JUMP JUMPDEST SWAP2 POP POP SWAP3 SWAP2 POP POP JUMP JUMPDEST PUSH0 PUSH1 0x20 DUP3 ADD SWAP1 POP PUSH2 0x13CE PUSH0 DUP4 ADD DUP5 PUSH2 0x134C JUMP JUMPDEST SWAP3 SWAP2 POP POP JUMP JUMPDEST PUSH0 PUSH1 0x20 DUP3 DUP5 SUB SLT ISZERO PUSH2 0x13E9 JUMPI PUSH2 0x13E8 PUSH2 0x1219 JUMP JUMPDEST JUMPDEST PUSH0 PUSH2 0x13F6 DUP5 DUP3 DUP6 ADD PUSH2 0x12FA JUMP JUMPDEST SWAP2 POP POP SWAP3 SWAP2 POP POP JUMP JUMPDEST PUSH2 0x1408 DUP2 PUSH2 0x12A0 JUMP JUMPDEST DUP3 MSTORE POP POP JUMP JUMPDEST PUSH2 0x1417 DUP2 PUSH2 0x1221 JUMP JUMPDEST DUP3 MSTORE POP POP JUMP JUMPDEST PUSH0 PUSH1 0x60 DUP3 ADD SWAP1 POP PUSH2 0x1430 PUSH0 DUP4 ADD DUP7 PUSH2 0x13FF JUMP JUMPDEST PUSH2 0x143D PUSH1 0x20 DUP4 ADD DUP6 PUSH2 0x134C JUMP JUMPDEST PUSH2 0x144A PUSH1 0x40 DUP4 ADD DUP5 PUSH2 0x140E JUMP JUMPDEST SWAP5 SWAP4 POP POP POP POP JUMP JUMPDEST PUSH0 PUSH1 0xFF DUP3 AND SWAP1 POP SWAP2 SWAP1 POP JUMP JUMPDEST PUSH2 0x1467 DUP2 PUSH2 0x1452 JUMP JUMPDEST DUP2 EQ PUSH2 0x1471 JUMPI PUSH0 PUSH0 REVERT JUMPDEST POP JUMP JUMPDEST PUSH0 DUP2 CALLDATALOAD SWAP1 POP PUSH2 0x1482 DUP2 PUSH2 0x145E JUMP JUMPDEST SWAP3 SWAP2 POP POP JUMP JUMPDEST PUSH0 PUSH1 0x20 DUP3 DUP5 SUB SLT ISZERO PUSH2 0x149D JUMPI PUSH2 0x149C PUSH2 0x1219 JUMP JUMPDEST JUMPDEST PUSH0 PUSH2 0x14AA DUP5 DUP3 DUP6 ADD PUSH2 0x1474 JUMP JUMPDEST SWAP2 POP POP SWAP3 SWAP2 POP POP JUMP JUMPDEST PUSH0 PUSH1 0x20 DUP3 ADD SWAP1 POP PUSH2 0x14C6 PUSH0 DUP4 ADD DUP5 PUSH2 0x13FF JUMP JUMPDEST SWAP3 SWAP2 POP POP JUMP JUMPDEST PUSH0 PUSH0 PUSH1 0x40 DUP4 DUP6 SUB SLT ISZERO PUSH2 0x14E2 JUMPI PUSH2 0x14E1 PUSH2 0x1219 JUMP JUMPDEST JUMPDEST PUSH0 PUSH2 0x14EF DUP6 DUP3 DUP7 ADD PUSH2 0x1474 JUMP JUMPDEST SWAP3 POP POP PUSH1 0x20 PUSH2 0x1500 DUP6 DUP3 DUP7 ADD PUSH2 0x12FA JUMP JUMPDEST SWAP2 POP POP SWAP3 POP SWAP3 SWAP1 POP JUMP JUMPDEST PUSH2 0x1513 DUP2 PUSH2 0x1452 JUMP JUMPDEST DUP3 MSTORE POP POP JUMP JUMPDEST PUSH0 PUSH1 0x20 DUP3 ADD SWAP1 POP PUSH2 0x152C PUSH0 DUP4 ADD DUP5 PUSH2 0x150A JUMP JUMPDEST SWAP3 SWAP2 POP POP JUMP JUMPDEST PUSH0 DUP2 MLOAD SWAP1 POP SWAP2 SWAP1 POP JUMP JUMPDEST PUSH0 DUP3 DUP3 MSTORE PUSH1 0x20 DUP3 ADD SWAP1 POP SWAP3 SWAP2 POP POP JUMP JUMPDEST DUP3 DUP2 DUP4 MCOPY PUSH0 DUP4 DUP4 ADD MSTORE POP POP POP JUMP JUMPDEST PUSH0 PUSH1 0x1F NOT PUSH1 0x1F DUP4 ADD AND SWAP1 POP SWAP2 SWAP1 POP JUMP JUMPDEST PUSH0 PUSH2 0x1574 DUP3 PUSH2 0x1532 JUMP JUMPDEST PUSH2 0x157E DUP2 DUP6 PUSH2 0x153C JUMP JUMPDEST SWAP4 POP PUSH2 0x158E DUP2 DUP6 PUSH1 0x20 DUP7 ADD PUSH2 0x154C JUMP JUMPDEST PUSH2 0x1597 DUP2 PUSH2 0x155A JUMP JUMPDEST DUP5 ADD SWAP2 POP POP SWAP3 SWAP2 POP POP JUMP JUMPDEST PUSH0 PUSH1 0x40 DUP3 ADD SWAP1 POP PUSH2 0x15B5 PUSH0 DUP4 ADD DUP6 PUSH2 0x134C JUMP JUMPDEST DUP2 DUP2 SUB PUSH1 0x20 DUP4 ADD MSTORE PUSH2 0x15C7 DUP2 DUP5 PUSH2 0x156A JUMP JUMPDEST SWAP1 POP SWAP4 SWAP3 POP POP POP JUMP JUMPDEST PUSH0 PUSH2 0x15DA DUP3 PUSH2 0x1281 JUMP JUMPDEST SWAP1 POP SWAP2 SWAP1 POP JUMP JUMPDEST PUSH2 0x15EA DUP2 PUSH2 0x15D0 JUMP JUMPDEST DUP2 EQ PUSH2 0x15F4 JUMPI PUSH0 PUSH0 REVERT JUMPDEST POP JUMP JUMPDEST PUSH0 DUP2 CALLDATALOAD SWAP1 POP PUSH2 0x1605 DUP2 PUSH2 0x15E1 JUMP JUMPDEST SWAP3 SWAP2 POP POP JUMP JUMPDEST PUSH0 PUSH1 0x20 DUP3 DUP5 SUB SLT ISZERO PUSH2 0x1620 JUMPI PUSH2 0x161F PUSH2 0x1219 JUMP JUMPDEST JUMPDEST PUSH0 PUSH2 0x162D DUP5 DUP3 DUP6 ADD PUSH2 0x15F7 JUMP JUMPDEST SWAP2 POP POP SWAP3 SWAP2 POP POP JUMP JUMPDEST PUSH32 0x436F6E7472616374205061757365640000000000000000000000000000000000 PUSH0 DUP3 ADD MSTORE POP JUMP JUMPDEST PUSH0 PUSH2 0x166A PUSH1 0xF DUP4 PUSH2 0x153C JUMP JUMPDEST SWAP2 POP PUSH2 0x1675 DUP3 PUSH2 0x1636 JUMP JUMPDEST PUSH1 0x20 DUP3 ADD SWAP1 POP SWAP2 SWAP1 POP JUMP JUMPDEST PUSH0 PUSH1 0x20 DUP3 ADD SWAP1 POP DUP2 DUP2 SUB PUSH0 DUP4 ADD MSTORE PUSH2 0x1697 DUP2 PUSH2 0x165E JUMP JUMPDEST SWAP1 POP SWAP2 SWAP1 POP JUMP JUMPDEST PUSH32 0x4E6F205265656E7472616E63792C706C73207761697400000000000000000000 PUSH0 DUP3 ADD MSTORE POP JUMP JUMPDEST PUSH0 PUSH2 0x16D2 PUSH1 0x16 DUP4 PUSH2 0x153C JUMP JUMPDEST SWAP2 POP PUSH2 0x16DD DUP3 PUSH2 0x169E JUMP JUMPDEST PUSH1 0x20 DUP3 ADD SWAP1 POP SWAP2 SWAP1 POP JUMP JUMPDEST PUSH0 PUSH1 0x20 DUP3 ADD SWAP1 POP DUP2 DUP2 SUB PUSH0 DUP4 ADD MSTORE PUSH2 0x16FF DUP2 PUSH2 0x16C6 JUMP JUMPDEST SWAP1 POP SWAP2 SWAP1 POP JUMP JUMPDEST PUSH32 0x53656E64206D6F726520424E4220746F20627579205450540000000000000000 PUSH0 DUP3 ADD MSTORE POP JUMP JUMPDEST PUSH0 PUSH2 0x173A PUSH1 0x18 DUP4 PUSH2 0x153C JUMP JUMPDEST SWAP2 POP PUSH2 0x1745 DUP3 PUSH2 0x1706 JUMP JUMPDEST PUSH1 0x20 DUP3 ADD SWAP1 POP SWAP2 SWAP1 POP JUMP JUMPDEST PUSH0 PUSH1 0x20 DUP3 ADD SWAP1 POP DUP2 DUP2 SUB PUSH0 DUP4 ADD MSTORE PUSH2 0x1767 DUP2 PUSH2 0x172E JUMP JUMPDEST SWAP1 POP SWAP2 SWAP1 POP JUMP JUMPDEST PUSH32 0x496E76616C69642064617461206C656E67746800000000000000000000000000 PUSH0 DUP3 ADD MSTORE POP JUMP JUMPDEST PUSH0 PUSH2 0x17A2 PUSH1 0x13 DUP4 PUSH2 0x153C JUMP JUMPDEST SWAP2 POP PUSH2 0x17AD DUP3 PUSH2 0x176E JUMP JUMPDEST PUSH1 0x20 DUP3 ADD SWAP1 POP SWAP2 SWAP1 POP JUMP JUMPDEST PUSH0 PUSH1 0x20 DUP3 ADD SWAP1 POP DUP2 DUP2 SUB PUSH0 DUP4 ADD MSTORE PUSH2 0x17CF DUP2 PUSH2 0x1796 JUMP JUMPDEST SWAP1 POP SWAP2 SWAP1 POP JUMP JUMPDEST PUSH32 0x4E487B7100000000000000000000000000000000000000000000000000000000 PUSH0 MSTORE PUSH1 0x11 PUSH1 0x4 MSTORE PUSH1 0x24 PUSH0 REVERT JUMPDEST PUSH0 PUSH2 0x180D DUP3 PUSH2 0x12DB JUMP JUMPDEST SWAP2 POP PUSH2 0x1818 DUP4 PUSH2 0x12DB JUMP JUMPDEST SWAP3 POP DUP3 DUP3 MUL PUSH2 0x1826 DUP2 PUSH2 0x12DB JUMP JUMPDEST SWAP2 POP DUP3 DUP3 DIV DUP5 EQ DUP4 ISZERO OR PUSH2 0x183D JUMPI PUSH2 0x183C PUSH2 0x17D6 JUMP JUMPDEST JUMPDEST POP SWAP3 SWAP2 POP POP JUMP JUMPDEST PUSH32 0x4E487B7100000000000000000000000000000000000000000000000000000000 PUSH0 MSTORE PUSH1 0x12 PUSH1 0x4 MSTORE PUSH1 0x24 PUSH0 REVERT JUMPDEST PUSH0 PUSH2 0x187B DUP3 PUSH2 0x12DB JUMP JUMPDEST SWAP2 POP PUSH2 0x1886 DUP4 PUSH2 0x12DB JUMP JUMPDEST SWAP3 POP DUP3 PUSH2 0x1896 JUMPI PUSH2 0x1895 PUSH2 0x1844 JUMP JUMPDEST JUMPDEST DUP3 DUP3 DIV SWAP1 POP SWAP3 SWAP2 POP POP JUMP JUMPDEST PUSH0 PUSH2 0x18AB DUP3 PUSH2 0x12DB JUMP JUMPDEST SWAP2 POP PUSH32 0xFFFFFFFFFFFFFFFFFFFFFFFFFFFFFFFFFFFFFFFFFFFFFFFFFFFFFFFFFFFFFFFF DUP3 SUB PUSH2 0x18DD JUMPI PUSH2 0x18DC PUSH2 0x17D6 JUMP JUMPDEST JUMPDEST PUSH1 0x1 DUP3 ADD SWAP1 POP SWAP2 SWAP1 POP JUMP JUMPDEST PUSH32 0x4E487B7100000000000000000000000000000000000000000000000000000000 PUSH0 MSTORE PUSH1 0x32 PUSH1 0x4 MSTORE PUSH1 0x24 PUSH0 REVERT JUMPDEST PUSH32 0x4F6E6C79206F776E657200000000000000000000000000000000000000000000 PUSH0 DUP3 ADD MSTORE POP JUMP JUMPDEST PUSH0 PUSH2 0x1949 PUSH1 0xA DUP4 PUSH2 0x153C JUMP JUMPDEST SWAP2 POP PUSH2 0x1954 DUP3 PUSH2 0x1915 JUMP JUMPDEST PUSH1 0x20 DUP3 ADD SWAP1 POP SWAP2 SWAP1 POP JUMP JUMPDEST PUSH0 PUSH1 0x20 DUP3 ADD SWAP1 POP DUP2 DUP2 SUB PUSH0 DUP4 ADD MSTORE PUSH2 0x1976 DUP2 PUSH2 0x193D JUMP JUMPDEST SWAP1 POP SWAP2 SWAP1 POP JUMP JUMPDEST PUSH32 0x496E76616C696420757365722049440000000000000000000000000000000000 PUSH0 DUP3 ADD MSTORE POP JUMP JUMPDEST PUSH0 PUSH2 0x19B1 PUSH1 0xF DUP4 PUSH2 0x153C JUMP JUMPDEST SWAP2 POP PUSH2 0x19BC DUP3 PUSH2 0x197D JUMP JUMPDEST PUSH1 0x20 DUP3 ADD SWAP1 POP SWAP2 SWAP1 POP JUMP JUMPDEST PUSH0 PUSH1 0x20 DUP3 ADD SWAP1 POP DUP2 DUP2 SUB PUSH0 DUP4 ADD MSTORE PUSH2 0x19DE DUP2 PUSH2 0x19A5 JUMP JUMPDEST SWAP1 POP SWAP2 SWAP1 POP JUMP JUMPDEST PUSH0 PUSH2 0x19EF DUP3 PUSH2 0x12DB JUMP JUMPDEST SWAP2 POP PUSH2 0x19FA DUP4 PUSH2 0x12DB JUMP JUMPDEST SWAP3 POP DUP3 DUP3 ADD SWAP1 POP DUP1 DUP3 GT ISZERO PUSH2 0x1A12 JUMPI PUSH2 0x1A11 PUSH2 0x17D6 JUMP JUMPDEST JUMPDEST SWAP3 SWAP2 POP POP JUMP JUMPDEST PUSH0 DUP2 MLOAD SWAP1 POP PUSH2 0x1A26 DUP2 PUSH2 0x12E4 JUMP JUMPDEST SWAP3 SWAP2 POP POP JUMP JUMPDEST PUSH0 PUSH0 REVERT JUMPDEST PUSH0 PUSH0 REVERT JUMPDEST PUSH32 0x4E487B7100000000000000000000000000000000000000000000000000000000 PUSH0 MSTORE PUSH1 0x41 PUSH1 0x4 MSTORE PUSH1 0x24 PUSH0 REVERT JUMPDEST PUSH2 0x1A6A DUP3 PUSH2 0x155A JUMP JUMPDEST DUP2 ADD DUP2 DUP2 LT PUSH8 0xFFFFFFFFFFFFFFFF DUP3 GT OR ISZERO PUSH2 0x1A89 JUMPI PUSH2 0x1A88 PUSH2 0x1A34 JUMP JUMPDEST JUMPDEST DUP1 PUSH1 0x40 MSTORE POP POP POP JUMP JUMPDEST PUSH0 PUSH2 0x1A9B PUSH2 0x1210 JUMP JUMPDEST SWAP1 POP PUSH2 0x1AA7 DUP3 DUP3 PUSH2 0x1A61 JUMP JUMPDEST SWAP2 SWAP1 POP JUMP JUMPDEST PUSH0 PUSH8 0xFFFFFFFFFFFFFFFF DUP3 GT ISZERO PUSH2 0x1AC6 JUMPI PUSH2 0x1AC5 PUSH2 0x1A34 JUMP JUMPDEST JUMPDEST PUSH2 0x1ACF DUP3 PUSH2 0x155A JUMP JUMPDEST SWAP1 POP PUSH1 0x20 DUP2 ADD SWAP1 POP SWAP2 SWAP1 POP JUMP JUMPDEST PUSH0 PUSH2 0x1AEE PUSH2 0x1AE9 DUP5 PUSH2 0x1AAC JUMP JUMPDEST PUSH2 0x1A92 JUMP JUMPDEST SWAP1 POP DUP3 DUP2 MSTORE PUSH1 0x20 DUP2 ADD DUP5 DUP5 DUP5 ADD GT ISZERO PUSH2 0x1B0A JUMPI PUSH2 0x1B09 PUSH2 0x1A30 JUMP JUMPDEST JUMPDEST PUSH2 0x1B15 DUP5 DUP3 DUP6 PUSH2 0x154C JUMP JUMPDEST POP SWAP4 SWAP3 POP POP POP JUMP JUMPDEST PUSH0 DUP3 PUSH1 0x1F DUP4 ADD SLT PUSH2 0x1B31 JUMPI PUSH2 0x1B30 PUSH2 0x1A2C JUMP JUMPDEST JUMPDEST DUP2 MLOAD PUSH2 0x1B41 DUP5 DUP3 PUSH1 0x20 DUP7 ADD PUSH2 0x1ADC JUMP JUMPDEST SWAP2 POP POP SWAP3 SWAP2 POP POP JUMP JUMPDEST PUSH0 PUSH0 PUSH1 0x40 DUP4 DUP6 SUB SLT ISZERO PUSH2 0x1B60 JUMPI PUSH2 0x1B5F PUSH2 0x1219 JUMP JUMPDEST JUMPDEST PUSH0 PUSH2 0x1B6D DUP6 DUP3 DUP7 ADD PUSH2 0x1A18 JUMP JUMPDEST SWAP3 POP POP PUSH1 0x20 DUP4 ADD MLOAD PUSH8 0xFFFFFFFFFFFFFFFF DUP2 GT ISZERO PUSH2 0x1B8E JUMPI PUSH2 0x1B8D PUSH2 0x121D JUMP JUMPDEST JUMPDEST PUSH2 0x1B9A DUP6 DUP3 DUP7 ADD PUSH2 0x1B1D JUMP JUMPDEST SWAP2 POP POP SWAP3 POP SWAP3 SWAP1 POP JUMP JUMPDEST PUSH32 0x496E76616C696420616464726573730000000000000000000000000000000000 PUSH0 DUP3 ADD MSTORE POP JUMP JUMPDEST PUSH0 PUSH2 0x1BD8 PUSH1 0xF DUP4 PUSH2 0x153C JUMP JUMPDEST SWAP2 POP PUSH2 0x1BE3 DUP3 PUSH2 0x1BA4 JUMP JUMPDEST PUSH1 0x20 DUP3 ADD SWAP1 POP SWAP2 SWAP1 POP JUMP JUMPDEST PUSH0 PUSH1 0x20 DUP3 ADD SWAP1 POP DUP2 DUP2 SUB PUSH0 DUP4 ADD MSTORE PUSH2 0x1C05 DUP2 PUSH2 0x1BCC JUMP JUMPDEST SWAP1 POP SWAP2 SWAP1 POP JUMP INVALID LOG2 PUSH5 0x6970667358 0x22 SLT KECCAK256 0xA9 DUP11 0x4C PUSH27 0xC8124231484CE4D4FDAE7E09BB5F3E795A17E4D8B7DD779D004863 0x21 PUSH5 0x736F6C6343 STOP ADDMOD 0x1E STOP CALLER "
		},
		"gasEstimates": {
			"creation": {
				"codeDepositCost": "1446800",
				"executionCost": "infinite",
				"totalCost": "infinite"
			},
			"external": {
				"": "infinite",
				"getBNBPrice()": "infinite",
				"getPurchase(address,uint256)": "infinite",
				"getPurchaseCount(address)": "5087",
				"getThisStepPrice()": "4772",
				"getUserAddress(uint256)": "2880",
				"getUserId(address)": "2875",
				"getUserTPTBalance(address)": "5121",
				"grantPointsById(address,uint256)": "infinite",
				"owner()": "2618",
				"setIBNBPrice(address)": "26928",
				"setTPTPrice(uint8,uint256)": "25014",
				"setThisStep(uint8)": "26980",
				"thisStep()": "2605",
				"totalUsers()": "2447",
				"tptPrice(uint8)": "2805",
				"userId(address)": "2825",
				"users(uint256)": "infinite",
				"withdrawAll(address)": "infinite"
			},
			"internal": {
				"buyTPT(bool)": "infinite"
			}
		},
		"methodIdentifiers": {
			"getBNBPrice()": "f2220c9e",
			"getPurchase(address,uint256)": "2a2a92cc",
			"getPurchaseCount(address)": "31bbf555",
			"getThisStepPrice()": "672cbe1a",
			"getUserAddress(uint256)": "90d976e2",
			"getUserId(address)": "2b956ff7",
			"getUserTPTBalance(address)": "fdbb6696",
			"grantPointsById(address,uint256)": "ca90d6e6",
			"owner()": "8da5cb5b",
			"setIBNBPrice(address)": "95e55748",
			"setTPTPrice(uint8,uint256)": "a2f5546e",
			"setThisStep(uint8)": "7ce8a08e",
			"thisStep()": "ae243031",
			"totalUsers()": "bff1f9e1",
			"tptPrice(uint8)": "556a7579",
			"userId(address)": "376fe102",
			"users(uint256)": "365b98b2",
			"withdrawAll(address)": "fa09e630"
		}
	},
	"abi": [
		{
			"inputs": [
				{
					"internalType": "address",
					"name": "_iBnbPrice",
					"type": "address"
				}
			],
			"stateMutability": "nonpayable",
			"type": "constructor"
		},
		{
			"stateMutability": "payable",
			"type": "fallback"
		},
		{
			"inputs": [],
			"name": "getBNBPrice",
			"outputs": [
				{
					"internalType": "uint256",
					"name": "bnbPrice",
					"type": "uint256"
				},
				{
					"internalType": "string",
					"name": "mode",
					"type": "string"
				}
			],
			"stateMutability": "payable",
			"type": "function"
		},
		{
			"inputs": [
				{
					"internalType": "address",
					"name": "_userAddress",
					"type": "address"
				},
				{
					"internalType": "uint256",
					"name": "index",
					"type": "uint256"
				}
			],
			"name": "getPurchase",
			"outputs": [
				{
					"internalType": "uint256",
					"name": "timestamp",
					"type": "uint256"
				},
				{
					"internalType": "uint256",
					"name": "bnbAmount",
					"type": "uint256"
				},
				{
					"internalType": "uint256",
					"name": "tptAmount",
					"type": "uint256"
				}
			],
			"stateMutability": "view",
			"type": "function"
		},
		{
			"inputs": [
				{
					"internalType": "address",
					"name": "_userAddress",
					"type": "address"
				}
			],
			"name": "getPurchaseCount",
			"outputs": [
				{
					"internalType": "uint256",
					"name": "",
					"type": "uint256"
				}
			],
			"stateMutability": "view",
			"type": "function"
		},
		{
			"inputs": [],
			"name": "getThisStepPrice",
			"outputs": [
				{
					"internalType": "uint256",
					"name": "",
					"type": "uint256"
				}
			],
			"stateMutability": "view",
			"type": "function"
		},
		{
			"inputs": [
				{
					"internalType": "uint256",
					"name": "id",
					"type": "uint256"
				}
			],
			"name": "getUserAddress",
			"outputs": [
				{
					"internalType": "address",
					"name": "",
					"type": "address"
				}
			],
			"stateMutability": "view",
			"type": "function"
		},
		{
			"inputs": [
				{
					"internalType": "address",
					"name": "user",
					"type": "address"
				}
			],
			"name": "getUserId",
			"outputs": [
				{
					"internalType": "uint256",
					"name": "",
					"type": "uint256"
				}
			],
			"stateMutability": "view",
			"type": "function"
		},
		{
			"inputs": [
				{
					"internalType": "address",
					"name": "_userAddress",
					"type": "address"
				}
			],
			"name": "getUserTPTBalance",
			"outputs": [
				{
					"internalType": "uint256",
					"name": "",
					"type": "uint256"
				}
			],
			"stateMutability": "view",
			"type": "function"
		},
		{
			"inputs": [
				{
					"internalType": "address",
					"name": "_userAddress",
					"type": "address"
				},
				{
					"internalType": "uint256",
					"name": "_value",
					"type": "uint256"
				}
			],
			"name": "grantPointsById",
			"outputs": [],
			"stateMutability": "nonpayable",
			"type": "function"
		},
		{
			"inputs": [],
			"name": "owner",
			"outputs": [
				{
					"internalType": "address",
					"name": "",
					"type": "address"
				}
			],
			"stateMutability": "view",
			"type": "function"
		},
		{
			"inputs": [
				{
					"internalType": "address",
					"name": "_bnbprice",
					"type": "address"
				}
			],
			"name": "setIBNBPrice",
			"outputs": [],
			"stateMutability": "nonpayable",
			"type": "function"
		},
		{
			"inputs": [
				{
					"internalType": "uint8",
					"name": "_step",
					"type": "uint8"
				},
				{
					"internalType": "uint256",
					"name": "_price",
					"type": "uint256"
				}
			],
			"name": "setTPTPrice",
			"outputs": [],
			"stateMutability": "nonpayable",
			"type": "function"
		},
		{
			"inputs": [
				{
					"internalType": "uint8",
					"name": "_step",
					"type": "uint8"
				}
			],
			"name": "setThisStep",
			"outputs": [],
			"stateMutability": "nonpayable",
			"type": "function"
		},
		{
			"inputs": [],
			"name": "thisStep",
			"outputs": [
				{
					"internalType": "uint8",
					"name": "",
					"type": "uint8"
				}
			],
			"stateMutability": "view",
			"type": "function"
		},
		{
			"inputs": [],
			"name": "totalUsers",
			"outputs": [
				{
					"internalType": "uint256",
					"name": "",
					"type": "uint256"
				}
			],
			"stateMutability": "view",
			"type": "function"
		},
		{
			"inputs": [
				{
					"internalType": "uint8",
					"name": "",
					"type": "uint8"
				}
			],
			"name": "tptPrice",
			"outputs": [
				{
					"internalType": "uint256",
					"name": "",
					"type": "uint256"
				}
			],
			"stateMutability": "view",
			"type": "function"
		},
		{
			"inputs": [
				{
					"internalType": "address",
					"name": "",
					"type": "address"
				}
			],
			"name": "userId",
			"outputs": [
				{
					"internalType": "uint256",
					"name": "",
					"type": "uint256"
				}
			],
			"stateMutability": "view",
			"type": "function"
		},
		{
			"inputs": [
				{
					"internalType": "uint256",
					"name": "",
					"type": "uint256"
				}
			],
			"name": "users",
			"outputs": [
				{
					"internalType": "address",
					"name": "walletAddress",
					"type": "address"
				},
				{
					"internalType": "uint256",
					"name": "tptBalance",
					"type": "uint256"
				},
				{
					"internalType": "bool",
					"name": "hasOffer",
					"type": "bool"
				}
			],
			"stateMutability": "view",
			"type": "function"
		},
		{
			"inputs": [
				{
					"internalType": "address payable",
					"name": "_to",
					"type": "address"
				}
			],
			"name": "withdrawAll",
			"outputs": [],
			"stateMutability": "nonpayable",
			"type": "function"
		},
		{
			"stateMutability": "payable",
			"type": "receive"
		}
	]
}